{"abi":[{"inputs":[],"stateMutability":"nonpayable","type":"constructor"},{"inputs":[{"internalType":"string","name":"name","type":"string"},{"internalType":"uint256","name":"minAmount","type":"uint256"}],"name":"createCampaign","outputs":[],"stateMutability":"nonpayable","type":"function"},{"inputs":[],"name":"getCampaigns","outputs":[{"components":[{"internalType":"address","name":"creatorAddress","type":"address"},{"internalType":"string","name":"name","type":"string"},{"internalType":"address","name":"campaignAddress","type":"address"}],"internalType":"struct CampaignFactory.CampaignInfo[]","name":"","type":"tuple[]"}],"stateMutability":"view","type":"function"},{"inputs":[],"name":"getCreatorAddress","outputs":[{"internalType":"address","name":"","type":"address"}],"stateMutability":"view","type":"function"},{"inputs":[],"name":"getDeployedCampaigns","outputs":[{"internalType":"address[]","name":"","type":"address[]"}],"stateMutability":"view","type":"function"}],"devdoc":{"kind":"dev","methods":{},"version":1},"evm":{"assembly":"    /* \"Campaign.sol\":58:1114  contract CampaignFactory... */\n  mstore(0x40, 0x80)\n    /* \"Campaign.sol\":318:374  constructor()... */\n  callvalue\n  dup1\n  iszero\n  tag_1\n  jumpi\n  0x00\n  dup1\n  revert\ntag_1:\n  pop\n    /* \"Campaign.sol\":357:367  msg.sender */\n  caller\n    /* \"Campaign.sol\":346:354  _creator */\n  0x01\n  0x00\n    /* \"Campaign.sol\":346:367  _creator = msg.sender */\n  0x0100\n  exp\n  dup2\n  sload\n  dup2\n  0xffffffffffffffffffffffffffffffffffffffff\n  mul\n  not\n  and\n  swap1\n  dup4\n  0xffffffffffffffffffffffffffffffffffffffff\n  and\n  mul\n  or\n  swap1\n  sstore\n  pop\n    /* \"Campaign.sol\":58:1114  contract CampaignFactory... */\n  dataSize(sub_0)\n  dup1\n  dataOffset(sub_0)\n  0x00\n  codecopy\n  0x00\n  return\nstop\n\nsub_0: assembly {\n        /* \"Campaign.sol\":58:1114  contract CampaignFactory... */\n      mstore(0x40, 0x80)\n      callvalue\n      dup1\n      iszero\n      tag_1\n      jumpi\n      0x00\n      dup1\n      revert\n    tag_1:\n      pop\n      jumpi(tag_2, lt(calldatasize, 0x04))\n      shr(0xe0, calldataload(0x00))\n      dup1\n      0x4acb9d4f\n      eq\n      tag_3\n      jumpi\n      dup1\n      0x94d2d7a7\n      eq\n      tag_4\n      jumpi\n      dup1\n      0xa6b03633\n      eq\n      tag_5\n      jumpi\n      dup1\n      0xf102a67c\n      eq\n      tag_6\n      jumpi\n    tag_2:\n      0x00\n      dup1\n      revert\n        /* \"Campaign.sol\":790:908  function getDeployedCampaigns() external view returns(address[] memory)... */\n    tag_3:\n      tag_7\n      tag_8\n      jump\t// in\n    tag_7:\n      mload(0x40)\n      tag_9\n      swap2\n      swap1\n      tag_10\n      jump\t// in\n    tag_9:\n      mload(0x40)\n      dup1\n      swap2\n      sub\n      swap1\n      return\n        /* \"Campaign.sol\":914:1005  function getCreatorAddress() external view returns(address){... */\n    tag_4:\n      tag_11\n      tag_12\n      jump\t// in\n    tag_11:\n      mload(0x40)\n      tag_13\n      swap2\n      swap1\n      tag_14\n      jump\t// in\n    tag_13:\n      mload(0x40)\n      dup1\n      swap2\n      sub\n      swap1\n      return\n        /* \"Campaign.sol\":1010:1112  function getCampaigns() external view returns(CampaignInfo[] memory){... */\n    tag_5:\n      tag_15\n      tag_16\n      jump\t// in\n    tag_15:\n      mload(0x40)\n      tag_17\n      swap2\n      swap1\n      tag_18\n      jump\t// in\n    tag_17:\n      mload(0x40)\n      dup1\n      swap2\n      sub\n      swap1\n      return\n        /* \"Campaign.sol\":380:784  function createCampaign(string memory name, uint minAmount) external{... */\n    tag_6:\n      tag_19\n      0x04\n      dup1\n      calldatasize\n      sub\n      dup2\n      add\n      swap1\n      tag_20\n      swap2\n      swap1\n      tag_21\n      jump\t// in\n    tag_20:\n      tag_22\n      jump\t// in\n    tag_19:\n      stop\n        /* \"Campaign.sol\":790:908  function getDeployedCampaigns() external view returns(address[] memory)... */\n    tag_8:\n        /* \"Campaign.sol\":844:860  address[] memory */\n      0x60\n        /* \"Campaign.sol\":883:901  _deployedCampaigns */\n      0x00\n        /* \"Campaign.sol\":876:901  return _deployedCampaigns */\n      dup1\n      sload\n      dup1\n      0x20\n      mul\n      0x20\n      add\n      mload(0x40)\n      swap1\n      dup2\n      add\n      0x40\n      mstore\n      dup1\n      swap3\n      swap2\n      swap1\n      dup2\n      dup2\n      mstore\n      0x20\n      add\n      dup3\n      dup1\n      sload\n      dup1\n      iszero\n      tag_24\n      jumpi\n      0x20\n      mul\n      dup3\n      add\n      swap2\n      swap1\n      0x00\n      mstore\n      keccak256(0x00, 0x20)\n      swap1\n    tag_25:\n      dup2\n      0x00\n      swap1\n      sload\n      swap1\n      0x0100\n      exp\n      swap1\n      div\n      0xffffffffffffffffffffffffffffffffffffffff\n      and\n      0xffffffffffffffffffffffffffffffffffffffff\n      and\n      dup2\n      mstore\n      0x20\n      add\n      swap1\n      0x01\n      add\n      swap1\n      dup1\n      dup4\n      gt\n      tag_25\n      jumpi\n    tag_24:\n      pop\n      pop\n      pop\n      pop\n      pop\n      swap1\n      pop\n        /* \"Campaign.sol\":790:908  function getDeployedCampaigns() external view returns(address[] memory)... */\n      swap1\n      jump\t// out\n        /* \"Campaign.sol\":914:1005  function getCreatorAddress() external view returns(address){... */\n    tag_12:\n        /* \"Campaign.sol\":965:972  address */\n      0x00\n        /* \"Campaign.sol\":990:998  _creator */\n      0x01\n      0x00\n      swap1\n      sload\n      swap1\n      0x0100\n      exp\n      swap1\n      div\n      0xffffffffffffffffffffffffffffffffffffffff\n      and\n        /* \"Campaign.sol\":983:998  return _creator */\n      swap1\n      pop\n        /* \"Campaign.sol\":914:1005  function getCreatorAddress() external view returns(address){... */\n      swap1\n      jump\t// out\n        /* \"Campaign.sol\":1010:1112  function getCampaigns() external view returns(CampaignInfo[] memory){... */\n    tag_16:\n        /* \"Campaign.sol\":1056:1077  CampaignInfo[] memory */\n      0x60\n        /* \"Campaign.sol\":1095:1105  _campaigns */\n      0x02\n        /* \"Campaign.sol\":1088:1105  return _campaigns */\n      dup1\n      sload\n      dup1\n      0x20\n      mul\n      0x20\n      add\n      mload(0x40)\n      swap1\n      dup2\n      add\n      0x40\n      mstore\n      dup1\n      swap3\n      swap2\n      swap1\n      dup2\n      dup2\n      mstore\n      0x20\n      add\n      0x00\n      swap1\n    tag_28:\n      dup3\n      dup3\n      lt\n      iszero\n      tag_29\n      jumpi\n      dup4\n      dup3\n      swap1\n      0x00\n      mstore\n      keccak256(0x00, 0x20)\n      swap1\n      0x03\n      mul\n      add\n      mload(0x40)\n      dup1\n      0x60\n      add\n      0x40\n      mstore\n      swap1\n      dup2\n      0x00\n      dup3\n      add\n      0x00\n      swap1\n      sload\n      swap1\n      0x0100\n      exp\n      swap1\n      div\n      0xffffffffffffffffffffffffffffffffffffffff\n      and\n      0xffffffffffffffffffffffffffffffffffffffff\n      and\n      0xffffffffffffffffffffffffffffffffffffffff\n      and\n      dup2\n      mstore\n      0x20\n      add\n      0x01\n      dup3\n      add\n      dup1\n      sload\n      tag_31\n      swap1\n      tag_32\n      jump\t// in\n    tag_31:\n      dup1\n      0x1f\n      add\n      0x20\n      dup1\n      swap2\n      div\n      mul\n      0x20\n      add\n      mload(0x40)\n      swap1\n      dup2\n      add\n      0x40\n      mstore\n      dup1\n      swap3\n      swap2\n      swap1\n      dup2\n      dup2\n      mstore\n      0x20\n      add\n      dup3\n      dup1\n      sload\n      tag_33\n      swap1\n      tag_32\n      jump\t// in\n    tag_33:\n      dup1\n      iszero\n      tag_34\n      jumpi\n      dup1\n      0x1f\n      lt\n      tag_35\n      jumpi\n      0x0100\n      dup1\n      dup4\n      sload\n      div\n      mul\n      dup4\n      mstore\n      swap2\n      0x20\n      add\n      swap2\n      jump(tag_34)\n    tag_35:\n      dup3\n      add\n      swap2\n      swap1\n      0x00\n      mstore\n      keccak256(0x00, 0x20)\n      swap1\n    tag_36:\n      dup2\n      sload\n      dup2\n      mstore\n      swap1\n      0x01\n      add\n      swap1\n      0x20\n      add\n      dup1\n      dup4\n      gt\n      tag_36\n      jumpi\n      dup3\n      swap1\n      sub\n      0x1f\n      and\n      dup3\n      add\n      swap2\n    tag_34:\n      pop\n      pop\n      pop\n      pop\n      pop\n      dup2\n      mstore\n      0x20\n      add\n      0x02\n      dup3\n      add\n      0x00\n      swap1\n      sload\n      swap1\n      0x0100\n      exp\n      swap1\n      div\n      0xffffffffffffffffffffffffffffffffffffffff\n      and\n      0xffffffffffffffffffffffffffffffffffffffff\n      and\n      0xffffffffffffffffffffffffffffffffffffffff\n      and\n      dup2\n      mstore\n      pop\n      pop\n      dup2\n      mstore\n      0x20\n      add\n      swap1\n      0x01\n      add\n      swap1\n      jump(tag_28)\n    tag_29:\n      pop\n      pop\n      pop\n      pop\n      swap1\n      pop\n        /* \"Campaign.sol\":1010:1112  function getCampaigns() external view returns(CampaignInfo[] memory){... */\n      swap1\n      jump\t// out\n        /* \"Campaign.sol\":380:784  function createCampaign(string memory name, uint minAmount) external{... */\n    tag_22:\n        /* \"Campaign.sol\":458:477  address newCampaign */\n      0x00\n        /* \"Campaign.sol\":501:505  name */\n      dup3\n        /* \"Campaign.sol\":507:516  minAmount */\n      dup3\n        /* \"Campaign.sol\":518:528  msg.sender */\n      caller\n        /* \"Campaign.sol\":488:529  new Campaign(name, minAmount, msg.sender) */\n      mload(0x40)\n      tag_38\n      swap1\n      tag_39\n      jump\t// in\n    tag_38:\n      tag_40\n      swap4\n      swap3\n      swap2\n      swap1\n      tag_41\n      jump\t// in\n    tag_40:\n      mload(0x40)\n      dup1\n      swap2\n      sub\n      swap1\n      0x00\n      create\n      dup1\n      iszero\n      dup1\n      iszero\n      tag_42\n      jumpi\n      returndatasize\n      0x00\n      dup1\n      returndatacopy\n      revert(0x00, returndatasize)\n    tag_42:\n      pop\n        /* \"Campaign.sol\":458:530  address newCampaign = address(new Campaign(name, minAmount, msg.sender)) */\n      swap1\n      pop\n        /* \"Campaign.sol\":540:558  _deployedCampaigns */\n      0x00\n        /* \"Campaign.sol\":564:575  newCampaign */\n      dup2\n        /* \"Campaign.sol\":540:576  _deployedCampaigns.push(newCampaign) */\n      swap1\n      dup1\n      0x01\n      dup2\n      sload\n      add\n      dup1\n      dup3\n      sstore\n      dup1\n      swap2\n      pop\n      pop\n      0x01\n      swap1\n      sub\n      swap1\n      0x00\n      mstore\n      keccak256(0x00, 0x20)\n      add\n      0x00\n      swap1\n      swap2\n      swap1\n      swap2\n      swap1\n      swap2\n      0x0100\n      exp\n      dup2\n      sload\n      dup2\n      0xffffffffffffffffffffffffffffffffffffffff\n      mul\n      not\n      and\n      swap1\n      dup4\n      0xffffffffffffffffffffffffffffffffffffffff\n      and\n      mul\n      or\n      swap1\n      sstore\n      pop\n        /* \"Campaign.sol\":588:612  CampaignInfo memory info */\n      0x00\n        /* \"Campaign.sol\":615:745  CampaignInfo({... */\n      mload(0x40)\n      dup1\n      0x60\n      add\n      0x40\n      mstore\n      dup1\n        /* \"Campaign.sol\":658:668  msg.sender */\n      caller\n        /* \"Campaign.sol\":615:745  CampaignInfo({... */\n      0xffffffffffffffffffffffffffffffffffffffff\n      and\n      dup2\n      mstore\n      0x20\n      add\n        /* \"Campaign.sol\":688:692  name */\n      dup6\n        /* \"Campaign.sol\":615:745  CampaignInfo({... */\n      dup2\n      mstore\n      0x20\n      add\n        /* \"Campaign.sol\":723:734  newCampaign */\n      dup4\n        /* \"Campaign.sol\":615:745  CampaignInfo({... */\n      0xffffffffffffffffffffffffffffffffffffffff\n      and\n      dup2\n      mstore\n      pop\n        /* \"Campaign.sol\":588:745  CampaignInfo memory info = CampaignInfo({... */\n      swap1\n      pop\n        /* \"Campaign.sol\":756:766  _campaigns */\n      0x02\n        /* \"Campaign.sol\":772:776  info */\n      dup2\n        /* \"Campaign.sol\":756:777  _campaigns.push(info) */\n      swap1\n      dup1\n      0x01\n      dup2\n      sload\n      add\n      dup1\n      dup3\n      sstore\n      dup1\n      swap2\n      pop\n      pop\n      0x01\n      swap1\n      sub\n      swap1\n      0x00\n      mstore\n      keccak256(0x00, 0x20)\n      swap1\n      0x03\n      mul\n      add\n      0x00\n      swap1\n      swap2\n      swap1\n      swap2\n      swap1\n      swap2\n      pop\n      0x00\n      dup3\n      add\n      mload\n      dup2\n      0x00\n      add\n      exp(0x0100, 0x00)\n      dup2\n      sload\n      dup2\n      0xffffffffffffffffffffffffffffffffffffffff\n      mul\n      not\n      and\n      swap1\n      dup4\n      0xffffffffffffffffffffffffffffffffffffffff\n      and\n      mul\n      or\n      swap1\n      sstore\n      pop\n      0x20\n      dup3\n      add\n      mload\n      dup2\n      0x01\n      add\n      swap1\n      dup2\n      tag_45\n      swap2\n      swap1\n      tag_46\n      jump\t// in\n    tag_45:\n      pop\n      0x40\n      dup3\n      add\n      mload\n      dup2\n      0x02\n      add\n      exp(0x0100, 0x00)\n      dup2\n      sload\n      dup2\n      0xffffffffffffffffffffffffffffffffffffffff\n      mul\n      not\n      and\n      swap1\n      dup4\n      0xffffffffffffffffffffffffffffffffffffffff\n      and\n      mul\n      or\n      swap1\n      sstore\n      pop\n      pop\n      pop\n        /* \"Campaign.sol\":448:784  {... */\n      pop\n      pop\n        /* \"Campaign.sol\":380:784  function createCampaign(string memory name, uint minAmount) external{... */\n      pop\n      pop\n      jump\t// out\n    tag_39:\n      dataSize(sub_0)\n      dup1\n      dataOffset(sub_0)\n      dup4\n      codecopy\n      add\n      swap1\n      jump\t// out\n        /* \"#utility.yul\":7:121   */\n    tag_47:\n        /* \"#utility.yul\":74:80   */\n      0x00\n        /* \"#utility.yul\":108:113   */\n      dup2\n        /* \"#utility.yul\":102:114   */\n      mload\n        /* \"#utility.yul\":92:114   */\n      swap1\n      pop\n        /* \"#utility.yul\":7:121   */\n      swap2\n      swap1\n      pop\n      jump\t// out\n        /* \"#utility.yul\":127:311   */\n    tag_48:\n        /* \"#utility.yul\":226:237   */\n      0x00\n        /* \"#utility.yul\":260:266   */\n      dup3\n        /* \"#utility.yul\":255:258   */\n      dup3\n        /* \"#utility.yul\":248:267   */\n      mstore\n        /* \"#utility.yul\":300:304   */\n      0x20\n        /* \"#utility.yul\":295:298   */\n      dup3\n        /* \"#utility.yul\":291:305   */\n      add\n        /* \"#utility.yul\":276:305   */\n      swap1\n      pop\n        /* \"#utility.yul\":127:311   */\n      swap3\n      swap2\n      pop\n      pop\n      jump\t// out\n        /* \"#utility.yul\":317:449   */\n    tag_49:\n        /* \"#utility.yul\":384:388   */\n      0x00\n        /* \"#utility.yul\":407:410   */\n      dup2\n        /* \"#utility.yul\":399:410   */\n      swap1\n      pop\n        /* \"#utility.yul\":437:441   */\n      0x20\n        /* \"#utility.yul\":432:435   */\n      dup3\n        /* \"#utility.yul\":428:442   */\n      add\n        /* \"#utility.yul\":420:442   */\n      swap1\n      pop\n        /* \"#utility.yul\":317:449   */\n      swap2\n      swap1\n      pop\n      jump\t// out\n        /* \"#utility.yul\":455:581   */\n    tag_50:\n        /* \"#utility.yul\":492:499   */\n      0x00\n        /* \"#utility.yul\":532:574   */\n      0xffffffffffffffffffffffffffffffffffffffff\n        /* \"#utility.yul\":525:530   */\n      dup3\n        /* \"#utility.yul\":521:575   */\n      and\n        /* \"#utility.yul\":510:575   */\n      swap1\n      pop\n        /* \"#utility.yul\":455:581   */\n      swap2\n      swap1\n      pop\n      jump\t// out\n        /* \"#utility.yul\":587:683   */\n    tag_51:\n        /* \"#utility.yul\":624:631   */\n      0x00\n        /* \"#utility.yul\":653:677   */\n      tag_109\n        /* \"#utility.yul\":671:676   */\n      dup3\n        /* \"#utility.yul\":653:677   */\n      tag_50\n      jump\t// in\n    tag_109:\n        /* \"#utility.yul\":642:677   */\n      swap1\n      pop\n        /* \"#utility.yul\":587:683   */\n      swap2\n      swap1\n      pop\n      jump\t// out\n        /* \"#utility.yul\":689:797   */\n    tag_52:\n        /* \"#utility.yul\":766:790   */\n      tag_111\n        /* \"#utility.yul\":784:789   */\n      dup2\n        /* \"#utility.yul\":766:790   */\n      tag_51\n      jump\t// in\n    tag_111:\n        /* \"#utility.yul\":761:764   */\n      dup3\n        /* \"#utility.yul\":754:791   */\n      mstore\n        /* \"#utility.yul\":689:797   */\n      pop\n      pop\n      jump\t// out\n        /* \"#utility.yul\":803:982   */\n    tag_53:\n        /* \"#utility.yul\":872:882   */\n      0x00\n        /* \"#utility.yul\":893:939   */\n      tag_113\n        /* \"#utility.yul\":935:938   */\n      dup4\n        /* \"#utility.yul\":927:933   */\n      dup4\n        /* \"#utility.yul\":893:939   */\n      tag_52\n      jump\t// in\n    tag_113:\n        /* \"#utility.yul\":971:975   */\n      0x20\n        /* \"#utility.yul\":966:969   */\n      dup4\n        /* \"#utility.yul\":962:976   */\n      add\n        /* \"#utility.yul\":948:976   */\n      swap1\n      pop\n        /* \"#utility.yul\":803:982   */\n      swap3\n      swap2\n      pop\n      pop\n      jump\t// out\n        /* \"#utility.yul\":988:1101   */\n    tag_54:\n        /* \"#utility.yul\":1058:1062   */\n      0x00\n        /* \"#utility.yul\":1090:1094   */\n      0x20\n        /* \"#utility.yul\":1085:1088   */\n      dup3\n        /* \"#utility.yul\":1081:1095   */\n      add\n        /* \"#utility.yul\":1073:1095   */\n      swap1\n      pop\n        /* \"#utility.yul\":988:1101   */\n      swap2\n      swap1\n      pop\n      jump\t// out\n        /* \"#utility.yul\":1137:1869   */\n    tag_55:\n        /* \"#utility.yul\":1256:1259   */\n      0x00\n        /* \"#utility.yul\":1285:1339   */\n      tag_116\n        /* \"#utility.yul\":1333:1338   */\n      dup3\n        /* \"#utility.yul\":1285:1339   */\n      tag_47\n      jump\t// in\n    tag_116:\n        /* \"#utility.yul\":1355:1441   */\n      tag_117\n        /* \"#utility.yul\":1434:1440   */\n      dup2\n        /* \"#utility.yul\":1429:1432   */\n      dup6\n        /* \"#utility.yul\":1355:1441   */\n      tag_48\n      jump\t// in\n    tag_117:\n        /* \"#utility.yul\":1348:1441   */\n      swap4\n      pop\n        /* \"#utility.yul\":1465:1521   */\n      tag_118\n        /* \"#utility.yul\":1515:1520   */\n      dup4\n        /* \"#utility.yul\":1465:1521   */\n      tag_49\n      jump\t// in\n    tag_118:\n        /* \"#utility.yul\":1544:1551   */\n      dup1\n        /* \"#utility.yul\":1575:1576   */\n      0x00\n        /* \"#utility.yul\":1560:1844   */\n    tag_119:\n        /* \"#utility.yul\":1585:1591   */\n      dup4\n        /* \"#utility.yul\":1582:1583   */\n      dup2\n        /* \"#utility.yul\":1579:1592   */\n      lt\n        /* \"#utility.yul\":1560:1844   */\n      iszero\n      tag_121\n      jumpi\n        /* \"#utility.yul\":1661:1667   */\n      dup2\n        /* \"#utility.yul\":1655:1668   */\n      mload\n        /* \"#utility.yul\":1688:1751   */\n      tag_122\n        /* \"#utility.yul\":1747:1750   */\n      dup9\n        /* \"#utility.yul\":1732:1745   */\n      dup3\n        /* \"#utility.yul\":1688:1751   */\n      tag_53\n      jump\t// in\n    tag_122:\n        /* \"#utility.yul\":1681:1751   */\n      swap8\n      pop\n        /* \"#utility.yul\":1774:1834   */\n      tag_123\n        /* \"#utility.yul\":1827:1833   */\n      dup4\n        /* \"#utility.yul\":1774:1834   */\n      tag_54\n      jump\t// in\n    tag_123:\n        /* \"#utility.yul\":1764:1834   */\n      swap3\n      pop\n        /* \"#utility.yul\":1620:1844   */\n      pop\n        /* \"#utility.yul\":1607:1608   */\n      0x01\n        /* \"#utility.yul\":1604:1605   */\n      dup2\n        /* \"#utility.yul\":1600:1609   */\n      add\n        /* \"#utility.yul\":1595:1609   */\n      swap1\n      pop\n        /* \"#utility.yul\":1560:1844   */\n      jump(tag_119)\n    tag_121:\n        /* \"#utility.yul\":1564:1578   */\n      pop\n        /* \"#utility.yul\":1860:1863   */\n      dup6\n        /* \"#utility.yul\":1853:1863   */\n      swap4\n      pop\n        /* \"#utility.yul\":1261:1869   */\n      pop\n      pop\n      pop\n        /* \"#utility.yul\":1137:1869   */\n      swap3\n      swap2\n      pop\n      pop\n      jump\t// out\n        /* \"#utility.yul\":1875:2248   */\n    tag_10:\n        /* \"#utility.yul\":2018:2022   */\n      0x00\n        /* \"#utility.yul\":2056:2058   */\n      0x20\n        /* \"#utility.yul\":2045:2054   */\n      dup3\n        /* \"#utility.yul\":2041:2059   */\n      add\n        /* \"#utility.yul\":2033:2059   */\n      swap1\n      pop\n        /* \"#utility.yul\":2105:2114   */\n      dup2\n        /* \"#utility.yul\":2099:2103   */\n      dup2\n        /* \"#utility.yul\":2095:2115   */\n      sub\n        /* \"#utility.yul\":2091:2092   */\n      0x00\n        /* \"#utility.yul\":2080:2089   */\n      dup4\n        /* \"#utility.yul\":2076:2093   */\n      add\n        /* \"#utility.yul\":2069:2116   */\n      mstore\n        /* \"#utility.yul\":2133:2241   */\n      tag_125\n        /* \"#utility.yul\":2236:2240   */\n      dup2\n        /* \"#utility.yul\":2227:2233   */\n      dup5\n        /* \"#utility.yul\":2133:2241   */\n      tag_55\n      jump\t// in\n    tag_125:\n        /* \"#utility.yul\":2125:2241   */\n      swap1\n      pop\n        /* \"#utility.yul\":1875:2248   */\n      swap3\n      swap2\n      pop\n      pop\n      jump\t// out\n        /* \"#utility.yul\":2254:2372   */\n    tag_56:\n        /* \"#utility.yul\":2341:2365   */\n      tag_127\n        /* \"#utility.yul\":2359:2364   */\n      dup2\n        /* \"#utility.yul\":2341:2365   */\n      tag_51\n      jump\t// in\n    tag_127:\n        /* \"#utility.yul\":2336:2339   */\n      dup3\n        /* \"#utility.yul\":2329:2366   */\n      mstore\n        /* \"#utility.yul\":2254:2372   */\n      pop\n      pop\n      jump\t// out\n        /* \"#utility.yul\":2378:2600   */\n    tag_14:\n        /* \"#utility.yul\":2471:2475   */\n      0x00\n        /* \"#utility.yul\":2509:2511   */\n      0x20\n        /* \"#utility.yul\":2498:2507   */\n      dup3\n        /* \"#utility.yul\":2494:2512   */\n      add\n        /* \"#utility.yul\":2486:2512   */\n      swap1\n      pop\n        /* \"#utility.yul\":2522:2593   */\n      tag_129\n        /* \"#utility.yul\":2590:2591   */\n      0x00\n        /* \"#utility.yul\":2579:2588   */\n      dup4\n        /* \"#utility.yul\":2575:2592   */\n      add\n        /* \"#utility.yul\":2566:2572   */\n      dup5\n        /* \"#utility.yul\":2522:2593   */\n      tag_56\n      jump\t// in\n    tag_129:\n        /* \"#utility.yul\":2378:2600   */\n      swap3\n      swap2\n      pop\n      pop\n      jump\t// out\n        /* \"#utility.yul\":2606:2747   */\n    tag_57:\n        /* \"#utility.yul\":2700:2706   */\n      0x00\n        /* \"#utility.yul\":2734:2739   */\n      dup2\n        /* \"#utility.yul\":2728:2740   */\n      mload\n        /* \"#utility.yul\":2718:2740   */\n      swap1\n      pop\n        /* \"#utility.yul\":2606:2747   */\n      swap2\n      swap1\n      pop\n      jump\t// out\n        /* \"#utility.yul\":2753:2964   */\n    tag_58:\n        /* \"#utility.yul\":2879:2890   */\n      0x00\n        /* \"#utility.yul\":2913:2919   */\n      dup3\n        /* \"#utility.yul\":2908:2911   */\n      dup3\n        /* \"#utility.yul\":2901:2920   */\n      mstore\n        /* \"#utility.yul\":2953:2957   */\n      0x20\n        /* \"#utility.yul\":2948:2951   */\n      dup3\n        /* \"#utility.yul\":2944:2958   */\n      add\n        /* \"#utility.yul\":2929:2958   */\n      swap1\n      pop\n        /* \"#utility.yul\":2753:2964   */\n      swap3\n      swap2\n      pop\n      pop\n      jump\t// out\n        /* \"#utility.yul\":2970:3129   */\n    tag_59:\n        /* \"#utility.yul\":3064:3068   */\n      0x00\n        /* \"#utility.yul\":3087:3090   */\n      dup2\n        /* \"#utility.yul\":3079:3090   */\n      swap1\n      pop\n        /* \"#utility.yul\":3117:3121   */\n      0x20\n        /* \"#utility.yul\":3112:3115   */\n      dup3\n        /* \"#utility.yul\":3108:3122   */\n      add\n        /* \"#utility.yul\":3100:3122   */\n      swap1\n      pop\n        /* \"#utility.yul\":2970:3129   */\n      swap2\n      swap1\n      pop\n      jump\t// out\n        /* \"#utility.yul\":3135:3234   */\n    tag_60:\n        /* \"#utility.yul\":3187:3193   */\n      0x00\n        /* \"#utility.yul\":3221:3226   */\n      dup2\n        /* \"#utility.yul\":3215:3227   */\n      mload\n        /* \"#utility.yul\":3205:3227   */\n      swap1\n      pop\n        /* \"#utility.yul\":3135:3234   */\n      swap2\n      swap1\n      pop\n      jump\t// out\n        /* \"#utility.yul\":3240:3399   */\n    tag_61:\n        /* \"#utility.yul\":3314:3325   */\n      0x00\n        /* \"#utility.yul\":3348:3354   */\n      dup3\n        /* \"#utility.yul\":3343:3346   */\n      dup3\n        /* \"#utility.yul\":3336:3355   */\n      mstore\n        /* \"#utility.yul\":3388:3392   */\n      0x20\n        /* \"#utility.yul\":3383:3386   */\n      dup3\n        /* \"#utility.yul\":3379:3393   */\n      add\n        /* \"#utility.yul\":3364:3393   */\n      swap1\n      pop\n        /* \"#utility.yul\":3240:3399   */\n      swap3\n      swap2\n      pop\n      pop\n      jump\t// out\n        /* \"#utility.yul\":3405:3651   */\n    tag_62:\n        /* \"#utility.yul\":3486:3487   */\n      0x00\n        /* \"#utility.yul\":3496:3609   */\n    tag_136:\n        /* \"#utility.yul\":3510:3516   */\n      dup4\n        /* \"#utility.yul\":3507:3508   */\n      dup2\n        /* \"#utility.yul\":3504:3517   */\n      lt\n        /* \"#utility.yul\":3496:3609   */\n      iszero\n      tag_138\n      jumpi\n        /* \"#utility.yul\":3595:3596   */\n      dup1\n        /* \"#utility.yul\":3590:3593   */\n      dup3\n        /* \"#utility.yul\":3586:3597   */\n      add\n        /* \"#utility.yul\":3580:3598   */\n      mload\n        /* \"#utility.yul\":3576:3577   */\n      dup2\n        /* \"#utility.yul\":3571:3574   */\n      dup5\n        /* \"#utility.yul\":3567:3578   */\n      add\n        /* \"#utility.yul\":3560:3599   */\n      mstore\n        /* \"#utility.yul\":3532:3534   */\n      0x20\n        /* \"#utility.yul\":3529:3530   */\n      dup2\n        /* \"#utility.yul\":3525:3535   */\n      add\n        /* \"#utility.yul\":3520:3535   */\n      swap1\n      pop\n        /* \"#utility.yul\":3496:3609   */\n      jump(tag_136)\n    tag_138:\n        /* \"#utility.yul\":3643:3644   */\n      0x00\n        /* \"#utility.yul\":3634:3640   */\n      dup5\n        /* \"#utility.yul\":3629:3632   */\n      dup5\n        /* \"#utility.yul\":3625:3641   */\n      add\n        /* \"#utility.yul\":3618:3645   */\n      mstore\n        /* \"#utility.yul\":3467:3651   */\n      pop\n        /* \"#utility.yul\":3405:3651   */\n      pop\n      pop\n      pop\n      jump\t// out\n        /* \"#utility.yul\":3657:3759   */\n    tag_63:\n        /* \"#utility.yul\":3698:3704   */\n      0x00\n        /* \"#utility.yul\":3749:3751   */\n      0x1f\n        /* \"#utility.yul\":3745:3752   */\n      not\n        /* \"#utility.yul\":3740:3742   */\n      0x1f\n        /* \"#utility.yul\":3733:3738   */\n      dup4\n        /* \"#utility.yul\":3729:3743   */\n      add\n        /* \"#utility.yul\":3725:3753   */\n      and\n        /* \"#utility.yul\":3715:3753   */\n      swap1\n      pop\n        /* \"#utility.yul\":3657:3759   */\n      swap2\n      swap1\n      pop\n      jump\t// out\n        /* \"#utility.yul\":3765:4122   */\n    tag_64:\n        /* \"#utility.yul\":3843:3846   */\n      0x00\n        /* \"#utility.yul\":3871:3910   */\n      tag_141\n        /* \"#utility.yul\":3904:3909   */\n      dup3\n        /* \"#utility.yul\":3871:3910   */\n      tag_60\n      jump\t// in\n    tag_141:\n        /* \"#utility.yul\":3926:3987   */\n      tag_142\n        /* \"#utility.yul\":3980:3986   */\n      dup2\n        /* \"#utility.yul\":3975:3978   */\n      dup6\n        /* \"#utility.yul\":3926:3987   */\n      tag_61\n      jump\t// in\n    tag_142:\n        /* \"#utility.yul\":3919:3987   */\n      swap4\n      pop\n        /* \"#utility.yul\":3996:4061   */\n      tag_143\n        /* \"#utility.yul\":4054:4060   */\n      dup2\n        /* \"#utility.yul\":4049:4052   */\n      dup6\n        /* \"#utility.yul\":4042:4046   */\n      0x20\n        /* \"#utility.yul\":4035:4040   */\n      dup7\n        /* \"#utility.yul\":4031:4047   */\n      add\n        /* \"#utility.yul\":3996:4061   */\n      tag_62\n      jump\t// in\n    tag_143:\n        /* \"#utility.yul\":4086:4115   */\n      tag_144\n        /* \"#utility.yul\":4108:4114   */\n      dup2\n        /* \"#utility.yul\":4086:4115   */\n      tag_63\n      jump\t// in\n    tag_144:\n        /* \"#utility.yul\":4081:4084   */\n      dup5\n        /* \"#utility.yul\":4077:4116   */\n      add\n        /* \"#utility.yul\":4070:4116   */\n      swap2\n      pop\n        /* \"#utility.yul\":3847:4122   */\n      pop\n        /* \"#utility.yul\":3765:4122   */\n      swap3\n      swap2\n      pop\n      pop\n      jump\t// out\n        /* \"#utility.yul\":4210:5005   */\n    tag_65:\n        /* \"#utility.yul\":4323:4326   */\n      0x00\n        /* \"#utility.yul\":4359:4363   */\n      0x60\n        /* \"#utility.yul\":4354:4357   */\n      dup4\n        /* \"#utility.yul\":4350:4364   */\n      add\n        /* \"#utility.yul\":4456:4460   */\n      0x00\n        /* \"#utility.yul\":4449:4454   */\n      dup4\n        /* \"#utility.yul\":4445:4461   */\n      add\n        /* \"#utility.yul\":4439:4462   */\n      mload\n        /* \"#utility.yul\":4475:4538   */\n      tag_146\n        /* \"#utility.yul\":4532:4536   */\n      0x00\n        /* \"#utility.yul\":4527:4530   */\n      dup7\n        /* \"#utility.yul\":4523:4537   */\n      add\n        /* \"#utility.yul\":4509:4521   */\n      dup3\n        /* \"#utility.yul\":4475:4538   */\n      tag_52\n      jump\t// in\n    tag_146:\n        /* \"#utility.yul\":4374:4548   */\n      pop\n        /* \"#utility.yul\":4630:4634   */\n      0x20\n        /* \"#utility.yul\":4623:4628   */\n      dup4\n        /* \"#utility.yul\":4619:4635   */\n      add\n        /* \"#utility.yul\":4613:4636   */\n      mload\n        /* \"#utility.yul\":4683:4686   */\n      dup5\n        /* \"#utility.yul\":4677:4681   */\n      dup3\n        /* \"#utility.yul\":4673:4687   */\n      sub\n        /* \"#utility.yul\":4666:4670   */\n      0x20\n        /* \"#utility.yul\":4661:4664   */\n      dup7\n        /* \"#utility.yul\":4657:4671   */\n      add\n        /* \"#utility.yul\":4650:4688   */\n      mstore\n        /* \"#utility.yul\":4709:4782   */\n      tag_147\n        /* \"#utility.yul\":4777:4781   */\n      dup3\n        /* \"#utility.yul\":4763:4775   */\n      dup3\n        /* \"#utility.yul\":4709:4782   */\n      tag_64\n      jump\t// in\n    tag_147:\n        /* \"#utility.yul\":4701:4782   */\n      swap2\n      pop\n        /* \"#utility.yul\":4558:4793   */\n      pop\n        /* \"#utility.yul\":4886:4890   */\n      0x40\n        /* \"#utility.yul\":4879:4884   */\n      dup4\n        /* \"#utility.yul\":4875:4891   */\n      add\n        /* \"#utility.yul\":4869:4892   */\n      mload\n        /* \"#utility.yul\":4905:4968   */\n      tag_148\n        /* \"#utility.yul\":4962:4966   */\n      0x40\n        /* \"#utility.yul\":4957:4960   */\n      dup7\n        /* \"#utility.yul\":4953:4967   */\n      add\n        /* \"#utility.yul\":4939:4951   */\n      dup3\n        /* \"#utility.yul\":4905:4968   */\n      tag_52\n      jump\t// in\n    tag_148:\n        /* \"#utility.yul\":4803:4978   */\n      pop\n        /* \"#utility.yul\":4995:4999   */\n      dup1\n        /* \"#utility.yul\":4988:4999   */\n      swap2\n      pop\n        /* \"#utility.yul\":4328:5005   */\n      pop\n        /* \"#utility.yul\":4210:5005   */\n      swap3\n      swap2\n      pop\n      pop\n      jump\t// out\n        /* \"#utility.yul\":5011:5275   */\n    tag_66:\n        /* \"#utility.yul\":5134:5144   */\n      0x00\n        /* \"#utility.yul\":5169:5269   */\n      tag_150\n        /* \"#utility.yul\":5265:5268   */\n      dup4\n        /* \"#utility.yul\":5257:5263   */\n      dup4\n        /* \"#utility.yul\":5169:5269   */\n      tag_65\n      jump\t// in\n    tag_150:\n        /* \"#utility.yul\":5155:5269   */\n      swap1\n      pop\n        /* \"#utility.yul\":5011:5275   */\n      swap3\n      swap2\n      pop\n      pop\n      jump\t// out\n        /* \"#utility.yul\":5281:5421   */\n    tag_67:\n        /* \"#utility.yul\":5378:5382   */\n      0x00\n        /* \"#utility.yul\":5410:5414   */\n      0x20\n        /* \"#utility.yul\":5405:5408   */\n      dup3\n        /* \"#utility.yul\":5401:5415   */\n      add\n        /* \"#utility.yul\":5393:5415   */\n      swap1\n      pop\n        /* \"#utility.yul\":5281:5421   */\n      swap2\n      swap1\n      pop\n      jump\t// out\n        /* \"#utility.yul\":5513:6640   */\n    tag_68:\n        /* \"#utility.yul\":5686:5689   */\n      0x00\n        /* \"#utility.yul\":5715:5796   */\n      tag_153\n        /* \"#utility.yul\":5790:5795   */\n      dup3\n        /* \"#utility.yul\":5715:5796   */\n      tag_57\n      jump\t// in\n    tag_153:\n        /* \"#utility.yul\":5812:5925   */\n      tag_154\n        /* \"#utility.yul\":5918:5924   */\n      dup2\n        /* \"#utility.yul\":5913:5916   */\n      dup6\n        /* \"#utility.yul\":5812:5925   */\n      tag_58\n      jump\t// in\n    tag_154:\n        /* \"#utility.yul\":5805:5925   */\n      swap4\n      pop\n        /* \"#utility.yul\":5951:5954   */\n      dup4\n        /* \"#utility.yul\":5996:6000   */\n      0x20\n        /* \"#utility.yul\":5988:5994   */\n      dup3\n        /* \"#utility.yul\":5984:6001   */\n      mul\n        /* \"#utility.yul\":5979:5982   */\n      dup6\n        /* \"#utility.yul\":5975:6002   */\n      add\n        /* \"#utility.yul\":6026:6109   */\n      tag_155\n        /* \"#utility.yul\":6103:6108   */\n      dup6\n        /* \"#utility.yul\":6026:6109   */\n      tag_59\n      jump\t// in\n    tag_155:\n        /* \"#utility.yul\":6132:6139   */\n      dup1\n        /* \"#utility.yul\":6163:6164   */\n      0x00\n        /* \"#utility.yul\":6148:6595   */\n    tag_156:\n        /* \"#utility.yul\":6173:6179   */\n      dup6\n        /* \"#utility.yul\":6170:6171   */\n      dup2\n        /* \"#utility.yul\":6167:6180   */\n      lt\n        /* \"#utility.yul\":6148:6595   */\n      iszero\n      tag_158\n      jumpi\n        /* \"#utility.yul\":6244:6253   */\n      dup5\n        /* \"#utility.yul\":6238:6242   */\n      dup5\n        /* \"#utility.yul\":6234:6254   */\n      sub\n        /* \"#utility.yul\":6229:6232   */\n      dup10\n        /* \"#utility.yul\":6222:6255   */\n      mstore\n        /* \"#utility.yul\":6295:6301   */\n      dup2\n        /* \"#utility.yul\":6289:6302   */\n      mload\n        /* \"#utility.yul\":6323:6441   */\n      tag_159\n        /* \"#utility.yul\":6436:6440   */\n      dup6\n        /* \"#utility.yul\":6421:6434   */\n      dup3\n        /* \"#utility.yul\":6323:6441   */\n      tag_66\n      jump\t// in\n    tag_159:\n        /* \"#utility.yul\":6315:6441   */\n      swap5\n      pop\n        /* \"#utility.yul\":6464:6551   */\n      tag_160\n        /* \"#utility.yul\":6544:6550   */\n      dup4\n        /* \"#utility.yul\":6464:6551   */\n      tag_67\n      jump\t// in\n    tag_160:\n        /* \"#utility.yul\":6454:6551   */\n      swap3\n      pop\n        /* \"#utility.yul\":6580:6584   */\n      0x20\n        /* \"#utility.yul\":6575:6578   */\n      dup11\n        /* \"#utility.yul\":6571:6585   */\n      add\n        /* \"#utility.yul\":6564:6585   */\n      swap10\n      pop\n        /* \"#utility.yul\":6208:6595   */\n      pop\n        /* \"#utility.yul\":6195:6196   */\n      0x01\n        /* \"#utility.yul\":6192:6193   */\n      dup2\n        /* \"#utility.yul\":6188:6197   */\n      add\n        /* \"#utility.yul\":6183:6197   */\n      swap1\n      pop\n        /* \"#utility.yul\":6148:6595   */\n      jump(tag_156)\n    tag_158:\n        /* \"#utility.yul\":6152:6166   */\n      pop\n        /* \"#utility.yul\":6611:6615   */\n      dup3\n        /* \"#utility.yul\":6604:6615   */\n      swap8\n      pop\n        /* \"#utility.yul\":6631:6634   */\n      dup8\n        /* \"#utility.yul\":6624:6634   */\n      swap6\n      pop\n        /* \"#utility.yul\":5691:6640   */\n      pop\n      pop\n      pop\n      pop\n      pop\n        /* \"#utility.yul\":5513:6640   */\n      swap3\n      swap2\n      pop\n      pop\n      jump\t// out\n        /* \"#utility.yul\":6646:7127   */\n    tag_18:\n        /* \"#utility.yul\":6843:6847   */\n      0x00\n        /* \"#utility.yul\":6881:6883   */\n      0x20\n        /* \"#utility.yul\":6870:6879   */\n      dup3\n        /* \"#utility.yul\":6866:6884   */\n      add\n        /* \"#utility.yul\":6858:6884   */\n      swap1\n      pop\n        /* \"#utility.yul\":6930:6939   */\n      dup2\n        /* \"#utility.yul\":6924:6928   */\n      dup2\n        /* \"#utility.yul\":6920:6940   */\n      sub\n        /* \"#utility.yul\":6916:6917   */\n      0x00\n        /* \"#utility.yul\":6905:6914   */\n      dup4\n        /* \"#utility.yul\":6901:6918   */\n      add\n        /* \"#utility.yul\":6894:6941   */\n      mstore\n        /* \"#utility.yul\":6958:7120   */\n      tag_162\n        /* \"#utility.yul\":7115:7119   */\n      dup2\n        /* \"#utility.yul\":7106:7112   */\n      dup5\n        /* \"#utility.yul\":6958:7120   */\n      tag_68\n      jump\t// in\n    tag_162:\n        /* \"#utility.yul\":6950:7120   */\n      swap1\n      pop\n        /* \"#utility.yul\":6646:7127   */\n      swap3\n      swap2\n      pop\n      pop\n      jump\t// out\n        /* \"#utility.yul\":7133:7208   */\n    tag_69:\n        /* \"#utility.yul\":7166:7172   */\n      0x00\n        /* \"#utility.yul\":7199:7201   */\n      0x40\n        /* \"#utility.yul\":7193:7202   */\n      mload\n        /* \"#utility.yul\":7183:7202   */\n      swap1\n      pop\n        /* \"#utility.yul\":7133:7208   */\n      swap1\n      jump\t// out\n        /* \"#utility.yul\":7214:7331   */\n    tag_70:\n        /* \"#utility.yul\":7323:7324   */\n      0x00\n        /* \"#utility.yul\":7320:7321   */\n      dup1\n        /* \"#utility.yul\":7313:7325   */\n      revert\n        /* \"#utility.yul\":7337:7454   */\n    tag_71:\n        /* \"#utility.yul\":7446:7447   */\n      0x00\n        /* \"#utility.yul\":7443:7444   */\n      dup1\n        /* \"#utility.yul\":7436:7448   */\n      revert\n        /* \"#utility.yul\":7460:7577   */\n    tag_72:\n        /* \"#utility.yul\":7569:7570   */\n      0x00\n        /* \"#utility.yul\":7566:7567   */\n      dup1\n        /* \"#utility.yul\":7559:7571   */\n      revert\n        /* \"#utility.yul\":7583:7700   */\n    tag_73:\n        /* \"#utility.yul\":7692:7693   */\n      0x00\n        /* \"#utility.yul\":7689:7690   */\n      dup1\n        /* \"#utility.yul\":7682:7694   */\n      revert\n        /* \"#utility.yul\":7706:7886   */\n    tag_74:\n        /* \"#utility.yul\":7754:7831   */\n      0x4e487b7100000000000000000000000000000000000000000000000000000000\n        /* \"#utility.yul\":7751:7752   */\n      0x00\n        /* \"#utility.yul\":7744:7832   */\n      mstore\n        /* \"#utility.yul\":7851:7855   */\n      0x41\n        /* \"#utility.yul\":7848:7849   */\n      0x04\n        /* \"#utility.yul\":7841:7856   */\n      mstore\n        /* \"#utility.yul\":7875:7879   */\n      0x24\n        /* \"#utility.yul\":7872:7873   */\n      0x00\n        /* \"#utility.yul\":7865:7880   */\n      revert\n        /* \"#utility.yul\":7892:8173   */\n    tag_75:\n        /* \"#utility.yul\":7975:8002   */\n      tag_170\n        /* \"#utility.yul\":7997:8001   */\n      dup3\n        /* \"#utility.yul\":7975:8002   */\n      tag_63\n      jump\t// in\n    tag_170:\n        /* \"#utility.yul\":7967:7973   */\n      dup2\n        /* \"#utility.yul\":7963:8003   */\n      add\n        /* \"#utility.yul\":8105:8111   */\n      dup2\n        /* \"#utility.yul\":8093:8103   */\n      dup2\n        /* \"#utility.yul\":8090:8112   */\n      lt\n        /* \"#utility.yul\":8069:8087   */\n      0xffffffffffffffff\n        /* \"#utility.yul\":8057:8067   */\n      dup3\n        /* \"#utility.yul\":8054:8088   */\n      gt\n        /* \"#utility.yul\":8051:8113   */\n      or\n        /* \"#utility.yul\":8048:8136   */\n      iszero\n      tag_171\n      jumpi\n        /* \"#utility.yul\":8116:8134   */\n      tag_172\n      tag_74\n      jump\t// in\n    tag_172:\n        /* \"#utility.yul\":8048:8136   */\n    tag_171:\n        /* \"#utility.yul\":8156:8166   */\n      dup1\n        /* \"#utility.yul\":8152:8154   */\n      0x40\n        /* \"#utility.yul\":8145:8167   */\n      mstore\n        /* \"#utility.yul\":7935:8173   */\n      pop\n        /* \"#utility.yul\":7892:8173   */\n      pop\n      pop\n      jump\t// out\n        /* \"#utility.yul\":8179:8308   */\n    tag_76:\n        /* \"#utility.yul\":8213:8219   */\n      0x00\n        /* \"#utility.yul\":8240:8260   */\n      tag_174\n      tag_69\n      jump\t// in\n    tag_174:\n        /* \"#utility.yul\":8230:8260   */\n      swap1\n      pop\n        /* \"#utility.yul\":8269:8302   */\n      tag_175\n        /* \"#utility.yul\":8297:8301   */\n      dup3\n        /* \"#utility.yul\":8289:8295   */\n      dup3\n        /* \"#utility.yul\":8269:8302   */\n      tag_75\n      jump\t// in\n    tag_175:\n        /* \"#utility.yul\":8179:8308   */\n      swap2\n      swap1\n      pop\n      jump\t// out\n        /* \"#utility.yul\":8314:8622   */\n    tag_77:\n        /* \"#utility.yul\":8376:8380   */\n      0x00\n        /* \"#utility.yul\":8466:8484   */\n      0xffffffffffffffff\n        /* \"#utility.yul\":8458:8464   */\n      dup3\n        /* \"#utility.yul\":8455:8485   */\n      gt\n        /* \"#utility.yul\":8452:8508   */\n      iszero\n      tag_177\n      jumpi\n        /* \"#utility.yul\":8488:8506   */\n      tag_178\n      tag_74\n      jump\t// in\n    tag_178:\n        /* \"#utility.yul\":8452:8508   */\n    tag_177:\n        /* \"#utility.yul\":8526:8555   */\n      tag_179\n        /* \"#utility.yul\":8548:8554   */\n      dup3\n        /* \"#utility.yul\":8526:8555   */\n      tag_63\n      jump\t// in\n    tag_179:\n        /* \"#utility.yul\":8518:8555   */\n      swap1\n      pop\n        /* \"#utility.yul\":8610:8614   */\n      0x20\n        /* \"#utility.yul\":8604:8608   */\n      dup2\n        /* \"#utility.yul\":8600:8615   */\n      add\n        /* \"#utility.yul\":8592:8615   */\n      swap1\n      pop\n        /* \"#utility.yul\":8314:8622   */\n      swap2\n      swap1\n      pop\n      jump\t// out\n        /* \"#utility.yul\":8628:8774   */\n    tag_78:\n        /* \"#utility.yul\":8725:8731   */\n      dup3\n        /* \"#utility.yul\":8720:8723   */\n      dup2\n        /* \"#utility.yul\":8715:8718   */\n      dup4\n        /* \"#utility.yul\":8702:8732   */\n      calldatacopy\n        /* \"#utility.yul\":8766:8767   */\n      0x00\n        /* \"#utility.yul\":8757:8763   */\n      dup4\n        /* \"#utility.yul\":8752:8755   */\n      dup4\n        /* \"#utility.yul\":8748:8764   */\n      add\n        /* \"#utility.yul\":8741:8768   */\n      mstore\n        /* \"#utility.yul\":8628:8774   */\n      pop\n      pop\n      pop\n      jump\t// out\n        /* \"#utility.yul\":8780:9205   */\n    tag_79:\n        /* \"#utility.yul\":8858:8863   */\n      0x00\n        /* \"#utility.yul\":8883:8949   */\n      tag_182\n        /* \"#utility.yul\":8899:8948   */\n      tag_183\n        /* \"#utility.yul\":8941:8947   */\n      dup5\n        /* \"#utility.yul\":8899:8948   */\n      tag_77\n      jump\t// in\n    tag_183:\n        /* \"#utility.yul\":8883:8949   */\n      tag_76\n      jump\t// in\n    tag_182:\n        /* \"#utility.yul\":8874:8949   */\n      swap1\n      pop\n        /* \"#utility.yul\":8972:8978   */\n      dup3\n        /* \"#utility.yul\":8965:8970   */\n      dup2\n        /* \"#utility.yul\":8958:8979   */\n      mstore\n        /* \"#utility.yul\":9010:9014   */\n      0x20\n        /* \"#utility.yul\":9003:9008   */\n      dup2\n        /* \"#utility.yul\":8999:9015   */\n      add\n        /* \"#utility.yul\":9048:9051   */\n      dup5\n        /* \"#utility.yul\":9039:9045   */\n      dup5\n        /* \"#utility.yul\":9034:9037   */\n      dup5\n        /* \"#utility.yul\":9030:9046   */\n      add\n        /* \"#utility.yul\":9027:9052   */\n      gt\n        /* \"#utility.yul\":9024:9136   */\n      iszero\n      tag_184\n      jumpi\n        /* \"#utility.yul\":9055:9134   */\n      tag_185\n      tag_73\n      jump\t// in\n    tag_185:\n        /* \"#utility.yul\":9024:9136   */\n    tag_184:\n        /* \"#utility.yul\":9145:9199   */\n      tag_186\n        /* \"#utility.yul\":9192:9198   */\n      dup5\n        /* \"#utility.yul\":9187:9190   */\n      dup3\n        /* \"#utility.yul\":9182:9185   */\n      dup6\n        /* \"#utility.yul\":9145:9199   */\n      tag_78\n      jump\t// in\n    tag_186:\n        /* \"#utility.yul\":8864:9205   */\n      pop\n        /* \"#utility.yul\":8780:9205   */\n      swap4\n      swap3\n      pop\n      pop\n      pop\n      jump\t// out\n        /* \"#utility.yul\":9225:9565   */\n    tag_80:\n        /* \"#utility.yul\":9281:9286   */\n      0x00\n        /* \"#utility.yul\":9330:9333   */\n      dup3\n        /* \"#utility.yul\":9323:9327   */\n      0x1f\n        /* \"#utility.yul\":9315:9321   */\n      dup4\n        /* \"#utility.yul\":9311:9328   */\n      add\n        /* \"#utility.yul\":9307:9334   */\n      slt\n        /* \"#utility.yul\":9297:9419   */\n      tag_188\n      jumpi\n        /* \"#utility.yul\":9338:9417   */\n      tag_189\n      tag_72\n      jump\t// in\n    tag_189:\n        /* \"#utility.yul\":9297:9419   */\n    tag_188:\n        /* \"#utility.yul\":9455:9461   */\n      dup2\n        /* \"#utility.yul\":9442:9462   */\n      calldataload\n        /* \"#utility.yul\":9480:9559   */\n      tag_190\n        /* \"#utility.yul\":9555:9558   */\n      dup5\n        /* \"#utility.yul\":9547:9553   */\n      dup3\n        /* \"#utility.yul\":9540:9544   */\n      0x20\n        /* \"#utility.yul\":9532:9538   */\n      dup7\n        /* \"#utility.yul\":9528:9545   */\n      add\n        /* \"#utility.yul\":9480:9559   */\n      tag_79\n      jump\t// in\n    tag_190:\n        /* \"#utility.yul\":9471:9559   */\n      swap2\n      pop\n        /* \"#utility.yul\":9287:9565   */\n      pop\n        /* \"#utility.yul\":9225:9565   */\n      swap3\n      swap2\n      pop\n      pop\n      jump\t// out\n        /* \"#utility.yul\":9571:9648   */\n    tag_81:\n        /* \"#utility.yul\":9608:9615   */\n      0x00\n        /* \"#utility.yul\":9637:9642   */\n      dup2\n        /* \"#utility.yul\":9626:9642   */\n      swap1\n      pop\n        /* \"#utility.yul\":9571:9648   */\n      swap2\n      swap1\n      pop\n      jump\t// out\n        /* \"#utility.yul\":9654:9776   */\n    tag_82:\n        /* \"#utility.yul\":9727:9751   */\n      tag_193\n        /* \"#utility.yul\":9745:9750   */\n      dup2\n        /* \"#utility.yul\":9727:9751   */\n      tag_81\n      jump\t// in\n    tag_193:\n        /* \"#utility.yul\":9720:9725   */\n      dup2\n        /* \"#utility.yul\":9717:9752   */\n      eq\n        /* \"#utility.yul\":9707:9770   */\n      tag_194\n      jumpi\n        /* \"#utility.yul\":9766:9767   */\n      0x00\n        /* \"#utility.yul\":9763:9764   */\n      dup1\n        /* \"#utility.yul\":9756:9768   */\n      revert\n        /* \"#utility.yul\":9707:9770   */\n    tag_194:\n        /* \"#utility.yul\":9654:9776   */\n      pop\n      jump\t// out\n        /* \"#utility.yul\":9782:9921   */\n    tag_83:\n        /* \"#utility.yul\":9828:9833   */\n      0x00\n        /* \"#utility.yul\":9866:9872   */\n      dup2\n        /* \"#utility.yul\":9853:9873   */\n      calldataload\n        /* \"#utility.yul\":9844:9873   */\n      swap1\n      pop\n        /* \"#utility.yul\":9882:9915   */\n      tag_196\n        /* \"#utility.yul\":9909:9914   */\n      dup2\n        /* \"#utility.yul\":9882:9915   */\n      tag_82\n      jump\t// in\n    tag_196:\n        /* \"#utility.yul\":9782:9921   */\n      swap3\n      swap2\n      pop\n      pop\n      jump\t// out\n        /* \"#utility.yul\":9927:10581   */\n    tag_21:\n        /* \"#utility.yul\":10005:10011   */\n      0x00\n        /* \"#utility.yul\":10013:10019   */\n      dup1\n        /* \"#utility.yul\":10062:10064   */\n      0x40\n        /* \"#utility.yul\":10050:10059   */\n      dup4\n        /* \"#utility.yul\":10041:10048   */\n      dup6\n        /* \"#utility.yul\":10037:10060   */\n      sub\n        /* \"#utility.yul\":10033:10065   */\n      slt\n        /* \"#utility.yul\":10030:10149   */\n      iszero\n      tag_198\n      jumpi\n        /* \"#utility.yul\":10068:10147   */\n      tag_199\n      tag_70\n      jump\t// in\n    tag_199:\n        /* \"#utility.yul\":10030:10149   */\n    tag_198:\n        /* \"#utility.yul\":10216:10217   */\n      0x00\n        /* \"#utility.yul\":10205:10214   */\n      dup4\n        /* \"#utility.yul\":10201:10218   */\n      add\n        /* \"#utility.yul\":10188:10219   */\n      calldataload\n        /* \"#utility.yul\":10246:10264   */\n      0xffffffffffffffff\n        /* \"#utility.yul\":10238:10244   */\n      dup2\n        /* \"#utility.yul\":10235:10265   */\n      gt\n        /* \"#utility.yul\":10232:10349   */\n      iszero\n      tag_200\n      jumpi\n        /* \"#utility.yul\":10268:10347   */\n      tag_201\n      tag_71\n      jump\t// in\n    tag_201:\n        /* \"#utility.yul\":10232:10349   */\n    tag_200:\n        /* \"#utility.yul\":10373:10436   */\n      tag_202\n        /* \"#utility.yul\":10428:10435   */\n      dup6\n        /* \"#utility.yul\":10419:10425   */\n      dup3\n        /* \"#utility.yul\":10408:10417   */\n      dup7\n        /* \"#utility.yul\":10404:10426   */\n      add\n        /* \"#utility.yul\":10373:10436   */\n      tag_80\n      jump\t// in\n    tag_202:\n        /* \"#utility.yul\":10363:10436   */\n      swap3\n      pop\n        /* \"#utility.yul\":10159:10446   */\n      pop\n        /* \"#utility.yul\":10485:10487   */\n      0x20\n        /* \"#utility.yul\":10511:10564   */\n      tag_203\n        /* \"#utility.yul\":10556:10563   */\n      dup6\n        /* \"#utility.yul\":10547:10553   */\n      dup3\n        /* \"#utility.yul\":10536:10545   */\n      dup7\n        /* \"#utility.yul\":10532:10554   */\n      add\n        /* \"#utility.yul\":10511:10564   */\n      tag_83\n      jump\t// in\n    tag_203:\n        /* \"#utility.yul\":10501:10564   */\n      swap2\n      pop\n        /* \"#utility.yul\":10456:10574   */\n      pop\n        /* \"#utility.yul\":9927:10581   */\n      swap3\n      pop\n      swap3\n      swap1\n      pop\n      jump\t// out\n        /* \"#utility.yul\":10587:10767   */\n    tag_84:\n        /* \"#utility.yul\":10635:10712   */\n      0x4e487b7100000000000000000000000000000000000000000000000000000000\n        /* \"#utility.yul\":10632:10633   */\n      0x00\n        /* \"#utility.yul\":10625:10713   */\n      mstore\n        /* \"#utility.yul\":10732:10736   */\n      0x22\n        /* \"#utility.yul\":10729:10730   */\n      0x04\n        /* \"#utility.yul\":10722:10737   */\n      mstore\n        /* \"#utility.yul\":10756:10760   */\n      0x24\n        /* \"#utility.yul\":10753:10754   */\n      0x00\n        /* \"#utility.yul\":10746:10761   */\n      revert\n        /* \"#utility.yul\":10773:11093   */\n    tag_32:\n        /* \"#utility.yul\":10817:10823   */\n      0x00\n        /* \"#utility.yul\":10854:10855   */\n      0x02\n        /* \"#utility.yul\":10848:10852   */\n      dup3\n        /* \"#utility.yul\":10844:10856   */\n      div\n        /* \"#utility.yul\":10834:10856   */\n      swap1\n      pop\n        /* \"#utility.yul\":10901:10902   */\n      0x01\n        /* \"#utility.yul\":10895:10899   */\n      dup3\n        /* \"#utility.yul\":10891:10903   */\n      and\n        /* \"#utility.yul\":10922:10940   */\n      dup1\n        /* \"#utility.yul\":10912:10993   */\n      tag_206\n      jumpi\n        /* \"#utility.yul\":10978:10982   */\n      0x7f\n        /* \"#utility.yul\":10970:10976   */\n      dup3\n        /* \"#utility.yul\":10966:10983   */\n      and\n        /* \"#utility.yul\":10956:10983   */\n      swap2\n      pop\n        /* \"#utility.yul\":10912:10993   */\n    tag_206:\n        /* \"#utility.yul\":11040:11042   */\n      0x20\n        /* \"#utility.yul\":11032:11038   */\n      dup3\n        /* \"#utility.yul\":11029:11043   */\n      lt\n        /* \"#utility.yul\":11009:11027   */\n      dup2\n        /* \"#utility.yul\":11006:11044   */\n      sub\n        /* \"#utility.yul\":11003:11087   */\n      tag_207\n      jumpi\n        /* \"#utility.yul\":11059:11077   */\n      tag_208\n      tag_84\n      jump\t// in\n    tag_208:\n        /* \"#utility.yul\":11003:11087   */\n    tag_207:\n        /* \"#utility.yul\":10824:11093   */\n      pop\n        /* \"#utility.yul\":10773:11093   */\n      swap2\n      swap1\n      pop\n      jump\t// out\n        /* \"#utility.yul\":11099:11268   */\n    tag_85:\n        /* \"#utility.yul\":11183:11194   */\n      0x00\n        /* \"#utility.yul\":11217:11223   */\n      dup3\n        /* \"#utility.yul\":11212:11215   */\n      dup3\n        /* \"#utility.yul\":11205:11224   */\n      mstore\n        /* \"#utility.yul\":11257:11261   */\n      0x20\n        /* \"#utility.yul\":11252:11255   */\n      dup3\n        /* \"#utility.yul\":11248:11262   */\n      add\n        /* \"#utility.yul\":11233:11262   */\n      swap1\n      pop\n        /* \"#utility.yul\":11099:11268   */\n      swap3\n      swap2\n      pop\n      pop\n      jump\t// out\n        /* \"#utility.yul\":11274:11651   */\n    tag_86:\n        /* \"#utility.yul\":11362:11365   */\n      0x00\n        /* \"#utility.yul\":11390:11429   */\n      tag_211\n        /* \"#utility.yul\":11423:11428   */\n      dup3\n        /* \"#utility.yul\":11390:11429   */\n      tag_60\n      jump\t// in\n    tag_211:\n        /* \"#utility.yul\":11445:11516   */\n      tag_212\n        /* \"#utility.yul\":11509:11515   */\n      dup2\n        /* \"#utility.yul\":11504:11507   */\n      dup6\n        /* \"#utility.yul\":11445:11516   */\n      tag_85\n      jump\t// in\n    tag_212:\n        /* \"#utility.yul\":11438:11516   */\n      swap4\n      pop\n        /* \"#utility.yul\":11525:11590   */\n      tag_213\n        /* \"#utility.yul\":11583:11589   */\n      dup2\n        /* \"#utility.yul\":11578:11581   */\n      dup6\n        /* \"#utility.yul\":11571:11575   */\n      0x20\n        /* \"#utility.yul\":11564:11569   */\n      dup7\n        /* \"#utility.yul\":11560:11576   */\n      add\n        /* \"#utility.yul\":11525:11590   */\n      tag_62\n      jump\t// in\n    tag_213:\n        /* \"#utility.yul\":11615:11644   */\n      tag_214\n        /* \"#utility.yul\":11637:11643   */\n      dup2\n        /* \"#utility.yul\":11615:11644   */\n      tag_63\n      jump\t// in\n    tag_214:\n        /* \"#utility.yul\":11610:11613   */\n      dup5\n        /* \"#utility.yul\":11606:11645   */\n      add\n        /* \"#utility.yul\":11599:11645   */\n      swap2\n      pop\n        /* \"#utility.yul\":11366:11651   */\n      pop\n        /* \"#utility.yul\":11274:11651   */\n      swap3\n      swap2\n      pop\n      pop\n      jump\t// out\n        /* \"#utility.yul\":11657:11775   */\n    tag_87:\n        /* \"#utility.yul\":11744:11768   */\n      tag_216\n        /* \"#utility.yul\":11762:11767   */\n      dup2\n        /* \"#utility.yul\":11744:11768   */\n      tag_81\n      jump\t// in\n    tag_216:\n        /* \"#utility.yul\":11739:11742   */\n      dup3\n        /* \"#utility.yul\":11732:11769   */\n      mstore\n        /* \"#utility.yul\":11657:11775   */\n      pop\n      pop\n      jump\t// out\n        /* \"#utility.yul\":11781:12314   */\n    tag_41:\n        /* \"#utility.yul\":11950:11954   */\n      0x00\n        /* \"#utility.yul\":11988:11990   */\n      0x60\n        /* \"#utility.yul\":11977:11986   */\n      dup3\n        /* \"#utility.yul\":11973:11991   */\n      add\n        /* \"#utility.yul\":11965:11991   */\n      swap1\n      pop\n        /* \"#utility.yul\":12037:12046   */\n      dup2\n        /* \"#utility.yul\":12031:12035   */\n      dup2\n        /* \"#utility.yul\":12027:12047   */\n      sub\n        /* \"#utility.yul\":12023:12024   */\n      0x00\n        /* \"#utility.yul\":12012:12021   */\n      dup4\n        /* \"#utility.yul\":12008:12025   */\n      add\n        /* \"#utility.yul\":12001:12048   */\n      mstore\n        /* \"#utility.yul\":12065:12143   */\n      tag_218\n        /* \"#utility.yul\":12138:12142   */\n      dup2\n        /* \"#utility.yul\":12129:12135   */\n      dup7\n        /* \"#utility.yul\":12065:12143   */\n      tag_86\n      jump\t// in\n    tag_218:\n        /* \"#utility.yul\":12057:12143   */\n      swap1\n      pop\n        /* \"#utility.yul\":12153:12225   */\n      tag_219\n        /* \"#utility.yul\":12221:12223   */\n      0x20\n        /* \"#utility.yul\":12210:12219   */\n      dup4\n        /* \"#utility.yul\":12206:12224   */\n      add\n        /* \"#utility.yul\":12197:12203   */\n      dup6\n        /* \"#utility.yul\":12153:12225   */\n      tag_87\n      jump\t// in\n    tag_219:\n        /* \"#utility.yul\":12235:12307   */\n      tag_220\n        /* \"#utility.yul\":12303:12305   */\n      0x40\n        /* \"#utility.yul\":12292:12301   */\n      dup4\n        /* \"#utility.yul\":12288:12306   */\n      add\n        /* \"#utility.yul\":12279:12285   */\n      dup5\n        /* \"#utility.yul\":12235:12307   */\n      tag_56\n      jump\t// in\n    tag_220:\n        /* \"#utility.yul\":11781:12314   */\n      swap5\n      swap4\n      pop\n      pop\n      pop\n      pop\n      jump\t// out\n        /* \"#utility.yul\":12320:12461   */\n    tag_88:\n        /* \"#utility.yul\":12369:12373   */\n      0x00\n        /* \"#utility.yul\":12392:12395   */\n      dup2\n        /* \"#utility.yul\":12384:12395   */\n      swap1\n      pop\n        /* \"#utility.yul\":12415:12418   */\n      dup2\n        /* \"#utility.yul\":12412:12413   */\n      0x00\n        /* \"#utility.yul\":12405:12419   */\n      mstore\n        /* \"#utility.yul\":12449:12453   */\n      0x20\n        /* \"#utility.yul\":12446:12447   */\n      0x00\n        /* \"#utility.yul\":12436:12454   */\n      keccak256\n        /* \"#utility.yul\":12428:12454   */\n      swap1\n      pop\n        /* \"#utility.yul\":12320:12461   */\n      swap2\n      swap1\n      pop\n      jump\t// out\n        /* \"#utility.yul\":12467:12560   */\n    tag_89:\n        /* \"#utility.yul\":12504:12510   */\n      0x00\n        /* \"#utility.yul\":12551:12553   */\n      0x20\n        /* \"#utility.yul\":12546:12548   */\n      0x1f\n        /* \"#utility.yul\":12539:12544   */\n      dup4\n        /* \"#utility.yul\":12535:12549   */\n      add\n        /* \"#utility.yul\":12531:12554   */\n      div\n        /* \"#utility.yul\":12521:12554   */\n      swap1\n      pop\n        /* \"#utility.yul\":12467:12560   */\n      swap2\n      swap1\n      pop\n      jump\t// out\n        /* \"#utility.yul\":12566:12673   */\n    tag_90:\n        /* \"#utility.yul\":12610:12618   */\n      0x00\n        /* \"#utility.yul\":12660:12665   */\n      dup3\n        /* \"#utility.yul\":12654:12658   */\n      dup3\n        /* \"#utility.yul\":12650:12666   */\n      shl\n        /* \"#utility.yul\":12629:12666   */\n      swap1\n      pop\n        /* \"#utility.yul\":12566:12673   */\n      swap3\n      swap2\n      pop\n      pop\n      jump\t// out\n        /* \"#utility.yul\":12679:13072   */\n    tag_91:\n        /* \"#utility.yul\":12748:12754   */\n      0x00\n        /* \"#utility.yul\":12798:12799   */\n      0x08\n        /* \"#utility.yul\":12786:12796   */\n      dup4\n        /* \"#utility.yul\":12782:12800   */\n      mul\n        /* \"#utility.yul\":12821:12918   */\n      tag_225\n        /* \"#utility.yul\":12851:12917   */\n      0xffffffffffffffffffffffffffffffffffffffffffffffffffffffffffffffff\n        /* \"#utility.yul\":12840:12849   */\n      dup3\n        /* \"#utility.yul\":12821:12918   */\n      tag_90\n      jump\t// in\n    tag_225:\n        /* \"#utility.yul\":12939:12978   */\n      tag_226\n        /* \"#utility.yul\":12969:12977   */\n      dup7\n        /* \"#utility.yul\":12958:12967   */\n      dup4\n        /* \"#utility.yul\":12939:12978   */\n      tag_90\n      jump\t// in\n    tag_226:\n        /* \"#utility.yul\":12927:12978   */\n      swap6\n      pop\n        /* \"#utility.yul\":13011:13015   */\n      dup1\n        /* \"#utility.yul\":13007:13016   */\n      not\n        /* \"#utility.yul\":13000:13005   */\n      dup5\n        /* \"#utility.yul\":12996:13017   */\n      and\n        /* \"#utility.yul\":12987:13017   */\n      swap4\n      pop\n        /* \"#utility.yul\":13060:13064   */\n      dup1\n        /* \"#utility.yul\":13050:13058   */\n      dup7\n        /* \"#utility.yul\":13046:13065   */\n      and\n        /* \"#utility.yul\":13039:13044   */\n      dup5\n        /* \"#utility.yul\":13036:13066   */\n      or\n        /* \"#utility.yul\":13026:13066   */\n      swap3\n      pop\n        /* \"#utility.yul\":12755:13072   */\n      pop\n      pop\n        /* \"#utility.yul\":12679:13072   */\n      swap4\n      swap3\n      pop\n      pop\n      pop\n      jump\t// out\n        /* \"#utility.yul\":13078:13138   */\n    tag_92:\n        /* \"#utility.yul\":13106:13109   */\n      0x00\n        /* \"#utility.yul\":13127:13132   */\n      dup2\n        /* \"#utility.yul\":13120:13132   */\n      swap1\n      pop\n        /* \"#utility.yul\":13078:13138   */\n      swap2\n      swap1\n      pop\n      jump\t// out\n        /* \"#utility.yul\":13144:13286   */\n    tag_93:\n        /* \"#utility.yul\":13194:13203   */\n      0x00\n        /* \"#utility.yul\":13227:13280   */\n      tag_229\n        /* \"#utility.yul\":13245:13279   */\n      tag_230\n        /* \"#utility.yul\":13254:13278   */\n      tag_231\n        /* \"#utility.yul\":13272:13277   */\n      dup5\n        /* \"#utility.yul\":13254:13278   */\n      tag_81\n      jump\t// in\n    tag_231:\n        /* \"#utility.yul\":13245:13279   */\n      tag_92\n      jump\t// in\n    tag_230:\n        /* \"#utility.yul\":13227:13280   */\n      tag_81\n      jump\t// in\n    tag_229:\n        /* \"#utility.yul\":13214:13280   */\n      swap1\n      pop\n        /* \"#utility.yul\":13144:13286   */\n      swap2\n      swap1\n      pop\n      jump\t// out\n        /* \"#utility.yul\":13292:13367   */\n    tag_94:\n        /* \"#utility.yul\":13335:13338   */\n      0x00\n        /* \"#utility.yul\":13356:13361   */\n      dup2\n        /* \"#utility.yul\":13349:13361   */\n      swap1\n      pop\n        /* \"#utility.yul\":13292:13367   */\n      swap2\n      swap1\n      pop\n      jump\t// out\n        /* \"#utility.yul\":13373:13642   */\n    tag_95:\n        /* \"#utility.yul\":13483:13522   */\n      tag_234\n        /* \"#utility.yul\":13514:13521   */\n      dup4\n        /* \"#utility.yul\":13483:13522   */\n      tag_93\n      jump\t// in\n    tag_234:\n        /* \"#utility.yul\":13544:13635   */\n      tag_235\n        /* \"#utility.yul\":13593:13634   */\n      tag_236\n        /* \"#utility.yul\":13617:13633   */\n      dup3\n        /* \"#utility.yul\":13593:13634   */\n      tag_94\n      jump\t// in\n    tag_236:\n        /* \"#utility.yul\":13585:13591   */\n      dup5\n        /* \"#utility.yul\":13578:13582   */\n      dup5\n        /* \"#utility.yul\":13572:13583   */\n      sload\n        /* \"#utility.yul\":13544:13635   */\n      tag_91\n      jump\t// in\n    tag_235:\n        /* \"#utility.yul\":13538:13542   */\n      dup3\n        /* \"#utility.yul\":13531:13636   */\n      sstore\n        /* \"#utility.yul\":13449:13642   */\n      pop\n        /* \"#utility.yul\":13373:13642   */\n      pop\n      pop\n      pop\n      jump\t// out\n        /* \"#utility.yul\":13648:13721   */\n    tag_96:\n        /* \"#utility.yul\":13693:13696   */\n      0x00\n        /* \"#utility.yul\":13648:13721   */\n      swap1\n      jump\t// out\n        /* \"#utility.yul\":13727:13916   */\n    tag_97:\n        /* \"#utility.yul\":13804:13836   */\n      tag_239\n      tag_96\n      jump\t// in\n    tag_239:\n        /* \"#utility.yul\":13845:13910   */\n      tag_240\n        /* \"#utility.yul\":13903:13909   */\n      dup2\n        /* \"#utility.yul\":13895:13901   */\n      dup5\n        /* \"#utility.yul\":13889:13893   */\n      dup5\n        /* \"#utility.yul\":13845:13910   */\n      tag_95\n      jump\t// in\n    tag_240:\n        /* \"#utility.yul\":13780:13916   */\n      pop\n        /* \"#utility.yul\":13727:13916   */\n      pop\n      pop\n      jump\t// out\n        /* \"#utility.yul\":13922:14108   */\n    tag_98:\n        /* \"#utility.yul\":13982:14102   */\n    tag_242:\n        /* \"#utility.yul\":13999:14002   */\n      dup2\n        /* \"#utility.yul\":13992:13997   */\n      dup2\n        /* \"#utility.yul\":13989:14003   */\n      lt\n        /* \"#utility.yul\":13982:14102   */\n      iszero\n      tag_244\n      jumpi\n        /* \"#utility.yul\":14053:14092   */\n      tag_245\n        /* \"#utility.yul\":14090:14091   */\n      0x00\n        /* \"#utility.yul\":14083:14088   */\n      dup3\n        /* \"#utility.yul\":14053:14092   */\n      tag_97\n      jump\t// in\n    tag_245:\n        /* \"#utility.yul\":14026:14027   */\n      0x01\n        /* \"#utility.yul\":14019:14024   */\n      dup2\n        /* \"#utility.yul\":14015:14028   */\n      add\n        /* \"#utility.yul\":14006:14028   */\n      swap1\n      pop\n        /* \"#utility.yul\":13982:14102   */\n      jump(tag_242)\n    tag_244:\n        /* \"#utility.yul\":13922:14108   */\n      pop\n      pop\n      jump\t// out\n        /* \"#utility.yul\":14114:14657   */\n    tag_99:\n        /* \"#utility.yul\":14215:14217   */\n      0x1f\n        /* \"#utility.yul\":14210:14213   */\n      dup3\n        /* \"#utility.yul\":14207:14218   */\n      gt\n        /* \"#utility.yul\":14204:14650   */\n      iszero\n      tag_247\n      jumpi\n        /* \"#utility.yul\":14249:14287   */\n      tag_248\n        /* \"#utility.yul\":14281:14286   */\n      dup2\n        /* \"#utility.yul\":14249:14287   */\n      tag_88\n      jump\t// in\n    tag_248:\n        /* \"#utility.yul\":14333:14362   */\n      tag_249\n        /* \"#utility.yul\":14351:14361   */\n      dup5\n        /* \"#utility.yul\":14333:14362   */\n      tag_89\n      jump\t// in\n    tag_249:\n        /* \"#utility.yul\":14323:14331   */\n      dup2\n        /* \"#utility.yul\":14319:14363   */\n      add\n        /* \"#utility.yul\":14516:14518   */\n      0x20\n        /* \"#utility.yul\":14504:14514   */\n      dup6\n        /* \"#utility.yul\":14501:14519   */\n      lt\n        /* \"#utility.yul\":14498:14547   */\n      iszero\n      tag_250\n      jumpi\n        /* \"#utility.yul\":14537:14545   */\n      dup2\n        /* \"#utility.yul\":14522:14545   */\n      swap1\n      pop\n        /* \"#utility.yul\":14498:14547   */\n    tag_250:\n        /* \"#utility.yul\":14560:14640   */\n      tag_251\n        /* \"#utility.yul\":14616:14638   */\n      tag_252\n        /* \"#utility.yul\":14634:14637   */\n      dup6\n        /* \"#utility.yul\":14616:14638   */\n      tag_89\n      jump\t// in\n    tag_252:\n        /* \"#utility.yul\":14606:14614   */\n      dup4\n        /* \"#utility.yul\":14602:14639   */\n      add\n        /* \"#utility.yul\":14589:14600   */\n      dup3\n        /* \"#utility.yul\":14560:14640   */\n      tag_98\n      jump\t// in\n    tag_251:\n        /* \"#utility.yul\":14219:14650   */\n      pop\n      pop\n        /* \"#utility.yul\":14204:14650   */\n    tag_247:\n        /* \"#utility.yul\":14114:14657   */\n      pop\n      pop\n      pop\n      jump\t// out\n        /* \"#utility.yul\":14663:14780   */\n    tag_100:\n        /* \"#utility.yul\":14717:14725   */\n      0x00\n        /* \"#utility.yul\":14767:14772   */\n      dup3\n        /* \"#utility.yul\":14761:14765   */\n      dup3\n        /* \"#utility.yul\":14757:14773   */\n      shr\n        /* \"#utility.yul\":14736:14773   */\n      swap1\n      pop\n        /* \"#utility.yul\":14663:14780   */\n      swap3\n      swap2\n      pop\n      pop\n      jump\t// out\n        /* \"#utility.yul\":14786:14955   */\n    tag_101:\n        /* \"#utility.yul\":14830:14836   */\n      0x00\n        /* \"#utility.yul\":14863:14914   */\n      tag_255\n        /* \"#utility.yul\":14911:14912   */\n      0x00\n        /* \"#utility.yul\":14907:14913   */\n      not\n        /* \"#utility.yul\":14899:14904   */\n      dup5\n        /* \"#utility.yul\":14896:14897   */\n      0x08\n        /* \"#utility.yul\":14892:14905   */\n      mul\n        /* \"#utility.yul\":14863:14914   */\n      tag_100\n      jump\t// in\n    tag_255:\n        /* \"#utility.yul\":14859:14915   */\n      not\n        /* \"#utility.yul\":14944:14948   */\n      dup1\n        /* \"#utility.yul\":14938:14942   */\n      dup4\n        /* \"#utility.yul\":14934:14949   */\n      and\n        /* \"#utility.yul\":14924:14949   */\n      swap2\n      pop\n        /* \"#utility.yul\":14837:14955   */\n      pop\n        /* \"#utility.yul\":14786:14955   */\n      swap3\n      swap2\n      pop\n      pop\n      jump\t// out\n        /* \"#utility.yul\":14960:15255   */\n    tag_102:\n        /* \"#utility.yul\":15036:15040   */\n      0x00\n        /* \"#utility.yul\":15182:15211   */\n      tag_257\n        /* \"#utility.yul\":15207:15210   */\n      dup4\n        /* \"#utility.yul\":15201:15205   */\n      dup4\n        /* \"#utility.yul\":15182:15211   */\n      tag_101\n      jump\t// in\n    tag_257:\n        /* \"#utility.yul\":15174:15211   */\n      swap2\n      pop\n        /* \"#utility.yul\":15244:15247   */\n      dup3\n        /* \"#utility.yul\":15241:15242   */\n      0x02\n        /* \"#utility.yul\":15237:15248   */\n      mul\n        /* \"#utility.yul\":15231:15235   */\n      dup3\n        /* \"#utility.yul\":15228:15249   */\n      or\n        /* \"#utility.yul\":15220:15249   */\n      swap1\n      pop\n        /* \"#utility.yul\":14960:15255   */\n      swap3\n      swap2\n      pop\n      pop\n      jump\t// out\n        /* \"#utility.yul\":15260:16655   */\n    tag_46:\n        /* \"#utility.yul\":15377:15414   */\n      tag_259\n        /* \"#utility.yul\":15410:15413   */\n      dup3\n        /* \"#utility.yul\":15377:15414   */\n      tag_60\n      jump\t// in\n    tag_259:\n        /* \"#utility.yul\":15479:15497   */\n      0xffffffffffffffff\n        /* \"#utility.yul\":15471:15477   */\n      dup2\n        /* \"#utility.yul\":15468:15498   */\n      gt\n        /* \"#utility.yul\":15465:15521   */\n      iszero\n      tag_260\n      jumpi\n        /* \"#utility.yul\":15501:15519   */\n      tag_261\n      tag_74\n      jump\t// in\n    tag_261:\n        /* \"#utility.yul\":15465:15521   */\n    tag_260:\n        /* \"#utility.yul\":15545:15583   */\n      tag_262\n        /* \"#utility.yul\":15577:15581   */\n      dup3\n        /* \"#utility.yul\":15571:15582   */\n      sload\n        /* \"#utility.yul\":15545:15583   */\n      tag_32\n      jump\t// in\n    tag_262:\n        /* \"#utility.yul\":15630:15697   */\n      tag_263\n        /* \"#utility.yul\":15690:15696   */\n      dup3\n        /* \"#utility.yul\":15682:15688   */\n      dup3\n        /* \"#utility.yul\":15676:15680   */\n      dup6\n        /* \"#utility.yul\":15630:15697   */\n      tag_99\n      jump\t// in\n    tag_263:\n        /* \"#utility.yul\":15724:15725   */\n      0x00\n        /* \"#utility.yul\":15748:15752   */\n      0x20\n        /* \"#utility.yul\":15735:15752   */\n      swap1\n      pop\n        /* \"#utility.yul\":15780:15782   */\n      0x1f\n        /* \"#utility.yul\":15772:15778   */\n      dup4\n        /* \"#utility.yul\":15769:15783   */\n      gt\n        /* \"#utility.yul\":15797:15798   */\n      0x01\n        /* \"#utility.yul\":15792:16410   */\n      dup2\n      eq\n      tag_265\n      jumpi\n        /* \"#utility.yul\":16454:16455   */\n      0x00\n        /* \"#utility.yul\":16471:16477   */\n      dup5\n        /* \"#utility.yul\":16468:16545   */\n      iszero\n      tag_266\n      jumpi\n        /* \"#utility.yul\":16520:16529   */\n      dup3\n        /* \"#utility.yul\":16515:16518   */\n      dup8\n        /* \"#utility.yul\":16511:16530   */\n      add\n        /* \"#utility.yul\":16505:16531   */\n      mload\n        /* \"#utility.yul\":16496:16531   */\n      swap1\n      pop\n        /* \"#utility.yul\":16468:16545   */\n    tag_266:\n        /* \"#utility.yul\":16571:16638   */\n      tag_267\n        /* \"#utility.yul\":16631:16637   */\n      dup6\n        /* \"#utility.yul\":16624:16629   */\n      dup3\n        /* \"#utility.yul\":16571:16638   */\n      tag_102\n      jump\t// in\n    tag_267:\n        /* \"#utility.yul\":16565:16569   */\n      dup7\n        /* \"#utility.yul\":16558:16639   */\n      sstore\n        /* \"#utility.yul\":16427:16649   */\n      pop\n        /* \"#utility.yul\":15762:16649   */\n      jump(tag_264)\n        /* \"#utility.yul\":15792:16410   */\n    tag_265:\n        /* \"#utility.yul\":15844:15848   */\n      0x1f\n        /* \"#utility.yul\":15840:15849   */\n      not\n        /* \"#utility.yul\":15832:15838   */\n      dup5\n        /* \"#utility.yul\":15828:15850   */\n      and\n        /* \"#utility.yul\":15878:15915   */\n      tag_268\n        /* \"#utility.yul\":15910:15914   */\n      dup7\n        /* \"#utility.yul\":15878:15915   */\n      tag_88\n      jump\t// in\n    tag_268:\n        /* \"#utility.yul\":15937:15938   */\n      0x00\n        /* \"#utility.yul\":15951:16159   */\n    tag_269:\n        /* \"#utility.yul\":15965:15972   */\n      dup3\n        /* \"#utility.yul\":15962:15963   */\n      dup2\n        /* \"#utility.yul\":15959:15973   */\n      lt\n        /* \"#utility.yul\":15951:16159   */\n      iszero\n      tag_271\n      jumpi\n        /* \"#utility.yul\":16044:16053   */\n      dup5\n        /* \"#utility.yul\":16039:16042   */\n      dup10\n        /* \"#utility.yul\":16035:16054   */\n      add\n        /* \"#utility.yul\":16029:16055   */\n      mload\n        /* \"#utility.yul\":16021:16027   */\n      dup3\n        /* \"#utility.yul\":16014:16056   */\n      sstore\n        /* \"#utility.yul\":16095:16096   */\n      0x01\n        /* \"#utility.yul\":16087:16093   */\n      dup3\n        /* \"#utility.yul\":16083:16097   */\n      add\n        /* \"#utility.yul\":16073:16097   */\n      swap2\n      pop\n        /* \"#utility.yul\":16142:16144   */\n      0x20\n        /* \"#utility.yul\":16131:16140   */\n      dup6\n        /* \"#utility.yul\":16127:16145   */\n      add\n        /* \"#utility.yul\":16114:16145   */\n      swap5\n      pop\n        /* \"#utility.yul\":15988:15992   */\n      0x20\n        /* \"#utility.yul\":15985:15986   */\n      dup2\n        /* \"#utility.yul\":15981:15993   */\n      add\n        /* \"#utility.yul\":15976:15993   */\n      swap1\n      pop\n        /* \"#utility.yul\":15951:16159   */\n      jump(tag_269)\n    tag_271:\n        /* \"#utility.yul\":16187:16193   */\n      dup7\n        /* \"#utility.yul\":16178:16185   */\n      dup4\n        /* \"#utility.yul\":16175:16194   */\n      lt\n        /* \"#utility.yul\":16172:16351   */\n      iszero\n      tag_272\n      jumpi\n        /* \"#utility.yul\":16245:16254   */\n      dup5\n        /* \"#utility.yul\":16240:16243   */\n      dup10\n        /* \"#utility.yul\":16236:16255   */\n      add\n        /* \"#utility.yul\":16230:16256   */\n      mload\n        /* \"#utility.yul\":16288:16336   */\n      tag_273\n        /* \"#utility.yul\":16330:16334   */\n      0x1f\n        /* \"#utility.yul\":16322:16328   */\n      dup10\n        /* \"#utility.yul\":16318:16335   */\n      and\n        /* \"#utility.yul\":16307:16316   */\n      dup3\n        /* \"#utility.yul\":16288:16336   */\n      tag_101\n      jump\t// in\n    tag_273:\n        /* \"#utility.yul\":16280:16286   */\n      dup4\n        /* \"#utility.yul\":16273:16337   */\n      sstore\n        /* \"#utility.yul\":16195:16351   */\n      pop\n        /* \"#utility.yul\":16172:16351   */\n    tag_272:\n        /* \"#utility.yul\":16397:16398   */\n      0x01\n        /* \"#utility.yul\":16393:16394   */\n      0x02\n        /* \"#utility.yul\":16385:16391   */\n      dup9\n        /* \"#utility.yul\":16381:16395   */\n      mul\n        /* \"#utility.yul\":16377:16399   */\n      add\n        /* \"#utility.yul\":16371:16375   */\n      dup9\n        /* \"#utility.yul\":16364:16400   */\n      sstore\n        /* \"#utility.yul\":15799:16410   */\n      pop\n      pop\n      pop\n        /* \"#utility.yul\":15762:16649   */\n    tag_264:\n      pop\n        /* \"#utility.yul\":15352:16655   */\n      pop\n      pop\n      pop\n        /* \"#utility.yul\":15260:16655   */\n      pop\n      pop\n      jump\t// out\n    stop\n\n    sub_0: assembly {\n            /* \"Campaign.sol\":1116:4675  contract Campaign... */\n          mstore(0x40, 0x80)\n            /* \"Campaign.sol\":1641:1852  constructor (string memory description, uint minimum, address mngr)... */\n          callvalue\n          dup1\n          iszero\n          tag_1\n          jumpi\n          0x00\n          dup1\n          revert\n        tag_1:\n          pop\n          mload(0x40)\n          sub(codesize, bytecodeSize)\n          dup1\n          bytecodeSize\n          dup4\n          codecopy\n          dup2\n          dup2\n          add\n          0x40\n          mstore\n          dup2\n          add\n          swap1\n          tag_2\n          swap2\n          swap1\n          tag_3\n          jump\t// in\n        tag_2:\n            /* \"Campaign.sol\":1741:1742  0 */\n          0x00\n            /* \"Campaign.sol\":1731:1738  minimum */\n          dup3\n            /* \"Campaign.sol\":1731:1742  minimum > 0 */\n          gt\n            /* \"Campaign.sol\":1723:1743  require(minimum > 0) */\n          tag_6\n          jumpi\n          0x00\n          dup1\n          revert\n        tag_6:\n            /* \"Campaign.sol\":1764:1768  mngr */\n          dup1\n            /* \"Campaign.sol\":1753:1761  _manager */\n          0x01\n          0x00\n            /* \"Campaign.sol\":1753:1768  _manager = mngr */\n          0x0100\n          exp\n          dup2\n          sload\n          dup2\n          0xffffffffffffffffffffffffffffffffffffffff\n          mul\n          not\n          and\n          swap1\n          dup4\n          0xffffffffffffffffffffffffffffffffffffffff\n          and\n          mul\n          or\n          swap1\n          sstore\n          pop\n            /* \"Campaign.sol\":1793:1804  description */\n          dup3\n            /* \"Campaign.sol\":1778:1790  _description */\n          0x00\n            /* \"Campaign.sol\":1778:1804  _description = description */\n          swap1\n          dup2\n          tag_7\n          swap2\n          swap1\n          tag_8\n          jump\t// in\n        tag_7:\n          pop\n            /* \"Campaign.sol\":1838:1845  minimum */\n          dup2\n            /* \"Campaign.sol\":1815:1835  _minimumContribution */\n          0x04\n            /* \"Campaign.sol\":1815:1845  _minimumContribution = minimum */\n          dup2\n          swap1\n          sstore\n          pop\n            /* \"Campaign.sol\":1641:1852  constructor (string memory description, uint minimum, address mngr)... */\n          pop\n          pop\n          pop\n            /* \"Campaign.sol\":1116:4675  contract Campaign... */\n          jump(tag_9)\n            /* \"#utility.yul\":7:82   */\n        tag_10:\n            /* \"#utility.yul\":40:46   */\n          0x00\n            /* \"#utility.yul\":73:75   */\n          0x40\n            /* \"#utility.yul\":67:76   */\n          mload\n            /* \"#utility.yul\":57:76   */\n          swap1\n          pop\n            /* \"#utility.yul\":7:82   */\n          swap1\n          jump\t// out\n            /* \"#utility.yul\":88:205   */\n        tag_11:\n            /* \"#utility.yul\":197:198   */\n          0x00\n            /* \"#utility.yul\":194:195   */\n          dup1\n            /* \"#utility.yul\":187:199   */\n          revert\n            /* \"#utility.yul\":211:328   */\n        tag_12:\n            /* \"#utility.yul\":320:321   */\n          0x00\n            /* \"#utility.yul\":317:318   */\n          dup1\n            /* \"#utility.yul\":310:322   */\n          revert\n            /* \"#utility.yul\":334:451   */\n        tag_13:\n            /* \"#utility.yul\":443:444   */\n          0x00\n            /* \"#utility.yul\":440:441   */\n          dup1\n            /* \"#utility.yul\":433:445   */\n          revert\n            /* \"#utility.yul\":457:574   */\n        tag_14:\n            /* \"#utility.yul\":566:567   */\n          0x00\n            /* \"#utility.yul\":563:564   */\n          dup1\n            /* \"#utility.yul\":556:568   */\n          revert\n            /* \"#utility.yul\":580:682   */\n        tag_15:\n            /* \"#utility.yul\":621:627   */\n          0x00\n            /* \"#utility.yul\":672:674   */\n          0x1f\n            /* \"#utility.yul\":668:675   */\n          not\n            /* \"#utility.yul\":663:665   */\n          0x1f\n            /* \"#utility.yul\":656:661   */\n          dup4\n            /* \"#utility.yul\":652:666   */\n          add\n            /* \"#utility.yul\":648:676   */\n          and\n            /* \"#utility.yul\":638:676   */\n          swap1\n          pop\n            /* \"#utility.yul\":580:682   */\n          swap2\n          swap1\n          pop\n          jump\t// out\n            /* \"#utility.yul\":688:868   */\n        tag_16:\n            /* \"#utility.yul\":736:813   */\n          0x4e487b7100000000000000000000000000000000000000000000000000000000\n            /* \"#utility.yul\":733:734   */\n          0x00\n            /* \"#utility.yul\":726:814   */\n          mstore\n            /* \"#utility.yul\":833:837   */\n          0x41\n            /* \"#utility.yul\":830:831   */\n          0x04\n            /* \"#utility.yul\":823:838   */\n          mstore\n            /* \"#utility.yul\":857:861   */\n          0x24\n            /* \"#utility.yul\":854:855   */\n          0x00\n            /* \"#utility.yul\":847:862   */\n          revert\n            /* \"#utility.yul\":874:1155   */\n        tag_17:\n            /* \"#utility.yul\":957:984   */\n          tag_57\n            /* \"#utility.yul\":979:983   */\n          dup3\n            /* \"#utility.yul\":957:984   */\n          tag_15\n          jump\t// in\n        tag_57:\n            /* \"#utility.yul\":949:955   */\n          dup2\n            /* \"#utility.yul\":945:985   */\n          add\n            /* \"#utility.yul\":1087:1093   */\n          dup2\n            /* \"#utility.yul\":1075:1085   */\n          dup2\n            /* \"#utility.yul\":1072:1094   */\n          lt\n            /* \"#utility.yul\":1051:1069   */\n          0xffffffffffffffff\n            /* \"#utility.yul\":1039:1049   */\n          dup3\n            /* \"#utility.yul\":1036:1070   */\n          gt\n            /* \"#utility.yul\":1033:1095   */\n          or\n            /* \"#utility.yul\":1030:1118   */\n          iszero\n          tag_58\n          jumpi\n            /* \"#utility.yul\":1098:1116   */\n          tag_59\n          tag_16\n          jump\t// in\n        tag_59:\n            /* \"#utility.yul\":1030:1118   */\n        tag_58:\n            /* \"#utility.yul\":1138:1148   */\n          dup1\n            /* \"#utility.yul\":1134:1136   */\n          0x40\n            /* \"#utility.yul\":1127:1149   */\n          mstore\n            /* \"#utility.yul\":917:1155   */\n          pop\n            /* \"#utility.yul\":874:1155   */\n          pop\n          pop\n          jump\t// out\n            /* \"#utility.yul\":1161:1290   */\n        tag_18:\n            /* \"#utility.yul\":1195:1201   */\n          0x00\n            /* \"#utility.yul\":1222:1242   */\n          tag_61\n          tag_10\n          jump\t// in\n        tag_61:\n            /* \"#utility.yul\":1212:1242   */\n          swap1\n          pop\n            /* \"#utility.yul\":1251:1284   */\n          tag_62\n            /* \"#utility.yul\":1279:1283   */\n          dup3\n            /* \"#utility.yul\":1271:1277   */\n          dup3\n            /* \"#utility.yul\":1251:1284   */\n          tag_17\n          jump\t// in\n        tag_62:\n            /* \"#utility.yul\":1161:1290   */\n          swap2\n          swap1\n          pop\n          jump\t// out\n            /* \"#utility.yul\":1296:1604   */\n        tag_19:\n            /* \"#utility.yul\":1358:1362   */\n          0x00\n            /* \"#utility.yul\":1448:1466   */\n          0xffffffffffffffff\n            /* \"#utility.yul\":1440:1446   */\n          dup3\n            /* \"#utility.yul\":1437:1467   */\n          gt\n            /* \"#utility.yul\":1434:1490   */\n          iszero\n          tag_64\n          jumpi\n            /* \"#utility.yul\":1470:1488   */\n          tag_65\n          tag_16\n          jump\t// in\n        tag_65:\n            /* \"#utility.yul\":1434:1490   */\n        tag_64:\n            /* \"#utility.yul\":1508:1537   */\n          tag_66\n            /* \"#utility.yul\":1530:1536   */\n          dup3\n            /* \"#utility.yul\":1508:1537   */\n          tag_15\n          jump\t// in\n        tag_66:\n            /* \"#utility.yul\":1500:1537   */\n          swap1\n          pop\n            /* \"#utility.yul\":1592:1596   */\n          0x20\n            /* \"#utility.yul\":1586:1590   */\n          dup2\n            /* \"#utility.yul\":1582:1597   */\n          add\n            /* \"#utility.yul\":1574:1597   */\n          swap1\n          pop\n            /* \"#utility.yul\":1296:1604   */\n          swap2\n          swap1\n          pop\n          jump\t// out\n            /* \"#utility.yul\":1610:1856   */\n        tag_20:\n            /* \"#utility.yul\":1691:1692   */\n          0x00\n            /* \"#utility.yul\":1701:1814   */\n        tag_68:\n            /* \"#utility.yul\":1715:1721   */\n          dup4\n            /* \"#utility.yul\":1712:1713   */\n          dup2\n            /* \"#utility.yul\":1709:1722   */\n          lt\n            /* \"#utility.yul\":1701:1814   */\n          iszero\n          tag_70\n          jumpi\n            /* \"#utility.yul\":1800:1801   */\n          dup1\n            /* \"#utility.yul\":1795:1798   */\n          dup3\n            /* \"#utility.yul\":1791:1802   */\n          add\n            /* \"#utility.yul\":1785:1803   */\n          mload\n            /* \"#utility.yul\":1781:1782   */\n          dup2\n            /* \"#utility.yul\":1776:1779   */\n          dup5\n            /* \"#utility.yul\":1772:1783   */\n          add\n            /* \"#utility.yul\":1765:1804   */\n          mstore\n            /* \"#utility.yul\":1737:1739   */\n          0x20\n            /* \"#utility.yul\":1734:1735   */\n          dup2\n            /* \"#utility.yul\":1730:1740   */\n          add\n            /* \"#utility.yul\":1725:1740   */\n          swap1\n          pop\n            /* \"#utility.yul\":1701:1814   */\n          jump(tag_68)\n        tag_70:\n            /* \"#utility.yul\":1848:1849   */\n          0x00\n            /* \"#utility.yul\":1839:1845   */\n          dup5\n            /* \"#utility.yul\":1834:1837   */\n          dup5\n            /* \"#utility.yul\":1830:1846   */\n          add\n            /* \"#utility.yul\":1823:1850   */\n          mstore\n            /* \"#utility.yul\":1672:1856   */\n          pop\n            /* \"#utility.yul\":1610:1856   */\n          pop\n          pop\n          pop\n          jump\t// out\n            /* \"#utility.yul\":1862:2296   */\n        tag_21:\n            /* \"#utility.yul\":1951:1956   */\n          0x00\n            /* \"#utility.yul\":1976:2042   */\n          tag_72\n            /* \"#utility.yul\":1992:2041   */\n          tag_73\n            /* \"#utility.yul\":2034:2040   */\n          dup5\n            /* \"#utility.yul\":1992:2041   */\n          tag_19\n          jump\t// in\n        tag_73:\n            /* \"#utility.yul\":1976:2042   */\n          tag_18\n          jump\t// in\n        tag_72:\n            /* \"#utility.yul\":1967:2042   */\n          swap1\n          pop\n            /* \"#utility.yul\":2065:2071   */\n          dup3\n            /* \"#utility.yul\":2058:2063   */\n          dup2\n            /* \"#utility.yul\":2051:2072   */\n          mstore\n            /* \"#utility.yul\":2103:2107   */\n          0x20\n            /* \"#utility.yul\":2096:2101   */\n          dup2\n            /* \"#utility.yul\":2092:2108   */\n          add\n            /* \"#utility.yul\":2141:2144   */\n          dup5\n            /* \"#utility.yul\":2132:2138   */\n          dup5\n            /* \"#utility.yul\":2127:2130   */\n          dup5\n            /* \"#utility.yul\":2123:2139   */\n          add\n            /* \"#utility.yul\":2120:2145   */\n          gt\n            /* \"#utility.yul\":2117:2229   */\n          iszero\n          tag_74\n          jumpi\n            /* \"#utility.yul\":2148:2227   */\n          tag_75\n          tag_14\n          jump\t// in\n        tag_75:\n            /* \"#utility.yul\":2117:2229   */\n        tag_74:\n            /* \"#utility.yul\":2238:2290   */\n          tag_76\n            /* \"#utility.yul\":2283:2289   */\n          dup5\n            /* \"#utility.yul\":2278:2281   */\n          dup3\n            /* \"#utility.yul\":2273:2276   */\n          dup6\n            /* \"#utility.yul\":2238:2290   */\n          tag_20\n          jump\t// in\n        tag_76:\n            /* \"#utility.yul\":1957:2296   */\n          pop\n            /* \"#utility.yul\":1862:2296   */\n          swap4\n          swap3\n          pop\n          pop\n          pop\n          jump\t// out\n            /* \"#utility.yul\":2316:2671   */\n        tag_22:\n            /* \"#utility.yul\":2383:2388   */\n          0x00\n            /* \"#utility.yul\":2432:2435   */\n          dup3\n            /* \"#utility.yul\":2425:2429   */\n          0x1f\n            /* \"#utility.yul\":2417:2423   */\n          dup4\n            /* \"#utility.yul\":2413:2430   */\n          add\n            /* \"#utility.yul\":2409:2436   */\n          slt\n            /* \"#utility.yul\":2399:2521   */\n          tag_78\n          jumpi\n            /* \"#utility.yul\":2440:2519   */\n          tag_79\n          tag_13\n          jump\t// in\n        tag_79:\n            /* \"#utility.yul\":2399:2521   */\n        tag_78:\n            /* \"#utility.yul\":2550:2556   */\n          dup2\n            /* \"#utility.yul\":2544:2557   */\n          mload\n            /* \"#utility.yul\":2575:2665   */\n          tag_80\n            /* \"#utility.yul\":2661:2664   */\n          dup5\n            /* \"#utility.yul\":2653:2659   */\n          dup3\n            /* \"#utility.yul\":2646:2650   */\n          0x20\n            /* \"#utility.yul\":2638:2644   */\n          dup7\n            /* \"#utility.yul\":2634:2651   */\n          add\n            /* \"#utility.yul\":2575:2665   */\n          tag_21\n          jump\t// in\n        tag_80:\n            /* \"#utility.yul\":2566:2665   */\n          swap2\n          pop\n            /* \"#utility.yul\":2389:2671   */\n          pop\n            /* \"#utility.yul\":2316:2671   */\n          swap3\n          swap2\n          pop\n          pop\n          jump\t// out\n            /* \"#utility.yul\":2677:2754   */\n        tag_23:\n            /* \"#utility.yul\":2714:2721   */\n          0x00\n            /* \"#utility.yul\":2743:2748   */\n          dup2\n            /* \"#utility.yul\":2732:2748   */\n          swap1\n          pop\n            /* \"#utility.yul\":2677:2754   */\n          swap2\n          swap1\n          pop\n          jump\t// out\n            /* \"#utility.yul\":2760:2882   */\n        tag_24:\n            /* \"#utility.yul\":2833:2857   */\n          tag_83\n            /* \"#utility.yul\":2851:2856   */\n          dup2\n            /* \"#utility.yul\":2833:2857   */\n          tag_23\n          jump\t// in\n        tag_83:\n            /* \"#utility.yul\":2826:2831   */\n          dup2\n            /* \"#utility.yul\":2823:2858   */\n          eq\n            /* \"#utility.yul\":2813:2876   */\n          tag_84\n          jumpi\n            /* \"#utility.yul\":2872:2873   */\n          0x00\n            /* \"#utility.yul\":2869:2870   */\n          dup1\n            /* \"#utility.yul\":2862:2874   */\n          revert\n            /* \"#utility.yul\":2813:2876   */\n        tag_84:\n            /* \"#utility.yul\":2760:2882   */\n          pop\n          jump\t// out\n            /* \"#utility.yul\":2888:3031   */\n        tag_25:\n            /* \"#utility.yul\":2945:2950   */\n          0x00\n            /* \"#utility.yul\":2976:2982   */\n          dup2\n            /* \"#utility.yul\":2970:2983   */\n          mload\n            /* \"#utility.yul\":2961:2983   */\n          swap1\n          pop\n            /* \"#utility.yul\":2992:3025   */\n          tag_86\n            /* \"#utility.yul\":3019:3024   */\n          dup2\n            /* \"#utility.yul\":2992:3025   */\n          tag_24\n          jump\t// in\n        tag_86:\n            /* \"#utility.yul\":2888:3031   */\n          swap3\n          swap2\n          pop\n          pop\n          jump\t// out\n            /* \"#utility.yul\":3037:3163   */\n        tag_26:\n            /* \"#utility.yul\":3074:3081   */\n          0x00\n            /* \"#utility.yul\":3114:3156   */\n          0xffffffffffffffffffffffffffffffffffffffff\n            /* \"#utility.yul\":3107:3112   */\n          dup3\n            /* \"#utility.yul\":3103:3157   */\n          and\n            /* \"#utility.yul\":3092:3157   */\n          swap1\n          pop\n            /* \"#utility.yul\":3037:3163   */\n          swap2\n          swap1\n          pop\n          jump\t// out\n            /* \"#utility.yul\":3169:3265   */\n        tag_27:\n            /* \"#utility.yul\":3206:3213   */\n          0x00\n            /* \"#utility.yul\":3235:3259   */\n          tag_89\n            /* \"#utility.yul\":3253:3258   */\n          dup3\n            /* \"#utility.yul\":3235:3259   */\n          tag_26\n          jump\t// in\n        tag_89:\n            /* \"#utility.yul\":3224:3259   */\n          swap1\n          pop\n            /* \"#utility.yul\":3169:3265   */\n          swap2\n          swap1\n          pop\n          jump\t// out\n            /* \"#utility.yul\":3271:3393   */\n        tag_28:\n            /* \"#utility.yul\":3344:3368   */\n          tag_91\n            /* \"#utility.yul\":3362:3367   */\n          dup2\n            /* \"#utility.yul\":3344:3368   */\n          tag_27\n          jump\t// in\n        tag_91:\n            /* \"#utility.yul\":3337:3342   */\n          dup2\n            /* \"#utility.yul\":3334:3369   */\n          eq\n            /* \"#utility.yul\":3324:3387   */\n          tag_92\n          jumpi\n            /* \"#utility.yul\":3383:3384   */\n          0x00\n            /* \"#utility.yul\":3380:3381   */\n          dup1\n            /* \"#utility.yul\":3373:3385   */\n          revert\n            /* \"#utility.yul\":3324:3387   */\n        tag_92:\n            /* \"#utility.yul\":3271:3393   */\n          pop\n          jump\t// out\n            /* \"#utility.yul\":3399:3542   */\n        tag_29:\n            /* \"#utility.yul\":3456:3461   */\n          0x00\n            /* \"#utility.yul\":3487:3493   */\n          dup2\n            /* \"#utility.yul\":3481:3494   */\n          mload\n            /* \"#utility.yul\":3472:3494   */\n          swap1\n          pop\n            /* \"#utility.yul\":3503:3536   */\n          tag_94\n            /* \"#utility.yul\":3530:3535   */\n          dup2\n            /* \"#utility.yul\":3503:3536   */\n          tag_28\n          jump\t// in\n        tag_94:\n            /* \"#utility.yul\":3399:3542   */\n          swap3\n          swap2\n          pop\n          pop\n          jump\t// out\n            /* \"#utility.yul\":3548:4384   */\n        tag_3:\n            /* \"#utility.yul\":3646:3652   */\n          0x00\n            /* \"#utility.yul\":3654:3660   */\n          dup1\n            /* \"#utility.yul\":3662:3668   */\n          0x00\n            /* \"#utility.yul\":3711:3713   */\n          0x60\n            /* \"#utility.yul\":3699:3708   */\n          dup5\n            /* \"#utility.yul\":3690:3697   */\n          dup7\n            /* \"#utility.yul\":3686:3709   */\n          sub\n            /* \"#utility.yul\":3682:3714   */\n          slt\n            /* \"#utility.yul\":3679:3798   */\n          iszero\n          tag_96\n          jumpi\n            /* \"#utility.yul\":3717:3796   */\n          tag_97\n          tag_11\n          jump\t// in\n        tag_97:\n            /* \"#utility.yul\":3679:3798   */\n        tag_96:\n            /* \"#utility.yul\":3858:3859   */\n          0x00\n            /* \"#utility.yul\":3847:3856   */\n          dup5\n            /* \"#utility.yul\":3843:3860   */\n          add\n            /* \"#utility.yul\":3837:3861   */\n          mload\n            /* \"#utility.yul\":3888:3906   */\n          0xffffffffffffffff\n            /* \"#utility.yul\":3880:3886   */\n          dup2\n            /* \"#utility.yul\":3877:3907   */\n          gt\n            /* \"#utility.yul\":3874:3991   */\n          iszero\n          tag_98\n          jumpi\n            /* \"#utility.yul\":3910:3989   */\n          tag_99\n          tag_12\n          jump\t// in\n        tag_99:\n            /* \"#utility.yul\":3874:3991   */\n        tag_98:\n            /* \"#utility.yul\":4015:4089   */\n          tag_100\n            /* \"#utility.yul\":4081:4088   */\n          dup7\n            /* \"#utility.yul\":4072:4078   */\n          dup3\n            /* \"#utility.yul\":4061:4070   */\n          dup8\n            /* \"#utility.yul\":4057:4079   */\n          add\n            /* \"#utility.yul\":4015:4089   */\n          tag_22\n          jump\t// in\n        tag_100:\n            /* \"#utility.yul\":4005:4089   */\n          swap4\n          pop\n            /* \"#utility.yul\":3808:4099   */\n          pop\n            /* \"#utility.yul\":4138:4140   */\n          0x20\n            /* \"#utility.yul\":4164:4228   */\n          tag_101\n            /* \"#utility.yul\":4220:4227   */\n          dup7\n            /* \"#utility.yul\":4211:4217   */\n          dup3\n            /* \"#utility.yul\":4200:4209   */\n          dup8\n            /* \"#utility.yul\":4196:4218   */\n          add\n            /* \"#utility.yul\":4164:4228   */\n          tag_25\n          jump\t// in\n        tag_101:\n            /* \"#utility.yul\":4154:4228   */\n          swap3\n          pop\n            /* \"#utility.yul\":4109:4238   */\n          pop\n            /* \"#utility.yul\":4277:4279   */\n          0x40\n            /* \"#utility.yul\":4303:4367   */\n          tag_102\n            /* \"#utility.yul\":4359:4366   */\n          dup7\n            /* \"#utility.yul\":4350:4356   */\n          dup3\n            /* \"#utility.yul\":4339:4348   */\n          dup8\n            /* \"#utility.yul\":4335:4357   */\n          add\n            /* \"#utility.yul\":4303:4367   */\n          tag_29\n          jump\t// in\n        tag_102:\n            /* \"#utility.yul\":4293:4367   */\n          swap2\n          pop\n            /* \"#utility.yul\":4248:4377   */\n          pop\n            /* \"#utility.yul\":3548:4384   */\n          swap3\n          pop\n          swap3\n          pop\n          swap3\n          jump\t// out\n            /* \"#utility.yul\":4390:4489   */\n        tag_30:\n            /* \"#utility.yul\":4442:4448   */\n          0x00\n            /* \"#utility.yul\":4476:4481   */\n          dup2\n            /* \"#utility.yul\":4470:4482   */\n          mload\n            /* \"#utility.yul\":4460:4482   */\n          swap1\n          pop\n            /* \"#utility.yul\":4390:4489   */\n          swap2\n          swap1\n          pop\n          jump\t// out\n            /* \"#utility.yul\":4495:4675   */\n        tag_31:\n            /* \"#utility.yul\":4543:4620   */\n          0x4e487b7100000000000000000000000000000000000000000000000000000000\n            /* \"#utility.yul\":4540:4541   */\n          0x00\n            /* \"#utility.yul\":4533:4621   */\n          mstore\n            /* \"#utility.yul\":4640:4644   */\n          0x22\n            /* \"#utility.yul\":4637:4638   */\n          0x04\n            /* \"#utility.yul\":4630:4645   */\n          mstore\n            /* \"#utility.yul\":4664:4668   */\n          0x24\n            /* \"#utility.yul\":4661:4662   */\n          0x00\n            /* \"#utility.yul\":4654:4669   */\n          revert\n            /* \"#utility.yul\":4681:5001   */\n        tag_32:\n            /* \"#utility.yul\":4725:4731   */\n          0x00\n            /* \"#utility.yul\":4762:4763   */\n          0x02\n            /* \"#utility.yul\":4756:4760   */\n          dup3\n            /* \"#utility.yul\":4752:4764   */\n          div\n            /* \"#utility.yul\":4742:4764   */\n          swap1\n          pop\n            /* \"#utility.yul\":4809:4810   */\n          0x01\n            /* \"#utility.yul\":4803:4807   */\n          dup3\n            /* \"#utility.yul\":4799:4811   */\n          and\n            /* \"#utility.yul\":4830:4848   */\n          dup1\n            /* \"#utility.yul\":4820:4901   */\n          tag_106\n          jumpi\n            /* \"#utility.yul\":4886:4890   */\n          0x7f\n            /* \"#utility.yul\":4878:4884   */\n          dup3\n            /* \"#utility.yul\":4874:4891   */\n          and\n            /* \"#utility.yul\":4864:4891   */\n          swap2\n          pop\n            /* \"#utility.yul\":4820:4901   */\n        tag_106:\n            /* \"#utility.yul\":4948:4950   */\n          0x20\n            /* \"#utility.yul\":4940:4946   */\n          dup3\n            /* \"#utility.yul\":4937:4951   */\n          lt\n            /* \"#utility.yul\":4917:4935   */\n          dup2\n            /* \"#utility.yul\":4914:4952   */\n          sub\n            /* \"#utility.yul\":4911:4995   */\n          tag_107\n          jumpi\n            /* \"#utility.yul\":4967:4985   */\n          tag_108\n          tag_31\n          jump\t// in\n        tag_108:\n            /* \"#utility.yul\":4911:4995   */\n        tag_107:\n            /* \"#utility.yul\":4732:5001   */\n          pop\n            /* \"#utility.yul\":4681:5001   */\n          swap2\n          swap1\n          pop\n          jump\t// out\n            /* \"#utility.yul\":5007:5148   */\n        tag_33:\n            /* \"#utility.yul\":5056:5060   */\n          0x00\n            /* \"#utility.yul\":5079:5082   */\n          dup2\n            /* \"#utility.yul\":5071:5082   */\n          swap1\n          pop\n            /* \"#utility.yul\":5102:5105   */\n          dup2\n            /* \"#utility.yul\":5099:5100   */\n          0x00\n            /* \"#utility.yul\":5092:5106   */\n          mstore\n            /* \"#utility.yul\":5136:5140   */\n          0x20\n            /* \"#utility.yul\":5133:5134   */\n          0x00\n            /* \"#utility.yul\":5123:5141   */\n          keccak256\n            /* \"#utility.yul\":5115:5141   */\n          swap1\n          pop\n            /* \"#utility.yul\":5007:5148   */\n          swap2\n          swap1\n          pop\n          jump\t// out\n            /* \"#utility.yul\":5154:5247   */\n        tag_34:\n            /* \"#utility.yul\":5191:5197   */\n          0x00\n            /* \"#utility.yul\":5238:5240   */\n          0x20\n            /* \"#utility.yul\":5233:5235   */\n          0x1f\n            /* \"#utility.yul\":5226:5231   */\n          dup4\n            /* \"#utility.yul\":5222:5236   */\n          add\n            /* \"#utility.yul\":5218:5241   */\n          div\n            /* \"#utility.yul\":5208:5241   */\n          swap1\n          pop\n            /* \"#utility.yul\":5154:5247   */\n          swap2\n          swap1\n          pop\n          jump\t// out\n            /* \"#utility.yul\":5253:5360   */\n        tag_35:\n            /* \"#utility.yul\":5297:5305   */\n          0x00\n            /* \"#utility.yul\":5347:5352   */\n          dup3\n            /* \"#utility.yul\":5341:5345   */\n          dup3\n            /* \"#utility.yul\":5337:5353   */\n          shl\n            /* \"#utility.yul\":5316:5353   */\n          swap1\n          pop\n            /* \"#utility.yul\":5253:5360   */\n          swap3\n          swap2\n          pop\n          pop\n          jump\t// out\n            /* \"#utility.yul\":5366:5759   */\n        tag_36:\n            /* \"#utility.yul\":5435:5441   */\n          0x00\n            /* \"#utility.yul\":5485:5486   */\n          0x08\n            /* \"#utility.yul\":5473:5483   */\n          dup4\n            /* \"#utility.yul\":5469:5487   */\n          mul\n            /* \"#utility.yul\":5508:5605   */\n          tag_113\n            /* \"#utility.yul\":5538:5604   */\n          0xffffffffffffffffffffffffffffffffffffffffffffffffffffffffffffffff\n            /* \"#utility.yul\":5527:5536   */\n          dup3\n            /* \"#utility.yul\":5508:5605   */\n          tag_35\n          jump\t// in\n        tag_113:\n            /* \"#utility.yul\":5626:5665   */\n          tag_114\n            /* \"#utility.yul\":5656:5664   */\n          dup7\n            /* \"#utility.yul\":5645:5654   */\n          dup4\n            /* \"#utility.yul\":5626:5665   */\n          tag_35\n          jump\t// in\n        tag_114:\n            /* \"#utility.yul\":5614:5665   */\n          swap6\n          pop\n            /* \"#utility.yul\":5698:5702   */\n          dup1\n            /* \"#utility.yul\":5694:5703   */\n          not\n            /* \"#utility.yul\":5687:5692   */\n          dup5\n            /* \"#utility.yul\":5683:5704   */\n          and\n            /* \"#utility.yul\":5674:5704   */\n          swap4\n          pop\n            /* \"#utility.yul\":5747:5751   */\n          dup1\n            /* \"#utility.yul\":5737:5745   */\n          dup7\n            /* \"#utility.yul\":5733:5752   */\n          and\n            /* \"#utility.yul\":5726:5731   */\n          dup5\n            /* \"#utility.yul\":5723:5753   */\n          or\n            /* \"#utility.yul\":5713:5753   */\n          swap3\n          pop\n            /* \"#utility.yul\":5442:5759   */\n          pop\n          pop\n            /* \"#utility.yul\":5366:5759   */\n          swap4\n          swap3\n          pop\n          pop\n          pop\n          jump\t// out\n            /* \"#utility.yul\":5765:5825   */\n        tag_37:\n            /* \"#utility.yul\":5793:5796   */\n          0x00\n            /* \"#utility.yul\":5814:5819   */\n          dup2\n            /* \"#utility.yul\":5807:5819   */\n          swap1\n          pop\n            /* \"#utility.yul\":5765:5825   */\n          swap2\n          swap1\n          pop\n          jump\t// out\n            /* \"#utility.yul\":5831:5973   */\n        tag_38:\n            /* \"#utility.yul\":5881:5890   */\n          0x00\n            /* \"#utility.yul\":5914:5967   */\n          tag_117\n            /* \"#utility.yul\":5932:5966   */\n          tag_118\n            /* \"#utility.yul\":5941:5965   */\n          tag_119\n            /* \"#utility.yul\":5959:5964   */\n          dup5\n            /* \"#utility.yul\":5941:5965   */\n          tag_23\n          jump\t// in\n        tag_119:\n            /* \"#utility.yul\":5932:5966   */\n          tag_37\n          jump\t// in\n        tag_118:\n            /* \"#utility.yul\":5914:5967   */\n          tag_23\n          jump\t// in\n        tag_117:\n            /* \"#utility.yul\":5901:5967   */\n          swap1\n          pop\n            /* \"#utility.yul\":5831:5973   */\n          swap2\n          swap1\n          pop\n          jump\t// out\n            /* \"#utility.yul\":5979:6054   */\n        tag_39:\n            /* \"#utility.yul\":6022:6025   */\n          0x00\n            /* \"#utility.yul\":6043:6048   */\n          dup2\n            /* \"#utility.yul\":6036:6048   */\n          swap1\n          pop\n            /* \"#utility.yul\":5979:6054   */\n          swap2\n          swap1\n          pop\n          jump\t// out\n            /* \"#utility.yul\":6060:6329   */\n        tag_40:\n            /* \"#utility.yul\":6170:6209   */\n          tag_122\n            /* \"#utility.yul\":6201:6208   */\n          dup4\n            /* \"#utility.yul\":6170:6209   */\n          tag_38\n          jump\t// in\n        tag_122:\n            /* \"#utility.yul\":6231:6322   */\n          tag_123\n            /* \"#utility.yul\":6280:6321   */\n          tag_124\n            /* \"#utility.yul\":6304:6320   */\n          dup3\n            /* \"#utility.yul\":6280:6321   */\n          tag_39\n          jump\t// in\n        tag_124:\n            /* \"#utility.yul\":6272:6278   */\n          dup5\n            /* \"#utility.yul\":6265:6269   */\n          dup5\n            /* \"#utility.yul\":6259:6270   */\n          sload\n            /* \"#utility.yul\":6231:6322   */\n          tag_36\n          jump\t// in\n        tag_123:\n            /* \"#utility.yul\":6225:6229   */\n          dup3\n            /* \"#utility.yul\":6218:6323   */\n          sstore\n            /* \"#utility.yul\":6136:6329   */\n          pop\n            /* \"#utility.yul\":6060:6329   */\n          pop\n          pop\n          pop\n          jump\t// out\n            /* \"#utility.yul\":6335:6408   */\n        tag_41:\n            /* \"#utility.yul\":6380:6383   */\n          0x00\n            /* \"#utility.yul\":6335:6408   */\n          swap1\n          jump\t// out\n            /* \"#utility.yul\":6414:6603   */\n        tag_42:\n            /* \"#utility.yul\":6491:6523   */\n          tag_127\n          tag_41\n          jump\t// in\n        tag_127:\n            /* \"#utility.yul\":6532:6597   */\n          tag_128\n            /* \"#utility.yul\":6590:6596   */\n          dup2\n            /* \"#utility.yul\":6582:6588   */\n          dup5\n            /* \"#utility.yul\":6576:6580   */\n          dup5\n            /* \"#utility.yul\":6532:6597   */\n          tag_40\n          jump\t// in\n        tag_128:\n            /* \"#utility.yul\":6467:6603   */\n          pop\n            /* \"#utility.yul\":6414:6603   */\n          pop\n          pop\n          jump\t// out\n            /* \"#utility.yul\":6609:6795   */\n        tag_43:\n            /* \"#utility.yul\":6669:6789   */\n        tag_130:\n            /* \"#utility.yul\":6686:6689   */\n          dup2\n            /* \"#utility.yul\":6679:6684   */\n          dup2\n            /* \"#utility.yul\":6676:6690   */\n          lt\n            /* \"#utility.yul\":6669:6789   */\n          iszero\n          tag_132\n          jumpi\n            /* \"#utility.yul\":6740:6779   */\n          tag_133\n            /* \"#utility.yul\":6777:6778   */\n          0x00\n            /* \"#utility.yul\":6770:6775   */\n          dup3\n            /* \"#utility.yul\":6740:6779   */\n          tag_42\n          jump\t// in\n        tag_133:\n            /* \"#utility.yul\":6713:6714   */\n          0x01\n            /* \"#utility.yul\":6706:6711   */\n          dup2\n            /* \"#utility.yul\":6702:6715   */\n          add\n            /* \"#utility.yul\":6693:6715   */\n          swap1\n          pop\n            /* \"#utility.yul\":6669:6789   */\n          jump(tag_130)\n        tag_132:\n            /* \"#utility.yul\":6609:6795   */\n          pop\n          pop\n          jump\t// out\n            /* \"#utility.yul\":6801:7344   */\n        tag_44:\n            /* \"#utility.yul\":6902:6904   */\n          0x1f\n            /* \"#utility.yul\":6897:6900   */\n          dup3\n            /* \"#utility.yul\":6894:6905   */\n          gt\n            /* \"#utility.yul\":6891:7337   */\n          iszero\n          tag_135\n          jumpi\n            /* \"#utility.yul\":6936:6974   */\n          tag_136\n            /* \"#utility.yul\":6968:6973   */\n          dup2\n            /* \"#utility.yul\":6936:6974   */\n          tag_33\n          jump\t// in\n        tag_136:\n            /* \"#utility.yul\":7020:7049   */\n          tag_137\n            /* \"#utility.yul\":7038:7048   */\n          dup5\n            /* \"#utility.yul\":7020:7049   */\n          tag_34\n          jump\t// in\n        tag_137:\n            /* \"#utility.yul\":7010:7018   */\n          dup2\n            /* \"#utility.yul\":7006:7050   */\n          add\n            /* \"#utility.yul\":7203:7205   */\n          0x20\n            /* \"#utility.yul\":7191:7201   */\n          dup6\n            /* \"#utility.yul\":7188:7206   */\n          lt\n            /* \"#utility.yul\":7185:7234   */\n          iszero\n          tag_138\n          jumpi\n            /* \"#utility.yul\":7224:7232   */\n          dup2\n            /* \"#utility.yul\":7209:7232   */\n          swap1\n          pop\n            /* \"#utility.yul\":7185:7234   */\n        tag_138:\n            /* \"#utility.yul\":7247:7327   */\n          tag_139\n            /* \"#utility.yul\":7303:7325   */\n          tag_140\n            /* \"#utility.yul\":7321:7324   */\n          dup6\n            /* \"#utility.yul\":7303:7325   */\n          tag_34\n          jump\t// in\n        tag_140:\n            /* \"#utility.yul\":7293:7301   */\n          dup4\n            /* \"#utility.yul\":7289:7326   */\n          add\n            /* \"#utility.yul\":7276:7287   */\n          dup3\n            /* \"#utility.yul\":7247:7327   */\n          tag_43\n          jump\t// in\n        tag_139:\n            /* \"#utility.yul\":6906:7337   */\n          pop\n          pop\n            /* \"#utility.yul\":6891:7337   */\n        tag_135:\n            /* \"#utility.yul\":6801:7344   */\n          pop\n          pop\n          pop\n          jump\t// out\n            /* \"#utility.yul\":7350:7467   */\n        tag_45:\n            /* \"#utility.yul\":7404:7412   */\n          0x00\n            /* \"#utility.yul\":7454:7459   */\n          dup3\n            /* \"#utility.yul\":7448:7452   */\n          dup3\n            /* \"#utility.yul\":7444:7460   */\n          shr\n            /* \"#utility.yul\":7423:7460   */\n          swap1\n          pop\n            /* \"#utility.yul\":7350:7467   */\n          swap3\n          swap2\n          pop\n          pop\n          jump\t// out\n            /* \"#utility.yul\":7473:7642   */\n        tag_46:\n            /* \"#utility.yul\":7517:7523   */\n          0x00\n            /* \"#utility.yul\":7550:7601   */\n          tag_143\n            /* \"#utility.yul\":7598:7599   */\n          0x00\n            /* \"#utility.yul\":7594:7600   */\n          not\n            /* \"#utility.yul\":7586:7591   */\n          dup5\n            /* \"#utility.yul\":7583:7584   */\n          0x08\n            /* \"#utility.yul\":7579:7592   */\n          mul\n            /* \"#utility.yul\":7550:7601   */\n          tag_45\n          jump\t// in\n        tag_143:\n            /* \"#utility.yul\":7546:7602   */\n          not\n            /* \"#utility.yul\":7631:7635   */\n          dup1\n            /* \"#utility.yul\":7625:7629   */\n          dup4\n            /* \"#utility.yul\":7621:7636   */\n          and\n            /* \"#utility.yul\":7611:7636   */\n          swap2\n          pop\n            /* \"#utility.yul\":7524:7642   */\n          pop\n            /* \"#utility.yul\":7473:7642   */\n          swap3\n          swap2\n          pop\n          pop\n          jump\t// out\n            /* \"#utility.yul\":7647:7942   */\n        tag_47:\n            /* \"#utility.yul\":7723:7727   */\n          0x00\n            /* \"#utility.yul\":7869:7898   */\n          tag_145\n            /* \"#utility.yul\":7894:7897   */\n          dup4\n            /* \"#utility.yul\":7888:7892   */\n          dup4\n            /* \"#utility.yul\":7869:7898   */\n          tag_46\n          jump\t// in\n        tag_145:\n            /* \"#utility.yul\":7861:7898   */\n          swap2\n          pop\n            /* \"#utility.yul\":7931:7934   */\n          dup3\n            /* \"#utility.yul\":7928:7929   */\n          0x02\n            /* \"#utility.yul\":7924:7935   */\n          mul\n            /* \"#utility.yul\":7918:7922   */\n          dup3\n            /* \"#utility.yul\":7915:7936   */\n          or\n            /* \"#utility.yul\":7907:7936   */\n          swap1\n          pop\n            /* \"#utility.yul\":7647:7942   */\n          swap3\n          swap2\n          pop\n          pop\n          jump\t// out\n            /* \"#utility.yul\":7947:9342   */\n        tag_8:\n            /* \"#utility.yul\":8064:8101   */\n          tag_147\n            /* \"#utility.yul\":8097:8100   */\n          dup3\n            /* \"#utility.yul\":8064:8101   */\n          tag_30\n          jump\t// in\n        tag_147:\n            /* \"#utility.yul\":8166:8184   */\n          0xffffffffffffffff\n            /* \"#utility.yul\":8158:8164   */\n          dup2\n            /* \"#utility.yul\":8155:8185   */\n          gt\n            /* \"#utility.yul\":8152:8208   */\n          iszero\n          tag_148\n          jumpi\n            /* \"#utility.yul\":8188:8206   */\n          tag_149\n          tag_16\n          jump\t// in\n        tag_149:\n            /* \"#utility.yul\":8152:8208   */\n        tag_148:\n            /* \"#utility.yul\":8232:8270   */\n          tag_150\n            /* \"#utility.yul\":8264:8268   */\n          dup3\n            /* \"#utility.yul\":8258:8269   */\n          sload\n            /* \"#utility.yul\":8232:8270   */\n          tag_32\n          jump\t// in\n        tag_150:\n            /* \"#utility.yul\":8317:8384   */\n          tag_151\n            /* \"#utility.yul\":8377:8383   */\n          dup3\n            /* \"#utility.yul\":8369:8375   */\n          dup3\n            /* \"#utility.yul\":8363:8367   */\n          dup6\n            /* \"#utility.yul\":8317:8384   */\n          tag_44\n          jump\t// in\n        tag_151:\n            /* \"#utility.yul\":8411:8412   */\n          0x00\n            /* \"#utility.yul\":8435:8439   */\n          0x20\n            /* \"#utility.yul\":8422:8439   */\n          swap1\n          pop\n            /* \"#utility.yul\":8467:8469   */\n          0x1f\n            /* \"#utility.yul\":8459:8465   */\n          dup4\n            /* \"#utility.yul\":8456:8470   */\n          gt\n            /* \"#utility.yul\":8484:8485   */\n          0x01\n            /* \"#utility.yul\":8479:9097   */\n          dup2\n          eq\n          tag_153\n          jumpi\n            /* \"#utility.yul\":9141:9142   */\n          0x00\n            /* \"#utility.yul\":9158:9164   */\n          dup5\n            /* \"#utility.yul\":9155:9232   */\n          iszero\n          tag_154\n          jumpi\n            /* \"#utility.yul\":9207:9216   */\n          dup3\n            /* \"#utility.yul\":9202:9205   */\n          dup8\n            /* \"#utility.yul\":9198:9217   */\n          add\n            /* \"#utility.yul\":9192:9218   */\n          mload\n            /* \"#utility.yul\":9183:9218   */\n          swap1\n          pop\n            /* \"#utility.yul\":9155:9232   */\n        tag_154:\n            /* \"#utility.yul\":9258:9325   */\n          tag_155\n            /* \"#utility.yul\":9318:9324   */\n          dup6\n            /* \"#utility.yul\":9311:9316   */\n          dup3\n            /* \"#utility.yul\":9258:9325   */\n          tag_47\n          jump\t// in\n        tag_155:\n            /* \"#utility.yul\":9252:9256   */\n          dup7\n            /* \"#utility.yul\":9245:9326   */\n          sstore\n            /* \"#utility.yul\":9114:9336   */\n          pop\n            /* \"#utility.yul\":8449:9336   */\n          jump(tag_152)\n            /* \"#utility.yul\":8479:9097   */\n        tag_153:\n            /* \"#utility.yul\":8531:8535   */\n          0x1f\n            /* \"#utility.yul\":8527:8536   */\n          not\n            /* \"#utility.yul\":8519:8525   */\n          dup5\n            /* \"#utility.yul\":8515:8537   */\n          and\n            /* \"#utility.yul\":8565:8602   */\n          tag_156\n            /* \"#utility.yul\":8597:8601   */\n          dup7\n            /* \"#utility.yul\":8565:8602   */\n          tag_33\n          jump\t// in\n        tag_156:\n            /* \"#utility.yul\":8624:8625   */\n          0x00\n            /* \"#utility.yul\":8638:8846   */\n        tag_157:\n            /* \"#utility.yul\":8652:8659   */\n          dup3\n            /* \"#utility.yul\":8649:8650   */\n          dup2\n            /* \"#utility.yul\":8646:8660   */\n          lt\n            /* \"#utility.yul\":8638:8846   */\n          iszero\n          tag_159\n          jumpi\n            /* \"#utility.yul\":8731:8740   */\n          dup5\n            /* \"#utility.yul\":8726:8729   */\n          dup10\n            /* \"#utility.yul\":8722:8741   */\n          add\n            /* \"#utility.yul\":8716:8742   */\n          mload\n            /* \"#utility.yul\":8708:8714   */\n          dup3\n            /* \"#utility.yul\":8701:8743   */\n          sstore\n            /* \"#utility.yul\":8782:8783   */\n          0x01\n            /* \"#utility.yul\":8774:8780   */\n          dup3\n            /* \"#utility.yul\":8770:8784   */\n          add\n            /* \"#utility.yul\":8760:8784   */\n          swap2\n          pop\n            /* \"#utility.yul\":8829:8831   */\n          0x20\n            /* \"#utility.yul\":8818:8827   */\n          dup6\n            /* \"#utility.yul\":8814:8832   */\n          add\n            /* \"#utility.yul\":8801:8832   */\n          swap5\n          pop\n            /* \"#utility.yul\":8675:8679   */\n          0x20\n            /* \"#utility.yul\":8672:8673   */\n          dup2\n            /* \"#utility.yul\":8668:8680   */\n          add\n            /* \"#utility.yul\":8663:8680   */\n          swap1\n          pop\n            /* \"#utility.yul\":8638:8846   */\n          jump(tag_157)\n        tag_159:\n            /* \"#utility.yul\":8874:8880   */\n          dup7\n            /* \"#utility.yul\":8865:8872   */\n          dup4\n            /* \"#utility.yul\":8862:8881   */\n          lt\n            /* \"#utility.yul\":8859:9038   */\n          iszero\n          tag_160\n          jumpi\n            /* \"#utility.yul\":8932:8941   */\n          dup5\n            /* \"#utility.yul\":8927:8930   */\n          dup10\n            /* \"#utility.yul\":8923:8942   */\n          add\n            /* \"#utility.yul\":8917:8943   */\n          mload\n            /* \"#utility.yul\":8975:9023   */\n          tag_161\n            /* \"#utility.yul\":9017:9021   */\n          0x1f\n            /* \"#utility.yul\":9009:9015   */\n          dup10\n            /* \"#utility.yul\":9005:9022   */\n          and\n            /* \"#utility.yul\":8994:9003   */\n          dup3\n            /* \"#utility.yul\":8975:9023   */\n          tag_46\n          jump\t// in\n        tag_161:\n            /* \"#utility.yul\":8967:8973   */\n          dup4\n            /* \"#utility.yul\":8960:9024   */\n          sstore\n            /* \"#utility.yul\":8882:9038   */\n          pop\n            /* \"#utility.yul\":8859:9038   */\n        tag_160:\n            /* \"#utility.yul\":9084:9085   */\n          0x01\n            /* \"#utility.yul\":9080:9081   */\n          0x02\n            /* \"#utility.yul\":9072:9078   */\n          dup9\n            /* \"#utility.yul\":9068:9082   */\n          mul\n            /* \"#utility.yul\":9064:9086   */\n          add\n            /* \"#utility.yul\":9058:9062   */\n          dup9\n            /* \"#utility.yul\":9051:9087   */\n          sstore\n            /* \"#utility.yul\":8486:9097   */\n          pop\n          pop\n          pop\n            /* \"#utility.yul\":8449:9336   */\n        tag_152:\n          pop\n            /* \"#utility.yul\":8039:9342   */\n          pop\n          pop\n          pop\n            /* \"#utility.yul\":7947:9342   */\n          pop\n          pop\n          jump\t// out\n            /* \"Campaign.sol\":1116:4675  contract Campaign... */\n        tag_9:\n          dataSize(sub_0)\n          dup1\n          dataOffset(sub_0)\n          0x00\n          codecopy\n          0x00\n          return\n        stop\n\n        sub_0: assembly {\n                /* \"Campaign.sol\":1116:4675  contract Campaign... */\n              mstore(0x40, 0x80)\n              jumpi(tag_1, lt(calldatasize, 0x04))\n              shr(0xe0, calldataload(0x00))\n              dup1\n              0xa7ac8000\n              gt\n              tag_13\n              jumpi\n              dup1\n              0xa7ac8000\n              eq\n              tag_7\n              jumpi\n              dup1\n              0xaf157c19\n              eq\n              tag_8\n              jumpi\n              dup1\n              0xd5009584\n              eq\n              tag_9\n              jumpi\n              dup1\n              0xd7bb99ba\n              eq\n              tag_10\n              jumpi\n              dup1\n              0xe2e46b52\n              eq\n              tag_11\n              jumpi\n              dup1\n              0xf84038b1\n              eq\n              tag_12\n              jumpi\n              jump(tag_1)\n            tag_13:\n              dup1\n              0x0a144391\n              eq\n              tag_2\n              jumpi\n              dup1\n              0x1a092541\n              eq\n              tag_3\n              jumpi\n              dup1\n              0x30e8fc5c\n              eq\n              tag_4\n              jumpi\n              dup1\n              0x692d51d2\n              eq\n              tag_5\n              jumpi\n              dup1\n              0x6f9fb98a\n              eq\n              tag_6\n              jumpi\n            tag_1:\n              0x00\n              dup1\n              revert\n                /* \"Campaign.sol\":1480:1521  mapping(address => uint) public approvers */\n            tag_2:\n              callvalue\n              dup1\n              iszero\n              tag_14\n              jumpi\n              0x00\n              dup1\n              revert\n            tag_14:\n              pop\n              tag_15\n              0x04\n              dup1\n              calldatasize\n              sub\n              dup2\n              add\n              swap1\n              tag_16\n              swap2\n              swap1\n              tag_17\n              jump\t// in\n            tag_16:\n              tag_18\n              jump\t// in\n            tag_15:\n              mload(0x40)\n              tag_19\n              swap2\n              swap1\n              tag_20\n              jump\t// in\n            tag_19:\n              mload(0x40)\n              dup1\n              swap2\n              sub\n              swap1\n              return\n                /* \"Campaign.sol\":1954:2058  function getDescription() external view returns (string memory)... */\n            tag_3:\n              callvalue\n              dup1\n              iszero\n              tag_21\n              jumpi\n              0x00\n              dup1\n              revert\n            tag_21:\n              pop\n              tag_22\n              tag_23\n              jump\t// in\n            tag_22:\n              mload(0x40)\n              tag_24\n              swap2\n              swap1\n              tag_25\n              jump\t// in\n            tag_24:\n              mload(0x40)\n              dup1\n              swap2\n              sub\n              swap1\n              return\n                /* \"Campaign.sol\":3380:4151  function voteRequest(string memory reqName, bool isApproval ) external... */\n            tag_4:\n              callvalue\n              dup1\n              iszero\n              tag_26\n              jumpi\n              0x00\n              dup1\n              revert\n            tag_26:\n              pop\n              tag_27\n              0x04\n              dup1\n              calldatasize\n              sub\n              dup2\n              add\n              swap1\n              tag_28\n              swap2\n              swap1\n              tag_29\n              jump\t// in\n            tag_28:\n              tag_30\n              jump\t// in\n            tag_27:\n              stop\n                /* \"Campaign.sol\":1592:1634  mapping(string => Request) public requests */\n            tag_5:\n              callvalue\n              dup1\n              iszero\n              tag_31\n              jumpi\n              0x00\n              dup1\n              revert\n            tag_31:\n              pop\n              tag_32\n              0x04\n              dup1\n              calldatasize\n              sub\n              dup2\n              add\n              swap1\n              tag_33\n              swap2\n              swap1\n              tag_34\n              jump\t// in\n            tag_33:\n              tag_35\n              jump\t// in\n            tag_32:\n              mload(0x40)\n              tag_36\n              swap9\n              swap8\n              swap7\n              swap6\n              swap5\n              swap4\n              swap3\n              swap2\n              swap1\n              tag_37\n              jump\t// in\n            tag_36:\n              mload(0x40)\n              dup1\n              swap2\n              sub\n              swap1\n              return\n                /* \"Campaign.sol\":2272:2384  function getContractBalance() external view returns(uint){... */\n            tag_6:\n              callvalue\n              dup1\n              iszero\n              tag_38\n              jumpi\n              0x00\n              dup1\n              revert\n            tag_38:\n              pop\n              tag_39\n              tag_40\n              jump\t// in\n            tag_39:\n              mload(0x40)\n              tag_41\n              swap2\n              swap1\n              tag_20\n              jump\t// in\n            tag_41:\n              mload(0x40)\n              dup1\n              swap2\n              sub\n              swap1\n              return\n                /* \"Campaign.sol\":2631:3374  function triggerCampaignRequest(string memory name, string memory description, uint amount, uint requiredApprovals, address payable receiver) restricted external {... */\n            tag_7:\n              callvalue\n              dup1\n              iszero\n              tag_42\n              jumpi\n              0x00\n              dup1\n              revert\n            tag_42:\n              pop\n              tag_43\n              0x04\n              dup1\n              calldatasize\n              sub\n              dup2\n              add\n              swap1\n              tag_44\n              swap2\n              swap1\n              tag_45\n              jump\t// in\n            tag_44:\n              tag_46\n              jump\t// in\n            tag_43:\n              stop\n                /* \"Campaign.sol\":2063:2156  function getContributors() external view returns(uint){... */\n            tag_8:\n              callvalue\n              dup1\n              iszero\n              tag_47\n              jumpi\n              0x00\n              dup1\n              revert\n            tag_47:\n              pop\n              tag_48\n              tag_49\n              jump\t// in\n            tag_48:\n              mload(0x40)\n              tag_50\n              swap2\n              swap1\n              tag_20\n              jump\t// in\n            tag_50:\n              mload(0x40)\n              dup1\n              swap2\n              sub\n              swap1\n              return\n                /* \"Campaign.sol\":1858:1948  function getManager() external view returns (address)... */\n            tag_9:\n              callvalue\n              dup1\n              iszero\n              tag_51\n              jumpi\n              0x00\n              dup1\n              revert\n            tag_51:\n              pop\n              tag_52\n              tag_53\n              jump\t// in\n            tag_52:\n              mload(0x40)\n              tag_54\n              swap2\n              swap1\n              tag_55\n              jump\t// in\n            tag_54:\n              mload(0x40)\n              dup1\n              swap2\n              sub\n              swap1\n              return\n                /* \"Campaign.sol\":2392:2625  function contribute() public payable{... */\n            tag_10:\n              tag_56\n              tag_57\n              jump\t// in\n            tag_56:\n              stop\n                /* \"Campaign.sol\":4157:4586  function submitRequest(string memory reqName) restricted external {... */\n            tag_11:\n              callvalue\n              dup1\n              iszero\n              tag_58\n              jumpi\n              0x00\n              dup1\n              revert\n            tag_58:\n              pop\n              tag_59\n              0x04\n              dup1\n              calldatasize\n              sub\n              dup2\n              add\n              swap1\n              tag_60\n              swap2\n              swap1\n              tag_34\n              jump\t// in\n            tag_60:\n              tag_61\n              jump\t// in\n            tag_59:\n              stop\n                /* \"Campaign.sol\":2161:2266  function getMinimumContribution() external view returns(uint){... */\n            tag_12:\n              callvalue\n              dup1\n              iszero\n              tag_62\n              jumpi\n              0x00\n              dup1\n              revert\n            tag_62:\n              pop\n              tag_63\n              tag_64\n              jump\t// in\n            tag_63:\n              mload(0x40)\n              tag_65\n              swap2\n              swap1\n              tag_20\n              jump\t// in\n            tag_65:\n              mload(0x40)\n              dup1\n              swap2\n              sub\n              swap1\n              return\n                /* \"Campaign.sol\":1480:1521  mapping(address => uint) public approvers */\n            tag_18:\n              mstore(0x20, 0x02)\n              dup1\n              0x00\n              mstore\n              keccak256(0x00, 0x40)\n              0x00\n              swap2\n              pop\n              swap1\n              pop\n              sload\n              dup2\n              jump\t// out\n                /* \"Campaign.sol\":1954:2058  function getDescription() external view returns (string memory)... */\n            tag_23:\n                /* \"Campaign.sol\":2003:2016  string memory */\n              0x60\n                /* \"Campaign.sol\":2039:2051  _description */\n              0x00\n                /* \"Campaign.sol\":2032:2051  return _description */\n              dup1\n              sload\n              tag_67\n              swap1\n              tag_68\n              jump\t// in\n            tag_67:\n              dup1\n              0x1f\n              add\n              0x20\n              dup1\n              swap2\n              div\n              mul\n              0x20\n              add\n              mload(0x40)\n              swap1\n              dup2\n              add\n              0x40\n              mstore\n              dup1\n              swap3\n              swap2\n              swap1\n              dup2\n              dup2\n              mstore\n              0x20\n              add\n              dup3\n              dup1\n              sload\n              tag_69\n              swap1\n              tag_68\n              jump\t// in\n            tag_69:\n              dup1\n              iszero\n              tag_70\n              jumpi\n              dup1\n              0x1f\n              lt\n              tag_71\n              jumpi\n              0x0100\n              dup1\n              dup4\n              sload\n              div\n              mul\n              dup4\n              mstore\n              swap2\n              0x20\n              add\n              swap2\n              jump(tag_70)\n            tag_71:\n              dup3\n              add\n              swap2\n              swap1\n              0x00\n              mstore\n              keccak256(0x00, 0x20)\n              swap1\n            tag_72:\n              dup2\n              sload\n              dup2\n              mstore\n              swap1\n              0x01\n              add\n              swap1\n              0x20\n              add\n              dup1\n              dup4\n              gt\n              tag_72\n              jumpi\n              dup3\n              swap1\n              sub\n              0x1f\n              and\n              dup3\n              add\n              swap2\n            tag_70:\n              pop\n              pop\n              pop\n              pop\n              pop\n              swap1\n              pop\n                /* \"Campaign.sol\":1954:2058  function getDescription() external view returns (string memory)... */\n              swap1\n              jump\t// out\n                /* \"Campaign.sol\":3380:4151  function voteRequest(string memory reqName, bool isApproval ) external... */\n            tag_30:\n                /* \"Campaign.sol\":3487:3495  _manager */\n              0x01\n              0x00\n              swap1\n              sload\n              swap1\n              0x0100\n              exp\n              swap1\n              div\n              0xffffffffffffffffffffffffffffffffffffffff\n              and\n                /* \"Campaign.sol\":3473:3495  msg.sender != _manager */\n              0xffffffffffffffffffffffffffffffffffffffff\n              and\n                /* \"Campaign.sol\":3473:3483  msg.sender */\n              caller\n                /* \"Campaign.sol\":3473:3495  msg.sender != _manager */\n              0xffffffffffffffffffffffffffffffffffffffff\n              and\n              sub\n                /* \"Campaign.sol\":3465:3496  require(msg.sender != _manager) */\n              tag_74\n              jumpi\n              0x00\n              dup1\n              revert\n            tag_74:\n                /* \"Campaign.sol\":3507:3526  Request storage req */\n              0x00\n                /* \"Campaign.sol\":3529:3537  requests */\n              0x05\n                /* \"Campaign.sol\":3538:3545  reqName */\n              dup4\n                /* \"Campaign.sol\":3529:3546  requests[reqName] */\n              mload(0x40)\n              tag_75\n              swap2\n              swap1\n              tag_76\n              jump\t// in\n            tag_75:\n              swap1\n              dup2\n              mstore\n              0x20\n              add\n              mload(0x40)\n              dup1\n              swap2\n              sub\n              swap1\n              keccak256\n                /* \"Campaign.sol\":3507:3546  Request storage req = requests[reqName] */\n              swap1\n              pop\n                /* \"Campaign.sol\":3590:3591  0 */\n              0x00\n                /* \"Campaign.sol\":3571:3574  req */\n              dup2\n                /* \"Campaign.sol\":3571:3579  req.name */\n              0x00\n              add\n                /* \"Campaign.sol\":3565:3587  bytes(req.name).length */\n              dup1\n              sload\n              tag_77\n              swap1\n              tag_68\n              jump\t// in\n            tag_77:\n              swap1\n              pop\n                /* \"Campaign.sol\":3565:3591  bytes(req.name).length > 0 */\n              gt\n                /* \"Campaign.sol\":3557:3592  require(bytes(req.name).length > 0) */\n              tag_78\n              jumpi\n              0x00\n              dup1\n              revert\n            tag_78:\n                /* \"Campaign.sol\":3642:3649  reqName */\n              dup3\n                /* \"Campaign.sol\":3636:3657  bytes(reqName).length */\n              mload\n                /* \"Campaign.sol\":3616:3619  req */\n              dup2\n                /* \"Campaign.sol\":3616:3624  req.name */\n              0x00\n              add\n                /* \"Campaign.sol\":3610:3632  bytes(req.name).length */\n              dup1\n              sload\n              tag_79\n              swap1\n              tag_68\n              jump\t// in\n            tag_79:\n              swap1\n              pop\n                /* \"Campaign.sol\":3610:3657  bytes(req.name).length == bytes(reqName).length */\n              eq\n                /* \"Campaign.sol\":3602:3658  require(bytes(req.name).length == bytes(reqName).length) */\n              tag_80\n              jumpi\n              0x00\n              dup1\n              revert\n            tag_80:\n                /* \"Campaign.sol\":3727:3728  0 */\n              0x00\n                /* \"Campaign.sol\":3703:3712  approvers */\n              0x02\n                /* \"Campaign.sol\":3703:3724  approvers[msg.sender] */\n              0x00\n                /* \"Campaign.sol\":3713:3723  msg.sender */\n              caller\n                /* \"Campaign.sol\":3703:3724  approvers[msg.sender] */\n              0xffffffffffffffffffffffffffffffffffffffff\n              and\n              0xffffffffffffffffffffffffffffffffffffffff\n              and\n              dup2\n              mstore\n              0x20\n              add\n              swap1\n              dup2\n              mstore\n              0x20\n              add\n              0x00\n              keccak256\n              sload\n                /* \"Campaign.sol\":3703:3728  approvers[msg.sender] > 0 */\n              gt\n                /* \"Campaign.sol\":3695:3729  require(approvers[msg.sender] > 0) */\n              tag_81\n              jumpi\n              0x00\n              dup1\n              revert\n            tag_81:\n                /* \"Campaign.sol\":3773:3776  req */\n              dup1\n                /* \"Campaign.sol\":3773:3786  req.canSubmit */\n              0x06\n              add\n              0x00\n              swap1\n              sload\n              swap1\n              0x0100\n              exp\n              swap1\n              div\n              0xff\n              and\n                /* \"Campaign.sol\":3772:3786  !req.canSubmit */\n              iszero\n                /* \"Campaign.sol\":3764:3787  require(!req.canSubmit) */\n              tag_82\n              jumpi\n              0x00\n              dup1\n              revert\n            tag_82:\n                /* \"Campaign.sol\":3806:3809  req */\n              dup1\n                /* \"Campaign.sol\":3806:3818  req.complete */\n              0x06\n              add\n              0x01\n              swap1\n              sload\n              swap1\n              0x0100\n              exp\n              swap1\n              div\n              0xff\n              and\n                /* \"Campaign.sol\":3805:3818  !req.complete */\n              iszero\n                /* \"Campaign.sol\":3797:3819  require(!req.complete) */\n              tag_83\n              jumpi\n              0x00\n              dup1\n              revert\n            tag_83:\n                /* \"Campaign.sol\":3864:3867  req */\n              dup1\n                /* \"Campaign.sol\":3864:3877  req.approvers */\n              0x07\n              add\n                /* \"Campaign.sol\":3864:3889  req.approvers[msg.sender] */\n              0x00\n                /* \"Campaign.sol\":3878:3888  msg.sender */\n              caller\n                /* \"Campaign.sol\":3864:3889  req.approvers[msg.sender] */\n              0xffffffffffffffffffffffffffffffffffffffff\n              and\n              0xffffffffffffffffffffffffffffffffffffffff\n              and\n              dup2\n              mstore\n              0x20\n              add\n              swap1\n              dup2\n              mstore\n              0x20\n              add\n              0x00\n              keccak256\n              0x00\n              swap1\n              sload\n              swap1\n              0x0100\n              exp\n              swap1\n              div\n              0xff\n              and\n                /* \"Campaign.sol\":3863:3889  !req.approvers[msg.sender] */\n              iszero\n                /* \"Campaign.sol\":3855:3890  require(!req.approvers[msg.sender]) */\n              tag_84\n              jumpi\n              0x00\n              dup1\n              revert\n            tag_84:\n                /* \"Campaign.sol\":3929:3933  true */\n              0x01\n                /* \"Campaign.sol\":3901:3904  req */\n              dup2\n                /* \"Campaign.sol\":3901:3914  req.approvers */\n              0x07\n              add\n                /* \"Campaign.sol\":3901:3926  req.approvers[msg.sender] */\n              0x00\n                /* \"Campaign.sol\":3915:3925  msg.sender */\n              caller\n                /* \"Campaign.sol\":3901:3926  req.approvers[msg.sender] */\n              0xffffffffffffffffffffffffffffffffffffffff\n              and\n              0xffffffffffffffffffffffffffffffffffffffff\n              and\n              dup2\n              mstore\n              0x20\n              add\n              swap1\n              dup2\n              mstore\n              0x20\n              add\n              0x00\n              keccak256\n              0x00\n                /* \"Campaign.sol\":3901:3933  req.approvers[msg.sender] = true */\n              0x0100\n              exp\n              dup2\n              sload\n              dup2\n              0xff\n              mul\n              not\n              and\n              swap1\n              dup4\n              iszero\n              iszero\n              mul\n              or\n              swap1\n              sstore\n              pop\n                /* \"Campaign.sol\":3955:3965  isApproval */\n              dup2\n                /* \"Campaign.sol\":3952:4011  if(isApproval){... */\n              iszero\n              tag_85\n              jumpi\n                /* \"Campaign.sol\":3980:3983  req */\n              dup1\n                /* \"Campaign.sol\":3980:3998  req.approvalsCount */\n              0x04\n              add\n              0x00\n                /* \"Campaign.sol\":3980:4000  req.approvalsCount++ */\n              dup2\n              sload\n              dup1\n              swap3\n              swap2\n              swap1\n              tag_86\n              swap1\n              tag_87\n              jump\t// in\n            tag_86:\n              swap2\n              swap1\n              pop\n              sstore\n              pop\n                /* \"Campaign.sol\":3952:4011  if(isApproval){... */\n            tag_85:\n                /* \"Campaign.sol\":4046:4049  req */\n              dup1\n                /* \"Campaign.sol\":4046:4067  req.requiredApprovals */\n              0x05\n              add\n              sload\n                /* \"Campaign.sol\":4024:4027  req */\n              dup2\n                /* \"Campaign.sol\":4024:4042  req.approvalsCount */\n              0x04\n              add\n              sload\n                /* \"Campaign.sol\":4024:4067  req.approvalsCount >= req.requiredApprovals */\n              lt\n                /* \"Campaign.sol\":4021:4114  if(req.approvalsCount >= req.requiredApprovals) {... */\n              tag_88\n              jumpi\n                /* \"Campaign.sol\":4099:4103  true */\n              0x01\n                /* \"Campaign.sol\":4083:4086  req */\n              dup2\n                /* \"Campaign.sol\":4083:4096  req.canSubmit */\n              0x06\n              add\n              0x00\n                /* \"Campaign.sol\":4083:4103  req.canSubmit = true */\n              0x0100\n              exp\n              dup2\n              sload\n              dup2\n              0xff\n              mul\n              not\n              and\n              swap1\n              dup4\n              iszero\n              iszero\n              mul\n              or\n              swap1\n              sstore\n              pop\n                /* \"Campaign.sol\":4021:4114  if(req.approvalsCount >= req.requiredApprovals) {... */\n            tag_88:\n                /* \"Campaign.sol\":3455:4151  {... */\n              pop\n                /* \"Campaign.sol\":3380:4151  function voteRequest(string memory reqName, bool isApproval ) external... */\n              pop\n              pop\n              jump\t// out\n                /* \"Campaign.sol\":1592:1634  mapping(string => Request) public requests */\n            tag_35:\n              0x05\n              dup2\n              dup1\n              mload\n              0x20\n              dup2\n              add\n              dup3\n              add\n              dup1\n              mload\n              dup5\n              dup3\n              mstore\n              0x20\n              dup4\n              add\n              0x20\n              dup6\n              add\n              keccak256\n              dup2\n              dup4\n              mstore\n              dup1\n              swap6\n              pop\n              pop\n              pop\n              pop\n              pop\n              pop\n              0x00\n              swap2\n              pop\n              swap1\n              pop\n              dup1\n              0x00\n              add\n              dup1\n              sload\n              tag_89\n              swap1\n              tag_68\n              jump\t// in\n            tag_89:\n              dup1\n              0x1f\n              add\n              0x20\n              dup1\n              swap2\n              div\n              mul\n              0x20\n              add\n              mload(0x40)\n              swap1\n              dup2\n              add\n              0x40\n              mstore\n              dup1\n              swap3\n              swap2\n              swap1\n              dup2\n              dup2\n              mstore\n              0x20\n              add\n              dup3\n              dup1\n              sload\n              tag_90\n              swap1\n              tag_68\n              jump\t// in\n            tag_90:\n              dup1\n              iszero\n              tag_91\n              jumpi\n              dup1\n              0x1f\n              lt\n              tag_92\n              jumpi\n              0x0100\n              dup1\n              dup4\n              sload\n              div\n              mul\n              dup4\n              mstore\n              swap2\n              0x20\n              add\n              swap2\n              jump(tag_91)\n            tag_92:\n              dup3\n              add\n              swap2\n              swap1\n              0x00\n              mstore\n              keccak256(0x00, 0x20)\n              swap1\n            tag_93:\n              dup2\n              sload\n              dup2\n              mstore\n              swap1\n              0x01\n              add\n              swap1\n              0x20\n              add\n              dup1\n              dup4\n              gt\n              tag_93\n              jumpi\n              dup3\n              swap1\n              sub\n              0x1f\n              and\n              dup3\n              add\n              swap2\n            tag_91:\n              pop\n              pop\n              pop\n              pop\n              pop\n              swap1\n              dup1\n              0x01\n              add\n              dup1\n              sload\n              tag_94\n              swap1\n              tag_68\n              jump\t// in\n            tag_94:\n              dup1\n              0x1f\n              add\n              0x20\n              dup1\n              swap2\n              div\n              mul\n              0x20\n              add\n              mload(0x40)\n              swap1\n              dup2\n              add\n              0x40\n              mstore\n              dup1\n              swap3\n              swap2\n              swap1\n              dup2\n              dup2\n              mstore\n              0x20\n              add\n              dup3\n              dup1\n              sload\n              tag_95\n              swap1\n              tag_68\n              jump\t// in\n            tag_95:\n              dup1\n              iszero\n              tag_96\n              jumpi\n              dup1\n              0x1f\n              lt\n              tag_97\n              jumpi\n              0x0100\n              dup1\n              dup4\n              sload\n              div\n              mul\n              dup4\n              mstore\n              swap2\n              0x20\n              add\n              swap2\n              jump(tag_96)\n            tag_97:\n              dup3\n              add\n              swap2\n              swap1\n              0x00\n              mstore\n              keccak256(0x00, 0x20)\n              swap1\n            tag_98:\n              dup2\n              sload\n              dup2\n              mstore\n              swap1\n              0x01\n              add\n              swap1\n              0x20\n              add\n              dup1\n              dup4\n              gt\n              tag_98\n              jumpi\n              dup3\n              swap1\n              sub\n              0x1f\n              and\n              dup3\n              add\n              swap2\n            tag_96:\n              pop\n              pop\n              pop\n              pop\n              pop\n              swap1\n              dup1\n              0x02\n              add\n              sload\n              swap1\n              dup1\n              0x03\n              add\n              0x00\n              swap1\n              sload\n              swap1\n              0x0100\n              exp\n              swap1\n              div\n              0xffffffffffffffffffffffffffffffffffffffff\n              and\n              swap1\n              dup1\n              0x04\n              add\n              sload\n              swap1\n              dup1\n              0x05\n              add\n              sload\n              swap1\n              dup1\n              0x06\n              add\n              0x00\n              swap1\n              sload\n              swap1\n              0x0100\n              exp\n              swap1\n              div\n              0xff\n              and\n              swap1\n              dup1\n              0x06\n              add\n              0x01\n              swap1\n              sload\n              swap1\n              0x0100\n              exp\n              swap1\n              div\n              0xff\n              and\n              swap1\n              pop\n              dup9\n              jump\t// out\n                /* \"Campaign.sol\":2272:2384  function getContractBalance() external view returns(uint){... */\n            tag_40:\n                /* \"Campaign.sol\":2324:2328  uint */\n              0x00\n                /* \"Campaign.sol\":2370:2377  1 ether */\n              0x0de0b6b3a7640000\n                /* \"Campaign.sol\":2346:2367  address(this).balance */\n              selfbalance\n                /* \"Campaign.sol\":2346:2377  address(this).balance / 1 ether */\n              tag_100\n              swap2\n              swap1\n              tag_101\n              jump\t// in\n            tag_100:\n                /* \"Campaign.sol\":2339:2377  return address(this).balance / 1 ether */\n              swap1\n              pop\n                /* \"Campaign.sol\":2272:2384  function getContractBalance() external view returns(uint){... */\n              swap1\n              jump\t// out\n                /* \"Campaign.sol\":2631:3374  function triggerCampaignRequest(string memory name, string memory description, uint amount, uint requiredApprovals, address payable receiver) restricted external {... */\n            tag_46:\n                /* \"Campaign.sol\":4646:4654  _manager */\n              0x01\n              0x00\n              swap1\n              sload\n              swap1\n              0x0100\n              exp\n              swap1\n              div\n              0xffffffffffffffffffffffffffffffffffffffff\n              and\n                /* \"Campaign.sol\":4632:4654  msg.sender == _manager */\n              0xffffffffffffffffffffffffffffffffffffffff\n              and\n                /* \"Campaign.sol\":4632:4642  msg.sender */\n              caller\n                /* \"Campaign.sol\":4632:4654  msg.sender == _manager */\n              0xffffffffffffffffffffffffffffffffffffffff\n              and\n              eq\n                /* \"Campaign.sol\":4624:4655  require(msg.sender == _manager) */\n              tag_103\n              jumpi\n              0x00\n              dup1\n              revert\n            tag_103:\n                /* \"Campaign.sol\":2841:2842  0 */\n              0x00\n                /* \"Campaign.sol\":2826:2830  name */\n              dup6\n                /* \"Campaign.sol\":2820:2838  bytes(name).length */\n              mload\n                /* \"Campaign.sol\":2820:2842  bytes(name).length > 0 */\n              gt\n                /* \"Campaign.sol\":2812:2843  require(bytes(name).length > 0) */\n              tag_105\n              jumpi\n              0x00\n              dup1\n              revert\n            tag_105:\n                /* \"Campaign.sol\":2889:2890  0 */\n              0x00\n                /* \"Campaign.sol\":2867:2878  description */\n              dup5\n                /* \"Campaign.sol\":2861:2886  bytes(description).length */\n              mload\n                /* \"Campaign.sol\":2861:2890  bytes(description).length > 0 */\n              gt\n                /* \"Campaign.sol\":2853:2891  require(bytes(description).length > 0) */\n              tag_106\n              jumpi\n              0x00\n              dup1\n              revert\n            tag_106:\n                /* \"Campaign.sol\":2918:2919  0 */\n              0x00\n                /* \"Campaign.sol\":2909:2915  amount */\n              dup4\n                /* \"Campaign.sol\":2909:2919  amount > 0 */\n              gt\n                /* \"Campaign.sol\":2901:2920  require(amount > 0) */\n              tag_107\n              jumpi\n              0x00\n              dup1\n              revert\n            tag_107:\n                /* \"Campaign.sol\":2972:2979  1 ether */\n              0x0de0b6b3a7640000\n                /* \"Campaign.sol\":2948:2969  address(this).balance */\n              selfbalance\n                /* \"Campaign.sol\":2948:2979  address(this).balance / 1 ether */\n              tag_108\n              swap2\n              swap1\n              tag_101\n              jump\t// in\n            tag_108:\n                /* \"Campaign.sol\":2938:2944  amount */\n              dup4\n                /* \"Campaign.sol\":2938:2979  amount <= address(this).balance / 1 ether */\n              gt\n              iszero\n                /* \"Campaign.sol\":2930:2980  require(amount <= address(this).balance / 1 ether) */\n              tag_109\n              jumpi\n              0x00\n              dup1\n              revert\n            tag_109:\n                /* \"Campaign.sol\":3018:3019  0 */\n              0x00\n                /* \"Campaign.sol\":2998:3015  requiredApprovals */\n              dup3\n                /* \"Campaign.sol\":2998:3019  requiredApprovals > 0 */\n              gt\n                /* \"Campaign.sol\":2990:3020  require(requiredApprovals > 0) */\n              tag_110\n              jumpi\n              0x00\n              dup1\n              revert\n            tag_110:\n                /* \"Campaign.sol\":3059:3074  _approversCount */\n              sload(0x03)\n                /* \"Campaign.sol\":3038:3055  requiredApprovals */\n              dup3\n                /* \"Campaign.sol\":3038:3074  requiredApprovals <= _approversCount */\n              gt\n              iszero\n                /* \"Campaign.sol\":3030:3075  require(requiredApprovals <= _approversCount) */\n              tag_111\n              jumpi\n              0x00\n              dup1\n              revert\n            tag_111:\n                /* \"Campaign.sol\":3085:3104  Request storage req */\n              0x00\n                /* \"Campaign.sol\":3107:3115  requests */\n              0x05\n                /* \"Campaign.sol\":3116:3120  name */\n              dup7\n                /* \"Campaign.sol\":3107:3121  requests[name] */\n              mload(0x40)\n              tag_112\n              swap2\n              swap1\n              tag_76\n              jump\t// in\n            tag_112:\n              swap1\n              dup2\n              mstore\n              0x20\n              add\n              mload(0x40)\n              dup1\n              swap2\n              sub\n              swap1\n              keccak256\n                /* \"Campaign.sol\":3085:3121  Request storage req = requests[name] */\n              swap1\n              pop\n                /* \"Campaign.sol\":3150:3154  name */\n              dup6\n                /* \"Campaign.sol\":3140:3143  req */\n              dup2\n                /* \"Campaign.sol\":3140:3148  req.name */\n              0x00\n              add\n                /* \"Campaign.sol\":3140:3154  req.name= name */\n              swap1\n              dup2\n              tag_113\n              swap2\n              swap1\n              tag_114\n              jump\t// in\n            tag_113:\n              pop\n                /* \"Campaign.sol\":3182:3193  description */\n              dup5\n                /* \"Campaign.sol\":3164:3167  req */\n              dup2\n                /* \"Campaign.sol\":3164:3179  req.description */\n              0x01\n              add\n                /* \"Campaign.sol\":3164:3193  req.description = description */\n              swap1\n              dup2\n              tag_115\n              swap2\n              swap1\n              tag_114\n              jump\t// in\n            tag_115:\n              pop\n                /* \"Campaign.sol\":3216:3222  amount */\n              dup4\n                /* \"Campaign.sol\":3203:3206  req */\n              dup2\n                /* \"Campaign.sol\":3203:3213  req.amount */\n              0x02\n              add\n                /* \"Campaign.sol\":3203:3222  req.amount = amount */\n              dup2\n              swap1\n              sstore\n              pop\n                /* \"Campaign.sol\":3247:3255  receiver */\n              dup2\n                /* \"Campaign.sol\":3232:3235  req */\n              dup2\n                /* \"Campaign.sol\":3232:3244  req.receiver */\n              0x03\n              add\n              0x00\n                /* \"Campaign.sol\":3232:3255  req.receiver = receiver */\n              0x0100\n              exp\n              dup2\n              sload\n              dup2\n              0xffffffffffffffffffffffffffffffffffffffff\n              mul\n              not\n              and\n              swap1\n              dup4\n              0xffffffffffffffffffffffffffffffffffffffff\n              and\n              mul\n              or\n              swap1\n              sstore\n              pop\n                /* \"Campaign.sol\":3286:3287  0 */\n              0x00\n                /* \"Campaign.sol\":3265:3268  req */\n              dup2\n                /* \"Campaign.sol\":3265:3283  req.approvalsCount */\n              0x04\n              add\n                /* \"Campaign.sol\":3265:3287  req.approvalsCount=  0 */\n              dup2\n              swap1\n              sstore\n              pop\n                /* \"Campaign.sol\":3321:3338  requiredApprovals */\n              dup3\n                /* \"Campaign.sol\":3297:3300  req */\n              dup2\n                /* \"Campaign.sol\":3297:3318  req.requiredApprovals */\n              0x05\n              add\n                /* \"Campaign.sol\":3297:3338  req.requiredApprovals = requiredApprovals */\n              dup2\n              swap1\n              sstore\n              pop\n                /* \"Campaign.sol\":3362:3367  false */\n              0x00\n                /* \"Campaign.sol\":3348:3351  req */\n              dup2\n                /* \"Campaign.sol\":3348:3360  req.complete */\n              0x06\n              add\n              0x01\n                /* \"Campaign.sol\":3348:3367  req.complete= false */\n              0x0100\n              exp\n              dup2\n              sload\n              dup2\n              0xff\n              mul\n              not\n              and\n              swap1\n              dup4\n              iszero\n              iszero\n              mul\n              or\n              swap1\n              sstore\n              pop\n                /* \"Campaign.sol\":2793:3374  {... */\n              pop\n                /* \"Campaign.sol\":2631:3374  function triggerCampaignRequest(string memory name, string memory description, uint amount, uint requiredApprovals, address payable receiver) restricted external {... */\n              pop\n              pop\n              pop\n              pop\n              pop\n              jump\t// out\n                /* \"Campaign.sol\":2063:2156  function getContributors() external view returns(uint){... */\n            tag_49:\n                /* \"Campaign.sol\":2112:2116  uint */\n              0x00\n                /* \"Campaign.sol\":2134:2149  _approversCount */\n              sload(0x03)\n                /* \"Campaign.sol\":2127:2149  return _approversCount */\n              swap1\n              pop\n                /* \"Campaign.sol\":2063:2156  function getContributors() external view returns(uint){... */\n              swap1\n              jump\t// out\n                /* \"Campaign.sol\":1858:1948  function getManager() external view returns (address)... */\n            tag_53:\n                /* \"Campaign.sol\":1903:1910  address */\n              0x00\n                /* \"Campaign.sol\":1933:1941  _manager */\n              0x01\n              0x00\n              swap1\n              sload\n              swap1\n              0x0100\n              exp\n              swap1\n              div\n              0xffffffffffffffffffffffffffffffffffffffff\n              and\n                /* \"Campaign.sol\":1926:1941  return _manager */\n              swap1\n              pop\n                /* \"Campaign.sol\":1858:1948  function getManager() external view returns (address)... */\n              swap1\n              jump\t// out\n                /* \"Campaign.sol\":2392:2625  function contribute() public payable{... */\n            tag_57:\n                /* \"Campaign.sol\":2469:2489  _minimumContribution */\n              sload(0x04)\n                /* \"Campaign.sol\":2458:2465  1 ether */\n              0x0de0b6b3a7640000\n                /* \"Campaign.sol\":2446:2455  msg.value */\n              callvalue\n                /* \"Campaign.sol\":2446:2465  msg.value / 1 ether */\n              tag_119\n              swap2\n              swap1\n              tag_101\n              jump\t// in\n            tag_119:\n                /* \"Campaign.sol\":2446:2489  msg.value / 1 ether >= _minimumContribution */\n              lt\n              iszero\n                /* \"Campaign.sol\":2438:2490  require(msg.value / 1 ether >= _minimumContribution) */\n              tag_120\n              jumpi\n              0x00\n              dup1\n              revert\n            tag_120:\n                /* \"Campaign.sol\":2533:2534  0 */\n              0x00\n                /* \"Campaign.sol\":2508:2517  approvers */\n              0x02\n                /* \"Campaign.sol\":2508:2529  approvers[msg.sender] */\n              0x00\n                /* \"Campaign.sol\":2518:2528  msg.sender */\n              caller\n                /* \"Campaign.sol\":2508:2529  approvers[msg.sender] */\n              0xffffffffffffffffffffffffffffffffffffffff\n              and\n              0xffffffffffffffffffffffffffffffffffffffff\n              and\n              dup2\n              mstore\n              0x20\n              add\n              swap1\n              dup2\n              mstore\n              0x20\n              add\n              0x00\n              keccak256\n              sload\n                /* \"Campaign.sol\":2508:2534  approvers[msg.sender] == 0 */\n              eq\n                /* \"Campaign.sol\":2500:2535  require(approvers[msg.sender] == 0) */\n              tag_121\n              jumpi\n              0x00\n              dup1\n              revert\n            tag_121:\n                /* \"Campaign.sol\":2582:2589  1 ether */\n              0x0de0b6b3a7640000\n                /* \"Campaign.sol\":2570:2579  msg.value */\n              callvalue\n                /* \"Campaign.sol\":2570:2589  msg.value / 1 ether */\n              tag_122\n              swap2\n              swap1\n              tag_101\n              jump\t// in\n            tag_122:\n                /* \"Campaign.sol\":2545:2554  approvers */\n              0x02\n                /* \"Campaign.sol\":2545:2566  approvers[msg.sender] */\n              0x00\n                /* \"Campaign.sol\":2555:2565  msg.sender */\n              caller\n                /* \"Campaign.sol\":2545:2566  approvers[msg.sender] */\n              0xffffffffffffffffffffffffffffffffffffffff\n              and\n              0xffffffffffffffffffffffffffffffffffffffff\n              and\n              dup2\n              mstore\n              0x20\n              add\n              swap1\n              dup2\n              mstore\n              0x20\n              add\n              0x00\n              keccak256\n                /* \"Campaign.sol\":2545:2590  approvers[msg.sender] = (msg.value / 1 ether) */\n              dup2\n              swap1\n              sstore\n              pop\n                /* \"Campaign.sol\":2600:2615  _approversCount */\n              0x03\n              0x00\n                /* \"Campaign.sol\":2600:2617  _approversCount++ */\n              dup2\n              sload\n              dup1\n              swap3\n              swap2\n              swap1\n              tag_123\n              swap1\n              tag_87\n              jump\t// in\n            tag_123:\n              swap2\n              swap1\n              pop\n              sstore\n              pop\n                /* \"Campaign.sol\":2392:2625  function contribute() public payable{... */\n              jump\t// out\n                /* \"Campaign.sol\":4157:4586  function submitRequest(string memory reqName) restricted external {... */\n            tag_61:\n                /* \"Campaign.sol\":4646:4654  _manager */\n              0x01\n              0x00\n              swap1\n              sload\n              swap1\n              0x0100\n              exp\n              swap1\n              div\n              0xffffffffffffffffffffffffffffffffffffffff\n              and\n                /* \"Campaign.sol\":4632:4654  msg.sender == _manager */\n              0xffffffffffffffffffffffffffffffffffffffff\n              and\n                /* \"Campaign.sol\":4632:4642  msg.sender */\n              caller\n                /* \"Campaign.sol\":4632:4654  msg.sender == _manager */\n              0xffffffffffffffffffffffffffffffffffffffff\n              and\n              eq\n                /* \"Campaign.sol\":4624:4655  require(msg.sender == _manager) */\n              tag_125\n              jumpi\n              0x00\n              dup1\n              revert\n            tag_125:\n                /* \"Campaign.sol\":4233:4252  Request storage req */\n              0x00\n                /* \"Campaign.sol\":4255:4263  requests */\n              0x05\n                /* \"Campaign.sol\":4264:4271  reqName */\n              dup3\n                /* \"Campaign.sol\":4255:4272  requests[reqName] */\n              mload(0x40)\n              tag_127\n              swap2\n              swap1\n              tag_76\n              jump\t// in\n            tag_127:\n              swap1\n              dup2\n              mstore\n              0x20\n              add\n              mload(0x40)\n              dup1\n              swap2\n              sub\n              swap1\n              keccak256\n                /* \"Campaign.sol\":4233:4272  Request storage req = requests[reqName] */\n              swap1\n              pop\n                /* \"Campaign.sol\":4315:4316  0 */\n              0x00\n                /* \"Campaign.sol\":4296:4299  req */\n              dup2\n                /* \"Campaign.sol\":4296:4304  req.name */\n              0x00\n              add\n                /* \"Campaign.sol\":4290:4312  bytes(req.name).length */\n              dup1\n              sload\n              tag_128\n              swap1\n              tag_68\n              jump\t// in\n            tag_128:\n              swap1\n              pop\n                /* \"Campaign.sol\":4290:4316  bytes(req.name).length > 0 */\n              gt\n                /* \"Campaign.sol\":4282:4317  require(bytes(req.name).length > 0) */\n              tag_129\n              jumpi\n              0x00\n              dup1\n              revert\n            tag_129:\n                /* \"Campaign.sol\":4367:4374  reqName */\n              dup2\n                /* \"Campaign.sol\":4361:4382  bytes(reqName).length */\n              mload\n                /* \"Campaign.sol\":4341:4344  req */\n              dup2\n                /* \"Campaign.sol\":4341:4349  req.name */\n              0x00\n              add\n                /* \"Campaign.sol\":4335:4357  bytes(req.name).length */\n              dup1\n              sload\n              tag_130\n              swap1\n              tag_68\n              jump\t// in\n            tag_130:\n              swap1\n              pop\n                /* \"Campaign.sol\":4335:4382  bytes(req.name).length == bytes(reqName).length */\n              eq\n                /* \"Campaign.sol\":4327:4383  require(bytes(req.name).length == bytes(reqName).length) */\n              tag_131\n              jumpi\n              0x00\n              dup1\n              revert\n            tag_131:\n                /* \"Campaign.sol\":4401:4404  req */\n              dup1\n                /* \"Campaign.sol\":4401:4414  req.canSubmit */\n              0x06\n              add\n              0x00\n              swap1\n              sload\n              swap1\n              0x0100\n              exp\n              swap1\n              div\n              0xff\n              and\n                /* \"Campaign.sol\":4401:4431  req.canSubmit && !req.complete */\n              dup1\n              iszero\n              tag_132\n              jumpi\n              pop\n                /* \"Campaign.sol\":4419:4422  req */\n              dup1\n                /* \"Campaign.sol\":4419:4431  req.complete */\n              0x06\n              add\n              0x01\n              swap1\n              sload\n              swap1\n              0x0100\n              exp\n              swap1\n              div\n              0xff\n              and\n                /* \"Campaign.sol\":4418:4431  !req.complete */\n              iszero\n                /* \"Campaign.sol\":4401:4431  req.canSubmit && !req.complete */\n            tag_132:\n                /* \"Campaign.sol\":4393:4432  require(req.canSubmit && !req.complete) */\n              tag_133\n              jumpi\n              0x00\n              dup1\n              revert\n            tag_133:\n                /* \"Campaign.sol\":4485:4488  req */\n              dup1\n                /* \"Campaign.sol\":4485:4495  req.amount */\n              0x02\n              add\n              sload\n                /* \"Campaign.sol\":4474:4481  1 ether */\n              0x0de0b6b3a7640000\n                /* \"Campaign.sol\":4450:4471  address(this).balance */\n              selfbalance\n                /* \"Campaign.sol\":4450:4481  address(this).balance / 1 ether */\n              tag_134\n              swap2\n              swap1\n              tag_101\n              jump\t// in\n            tag_134:\n                /* \"Campaign.sol\":4450:4495  address(this).balance / 1 ether >= req.amount */\n              lt\n              iszero\n                /* \"Campaign.sol\":4442:4496  require(address(this).balance / 1 ether >= req.amount) */\n              tag_135\n              jumpi\n              0x00\n              dup1\n              revert\n            tag_135:\n                /* \"Campaign.sol\":4506:4509  req */\n              dup1\n                /* \"Campaign.sol\":4506:4518  req.receiver */\n              0x03\n              add\n              0x00\n              swap1\n              sload\n              swap1\n              0x0100\n              exp\n              swap1\n              div\n              0xffffffffffffffffffffffffffffffffffffffff\n              and\n                /* \"Campaign.sol\":4506:4527  req.receiver.transfer */\n              0xffffffffffffffffffffffffffffffffffffffff\n              and\n                /* \"Campaign.sol\":4506:4549  req.receiver.transfer(req.amount * 1 ether) */\n              0x08fc\n                /* \"Campaign.sol\":4541:4548  1 ether */\n              0x0de0b6b3a7640000\n                /* \"Campaign.sol\":4528:4531  req */\n              dup4\n                /* \"Campaign.sol\":4528:4538  req.amount */\n              0x02\n              add\n              sload\n                /* \"Campaign.sol\":4528:4548  req.amount * 1 ether */\n              tag_136\n              swap2\n              swap1\n              tag_137\n              jump\t// in\n            tag_136:\n                /* \"Campaign.sol\":4506:4549  req.receiver.transfer(req.amount * 1 ether) */\n              swap1\n              dup2\n              iszero\n              mul\n              swap1\n              mload(0x40)\n              0x00\n              mload(0x40)\n              dup1\n              dup4\n              sub\n              dup2\n              dup6\n              dup9\n              dup9\n              call\n              swap4\n              pop\n              pop\n              pop\n              pop\n              iszero\n              dup1\n              iszero\n              tag_139\n              jumpi\n              returndatasize\n              0x00\n              dup1\n              returndatacopy\n              revert(0x00, returndatasize)\n            tag_139:\n              pop\n                /* \"Campaign.sol\":4575:4579  true */\n              0x01\n                /* \"Campaign.sol\":4560:4563  req */\n              dup2\n                /* \"Campaign.sol\":4560:4572  req.complete */\n              0x06\n              add\n              0x01\n                /* \"Campaign.sol\":4560:4579  req.complete = true */\n              0x0100\n              exp\n              dup2\n              sload\n              dup2\n              0xff\n              mul\n              not\n              and\n              swap1\n              dup4\n              iszero\n              iszero\n              mul\n              or\n              swap1\n              sstore\n              pop\n                /* \"Campaign.sol\":4223:4586  {... */\n              pop\n                /* \"Campaign.sol\":4157:4586  function submitRequest(string memory reqName) restricted external {... */\n              pop\n              jump\t// out\n                /* \"Campaign.sol\":2161:2266  function getMinimumContribution() external view returns(uint){... */\n            tag_64:\n                /* \"Campaign.sol\":2217:2221  uint */\n              0x00\n                /* \"Campaign.sol\":2239:2259  _minimumContribution */\n              sload(0x04)\n                /* \"Campaign.sol\":2232:2259  return _minimumContribution */\n              swap1\n              pop\n                /* \"Campaign.sol\":2161:2266  function getMinimumContribution() external view returns(uint){... */\n              swap1\n              jump\t// out\n                /* \"#utility.yul\":7:82   */\n            tag_141:\n                /* \"#utility.yul\":40:46   */\n              0x00\n                /* \"#utility.yul\":73:75   */\n              0x40\n                /* \"#utility.yul\":67:76   */\n              mload\n                /* \"#utility.yul\":57:76   */\n              swap1\n              pop\n                /* \"#utility.yul\":7:82   */\n              swap1\n              jump\t// out\n                /* \"#utility.yul\":88:205   */\n            tag_142:\n                /* \"#utility.yul\":197:198   */\n              0x00\n                /* \"#utility.yul\":194:195   */\n              dup1\n                /* \"#utility.yul\":187:199   */\n              revert\n                /* \"#utility.yul\":211:328   */\n            tag_143:\n                /* \"#utility.yul\":320:321   */\n              0x00\n                /* \"#utility.yul\":317:318   */\n              dup1\n                /* \"#utility.yul\":310:322   */\n              revert\n                /* \"#utility.yul\":334:460   */\n            tag_144:\n                /* \"#utility.yul\":371:378   */\n              0x00\n                /* \"#utility.yul\":411:453   */\n              0xffffffffffffffffffffffffffffffffffffffff\n                /* \"#utility.yul\":404:409   */\n              dup3\n                /* \"#utility.yul\":400:454   */\n              and\n                /* \"#utility.yul\":389:454   */\n              swap1\n              pop\n                /* \"#utility.yul\":334:460   */\n              swap2\n              swap1\n              pop\n              jump\t// out\n                /* \"#utility.yul\":466:562   */\n            tag_145:\n                /* \"#utility.yul\":503:510   */\n              0x00\n                /* \"#utility.yul\":532:556   */\n              tag_201\n                /* \"#utility.yul\":550:555   */\n              dup3\n                /* \"#utility.yul\":532:556   */\n              tag_144\n              jump\t// in\n            tag_201:\n                /* \"#utility.yul\":521:556   */\n              swap1\n              pop\n                /* \"#utility.yul\":466:562   */\n              swap2\n              swap1\n              pop\n              jump\t// out\n                /* \"#utility.yul\":568:690   */\n            tag_146:\n                /* \"#utility.yul\":641:665   */\n              tag_203\n                /* \"#utility.yul\":659:664   */\n              dup2\n                /* \"#utility.yul\":641:665   */\n              tag_145\n              jump\t// in\n            tag_203:\n                /* \"#utility.yul\":634:639   */\n              dup2\n                /* \"#utility.yul\":631:666   */\n              eq\n                /* \"#utility.yul\":621:684   */\n              tag_204\n              jumpi\n                /* \"#utility.yul\":680:681   */\n              0x00\n                /* \"#utility.yul\":677:678   */\n              dup1\n                /* \"#utility.yul\":670:682   */\n              revert\n                /* \"#utility.yul\":621:684   */\n            tag_204:\n                /* \"#utility.yul\":568:690   */\n              pop\n              jump\t// out\n                /* \"#utility.yul\":696:835   */\n            tag_147:\n                /* \"#utility.yul\":742:747   */\n              0x00\n                /* \"#utility.yul\":780:786   */\n              dup2\n                /* \"#utility.yul\":767:787   */\n              calldataload\n                /* \"#utility.yul\":758:787   */\n              swap1\n              pop\n                /* \"#utility.yul\":796:829   */\n              tag_206\n                /* \"#utility.yul\":823:828   */\n              dup2\n                /* \"#utility.yul\":796:829   */\n              tag_146\n              jump\t// in\n            tag_206:\n                /* \"#utility.yul\":696:835   */\n              swap3\n              swap2\n              pop\n              pop\n              jump\t// out\n                /* \"#utility.yul\":841:1170   */\n            tag_17:\n                /* \"#utility.yul\":900:906   */\n              0x00\n                /* \"#utility.yul\":949:951   */\n              0x20\n                /* \"#utility.yul\":937:946   */\n              dup3\n                /* \"#utility.yul\":928:935   */\n              dup5\n                /* \"#utility.yul\":924:947   */\n              sub\n                /* \"#utility.yul\":920:952   */\n              slt\n                /* \"#utility.yul\":917:1036   */\n              iszero\n              tag_208\n              jumpi\n                /* \"#utility.yul\":955:1034   */\n              tag_209\n              tag_142\n              jump\t// in\n            tag_209:\n                /* \"#utility.yul\":917:1036   */\n            tag_208:\n                /* \"#utility.yul\":1075:1076   */\n              0x00\n                /* \"#utility.yul\":1100:1153   */\n              tag_210\n                /* \"#utility.yul\":1145:1152   */\n              dup5\n                /* \"#utility.yul\":1136:1142   */\n              dup3\n                /* \"#utility.yul\":1125:1134   */\n              dup6\n                /* \"#utility.yul\":1121:1143   */\n              add\n                /* \"#utility.yul\":1100:1153   */\n              tag_147\n              jump\t// in\n            tag_210:\n                /* \"#utility.yul\":1090:1153   */\n              swap2\n              pop\n                /* \"#utility.yul\":1046:1163   */\n              pop\n                /* \"#utility.yul\":841:1170   */\n              swap3\n              swap2\n              pop\n              pop\n              jump\t// out\n                /* \"#utility.yul\":1176:1253   */\n            tag_148:\n                /* \"#utility.yul\":1213:1220   */\n              0x00\n                /* \"#utility.yul\":1242:1247   */\n              dup2\n                /* \"#utility.yul\":1231:1247   */\n              swap1\n              pop\n                /* \"#utility.yul\":1176:1253   */\n              swap2\n              swap1\n              pop\n              jump\t// out\n                /* \"#utility.yul\":1259:1377   */\n            tag_149:\n                /* \"#utility.yul\":1346:1370   */\n              tag_213\n                /* \"#utility.yul\":1364:1369   */\n              dup2\n                /* \"#utility.yul\":1346:1370   */\n              tag_148\n              jump\t// in\n            tag_213:\n                /* \"#utility.yul\":1341:1344   */\n              dup3\n                /* \"#utility.yul\":1334:1371   */\n              mstore\n                /* \"#utility.yul\":1259:1377   */\n              pop\n              pop\n              jump\t// out\n                /* \"#utility.yul\":1383:1605   */\n            tag_20:\n                /* \"#utility.yul\":1476:1480   */\n              0x00\n                /* \"#utility.yul\":1514:1516   */\n              0x20\n                /* \"#utility.yul\":1503:1512   */\n              dup3\n                /* \"#utility.yul\":1499:1517   */\n              add\n                /* \"#utility.yul\":1491:1517   */\n              swap1\n              pop\n                /* \"#utility.yul\":1527:1598   */\n              tag_215\n                /* \"#utility.yul\":1595:1596   */\n              0x00\n                /* \"#utility.yul\":1584:1593   */\n              dup4\n                /* \"#utility.yul\":1580:1597   */\n              add\n                /* \"#utility.yul\":1571:1577   */\n              dup5\n                /* \"#utility.yul\":1527:1598   */\n              tag_149\n              jump\t// in\n            tag_215:\n                /* \"#utility.yul\":1383:1605   */\n              swap3\n              swap2\n              pop\n              pop\n              jump\t// out\n                /* \"#utility.yul\":1611:1710   */\n            tag_150:\n                /* \"#utility.yul\":1663:1669   */\n              0x00\n                /* \"#utility.yul\":1697:1702   */\n              dup2\n                /* \"#utility.yul\":1691:1703   */\n              mload\n                /* \"#utility.yul\":1681:1703   */\n              swap1\n              pop\n                /* \"#utility.yul\":1611:1710   */\n              swap2\n              swap1\n              pop\n              jump\t// out\n                /* \"#utility.yul\":1716:1885   */\n            tag_151:\n                /* \"#utility.yul\":1800:1811   */\n              0x00\n                /* \"#utility.yul\":1834:1840   */\n              dup3\n                /* \"#utility.yul\":1829:1832   */\n              dup3\n                /* \"#utility.yul\":1822:1841   */\n              mstore\n                /* \"#utility.yul\":1874:1878   */\n              0x20\n                /* \"#utility.yul\":1869:1872   */\n              dup3\n                /* \"#utility.yul\":1865:1879   */\n              add\n                /* \"#utility.yul\":1850:1879   */\n              swap1\n              pop\n                /* \"#utility.yul\":1716:1885   */\n              swap3\n              swap2\n              pop\n              pop\n              jump\t// out\n                /* \"#utility.yul\":1891:2137   */\n            tag_152:\n                /* \"#utility.yul\":1972:1973   */\n              0x00\n                /* \"#utility.yul\":1982:2095   */\n            tag_219:\n                /* \"#utility.yul\":1996:2002   */\n              dup4\n                /* \"#utility.yul\":1993:1994   */\n              dup2\n                /* \"#utility.yul\":1990:2003   */\n              lt\n                /* \"#utility.yul\":1982:2095   */\n              iszero\n              tag_221\n              jumpi\n                /* \"#utility.yul\":2081:2082   */\n              dup1\n                /* \"#utility.yul\":2076:2079   */\n              dup3\n                /* \"#utility.yul\":2072:2083   */\n              add\n                /* \"#utility.yul\":2066:2084   */\n              mload\n                /* \"#utility.yul\":2062:2063   */\n              dup2\n                /* \"#utility.yul\":2057:2060   */\n              dup5\n                /* \"#utility.yul\":2053:2064   */\n              add\n                /* \"#utility.yul\":2046:2085   */\n              mstore\n                /* \"#utility.yul\":2018:2020   */\n              0x20\n                /* \"#utility.yul\":2015:2016   */\n              dup2\n                /* \"#utility.yul\":2011:2021   */\n              add\n                /* \"#utility.yul\":2006:2021   */\n              swap1\n              pop\n                /* \"#utility.yul\":1982:2095   */\n              jump(tag_219)\n            tag_221:\n                /* \"#utility.yul\":2129:2130   */\n              0x00\n                /* \"#utility.yul\":2120:2126   */\n              dup5\n                /* \"#utility.yul\":2115:2118   */\n              dup5\n                /* \"#utility.yul\":2111:2127   */\n              add\n                /* \"#utility.yul\":2104:2131   */\n              mstore\n                /* \"#utility.yul\":1953:2137   */\n              pop\n                /* \"#utility.yul\":1891:2137   */\n              pop\n              pop\n              pop\n              jump\t// out\n                /* \"#utility.yul\":2143:2245   */\n            tag_153:\n                /* \"#utility.yul\":2184:2190   */\n              0x00\n                /* \"#utility.yul\":2235:2237   */\n              0x1f\n                /* \"#utility.yul\":2231:2238   */\n              not\n                /* \"#utility.yul\":2226:2228   */\n              0x1f\n                /* \"#utility.yul\":2219:2224   */\n              dup4\n                /* \"#utility.yul\":2215:2229   */\n              add\n                /* \"#utility.yul\":2211:2239   */\n              and\n                /* \"#utility.yul\":2201:2239   */\n              swap1\n              pop\n                /* \"#utility.yul\":2143:2245   */\n              swap2\n              swap1\n              pop\n              jump\t// out\n                /* \"#utility.yul\":2251:2628   */\n            tag_154:\n                /* \"#utility.yul\":2339:2342   */\n              0x00\n                /* \"#utility.yul\":2367:2406   */\n              tag_224\n                /* \"#utility.yul\":2400:2405   */\n              dup3\n                /* \"#utility.yul\":2367:2406   */\n              tag_150\n              jump\t// in\n            tag_224:\n                /* \"#utility.yul\":2422:2493   */\n              tag_225\n                /* \"#utility.yul\":2486:2492   */\n              dup2\n                /* \"#utility.yul\":2481:2484   */\n              dup6\n                /* \"#utility.yul\":2422:2493   */\n              tag_151\n              jump\t// in\n            tag_225:\n                /* \"#utility.yul\":2415:2493   */\n              swap4\n              pop\n                /* \"#utility.yul\":2502:2567   */\n              tag_226\n                /* \"#utility.yul\":2560:2566   */\n              dup2\n                /* \"#utility.yul\":2555:2558   */\n              dup6\n                /* \"#utility.yul\":2548:2552   */\n              0x20\n                /* \"#utility.yul\":2541:2546   */\n              dup7\n                /* \"#utility.yul\":2537:2553   */\n              add\n                /* \"#utility.yul\":2502:2567   */\n              tag_152\n              jump\t// in\n            tag_226:\n                /* \"#utility.yul\":2592:2621   */\n              tag_227\n                /* \"#utility.yul\":2614:2620   */\n              dup2\n                /* \"#utility.yul\":2592:2621   */\n              tag_153\n              jump\t// in\n            tag_227:\n                /* \"#utility.yul\":2587:2590   */\n              dup5\n                /* \"#utility.yul\":2583:2622   */\n              add\n                /* \"#utility.yul\":2576:2622   */\n              swap2\n              pop\n                /* \"#utility.yul\":2343:2628   */\n              pop\n                /* \"#utility.yul\":2251:2628   */\n              swap3\n              swap2\n              pop\n              pop\n              jump\t// out\n                /* \"#utility.yul\":2634:2947   */\n            tag_25:\n                /* \"#utility.yul\":2747:2751   */\n              0x00\n                /* \"#utility.yul\":2785:2787   */\n              0x20\n                /* \"#utility.yul\":2774:2783   */\n              dup3\n                /* \"#utility.yul\":2770:2788   */\n              add\n                /* \"#utility.yul\":2762:2788   */\n              swap1\n              pop\n                /* \"#utility.yul\":2834:2843   */\n              dup2\n                /* \"#utility.yul\":2828:2832   */\n              dup2\n                /* \"#utility.yul\":2824:2844   */\n              sub\n                /* \"#utility.yul\":2820:2821   */\n              0x00\n                /* \"#utility.yul\":2809:2818   */\n              dup4\n                /* \"#utility.yul\":2805:2822   */\n              add\n                /* \"#utility.yul\":2798:2845   */\n              mstore\n                /* \"#utility.yul\":2862:2940   */\n              tag_229\n                /* \"#utility.yul\":2935:2939   */\n              dup2\n                /* \"#utility.yul\":2926:2932   */\n              dup5\n                /* \"#utility.yul\":2862:2940   */\n              tag_154\n              jump\t// in\n            tag_229:\n                /* \"#utility.yul\":2854:2940   */\n              swap1\n              pop\n                /* \"#utility.yul\":2634:2947   */\n              swap3\n              swap2\n              pop\n              pop\n              jump\t// out\n                /* \"#utility.yul\":2953:3070   */\n            tag_155:\n                /* \"#utility.yul\":3062:3063   */\n              0x00\n                /* \"#utility.yul\":3059:3060   */\n              dup1\n                /* \"#utility.yul\":3052:3064   */\n              revert\n                /* \"#utility.yul\":3076:3193   */\n            tag_156:\n                /* \"#utility.yul\":3185:3186   */\n              0x00\n                /* \"#utility.yul\":3182:3183   */\n              dup1\n                /* \"#utility.yul\":3175:3187   */\n              revert\n                /* \"#utility.yul\":3199:3379   */\n            tag_157:\n                /* \"#utility.yul\":3247:3324   */\n              0x4e487b7100000000000000000000000000000000000000000000000000000000\n                /* \"#utility.yul\":3244:3245   */\n              0x00\n                /* \"#utility.yul\":3237:3325   */\n              mstore\n                /* \"#utility.yul\":3344:3348   */\n              0x41\n                /* \"#utility.yul\":3341:3342   */\n              0x04\n                /* \"#utility.yul\":3334:3349   */\n              mstore\n                /* \"#utility.yul\":3368:3372   */\n              0x24\n                /* \"#utility.yul\":3365:3366   */\n              0x00\n                /* \"#utility.yul\":3358:3373   */\n              revert\n                /* \"#utility.yul\":3385:3666   */\n            tag_158:\n                /* \"#utility.yul\":3468:3495   */\n              tag_234\n                /* \"#utility.yul\":3490:3494   */\n              dup3\n                /* \"#utility.yul\":3468:3495   */\n              tag_153\n              jump\t// in\n            tag_234:\n                /* \"#utility.yul\":3460:3466   */\n              dup2\n                /* \"#utility.yul\":3456:3496   */\n              add\n                /* \"#utility.yul\":3598:3604   */\n              dup2\n                /* \"#utility.yul\":3586:3596   */\n              dup2\n                /* \"#utility.yul\":3583:3605   */\n              lt\n                /* \"#utility.yul\":3562:3580   */\n              0xffffffffffffffff\n                /* \"#utility.yul\":3550:3560   */\n              dup3\n                /* \"#utility.yul\":3547:3581   */\n              gt\n                /* \"#utility.yul\":3544:3606   */\n              or\n                /* \"#utility.yul\":3541:3629   */\n              iszero\n              tag_235\n              jumpi\n                /* \"#utility.yul\":3609:3627   */\n              tag_236\n              tag_157\n              jump\t// in\n            tag_236:\n                /* \"#utility.yul\":3541:3629   */\n            tag_235:\n                /* \"#utility.yul\":3649:3659   */\n              dup1\n                /* \"#utility.yul\":3645:3647   */\n              0x40\n                /* \"#utility.yul\":3638:3660   */\n              mstore\n                /* \"#utility.yul\":3428:3666   */\n              pop\n                /* \"#utility.yul\":3385:3666   */\n              pop\n              pop\n              jump\t// out\n                /* \"#utility.yul\":3672:3801   */\n            tag_159:\n                /* \"#utility.yul\":3706:3712   */\n              0x00\n                /* \"#utility.yul\":3733:3753   */\n              tag_238\n              tag_141\n              jump\t// in\n            tag_238:\n                /* \"#utility.yul\":3723:3753   */\n              swap1\n              pop\n                /* \"#utility.yul\":3762:3795   */\n              tag_239\n                /* \"#utility.yul\":3790:3794   */\n              dup3\n                /* \"#utility.yul\":3782:3788   */\n              dup3\n                /* \"#utility.yul\":3762:3795   */\n              tag_158\n              jump\t// in\n            tag_239:\n                /* \"#utility.yul\":3672:3801   */\n              swap2\n              swap1\n              pop\n              jump\t// out\n                /* \"#utility.yul\":3807:4115   */\n            tag_160:\n                /* \"#utility.yul\":3869:3873   */\n              0x00\n                /* \"#utility.yul\":3959:3977   */\n              0xffffffffffffffff\n                /* \"#utility.yul\":3951:3957   */\n              dup3\n                /* \"#utility.yul\":3948:3978   */\n              gt\n                /* \"#utility.yul\":3945:4001   */\n              iszero\n              tag_241\n              jumpi\n                /* \"#utility.yul\":3981:3999   */\n              tag_242\n              tag_157\n              jump\t// in\n            tag_242:\n                /* \"#utility.yul\":3945:4001   */\n            tag_241:\n                /* \"#utility.yul\":4019:4048   */\n              tag_243\n                /* \"#utility.yul\":4041:4047   */\n              dup3\n                /* \"#utility.yul\":4019:4048   */\n              tag_153\n              jump\t// in\n            tag_243:\n                /* \"#utility.yul\":4011:4048   */\n              swap1\n              pop\n                /* \"#utility.yul\":4103:4107   */\n              0x20\n                /* \"#utility.yul\":4097:4101   */\n              dup2\n                /* \"#utility.yul\":4093:4108   */\n              add\n                /* \"#utility.yul\":4085:4108   */\n              swap1\n              pop\n                /* \"#utility.yul\":3807:4115   */\n              swap2\n              swap1\n              pop\n              jump\t// out\n                /* \"#utility.yul\":4121:4267   */\n            tag_161:\n                /* \"#utility.yul\":4218:4224   */\n              dup3\n                /* \"#utility.yul\":4213:4216   */\n              dup2\n                /* \"#utility.yul\":4208:4211   */\n              dup4\n                /* \"#utility.yul\":4195:4225   */\n              calldatacopy\n                /* \"#utility.yul\":4259:4260   */\n              0x00\n                /* \"#utility.yul\":4250:4256   */\n              dup4\n                /* \"#utility.yul\":4245:4248   */\n              dup4\n                /* \"#utility.yul\":4241:4257   */\n              add\n                /* \"#utility.yul\":4234:4261   */\n              mstore\n                /* \"#utility.yul\":4121:4267   */\n              pop\n              pop\n              pop\n              jump\t// out\n                /* \"#utility.yul\":4273:4698   */\n            tag_162:\n                /* \"#utility.yul\":4351:4356   */\n              0x00\n                /* \"#utility.yul\":4376:4442   */\n              tag_246\n                /* \"#utility.yul\":4392:4441   */\n              tag_247\n                /* \"#utility.yul\":4434:4440   */\n              dup5\n                /* \"#utility.yul\":4392:4441   */\n              tag_160\n              jump\t// in\n            tag_247:\n                /* \"#utility.yul\":4376:4442   */\n              tag_159\n              jump\t// in\n            tag_246:\n                /* \"#utility.yul\":4367:4442   */\n              swap1\n              pop\n                /* \"#utility.yul\":4465:4471   */\n              dup3\n                /* \"#utility.yul\":4458:4463   */\n              dup2\n                /* \"#utility.yul\":4451:4472   */\n              mstore\n                /* \"#utility.yul\":4503:4507   */\n              0x20\n                /* \"#utility.yul\":4496:4501   */\n              dup2\n                /* \"#utility.yul\":4492:4508   */\n              add\n                /* \"#utility.yul\":4541:4544   */\n              dup5\n                /* \"#utility.yul\":4532:4538   */\n              dup5\n                /* \"#utility.yul\":4527:4530   */\n              dup5\n                /* \"#utility.yul\":4523:4539   */\n              add\n                /* \"#utility.yul\":4520:4545   */\n              gt\n                /* \"#utility.yul\":4517:4629   */\n              iszero\n              tag_248\n              jumpi\n                /* \"#utility.yul\":4548:4627   */\n              tag_249\n              tag_156\n              jump\t// in\n            tag_249:\n                /* \"#utility.yul\":4517:4629   */\n            tag_248:\n                /* \"#utility.yul\":4638:4692   */\n              tag_250\n                /* \"#utility.yul\":4685:4691   */\n              dup5\n                /* \"#utility.yul\":4680:4683   */\n              dup3\n                /* \"#utility.yul\":4675:4678   */\n              dup6\n                /* \"#utility.yul\":4638:4692   */\n              tag_161\n              jump\t// in\n            tag_250:\n                /* \"#utility.yul\":4357:4698   */\n              pop\n                /* \"#utility.yul\":4273:4698   */\n              swap4\n              swap3\n              pop\n              pop\n              pop\n              jump\t// out\n                /* \"#utility.yul\":4718:5058   */\n            tag_163:\n                /* \"#utility.yul\":4774:4779   */\n              0x00\n                /* \"#utility.yul\":4823:4826   */\n              dup3\n                /* \"#utility.yul\":4816:4820   */\n              0x1f\n                /* \"#utility.yul\":4808:4814   */\n              dup4\n                /* \"#utility.yul\":4804:4821   */\n              add\n                /* \"#utility.yul\":4800:4827   */\n              slt\n                /* \"#utility.yul\":4790:4912   */\n              tag_252\n              jumpi\n                /* \"#utility.yul\":4831:4910   */\n              tag_253\n              tag_155\n              jump\t// in\n            tag_253:\n                /* \"#utility.yul\":4790:4912   */\n            tag_252:\n                /* \"#utility.yul\":4948:4954   */\n              dup2\n                /* \"#utility.yul\":4935:4955   */\n              calldataload\n                /* \"#utility.yul\":4973:5052   */\n              tag_254\n                /* \"#utility.yul\":5048:5051   */\n              dup5\n                /* \"#utility.yul\":5040:5046   */\n              dup3\n                /* \"#utility.yul\":5033:5037   */\n              0x20\n                /* \"#utility.yul\":5025:5031   */\n              dup7\n                /* \"#utility.yul\":5021:5038   */\n              add\n                /* \"#utility.yul\":4973:5052   */\n              tag_162\n              jump\t// in\n            tag_254:\n                /* \"#utility.yul\":4964:5052   */\n              swap2\n              pop\n                /* \"#utility.yul\":4780:5058   */\n              pop\n                /* \"#utility.yul\":4718:5058   */\n              swap3\n              swap2\n              pop\n              pop\n              jump\t// out\n                /* \"#utility.yul\":5064:5154   */\n            tag_164:\n                /* \"#utility.yul\":5098:5105   */\n              0x00\n                /* \"#utility.yul\":5141:5146   */\n              dup2\n                /* \"#utility.yul\":5134:5147   */\n              iszero\n                /* \"#utility.yul\":5127:5148   */\n              iszero\n                /* \"#utility.yul\":5116:5148   */\n              swap1\n              pop\n                /* \"#utility.yul\":5064:5154   */\n              swap2\n              swap1\n              pop\n              jump\t// out\n                /* \"#utility.yul\":5160:5276   */\n            tag_165:\n                /* \"#utility.yul\":5230:5251   */\n              tag_257\n                /* \"#utility.yul\":5245:5250   */\n              dup2\n                /* \"#utility.yul\":5230:5251   */\n              tag_164\n              jump\t// in\n            tag_257:\n                /* \"#utility.yul\":5223:5228   */\n              dup2\n                /* \"#utility.yul\":5220:5252   */\n              eq\n                /* \"#utility.yul\":5210:5270   */\n              tag_258\n              jumpi\n                /* \"#utility.yul\":5266:5267   */\n              0x00\n                /* \"#utility.yul\":5263:5264   */\n              dup1\n                /* \"#utility.yul\":5256:5268   */\n              revert\n                /* \"#utility.yul\":5210:5270   */\n            tag_258:\n                /* \"#utility.yul\":5160:5276   */\n              pop\n              jump\t// out\n                /* \"#utility.yul\":5282:5415   */\n            tag_166:\n                /* \"#utility.yul\":5325:5330   */\n              0x00\n                /* \"#utility.yul\":5363:5369   */\n              dup2\n                /* \"#utility.yul\":5350:5370   */\n              calldataload\n                /* \"#utility.yul\":5341:5370   */\n              swap1\n              pop\n                /* \"#utility.yul\":5379:5409   */\n              tag_260\n                /* \"#utility.yul\":5403:5408   */\n              dup2\n                /* \"#utility.yul\":5379:5409   */\n              tag_165\n              jump\t// in\n            tag_260:\n                /* \"#utility.yul\":5282:5415   */\n              swap3\n              swap2\n              pop\n              pop\n              jump\t// out\n                /* \"#utility.yul\":5421:6069   */\n            tag_29:\n                /* \"#utility.yul\":5496:5502   */\n              0x00\n                /* \"#utility.yul\":5504:5510   */\n              dup1\n                /* \"#utility.yul\":5553:5555   */\n              0x40\n                /* \"#utility.yul\":5541:5550   */\n              dup4\n                /* \"#utility.yul\":5532:5539   */\n              dup6\n                /* \"#utility.yul\":5528:5551   */\n              sub\n                /* \"#utility.yul\":5524:5556   */\n              slt\n                /* \"#utility.yul\":5521:5640   */\n              iszero\n              tag_262\n              jumpi\n                /* \"#utility.yul\":5559:5638   */\n              tag_263\n              tag_142\n              jump\t// in\n            tag_263:\n                /* \"#utility.yul\":5521:5640   */\n            tag_262:\n                /* \"#utility.yul\":5707:5708   */\n              0x00\n                /* \"#utility.yul\":5696:5705   */\n              dup4\n                /* \"#utility.yul\":5692:5709   */\n              add\n                /* \"#utility.yul\":5679:5710   */\n              calldataload\n                /* \"#utility.yul\":5737:5755   */\n              0xffffffffffffffff\n                /* \"#utility.yul\":5729:5735   */\n              dup2\n                /* \"#utility.yul\":5726:5756   */\n              gt\n                /* \"#utility.yul\":5723:5840   */\n              iszero\n              tag_264\n              jumpi\n                /* \"#utility.yul\":5759:5838   */\n              tag_265\n              tag_143\n              jump\t// in\n            tag_265:\n                /* \"#utility.yul\":5723:5840   */\n            tag_264:\n                /* \"#utility.yul\":5864:5927   */\n              tag_266\n                /* \"#utility.yul\":5919:5926   */\n              dup6\n                /* \"#utility.yul\":5910:5916   */\n              dup3\n                /* \"#utility.yul\":5899:5908   */\n              dup7\n                /* \"#utility.yul\":5895:5917   */\n              add\n                /* \"#utility.yul\":5864:5927   */\n              tag_163\n              jump\t// in\n            tag_266:\n                /* \"#utility.yul\":5854:5927   */\n              swap3\n              pop\n                /* \"#utility.yul\":5650:5937   */\n              pop\n                /* \"#utility.yul\":5976:5978   */\n              0x20\n                /* \"#utility.yul\":6002:6052   */\n              tag_267\n                /* \"#utility.yul\":6044:6051   */\n              dup6\n                /* \"#utility.yul\":6035:6041   */\n              dup3\n                /* \"#utility.yul\":6024:6033   */\n              dup7\n                /* \"#utility.yul\":6020:6042   */\n              add\n                /* \"#utility.yul\":6002:6052   */\n              tag_166\n              jump\t// in\n            tag_267:\n                /* \"#utility.yul\":5992:6052   */\n              swap2\n              pop\n                /* \"#utility.yul\":5947:6062   */\n              pop\n                /* \"#utility.yul\":5421:6069   */\n              swap3\n              pop\n              swap3\n              swap1\n              pop\n              jump\t// out\n                /* \"#utility.yul\":6075:6584   */\n            tag_34:\n                /* \"#utility.yul\":6144:6150   */\n              0x00\n                /* \"#utility.yul\":6193:6195   */\n              0x20\n                /* \"#utility.yul\":6181:6190   */\n              dup3\n                /* \"#utility.yul\":6172:6179   */\n              dup5\n                /* \"#utility.yul\":6168:6191   */\n              sub\n                /* \"#utility.yul\":6164:6196   */\n              slt\n                /* \"#utility.yul\":6161:6280   */\n              iszero\n              tag_269\n              jumpi\n                /* \"#utility.yul\":6199:6278   */\n              tag_270\n              tag_142\n              jump\t// in\n            tag_270:\n                /* \"#utility.yul\":6161:6280   */\n            tag_269:\n                /* \"#utility.yul\":6347:6348   */\n              0x00\n                /* \"#utility.yul\":6336:6345   */\n              dup3\n                /* \"#utility.yul\":6332:6349   */\n              add\n                /* \"#utility.yul\":6319:6350   */\n              calldataload\n                /* \"#utility.yul\":6377:6395   */\n              0xffffffffffffffff\n                /* \"#utility.yul\":6369:6375   */\n              dup2\n                /* \"#utility.yul\":6366:6396   */\n              gt\n                /* \"#utility.yul\":6363:6480   */\n              iszero\n              tag_271\n              jumpi\n                /* \"#utility.yul\":6399:6478   */\n              tag_272\n              tag_143\n              jump\t// in\n            tag_272:\n                /* \"#utility.yul\":6363:6480   */\n            tag_271:\n                /* \"#utility.yul\":6504:6567   */\n              tag_273\n                /* \"#utility.yul\":6559:6566   */\n              dup5\n                /* \"#utility.yul\":6550:6556   */\n              dup3\n                /* \"#utility.yul\":6539:6548   */\n              dup6\n                /* \"#utility.yul\":6535:6557   */\n              add\n                /* \"#utility.yul\":6504:6567   */\n              tag_163\n              jump\t// in\n            tag_273:\n                /* \"#utility.yul\":6494:6567   */\n              swap2\n              pop\n                /* \"#utility.yul\":6290:6577   */\n              pop\n                /* \"#utility.yul\":6075:6584   */\n              swap3\n              swap2\n              pop\n              pop\n              jump\t// out\n                /* \"#utility.yul\":6590:6694   */\n            tag_167:\n                /* \"#utility.yul\":6635:6642   */\n              0x00\n                /* \"#utility.yul\":6664:6688   */\n              tag_275\n                /* \"#utility.yul\":6682:6687   */\n              dup3\n                /* \"#utility.yul\":6664:6688   */\n              tag_144\n              jump\t// in\n            tag_275:\n                /* \"#utility.yul\":6653:6688   */\n              swap1\n              pop\n                /* \"#utility.yul\":6590:6694   */\n              swap2\n              swap1\n              pop\n              jump\t// out\n                /* \"#utility.yul\":6700:6842   */\n            tag_168:\n                /* \"#utility.yul\":6803:6835   */\n              tag_277\n                /* \"#utility.yul\":6829:6834   */\n              dup2\n                /* \"#utility.yul\":6803:6835   */\n              tag_167\n              jump\t// in\n            tag_277:\n                /* \"#utility.yul\":6798:6801   */\n              dup3\n                /* \"#utility.yul\":6791:6836   */\n              mstore\n                /* \"#utility.yul\":6700:6842   */\n              pop\n              pop\n              jump\t// out\n                /* \"#utility.yul\":6848:6957   */\n            tag_169:\n                /* \"#utility.yul\":6929:6950   */\n              tag_279\n                /* \"#utility.yul\":6944:6949   */\n              dup2\n                /* \"#utility.yul\":6929:6950   */\n              tag_164\n              jump\t// in\n            tag_279:\n                /* \"#utility.yul\":6924:6927   */\n              dup3\n                /* \"#utility.yul\":6917:6951   */\n              mstore\n                /* \"#utility.yul\":6848:6957   */\n              pop\n              pop\n              jump\t// out\n                /* \"#utility.yul\":6963:8150   */\n            tag_37:\n                /* \"#utility.yul\":7296:7300   */\n              0x00\n                /* \"#utility.yul\":7334:7337   */\n              0x0100\n                /* \"#utility.yul\":7323:7332   */\n              dup3\n                /* \"#utility.yul\":7319:7338   */\n              add\n                /* \"#utility.yul\":7311:7338   */\n              swap1\n              pop\n                /* \"#utility.yul\":7384:7393   */\n              dup2\n                /* \"#utility.yul\":7378:7382   */\n              dup2\n                /* \"#utility.yul\":7374:7394   */\n              sub\n                /* \"#utility.yul\":7370:7371   */\n              0x00\n                /* \"#utility.yul\":7359:7368   */\n              dup4\n                /* \"#utility.yul\":7355:7372   */\n              add\n                /* \"#utility.yul\":7348:7395   */\n              mstore\n                /* \"#utility.yul\":7412:7490   */\n              tag_281\n                /* \"#utility.yul\":7485:7489   */\n              dup2\n                /* \"#utility.yul\":7476:7482   */\n              dup12\n                /* \"#utility.yul\":7412:7490   */\n              tag_154\n              jump\t// in\n            tag_281:\n                /* \"#utility.yul\":7404:7490   */\n              swap1\n              pop\n                /* \"#utility.yul\":7537:7546   */\n              dup2\n                /* \"#utility.yul\":7531:7535   */\n              dup2\n                /* \"#utility.yul\":7527:7547   */\n              sub\n                /* \"#utility.yul\":7522:7524   */\n              0x20\n                /* \"#utility.yul\":7511:7520   */\n              dup4\n                /* \"#utility.yul\":7507:7525   */\n              add\n                /* \"#utility.yul\":7500:7548   */\n              mstore\n                /* \"#utility.yul\":7565:7643   */\n              tag_282\n                /* \"#utility.yul\":7638:7642   */\n              dup2\n                /* \"#utility.yul\":7629:7635   */\n              dup11\n                /* \"#utility.yul\":7565:7643   */\n              tag_154\n              jump\t// in\n            tag_282:\n                /* \"#utility.yul\":7557:7643   */\n              swap1\n              pop\n                /* \"#utility.yul\":7653:7725   */\n              tag_283\n                /* \"#utility.yul\":7721:7723   */\n              0x40\n                /* \"#utility.yul\":7710:7719   */\n              dup4\n                /* \"#utility.yul\":7706:7724   */\n              add\n                /* \"#utility.yul\":7697:7703   */\n              dup10\n                /* \"#utility.yul\":7653:7725   */\n              tag_149\n              jump\t// in\n            tag_283:\n                /* \"#utility.yul\":7735:7823   */\n              tag_284\n                /* \"#utility.yul\":7819:7821   */\n              0x60\n                /* \"#utility.yul\":7808:7817   */\n              dup4\n                /* \"#utility.yul\":7804:7822   */\n              add\n                /* \"#utility.yul\":7795:7801   */\n              dup9\n                /* \"#utility.yul\":7735:7823   */\n              tag_168\n              jump\t// in\n            tag_284:\n                /* \"#utility.yul\":7833:7906   */\n              tag_285\n                /* \"#utility.yul\":7901:7904   */\n              0x80\n                /* \"#utility.yul\":7890:7899   */\n              dup4\n                /* \"#utility.yul\":7886:7905   */\n              add\n                /* \"#utility.yul\":7877:7883   */\n              dup8\n                /* \"#utility.yul\":7833:7906   */\n              tag_149\n              jump\t// in\n            tag_285:\n                /* \"#utility.yul\":7916:7989   */\n              tag_286\n                /* \"#utility.yul\":7984:7987   */\n              0xa0\n                /* \"#utility.yul\":7973:7982   */\n              dup4\n                /* \"#utility.yul\":7969:7988   */\n              add\n                /* \"#utility.yul\":7960:7966   */\n              dup7\n                /* \"#utility.yul\":7916:7989   */\n              tag_149\n              jump\t// in\n            tag_286:\n                /* \"#utility.yul\":7999:8066   */\n              tag_287\n                /* \"#utility.yul\":8061:8064   */\n              0xc0\n                /* \"#utility.yul\":8050:8059   */\n              dup4\n                /* \"#utility.yul\":8046:8065   */\n              add\n                /* \"#utility.yul\":8037:8043   */\n              dup6\n                /* \"#utility.yul\":7999:8066   */\n              tag_169\n              jump\t// in\n            tag_287:\n                /* \"#utility.yul\":8076:8143   */\n              tag_288\n                /* \"#utility.yul\":8138:8141   */\n              0xe0\n                /* \"#utility.yul\":8127:8136   */\n              dup4\n                /* \"#utility.yul\":8123:8142   */\n              add\n                /* \"#utility.yul\":8114:8120   */\n              dup5\n                /* \"#utility.yul\":8076:8143   */\n              tag_169\n              jump\t// in\n            tag_288:\n                /* \"#utility.yul\":6963:8150   */\n              swap10\n              swap9\n              pop\n              pop\n              pop\n              pop\n              pop\n              pop\n              pop\n              pop\n              pop\n              jump\t// out\n                /* \"#utility.yul\":8156:8278   */\n            tag_170:\n                /* \"#utility.yul\":8229:8253   */\n              tag_290\n                /* \"#utility.yul\":8247:8252   */\n              dup2\n                /* \"#utility.yul\":8229:8253   */\n              tag_148\n              jump\t// in\n            tag_290:\n                /* \"#utility.yul\":8222:8227   */\n              dup2\n                /* \"#utility.yul\":8219:8254   */\n              eq\n                /* \"#utility.yul\":8209:8272   */\n              tag_291\n              jumpi\n                /* \"#utility.yul\":8268:8269   */\n              0x00\n                /* \"#utility.yul\":8265:8266   */\n              dup1\n                /* \"#utility.yul\":8258:8270   */\n              revert\n                /* \"#utility.yul\":8209:8272   */\n            tag_291:\n                /* \"#utility.yul\":8156:8278   */\n              pop\n              jump\t// out\n                /* \"#utility.yul\":8284:8423   */\n            tag_171:\n                /* \"#utility.yul\":8330:8335   */\n              0x00\n                /* \"#utility.yul\":8368:8374   */\n              dup2\n                /* \"#utility.yul\":8355:8375   */\n              calldataload\n                /* \"#utility.yul\":8346:8375   */\n              swap1\n              pop\n                /* \"#utility.yul\":8384:8417   */\n              tag_293\n                /* \"#utility.yul\":8411:8416   */\n              dup2\n                /* \"#utility.yul\":8384:8417   */\n              tag_170\n              jump\t// in\n            tag_293:\n                /* \"#utility.yul\":8284:8423   */\n              swap3\n              swap2\n              pop\n              pop\n              jump\t// out\n                /* \"#utility.yul\":8429:8567   */\n            tag_172:\n                /* \"#utility.yul\":8510:8542   */\n              tag_295\n                /* \"#utility.yul\":8536:8541   */\n              dup2\n                /* \"#utility.yul\":8510:8542   */\n              tag_167\n              jump\t// in\n            tag_295:\n                /* \"#utility.yul\":8503:8508   */\n              dup2\n                /* \"#utility.yul\":8500:8543   */\n              eq\n                /* \"#utility.yul\":8490:8561   */\n              tag_296\n              jumpi\n                /* \"#utility.yul\":8557:8558   */\n              0x00\n                /* \"#utility.yul\":8554:8555   */\n              dup1\n                /* \"#utility.yul\":8547:8559   */\n              revert\n                /* \"#utility.yul\":8490:8561   */\n            tag_296:\n                /* \"#utility.yul\":8429:8567   */\n              pop\n              jump\t// out\n                /* \"#utility.yul\":8573:8728   */\n            tag_173:\n                /* \"#utility.yul\":8627:8632   */\n              0x00\n                /* \"#utility.yul\":8665:8671   */\n              dup2\n                /* \"#utility.yul\":8652:8672   */\n              calldataload\n                /* \"#utility.yul\":8643:8672   */\n              swap1\n              pop\n                /* \"#utility.yul\":8681:8722   */\n              tag_298\n                /* \"#utility.yul\":8716:8721   */\n              dup2\n                /* \"#utility.yul\":8681:8722   */\n              tag_172\n              jump\t// in\n            tag_298:\n                /* \"#utility.yul\":8573:8728   */\n              swap3\n              swap2\n              pop\n              pop\n              jump\t// out\n                /* \"#utility.yul\":8734:10021   */\n            tag_45:\n                /* \"#utility.yul\":8857:8863   */\n              0x00\n                /* \"#utility.yul\":8865:8871   */\n              dup1\n                /* \"#utility.yul\":8873:8879   */\n              0x00\n                /* \"#utility.yul\":8881:8887   */\n              dup1\n                /* \"#utility.yul\":8889:8895   */\n              0x00\n                /* \"#utility.yul\":8938:8941   */\n              0xa0\n                /* \"#utility.yul\":8926:8935   */\n              dup7\n                /* \"#utility.yul\":8917:8924   */\n              dup9\n                /* \"#utility.yul\":8913:8936   */\n              sub\n                /* \"#utility.yul\":8909:8942   */\n              slt\n                /* \"#utility.yul\":8906:9026   */\n              iszero\n              tag_300\n              jumpi\n                /* \"#utility.yul\":8945:9024   */\n              tag_301\n              tag_142\n              jump\t// in\n            tag_301:\n                /* \"#utility.yul\":8906:9026   */\n            tag_300:\n                /* \"#utility.yul\":9093:9094   */\n              0x00\n                /* \"#utility.yul\":9082:9091   */\n              dup7\n                /* \"#utility.yul\":9078:9095   */\n              add\n                /* \"#utility.yul\":9065:9096   */\n              calldataload\n                /* \"#utility.yul\":9123:9141   */\n              0xffffffffffffffff\n                /* \"#utility.yul\":9115:9121   */\n              dup2\n                /* \"#utility.yul\":9112:9142   */\n              gt\n                /* \"#utility.yul\":9109:9226   */\n              iszero\n              tag_302\n              jumpi\n                /* \"#utility.yul\":9145:9224   */\n              tag_303\n              tag_143\n              jump\t// in\n            tag_303:\n                /* \"#utility.yul\":9109:9226   */\n            tag_302:\n                /* \"#utility.yul\":9250:9313   */\n              tag_304\n                /* \"#utility.yul\":9305:9312   */\n              dup9\n                /* \"#utility.yul\":9296:9302   */\n              dup3\n                /* \"#utility.yul\":9285:9294   */\n              dup10\n                /* \"#utility.yul\":9281:9303   */\n              add\n                /* \"#utility.yul\":9250:9313   */\n              tag_163\n              jump\t// in\n            tag_304:\n                /* \"#utility.yul\":9240:9313   */\n              swap6\n              pop\n                /* \"#utility.yul\":9036:9323   */\n              pop\n                /* \"#utility.yul\":9390:9392   */\n              0x20\n                /* \"#utility.yul\":9379:9388   */\n              dup7\n                /* \"#utility.yul\":9375:9393   */\n              add\n                /* \"#utility.yul\":9362:9394   */\n              calldataload\n                /* \"#utility.yul\":9421:9439   */\n              0xffffffffffffffff\n                /* \"#utility.yul\":9413:9419   */\n              dup2\n                /* \"#utility.yul\":9410:9440   */\n              gt\n                /* \"#utility.yul\":9407:9524   */\n              iszero\n              tag_305\n              jumpi\n                /* \"#utility.yul\":9443:9522   */\n              tag_306\n              tag_143\n              jump\t// in\n            tag_306:\n                /* \"#utility.yul\":9407:9524   */\n            tag_305:\n                /* \"#utility.yul\":9548:9611   */\n              tag_307\n                /* \"#utility.yul\":9603:9610   */\n              dup9\n                /* \"#utility.yul\":9594:9600   */\n              dup3\n                /* \"#utility.yul\":9583:9592   */\n              dup10\n                /* \"#utility.yul\":9579:9601   */\n              add\n                /* \"#utility.yul\":9548:9611   */\n              tag_163\n              jump\t// in\n            tag_307:\n                /* \"#utility.yul\":9538:9611   */\n              swap5\n              pop\n                /* \"#utility.yul\":9333:9621   */\n              pop\n                /* \"#utility.yul\":9660:9662   */\n              0x40\n                /* \"#utility.yul\":9686:9739   */\n              tag_308\n                /* \"#utility.yul\":9731:9738   */\n              dup9\n                /* \"#utility.yul\":9722:9728   */\n              dup3\n                /* \"#utility.yul\":9711:9720   */\n              dup10\n                /* \"#utility.yul\":9707:9729   */\n              add\n                /* \"#utility.yul\":9686:9739   */\n              tag_171\n              jump\t// in\n            tag_308:\n                /* \"#utility.yul\":9676:9739   */\n              swap4\n              pop\n                /* \"#utility.yul\":9631:9749   */\n              pop\n                /* \"#utility.yul\":9788:9790   */\n              0x60\n                /* \"#utility.yul\":9814:9867   */\n              tag_309\n                /* \"#utility.yul\":9859:9866   */\n              dup9\n                /* \"#utility.yul\":9850:9856   */\n              dup3\n                /* \"#utility.yul\":9839:9848   */\n              dup10\n                /* \"#utility.yul\":9835:9857   */\n              add\n                /* \"#utility.yul\":9814:9867   */\n              tag_171\n              jump\t// in\n            tag_309:\n                /* \"#utility.yul\":9804:9867   */\n              swap3\n              pop\n                /* \"#utility.yul\":9759:9877   */\n              pop\n                /* \"#utility.yul\":9916:9919   */\n              0x80\n                /* \"#utility.yul\":9943:10004   */\n              tag_310\n                /* \"#utility.yul\":9996:10003   */\n              dup9\n                /* \"#utility.yul\":9987:9993   */\n              dup3\n                /* \"#utility.yul\":9976:9985   */\n              dup10\n                /* \"#utility.yul\":9972:9994   */\n              add\n                /* \"#utility.yul\":9943:10004   */\n              tag_173\n              jump\t// in\n            tag_310:\n                /* \"#utility.yul\":9933:10004   */\n              swap2\n              pop\n                /* \"#utility.yul\":9887:10014   */\n              pop\n                /* \"#utility.yul\":8734:10021   */\n              swap3\n              swap6\n              pop\n              swap3\n              swap6\n              swap1\n              swap4\n              pop\n              jump\t// out\n                /* \"#utility.yul\":10027:10145   */\n            tag_174:\n                /* \"#utility.yul\":10114:10138   */\n              tag_312\n                /* \"#utility.yul\":10132:10137   */\n              dup2\n                /* \"#utility.yul\":10114:10138   */\n              tag_145\n              jump\t// in\n            tag_312:\n                /* \"#utility.yul\":10109:10112   */\n              dup3\n                /* \"#utility.yul\":10102:10139   */\n              mstore\n                /* \"#utility.yul\":10027:10145   */\n              pop\n              pop\n              jump\t// out\n                /* \"#utility.yul\":10151:10373   */\n            tag_55:\n                /* \"#utility.yul\":10244:10248   */\n              0x00\n                /* \"#utility.yul\":10282:10284   */\n              0x20\n                /* \"#utility.yul\":10271:10280   */\n              dup3\n                /* \"#utility.yul\":10267:10285   */\n              add\n                /* \"#utility.yul\":10259:10285   */\n              swap1\n              pop\n                /* \"#utility.yul\":10295:10366   */\n              tag_314\n                /* \"#utility.yul\":10363:10364   */\n              0x00\n                /* \"#utility.yul\":10352:10361   */\n              dup4\n                /* \"#utility.yul\":10348:10365   */\n              add\n                /* \"#utility.yul\":10339:10345   */\n              dup5\n                /* \"#utility.yul\":10295:10366   */\n              tag_174\n              jump\t// in\n            tag_314:\n                /* \"#utility.yul\":10151:10373   */\n              swap3\n              swap2\n              pop\n              pop\n              jump\t// out\n                /* \"#utility.yul\":10379:10559   */\n            tag_175:\n                /* \"#utility.yul\":10427:10504   */\n              0x4e487b7100000000000000000000000000000000000000000000000000000000\n                /* \"#utility.yul\":10424:10425   */\n              0x00\n                /* \"#utility.yul\":10417:10505   */\n              mstore\n                /* \"#utility.yul\":10524:10528   */\n              0x22\n                /* \"#utility.yul\":10521:10522   */\n              0x04\n                /* \"#utility.yul\":10514:10529   */\n              mstore\n                /* \"#utility.yul\":10548:10552   */\n              0x24\n                /* \"#utility.yul\":10545:10546   */\n              0x00\n                /* \"#utility.yul\":10538:10553   */\n              revert\n                /* \"#utility.yul\":10565:10885   */\n            tag_68:\n                /* \"#utility.yul\":10609:10615   */\n              0x00\n                /* \"#utility.yul\":10646:10647   */\n              0x02\n                /* \"#utility.yul\":10640:10644   */\n              dup3\n                /* \"#utility.yul\":10636:10648   */\n              div\n                /* \"#utility.yul\":10626:10648   */\n              swap1\n              pop\n                /* \"#utility.yul\":10693:10694   */\n              0x01\n                /* \"#utility.yul\":10687:10691   */\n              dup3\n                /* \"#utility.yul\":10683:10695   */\n              and\n                /* \"#utility.yul\":10714:10732   */\n              dup1\n                /* \"#utility.yul\":10704:10785   */\n              tag_317\n              jumpi\n                /* \"#utility.yul\":10770:10774   */\n              0x7f\n                /* \"#utility.yul\":10762:10768   */\n              dup3\n                /* \"#utility.yul\":10758:10775   */\n              and\n                /* \"#utility.yul\":10748:10775   */\n              swap2\n              pop\n                /* \"#utility.yul\":10704:10785   */\n            tag_317:\n                /* \"#utility.yul\":10832:10834   */\n              0x20\n                /* \"#utility.yul\":10824:10830   */\n              dup3\n                /* \"#utility.yul\":10821:10835   */\n              lt\n                /* \"#utility.yul\":10801:10819   */\n              dup2\n                /* \"#utility.yul\":10798:10836   */\n              sub\n                /* \"#utility.yul\":10795:10879   */\n              tag_318\n              jumpi\n                /* \"#utility.yul\":10851:10869   */\n              tag_319\n              tag_175\n              jump\t// in\n            tag_319:\n                /* \"#utility.yul\":10795:10879   */\n            tag_318:\n                /* \"#utility.yul\":10616:10885   */\n              pop\n                /* \"#utility.yul\":10565:10885   */\n              swap2\n              swap1\n              pop\n              jump\t// out\n                /* \"#utility.yul\":10891:11039   */\n            tag_176:\n                /* \"#utility.yul\":10993:11004   */\n              0x00\n                /* \"#utility.yul\":11030:11033   */\n              dup2\n                /* \"#utility.yul\":11015:11033   */\n              swap1\n              pop\n                /* \"#utility.yul\":10891:11039   */\n              swap3\n              swap2\n              pop\n              pop\n              jump\t// out\n                /* \"#utility.yul\":11045:11435   */\n            tag_177:\n                /* \"#utility.yul\":11151:11154   */\n              0x00\n                /* \"#utility.yul\":11179:11218   */\n              tag_322\n                /* \"#utility.yul\":11212:11217   */\n              dup3\n                /* \"#utility.yul\":11179:11218   */\n              tag_150\n              jump\t// in\n            tag_322:\n                /* \"#utility.yul\":11234:11323   */\n              tag_323\n                /* \"#utility.yul\":11316:11322   */\n              dup2\n                /* \"#utility.yul\":11311:11314   */\n              dup6\n                /* \"#utility.yul\":11234:11323   */\n              tag_176\n              jump\t// in\n            tag_323:\n                /* \"#utility.yul\":11227:11323   */\n              swap4\n              pop\n                /* \"#utility.yul\":11332:11397   */\n              tag_324\n                /* \"#utility.yul\":11390:11396   */\n              dup2\n                /* \"#utility.yul\":11385:11388   */\n              dup6\n                /* \"#utility.yul\":11378:11382   */\n              0x20\n                /* \"#utility.yul\":11371:11376   */\n              dup7\n                /* \"#utility.yul\":11367:11383   */\n              add\n                /* \"#utility.yul\":11332:11397   */\n              tag_152\n              jump\t// in\n            tag_324:\n                /* \"#utility.yul\":11422:11428   */\n              dup1\n                /* \"#utility.yul\":11417:11420   */\n              dup5\n                /* \"#utility.yul\":11413:11429   */\n              add\n                /* \"#utility.yul\":11406:11429   */\n              swap2\n              pop\n                /* \"#utility.yul\":11155:11435   */\n              pop\n                /* \"#utility.yul\":11045:11435   */\n              swap3\n              swap2\n              pop\n              pop\n              jump\t// out\n                /* \"#utility.yul\":11441:11716   */\n            tag_76:\n                /* \"#utility.yul\":11573:11576   */\n              0x00\n                /* \"#utility.yul\":11595:11690   */\n              tag_326\n                /* \"#utility.yul\":11686:11689   */\n              dup3\n                /* \"#utility.yul\":11677:11683   */\n              dup5\n                /* \"#utility.yul\":11595:11690   */\n              tag_177\n              jump\t// in\n            tag_326:\n                /* \"#utility.yul\":11588:11690   */\n              swap2\n              pop\n                /* \"#utility.yul\":11707:11710   */\n              dup2\n                /* \"#utility.yul\":11700:11710   */\n              swap1\n              pop\n                /* \"#utility.yul\":11441:11716   */\n              swap3\n              swap2\n              pop\n              pop\n              jump\t// out\n                /* \"#utility.yul\":11722:11902   */\n            tag_178:\n                /* \"#utility.yul\":11770:11847   */\n              0x4e487b7100000000000000000000000000000000000000000000000000000000\n                /* \"#utility.yul\":11767:11768   */\n              0x00\n                /* \"#utility.yul\":11760:11848   */\n              mstore\n                /* \"#utility.yul\":11867:11871   */\n              0x11\n                /* \"#utility.yul\":11864:11865   */\n              0x04\n                /* \"#utility.yul\":11857:11872   */\n              mstore\n                /* \"#utility.yul\":11891:11895   */\n              0x24\n                /* \"#utility.yul\":11888:11889   */\n              0x00\n                /* \"#utility.yul\":11881:11896   */\n              revert\n                /* \"#utility.yul\":11908:12141   */\n            tag_87:\n                /* \"#utility.yul\":11947:11950   */\n              0x00\n                /* \"#utility.yul\":11970:11994   */\n              tag_329\n                /* \"#utility.yul\":11988:11993   */\n              dup3\n                /* \"#utility.yul\":11970:11994   */\n              tag_148\n              jump\t// in\n            tag_329:\n                /* \"#utility.yul\":11961:11994   */\n              swap2\n              pop\n                /* \"#utility.yul\":12016:12082   */\n              0xffffffffffffffffffffffffffffffffffffffffffffffffffffffffffffffff\n                /* \"#utility.yul\":12009:12014   */\n              dup3\n                /* \"#utility.yul\":12006:12083   */\n              sub\n                /* \"#utility.yul\":12003:12106   */\n              tag_330\n              jumpi\n                /* \"#utility.yul\":12086:12104   */\n              tag_331\n              tag_178\n              jump\t// in\n            tag_331:\n                /* \"#utility.yul\":12003:12106   */\n            tag_330:\n                /* \"#utility.yul\":12133:12134   */\n              0x01\n                /* \"#utility.yul\":12126:12131   */\n              dup3\n                /* \"#utility.yul\":12122:12135   */\n              add\n                /* \"#utility.yul\":12115:12135   */\n              swap1\n              pop\n                /* \"#utility.yul\":11908:12141   */\n              swap2\n              swap1\n              pop\n              jump\t// out\n                /* \"#utility.yul\":12147:12327   */\n            tag_179:\n                /* \"#utility.yul\":12195:12272   */\n              0x4e487b7100000000000000000000000000000000000000000000000000000000\n                /* \"#utility.yul\":12192:12193   */\n              0x00\n                /* \"#utility.yul\":12185:12273   */\n              mstore\n                /* \"#utility.yul\":12292:12296   */\n              0x12\n                /* \"#utility.yul\":12289:12290   */\n              0x04\n                /* \"#utility.yul\":12282:12297   */\n              mstore\n                /* \"#utility.yul\":12316:12320   */\n              0x24\n                /* \"#utility.yul\":12313:12314   */\n              0x00\n                /* \"#utility.yul\":12306:12321   */\n              revert\n                /* \"#utility.yul\":12333:12518   */\n            tag_101:\n                /* \"#utility.yul\":12373:12374   */\n              0x00\n                /* \"#utility.yul\":12390:12410   */\n              tag_334\n                /* \"#utility.yul\":12408:12409   */\n              dup3\n                /* \"#utility.yul\":12390:12410   */\n              tag_148\n              jump\t// in\n            tag_334:\n                /* \"#utility.yul\":12385:12410   */\n              swap2\n              pop\n                /* \"#utility.yul\":12424:12444   */\n              tag_335\n                /* \"#utility.yul\":12442:12443   */\n              dup4\n                /* \"#utility.yul\":12424:12444   */\n              tag_148\n              jump\t// in\n            tag_335:\n                /* \"#utility.yul\":12419:12444   */\n              swap3\n              pop\n                /* \"#utility.yul\":12463:12464   */\n              dup3\n                /* \"#utility.yul\":12453:12488   */\n              tag_336\n              jumpi\n                /* \"#utility.yul\":12468:12486   */\n              tag_337\n              tag_179\n              jump\t// in\n            tag_337:\n                /* \"#utility.yul\":12453:12488   */\n            tag_336:\n                /* \"#utility.yul\":12510:12511   */\n              dup3\n                /* \"#utility.yul\":12507:12508   */\n              dup3\n                /* \"#utility.yul\":12503:12512   */\n              div\n                /* \"#utility.yul\":12498:12512   */\n              swap1\n              pop\n                /* \"#utility.yul\":12333:12518   */\n              swap3\n              swap2\n              pop\n              pop\n              jump\t// out\n                /* \"#utility.yul\":12524:12665   */\n            tag_180:\n                /* \"#utility.yul\":12573:12577   */\n              0x00\n                /* \"#utility.yul\":12596:12599   */\n              dup2\n                /* \"#utility.yul\":12588:12599   */\n              swap1\n              pop\n                /* \"#utility.yul\":12619:12622   */\n              dup2\n                /* \"#utility.yul\":12616:12617   */\n              0x00\n                /* \"#utility.yul\":12609:12623   */\n              mstore\n                /* \"#utility.yul\":12653:12657   */\n              0x20\n                /* \"#utility.yul\":12650:12651   */\n              0x00\n                /* \"#utility.yul\":12640:12658   */\n              keccak256\n                /* \"#utility.yul\":12632:12658   */\n              swap1\n              pop\n                /* \"#utility.yul\":12524:12665   */\n              swap2\n              swap1\n              pop\n              jump\t// out\n                /* \"#utility.yul\":12671:12764   */\n            tag_181:\n                /* \"#utility.yul\":12708:12714   */\n              0x00\n                /* \"#utility.yul\":12755:12757   */\n              0x20\n                /* \"#utility.yul\":12750:12752   */\n              0x1f\n                /* \"#utility.yul\":12743:12748   */\n              dup4\n                /* \"#utility.yul\":12739:12753   */\n              add\n                /* \"#utility.yul\":12735:12758   */\n              div\n                /* \"#utility.yul\":12725:12758   */\n              swap1\n              pop\n                /* \"#utility.yul\":12671:12764   */\n              swap2\n              swap1\n              pop\n              jump\t// out\n                /* \"#utility.yul\":12770:12877   */\n            tag_182:\n                /* \"#utility.yul\":12814:12822   */\n              0x00\n                /* \"#utility.yul\":12864:12869   */\n              dup3\n                /* \"#utility.yul\":12858:12862   */\n              dup3\n                /* \"#utility.yul\":12854:12870   */\n              shl\n                /* \"#utility.yul\":12833:12870   */\n              swap1\n              pop\n                /* \"#utility.yul\":12770:12877   */\n              swap3\n              swap2\n              pop\n              pop\n              jump\t// out\n                /* \"#utility.yul\":12883:13276   */\n            tag_183:\n                /* \"#utility.yul\":12952:12958   */\n              0x00\n                /* \"#utility.yul\":13002:13003   */\n              0x08\n                /* \"#utility.yul\":12990:13000   */\n              dup4\n                /* \"#utility.yul\":12986:13004   */\n              mul\n                /* \"#utility.yul\":13025:13122   */\n              tag_342\n                /* \"#utility.yul\":13055:13121   */\n              0xffffffffffffffffffffffffffffffffffffffffffffffffffffffffffffffff\n                /* \"#utility.yul\":13044:13053   */\n              dup3\n                /* \"#utility.yul\":13025:13122   */\n              tag_182\n              jump\t// in\n            tag_342:\n                /* \"#utility.yul\":13143:13182   */\n              tag_343\n                /* \"#utility.yul\":13173:13181   */\n              dup7\n                /* \"#utility.yul\":13162:13171   */\n              dup4\n                /* \"#utility.yul\":13143:13182   */\n              tag_182\n              jump\t// in\n            tag_343:\n                /* \"#utility.yul\":13131:13182   */\n              swap6\n              pop\n                /* \"#utility.yul\":13215:13219   */\n              dup1\n                /* \"#utility.yul\":13211:13220   */\n              not\n                /* \"#utility.yul\":13204:13209   */\n              dup5\n                /* \"#utility.yul\":13200:13221   */\n              and\n                /* \"#utility.yul\":13191:13221   */\n              swap4\n              pop\n                /* \"#utility.yul\":13264:13268   */\n              dup1\n                /* \"#utility.yul\":13254:13262   */\n              dup7\n                /* \"#utility.yul\":13250:13269   */\n              and\n                /* \"#utility.yul\":13243:13248   */\n              dup5\n                /* \"#utility.yul\":13240:13270   */\n              or\n                /* \"#utility.yul\":13230:13270   */\n              swap3\n              pop\n                /* \"#utility.yul\":12959:13276   */\n              pop\n              pop\n                /* \"#utility.yul\":12883:13276   */\n              swap4\n              swap3\n              pop\n              pop\n              pop\n              jump\t// out\n                /* \"#utility.yul\":13282:13342   */\n            tag_184:\n                /* \"#utility.yul\":13310:13313   */\n              0x00\n                /* \"#utility.yul\":13331:13336   */\n              dup2\n                /* \"#utility.yul\":13324:13336   */\n              swap1\n              pop\n                /* \"#utility.yul\":13282:13342   */\n              swap2\n              swap1\n              pop\n              jump\t// out\n                /* \"#utility.yul\":13348:13490   */\n            tag_185:\n                /* \"#utility.yul\":13398:13407   */\n              0x00\n                /* \"#utility.yul\":13431:13484   */\n              tag_346\n                /* \"#utility.yul\":13449:13483   */\n              tag_347\n                /* \"#utility.yul\":13458:13482   */\n              tag_348\n                /* \"#utility.yul\":13476:13481   */\n              dup5\n                /* \"#utility.yul\":13458:13482   */\n              tag_148\n              jump\t// in\n            tag_348:\n                /* \"#utility.yul\":13449:13483   */\n              tag_184\n              jump\t// in\n            tag_347:\n                /* \"#utility.yul\":13431:13484   */\n              tag_148\n              jump\t// in\n            tag_346:\n                /* \"#utility.yul\":13418:13484   */\n              swap1\n              pop\n                /* \"#utility.yul\":13348:13490   */\n              swap2\n              swap1\n              pop\n              jump\t// out\n                /* \"#utility.yul\":13496:13571   */\n            tag_186:\n                /* \"#utility.yul\":13539:13542   */\n              0x00\n                /* \"#utility.yul\":13560:13565   */\n              dup2\n                /* \"#utility.yul\":13553:13565   */\n              swap1\n              pop\n                /* \"#utility.yul\":13496:13571   */\n              swap2\n              swap1\n              pop\n              jump\t// out\n                /* \"#utility.yul\":13577:13846   */\n            tag_187:\n                /* \"#utility.yul\":13687:13726   */\n              tag_351\n                /* \"#utility.yul\":13718:13725   */\n              dup4\n                /* \"#utility.yul\":13687:13726   */\n              tag_185\n              jump\t// in\n            tag_351:\n                /* \"#utility.yul\":13748:13839   */\n              tag_352\n                /* \"#utility.yul\":13797:13838   */\n              tag_353\n                /* \"#utility.yul\":13821:13837   */\n              dup3\n                /* \"#utility.yul\":13797:13838   */\n              tag_186\n              jump\t// in\n            tag_353:\n                /* \"#utility.yul\":13789:13795   */\n              dup5\n                /* \"#utility.yul\":13782:13786   */\n              dup5\n                /* \"#utility.yul\":13776:13787   */\n              sload\n                /* \"#utility.yul\":13748:13839   */\n              tag_183\n              jump\t// in\n            tag_352:\n                /* \"#utility.yul\":13742:13746   */\n              dup3\n                /* \"#utility.yul\":13735:13840   */\n              sstore\n                /* \"#utility.yul\":13653:13846   */\n              pop\n                /* \"#utility.yul\":13577:13846   */\n              pop\n              pop\n              pop\n              jump\t// out\n                /* \"#utility.yul\":13852:13925   */\n            tag_188:\n                /* \"#utility.yul\":13897:13900   */\n              0x00\n                /* \"#utility.yul\":13852:13925   */\n              swap1\n              jump\t// out\n                /* \"#utility.yul\":13931:14120   */\n            tag_189:\n                /* \"#utility.yul\":14008:14040   */\n              tag_356\n              tag_188\n              jump\t// in\n            tag_356:\n                /* \"#utility.yul\":14049:14114   */\n              tag_357\n                /* \"#utility.yul\":14107:14113   */\n              dup2\n                /* \"#utility.yul\":14099:14105   */\n              dup5\n                /* \"#utility.yul\":14093:14097   */\n              dup5\n                /* \"#utility.yul\":14049:14114   */\n              tag_187\n              jump\t// in\n            tag_357:\n                /* \"#utility.yul\":13984:14120   */\n              pop\n                /* \"#utility.yul\":13931:14120   */\n              pop\n              pop\n              jump\t// out\n                /* \"#utility.yul\":14126:14312   */\n            tag_190:\n                /* \"#utility.yul\":14186:14306   */\n            tag_359:\n                /* \"#utility.yul\":14203:14206   */\n              dup2\n                /* \"#utility.yul\":14196:14201   */\n              dup2\n                /* \"#utility.yul\":14193:14207   */\n              lt\n                /* \"#utility.yul\":14186:14306   */\n              iszero\n              tag_361\n              jumpi\n                /* \"#utility.yul\":14257:14296   */\n              tag_362\n                /* \"#utility.yul\":14294:14295   */\n              0x00\n                /* \"#utility.yul\":14287:14292   */\n              dup3\n                /* \"#utility.yul\":14257:14296   */\n              tag_189\n              jump\t// in\n            tag_362:\n                /* \"#utility.yul\":14230:14231   */\n              0x01\n                /* \"#utility.yul\":14223:14228   */\n              dup2\n                /* \"#utility.yul\":14219:14232   */\n              add\n                /* \"#utility.yul\":14210:14232   */\n              swap1\n              pop\n                /* \"#utility.yul\":14186:14306   */\n              jump(tag_359)\n            tag_361:\n                /* \"#utility.yul\":14126:14312   */\n              pop\n              pop\n              jump\t// out\n                /* \"#utility.yul\":14318:14861   */\n            tag_191:\n                /* \"#utility.yul\":14419:14421   */\n              0x1f\n                /* \"#utility.yul\":14414:14417   */\n              dup3\n                /* \"#utility.yul\":14411:14422   */\n              gt\n                /* \"#utility.yul\":14408:14854   */\n              iszero\n              tag_364\n              jumpi\n                /* \"#utility.yul\":14453:14491   */\n              tag_365\n                /* \"#utility.yul\":14485:14490   */\n              dup2\n                /* \"#utility.yul\":14453:14491   */\n              tag_180\n              jump\t// in\n            tag_365:\n                /* \"#utility.yul\":14537:14566   */\n              tag_366\n                /* \"#utility.yul\":14555:14565   */\n              dup5\n                /* \"#utility.yul\":14537:14566   */\n              tag_181\n              jump\t// in\n            tag_366:\n                /* \"#utility.yul\":14527:14535   */\n              dup2\n                /* \"#utility.yul\":14523:14567   */\n              add\n                /* \"#utility.yul\":14720:14722   */\n              0x20\n                /* \"#utility.yul\":14708:14718   */\n              dup6\n                /* \"#utility.yul\":14705:14723   */\n              lt\n                /* \"#utility.yul\":14702:14751   */\n              iszero\n              tag_367\n              jumpi\n                /* \"#utility.yul\":14741:14749   */\n              dup2\n                /* \"#utility.yul\":14726:14749   */\n              swap1\n              pop\n                /* \"#utility.yul\":14702:14751   */\n            tag_367:\n                /* \"#utility.yul\":14764:14844   */\n              tag_368\n                /* \"#utility.yul\":14820:14842   */\n              tag_369\n                /* \"#utility.yul\":14838:14841   */\n              dup6\n                /* \"#utility.yul\":14820:14842   */\n              tag_181\n              jump\t// in\n            tag_369:\n                /* \"#utility.yul\":14810:14818   */\n              dup4\n                /* \"#utility.yul\":14806:14843   */\n              add\n                /* \"#utility.yul\":14793:14804   */\n              dup3\n                /* \"#utility.yul\":14764:14844   */\n              tag_190\n              jump\t// in\n            tag_368:\n                /* \"#utility.yul\":14423:14854   */\n              pop\n              pop\n                /* \"#utility.yul\":14408:14854   */\n            tag_364:\n                /* \"#utility.yul\":14318:14861   */\n              pop\n              pop\n              pop\n              jump\t// out\n                /* \"#utility.yul\":14867:14984   */\n            tag_192:\n                /* \"#utility.yul\":14921:14929   */\n              0x00\n                /* \"#utility.yul\":14971:14976   */\n              dup3\n                /* \"#utility.yul\":14965:14969   */\n              dup3\n                /* \"#utility.yul\":14961:14977   */\n              shr\n                /* \"#utility.yul\":14940:14977   */\n              swap1\n              pop\n                /* \"#utility.yul\":14867:14984   */\n              swap3\n              swap2\n              pop\n              pop\n              jump\t// out\n                /* \"#utility.yul\":14990:15159   */\n            tag_193:\n                /* \"#utility.yul\":15034:15040   */\n              0x00\n                /* \"#utility.yul\":15067:15118   */\n              tag_372\n                /* \"#utility.yul\":15115:15116   */\n              0x00\n                /* \"#utility.yul\":15111:15117   */\n              not\n                /* \"#utility.yul\":15103:15108   */\n              dup5\n                /* \"#utility.yul\":15100:15101   */\n              0x08\n                /* \"#utility.yul\":15096:15109   */\n              mul\n                /* \"#utility.yul\":15067:15118   */\n              tag_192\n              jump\t// in\n            tag_372:\n                /* \"#utility.yul\":15063:15119   */\n              not\n                /* \"#utility.yul\":15148:15152   */\n              dup1\n                /* \"#utility.yul\":15142:15146   */\n              dup4\n                /* \"#utility.yul\":15138:15153   */\n              and\n                /* \"#utility.yul\":15128:15153   */\n              swap2\n              pop\n                /* \"#utility.yul\":15041:15159   */\n              pop\n                /* \"#utility.yul\":14990:15159   */\n              swap3\n              swap2\n              pop\n              pop\n              jump\t// out\n                /* \"#utility.yul\":15164:15459   */\n            tag_194:\n                /* \"#utility.yul\":15240:15244   */\n              0x00\n                /* \"#utility.yul\":15386:15415   */\n              tag_374\n                /* \"#utility.yul\":15411:15414   */\n              dup4\n                /* \"#utility.yul\":15405:15409   */\n              dup4\n                /* \"#utility.yul\":15386:15415   */\n              tag_193\n              jump\t// in\n            tag_374:\n                /* \"#utility.yul\":15378:15415   */\n              swap2\n              pop\n                /* \"#utility.yul\":15448:15451   */\n              dup3\n                /* \"#utility.yul\":15445:15446   */\n              0x02\n                /* \"#utility.yul\":15441:15452   */\n              mul\n                /* \"#utility.yul\":15435:15439   */\n              dup3\n                /* \"#utility.yul\":15432:15453   */\n              or\n                /* \"#utility.yul\":15424:15453   */\n              swap1\n              pop\n                /* \"#utility.yul\":15164:15459   */\n              swap3\n              swap2\n              pop\n              pop\n              jump\t// out\n                /* \"#utility.yul\":15464:16859   */\n            tag_114:\n                /* \"#utility.yul\":15581:15618   */\n              tag_376\n                /* \"#utility.yul\":15614:15617   */\n              dup3\n                /* \"#utility.yul\":15581:15618   */\n              tag_150\n              jump\t// in\n            tag_376:\n                /* \"#utility.yul\":15683:15701   */\n              0xffffffffffffffff\n                /* \"#utility.yul\":15675:15681   */\n              dup2\n                /* \"#utility.yul\":15672:15702   */\n              gt\n                /* \"#utility.yul\":15669:15725   */\n              iszero\n              tag_377\n              jumpi\n                /* \"#utility.yul\":15705:15723   */\n              tag_378\n              tag_157\n              jump\t// in\n            tag_378:\n                /* \"#utility.yul\":15669:15725   */\n            tag_377:\n                /* \"#utility.yul\":15749:15787   */\n              tag_379\n                /* \"#utility.yul\":15781:15785   */\n              dup3\n                /* \"#utility.yul\":15775:15786   */\n              sload\n                /* \"#utility.yul\":15749:15787   */\n              tag_68\n              jump\t// in\n            tag_379:\n                /* \"#utility.yul\":15834:15901   */\n              tag_380\n                /* \"#utility.yul\":15894:15900   */\n              dup3\n                /* \"#utility.yul\":15886:15892   */\n              dup3\n                /* \"#utility.yul\":15880:15884   */\n              dup6\n                /* \"#utility.yul\":15834:15901   */\n              tag_191\n              jump\t// in\n            tag_380:\n                /* \"#utility.yul\":15928:15929   */\n              0x00\n                /* \"#utility.yul\":15952:15956   */\n              0x20\n                /* \"#utility.yul\":15939:15956   */\n              swap1\n              pop\n                /* \"#utility.yul\":15984:15986   */\n              0x1f\n                /* \"#utility.yul\":15976:15982   */\n              dup4\n                /* \"#utility.yul\":15973:15987   */\n              gt\n                /* \"#utility.yul\":16001:16002   */\n              0x01\n                /* \"#utility.yul\":15996:16614   */\n              dup2\n              eq\n              tag_382\n              jumpi\n                /* \"#utility.yul\":16658:16659   */\n              0x00\n                /* \"#utility.yul\":16675:16681   */\n              dup5\n                /* \"#utility.yul\":16672:16749   */\n              iszero\n              tag_383\n              jumpi\n                /* \"#utility.yul\":16724:16733   */\n              dup3\n                /* \"#utility.yul\":16719:16722   */\n              dup8\n                /* \"#utility.yul\":16715:16734   */\n              add\n                /* \"#utility.yul\":16709:16735   */\n              mload\n                /* \"#utility.yul\":16700:16735   */\n              swap1\n              pop\n                /* \"#utility.yul\":16672:16749   */\n            tag_383:\n                /* \"#utility.yul\":16775:16842   */\n              tag_384\n                /* \"#utility.yul\":16835:16841   */\n              dup6\n                /* \"#utility.yul\":16828:16833   */\n              dup3\n                /* \"#utility.yul\":16775:16842   */\n              tag_194\n              jump\t// in\n            tag_384:\n                /* \"#utility.yul\":16769:16773   */\n              dup7\n                /* \"#utility.yul\":16762:16843   */\n              sstore\n                /* \"#utility.yul\":16631:16853   */\n              pop\n                /* \"#utility.yul\":15966:16853   */\n              jump(tag_381)\n                /* \"#utility.yul\":15996:16614   */\n            tag_382:\n                /* \"#utility.yul\":16048:16052   */\n              0x1f\n                /* \"#utility.yul\":16044:16053   */\n              not\n                /* \"#utility.yul\":16036:16042   */\n              dup5\n                /* \"#utility.yul\":16032:16054   */\n              and\n                /* \"#utility.yul\":16082:16119   */\n              tag_385\n                /* \"#utility.yul\":16114:16118   */\n              dup7\n                /* \"#utility.yul\":16082:16119   */\n              tag_180\n              jump\t// in\n            tag_385:\n                /* \"#utility.yul\":16141:16142   */\n              0x00\n                /* \"#utility.yul\":16155:16363   */\n            tag_386:\n                /* \"#utility.yul\":16169:16176   */\n              dup3\n                /* \"#utility.yul\":16166:16167   */\n              dup2\n                /* \"#utility.yul\":16163:16177   */\n              lt\n                /* \"#utility.yul\":16155:16363   */\n              iszero\n              tag_388\n              jumpi\n                /* \"#utility.yul\":16248:16257   */\n              dup5\n                /* \"#utility.yul\":16243:16246   */\n              dup10\n                /* \"#utility.yul\":16239:16258   */\n              add\n                /* \"#utility.yul\":16233:16259   */\n              mload\n                /* \"#utility.yul\":16225:16231   */\n              dup3\n                /* \"#utility.yul\":16218:16260   */\n              sstore\n                /* \"#utility.yul\":16299:16300   */\n              0x01\n                /* \"#utility.yul\":16291:16297   */\n              dup3\n                /* \"#utility.yul\":16287:16301   */\n              add\n                /* \"#utility.yul\":16277:16301   */\n              swap2\n              pop\n                /* \"#utility.yul\":16346:16348   */\n              0x20\n                /* \"#utility.yul\":16335:16344   */\n              dup6\n                /* \"#utility.yul\":16331:16349   */\n              add\n                /* \"#utility.yul\":16318:16349   */\n              swap5\n              pop\n                /* \"#utility.yul\":16192:16196   */\n              0x20\n                /* \"#utility.yul\":16189:16190   */\n              dup2\n                /* \"#utility.yul\":16185:16197   */\n              add\n                /* \"#utility.yul\":16180:16197   */\n              swap1\n              pop\n                /* \"#utility.yul\":16155:16363   */\n              jump(tag_386)\n            tag_388:\n                /* \"#utility.yul\":16391:16397   */\n              dup7\n                /* \"#utility.yul\":16382:16389   */\n              dup4\n                /* \"#utility.yul\":16379:16398   */\n              lt\n                /* \"#utility.yul\":16376:16555   */\n              iszero\n              tag_389\n              jumpi\n                /* \"#utility.yul\":16449:16458   */\n              dup5\n                /* \"#utility.yul\":16444:16447   */\n              dup10\n                /* \"#utility.yul\":16440:16459   */\n              add\n                /* \"#utility.yul\":16434:16460   */\n              mload\n                /* \"#utility.yul\":16492:16540   */\n              tag_390\n                /* \"#utility.yul\":16534:16538   */\n              0x1f\n                /* \"#utility.yul\":16526:16532   */\n              dup10\n                /* \"#utility.yul\":16522:16539   */\n              and\n                /* \"#utility.yul\":16511:16520   */\n              dup3\n                /* \"#utility.yul\":16492:16540   */\n              tag_193\n              jump\t// in\n            tag_390:\n                /* \"#utility.yul\":16484:16490   */\n              dup4\n                /* \"#utility.yul\":16477:16541   */\n              sstore\n                /* \"#utility.yul\":16399:16555   */\n              pop\n                /* \"#utility.yul\":16376:16555   */\n            tag_389:\n                /* \"#utility.yul\":16601:16602   */\n              0x01\n                /* \"#utility.yul\":16597:16598   */\n              0x02\n                /* \"#utility.yul\":16589:16595   */\n              dup9\n                /* \"#utility.yul\":16585:16599   */\n              mul\n                /* \"#utility.yul\":16581:16603   */\n              add\n                /* \"#utility.yul\":16575:16579   */\n              dup9\n                /* \"#utility.yul\":16568:16604   */\n              sstore\n                /* \"#utility.yul\":16003:16614   */\n              pop\n              pop\n              pop\n                /* \"#utility.yul\":15966:16853   */\n            tag_381:\n              pop\n                /* \"#utility.yul\":15556:16859   */\n              pop\n              pop\n              pop\n                /* \"#utility.yul\":15464:16859   */\n              pop\n              pop\n              jump\t// out\n                /* \"#utility.yul\":16865:17275   */\n            tag_137:\n                /* \"#utility.yul\":16905:16912   */\n              0x00\n                /* \"#utility.yul\":16928:16948   */\n              tag_392\n                /* \"#utility.yul\":16946:16947   */\n              dup3\n                /* \"#utility.yul\":16928:16948   */\n              tag_148\n              jump\t// in\n            tag_392:\n                /* \"#utility.yul\":16923:16948   */\n              swap2\n              pop\n                /* \"#utility.yul\":16962:16982   */\n              tag_393\n                /* \"#utility.yul\":16980:16981   */\n              dup4\n                /* \"#utility.yul\":16962:16982   */\n              tag_148\n              jump\t// in\n            tag_393:\n                /* \"#utility.yul\":16957:16982   */\n              swap3\n              pop\n                /* \"#utility.yul\":17017:17018   */\n              dup3\n                /* \"#utility.yul\":17014:17015   */\n              dup3\n                /* \"#utility.yul\":17010:17019   */\n              mul\n                /* \"#utility.yul\":17039:17069   */\n              tag_394\n                /* \"#utility.yul\":17057:17068   */\n              dup2\n                /* \"#utility.yul\":17039:17069   */\n              tag_148\n              jump\t// in\n            tag_394:\n                /* \"#utility.yul\":17028:17069   */\n              swap2\n              pop\n                /* \"#utility.yul\":17218:17219   */\n              dup3\n                /* \"#utility.yul\":17209:17216   */\n              dup3\n                /* \"#utility.yul\":17205:17220   */\n              div\n                /* \"#utility.yul\":17202:17203   */\n              dup5\n                /* \"#utility.yul\":17199:17221   */\n              eq\n                /* \"#utility.yul\":17179:17180   */\n              dup4\n                /* \"#utility.yul\":17172:17181   */\n              iszero\n                /* \"#utility.yul\":17152:17235   */\n              or\n                /* \"#utility.yul\":17129:17268   */\n              tag_395\n              jumpi\n                /* \"#utility.yul\":17248:17266   */\n              tag_396\n              tag_178\n              jump\t// in\n            tag_396:\n                /* \"#utility.yul\":17129:17268   */\n            tag_395:\n                /* \"#utility.yul\":16913:17275   */\n              pop\n                /* \"#utility.yul\":16865:17275   */\n              swap3\n              swap2\n              pop\n              pop\n              jump\t// out\n\n            auxdata: 0xa26469706673582212204c7fca599ca816379aa2c9d0d2def204fd95a76b8ac094c124923da2672689fc64736f6c63430008180033\n        }\n    }\n\n    auxdata: 0xa264697066735822122055a80260f7cd8513d81c9f81070f76df049637f4ebb3c8ae5c87cb6101cdd67b64736f6c63430008180033\n}\n","bytecode":{"linkReferences":{},"object":"608060405234801561000f575f80fd5b503360015f6101000a81548173ffffffffffffffffffffffffffffffffffffffff021916908373ffffffffffffffffffffffffffffffffffffffff1602179055506129198061005d5f395ff3fe608060405234801562000010575f80fd5b506004361062000050575f3560e01c80634acb9d4f146200005457806394d2d7a71462000076578063a6b036331462000098578063f102a67c14620000ba575b5f80fd5b6200005e620000da565b6040516200006d9190620005ed565b60405180910390f35b6200008062000166565b6040516200008f919062000620565b60405180910390f35b620000a26200018e565b604051620000b19190620007eb565b60405180910390f35b620000d86004803603810190620000d291906200099e565b6200032d565b005b60605f8054806020026020016040519081016040528092919081815260200182805480156200015c57602002820191905f5260205f20905b815f9054906101000a900473ffffffffffffffffffffffffffffffffffffffff1673ffffffffffffffffffffffffffffffffffffffff168152602001906001019080831162000112575b5050505050905090565b5f60015f9054906101000a900473ffffffffffffffffffffffffffffffffffffffff16905090565b60606002805480602002602001604051908101604052809291908181526020015f905b8282101562000324578382905f5260205f2090600302016040518060600160405290815f82015f9054906101000a900473ffffffffffffffffffffffffffffffffffffffff1673ffffffffffffffffffffffffffffffffffffffff1673ffffffffffffffffffffffffffffffffffffffff168152602001600182018054620002399062000a2f565b80601f0160208091040260200160405190810160405280929190818152602001828054620002679062000a2f565b8015620002b65780601f106200028c57610100808354040283529160200191620002b6565b820191905f5260205f20905b8154815290600101906020018083116200029857829003601f168201915b50505050508152602001600282015f9054906101000a900473ffffffffffffffffffffffffffffffffffffffff1673ffffffffffffffffffffffffffffffffffffffff1673ffffffffffffffffffffffffffffffffffffffff168152505081526020019060010190620001b1565b50505050905090565b5f8282336040516200033f90620004e6565b6200034d9392919062000ac4565b604051809103905ff08015801562000367573d5f803e3d5ffd5b5090505f81908060018154018082558091505060019003905f5260205f20015f9091909190916101000a81548173ffffffffffffffffffffffffffffffffffffffff021916908373ffffffffffffffffffffffffffffffffffffffff1602179055505f60405180606001604052803373ffffffffffffffffffffffffffffffffffffffff1681526020018581526020018373ffffffffffffffffffffffffffffffffffffffff168152509050600281908060018154018082558091505060019003905f5260205f2090600302015f909190919091505f820151815f015f6101000a81548173ffffffffffffffffffffffffffffffffffffffff021916908373ffffffffffffffffffffffffffffffffffffffff160217905550602082015181600101908162000497919062000cc9565b506040820151816002015f6101000a81548173ffffffffffffffffffffffffffffffffffffffff021916908373ffffffffffffffffffffffffffffffffffffffff160217905550505050505050565b611b368062000dae83390190565b5f81519050919050565b5f82825260208201905092915050565b5f819050602082019050919050565b5f73ffffffffffffffffffffffffffffffffffffffff82169050919050565b5f62000548826200051d565b9050919050565b6200055a816200053c565b82525050565b5f6200056d83836200054f565b60208301905092915050565b5f602082019050919050565b5f6200059182620004f4565b6200059d8185620004fe565b9350620005aa836200050e565b805f5b83811015620005e0578151620005c4888262000560565b9750620005d18362000579565b925050600181019050620005ad565b5085935050505092915050565b5f6020820190508181035f83015262000607818462000585565b905092915050565b6200061a816200053c565b82525050565b5f602082019050620006355f8301846200060f565b92915050565b5f81519050919050565b5f82825260208201905092915050565b5f819050602082019050919050565b5f81519050919050565b5f82825260208201905092915050565b5f5b838110156200069d57808201518184015260208101905062000680565b5f8484015250505050565b5f601f19601f8301169050919050565b5f620006c48262000664565b620006d081856200066e565b9350620006e28185602086016200067e565b620006ed81620006a8565b840191505092915050565b5f606083015f8301516200070f5f8601826200054f565b5060208301518482036020860152620007298282620006b8565b91505060408301516200074060408601826200054f565b508091505092915050565b5f620007588383620006f8565b905092915050565b5f602082019050919050565b5f62000778826200063b565b62000784818562000645565b935083602082028501620007988562000655565b805f5b85811015620007d95784840389528151620007b785826200074b565b9450620007c48362000760565b925060208a019950506001810190506200079b565b50829750879550505050505092915050565b5f6020820190508181035f8301526200080581846200076c565b905092915050565b5f604051905090565b5f80fd5b5f80fd5b5f80fd5b5f80fd5b7f4e487b71000000000000000000000000000000000000000000000000000000005f52604160045260245ffd5b6200085e82620006a8565b810181811067ffffffffffffffff8211171562000880576200087f62000826565b5b80604052505050565b5f620008946200080d565b9050620008a2828262000853565b919050565b5f67ffffffffffffffff821115620008c457620008c362000826565b5b620008cf82620006a8565b9050602081019050919050565b828183375f83830152505050565b5f62000900620008fa84620008a7565b62000889565b9050828152602081018484840111156200091f576200091e62000822565b5b6200092c848285620008dc565b509392505050565b5f82601f8301126200094b576200094a6200081e565b5b81356200095d848260208601620008ea565b91505092915050565b5f819050919050565b6200097a8162000966565b811462000985575f80fd5b50565b5f8135905062000998816200096f565b92915050565b5f8060408385031215620009b757620009b662000816565b5b5f83013567ffffffffffffffff811115620009d757620009d66200081a565b5b620009e58582860162000934565b9250506020620009f88582860162000988565b9150509250929050565b7f4e487b71000000000000000000000000000000000000000000000000000000005f52602260045260245ffd5b5f600282049050600182168062000a4757607f821691505b60208210810362000a5d5762000a5c62000a02565b5b50919050565b5f82825260208201905092915050565b5f62000a7f8262000664565b62000a8b818562000a63565b935062000a9d8185602086016200067e565b62000aa881620006a8565b840191505092915050565b62000abe8162000966565b82525050565b5f6060820190508181035f83015262000ade818662000a73565b905062000aef602083018562000ab3565b62000afe60408301846200060f565b949350505050565b5f819050815f5260205f209050919050565b5f6020601f8301049050919050565b5f82821b905092915050565b5f6008830262000b647fffffffffffffffffffffffffffffffffffffffffffffffffffffffffffffffff8262000b27565b62000b70868362000b27565b95508019841693508086168417925050509392505050565b5f819050919050565b5f62000bb162000bab62000ba58462000966565b62000b88565b62000966565b9050919050565b5f819050919050565b62000bcc8362000b91565b62000be462000bdb8262000bb8565b84845462000b33565b825550505050565b5f90565b62000bfa62000bec565b62000c0781848462000bc1565b505050565b5b8181101562000c2e5762000c225f8262000bf0565b60018101905062000c0d565b5050565b601f82111562000c7d5762000c478162000b06565b62000c528462000b18565b8101602085101562000c62578190505b62000c7a62000c718562000b18565b83018262000c0c565b50505b505050565b5f82821c905092915050565b5f62000c9f5f198460080262000c82565b1980831691505092915050565b5f62000cb9838362000c8e565b9150826002028217905092915050565b62000cd48262000664565b67ffffffffffffffff81111562000cf05762000cef62000826565b5b62000cfc825462000a2f565b62000d0982828562000c32565b5f60209050601f83116001811462000d3f575f841562000d2a578287015190505b62000d36858262000cac565b86555062000da5565b601f19841662000d4f8662000b06565b5f5b8281101562000d785784890151825560018201915060208501945060208101905062000d51565b8683101562000d98578489015162000d94601f89168262000c8e565b8355505b6001600288020188555050505b50505050505056fe608060405234801562000010575f80fd5b5060405162001b3638038062001b368339818101604052810190620000369190620002c1565b5f821162000042575f80fd5b8060015f6101000a81548173ffffffffffffffffffffffffffffffffffffffff021916908373ffffffffffffffffffffffffffffffffffffffff160217905550825f908162000092919062000567565b50816004819055505050506200064b565b5f604051905090565b5f80fd5b5f80fd5b5f80fd5b5f80fd5b5f601f19601f8301169050919050565b7f4e487b71000000000000000000000000000000000000000000000000000000005f52604160045260245ffd5b6200010482620000bc565b810181811067ffffffffffffffff82111715620001265762000125620000cc565b5b80604052505050565b5f6200013a620000a3565b9050620001488282620000f9565b919050565b5f67ffffffffffffffff8211156200016a5762000169620000cc565b5b6200017582620000bc565b9050602081019050919050565b5f5b83811015620001a157808201518184015260208101905062000184565b5f8484015250505050565b5f620001c2620001bc846200014d565b6200012f565b905082815260208101848484011115620001e157620001e0620000b8565b5b620001ee84828562000182565b509392505050565b5f82601f8301126200020d576200020c620000b4565b5b81516200021f848260208601620001ac565b91505092915050565b5f819050919050565b6200023c8162000228565b811462000247575f80fd5b50565b5f815190506200025a8162000231565b92915050565b5f73ffffffffffffffffffffffffffffffffffffffff82169050919050565b5f6200028b8262000260565b9050919050565b6200029d816200027f565b8114620002a8575f80fd5b50565b5f81519050620002bb8162000292565b92915050565b5f805f60608486031215620002db57620002da620000ac565b5b5f84015167ffffffffffffffff811115620002fb57620002fa620000b0565b5b6200030986828701620001f6565b93505060206200031c868287016200024a565b92505060406200032f86828701620002ab565b9150509250925092565b5f81519050919050565b7f4e487b71000000000000000000000000000000000000000000000000000000005f52602260045260245ffd5b5f60028204905060018216806200038857607f821691505b6020821081036200039e576200039d62000343565b5b50919050565b5f819050815f5260205f209050919050565b5f6020601f8301049050919050565b5f82821b905092915050565b5f60088302620004027fffffffffffffffffffffffffffffffffffffffffffffffffffffffffffffffff82620003c5565b6200040e8683620003c5565b95508019841693508086168417925050509392505050565b5f819050919050565b5f6200044f62000449620004438462000228565b62000426565b62000228565b9050919050565b5f819050919050565b6200046a836200042f565b62000482620004798262000456565b848454620003d1565b825550505050565b5f90565b620004986200048a565b620004a58184846200045f565b505050565b5b81811015620004cc57620004c05f826200048e565b600181019050620004ab565b5050565b601f8211156200051b57620004e581620003a4565b620004f084620003b6565b8101602085101562000500578190505b620005186200050f85620003b6565b830182620004aa565b50505b505050565b5f82821c905092915050565b5f6200053d5f198460080262000520565b1980831691505092915050565b5f6200055783836200052c565b9150826002028217905092915050565b620005728262000339565b67ffffffffffffffff8111156200058e576200058d620000cc565b5b6200059a825462000370565b620005a7828285620004d0565b5f60209050601f831160018114620005dd575f8415620005c8578287015190505b620005d485826200054a565b86555062000643565b601f198416620005ed86620003a4565b5f5b828110156200061657848901518255600182019150602085019450602081019050620005ef565b8683101562000636578489015162000632601f8916826200052c565b8355505b6001600288020188555050505b505050505050565b6114dd80620006595f395ff3fe60806040526004361061009b575f3560e01c8063a7ac800011610063578063a7ac80001461019a578063af157c19146101c2578063d5009584146101ec578063d7bb99ba14610216578063e2e46b5214610220578063f84038b1146102485761009b565b80630a1443911461009f5780631a092541146100db57806330e8fc5c14610105578063692d51d21461012d5780636f9fb98a14610170575b5f80fd5b3480156100aa575f80fd5b506100c560048036038101906100c09190610b90565b610272565b6040516100d29190610bd3565b60405180910390f35b3480156100e6575f80fd5b506100ef610287565b6040516100fc9190610c76565b60405180910390f35b348015610110575f80fd5b5061012b60048036038101906101269190610df7565b610316565b005b348015610138575f80fd5b50610153600480360381019061014e9190610e51565b61053e565b604051610167989796959493929190610ec7565b60405180910390f35b34801561017b575f80fd5b506101846106de565b6040516101919190610bd3565b60405180910390f35b3480156101a5575f80fd5b506101c060048036038101906101bb9190610fa5565b6106f8565b005b3480156101cd575f80fd5b506101d6610870565b6040516101e39190610bd3565b60405180910390f35b3480156101f7575f80fd5b50610200610879565b60405161020d9190611063565b60405180910390f35b61021e6108a1565b005b34801561022b575f80fd5b5061024660048036038101906102419190610e51565b610978565b005b348015610253575f80fd5b5061025c610b1c565b6040516102699190610bd3565b60405180910390f35b6002602052805f5260405f205f915090505481565b60605f8054610295906110a9565b80601f01602080910402602001604051908101604052809291908181526020018280546102c1906110a9565b801561030c5780601f106102e35761010080835404028352916020019161030c565b820191905f5260205f20905b8154815290600101906020018083116102ef57829003601f168201915b5050505050905090565b60015f9054906101000a900473ffffffffffffffffffffffffffffffffffffffff1673ffffffffffffffffffffffffffffffffffffffff163373ffffffffffffffffffffffffffffffffffffffff160361036e575f80fd5b5f60058360405161037f9190611113565b908152602001604051809103902090505f815f01805461039e906110a9565b9050116103a9575f80fd5b8251815f0180546103b9906110a9565b9050146103c4575f80fd5b5f60025f3373ffffffffffffffffffffffffffffffffffffffff1673ffffffffffffffffffffffffffffffffffffffff1681526020019081526020015f20541161040c575f80fd5b806006015f9054906101000a900460ff1615610426575f80fd5b8060060160019054906101000a900460ff1615610441575f80fd5b806007015f3373ffffffffffffffffffffffffffffffffffffffff1673ffffffffffffffffffffffffffffffffffffffff1681526020019081526020015f205f9054906101000a900460ff1615610496575f80fd5b6001816007015f3373ffffffffffffffffffffffffffffffffffffffff1673ffffffffffffffffffffffffffffffffffffffff1681526020019081526020015f205f6101000a81548160ff021916908315150217905550811561050d57806004015f81548092919061050790611156565b91905055505b8060050154816004015410610539576001816006015f6101000a81548160ff0219169083151502179055505b505050565b6005818051602081018201805184825260208301602085012081835280955050505050505f91509050805f018054610575906110a9565b80601f01602080910402602001604051908101604052809291908181526020018280546105a1906110a9565b80156105ec5780601f106105c3576101008083540402835291602001916105ec565b820191905f5260205f20905b8154815290600101906020018083116105cf57829003601f168201915b505050505090806001018054610601906110a9565b80601f016020809104026020016040519081016040528092919081815260200182805461062d906110a9565b80156106785780601f1061064f57610100808354040283529160200191610678565b820191905f5260205f20905b81548152906001019060200180831161065b57829003601f168201915b505050505090806002015490806003015f9054906101000a900473ffffffffffffffffffffffffffffffffffffffff1690806004015490806005015490806006015f9054906101000a900460ff16908060060160019054906101000a900460ff16905088565b5f670de0b6b3a7640000476106f391906111ca565b905090565b60015f9054906101000a900473ffffffffffffffffffffffffffffffffffffffff1673ffffffffffffffffffffffffffffffffffffffff163373ffffffffffffffffffffffffffffffffffffffff1614610750575f80fd5b5f85511161075c575f80fd5b5f845111610768575f80fd5b5f8311610773575f80fd5b670de0b6b3a76400004761078791906111ca565b831115610792575f80fd5b5f821161079d575f80fd5b6003548211156107ab575f80fd5b5f6005866040516107bc9190611113565b9081526020016040518091039020905085815f0190816107dc9190611397565b50848160010190816107ee9190611397565b5083816002018190555081816003015f6101000a81548173ffffffffffffffffffffffffffffffffffffffff021916908373ffffffffffffffffffffffffffffffffffffffff1602179055505f81600401819055508281600501819055505f8160060160016101000a81548160ff021916908315150217905550505050505050565b5f600354905090565b5f60015f9054906101000a900473ffffffffffffffffffffffffffffffffffffffff16905090565b600454670de0b6b3a7640000346108b891906111ca565b10156108c2575f80fd5b5f60025f3373ffffffffffffffffffffffffffffffffffffffff1673ffffffffffffffffffffffffffffffffffffffff1681526020019081526020015f20541461090a575f80fd5b670de0b6b3a76400003461091e91906111ca565b60025f3373ffffffffffffffffffffffffffffffffffffffff1673ffffffffffffffffffffffffffffffffffffffff1681526020019081526020015f208190555060035f81548092919061097190611156565b9190505550565b60015f9054906101000a900473ffffffffffffffffffffffffffffffffffffffff1673ffffffffffffffffffffffffffffffffffffffff163373ffffffffffffffffffffffffffffffffffffffff16146109d0575f80fd5b5f6005826040516109e19190611113565b908152602001604051809103902090505f815f018054610a00906110a9565b905011610a0b575f80fd5b8151815f018054610a1b906110a9565b905014610a26575f80fd5b806006015f9054906101000a900460ff168015610a5257508060060160019054906101000a900460ff16155b610a5a575f80fd5b8060020154670de0b6b3a764000047610a7391906111ca565b1015610a7d575f80fd5b806003015f9054906101000a900473ffffffffffffffffffffffffffffffffffffffff1673ffffffffffffffffffffffffffffffffffffffff166108fc670de0b6b3a76400008360020154610ad29190611466565b90811502906040515f60405180830381858888f19350505050158015610afa573d5f803e3d5ffd5b5060018160060160016101000a81548160ff0219169083151502179055505050565b5f600454905090565b5f604051905090565b5f80fd5b5f80fd5b5f73ffffffffffffffffffffffffffffffffffffffff82169050919050565b5f610b5f82610b36565b9050919050565b610b6f81610b55565b8114610b79575f80fd5b50565b5f81359050610b8a81610b66565b92915050565b5f60208284031215610ba557610ba4610b2e565b5b5f610bb284828501610b7c565b91505092915050565b5f819050919050565b610bcd81610bbb565b82525050565b5f602082019050610be65f830184610bc4565b92915050565b5f81519050919050565b5f82825260208201905092915050565b5f5b83811015610c23578082015181840152602081019050610c08565b5f8484015250505050565b5f601f19601f8301169050919050565b5f610c4882610bec565b610c528185610bf6565b9350610c62818560208601610c06565b610c6b81610c2e565b840191505092915050565b5f6020820190508181035f830152610c8e8184610c3e565b905092915050565b5f80fd5b5f80fd5b7f4e487b71000000000000000000000000000000000000000000000000000000005f52604160045260245ffd5b610cd482610c2e565b810181811067ffffffffffffffff82111715610cf357610cf2610c9e565b5b80604052505050565b5f610d05610b25565b9050610d118282610ccb565b919050565b5f67ffffffffffffffff821115610d3057610d2f610c9e565b5b610d3982610c2e565b9050602081019050919050565b828183375f83830152505050565b5f610d66610d6184610d16565b610cfc565b905082815260208101848484011115610d8257610d81610c9a565b5b610d8d848285610d46565b509392505050565b5f82601f830112610da957610da8610c96565b5b8135610db9848260208601610d54565b91505092915050565b5f8115159050919050565b610dd681610dc2565b8114610de0575f80fd5b50565b5f81359050610df181610dcd565b92915050565b5f8060408385031215610e0d57610e0c610b2e565b5b5f83013567ffffffffffffffff811115610e2a57610e29610b32565b5b610e3685828601610d95565b9250506020610e4785828601610de3565b9150509250929050565b5f60208284031215610e6657610e65610b2e565b5b5f82013567ffffffffffffffff811115610e8357610e82610b32565b5b610e8f84828501610d95565b91505092915050565b5f610ea282610b36565b9050919050565b610eb281610e98565b82525050565b610ec181610dc2565b82525050565b5f610100820190508181035f830152610ee0818b610c3e565b90508181036020830152610ef4818a610c3e565b9050610f036040830189610bc4565b610f106060830188610ea9565b610f1d6080830187610bc4565b610f2a60a0830186610bc4565b610f3760c0830185610eb8565b610f4460e0830184610eb8565b9998505050505050505050565b610f5a81610bbb565b8114610f64575f80fd5b50565b5f81359050610f7581610f51565b92915050565b610f8481610e98565b8114610f8e575f80fd5b50565b5f81359050610f9f81610f7b565b92915050565b5f805f805f60a08688031215610fbe57610fbd610b2e565b5b5f86013567ffffffffffffffff811115610fdb57610fda610b32565b5b610fe788828901610d95565b955050602086013567ffffffffffffffff81111561100857611007610b32565b5b61101488828901610d95565b945050604061102588828901610f67565b935050606061103688828901610f67565b925050608061104788828901610f91565b9150509295509295909350565b61105d81610b55565b82525050565b5f6020820190506110765f830184611054565b92915050565b7f4e487b71000000000000000000000000000000000000000000000000000000005f52602260045260245ffd5b5f60028204905060018216806110c057607f821691505b6020821081036110d3576110d261107c565b5b50919050565b5f81905092915050565b5f6110ed82610bec565b6110f781856110d9565b9350611107818560208601610c06565b80840191505092915050565b5f61111e82846110e3565b915081905092915050565b7f4e487b71000000000000000000000000000000000000000000000000000000005f52601160045260245ffd5b5f61116082610bbb565b91507fffffffffffffffffffffffffffffffffffffffffffffffffffffffffffffffff820361119257611191611129565b5b600182019050919050565b7f4e487b71000000000000000000000000000000000000000000000000000000005f52601260045260245ffd5b5f6111d482610bbb565b91506111df83610bbb565b9250826111ef576111ee61119d565b5b828204905092915050565b5f819050815f5260205f209050919050565b5f6020601f8301049050919050565b5f82821b905092915050565b5f600883026112567fffffffffffffffffffffffffffffffffffffffffffffffffffffffffffffffff8261121b565b611260868361121b565b95508019841693508086168417925050509392505050565b5f819050919050565b5f61129b61129661129184610bbb565b611278565b610bbb565b9050919050565b5f819050919050565b6112b483611281565b6112c86112c0826112a2565b848454611227565b825550505050565b5f90565b6112dc6112d0565b6112e78184846112ab565b505050565b5b8181101561130a576112ff5f826112d4565b6001810190506112ed565b5050565b601f82111561134f57611320816111fa565b6113298461120c565b81016020851015611338578190505b61134c6113448561120c565b8301826112ec565b50505b505050565b5f82821c905092915050565b5f61136f5f1984600802611354565b1980831691505092915050565b5f6113878383611360565b9150826002028217905092915050565b6113a082610bec565b67ffffffffffffffff8111156113b9576113b8610c9e565b5b6113c382546110a9565b6113ce82828561130e565b5f60209050601f8311600181146113ff575f84156113ed578287015190505b6113f7858261137c565b86555061145e565b601f19841661140d866111fa565b5f5b828110156114345784890151825560018201915060208501945060208101905061140f565b86831015611451578489015161144d601f891682611360565b8355505b6001600288020188555050505b505050505050565b5f61147082610bbb565b915061147b83610bbb565b925082820261148981610bbb565b915082820484148315176114a05761149f611129565b5b509291505056fea26469706673582212204c7fca599ca816379aa2c9d0d2def204fd95a76b8ac094c124923da2672689fc64736f6c63430008180033a264697066735822122055a80260f7cd8513d81c9f81070f76df049637f4ebb3c8ae5c87cb6101cdd67b64736f6c63430008180033","opcodes":"PUSH1 0x80 PUSH1 0x40 MSTORE CALLVALUE DUP1 ISZERO PUSH2 0xF JUMPI PUSH0 DUP1 REVERT JUMPDEST POP CALLER PUSH1 0x1 PUSH0 PUSH2 0x100 EXP DUP2 SLOAD DUP2 PUSH20 0xFFFFFFFFFFFFFFFFFFFFFFFFFFFFFFFFFFFFFFFF MUL NOT AND SWAP1 DUP4 PUSH20 0xFFFFFFFFFFFFFFFFFFFFFFFFFFFFFFFFFFFFFFFF AND MUL OR SWAP1 SSTORE POP PUSH2 0x2919 DUP1 PUSH2 0x5D PUSH0 CODECOPY PUSH0 RETURN INVALID PUSH1 0x80 PUSH1 0x40 MSTORE CALLVALUE DUP1 ISZERO PUSH3 0x10 JUMPI PUSH0 DUP1 REVERT JUMPDEST POP PUSH1 0x4 CALLDATASIZE LT PUSH3 0x50 JUMPI PUSH0 CALLDATALOAD PUSH1 0xE0 SHR DUP1 PUSH4 0x4ACB9D4F EQ PUSH3 0x54 JUMPI DUP1 PUSH4 0x94D2D7A7 EQ PUSH3 0x76 JUMPI DUP1 PUSH4 0xA6B03633 EQ PUSH3 0x98 JUMPI DUP1 PUSH4 0xF102A67C EQ PUSH3 0xBA JUMPI JUMPDEST PUSH0 DUP1 REVERT JUMPDEST PUSH3 0x5E PUSH3 0xDA JUMP JUMPDEST PUSH1 0x40 MLOAD PUSH3 0x6D SWAP2 SWAP1 PUSH3 0x5ED JUMP JUMPDEST PUSH1 0x40 MLOAD DUP1 SWAP2 SUB SWAP1 RETURN JUMPDEST PUSH3 0x80 PUSH3 0x166 JUMP JUMPDEST PUSH1 0x40 MLOAD PUSH3 0x8F SWAP2 SWAP1 PUSH3 0x620 JUMP JUMPDEST PUSH1 0x40 MLOAD DUP1 SWAP2 SUB SWAP1 RETURN JUMPDEST PUSH3 0xA2 PUSH3 0x18E JUMP JUMPDEST PUSH1 0x40 MLOAD PUSH3 0xB1 SWAP2 SWAP1 PUSH3 0x7EB JUMP JUMPDEST PUSH1 0x40 MLOAD DUP1 SWAP2 SUB SWAP1 RETURN JUMPDEST PUSH3 0xD8 PUSH1 0x4 DUP1 CALLDATASIZE SUB DUP2 ADD SWAP1 PUSH3 0xD2 SWAP2 SWAP1 PUSH3 0x99E JUMP JUMPDEST PUSH3 0x32D JUMP JUMPDEST STOP JUMPDEST PUSH1 0x60 PUSH0 DUP1 SLOAD DUP1 PUSH1 0x20 MUL PUSH1 0x20 ADD PUSH1 0x40 MLOAD SWAP1 DUP2 ADD PUSH1 0x40 MSTORE DUP1 SWAP3 SWAP2 SWAP1 DUP2 DUP2 MSTORE PUSH1 0x20 ADD DUP3 DUP1 SLOAD DUP1 ISZERO PUSH3 0x15C JUMPI PUSH1 0x20 MUL DUP3 ADD SWAP2 SWAP1 PUSH0 MSTORE PUSH1 0x20 PUSH0 KECCAK256 SWAP1 JUMPDEST DUP2 PUSH0 SWAP1 SLOAD SWAP1 PUSH2 0x100 EXP SWAP1 DIV PUSH20 0xFFFFFFFFFFFFFFFFFFFFFFFFFFFFFFFFFFFFFFFF AND PUSH20 0xFFFFFFFFFFFFFFFFFFFFFFFFFFFFFFFFFFFFFFFF AND DUP2 MSTORE PUSH1 0x20 ADD SWAP1 PUSH1 0x1 ADD SWAP1 DUP1 DUP4 GT PUSH3 0x112 JUMPI JUMPDEST POP POP POP POP POP SWAP1 POP SWAP1 JUMP JUMPDEST PUSH0 PUSH1 0x1 PUSH0 SWAP1 SLOAD SWAP1 PUSH2 0x100 EXP SWAP1 DIV PUSH20 0xFFFFFFFFFFFFFFFFFFFFFFFFFFFFFFFFFFFFFFFF AND SWAP1 POP SWAP1 JUMP JUMPDEST PUSH1 0x60 PUSH1 0x2 DUP1 SLOAD DUP1 PUSH1 0x20 MUL PUSH1 0x20 ADD PUSH1 0x40 MLOAD SWAP1 DUP2 ADD PUSH1 0x40 MSTORE DUP1 SWAP3 SWAP2 SWAP1 DUP2 DUP2 MSTORE PUSH1 0x20 ADD PUSH0 SWAP1 JUMPDEST DUP3 DUP3 LT ISZERO PUSH3 0x324 JUMPI DUP4 DUP3 SWAP1 PUSH0 MSTORE PUSH1 0x20 PUSH0 KECCAK256 SWAP1 PUSH1 0x3 MUL ADD PUSH1 0x40 MLOAD DUP1 PUSH1 0x60 ADD PUSH1 0x40 MSTORE SWAP1 DUP2 PUSH0 DUP3 ADD PUSH0 SWAP1 SLOAD SWAP1 PUSH2 0x100 EXP SWAP1 DIV PUSH20 0xFFFFFFFFFFFFFFFFFFFFFFFFFFFFFFFFFFFFFFFF AND PUSH20 0xFFFFFFFFFFFFFFFFFFFFFFFFFFFFFFFFFFFFFFFF AND PUSH20 0xFFFFFFFFFFFFFFFFFFFFFFFFFFFFFFFFFFFFFFFF AND DUP2 MSTORE PUSH1 0x20 ADD PUSH1 0x1 DUP3 ADD DUP1 SLOAD PUSH3 0x239 SWAP1 PUSH3 0xA2F JUMP JUMPDEST DUP1 PUSH1 0x1F ADD PUSH1 0x20 DUP1 SWAP2 DIV MUL PUSH1 0x20 ADD PUSH1 0x40 MLOAD SWAP1 DUP2 ADD PUSH1 0x40 MSTORE DUP1 SWAP3 SWAP2 SWAP1 DUP2 DUP2 MSTORE PUSH1 0x20 ADD DUP3 DUP1 SLOAD PUSH3 0x267 SWAP1 PUSH3 0xA2F JUMP JUMPDEST DUP1 ISZERO PUSH3 0x2B6 JUMPI DUP1 PUSH1 0x1F LT PUSH3 0x28C JUMPI PUSH2 0x100 DUP1 DUP4 SLOAD DIV MUL DUP4 MSTORE SWAP2 PUSH1 0x20 ADD SWAP2 PUSH3 0x2B6 JUMP JUMPDEST DUP3 ADD SWAP2 SWAP1 PUSH0 MSTORE PUSH1 0x20 PUSH0 KECCAK256 SWAP1 JUMPDEST DUP2 SLOAD DUP2 MSTORE SWAP1 PUSH1 0x1 ADD SWAP1 PUSH1 0x20 ADD DUP1 DUP4 GT PUSH3 0x298 JUMPI DUP3 SWAP1 SUB PUSH1 0x1F AND DUP3 ADD SWAP2 JUMPDEST POP POP POP POP POP DUP2 MSTORE PUSH1 0x20 ADD PUSH1 0x2 DUP3 ADD PUSH0 SWAP1 SLOAD SWAP1 PUSH2 0x100 EXP SWAP1 DIV PUSH20 0xFFFFFFFFFFFFFFFFFFFFFFFFFFFFFFFFFFFFFFFF AND PUSH20 0xFFFFFFFFFFFFFFFFFFFFFFFFFFFFFFFFFFFFFFFF AND PUSH20 0xFFFFFFFFFFFFFFFFFFFFFFFFFFFFFFFFFFFFFFFF AND DUP2 MSTORE POP POP DUP2 MSTORE PUSH1 0x20 ADD SWAP1 PUSH1 0x1 ADD SWAP1 PUSH3 0x1B1 JUMP JUMPDEST POP POP POP POP SWAP1 POP SWAP1 JUMP JUMPDEST PUSH0 DUP3 DUP3 CALLER PUSH1 0x40 MLOAD PUSH3 0x33F SWAP1 PUSH3 0x4E6 JUMP JUMPDEST PUSH3 0x34D SWAP4 SWAP3 SWAP2 SWAP1 PUSH3 0xAC4 JUMP JUMPDEST PUSH1 0x40 MLOAD DUP1 SWAP2 SUB SWAP1 PUSH0 CREATE DUP1 ISZERO DUP1 ISZERO PUSH3 0x367 JUMPI RETURNDATASIZE PUSH0 DUP1 RETURNDATACOPY RETURNDATASIZE PUSH0 REVERT JUMPDEST POP SWAP1 POP PUSH0 DUP2 SWAP1 DUP1 PUSH1 0x1 DUP2 SLOAD ADD DUP1 DUP3 SSTORE DUP1 SWAP2 POP POP PUSH1 0x1 SWAP1 SUB SWAP1 PUSH0 MSTORE PUSH1 0x20 PUSH0 KECCAK256 ADD PUSH0 SWAP1 SWAP2 SWAP1 SWAP2 SWAP1 SWAP2 PUSH2 0x100 EXP DUP2 SLOAD DUP2 PUSH20 0xFFFFFFFFFFFFFFFFFFFFFFFFFFFFFFFFFFFFFFFF MUL NOT AND SWAP1 DUP4 PUSH20 0xFFFFFFFFFFFFFFFFFFFFFFFFFFFFFFFFFFFFFFFF AND MUL OR SWAP1 SSTORE POP PUSH0 PUSH1 0x40 MLOAD DUP1 PUSH1 0x60 ADD PUSH1 0x40 MSTORE DUP1 CALLER PUSH20 0xFFFFFFFFFFFFFFFFFFFFFFFFFFFFFFFFFFFFFFFF AND DUP2 MSTORE PUSH1 0x20 ADD DUP6 DUP2 MSTORE PUSH1 0x20 ADD DUP4 PUSH20 0xFFFFFFFFFFFFFFFFFFFFFFFFFFFFFFFFFFFFFFFF AND DUP2 MSTORE POP SWAP1 POP PUSH1 0x2 DUP2 SWAP1 DUP1 PUSH1 0x1 DUP2 SLOAD ADD DUP1 DUP3 SSTORE DUP1 SWAP2 POP POP PUSH1 0x1 SWAP1 SUB SWAP1 PUSH0 MSTORE PUSH1 0x20 PUSH0 KECCAK256 SWAP1 PUSH1 0x3 MUL ADD PUSH0 SWAP1 SWAP2 SWAP1 SWAP2 SWAP1 SWAP2 POP PUSH0 DUP3 ADD MLOAD DUP2 PUSH0 ADD PUSH0 PUSH2 0x100 EXP DUP2 SLOAD DUP2 PUSH20 0xFFFFFFFFFFFFFFFFFFFFFFFFFFFFFFFFFFFFFFFF MUL NOT AND SWAP1 DUP4 PUSH20 0xFFFFFFFFFFFFFFFFFFFFFFFFFFFFFFFFFFFFFFFF AND MUL OR SWAP1 SSTORE POP PUSH1 0x20 DUP3 ADD MLOAD DUP2 PUSH1 0x1 ADD SWAP1 DUP2 PUSH3 0x497 SWAP2 SWAP1 PUSH3 0xCC9 JUMP JUMPDEST POP PUSH1 0x40 DUP3 ADD MLOAD DUP2 PUSH1 0x2 ADD PUSH0 PUSH2 0x100 EXP DUP2 SLOAD DUP2 PUSH20 0xFFFFFFFFFFFFFFFFFFFFFFFFFFFFFFFFFFFFFFFF MUL NOT AND SWAP1 DUP4 PUSH20 0xFFFFFFFFFFFFFFFFFFFFFFFFFFFFFFFFFFFFFFFF AND MUL OR SWAP1 SSTORE POP POP POP POP POP POP POP JUMP JUMPDEST PUSH2 0x1B36 DUP1 PUSH3 0xDAE DUP4 CODECOPY ADD SWAP1 JUMP JUMPDEST PUSH0 DUP2 MLOAD SWAP1 POP SWAP2 SWAP1 POP JUMP JUMPDEST PUSH0 DUP3 DUP3 MSTORE PUSH1 0x20 DUP3 ADD SWAP1 POP SWAP3 SWAP2 POP POP JUMP JUMPDEST PUSH0 DUP2 SWAP1 POP PUSH1 0x20 DUP3 ADD SWAP1 POP SWAP2 SWAP1 POP JUMP JUMPDEST PUSH0 PUSH20 0xFFFFFFFFFFFFFFFFFFFFFFFFFFFFFFFFFFFFFFFF DUP3 AND SWAP1 POP SWAP2 SWAP1 POP JUMP JUMPDEST PUSH0 PUSH3 0x548 DUP3 PUSH3 0x51D JUMP JUMPDEST SWAP1 POP SWAP2 SWAP1 POP JUMP JUMPDEST PUSH3 0x55A DUP2 PUSH3 0x53C JUMP JUMPDEST DUP3 MSTORE POP POP JUMP JUMPDEST PUSH0 PUSH3 0x56D DUP4 DUP4 PUSH3 0x54F JUMP JUMPDEST PUSH1 0x20 DUP4 ADD SWAP1 POP SWAP3 SWAP2 POP POP JUMP JUMPDEST PUSH0 PUSH1 0x20 DUP3 ADD SWAP1 POP SWAP2 SWAP1 POP JUMP JUMPDEST PUSH0 PUSH3 0x591 DUP3 PUSH3 0x4F4 JUMP JUMPDEST PUSH3 0x59D DUP2 DUP6 PUSH3 0x4FE JUMP JUMPDEST SWAP4 POP PUSH3 0x5AA DUP4 PUSH3 0x50E JUMP JUMPDEST DUP1 PUSH0 JUMPDEST DUP4 DUP2 LT ISZERO PUSH3 0x5E0 JUMPI DUP2 MLOAD PUSH3 0x5C4 DUP9 DUP3 PUSH3 0x560 JUMP JUMPDEST SWAP8 POP PUSH3 0x5D1 DUP4 PUSH3 0x579 JUMP JUMPDEST SWAP3 POP POP PUSH1 0x1 DUP2 ADD SWAP1 POP PUSH3 0x5AD JUMP JUMPDEST POP DUP6 SWAP4 POP POP POP POP SWAP3 SWAP2 POP POP JUMP JUMPDEST PUSH0 PUSH1 0x20 DUP3 ADD SWAP1 POP DUP2 DUP2 SUB PUSH0 DUP4 ADD MSTORE PUSH3 0x607 DUP2 DUP5 PUSH3 0x585 JUMP JUMPDEST SWAP1 POP SWAP3 SWAP2 POP POP JUMP JUMPDEST PUSH3 0x61A DUP2 PUSH3 0x53C JUMP JUMPDEST DUP3 MSTORE POP POP JUMP JUMPDEST PUSH0 PUSH1 0x20 DUP3 ADD SWAP1 POP PUSH3 0x635 PUSH0 DUP4 ADD DUP5 PUSH3 0x60F JUMP JUMPDEST SWAP3 SWAP2 POP POP JUMP JUMPDEST PUSH0 DUP2 MLOAD SWAP1 POP SWAP2 SWAP1 POP JUMP JUMPDEST PUSH0 DUP3 DUP3 MSTORE PUSH1 0x20 DUP3 ADD SWAP1 POP SWAP3 SWAP2 POP POP JUMP JUMPDEST PUSH0 DUP2 SWAP1 POP PUSH1 0x20 DUP3 ADD SWAP1 POP SWAP2 SWAP1 POP JUMP JUMPDEST PUSH0 DUP2 MLOAD SWAP1 POP SWAP2 SWAP1 POP JUMP JUMPDEST PUSH0 DUP3 DUP3 MSTORE PUSH1 0x20 DUP3 ADD SWAP1 POP SWAP3 SWAP2 POP POP JUMP JUMPDEST PUSH0 JUMPDEST DUP4 DUP2 LT ISZERO PUSH3 0x69D JUMPI DUP1 DUP3 ADD MLOAD DUP2 DUP5 ADD MSTORE PUSH1 0x20 DUP2 ADD SWAP1 POP PUSH3 0x680 JUMP JUMPDEST PUSH0 DUP5 DUP5 ADD MSTORE POP POP POP POP JUMP JUMPDEST PUSH0 PUSH1 0x1F NOT PUSH1 0x1F DUP4 ADD AND SWAP1 POP SWAP2 SWAP1 POP JUMP JUMPDEST PUSH0 PUSH3 0x6C4 DUP3 PUSH3 0x664 JUMP JUMPDEST PUSH3 0x6D0 DUP2 DUP6 PUSH3 0x66E JUMP JUMPDEST SWAP4 POP PUSH3 0x6E2 DUP2 DUP6 PUSH1 0x20 DUP7 ADD PUSH3 0x67E JUMP JUMPDEST PUSH3 0x6ED DUP2 PUSH3 0x6A8 JUMP JUMPDEST DUP5 ADD SWAP2 POP POP SWAP3 SWAP2 POP POP JUMP JUMPDEST PUSH0 PUSH1 0x60 DUP4 ADD PUSH0 DUP4 ADD MLOAD PUSH3 0x70F PUSH0 DUP7 ADD DUP3 PUSH3 0x54F JUMP JUMPDEST POP PUSH1 0x20 DUP4 ADD MLOAD DUP5 DUP3 SUB PUSH1 0x20 DUP7 ADD MSTORE PUSH3 0x729 DUP3 DUP3 PUSH3 0x6B8 JUMP JUMPDEST SWAP2 POP POP PUSH1 0x40 DUP4 ADD MLOAD PUSH3 0x740 PUSH1 0x40 DUP7 ADD DUP3 PUSH3 0x54F JUMP JUMPDEST POP DUP1 SWAP2 POP POP SWAP3 SWAP2 POP POP JUMP JUMPDEST PUSH0 PUSH3 0x758 DUP4 DUP4 PUSH3 0x6F8 JUMP JUMPDEST SWAP1 POP SWAP3 SWAP2 POP POP JUMP JUMPDEST PUSH0 PUSH1 0x20 DUP3 ADD SWAP1 POP SWAP2 SWAP1 POP JUMP JUMPDEST PUSH0 PUSH3 0x778 DUP3 PUSH3 0x63B JUMP JUMPDEST PUSH3 0x784 DUP2 DUP6 PUSH3 0x645 JUMP JUMPDEST SWAP4 POP DUP4 PUSH1 0x20 DUP3 MUL DUP6 ADD PUSH3 0x798 DUP6 PUSH3 0x655 JUMP JUMPDEST DUP1 PUSH0 JUMPDEST DUP6 DUP2 LT ISZERO PUSH3 0x7D9 JUMPI DUP5 DUP5 SUB DUP10 MSTORE DUP2 MLOAD PUSH3 0x7B7 DUP6 DUP3 PUSH3 0x74B JUMP JUMPDEST SWAP5 POP PUSH3 0x7C4 DUP4 PUSH3 0x760 JUMP JUMPDEST SWAP3 POP PUSH1 0x20 DUP11 ADD SWAP10 POP POP PUSH1 0x1 DUP2 ADD SWAP1 POP PUSH3 0x79B JUMP JUMPDEST POP DUP3 SWAP8 POP DUP8 SWAP6 POP POP POP POP POP POP SWAP3 SWAP2 POP POP JUMP JUMPDEST PUSH0 PUSH1 0x20 DUP3 ADD SWAP1 POP DUP2 DUP2 SUB PUSH0 DUP4 ADD MSTORE PUSH3 0x805 DUP2 DUP5 PUSH3 0x76C JUMP JUMPDEST SWAP1 POP SWAP3 SWAP2 POP POP JUMP JUMPDEST PUSH0 PUSH1 0x40 MLOAD SWAP1 POP SWAP1 JUMP JUMPDEST PUSH0 DUP1 REVERT JUMPDEST PUSH0 DUP1 REVERT JUMPDEST PUSH0 DUP1 REVERT JUMPDEST PUSH0 DUP1 REVERT JUMPDEST PUSH32 0x4E487B7100000000000000000000000000000000000000000000000000000000 PUSH0 MSTORE PUSH1 0x41 PUSH1 0x4 MSTORE PUSH1 0x24 PUSH0 REVERT JUMPDEST PUSH3 0x85E DUP3 PUSH3 0x6A8 JUMP JUMPDEST DUP2 ADD DUP2 DUP2 LT PUSH8 0xFFFFFFFFFFFFFFFF DUP3 GT OR ISZERO PUSH3 0x880 JUMPI PUSH3 0x87F PUSH3 0x826 JUMP JUMPDEST JUMPDEST DUP1 PUSH1 0x40 MSTORE POP POP POP JUMP JUMPDEST PUSH0 PUSH3 0x894 PUSH3 0x80D JUMP JUMPDEST SWAP1 POP PUSH3 0x8A2 DUP3 DUP3 PUSH3 0x853 JUMP JUMPDEST SWAP2 SWAP1 POP JUMP JUMPDEST PUSH0 PUSH8 0xFFFFFFFFFFFFFFFF DUP3 GT ISZERO PUSH3 0x8C4 JUMPI PUSH3 0x8C3 PUSH3 0x826 JUMP JUMPDEST JUMPDEST PUSH3 0x8CF DUP3 PUSH3 0x6A8 JUMP JUMPDEST SWAP1 POP PUSH1 0x20 DUP2 ADD SWAP1 POP SWAP2 SWAP1 POP JUMP JUMPDEST DUP3 DUP2 DUP4 CALLDATACOPY PUSH0 DUP4 DUP4 ADD MSTORE POP POP POP JUMP JUMPDEST PUSH0 PUSH3 0x900 PUSH3 0x8FA DUP5 PUSH3 0x8A7 JUMP JUMPDEST PUSH3 0x889 JUMP JUMPDEST SWAP1 POP DUP3 DUP2 MSTORE PUSH1 0x20 DUP2 ADD DUP5 DUP5 DUP5 ADD GT ISZERO PUSH3 0x91F JUMPI PUSH3 0x91E PUSH3 0x822 JUMP JUMPDEST JUMPDEST PUSH3 0x92C DUP5 DUP3 DUP6 PUSH3 0x8DC JUMP JUMPDEST POP SWAP4 SWAP3 POP POP POP JUMP JUMPDEST PUSH0 DUP3 PUSH1 0x1F DUP4 ADD SLT PUSH3 0x94B JUMPI PUSH3 0x94A PUSH3 0x81E JUMP JUMPDEST JUMPDEST DUP2 CALLDATALOAD PUSH3 0x95D DUP5 DUP3 PUSH1 0x20 DUP7 ADD PUSH3 0x8EA JUMP JUMPDEST SWAP2 POP POP SWAP3 SWAP2 POP POP JUMP JUMPDEST PUSH0 DUP2 SWAP1 POP SWAP2 SWAP1 POP JUMP JUMPDEST PUSH3 0x97A DUP2 PUSH3 0x966 JUMP JUMPDEST DUP2 EQ PUSH3 0x985 JUMPI PUSH0 DUP1 REVERT JUMPDEST POP JUMP JUMPDEST PUSH0 DUP2 CALLDATALOAD SWAP1 POP PUSH3 0x998 DUP2 PUSH3 0x96F JUMP JUMPDEST SWAP3 SWAP2 POP POP JUMP JUMPDEST PUSH0 DUP1 PUSH1 0x40 DUP4 DUP6 SUB SLT ISZERO PUSH3 0x9B7 JUMPI PUSH3 0x9B6 PUSH3 0x816 JUMP JUMPDEST JUMPDEST PUSH0 DUP4 ADD CALLDATALOAD PUSH8 0xFFFFFFFFFFFFFFFF DUP2 GT ISZERO PUSH3 0x9D7 JUMPI PUSH3 0x9D6 PUSH3 0x81A JUMP JUMPDEST JUMPDEST PUSH3 0x9E5 DUP6 DUP3 DUP7 ADD PUSH3 0x934 JUMP JUMPDEST SWAP3 POP POP PUSH1 0x20 PUSH3 0x9F8 DUP6 DUP3 DUP7 ADD PUSH3 0x988 JUMP JUMPDEST SWAP2 POP POP SWAP3 POP SWAP3 SWAP1 POP JUMP JUMPDEST PUSH32 0x4E487B7100000000000000000000000000000000000000000000000000000000 PUSH0 MSTORE PUSH1 0x22 PUSH1 0x4 MSTORE PUSH1 0x24 PUSH0 REVERT JUMPDEST PUSH0 PUSH1 0x2 DUP3 DIV SWAP1 POP PUSH1 0x1 DUP3 AND DUP1 PUSH3 0xA47 JUMPI PUSH1 0x7F DUP3 AND SWAP2 POP JUMPDEST PUSH1 0x20 DUP3 LT DUP2 SUB PUSH3 0xA5D JUMPI PUSH3 0xA5C PUSH3 0xA02 JUMP JUMPDEST JUMPDEST POP SWAP2 SWAP1 POP JUMP JUMPDEST PUSH0 DUP3 DUP3 MSTORE PUSH1 0x20 DUP3 ADD SWAP1 POP SWAP3 SWAP2 POP POP JUMP JUMPDEST PUSH0 PUSH3 0xA7F DUP3 PUSH3 0x664 JUMP JUMPDEST PUSH3 0xA8B DUP2 DUP6 PUSH3 0xA63 JUMP JUMPDEST SWAP4 POP PUSH3 0xA9D DUP2 DUP6 PUSH1 0x20 DUP7 ADD PUSH3 0x67E JUMP JUMPDEST PUSH3 0xAA8 DUP2 PUSH3 0x6A8 JUMP JUMPDEST DUP5 ADD SWAP2 POP POP SWAP3 SWAP2 POP POP JUMP JUMPDEST PUSH3 0xABE DUP2 PUSH3 0x966 JUMP JUMPDEST DUP3 MSTORE POP POP JUMP JUMPDEST PUSH0 PUSH1 0x60 DUP3 ADD SWAP1 POP DUP2 DUP2 SUB PUSH0 DUP4 ADD MSTORE PUSH3 0xADE DUP2 DUP7 PUSH3 0xA73 JUMP JUMPDEST SWAP1 POP PUSH3 0xAEF PUSH1 0x20 DUP4 ADD DUP6 PUSH3 0xAB3 JUMP JUMPDEST PUSH3 0xAFE PUSH1 0x40 DUP4 ADD DUP5 PUSH3 0x60F JUMP JUMPDEST SWAP5 SWAP4 POP POP POP POP JUMP JUMPDEST PUSH0 DUP2 SWAP1 POP DUP2 PUSH0 MSTORE PUSH1 0x20 PUSH0 KECCAK256 SWAP1 POP SWAP2 SWAP1 POP JUMP JUMPDEST PUSH0 PUSH1 0x20 PUSH1 0x1F DUP4 ADD DIV SWAP1 POP SWAP2 SWAP1 POP JUMP JUMPDEST PUSH0 DUP3 DUP3 SHL SWAP1 POP SWAP3 SWAP2 POP POP JUMP JUMPDEST PUSH0 PUSH1 0x8 DUP4 MUL PUSH3 0xB64 PUSH32 0xFFFFFFFFFFFFFFFFFFFFFFFFFFFFFFFFFFFFFFFFFFFFFFFFFFFFFFFFFFFFFFFF DUP3 PUSH3 0xB27 JUMP JUMPDEST PUSH3 0xB70 DUP7 DUP4 PUSH3 0xB27 JUMP JUMPDEST SWAP6 POP DUP1 NOT DUP5 AND SWAP4 POP DUP1 DUP7 AND DUP5 OR SWAP3 POP POP POP SWAP4 SWAP3 POP POP POP JUMP JUMPDEST PUSH0 DUP2 SWAP1 POP SWAP2 SWAP1 POP JUMP JUMPDEST PUSH0 PUSH3 0xBB1 PUSH3 0xBAB PUSH3 0xBA5 DUP5 PUSH3 0x966 JUMP JUMPDEST PUSH3 0xB88 JUMP JUMPDEST PUSH3 0x966 JUMP JUMPDEST SWAP1 POP SWAP2 SWAP1 POP JUMP JUMPDEST PUSH0 DUP2 SWAP1 POP SWAP2 SWAP1 POP JUMP JUMPDEST PUSH3 0xBCC DUP4 PUSH3 0xB91 JUMP JUMPDEST PUSH3 0xBE4 PUSH3 0xBDB DUP3 PUSH3 0xBB8 JUMP JUMPDEST DUP5 DUP5 SLOAD PUSH3 0xB33 JUMP JUMPDEST DUP3 SSTORE POP POP POP POP JUMP JUMPDEST PUSH0 SWAP1 JUMP JUMPDEST PUSH3 0xBFA PUSH3 0xBEC JUMP JUMPDEST PUSH3 0xC07 DUP2 DUP5 DUP5 PUSH3 0xBC1 JUMP JUMPDEST POP POP POP JUMP JUMPDEST JUMPDEST DUP2 DUP2 LT ISZERO PUSH3 0xC2E JUMPI PUSH3 0xC22 PUSH0 DUP3 PUSH3 0xBF0 JUMP JUMPDEST PUSH1 0x1 DUP2 ADD SWAP1 POP PUSH3 0xC0D JUMP JUMPDEST POP POP JUMP JUMPDEST PUSH1 0x1F DUP3 GT ISZERO PUSH3 0xC7D JUMPI PUSH3 0xC47 DUP2 PUSH3 0xB06 JUMP JUMPDEST PUSH3 0xC52 DUP5 PUSH3 0xB18 JUMP JUMPDEST DUP2 ADD PUSH1 0x20 DUP6 LT ISZERO PUSH3 0xC62 JUMPI DUP2 SWAP1 POP JUMPDEST PUSH3 0xC7A PUSH3 0xC71 DUP6 PUSH3 0xB18 JUMP JUMPDEST DUP4 ADD DUP3 PUSH3 0xC0C JUMP JUMPDEST POP POP JUMPDEST POP POP POP JUMP JUMPDEST PUSH0 DUP3 DUP3 SHR SWAP1 POP SWAP3 SWAP2 POP POP JUMP JUMPDEST PUSH0 PUSH3 0xC9F PUSH0 NOT DUP5 PUSH1 0x8 MUL PUSH3 0xC82 JUMP JUMPDEST NOT DUP1 DUP4 AND SWAP2 POP POP SWAP3 SWAP2 POP POP JUMP JUMPDEST PUSH0 PUSH3 0xCB9 DUP4 DUP4 PUSH3 0xC8E JUMP JUMPDEST SWAP2 POP DUP3 PUSH1 0x2 MUL DUP3 OR SWAP1 POP SWAP3 SWAP2 POP POP JUMP JUMPDEST PUSH3 0xCD4 DUP3 PUSH3 0x664 JUMP JUMPDEST PUSH8 0xFFFFFFFFFFFFFFFF DUP2 GT ISZERO PUSH3 0xCF0 JUMPI PUSH3 0xCEF PUSH3 0x826 JUMP JUMPDEST JUMPDEST PUSH3 0xCFC DUP3 SLOAD PUSH3 0xA2F JUMP JUMPDEST PUSH3 0xD09 DUP3 DUP3 DUP6 PUSH3 0xC32 JUMP JUMPDEST PUSH0 PUSH1 0x20 SWAP1 POP PUSH1 0x1F DUP4 GT PUSH1 0x1 DUP2 EQ PUSH3 0xD3F JUMPI PUSH0 DUP5 ISZERO PUSH3 0xD2A JUMPI DUP3 DUP8 ADD MLOAD SWAP1 POP JUMPDEST PUSH3 0xD36 DUP6 DUP3 PUSH3 0xCAC JUMP JUMPDEST DUP7 SSTORE POP PUSH3 0xDA5 JUMP JUMPDEST PUSH1 0x1F NOT DUP5 AND PUSH3 0xD4F DUP7 PUSH3 0xB06 JUMP JUMPDEST PUSH0 JUMPDEST DUP3 DUP2 LT ISZERO PUSH3 0xD78 JUMPI DUP5 DUP10 ADD MLOAD DUP3 SSTORE PUSH1 0x1 DUP3 ADD SWAP2 POP PUSH1 0x20 DUP6 ADD SWAP5 POP PUSH1 0x20 DUP2 ADD SWAP1 POP PUSH3 0xD51 JUMP JUMPDEST DUP7 DUP4 LT ISZERO PUSH3 0xD98 JUMPI DUP5 DUP10 ADD MLOAD PUSH3 0xD94 PUSH1 0x1F DUP10 AND DUP3 PUSH3 0xC8E JUMP JUMPDEST DUP4 SSTORE POP JUMPDEST PUSH1 0x1 PUSH1 0x2 DUP9 MUL ADD DUP9 SSTORE POP POP POP JUMPDEST POP POP POP POP POP POP JUMP INVALID PUSH1 0x80 PUSH1 0x40 MSTORE CALLVALUE DUP1 ISZERO PUSH3 0x10 JUMPI PUSH0 DUP1 REVERT JUMPDEST POP PUSH1 0x40 MLOAD PUSH3 0x1B36 CODESIZE SUB DUP1 PUSH3 0x1B36 DUP4 CODECOPY DUP2 DUP2 ADD PUSH1 0x40 MSTORE DUP2 ADD SWAP1 PUSH3 0x36 SWAP2 SWAP1 PUSH3 0x2C1 JUMP JUMPDEST PUSH0 DUP3 GT PUSH3 0x42 JUMPI PUSH0 DUP1 REVERT JUMPDEST DUP1 PUSH1 0x1 PUSH0 PUSH2 0x100 EXP DUP2 SLOAD DUP2 PUSH20 0xFFFFFFFFFFFFFFFFFFFFFFFFFFFFFFFFFFFFFFFF MUL NOT AND SWAP1 DUP4 PUSH20 0xFFFFFFFFFFFFFFFFFFFFFFFFFFFFFFFFFFFFFFFF AND MUL OR SWAP1 SSTORE POP DUP3 PUSH0 SWAP1 DUP2 PUSH3 0x92 SWAP2 SWAP1 PUSH3 0x567 JUMP JUMPDEST POP DUP2 PUSH1 0x4 DUP2 SWAP1 SSTORE POP POP POP POP PUSH3 0x64B JUMP JUMPDEST PUSH0 PUSH1 0x40 MLOAD SWAP1 POP SWAP1 JUMP JUMPDEST PUSH0 DUP1 REVERT JUMPDEST PUSH0 DUP1 REVERT JUMPDEST PUSH0 DUP1 REVERT JUMPDEST PUSH0 DUP1 REVERT JUMPDEST PUSH0 PUSH1 0x1F NOT PUSH1 0x1F DUP4 ADD AND SWAP1 POP SWAP2 SWAP1 POP JUMP JUMPDEST PUSH32 0x4E487B7100000000000000000000000000000000000000000000000000000000 PUSH0 MSTORE PUSH1 0x41 PUSH1 0x4 MSTORE PUSH1 0x24 PUSH0 REVERT JUMPDEST PUSH3 0x104 DUP3 PUSH3 0xBC JUMP JUMPDEST DUP2 ADD DUP2 DUP2 LT PUSH8 0xFFFFFFFFFFFFFFFF DUP3 GT OR ISZERO PUSH3 0x126 JUMPI PUSH3 0x125 PUSH3 0xCC JUMP JUMPDEST JUMPDEST DUP1 PUSH1 0x40 MSTORE POP POP POP JUMP JUMPDEST PUSH0 PUSH3 0x13A PUSH3 0xA3 JUMP JUMPDEST SWAP1 POP PUSH3 0x148 DUP3 DUP3 PUSH3 0xF9 JUMP JUMPDEST SWAP2 SWAP1 POP JUMP JUMPDEST PUSH0 PUSH8 0xFFFFFFFFFFFFFFFF DUP3 GT ISZERO PUSH3 0x16A JUMPI PUSH3 0x169 PUSH3 0xCC JUMP JUMPDEST JUMPDEST PUSH3 0x175 DUP3 PUSH3 0xBC JUMP JUMPDEST SWAP1 POP PUSH1 0x20 DUP2 ADD SWAP1 POP SWAP2 SWAP1 POP JUMP JUMPDEST PUSH0 JUMPDEST DUP4 DUP2 LT ISZERO PUSH3 0x1A1 JUMPI DUP1 DUP3 ADD MLOAD DUP2 DUP5 ADD MSTORE PUSH1 0x20 DUP2 ADD SWAP1 POP PUSH3 0x184 JUMP JUMPDEST PUSH0 DUP5 DUP5 ADD MSTORE POP POP POP POP JUMP JUMPDEST PUSH0 PUSH3 0x1C2 PUSH3 0x1BC DUP5 PUSH3 0x14D JUMP JUMPDEST PUSH3 0x12F JUMP JUMPDEST SWAP1 POP DUP3 DUP2 MSTORE PUSH1 0x20 DUP2 ADD DUP5 DUP5 DUP5 ADD GT ISZERO PUSH3 0x1E1 JUMPI PUSH3 0x1E0 PUSH3 0xB8 JUMP JUMPDEST JUMPDEST PUSH3 0x1EE DUP5 DUP3 DUP6 PUSH3 0x182 JUMP JUMPDEST POP SWAP4 SWAP3 POP POP POP JUMP JUMPDEST PUSH0 DUP3 PUSH1 0x1F DUP4 ADD SLT PUSH3 0x20D JUMPI PUSH3 0x20C PUSH3 0xB4 JUMP JUMPDEST JUMPDEST DUP2 MLOAD PUSH3 0x21F DUP5 DUP3 PUSH1 0x20 DUP7 ADD PUSH3 0x1AC JUMP JUMPDEST SWAP2 POP POP SWAP3 SWAP2 POP POP JUMP JUMPDEST PUSH0 DUP2 SWAP1 POP SWAP2 SWAP1 POP JUMP JUMPDEST PUSH3 0x23C DUP2 PUSH3 0x228 JUMP JUMPDEST DUP2 EQ PUSH3 0x247 JUMPI PUSH0 DUP1 REVERT JUMPDEST POP JUMP JUMPDEST PUSH0 DUP2 MLOAD SWAP1 POP PUSH3 0x25A DUP2 PUSH3 0x231 JUMP JUMPDEST SWAP3 SWAP2 POP POP JUMP JUMPDEST PUSH0 PUSH20 0xFFFFFFFFFFFFFFFFFFFFFFFFFFFFFFFFFFFFFFFF DUP3 AND SWAP1 POP SWAP2 SWAP1 POP JUMP JUMPDEST PUSH0 PUSH3 0x28B DUP3 PUSH3 0x260 JUMP JUMPDEST SWAP1 POP SWAP2 SWAP1 POP JUMP JUMPDEST PUSH3 0x29D DUP2 PUSH3 0x27F JUMP JUMPDEST DUP2 EQ PUSH3 0x2A8 JUMPI PUSH0 DUP1 REVERT JUMPDEST POP JUMP JUMPDEST PUSH0 DUP2 MLOAD SWAP1 POP PUSH3 0x2BB DUP2 PUSH3 0x292 JUMP JUMPDEST SWAP3 SWAP2 POP POP JUMP JUMPDEST PUSH0 DUP1 PUSH0 PUSH1 0x60 DUP5 DUP7 SUB SLT ISZERO PUSH3 0x2DB JUMPI PUSH3 0x2DA PUSH3 0xAC JUMP JUMPDEST JUMPDEST PUSH0 DUP5 ADD MLOAD PUSH8 0xFFFFFFFFFFFFFFFF DUP2 GT ISZERO PUSH3 0x2FB JUMPI PUSH3 0x2FA PUSH3 0xB0 JUMP JUMPDEST JUMPDEST PUSH3 0x309 DUP7 DUP3 DUP8 ADD PUSH3 0x1F6 JUMP JUMPDEST SWAP4 POP POP PUSH1 0x20 PUSH3 0x31C DUP7 DUP3 DUP8 ADD PUSH3 0x24A JUMP JUMPDEST SWAP3 POP POP PUSH1 0x40 PUSH3 0x32F DUP7 DUP3 DUP8 ADD PUSH3 0x2AB JUMP JUMPDEST SWAP2 POP POP SWAP3 POP SWAP3 POP SWAP3 JUMP JUMPDEST PUSH0 DUP2 MLOAD SWAP1 POP SWAP2 SWAP1 POP JUMP JUMPDEST PUSH32 0x4E487B7100000000000000000000000000000000000000000000000000000000 PUSH0 MSTORE PUSH1 0x22 PUSH1 0x4 MSTORE PUSH1 0x24 PUSH0 REVERT JUMPDEST PUSH0 PUSH1 0x2 DUP3 DIV SWAP1 POP PUSH1 0x1 DUP3 AND DUP1 PUSH3 0x388 JUMPI PUSH1 0x7F DUP3 AND SWAP2 POP JUMPDEST PUSH1 0x20 DUP3 LT DUP2 SUB PUSH3 0x39E JUMPI PUSH3 0x39D PUSH3 0x343 JUMP JUMPDEST JUMPDEST POP SWAP2 SWAP1 POP JUMP JUMPDEST PUSH0 DUP2 SWAP1 POP DUP2 PUSH0 MSTORE PUSH1 0x20 PUSH0 KECCAK256 SWAP1 POP SWAP2 SWAP1 POP JUMP JUMPDEST PUSH0 PUSH1 0x20 PUSH1 0x1F DUP4 ADD DIV SWAP1 POP SWAP2 SWAP1 POP JUMP JUMPDEST PUSH0 DUP3 DUP3 SHL SWAP1 POP SWAP3 SWAP2 POP POP JUMP JUMPDEST PUSH0 PUSH1 0x8 DUP4 MUL PUSH3 0x402 PUSH32 0xFFFFFFFFFFFFFFFFFFFFFFFFFFFFFFFFFFFFFFFFFFFFFFFFFFFFFFFFFFFFFFFF DUP3 PUSH3 0x3C5 JUMP JUMPDEST PUSH3 0x40E DUP7 DUP4 PUSH3 0x3C5 JUMP JUMPDEST SWAP6 POP DUP1 NOT DUP5 AND SWAP4 POP DUP1 DUP7 AND DUP5 OR SWAP3 POP POP POP SWAP4 SWAP3 POP POP POP JUMP JUMPDEST PUSH0 DUP2 SWAP1 POP SWAP2 SWAP1 POP JUMP JUMPDEST PUSH0 PUSH3 0x44F PUSH3 0x449 PUSH3 0x443 DUP5 PUSH3 0x228 JUMP JUMPDEST PUSH3 0x426 JUMP JUMPDEST PUSH3 0x228 JUMP JUMPDEST SWAP1 POP SWAP2 SWAP1 POP JUMP JUMPDEST PUSH0 DUP2 SWAP1 POP SWAP2 SWAP1 POP JUMP JUMPDEST PUSH3 0x46A DUP4 PUSH3 0x42F JUMP JUMPDEST PUSH3 0x482 PUSH3 0x479 DUP3 PUSH3 0x456 JUMP JUMPDEST DUP5 DUP5 SLOAD PUSH3 0x3D1 JUMP JUMPDEST DUP3 SSTORE POP POP POP POP JUMP JUMPDEST PUSH0 SWAP1 JUMP JUMPDEST PUSH3 0x498 PUSH3 0x48A JUMP JUMPDEST PUSH3 0x4A5 DUP2 DUP5 DUP5 PUSH3 0x45F JUMP JUMPDEST POP POP POP JUMP JUMPDEST JUMPDEST DUP2 DUP2 LT ISZERO PUSH3 0x4CC JUMPI PUSH3 0x4C0 PUSH0 DUP3 PUSH3 0x48E JUMP JUMPDEST PUSH1 0x1 DUP2 ADD SWAP1 POP PUSH3 0x4AB JUMP JUMPDEST POP POP JUMP JUMPDEST PUSH1 0x1F DUP3 GT ISZERO PUSH3 0x51B JUMPI PUSH3 0x4E5 DUP2 PUSH3 0x3A4 JUMP JUMPDEST PUSH3 0x4F0 DUP5 PUSH3 0x3B6 JUMP JUMPDEST DUP2 ADD PUSH1 0x20 DUP6 LT ISZERO PUSH3 0x500 JUMPI DUP2 SWAP1 POP JUMPDEST PUSH3 0x518 PUSH3 0x50F DUP6 PUSH3 0x3B6 JUMP JUMPDEST DUP4 ADD DUP3 PUSH3 0x4AA JUMP JUMPDEST POP POP JUMPDEST POP POP POP JUMP JUMPDEST PUSH0 DUP3 DUP3 SHR SWAP1 POP SWAP3 SWAP2 POP POP JUMP JUMPDEST PUSH0 PUSH3 0x53D PUSH0 NOT DUP5 PUSH1 0x8 MUL PUSH3 0x520 JUMP JUMPDEST NOT DUP1 DUP4 AND SWAP2 POP POP SWAP3 SWAP2 POP POP JUMP JUMPDEST PUSH0 PUSH3 0x557 DUP4 DUP4 PUSH3 0x52C JUMP JUMPDEST SWAP2 POP DUP3 PUSH1 0x2 MUL DUP3 OR SWAP1 POP SWAP3 SWAP2 POP POP JUMP JUMPDEST PUSH3 0x572 DUP3 PUSH3 0x339 JUMP JUMPDEST PUSH8 0xFFFFFFFFFFFFFFFF DUP2 GT ISZERO PUSH3 0x58E JUMPI PUSH3 0x58D PUSH3 0xCC JUMP JUMPDEST JUMPDEST PUSH3 0x59A DUP3 SLOAD PUSH3 0x370 JUMP JUMPDEST PUSH3 0x5A7 DUP3 DUP3 DUP6 PUSH3 0x4D0 JUMP JUMPDEST PUSH0 PUSH1 0x20 SWAP1 POP PUSH1 0x1F DUP4 GT PUSH1 0x1 DUP2 EQ PUSH3 0x5DD JUMPI PUSH0 DUP5 ISZERO PUSH3 0x5C8 JUMPI DUP3 DUP8 ADD MLOAD SWAP1 POP JUMPDEST PUSH3 0x5D4 DUP6 DUP3 PUSH3 0x54A JUMP JUMPDEST DUP7 SSTORE POP PUSH3 0x643 JUMP JUMPDEST PUSH1 0x1F NOT DUP5 AND PUSH3 0x5ED DUP7 PUSH3 0x3A4 JUMP JUMPDEST PUSH0 JUMPDEST DUP3 DUP2 LT ISZERO PUSH3 0x616 JUMPI DUP5 DUP10 ADD MLOAD DUP3 SSTORE PUSH1 0x1 DUP3 ADD SWAP2 POP PUSH1 0x20 DUP6 ADD SWAP5 POP PUSH1 0x20 DUP2 ADD SWAP1 POP PUSH3 0x5EF JUMP JUMPDEST DUP7 DUP4 LT ISZERO PUSH3 0x636 JUMPI DUP5 DUP10 ADD MLOAD PUSH3 0x632 PUSH1 0x1F DUP10 AND DUP3 PUSH3 0x52C JUMP JUMPDEST DUP4 SSTORE POP JUMPDEST PUSH1 0x1 PUSH1 0x2 DUP9 MUL ADD DUP9 SSTORE POP POP POP JUMPDEST POP POP POP POP POP POP JUMP JUMPDEST PUSH2 0x14DD DUP1 PUSH3 0x659 PUSH0 CODECOPY PUSH0 RETURN INVALID PUSH1 0x80 PUSH1 0x40 MSTORE PUSH1 0x4 CALLDATASIZE LT PUSH2 0x9B JUMPI PUSH0 CALLDATALOAD PUSH1 0xE0 SHR DUP1 PUSH4 0xA7AC8000 GT PUSH2 0x63 JUMPI DUP1 PUSH4 0xA7AC8000 EQ PUSH2 0x19A JUMPI DUP1 PUSH4 0xAF157C19 EQ PUSH2 0x1C2 JUMPI DUP1 PUSH4 0xD5009584 EQ PUSH2 0x1EC JUMPI DUP1 PUSH4 0xD7BB99BA EQ PUSH2 0x216 JUMPI DUP1 PUSH4 0xE2E46B52 EQ PUSH2 0x220 JUMPI DUP1 PUSH4 0xF84038B1 EQ PUSH2 0x248 JUMPI PUSH2 0x9B JUMP JUMPDEST DUP1 PUSH4 0xA144391 EQ PUSH2 0x9F JUMPI DUP1 PUSH4 0x1A092541 EQ PUSH2 0xDB JUMPI DUP1 PUSH4 0x30E8FC5C EQ PUSH2 0x105 JUMPI DUP1 PUSH4 0x692D51D2 EQ PUSH2 0x12D JUMPI DUP1 PUSH4 0x6F9FB98A EQ PUSH2 0x170 JUMPI JUMPDEST PUSH0 DUP1 REVERT JUMPDEST CALLVALUE DUP1 ISZERO PUSH2 0xAA JUMPI PUSH0 DUP1 REVERT JUMPDEST POP PUSH2 0xC5 PUSH1 0x4 DUP1 CALLDATASIZE SUB DUP2 ADD SWAP1 PUSH2 0xC0 SWAP2 SWAP1 PUSH2 0xB90 JUMP JUMPDEST PUSH2 0x272 JUMP JUMPDEST PUSH1 0x40 MLOAD PUSH2 0xD2 SWAP2 SWAP1 PUSH2 0xBD3 JUMP JUMPDEST PUSH1 0x40 MLOAD DUP1 SWAP2 SUB SWAP1 RETURN JUMPDEST CALLVALUE DUP1 ISZERO PUSH2 0xE6 JUMPI PUSH0 DUP1 REVERT JUMPDEST POP PUSH2 0xEF PUSH2 0x287 JUMP JUMPDEST PUSH1 0x40 MLOAD PUSH2 0xFC SWAP2 SWAP1 PUSH2 0xC76 JUMP JUMPDEST PUSH1 0x40 MLOAD DUP1 SWAP2 SUB SWAP1 RETURN JUMPDEST CALLVALUE DUP1 ISZERO PUSH2 0x110 JUMPI PUSH0 DUP1 REVERT JUMPDEST POP PUSH2 0x12B PUSH1 0x4 DUP1 CALLDATASIZE SUB DUP2 ADD SWAP1 PUSH2 0x126 SWAP2 SWAP1 PUSH2 0xDF7 JUMP JUMPDEST PUSH2 0x316 JUMP JUMPDEST STOP JUMPDEST CALLVALUE DUP1 ISZERO PUSH2 0x138 JUMPI PUSH0 DUP1 REVERT JUMPDEST POP PUSH2 0x153 PUSH1 0x4 DUP1 CALLDATASIZE SUB DUP2 ADD SWAP1 PUSH2 0x14E SWAP2 SWAP1 PUSH2 0xE51 JUMP JUMPDEST PUSH2 0x53E JUMP JUMPDEST PUSH1 0x40 MLOAD PUSH2 0x167 SWAP9 SWAP8 SWAP7 SWAP6 SWAP5 SWAP4 SWAP3 SWAP2 SWAP1 PUSH2 0xEC7 JUMP JUMPDEST PUSH1 0x40 MLOAD DUP1 SWAP2 SUB SWAP1 RETURN JUMPDEST CALLVALUE DUP1 ISZERO PUSH2 0x17B JUMPI PUSH0 DUP1 REVERT JUMPDEST POP PUSH2 0x184 PUSH2 0x6DE JUMP JUMPDEST PUSH1 0x40 MLOAD PUSH2 0x191 SWAP2 SWAP1 PUSH2 0xBD3 JUMP JUMPDEST PUSH1 0x40 MLOAD DUP1 SWAP2 SUB SWAP1 RETURN JUMPDEST CALLVALUE DUP1 ISZERO PUSH2 0x1A5 JUMPI PUSH0 DUP1 REVERT JUMPDEST POP PUSH2 0x1C0 PUSH1 0x4 DUP1 CALLDATASIZE SUB DUP2 ADD SWAP1 PUSH2 0x1BB SWAP2 SWAP1 PUSH2 0xFA5 JUMP JUMPDEST PUSH2 0x6F8 JUMP JUMPDEST STOP JUMPDEST CALLVALUE DUP1 ISZERO PUSH2 0x1CD JUMPI PUSH0 DUP1 REVERT JUMPDEST POP PUSH2 0x1D6 PUSH2 0x870 JUMP JUMPDEST PUSH1 0x40 MLOAD PUSH2 0x1E3 SWAP2 SWAP1 PUSH2 0xBD3 JUMP JUMPDEST PUSH1 0x40 MLOAD DUP1 SWAP2 SUB SWAP1 RETURN JUMPDEST CALLVALUE DUP1 ISZERO PUSH2 0x1F7 JUMPI PUSH0 DUP1 REVERT JUMPDEST POP PUSH2 0x200 PUSH2 0x879 JUMP JUMPDEST PUSH1 0x40 MLOAD PUSH2 0x20D SWAP2 SWAP1 PUSH2 0x1063 JUMP JUMPDEST PUSH1 0x40 MLOAD DUP1 SWAP2 SUB SWAP1 RETURN JUMPDEST PUSH2 0x21E PUSH2 0x8A1 JUMP JUMPDEST STOP JUMPDEST CALLVALUE DUP1 ISZERO PUSH2 0x22B JUMPI PUSH0 DUP1 REVERT JUMPDEST POP PUSH2 0x246 PUSH1 0x4 DUP1 CALLDATASIZE SUB DUP2 ADD SWAP1 PUSH2 0x241 SWAP2 SWAP1 PUSH2 0xE51 JUMP JUMPDEST PUSH2 0x978 JUMP JUMPDEST STOP JUMPDEST CALLVALUE DUP1 ISZERO PUSH2 0x253 JUMPI PUSH0 DUP1 REVERT JUMPDEST POP PUSH2 0x25C PUSH2 0xB1C JUMP JUMPDEST PUSH1 0x40 MLOAD PUSH2 0x269 SWAP2 SWAP1 PUSH2 0xBD3 JUMP JUMPDEST PUSH1 0x40 MLOAD DUP1 SWAP2 SUB SWAP1 RETURN JUMPDEST PUSH1 0x2 PUSH1 0x20 MSTORE DUP1 PUSH0 MSTORE PUSH1 0x40 PUSH0 KECCAK256 PUSH0 SWAP2 POP SWAP1 POP SLOAD DUP2 JUMP JUMPDEST PUSH1 0x60 PUSH0 DUP1 SLOAD PUSH2 0x295 SWAP1 PUSH2 0x10A9 JUMP JUMPDEST DUP1 PUSH1 0x1F ADD PUSH1 0x20 DUP1 SWAP2 DIV MUL PUSH1 0x20 ADD PUSH1 0x40 MLOAD SWAP1 DUP2 ADD PUSH1 0x40 MSTORE DUP1 SWAP3 SWAP2 SWAP1 DUP2 DUP2 MSTORE PUSH1 0x20 ADD DUP3 DUP1 SLOAD PUSH2 0x2C1 SWAP1 PUSH2 0x10A9 JUMP JUMPDEST DUP1 ISZERO PUSH2 0x30C JUMPI DUP1 PUSH1 0x1F LT PUSH2 0x2E3 JUMPI PUSH2 0x100 DUP1 DUP4 SLOAD DIV MUL DUP4 MSTORE SWAP2 PUSH1 0x20 ADD SWAP2 PUSH2 0x30C JUMP JUMPDEST DUP3 ADD SWAP2 SWAP1 PUSH0 MSTORE PUSH1 0x20 PUSH0 KECCAK256 SWAP1 JUMPDEST DUP2 SLOAD DUP2 MSTORE SWAP1 PUSH1 0x1 ADD SWAP1 PUSH1 0x20 ADD DUP1 DUP4 GT PUSH2 0x2EF JUMPI DUP3 SWAP1 SUB PUSH1 0x1F AND DUP3 ADD SWAP2 JUMPDEST POP POP POP POP POP SWAP1 POP SWAP1 JUMP JUMPDEST PUSH1 0x1 PUSH0 SWAP1 SLOAD SWAP1 PUSH2 0x100 EXP SWAP1 DIV PUSH20 0xFFFFFFFFFFFFFFFFFFFFFFFFFFFFFFFFFFFFFFFF AND PUSH20 0xFFFFFFFFFFFFFFFFFFFFFFFFFFFFFFFFFFFFFFFF AND CALLER PUSH20 0xFFFFFFFFFFFFFFFFFFFFFFFFFFFFFFFFFFFFFFFF AND SUB PUSH2 0x36E JUMPI PUSH0 DUP1 REVERT JUMPDEST PUSH0 PUSH1 0x5 DUP4 PUSH1 0x40 MLOAD PUSH2 0x37F SWAP2 SWAP1 PUSH2 0x1113 JUMP JUMPDEST SWAP1 DUP2 MSTORE PUSH1 0x20 ADD PUSH1 0x40 MLOAD DUP1 SWAP2 SUB SWAP1 KECCAK256 SWAP1 POP PUSH0 DUP2 PUSH0 ADD DUP1 SLOAD PUSH2 0x39E SWAP1 PUSH2 0x10A9 JUMP JUMPDEST SWAP1 POP GT PUSH2 0x3A9 JUMPI PUSH0 DUP1 REVERT JUMPDEST DUP3 MLOAD DUP2 PUSH0 ADD DUP1 SLOAD PUSH2 0x3B9 SWAP1 PUSH2 0x10A9 JUMP JUMPDEST SWAP1 POP EQ PUSH2 0x3C4 JUMPI PUSH0 DUP1 REVERT JUMPDEST PUSH0 PUSH1 0x2 PUSH0 CALLER PUSH20 0xFFFFFFFFFFFFFFFFFFFFFFFFFFFFFFFFFFFFFFFF AND PUSH20 0xFFFFFFFFFFFFFFFFFFFFFFFFFFFFFFFFFFFFFFFF AND DUP2 MSTORE PUSH1 0x20 ADD SWAP1 DUP2 MSTORE PUSH1 0x20 ADD PUSH0 KECCAK256 SLOAD GT PUSH2 0x40C JUMPI PUSH0 DUP1 REVERT JUMPDEST DUP1 PUSH1 0x6 ADD PUSH0 SWAP1 SLOAD SWAP1 PUSH2 0x100 EXP SWAP1 DIV PUSH1 0xFF AND ISZERO PUSH2 0x426 JUMPI PUSH0 DUP1 REVERT JUMPDEST DUP1 PUSH1 0x6 ADD PUSH1 0x1 SWAP1 SLOAD SWAP1 PUSH2 0x100 EXP SWAP1 DIV PUSH1 0xFF AND ISZERO PUSH2 0x441 JUMPI PUSH0 DUP1 REVERT JUMPDEST DUP1 PUSH1 0x7 ADD PUSH0 CALLER PUSH20 0xFFFFFFFFFFFFFFFFFFFFFFFFFFFFFFFFFFFFFFFF AND PUSH20 0xFFFFFFFFFFFFFFFFFFFFFFFFFFFFFFFFFFFFFFFF AND DUP2 MSTORE PUSH1 0x20 ADD SWAP1 DUP2 MSTORE PUSH1 0x20 ADD PUSH0 KECCAK256 PUSH0 SWAP1 SLOAD SWAP1 PUSH2 0x100 EXP SWAP1 DIV PUSH1 0xFF AND ISZERO PUSH2 0x496 JUMPI PUSH0 DUP1 REVERT JUMPDEST PUSH1 0x1 DUP2 PUSH1 0x7 ADD PUSH0 CALLER PUSH20 0xFFFFFFFFFFFFFFFFFFFFFFFFFFFFFFFFFFFFFFFF AND PUSH20 0xFFFFFFFFFFFFFFFFFFFFFFFFFFFFFFFFFFFFFFFF AND DUP2 MSTORE PUSH1 0x20 ADD SWAP1 DUP2 MSTORE PUSH1 0x20 ADD PUSH0 KECCAK256 PUSH0 PUSH2 0x100 EXP DUP2 SLOAD DUP2 PUSH1 0xFF MUL NOT AND SWAP1 DUP4 ISZERO ISZERO MUL OR SWAP1 SSTORE POP DUP2 ISZERO PUSH2 0x50D JUMPI DUP1 PUSH1 0x4 ADD PUSH0 DUP2 SLOAD DUP1 SWAP3 SWAP2 SWAP1 PUSH2 0x507 SWAP1 PUSH2 0x1156 JUMP JUMPDEST SWAP2 SWAP1 POP SSTORE POP JUMPDEST DUP1 PUSH1 0x5 ADD SLOAD DUP2 PUSH1 0x4 ADD SLOAD LT PUSH2 0x539 JUMPI PUSH1 0x1 DUP2 PUSH1 0x6 ADD PUSH0 PUSH2 0x100 EXP DUP2 SLOAD DUP2 PUSH1 0xFF MUL NOT AND SWAP1 DUP4 ISZERO ISZERO MUL OR SWAP1 SSTORE POP JUMPDEST POP POP POP JUMP JUMPDEST PUSH1 0x5 DUP2 DUP1 MLOAD PUSH1 0x20 DUP2 ADD DUP3 ADD DUP1 MLOAD DUP5 DUP3 MSTORE PUSH1 0x20 DUP4 ADD PUSH1 0x20 DUP6 ADD KECCAK256 DUP2 DUP4 MSTORE DUP1 SWAP6 POP POP POP POP POP POP PUSH0 SWAP2 POP SWAP1 POP DUP1 PUSH0 ADD DUP1 SLOAD PUSH2 0x575 SWAP1 PUSH2 0x10A9 JUMP JUMPDEST DUP1 PUSH1 0x1F ADD PUSH1 0x20 DUP1 SWAP2 DIV MUL PUSH1 0x20 ADD PUSH1 0x40 MLOAD SWAP1 DUP2 ADD PUSH1 0x40 MSTORE DUP1 SWAP3 SWAP2 SWAP1 DUP2 DUP2 MSTORE PUSH1 0x20 ADD DUP3 DUP1 SLOAD PUSH2 0x5A1 SWAP1 PUSH2 0x10A9 JUMP JUMPDEST DUP1 ISZERO PUSH2 0x5EC JUMPI DUP1 PUSH1 0x1F LT PUSH2 0x5C3 JUMPI PUSH2 0x100 DUP1 DUP4 SLOAD DIV MUL DUP4 MSTORE SWAP2 PUSH1 0x20 ADD SWAP2 PUSH2 0x5EC JUMP JUMPDEST DUP3 ADD SWAP2 SWAP1 PUSH0 MSTORE PUSH1 0x20 PUSH0 KECCAK256 SWAP1 JUMPDEST DUP2 SLOAD DUP2 MSTORE SWAP1 PUSH1 0x1 ADD SWAP1 PUSH1 0x20 ADD DUP1 DUP4 GT PUSH2 0x5CF JUMPI DUP3 SWAP1 SUB PUSH1 0x1F AND DUP3 ADD SWAP2 JUMPDEST POP POP POP POP POP SWAP1 DUP1 PUSH1 0x1 ADD DUP1 SLOAD PUSH2 0x601 SWAP1 PUSH2 0x10A9 JUMP JUMPDEST DUP1 PUSH1 0x1F ADD PUSH1 0x20 DUP1 SWAP2 DIV MUL PUSH1 0x20 ADD PUSH1 0x40 MLOAD SWAP1 DUP2 ADD PUSH1 0x40 MSTORE DUP1 SWAP3 SWAP2 SWAP1 DUP2 DUP2 MSTORE PUSH1 0x20 ADD DUP3 DUP1 SLOAD PUSH2 0x62D SWAP1 PUSH2 0x10A9 JUMP JUMPDEST DUP1 ISZERO PUSH2 0x678 JUMPI DUP1 PUSH1 0x1F LT PUSH2 0x64F JUMPI PUSH2 0x100 DUP1 DUP4 SLOAD DIV MUL DUP4 MSTORE SWAP2 PUSH1 0x20 ADD SWAP2 PUSH2 0x678 JUMP JUMPDEST DUP3 ADD SWAP2 SWAP1 PUSH0 MSTORE PUSH1 0x20 PUSH0 KECCAK256 SWAP1 JUMPDEST DUP2 SLOAD DUP2 MSTORE SWAP1 PUSH1 0x1 ADD SWAP1 PUSH1 0x20 ADD DUP1 DUP4 GT PUSH2 0x65B JUMPI DUP3 SWAP1 SUB PUSH1 0x1F AND DUP3 ADD SWAP2 JUMPDEST POP POP POP POP POP SWAP1 DUP1 PUSH1 0x2 ADD SLOAD SWAP1 DUP1 PUSH1 0x3 ADD PUSH0 SWAP1 SLOAD SWAP1 PUSH2 0x100 EXP SWAP1 DIV PUSH20 0xFFFFFFFFFFFFFFFFFFFFFFFFFFFFFFFFFFFFFFFF AND SWAP1 DUP1 PUSH1 0x4 ADD SLOAD SWAP1 DUP1 PUSH1 0x5 ADD SLOAD SWAP1 DUP1 PUSH1 0x6 ADD PUSH0 SWAP1 SLOAD SWAP1 PUSH2 0x100 EXP SWAP1 DIV PUSH1 0xFF AND SWAP1 DUP1 PUSH1 0x6 ADD PUSH1 0x1 SWAP1 SLOAD SWAP1 PUSH2 0x100 EXP SWAP1 DIV PUSH1 0xFF AND SWAP1 POP DUP9 JUMP JUMPDEST PUSH0 PUSH8 0xDE0B6B3A7640000 SELFBALANCE PUSH2 0x6F3 SWAP2 SWAP1 PUSH2 0x11CA JUMP JUMPDEST SWAP1 POP SWAP1 JUMP JUMPDEST PUSH1 0x1 PUSH0 SWAP1 SLOAD SWAP1 PUSH2 0x100 EXP SWAP1 DIV PUSH20 0xFFFFFFFFFFFFFFFFFFFFFFFFFFFFFFFFFFFFFFFF AND PUSH20 0xFFFFFFFFFFFFFFFFFFFFFFFFFFFFFFFFFFFFFFFF AND CALLER PUSH20 0xFFFFFFFFFFFFFFFFFFFFFFFFFFFFFFFFFFFFFFFF AND EQ PUSH2 0x750 JUMPI PUSH0 DUP1 REVERT JUMPDEST PUSH0 DUP6 MLOAD GT PUSH2 0x75C JUMPI PUSH0 DUP1 REVERT JUMPDEST PUSH0 DUP5 MLOAD GT PUSH2 0x768 JUMPI PUSH0 DUP1 REVERT JUMPDEST PUSH0 DUP4 GT PUSH2 0x773 JUMPI PUSH0 DUP1 REVERT JUMPDEST PUSH8 0xDE0B6B3A7640000 SELFBALANCE PUSH2 0x787 SWAP2 SWAP1 PUSH2 0x11CA JUMP JUMPDEST DUP4 GT ISZERO PUSH2 0x792 JUMPI PUSH0 DUP1 REVERT JUMPDEST PUSH0 DUP3 GT PUSH2 0x79D JUMPI PUSH0 DUP1 REVERT JUMPDEST PUSH1 0x3 SLOAD DUP3 GT ISZERO PUSH2 0x7AB JUMPI PUSH0 DUP1 REVERT JUMPDEST PUSH0 PUSH1 0x5 DUP7 PUSH1 0x40 MLOAD PUSH2 0x7BC SWAP2 SWAP1 PUSH2 0x1113 JUMP JUMPDEST SWAP1 DUP2 MSTORE PUSH1 0x20 ADD PUSH1 0x40 MLOAD DUP1 SWAP2 SUB SWAP1 KECCAK256 SWAP1 POP DUP6 DUP2 PUSH0 ADD SWAP1 DUP2 PUSH2 0x7DC SWAP2 SWAP1 PUSH2 0x1397 JUMP JUMPDEST POP DUP5 DUP2 PUSH1 0x1 ADD SWAP1 DUP2 PUSH2 0x7EE SWAP2 SWAP1 PUSH2 0x1397 JUMP JUMPDEST POP DUP4 DUP2 PUSH1 0x2 ADD DUP2 SWAP1 SSTORE POP DUP2 DUP2 PUSH1 0x3 ADD PUSH0 PUSH2 0x100 EXP DUP2 SLOAD DUP2 PUSH20 0xFFFFFFFFFFFFFFFFFFFFFFFFFFFFFFFFFFFFFFFF MUL NOT AND SWAP1 DUP4 PUSH20 0xFFFFFFFFFFFFFFFFFFFFFFFFFFFFFFFFFFFFFFFF AND MUL OR SWAP1 SSTORE POP PUSH0 DUP2 PUSH1 0x4 ADD DUP2 SWAP1 SSTORE POP DUP3 DUP2 PUSH1 0x5 ADD DUP2 SWAP1 SSTORE POP PUSH0 DUP2 PUSH1 0x6 ADD PUSH1 0x1 PUSH2 0x100 EXP DUP2 SLOAD DUP2 PUSH1 0xFF MUL NOT AND SWAP1 DUP4 ISZERO ISZERO MUL OR SWAP1 SSTORE POP POP POP POP POP POP POP JUMP JUMPDEST PUSH0 PUSH1 0x3 SLOAD SWAP1 POP SWAP1 JUMP JUMPDEST PUSH0 PUSH1 0x1 PUSH0 SWAP1 SLOAD SWAP1 PUSH2 0x100 EXP SWAP1 DIV PUSH20 0xFFFFFFFFFFFFFFFFFFFFFFFFFFFFFFFFFFFFFFFF AND SWAP1 POP SWAP1 JUMP JUMPDEST PUSH1 0x4 SLOAD PUSH8 0xDE0B6B3A7640000 CALLVALUE PUSH2 0x8B8 SWAP2 SWAP1 PUSH2 0x11CA JUMP JUMPDEST LT ISZERO PUSH2 0x8C2 JUMPI PUSH0 DUP1 REVERT JUMPDEST PUSH0 PUSH1 0x2 PUSH0 CALLER PUSH20 0xFFFFFFFFFFFFFFFFFFFFFFFFFFFFFFFFFFFFFFFF AND PUSH20 0xFFFFFFFFFFFFFFFFFFFFFFFFFFFFFFFFFFFFFFFF AND DUP2 MSTORE PUSH1 0x20 ADD SWAP1 DUP2 MSTORE PUSH1 0x20 ADD PUSH0 KECCAK256 SLOAD EQ PUSH2 0x90A JUMPI PUSH0 DUP1 REVERT JUMPDEST PUSH8 0xDE0B6B3A7640000 CALLVALUE PUSH2 0x91E SWAP2 SWAP1 PUSH2 0x11CA JUMP JUMPDEST PUSH1 0x2 PUSH0 CALLER PUSH20 0xFFFFFFFFFFFFFFFFFFFFFFFFFFFFFFFFFFFFFFFF AND PUSH20 0xFFFFFFFFFFFFFFFFFFFFFFFFFFFFFFFFFFFFFFFF AND DUP2 MSTORE PUSH1 0x20 ADD SWAP1 DUP2 MSTORE PUSH1 0x20 ADD PUSH0 KECCAK256 DUP2 SWAP1 SSTORE POP PUSH1 0x3 PUSH0 DUP2 SLOAD DUP1 SWAP3 SWAP2 SWAP1 PUSH2 0x971 SWAP1 PUSH2 0x1156 JUMP JUMPDEST SWAP2 SWAP1 POP SSTORE POP JUMP JUMPDEST PUSH1 0x1 PUSH0 SWAP1 SLOAD SWAP1 PUSH2 0x100 EXP SWAP1 DIV PUSH20 0xFFFFFFFFFFFFFFFFFFFFFFFFFFFFFFFFFFFFFFFF AND PUSH20 0xFFFFFFFFFFFFFFFFFFFFFFFFFFFFFFFFFFFFFFFF AND CALLER PUSH20 0xFFFFFFFFFFFFFFFFFFFFFFFFFFFFFFFFFFFFFFFF AND EQ PUSH2 0x9D0 JUMPI PUSH0 DUP1 REVERT JUMPDEST PUSH0 PUSH1 0x5 DUP3 PUSH1 0x40 MLOAD PUSH2 0x9E1 SWAP2 SWAP1 PUSH2 0x1113 JUMP JUMPDEST SWAP1 DUP2 MSTORE PUSH1 0x20 ADD PUSH1 0x40 MLOAD DUP1 SWAP2 SUB SWAP1 KECCAK256 SWAP1 POP PUSH0 DUP2 PUSH0 ADD DUP1 SLOAD PUSH2 0xA00 SWAP1 PUSH2 0x10A9 JUMP JUMPDEST SWAP1 POP GT PUSH2 0xA0B JUMPI PUSH0 DUP1 REVERT JUMPDEST DUP2 MLOAD DUP2 PUSH0 ADD DUP1 SLOAD PUSH2 0xA1B SWAP1 PUSH2 0x10A9 JUMP JUMPDEST SWAP1 POP EQ PUSH2 0xA26 JUMPI PUSH0 DUP1 REVERT JUMPDEST DUP1 PUSH1 0x6 ADD PUSH0 SWAP1 SLOAD SWAP1 PUSH2 0x100 EXP SWAP1 DIV PUSH1 0xFF AND DUP1 ISZERO PUSH2 0xA52 JUMPI POP DUP1 PUSH1 0x6 ADD PUSH1 0x1 SWAP1 SLOAD SWAP1 PUSH2 0x100 EXP SWAP1 DIV PUSH1 0xFF AND ISZERO JUMPDEST PUSH2 0xA5A JUMPI PUSH0 DUP1 REVERT JUMPDEST DUP1 PUSH1 0x2 ADD SLOAD PUSH8 0xDE0B6B3A7640000 SELFBALANCE PUSH2 0xA73 SWAP2 SWAP1 PUSH2 0x11CA JUMP JUMPDEST LT ISZERO PUSH2 0xA7D JUMPI PUSH0 DUP1 REVERT JUMPDEST DUP1 PUSH1 0x3 ADD PUSH0 SWAP1 SLOAD SWAP1 PUSH2 0x100 EXP SWAP1 DIV PUSH20 0xFFFFFFFFFFFFFFFFFFFFFFFFFFFFFFFFFFFFFFFF AND PUSH20 0xFFFFFFFFFFFFFFFFFFFFFFFFFFFFFFFFFFFFFFFF AND PUSH2 0x8FC PUSH8 0xDE0B6B3A7640000 DUP4 PUSH1 0x2 ADD SLOAD PUSH2 0xAD2 SWAP2 SWAP1 PUSH2 0x1466 JUMP JUMPDEST SWAP1 DUP2 ISZERO MUL SWAP1 PUSH1 0x40 MLOAD PUSH0 PUSH1 0x40 MLOAD DUP1 DUP4 SUB DUP2 DUP6 DUP9 DUP9 CALL SWAP4 POP POP POP POP ISZERO DUP1 ISZERO PUSH2 0xAFA JUMPI RETURNDATASIZE PUSH0 DUP1 RETURNDATACOPY RETURNDATASIZE PUSH0 REVERT JUMPDEST POP PUSH1 0x1 DUP2 PUSH1 0x6 ADD PUSH1 0x1 PUSH2 0x100 EXP DUP2 SLOAD DUP2 PUSH1 0xFF MUL NOT AND SWAP1 DUP4 ISZERO ISZERO MUL OR SWAP1 SSTORE POP POP POP JUMP JUMPDEST PUSH0 PUSH1 0x4 SLOAD SWAP1 POP SWAP1 JUMP JUMPDEST PUSH0 PUSH1 0x40 MLOAD SWAP1 POP SWAP1 JUMP JUMPDEST PUSH0 DUP1 REVERT JUMPDEST PUSH0 DUP1 REVERT JUMPDEST PUSH0 PUSH20 0xFFFFFFFFFFFFFFFFFFFFFFFFFFFFFFFFFFFFFFFF DUP3 AND SWAP1 POP SWAP2 SWAP1 POP JUMP JUMPDEST PUSH0 PUSH2 0xB5F DUP3 PUSH2 0xB36 JUMP JUMPDEST SWAP1 POP SWAP2 SWAP1 POP JUMP JUMPDEST PUSH2 0xB6F DUP2 PUSH2 0xB55 JUMP JUMPDEST DUP2 EQ PUSH2 0xB79 JUMPI PUSH0 DUP1 REVERT JUMPDEST POP JUMP JUMPDEST PUSH0 DUP2 CALLDATALOAD SWAP1 POP PUSH2 0xB8A DUP2 PUSH2 0xB66 JUMP JUMPDEST SWAP3 SWAP2 POP POP JUMP JUMPDEST PUSH0 PUSH1 0x20 DUP3 DUP5 SUB SLT ISZERO PUSH2 0xBA5 JUMPI PUSH2 0xBA4 PUSH2 0xB2E JUMP JUMPDEST JUMPDEST PUSH0 PUSH2 0xBB2 DUP5 DUP3 DUP6 ADD PUSH2 0xB7C JUMP JUMPDEST SWAP2 POP POP SWAP3 SWAP2 POP POP JUMP JUMPDEST PUSH0 DUP2 SWAP1 POP SWAP2 SWAP1 POP JUMP JUMPDEST PUSH2 0xBCD DUP2 PUSH2 0xBBB JUMP JUMPDEST DUP3 MSTORE POP POP JUMP JUMPDEST PUSH0 PUSH1 0x20 DUP3 ADD SWAP1 POP PUSH2 0xBE6 PUSH0 DUP4 ADD DUP5 PUSH2 0xBC4 JUMP JUMPDEST SWAP3 SWAP2 POP POP JUMP JUMPDEST PUSH0 DUP2 MLOAD SWAP1 POP SWAP2 SWAP1 POP JUMP JUMPDEST PUSH0 DUP3 DUP3 MSTORE PUSH1 0x20 DUP3 ADD SWAP1 POP SWAP3 SWAP2 POP POP JUMP JUMPDEST PUSH0 JUMPDEST DUP4 DUP2 LT ISZERO PUSH2 0xC23 JUMPI DUP1 DUP3 ADD MLOAD DUP2 DUP5 ADD MSTORE PUSH1 0x20 DUP2 ADD SWAP1 POP PUSH2 0xC08 JUMP JUMPDEST PUSH0 DUP5 DUP5 ADD MSTORE POP POP POP POP JUMP JUMPDEST PUSH0 PUSH1 0x1F NOT PUSH1 0x1F DUP4 ADD AND SWAP1 POP SWAP2 SWAP1 POP JUMP JUMPDEST PUSH0 PUSH2 0xC48 DUP3 PUSH2 0xBEC JUMP JUMPDEST PUSH2 0xC52 DUP2 DUP6 PUSH2 0xBF6 JUMP JUMPDEST SWAP4 POP PUSH2 0xC62 DUP2 DUP6 PUSH1 0x20 DUP7 ADD PUSH2 0xC06 JUMP JUMPDEST PUSH2 0xC6B DUP2 PUSH2 0xC2E JUMP JUMPDEST DUP5 ADD SWAP2 POP POP SWAP3 SWAP2 POP POP JUMP JUMPDEST PUSH0 PUSH1 0x20 DUP3 ADD SWAP1 POP DUP2 DUP2 SUB PUSH0 DUP4 ADD MSTORE PUSH2 0xC8E DUP2 DUP5 PUSH2 0xC3E JUMP JUMPDEST SWAP1 POP SWAP3 SWAP2 POP POP JUMP JUMPDEST PUSH0 DUP1 REVERT JUMPDEST PUSH0 DUP1 REVERT JUMPDEST PUSH32 0x4E487B7100000000000000000000000000000000000000000000000000000000 PUSH0 MSTORE PUSH1 0x41 PUSH1 0x4 MSTORE PUSH1 0x24 PUSH0 REVERT JUMPDEST PUSH2 0xCD4 DUP3 PUSH2 0xC2E JUMP JUMPDEST DUP2 ADD DUP2 DUP2 LT PUSH8 0xFFFFFFFFFFFFFFFF DUP3 GT OR ISZERO PUSH2 0xCF3 JUMPI PUSH2 0xCF2 PUSH2 0xC9E JUMP JUMPDEST JUMPDEST DUP1 PUSH1 0x40 MSTORE POP POP POP JUMP JUMPDEST PUSH0 PUSH2 0xD05 PUSH2 0xB25 JUMP JUMPDEST SWAP1 POP PUSH2 0xD11 DUP3 DUP3 PUSH2 0xCCB JUMP JUMPDEST SWAP2 SWAP1 POP JUMP JUMPDEST PUSH0 PUSH8 0xFFFFFFFFFFFFFFFF DUP3 GT ISZERO PUSH2 0xD30 JUMPI PUSH2 0xD2F PUSH2 0xC9E JUMP JUMPDEST JUMPDEST PUSH2 0xD39 DUP3 PUSH2 0xC2E JUMP JUMPDEST SWAP1 POP PUSH1 0x20 DUP2 ADD SWAP1 POP SWAP2 SWAP1 POP JUMP JUMPDEST DUP3 DUP2 DUP4 CALLDATACOPY PUSH0 DUP4 DUP4 ADD MSTORE POP POP POP JUMP JUMPDEST PUSH0 PUSH2 0xD66 PUSH2 0xD61 DUP5 PUSH2 0xD16 JUMP JUMPDEST PUSH2 0xCFC JUMP JUMPDEST SWAP1 POP DUP3 DUP2 MSTORE PUSH1 0x20 DUP2 ADD DUP5 DUP5 DUP5 ADD GT ISZERO PUSH2 0xD82 JUMPI PUSH2 0xD81 PUSH2 0xC9A JUMP JUMPDEST JUMPDEST PUSH2 0xD8D DUP5 DUP3 DUP6 PUSH2 0xD46 JUMP JUMPDEST POP SWAP4 SWAP3 POP POP POP JUMP JUMPDEST PUSH0 DUP3 PUSH1 0x1F DUP4 ADD SLT PUSH2 0xDA9 JUMPI PUSH2 0xDA8 PUSH2 0xC96 JUMP JUMPDEST JUMPDEST DUP2 CALLDATALOAD PUSH2 0xDB9 DUP5 DUP3 PUSH1 0x20 DUP7 ADD PUSH2 0xD54 JUMP JUMPDEST SWAP2 POP POP SWAP3 SWAP2 POP POP JUMP JUMPDEST PUSH0 DUP2 ISZERO ISZERO SWAP1 POP SWAP2 SWAP1 POP JUMP JUMPDEST PUSH2 0xDD6 DUP2 PUSH2 0xDC2 JUMP JUMPDEST DUP2 EQ PUSH2 0xDE0 JUMPI PUSH0 DUP1 REVERT JUMPDEST POP JUMP JUMPDEST PUSH0 DUP2 CALLDATALOAD SWAP1 POP PUSH2 0xDF1 DUP2 PUSH2 0xDCD JUMP JUMPDEST SWAP3 SWAP2 POP POP JUMP JUMPDEST PUSH0 DUP1 PUSH1 0x40 DUP4 DUP6 SUB SLT ISZERO PUSH2 0xE0D JUMPI PUSH2 0xE0C PUSH2 0xB2E JUMP JUMPDEST JUMPDEST PUSH0 DUP4 ADD CALLDATALOAD PUSH8 0xFFFFFFFFFFFFFFFF DUP2 GT ISZERO PUSH2 0xE2A JUMPI PUSH2 0xE29 PUSH2 0xB32 JUMP JUMPDEST JUMPDEST PUSH2 0xE36 DUP6 DUP3 DUP7 ADD PUSH2 0xD95 JUMP JUMPDEST SWAP3 POP POP PUSH1 0x20 PUSH2 0xE47 DUP6 DUP3 DUP7 ADD PUSH2 0xDE3 JUMP JUMPDEST SWAP2 POP POP SWAP3 POP SWAP3 SWAP1 POP JUMP JUMPDEST PUSH0 PUSH1 0x20 DUP3 DUP5 SUB SLT ISZERO PUSH2 0xE66 JUMPI PUSH2 0xE65 PUSH2 0xB2E JUMP JUMPDEST JUMPDEST PUSH0 DUP3 ADD CALLDATALOAD PUSH8 0xFFFFFFFFFFFFFFFF DUP2 GT ISZERO PUSH2 0xE83 JUMPI PUSH2 0xE82 PUSH2 0xB32 JUMP JUMPDEST JUMPDEST PUSH2 0xE8F DUP5 DUP3 DUP6 ADD PUSH2 0xD95 JUMP JUMPDEST SWAP2 POP POP SWAP3 SWAP2 POP POP JUMP JUMPDEST PUSH0 PUSH2 0xEA2 DUP3 PUSH2 0xB36 JUMP JUMPDEST SWAP1 POP SWAP2 SWAP1 POP JUMP JUMPDEST PUSH2 0xEB2 DUP2 PUSH2 0xE98 JUMP JUMPDEST DUP3 MSTORE POP POP JUMP JUMPDEST PUSH2 0xEC1 DUP2 PUSH2 0xDC2 JUMP JUMPDEST DUP3 MSTORE POP POP JUMP JUMPDEST PUSH0 PUSH2 0x100 DUP3 ADD SWAP1 POP DUP2 DUP2 SUB PUSH0 DUP4 ADD MSTORE PUSH2 0xEE0 DUP2 DUP12 PUSH2 0xC3E JUMP JUMPDEST SWAP1 POP DUP2 DUP2 SUB PUSH1 0x20 DUP4 ADD MSTORE PUSH2 0xEF4 DUP2 DUP11 PUSH2 0xC3E JUMP JUMPDEST SWAP1 POP PUSH2 0xF03 PUSH1 0x40 DUP4 ADD DUP10 PUSH2 0xBC4 JUMP JUMPDEST PUSH2 0xF10 PUSH1 0x60 DUP4 ADD DUP9 PUSH2 0xEA9 JUMP JUMPDEST PUSH2 0xF1D PUSH1 0x80 DUP4 ADD DUP8 PUSH2 0xBC4 JUMP JUMPDEST PUSH2 0xF2A PUSH1 0xA0 DUP4 ADD DUP7 PUSH2 0xBC4 JUMP JUMPDEST PUSH2 0xF37 PUSH1 0xC0 DUP4 ADD DUP6 PUSH2 0xEB8 JUMP JUMPDEST PUSH2 0xF44 PUSH1 0xE0 DUP4 ADD DUP5 PUSH2 0xEB8 JUMP JUMPDEST SWAP10 SWAP9 POP POP POP POP POP POP POP POP POP JUMP JUMPDEST PUSH2 0xF5A DUP2 PUSH2 0xBBB JUMP JUMPDEST DUP2 EQ PUSH2 0xF64 JUMPI PUSH0 DUP1 REVERT JUMPDEST POP JUMP JUMPDEST PUSH0 DUP2 CALLDATALOAD SWAP1 POP PUSH2 0xF75 DUP2 PUSH2 0xF51 JUMP JUMPDEST SWAP3 SWAP2 POP POP JUMP JUMPDEST PUSH2 0xF84 DUP2 PUSH2 0xE98 JUMP JUMPDEST DUP2 EQ PUSH2 0xF8E JUMPI PUSH0 DUP1 REVERT JUMPDEST POP JUMP JUMPDEST PUSH0 DUP2 CALLDATALOAD SWAP1 POP PUSH2 0xF9F DUP2 PUSH2 0xF7B JUMP JUMPDEST SWAP3 SWAP2 POP POP JUMP JUMPDEST PUSH0 DUP1 PUSH0 DUP1 PUSH0 PUSH1 0xA0 DUP7 DUP9 SUB SLT ISZERO PUSH2 0xFBE JUMPI PUSH2 0xFBD PUSH2 0xB2E JUMP JUMPDEST JUMPDEST PUSH0 DUP7 ADD CALLDATALOAD PUSH8 0xFFFFFFFFFFFFFFFF DUP2 GT ISZERO PUSH2 0xFDB JUMPI PUSH2 0xFDA PUSH2 0xB32 JUMP JUMPDEST JUMPDEST PUSH2 0xFE7 DUP9 DUP3 DUP10 ADD PUSH2 0xD95 JUMP JUMPDEST SWAP6 POP POP PUSH1 0x20 DUP7 ADD CALLDATALOAD PUSH8 0xFFFFFFFFFFFFFFFF DUP2 GT ISZERO PUSH2 0x1008 JUMPI PUSH2 0x1007 PUSH2 0xB32 JUMP JUMPDEST JUMPDEST PUSH2 0x1014 DUP9 DUP3 DUP10 ADD PUSH2 0xD95 JUMP JUMPDEST SWAP5 POP POP PUSH1 0x40 PUSH2 0x1025 DUP9 DUP3 DUP10 ADD PUSH2 0xF67 JUMP JUMPDEST SWAP4 POP POP PUSH1 0x60 PUSH2 0x1036 DUP9 DUP3 DUP10 ADD PUSH2 0xF67 JUMP JUMPDEST SWAP3 POP POP PUSH1 0x80 PUSH2 0x1047 DUP9 DUP3 DUP10 ADD PUSH2 0xF91 JUMP JUMPDEST SWAP2 POP POP SWAP3 SWAP6 POP SWAP3 SWAP6 SWAP1 SWAP4 POP JUMP JUMPDEST PUSH2 0x105D DUP2 PUSH2 0xB55 JUMP JUMPDEST DUP3 MSTORE POP POP JUMP JUMPDEST PUSH0 PUSH1 0x20 DUP3 ADD SWAP1 POP PUSH2 0x1076 PUSH0 DUP4 ADD DUP5 PUSH2 0x1054 JUMP JUMPDEST SWAP3 SWAP2 POP POP JUMP JUMPDEST PUSH32 0x4E487B7100000000000000000000000000000000000000000000000000000000 PUSH0 MSTORE PUSH1 0x22 PUSH1 0x4 MSTORE PUSH1 0x24 PUSH0 REVERT JUMPDEST PUSH0 PUSH1 0x2 DUP3 DIV SWAP1 POP PUSH1 0x1 DUP3 AND DUP1 PUSH2 0x10C0 JUMPI PUSH1 0x7F DUP3 AND SWAP2 POP JUMPDEST PUSH1 0x20 DUP3 LT DUP2 SUB PUSH2 0x10D3 JUMPI PUSH2 0x10D2 PUSH2 0x107C JUMP JUMPDEST JUMPDEST POP SWAP2 SWAP1 POP JUMP JUMPDEST PUSH0 DUP2 SWAP1 POP SWAP3 SWAP2 POP POP JUMP JUMPDEST PUSH0 PUSH2 0x10ED DUP3 PUSH2 0xBEC JUMP JUMPDEST PUSH2 0x10F7 DUP2 DUP6 PUSH2 0x10D9 JUMP JUMPDEST SWAP4 POP PUSH2 0x1107 DUP2 DUP6 PUSH1 0x20 DUP7 ADD PUSH2 0xC06 JUMP JUMPDEST DUP1 DUP5 ADD SWAP2 POP POP SWAP3 SWAP2 POP POP JUMP JUMPDEST PUSH0 PUSH2 0x111E DUP3 DUP5 PUSH2 0x10E3 JUMP JUMPDEST SWAP2 POP DUP2 SWAP1 POP SWAP3 SWAP2 POP POP JUMP JUMPDEST PUSH32 0x4E487B7100000000000000000000000000000000000000000000000000000000 PUSH0 MSTORE PUSH1 0x11 PUSH1 0x4 MSTORE PUSH1 0x24 PUSH0 REVERT JUMPDEST PUSH0 PUSH2 0x1160 DUP3 PUSH2 0xBBB JUMP JUMPDEST SWAP2 POP PUSH32 0xFFFFFFFFFFFFFFFFFFFFFFFFFFFFFFFFFFFFFFFFFFFFFFFFFFFFFFFFFFFFFFFF DUP3 SUB PUSH2 0x1192 JUMPI PUSH2 0x1191 PUSH2 0x1129 JUMP JUMPDEST JUMPDEST PUSH1 0x1 DUP3 ADD SWAP1 POP SWAP2 SWAP1 POP JUMP JUMPDEST PUSH32 0x4E487B7100000000000000000000000000000000000000000000000000000000 PUSH0 MSTORE PUSH1 0x12 PUSH1 0x4 MSTORE PUSH1 0x24 PUSH0 REVERT JUMPDEST PUSH0 PUSH2 0x11D4 DUP3 PUSH2 0xBBB JUMP JUMPDEST SWAP2 POP PUSH2 0x11DF DUP4 PUSH2 0xBBB JUMP JUMPDEST SWAP3 POP DUP3 PUSH2 0x11EF JUMPI PUSH2 0x11EE PUSH2 0x119D JUMP JUMPDEST JUMPDEST DUP3 DUP3 DIV SWAP1 POP SWAP3 SWAP2 POP POP JUMP JUMPDEST PUSH0 DUP2 SWAP1 POP DUP2 PUSH0 MSTORE PUSH1 0x20 PUSH0 KECCAK256 SWAP1 POP SWAP2 SWAP1 POP JUMP JUMPDEST PUSH0 PUSH1 0x20 PUSH1 0x1F DUP4 ADD DIV SWAP1 POP SWAP2 SWAP1 POP JUMP JUMPDEST PUSH0 DUP3 DUP3 SHL SWAP1 POP SWAP3 SWAP2 POP POP JUMP JUMPDEST PUSH0 PUSH1 0x8 DUP4 MUL PUSH2 0x1256 PUSH32 0xFFFFFFFFFFFFFFFFFFFFFFFFFFFFFFFFFFFFFFFFFFFFFFFFFFFFFFFFFFFFFFFF DUP3 PUSH2 0x121B JUMP JUMPDEST PUSH2 0x1260 DUP7 DUP4 PUSH2 0x121B JUMP JUMPDEST SWAP6 POP DUP1 NOT DUP5 AND SWAP4 POP DUP1 DUP7 AND DUP5 OR SWAP3 POP POP POP SWAP4 SWAP3 POP POP POP JUMP JUMPDEST PUSH0 DUP2 SWAP1 POP SWAP2 SWAP1 POP JUMP JUMPDEST PUSH0 PUSH2 0x129B PUSH2 0x1296 PUSH2 0x1291 DUP5 PUSH2 0xBBB JUMP JUMPDEST PUSH2 0x1278 JUMP JUMPDEST PUSH2 0xBBB JUMP JUMPDEST SWAP1 POP SWAP2 SWAP1 POP JUMP JUMPDEST PUSH0 DUP2 SWAP1 POP SWAP2 SWAP1 POP JUMP JUMPDEST PUSH2 0x12B4 DUP4 PUSH2 0x1281 JUMP JUMPDEST PUSH2 0x12C8 PUSH2 0x12C0 DUP3 PUSH2 0x12A2 JUMP JUMPDEST DUP5 DUP5 SLOAD PUSH2 0x1227 JUMP JUMPDEST DUP3 SSTORE POP POP POP POP JUMP JUMPDEST PUSH0 SWAP1 JUMP JUMPDEST PUSH2 0x12DC PUSH2 0x12D0 JUMP JUMPDEST PUSH2 0x12E7 DUP2 DUP5 DUP5 PUSH2 0x12AB JUMP JUMPDEST POP POP POP JUMP JUMPDEST JUMPDEST DUP2 DUP2 LT ISZERO PUSH2 0x130A JUMPI PUSH2 0x12FF PUSH0 DUP3 PUSH2 0x12D4 JUMP JUMPDEST PUSH1 0x1 DUP2 ADD SWAP1 POP PUSH2 0x12ED JUMP JUMPDEST POP POP JUMP JUMPDEST PUSH1 0x1F DUP3 GT ISZERO PUSH2 0x134F JUMPI PUSH2 0x1320 DUP2 PUSH2 0x11FA JUMP JUMPDEST PUSH2 0x1329 DUP5 PUSH2 0x120C JUMP JUMPDEST DUP2 ADD PUSH1 0x20 DUP6 LT ISZERO PUSH2 0x1338 JUMPI DUP2 SWAP1 POP JUMPDEST PUSH2 0x134C PUSH2 0x1344 DUP6 PUSH2 0x120C JUMP JUMPDEST DUP4 ADD DUP3 PUSH2 0x12EC JUMP JUMPDEST POP POP JUMPDEST POP POP POP JUMP JUMPDEST PUSH0 DUP3 DUP3 SHR SWAP1 POP SWAP3 SWAP2 POP POP JUMP JUMPDEST PUSH0 PUSH2 0x136F PUSH0 NOT DUP5 PUSH1 0x8 MUL PUSH2 0x1354 JUMP JUMPDEST NOT DUP1 DUP4 AND SWAP2 POP POP SWAP3 SWAP2 POP POP JUMP JUMPDEST PUSH0 PUSH2 0x1387 DUP4 DUP4 PUSH2 0x1360 JUMP JUMPDEST SWAP2 POP DUP3 PUSH1 0x2 MUL DUP3 OR SWAP1 POP SWAP3 SWAP2 POP POP JUMP JUMPDEST PUSH2 0x13A0 DUP3 PUSH2 0xBEC JUMP JUMPDEST PUSH8 0xFFFFFFFFFFFFFFFF DUP2 GT ISZERO PUSH2 0x13B9 JUMPI PUSH2 0x13B8 PUSH2 0xC9E JUMP JUMPDEST JUMPDEST PUSH2 0x13C3 DUP3 SLOAD PUSH2 0x10A9 JUMP JUMPDEST PUSH2 0x13CE DUP3 DUP3 DUP6 PUSH2 0x130E JUMP JUMPDEST PUSH0 PUSH1 0x20 SWAP1 POP PUSH1 0x1F DUP4 GT PUSH1 0x1 DUP2 EQ PUSH2 0x13FF JUMPI PUSH0 DUP5 ISZERO PUSH2 0x13ED JUMPI DUP3 DUP8 ADD MLOAD SWAP1 POP JUMPDEST PUSH2 0x13F7 DUP6 DUP3 PUSH2 0x137C JUMP JUMPDEST DUP7 SSTORE POP PUSH2 0x145E JUMP JUMPDEST PUSH1 0x1F NOT DUP5 AND PUSH2 0x140D DUP7 PUSH2 0x11FA JUMP JUMPDEST PUSH0 JUMPDEST DUP3 DUP2 LT ISZERO PUSH2 0x1434 JUMPI DUP5 DUP10 ADD MLOAD DUP3 SSTORE PUSH1 0x1 DUP3 ADD SWAP2 POP PUSH1 0x20 DUP6 ADD SWAP5 POP PUSH1 0x20 DUP2 ADD SWAP1 POP PUSH2 0x140F JUMP JUMPDEST DUP7 DUP4 LT ISZERO PUSH2 0x1451 JUMPI DUP5 DUP10 ADD MLOAD PUSH2 0x144D PUSH1 0x1F DUP10 AND DUP3 PUSH2 0x1360 JUMP JUMPDEST DUP4 SSTORE POP JUMPDEST PUSH1 0x1 PUSH1 0x2 DUP9 MUL ADD DUP9 SSTORE POP POP POP JUMPDEST POP POP POP POP POP POP JUMP JUMPDEST PUSH0 PUSH2 0x1470 DUP3 PUSH2 0xBBB JUMP JUMPDEST SWAP2 POP PUSH2 0x147B DUP4 PUSH2 0xBBB JUMP JUMPDEST SWAP3 POP DUP3 DUP3 MUL PUSH2 0x1489 DUP2 PUSH2 0xBBB JUMP JUMPDEST SWAP2 POP DUP3 DUP3 DIV DUP5 EQ DUP4 ISZERO OR PUSH2 0x14A0 JUMPI PUSH2 0x149F PUSH2 0x1129 JUMP JUMPDEST JUMPDEST POP SWAP3 SWAP2 POP POP JUMP INVALID LOG2 PUSH5 0x6970667358 0x22 SLT KECCAK256 0x4C PUSH32 0xCA599CA816379AA2C9D0D2DEF204FD95A76B8AC094C124923DA2672689FC6473 PUSH16 0x6C63430008180033A264697066735822 SLT KECCAK256 SSTORE 0xA8 MUL PUSH1 0xF7 0xCD DUP6 SGT 0xD8 SHR SWAP16 DUP2 SMOD 0xF PUSH23 0xDF049637F4EBB3C8AE5C87CB6101CDD67B64736F6C6343 STOP ADDMOD XOR STOP CALLER "},"gasEstimates":{"creation":{"codeDepositCost":"2104200","executionCost":"26499","totalCost":"2130699"},"external":{"createCampaign(string,uint256)":"infinite","getCampaigns()":"infinite","getCreatorAddress()":"2515","getDeployedCampaigns()":"infinite"}},"methodIdentifiers":{"createCampaign(string,uint256)":"f102a67c","getCampaigns()":"a6b03633","getCreatorAddress()":"94d2d7a7","getDeployedCampaigns()":"4acb9d4f"}},"storageLayout":{"storage":[{"astId":11,"contract":"Campaign.sol:CampaignFactory","label":"_deployedCampaigns","offset":0,"slot":"0","type":"t_array(t_address)dyn_storage"},{"astId":13,"contract":"Campaign.sol:CampaignFactory","label":"_creator","offset":0,"slot":"1","type":"t_address"},{"astId":17,"contract":"Campaign.sol:CampaignFactory","label":"_campaigns","offset":0,"slot":"2","type":"t_array(t_struct(CampaignInfo)8_storage)dyn_storage"}],"types":{"t_address":{"encoding":"inplace","label":"address","numberOfBytes":"20"},"t_array(t_address)dyn_storage":{"base":"t_address","encoding":"dynamic_array","label":"address[]","numberOfBytes":"32"},"t_array(t_struct(CampaignInfo)8_storage)dyn_storage":{"base":"t_struct(CampaignInfo)8_storage","encoding":"dynamic_array","label":"struct CampaignFactory.CampaignInfo[]","numberOfBytes":"32"},"t_string_storage":{"encoding":"bytes","label":"string","numberOfBytes":"32"},"t_struct(CampaignInfo)8_storage":{"encoding":"inplace","label":"struct CampaignFactory.CampaignInfo","members":[{"astId":3,"contract":"Campaign.sol:CampaignFactory","label":"creatorAddress","offset":0,"slot":"0","type":"t_address"},{"astId":5,"contract":"Campaign.sol:CampaignFactory","label":"name","offset":0,"slot":"1","type":"t_string_storage"},{"astId":7,"contract":"Campaign.sol:CampaignFactory","label":"campaignAddress","offset":0,"slot":"2","type":"t_address"}],"numberOfBytes":"96"}}},"userdoc":{"kind":"user","methods":{},"version":1}}