{"abi":[{"inputs":[{"internalType":"string","name":"name","type":"string"},{"internalType":"string","name":"description","type":"string"},{"internalType":"uint256","name":"minimum","type":"uint256"},{"internalType":"address","name":"mngr","type":"address"}],"stateMutability":"nonpayable","type":"constructor"},{"inputs":[],"name":"addFunds","outputs":[],"stateMutability":"payable","type":"function"},{"inputs":[{"internalType":"address","name":"","type":"address"}],"name":"approvers","outputs":[{"internalType":"uint256","name":"","type":"uint256"}],"stateMutability":"view","type":"function"},{"inputs":[],"name":"cancelCampaign","outputs":[],"stateMutability":"nonpayable","type":"function"},{"inputs":[],"name":"claimFunds","outputs":[],"stateMutability":"nonpayable","type":"function"},{"inputs":[{"internalType":"string","name":"reqName","type":"string"},{"internalType":"string","name":"description","type":"string"}],"name":"claimRequest","outputs":[],"stateMutability":"nonpayable","type":"function"},{"inputs":[],"name":"contribute","outputs":[],"stateMutability":"payable","type":"function"},{"inputs":[],"name":"getCampaignName","outputs":[{"internalType":"string","name":"","type":"string"}],"stateMutability":"view","type":"function"},{"inputs":[],"name":"getContractBalance","outputs":[{"internalType":"uint256","name":"","type":"uint256"}],"stateMutability":"view","type":"function"},{"inputs":[],"name":"getContributorsCount","outputs":[{"internalType":"uint256","name":"","type":"uint256"}],"stateMutability":"view","type":"function"},{"inputs":[],"name":"getDescription","outputs":[{"internalType":"string","name":"","type":"string"}],"stateMutability":"view","type":"function"},{"inputs":[],"name":"getManager","outputs":[{"internalType":"address","name":"","type":"address"}],"stateMutability":"view","type":"function"},{"inputs":[],"name":"getMinimumContribution","outputs":[{"internalType":"uint256","name":"","type":"uint256"}],"stateMutability":"view","type":"function"},{"inputs":[{"internalType":"string","name":"reqName","type":"string"}],"name":"getRequestClaims","outputs":[{"components":[{"internalType":"address","name":"contributor","type":"address"},{"internalType":"string","name":"description","type":"string"}],"internalType":"struct Campaign.RequestClaim[]","name":"","type":"tuple[]"}],"stateMutability":"view","type":"function"},{"inputs":[],"name":"getRequests","outputs":[{"components":[{"internalType":"string","name":"name","type":"string"},{"internalType":"string","name":"description","type":"string"},{"internalType":"uint256","name":"amount","type":"uint256"}],"internalType":"struct Campaign.RequestSummary[]","name":"","type":"tuple[]"}],"stateMutability":"view","type":"function"},{"inputs":[],"name":"getRequestsCount","outputs":[{"internalType":"uint256","name":"","type":"uint256"}],"stateMutability":"view","type":"function"},{"inputs":[],"name":"getSummary","outputs":[{"components":[{"internalType":"address","name":"manager","type":"address"},{"internalType":"string","name":"name","type":"string"},{"internalType":"string","name":"description","type":"string"},{"internalType":"uint256","name":"minContribution","type":"uint256"},{"internalType":"uint256","name":"balance","type":"uint256"},{"internalType":"uint256","name":"contributors","type":"uint256"},{"internalType":"uint256","name":"totalRequests","type":"uint256"},{"internalType":"bool","name":"isCancelled","type":"bool"}],"internalType":"struct Campaign.Summary","name":"","type":"tuple"}],"stateMutability":"view","type":"function"},{"inputs":[{"internalType":"string","name":"reqName","type":"string"},{"internalType":"string","name":"reason","type":"string"}],"name":"rejectRequest","outputs":[],"stateMutability":"nonpayable","type":"function"},{"inputs":[{"internalType":"string","name":"","type":"string"}],"name":"requests","outputs":[{"internalType":"string","name":"name","type":"string"},{"internalType":"string","name":"description","type":"string"},{"internalType":"uint256","name":"amount","type":"uint256"},{"internalType":"address payable","name":"receiver","type":"address"},{"internalType":"uint256","name":"approvalsCount","type":"uint256"},{"internalType":"uint256","name":"requiredApprovals","type":"uint256"},{"internalType":"uint256","name":"rejectionsCount","type":"uint256"},{"internalType":"uint256","name":"claimsCount","type":"uint256"},{"internalType":"bool","name":"canSubmit","type":"bool"},{"internalType":"bool","name":"complete","type":"bool"},{"internalType":"bool","name":"rejected","type":"bool"},{"internalType":"string","name":"rejectReason","type":"string"}],"stateMutability":"view","type":"function"},{"inputs":[{"internalType":"string","name":"reqName","type":"string"}],"name":"submitRequest","outputs":[],"stateMutability":"nonpayable","type":"function"},{"inputs":[{"internalType":"string","name":"name","type":"string"},{"internalType":"string","name":"description","type":"string"},{"internalType":"uint256","name":"amount","type":"uint256"},{"internalType":"uint256","name":"requiredApprovals","type":"uint256"},{"internalType":"address payable","name":"receiver","type":"address"}],"name":"triggerCampaignRequest","outputs":[],"stateMutability":"nonpayable","type":"function"},{"inputs":[{"internalType":"string","name":"reqName","type":"string"},{"internalType":"bool","name":"isApproval","type":"bool"}],"name":"voteRequest","outputs":[],"stateMutability":"nonpayable","type":"function"}],"devdoc":{"kind":"dev","methods":{},"version":1},"evm":{"assembly":"    /* \"Campaign.sol\":1142:8565  contract Campaign... */\n  mstore(0x40, 0x80)\n    /* \"Campaign.sol\":2377:2630  constructor (string memory name, string memory description, uint minimum, address mngr)... */\n  callvalue\n  dup1\n  iszero\n  tag_1\n  jumpi\n  0x00\n  dup1\n  revert\ntag_1:\n  pop\n  mload(0x40)\n  sub(codesize, bytecodeSize)\n  dup1\n  bytecodeSize\n  dup4\n  codecopy\n  dup2\n  dup2\n  add\n  0x40\n  mstore\n  dup2\n  add\n  swap1\n  tag_2\n  swap2\n  swap1\n  tag_3\n  jump\t// in\ntag_2:\n    /* \"Campaign.sol\":2497:2498  0 */\n  0x00\n    /* \"Campaign.sol\":2487:2494  minimum */\n  dup3\n    /* \"Campaign.sol\":2487:2498  minimum > 0 */\n  gt\n    /* \"Campaign.sol\":2479:2499  require(minimum > 0) */\n  tag_6\n  jumpi\n  0x00\n  dup1\n  revert\ntag_6:\n    /* \"Campaign.sol\":2520:2524  mngr */\n  dup1\n    /* \"Campaign.sol\":2509:2517  _manager */\n  0x02\n  0x00\n    /* \"Campaign.sol\":2509:2524  _manager = mngr */\n  0x0100\n  exp\n  dup2\n  sload\n  dup2\n  0xffffffffffffffffffffffffffffffffffffffff\n  mul\n  not\n  and\n  swap1\n  dup4\n  0xffffffffffffffffffffffffffffffffffffffff\n  and\n  mul\n  or\n  swap1\n  sstore\n  pop\n    /* \"Campaign.sol\":2542:2546  name */\n  dup4\n    /* \"Campaign.sol\":2534:2539  _name */\n  0x00\n    /* \"Campaign.sol\":2534:2546  _name = name */\n  swap1\n  dup2\n  tag_7\n  swap2\n  swap1\n  tag_8\n  jump\t// in\ntag_7:\n  pop\n    /* \"Campaign.sol\":2571:2582  description */\n  dup3\n    /* \"Campaign.sol\":2556:2568  _description */\n  0x01\n    /* \"Campaign.sol\":2556:2582  _description = description */\n  swap1\n  dup2\n  tag_9\n  swap2\n  swap1\n  tag_8\n  jump\t// in\ntag_9:\n  pop\n    /* \"Campaign.sol\":2616:2623  minimum */\n  dup2\n    /* \"Campaign.sol\":2593:2613  _minimumContribution */\n  0x05\n    /* \"Campaign.sol\":2593:2623  _minimumContribution = minimum */\n  dup2\n  swap1\n  sstore\n  pop\n    /* \"Campaign.sol\":2377:2630  constructor (string memory name, string memory description, uint minimum, address mngr)... */\n  pop\n  pop\n  pop\n  pop\n    /* \"Campaign.sol\":1142:8565  contract Campaign... */\n  jump(tag_10)\n    /* \"#utility.yul\":7:82   */\ntag_11:\n    /* \"#utility.yul\":40:46   */\n  0x00\n    /* \"#utility.yul\":73:75   */\n  0x40\n    /* \"#utility.yul\":67:76   */\n  mload\n    /* \"#utility.yul\":57:76   */\n  swap1\n  pop\n    /* \"#utility.yul\":7:82   */\n  swap1\n  jump\t// out\n    /* \"#utility.yul\":88:205   */\ntag_12:\n    /* \"#utility.yul\":197:198   */\n  0x00\n    /* \"#utility.yul\":194:195   */\n  dup1\n    /* \"#utility.yul\":187:199   */\n  revert\n    /* \"#utility.yul\":211:328   */\ntag_13:\n    /* \"#utility.yul\":320:321   */\n  0x00\n    /* \"#utility.yul\":317:318   */\n  dup1\n    /* \"#utility.yul\":310:322   */\n  revert\n    /* \"#utility.yul\":334:451   */\ntag_14:\n    /* \"#utility.yul\":443:444   */\n  0x00\n    /* \"#utility.yul\":440:441   */\n  dup1\n    /* \"#utility.yul\":433:445   */\n  revert\n    /* \"#utility.yul\":457:574   */\ntag_15:\n    /* \"#utility.yul\":566:567   */\n  0x00\n    /* \"#utility.yul\":563:564   */\n  dup1\n    /* \"#utility.yul\":556:568   */\n  revert\n    /* \"#utility.yul\":580:682   */\ntag_16:\n    /* \"#utility.yul\":621:627   */\n  0x00\n    /* \"#utility.yul\":672:674   */\n  0x1f\n    /* \"#utility.yul\":668:675   */\n  not\n    /* \"#utility.yul\":663:665   */\n  0x1f\n    /* \"#utility.yul\":656:661   */\n  dup4\n    /* \"#utility.yul\":652:666   */\n  add\n    /* \"#utility.yul\":648:676   */\n  and\n    /* \"#utility.yul\":638:676   */\n  swap1\n  pop\n    /* \"#utility.yul\":580:682   */\n  swap2\n  swap1\n  pop\n  jump\t// out\n    /* \"#utility.yul\":688:868   */\ntag_17:\n    /* \"#utility.yul\":736:813   */\n  0x4e487b7100000000000000000000000000000000000000000000000000000000\n    /* \"#utility.yul\":733:734   */\n  0x00\n    /* \"#utility.yul\":726:814   */\n  mstore\n    /* \"#utility.yul\":833:837   */\n  0x41\n    /* \"#utility.yul\":830:831   */\n  0x04\n    /* \"#utility.yul\":823:838   */\n  mstore\n    /* \"#utility.yul\":857:861   */\n  0x24\n    /* \"#utility.yul\":854:855   */\n  0x00\n    /* \"#utility.yul\":847:862   */\n  revert\n    /* \"#utility.yul\":874:1155   */\ntag_18:\n    /* \"#utility.yul\":957:984   */\n  tag_58\n    /* \"#utility.yul\":979:983   */\n  dup3\n    /* \"#utility.yul\":957:984   */\n  tag_16\n  jump\t// in\ntag_58:\n    /* \"#utility.yul\":949:955   */\n  dup2\n    /* \"#utility.yul\":945:985   */\n  add\n    /* \"#utility.yul\":1087:1093   */\n  dup2\n    /* \"#utility.yul\":1075:1085   */\n  dup2\n    /* \"#utility.yul\":1072:1094   */\n  lt\n    /* \"#utility.yul\":1051:1069   */\n  0xffffffffffffffff\n    /* \"#utility.yul\":1039:1049   */\n  dup3\n    /* \"#utility.yul\":1036:1070   */\n  gt\n    /* \"#utility.yul\":1033:1095   */\n  or\n    /* \"#utility.yul\":1030:1118   */\n  iszero\n  tag_59\n  jumpi\n    /* \"#utility.yul\":1098:1116   */\n  tag_60\n  tag_17\n  jump\t// in\ntag_60:\n    /* \"#utility.yul\":1030:1118   */\ntag_59:\n    /* \"#utility.yul\":1138:1148   */\n  dup1\n    /* \"#utility.yul\":1134:1136   */\n  0x40\n    /* \"#utility.yul\":1127:1149   */\n  mstore\n    /* \"#utility.yul\":917:1155   */\n  pop\n    /* \"#utility.yul\":874:1155   */\n  pop\n  pop\n  jump\t// out\n    /* \"#utility.yul\":1161:1290   */\ntag_19:\n    /* \"#utility.yul\":1195:1201   */\n  0x00\n    /* \"#utility.yul\":1222:1242   */\n  tag_62\n  tag_11\n  jump\t// in\ntag_62:\n    /* \"#utility.yul\":1212:1242   */\n  swap1\n  pop\n    /* \"#utility.yul\":1251:1284   */\n  tag_63\n    /* \"#utility.yul\":1279:1283   */\n  dup3\n    /* \"#utility.yul\":1271:1277   */\n  dup3\n    /* \"#utility.yul\":1251:1284   */\n  tag_18\n  jump\t// in\ntag_63:\n    /* \"#utility.yul\":1161:1290   */\n  swap2\n  swap1\n  pop\n  jump\t// out\n    /* \"#utility.yul\":1296:1604   */\ntag_20:\n    /* \"#utility.yul\":1358:1362   */\n  0x00\n    /* \"#utility.yul\":1448:1466   */\n  0xffffffffffffffff\n    /* \"#utility.yul\":1440:1446   */\n  dup3\n    /* \"#utility.yul\":1437:1467   */\n  gt\n    /* \"#utility.yul\":1434:1490   */\n  iszero\n  tag_65\n  jumpi\n    /* \"#utility.yul\":1470:1488   */\n  tag_66\n  tag_17\n  jump\t// in\ntag_66:\n    /* \"#utility.yul\":1434:1490   */\ntag_65:\n    /* \"#utility.yul\":1508:1537   */\n  tag_67\n    /* \"#utility.yul\":1530:1536   */\n  dup3\n    /* \"#utility.yul\":1508:1537   */\n  tag_16\n  jump\t// in\ntag_67:\n    /* \"#utility.yul\":1500:1537   */\n  swap1\n  pop\n    /* \"#utility.yul\":1592:1596   */\n  0x20\n    /* \"#utility.yul\":1586:1590   */\n  dup2\n    /* \"#utility.yul\":1582:1597   */\n  add\n    /* \"#utility.yul\":1574:1597   */\n  swap1\n  pop\n    /* \"#utility.yul\":1296:1604   */\n  swap2\n  swap1\n  pop\n  jump\t// out\n    /* \"#utility.yul\":1610:1856   */\ntag_21:\n    /* \"#utility.yul\":1691:1692   */\n  0x00\n    /* \"#utility.yul\":1701:1814   */\ntag_69:\n    /* \"#utility.yul\":1715:1721   */\n  dup4\n    /* \"#utility.yul\":1712:1713   */\n  dup2\n    /* \"#utility.yul\":1709:1722   */\n  lt\n    /* \"#utility.yul\":1701:1814   */\n  iszero\n  tag_71\n  jumpi\n    /* \"#utility.yul\":1800:1801   */\n  dup1\n    /* \"#utility.yul\":1795:1798   */\n  dup3\n    /* \"#utility.yul\":1791:1802   */\n  add\n    /* \"#utility.yul\":1785:1803   */\n  mload\n    /* \"#utility.yul\":1781:1782   */\n  dup2\n    /* \"#utility.yul\":1776:1779   */\n  dup5\n    /* \"#utility.yul\":1772:1783   */\n  add\n    /* \"#utility.yul\":1765:1804   */\n  mstore\n    /* \"#utility.yul\":1737:1739   */\n  0x20\n    /* \"#utility.yul\":1734:1735   */\n  dup2\n    /* \"#utility.yul\":1730:1740   */\n  add\n    /* \"#utility.yul\":1725:1740   */\n  swap1\n  pop\n    /* \"#utility.yul\":1701:1814   */\n  jump(tag_69)\ntag_71:\n    /* \"#utility.yul\":1848:1849   */\n  0x00\n    /* \"#utility.yul\":1839:1845   */\n  dup5\n    /* \"#utility.yul\":1834:1837   */\n  dup5\n    /* \"#utility.yul\":1830:1846   */\n  add\n    /* \"#utility.yul\":1823:1850   */\n  mstore\n    /* \"#utility.yul\":1672:1856   */\n  pop\n    /* \"#utility.yul\":1610:1856   */\n  pop\n  pop\n  pop\n  jump\t// out\n    /* \"#utility.yul\":1862:2296   */\ntag_22:\n    /* \"#utility.yul\":1951:1956   */\n  0x00\n    /* \"#utility.yul\":1976:2042   */\n  tag_73\n    /* \"#utility.yul\":1992:2041   */\n  tag_74\n    /* \"#utility.yul\":2034:2040   */\n  dup5\n    /* \"#utility.yul\":1992:2041   */\n  tag_20\n  jump\t// in\ntag_74:\n    /* \"#utility.yul\":1976:2042   */\n  tag_19\n  jump\t// in\ntag_73:\n    /* \"#utility.yul\":1967:2042   */\n  swap1\n  pop\n    /* \"#utility.yul\":2065:2071   */\n  dup3\n    /* \"#utility.yul\":2058:2063   */\n  dup2\n    /* \"#utility.yul\":2051:2072   */\n  mstore\n    /* \"#utility.yul\":2103:2107   */\n  0x20\n    /* \"#utility.yul\":2096:2101   */\n  dup2\n    /* \"#utility.yul\":2092:2108   */\n  add\n    /* \"#utility.yul\":2141:2144   */\n  dup5\n    /* \"#utility.yul\":2132:2138   */\n  dup5\n    /* \"#utility.yul\":2127:2130   */\n  dup5\n    /* \"#utility.yul\":2123:2139   */\n  add\n    /* \"#utility.yul\":2120:2145   */\n  gt\n    /* \"#utility.yul\":2117:2229   */\n  iszero\n  tag_75\n  jumpi\n    /* \"#utility.yul\":2148:2227   */\n  tag_76\n  tag_15\n  jump\t// in\ntag_76:\n    /* \"#utility.yul\":2117:2229   */\ntag_75:\n    /* \"#utility.yul\":2238:2290   */\n  tag_77\n    /* \"#utility.yul\":2283:2289   */\n  dup5\n    /* \"#utility.yul\":2278:2281   */\n  dup3\n    /* \"#utility.yul\":2273:2276   */\n  dup6\n    /* \"#utility.yul\":2238:2290   */\n  tag_21\n  jump\t// in\ntag_77:\n    /* \"#utility.yul\":1957:2296   */\n  pop\n    /* \"#utility.yul\":1862:2296   */\n  swap4\n  swap3\n  pop\n  pop\n  pop\n  jump\t// out\n    /* \"#utility.yul\":2316:2671   */\ntag_23:\n    /* \"#utility.yul\":2383:2388   */\n  0x00\n    /* \"#utility.yul\":2432:2435   */\n  dup3\n    /* \"#utility.yul\":2425:2429   */\n  0x1f\n    /* \"#utility.yul\":2417:2423   */\n  dup4\n    /* \"#utility.yul\":2413:2430   */\n  add\n    /* \"#utility.yul\":2409:2436   */\n  slt\n    /* \"#utility.yul\":2399:2521   */\n  tag_79\n  jumpi\n    /* \"#utility.yul\":2440:2519   */\n  tag_80\n  tag_14\n  jump\t// in\ntag_80:\n    /* \"#utility.yul\":2399:2521   */\ntag_79:\n    /* \"#utility.yul\":2550:2556   */\n  dup2\n    /* \"#utility.yul\":2544:2557   */\n  mload\n    /* \"#utility.yul\":2575:2665   */\n  tag_81\n    /* \"#utility.yul\":2661:2664   */\n  dup5\n    /* \"#utility.yul\":2653:2659   */\n  dup3\n    /* \"#utility.yul\":2646:2650   */\n  0x20\n    /* \"#utility.yul\":2638:2644   */\n  dup7\n    /* \"#utility.yul\":2634:2651   */\n  add\n    /* \"#utility.yul\":2575:2665   */\n  tag_22\n  jump\t// in\ntag_81:\n    /* \"#utility.yul\":2566:2665   */\n  swap2\n  pop\n    /* \"#utility.yul\":2389:2671   */\n  pop\n    /* \"#utility.yul\":2316:2671   */\n  swap3\n  swap2\n  pop\n  pop\n  jump\t// out\n    /* \"#utility.yul\":2677:2754   */\ntag_24:\n    /* \"#utility.yul\":2714:2721   */\n  0x00\n    /* \"#utility.yul\":2743:2748   */\n  dup2\n    /* \"#utility.yul\":2732:2748   */\n  swap1\n  pop\n    /* \"#utility.yul\":2677:2754   */\n  swap2\n  swap1\n  pop\n  jump\t// out\n    /* \"#utility.yul\":2760:2882   */\ntag_25:\n    /* \"#utility.yul\":2833:2857   */\n  tag_84\n    /* \"#utility.yul\":2851:2856   */\n  dup2\n    /* \"#utility.yul\":2833:2857   */\n  tag_24\n  jump\t// in\ntag_84:\n    /* \"#utility.yul\":2826:2831   */\n  dup2\n    /* \"#utility.yul\":2823:2858   */\n  eq\n    /* \"#utility.yul\":2813:2876   */\n  tag_85\n  jumpi\n    /* \"#utility.yul\":2872:2873   */\n  0x00\n    /* \"#utility.yul\":2869:2870   */\n  dup1\n    /* \"#utility.yul\":2862:2874   */\n  revert\n    /* \"#utility.yul\":2813:2876   */\ntag_85:\n    /* \"#utility.yul\":2760:2882   */\n  pop\n  jump\t// out\n    /* \"#utility.yul\":2888:3031   */\ntag_26:\n    /* \"#utility.yul\":2945:2950   */\n  0x00\n    /* \"#utility.yul\":2976:2982   */\n  dup2\n    /* \"#utility.yul\":2970:2983   */\n  mload\n    /* \"#utility.yul\":2961:2983   */\n  swap1\n  pop\n    /* \"#utility.yul\":2992:3025   */\n  tag_87\n    /* \"#utility.yul\":3019:3024   */\n  dup2\n    /* \"#utility.yul\":2992:3025   */\n  tag_25\n  jump\t// in\ntag_87:\n    /* \"#utility.yul\":2888:3031   */\n  swap3\n  swap2\n  pop\n  pop\n  jump\t// out\n    /* \"#utility.yul\":3037:3163   */\ntag_27:\n    /* \"#utility.yul\":3074:3081   */\n  0x00\n    /* \"#utility.yul\":3114:3156   */\n  0xffffffffffffffffffffffffffffffffffffffff\n    /* \"#utility.yul\":3107:3112   */\n  dup3\n    /* \"#utility.yul\":3103:3157   */\n  and\n    /* \"#utility.yul\":3092:3157   */\n  swap1\n  pop\n    /* \"#utility.yul\":3037:3163   */\n  swap2\n  swap1\n  pop\n  jump\t// out\n    /* \"#utility.yul\":3169:3265   */\ntag_28:\n    /* \"#utility.yul\":3206:3213   */\n  0x00\n    /* \"#utility.yul\":3235:3259   */\n  tag_90\n    /* \"#utility.yul\":3253:3258   */\n  dup3\n    /* \"#utility.yul\":3235:3259   */\n  tag_27\n  jump\t// in\ntag_90:\n    /* \"#utility.yul\":3224:3259   */\n  swap1\n  pop\n    /* \"#utility.yul\":3169:3265   */\n  swap2\n  swap1\n  pop\n  jump\t// out\n    /* \"#utility.yul\":3271:3393   */\ntag_29:\n    /* \"#utility.yul\":3344:3368   */\n  tag_92\n    /* \"#utility.yul\":3362:3367   */\n  dup2\n    /* \"#utility.yul\":3344:3368   */\n  tag_28\n  jump\t// in\ntag_92:\n    /* \"#utility.yul\":3337:3342   */\n  dup2\n    /* \"#utility.yul\":3334:3369   */\n  eq\n    /* \"#utility.yul\":3324:3387   */\n  tag_93\n  jumpi\n    /* \"#utility.yul\":3383:3384   */\n  0x00\n    /* \"#utility.yul\":3380:3381   */\n  dup1\n    /* \"#utility.yul\":3373:3385   */\n  revert\n    /* \"#utility.yul\":3324:3387   */\ntag_93:\n    /* \"#utility.yul\":3271:3393   */\n  pop\n  jump\t// out\n    /* \"#utility.yul\":3399:3542   */\ntag_30:\n    /* \"#utility.yul\":3456:3461   */\n  0x00\n    /* \"#utility.yul\":3487:3493   */\n  dup2\n    /* \"#utility.yul\":3481:3494   */\n  mload\n    /* \"#utility.yul\":3472:3494   */\n  swap1\n  pop\n    /* \"#utility.yul\":3503:3536   */\n  tag_95\n    /* \"#utility.yul\":3530:3535   */\n  dup2\n    /* \"#utility.yul\":3503:3536   */\n  tag_29\n  jump\t// in\ntag_95:\n    /* \"#utility.yul\":3399:3542   */\n  swap3\n  swap2\n  pop\n  pop\n  jump\t// out\n    /* \"#utility.yul\":3548:4714   */\ntag_3:\n    /* \"#utility.yul\":3665:3671   */\n  0x00\n    /* \"#utility.yul\":3673:3679   */\n  dup1\n    /* \"#utility.yul\":3681:3687   */\n  0x00\n    /* \"#utility.yul\":3689:3695   */\n  dup1\n    /* \"#utility.yul\":3738:3741   */\n  0x80\n    /* \"#utility.yul\":3726:3735   */\n  dup6\n    /* \"#utility.yul\":3717:3724   */\n  dup8\n    /* \"#utility.yul\":3713:3736   */\n  sub\n    /* \"#utility.yul\":3709:3742   */\n  slt\n    /* \"#utility.yul\":3706:3826   */\n  iszero\n  tag_97\n  jumpi\n    /* \"#utility.yul\":3745:3824   */\n  tag_98\n  tag_12\n  jump\t// in\ntag_98:\n    /* \"#utility.yul\":3706:3826   */\ntag_97:\n    /* \"#utility.yul\":3886:3887   */\n  0x00\n    /* \"#utility.yul\":3875:3884   */\n  dup6\n    /* \"#utility.yul\":3871:3888   */\n  add\n    /* \"#utility.yul\":3865:3889   */\n  mload\n    /* \"#utility.yul\":3916:3934   */\n  0xffffffffffffffff\n    /* \"#utility.yul\":3908:3914   */\n  dup2\n    /* \"#utility.yul\":3905:3935   */\n  gt\n    /* \"#utility.yul\":3902:4019   */\n  iszero\n  tag_99\n  jumpi\n    /* \"#utility.yul\":3938:4017   */\n  tag_100\n  tag_13\n  jump\t// in\ntag_100:\n    /* \"#utility.yul\":3902:4019   */\ntag_99:\n    /* \"#utility.yul\":4043:4117   */\n  tag_101\n    /* \"#utility.yul\":4109:4116   */\n  dup8\n    /* \"#utility.yul\":4100:4106   */\n  dup3\n    /* \"#utility.yul\":4089:4098   */\n  dup9\n    /* \"#utility.yul\":4085:4107   */\n  add\n    /* \"#utility.yul\":4043:4117   */\n  tag_23\n  jump\t// in\ntag_101:\n    /* \"#utility.yul\":4033:4117   */\n  swap5\n  pop\n    /* \"#utility.yul\":3836:4127   */\n  pop\n    /* \"#utility.yul\":4187:4189   */\n  0x20\n    /* \"#utility.yul\":4176:4185   */\n  dup6\n    /* \"#utility.yul\":4172:4190   */\n  add\n    /* \"#utility.yul\":4166:4191   */\n  mload\n    /* \"#utility.yul\":4218:4236   */\n  0xffffffffffffffff\n    /* \"#utility.yul\":4210:4216   */\n  dup2\n    /* \"#utility.yul\":4207:4237   */\n  gt\n    /* \"#utility.yul\":4204:4321   */\n  iszero\n  tag_102\n  jumpi\n    /* \"#utility.yul\":4240:4319   */\n  tag_103\n  tag_13\n  jump\t// in\ntag_103:\n    /* \"#utility.yul\":4204:4321   */\ntag_102:\n    /* \"#utility.yul\":4345:4419   */\n  tag_104\n    /* \"#utility.yul\":4411:4418   */\n  dup8\n    /* \"#utility.yul\":4402:4408   */\n  dup3\n    /* \"#utility.yul\":4391:4400   */\n  dup9\n    /* \"#utility.yul\":4387:4409   */\n  add\n    /* \"#utility.yul\":4345:4419   */\n  tag_23\n  jump\t// in\ntag_104:\n    /* \"#utility.yul\":4335:4419   */\n  swap4\n  pop\n    /* \"#utility.yul\":4137:4429   */\n  pop\n    /* \"#utility.yul\":4468:4470   */\n  0x40\n    /* \"#utility.yul\":4494:4558   */\n  tag_105\n    /* \"#utility.yul\":4550:4557   */\n  dup8\n    /* \"#utility.yul\":4541:4547   */\n  dup3\n    /* \"#utility.yul\":4530:4539   */\n  dup9\n    /* \"#utility.yul\":4526:4548   */\n  add\n    /* \"#utility.yul\":4494:4558   */\n  tag_26\n  jump\t// in\ntag_105:\n    /* \"#utility.yul\":4484:4558   */\n  swap3\n  pop\n    /* \"#utility.yul\":4439:4568   */\n  pop\n    /* \"#utility.yul\":4607:4609   */\n  0x60\n    /* \"#utility.yul\":4633:4697   */\n  tag_106\n    /* \"#utility.yul\":4689:4696   */\n  dup8\n    /* \"#utility.yul\":4680:4686   */\n  dup3\n    /* \"#utility.yul\":4669:4678   */\n  dup9\n    /* \"#utility.yul\":4665:4687   */\n  add\n    /* \"#utility.yul\":4633:4697   */\n  tag_30\n  jump\t// in\ntag_106:\n    /* \"#utility.yul\":4623:4697   */\n  swap2\n  pop\n    /* \"#utility.yul\":4578:4707   */\n  pop\n    /* \"#utility.yul\":3548:4714   */\n  swap3\n  swap6\n  swap2\n  swap5\n  pop\n  swap3\n  pop\n  jump\t// out\n    /* \"#utility.yul\":4720:4819   */\ntag_31:\n    /* \"#utility.yul\":4772:4778   */\n  0x00\n    /* \"#utility.yul\":4806:4811   */\n  dup2\n    /* \"#utility.yul\":4800:4812   */\n  mload\n    /* \"#utility.yul\":4790:4812   */\n  swap1\n  pop\n    /* \"#utility.yul\":4720:4819   */\n  swap2\n  swap1\n  pop\n  jump\t// out\n    /* \"#utility.yul\":4825:5005   */\ntag_32:\n    /* \"#utility.yul\":4873:4950   */\n  0x4e487b7100000000000000000000000000000000000000000000000000000000\n    /* \"#utility.yul\":4870:4871   */\n  0x00\n    /* \"#utility.yul\":4863:4951   */\n  mstore\n    /* \"#utility.yul\":4970:4974   */\n  0x22\n    /* \"#utility.yul\":4967:4968   */\n  0x04\n    /* \"#utility.yul\":4960:4975   */\n  mstore\n    /* \"#utility.yul\":4994:4998   */\n  0x24\n    /* \"#utility.yul\":4991:4992   */\n  0x00\n    /* \"#utility.yul\":4984:4999   */\n  revert\n    /* \"#utility.yul\":5011:5331   */\ntag_33:\n    /* \"#utility.yul\":5055:5061   */\n  0x00\n    /* \"#utility.yul\":5092:5093   */\n  0x02\n    /* \"#utility.yul\":5086:5090   */\n  dup3\n    /* \"#utility.yul\":5082:5094   */\n  div\n    /* \"#utility.yul\":5072:5094   */\n  swap1\n  pop\n    /* \"#utility.yul\":5139:5140   */\n  0x01\n    /* \"#utility.yul\":5133:5137   */\n  dup3\n    /* \"#utility.yul\":5129:5141   */\n  and\n    /* \"#utility.yul\":5160:5178   */\n  dup1\n    /* \"#utility.yul\":5150:5231   */\n  tag_110\n  jumpi\n    /* \"#utility.yul\":5216:5220   */\n  0x7f\n    /* \"#utility.yul\":5208:5214   */\n  dup3\n    /* \"#utility.yul\":5204:5221   */\n  and\n    /* \"#utility.yul\":5194:5221   */\n  swap2\n  pop\n    /* \"#utility.yul\":5150:5231   */\ntag_110:\n    /* \"#utility.yul\":5278:5280   */\n  0x20\n    /* \"#utility.yul\":5270:5276   */\n  dup3\n    /* \"#utility.yul\":5267:5281   */\n  lt\n    /* \"#utility.yul\":5247:5265   */\n  dup2\n    /* \"#utility.yul\":5244:5282   */\n  sub\n    /* \"#utility.yul\":5241:5325   */\n  tag_111\n  jumpi\n    /* \"#utility.yul\":5297:5315   */\n  tag_112\n  tag_32\n  jump\t// in\ntag_112:\n    /* \"#utility.yul\":5241:5325   */\ntag_111:\n    /* \"#utility.yul\":5062:5331   */\n  pop\n    /* \"#utility.yul\":5011:5331   */\n  swap2\n  swap1\n  pop\n  jump\t// out\n    /* \"#utility.yul\":5337:5478   */\ntag_34:\n    /* \"#utility.yul\":5386:5390   */\n  0x00\n    /* \"#utility.yul\":5409:5412   */\n  dup2\n    /* \"#utility.yul\":5401:5412   */\n  swap1\n  pop\n    /* \"#utility.yul\":5432:5435   */\n  dup2\n    /* \"#utility.yul\":5429:5430   */\n  0x00\n    /* \"#utility.yul\":5422:5436   */\n  mstore\n    /* \"#utility.yul\":5466:5470   */\n  0x20\n    /* \"#utility.yul\":5463:5464   */\n  0x00\n    /* \"#utility.yul\":5453:5471   */\n  keccak256\n    /* \"#utility.yul\":5445:5471   */\n  swap1\n  pop\n    /* \"#utility.yul\":5337:5478   */\n  swap2\n  swap1\n  pop\n  jump\t// out\n    /* \"#utility.yul\":5484:5577   */\ntag_35:\n    /* \"#utility.yul\":5521:5527   */\n  0x00\n    /* \"#utility.yul\":5568:5570   */\n  0x20\n    /* \"#utility.yul\":5563:5565   */\n  0x1f\n    /* \"#utility.yul\":5556:5561   */\n  dup4\n    /* \"#utility.yul\":5552:5566   */\n  add\n    /* \"#utility.yul\":5548:5571   */\n  div\n    /* \"#utility.yul\":5538:5571   */\n  swap1\n  pop\n    /* \"#utility.yul\":5484:5577   */\n  swap2\n  swap1\n  pop\n  jump\t// out\n    /* \"#utility.yul\":5583:5690   */\ntag_36:\n    /* \"#utility.yul\":5627:5635   */\n  0x00\n    /* \"#utility.yul\":5677:5682   */\n  dup3\n    /* \"#utility.yul\":5671:5675   */\n  dup3\n    /* \"#utility.yul\":5667:5683   */\n  shl\n    /* \"#utility.yul\":5646:5683   */\n  swap1\n  pop\n    /* \"#utility.yul\":5583:5690   */\n  swap3\n  swap2\n  pop\n  pop\n  jump\t// out\n    /* \"#utility.yul\":5696:6089   */\ntag_37:\n    /* \"#utility.yul\":5765:5771   */\n  0x00\n    /* \"#utility.yul\":5815:5816   */\n  0x08\n    /* \"#utility.yul\":5803:5813   */\n  dup4\n    /* \"#utility.yul\":5799:5817   */\n  mul\n    /* \"#utility.yul\":5838:5935   */\n  tag_117\n    /* \"#utility.yul\":5868:5934   */\n  0xffffffffffffffffffffffffffffffffffffffffffffffffffffffffffffffff\n    /* \"#utility.yul\":5857:5866   */\n  dup3\n    /* \"#utility.yul\":5838:5935   */\n  tag_36\n  jump\t// in\ntag_117:\n    /* \"#utility.yul\":5956:5995   */\n  tag_118\n    /* \"#utility.yul\":5986:5994   */\n  dup7\n    /* \"#utility.yul\":5975:5984   */\n  dup4\n    /* \"#utility.yul\":5956:5995   */\n  tag_36\n  jump\t// in\ntag_118:\n    /* \"#utility.yul\":5944:5995   */\n  swap6\n  pop\n    /* \"#utility.yul\":6028:6032   */\n  dup1\n    /* \"#utility.yul\":6024:6033   */\n  not\n    /* \"#utility.yul\":6017:6022   */\n  dup5\n    /* \"#utility.yul\":6013:6034   */\n  and\n    /* \"#utility.yul\":6004:6034   */\n  swap4\n  pop\n    /* \"#utility.yul\":6077:6081   */\n  dup1\n    /* \"#utility.yul\":6067:6075   */\n  dup7\n    /* \"#utility.yul\":6063:6082   */\n  and\n    /* \"#utility.yul\":6056:6061   */\n  dup5\n    /* \"#utility.yul\":6053:6083   */\n  or\n    /* \"#utility.yul\":6043:6083   */\n  swap3\n  pop\n    /* \"#utility.yul\":5772:6089   */\n  pop\n  pop\n    /* \"#utility.yul\":5696:6089   */\n  swap4\n  swap3\n  pop\n  pop\n  pop\n  jump\t// out\n    /* \"#utility.yul\":6095:6155   */\ntag_38:\n    /* \"#utility.yul\":6123:6126   */\n  0x00\n    /* \"#utility.yul\":6144:6149   */\n  dup2\n    /* \"#utility.yul\":6137:6149   */\n  swap1\n  pop\n    /* \"#utility.yul\":6095:6155   */\n  swap2\n  swap1\n  pop\n  jump\t// out\n    /* \"#utility.yul\":6161:6303   */\ntag_39:\n    /* \"#utility.yul\":6211:6220   */\n  0x00\n    /* \"#utility.yul\":6244:6297   */\n  tag_121\n    /* \"#utility.yul\":6262:6296   */\n  tag_122\n    /* \"#utility.yul\":6271:6295   */\n  tag_123\n    /* \"#utility.yul\":6289:6294   */\n  dup5\n    /* \"#utility.yul\":6271:6295   */\n  tag_24\n  jump\t// in\ntag_123:\n    /* \"#utility.yul\":6262:6296   */\n  tag_38\n  jump\t// in\ntag_122:\n    /* \"#utility.yul\":6244:6297   */\n  tag_24\n  jump\t// in\ntag_121:\n    /* \"#utility.yul\":6231:6297   */\n  swap1\n  pop\n    /* \"#utility.yul\":6161:6303   */\n  swap2\n  swap1\n  pop\n  jump\t// out\n    /* \"#utility.yul\":6309:6384   */\ntag_40:\n    /* \"#utility.yul\":6352:6355   */\n  0x00\n    /* \"#utility.yul\":6373:6378   */\n  dup2\n    /* \"#utility.yul\":6366:6378   */\n  swap1\n  pop\n    /* \"#utility.yul\":6309:6384   */\n  swap2\n  swap1\n  pop\n  jump\t// out\n    /* \"#utility.yul\":6390:6659   */\ntag_41:\n    /* \"#utility.yul\":6500:6539   */\n  tag_126\n    /* \"#utility.yul\":6531:6538   */\n  dup4\n    /* \"#utility.yul\":6500:6539   */\n  tag_39\n  jump\t// in\ntag_126:\n    /* \"#utility.yul\":6561:6652   */\n  tag_127\n    /* \"#utility.yul\":6610:6651   */\n  tag_128\n    /* \"#utility.yul\":6634:6650   */\n  dup3\n    /* \"#utility.yul\":6610:6651   */\n  tag_40\n  jump\t// in\ntag_128:\n    /* \"#utility.yul\":6602:6608   */\n  dup5\n    /* \"#utility.yul\":6595:6599   */\n  dup5\n    /* \"#utility.yul\":6589:6600   */\n  sload\n    /* \"#utility.yul\":6561:6652   */\n  tag_37\n  jump\t// in\ntag_127:\n    /* \"#utility.yul\":6555:6559   */\n  dup3\n    /* \"#utility.yul\":6548:6653   */\n  sstore\n    /* \"#utility.yul\":6466:6659   */\n  pop\n    /* \"#utility.yul\":6390:6659   */\n  pop\n  pop\n  pop\n  jump\t// out\n    /* \"#utility.yul\":6665:6738   */\ntag_42:\n    /* \"#utility.yul\":6710:6713   */\n  0x00\n    /* \"#utility.yul\":6665:6738   */\n  swap1\n  jump\t// out\n    /* \"#utility.yul\":6744:6933   */\ntag_43:\n    /* \"#utility.yul\":6821:6853   */\n  tag_131\n  tag_42\n  jump\t// in\ntag_131:\n    /* \"#utility.yul\":6862:6927   */\n  tag_132\n    /* \"#utility.yul\":6920:6926   */\n  dup2\n    /* \"#utility.yul\":6912:6918   */\n  dup5\n    /* \"#utility.yul\":6906:6910   */\n  dup5\n    /* \"#utility.yul\":6862:6927   */\n  tag_41\n  jump\t// in\ntag_132:\n    /* \"#utility.yul\":6797:6933   */\n  pop\n    /* \"#utility.yul\":6744:6933   */\n  pop\n  pop\n  jump\t// out\n    /* \"#utility.yul\":6939:7125   */\ntag_44:\n    /* \"#utility.yul\":6999:7119   */\ntag_134:\n    /* \"#utility.yul\":7016:7019   */\n  dup2\n    /* \"#utility.yul\":7009:7014   */\n  dup2\n    /* \"#utility.yul\":7006:7020   */\n  lt\n    /* \"#utility.yul\":6999:7119   */\n  iszero\n  tag_136\n  jumpi\n    /* \"#utility.yul\":7070:7109   */\n  tag_137\n    /* \"#utility.yul\":7107:7108   */\n  0x00\n    /* \"#utility.yul\":7100:7105   */\n  dup3\n    /* \"#utility.yul\":7070:7109   */\n  tag_43\n  jump\t// in\ntag_137:\n    /* \"#utility.yul\":7043:7044   */\n  0x01\n    /* \"#utility.yul\":7036:7041   */\n  dup2\n    /* \"#utility.yul\":7032:7045   */\n  add\n    /* \"#utility.yul\":7023:7045   */\n  swap1\n  pop\n    /* \"#utility.yul\":6999:7119   */\n  jump(tag_134)\ntag_136:\n    /* \"#utility.yul\":6939:7125   */\n  pop\n  pop\n  jump\t// out\n    /* \"#utility.yul\":7131:7674   */\ntag_45:\n    /* \"#utility.yul\":7232:7234   */\n  0x1f\n    /* \"#utility.yul\":7227:7230   */\n  dup3\n    /* \"#utility.yul\":7224:7235   */\n  gt\n    /* \"#utility.yul\":7221:7667   */\n  iszero\n  tag_139\n  jumpi\n    /* \"#utility.yul\":7266:7304   */\n  tag_140\n    /* \"#utility.yul\":7298:7303   */\n  dup2\n    /* \"#utility.yul\":7266:7304   */\n  tag_34\n  jump\t// in\ntag_140:\n    /* \"#utility.yul\":7350:7379   */\n  tag_141\n    /* \"#utility.yul\":7368:7378   */\n  dup5\n    /* \"#utility.yul\":7350:7379   */\n  tag_35\n  jump\t// in\ntag_141:\n    /* \"#utility.yul\":7340:7348   */\n  dup2\n    /* \"#utility.yul\":7336:7380   */\n  add\n    /* \"#utility.yul\":7533:7535   */\n  0x20\n    /* \"#utility.yul\":7521:7531   */\n  dup6\n    /* \"#utility.yul\":7518:7536   */\n  lt\n    /* \"#utility.yul\":7515:7564   */\n  iszero\n  tag_142\n  jumpi\n    /* \"#utility.yul\":7554:7562   */\n  dup2\n    /* \"#utility.yul\":7539:7562   */\n  swap1\n  pop\n    /* \"#utility.yul\":7515:7564   */\ntag_142:\n    /* \"#utility.yul\":7577:7657   */\n  tag_143\n    /* \"#utility.yul\":7633:7655   */\n  tag_144\n    /* \"#utility.yul\":7651:7654   */\n  dup6\n    /* \"#utility.yul\":7633:7655   */\n  tag_35\n  jump\t// in\ntag_144:\n    /* \"#utility.yul\":7623:7631   */\n  dup4\n    /* \"#utility.yul\":7619:7656   */\n  add\n    /* \"#utility.yul\":7606:7617   */\n  dup3\n    /* \"#utility.yul\":7577:7657   */\n  tag_44\n  jump\t// in\ntag_143:\n    /* \"#utility.yul\":7236:7667   */\n  pop\n  pop\n    /* \"#utility.yul\":7221:7667   */\ntag_139:\n    /* \"#utility.yul\":7131:7674   */\n  pop\n  pop\n  pop\n  jump\t// out\n    /* \"#utility.yul\":7680:7797   */\ntag_46:\n    /* \"#utility.yul\":7734:7742   */\n  0x00\n    /* \"#utility.yul\":7784:7789   */\n  dup3\n    /* \"#utility.yul\":7778:7782   */\n  dup3\n    /* \"#utility.yul\":7774:7790   */\n  shr\n    /* \"#utility.yul\":7753:7790   */\n  swap1\n  pop\n    /* \"#utility.yul\":7680:7797   */\n  swap3\n  swap2\n  pop\n  pop\n  jump\t// out\n    /* \"#utility.yul\":7803:7972   */\ntag_47:\n    /* \"#utility.yul\":7847:7853   */\n  0x00\n    /* \"#utility.yul\":7880:7931   */\n  tag_147\n    /* \"#utility.yul\":7928:7929   */\n  0x00\n    /* \"#utility.yul\":7924:7930   */\n  not\n    /* \"#utility.yul\":7916:7921   */\n  dup5\n    /* \"#utility.yul\":7913:7914   */\n  0x08\n    /* \"#utility.yul\":7909:7922   */\n  mul\n    /* \"#utility.yul\":7880:7931   */\n  tag_46\n  jump\t// in\ntag_147:\n    /* \"#utility.yul\":7876:7932   */\n  not\n    /* \"#utility.yul\":7961:7965   */\n  dup1\n    /* \"#utility.yul\":7955:7959   */\n  dup4\n    /* \"#utility.yul\":7951:7966   */\n  and\n    /* \"#utility.yul\":7941:7966   */\n  swap2\n  pop\n    /* \"#utility.yul\":7854:7972   */\n  pop\n    /* \"#utility.yul\":7803:7972   */\n  swap3\n  swap2\n  pop\n  pop\n  jump\t// out\n    /* \"#utility.yul\":7977:8272   */\ntag_48:\n    /* \"#utility.yul\":8053:8057   */\n  0x00\n    /* \"#utility.yul\":8199:8228   */\n  tag_149\n    /* \"#utility.yul\":8224:8227   */\n  dup4\n    /* \"#utility.yul\":8218:8222   */\n  dup4\n    /* \"#utility.yul\":8199:8228   */\n  tag_47\n  jump\t// in\ntag_149:\n    /* \"#utility.yul\":8191:8228   */\n  swap2\n  pop\n    /* \"#utility.yul\":8261:8264   */\n  dup3\n    /* \"#utility.yul\":8258:8259   */\n  0x02\n    /* \"#utility.yul\":8254:8265   */\n  mul\n    /* \"#utility.yul\":8248:8252   */\n  dup3\n    /* \"#utility.yul\":8245:8266   */\n  or\n    /* \"#utility.yul\":8237:8266   */\n  swap1\n  pop\n    /* \"#utility.yul\":7977:8272   */\n  swap3\n  swap2\n  pop\n  pop\n  jump\t// out\n    /* \"#utility.yul\":8277:9672   */\ntag_8:\n    /* \"#utility.yul\":8394:8431   */\n  tag_151\n    /* \"#utility.yul\":8427:8430   */\n  dup3\n    /* \"#utility.yul\":8394:8431   */\n  tag_31\n  jump\t// in\ntag_151:\n    /* \"#utility.yul\":8496:8514   */\n  0xffffffffffffffff\n    /* \"#utility.yul\":8488:8494   */\n  dup2\n    /* \"#utility.yul\":8485:8515   */\n  gt\n    /* \"#utility.yul\":8482:8538   */\n  iszero\n  tag_152\n  jumpi\n    /* \"#utility.yul\":8518:8536   */\n  tag_153\n  tag_17\n  jump\t// in\ntag_153:\n    /* \"#utility.yul\":8482:8538   */\ntag_152:\n    /* \"#utility.yul\":8562:8600   */\n  tag_154\n    /* \"#utility.yul\":8594:8598   */\n  dup3\n    /* \"#utility.yul\":8588:8599   */\n  sload\n    /* \"#utility.yul\":8562:8600   */\n  tag_33\n  jump\t// in\ntag_154:\n    /* \"#utility.yul\":8647:8714   */\n  tag_155\n    /* \"#utility.yul\":8707:8713   */\n  dup3\n    /* \"#utility.yul\":8699:8705   */\n  dup3\n    /* \"#utility.yul\":8693:8697   */\n  dup6\n    /* \"#utility.yul\":8647:8714   */\n  tag_45\n  jump\t// in\ntag_155:\n    /* \"#utility.yul\":8741:8742   */\n  0x00\n    /* \"#utility.yul\":8765:8769   */\n  0x20\n    /* \"#utility.yul\":8752:8769   */\n  swap1\n  pop\n    /* \"#utility.yul\":8797:8799   */\n  0x1f\n    /* \"#utility.yul\":8789:8795   */\n  dup4\n    /* \"#utility.yul\":8786:8800   */\n  gt\n    /* \"#utility.yul\":8814:8815   */\n  0x01\n    /* \"#utility.yul\":8809:9427   */\n  dup2\n  eq\n  tag_157\n  jumpi\n    /* \"#utility.yul\":9471:9472   */\n  0x00\n    /* \"#utility.yul\":9488:9494   */\n  dup5\n    /* \"#utility.yul\":9485:9562   */\n  iszero\n  tag_158\n  jumpi\n    /* \"#utility.yul\":9537:9546   */\n  dup3\n    /* \"#utility.yul\":9532:9535   */\n  dup8\n    /* \"#utility.yul\":9528:9547   */\n  add\n    /* \"#utility.yul\":9522:9548   */\n  mload\n    /* \"#utility.yul\":9513:9548   */\n  swap1\n  pop\n    /* \"#utility.yul\":9485:9562   */\ntag_158:\n    /* \"#utility.yul\":9588:9655   */\n  tag_159\n    /* \"#utility.yul\":9648:9654   */\n  dup6\n    /* \"#utility.yul\":9641:9646   */\n  dup3\n    /* \"#utility.yul\":9588:9655   */\n  tag_48\n  jump\t// in\ntag_159:\n    /* \"#utility.yul\":9582:9586   */\n  dup7\n    /* \"#utility.yul\":9575:9656   */\n  sstore\n    /* \"#utility.yul\":9444:9666   */\n  pop\n    /* \"#utility.yul\":8779:9666   */\n  jump(tag_156)\n    /* \"#utility.yul\":8809:9427   */\ntag_157:\n    /* \"#utility.yul\":8861:8865   */\n  0x1f\n    /* \"#utility.yul\":8857:8866   */\n  not\n    /* \"#utility.yul\":8849:8855   */\n  dup5\n    /* \"#utility.yul\":8845:8867   */\n  and\n    /* \"#utility.yul\":8895:8932   */\n  tag_160\n    /* \"#utility.yul\":8927:8931   */\n  dup7\n    /* \"#utility.yul\":8895:8932   */\n  tag_34\n  jump\t// in\ntag_160:\n    /* \"#utility.yul\":8954:8955   */\n  0x00\n    /* \"#utility.yul\":8968:9176   */\ntag_161:\n    /* \"#utility.yul\":8982:8989   */\n  dup3\n    /* \"#utility.yul\":8979:8980   */\n  dup2\n    /* \"#utility.yul\":8976:8990   */\n  lt\n    /* \"#utility.yul\":8968:9176   */\n  iszero\n  tag_163\n  jumpi\n    /* \"#utility.yul\":9061:9070   */\n  dup5\n    /* \"#utility.yul\":9056:9059   */\n  dup10\n    /* \"#utility.yul\":9052:9071   */\n  add\n    /* \"#utility.yul\":9046:9072   */\n  mload\n    /* \"#utility.yul\":9038:9044   */\n  dup3\n    /* \"#utility.yul\":9031:9073   */\n  sstore\n    /* \"#utility.yul\":9112:9113   */\n  0x01\n    /* \"#utility.yul\":9104:9110   */\n  dup3\n    /* \"#utility.yul\":9100:9114   */\n  add\n    /* \"#utility.yul\":9090:9114   */\n  swap2\n  pop\n    /* \"#utility.yul\":9159:9161   */\n  0x20\n    /* \"#utility.yul\":9148:9157   */\n  dup6\n    /* \"#utility.yul\":9144:9162   */\n  add\n    /* \"#utility.yul\":9131:9162   */\n  swap5\n  pop\n    /* \"#utility.yul\":9005:9009   */\n  0x20\n    /* \"#utility.yul\":9002:9003   */\n  dup2\n    /* \"#utility.yul\":8998:9010   */\n  add\n    /* \"#utility.yul\":8993:9010   */\n  swap1\n  pop\n    /* \"#utility.yul\":8968:9176   */\n  jump(tag_161)\ntag_163:\n    /* \"#utility.yul\":9204:9210   */\n  dup7\n    /* \"#utility.yul\":9195:9202   */\n  dup4\n    /* \"#utility.yul\":9192:9211   */\n  lt\n    /* \"#utility.yul\":9189:9368   */\n  iszero\n  tag_164\n  jumpi\n    /* \"#utility.yul\":9262:9271   */\n  dup5\n    /* \"#utility.yul\":9257:9260   */\n  dup10\n    /* \"#utility.yul\":9253:9272   */\n  add\n    /* \"#utility.yul\":9247:9273   */\n  mload\n    /* \"#utility.yul\":9305:9353   */\n  tag_165\n    /* \"#utility.yul\":9347:9351   */\n  0x1f\n    /* \"#utility.yul\":9339:9345   */\n  dup10\n    /* \"#utility.yul\":9335:9352   */\n  and\n    /* \"#utility.yul\":9324:9333   */\n  dup3\n    /* \"#utility.yul\":9305:9353   */\n  tag_47\n  jump\t// in\ntag_165:\n    /* \"#utility.yul\":9297:9303   */\n  dup4\n    /* \"#utility.yul\":9290:9354   */\n  sstore\n    /* \"#utility.yul\":9212:9368   */\n  pop\n    /* \"#utility.yul\":9189:9368   */\ntag_164:\n    /* \"#utility.yul\":9414:9415   */\n  0x01\n    /* \"#utility.yul\":9410:9411   */\n  0x02\n    /* \"#utility.yul\":9402:9408   */\n  dup9\n    /* \"#utility.yul\":9398:9412   */\n  mul\n    /* \"#utility.yul\":9394:9416   */\n  add\n    /* \"#utility.yul\":9388:9392   */\n  dup9\n    /* \"#utility.yul\":9381:9417   */\n  sstore\n    /* \"#utility.yul\":8816:9427   */\n  pop\n  pop\n  pop\n    /* \"#utility.yul\":8779:9666   */\ntag_156:\n  pop\n    /* \"#utility.yul\":8369:9672   */\n  pop\n  pop\n  pop\n    /* \"#utility.yul\":8277:9672   */\n  pop\n  pop\n  jump\t// out\n    /* \"Campaign.sol\":1142:8565  contract Campaign... */\ntag_10:\n  dataSize(sub_0)\n  dup1\n  dataOffset(sub_0)\n  0x00\n  codecopy\n  0x00\n  return\nstop\n\nsub_0: assembly {\n        /* \"Campaign.sol\":1142:8565  contract Campaign... */\n      mstore(0x40, 0x80)\n      jumpi(tag_1, lt(calldatasize, 0x04))\n      shr(0xe0, calldataload(0x00))\n      dup1\n      0x885e7c62\n      gt\n      tag_23\n      jumpi\n      dup1\n      0xd5009584\n      gt\n      tag_24\n      jumpi\n      dup1\n      0xd5009584\n      eq\n      tag_17\n      jumpi\n      dup1\n      0xd7bb99ba\n      eq\n      tag_18\n      jumpi\n      dup1\n      0xe2e46b52\n      eq\n      tag_19\n      jumpi\n      dup1\n      0xf0190215\n      eq\n      tag_20\n      jumpi\n      dup1\n      0xf84038b1\n      eq\n      tag_21\n      jumpi\n      dup1\n      0xfeed5561\n      eq\n      tag_22\n      jumpi\n      jump(tag_1)\n    tag_24:\n      dup1\n      0x885e7c62\n      eq\n      tag_12\n      jumpi\n      dup1\n      0x980e7844\n      eq\n      tag_13\n      jumpi\n      dup1\n      0xa26759cb\n      eq\n      tag_14\n      jumpi\n      dup1\n      0xa7ac8000\n      eq\n      tag_15\n      jumpi\n      dup1\n      0xac307773\n      eq\n      tag_16\n      jumpi\n      jump(tag_1)\n    tag_23:\n      dup1\n      0x692d51d2\n      gt\n      tag_25\n      jumpi\n      dup1\n      0x692d51d2\n      eq\n      tag_7\n      jumpi\n      dup1\n      0x6f9fb98a\n      eq\n      tag_8\n      jumpi\n      dup1\n      0x72a8d706\n      eq\n      tag_9\n      jumpi\n      dup1\n      0x7d6e5b9e\n      eq\n      tag_10\n      jumpi\n      dup1\n      0x8813ce12\n      eq\n      tag_11\n      jumpi\n      jump(tag_1)\n    tag_25:\n      dup1\n      0x0a144391\n      eq\n      tag_2\n      jumpi\n      dup1\n      0x1a092541\n      eq\n      tag_3\n      jumpi\n      dup1\n      0x30e8fc5c\n      eq\n      tag_4\n      jumpi\n      dup1\n      0x3410452a\n      eq\n      tag_5\n      jumpi\n      dup1\n      0x4051ddac\n      eq\n      tag_6\n      jumpi\n    tag_1:\n      0x00\n      dup1\n      revert\n        /* \"Campaign.sol\":2107:2148  mapping(address => uint) public approvers */\n    tag_2:\n      callvalue\n      dup1\n      iszero\n      tag_26\n      jumpi\n      0x00\n      dup1\n      revert\n    tag_26:\n      pop\n      tag_27\n      0x04\n      dup1\n      calldatasize\n      sub\n      dup2\n      add\n      swap1\n      tag_28\n      swap2\n      swap1\n      tag_29\n      jump\t// in\n    tag_28:\n      tag_30\n      jump\t// in\n    tag_27:\n      mload(0x40)\n      tag_31\n      swap2\n      swap1\n      tag_32\n      jump\t// in\n    tag_31:\n      mload(0x40)\n      dup1\n      swap2\n      sub\n      swap1\n      return\n        /* \"Campaign.sol\":2835:2939  function getDescription() external view returns (string memory)... */\n    tag_3:\n      callvalue\n      dup1\n      iszero\n      tag_33\n      jumpi\n      0x00\n      dup1\n      revert\n    tag_33:\n      pop\n      tag_34\n      tag_35\n      jump\t// in\n    tag_34:\n      mload(0x40)\n      tag_36\n      swap2\n      swap1\n      tag_37\n      jump\t// in\n    tag_36:\n      mload(0x40)\n      dup1\n      swap2\n      sub\n      swap1\n      return\n        /* \"Campaign.sol\":5312:6373  function voteRequest(string memory reqName, bool isApproval ) external forContributors... */\n    tag_4:\n      callvalue\n      dup1\n      iszero\n      tag_38\n      jumpi\n      0x00\n      dup1\n      revert\n    tag_38:\n      pop\n      tag_39\n      0x04\n      dup1\n      calldatasize\n      sub\n      dup2\n      add\n      swap1\n      tag_40\n      swap2\n      swap1\n      tag_41\n      jump\t// in\n    tag_40:\n      tag_42\n      jump\t// in\n    tag_39:\n      stop\n        /* \"Campaign.sol\":3265:3358  function getRequestsCount() external view returns(uint){... */\n    tag_5:\n      callvalue\n      dup1\n      iszero\n      tag_43\n      jumpi\n      0x00\n      dup1\n      revert\n    tag_43:\n      pop\n      tag_44\n      tag_45\n      jump\t// in\n    tag_44:\n      mload(0x40)\n      tag_46\n      swap2\n      swap1\n      tag_32\n      jump\t// in\n    tag_46:\n      mload(0x40)\n      dup1\n      swap2\n      sub\n      swap1\n      return\n        /* \"Campaign.sol\":3480:3947  function getSummary() external view returns(Summary memory)... */\n    tag_6:\n      callvalue\n      dup1\n      iszero\n      tag_47\n      jumpi\n      0x00\n      dup1\n      revert\n    tag_47:\n      pop\n      tag_48\n      tag_49\n      jump\t// in\n    tag_48:\n      mload(0x40)\n      tag_50\n      swap2\n      swap1\n      tag_51\n      jump\t// in\n    tag_50:\n      mload(0x40)\n      dup1\n      swap2\n      sub\n      swap1\n      return\n        /* \"Campaign.sol\":2267:2309  mapping(string => Request) public requests */\n    tag_7:\n      callvalue\n      dup1\n      iszero\n      tag_52\n      jumpi\n      0x00\n      dup1\n      revert\n    tag_52:\n      pop\n      tag_53\n      0x04\n      dup1\n      calldatasize\n      sub\n      dup2\n      add\n      swap1\n      tag_54\n      swap2\n      swap1\n      tag_55\n      jump\t// in\n    tag_54:\n      tag_56\n      jump\t// in\n    tag_53:\n      mload(0x40)\n      tag_57\n      swap13\n      swap12\n      swap11\n      swap10\n      swap9\n      swap8\n      swap7\n      swap6\n      swap5\n      swap4\n      swap3\n      swap2\n      swap1\n      tag_58\n      jump\t// in\n    tag_57:\n      mload(0x40)\n      dup1\n      swap2\n      sub\n      swap1\n      return\n        /* \"Campaign.sol\":3158:3260  function getContractBalance() external view returns(uint){... */\n    tag_8:\n      callvalue\n      dup1\n      iszero\n      tag_59\n      jumpi\n      0x00\n      dup1\n      revert\n    tag_59:\n      pop\n      tag_60\n      tag_61\n      jump\t// in\n    tag_60:\n      mload(0x40)\n      tag_62\n      swap2\n      swap1\n      tag_32\n      jump\t// in\n    tag_62:\n      mload(0x40)\n      dup1\n      swap2\n      sub\n      swap1\n      return\n        /* \"Campaign.sol\":7747:8082  function rejectRequest(string memory reqName, string memory reason) external restricted {... */\n    tag_9:\n      callvalue\n      dup1\n      iszero\n      tag_63\n      jumpi\n      0x00\n      dup1\n      revert\n    tag_63:\n      pop\n      tag_64\n      0x04\n      dup1\n      calldatasize\n      sub\n      dup2\n      add\n      swap1\n      tag_65\n      swap2\n      swap1\n      tag_66\n      jump\t// in\n    tag_65:\n      tag_67\n      jump\t// in\n    tag_64:\n      stop\n        /* \"Campaign.sol\":7391:7598  function getRequestClaims(string memory reqName) external view returns(RequestClaim[] memory)... */\n    tag_10:\n      callvalue\n      dup1\n      iszero\n      tag_68\n      jumpi\n      0x00\n      dup1\n      revert\n    tag_68:\n      pop\n      tag_69\n      0x04\n      dup1\n      calldatasize\n      sub\n      dup2\n      add\n      swap1\n      tag_70\n      swap2\n      swap1\n      tag_55\n      jump\t// in\n    tag_70:\n      tag_71\n      jump\t// in\n    tag_69:\n      mload(0x40)\n      tag_72\n      swap2\n      swap1\n      tag_73\n      jump\t// in\n    tag_72:\n      mload(0x40)\n      dup1\n      swap2\n      sub\n      swap1\n      return\n        /* \"Campaign.sol\":3363:3470  function getRequests() external view returns(RequestSummary[] memory)... */\n    tag_11:\n      callvalue\n      dup1\n      iszero\n      tag_74\n      jumpi\n      0x00\n      dup1\n      revert\n    tag_74:\n      pop\n      tag_75\n      tag_76\n      jump\t// in\n    tag_75:\n      mload(0x40)\n      tag_77\n      swap2\n      swap1\n      tag_78\n      jump\t// in\n    tag_77:\n      mload(0x40)\n      dup1\n      swap2\n      sub\n      swap1\n      return\n        /* \"Campaign.sol\":2732:2830  function getCampaignName() external view returns (string memory)... */\n    tag_12:\n      callvalue\n      dup1\n      iszero\n      tag_79\n      jumpi\n      0x00\n      dup1\n      revert\n    tag_79:\n      pop\n      tag_80\n      tag_81\n      jump\t// in\n    tag_80:\n      mload(0x40)\n      tag_82\n      swap2\n      swap1\n      tag_37\n      jump\t// in\n    tag_82:\n      mload(0x40)\n      dup1\n      swap2\n      sub\n      swap1\n      return\n        /* \"Campaign.sol\":8087:8167  function cancelCampaign() external restricted {... */\n    tag_13:\n      callvalue\n      dup1\n      iszero\n      tag_83\n      jumpi\n      0x00\n      dup1\n      revert\n    tag_83:\n      pop\n      tag_84\n      tag_85\n      jump\t// in\n    tag_84:\n      stop\n        /* \"Campaign.sol\":4204:4267  function addFunds() restricted external payable{... */\n    tag_14:\n      tag_86\n      tag_87\n      jump\t// in\n    tag_86:\n      stop\n        /* \"Campaign.sol\":4273:5306  function triggerCampaignRequest(string memory name, string memory description, uint amount, uint requiredApprovals, address payable receiver) restricted external {... */\n    tag_15:\n      callvalue\n      dup1\n      iszero\n      tag_88\n      jumpi\n      0x00\n      dup1\n      revert\n    tag_88:\n      pop\n      tag_89\n      0x04\n      dup1\n      calldatasize\n      sub\n      dup2\n      add\n      swap1\n      tag_90\n      swap2\n      swap1\n      tag_91\n      jump\t// in\n    tag_90:\n      tag_92\n      jump\t// in\n    tag_89:\n      stop\n        /* \"Campaign.sol\":8174:8381  function claimFunds() external forContributors {... */\n    tag_16:\n      callvalue\n      dup1\n      iszero\n      tag_93\n      jumpi\n      0x00\n      dup1\n      revert\n    tag_93:\n      pop\n      tag_94\n      tag_95\n      jump\t// in\n    tag_94:\n      stop\n        /* \"Campaign.sol\":2636:2726  function getManager() external view returns (address)... */\n    tag_17:\n      callvalue\n      dup1\n      iszero\n      tag_96\n      jumpi\n      0x00\n      dup1\n      revert\n    tag_96:\n      pop\n      tag_97\n      tag_98\n      jump\t// in\n    tag_97:\n      mload(0x40)\n      tag_99\n      swap2\n      swap1\n      tag_100\n      jump\t// in\n    tag_99:\n      mload(0x40)\n      dup1\n      swap2\n      sub\n      swap1\n      return\n        /* \"Campaign.sol\":3953:4198  function contribute() public payable {... */\n    tag_18:\n      tag_101\n      tag_102\n      jump\t// in\n    tag_101:\n      stop\n        /* \"Campaign.sol\":6379:6835  function submitRequest(string memory reqName) restricted external {... */\n    tag_19:\n      callvalue\n      dup1\n      iszero\n      tag_103\n      jumpi\n      0x00\n      dup1\n      revert\n    tag_103:\n      pop\n      tag_104\n      0x04\n      dup1\n      calldatasize\n      sub\n      dup2\n      add\n      swap1\n      tag_105\n      swap2\n      swap1\n      tag_55\n      jump\t// in\n    tag_105:\n      tag_106\n      jump\t// in\n    tag_104:\n      stop\n        /* \"Campaign.sol\":6841:7385  function claimRequest(string memory reqName, string memory description) external forContributors... */\n    tag_20:\n      callvalue\n      dup1\n      iszero\n      tag_107\n      jumpi\n      0x00\n      dup1\n      revert\n    tag_107:\n      pop\n      tag_108\n      0x04\n      dup1\n      calldatasize\n      sub\n      dup2\n      add\n      swap1\n      tag_109\n      swap2\n      swap1\n      tag_66\n      jump\t// in\n    tag_109:\n      tag_110\n      jump\t// in\n    tag_108:\n      stop\n        /* \"Campaign.sol\":3047:3152  function getMinimumContribution() external view returns(uint){... */\n    tag_21:\n      callvalue\n      dup1\n      iszero\n      tag_111\n      jumpi\n      0x00\n      dup1\n      revert\n    tag_111:\n      pop\n      tag_112\n      tag_113\n      jump\t// in\n    tag_112:\n      mload(0x40)\n      tag_114\n      swap2\n      swap1\n      tag_32\n      jump\t// in\n    tag_114:\n      mload(0x40)\n      dup1\n      swap2\n      sub\n      swap1\n      return\n        /* \"Campaign.sol\":2944:3042  function getContributorsCount() external view returns(uint){... */\n    tag_22:\n      callvalue\n      dup1\n      iszero\n      tag_115\n      jumpi\n      0x00\n      dup1\n      revert\n    tag_115:\n      pop\n      tag_116\n      tag_117\n      jump\t// in\n    tag_116:\n      mload(0x40)\n      tag_118\n      swap2\n      swap1\n      tag_32\n      jump\t// in\n    tag_118:\n      mload(0x40)\n      dup1\n      swap2\n      sub\n      swap1\n      return\n        /* \"Campaign.sol\":2107:2148  mapping(address => uint) public approvers */\n    tag_30:\n      mstore(0x20, 0x03)\n      dup1\n      0x00\n      mstore\n      keccak256(0x00, 0x40)\n      0x00\n      swap2\n      pop\n      swap1\n      pop\n      sload\n      dup2\n      jump\t// out\n        /* \"Campaign.sol\":2835:2939  function getDescription() external view returns (string memory)... */\n    tag_35:\n        /* \"Campaign.sol\":2884:2897  string memory */\n      0x60\n        /* \"Campaign.sol\":2920:2932  _description */\n      0x01\n        /* \"Campaign.sol\":2913:2932  return _description */\n      dup1\n      sload\n      tag_120\n      swap1\n      tag_121\n      jump\t// in\n    tag_120:\n      dup1\n      0x1f\n      add\n      0x20\n      dup1\n      swap2\n      div\n      mul\n      0x20\n      add\n      mload(0x40)\n      swap1\n      dup2\n      add\n      0x40\n      mstore\n      dup1\n      swap3\n      swap2\n      swap1\n      dup2\n      dup2\n      mstore\n      0x20\n      add\n      dup3\n      dup1\n      sload\n      tag_122\n      swap1\n      tag_121\n      jump\t// in\n    tag_122:\n      dup1\n      iszero\n      tag_123\n      jumpi\n      dup1\n      0x1f\n      lt\n      tag_124\n      jumpi\n      0x0100\n      dup1\n      dup4\n      sload\n      div\n      mul\n      dup4\n      mstore\n      swap2\n      0x20\n      add\n      swap2\n      jump(tag_123)\n    tag_124:\n      dup3\n      add\n      swap2\n      swap1\n      0x00\n      mstore\n      keccak256(0x00, 0x20)\n      swap1\n    tag_125:\n      dup2\n      sload\n      dup2\n      mstore\n      swap1\n      0x01\n      add\n      swap1\n      0x20\n      add\n      dup1\n      dup4\n      gt\n      tag_125\n      jumpi\n      dup3\n      swap1\n      sub\n      0x1f\n      and\n      dup3\n      add\n      swap2\n    tag_123:\n      pop\n      pop\n      pop\n      pop\n      pop\n      swap1\n      pop\n        /* \"Campaign.sol\":2835:2939  function getDescription() external view returns (string memory)... */\n      swap1\n      jump\t// out\n        /* \"Campaign.sol\":5312:6373  function voteRequest(string memory reqName, bool isApproval ) external forContributors... */\n    tag_42:\n        /* \"Campaign.sol\":8543:8544  0 */\n      0x00\n        /* \"Campaign.sol\":8518:8527  approvers */\n      0x03\n        /* \"Campaign.sol\":8518:8539  approvers[msg.sender] */\n      0x00\n        /* \"Campaign.sol\":8528:8538  msg.sender */\n      caller\n        /* \"Campaign.sol\":8518:8539  approvers[msg.sender] */\n      0xffffffffffffffffffffffffffffffffffffffff\n      and\n      0xffffffffffffffffffffffffffffffffffffffff\n      and\n      dup2\n      mstore\n      0x20\n      add\n      swap1\n      dup2\n      mstore\n      0x20\n      add\n      0x00\n      keccak256\n      sload\n        /* \"Campaign.sol\":8518:8544  approvers[msg.sender] != 0 */\n      sub\n        /* \"Campaign.sol\":8510:8545  require(approvers[msg.sender] != 0) */\n      tag_127\n      jumpi\n      0x00\n      dup1\n      revert\n    tag_127:\n        /* \"Campaign.sol\":5422:5432  _cancelled */\n      0x09\n      0x00\n      swap1\n      sload\n      swap1\n      0x0100\n      exp\n      swap1\n      div\n      0xff\n      and\n        /* \"Campaign.sol\":5421:5432  !_cancelled */\n      iszero\n        /* \"Campaign.sol\":5413:5433  require(!_cancelled) */\n      tag_129\n      jumpi\n      0x00\n      dup1\n      revert\n    tag_129:\n        /* \"Campaign.sol\":5465:5473  _manager */\n      0x02\n      0x00\n      swap1\n      sload\n      swap1\n      0x0100\n      exp\n      swap1\n      div\n      0xffffffffffffffffffffffffffffffffffffffff\n      and\n        /* \"Campaign.sol\":5451:5473  msg.sender != _manager */\n      0xffffffffffffffffffffffffffffffffffffffff\n      and\n        /* \"Campaign.sol\":5451:5461  msg.sender */\n      caller\n        /* \"Campaign.sol\":5451:5473  msg.sender != _manager */\n      0xffffffffffffffffffffffffffffffffffffffff\n      and\n      sub\n        /* \"Campaign.sol\":5443:5474  require(msg.sender != _manager) */\n      tag_130\n      jumpi\n      0x00\n      dup1\n      revert\n    tag_130:\n        /* \"Campaign.sol\":5485:5504  Request storage req */\n      0x00\n        /* \"Campaign.sol\":5507:5515  requests */\n      0x07\n        /* \"Campaign.sol\":5516:5523  reqName */\n      dup4\n        /* \"Campaign.sol\":5507:5524  requests[reqName] */\n      mload(0x40)\n      tag_131\n      swap2\n      swap1\n      tag_132\n      jump\t// in\n    tag_131:\n      swap1\n      dup2\n      mstore\n      0x20\n      add\n      mload(0x40)\n      dup1\n      swap2\n      sub\n      swap1\n      keccak256\n        /* \"Campaign.sol\":5485:5524  Request storage req = requests[reqName] */\n      swap1\n      pop\n        /* \"Campaign.sol\":5568:5569  0 */\n      0x00\n        /* \"Campaign.sol\":5549:5552  req */\n      dup2\n        /* \"Campaign.sol\":5549:5557  req.name */\n      0x00\n      add\n        /* \"Campaign.sol\":5543:5565  bytes(req.name).length */\n      dup1\n      sload\n      tag_133\n      swap1\n      tag_121\n      jump\t// in\n    tag_133:\n      swap1\n      pop\n        /* \"Campaign.sol\":5543:5569  bytes(req.name).length > 0 */\n      gt\n        /* \"Campaign.sol\":5535:5570  require(bytes(req.name).length > 0) */\n      tag_134\n      jumpi\n      0x00\n      dup1\n      revert\n    tag_134:\n        /* \"Campaign.sol\":5620:5627  reqName */\n      dup3\n        /* \"Campaign.sol\":5614:5635  bytes(reqName).length */\n      mload\n        /* \"Campaign.sol\":5594:5597  req */\n      dup2\n        /* \"Campaign.sol\":5594:5602  req.name */\n      0x00\n      add\n        /* \"Campaign.sol\":5588:5610  bytes(req.name).length */\n      dup1\n      sload\n      tag_135\n      swap1\n      tag_121\n      jump\t// in\n    tag_135:\n      swap1\n      pop\n        /* \"Campaign.sol\":5588:5635  bytes(req.name).length == bytes(reqName).length */\n      eq\n        /* \"Campaign.sol\":5580:5636  require(bytes(req.name).length == bytes(reqName).length) */\n      tag_136\n      jumpi\n      0x00\n      dup1\n      revert\n    tag_136:\n        /* \"Campaign.sol\":5685:5688  req */\n      dup1\n        /* \"Campaign.sol\":5685:5698  req.canSubmit */\n      0x08\n      add\n      0x00\n      swap1\n      sload\n      swap1\n      0x0100\n      exp\n      swap1\n      div\n      0xff\n      and\n        /* \"Campaign.sol\":5684:5698  !req.canSubmit */\n      iszero\n        /* \"Campaign.sol\":5676:5699  require(!req.canSubmit) */\n      tag_137\n      jumpi\n      0x00\n      dup1\n      revert\n    tag_137:\n        /* \"Campaign.sol\":5718:5721  req */\n      dup1\n        /* \"Campaign.sol\":5718:5730  req.complete */\n      0x08\n      add\n      0x01\n      swap1\n      sload\n      swap1\n      0x0100\n      exp\n      swap1\n      div\n      0xff\n      and\n        /* \"Campaign.sol\":5717:5730  !req.complete */\n      iszero\n        /* \"Campaign.sol\":5709:5731  require(!req.complete) */\n      tag_138\n      jumpi\n      0x00\n      dup1\n      revert\n    tag_138:\n        /* \"Campaign.sol\":5750:5753  req */\n      dup1\n        /* \"Campaign.sol\":5750:5762  req.rejected */\n      0x08\n      add\n      0x02\n      swap1\n      sload\n      swap1\n      0x0100\n      exp\n      swap1\n      div\n      0xff\n      and\n        /* \"Campaign.sol\":5749:5762  !req.rejected */\n      iszero\n        /* \"Campaign.sol\":5741:5763  require(!req.rejected) */\n      tag_139\n      jumpi\n      0x00\n      dup1\n      revert\n    tag_139:\n        /* \"Campaign.sol\":5824:5827  req */\n      dup1\n        /* \"Campaign.sol\":5824:5837  req.approvers */\n      0x0a\n      add\n        /* \"Campaign.sol\":5824:5849  req.approvers[msg.sender] */\n      0x00\n        /* \"Campaign.sol\":5838:5848  msg.sender */\n      caller\n        /* \"Campaign.sol\":5824:5849  req.approvers[msg.sender] */\n      0xffffffffffffffffffffffffffffffffffffffff\n      and\n      0xffffffffffffffffffffffffffffffffffffffff\n      and\n      dup2\n      mstore\n      0x20\n      add\n      swap1\n      dup2\n      mstore\n      0x20\n      add\n      0x00\n      keccak256\n      0x00\n      swap1\n      sload\n      swap1\n      0x0100\n      exp\n      swap1\n      div\n      0xff\n      and\n        /* \"Campaign.sol\":5823:5849  !req.approvers[msg.sender] */\n      iszero\n        /* \"Campaign.sol\":5815:5850  require(!req.approvers[msg.sender]) */\n      tag_140\n      jumpi\n      0x00\n      dup1\n      revert\n    tag_140:\n        /* \"Campaign.sol\":5921:5925  true */\n      0x01\n        /* \"Campaign.sol\":5893:5896  req */\n      dup2\n        /* \"Campaign.sol\":5893:5906  req.approvers */\n      0x0a\n      add\n        /* \"Campaign.sol\":5893:5918  req.approvers[msg.sender] */\n      0x00\n        /* \"Campaign.sol\":5907:5917  msg.sender */\n      caller\n        /* \"Campaign.sol\":5893:5918  req.approvers[msg.sender] */\n      0xffffffffffffffffffffffffffffffffffffffff\n      and\n      0xffffffffffffffffffffffffffffffffffffffff\n      and\n      dup2\n      mstore\n      0x20\n      add\n      swap1\n      dup2\n      mstore\n      0x20\n      add\n      0x00\n      keccak256\n      0x00\n        /* \"Campaign.sol\":5893:5925  req.approvers[msg.sender] = true */\n      0x0100\n      exp\n      dup2\n      sload\n      dup2\n      0xff\n      mul\n      not\n      and\n      swap1\n      dup4\n      iszero\n      iszero\n      mul\n      or\n      swap1\n      sstore\n      pop\n        /* \"Campaign.sol\":5973:5983  isApproval */\n      dup2\n        /* \"Campaign.sol\":5970:6089  if(isApproval){... */\n      iszero\n      tag_141\n      jumpi\n        /* \"Campaign.sol\":5998:6001  req */\n      dup1\n        /* \"Campaign.sol\":5998:6016  req.approvalsCount */\n      0x04\n      add\n      0x00\n        /* \"Campaign.sol\":5998:6018  req.approvalsCount++ */\n      dup2\n      sload\n      dup1\n      swap3\n      swap2\n      swap1\n      tag_142\n      swap1\n      tag_143\n      jump\t// in\n    tag_142:\n      swap2\n      swap1\n      pop\n      sstore\n      pop\n        /* \"Campaign.sol\":5970:6089  if(isApproval){... */\n      jump(tag_144)\n    tag_141:\n        /* \"Campaign.sol\":6057:6060  req */\n      dup1\n        /* \"Campaign.sol\":6057:6076  req.rejectionsCount */\n      0x06\n      add\n      0x00\n        /* \"Campaign.sol\":6057:6078  req.rejectionsCount++ */\n      dup2\n      sload\n      dup1\n      swap3\n      swap2\n      swap1\n      tag_145\n      swap1\n      tag_143\n      jump\t// in\n    tag_145:\n      swap2\n      swap1\n      pop\n      sstore\n      pop\n        /* \"Campaign.sol\":5970:6089  if(isApproval){... */\n    tag_144:\n        /* \"Campaign.sol\":6124:6127  req */\n      dup1\n        /* \"Campaign.sol\":6124:6145  req.requiredApprovals */\n      0x05\n      add\n      sload\n        /* \"Campaign.sol\":6102:6105  req */\n      dup2\n        /* \"Campaign.sol\":6102:6120  req.approvalsCount */\n      0x04\n      add\n      sload\n        /* \"Campaign.sol\":6102:6145  req.approvalsCount >= req.requiredApprovals */\n      lt\n        /* \"Campaign.sol\":6099:6192  if(req.approvalsCount >= req.requiredApprovals) {... */\n      tag_146\n      jumpi\n        /* \"Campaign.sol\":6177:6181  true */\n      0x01\n        /* \"Campaign.sol\":6161:6164  req */\n      dup2\n        /* \"Campaign.sol\":6161:6174  req.canSubmit */\n      0x08\n      add\n      0x00\n        /* \"Campaign.sol\":6161:6181  req.canSubmit = true */\n      0x0100\n      exp\n      dup2\n      sload\n      dup2\n      0xff\n      mul\n      not\n      and\n      swap1\n      dup4\n      iszero\n      iszero\n      mul\n      or\n      swap1\n      sstore\n      pop\n        /* \"Campaign.sol\":6099:6192  if(req.approvalsCount >= req.requiredApprovals) {... */\n    tag_146:\n        /* \"Campaign.sol\":6227:6242  _approversCount */\n      sload(0x04)\n        /* \"Campaign.sol\":6204:6207  req */\n      dup2\n        /* \"Campaign.sol\":6204:6223  req.rejectionsCount */\n      0x06\n      add\n      sload\n        /* \"Campaign.sol\":6204:6242  req.rejectionsCount >= _approversCount */\n      lt\n        /* \"Campaign.sol\":6201:6367  if(req.rejectionsCount >= _approversCount){... */\n      tag_147\n      jumpi\n        /* \"Campaign.sol\":6272:6276  true */\n      0x01\n        /* \"Campaign.sol\":6257:6260  req */\n      dup2\n        /* \"Campaign.sol\":6257:6269  req.rejected */\n      0x08\n      add\n      0x02\n        /* \"Campaign.sol\":6257:6276  req.rejected = true */\n      0x0100\n      exp\n      dup2\n      sload\n      dup2\n      0xff\n      mul\n      not\n      and\n      swap1\n      dup4\n      iszero\n      iszero\n      mul\n      or\n      swap1\n      sstore\n      pop\n        /* \"Campaign.sol\":6290:6356  req.rejectReason = \"All the contributors have voted for rejection\" */\n      mload(0x40)\n      dup1\n      0x60\n      add\n      0x40\n      mstore\n      dup1\n      0x2d\n      dup2\n      mstore\n      0x20\n      add\n      data_457442592243f1e34dc32037ed1d687c11f5a86c5869ba659485a57f35ee2047\n      0x2d\n      swap2\n      codecopy\n        /* \"Campaign.sol\":6290:6293  req */\n      dup2\n        /* \"Campaign.sol\":6290:6306  req.rejectReason */\n      0x09\n      add\n        /* \"Campaign.sol\":6290:6356  req.rejectReason = \"All the contributors have voted for rejection\" */\n      swap1\n      dup2\n      tag_148\n      swap2\n      swap1\n      tag_149\n      jump\t// in\n    tag_148:\n      pop\n        /* \"Campaign.sol\":6201:6367  if(req.rejectionsCount >= _approversCount){... */\n    tag_147:\n        /* \"Campaign.sol\":5403:6373  {... */\n      pop\n        /* \"Campaign.sol\":5312:6373  function voteRequest(string memory reqName, bool isApproval ) external forContributors... */\n      pop\n      pop\n      jump\t// out\n        /* \"Campaign.sol\":3265:3358  function getRequestsCount() external view returns(uint){... */\n    tag_45:\n        /* \"Campaign.sol\":3315:3319  uint */\n      0x00\n        /* \"Campaign.sol\":3337:3351  _requestsCount */\n      sload(0x08)\n        /* \"Campaign.sol\":3330:3351  return _requestsCount */\n      swap1\n      pop\n        /* \"Campaign.sol\":3265:3358  function getRequestsCount() external view returns(uint){... */\n      swap1\n      jump\t// out\n        /* \"Campaign.sol\":3480:3947  function getSummary() external view returns(Summary memory)... */\n    tag_49:\n        /* \"Campaign.sol\":3524:3538  Summary memory */\n      tag_151\n      tag_152\n      jump\t// in\n    tag_151:\n        /* \"Campaign.sol\":3554:3573  Summary memory data */\n      0x00\n        /* \"Campaign.sol\":3577:3918  Summary({... */\n      mload(0x40)\n      dup1\n      0x0100\n      add\n      0x40\n      mstore\n      dup1\n        /* \"Campaign.sol\":3608:3616  _manager */\n      0x02\n      0x00\n      swap1\n      sload\n      swap1\n      0x0100\n      exp\n      swap1\n      div\n      0xffffffffffffffffffffffffffffffffffffffff\n      and\n        /* \"Campaign.sol\":3577:3918  Summary({... */\n      0xffffffffffffffffffffffffffffffffffffffff\n      and\n      dup2\n      mstore\n      0x20\n      add\n        /* \"Campaign.sol\":3636:3641  _name */\n      0x00\n        /* \"Campaign.sol\":3577:3918  Summary({... */\n      dup1\n      sload\n      tag_154\n      swap1\n      tag_121\n      jump\t// in\n    tag_154:\n      dup1\n      0x1f\n      add\n      0x20\n      dup1\n      swap2\n      div\n      mul\n      0x20\n      add\n      mload(0x40)\n      swap1\n      dup2\n      add\n      0x40\n      mstore\n      dup1\n      swap3\n      swap2\n      swap1\n      dup2\n      dup2\n      mstore\n      0x20\n      add\n      dup3\n      dup1\n      sload\n      tag_155\n      swap1\n      tag_121\n      jump\t// in\n    tag_155:\n      dup1\n      iszero\n      tag_156\n      jumpi\n      dup1\n      0x1f\n      lt\n      tag_157\n      jumpi\n      0x0100\n      dup1\n      dup4\n      sload\n      div\n      mul\n      dup4\n      mstore\n      swap2\n      0x20\n      add\n      swap2\n      jump(tag_156)\n    tag_157:\n      dup3\n      add\n      swap2\n      swap1\n      0x00\n      mstore\n      keccak256(0x00, 0x20)\n      swap1\n    tag_158:\n      dup2\n      sload\n      dup2\n      mstore\n      swap1\n      0x01\n      add\n      swap1\n      0x20\n      add\n      dup1\n      dup4\n      gt\n      tag_158\n      jumpi\n      dup3\n      swap1\n      sub\n      0x1f\n      and\n      dup3\n      add\n      swap2\n    tag_156:\n      pop\n      pop\n      pop\n      pop\n      pop\n      dup2\n      mstore\n      0x20\n      add\n        /* \"Campaign.sol\":3668:3680  _description */\n      0x01\n        /* \"Campaign.sol\":3577:3918  Summary({... */\n      dup1\n      sload\n      tag_159\n      swap1\n      tag_121\n      jump\t// in\n    tag_159:\n      dup1\n      0x1f\n      add\n      0x20\n      dup1\n      swap2\n      div\n      mul\n      0x20\n      add\n      mload(0x40)\n      swap1\n      dup2\n      add\n      0x40\n      mstore\n      dup1\n      swap3\n      swap2\n      swap1\n      dup2\n      dup2\n      mstore\n      0x20\n      add\n      dup3\n      dup1\n      sload\n      tag_160\n      swap1\n      tag_121\n      jump\t// in\n    tag_160:\n      dup1\n      iszero\n      tag_161\n      jumpi\n      dup1\n      0x1f\n      lt\n      tag_162\n      jumpi\n      0x0100\n      dup1\n      dup4\n      sload\n      div\n      mul\n      dup4\n      mstore\n      swap2\n      0x20\n      add\n      swap2\n      jump(tag_161)\n    tag_162:\n      dup3\n      add\n      swap2\n      swap1\n      0x00\n      mstore\n      keccak256(0x00, 0x20)\n      swap1\n    tag_163:\n      dup2\n      sload\n      dup2\n      mstore\n      swap1\n      0x01\n      add\n      swap1\n      0x20\n      add\n      dup1\n      dup4\n      gt\n      tag_163\n      jumpi\n      dup3\n      swap1\n      sub\n      0x1f\n      and\n      dup3\n      add\n      swap2\n    tag_161:\n      pop\n      pop\n      pop\n      pop\n      pop\n      dup2\n      mstore\n      0x20\n      add\n        /* \"Campaign.sol\":3711:3731  _minimumContribution */\n      sload(0x05)\n        /* \"Campaign.sol\":3577:3918  Summary({... */\n      dup2\n      mstore\n      0x20\n      add\n        /* \"Campaign.sol\":3754:3775  address(this).balance */\n      selfbalance\n        /* \"Campaign.sol\":3577:3918  Summary({... */\n      dup2\n      mstore\n      0x20\n      add\n        /* \"Campaign.sol\":3812:3827  _approversCount */\n      sload(0x04)\n        /* \"Campaign.sol\":3577:3918  Summary({... */\n      dup2\n      mstore\n      0x20\n      add\n        /* \"Campaign.sol\":3856:3870  _requestsCount */\n      sload(0x08)\n        /* \"Campaign.sol\":3577:3918  Summary({... */\n      dup2\n      mstore\n      0x20\n      add\n        /* \"Campaign.sol\":3897:3907  _cancelled */\n      0x09\n      0x00\n      swap1\n      sload\n      swap1\n      0x0100\n      exp\n      swap1\n      div\n      0xff\n      and\n        /* \"Campaign.sol\":3577:3918  Summary({... */\n      iszero\n      iszero\n      dup2\n      mstore\n      pop\n        /* \"Campaign.sol\":3554:3918  Summary memory data  = Summary({... */\n      swap1\n      pop\n        /* \"Campaign.sol\":3936:3940  data */\n      dup1\n        /* \"Campaign.sol\":3929:3940  return data */\n      swap2\n      pop\n      pop\n        /* \"Campaign.sol\":3480:3947  function getSummary() external view returns(Summary memory)... */\n      swap1\n      jump\t// out\n        /* \"Campaign.sol\":2267:2309  mapping(string => Request) public requests */\n    tag_56:\n      0x07\n      dup2\n      dup1\n      mload\n      0x20\n      dup2\n      add\n      dup3\n      add\n      dup1\n      mload\n      dup5\n      dup3\n      mstore\n      0x20\n      dup4\n      add\n      0x20\n      dup6\n      add\n      keccak256\n      dup2\n      dup4\n      mstore\n      dup1\n      swap6\n      pop\n      pop\n      pop\n      pop\n      pop\n      pop\n      0x00\n      swap2\n      pop\n      swap1\n      pop\n      dup1\n      0x00\n      add\n      dup1\n      sload\n      tag_164\n      swap1\n      tag_121\n      jump\t// in\n    tag_164:\n      dup1\n      0x1f\n      add\n      0x20\n      dup1\n      swap2\n      div\n      mul\n      0x20\n      add\n      mload(0x40)\n      swap1\n      dup2\n      add\n      0x40\n      mstore\n      dup1\n      swap3\n      swap2\n      swap1\n      dup2\n      dup2\n      mstore\n      0x20\n      add\n      dup3\n      dup1\n      sload\n      tag_165\n      swap1\n      tag_121\n      jump\t// in\n    tag_165:\n      dup1\n      iszero\n      tag_166\n      jumpi\n      dup1\n      0x1f\n      lt\n      tag_167\n      jumpi\n      0x0100\n      dup1\n      dup4\n      sload\n      div\n      mul\n      dup4\n      mstore\n      swap2\n      0x20\n      add\n      swap2\n      jump(tag_166)\n    tag_167:\n      dup3\n      add\n      swap2\n      swap1\n      0x00\n      mstore\n      keccak256(0x00, 0x20)\n      swap1\n    tag_168:\n      dup2\n      sload\n      dup2\n      mstore\n      swap1\n      0x01\n      add\n      swap1\n      0x20\n      add\n      dup1\n      dup4\n      gt\n      tag_168\n      jumpi\n      dup3\n      swap1\n      sub\n      0x1f\n      and\n      dup3\n      add\n      swap2\n    tag_166:\n      pop\n      pop\n      pop\n      pop\n      pop\n      swap1\n      dup1\n      0x01\n      add\n      dup1\n      sload\n      tag_169\n      swap1\n      tag_121\n      jump\t// in\n    tag_169:\n      dup1\n      0x1f\n      add\n      0x20\n      dup1\n      swap2\n      div\n      mul\n      0x20\n      add\n      mload(0x40)\n      swap1\n      dup2\n      add\n      0x40\n      mstore\n      dup1\n      swap3\n      swap2\n      swap1\n      dup2\n      dup2\n      mstore\n      0x20\n      add\n      dup3\n      dup1\n      sload\n      tag_170\n      swap1\n      tag_121\n      jump\t// in\n    tag_170:\n      dup1\n      iszero\n      tag_171\n      jumpi\n      dup1\n      0x1f\n      lt\n      tag_172\n      jumpi\n      0x0100\n      dup1\n      dup4\n      sload\n      div\n      mul\n      dup4\n      mstore\n      swap2\n      0x20\n      add\n      swap2\n      jump(tag_171)\n    tag_172:\n      dup3\n      add\n      swap2\n      swap1\n      0x00\n      mstore\n      keccak256(0x00, 0x20)\n      swap1\n    tag_173:\n      dup2\n      sload\n      dup2\n      mstore\n      swap1\n      0x01\n      add\n      swap1\n      0x20\n      add\n      dup1\n      dup4\n      gt\n      tag_173\n      jumpi\n      dup3\n      swap1\n      sub\n      0x1f\n      and\n      dup3\n      add\n      swap2\n    tag_171:\n      pop\n      pop\n      pop\n      pop\n      pop\n      swap1\n      dup1\n      0x02\n      add\n      sload\n      swap1\n      dup1\n      0x03\n      add\n      0x00\n      swap1\n      sload\n      swap1\n      0x0100\n      exp\n      swap1\n      div\n      0xffffffffffffffffffffffffffffffffffffffff\n      and\n      swap1\n      dup1\n      0x04\n      add\n      sload\n      swap1\n      dup1\n      0x05\n      add\n      sload\n      swap1\n      dup1\n      0x06\n      add\n      sload\n      swap1\n      dup1\n      0x07\n      add\n      sload\n      swap1\n      dup1\n      0x08\n      add\n      0x00\n      swap1\n      sload\n      swap1\n      0x0100\n      exp\n      swap1\n      div\n      0xff\n      and\n      swap1\n      dup1\n      0x08\n      add\n      0x01\n      swap1\n      sload\n      swap1\n      0x0100\n      exp\n      swap1\n      div\n      0xff\n      and\n      swap1\n      dup1\n      0x08\n      add\n      0x02\n      swap1\n      sload\n      swap1\n      0x0100\n      exp\n      swap1\n      div\n      0xff\n      and\n      swap1\n      dup1\n      0x09\n      add\n      dup1\n      sload\n      tag_174\n      swap1\n      tag_121\n      jump\t// in\n    tag_174:\n      dup1\n      0x1f\n      add\n      0x20\n      dup1\n      swap2\n      div\n      mul\n      0x20\n      add\n      mload(0x40)\n      swap1\n      dup2\n      add\n      0x40\n      mstore\n      dup1\n      swap3\n      swap2\n      swap1\n      dup2\n      dup2\n      mstore\n      0x20\n      add\n      dup3\n      dup1\n      sload\n      tag_175\n      swap1\n      tag_121\n      jump\t// in\n    tag_175:\n      dup1\n      iszero\n      tag_176\n      jumpi\n      dup1\n      0x1f\n      lt\n      tag_177\n      jumpi\n      0x0100\n      dup1\n      dup4\n      sload\n      div\n      mul\n      dup4\n      mstore\n      swap2\n      0x20\n      add\n      swap2\n      jump(tag_176)\n    tag_177:\n      dup3\n      add\n      swap2\n      swap1\n      0x00\n      mstore\n      keccak256(0x00, 0x20)\n      swap1\n    tag_178:\n      dup2\n      sload\n      dup2\n      mstore\n      swap1\n      0x01\n      add\n      swap1\n      0x20\n      add\n      dup1\n      dup4\n      gt\n      tag_178\n      jumpi\n      dup3\n      swap1\n      sub\n      0x1f\n      and\n      dup3\n      add\n      swap2\n    tag_176:\n      pop\n      pop\n      pop\n      pop\n      pop\n      swap1\n      pop\n      dup13\n      jump\t// out\n        /* \"Campaign.sol\":3158:3260  function getContractBalance() external view returns(uint){... */\n    tag_61:\n        /* \"Campaign.sol\":3210:3214  uint */\n      0x00\n        /* \"Campaign.sol\":3232:3253  address(this).balance */\n      selfbalance\n        /* \"Campaign.sol\":3225:3253  return address(this).balance */\n      swap1\n      pop\n        /* \"Campaign.sol\":3158:3260  function getContractBalance() external view returns(uint){... */\n      swap1\n      jump\t// out\n        /* \"Campaign.sol\":7747:8082  function rejectRequest(string memory reqName, string memory reason) external restricted {... */\n    tag_67:\n        /* \"Campaign.sol\":8440:8448  _manager */\n      0x02\n      0x00\n      swap1\n      sload\n      swap1\n      0x0100\n      exp\n      swap1\n      div\n      0xffffffffffffffffffffffffffffffffffffffff\n      and\n        /* \"Campaign.sol\":8426:8448  msg.sender == _manager */\n      0xffffffffffffffffffffffffffffffffffffffff\n      and\n        /* \"Campaign.sol\":8426:8436  msg.sender */\n      caller\n        /* \"Campaign.sol\":8426:8448  msg.sender == _manager */\n      0xffffffffffffffffffffffffffffffffffffffff\n      and\n      eq\n        /* \"Campaign.sol\":8418:8449  require(msg.sender == _manager) */\n      tag_181\n      jumpi\n      0x00\n      dup1\n      revert\n    tag_181:\n        /* \"Campaign.sol\":7876:7877  0 */\n      0x00\n        /* \"Campaign.sol\":7859:7865  reason */\n      dup2\n        /* \"Campaign.sol\":7853:7873  bytes(reason).length */\n      mload\n        /* \"Campaign.sol\":7853:7877  bytes(reason).length > 0 */\n      gt\n        /* \"Campaign.sol\":7845:7878  require(bytes(reason).length > 0) */\n      tag_183\n      jumpi\n      0x00\n      dup1\n      revert\n    tag_183:\n        /* \"Campaign.sol\":7935:7936  0 */\n      0x00\n        /* \"Campaign.sol\":7902:7910  requests */\n      0x07\n        /* \"Campaign.sol\":7911:7918  reqName */\n      dup4\n        /* \"Campaign.sol\":7902:7919  requests[reqName] */\n      mload(0x40)\n      tag_184\n      swap2\n      swap1\n      tag_132\n      jump\t// in\n    tag_184:\n      swap1\n      dup2\n      mstore\n      0x20\n      add\n      mload(0x40)\n      dup1\n      swap2\n      sub\n      swap1\n      keccak256\n        /* \"Campaign.sol\":7902:7924  requests[reqName].name */\n      0x00\n      add\n        /* \"Campaign.sol\":7896:7932  bytes(requests[reqName].name).length */\n      dup1\n      sload\n      tag_185\n      swap1\n      tag_121\n      jump\t// in\n    tag_185:\n      swap1\n      pop\n        /* \"Campaign.sol\":7896:7936  bytes(requests[reqName].name).length > 0 */\n      gt\n        /* \"Campaign.sol\":7888:7937  require(bytes(requests[reqName].name).length > 0) */\n      tag_186\n      jumpi\n      0x00\n      dup1\n      revert\n    tag_186:\n        /* \"Campaign.sol\":7956:7964  requests */\n      0x07\n        /* \"Campaign.sol\":7965:7972  reqName */\n      dup3\n        /* \"Campaign.sol\":7956:7973  requests[reqName] */\n      mload(0x40)\n      tag_187\n      swap2\n      swap1\n      tag_132\n      jump\t// in\n    tag_187:\n      swap1\n      dup2\n      mstore\n      0x20\n      add\n      mload(0x40)\n      dup1\n      swap2\n      sub\n      swap1\n      keccak256\n        /* \"Campaign.sol\":7956:7982  requests[reqName].rejected */\n      0x08\n      add\n      0x02\n      swap1\n      sload\n      swap1\n      0x0100\n      exp\n      swap1\n      div\n      0xff\n      and\n        /* \"Campaign.sol\":7955:7982  !requests[reqName].rejected */\n      iszero\n        /* \"Campaign.sol\":7947:7983  require(!requests[reqName].rejected) */\n      tag_188\n      jumpi\n      0x00\n      dup1\n      revert\n    tag_188:\n        /* \"Campaign.sol\":8022:8026  true */\n      0x01\n        /* \"Campaign.sol\":7993:8001  requests */\n      0x07\n        /* \"Campaign.sol\":8002:8009  reqName */\n      dup4\n        /* \"Campaign.sol\":7993:8010  requests[reqName] */\n      mload(0x40)\n      tag_189\n      swap2\n      swap1\n      tag_132\n      jump\t// in\n    tag_189:\n      swap1\n      dup2\n      mstore\n      0x20\n      add\n      mload(0x40)\n      dup1\n      swap2\n      sub\n      swap1\n      keccak256\n        /* \"Campaign.sol\":7993:8019  requests[reqName].rejected */\n      0x08\n      add\n      0x02\n        /* \"Campaign.sol\":7993:8026  requests[reqName].rejected = true */\n      0x0100\n      exp\n      dup2\n      sload\n      dup2\n      0xff\n      mul\n      not\n      and\n      swap1\n      dup4\n      iszero\n      iszero\n      mul\n      or\n      swap1\n      sstore\n      pop\n        /* \"Campaign.sol\":8069:8075  reason */\n      dup1\n        /* \"Campaign.sol\":8036:8044  requests */\n      0x07\n        /* \"Campaign.sol\":8045:8052  reqName */\n      dup4\n        /* \"Campaign.sol\":8036:8053  requests[reqName] */\n      mload(0x40)\n      tag_190\n      swap2\n      swap1\n      tag_132\n      jump\t// in\n    tag_190:\n      swap1\n      dup2\n      mstore\n      0x20\n      add\n      mload(0x40)\n      dup1\n      swap2\n      sub\n      swap1\n      keccak256\n        /* \"Campaign.sol\":8036:8066  requests[reqName].rejectReason */\n      0x09\n      add\n        /* \"Campaign.sol\":8036:8075  requests[reqName].rejectReason = reason */\n      swap1\n      dup2\n      tag_191\n      swap2\n      swap1\n      tag_149\n      jump\t// in\n    tag_191:\n      pop\n        /* \"Campaign.sol\":7747:8082  function rejectRequest(string memory reqName, string memory reason) external restricted {... */\n      pop\n      pop\n      jump\t// out\n        /* \"Campaign.sol\":7391:7598  function getRequestClaims(string memory reqName) external view returns(RequestClaim[] memory)... */\n    tag_71:\n        /* \"Campaign.sol\":7462:7483  RequestClaim[] memory */\n      0x60\n        /* \"Campaign.sol\":7547:7548  0 */\n      0x00\n        /* \"Campaign.sol\":7513:7521  requests */\n      0x07\n        /* \"Campaign.sol\":7522:7529  reqName */\n      dup4\n        /* \"Campaign.sol\":7513:7530  requests[reqName] */\n      mload(0x40)\n      tag_193\n      swap2\n      swap1\n      tag_132\n      jump\t// in\n    tag_193:\n      swap1\n      dup2\n      mstore\n      0x20\n      add\n      mload(0x40)\n      dup1\n      swap2\n      sub\n      swap1\n      keccak256\n        /* \"Campaign.sol\":7513:7535  requests[reqName].name */\n      0x00\n      add\n        /* \"Campaign.sol\":7507:7543  bytes(requests[reqName].name).length */\n      dup1\n      sload\n      tag_194\n      swap1\n      tag_121\n      jump\t// in\n    tag_194:\n      swap1\n      pop\n        /* \"Campaign.sol\":7507:7548  bytes(requests[reqName].name).length != 0 */\n      sub\n        /* \"Campaign.sol\":7499:7549  require(bytes(requests[reqName].name).length != 0) */\n      tag_195\n      jumpi\n      0x00\n      dup1\n      revert\n    tag_195:\n        /* \"Campaign.sol\":7567:7575  requests */\n      0x07\n        /* \"Campaign.sol\":7576:7583  reqName */\n      dup3\n        /* \"Campaign.sol\":7567:7584  requests[reqName] */\n      mload(0x40)\n      tag_196\n      swap2\n      swap1\n      tag_132\n      jump\t// in\n    tag_196:\n      swap1\n      dup2\n      mstore\n      0x20\n      add\n      mload(0x40)\n      dup1\n      swap2\n      sub\n      swap1\n      keccak256\n        /* \"Campaign.sol\":7567:7591  requests[reqName].claims */\n      0x0b\n      add\n        /* \"Campaign.sol\":7560:7591  return requests[reqName].claims */\n      dup1\n      sload\n      dup1\n      0x20\n      mul\n      0x20\n      add\n      mload(0x40)\n      swap1\n      dup2\n      add\n      0x40\n      mstore\n      dup1\n      swap3\n      swap2\n      swap1\n      dup2\n      dup2\n      mstore\n      0x20\n      add\n      0x00\n      swap1\n    tag_197:\n      dup3\n      dup3\n      lt\n      iszero\n      tag_198\n      jumpi\n      dup4\n      dup3\n      swap1\n      0x00\n      mstore\n      keccak256(0x00, 0x20)\n      swap1\n      0x02\n      mul\n      add\n      mload(0x40)\n      dup1\n      0x40\n      add\n      0x40\n      mstore\n      swap1\n      dup2\n      0x00\n      dup3\n      add\n      0x00\n      swap1\n      sload\n      swap1\n      0x0100\n      exp\n      swap1\n      div\n      0xffffffffffffffffffffffffffffffffffffffff\n      and\n      0xffffffffffffffffffffffffffffffffffffffff\n      and\n      0xffffffffffffffffffffffffffffffffffffffff\n      and\n      dup2\n      mstore\n      0x20\n      add\n      0x01\n      dup3\n      add\n      dup1\n      sload\n      tag_200\n      swap1\n      tag_121\n      jump\t// in\n    tag_200:\n      dup1\n      0x1f\n      add\n      0x20\n      dup1\n      swap2\n      div\n      mul\n      0x20\n      add\n      mload(0x40)\n      swap1\n      dup2\n      add\n      0x40\n      mstore\n      dup1\n      swap3\n      swap2\n      swap1\n      dup2\n      dup2\n      mstore\n      0x20\n      add\n      dup3\n      dup1\n      sload\n      tag_201\n      swap1\n      tag_121\n      jump\t// in\n    tag_201:\n      dup1\n      iszero\n      tag_202\n      jumpi\n      dup1\n      0x1f\n      lt\n      tag_203\n      jumpi\n      0x0100\n      dup1\n      dup4\n      sload\n      div\n      mul\n      dup4\n      mstore\n      swap2\n      0x20\n      add\n      swap2\n      jump(tag_202)\n    tag_203:\n      dup3\n      add\n      swap2\n      swap1\n      0x00\n      mstore\n      keccak256(0x00, 0x20)\n      swap1\n    tag_204:\n      dup2\n      sload\n      dup2\n      mstore\n      swap1\n      0x01\n      add\n      swap1\n      0x20\n      add\n      dup1\n      dup4\n      gt\n      tag_204\n      jumpi\n      dup3\n      swap1\n      sub\n      0x1f\n      and\n      dup3\n      add\n      swap2\n    tag_202:\n      pop\n      pop\n      pop\n      pop\n      pop\n      dup2\n      mstore\n      pop\n      pop\n      dup2\n      mstore\n      0x20\n      add\n      swap1\n      0x01\n      add\n      swap1\n      jump(tag_197)\n    tag_198:\n      pop\n      pop\n      pop\n      pop\n      swap1\n      pop\n        /* \"Campaign.sol\":7391:7598  function getRequestClaims(string memory reqName) external view returns(RequestClaim[] memory)... */\n      swap2\n      swap1\n      pop\n      jump\t// out\n        /* \"Campaign.sol\":3363:3470  function getRequests() external view returns(RequestSummary[] memory)... */\n    tag_76:\n        /* \"Campaign.sol\":3408:3431  RequestSummary[] memory */\n      0x60\n        /* \"Campaign.sol\":3454:3463  _requests */\n      0x06\n        /* \"Campaign.sol\":3447:3463  return _requests */\n      dup1\n      sload\n      dup1\n      0x20\n      mul\n      0x20\n      add\n      mload(0x40)\n      swap1\n      dup2\n      add\n      0x40\n      mstore\n      dup1\n      swap3\n      swap2\n      swap1\n      dup2\n      dup2\n      mstore\n      0x20\n      add\n      0x00\n      swap1\n    tag_206:\n      dup3\n      dup3\n      lt\n      iszero\n      tag_207\n      jumpi\n      dup4\n      dup3\n      swap1\n      0x00\n      mstore\n      keccak256(0x00, 0x20)\n      swap1\n      0x03\n      mul\n      add\n      mload(0x40)\n      dup1\n      0x60\n      add\n      0x40\n      mstore\n      swap1\n      dup2\n      0x00\n      dup3\n      add\n      dup1\n      sload\n      tag_209\n      swap1\n      tag_121\n      jump\t// in\n    tag_209:\n      dup1\n      0x1f\n      add\n      0x20\n      dup1\n      swap2\n      div\n      mul\n      0x20\n      add\n      mload(0x40)\n      swap1\n      dup2\n      add\n      0x40\n      mstore\n      dup1\n      swap3\n      swap2\n      swap1\n      dup2\n      dup2\n      mstore\n      0x20\n      add\n      dup3\n      dup1\n      sload\n      tag_210\n      swap1\n      tag_121\n      jump\t// in\n    tag_210:\n      dup1\n      iszero\n      tag_211\n      jumpi\n      dup1\n      0x1f\n      lt\n      tag_212\n      jumpi\n      0x0100\n      dup1\n      dup4\n      sload\n      div\n      mul\n      dup4\n      mstore\n      swap2\n      0x20\n      add\n      swap2\n      jump(tag_211)\n    tag_212:\n      dup3\n      add\n      swap2\n      swap1\n      0x00\n      mstore\n      keccak256(0x00, 0x20)\n      swap1\n    tag_213:\n      dup2\n      sload\n      dup2\n      mstore\n      swap1\n      0x01\n      add\n      swap1\n      0x20\n      add\n      dup1\n      dup4\n      gt\n      tag_213\n      jumpi\n      dup3\n      swap1\n      sub\n      0x1f\n      and\n      dup3\n      add\n      swap2\n    tag_211:\n      pop\n      pop\n      pop\n      pop\n      pop\n      dup2\n      mstore\n      0x20\n      add\n      0x01\n      dup3\n      add\n      dup1\n      sload\n      tag_214\n      swap1\n      tag_121\n      jump\t// in\n    tag_214:\n      dup1\n      0x1f\n      add\n      0x20\n      dup1\n      swap2\n      div\n      mul\n      0x20\n      add\n      mload(0x40)\n      swap1\n      dup2\n      add\n      0x40\n      mstore\n      dup1\n      swap3\n      swap2\n      swap1\n      dup2\n      dup2\n      mstore\n      0x20\n      add\n      dup3\n      dup1\n      sload\n      tag_215\n      swap1\n      tag_121\n      jump\t// in\n    tag_215:\n      dup1\n      iszero\n      tag_216\n      jumpi\n      dup1\n      0x1f\n      lt\n      tag_217\n      jumpi\n      0x0100\n      dup1\n      dup4\n      sload\n      div\n      mul\n      dup4\n      mstore\n      swap2\n      0x20\n      add\n      swap2\n      jump(tag_216)\n    tag_217:\n      dup3\n      add\n      swap2\n      swap1\n      0x00\n      mstore\n      keccak256(0x00, 0x20)\n      swap1\n    tag_218:\n      dup2\n      sload\n      dup2\n      mstore\n      swap1\n      0x01\n      add\n      swap1\n      0x20\n      add\n      dup1\n      dup4\n      gt\n      tag_218\n      jumpi\n      dup3\n      swap1\n      sub\n      0x1f\n      and\n      dup3\n      add\n      swap2\n    tag_216:\n      pop\n      pop\n      pop\n      pop\n      pop\n      dup2\n      mstore\n      0x20\n      add\n      0x02\n      dup3\n      add\n      sload\n      dup2\n      mstore\n      pop\n      pop\n      dup2\n      mstore\n      0x20\n      add\n      swap1\n      0x01\n      add\n      swap1\n      jump(tag_206)\n    tag_207:\n      pop\n      pop\n      pop\n      pop\n      swap1\n      pop\n        /* \"Campaign.sol\":3363:3470  function getRequests() external view returns(RequestSummary[] memory)... */\n      swap1\n      jump\t// out\n        /* \"Campaign.sol\":2732:2830  function getCampaignName() external view returns (string memory)... */\n    tag_81:\n        /* \"Campaign.sol\":2782:2795  string memory */\n      0x60\n        /* \"Campaign.sol\":2818:2823  _name */\n      0x00\n        /* \"Campaign.sol\":2811:2823  return _name */\n      dup1\n      sload\n      tag_220\n      swap1\n      tag_121\n      jump\t// in\n    tag_220:\n      dup1\n      0x1f\n      add\n      0x20\n      dup1\n      swap2\n      div\n      mul\n      0x20\n      add\n      mload(0x40)\n      swap1\n      dup2\n      add\n      0x40\n      mstore\n      dup1\n      swap3\n      swap2\n      swap1\n      dup2\n      dup2\n      mstore\n      0x20\n      add\n      dup3\n      dup1\n      sload\n      tag_221\n      swap1\n      tag_121\n      jump\t// in\n    tag_221:\n      dup1\n      iszero\n      tag_222\n      jumpi\n      dup1\n      0x1f\n      lt\n      tag_223\n      jumpi\n      0x0100\n      dup1\n      dup4\n      sload\n      div\n      mul\n      dup4\n      mstore\n      swap2\n      0x20\n      add\n      swap2\n      jump(tag_222)\n    tag_223:\n      dup3\n      add\n      swap2\n      swap1\n      0x00\n      mstore\n      keccak256(0x00, 0x20)\n      swap1\n    tag_224:\n      dup2\n      sload\n      dup2\n      mstore\n      swap1\n      0x01\n      add\n      swap1\n      0x20\n      add\n      dup1\n      dup4\n      gt\n      tag_224\n      jumpi\n      dup3\n      swap1\n      sub\n      0x1f\n      and\n      dup3\n      add\n      swap2\n    tag_222:\n      pop\n      pop\n      pop\n      pop\n      pop\n      swap1\n      pop\n        /* \"Campaign.sol\":2732:2830  function getCampaignName() external view returns (string memory)... */\n      swap1\n      jump\t// out\n        /* \"Campaign.sol\":8087:8167  function cancelCampaign() external restricted {... */\n    tag_85:\n        /* \"Campaign.sol\":8440:8448  _manager */\n      0x02\n      0x00\n      swap1\n      sload\n      swap1\n      0x0100\n      exp\n      swap1\n      div\n      0xffffffffffffffffffffffffffffffffffffffff\n      and\n        /* \"Campaign.sol\":8426:8448  msg.sender == _manager */\n      0xffffffffffffffffffffffffffffffffffffffff\n      and\n        /* \"Campaign.sol\":8426:8436  msg.sender */\n      caller\n        /* \"Campaign.sol\":8426:8448  msg.sender == _manager */\n      0xffffffffffffffffffffffffffffffffffffffff\n      and\n      eq\n        /* \"Campaign.sol\":8418:8449  require(msg.sender == _manager) */\n      tag_226\n      jumpi\n      0x00\n      dup1\n      revert\n    tag_226:\n        /* \"Campaign.sol\":8156:8160  true */\n      0x01\n        /* \"Campaign.sol\":8143:8153  _cancelled */\n      0x09\n      0x00\n        /* \"Campaign.sol\":8143:8160  _cancelled = true */\n      0x0100\n      exp\n      dup2\n      sload\n      dup2\n      0xff\n      mul\n      not\n      and\n      swap1\n      dup4\n      iszero\n      iszero\n      mul\n      or\n      swap1\n      sstore\n      pop\n        /* \"Campaign.sol\":8087:8167  function cancelCampaign() external restricted {... */\n      jump\t// out\n        /* \"Campaign.sol\":4204:4267  function addFunds() restricted external payable{... */\n    tag_87:\n        /* \"Campaign.sol\":8440:8448  _manager */\n      0x02\n      0x00\n      swap1\n      sload\n      swap1\n      0x0100\n      exp\n      swap1\n      div\n      0xffffffffffffffffffffffffffffffffffffffff\n      and\n        /* \"Campaign.sol\":8426:8448  msg.sender == _manager */\n      0xffffffffffffffffffffffffffffffffffffffff\n      and\n        /* \"Campaign.sol\":8426:8436  msg.sender */\n      caller\n        /* \"Campaign.sol\":8426:8448  msg.sender == _manager */\n      0xffffffffffffffffffffffffffffffffffffffff\n      and\n      eq\n        /* \"Campaign.sol\":8418:8449  require(msg.sender == _manager) */\n      tag_229\n      jumpi\n      0x00\n      dup1\n      revert\n    tag_229:\n        /* \"Campaign.sol\":4204:4267  function addFunds() restricted external payable{... */\n      jump\t// out\n        /* \"Campaign.sol\":4273:5306  function triggerCampaignRequest(string memory name, string memory description, uint amount, uint requiredApprovals, address payable receiver) restricted external {... */\n    tag_92:\n        /* \"Campaign.sol\":8440:8448  _manager */\n      0x02\n      0x00\n      swap1\n      sload\n      swap1\n      0x0100\n      exp\n      swap1\n      div\n      0xffffffffffffffffffffffffffffffffffffffff\n      and\n        /* \"Campaign.sol\":8426:8448  msg.sender == _manager */\n      0xffffffffffffffffffffffffffffffffffffffff\n      and\n        /* \"Campaign.sol\":8426:8436  msg.sender */\n      caller\n        /* \"Campaign.sol\":8426:8448  msg.sender == _manager */\n      0xffffffffffffffffffffffffffffffffffffffff\n      and\n      eq\n        /* \"Campaign.sol\":8418:8449  require(msg.sender == _manager) */\n      tag_232\n      jumpi\n      0x00\n      dup1\n      revert\n    tag_232:\n        /* \"Campaign.sol\":4454:4464  _cancelled */\n      0x09\n      0x00\n      swap1\n      sload\n      swap1\n      0x0100\n      exp\n      swap1\n      div\n      0xff\n      and\n        /* \"Campaign.sol\":4453:4464  !_cancelled */\n      iszero\n        /* \"Campaign.sol\":4445:4465  require(!_cancelled) */\n      tag_234\n      jumpi\n      0x00\n      dup1\n      revert\n    tag_234:\n        /* \"Campaign.sol\":4504:4505  0 */\n      0x00\n        /* \"Campaign.sol\":4489:4493  name */\n      dup6\n        /* \"Campaign.sol\":4483:4501  bytes(name).length */\n      mload\n        /* \"Campaign.sol\":4483:4505  bytes(name).length > 0 */\n      gt\n        /* \"Campaign.sol\":4475:4506  require(bytes(name).length > 0) */\n      tag_235\n      jumpi\n      0x00\n      dup1\n      revert\n    tag_235:\n        /* \"Campaign.sol\":4552:4553  0 */\n      0x00\n        /* \"Campaign.sol\":4530:4541  description */\n      dup5\n        /* \"Campaign.sol\":4524:4549  bytes(description).length */\n      mload\n        /* \"Campaign.sol\":4524:4553  bytes(description).length > 0 */\n      gt\n        /* \"Campaign.sol\":4516:4554  require(bytes(description).length > 0) */\n      tag_236\n      jumpi\n      0x00\n      dup1\n      revert\n    tag_236:\n        /* \"Campaign.sol\":4581:4582  0 */\n      0x00\n        /* \"Campaign.sol\":4572:4578  amount */\n      dup4\n        /* \"Campaign.sol\":4572:4582  amount > 0 */\n      gt\n        /* \"Campaign.sol\":4564:4583  require(amount > 0) */\n      tag_237\n      jumpi\n      0x00\n      dup1\n      revert\n    tag_237:\n        /* \"Campaign.sol\":4611:4632  address(this).balance */\n      selfbalance\n        /* \"Campaign.sol\":4601:4607  amount */\n      dup4\n        /* \"Campaign.sol\":4601:4632  amount <= address(this).balance */\n      gt\n      iszero\n        /* \"Campaign.sol\":4593:4633  require(amount <= address(this).balance) */\n      tag_238\n      jumpi\n      0x00\n      dup1\n      revert\n    tag_238:\n        /* \"Campaign.sol\":4671:4672  0 */\n      0x00\n        /* \"Campaign.sol\":4651:4668  requiredApprovals */\n      dup3\n        /* \"Campaign.sol\":4651:4672  requiredApprovals > 0 */\n      gt\n        /* \"Campaign.sol\":4643:4673  require(requiredApprovals > 0) */\n      tag_239\n      jumpi\n      0x00\n      dup1\n      revert\n    tag_239:\n        /* \"Campaign.sol\":4712:4727  _approversCount */\n      sload(0x04)\n        /* \"Campaign.sol\":4691:4708  requiredApprovals */\n      dup3\n        /* \"Campaign.sol\":4691:4727  requiredApprovals <= _approversCount */\n      gt\n      iszero\n        /* \"Campaign.sol\":4683:4728  require(requiredApprovals <= _approversCount) */\n      tag_240\n      jumpi\n      0x00\n      dup1\n      revert\n    tag_240:\n        /* \"Campaign.sol\":4738:4757  Request storage req */\n      0x00\n        /* \"Campaign.sol\":4760:4768  requests */\n      0x07\n        /* \"Campaign.sol\":4769:4773  name */\n      dup7\n        /* \"Campaign.sol\":4760:4774  requests[name] */\n      mload(0x40)\n      tag_241\n      swap2\n      swap1\n      tag_132\n      jump\t// in\n    tag_241:\n      swap1\n      dup2\n      mstore\n      0x20\n      add\n      mload(0x40)\n      dup1\n      swap2\n      sub\n      swap1\n      keccak256\n        /* \"Campaign.sol\":4738:4774  Request storage req = requests[name] */\n      swap1\n      pop\n        /* \"Campaign.sol\":4803:4807  name */\n      dup6\n        /* \"Campaign.sol\":4793:4796  req */\n      dup2\n        /* \"Campaign.sol\":4793:4801  req.name */\n      0x00\n      add\n        /* \"Campaign.sol\":4793:4807  req.name= name */\n      swap1\n      dup2\n      tag_242\n      swap2\n      swap1\n      tag_149\n      jump\t// in\n    tag_242:\n      pop\n        /* \"Campaign.sol\":4835:4846  description */\n      dup5\n        /* \"Campaign.sol\":4817:4820  req */\n      dup2\n        /* \"Campaign.sol\":4817:4832  req.description */\n      0x01\n      add\n        /* \"Campaign.sol\":4817:4846  req.description = description */\n      swap1\n      dup2\n      tag_243\n      swap2\n      swap1\n      tag_149\n      jump\t// in\n    tag_243:\n      pop\n        /* \"Campaign.sol\":4869:4875  amount */\n      dup4\n        /* \"Campaign.sol\":4856:4859  req */\n      dup2\n        /* \"Campaign.sol\":4856:4866  req.amount */\n      0x02\n      add\n        /* \"Campaign.sol\":4856:4875  req.amount = amount */\n      dup2\n      swap1\n      sstore\n      pop\n        /* \"Campaign.sol\":4900:4908  receiver */\n      dup2\n        /* \"Campaign.sol\":4885:4888  req */\n      dup2\n        /* \"Campaign.sol\":4885:4897  req.receiver */\n      0x03\n      add\n      0x00\n        /* \"Campaign.sol\":4885:4908  req.receiver = receiver */\n      0x0100\n      exp\n      dup2\n      sload\n      dup2\n      0xffffffffffffffffffffffffffffffffffffffff\n      mul\n      not\n      and\n      swap1\n      dup4\n      0xffffffffffffffffffffffffffffffffffffffff\n      and\n      mul\n      or\n      swap1\n      sstore\n      pop\n        /* \"Campaign.sol\":4939:4940  0 */\n      0x00\n        /* \"Campaign.sol\":4918:4921  req */\n      dup2\n        /* \"Campaign.sol\":4918:4936  req.approvalsCount */\n      0x04\n      add\n        /* \"Campaign.sol\":4918:4940  req.approvalsCount=  0 */\n      dup2\n      swap1\n      sstore\n      pop\n        /* \"Campaign.sol\":4968:4969  0 */\n      0x00\n        /* \"Campaign.sol\":4950:4953  req */\n      dup2\n        /* \"Campaign.sol\":4950:4965  req.claimsCount */\n      0x07\n      add\n        /* \"Campaign.sol\":4950:4969  req.claimsCount = 0 */\n      dup2\n      swap1\n      sstore\n      pop\n        /* \"Campaign.sol\":5003:5020  requiredApprovals */\n      dup3\n        /* \"Campaign.sol\":4979:4982  req */\n      dup2\n        /* \"Campaign.sol\":4979:5000  req.requiredApprovals */\n      0x05\n      add\n        /* \"Campaign.sol\":4979:5020  req.requiredApprovals = requiredApprovals */\n      dup2\n      swap1\n      sstore\n      pop\n        /* \"Campaign.sol\":5045:5050  false */\n      0x00\n        /* \"Campaign.sol\":5030:5033  req */\n      dup2\n        /* \"Campaign.sol\":5030:5042  req.complete */\n      0x08\n      add\n      0x01\n        /* \"Campaign.sol\":5030:5050  req.complete = false */\n      0x0100\n      exp\n      dup2\n      sload\n      dup2\n      0xff\n      mul\n      not\n      and\n      swap1\n      dup4\n      iszero\n      iszero\n      mul\n      or\n      swap1\n      sstore\n      pop\n        /* \"Campaign.sol\":5075:5080  false */\n      0x00\n        /* \"Campaign.sol\":5060:5063  req */\n      dup2\n        /* \"Campaign.sol\":5060:5072  req.rejected */\n      0x08\n      add\n      0x02\n        /* \"Campaign.sol\":5060:5080  req.rejected = false */\n      0x0100\n      exp\n      dup2\n      sload\n      dup2\n      0xff\n      mul\n      not\n      and\n      swap1\n      dup4\n      iszero\n      iszero\n      mul\n      or\n      swap1\n      sstore\n      pop\n        /* \"Campaign.sol\":5091:5105  _requestsCount */\n      0x08\n      0x00\n        /* \"Campaign.sol\":5091:5107  _requestsCount++ */\n      dup2\n      sload\n      dup1\n      swap3\n      swap2\n      swap1\n      tag_244\n      swap1\n      tag_143\n      jump\t// in\n    tag_244:\n      swap2\n      swap1\n      pop\n      sstore\n      pop\n        /* \"Campaign.sol\":5117:5146  RequestSummary memory summary */\n      0x00\n        /* \"Campaign.sol\":5149:5265  RequestSummary({... */\n      mload(0x40)\n      dup1\n      0x60\n      add\n      0x40\n      mstore\n      dup1\n        /* \"Campaign.sol\":5184:5188  name */\n      dup9\n        /* \"Campaign.sol\":5149:5265  RequestSummary({... */\n      dup2\n      mstore\n      0x20\n      add\n        /* \"Campaign.sol\":5215:5226  description */\n      dup8\n        /* \"Campaign.sol\":5149:5265  RequestSummary({... */\n      dup2\n      mstore\n      0x20\n      add\n        /* \"Campaign.sol\":5248:5254  amount */\n      dup7\n        /* \"Campaign.sol\":5149:5265  RequestSummary({... */\n      dup2\n      mstore\n      pop\n        /* \"Campaign.sol\":5117:5265  RequestSummary memory summary = RequestSummary({... */\n      swap1\n      pop\n        /* \"Campaign.sol\":5276:5285  _requests */\n      0x06\n        /* \"Campaign.sol\":5291:5298  summary */\n      dup2\n        /* \"Campaign.sol\":5276:5299  _requests.push(summary) */\n      swap1\n      dup1\n      0x01\n      dup2\n      sload\n      add\n      dup1\n      dup3\n      sstore\n      dup1\n      swap2\n      pop\n      pop\n      0x01\n      swap1\n      sub\n      swap1\n      0x00\n      mstore\n      keccak256(0x00, 0x20)\n      swap1\n      0x03\n      mul\n      add\n      0x00\n      swap1\n      swap2\n      swap1\n      swap2\n      swap1\n      swap2\n      pop\n      0x00\n      dup3\n      add\n      mload\n      dup2\n      0x00\n      add\n      swap1\n      dup2\n      tag_246\n      swap2\n      swap1\n      tag_149\n      jump\t// in\n    tag_246:\n      pop\n      0x20\n      dup3\n      add\n      mload\n      dup2\n      0x01\n      add\n      swap1\n      dup2\n      tag_247\n      swap2\n      swap1\n      tag_149\n      jump\t// in\n    tag_247:\n      pop\n      0x40\n      dup3\n      add\n      mload\n      dup2\n      0x02\n      add\n      sstore\n      pop\n      pop\n        /* \"Campaign.sol\":4435:5306  {... */\n      pop\n      pop\n        /* \"Campaign.sol\":4273:5306  function triggerCampaignRequest(string memory name, string memory description, uint amount, uint requiredApprovals, address payable receiver) restricted external {... */\n      pop\n      pop\n      pop\n      pop\n      pop\n      jump\t// out\n        /* \"Campaign.sol\":8174:8381  function claimFunds() external forContributors {... */\n    tag_95:\n        /* \"Campaign.sol\":8543:8544  0 */\n      0x00\n        /* \"Campaign.sol\":8518:8527  approvers */\n      0x03\n        /* \"Campaign.sol\":8518:8539  approvers[msg.sender] */\n      0x00\n        /* \"Campaign.sol\":8528:8538  msg.sender */\n      caller\n        /* \"Campaign.sol\":8518:8539  approvers[msg.sender] */\n      0xffffffffffffffffffffffffffffffffffffffff\n      and\n      0xffffffffffffffffffffffffffffffffffffffff\n      and\n      dup2\n      mstore\n      0x20\n      add\n      swap1\n      dup2\n      mstore\n      0x20\n      add\n      0x00\n      keccak256\n      sload\n        /* \"Campaign.sol\":8518:8544  approvers[msg.sender] != 0 */\n      sub\n        /* \"Campaign.sol\":8510:8545  require(approvers[msg.sender] != 0) */\n      tag_249\n      jumpi\n      0x00\n      dup1\n      revert\n    tag_249:\n        /* \"Campaign.sol\":8239:8249  _cancelled */\n      0x09\n      0x00\n      swap1\n      sload\n      swap1\n      0x0100\n      exp\n      swap1\n      div\n      0xff\n      and\n        /* \"Campaign.sol\":8231:8250  require(_cancelled) */\n      tag_251\n      jumpi\n      0x00\n      dup1\n      revert\n    tag_251:\n        /* \"Campaign.sol\":8268:8278  msg.sender */\n      caller\n        /* \"Campaign.sol\":8260:8288  payable(msg.sender).transfer */\n      0xffffffffffffffffffffffffffffffffffffffff\n      and\n        /* \"Campaign.sol\":8260:8311  payable(msg.sender).transfer(approvers[msg.sender]) */\n      0x08fc\n        /* \"Campaign.sol\":8289:8298  approvers */\n      0x03\n        /* \"Campaign.sol\":8289:8310  approvers[msg.sender] */\n      0x00\n        /* \"Campaign.sol\":8299:8309  msg.sender */\n      caller\n        /* \"Campaign.sol\":8289:8310  approvers[msg.sender] */\n      0xffffffffffffffffffffffffffffffffffffffff\n      and\n      0xffffffffffffffffffffffffffffffffffffffff\n      and\n      dup2\n      mstore\n      0x20\n      add\n      swap1\n      dup2\n      mstore\n      0x20\n      add\n      0x00\n      keccak256\n      sload\n        /* \"Campaign.sol\":8260:8311  payable(msg.sender).transfer(approvers[msg.sender]) */\n      swap1\n      dup2\n      iszero\n      mul\n      swap1\n      mload(0x40)\n      0x00\n      mload(0x40)\n      dup1\n      dup4\n      sub\n      dup2\n      dup6\n      dup9\n      dup9\n      call\n      swap4\n      pop\n      pop\n      pop\n      pop\n      iszero\n      dup1\n      iszero\n      tag_253\n      jumpi\n      returndatasize\n      0x00\n      dup1\n      returndatacopy\n      revert(0x00, returndatasize)\n    tag_253:\n      pop\n        /* \"Campaign.sol\":8345:8346  0 */\n      0x00\n        /* \"Campaign.sol\":8321:8330  approvers */\n      0x03\n        /* \"Campaign.sol\":8321:8342  approvers[msg.sender] */\n      0x00\n        /* \"Campaign.sol\":8331:8341  msg.sender */\n      caller\n        /* \"Campaign.sol\":8321:8342  approvers[msg.sender] */\n      0xffffffffffffffffffffffffffffffffffffffff\n      and\n      0xffffffffffffffffffffffffffffffffffffffff\n      and\n      dup2\n      mstore\n      0x20\n      add\n      swap1\n      dup2\n      mstore\n      0x20\n      add\n      0x00\n      keccak256\n        /* \"Campaign.sol\":8321:8346  approvers[msg.sender] = 0 */\n      dup2\n      swap1\n      sstore\n      pop\n        /* \"Campaign.sol\":8356:8371  _approversCount */\n      0x04\n      0x00\n        /* \"Campaign.sol\":8356:8373  _approversCount-- */\n      dup2\n      sload\n      dup1\n      swap3\n      swap2\n      swap1\n      tag_254\n      swap1\n      tag_255\n      jump\t// in\n    tag_254:\n      swap2\n      swap1\n      pop\n      sstore\n      pop\n        /* \"Campaign.sol\":8174:8381  function claimFunds() external forContributors {... */\n      jump\t// out\n        /* \"Campaign.sol\":2636:2726  function getManager() external view returns (address)... */\n    tag_98:\n        /* \"Campaign.sol\":2681:2688  address */\n      0x00\n        /* \"Campaign.sol\":2711:2719  _manager */\n      0x02\n      0x00\n      swap1\n      sload\n      swap1\n      0x0100\n      exp\n      swap1\n      div\n      0xffffffffffffffffffffffffffffffffffffffff\n      and\n        /* \"Campaign.sol\":2704:2719  return _manager */\n      swap1\n      pop\n        /* \"Campaign.sol\":2636:2726  function getManager() external view returns (address)... */\n      swap1\n      jump\t// out\n        /* \"Campaign.sol\":3953:4198  function contribute() public payable {... */\n    tag_102:\n        /* \"Campaign.sol\":4009:4019  _cancelled */\n      0x09\n      0x00\n      swap1\n      sload\n      swap1\n      0x0100\n      exp\n      swap1\n      div\n      0xff\n      and\n        /* \"Campaign.sol\":4008:4019  !_cancelled */\n      iszero\n        /* \"Campaign.sol\":4000:4020  require(!_cancelled) */\n      tag_258\n      jumpi\n      0x00\n      dup1\n      revert\n    tag_258:\n        /* \"Campaign.sol\":4051:4071  _minimumContribution */\n      sload(0x05)\n        /* \"Campaign.sol\":4038:4047  msg.value */\n      callvalue\n        /* \"Campaign.sol\":4038:4071  msg.value >= _minimumContribution */\n      lt\n      iszero\n        /* \"Campaign.sol\":4030:4072  require(msg.value >= _minimumContribution) */\n      tag_259\n      jumpi\n      0x00\n      dup1\n      revert\n    tag_259:\n        /* \"Campaign.sol\":4116:4117  0 */\n      0x00\n        /* \"Campaign.sol\":4091:4100  approvers */\n      0x03\n        /* \"Campaign.sol\":4091:4112  approvers[msg.sender] */\n      0x00\n        /* \"Campaign.sol\":4101:4111  msg.sender */\n      caller\n        /* \"Campaign.sol\":4091:4112  approvers[msg.sender] */\n      0xffffffffffffffffffffffffffffffffffffffff\n      and\n      0xffffffffffffffffffffffffffffffffffffffff\n      and\n      dup2\n      mstore\n      0x20\n      add\n      swap1\n      dup2\n      mstore\n      0x20\n      add\n      0x00\n      keccak256\n      sload\n        /* \"Campaign.sol\":4091:4117  approvers[msg.sender] == 0 */\n      eq\n        /* \"Campaign.sol\":4083:4118  require(approvers[msg.sender] == 0) */\n      tag_260\n      jumpi\n      0x00\n      dup1\n      revert\n    tag_260:\n        /* \"Campaign.sol\":4153:4162  msg.value */\n      callvalue\n        /* \"Campaign.sol\":4128:4137  approvers */\n      0x03\n        /* \"Campaign.sol\":4128:4149  approvers[msg.sender] */\n      0x00\n        /* \"Campaign.sol\":4138:4148  msg.sender */\n      caller\n        /* \"Campaign.sol\":4128:4149  approvers[msg.sender] */\n      0xffffffffffffffffffffffffffffffffffffffff\n      and\n      0xffffffffffffffffffffffffffffffffffffffff\n      and\n      dup2\n      mstore\n      0x20\n      add\n      swap1\n      dup2\n      mstore\n      0x20\n      add\n      0x00\n      keccak256\n        /* \"Campaign.sol\":4128:4163  approvers[msg.sender] = (msg.value) */\n      dup2\n      swap1\n      sstore\n      pop\n        /* \"Campaign.sol\":4173:4188  _approversCount */\n      0x04\n      0x00\n        /* \"Campaign.sol\":4173:4190  _approversCount++ */\n      dup2\n      sload\n      dup1\n      swap3\n      swap2\n      swap1\n      tag_261\n      swap1\n      tag_143\n      jump\t// in\n    tag_261:\n      swap2\n      swap1\n      pop\n      sstore\n      pop\n        /* \"Campaign.sol\":3953:4198  function contribute() public payable {... */\n      jump\t// out\n        /* \"Campaign.sol\":6379:6835  function submitRequest(string memory reqName) restricted external {... */\n    tag_106:\n        /* \"Campaign.sol\":8440:8448  _manager */\n      0x02\n      0x00\n      swap1\n      sload\n      swap1\n      0x0100\n      exp\n      swap1\n      div\n      0xffffffffffffffffffffffffffffffffffffffff\n      and\n        /* \"Campaign.sol\":8426:8448  msg.sender == _manager */\n      0xffffffffffffffffffffffffffffffffffffffff\n      and\n        /* \"Campaign.sol\":8426:8436  msg.sender */\n      caller\n        /* \"Campaign.sol\":8426:8448  msg.sender == _manager */\n      0xffffffffffffffffffffffffffffffffffffffff\n      and\n      eq\n        /* \"Campaign.sol\":8418:8449  require(msg.sender == _manager) */\n      tag_263\n      jumpi\n      0x00\n      dup1\n      revert\n    tag_263:\n        /* \"Campaign.sol\":6464:6474  _cancelled */\n      0x09\n      0x00\n      swap1\n      sload\n      swap1\n      0x0100\n      exp\n      swap1\n      div\n      0xff\n      and\n        /* \"Campaign.sol\":6463:6474  !_cancelled */\n      iszero\n        /* \"Campaign.sol\":6455:6475  require(!_cancelled) */\n      tag_265\n      jumpi\n      0x00\n      dup1\n      revert\n    tag_265:\n        /* \"Campaign.sol\":6485:6504  Request storage req */\n      0x00\n        /* \"Campaign.sol\":6507:6515  requests */\n      0x07\n        /* \"Campaign.sol\":6516:6523  reqName */\n      dup3\n        /* \"Campaign.sol\":6507:6524  requests[reqName] */\n      mload(0x40)\n      tag_266\n      swap2\n      swap1\n      tag_132\n      jump\t// in\n    tag_266:\n      swap1\n      dup2\n      mstore\n      0x20\n      add\n      mload(0x40)\n      dup1\n      swap2\n      sub\n      swap1\n      keccak256\n        /* \"Campaign.sol\":6485:6524  Request storage req = requests[reqName] */\n      swap1\n      pop\n        /* \"Campaign.sol\":6567:6568  0 */\n      0x00\n        /* \"Campaign.sol\":6548:6551  req */\n      dup2\n        /* \"Campaign.sol\":6548:6556  req.name */\n      0x00\n      add\n        /* \"Campaign.sol\":6542:6564  bytes(req.name).length */\n      dup1\n      sload\n      tag_267\n      swap1\n      tag_121\n      jump\t// in\n    tag_267:\n      swap1\n      pop\n        /* \"Campaign.sol\":6542:6568  bytes(req.name).length > 0 */\n      gt\n        /* \"Campaign.sol\":6534:6569  require(bytes(req.name).length > 0) */\n      tag_268\n      jumpi\n      0x00\n      dup1\n      revert\n    tag_268:\n        /* \"Campaign.sol\":6619:6626  reqName */\n      dup2\n        /* \"Campaign.sol\":6613:6634  bytes(reqName).length */\n      mload\n        /* \"Campaign.sol\":6593:6596  req */\n      dup2\n        /* \"Campaign.sol\":6593:6601  req.name */\n      0x00\n      add\n        /* \"Campaign.sol\":6587:6609  bytes(req.name).length */\n      dup1\n      sload\n      tag_269\n      swap1\n      tag_121\n      jump\t// in\n    tag_269:\n      swap1\n      pop\n        /* \"Campaign.sol\":6587:6634  bytes(req.name).length == bytes(reqName).length */\n      eq\n        /* \"Campaign.sol\":6579:6635  require(bytes(req.name).length == bytes(reqName).length) */\n      tag_270\n      jumpi\n      0x00\n      dup1\n      revert\n    tag_270:\n        /* \"Campaign.sol\":6653:6656  req */\n      dup1\n        /* \"Campaign.sol\":6653:6666  req.canSubmit */\n      0x08\n      add\n      0x00\n      swap1\n      sload\n      swap1\n      0x0100\n      exp\n      swap1\n      div\n      0xff\n      and\n        /* \"Campaign.sol\":6653:6683  req.canSubmit && !req.complete */\n      dup1\n      iszero\n      tag_271\n      jumpi\n      pop\n        /* \"Campaign.sol\":6671:6674  req */\n      dup1\n        /* \"Campaign.sol\":6671:6683  req.complete */\n      0x08\n      add\n      0x01\n      swap1\n      sload\n      swap1\n      0x0100\n      exp\n      swap1\n      div\n      0xff\n      and\n        /* \"Campaign.sol\":6670:6683  !req.complete */\n      iszero\n        /* \"Campaign.sol\":6653:6683  req.canSubmit && !req.complete */\n    tag_271:\n        /* \"Campaign.sol\":6653:6700  req.canSubmit && !req.complete && !req.rejected */\n      dup1\n      iszero\n      tag_272\n      jumpi\n      pop\n        /* \"Campaign.sol\":6688:6691  req */\n      dup1\n        /* \"Campaign.sol\":6688:6700  req.rejected */\n      0x08\n      add\n      0x02\n      swap1\n      sload\n      swap1\n      0x0100\n      exp\n      swap1\n      div\n      0xff\n      and\n        /* \"Campaign.sol\":6687:6700  !req.rejected */\n      iszero\n        /* \"Campaign.sol\":6653:6700  req.canSubmit && !req.complete && !req.rejected */\n    tag_272:\n        /* \"Campaign.sol\":6645:6701  require(req.canSubmit && !req.complete && !req.rejected) */\n      tag_273\n      jumpi\n      0x00\n      dup1\n      revert\n    tag_273:\n        /* \"Campaign.sol\":6744:6747  req */\n      dup1\n        /* \"Campaign.sol\":6744:6754  req.amount */\n      0x02\n      add\n      sload\n        /* \"Campaign.sol\":6719:6740  address(this).balance */\n      selfbalance\n        /* \"Campaign.sol\":6719:6754  address(this).balance >= req.amount */\n      lt\n      iszero\n        /* \"Campaign.sol\":6711:6755  require(address(this).balance >= req.amount) */\n      tag_274\n      jumpi\n      0x00\n      dup1\n      revert\n    tag_274:\n        /* \"Campaign.sol\":6765:6768  req */\n      dup1\n        /* \"Campaign.sol\":6765:6777  req.receiver */\n      0x03\n      add\n      0x00\n      swap1\n      sload\n      swap1\n      0x0100\n      exp\n      swap1\n      div\n      0xffffffffffffffffffffffffffffffffffffffff\n      and\n        /* \"Campaign.sol\":6765:6786  req.receiver.transfer */\n      0xffffffffffffffffffffffffffffffffffffffff\n      and\n        /* \"Campaign.sol\":6765:6798  req.receiver.transfer(req.amount) */\n      0x08fc\n        /* \"Campaign.sol\":6787:6790  req */\n      dup3\n        /* \"Campaign.sol\":6787:6797  req.amount */\n      0x02\n      add\n      sload\n        /* \"Campaign.sol\":6765:6798  req.receiver.transfer(req.amount) */\n      swap1\n      dup2\n      iszero\n      mul\n      swap1\n      mload(0x40)\n      0x00\n      mload(0x40)\n      dup1\n      dup4\n      sub\n      dup2\n      dup6\n      dup9\n      dup9\n      call\n      swap4\n      pop\n      pop\n      pop\n      pop\n      iszero\n      dup1\n      iszero\n      tag_276\n      jumpi\n      returndatasize\n      0x00\n      dup1\n      returndatacopy\n      revert(0x00, returndatasize)\n    tag_276:\n      pop\n        /* \"Campaign.sol\":6824:6828  true */\n      0x01\n        /* \"Campaign.sol\":6809:6812  req */\n      dup2\n        /* \"Campaign.sol\":6809:6821  req.complete */\n      0x08\n      add\n      0x01\n        /* \"Campaign.sol\":6809:6828  req.complete = true */\n      0x0100\n      exp\n      dup2\n      sload\n      dup2\n      0xff\n      mul\n      not\n      and\n      swap1\n      dup4\n      iszero\n      iszero\n      mul\n      or\n      swap1\n      sstore\n      pop\n        /* \"Campaign.sol\":6445:6835  {... */\n      pop\n        /* \"Campaign.sol\":6379:6835  function submitRequest(string memory reqName) restricted external {... */\n      pop\n      jump\t// out\n        /* \"Campaign.sol\":6841:7385  function claimRequest(string memory reqName, string memory description) external forContributors... */\n    tag_110:\n        /* \"Campaign.sol\":8543:8544  0 */\n      0x00\n        /* \"Campaign.sol\":8518:8527  approvers */\n      0x03\n        /* \"Campaign.sol\":8518:8539  approvers[msg.sender] */\n      0x00\n        /* \"Campaign.sol\":8528:8538  msg.sender */\n      caller\n        /* \"Campaign.sol\":8518:8539  approvers[msg.sender] */\n      0xffffffffffffffffffffffffffffffffffffffff\n      and\n      0xffffffffffffffffffffffffffffffffffffffff\n      and\n      dup2\n      mstore\n      0x20\n      add\n      swap1\n      dup2\n      mstore\n      0x20\n      add\n      0x00\n      keccak256\n      sload\n        /* \"Campaign.sol\":8518:8544  approvers[msg.sender] != 0 */\n      sub\n        /* \"Campaign.sol\":8510:8545  require(approvers[msg.sender] != 0) */\n      tag_278\n      jumpi\n      0x00\n      dup1\n      revert\n    tag_278:\n        /* \"Campaign.sol\":6961:6971  _cancelled */\n      0x09\n      0x00\n      swap1\n      sload\n      swap1\n      0x0100\n      exp\n      swap1\n      div\n      0xff\n      and\n        /* \"Campaign.sol\":6960:6971  !_cancelled */\n      iszero\n        /* \"Campaign.sol\":6952:6972  require(!_cancelled) */\n      tag_280\n      jumpi\n      0x00\n      dup1\n      revert\n    tag_280:\n        /* \"Campaign.sol\":7014:7015  0 */\n      0x00\n        /* \"Campaign.sol\":6990:6999  approvers */\n      0x03\n        /* \"Campaign.sol\":6990:7011  approvers[msg.sender] */\n      0x00\n        /* \"Campaign.sol\":7000:7010  msg.sender */\n      caller\n        /* \"Campaign.sol\":6990:7011  approvers[msg.sender] */\n      0xffffffffffffffffffffffffffffffffffffffff\n      and\n      0xffffffffffffffffffffffffffffffffffffffff\n      and\n      dup2\n      mstore\n      0x20\n      add\n      swap1\n      dup2\n      mstore\n      0x20\n      add\n      0x00\n      keccak256\n      sload\n        /* \"Campaign.sol\":6990:7015  approvers[msg.sender] > 0 */\n      gt\n        /* \"Campaign.sol\":6982:7016  require(approvers[msg.sender] > 0) */\n      tag_281\n      jumpi\n      0x00\n      dup1\n      revert\n    tag_281:\n        /* \"Campaign.sol\":7074:7075  0 */\n      0x00\n        /* \"Campaign.sol\":7040:7048  requests */\n      0x07\n        /* \"Campaign.sol\":7049:7056  reqName */\n      dup4\n        /* \"Campaign.sol\":7040:7057  requests[reqName] */\n      mload(0x40)\n      tag_282\n      swap2\n      swap1\n      tag_132\n      jump\t// in\n    tag_282:\n      swap1\n      dup2\n      mstore\n      0x20\n      add\n      mload(0x40)\n      dup1\n      swap2\n      sub\n      swap1\n      keccak256\n        /* \"Campaign.sol\":7040:7062  requests[reqName].name */\n      0x00\n      add\n        /* \"Campaign.sol\":7034:7070  bytes(requests[reqName].name).length */\n      dup1\n      sload\n      tag_283\n      swap1\n      tag_121\n      jump\t// in\n    tag_283:\n      swap1\n      pop\n        /* \"Campaign.sol\":7034:7075  bytes(requests[reqName].name).length != 0 */\n      sub\n        /* \"Campaign.sol\":7026:7076  require(bytes(requests[reqName].name).length != 0) */\n      tag_284\n      jumpi\n      0x00\n      dup1\n      revert\n    tag_284:\n        /* \"Campaign.sol\":7095:7103  requests */\n      0x07\n        /* \"Campaign.sol\":7104:7111  reqName */\n      dup3\n        /* \"Campaign.sol\":7095:7112  requests[reqName] */\n      mload(0x40)\n      tag_285\n      swap2\n      swap1\n      tag_132\n      jump\t// in\n    tag_285:\n      swap1\n      dup2\n      mstore\n      0x20\n      add\n      mload(0x40)\n      dup1\n      swap2\n      sub\n      swap1\n      keccak256\n        /* \"Campaign.sol\":7095:7121  requests[reqName].rejected */\n      0x08\n      add\n      0x02\n      swap1\n      sload\n      swap1\n      0x0100\n      exp\n      swap1\n      div\n      0xff\n      and\n        /* \"Campaign.sol\":7094:7121  !requests[reqName].rejected */\n      iszero\n        /* \"Campaign.sol\":7094:7152  !requests[reqName].rejected && !requests[reqName].complete */\n      dup1\n      iszero\n      tag_286\n      jumpi\n      pop\n        /* \"Campaign.sol\":7126:7134  requests */\n      0x07\n        /* \"Campaign.sol\":7135:7142  reqName */\n      dup3\n        /* \"Campaign.sol\":7126:7143  requests[reqName] */\n      mload(0x40)\n      tag_287\n      swap2\n      swap1\n      tag_132\n      jump\t// in\n    tag_287:\n      swap1\n      dup2\n      mstore\n      0x20\n      add\n      mload(0x40)\n      dup1\n      swap2\n      sub\n      swap1\n      keccak256\n        /* \"Campaign.sol\":7126:7152  requests[reqName].complete */\n      0x08\n      add\n      0x01\n      swap1\n      sload\n      swap1\n      0x0100\n      exp\n      swap1\n      div\n      0xff\n      and\n        /* \"Campaign.sol\":7125:7152  !requests[reqName].complete */\n      iszero\n        /* \"Campaign.sol\":7094:7152  !requests[reqName].rejected && !requests[reqName].complete */\n    tag_286:\n        /* \"Campaign.sol\":7086:7153  require(!requests[reqName].rejected && !requests[reqName].complete) */\n      tag_288\n      jumpi\n      0x00\n      dup1\n      revert\n    tag_288:\n        /* \"Campaign.sol\":7163:7188  RequestClaim memory claim */\n      0x00\n        /* \"Campaign.sol\":7191:7290  RequestClaim({... */\n      mload(0x40)\n      dup1\n      0x40\n      add\n      0x40\n      mstore\n      dup1\n        /* \"Campaign.sol\":7231:7241  msg.sender */\n      caller\n        /* \"Campaign.sol\":7191:7290  RequestClaim({... */\n      0xffffffffffffffffffffffffffffffffffffffff\n      and\n      dup2\n      mstore\n      0x20\n      add\n        /* \"Campaign.sol\":7268:7279  description */\n      dup4\n        /* \"Campaign.sol\":7191:7290  RequestClaim({... */\n      dup2\n      mstore\n      pop\n        /* \"Campaign.sol\":7163:7290  RequestClaim memory claim = RequestClaim({... */\n      swap1\n      pop\n        /* \"Campaign.sol\":7301:7309  requests */\n      0x07\n        /* \"Campaign.sol\":7310:7317  reqName */\n      dup4\n        /* \"Campaign.sol\":7301:7318  requests[reqName] */\n      mload(0x40)\n      tag_289\n      swap2\n      swap1\n      tag_132\n      jump\t// in\n    tag_289:\n      swap1\n      dup2\n      mstore\n      0x20\n      add\n      mload(0x40)\n      dup1\n      swap2\n      sub\n      swap1\n      keccak256\n        /* \"Campaign.sol\":7301:7325  requests[reqName].claims */\n      0x0b\n      add\n        /* \"Campaign.sol\":7331:7336  claim */\n      dup2\n        /* \"Campaign.sol\":7301:7337  requests[reqName].claims.push(claim) */\n      swap1\n      dup1\n      0x01\n      dup2\n      sload\n      add\n      dup1\n      dup3\n      sstore\n      dup1\n      swap2\n      pop\n      pop\n      0x01\n      swap1\n      sub\n      swap1\n      0x00\n      mstore\n      keccak256(0x00, 0x20)\n      swap1\n      0x02\n      mul\n      add\n      0x00\n      swap1\n      swap2\n      swap1\n      swap2\n      swap1\n      swap2\n      pop\n      0x00\n      dup3\n      add\n      mload\n      dup2\n      0x00\n      add\n      exp(0x0100, 0x00)\n      dup2\n      sload\n      dup2\n      0xffffffffffffffffffffffffffffffffffffffff\n      mul\n      not\n      and\n      swap1\n      dup4\n      0xffffffffffffffffffffffffffffffffffffffff\n      and\n      mul\n      or\n      swap1\n      sstore\n      pop\n      0x20\n      dup3\n      add\n      mload\n      dup2\n      0x01\n      add\n      swap1\n      dup2\n      tag_291\n      swap2\n      swap1\n      tag_149\n      jump\t// in\n    tag_291:\n      pop\n      pop\n      pop\n        /* \"Campaign.sol\":7347:7355  requests */\n      0x07\n        /* \"Campaign.sol\":7356:7363  reqName */\n      dup4\n        /* \"Campaign.sol\":7347:7364  requests[reqName] */\n      mload(0x40)\n      tag_292\n      swap2\n      swap1\n      tag_132\n      jump\t// in\n    tag_292:\n      swap1\n      dup2\n      mstore\n      0x20\n      add\n      mload(0x40)\n      dup1\n      swap2\n      sub\n      swap1\n      keccak256\n        /* \"Campaign.sol\":7347:7376  requests[reqName].claimsCount */\n      0x07\n      add\n      0x00\n        /* \"Campaign.sol\":7347:7378  requests[reqName].claimsCount++ */\n      dup2\n      sload\n      dup1\n      swap3\n      swap2\n      swap1\n      tag_293\n      swap1\n      tag_143\n      jump\t// in\n    tag_293:\n      swap2\n      swap1\n      pop\n      sstore\n      pop\n        /* \"Campaign.sol\":6942:7385  {... */\n      pop\n        /* \"Campaign.sol\":6841:7385  function claimRequest(string memory reqName, string memory description) external forContributors... */\n      pop\n      pop\n      jump\t// out\n        /* \"Campaign.sol\":3047:3152  function getMinimumContribution() external view returns(uint){... */\n    tag_113:\n        /* \"Campaign.sol\":3103:3107  uint */\n      0x00\n        /* \"Campaign.sol\":3125:3145  _minimumContribution */\n      sload(0x05)\n        /* \"Campaign.sol\":3118:3145  return _minimumContribution */\n      swap1\n      pop\n        /* \"Campaign.sol\":3047:3152  function getMinimumContribution() external view returns(uint){... */\n      swap1\n      jump\t// out\n        /* \"Campaign.sol\":2944:3042  function getContributorsCount() external view returns(uint){... */\n    tag_117:\n        /* \"Campaign.sol\":2998:3002  uint */\n      0x00\n        /* \"Campaign.sol\":3020:3035  _approversCount */\n      sload(0x04)\n        /* \"Campaign.sol\":3013:3035  return _approversCount */\n      swap1\n      pop\n        /* \"Campaign.sol\":2944:3042  function getContributorsCount() external view returns(uint){... */\n      swap1\n      jump\t// out\n    tag_152:\n      mload(0x40)\n      dup1\n      0x0100\n      add\n      0x40\n      mstore\n      dup1\n      and(0xffffffffffffffffffffffffffffffffffffffff, 0x00)\n      dup2\n      mstore\n      0x20\n      add\n      0x60\n      dup2\n      mstore\n      0x20\n      add\n      0x60\n      dup2\n      mstore\n      0x20\n      add\n      0x00\n      dup2\n      mstore\n      0x20\n      add\n      0x00\n      dup2\n      mstore\n      0x20\n      add\n      0x00\n      dup2\n      mstore\n      0x20\n      add\n      0x00\n      dup2\n      mstore\n      0x20\n      add\n      iszero(iszero(0x00))\n      dup2\n      mstore\n      pop\n      swap1\n      jump\t// out\n        /* \"#utility.yul\":7:82   */\n    tag_296:\n        /* \"#utility.yul\":40:46   */\n      0x00\n        /* \"#utility.yul\":73:75   */\n      0x40\n        /* \"#utility.yul\":67:76   */\n      mload\n        /* \"#utility.yul\":57:76   */\n      swap1\n      pop\n        /* \"#utility.yul\":7:82   */\n      swap1\n      jump\t// out\n        /* \"#utility.yul\":88:205   */\n    tag_297:\n        /* \"#utility.yul\":197:198   */\n      0x00\n        /* \"#utility.yul\":194:195   */\n      dup1\n        /* \"#utility.yul\":187:199   */\n      revert\n        /* \"#utility.yul\":211:328   */\n    tag_298:\n        /* \"#utility.yul\":320:321   */\n      0x00\n        /* \"#utility.yul\":317:318   */\n      dup1\n        /* \"#utility.yul\":310:322   */\n      revert\n        /* \"#utility.yul\":334:460   */\n    tag_299:\n        /* \"#utility.yul\":371:378   */\n      0x00\n        /* \"#utility.yul\":411:453   */\n      0xffffffffffffffffffffffffffffffffffffffff\n        /* \"#utility.yul\":404:409   */\n      dup3\n        /* \"#utility.yul\":400:454   */\n      and\n        /* \"#utility.yul\":389:454   */\n      swap1\n      pop\n        /* \"#utility.yul\":334:460   */\n      swap2\n      swap1\n      pop\n      jump\t// out\n        /* \"#utility.yul\":466:562   */\n    tag_300:\n        /* \"#utility.yul\":503:510   */\n      0x00\n        /* \"#utility.yul\":532:556   */\n      tag_375\n        /* \"#utility.yul\":550:555   */\n      dup3\n        /* \"#utility.yul\":532:556   */\n      tag_299\n      jump\t// in\n    tag_375:\n        /* \"#utility.yul\":521:556   */\n      swap1\n      pop\n        /* \"#utility.yul\":466:562   */\n      swap2\n      swap1\n      pop\n      jump\t// out\n        /* \"#utility.yul\":568:690   */\n    tag_301:\n        /* \"#utility.yul\":641:665   */\n      tag_377\n        /* \"#utility.yul\":659:664   */\n      dup2\n        /* \"#utility.yul\":641:665   */\n      tag_300\n      jump\t// in\n    tag_377:\n        /* \"#utility.yul\":634:639   */\n      dup2\n        /* \"#utility.yul\":631:666   */\n      eq\n        /* \"#utility.yul\":621:684   */\n      tag_378\n      jumpi\n        /* \"#utility.yul\":680:681   */\n      0x00\n        /* \"#utility.yul\":677:678   */\n      dup1\n        /* \"#utility.yul\":670:682   */\n      revert\n        /* \"#utility.yul\":621:684   */\n    tag_378:\n        /* \"#utility.yul\":568:690   */\n      pop\n      jump\t// out\n        /* \"#utility.yul\":696:835   */\n    tag_302:\n        /* \"#utility.yul\":742:747   */\n      0x00\n        /* \"#utility.yul\":780:786   */\n      dup2\n        /* \"#utility.yul\":767:787   */\n      calldataload\n        /* \"#utility.yul\":758:787   */\n      swap1\n      pop\n        /* \"#utility.yul\":796:829   */\n      tag_380\n        /* \"#utility.yul\":823:828   */\n      dup2\n        /* \"#utility.yul\":796:829   */\n      tag_301\n      jump\t// in\n    tag_380:\n        /* \"#utility.yul\":696:835   */\n      swap3\n      swap2\n      pop\n      pop\n      jump\t// out\n        /* \"#utility.yul\":841:1170   */\n    tag_29:\n        /* \"#utility.yul\":900:906   */\n      0x00\n        /* \"#utility.yul\":949:951   */\n      0x20\n        /* \"#utility.yul\":937:946   */\n      dup3\n        /* \"#utility.yul\":928:935   */\n      dup5\n        /* \"#utility.yul\":924:947   */\n      sub\n        /* \"#utility.yul\":920:952   */\n      slt\n        /* \"#utility.yul\":917:1036   */\n      iszero\n      tag_382\n      jumpi\n        /* \"#utility.yul\":955:1034   */\n      tag_383\n      tag_297\n      jump\t// in\n    tag_383:\n        /* \"#utility.yul\":917:1036   */\n    tag_382:\n        /* \"#utility.yul\":1075:1076   */\n      0x00\n        /* \"#utility.yul\":1100:1153   */\n      tag_384\n        /* \"#utility.yul\":1145:1152   */\n      dup5\n        /* \"#utility.yul\":1136:1142   */\n      dup3\n        /* \"#utility.yul\":1125:1134   */\n      dup6\n        /* \"#utility.yul\":1121:1143   */\n      add\n        /* \"#utility.yul\":1100:1153   */\n      tag_302\n      jump\t// in\n    tag_384:\n        /* \"#utility.yul\":1090:1153   */\n      swap2\n      pop\n        /* \"#utility.yul\":1046:1163   */\n      pop\n        /* \"#utility.yul\":841:1170   */\n      swap3\n      swap2\n      pop\n      pop\n      jump\t// out\n        /* \"#utility.yul\":1176:1253   */\n    tag_303:\n        /* \"#utility.yul\":1213:1220   */\n      0x00\n        /* \"#utility.yul\":1242:1247   */\n      dup2\n        /* \"#utility.yul\":1231:1247   */\n      swap1\n      pop\n        /* \"#utility.yul\":1176:1253   */\n      swap2\n      swap1\n      pop\n      jump\t// out\n        /* \"#utility.yul\":1259:1377   */\n    tag_304:\n        /* \"#utility.yul\":1346:1370   */\n      tag_387\n        /* \"#utility.yul\":1364:1369   */\n      dup2\n        /* \"#utility.yul\":1346:1370   */\n      tag_303\n      jump\t// in\n    tag_387:\n        /* \"#utility.yul\":1341:1344   */\n      dup3\n        /* \"#utility.yul\":1334:1371   */\n      mstore\n        /* \"#utility.yul\":1259:1377   */\n      pop\n      pop\n      jump\t// out\n        /* \"#utility.yul\":1383:1605   */\n    tag_32:\n        /* \"#utility.yul\":1476:1480   */\n      0x00\n        /* \"#utility.yul\":1514:1516   */\n      0x20\n        /* \"#utility.yul\":1503:1512   */\n      dup3\n        /* \"#utility.yul\":1499:1517   */\n      add\n        /* \"#utility.yul\":1491:1517   */\n      swap1\n      pop\n        /* \"#utility.yul\":1527:1598   */\n      tag_389\n        /* \"#utility.yul\":1595:1596   */\n      0x00\n        /* \"#utility.yul\":1584:1593   */\n      dup4\n        /* \"#utility.yul\":1580:1597   */\n      add\n        /* \"#utility.yul\":1571:1577   */\n      dup5\n        /* \"#utility.yul\":1527:1598   */\n      tag_304\n      jump\t// in\n    tag_389:\n        /* \"#utility.yul\":1383:1605   */\n      swap3\n      swap2\n      pop\n      pop\n      jump\t// out\n        /* \"#utility.yul\":1611:1710   */\n    tag_305:\n        /* \"#utility.yul\":1663:1669   */\n      0x00\n        /* \"#utility.yul\":1697:1702   */\n      dup2\n        /* \"#utility.yul\":1691:1703   */\n      mload\n        /* \"#utility.yul\":1681:1703   */\n      swap1\n      pop\n        /* \"#utility.yul\":1611:1710   */\n      swap2\n      swap1\n      pop\n      jump\t// out\n        /* \"#utility.yul\":1716:1885   */\n    tag_306:\n        /* \"#utility.yul\":1800:1811   */\n      0x00\n        /* \"#utility.yul\":1834:1840   */\n      dup3\n        /* \"#utility.yul\":1829:1832   */\n      dup3\n        /* \"#utility.yul\":1822:1841   */\n      mstore\n        /* \"#utility.yul\":1874:1878   */\n      0x20\n        /* \"#utility.yul\":1869:1872   */\n      dup3\n        /* \"#utility.yul\":1865:1879   */\n      add\n        /* \"#utility.yul\":1850:1879   */\n      swap1\n      pop\n        /* \"#utility.yul\":1716:1885   */\n      swap3\n      swap2\n      pop\n      pop\n      jump\t// out\n        /* \"#utility.yul\":1891:2137   */\n    tag_307:\n        /* \"#utility.yul\":1972:1973   */\n      0x00\n        /* \"#utility.yul\":1982:2095   */\n    tag_393:\n        /* \"#utility.yul\":1996:2002   */\n      dup4\n        /* \"#utility.yul\":1993:1994   */\n      dup2\n        /* \"#utility.yul\":1990:2003   */\n      lt\n        /* \"#utility.yul\":1982:2095   */\n      iszero\n      tag_395\n      jumpi\n        /* \"#utility.yul\":2081:2082   */\n      dup1\n        /* \"#utility.yul\":2076:2079   */\n      dup3\n        /* \"#utility.yul\":2072:2083   */\n      add\n        /* \"#utility.yul\":2066:2084   */\n      mload\n        /* \"#utility.yul\":2062:2063   */\n      dup2\n        /* \"#utility.yul\":2057:2060   */\n      dup5\n        /* \"#utility.yul\":2053:2064   */\n      add\n        /* \"#utility.yul\":2046:2085   */\n      mstore\n        /* \"#utility.yul\":2018:2020   */\n      0x20\n        /* \"#utility.yul\":2015:2016   */\n      dup2\n        /* \"#utility.yul\":2011:2021   */\n      add\n        /* \"#utility.yul\":2006:2021   */\n      swap1\n      pop\n        /* \"#utility.yul\":1982:2095   */\n      jump(tag_393)\n    tag_395:\n        /* \"#utility.yul\":2129:2130   */\n      0x00\n        /* \"#utility.yul\":2120:2126   */\n      dup5\n        /* \"#utility.yul\":2115:2118   */\n      dup5\n        /* \"#utility.yul\":2111:2127   */\n      add\n        /* \"#utility.yul\":2104:2131   */\n      mstore\n        /* \"#utility.yul\":1953:2137   */\n      pop\n        /* \"#utility.yul\":1891:2137   */\n      pop\n      pop\n      pop\n      jump\t// out\n        /* \"#utility.yul\":2143:2245   */\n    tag_308:\n        /* \"#utility.yul\":2184:2190   */\n      0x00\n        /* \"#utility.yul\":2235:2237   */\n      0x1f\n        /* \"#utility.yul\":2231:2238   */\n      not\n        /* \"#utility.yul\":2226:2228   */\n      0x1f\n        /* \"#utility.yul\":2219:2224   */\n      dup4\n        /* \"#utility.yul\":2215:2229   */\n      add\n        /* \"#utility.yul\":2211:2239   */\n      and\n        /* \"#utility.yul\":2201:2239   */\n      swap1\n      pop\n        /* \"#utility.yul\":2143:2245   */\n      swap2\n      swap1\n      pop\n      jump\t// out\n        /* \"#utility.yul\":2251:2628   */\n    tag_309:\n        /* \"#utility.yul\":2339:2342   */\n      0x00\n        /* \"#utility.yul\":2367:2406   */\n      tag_398\n        /* \"#utility.yul\":2400:2405   */\n      dup3\n        /* \"#utility.yul\":2367:2406   */\n      tag_305\n      jump\t// in\n    tag_398:\n        /* \"#utility.yul\":2422:2493   */\n      tag_399\n        /* \"#utility.yul\":2486:2492   */\n      dup2\n        /* \"#utility.yul\":2481:2484   */\n      dup6\n        /* \"#utility.yul\":2422:2493   */\n      tag_306\n      jump\t// in\n    tag_399:\n        /* \"#utility.yul\":2415:2493   */\n      swap4\n      pop\n        /* \"#utility.yul\":2502:2567   */\n      tag_400\n        /* \"#utility.yul\":2560:2566   */\n      dup2\n        /* \"#utility.yul\":2555:2558   */\n      dup6\n        /* \"#utility.yul\":2548:2552   */\n      0x20\n        /* \"#utility.yul\":2541:2546   */\n      dup7\n        /* \"#utility.yul\":2537:2553   */\n      add\n        /* \"#utility.yul\":2502:2567   */\n      tag_307\n      jump\t// in\n    tag_400:\n        /* \"#utility.yul\":2592:2621   */\n      tag_401\n        /* \"#utility.yul\":2614:2620   */\n      dup2\n        /* \"#utility.yul\":2592:2621   */\n      tag_308\n      jump\t// in\n    tag_401:\n        /* \"#utility.yul\":2587:2590   */\n      dup5\n        /* \"#utility.yul\":2583:2622   */\n      add\n        /* \"#utility.yul\":2576:2622   */\n      swap2\n      pop\n        /* \"#utility.yul\":2343:2628   */\n      pop\n        /* \"#utility.yul\":2251:2628   */\n      swap3\n      swap2\n      pop\n      pop\n      jump\t// out\n        /* \"#utility.yul\":2634:2947   */\n    tag_37:\n        /* \"#utility.yul\":2747:2751   */\n      0x00\n        /* \"#utility.yul\":2785:2787   */\n      0x20\n        /* \"#utility.yul\":2774:2783   */\n      dup3\n        /* \"#utility.yul\":2770:2788   */\n      add\n        /* \"#utility.yul\":2762:2788   */\n      swap1\n      pop\n        /* \"#utility.yul\":2834:2843   */\n      dup2\n        /* \"#utility.yul\":2828:2832   */\n      dup2\n        /* \"#utility.yul\":2824:2844   */\n      sub\n        /* \"#utility.yul\":2820:2821   */\n      0x00\n        /* \"#utility.yul\":2809:2818   */\n      dup4\n        /* \"#utility.yul\":2805:2822   */\n      add\n        /* \"#utility.yul\":2798:2845   */\n      mstore\n        /* \"#utility.yul\":2862:2940   */\n      tag_403\n        /* \"#utility.yul\":2935:2939   */\n      dup2\n        /* \"#utility.yul\":2926:2932   */\n      dup5\n        /* \"#utility.yul\":2862:2940   */\n      tag_309\n      jump\t// in\n    tag_403:\n        /* \"#utility.yul\":2854:2940   */\n      swap1\n      pop\n        /* \"#utility.yul\":2634:2947   */\n      swap3\n      swap2\n      pop\n      pop\n      jump\t// out\n        /* \"#utility.yul\":2953:3070   */\n    tag_310:\n        /* \"#utility.yul\":3062:3063   */\n      0x00\n        /* \"#utility.yul\":3059:3060   */\n      dup1\n        /* \"#utility.yul\":3052:3064   */\n      revert\n        /* \"#utility.yul\":3076:3193   */\n    tag_311:\n        /* \"#utility.yul\":3185:3186   */\n      0x00\n        /* \"#utility.yul\":3182:3183   */\n      dup1\n        /* \"#utility.yul\":3175:3187   */\n      revert\n        /* \"#utility.yul\":3199:3379   */\n    tag_312:\n        /* \"#utility.yul\":3247:3324   */\n      0x4e487b7100000000000000000000000000000000000000000000000000000000\n        /* \"#utility.yul\":3244:3245   */\n      0x00\n        /* \"#utility.yul\":3237:3325   */\n      mstore\n        /* \"#utility.yul\":3344:3348   */\n      0x41\n        /* \"#utility.yul\":3341:3342   */\n      0x04\n        /* \"#utility.yul\":3334:3349   */\n      mstore\n        /* \"#utility.yul\":3368:3372   */\n      0x24\n        /* \"#utility.yul\":3365:3366   */\n      0x00\n        /* \"#utility.yul\":3358:3373   */\n      revert\n        /* \"#utility.yul\":3385:3666   */\n    tag_313:\n        /* \"#utility.yul\":3468:3495   */\n      tag_408\n        /* \"#utility.yul\":3490:3494   */\n      dup3\n        /* \"#utility.yul\":3468:3495   */\n      tag_308\n      jump\t// in\n    tag_408:\n        /* \"#utility.yul\":3460:3466   */\n      dup2\n        /* \"#utility.yul\":3456:3496   */\n      add\n        /* \"#utility.yul\":3598:3604   */\n      dup2\n        /* \"#utility.yul\":3586:3596   */\n      dup2\n        /* \"#utility.yul\":3583:3605   */\n      lt\n        /* \"#utility.yul\":3562:3580   */\n      0xffffffffffffffff\n        /* \"#utility.yul\":3550:3560   */\n      dup3\n        /* \"#utility.yul\":3547:3581   */\n      gt\n        /* \"#utility.yul\":3544:3606   */\n      or\n        /* \"#utility.yul\":3541:3629   */\n      iszero\n      tag_409\n      jumpi\n        /* \"#utility.yul\":3609:3627   */\n      tag_410\n      tag_312\n      jump\t// in\n    tag_410:\n        /* \"#utility.yul\":3541:3629   */\n    tag_409:\n        /* \"#utility.yul\":3649:3659   */\n      dup1\n        /* \"#utility.yul\":3645:3647   */\n      0x40\n        /* \"#utility.yul\":3638:3660   */\n      mstore\n        /* \"#utility.yul\":3428:3666   */\n      pop\n        /* \"#utility.yul\":3385:3666   */\n      pop\n      pop\n      jump\t// out\n        /* \"#utility.yul\":3672:3801   */\n    tag_314:\n        /* \"#utility.yul\":3706:3712   */\n      0x00\n        /* \"#utility.yul\":3733:3753   */\n      tag_412\n      tag_296\n      jump\t// in\n    tag_412:\n        /* \"#utility.yul\":3723:3753   */\n      swap1\n      pop\n        /* \"#utility.yul\":3762:3795   */\n      tag_413\n        /* \"#utility.yul\":3790:3794   */\n      dup3\n        /* \"#utility.yul\":3782:3788   */\n      dup3\n        /* \"#utility.yul\":3762:3795   */\n      tag_313\n      jump\t// in\n    tag_413:\n        /* \"#utility.yul\":3672:3801   */\n      swap2\n      swap1\n      pop\n      jump\t// out\n        /* \"#utility.yul\":3807:4115   */\n    tag_315:\n        /* \"#utility.yul\":3869:3873   */\n      0x00\n        /* \"#utility.yul\":3959:3977   */\n      0xffffffffffffffff\n        /* \"#utility.yul\":3951:3957   */\n      dup3\n        /* \"#utility.yul\":3948:3978   */\n      gt\n        /* \"#utility.yul\":3945:4001   */\n      iszero\n      tag_415\n      jumpi\n        /* \"#utility.yul\":3981:3999   */\n      tag_416\n      tag_312\n      jump\t// in\n    tag_416:\n        /* \"#utility.yul\":3945:4001   */\n    tag_415:\n        /* \"#utility.yul\":4019:4048   */\n      tag_417\n        /* \"#utility.yul\":4041:4047   */\n      dup3\n        /* \"#utility.yul\":4019:4048   */\n      tag_308\n      jump\t// in\n    tag_417:\n        /* \"#utility.yul\":4011:4048   */\n      swap1\n      pop\n        /* \"#utility.yul\":4103:4107   */\n      0x20\n        /* \"#utility.yul\":4097:4101   */\n      dup2\n        /* \"#utility.yul\":4093:4108   */\n      add\n        /* \"#utility.yul\":4085:4108   */\n      swap1\n      pop\n        /* \"#utility.yul\":3807:4115   */\n      swap2\n      swap1\n      pop\n      jump\t// out\n        /* \"#utility.yul\":4121:4267   */\n    tag_316:\n        /* \"#utility.yul\":4218:4224   */\n      dup3\n        /* \"#utility.yul\":4213:4216   */\n      dup2\n        /* \"#utility.yul\":4208:4211   */\n      dup4\n        /* \"#utility.yul\":4195:4225   */\n      calldatacopy\n        /* \"#utility.yul\":4259:4260   */\n      0x00\n        /* \"#utility.yul\":4250:4256   */\n      dup4\n        /* \"#utility.yul\":4245:4248   */\n      dup4\n        /* \"#utility.yul\":4241:4257   */\n      add\n        /* \"#utility.yul\":4234:4261   */\n      mstore\n        /* \"#utility.yul\":4121:4267   */\n      pop\n      pop\n      pop\n      jump\t// out\n        /* \"#utility.yul\":4273:4698   */\n    tag_317:\n        /* \"#utility.yul\":4351:4356   */\n      0x00\n        /* \"#utility.yul\":4376:4442   */\n      tag_420\n        /* \"#utility.yul\":4392:4441   */\n      tag_421\n        /* \"#utility.yul\":4434:4440   */\n      dup5\n        /* \"#utility.yul\":4392:4441   */\n      tag_315\n      jump\t// in\n    tag_421:\n        /* \"#utility.yul\":4376:4442   */\n      tag_314\n      jump\t// in\n    tag_420:\n        /* \"#utility.yul\":4367:4442   */\n      swap1\n      pop\n        /* \"#utility.yul\":4465:4471   */\n      dup3\n        /* \"#utility.yul\":4458:4463   */\n      dup2\n        /* \"#utility.yul\":4451:4472   */\n      mstore\n        /* \"#utility.yul\":4503:4507   */\n      0x20\n        /* \"#utility.yul\":4496:4501   */\n      dup2\n        /* \"#utility.yul\":4492:4508   */\n      add\n        /* \"#utility.yul\":4541:4544   */\n      dup5\n        /* \"#utility.yul\":4532:4538   */\n      dup5\n        /* \"#utility.yul\":4527:4530   */\n      dup5\n        /* \"#utility.yul\":4523:4539   */\n      add\n        /* \"#utility.yul\":4520:4545   */\n      gt\n        /* \"#utility.yul\":4517:4629   */\n      iszero\n      tag_422\n      jumpi\n        /* \"#utility.yul\":4548:4627   */\n      tag_423\n      tag_311\n      jump\t// in\n    tag_423:\n        /* \"#utility.yul\":4517:4629   */\n    tag_422:\n        /* \"#utility.yul\":4638:4692   */\n      tag_424\n        /* \"#utility.yul\":4685:4691   */\n      dup5\n        /* \"#utility.yul\":4680:4683   */\n      dup3\n        /* \"#utility.yul\":4675:4678   */\n      dup6\n        /* \"#utility.yul\":4638:4692   */\n      tag_316\n      jump\t// in\n    tag_424:\n        /* \"#utility.yul\":4357:4698   */\n      pop\n        /* \"#utility.yul\":4273:4698   */\n      swap4\n      swap3\n      pop\n      pop\n      pop\n      jump\t// out\n        /* \"#utility.yul\":4718:5058   */\n    tag_318:\n        /* \"#utility.yul\":4774:4779   */\n      0x00\n        /* \"#utility.yul\":4823:4826   */\n      dup3\n        /* \"#utility.yul\":4816:4820   */\n      0x1f\n        /* \"#utility.yul\":4808:4814   */\n      dup4\n        /* \"#utility.yul\":4804:4821   */\n      add\n        /* \"#utility.yul\":4800:4827   */\n      slt\n        /* \"#utility.yul\":4790:4912   */\n      tag_426\n      jumpi\n        /* \"#utility.yul\":4831:4910   */\n      tag_427\n      tag_310\n      jump\t// in\n    tag_427:\n        /* \"#utility.yul\":4790:4912   */\n    tag_426:\n        /* \"#utility.yul\":4948:4954   */\n      dup2\n        /* \"#utility.yul\":4935:4955   */\n      calldataload\n        /* \"#utility.yul\":4973:5052   */\n      tag_428\n        /* \"#utility.yul\":5048:5051   */\n      dup5\n        /* \"#utility.yul\":5040:5046   */\n      dup3\n        /* \"#utility.yul\":5033:5037   */\n      0x20\n        /* \"#utility.yul\":5025:5031   */\n      dup7\n        /* \"#utility.yul\":5021:5038   */\n      add\n        /* \"#utility.yul\":4973:5052   */\n      tag_317\n      jump\t// in\n    tag_428:\n        /* \"#utility.yul\":4964:5052   */\n      swap2\n      pop\n        /* \"#utility.yul\":4780:5058   */\n      pop\n        /* \"#utility.yul\":4718:5058   */\n      swap3\n      swap2\n      pop\n      pop\n      jump\t// out\n        /* \"#utility.yul\":5064:5154   */\n    tag_319:\n        /* \"#utility.yul\":5098:5105   */\n      0x00\n        /* \"#utility.yul\":5141:5146   */\n      dup2\n        /* \"#utility.yul\":5134:5147   */\n      iszero\n        /* \"#utility.yul\":5127:5148   */\n      iszero\n        /* \"#utility.yul\":5116:5148   */\n      swap1\n      pop\n        /* \"#utility.yul\":5064:5154   */\n      swap2\n      swap1\n      pop\n      jump\t// out\n        /* \"#utility.yul\":5160:5276   */\n    tag_320:\n        /* \"#utility.yul\":5230:5251   */\n      tag_431\n        /* \"#utility.yul\":5245:5250   */\n      dup2\n        /* \"#utility.yul\":5230:5251   */\n      tag_319\n      jump\t// in\n    tag_431:\n        /* \"#utility.yul\":5223:5228   */\n      dup2\n        /* \"#utility.yul\":5220:5252   */\n      eq\n        /* \"#utility.yul\":5210:5270   */\n      tag_432\n      jumpi\n        /* \"#utility.yul\":5266:5267   */\n      0x00\n        /* \"#utility.yul\":5263:5264   */\n      dup1\n        /* \"#utility.yul\":5256:5268   */\n      revert\n        /* \"#utility.yul\":5210:5270   */\n    tag_432:\n        /* \"#utility.yul\":5160:5276   */\n      pop\n      jump\t// out\n        /* \"#utility.yul\":5282:5415   */\n    tag_321:\n        /* \"#utility.yul\":5325:5330   */\n      0x00\n        /* \"#utility.yul\":5363:5369   */\n      dup2\n        /* \"#utility.yul\":5350:5370   */\n      calldataload\n        /* \"#utility.yul\":5341:5370   */\n      swap1\n      pop\n        /* \"#utility.yul\":5379:5409   */\n      tag_434\n        /* \"#utility.yul\":5403:5408   */\n      dup2\n        /* \"#utility.yul\":5379:5409   */\n      tag_320\n      jump\t// in\n    tag_434:\n        /* \"#utility.yul\":5282:5415   */\n      swap3\n      swap2\n      pop\n      pop\n      jump\t// out\n        /* \"#utility.yul\":5421:6069   */\n    tag_41:\n        /* \"#utility.yul\":5496:5502   */\n      0x00\n        /* \"#utility.yul\":5504:5510   */\n      dup1\n        /* \"#utility.yul\":5553:5555   */\n      0x40\n        /* \"#utility.yul\":5541:5550   */\n      dup4\n        /* \"#utility.yul\":5532:5539   */\n      dup6\n        /* \"#utility.yul\":5528:5551   */\n      sub\n        /* \"#utility.yul\":5524:5556   */\n      slt\n        /* \"#utility.yul\":5521:5640   */\n      iszero\n      tag_436\n      jumpi\n        /* \"#utility.yul\":5559:5638   */\n      tag_437\n      tag_297\n      jump\t// in\n    tag_437:\n        /* \"#utility.yul\":5521:5640   */\n    tag_436:\n        /* \"#utility.yul\":5707:5708   */\n      0x00\n        /* \"#utility.yul\":5696:5705   */\n      dup4\n        /* \"#utility.yul\":5692:5709   */\n      add\n        /* \"#utility.yul\":5679:5710   */\n      calldataload\n        /* \"#utility.yul\":5737:5755   */\n      0xffffffffffffffff\n        /* \"#utility.yul\":5729:5735   */\n      dup2\n        /* \"#utility.yul\":5726:5756   */\n      gt\n        /* \"#utility.yul\":5723:5840   */\n      iszero\n      tag_438\n      jumpi\n        /* \"#utility.yul\":5759:5838   */\n      tag_439\n      tag_298\n      jump\t// in\n    tag_439:\n        /* \"#utility.yul\":5723:5840   */\n    tag_438:\n        /* \"#utility.yul\":5864:5927   */\n      tag_440\n        /* \"#utility.yul\":5919:5926   */\n      dup6\n        /* \"#utility.yul\":5910:5916   */\n      dup3\n        /* \"#utility.yul\":5899:5908   */\n      dup7\n        /* \"#utility.yul\":5895:5917   */\n      add\n        /* \"#utility.yul\":5864:5927   */\n      tag_318\n      jump\t// in\n    tag_440:\n        /* \"#utility.yul\":5854:5927   */\n      swap3\n      pop\n        /* \"#utility.yul\":5650:5937   */\n      pop\n        /* \"#utility.yul\":5976:5978   */\n      0x20\n        /* \"#utility.yul\":6002:6052   */\n      tag_441\n        /* \"#utility.yul\":6044:6051   */\n      dup6\n        /* \"#utility.yul\":6035:6041   */\n      dup3\n        /* \"#utility.yul\":6024:6033   */\n      dup7\n        /* \"#utility.yul\":6020:6042   */\n      add\n        /* \"#utility.yul\":6002:6052   */\n      tag_321\n      jump\t// in\n    tag_441:\n        /* \"#utility.yul\":5992:6052   */\n      swap2\n      pop\n        /* \"#utility.yul\":5947:6062   */\n      pop\n        /* \"#utility.yul\":5421:6069   */\n      swap3\n      pop\n      swap3\n      swap1\n      pop\n      jump\t// out\n        /* \"#utility.yul\":6075:6183   */\n    tag_322:\n        /* \"#utility.yul\":6152:6176   */\n      tag_443\n        /* \"#utility.yul\":6170:6175   */\n      dup2\n        /* \"#utility.yul\":6152:6176   */\n      tag_300\n      jump\t// in\n    tag_443:\n        /* \"#utility.yul\":6147:6150   */\n      dup3\n        /* \"#utility.yul\":6140:6177   */\n      mstore\n        /* \"#utility.yul\":6075:6183   */\n      pop\n      pop\n      jump\t// out\n        /* \"#utility.yul\":6189:6348   */\n    tag_323:\n        /* \"#utility.yul\":6263:6274   */\n      0x00\n        /* \"#utility.yul\":6297:6303   */\n      dup3\n        /* \"#utility.yul\":6292:6295   */\n      dup3\n        /* \"#utility.yul\":6285:6304   */\n      mstore\n        /* \"#utility.yul\":6337:6341   */\n      0x20\n        /* \"#utility.yul\":6332:6335   */\n      dup3\n        /* \"#utility.yul\":6328:6342   */\n      add\n        /* \"#utility.yul\":6313:6342   */\n      swap1\n      pop\n        /* \"#utility.yul\":6189:6348   */\n      swap3\n      swap2\n      pop\n      pop\n      jump\t// out\n        /* \"#utility.yul\":6354:6711   */\n    tag_324:\n        /* \"#utility.yul\":6432:6435   */\n      0x00\n        /* \"#utility.yul\":6460:6499   */\n      tag_446\n        /* \"#utility.yul\":6493:6498   */\n      dup3\n        /* \"#utility.yul\":6460:6499   */\n      tag_305\n      jump\t// in\n    tag_446:\n        /* \"#utility.yul\":6515:6576   */\n      tag_447\n        /* \"#utility.yul\":6569:6575   */\n      dup2\n        /* \"#utility.yul\":6564:6567   */\n      dup6\n        /* \"#utility.yul\":6515:6576   */\n      tag_323\n      jump\t// in\n    tag_447:\n        /* \"#utility.yul\":6508:6576   */\n      swap4\n      pop\n        /* \"#utility.yul\":6585:6650   */\n      tag_448\n        /* \"#utility.yul\":6643:6649   */\n      dup2\n        /* \"#utility.yul\":6638:6641   */\n      dup6\n        /* \"#utility.yul\":6631:6635   */\n      0x20\n        /* \"#utility.yul\":6624:6629   */\n      dup7\n        /* \"#utility.yul\":6620:6636   */\n      add\n        /* \"#utility.yul\":6585:6650   */\n      tag_307\n      jump\t// in\n    tag_448:\n        /* \"#utility.yul\":6675:6704   */\n      tag_449\n        /* \"#utility.yul\":6697:6703   */\n      dup2\n        /* \"#utility.yul\":6675:6704   */\n      tag_308\n      jump\t// in\n    tag_449:\n        /* \"#utility.yul\":6670:6673   */\n      dup5\n        /* \"#utility.yul\":6666:6705   */\n      add\n        /* \"#utility.yul\":6659:6705   */\n      swap2\n      pop\n        /* \"#utility.yul\":6436:6711   */\n      pop\n        /* \"#utility.yul\":6354:6711   */\n      swap3\n      swap2\n      pop\n      pop\n      jump\t// out\n        /* \"#utility.yul\":6717:6825   */\n    tag_325:\n        /* \"#utility.yul\":6794:6818   */\n      tag_451\n        /* \"#utility.yul\":6812:6817   */\n      dup2\n        /* \"#utility.yul\":6794:6818   */\n      tag_303\n      jump\t// in\n    tag_451:\n        /* \"#utility.yul\":6789:6792   */\n      dup3\n        /* \"#utility.yul\":6782:6819   */\n      mstore\n        /* \"#utility.yul\":6717:6825   */\n      pop\n      pop\n      jump\t// out\n        /* \"#utility.yul\":6831:6930   */\n    tag_326:\n        /* \"#utility.yul\":6902:6923   */\n      tag_453\n        /* \"#utility.yul\":6917:6922   */\n      dup2\n        /* \"#utility.yul\":6902:6923   */\n      tag_319\n      jump\t// in\n    tag_453:\n        /* \"#utility.yul\":6897:6900   */\n      dup3\n        /* \"#utility.yul\":6890:6924   */\n      mstore\n        /* \"#utility.yul\":6831:6930   */\n      pop\n      pop\n      jump\t// out\n        /* \"#utility.yul\":6994:8757   */\n    tag_327:\n        /* \"#utility.yul\":7111:7114   */\n      0x00\n        /* \"#utility.yul\":7147:7153   */\n      0x0100\n        /* \"#utility.yul\":7142:7145   */\n      dup4\n        /* \"#utility.yul\":7138:7154   */\n      add\n        /* \"#utility.yul\":7239:7243   */\n      0x00\n        /* \"#utility.yul\":7232:7237   */\n      dup4\n        /* \"#utility.yul\":7228:7244   */\n      add\n        /* \"#utility.yul\":7222:7245   */\n      mload\n        /* \"#utility.yul\":7258:7321   */\n      tag_455\n        /* \"#utility.yul\":7315:7319   */\n      0x00\n        /* \"#utility.yul\":7310:7313   */\n      dup7\n        /* \"#utility.yul\":7306:7320   */\n      add\n        /* \"#utility.yul\":7292:7304   */\n      dup3\n        /* \"#utility.yul\":7258:7321   */\n      tag_322\n      jump\t// in\n    tag_455:\n        /* \"#utility.yul\":7164:7331   */\n      pop\n        /* \"#utility.yul\":7413:7417   */\n      0x20\n        /* \"#utility.yul\":7406:7411   */\n      dup4\n        /* \"#utility.yul\":7402:7418   */\n      add\n        /* \"#utility.yul\":7396:7419   */\n      mload\n        /* \"#utility.yul\":7466:7469   */\n      dup5\n        /* \"#utility.yul\":7460:7464   */\n      dup3\n        /* \"#utility.yul\":7456:7470   */\n      sub\n        /* \"#utility.yul\":7449:7453   */\n      0x20\n        /* \"#utility.yul\":7444:7447   */\n      dup7\n        /* \"#utility.yul\":7440:7454   */\n      add\n        /* \"#utility.yul\":7433:7471   */\n      mstore\n        /* \"#utility.yul\":7492:7565   */\n      tag_456\n        /* \"#utility.yul\":7560:7564   */\n      dup3\n        /* \"#utility.yul\":7546:7558   */\n      dup3\n        /* \"#utility.yul\":7492:7565   */\n      tag_324\n      jump\t// in\n    tag_456:\n        /* \"#utility.yul\":7484:7565   */\n      swap2\n      pop\n        /* \"#utility.yul\":7341:7576   */\n      pop\n        /* \"#utility.yul\":7665:7669   */\n      0x40\n        /* \"#utility.yul\":7658:7663   */\n      dup4\n        /* \"#utility.yul\":7654:7670   */\n      add\n        /* \"#utility.yul\":7648:7671   */\n      mload\n        /* \"#utility.yul\":7718:7721   */\n      dup5\n        /* \"#utility.yul\":7712:7716   */\n      dup3\n        /* \"#utility.yul\":7708:7722   */\n      sub\n        /* \"#utility.yul\":7701:7705   */\n      0x40\n        /* \"#utility.yul\":7696:7699   */\n      dup7\n        /* \"#utility.yul\":7692:7706   */\n      add\n        /* \"#utility.yul\":7685:7723   */\n      mstore\n        /* \"#utility.yul\":7744:7817   */\n      tag_457\n        /* \"#utility.yul\":7812:7816   */\n      dup3\n        /* \"#utility.yul\":7798:7810   */\n      dup3\n        /* \"#utility.yul\":7744:7817   */\n      tag_324\n      jump\t// in\n    tag_457:\n        /* \"#utility.yul\":7736:7817   */\n      swap2\n      pop\n        /* \"#utility.yul\":7586:7828   */\n      pop\n        /* \"#utility.yul\":7921:7925   */\n      0x60\n        /* \"#utility.yul\":7914:7919   */\n      dup4\n        /* \"#utility.yul\":7910:7926   */\n      add\n        /* \"#utility.yul\":7904:7927   */\n      mload\n        /* \"#utility.yul\":7940:8003   */\n      tag_458\n        /* \"#utility.yul\":7997:8001   */\n      0x60\n        /* \"#utility.yul\":7992:7995   */\n      dup7\n        /* \"#utility.yul\":7988:8002   */\n      add\n        /* \"#utility.yul\":7974:7986   */\n      dup3\n        /* \"#utility.yul\":7940:8003   */\n      tag_325\n      jump\t// in\n    tag_458:\n        /* \"#utility.yul\":7838:8013   */\n      pop\n        /* \"#utility.yul\":8098:8102   */\n      0x80\n        /* \"#utility.yul\":8091:8096   */\n      dup4\n        /* \"#utility.yul\":8087:8103   */\n      add\n        /* \"#utility.yul\":8081:8104   */\n      mload\n        /* \"#utility.yul\":8117:8180   */\n      tag_459\n        /* \"#utility.yul\":8174:8178   */\n      0x80\n        /* \"#utility.yul\":8169:8172   */\n      dup7\n        /* \"#utility.yul\":8165:8179   */\n      add\n        /* \"#utility.yul\":8151:8163   */\n      dup3\n        /* \"#utility.yul\":8117:8180   */\n      tag_325\n      jump\t// in\n    tag_459:\n        /* \"#utility.yul\":8023:8190   */\n      pop\n        /* \"#utility.yul\":8280:8284   */\n      0xa0\n        /* \"#utility.yul\":8273:8278   */\n      dup4\n        /* \"#utility.yul\":8269:8285   */\n      add\n        /* \"#utility.yul\":8263:8286   */\n      mload\n        /* \"#utility.yul\":8299:8362   */\n      tag_460\n        /* \"#utility.yul\":8356:8360   */\n      0xa0\n        /* \"#utility.yul\":8351:8354   */\n      dup7\n        /* \"#utility.yul\":8347:8361   */\n      add\n        /* \"#utility.yul\":8333:8345   */\n      dup3\n        /* \"#utility.yul\":8299:8362   */\n      tag_325\n      jump\t// in\n    tag_460:\n        /* \"#utility.yul\":8200:8372   */\n      pop\n        /* \"#utility.yul\":8463:8467   */\n      0xc0\n        /* \"#utility.yul\":8456:8461   */\n      dup4\n        /* \"#utility.yul\":8452:8468   */\n      add\n        /* \"#utility.yul\":8446:8469   */\n      mload\n        /* \"#utility.yul\":8482:8545   */\n      tag_461\n        /* \"#utility.yul\":8539:8543   */\n      0xc0\n        /* \"#utility.yul\":8534:8537   */\n      dup7\n        /* \"#utility.yul\":8530:8544   */\n      add\n        /* \"#utility.yul\":8516:8528   */\n      dup3\n        /* \"#utility.yul\":8482:8545   */\n      tag_325\n      jump\t// in\n    tag_461:\n        /* \"#utility.yul\":8382:8555   */\n      pop\n        /* \"#utility.yul\":8644:8648   */\n      0xe0\n        /* \"#utility.yul\":8637:8642   */\n      dup4\n        /* \"#utility.yul\":8633:8649   */\n      add\n        /* \"#utility.yul\":8627:8650   */\n      mload\n        /* \"#utility.yul\":8663:8720   */\n      tag_462\n        /* \"#utility.yul\":8714:8718   */\n      0xe0\n        /* \"#utility.yul\":8709:8712   */\n      dup7\n        /* \"#utility.yul\":8705:8719   */\n      add\n        /* \"#utility.yul\":8691:8703   */\n      dup3\n        /* \"#utility.yul\":8663:8720   */\n      tag_326\n      jump\t// in\n    tag_462:\n        /* \"#utility.yul\":8565:8730   */\n      pop\n        /* \"#utility.yul\":8747:8751   */\n      dup1\n        /* \"#utility.yul\":8740:8751   */\n      swap2\n      pop\n        /* \"#utility.yul\":7116:8757   */\n      pop\n        /* \"#utility.yul\":6994:8757   */\n      swap3\n      swap2\n      pop\n      pop\n      jump\t// out\n        /* \"#utility.yul\":8763:9132   */\n    tag_51:\n        /* \"#utility.yul\":8904:8908   */\n      0x00\n        /* \"#utility.yul\":8942:8944   */\n      0x20\n        /* \"#utility.yul\":8931:8940   */\n      dup3\n        /* \"#utility.yul\":8927:8945   */\n      add\n        /* \"#utility.yul\":8919:8945   */\n      swap1\n      pop\n        /* \"#utility.yul\":8991:9000   */\n      dup2\n        /* \"#utility.yul\":8985:8989   */\n      dup2\n        /* \"#utility.yul\":8981:9001   */\n      sub\n        /* \"#utility.yul\":8977:8978   */\n      0x00\n        /* \"#utility.yul\":8966:8975   */\n      dup4\n        /* \"#utility.yul\":8962:8979   */\n      add\n        /* \"#utility.yul\":8955:9002   */\n      mstore\n        /* \"#utility.yul\":9019:9125   */\n      tag_464\n        /* \"#utility.yul\":9120:9124   */\n      dup2\n        /* \"#utility.yul\":9111:9117   */\n      dup5\n        /* \"#utility.yul\":9019:9125   */\n      tag_327\n      jump\t// in\n    tag_464:\n        /* \"#utility.yul\":9011:9125   */\n      swap1\n      pop\n        /* \"#utility.yul\":8763:9132   */\n      swap3\n      swap2\n      pop\n      pop\n      jump\t// out\n        /* \"#utility.yul\":9138:9647   */\n    tag_55:\n        /* \"#utility.yul\":9207:9213   */\n      0x00\n        /* \"#utility.yul\":9256:9258   */\n      0x20\n        /* \"#utility.yul\":9244:9253   */\n      dup3\n        /* \"#utility.yul\":9235:9242   */\n      dup5\n        /* \"#utility.yul\":9231:9254   */\n      sub\n        /* \"#utility.yul\":9227:9259   */\n      slt\n        /* \"#utility.yul\":9224:9343   */\n      iszero\n      tag_466\n      jumpi\n        /* \"#utility.yul\":9262:9341   */\n      tag_467\n      tag_297\n      jump\t// in\n    tag_467:\n        /* \"#utility.yul\":9224:9343   */\n    tag_466:\n        /* \"#utility.yul\":9410:9411   */\n      0x00\n        /* \"#utility.yul\":9399:9408   */\n      dup3\n        /* \"#utility.yul\":9395:9412   */\n      add\n        /* \"#utility.yul\":9382:9413   */\n      calldataload\n        /* \"#utility.yul\":9440:9458   */\n      0xffffffffffffffff\n        /* \"#utility.yul\":9432:9438   */\n      dup2\n        /* \"#utility.yul\":9429:9459   */\n      gt\n        /* \"#utility.yul\":9426:9543   */\n      iszero\n      tag_468\n      jumpi\n        /* \"#utility.yul\":9462:9541   */\n      tag_469\n      tag_298\n      jump\t// in\n    tag_469:\n        /* \"#utility.yul\":9426:9543   */\n    tag_468:\n        /* \"#utility.yul\":9567:9630   */\n      tag_470\n        /* \"#utility.yul\":9622:9629   */\n      dup5\n        /* \"#utility.yul\":9613:9619   */\n      dup3\n        /* \"#utility.yul\":9602:9611   */\n      dup6\n        /* \"#utility.yul\":9598:9620   */\n      add\n        /* \"#utility.yul\":9567:9630   */\n      tag_318\n      jump\t// in\n    tag_470:\n        /* \"#utility.yul\":9557:9630   */\n      swap2\n      pop\n        /* \"#utility.yul\":9353:9640   */\n      pop\n        /* \"#utility.yul\":9138:9647   */\n      swap3\n      swap2\n      pop\n      pop\n      jump\t// out\n        /* \"#utility.yul\":9653:9757   */\n    tag_328:\n        /* \"#utility.yul\":9698:9705   */\n      0x00\n        /* \"#utility.yul\":9727:9751   */\n      tag_472\n        /* \"#utility.yul\":9745:9750   */\n      dup3\n        /* \"#utility.yul\":9727:9751   */\n      tag_299\n      jump\t// in\n    tag_472:\n        /* \"#utility.yul\":9716:9751   */\n      swap1\n      pop\n        /* \"#utility.yul\":9653:9757   */\n      swap2\n      swap1\n      pop\n      jump\t// out\n        /* \"#utility.yul\":9763:9905   */\n    tag_329:\n        /* \"#utility.yul\":9866:9898   */\n      tag_474\n        /* \"#utility.yul\":9892:9897   */\n      dup2\n        /* \"#utility.yul\":9866:9898   */\n      tag_328\n      jump\t// in\n    tag_474:\n        /* \"#utility.yul\":9861:9864   */\n      dup3\n        /* \"#utility.yul\":9854:9899   */\n      mstore\n        /* \"#utility.yul\":9763:9905   */\n      pop\n      pop\n      jump\t// out\n        /* \"#utility.yul\":9911:10020   */\n    tag_330:\n        /* \"#utility.yul\":9992:10013   */\n      tag_476\n        /* \"#utility.yul\":10007:10012   */\n      dup2\n        /* \"#utility.yul\":9992:10013   */\n      tag_319\n      jump\t// in\n    tag_476:\n        /* \"#utility.yul\":9987:9990   */\n      dup3\n        /* \"#utility.yul\":9980:10014   */\n      mstore\n        /* \"#utility.yul\":9911:10020   */\n      pop\n      pop\n      jump\t// out\n        /* \"#utility.yul\":10026:11740   */\n    tag_58:\n        /* \"#utility.yul\":10487:10491   */\n      0x00\n        /* \"#utility.yul\":10525:10528   */\n      0x0180\n        /* \"#utility.yul\":10514:10523   */\n      dup3\n        /* \"#utility.yul\":10510:10529   */\n      add\n        /* \"#utility.yul\":10502:10529   */\n      swap1\n      pop\n        /* \"#utility.yul\":10575:10584   */\n      dup2\n        /* \"#utility.yul\":10569:10573   */\n      dup2\n        /* \"#utility.yul\":10565:10585   */\n      sub\n        /* \"#utility.yul\":10561:10562   */\n      0x00\n        /* \"#utility.yul\":10550:10559   */\n      dup4\n        /* \"#utility.yul\":10546:10563   */\n      add\n        /* \"#utility.yul\":10539:10586   */\n      mstore\n        /* \"#utility.yul\":10603:10681   */\n      tag_478\n        /* \"#utility.yul\":10676:10680   */\n      dup2\n        /* \"#utility.yul\":10667:10673   */\n      dup16\n        /* \"#utility.yul\":10603:10681   */\n      tag_309\n      jump\t// in\n    tag_478:\n        /* \"#utility.yul\":10595:10681   */\n      swap1\n      pop\n        /* \"#utility.yul\":10728:10737   */\n      dup2\n        /* \"#utility.yul\":10722:10726   */\n      dup2\n        /* \"#utility.yul\":10718:10738   */\n      sub\n        /* \"#utility.yul\":10713:10715   */\n      0x20\n        /* \"#utility.yul\":10702:10711   */\n      dup4\n        /* \"#utility.yul\":10698:10716   */\n      add\n        /* \"#utility.yul\":10691:10739   */\n      mstore\n        /* \"#utility.yul\":10756:10834   */\n      tag_479\n        /* \"#utility.yul\":10829:10833   */\n      dup2\n        /* \"#utility.yul\":10820:10826   */\n      dup15\n        /* \"#utility.yul\":10756:10834   */\n      tag_309\n      jump\t// in\n    tag_479:\n        /* \"#utility.yul\":10748:10834   */\n      swap1\n      pop\n        /* \"#utility.yul\":10844:10916   */\n      tag_480\n        /* \"#utility.yul\":10912:10914   */\n      0x40\n        /* \"#utility.yul\":10901:10910   */\n      dup4\n        /* \"#utility.yul\":10897:10915   */\n      add\n        /* \"#utility.yul\":10888:10894   */\n      dup14\n        /* \"#utility.yul\":10844:10916   */\n      tag_304\n      jump\t// in\n    tag_480:\n        /* \"#utility.yul\":10926:11014   */\n      tag_481\n        /* \"#utility.yul\":11010:11012   */\n      0x60\n        /* \"#utility.yul\":10999:11008   */\n      dup4\n        /* \"#utility.yul\":10995:11013   */\n      add\n        /* \"#utility.yul\":10986:10992   */\n      dup13\n        /* \"#utility.yul\":10926:11014   */\n      tag_329\n      jump\t// in\n    tag_481:\n        /* \"#utility.yul\":11024:11097   */\n      tag_482\n        /* \"#utility.yul\":11092:11095   */\n      0x80\n        /* \"#utility.yul\":11081:11090   */\n      dup4\n        /* \"#utility.yul\":11077:11096   */\n      add\n        /* \"#utility.yul\":11068:11074   */\n      dup12\n        /* \"#utility.yul\":11024:11097   */\n      tag_304\n      jump\t// in\n    tag_482:\n        /* \"#utility.yul\":11107:11180   */\n      tag_483\n        /* \"#utility.yul\":11175:11178   */\n      0xa0\n        /* \"#utility.yul\":11164:11173   */\n      dup4\n        /* \"#utility.yul\":11160:11179   */\n      add\n        /* \"#utility.yul\":11151:11157   */\n      dup11\n        /* \"#utility.yul\":11107:11180   */\n      tag_304\n      jump\t// in\n    tag_483:\n        /* \"#utility.yul\":11190:11263   */\n      tag_484\n        /* \"#utility.yul\":11258:11261   */\n      0xc0\n        /* \"#utility.yul\":11247:11256   */\n      dup4\n        /* \"#utility.yul\":11243:11262   */\n      add\n        /* \"#utility.yul\":11234:11240   */\n      dup10\n        /* \"#utility.yul\":11190:11263   */\n      tag_304\n      jump\t// in\n    tag_484:\n        /* \"#utility.yul\":11273:11346   */\n      tag_485\n        /* \"#utility.yul\":11341:11344   */\n      0xe0\n        /* \"#utility.yul\":11330:11339   */\n      dup4\n        /* \"#utility.yul\":11326:11345   */\n      add\n        /* \"#utility.yul\":11317:11323   */\n      dup9\n        /* \"#utility.yul\":11273:11346   */\n      tag_304\n      jump\t// in\n    tag_485:\n        /* \"#utility.yul\":11356:11423   */\n      tag_486\n        /* \"#utility.yul\":11418:11421   */\n      0x0100\n        /* \"#utility.yul\":11407:11416   */\n      dup4\n        /* \"#utility.yul\":11403:11422   */\n      add\n        /* \"#utility.yul\":11394:11400   */\n      dup8\n        /* \"#utility.yul\":11356:11423   */\n      tag_330\n      jump\t// in\n    tag_486:\n        /* \"#utility.yul\":11433:11500   */\n      tag_487\n        /* \"#utility.yul\":11495:11498   */\n      0x0120\n        /* \"#utility.yul\":11484:11493   */\n      dup4\n        /* \"#utility.yul\":11480:11499   */\n      add\n        /* \"#utility.yul\":11471:11477   */\n      dup7\n        /* \"#utility.yul\":11433:11500   */\n      tag_330\n      jump\t// in\n    tag_487:\n        /* \"#utility.yul\":11510:11578   */\n      tag_488\n        /* \"#utility.yul\":11573:11576   */\n      0x0140\n        /* \"#utility.yul\":11562:11571   */\n      dup4\n        /* \"#utility.yul\":11558:11577   */\n      add\n        /* \"#utility.yul\":11548:11555   */\n      dup6\n        /* \"#utility.yul\":11510:11578   */\n      tag_330\n      jump\t// in\n    tag_488:\n        /* \"#utility.yul\":11626:11635   */\n      dup2\n        /* \"#utility.yul\":11620:11624   */\n      dup2\n        /* \"#utility.yul\":11616:11636   */\n      sub\n        /* \"#utility.yul\":11610:11613   */\n      0x0160\n        /* \"#utility.yul\":11599:11608   */\n      dup4\n        /* \"#utility.yul\":11595:11614   */\n      add\n        /* \"#utility.yul\":11588:11637   */\n      mstore\n        /* \"#utility.yul\":11654:11733   */\n      tag_489\n        /* \"#utility.yul\":11728:11732   */\n      dup2\n        /* \"#utility.yul\":11718:11725   */\n      dup5\n        /* \"#utility.yul\":11654:11733   */\n      tag_309\n      jump\t// in\n    tag_489:\n        /* \"#utility.yul\":11646:11733   */\n      swap1\n      pop\n        /* \"#utility.yul\":10026:11740   */\n      swap14\n      swap13\n      pop\n      pop\n      pop\n      pop\n      pop\n      pop\n      pop\n      pop\n      pop\n      pop\n      pop\n      pop\n      pop\n      jump\t// out\n        /* \"#utility.yul\":11746:12580   */\n    tag_66:\n        /* \"#utility.yul\":11834:11840   */\n      0x00\n        /* \"#utility.yul\":11842:11848   */\n      dup1\n        /* \"#utility.yul\":11891:11893   */\n      0x40\n        /* \"#utility.yul\":11879:11888   */\n      dup4\n        /* \"#utility.yul\":11870:11877   */\n      dup6\n        /* \"#utility.yul\":11866:11889   */\n      sub\n        /* \"#utility.yul\":11862:11894   */\n      slt\n        /* \"#utility.yul\":11859:11978   */\n      iszero\n      tag_491\n      jumpi\n        /* \"#utility.yul\":11897:11976   */\n      tag_492\n      tag_297\n      jump\t// in\n    tag_492:\n        /* \"#utility.yul\":11859:11978   */\n    tag_491:\n        /* \"#utility.yul\":12045:12046   */\n      0x00\n        /* \"#utility.yul\":12034:12043   */\n      dup4\n        /* \"#utility.yul\":12030:12047   */\n      add\n        /* \"#utility.yul\":12017:12048   */\n      calldataload\n        /* \"#utility.yul\":12075:12093   */\n      0xffffffffffffffff\n        /* \"#utility.yul\":12067:12073   */\n      dup2\n        /* \"#utility.yul\":12064:12094   */\n      gt\n        /* \"#utility.yul\":12061:12178   */\n      iszero\n      tag_493\n      jumpi\n        /* \"#utility.yul\":12097:12176   */\n      tag_494\n      tag_298\n      jump\t// in\n    tag_494:\n        /* \"#utility.yul\":12061:12178   */\n    tag_493:\n        /* \"#utility.yul\":12202:12265   */\n      tag_495\n        /* \"#utility.yul\":12257:12264   */\n      dup6\n        /* \"#utility.yul\":12248:12254   */\n      dup3\n        /* \"#utility.yul\":12237:12246   */\n      dup7\n        /* \"#utility.yul\":12233:12255   */\n      add\n        /* \"#utility.yul\":12202:12265   */\n      tag_318\n      jump\t// in\n    tag_495:\n        /* \"#utility.yul\":12192:12265   */\n      swap3\n      pop\n        /* \"#utility.yul\":11988:12275   */\n      pop\n        /* \"#utility.yul\":12342:12344   */\n      0x20\n        /* \"#utility.yul\":12331:12340   */\n      dup4\n        /* \"#utility.yul\":12327:12345   */\n      add\n        /* \"#utility.yul\":12314:12346   */\n      calldataload\n        /* \"#utility.yul\":12373:12391   */\n      0xffffffffffffffff\n        /* \"#utility.yul\":12365:12371   */\n      dup2\n        /* \"#utility.yul\":12362:12392   */\n      gt\n        /* \"#utility.yul\":12359:12476   */\n      iszero\n      tag_496\n      jumpi\n        /* \"#utility.yul\":12395:12474   */\n      tag_497\n      tag_298\n      jump\t// in\n    tag_497:\n        /* \"#utility.yul\":12359:12476   */\n    tag_496:\n        /* \"#utility.yul\":12500:12563   */\n      tag_498\n        /* \"#utility.yul\":12555:12562   */\n      dup6\n        /* \"#utility.yul\":12546:12552   */\n      dup3\n        /* \"#utility.yul\":12535:12544   */\n      dup7\n        /* \"#utility.yul\":12531:12553   */\n      add\n        /* \"#utility.yul\":12500:12563   */\n      tag_318\n      jump\t// in\n    tag_498:\n        /* \"#utility.yul\":12490:12563   */\n      swap2\n      pop\n        /* \"#utility.yul\":12285:12573   */\n      pop\n        /* \"#utility.yul\":11746:12580   */\n      swap3\n      pop\n      swap3\n      swap1\n      pop\n      jump\t// out\n        /* \"#utility.yul\":12586:12729   */\n    tag_331:\n        /* \"#utility.yul\":12682:12688   */\n      0x00\n        /* \"#utility.yul\":12716:12721   */\n      dup2\n        /* \"#utility.yul\":12710:12722   */\n      mload\n        /* \"#utility.yul\":12700:12722   */\n      swap1\n      pop\n        /* \"#utility.yul\":12586:12729   */\n      swap2\n      swap1\n      pop\n      jump\t// out\n        /* \"#utility.yul\":12735:12948   */\n    tag_332:\n        /* \"#utility.yul\":12863:12874   */\n      0x00\n        /* \"#utility.yul\":12897:12903   */\n      dup3\n        /* \"#utility.yul\":12892:12895   */\n      dup3\n        /* \"#utility.yul\":12885:12904   */\n      mstore\n        /* \"#utility.yul\":12937:12941   */\n      0x20\n        /* \"#utility.yul\":12932:12935   */\n      dup3\n        /* \"#utility.yul\":12928:12942   */\n      add\n        /* \"#utility.yul\":12913:12942   */\n      swap1\n      pop\n        /* \"#utility.yul\":12735:12948   */\n      swap3\n      swap2\n      pop\n      pop\n      jump\t// out\n        /* \"#utility.yul\":12954:13115   */\n    tag_333:\n        /* \"#utility.yul\":13050:13054   */\n      0x00\n        /* \"#utility.yul\":13073:13076   */\n      dup2\n        /* \"#utility.yul\":13065:13076   */\n      swap1\n      pop\n        /* \"#utility.yul\":13103:13107   */\n      0x20\n        /* \"#utility.yul\":13098:13101   */\n      dup3\n        /* \"#utility.yul\":13094:13108   */\n      add\n        /* \"#utility.yul\":13086:13108   */\n      swap1\n      pop\n        /* \"#utility.yul\":12954:13115   */\n      swap2\n      swap1\n      pop\n      jump\t// out\n        /* \"#utility.yul\":13189:13807   */\n    tag_334:\n        /* \"#utility.yul\":13306:13309   */\n      0x00\n        /* \"#utility.yul\":13342:13346   */\n      0x40\n        /* \"#utility.yul\":13337:13340   */\n      dup4\n        /* \"#utility.yul\":13333:13347   */\n      add\n        /* \"#utility.yul\":13436:13440   */\n      0x00\n        /* \"#utility.yul\":13429:13434   */\n      dup4\n        /* \"#utility.yul\":13425:13441   */\n      add\n        /* \"#utility.yul\":13419:13442   */\n      mload\n        /* \"#utility.yul\":13455:13518   */\n      tag_503\n        /* \"#utility.yul\":13512:13516   */\n      0x00\n        /* \"#utility.yul\":13507:13510   */\n      dup7\n        /* \"#utility.yul\":13503:13517   */\n      add\n        /* \"#utility.yul\":13489:13501   */\n      dup3\n        /* \"#utility.yul\":13455:13518   */\n      tag_322\n      jump\t// in\n    tag_503:\n        /* \"#utility.yul\":13357:13528   */\n      pop\n        /* \"#utility.yul\":13617:13621   */\n      0x20\n        /* \"#utility.yul\":13610:13615   */\n      dup4\n        /* \"#utility.yul\":13606:13622   */\n      add\n        /* \"#utility.yul\":13600:13623   */\n      mload\n        /* \"#utility.yul\":13670:13673   */\n      dup5\n        /* \"#utility.yul\":13664:13668   */\n      dup3\n        /* \"#utility.yul\":13660:13674   */\n      sub\n        /* \"#utility.yul\":13653:13657   */\n      0x20\n        /* \"#utility.yul\":13648:13651   */\n      dup7\n        /* \"#utility.yul\":13644:13658   */\n      add\n        /* \"#utility.yul\":13637:13675   */\n      mstore\n        /* \"#utility.yul\":13696:13769   */\n      tag_504\n        /* \"#utility.yul\":13764:13768   */\n      dup3\n        /* \"#utility.yul\":13750:13762   */\n      dup3\n        /* \"#utility.yul\":13696:13769   */\n      tag_324\n      jump\t// in\n    tag_504:\n        /* \"#utility.yul\":13688:13769   */\n      swap2\n      pop\n        /* \"#utility.yul\":13538:13780   */\n      pop\n        /* \"#utility.yul\":13797:13801   */\n      dup1\n        /* \"#utility.yul\":13790:13801   */\n      swap2\n      pop\n        /* \"#utility.yul\":13311:13807   */\n      pop\n        /* \"#utility.yul\":13189:13807   */\n      swap3\n      swap2\n      pop\n      pop\n      jump\t// out\n        /* \"#utility.yul\":13813:14085   */\n    tag_335:\n        /* \"#utility.yul\":13940:13950   */\n      0x00\n        /* \"#utility.yul\":13975:14079   */\n      tag_506\n        /* \"#utility.yul\":14075:14078   */\n      dup4\n        /* \"#utility.yul\":14067:14073   */\n      dup4\n        /* \"#utility.yul\":13975:14079   */\n      tag_334\n      jump\t// in\n    tag_506:\n        /* \"#utility.yul\":13961:14079   */\n      swap1\n      pop\n        /* \"#utility.yul\":13813:14085   */\n      swap3\n      swap2\n      pop\n      pop\n      jump\t// out\n        /* \"#utility.yul\":14091:14233   */\n    tag_336:\n        /* \"#utility.yul\":14190:14194   */\n      0x00\n        /* \"#utility.yul\":14222:14226   */\n      0x20\n        /* \"#utility.yul\":14217:14220   */\n      dup3\n        /* \"#utility.yul\":14213:14227   */\n      add\n        /* \"#utility.yul\":14205:14227   */\n      swap1\n      pop\n        /* \"#utility.yul\":14091:14233   */\n      swap2\n      swap1\n      pop\n      jump\t// out\n        /* \"#utility.yul\":14311:15454   */\n    tag_337:\n        /* \"#utility.yul\":14488:14491   */\n      0x00\n        /* \"#utility.yul\":14517:14600   */\n      tag_509\n        /* \"#utility.yul\":14594:14599   */\n      dup3\n        /* \"#utility.yul\":14517:14600   */\n      tag_331\n      jump\t// in\n    tag_509:\n        /* \"#utility.yul\":14616:14731   */\n      tag_510\n        /* \"#utility.yul\":14724:14730   */\n      dup2\n        /* \"#utility.yul\":14719:14722   */\n      dup6\n        /* \"#utility.yul\":14616:14731   */\n      tag_332\n      jump\t// in\n    tag_510:\n        /* \"#utility.yul\":14609:14731   */\n      swap4\n      pop\n        /* \"#utility.yul\":14757:14760   */\n      dup4\n        /* \"#utility.yul\":14802:14806   */\n      0x20\n        /* \"#utility.yul\":14794:14800   */\n      dup3\n        /* \"#utility.yul\":14790:14807   */\n      mul\n        /* \"#utility.yul\":14785:14788   */\n      dup6\n        /* \"#utility.yul\":14781:14808   */\n      add\n        /* \"#utility.yul\":14832:14917   */\n      tag_511\n        /* \"#utility.yul\":14911:14916   */\n      dup6\n        /* \"#utility.yul\":14832:14917   */\n      tag_333\n      jump\t// in\n    tag_511:\n        /* \"#utility.yul\":14940:14947   */\n      dup1\n        /* \"#utility.yul\":14971:14972   */\n      0x00\n        /* \"#utility.yul\":14956:15409   */\n    tag_512:\n        /* \"#utility.yul\":14981:14987   */\n      dup6\n        /* \"#utility.yul\":14978:14979   */\n      dup2\n        /* \"#utility.yul\":14975:14988   */\n      lt\n        /* \"#utility.yul\":14956:15409   */\n      iszero\n      tag_514\n      jumpi\n        /* \"#utility.yul\":15052:15061   */\n      dup5\n        /* \"#utility.yul\":15046:15050   */\n      dup5\n        /* \"#utility.yul\":15042:15062   */\n      sub\n        /* \"#utility.yul\":15037:15040   */\n      dup10\n        /* \"#utility.yul\":15030:15063   */\n      mstore\n        /* \"#utility.yul\":15103:15109   */\n      dup2\n        /* \"#utility.yul\":15097:15110   */\n      mload\n        /* \"#utility.yul\":15131:15253   */\n      tag_515\n        /* \"#utility.yul\":15248:15252   */\n      dup6\n        /* \"#utility.yul\":15233:15246   */\n      dup3\n        /* \"#utility.yul\":15131:15253   */\n      tag_335\n      jump\t// in\n    tag_515:\n        /* \"#utility.yul\":15123:15253   */\n      swap5\n      pop\n        /* \"#utility.yul\":15276:15365   */\n      tag_516\n        /* \"#utility.yul\":15358:15364   */\n      dup4\n        /* \"#utility.yul\":15276:15365   */\n      tag_336\n      jump\t// in\n    tag_516:\n        /* \"#utility.yul\":15266:15365   */\n      swap3\n      pop\n        /* \"#utility.yul\":15394:15398   */\n      0x20\n        /* \"#utility.yul\":15389:15392   */\n      dup11\n        /* \"#utility.yul\":15385:15399   */\n      add\n        /* \"#utility.yul\":15378:15399   */\n      swap10\n      pop\n        /* \"#utility.yul\":15016:15409   */\n      pop\n        /* \"#utility.yul\":15003:15004   */\n      0x01\n        /* \"#utility.yul\":15000:15001   */\n      dup2\n        /* \"#utility.yul\":14996:15005   */\n      add\n        /* \"#utility.yul\":14991:15005   */\n      swap1\n      pop\n        /* \"#utility.yul\":14956:15409   */\n      jump(tag_512)\n    tag_514:\n        /* \"#utility.yul\":14960:14974   */\n      pop\n        /* \"#utility.yul\":15425:15429   */\n      dup3\n        /* \"#utility.yul\":15418:15429   */\n      swap8\n      pop\n        /* \"#utility.yul\":15445:15448   */\n      dup8\n        /* \"#utility.yul\":15438:15448   */\n      swap6\n      pop\n        /* \"#utility.yul\":14493:15454   */\n      pop\n      pop\n      pop\n      pop\n      pop\n        /* \"#utility.yul\":14311:15454   */\n      swap3\n      swap2\n      pop\n      pop\n      jump\t// out\n        /* \"#utility.yul\":15460:15949   */\n    tag_73:\n        /* \"#utility.yul\":15661:15665   */\n      0x00\n        /* \"#utility.yul\":15699:15701   */\n      0x20\n        /* \"#utility.yul\":15688:15697   */\n      dup3\n        /* \"#utility.yul\":15684:15702   */\n      add\n        /* \"#utility.yul\":15676:15702   */\n      swap1\n      pop\n        /* \"#utility.yul\":15748:15757   */\n      dup2\n        /* \"#utility.yul\":15742:15746   */\n      dup2\n        /* \"#utility.yul\":15738:15758   */\n      sub\n        /* \"#utility.yul\":15734:15735   */\n      0x00\n        /* \"#utility.yul\":15723:15732   */\n      dup4\n        /* \"#utility.yul\":15719:15736   */\n      add\n        /* \"#utility.yul\":15712:15759   */\n      mstore\n        /* \"#utility.yul\":15776:15942   */\n      tag_518\n        /* \"#utility.yul\":15937:15941   */\n      dup2\n        /* \"#utility.yul\":15928:15934   */\n      dup5\n        /* \"#utility.yul\":15776:15942   */\n      tag_337\n      jump\t// in\n    tag_518:\n        /* \"#utility.yul\":15768:15942   */\n      swap1\n      pop\n        /* \"#utility.yul\":15460:15949   */\n      swap3\n      swap2\n      pop\n      pop\n      jump\t// out\n        /* \"#utility.yul\":15955:16100   */\n    tag_338:\n        /* \"#utility.yul\":16053:16059   */\n      0x00\n        /* \"#utility.yul\":16087:16092   */\n      dup2\n        /* \"#utility.yul\":16081:16093   */\n      mload\n        /* \"#utility.yul\":16071:16093   */\n      swap1\n      pop\n        /* \"#utility.yul\":15955:16100   */\n      swap2\n      swap1\n      pop\n      jump\t// out\n        /* \"#utility.yul\":16106:16321   */\n    tag_339:\n        /* \"#utility.yul\":16236:16247   */\n      0x00\n        /* \"#utility.yul\":16270:16276   */\n      dup3\n        /* \"#utility.yul\":16265:16268   */\n      dup3\n        /* \"#utility.yul\":16258:16277   */\n      mstore\n        /* \"#utility.yul\":16310:16314   */\n      0x20\n        /* \"#utility.yul\":16305:16308   */\n      dup3\n        /* \"#utility.yul\":16301:16315   */\n      add\n        /* \"#utility.yul\":16286:16315   */\n      swap1\n      pop\n        /* \"#utility.yul\":16106:16321   */\n      swap3\n      swap2\n      pop\n      pop\n      jump\t// out\n        /* \"#utility.yul\":16327:16490   */\n    tag_340:\n        /* \"#utility.yul\":16425:16429   */\n      0x00\n        /* \"#utility.yul\":16448:16451   */\n      dup2\n        /* \"#utility.yul\":16440:16451   */\n      swap1\n      pop\n        /* \"#utility.yul\":16478:16482   */\n      0x20\n        /* \"#utility.yul\":16473:16476   */\n      dup3\n        /* \"#utility.yul\":16469:16483   */\n      add\n        /* \"#utility.yul\":16461:16483   */\n      swap1\n      pop\n        /* \"#utility.yul\":16327:16490   */\n      swap2\n      swap1\n      pop\n      jump\t// out\n        /* \"#utility.yul\":16568:17430   */\n    tag_341:\n        /* \"#utility.yul\":16689:16692   */\n      0x00\n        /* \"#utility.yul\":16725:16729   */\n      0x60\n        /* \"#utility.yul\":16720:16723   */\n      dup4\n        /* \"#utility.yul\":16716:16730   */\n      add\n        /* \"#utility.yul\":16812:16816   */\n      0x00\n        /* \"#utility.yul\":16805:16810   */\n      dup4\n        /* \"#utility.yul\":16801:16817   */\n      add\n        /* \"#utility.yul\":16795:16818   */\n      mload\n        /* \"#utility.yul\":16865:16868   */\n      dup5\n        /* \"#utility.yul\":16859:16863   */\n      dup3\n        /* \"#utility.yul\":16855:16869   */\n      sub\n        /* \"#utility.yul\":16848:16852   */\n      0x00\n        /* \"#utility.yul\":16843:16846   */\n      dup7\n        /* \"#utility.yul\":16839:16853   */\n      add\n        /* \"#utility.yul\":16832:16870   */\n      mstore\n        /* \"#utility.yul\":16891:16964   */\n      tag_523\n        /* \"#utility.yul\":16959:16963   */\n      dup3\n        /* \"#utility.yul\":16945:16957   */\n      dup3\n        /* \"#utility.yul\":16891:16964   */\n      tag_324\n      jump\t// in\n    tag_523:\n        /* \"#utility.yul\":16883:16964   */\n      swap2\n      pop\n        /* \"#utility.yul\":16740:16975   */\n      pop\n        /* \"#utility.yul\":17064:17068   */\n      0x20\n        /* \"#utility.yul\":17057:17062   */\n      dup4\n        /* \"#utility.yul\":17053:17069   */\n      add\n        /* \"#utility.yul\":17047:17070   */\n      mload\n        /* \"#utility.yul\":17117:17120   */\n      dup5\n        /* \"#utility.yul\":17111:17115   */\n      dup3\n        /* \"#utility.yul\":17107:17121   */\n      sub\n        /* \"#utility.yul\":17100:17104   */\n      0x20\n        /* \"#utility.yul\":17095:17098   */\n      dup7\n        /* \"#utility.yul\":17091:17105   */\n      add\n        /* \"#utility.yul\":17084:17122   */\n      mstore\n        /* \"#utility.yul\":17143:17216   */\n      tag_524\n        /* \"#utility.yul\":17211:17215   */\n      dup3\n        /* \"#utility.yul\":17197:17209   */\n      dup3\n        /* \"#utility.yul\":17143:17216   */\n      tag_324\n      jump\t// in\n    tag_524:\n        /* \"#utility.yul\":17135:17216   */\n      swap2\n      pop\n        /* \"#utility.yul\":16985:17227   */\n      pop\n        /* \"#utility.yul\":17311:17315   */\n      0x40\n        /* \"#utility.yul\":17304:17309   */\n      dup4\n        /* \"#utility.yul\":17300:17316   */\n      add\n        /* \"#utility.yul\":17294:17317   */\n      mload\n        /* \"#utility.yul\":17330:17393   */\n      tag_525\n        /* \"#utility.yul\":17387:17391   */\n      0x40\n        /* \"#utility.yul\":17382:17385   */\n      dup7\n        /* \"#utility.yul\":17378:17392   */\n      add\n        /* \"#utility.yul\":17364:17376   */\n      dup3\n        /* \"#utility.yul\":17330:17393   */\n      tag_325\n      jump\t// in\n    tag_525:\n        /* \"#utility.yul\":17237:17403   */\n      pop\n        /* \"#utility.yul\":17420:17424   */\n      dup1\n        /* \"#utility.yul\":17413:17424   */\n      swap2\n      pop\n        /* \"#utility.yul\":16694:17430   */\n      pop\n        /* \"#utility.yul\":16568:17430   */\n      swap3\n      swap2\n      pop\n      pop\n      jump\t// out\n        /* \"#utility.yul\":17436:17716   */\n    tag_342:\n        /* \"#utility.yul\":17567:17577   */\n      0x00\n        /* \"#utility.yul\":17602:17710   */\n      tag_527\n        /* \"#utility.yul\":17706:17709   */\n      dup4\n        /* \"#utility.yul\":17698:17704   */\n      dup4\n        /* \"#utility.yul\":17602:17710   */\n      tag_341\n      jump\t// in\n    tag_527:\n        /* \"#utility.yul\":17588:17710   */\n      swap1\n      pop\n        /* \"#utility.yul\":17436:17716   */\n      swap3\n      swap2\n      pop\n      pop\n      jump\t// out\n        /* \"#utility.yul\":17722:17866   */\n    tag_343:\n        /* \"#utility.yul\":17823:17827   */\n      0x00\n        /* \"#utility.yul\":17855:17859   */\n      0x20\n        /* \"#utility.yul\":17850:17853   */\n      dup3\n        /* \"#utility.yul\":17846:17860   */\n      add\n        /* \"#utility.yul\":17838:17860   */\n      swap1\n      pop\n        /* \"#utility.yul\":17722:17866   */\n      swap2\n      swap1\n      pop\n      jump\t// out\n        /* \"#utility.yul\":17948:19107   */\n    tag_344:\n        /* \"#utility.yul\":18129:18132   */\n      0x00\n        /* \"#utility.yul\":18158:18243   */\n      tag_530\n        /* \"#utility.yul\":18237:18242   */\n      dup3\n        /* \"#utility.yul\":18158:18243   */\n      tag_338\n      jump\t// in\n    tag_530:\n        /* \"#utility.yul\":18259:18376   */\n      tag_531\n        /* \"#utility.yul\":18369:18375   */\n      dup2\n        /* \"#utility.yul\":18364:18367   */\n      dup6\n        /* \"#utility.yul\":18259:18376   */\n      tag_339\n      jump\t// in\n    tag_531:\n        /* \"#utility.yul\":18252:18376   */\n      swap4\n      pop\n        /* \"#utility.yul\":18402:18405   */\n      dup4\n        /* \"#utility.yul\":18447:18451   */\n      0x20\n        /* \"#utility.yul\":18439:18445   */\n      dup3\n        /* \"#utility.yul\":18435:18452   */\n      mul\n        /* \"#utility.yul\":18430:18433   */\n      dup6\n        /* \"#utility.yul\":18426:18453   */\n      add\n        /* \"#utility.yul\":18477:18564   */\n      tag_532\n        /* \"#utility.yul\":18558:18563   */\n      dup6\n        /* \"#utility.yul\":18477:18564   */\n      tag_340\n      jump\t// in\n    tag_532:\n        /* \"#utility.yul\":18587:18594   */\n      dup1\n        /* \"#utility.yul\":18618:18619   */\n      0x00\n        /* \"#utility.yul\":18603:19062   */\n    tag_533:\n        /* \"#utility.yul\":18628:18634   */\n      dup6\n        /* \"#utility.yul\":18625:18626   */\n      dup2\n        /* \"#utility.yul\":18622:18635   */\n      lt\n        /* \"#utility.yul\":18603:19062   */\n      iszero\n      tag_535\n      jumpi\n        /* \"#utility.yul\":18699:18708   */\n      dup5\n        /* \"#utility.yul\":18693:18697   */\n      dup5\n        /* \"#utility.yul\":18689:18709   */\n      sub\n        /* \"#utility.yul\":18684:18687   */\n      dup10\n        /* \"#utility.yul\":18677:18710   */\n      mstore\n        /* \"#utility.yul\":18750:18756   */\n      dup2\n        /* \"#utility.yul\":18744:18757   */\n      mload\n        /* \"#utility.yul\":18778:18904   */\n      tag_536\n        /* \"#utility.yul\":18899:18903   */\n      dup6\n        /* \"#utility.yul\":18884:18897   */\n      dup3\n        /* \"#utility.yul\":18778:18904   */\n      tag_342\n      jump\t// in\n    tag_536:\n        /* \"#utility.yul\":18770:18904   */\n      swap5\n      pop\n        /* \"#utility.yul\":18927:19018   */\n      tag_537\n        /* \"#utility.yul\":19011:19017   */\n      dup4\n        /* \"#utility.yul\":18927:19018   */\n      tag_343\n      jump\t// in\n    tag_537:\n        /* \"#utility.yul\":18917:19018   */\n      swap3\n      pop\n        /* \"#utility.yul\":19047:19051   */\n      0x20\n        /* \"#utility.yul\":19042:19045   */\n      dup11\n        /* \"#utility.yul\":19038:19052   */\n      add\n        /* \"#utility.yul\":19031:19052   */\n      swap10\n      pop\n        /* \"#utility.yul\":18663:19062   */\n      pop\n        /* \"#utility.yul\":18650:18651   */\n      0x01\n        /* \"#utility.yul\":18647:18648   */\n      dup2\n        /* \"#utility.yul\":18643:18652   */\n      add\n        /* \"#utility.yul\":18638:18652   */\n      swap1\n      pop\n        /* \"#utility.yul\":18603:19062   */\n      jump(tag_533)\n    tag_535:\n        /* \"#utility.yul\":18607:18621   */\n      pop\n        /* \"#utility.yul\":19078:19082   */\n      dup3\n        /* \"#utility.yul\":19071:19082   */\n      swap8\n      pop\n        /* \"#utility.yul\":19098:19101   */\n      dup8\n        /* \"#utility.yul\":19091:19101   */\n      swap6\n      pop\n        /* \"#utility.yul\":18134:19107   */\n      pop\n      pop\n      pop\n      pop\n      pop\n        /* \"#utility.yul\":17948:19107   */\n      swap3\n      swap2\n      pop\n      pop\n      jump\t// out\n        /* \"#utility.yul\":19113:19610   */\n    tag_78:\n        /* \"#utility.yul\":19318:19322   */\n      0x00\n        /* \"#utility.yul\":19356:19358   */\n      0x20\n        /* \"#utility.yul\":19345:19354   */\n      dup3\n        /* \"#utility.yul\":19341:19359   */\n      add\n        /* \"#utility.yul\":19333:19359   */\n      swap1\n      pop\n        /* \"#utility.yul\":19405:19414   */\n      dup2\n        /* \"#utility.yul\":19399:19403   */\n      dup2\n        /* \"#utility.yul\":19395:19415   */\n      sub\n        /* \"#utility.yul\":19391:19392   */\n      0x00\n        /* \"#utility.yul\":19380:19389   */\n      dup4\n        /* \"#utility.yul\":19376:19393   */\n      add\n        /* \"#utility.yul\":19369:19416   */\n      mstore\n        /* \"#utility.yul\":19433:19603   */\n      tag_539\n        /* \"#utility.yul\":19598:19602   */\n      dup2\n        /* \"#utility.yul\":19589:19595   */\n      dup5\n        /* \"#utility.yul\":19433:19603   */\n      tag_344\n      jump\t// in\n    tag_539:\n        /* \"#utility.yul\":19425:19603   */\n      swap1\n      pop\n        /* \"#utility.yul\":19113:19610   */\n      swap3\n      swap2\n      pop\n      pop\n      jump\t// out\n        /* \"#utility.yul\":19616:19738   */\n    tag_345:\n        /* \"#utility.yul\":19689:19713   */\n      tag_541\n        /* \"#utility.yul\":19707:19712   */\n      dup2\n        /* \"#utility.yul\":19689:19713   */\n      tag_303\n      jump\t// in\n    tag_541:\n        /* \"#utility.yul\":19682:19687   */\n      dup2\n        /* \"#utility.yul\":19679:19714   */\n      eq\n        /* \"#utility.yul\":19669:19732   */\n      tag_542\n      jumpi\n        /* \"#utility.yul\":19728:19729   */\n      0x00\n        /* \"#utility.yul\":19725:19726   */\n      dup1\n        /* \"#utility.yul\":19718:19730   */\n      revert\n        /* \"#utility.yul\":19669:19732   */\n    tag_542:\n        /* \"#utility.yul\":19616:19738   */\n      pop\n      jump\t// out\n        /* \"#utility.yul\":19744:19883   */\n    tag_346:\n        /* \"#utility.yul\":19790:19795   */\n      0x00\n        /* \"#utility.yul\":19828:19834   */\n      dup2\n        /* \"#utility.yul\":19815:19835   */\n      calldataload\n        /* \"#utility.yul\":19806:19835   */\n      swap1\n      pop\n        /* \"#utility.yul\":19844:19877   */\n      tag_544\n        /* \"#utility.yul\":19871:19876   */\n      dup2\n        /* \"#utility.yul\":19844:19877   */\n      tag_345\n      jump\t// in\n    tag_544:\n        /* \"#utility.yul\":19744:19883   */\n      swap3\n      swap2\n      pop\n      pop\n      jump\t// out\n        /* \"#utility.yul\":19889:20027   */\n    tag_347:\n        /* \"#utility.yul\":19970:20002   */\n      tag_546\n        /* \"#utility.yul\":19996:20001   */\n      dup2\n        /* \"#utility.yul\":19970:20002   */\n      tag_328\n      jump\t// in\n    tag_546:\n        /* \"#utility.yul\":19963:19968   */\n      dup2\n        /* \"#utility.yul\":19960:20003   */\n      eq\n        /* \"#utility.yul\":19950:20021   */\n      tag_547\n      jumpi\n        /* \"#utility.yul\":20017:20018   */\n      0x00\n        /* \"#utility.yul\":20014:20015   */\n      dup1\n        /* \"#utility.yul\":20007:20019   */\n      revert\n        /* \"#utility.yul\":19950:20021   */\n    tag_547:\n        /* \"#utility.yul\":19889:20027   */\n      pop\n      jump\t// out\n        /* \"#utility.yul\":20033:20188   */\n    tag_348:\n        /* \"#utility.yul\":20087:20092   */\n      0x00\n        /* \"#utility.yul\":20125:20131   */\n      dup2\n        /* \"#utility.yul\":20112:20132   */\n      calldataload\n        /* \"#utility.yul\":20103:20132   */\n      swap1\n      pop\n        /* \"#utility.yul\":20141:20182   */\n      tag_549\n        /* \"#utility.yul\":20176:20181   */\n      dup2\n        /* \"#utility.yul\":20141:20182   */\n      tag_347\n      jump\t// in\n    tag_549:\n        /* \"#utility.yul\":20033:20188   */\n      swap3\n      swap2\n      pop\n      pop\n      jump\t// out\n        /* \"#utility.yul\":20194:21481   */\n    tag_91:\n        /* \"#utility.yul\":20317:20323   */\n      0x00\n        /* \"#utility.yul\":20325:20331   */\n      dup1\n        /* \"#utility.yul\":20333:20339   */\n      0x00\n        /* \"#utility.yul\":20341:20347   */\n      dup1\n        /* \"#utility.yul\":20349:20355   */\n      0x00\n        /* \"#utility.yul\":20398:20401   */\n      0xa0\n        /* \"#utility.yul\":20386:20395   */\n      dup7\n        /* \"#utility.yul\":20377:20384   */\n      dup9\n        /* \"#utility.yul\":20373:20396   */\n      sub\n        /* \"#utility.yul\":20369:20402   */\n      slt\n        /* \"#utility.yul\":20366:20486   */\n      iszero\n      tag_551\n      jumpi\n        /* \"#utility.yul\":20405:20484   */\n      tag_552\n      tag_297\n      jump\t// in\n    tag_552:\n        /* \"#utility.yul\":20366:20486   */\n    tag_551:\n        /* \"#utility.yul\":20553:20554   */\n      0x00\n        /* \"#utility.yul\":20542:20551   */\n      dup7\n        /* \"#utility.yul\":20538:20555   */\n      add\n        /* \"#utility.yul\":20525:20556   */\n      calldataload\n        /* \"#utility.yul\":20583:20601   */\n      0xffffffffffffffff\n        /* \"#utility.yul\":20575:20581   */\n      dup2\n        /* \"#utility.yul\":20572:20602   */\n      gt\n        /* \"#utility.yul\":20569:20686   */\n      iszero\n      tag_553\n      jumpi\n        /* \"#utility.yul\":20605:20684   */\n      tag_554\n      tag_298\n      jump\t// in\n    tag_554:\n        /* \"#utility.yul\":20569:20686   */\n    tag_553:\n        /* \"#utility.yul\":20710:20773   */\n      tag_555\n        /* \"#utility.yul\":20765:20772   */\n      dup9\n        /* \"#utility.yul\":20756:20762   */\n      dup3\n        /* \"#utility.yul\":20745:20754   */\n      dup10\n        /* \"#utility.yul\":20741:20763   */\n      add\n        /* \"#utility.yul\":20710:20773   */\n      tag_318\n      jump\t// in\n    tag_555:\n        /* \"#utility.yul\":20700:20773   */\n      swap6\n      pop\n        /* \"#utility.yul\":20496:20783   */\n      pop\n        /* \"#utility.yul\":20850:20852   */\n      0x20\n        /* \"#utility.yul\":20839:20848   */\n      dup7\n        /* \"#utility.yul\":20835:20853   */\n      add\n        /* \"#utility.yul\":20822:20854   */\n      calldataload\n        /* \"#utility.yul\":20881:20899   */\n      0xffffffffffffffff\n        /* \"#utility.yul\":20873:20879   */\n      dup2\n        /* \"#utility.yul\":20870:20900   */\n      gt\n        /* \"#utility.yul\":20867:20984   */\n      iszero\n      tag_556\n      jumpi\n        /* \"#utility.yul\":20903:20982   */\n      tag_557\n      tag_298\n      jump\t// in\n    tag_557:\n        /* \"#utility.yul\":20867:20984   */\n    tag_556:\n        /* \"#utility.yul\":21008:21071   */\n      tag_558\n        /* \"#utility.yul\":21063:21070   */\n      dup9\n        /* \"#utility.yul\":21054:21060   */\n      dup3\n        /* \"#utility.yul\":21043:21052   */\n      dup10\n        /* \"#utility.yul\":21039:21061   */\n      add\n        /* \"#utility.yul\":21008:21071   */\n      tag_318\n      jump\t// in\n    tag_558:\n        /* \"#utility.yul\":20998:21071   */\n      swap5\n      pop\n        /* \"#utility.yul\":20793:21081   */\n      pop\n        /* \"#utility.yul\":21120:21122   */\n      0x40\n        /* \"#utility.yul\":21146:21199   */\n      tag_559\n        /* \"#utility.yul\":21191:21198   */\n      dup9\n        /* \"#utility.yul\":21182:21188   */\n      dup3\n        /* \"#utility.yul\":21171:21180   */\n      dup10\n        /* \"#utility.yul\":21167:21189   */\n      add\n        /* \"#utility.yul\":21146:21199   */\n      tag_346\n      jump\t// in\n    tag_559:\n        /* \"#utility.yul\":21136:21199   */\n      swap4\n      pop\n        /* \"#utility.yul\":21091:21209   */\n      pop\n        /* \"#utility.yul\":21248:21250   */\n      0x60\n        /* \"#utility.yul\":21274:21327   */\n      tag_560\n        /* \"#utility.yul\":21319:21326   */\n      dup9\n        /* \"#utility.yul\":21310:21316   */\n      dup3\n        /* \"#utility.yul\":21299:21308   */\n      dup10\n        /* \"#utility.yul\":21295:21317   */\n      add\n        /* \"#utility.yul\":21274:21327   */\n      tag_346\n      jump\t// in\n    tag_560:\n        /* \"#utility.yul\":21264:21327   */\n      swap3\n      pop\n        /* \"#utility.yul\":21219:21337   */\n      pop\n        /* \"#utility.yul\":21376:21379   */\n      0x80\n        /* \"#utility.yul\":21403:21464   */\n      tag_561\n        /* \"#utility.yul\":21456:21463   */\n      dup9\n        /* \"#utility.yul\":21447:21453   */\n      dup3\n        /* \"#utility.yul\":21436:21445   */\n      dup10\n        /* \"#utility.yul\":21432:21454   */\n      add\n        /* \"#utility.yul\":21403:21464   */\n      tag_348\n      jump\t// in\n    tag_561:\n        /* \"#utility.yul\":21393:21464   */\n      swap2\n      pop\n        /* \"#utility.yul\":21347:21474   */\n      pop\n        /* \"#utility.yul\":20194:21481   */\n      swap3\n      swap6\n      pop\n      swap3\n      swap6\n      swap1\n      swap4\n      pop\n      jump\t// out\n        /* \"#utility.yul\":21487:21605   */\n    tag_349:\n        /* \"#utility.yul\":21574:21598   */\n      tag_563\n        /* \"#utility.yul\":21592:21597   */\n      dup2\n        /* \"#utility.yul\":21574:21598   */\n      tag_300\n      jump\t// in\n    tag_563:\n        /* \"#utility.yul\":21569:21572   */\n      dup3\n        /* \"#utility.yul\":21562:21599   */\n      mstore\n        /* \"#utility.yul\":21487:21605   */\n      pop\n      pop\n      jump\t// out\n        /* \"#utility.yul\":21611:21833   */\n    tag_100:\n        /* \"#utility.yul\":21704:21708   */\n      0x00\n        /* \"#utility.yul\":21742:21744   */\n      0x20\n        /* \"#utility.yul\":21731:21740   */\n      dup3\n        /* \"#utility.yul\":21727:21745   */\n      add\n        /* \"#utility.yul\":21719:21745   */\n      swap1\n      pop\n        /* \"#utility.yul\":21755:21826   */\n      tag_565\n        /* \"#utility.yul\":21823:21824   */\n      0x00\n        /* \"#utility.yul\":21812:21821   */\n      dup4\n        /* \"#utility.yul\":21808:21825   */\n      add\n        /* \"#utility.yul\":21799:21805   */\n      dup5\n        /* \"#utility.yul\":21755:21826   */\n      tag_349\n      jump\t// in\n    tag_565:\n        /* \"#utility.yul\":21611:21833   */\n      swap3\n      swap2\n      pop\n      pop\n      jump\t// out\n        /* \"#utility.yul\":21839:22019   */\n    tag_350:\n        /* \"#utility.yul\":21887:21964   */\n      0x4e487b7100000000000000000000000000000000000000000000000000000000\n        /* \"#utility.yul\":21884:21885   */\n      0x00\n        /* \"#utility.yul\":21877:21965   */\n      mstore\n        /* \"#utility.yul\":21984:21988   */\n      0x22\n        /* \"#utility.yul\":21981:21982   */\n      0x04\n        /* \"#utility.yul\":21974:21989   */\n      mstore\n        /* \"#utility.yul\":22008:22012   */\n      0x24\n        /* \"#utility.yul\":22005:22006   */\n      0x00\n        /* \"#utility.yul\":21998:22013   */\n      revert\n        /* \"#utility.yul\":22025:22345   */\n    tag_121:\n        /* \"#utility.yul\":22069:22075   */\n      0x00\n        /* \"#utility.yul\":22106:22107   */\n      0x02\n        /* \"#utility.yul\":22100:22104   */\n      dup3\n        /* \"#utility.yul\":22096:22108   */\n      div\n        /* \"#utility.yul\":22086:22108   */\n      swap1\n      pop\n        /* \"#utility.yul\":22153:22154   */\n      0x01\n        /* \"#utility.yul\":22147:22151   */\n      dup3\n        /* \"#utility.yul\":22143:22155   */\n      and\n        /* \"#utility.yul\":22174:22192   */\n      dup1\n        /* \"#utility.yul\":22164:22245   */\n      tag_568\n      jumpi\n        /* \"#utility.yul\":22230:22234   */\n      0x7f\n        /* \"#utility.yul\":22222:22228   */\n      dup3\n        /* \"#utility.yul\":22218:22235   */\n      and\n        /* \"#utility.yul\":22208:22235   */\n      swap2\n      pop\n        /* \"#utility.yul\":22164:22245   */\n    tag_568:\n        /* \"#utility.yul\":22292:22294   */\n      0x20\n        /* \"#utility.yul\":22284:22290   */\n      dup3\n        /* \"#utility.yul\":22281:22295   */\n      lt\n        /* \"#utility.yul\":22261:22279   */\n      dup2\n        /* \"#utility.yul\":22258:22296   */\n      sub\n        /* \"#utility.yul\":22255:22339   */\n      tag_569\n      jumpi\n        /* \"#utility.yul\":22311:22329   */\n      tag_570\n      tag_350\n      jump\t// in\n    tag_570:\n        /* \"#utility.yul\":22255:22339   */\n    tag_569:\n        /* \"#utility.yul\":22076:22345   */\n      pop\n        /* \"#utility.yul\":22025:22345   */\n      swap2\n      swap1\n      pop\n      jump\t// out\n        /* \"#utility.yul\":22351:22499   */\n    tag_351:\n        /* \"#utility.yul\":22453:22464   */\n      0x00\n        /* \"#utility.yul\":22490:22493   */\n      dup2\n        /* \"#utility.yul\":22475:22493   */\n      swap1\n      pop\n        /* \"#utility.yul\":22351:22499   */\n      swap3\n      swap2\n      pop\n      pop\n      jump\t// out\n        /* \"#utility.yul\":22505:22895   */\n    tag_352:\n        /* \"#utility.yul\":22611:22614   */\n      0x00\n        /* \"#utility.yul\":22639:22678   */\n      tag_573\n        /* \"#utility.yul\":22672:22677   */\n      dup3\n        /* \"#utility.yul\":22639:22678   */\n      tag_305\n      jump\t// in\n    tag_573:\n        /* \"#utility.yul\":22694:22783   */\n      tag_574\n        /* \"#utility.yul\":22776:22782   */\n      dup2\n        /* \"#utility.yul\":22771:22774   */\n      dup6\n        /* \"#utility.yul\":22694:22783   */\n      tag_351\n      jump\t// in\n    tag_574:\n        /* \"#utility.yul\":22687:22783   */\n      swap4\n      pop\n        /* \"#utility.yul\":22792:22857   */\n      tag_575\n        /* \"#utility.yul\":22850:22856   */\n      dup2\n        /* \"#utility.yul\":22845:22848   */\n      dup6\n        /* \"#utility.yul\":22838:22842   */\n      0x20\n        /* \"#utility.yul\":22831:22836   */\n      dup7\n        /* \"#utility.yul\":22827:22843   */\n      add\n        /* \"#utility.yul\":22792:22857   */\n      tag_307\n      jump\t// in\n    tag_575:\n        /* \"#utility.yul\":22882:22888   */\n      dup1\n        /* \"#utility.yul\":22877:22880   */\n      dup5\n        /* \"#utility.yul\":22873:22889   */\n      add\n        /* \"#utility.yul\":22866:22889   */\n      swap2\n      pop\n        /* \"#utility.yul\":22615:22895   */\n      pop\n        /* \"#utility.yul\":22505:22895   */\n      swap3\n      swap2\n      pop\n      pop\n      jump\t// out\n        /* \"#utility.yul\":22901:23176   */\n    tag_132:\n        /* \"#utility.yul\":23033:23036   */\n      0x00\n        /* \"#utility.yul\":23055:23150   */\n      tag_577\n        /* \"#utility.yul\":23146:23149   */\n      dup3\n        /* \"#utility.yul\":23137:23143   */\n      dup5\n        /* \"#utility.yul\":23055:23150   */\n      tag_352\n      jump\t// in\n    tag_577:\n        /* \"#utility.yul\":23048:23150   */\n      swap2\n      pop\n        /* \"#utility.yul\":23167:23170   */\n      dup2\n        /* \"#utility.yul\":23160:23170   */\n      swap1\n      pop\n        /* \"#utility.yul\":22901:23176   */\n      swap3\n      swap2\n      pop\n      pop\n      jump\t// out\n        /* \"#utility.yul\":23182:23362   */\n    tag_353:\n        /* \"#utility.yul\":23230:23307   */\n      0x4e487b7100000000000000000000000000000000000000000000000000000000\n        /* \"#utility.yul\":23227:23228   */\n      0x00\n        /* \"#utility.yul\":23220:23308   */\n      mstore\n        /* \"#utility.yul\":23327:23331   */\n      0x11\n        /* \"#utility.yul\":23324:23325   */\n      0x04\n        /* \"#utility.yul\":23317:23332   */\n      mstore\n        /* \"#utility.yul\":23351:23355   */\n      0x24\n        /* \"#utility.yul\":23348:23349   */\n      0x00\n        /* \"#utility.yul\":23341:23356   */\n      revert\n        /* \"#utility.yul\":23368:23601   */\n    tag_143:\n        /* \"#utility.yul\":23407:23410   */\n      0x00\n        /* \"#utility.yul\":23430:23454   */\n      tag_580\n        /* \"#utility.yul\":23448:23453   */\n      dup3\n        /* \"#utility.yul\":23430:23454   */\n      tag_303\n      jump\t// in\n    tag_580:\n        /* \"#utility.yul\":23421:23454   */\n      swap2\n      pop\n        /* \"#utility.yul\":23476:23542   */\n      0xffffffffffffffffffffffffffffffffffffffffffffffffffffffffffffffff\n        /* \"#utility.yul\":23469:23474   */\n      dup3\n        /* \"#utility.yul\":23466:23543   */\n      sub\n        /* \"#utility.yul\":23463:23566   */\n      tag_581\n      jumpi\n        /* \"#utility.yul\":23546:23564   */\n      tag_582\n      tag_353\n      jump\t// in\n    tag_582:\n        /* \"#utility.yul\":23463:23566   */\n    tag_581:\n        /* \"#utility.yul\":23593:23594   */\n      0x01\n        /* \"#utility.yul\":23586:23591   */\n      dup3\n        /* \"#utility.yul\":23582:23595   */\n      add\n        /* \"#utility.yul\":23575:23595   */\n      swap1\n      pop\n        /* \"#utility.yul\":23368:23601   */\n      swap2\n      swap1\n      pop\n      jump\t// out\n        /* \"#utility.yul\":23607:23748   */\n    tag_354:\n        /* \"#utility.yul\":23656:23660   */\n      0x00\n        /* \"#utility.yul\":23679:23682   */\n      dup2\n        /* \"#utility.yul\":23671:23682   */\n      swap1\n      pop\n        /* \"#utility.yul\":23702:23705   */\n      dup2\n        /* \"#utility.yul\":23699:23700   */\n      0x00\n        /* \"#utility.yul\":23692:23706   */\n      mstore\n        /* \"#utility.yul\":23736:23740   */\n      0x20\n        /* \"#utility.yul\":23733:23734   */\n      0x00\n        /* \"#utility.yul\":23723:23741   */\n      keccak256\n        /* \"#utility.yul\":23715:23741   */\n      swap1\n      pop\n        /* \"#utility.yul\":23607:23748   */\n      swap2\n      swap1\n      pop\n      jump\t// out\n        /* \"#utility.yul\":23754:23847   */\n    tag_355:\n        /* \"#utility.yul\":23791:23797   */\n      0x00\n        /* \"#utility.yul\":23838:23840   */\n      0x20\n        /* \"#utility.yul\":23833:23835   */\n      0x1f\n        /* \"#utility.yul\":23826:23831   */\n      dup4\n        /* \"#utility.yul\":23822:23836   */\n      add\n        /* \"#utility.yul\":23818:23841   */\n      div\n        /* \"#utility.yul\":23808:23841   */\n      swap1\n      pop\n        /* \"#utility.yul\":23754:23847   */\n      swap2\n      swap1\n      pop\n      jump\t// out\n        /* \"#utility.yul\":23853:23960   */\n    tag_356:\n        /* \"#utility.yul\":23897:23905   */\n      0x00\n        /* \"#utility.yul\":23947:23952   */\n      dup3\n        /* \"#utility.yul\":23941:23945   */\n      dup3\n        /* \"#utility.yul\":23937:23953   */\n      shl\n        /* \"#utility.yul\":23916:23953   */\n      swap1\n      pop\n        /* \"#utility.yul\":23853:23960   */\n      swap3\n      swap2\n      pop\n      pop\n      jump\t// out\n        /* \"#utility.yul\":23966:24359   */\n    tag_357:\n        /* \"#utility.yul\":24035:24041   */\n      0x00\n        /* \"#utility.yul\":24085:24086   */\n      0x08\n        /* \"#utility.yul\":24073:24083   */\n      dup4\n        /* \"#utility.yul\":24069:24087   */\n      mul\n        /* \"#utility.yul\":24108:24205   */\n      tag_587\n        /* \"#utility.yul\":24138:24204   */\n      0xffffffffffffffffffffffffffffffffffffffffffffffffffffffffffffffff\n        /* \"#utility.yul\":24127:24136   */\n      dup3\n        /* \"#utility.yul\":24108:24205   */\n      tag_356\n      jump\t// in\n    tag_587:\n        /* \"#utility.yul\":24226:24265   */\n      tag_588\n        /* \"#utility.yul\":24256:24264   */\n      dup7\n        /* \"#utility.yul\":24245:24254   */\n      dup4\n        /* \"#utility.yul\":24226:24265   */\n      tag_356\n      jump\t// in\n    tag_588:\n        /* \"#utility.yul\":24214:24265   */\n      swap6\n      pop\n        /* \"#utility.yul\":24298:24302   */\n      dup1\n        /* \"#utility.yul\":24294:24303   */\n      not\n        /* \"#utility.yul\":24287:24292   */\n      dup5\n        /* \"#utility.yul\":24283:24304   */\n      and\n        /* \"#utility.yul\":24274:24304   */\n      swap4\n      pop\n        /* \"#utility.yul\":24347:24351   */\n      dup1\n        /* \"#utility.yul\":24337:24345   */\n      dup7\n        /* \"#utility.yul\":24333:24352   */\n      and\n        /* \"#utility.yul\":24326:24331   */\n      dup5\n        /* \"#utility.yul\":24323:24353   */\n      or\n        /* \"#utility.yul\":24313:24353   */\n      swap3\n      pop\n        /* \"#utility.yul\":24042:24359   */\n      pop\n      pop\n        /* \"#utility.yul\":23966:24359   */\n      swap4\n      swap3\n      pop\n      pop\n      pop\n      jump\t// out\n        /* \"#utility.yul\":24365:24425   */\n    tag_358:\n        /* \"#utility.yul\":24393:24396   */\n      0x00\n        /* \"#utility.yul\":24414:24419   */\n      dup2\n        /* \"#utility.yul\":24407:24419   */\n      swap1\n      pop\n        /* \"#utility.yul\":24365:24425   */\n      swap2\n      swap1\n      pop\n      jump\t// out\n        /* \"#utility.yul\":24431:24573   */\n    tag_359:\n        /* \"#utility.yul\":24481:24490   */\n      0x00\n        /* \"#utility.yul\":24514:24567   */\n      tag_591\n        /* \"#utility.yul\":24532:24566   */\n      tag_592\n        /* \"#utility.yul\":24541:24565   */\n      tag_593\n        /* \"#utility.yul\":24559:24564   */\n      dup5\n        /* \"#utility.yul\":24541:24565   */\n      tag_303\n      jump\t// in\n    tag_593:\n        /* \"#utility.yul\":24532:24566   */\n      tag_358\n      jump\t// in\n    tag_592:\n        /* \"#utility.yul\":24514:24567   */\n      tag_303\n      jump\t// in\n    tag_591:\n        /* \"#utility.yul\":24501:24567   */\n      swap1\n      pop\n        /* \"#utility.yul\":24431:24573   */\n      swap2\n      swap1\n      pop\n      jump\t// out\n        /* \"#utility.yul\":24579:24654   */\n    tag_360:\n        /* \"#utility.yul\":24622:24625   */\n      0x00\n        /* \"#utility.yul\":24643:24648   */\n      dup2\n        /* \"#utility.yul\":24636:24648   */\n      swap1\n      pop\n        /* \"#utility.yul\":24579:24654   */\n      swap2\n      swap1\n      pop\n      jump\t// out\n        /* \"#utility.yul\":24660:24929   */\n    tag_361:\n        /* \"#utility.yul\":24770:24809   */\n      tag_596\n        /* \"#utility.yul\":24801:24808   */\n      dup4\n        /* \"#utility.yul\":24770:24809   */\n      tag_359\n      jump\t// in\n    tag_596:\n        /* \"#utility.yul\":24831:24922   */\n      tag_597\n        /* \"#utility.yul\":24880:24921   */\n      tag_598\n        /* \"#utility.yul\":24904:24920   */\n      dup3\n        /* \"#utility.yul\":24880:24921   */\n      tag_360\n      jump\t// in\n    tag_598:\n        /* \"#utility.yul\":24872:24878   */\n      dup5\n        /* \"#utility.yul\":24865:24869   */\n      dup5\n        /* \"#utility.yul\":24859:24870   */\n      sload\n        /* \"#utility.yul\":24831:24922   */\n      tag_357\n      jump\t// in\n    tag_597:\n        /* \"#utility.yul\":24825:24829   */\n      dup3\n        /* \"#utility.yul\":24818:24923   */\n      sstore\n        /* \"#utility.yul\":24736:24929   */\n      pop\n        /* \"#utility.yul\":24660:24929   */\n      pop\n      pop\n      pop\n      jump\t// out\n        /* \"#utility.yul\":24935:25008   */\n    tag_362:\n        /* \"#utility.yul\":24980:24983   */\n      0x00\n        /* \"#utility.yul\":24935:25008   */\n      swap1\n      jump\t// out\n        /* \"#utility.yul\":25014:25203   */\n    tag_363:\n        /* \"#utility.yul\":25091:25123   */\n      tag_601\n      tag_362\n      jump\t// in\n    tag_601:\n        /* \"#utility.yul\":25132:25197   */\n      tag_602\n        /* \"#utility.yul\":25190:25196   */\n      dup2\n        /* \"#utility.yul\":25182:25188   */\n      dup5\n        /* \"#utility.yul\":25176:25180   */\n      dup5\n        /* \"#utility.yul\":25132:25197   */\n      tag_361\n      jump\t// in\n    tag_602:\n        /* \"#utility.yul\":25067:25203   */\n      pop\n        /* \"#utility.yul\":25014:25203   */\n      pop\n      pop\n      jump\t// out\n        /* \"#utility.yul\":25209:25395   */\n    tag_364:\n        /* \"#utility.yul\":25269:25389   */\n    tag_604:\n        /* \"#utility.yul\":25286:25289   */\n      dup2\n        /* \"#utility.yul\":25279:25284   */\n      dup2\n        /* \"#utility.yul\":25276:25290   */\n      lt\n        /* \"#utility.yul\":25269:25389   */\n      iszero\n      tag_606\n      jumpi\n        /* \"#utility.yul\":25340:25379   */\n      tag_607\n        /* \"#utility.yul\":25377:25378   */\n      0x00\n        /* \"#utility.yul\":25370:25375   */\n      dup3\n        /* \"#utility.yul\":25340:25379   */\n      tag_363\n      jump\t// in\n    tag_607:\n        /* \"#utility.yul\":25313:25314   */\n      0x01\n        /* \"#utility.yul\":25306:25311   */\n      dup2\n        /* \"#utility.yul\":25302:25315   */\n      add\n        /* \"#utility.yul\":25293:25315   */\n      swap1\n      pop\n        /* \"#utility.yul\":25269:25389   */\n      jump(tag_604)\n    tag_606:\n        /* \"#utility.yul\":25209:25395   */\n      pop\n      pop\n      jump\t// out\n        /* \"#utility.yul\":25401:25944   */\n    tag_365:\n        /* \"#utility.yul\":25502:25504   */\n      0x1f\n        /* \"#utility.yul\":25497:25500   */\n      dup3\n        /* \"#utility.yul\":25494:25505   */\n      gt\n        /* \"#utility.yul\":25491:25937   */\n      iszero\n      tag_609\n      jumpi\n        /* \"#utility.yul\":25536:25574   */\n      tag_610\n        /* \"#utility.yul\":25568:25573   */\n      dup2\n        /* \"#utility.yul\":25536:25574   */\n      tag_354\n      jump\t// in\n    tag_610:\n        /* \"#utility.yul\":25620:25649   */\n      tag_611\n        /* \"#utility.yul\":25638:25648   */\n      dup5\n        /* \"#utility.yul\":25620:25649   */\n      tag_355\n      jump\t// in\n    tag_611:\n        /* \"#utility.yul\":25610:25618   */\n      dup2\n        /* \"#utility.yul\":25606:25650   */\n      add\n        /* \"#utility.yul\":25803:25805   */\n      0x20\n        /* \"#utility.yul\":25791:25801   */\n      dup6\n        /* \"#utility.yul\":25788:25806   */\n      lt\n        /* \"#utility.yul\":25785:25834   */\n      iszero\n      tag_612\n      jumpi\n        /* \"#utility.yul\":25824:25832   */\n      dup2\n        /* \"#utility.yul\":25809:25832   */\n      swap1\n      pop\n        /* \"#utility.yul\":25785:25834   */\n    tag_612:\n        /* \"#utility.yul\":25847:25927   */\n      tag_613\n        /* \"#utility.yul\":25903:25925   */\n      tag_614\n        /* \"#utility.yul\":25921:25924   */\n      dup6\n        /* \"#utility.yul\":25903:25925   */\n      tag_355\n      jump\t// in\n    tag_614:\n        /* \"#utility.yul\":25893:25901   */\n      dup4\n        /* \"#utility.yul\":25889:25926   */\n      add\n        /* \"#utility.yul\":25876:25887   */\n      dup3\n        /* \"#utility.yul\":25847:25927   */\n      tag_364\n      jump\t// in\n    tag_613:\n        /* \"#utility.yul\":25506:25937   */\n      pop\n      pop\n        /* \"#utility.yul\":25491:25937   */\n    tag_609:\n        /* \"#utility.yul\":25401:25944   */\n      pop\n      pop\n      pop\n      jump\t// out\n        /* \"#utility.yul\":25950:26067   */\n    tag_366:\n        /* \"#utility.yul\":26004:26012   */\n      0x00\n        /* \"#utility.yul\":26054:26059   */\n      dup3\n        /* \"#utility.yul\":26048:26052   */\n      dup3\n        /* \"#utility.yul\":26044:26060   */\n      shr\n        /* \"#utility.yul\":26023:26060   */\n      swap1\n      pop\n        /* \"#utility.yul\":25950:26067   */\n      swap3\n      swap2\n      pop\n      pop\n      jump\t// out\n        /* \"#utility.yul\":26073:26242   */\n    tag_367:\n        /* \"#utility.yul\":26117:26123   */\n      0x00\n        /* \"#utility.yul\":26150:26201   */\n      tag_617\n        /* \"#utility.yul\":26198:26199   */\n      0x00\n        /* \"#utility.yul\":26194:26200   */\n      not\n        /* \"#utility.yul\":26186:26191   */\n      dup5\n        /* \"#utility.yul\":26183:26184   */\n      0x08\n        /* \"#utility.yul\":26179:26192   */\n      mul\n        /* \"#utility.yul\":26150:26201   */\n      tag_366\n      jump\t// in\n    tag_617:\n        /* \"#utility.yul\":26146:26202   */\n      not\n        /* \"#utility.yul\":26231:26235   */\n      dup1\n        /* \"#utility.yul\":26225:26229   */\n      dup4\n        /* \"#utility.yul\":26221:26236   */\n      and\n        /* \"#utility.yul\":26211:26236   */\n      swap2\n      pop\n        /* \"#utility.yul\":26124:26242   */\n      pop\n        /* \"#utility.yul\":26073:26242   */\n      swap3\n      swap2\n      pop\n      pop\n      jump\t// out\n        /* \"#utility.yul\":26247:26542   */\n    tag_368:\n        /* \"#utility.yul\":26323:26327   */\n      0x00\n        /* \"#utility.yul\":26469:26498   */\n      tag_619\n        /* \"#utility.yul\":26494:26497   */\n      dup4\n        /* \"#utility.yul\":26488:26492   */\n      dup4\n        /* \"#utility.yul\":26469:26498   */\n      tag_367\n      jump\t// in\n    tag_619:\n        /* \"#utility.yul\":26461:26498   */\n      swap2\n      pop\n        /* \"#utility.yul\":26531:26534   */\n      dup3\n        /* \"#utility.yul\":26528:26529   */\n      0x02\n        /* \"#utility.yul\":26524:26535   */\n      mul\n        /* \"#utility.yul\":26518:26522   */\n      dup3\n        /* \"#utility.yul\":26515:26536   */\n      or\n        /* \"#utility.yul\":26507:26536   */\n      swap1\n      pop\n        /* \"#utility.yul\":26247:26542   */\n      swap3\n      swap2\n      pop\n      pop\n      jump\t// out\n        /* \"#utility.yul\":26547:27942   */\n    tag_149:\n        /* \"#utility.yul\":26664:26701   */\n      tag_621\n        /* \"#utility.yul\":26697:26700   */\n      dup3\n        /* \"#utility.yul\":26664:26701   */\n      tag_305\n      jump\t// in\n    tag_621:\n        /* \"#utility.yul\":26766:26784   */\n      0xffffffffffffffff\n        /* \"#utility.yul\":26758:26764   */\n      dup2\n        /* \"#utility.yul\":26755:26785   */\n      gt\n        /* \"#utility.yul\":26752:26808   */\n      iszero\n      tag_622\n      jumpi\n        /* \"#utility.yul\":26788:26806   */\n      tag_623\n      tag_312\n      jump\t// in\n    tag_623:\n        /* \"#utility.yul\":26752:26808   */\n    tag_622:\n        /* \"#utility.yul\":26832:26870   */\n      tag_624\n        /* \"#utility.yul\":26864:26868   */\n      dup3\n        /* \"#utility.yul\":26858:26869   */\n      sload\n        /* \"#utility.yul\":26832:26870   */\n      tag_121\n      jump\t// in\n    tag_624:\n        /* \"#utility.yul\":26917:26984   */\n      tag_625\n        /* \"#utility.yul\":26977:26983   */\n      dup3\n        /* \"#utility.yul\":26969:26975   */\n      dup3\n        /* \"#utility.yul\":26963:26967   */\n      dup6\n        /* \"#utility.yul\":26917:26984   */\n      tag_365\n      jump\t// in\n    tag_625:\n        /* \"#utility.yul\":27011:27012   */\n      0x00\n        /* \"#utility.yul\":27035:27039   */\n      0x20\n        /* \"#utility.yul\":27022:27039   */\n      swap1\n      pop\n        /* \"#utility.yul\":27067:27069   */\n      0x1f\n        /* \"#utility.yul\":27059:27065   */\n      dup4\n        /* \"#utility.yul\":27056:27070   */\n      gt\n        /* \"#utility.yul\":27084:27085   */\n      0x01\n        /* \"#utility.yul\":27079:27697   */\n      dup2\n      eq\n      tag_627\n      jumpi\n        /* \"#utility.yul\":27741:27742   */\n      0x00\n        /* \"#utility.yul\":27758:27764   */\n      dup5\n        /* \"#utility.yul\":27755:27832   */\n      iszero\n      tag_628\n      jumpi\n        /* \"#utility.yul\":27807:27816   */\n      dup3\n        /* \"#utility.yul\":27802:27805   */\n      dup8\n        /* \"#utility.yul\":27798:27817   */\n      add\n        /* \"#utility.yul\":27792:27818   */\n      mload\n        /* \"#utility.yul\":27783:27818   */\n      swap1\n      pop\n        /* \"#utility.yul\":27755:27832   */\n    tag_628:\n        /* \"#utility.yul\":27858:27925   */\n      tag_629\n        /* \"#utility.yul\":27918:27924   */\n      dup6\n        /* \"#utility.yul\":27911:27916   */\n      dup3\n        /* \"#utility.yul\":27858:27925   */\n      tag_368\n      jump\t// in\n    tag_629:\n        /* \"#utility.yul\":27852:27856   */\n      dup7\n        /* \"#utility.yul\":27845:27926   */\n      sstore\n        /* \"#utility.yul\":27714:27936   */\n      pop\n        /* \"#utility.yul\":27049:27936   */\n      jump(tag_626)\n        /* \"#utility.yul\":27079:27697   */\n    tag_627:\n        /* \"#utility.yul\":27131:27135   */\n      0x1f\n        /* \"#utility.yul\":27127:27136   */\n      not\n        /* \"#utility.yul\":27119:27125   */\n      dup5\n        /* \"#utility.yul\":27115:27137   */\n      and\n        /* \"#utility.yul\":27165:27202   */\n      tag_630\n        /* \"#utility.yul\":27197:27201   */\n      dup7\n        /* \"#utility.yul\":27165:27202   */\n      tag_354\n      jump\t// in\n    tag_630:\n        /* \"#utility.yul\":27224:27225   */\n      0x00\n        /* \"#utility.yul\":27238:27446   */\n    tag_631:\n        /* \"#utility.yul\":27252:27259   */\n      dup3\n        /* \"#utility.yul\":27249:27250   */\n      dup2\n        /* \"#utility.yul\":27246:27260   */\n      lt\n        /* \"#utility.yul\":27238:27446   */\n      iszero\n      tag_633\n      jumpi\n        /* \"#utility.yul\":27331:27340   */\n      dup5\n        /* \"#utility.yul\":27326:27329   */\n      dup10\n        /* \"#utility.yul\":27322:27341   */\n      add\n        /* \"#utility.yul\":27316:27342   */\n      mload\n        /* \"#utility.yul\":27308:27314   */\n      dup3\n        /* \"#utility.yul\":27301:27343   */\n      sstore\n        /* \"#utility.yul\":27382:27383   */\n      0x01\n        /* \"#utility.yul\":27374:27380   */\n      dup3\n        /* \"#utility.yul\":27370:27384   */\n      add\n        /* \"#utility.yul\":27360:27384   */\n      swap2\n      pop\n        /* \"#utility.yul\":27429:27431   */\n      0x20\n        /* \"#utility.yul\":27418:27427   */\n      dup6\n        /* \"#utility.yul\":27414:27432   */\n      add\n        /* \"#utility.yul\":27401:27432   */\n      swap5\n      pop\n        /* \"#utility.yul\":27275:27279   */\n      0x20\n        /* \"#utility.yul\":27272:27273   */\n      dup2\n        /* \"#utility.yul\":27268:27280   */\n      add\n        /* \"#utility.yul\":27263:27280   */\n      swap1\n      pop\n        /* \"#utility.yul\":27238:27446   */\n      jump(tag_631)\n    tag_633:\n        /* \"#utility.yul\":27474:27480   */\n      dup7\n        /* \"#utility.yul\":27465:27472   */\n      dup4\n        /* \"#utility.yul\":27462:27481   */\n      lt\n        /* \"#utility.yul\":27459:27638   */\n      iszero\n      tag_634\n      jumpi\n        /* \"#utility.yul\":27532:27541   */\n      dup5\n        /* \"#utility.yul\":27527:27530   */\n      dup10\n        /* \"#utility.yul\":27523:27542   */\n      add\n        /* \"#utility.yul\":27517:27543   */\n      mload\n        /* \"#utility.yul\":27575:27623   */\n      tag_635\n        /* \"#utility.yul\":27617:27621   */\n      0x1f\n        /* \"#utility.yul\":27609:27615   */\n      dup10\n        /* \"#utility.yul\":27605:27622   */\n      and\n        /* \"#utility.yul\":27594:27603   */\n      dup3\n        /* \"#utility.yul\":27575:27623   */\n      tag_367\n      jump\t// in\n    tag_635:\n        /* \"#utility.yul\":27567:27573   */\n      dup4\n        /* \"#utility.yul\":27560:27624   */\n      sstore\n        /* \"#utility.yul\":27482:27638   */\n      pop\n        /* \"#utility.yul\":27459:27638   */\n    tag_634:\n        /* \"#utility.yul\":27684:27685   */\n      0x01\n        /* \"#utility.yul\":27680:27681   */\n      0x02\n        /* \"#utility.yul\":27672:27678   */\n      dup9\n        /* \"#utility.yul\":27668:27682   */\n      mul\n        /* \"#utility.yul\":27664:27686   */\n      add\n        /* \"#utility.yul\":27658:27662   */\n      dup9\n        /* \"#utility.yul\":27651:27687   */\n      sstore\n        /* \"#utility.yul\":27086:27697   */\n      pop\n      pop\n      pop\n        /* \"#utility.yul\":27049:27936   */\n    tag_626:\n      pop\n        /* \"#utility.yul\":26639:27942   */\n      pop\n      pop\n      pop\n        /* \"#utility.yul\":26547:27942   */\n      pop\n      pop\n      jump\t// out\n        /* \"#utility.yul\":27948:28119   */\n    tag_255:\n        /* \"#utility.yul\":27987:27990   */\n      0x00\n        /* \"#utility.yul\":28010:28034   */\n      tag_637\n        /* \"#utility.yul\":28028:28033   */\n      dup3\n        /* \"#utility.yul\":28010:28034   */\n      tag_303\n      jump\t// in\n    tag_637:\n        /* \"#utility.yul\":28001:28034   */\n      swap2\n      pop\n        /* \"#utility.yul\":28056:28060   */\n      0x00\n        /* \"#utility.yul\":28049:28054   */\n      dup3\n        /* \"#utility.yul\":28046:28061   */\n      sub\n        /* \"#utility.yul\":28043:28084   */\n      tag_638\n      jumpi\n        /* \"#utility.yul\":28064:28082   */\n      tag_639\n      tag_353\n      jump\t// in\n    tag_639:\n        /* \"#utility.yul\":28043:28084   */\n    tag_638:\n        /* \"#utility.yul\":28111:28112   */\n      0x01\n        /* \"#utility.yul\":28104:28109   */\n      dup3\n        /* \"#utility.yul\":28100:28113   */\n      sub\n        /* \"#utility.yul\":28093:28113   */\n      swap1\n      pop\n        /* \"#utility.yul\":27948:28119   */\n      swap2\n      swap1\n      pop\n      jump\t// out\n    stop\n    data_457442592243f1e34dc32037ed1d687c11f5a86c5869ba659485a57f35ee2047 416c6c2074686520636f6e7472696275746f7273206861766520766f74656420666f722072656a656374696f6e\n\n    auxdata: 0xa26469706673582212207f256db962a38cbc49b011f87c86d8a60aefc97d63548f50fc34629a8dcdcb8364736f6c63430008180033\n}\n","bytecode":{"linkReferences":{},"object":"608060405234801562000010575f80fd5b5060405162002ecc38038062002ecc8339818101604052810190620000369190620002d4565b5f821162000042575f80fd5b8060025f6101000a81548173ffffffffffffffffffffffffffffffffffffffff021916908373ffffffffffffffffffffffffffffffffffffffff160217905550835f9081620000929190620005af565b508260019081620000a49190620005af565b50816005819055505050505062000693565b5f604051905090565b5f80fd5b5f80fd5b5f80fd5b5f80fd5b5f601f19601f8301169050919050565b7f4e487b71000000000000000000000000000000000000000000000000000000005f52604160045260245ffd5b6200011782620000cf565b810181811067ffffffffffffffff82111715620001395762000138620000df565b5b80604052505050565b5f6200014d620000b6565b90506200015b82826200010c565b919050565b5f67ffffffffffffffff8211156200017d576200017c620000df565b5b6200018882620000cf565b9050602081019050919050565b5f5b83811015620001b457808201518184015260208101905062000197565b5f8484015250505050565b5f620001d5620001cf8462000160565b62000142565b905082815260208101848484011115620001f457620001f3620000cb565b5b6200020184828562000195565b509392505050565b5f82601f83011262000220576200021f620000c7565b5b815162000232848260208601620001bf565b91505092915050565b5f819050919050565b6200024f816200023b565b81146200025a575f80fd5b50565b5f815190506200026d8162000244565b92915050565b5f73ffffffffffffffffffffffffffffffffffffffff82169050919050565b5f6200029e8262000273565b9050919050565b620002b08162000292565b8114620002bb575f80fd5b50565b5f81519050620002ce81620002a5565b92915050565b5f805f8060808587031215620002ef57620002ee620000bf565b5b5f85015167ffffffffffffffff8111156200030f576200030e620000c3565b5b6200031d8782880162000209565b945050602085015167ffffffffffffffff811115620003415762000340620000c3565b5b6200034f8782880162000209565b935050604062000362878288016200025d565b92505060606200037587828801620002be565b91505092959194509250565b5f81519050919050565b7f4e487b71000000000000000000000000000000000000000000000000000000005f52602260045260245ffd5b5f6002820490506001821680620003d057607f821691505b602082108103620003e657620003e56200038b565b5b50919050565b5f819050815f5260205f209050919050565b5f6020601f8301049050919050565b5f82821b905092915050565b5f600883026200044a7fffffffffffffffffffffffffffffffffffffffffffffffffffffffffffffffff826200040d565b6200045686836200040d565b95508019841693508086168417925050509392505050565b5f819050919050565b5f62000497620004916200048b846200023b565b6200046e565b6200023b565b9050919050565b5f819050919050565b620004b28362000477565b620004ca620004c1826200049e565b84845462000419565b825550505050565b5f90565b620004e0620004d2565b620004ed818484620004a7565b505050565b5b818110156200051457620005085f82620004d6565b600181019050620004f3565b5050565b601f82111562000563576200052d81620003ec565b6200053884620003fe565b8101602085101562000548578190505b620005606200055785620003fe565b830182620004f2565b50505b505050565b5f82821c905092915050565b5f620005855f198460080262000568565b1980831691505092915050565b5f6200059f838362000574565b9150826002028217905092915050565b620005ba8262000381565b67ffffffffffffffff811115620005d657620005d5620000df565b5b620005e28254620003b8565b620005ef82828562000518565b5f60209050601f83116001811462000625575f841562000610578287015190505b6200061c858262000592565b8655506200068b565b601f1984166200063586620003ec565b5f5b828110156200065e5784890151825560018201915060208501945060208101905062000637565b868310156200067e57848901516200067a601f89168262000574565b8355505b6001600288020188555050505b505050505050565b61282b80620006a15f395ff3fe608060405260043610610129575f3560e01c8063885e7c62116100aa578063d50095841161006e578063d500958414610396578063d7bb99ba146103c0578063e2e46b52146103ca578063f0190215146103f2578063f84038b11461041a578063feed55611461044457610129565b8063885e7c621461030e578063980e784414610338578063a26759cb1461034e578063a7ac800014610358578063ac3077731461038057610129565b8063692d51d2116100f1578063692d51d21461020f5780636f9fb98a1461025657806372a8d706146102805780637d6e5b9e146102a85780638813ce12146102e457610129565b80630a1443911461012d5780631a0925411461016957806330e8fc5c146101935780633410452a146101bb5780634051ddac146101e5575b5f80fd5b348015610138575f80fd5b50610153600480360381019061014e9190611ae2565b61046e565b6040516101609190611b25565b60405180910390f35b348015610174575f80fd5b5061017d610483565b60405161018a9190611bc8565b60405180910390f35b34801561019e575f80fd5b506101b960048036038101906101b49190611d49565b610513565b005b3480156101c6575f80fd5b506101cf6107e1565b6040516101dc9190611b25565b60405180910390f35b3480156101f0575f80fd5b506101f96107ea565b6040516102069190611ecc565b60405180910390f35b34801561021a575f80fd5b5061023560048036038101906102309190611eec565b610992565b60405161024d9c9b9a99989796959493929190611f62565b60405180910390f35b348015610261575f80fd5b5061026a610bdd565b6040516102779190611b25565b60405180910390f35b34801561028b575f80fd5b506102a660048036038101906102a1919061202f565b610be4565b005b3480156102b3575f80fd5b506102ce60048036038101906102c99190611eec565b610d24565b6040516102db919061219a565b60405180910390f35b3480156102ef575f80fd5b506102f8610ebc565b60405161030591906122c9565b60405180910390f35b348015610319575f80fd5b50610322611041565b60405161032f9190611bc8565b60405180910390f35b348015610343575f80fd5b5061034c6110d0565b005b610356611144565b005b348015610363575f80fd5b5061037e6004803603810190610379919061233d565b61119e565b005b34801561038b575f80fd5b506103946113d5565b005b3480156103a1575f80fd5b506103aa611510565b6040516103b791906123fb565b60405180910390f35b6103c8611538565b005b3480156103d5575f80fd5b506103f060048036038101906103eb9190611eec565b611601565b005b3480156103fd575f80fd5b506104186004803603810190610413919061202f565b6117b2565b005b348015610425575f80fd5b5061042e611a0e565b60405161043b9190611b25565b60405180910390f35b34801561044f575f80fd5b50610458611a17565b6040516104659190611b25565b60405180910390f35b6003602052805f5260405f205f915090505481565b60606001805461049290612441565b80601f01602080910402602001604051908101604052809291908181526020018280546104be90612441565b80156105095780601f106104e057610100808354040283529160200191610509565b820191905f5260205f20905b8154815290600101906020018083116104ec57829003601f168201915b5050505050905090565b5f60035f3373ffffffffffffffffffffffffffffffffffffffff1673ffffffffffffffffffffffffffffffffffffffff1681526020019081526020015f20540361055b575f80fd5b60095f9054906101000a900460ff1615610573575f80fd5b60025f9054906101000a900473ffffffffffffffffffffffffffffffffffffffff1673ffffffffffffffffffffffffffffffffffffffff163373ffffffffffffffffffffffffffffffffffffffff16036105cb575f80fd5b5f6007836040516105dc91906124ab565b908152602001604051809103902090505f815f0180546105fb90612441565b905011610606575f80fd5b8251815f01805461061690612441565b905014610621575f80fd5b806008015f9054906101000a900460ff161561063b575f80fd5b8060080160019054906101000a900460ff1615610656575f80fd5b8060080160029054906101000a900460ff1615610671575f80fd5b80600a015f3373ffffffffffffffffffffffffffffffffffffffff1673ffffffffffffffffffffffffffffffffffffffff1681526020019081526020015f205f9054906101000a900460ff16156106c6575f80fd5b600181600a015f3373ffffffffffffffffffffffffffffffffffffffff1673ffffffffffffffffffffffffffffffffffffffff1681526020019081526020015f205f6101000a81548160ff021916908315150217905550811561074157806004015f815480929190610737906124ee565b919050555061075b565b806006015f815480929190610755906124ee565b91905055505b8060050154816004015410610787576001816008015f6101000a81548160ff0219169083151502179055505b6004548160060154106107dc5760018160080160026101000a81548160ff0219169083151502179055506040518060600160405280602d81526020016127c9602d91398160090190816107da91906126d2565b505b505050565b5f600854905090565b6107f2611a20565b5f60405180610100016040528060025f9054906101000a900473ffffffffffffffffffffffffffffffffffffffff1673ffffffffffffffffffffffffffffffffffffffff1681526020015f805461084890612441565b80601f016020809104026020016040519081016040528092919081815260200182805461087490612441565b80156108bf5780601f10610896576101008083540402835291602001916108bf565b820191905f5260205f20905b8154815290600101906020018083116108a257829003601f168201915b50505050508152602001600180546108d690612441565b80601f016020809104026020016040519081016040528092919081815260200182805461090290612441565b801561094d5780601f106109245761010080835404028352916020019161094d565b820191905f5260205f20905b81548152906001019060200180831161093057829003601f168201915b5050505050815260200160055481526020014781526020016004548152602001600854815260200160095f9054906101000a900460ff16151581525090508091505090565b6007818051602081018201805184825260208301602085012081835280955050505050505f91509050805f0180546109c990612441565b80601f01602080910402602001604051908101604052809291908181526020018280546109f590612441565b8015610a405780601f10610a1757610100808354040283529160200191610a40565b820191905f5260205f20905b815481529060010190602001808311610a2357829003601f168201915b505050505090806001018054610a5590612441565b80601f0160208091040260200160405190810160405280929190818152602001828054610a8190612441565b8015610acc5780601f10610aa357610100808354040283529160200191610acc565b820191905f5260205f20905b815481529060010190602001808311610aaf57829003601f168201915b505050505090806002015490806003015f9054906101000a900473ffffffffffffffffffffffffffffffffffffffff1690806004015490806005015490806006015490806007015490806008015f9054906101000a900460ff16908060080160019054906101000a900460ff16908060080160029054906101000a900460ff1690806009018054610b5c90612441565b80601f0160208091040260200160405190810160405280929190818152602001828054610b8890612441565b8015610bd35780601f10610baa57610100808354040283529160200191610bd3565b820191905f5260205f20905b815481529060010190602001808311610bb657829003601f168201915b505050505090508c565b5f47905090565b60025f9054906101000a900473ffffffffffffffffffffffffffffffffffffffff1673ffffffffffffffffffffffffffffffffffffffff163373ffffffffffffffffffffffffffffffffffffffff1614610c3c575f80fd5b5f815111610c48575f80fd5b5f600783604051610c5991906124ab565b90815260200160405180910390205f018054610c7490612441565b905011610c7f575f80fd5b600782604051610c8f91906124ab565b908152602001604051809103902060080160029054906101000a900460ff1615610cb7575f80fd5b6001600783604051610cc991906124ab565b908152602001604051809103902060080160026101000a81548160ff02191690831515021790555080600783604051610d0291906124ab565b90815260200160405180910390206009019081610d1f91906126d2565b505050565b60605f600783604051610d3791906124ab565b90815260200160405180910390205f018054610d5290612441565b905003610d5d575f80fd5b600782604051610d6d91906124ab565b9081526020016040518091039020600b01805480602002602001604051908101604052809291908181526020015f905b82821015610eb1578382905f5260205f2090600202016040518060400160405290815f82015f9054906101000a900473ffffffffffffffffffffffffffffffffffffffff1673ffffffffffffffffffffffffffffffffffffffff1673ffffffffffffffffffffffffffffffffffffffff168152602001600182018054610e2290612441565b80601f0160208091040260200160405190810160405280929190818152602001828054610e4e90612441565b8015610e995780601f10610e7057610100808354040283529160200191610e99565b820191905f5260205f20905b815481529060010190602001808311610e7c57829003601f168201915b50505050508152505081526020019060010190610d9d565b505050509050919050565b60606006805480602002602001604051908101604052809291908181526020015f905b82821015611038578382905f5260205f2090600302016040518060600160405290815f82018054610f0f90612441565b80601f0160208091040260200160405190810160405280929190818152602001828054610f3b90612441565b8015610f865780601f10610f5d57610100808354040283529160200191610f86565b820191905f5260205f20905b815481529060010190602001808311610f6957829003601f168201915b50505050508152602001600182018054610f9f90612441565b80601f0160208091040260200160405190810160405280929190818152602001828054610fcb90612441565b80156110165780601f10610fed57610100808354040283529160200191611016565b820191905f5260205f20905b815481529060010190602001808311610ff957829003601f168201915b5050505050815260200160028201548152505081526020019060010190610edf565b50505050905090565b60605f805461104f90612441565b80601f016020809104026020016040519081016040528092919081815260200182805461107b90612441565b80156110c65780601f1061109d576101008083540402835291602001916110c6565b820191905f5260205f20905b8154815290600101906020018083116110a957829003601f168201915b5050505050905090565b60025f9054906101000a900473ffffffffffffffffffffffffffffffffffffffff1673ffffffffffffffffffffffffffffffffffffffff163373ffffffffffffffffffffffffffffffffffffffff1614611128575f80fd5b600160095f6101000a81548160ff021916908315150217905550565b60025f9054906101000a900473ffffffffffffffffffffffffffffffffffffffff1673ffffffffffffffffffffffffffffffffffffffff163373ffffffffffffffffffffffffffffffffffffffff161461119c575f80fd5b565b60025f9054906101000a900473ffffffffffffffffffffffffffffffffffffffff1673ffffffffffffffffffffffffffffffffffffffff163373ffffffffffffffffffffffffffffffffffffffff16146111f6575f80fd5b60095f9054906101000a900460ff161561120e575f80fd5b5f85511161121a575f80fd5b5f845111611226575f80fd5b5f8311611231575f80fd5b4783111561123d575f80fd5b5f8211611248575f80fd5b600454821115611256575f80fd5b5f60078660405161126791906124ab565b9081526020016040518091039020905085815f01908161128791906126d2565b508481600101908161129991906126d2565b5083816002018190555081816003015f6101000a81548173ffffffffffffffffffffffffffffffffffffffff021916908373ffffffffffffffffffffffffffffffffffffffff1602179055505f81600401819055505f81600701819055508281600501819055505f8160080160016101000a81548160ff0219169083151502179055505f8160080160026101000a81548160ff02191690831515021790555060085f81548092919061134a906124ee565b91905055505f6040518060600160405280888152602001878152602001868152509050600681908060018154018082558091505060019003905f5260205f2090600302015f909190919091505f820151815f0190816113a991906126d2565b5060208201518160010190816113bf91906126d2565b5060408201518160020155505050505050505050565b5f60035f3373ffffffffffffffffffffffffffffffffffffffff1673ffffffffffffffffffffffffffffffffffffffff1681526020019081526020015f20540361141d575f80fd5b60095f9054906101000a900460ff16611434575f80fd5b3373ffffffffffffffffffffffffffffffffffffffff166108fc60035f3373ffffffffffffffffffffffffffffffffffffffff1673ffffffffffffffffffffffffffffffffffffffff1681526020019081526020015f205490811502906040515f60405180830381858888f193505050501580156114b4573d5f803e3d5ffd5b505f60035f3373ffffffffffffffffffffffffffffffffffffffff1673ffffffffffffffffffffffffffffffffffffffff1681526020019081526020015f208190555060045f815480929190611509906127a1565b9190505550565b5f60025f9054906101000a900473ffffffffffffffffffffffffffffffffffffffff16905090565b60095f9054906101000a900460ff1615611550575f80fd5b60055434101561155e575f80fd5b5f60035f3373ffffffffffffffffffffffffffffffffffffffff1673ffffffffffffffffffffffffffffffffffffffff1681526020019081526020015f2054146115a6575f80fd5b3460035f3373ffffffffffffffffffffffffffffffffffffffff1673ffffffffffffffffffffffffffffffffffffffff1681526020019081526020015f208190555060045f8154809291906115fa906124ee565b9190505550565b60025f9054906101000a900473ffffffffffffffffffffffffffffffffffffffff1673ffffffffffffffffffffffffffffffffffffffff163373ffffffffffffffffffffffffffffffffffffffff1614611659575f80fd5b60095f9054906101000a900460ff1615611671575f80fd5b5f60078260405161168291906124ab565b908152602001604051809103902090505f815f0180546116a190612441565b9050116116ac575f80fd5b8151815f0180546116bc90612441565b9050146116c7575f80fd5b806008015f9054906101000a900460ff1680156116f357508060080160019054906101000a900460ff16155b801561170e57508060080160029054906101000a900460ff16155b611716575f80fd5b8060020154471015611726575f80fd5b806003015f9054906101000a900473ffffffffffffffffffffffffffffffffffffffff1673ffffffffffffffffffffffffffffffffffffffff166108fc826002015490811502906040515f60405180830381858888f19350505050158015611790573d5f803e3d5ffd5b5060018160080160016101000a81548160ff0219169083151502179055505050565b5f60035f3373ffffffffffffffffffffffffffffffffffffffff1673ffffffffffffffffffffffffffffffffffffffff1681526020019081526020015f2054036117fa575f80fd5b60095f9054906101000a900460ff1615611812575f80fd5b5f60035f3373ffffffffffffffffffffffffffffffffffffffff1673ffffffffffffffffffffffffffffffffffffffff1681526020019081526020015f20541161185a575f80fd5b5f60078360405161186b91906124ab565b90815260200160405180910390205f01805461188690612441565b905003611891575f80fd5b6007826040516118a191906124ab565b908152602001604051809103902060080160029054906101000a900460ff161580156118f957506007826040516118d891906124ab565b908152602001604051809103902060080160019054906101000a900460ff16155b611901575f80fd5b5f60405180604001604052803373ffffffffffffffffffffffffffffffffffffffff16815260200183815250905060078360405161193f91906124ab565b9081526020016040518091039020600b0181908060018154018082558091505060019003905f5260205f2090600202015f909190919091505f820151815f015f6101000a81548173ffffffffffffffffffffffffffffffffffffffff021916908373ffffffffffffffffffffffffffffffffffffffff16021790555060208201518160010190816119d091906126d2565b5050506007836040516119e391906124ab565b90815260200160405180910390206007015f815480929190611a04906124ee565b9190505550505050565b5f600554905090565b5f600454905090565b6040518061010001604052805f73ffffffffffffffffffffffffffffffffffffffff16815260200160608152602001606081526020015f81526020015f81526020015f81526020015f81526020015f151581525090565b5f604051905090565b5f80fd5b5f80fd5b5f73ffffffffffffffffffffffffffffffffffffffff82169050919050565b5f611ab182611a88565b9050919050565b611ac181611aa7565b8114611acb575f80fd5b50565b5f81359050611adc81611ab8565b92915050565b5f60208284031215611af757611af6611a80565b5b5f611b0484828501611ace565b91505092915050565b5f819050919050565b611b1f81611b0d565b82525050565b5f602082019050611b385f830184611b16565b92915050565b5f81519050919050565b5f82825260208201905092915050565b5f5b83811015611b75578082015181840152602081019050611b5a565b5f8484015250505050565b5f601f19601f8301169050919050565b5f611b9a82611b3e565b611ba48185611b48565b9350611bb4818560208601611b58565b611bbd81611b80565b840191505092915050565b5f6020820190508181035f830152611be08184611b90565b905092915050565b5f80fd5b5f80fd5b7f4e487b71000000000000000000000000000000000000000000000000000000005f52604160045260245ffd5b611c2682611b80565b810181811067ffffffffffffffff82111715611c4557611c44611bf0565b5b80604052505050565b5f611c57611a77565b9050611c638282611c1d565b919050565b5f67ffffffffffffffff821115611c8257611c81611bf0565b5b611c8b82611b80565b9050602081019050919050565b828183375f83830152505050565b5f611cb8611cb384611c68565b611c4e565b905082815260208101848484011115611cd457611cd3611bec565b5b611cdf848285611c98565b509392505050565b5f82601f830112611cfb57611cfa611be8565b5b8135611d0b848260208601611ca6565b91505092915050565b5f8115159050919050565b611d2881611d14565b8114611d32575f80fd5b50565b5f81359050611d4381611d1f565b92915050565b5f8060408385031215611d5f57611d5e611a80565b5b5f83013567ffffffffffffffff811115611d7c57611d7b611a84565b5b611d8885828601611ce7565b9250506020611d9985828601611d35565b9150509250929050565b611dac81611aa7565b82525050565b5f82825260208201905092915050565b5f611dcc82611b3e565b611dd68185611db2565b9350611de6818560208601611b58565b611def81611b80565b840191505092915050565b611e0381611b0d565b82525050565b611e1281611d14565b82525050565b5f61010083015f830151611e2e5f860182611da3565b5060208301518482036020860152611e468282611dc2565b91505060408301518482036040860152611e608282611dc2565b9150506060830151611e756060860182611dfa565b506080830151611e886080860182611dfa565b5060a0830151611e9b60a0860182611dfa565b5060c0830151611eae60c0860182611dfa565b5060e0830151611ec160e0860182611e09565b508091505092915050565b5f6020820190508181035f830152611ee48184611e18565b905092915050565b5f60208284031215611f0157611f00611a80565b5b5f82013567ffffffffffffffff811115611f1e57611f1d611a84565b5b611f2a84828501611ce7565b91505092915050565b5f611f3d82611a88565b9050919050565b611f4d81611f33565b82525050565b611f5c81611d14565b82525050565b5f610180820190508181035f830152611f7b818f611b90565b90508181036020830152611f8f818e611b90565b9050611f9e604083018d611b16565b611fab606083018c611f44565b611fb8608083018b611b16565b611fc560a083018a611b16565b611fd260c0830189611b16565b611fdf60e0830188611b16565b611fed610100830187611f53565b611ffb610120830186611f53565b612009610140830185611f53565b81810361016083015261201c8184611b90565b90509d9c50505050505050505050505050565b5f806040838503121561204557612044611a80565b5b5f83013567ffffffffffffffff81111561206257612061611a84565b5b61206e85828601611ce7565b925050602083013567ffffffffffffffff81111561208f5761208e611a84565b5b61209b85828601611ce7565b9150509250929050565b5f81519050919050565b5f82825260208201905092915050565b5f819050602082019050919050565b5f604083015f8301516120e35f860182611da3565b50602083015184820360208601526120fb8282611dc2565b9150508091505092915050565b5f61211383836120ce565b905092915050565b5f602082019050919050565b5f612131826120a5565b61213b81856120af565b93508360208202850161214d856120bf565b805f5b8581101561218857848403895281516121698582612108565b94506121748361211b565b925060208a01995050600181019050612150565b50829750879550505050505092915050565b5f6020820190508181035f8301526121b28184612127565b905092915050565b5f81519050919050565b5f82825260208201905092915050565b5f819050602082019050919050565b5f606083015f8301518482035f8601526121fd8282611dc2565b915050602083015184820360208601526122178282611dc2565b915050604083015161222c6040860182611dfa565b508091505092915050565b5f61224283836121e3565b905092915050565b5f602082019050919050565b5f612260826121ba565b61226a81856121c4565b93508360208202850161227c856121d4565b805f5b858110156122b757848403895281516122988582612237565b94506122a38361224a565b925060208a0199505060018101905061227f565b50829750879550505050505092915050565b5f6020820190508181035f8301526122e18184612256565b905092915050565b6122f281611b0d565b81146122fc575f80fd5b50565b5f8135905061230d816122e9565b92915050565b61231c81611f33565b8114612326575f80fd5b50565b5f8135905061233781612313565b92915050565b5f805f805f60a0868803121561235657612355611a80565b5b5f86013567ffffffffffffffff81111561237357612372611a84565b5b61237f88828901611ce7565b955050602086013567ffffffffffffffff8111156123a05761239f611a84565b5b6123ac88828901611ce7565b94505060406123bd888289016122ff565b93505060606123ce888289016122ff565b92505060806123df88828901612329565b9150509295509295909350565b6123f581611aa7565b82525050565b5f60208201905061240e5f8301846123ec565b92915050565b7f4e487b71000000000000000000000000000000000000000000000000000000005f52602260045260245ffd5b5f600282049050600182168061245857607f821691505b60208210810361246b5761246a612414565b5b50919050565b5f81905092915050565b5f61248582611b3e565b61248f8185612471565b935061249f818560208601611b58565b80840191505092915050565b5f6124b6828461247b565b915081905092915050565b7f4e487b71000000000000000000000000000000000000000000000000000000005f52601160045260245ffd5b5f6124f882611b0d565b91507fffffffffffffffffffffffffffffffffffffffffffffffffffffffffffffffff820361252a576125296124c1565b5b600182019050919050565b5f819050815f5260205f209050919050565b5f6020601f8301049050919050565b5f82821b905092915050565b5f600883026125917fffffffffffffffffffffffffffffffffffffffffffffffffffffffffffffffff82612556565b61259b8683612556565b95508019841693508086168417925050509392505050565b5f819050919050565b5f6125d66125d16125cc84611b0d565b6125b3565b611b0d565b9050919050565b5f819050919050565b6125ef836125bc565b6126036125fb826125dd565b848454612562565b825550505050565b5f90565b61261761260b565b6126228184846125e6565b505050565b5b818110156126455761263a5f8261260f565b600181019050612628565b5050565b601f82111561268a5761265b81612535565b61266484612547565b81016020851015612673578190505b61268761267f85612547565b830182612627565b50505b505050565b5f82821c905092915050565b5f6126aa5f198460080261268f565b1980831691505092915050565b5f6126c2838361269b565b9150826002028217905092915050565b6126db82611b3e565b67ffffffffffffffff8111156126f4576126f3611bf0565b5b6126fe8254612441565b612709828285612649565b5f60209050601f83116001811461273a575f8415612728578287015190505b61273285826126b7565b865550612799565b601f19841661274886612535565b5f5b8281101561276f5784890151825560018201915060208501945060208101905061274a565b8683101561278c5784890151612788601f89168261269b565b8355505b6001600288020188555050505b505050505050565b5f6127ab82611b0d565b91505f82036127bd576127bc6124c1565b5b60018203905091905056fe416c6c2074686520636f6e7472696275746f7273206861766520766f74656420666f722072656a656374696f6ea26469706673582212207f256db962a38cbc49b011f87c86d8a60aefc97d63548f50fc34629a8dcdcb8364736f6c63430008180033","opcodes":"PUSH1 0x80 PUSH1 0x40 MSTORE CALLVALUE DUP1 ISZERO PUSH3 0x10 JUMPI PUSH0 DUP1 REVERT JUMPDEST POP PUSH1 0x40 MLOAD PUSH3 0x2ECC CODESIZE SUB DUP1 PUSH3 0x2ECC DUP4 CODECOPY DUP2 DUP2 ADD PUSH1 0x40 MSTORE DUP2 ADD SWAP1 PUSH3 0x36 SWAP2 SWAP1 PUSH3 0x2D4 JUMP JUMPDEST PUSH0 DUP3 GT PUSH3 0x42 JUMPI PUSH0 DUP1 REVERT JUMPDEST DUP1 PUSH1 0x2 PUSH0 PUSH2 0x100 EXP DUP2 SLOAD DUP2 PUSH20 0xFFFFFFFFFFFFFFFFFFFFFFFFFFFFFFFFFFFFFFFF MUL NOT AND SWAP1 DUP4 PUSH20 0xFFFFFFFFFFFFFFFFFFFFFFFFFFFFFFFFFFFFFFFF AND MUL OR SWAP1 SSTORE POP DUP4 PUSH0 SWAP1 DUP2 PUSH3 0x92 SWAP2 SWAP1 PUSH3 0x5AF JUMP JUMPDEST POP DUP3 PUSH1 0x1 SWAP1 DUP2 PUSH3 0xA4 SWAP2 SWAP1 PUSH3 0x5AF JUMP JUMPDEST POP DUP2 PUSH1 0x5 DUP2 SWAP1 SSTORE POP POP POP POP POP PUSH3 0x693 JUMP JUMPDEST PUSH0 PUSH1 0x40 MLOAD SWAP1 POP SWAP1 JUMP JUMPDEST PUSH0 DUP1 REVERT JUMPDEST PUSH0 DUP1 REVERT JUMPDEST PUSH0 DUP1 REVERT JUMPDEST PUSH0 DUP1 REVERT JUMPDEST PUSH0 PUSH1 0x1F NOT PUSH1 0x1F DUP4 ADD AND SWAP1 POP SWAP2 SWAP1 POP JUMP JUMPDEST PUSH32 0x4E487B7100000000000000000000000000000000000000000000000000000000 PUSH0 MSTORE PUSH1 0x41 PUSH1 0x4 MSTORE PUSH1 0x24 PUSH0 REVERT JUMPDEST PUSH3 0x117 DUP3 PUSH3 0xCF JUMP JUMPDEST DUP2 ADD DUP2 DUP2 LT PUSH8 0xFFFFFFFFFFFFFFFF DUP3 GT OR ISZERO PUSH3 0x139 JUMPI PUSH3 0x138 PUSH3 0xDF JUMP JUMPDEST JUMPDEST DUP1 PUSH1 0x40 MSTORE POP POP POP JUMP JUMPDEST PUSH0 PUSH3 0x14D PUSH3 0xB6 JUMP JUMPDEST SWAP1 POP PUSH3 0x15B DUP3 DUP3 PUSH3 0x10C JUMP JUMPDEST SWAP2 SWAP1 POP JUMP JUMPDEST PUSH0 PUSH8 0xFFFFFFFFFFFFFFFF DUP3 GT ISZERO PUSH3 0x17D JUMPI PUSH3 0x17C PUSH3 0xDF JUMP JUMPDEST JUMPDEST PUSH3 0x188 DUP3 PUSH3 0xCF JUMP JUMPDEST SWAP1 POP PUSH1 0x20 DUP2 ADD SWAP1 POP SWAP2 SWAP1 POP JUMP JUMPDEST PUSH0 JUMPDEST DUP4 DUP2 LT ISZERO PUSH3 0x1B4 JUMPI DUP1 DUP3 ADD MLOAD DUP2 DUP5 ADD MSTORE PUSH1 0x20 DUP2 ADD SWAP1 POP PUSH3 0x197 JUMP JUMPDEST PUSH0 DUP5 DUP5 ADD MSTORE POP POP POP POP JUMP JUMPDEST PUSH0 PUSH3 0x1D5 PUSH3 0x1CF DUP5 PUSH3 0x160 JUMP JUMPDEST PUSH3 0x142 JUMP JUMPDEST SWAP1 POP DUP3 DUP2 MSTORE PUSH1 0x20 DUP2 ADD DUP5 DUP5 DUP5 ADD GT ISZERO PUSH3 0x1F4 JUMPI PUSH3 0x1F3 PUSH3 0xCB JUMP JUMPDEST JUMPDEST PUSH3 0x201 DUP5 DUP3 DUP6 PUSH3 0x195 JUMP JUMPDEST POP SWAP4 SWAP3 POP POP POP JUMP JUMPDEST PUSH0 DUP3 PUSH1 0x1F DUP4 ADD SLT PUSH3 0x220 JUMPI PUSH3 0x21F PUSH3 0xC7 JUMP JUMPDEST JUMPDEST DUP2 MLOAD PUSH3 0x232 DUP5 DUP3 PUSH1 0x20 DUP7 ADD PUSH3 0x1BF JUMP JUMPDEST SWAP2 POP POP SWAP3 SWAP2 POP POP JUMP JUMPDEST PUSH0 DUP2 SWAP1 POP SWAP2 SWAP1 POP JUMP JUMPDEST PUSH3 0x24F DUP2 PUSH3 0x23B JUMP JUMPDEST DUP2 EQ PUSH3 0x25A JUMPI PUSH0 DUP1 REVERT JUMPDEST POP JUMP JUMPDEST PUSH0 DUP2 MLOAD SWAP1 POP PUSH3 0x26D DUP2 PUSH3 0x244 JUMP JUMPDEST SWAP3 SWAP2 POP POP JUMP JUMPDEST PUSH0 PUSH20 0xFFFFFFFFFFFFFFFFFFFFFFFFFFFFFFFFFFFFFFFF DUP3 AND SWAP1 POP SWAP2 SWAP1 POP JUMP JUMPDEST PUSH0 PUSH3 0x29E DUP3 PUSH3 0x273 JUMP JUMPDEST SWAP1 POP SWAP2 SWAP1 POP JUMP JUMPDEST PUSH3 0x2B0 DUP2 PUSH3 0x292 JUMP JUMPDEST DUP2 EQ PUSH3 0x2BB JUMPI PUSH0 DUP1 REVERT JUMPDEST POP JUMP JUMPDEST PUSH0 DUP2 MLOAD SWAP1 POP PUSH3 0x2CE DUP2 PUSH3 0x2A5 JUMP JUMPDEST SWAP3 SWAP2 POP POP JUMP JUMPDEST PUSH0 DUP1 PUSH0 DUP1 PUSH1 0x80 DUP6 DUP8 SUB SLT ISZERO PUSH3 0x2EF JUMPI PUSH3 0x2EE PUSH3 0xBF JUMP JUMPDEST JUMPDEST PUSH0 DUP6 ADD MLOAD PUSH8 0xFFFFFFFFFFFFFFFF DUP2 GT ISZERO PUSH3 0x30F JUMPI PUSH3 0x30E PUSH3 0xC3 JUMP JUMPDEST JUMPDEST PUSH3 0x31D DUP8 DUP3 DUP9 ADD PUSH3 0x209 JUMP JUMPDEST SWAP5 POP POP PUSH1 0x20 DUP6 ADD MLOAD PUSH8 0xFFFFFFFFFFFFFFFF DUP2 GT ISZERO PUSH3 0x341 JUMPI PUSH3 0x340 PUSH3 0xC3 JUMP JUMPDEST JUMPDEST PUSH3 0x34F DUP8 DUP3 DUP9 ADD PUSH3 0x209 JUMP JUMPDEST SWAP4 POP POP PUSH1 0x40 PUSH3 0x362 DUP8 DUP3 DUP9 ADD PUSH3 0x25D JUMP JUMPDEST SWAP3 POP POP PUSH1 0x60 PUSH3 0x375 DUP8 DUP3 DUP9 ADD PUSH3 0x2BE JUMP JUMPDEST SWAP2 POP POP SWAP3 SWAP6 SWAP2 SWAP5 POP SWAP3 POP JUMP JUMPDEST PUSH0 DUP2 MLOAD SWAP1 POP SWAP2 SWAP1 POP JUMP JUMPDEST PUSH32 0x4E487B7100000000000000000000000000000000000000000000000000000000 PUSH0 MSTORE PUSH1 0x22 PUSH1 0x4 MSTORE PUSH1 0x24 PUSH0 REVERT JUMPDEST PUSH0 PUSH1 0x2 DUP3 DIV SWAP1 POP PUSH1 0x1 DUP3 AND DUP1 PUSH3 0x3D0 JUMPI PUSH1 0x7F DUP3 AND SWAP2 POP JUMPDEST PUSH1 0x20 DUP3 LT DUP2 SUB PUSH3 0x3E6 JUMPI PUSH3 0x3E5 PUSH3 0x38B JUMP JUMPDEST JUMPDEST POP SWAP2 SWAP1 POP JUMP JUMPDEST PUSH0 DUP2 SWAP1 POP DUP2 PUSH0 MSTORE PUSH1 0x20 PUSH0 KECCAK256 SWAP1 POP SWAP2 SWAP1 POP JUMP JUMPDEST PUSH0 PUSH1 0x20 PUSH1 0x1F DUP4 ADD DIV SWAP1 POP SWAP2 SWAP1 POP JUMP JUMPDEST PUSH0 DUP3 DUP3 SHL SWAP1 POP SWAP3 SWAP2 POP POP JUMP JUMPDEST PUSH0 PUSH1 0x8 DUP4 MUL PUSH3 0x44A PUSH32 0xFFFFFFFFFFFFFFFFFFFFFFFFFFFFFFFFFFFFFFFFFFFFFFFFFFFFFFFFFFFFFFFF DUP3 PUSH3 0x40D JUMP JUMPDEST PUSH3 0x456 DUP7 DUP4 PUSH3 0x40D JUMP JUMPDEST SWAP6 POP DUP1 NOT DUP5 AND SWAP4 POP DUP1 DUP7 AND DUP5 OR SWAP3 POP POP POP SWAP4 SWAP3 POP POP POP JUMP JUMPDEST PUSH0 DUP2 SWAP1 POP SWAP2 SWAP1 POP JUMP JUMPDEST PUSH0 PUSH3 0x497 PUSH3 0x491 PUSH3 0x48B DUP5 PUSH3 0x23B JUMP JUMPDEST PUSH3 0x46E JUMP JUMPDEST PUSH3 0x23B JUMP JUMPDEST SWAP1 POP SWAP2 SWAP1 POP JUMP JUMPDEST PUSH0 DUP2 SWAP1 POP SWAP2 SWAP1 POP JUMP JUMPDEST PUSH3 0x4B2 DUP4 PUSH3 0x477 JUMP JUMPDEST PUSH3 0x4CA PUSH3 0x4C1 DUP3 PUSH3 0x49E JUMP JUMPDEST DUP5 DUP5 SLOAD PUSH3 0x419 JUMP JUMPDEST DUP3 SSTORE POP POP POP POP JUMP JUMPDEST PUSH0 SWAP1 JUMP JUMPDEST PUSH3 0x4E0 PUSH3 0x4D2 JUMP JUMPDEST PUSH3 0x4ED DUP2 DUP5 DUP5 PUSH3 0x4A7 JUMP JUMPDEST POP POP POP JUMP JUMPDEST JUMPDEST DUP2 DUP2 LT ISZERO PUSH3 0x514 JUMPI PUSH3 0x508 PUSH0 DUP3 PUSH3 0x4D6 JUMP JUMPDEST PUSH1 0x1 DUP2 ADD SWAP1 POP PUSH3 0x4F3 JUMP JUMPDEST POP POP JUMP JUMPDEST PUSH1 0x1F DUP3 GT ISZERO PUSH3 0x563 JUMPI PUSH3 0x52D DUP2 PUSH3 0x3EC JUMP JUMPDEST PUSH3 0x538 DUP5 PUSH3 0x3FE JUMP JUMPDEST DUP2 ADD PUSH1 0x20 DUP6 LT ISZERO PUSH3 0x548 JUMPI DUP2 SWAP1 POP JUMPDEST PUSH3 0x560 PUSH3 0x557 DUP6 PUSH3 0x3FE JUMP JUMPDEST DUP4 ADD DUP3 PUSH3 0x4F2 JUMP JUMPDEST POP POP JUMPDEST POP POP POP JUMP JUMPDEST PUSH0 DUP3 DUP3 SHR SWAP1 POP SWAP3 SWAP2 POP POP JUMP JUMPDEST PUSH0 PUSH3 0x585 PUSH0 NOT DUP5 PUSH1 0x8 MUL PUSH3 0x568 JUMP JUMPDEST NOT DUP1 DUP4 AND SWAP2 POP POP SWAP3 SWAP2 POP POP JUMP JUMPDEST PUSH0 PUSH3 0x59F DUP4 DUP4 PUSH3 0x574 JUMP JUMPDEST SWAP2 POP DUP3 PUSH1 0x2 MUL DUP3 OR SWAP1 POP SWAP3 SWAP2 POP POP JUMP JUMPDEST PUSH3 0x5BA DUP3 PUSH3 0x381 JUMP JUMPDEST PUSH8 0xFFFFFFFFFFFFFFFF DUP2 GT ISZERO PUSH3 0x5D6 JUMPI PUSH3 0x5D5 PUSH3 0xDF JUMP JUMPDEST JUMPDEST PUSH3 0x5E2 DUP3 SLOAD PUSH3 0x3B8 JUMP JUMPDEST PUSH3 0x5EF DUP3 DUP3 DUP6 PUSH3 0x518 JUMP JUMPDEST PUSH0 PUSH1 0x20 SWAP1 POP PUSH1 0x1F DUP4 GT PUSH1 0x1 DUP2 EQ PUSH3 0x625 JUMPI PUSH0 DUP5 ISZERO PUSH3 0x610 JUMPI DUP3 DUP8 ADD MLOAD SWAP1 POP JUMPDEST PUSH3 0x61C DUP6 DUP3 PUSH3 0x592 JUMP JUMPDEST DUP7 SSTORE POP PUSH3 0x68B JUMP JUMPDEST PUSH1 0x1F NOT DUP5 AND PUSH3 0x635 DUP7 PUSH3 0x3EC JUMP JUMPDEST PUSH0 JUMPDEST DUP3 DUP2 LT ISZERO PUSH3 0x65E JUMPI DUP5 DUP10 ADD MLOAD DUP3 SSTORE PUSH1 0x1 DUP3 ADD SWAP2 POP PUSH1 0x20 DUP6 ADD SWAP5 POP PUSH1 0x20 DUP2 ADD SWAP1 POP PUSH3 0x637 JUMP JUMPDEST DUP7 DUP4 LT ISZERO PUSH3 0x67E JUMPI DUP5 DUP10 ADD MLOAD PUSH3 0x67A PUSH1 0x1F DUP10 AND DUP3 PUSH3 0x574 JUMP JUMPDEST DUP4 SSTORE POP JUMPDEST PUSH1 0x1 PUSH1 0x2 DUP9 MUL ADD DUP9 SSTORE POP POP POP JUMPDEST POP POP POP POP POP POP JUMP JUMPDEST PUSH2 0x282B DUP1 PUSH3 0x6A1 PUSH0 CODECOPY PUSH0 RETURN INVALID PUSH1 0x80 PUSH1 0x40 MSTORE PUSH1 0x4 CALLDATASIZE LT PUSH2 0x129 JUMPI PUSH0 CALLDATALOAD PUSH1 0xE0 SHR DUP1 PUSH4 0x885E7C62 GT PUSH2 0xAA JUMPI DUP1 PUSH4 0xD5009584 GT PUSH2 0x6E JUMPI DUP1 PUSH4 0xD5009584 EQ PUSH2 0x396 JUMPI DUP1 PUSH4 0xD7BB99BA EQ PUSH2 0x3C0 JUMPI DUP1 PUSH4 0xE2E46B52 EQ PUSH2 0x3CA JUMPI DUP1 PUSH4 0xF0190215 EQ PUSH2 0x3F2 JUMPI DUP1 PUSH4 0xF84038B1 EQ PUSH2 0x41A JUMPI DUP1 PUSH4 0xFEED5561 EQ PUSH2 0x444 JUMPI PUSH2 0x129 JUMP JUMPDEST DUP1 PUSH4 0x885E7C62 EQ PUSH2 0x30E JUMPI DUP1 PUSH4 0x980E7844 EQ PUSH2 0x338 JUMPI DUP1 PUSH4 0xA26759CB EQ PUSH2 0x34E JUMPI DUP1 PUSH4 0xA7AC8000 EQ PUSH2 0x358 JUMPI DUP1 PUSH4 0xAC307773 EQ PUSH2 0x380 JUMPI PUSH2 0x129 JUMP JUMPDEST DUP1 PUSH4 0x692D51D2 GT PUSH2 0xF1 JUMPI DUP1 PUSH4 0x692D51D2 EQ PUSH2 0x20F JUMPI DUP1 PUSH4 0x6F9FB98A EQ PUSH2 0x256 JUMPI DUP1 PUSH4 0x72A8D706 EQ PUSH2 0x280 JUMPI DUP1 PUSH4 0x7D6E5B9E EQ PUSH2 0x2A8 JUMPI DUP1 PUSH4 0x8813CE12 EQ PUSH2 0x2E4 JUMPI PUSH2 0x129 JUMP JUMPDEST DUP1 PUSH4 0xA144391 EQ PUSH2 0x12D JUMPI DUP1 PUSH4 0x1A092541 EQ PUSH2 0x169 JUMPI DUP1 PUSH4 0x30E8FC5C EQ PUSH2 0x193 JUMPI DUP1 PUSH4 0x3410452A EQ PUSH2 0x1BB JUMPI DUP1 PUSH4 0x4051DDAC EQ PUSH2 0x1E5 JUMPI JUMPDEST PUSH0 DUP1 REVERT JUMPDEST CALLVALUE DUP1 ISZERO PUSH2 0x138 JUMPI PUSH0 DUP1 REVERT JUMPDEST POP PUSH2 0x153 PUSH1 0x4 DUP1 CALLDATASIZE SUB DUP2 ADD SWAP1 PUSH2 0x14E SWAP2 SWAP1 PUSH2 0x1AE2 JUMP JUMPDEST PUSH2 0x46E JUMP JUMPDEST PUSH1 0x40 MLOAD PUSH2 0x160 SWAP2 SWAP1 PUSH2 0x1B25 JUMP JUMPDEST PUSH1 0x40 MLOAD DUP1 SWAP2 SUB SWAP1 RETURN JUMPDEST CALLVALUE DUP1 ISZERO PUSH2 0x174 JUMPI PUSH0 DUP1 REVERT JUMPDEST POP PUSH2 0x17D PUSH2 0x483 JUMP JUMPDEST PUSH1 0x40 MLOAD PUSH2 0x18A SWAP2 SWAP1 PUSH2 0x1BC8 JUMP JUMPDEST PUSH1 0x40 MLOAD DUP1 SWAP2 SUB SWAP1 RETURN JUMPDEST CALLVALUE DUP1 ISZERO PUSH2 0x19E JUMPI PUSH0 DUP1 REVERT JUMPDEST POP PUSH2 0x1B9 PUSH1 0x4 DUP1 CALLDATASIZE SUB DUP2 ADD SWAP1 PUSH2 0x1B4 SWAP2 SWAP1 PUSH2 0x1D49 JUMP JUMPDEST PUSH2 0x513 JUMP JUMPDEST STOP JUMPDEST CALLVALUE DUP1 ISZERO PUSH2 0x1C6 JUMPI PUSH0 DUP1 REVERT JUMPDEST POP PUSH2 0x1CF PUSH2 0x7E1 JUMP JUMPDEST PUSH1 0x40 MLOAD PUSH2 0x1DC SWAP2 SWAP1 PUSH2 0x1B25 JUMP JUMPDEST PUSH1 0x40 MLOAD DUP1 SWAP2 SUB SWAP1 RETURN JUMPDEST CALLVALUE DUP1 ISZERO PUSH2 0x1F0 JUMPI PUSH0 DUP1 REVERT JUMPDEST POP PUSH2 0x1F9 PUSH2 0x7EA JUMP JUMPDEST PUSH1 0x40 MLOAD PUSH2 0x206 SWAP2 SWAP1 PUSH2 0x1ECC JUMP JUMPDEST PUSH1 0x40 MLOAD DUP1 SWAP2 SUB SWAP1 RETURN JUMPDEST CALLVALUE DUP1 ISZERO PUSH2 0x21A JUMPI PUSH0 DUP1 REVERT JUMPDEST POP PUSH2 0x235 PUSH1 0x4 DUP1 CALLDATASIZE SUB DUP2 ADD SWAP1 PUSH2 0x230 SWAP2 SWAP1 PUSH2 0x1EEC JUMP JUMPDEST PUSH2 0x992 JUMP JUMPDEST PUSH1 0x40 MLOAD PUSH2 0x24D SWAP13 SWAP12 SWAP11 SWAP10 SWAP9 SWAP8 SWAP7 SWAP6 SWAP5 SWAP4 SWAP3 SWAP2 SWAP1 PUSH2 0x1F62 JUMP JUMPDEST PUSH1 0x40 MLOAD DUP1 SWAP2 SUB SWAP1 RETURN JUMPDEST CALLVALUE DUP1 ISZERO PUSH2 0x261 JUMPI PUSH0 DUP1 REVERT JUMPDEST POP PUSH2 0x26A PUSH2 0xBDD JUMP JUMPDEST PUSH1 0x40 MLOAD PUSH2 0x277 SWAP2 SWAP1 PUSH2 0x1B25 JUMP JUMPDEST PUSH1 0x40 MLOAD DUP1 SWAP2 SUB SWAP1 RETURN JUMPDEST CALLVALUE DUP1 ISZERO PUSH2 0x28B JUMPI PUSH0 DUP1 REVERT JUMPDEST POP PUSH2 0x2A6 PUSH1 0x4 DUP1 CALLDATASIZE SUB DUP2 ADD SWAP1 PUSH2 0x2A1 SWAP2 SWAP1 PUSH2 0x202F JUMP JUMPDEST PUSH2 0xBE4 JUMP JUMPDEST STOP JUMPDEST CALLVALUE DUP1 ISZERO PUSH2 0x2B3 JUMPI PUSH0 DUP1 REVERT JUMPDEST POP PUSH2 0x2CE PUSH1 0x4 DUP1 CALLDATASIZE SUB DUP2 ADD SWAP1 PUSH2 0x2C9 SWAP2 SWAP1 PUSH2 0x1EEC JUMP JUMPDEST PUSH2 0xD24 JUMP JUMPDEST PUSH1 0x40 MLOAD PUSH2 0x2DB SWAP2 SWAP1 PUSH2 0x219A JUMP JUMPDEST PUSH1 0x40 MLOAD DUP1 SWAP2 SUB SWAP1 RETURN JUMPDEST CALLVALUE DUP1 ISZERO PUSH2 0x2EF JUMPI PUSH0 DUP1 REVERT JUMPDEST POP PUSH2 0x2F8 PUSH2 0xEBC JUMP JUMPDEST PUSH1 0x40 MLOAD PUSH2 0x305 SWAP2 SWAP1 PUSH2 0x22C9 JUMP JUMPDEST PUSH1 0x40 MLOAD DUP1 SWAP2 SUB SWAP1 RETURN JUMPDEST CALLVALUE DUP1 ISZERO PUSH2 0x319 JUMPI PUSH0 DUP1 REVERT JUMPDEST POP PUSH2 0x322 PUSH2 0x1041 JUMP JUMPDEST PUSH1 0x40 MLOAD PUSH2 0x32F SWAP2 SWAP1 PUSH2 0x1BC8 JUMP JUMPDEST PUSH1 0x40 MLOAD DUP1 SWAP2 SUB SWAP1 RETURN JUMPDEST CALLVALUE DUP1 ISZERO PUSH2 0x343 JUMPI PUSH0 DUP1 REVERT JUMPDEST POP PUSH2 0x34C PUSH2 0x10D0 JUMP JUMPDEST STOP JUMPDEST PUSH2 0x356 PUSH2 0x1144 JUMP JUMPDEST STOP JUMPDEST CALLVALUE DUP1 ISZERO PUSH2 0x363 JUMPI PUSH0 DUP1 REVERT JUMPDEST POP PUSH2 0x37E PUSH1 0x4 DUP1 CALLDATASIZE SUB DUP2 ADD SWAP1 PUSH2 0x379 SWAP2 SWAP1 PUSH2 0x233D JUMP JUMPDEST PUSH2 0x119E JUMP JUMPDEST STOP JUMPDEST CALLVALUE DUP1 ISZERO PUSH2 0x38B JUMPI PUSH0 DUP1 REVERT JUMPDEST POP PUSH2 0x394 PUSH2 0x13D5 JUMP JUMPDEST STOP JUMPDEST CALLVALUE DUP1 ISZERO PUSH2 0x3A1 JUMPI PUSH0 DUP1 REVERT JUMPDEST POP PUSH2 0x3AA PUSH2 0x1510 JUMP JUMPDEST PUSH1 0x40 MLOAD PUSH2 0x3B7 SWAP2 SWAP1 PUSH2 0x23FB JUMP JUMPDEST PUSH1 0x40 MLOAD DUP1 SWAP2 SUB SWAP1 RETURN JUMPDEST PUSH2 0x3C8 PUSH2 0x1538 JUMP JUMPDEST STOP JUMPDEST CALLVALUE DUP1 ISZERO PUSH2 0x3D5 JUMPI PUSH0 DUP1 REVERT JUMPDEST POP PUSH2 0x3F0 PUSH1 0x4 DUP1 CALLDATASIZE SUB DUP2 ADD SWAP1 PUSH2 0x3EB SWAP2 SWAP1 PUSH2 0x1EEC JUMP JUMPDEST PUSH2 0x1601 JUMP JUMPDEST STOP JUMPDEST CALLVALUE DUP1 ISZERO PUSH2 0x3FD JUMPI PUSH0 DUP1 REVERT JUMPDEST POP PUSH2 0x418 PUSH1 0x4 DUP1 CALLDATASIZE SUB DUP2 ADD SWAP1 PUSH2 0x413 SWAP2 SWAP1 PUSH2 0x202F JUMP JUMPDEST PUSH2 0x17B2 JUMP JUMPDEST STOP JUMPDEST CALLVALUE DUP1 ISZERO PUSH2 0x425 JUMPI PUSH0 DUP1 REVERT JUMPDEST POP PUSH2 0x42E PUSH2 0x1A0E JUMP JUMPDEST PUSH1 0x40 MLOAD PUSH2 0x43B SWAP2 SWAP1 PUSH2 0x1B25 JUMP JUMPDEST PUSH1 0x40 MLOAD DUP1 SWAP2 SUB SWAP1 RETURN JUMPDEST CALLVALUE DUP1 ISZERO PUSH2 0x44F JUMPI PUSH0 DUP1 REVERT JUMPDEST POP PUSH2 0x458 PUSH2 0x1A17 JUMP JUMPDEST PUSH1 0x40 MLOAD PUSH2 0x465 SWAP2 SWAP1 PUSH2 0x1B25 JUMP JUMPDEST PUSH1 0x40 MLOAD DUP1 SWAP2 SUB SWAP1 RETURN JUMPDEST PUSH1 0x3 PUSH1 0x20 MSTORE DUP1 PUSH0 MSTORE PUSH1 0x40 PUSH0 KECCAK256 PUSH0 SWAP2 POP SWAP1 POP SLOAD DUP2 JUMP JUMPDEST PUSH1 0x60 PUSH1 0x1 DUP1 SLOAD PUSH2 0x492 SWAP1 PUSH2 0x2441 JUMP JUMPDEST DUP1 PUSH1 0x1F ADD PUSH1 0x20 DUP1 SWAP2 DIV MUL PUSH1 0x20 ADD PUSH1 0x40 MLOAD SWAP1 DUP2 ADD PUSH1 0x40 MSTORE DUP1 SWAP3 SWAP2 SWAP1 DUP2 DUP2 MSTORE PUSH1 0x20 ADD DUP3 DUP1 SLOAD PUSH2 0x4BE SWAP1 PUSH2 0x2441 JUMP JUMPDEST DUP1 ISZERO PUSH2 0x509 JUMPI DUP1 PUSH1 0x1F LT PUSH2 0x4E0 JUMPI PUSH2 0x100 DUP1 DUP4 SLOAD DIV MUL DUP4 MSTORE SWAP2 PUSH1 0x20 ADD SWAP2 PUSH2 0x509 JUMP JUMPDEST DUP3 ADD SWAP2 SWAP1 PUSH0 MSTORE PUSH1 0x20 PUSH0 KECCAK256 SWAP1 JUMPDEST DUP2 SLOAD DUP2 MSTORE SWAP1 PUSH1 0x1 ADD SWAP1 PUSH1 0x20 ADD DUP1 DUP4 GT PUSH2 0x4EC JUMPI DUP3 SWAP1 SUB PUSH1 0x1F AND DUP3 ADD SWAP2 JUMPDEST POP POP POP POP POP SWAP1 POP SWAP1 JUMP JUMPDEST PUSH0 PUSH1 0x3 PUSH0 CALLER PUSH20 0xFFFFFFFFFFFFFFFFFFFFFFFFFFFFFFFFFFFFFFFF AND PUSH20 0xFFFFFFFFFFFFFFFFFFFFFFFFFFFFFFFFFFFFFFFF AND DUP2 MSTORE PUSH1 0x20 ADD SWAP1 DUP2 MSTORE PUSH1 0x20 ADD PUSH0 KECCAK256 SLOAD SUB PUSH2 0x55B JUMPI PUSH0 DUP1 REVERT JUMPDEST PUSH1 0x9 PUSH0 SWAP1 SLOAD SWAP1 PUSH2 0x100 EXP SWAP1 DIV PUSH1 0xFF AND ISZERO PUSH2 0x573 JUMPI PUSH0 DUP1 REVERT JUMPDEST PUSH1 0x2 PUSH0 SWAP1 SLOAD SWAP1 PUSH2 0x100 EXP SWAP1 DIV PUSH20 0xFFFFFFFFFFFFFFFFFFFFFFFFFFFFFFFFFFFFFFFF AND PUSH20 0xFFFFFFFFFFFFFFFFFFFFFFFFFFFFFFFFFFFFFFFF AND CALLER PUSH20 0xFFFFFFFFFFFFFFFFFFFFFFFFFFFFFFFFFFFFFFFF AND SUB PUSH2 0x5CB JUMPI PUSH0 DUP1 REVERT JUMPDEST PUSH0 PUSH1 0x7 DUP4 PUSH1 0x40 MLOAD PUSH2 0x5DC SWAP2 SWAP1 PUSH2 0x24AB JUMP JUMPDEST SWAP1 DUP2 MSTORE PUSH1 0x20 ADD PUSH1 0x40 MLOAD DUP1 SWAP2 SUB SWAP1 KECCAK256 SWAP1 POP PUSH0 DUP2 PUSH0 ADD DUP1 SLOAD PUSH2 0x5FB SWAP1 PUSH2 0x2441 JUMP JUMPDEST SWAP1 POP GT PUSH2 0x606 JUMPI PUSH0 DUP1 REVERT JUMPDEST DUP3 MLOAD DUP2 PUSH0 ADD DUP1 SLOAD PUSH2 0x616 SWAP1 PUSH2 0x2441 JUMP JUMPDEST SWAP1 POP EQ PUSH2 0x621 JUMPI PUSH0 DUP1 REVERT JUMPDEST DUP1 PUSH1 0x8 ADD PUSH0 SWAP1 SLOAD SWAP1 PUSH2 0x100 EXP SWAP1 DIV PUSH1 0xFF AND ISZERO PUSH2 0x63B JUMPI PUSH0 DUP1 REVERT JUMPDEST DUP1 PUSH1 0x8 ADD PUSH1 0x1 SWAP1 SLOAD SWAP1 PUSH2 0x100 EXP SWAP1 DIV PUSH1 0xFF AND ISZERO PUSH2 0x656 JUMPI PUSH0 DUP1 REVERT JUMPDEST DUP1 PUSH1 0x8 ADD PUSH1 0x2 SWAP1 SLOAD SWAP1 PUSH2 0x100 EXP SWAP1 DIV PUSH1 0xFF AND ISZERO PUSH2 0x671 JUMPI PUSH0 DUP1 REVERT JUMPDEST DUP1 PUSH1 0xA ADD PUSH0 CALLER PUSH20 0xFFFFFFFFFFFFFFFFFFFFFFFFFFFFFFFFFFFFFFFF AND PUSH20 0xFFFFFFFFFFFFFFFFFFFFFFFFFFFFFFFFFFFFFFFF AND DUP2 MSTORE PUSH1 0x20 ADD SWAP1 DUP2 MSTORE PUSH1 0x20 ADD PUSH0 KECCAK256 PUSH0 SWAP1 SLOAD SWAP1 PUSH2 0x100 EXP SWAP1 DIV PUSH1 0xFF AND ISZERO PUSH2 0x6C6 JUMPI PUSH0 DUP1 REVERT JUMPDEST PUSH1 0x1 DUP2 PUSH1 0xA ADD PUSH0 CALLER PUSH20 0xFFFFFFFFFFFFFFFFFFFFFFFFFFFFFFFFFFFFFFFF AND PUSH20 0xFFFFFFFFFFFFFFFFFFFFFFFFFFFFFFFFFFFFFFFF AND DUP2 MSTORE PUSH1 0x20 ADD SWAP1 DUP2 MSTORE PUSH1 0x20 ADD PUSH0 KECCAK256 PUSH0 PUSH2 0x100 EXP DUP2 SLOAD DUP2 PUSH1 0xFF MUL NOT AND SWAP1 DUP4 ISZERO ISZERO MUL OR SWAP1 SSTORE POP DUP2 ISZERO PUSH2 0x741 JUMPI DUP1 PUSH1 0x4 ADD PUSH0 DUP2 SLOAD DUP1 SWAP3 SWAP2 SWAP1 PUSH2 0x737 SWAP1 PUSH2 0x24EE JUMP JUMPDEST SWAP2 SWAP1 POP SSTORE POP PUSH2 0x75B JUMP JUMPDEST DUP1 PUSH1 0x6 ADD PUSH0 DUP2 SLOAD DUP1 SWAP3 SWAP2 SWAP1 PUSH2 0x755 SWAP1 PUSH2 0x24EE JUMP JUMPDEST SWAP2 SWAP1 POP SSTORE POP JUMPDEST DUP1 PUSH1 0x5 ADD SLOAD DUP2 PUSH1 0x4 ADD SLOAD LT PUSH2 0x787 JUMPI PUSH1 0x1 DUP2 PUSH1 0x8 ADD PUSH0 PUSH2 0x100 EXP DUP2 SLOAD DUP2 PUSH1 0xFF MUL NOT AND SWAP1 DUP4 ISZERO ISZERO MUL OR SWAP1 SSTORE POP JUMPDEST PUSH1 0x4 SLOAD DUP2 PUSH1 0x6 ADD SLOAD LT PUSH2 0x7DC JUMPI PUSH1 0x1 DUP2 PUSH1 0x8 ADD PUSH1 0x2 PUSH2 0x100 EXP DUP2 SLOAD DUP2 PUSH1 0xFF MUL NOT AND SWAP1 DUP4 ISZERO ISZERO MUL OR SWAP1 SSTORE POP PUSH1 0x40 MLOAD DUP1 PUSH1 0x60 ADD PUSH1 0x40 MSTORE DUP1 PUSH1 0x2D DUP2 MSTORE PUSH1 0x20 ADD PUSH2 0x27C9 PUSH1 0x2D SWAP2 CODECOPY DUP2 PUSH1 0x9 ADD SWAP1 DUP2 PUSH2 0x7DA SWAP2 SWAP1 PUSH2 0x26D2 JUMP JUMPDEST POP JUMPDEST POP POP POP JUMP JUMPDEST PUSH0 PUSH1 0x8 SLOAD SWAP1 POP SWAP1 JUMP JUMPDEST PUSH2 0x7F2 PUSH2 0x1A20 JUMP JUMPDEST PUSH0 PUSH1 0x40 MLOAD DUP1 PUSH2 0x100 ADD PUSH1 0x40 MSTORE DUP1 PUSH1 0x2 PUSH0 SWAP1 SLOAD SWAP1 PUSH2 0x100 EXP SWAP1 DIV PUSH20 0xFFFFFFFFFFFFFFFFFFFFFFFFFFFFFFFFFFFFFFFF AND PUSH20 0xFFFFFFFFFFFFFFFFFFFFFFFFFFFFFFFFFFFFFFFF AND DUP2 MSTORE PUSH1 0x20 ADD PUSH0 DUP1 SLOAD PUSH2 0x848 SWAP1 PUSH2 0x2441 JUMP JUMPDEST DUP1 PUSH1 0x1F ADD PUSH1 0x20 DUP1 SWAP2 DIV MUL PUSH1 0x20 ADD PUSH1 0x40 MLOAD SWAP1 DUP2 ADD PUSH1 0x40 MSTORE DUP1 SWAP3 SWAP2 SWAP1 DUP2 DUP2 MSTORE PUSH1 0x20 ADD DUP3 DUP1 SLOAD PUSH2 0x874 SWAP1 PUSH2 0x2441 JUMP JUMPDEST DUP1 ISZERO PUSH2 0x8BF JUMPI DUP1 PUSH1 0x1F LT PUSH2 0x896 JUMPI PUSH2 0x100 DUP1 DUP4 SLOAD DIV MUL DUP4 MSTORE SWAP2 PUSH1 0x20 ADD SWAP2 PUSH2 0x8BF JUMP JUMPDEST DUP3 ADD SWAP2 SWAP1 PUSH0 MSTORE PUSH1 0x20 PUSH0 KECCAK256 SWAP1 JUMPDEST DUP2 SLOAD DUP2 MSTORE SWAP1 PUSH1 0x1 ADD SWAP1 PUSH1 0x20 ADD DUP1 DUP4 GT PUSH2 0x8A2 JUMPI DUP3 SWAP1 SUB PUSH1 0x1F AND DUP3 ADD SWAP2 JUMPDEST POP POP POP POP POP DUP2 MSTORE PUSH1 0x20 ADD PUSH1 0x1 DUP1 SLOAD PUSH2 0x8D6 SWAP1 PUSH2 0x2441 JUMP JUMPDEST DUP1 PUSH1 0x1F ADD PUSH1 0x20 DUP1 SWAP2 DIV MUL PUSH1 0x20 ADD PUSH1 0x40 MLOAD SWAP1 DUP2 ADD PUSH1 0x40 MSTORE DUP1 SWAP3 SWAP2 SWAP1 DUP2 DUP2 MSTORE PUSH1 0x20 ADD DUP3 DUP1 SLOAD PUSH2 0x902 SWAP1 PUSH2 0x2441 JUMP JUMPDEST DUP1 ISZERO PUSH2 0x94D JUMPI DUP1 PUSH1 0x1F LT PUSH2 0x924 JUMPI PUSH2 0x100 DUP1 DUP4 SLOAD DIV MUL DUP4 MSTORE SWAP2 PUSH1 0x20 ADD SWAP2 PUSH2 0x94D JUMP JUMPDEST DUP3 ADD SWAP2 SWAP1 PUSH0 MSTORE PUSH1 0x20 PUSH0 KECCAK256 SWAP1 JUMPDEST DUP2 SLOAD DUP2 MSTORE SWAP1 PUSH1 0x1 ADD SWAP1 PUSH1 0x20 ADD DUP1 DUP4 GT PUSH2 0x930 JUMPI DUP3 SWAP1 SUB PUSH1 0x1F AND DUP3 ADD SWAP2 JUMPDEST POP POP POP POP POP DUP2 MSTORE PUSH1 0x20 ADD PUSH1 0x5 SLOAD DUP2 MSTORE PUSH1 0x20 ADD SELFBALANCE DUP2 MSTORE PUSH1 0x20 ADD PUSH1 0x4 SLOAD DUP2 MSTORE PUSH1 0x20 ADD PUSH1 0x8 SLOAD DUP2 MSTORE PUSH1 0x20 ADD PUSH1 0x9 PUSH0 SWAP1 SLOAD SWAP1 PUSH2 0x100 EXP SWAP1 DIV PUSH1 0xFF AND ISZERO ISZERO DUP2 MSTORE POP SWAP1 POP DUP1 SWAP2 POP POP SWAP1 JUMP JUMPDEST PUSH1 0x7 DUP2 DUP1 MLOAD PUSH1 0x20 DUP2 ADD DUP3 ADD DUP1 MLOAD DUP5 DUP3 MSTORE PUSH1 0x20 DUP4 ADD PUSH1 0x20 DUP6 ADD KECCAK256 DUP2 DUP4 MSTORE DUP1 SWAP6 POP POP POP POP POP POP PUSH0 SWAP2 POP SWAP1 POP DUP1 PUSH0 ADD DUP1 SLOAD PUSH2 0x9C9 SWAP1 PUSH2 0x2441 JUMP JUMPDEST DUP1 PUSH1 0x1F ADD PUSH1 0x20 DUP1 SWAP2 DIV MUL PUSH1 0x20 ADD PUSH1 0x40 MLOAD SWAP1 DUP2 ADD PUSH1 0x40 MSTORE DUP1 SWAP3 SWAP2 SWAP1 DUP2 DUP2 MSTORE PUSH1 0x20 ADD DUP3 DUP1 SLOAD PUSH2 0x9F5 SWAP1 PUSH2 0x2441 JUMP JUMPDEST DUP1 ISZERO PUSH2 0xA40 JUMPI DUP1 PUSH1 0x1F LT PUSH2 0xA17 JUMPI PUSH2 0x100 DUP1 DUP4 SLOAD DIV MUL DUP4 MSTORE SWAP2 PUSH1 0x20 ADD SWAP2 PUSH2 0xA40 JUMP JUMPDEST DUP3 ADD SWAP2 SWAP1 PUSH0 MSTORE PUSH1 0x20 PUSH0 KECCAK256 SWAP1 JUMPDEST DUP2 SLOAD DUP2 MSTORE SWAP1 PUSH1 0x1 ADD SWAP1 PUSH1 0x20 ADD DUP1 DUP4 GT PUSH2 0xA23 JUMPI DUP3 SWAP1 SUB PUSH1 0x1F AND DUP3 ADD SWAP2 JUMPDEST POP POP POP POP POP SWAP1 DUP1 PUSH1 0x1 ADD DUP1 SLOAD PUSH2 0xA55 SWAP1 PUSH2 0x2441 JUMP JUMPDEST DUP1 PUSH1 0x1F ADD PUSH1 0x20 DUP1 SWAP2 DIV MUL PUSH1 0x20 ADD PUSH1 0x40 MLOAD SWAP1 DUP2 ADD PUSH1 0x40 MSTORE DUP1 SWAP3 SWAP2 SWAP1 DUP2 DUP2 MSTORE PUSH1 0x20 ADD DUP3 DUP1 SLOAD PUSH2 0xA81 SWAP1 PUSH2 0x2441 JUMP JUMPDEST DUP1 ISZERO PUSH2 0xACC JUMPI DUP1 PUSH1 0x1F LT PUSH2 0xAA3 JUMPI PUSH2 0x100 DUP1 DUP4 SLOAD DIV MUL DUP4 MSTORE SWAP2 PUSH1 0x20 ADD SWAP2 PUSH2 0xACC JUMP JUMPDEST DUP3 ADD SWAP2 SWAP1 PUSH0 MSTORE PUSH1 0x20 PUSH0 KECCAK256 SWAP1 JUMPDEST DUP2 SLOAD DUP2 MSTORE SWAP1 PUSH1 0x1 ADD SWAP1 PUSH1 0x20 ADD DUP1 DUP4 GT PUSH2 0xAAF JUMPI DUP3 SWAP1 SUB PUSH1 0x1F AND DUP3 ADD SWAP2 JUMPDEST POP POP POP POP POP SWAP1 DUP1 PUSH1 0x2 ADD SLOAD SWAP1 DUP1 PUSH1 0x3 ADD PUSH0 SWAP1 SLOAD SWAP1 PUSH2 0x100 EXP SWAP1 DIV PUSH20 0xFFFFFFFFFFFFFFFFFFFFFFFFFFFFFFFFFFFFFFFF AND SWAP1 DUP1 PUSH1 0x4 ADD SLOAD SWAP1 DUP1 PUSH1 0x5 ADD SLOAD SWAP1 DUP1 PUSH1 0x6 ADD SLOAD SWAP1 DUP1 PUSH1 0x7 ADD SLOAD SWAP1 DUP1 PUSH1 0x8 ADD PUSH0 SWAP1 SLOAD SWAP1 PUSH2 0x100 EXP SWAP1 DIV PUSH1 0xFF AND SWAP1 DUP1 PUSH1 0x8 ADD PUSH1 0x1 SWAP1 SLOAD SWAP1 PUSH2 0x100 EXP SWAP1 DIV PUSH1 0xFF AND SWAP1 DUP1 PUSH1 0x8 ADD PUSH1 0x2 SWAP1 SLOAD SWAP1 PUSH2 0x100 EXP SWAP1 DIV PUSH1 0xFF AND SWAP1 DUP1 PUSH1 0x9 ADD DUP1 SLOAD PUSH2 0xB5C SWAP1 PUSH2 0x2441 JUMP JUMPDEST DUP1 PUSH1 0x1F ADD PUSH1 0x20 DUP1 SWAP2 DIV MUL PUSH1 0x20 ADD PUSH1 0x40 MLOAD SWAP1 DUP2 ADD PUSH1 0x40 MSTORE DUP1 SWAP3 SWAP2 SWAP1 DUP2 DUP2 MSTORE PUSH1 0x20 ADD DUP3 DUP1 SLOAD PUSH2 0xB88 SWAP1 PUSH2 0x2441 JUMP JUMPDEST DUP1 ISZERO PUSH2 0xBD3 JUMPI DUP1 PUSH1 0x1F LT PUSH2 0xBAA JUMPI PUSH2 0x100 DUP1 DUP4 SLOAD DIV MUL DUP4 MSTORE SWAP2 PUSH1 0x20 ADD SWAP2 PUSH2 0xBD3 JUMP JUMPDEST DUP3 ADD SWAP2 SWAP1 PUSH0 MSTORE PUSH1 0x20 PUSH0 KECCAK256 SWAP1 JUMPDEST DUP2 SLOAD DUP2 MSTORE SWAP1 PUSH1 0x1 ADD SWAP1 PUSH1 0x20 ADD DUP1 DUP4 GT PUSH2 0xBB6 JUMPI DUP3 SWAP1 SUB PUSH1 0x1F AND DUP3 ADD SWAP2 JUMPDEST POP POP POP POP POP SWAP1 POP DUP13 JUMP JUMPDEST PUSH0 SELFBALANCE SWAP1 POP SWAP1 JUMP JUMPDEST PUSH1 0x2 PUSH0 SWAP1 SLOAD SWAP1 PUSH2 0x100 EXP SWAP1 DIV PUSH20 0xFFFFFFFFFFFFFFFFFFFFFFFFFFFFFFFFFFFFFFFF AND PUSH20 0xFFFFFFFFFFFFFFFFFFFFFFFFFFFFFFFFFFFFFFFF AND CALLER PUSH20 0xFFFFFFFFFFFFFFFFFFFFFFFFFFFFFFFFFFFFFFFF AND EQ PUSH2 0xC3C JUMPI PUSH0 DUP1 REVERT JUMPDEST PUSH0 DUP2 MLOAD GT PUSH2 0xC48 JUMPI PUSH0 DUP1 REVERT JUMPDEST PUSH0 PUSH1 0x7 DUP4 PUSH1 0x40 MLOAD PUSH2 0xC59 SWAP2 SWAP1 PUSH2 0x24AB JUMP JUMPDEST SWAP1 DUP2 MSTORE PUSH1 0x20 ADD PUSH1 0x40 MLOAD DUP1 SWAP2 SUB SWAP1 KECCAK256 PUSH0 ADD DUP1 SLOAD PUSH2 0xC74 SWAP1 PUSH2 0x2441 JUMP JUMPDEST SWAP1 POP GT PUSH2 0xC7F JUMPI PUSH0 DUP1 REVERT JUMPDEST PUSH1 0x7 DUP3 PUSH1 0x40 MLOAD PUSH2 0xC8F SWAP2 SWAP1 PUSH2 0x24AB JUMP JUMPDEST SWAP1 DUP2 MSTORE PUSH1 0x20 ADD PUSH1 0x40 MLOAD DUP1 SWAP2 SUB SWAP1 KECCAK256 PUSH1 0x8 ADD PUSH1 0x2 SWAP1 SLOAD SWAP1 PUSH2 0x100 EXP SWAP1 DIV PUSH1 0xFF AND ISZERO PUSH2 0xCB7 JUMPI PUSH0 DUP1 REVERT JUMPDEST PUSH1 0x1 PUSH1 0x7 DUP4 PUSH1 0x40 MLOAD PUSH2 0xCC9 SWAP2 SWAP1 PUSH2 0x24AB JUMP JUMPDEST SWAP1 DUP2 MSTORE PUSH1 0x20 ADD PUSH1 0x40 MLOAD DUP1 SWAP2 SUB SWAP1 KECCAK256 PUSH1 0x8 ADD PUSH1 0x2 PUSH2 0x100 EXP DUP2 SLOAD DUP2 PUSH1 0xFF MUL NOT AND SWAP1 DUP4 ISZERO ISZERO MUL OR SWAP1 SSTORE POP DUP1 PUSH1 0x7 DUP4 PUSH1 0x40 MLOAD PUSH2 0xD02 SWAP2 SWAP1 PUSH2 0x24AB JUMP JUMPDEST SWAP1 DUP2 MSTORE PUSH1 0x20 ADD PUSH1 0x40 MLOAD DUP1 SWAP2 SUB SWAP1 KECCAK256 PUSH1 0x9 ADD SWAP1 DUP2 PUSH2 0xD1F SWAP2 SWAP1 PUSH2 0x26D2 JUMP JUMPDEST POP POP POP JUMP JUMPDEST PUSH1 0x60 PUSH0 PUSH1 0x7 DUP4 PUSH1 0x40 MLOAD PUSH2 0xD37 SWAP2 SWAP1 PUSH2 0x24AB JUMP JUMPDEST SWAP1 DUP2 MSTORE PUSH1 0x20 ADD PUSH1 0x40 MLOAD DUP1 SWAP2 SUB SWAP1 KECCAK256 PUSH0 ADD DUP1 SLOAD PUSH2 0xD52 SWAP1 PUSH2 0x2441 JUMP JUMPDEST SWAP1 POP SUB PUSH2 0xD5D JUMPI PUSH0 DUP1 REVERT JUMPDEST PUSH1 0x7 DUP3 PUSH1 0x40 MLOAD PUSH2 0xD6D SWAP2 SWAP1 PUSH2 0x24AB JUMP JUMPDEST SWAP1 DUP2 MSTORE PUSH1 0x20 ADD PUSH1 0x40 MLOAD DUP1 SWAP2 SUB SWAP1 KECCAK256 PUSH1 0xB ADD DUP1 SLOAD DUP1 PUSH1 0x20 MUL PUSH1 0x20 ADD PUSH1 0x40 MLOAD SWAP1 DUP2 ADD PUSH1 0x40 MSTORE DUP1 SWAP3 SWAP2 SWAP1 DUP2 DUP2 MSTORE PUSH1 0x20 ADD PUSH0 SWAP1 JUMPDEST DUP3 DUP3 LT ISZERO PUSH2 0xEB1 JUMPI DUP4 DUP3 SWAP1 PUSH0 MSTORE PUSH1 0x20 PUSH0 KECCAK256 SWAP1 PUSH1 0x2 MUL ADD PUSH1 0x40 MLOAD DUP1 PUSH1 0x40 ADD PUSH1 0x40 MSTORE SWAP1 DUP2 PUSH0 DUP3 ADD PUSH0 SWAP1 SLOAD SWAP1 PUSH2 0x100 EXP SWAP1 DIV PUSH20 0xFFFFFFFFFFFFFFFFFFFFFFFFFFFFFFFFFFFFFFFF AND PUSH20 0xFFFFFFFFFFFFFFFFFFFFFFFFFFFFFFFFFFFFFFFF AND PUSH20 0xFFFFFFFFFFFFFFFFFFFFFFFFFFFFFFFFFFFFFFFF AND DUP2 MSTORE PUSH1 0x20 ADD PUSH1 0x1 DUP3 ADD DUP1 SLOAD PUSH2 0xE22 SWAP1 PUSH2 0x2441 JUMP JUMPDEST DUP1 PUSH1 0x1F ADD PUSH1 0x20 DUP1 SWAP2 DIV MUL PUSH1 0x20 ADD PUSH1 0x40 MLOAD SWAP1 DUP2 ADD PUSH1 0x40 MSTORE DUP1 SWAP3 SWAP2 SWAP1 DUP2 DUP2 MSTORE PUSH1 0x20 ADD DUP3 DUP1 SLOAD PUSH2 0xE4E SWAP1 PUSH2 0x2441 JUMP JUMPDEST DUP1 ISZERO PUSH2 0xE99 JUMPI DUP1 PUSH1 0x1F LT PUSH2 0xE70 JUMPI PUSH2 0x100 DUP1 DUP4 SLOAD DIV MUL DUP4 MSTORE SWAP2 PUSH1 0x20 ADD SWAP2 PUSH2 0xE99 JUMP JUMPDEST DUP3 ADD SWAP2 SWAP1 PUSH0 MSTORE PUSH1 0x20 PUSH0 KECCAK256 SWAP1 JUMPDEST DUP2 SLOAD DUP2 MSTORE SWAP1 PUSH1 0x1 ADD SWAP1 PUSH1 0x20 ADD DUP1 DUP4 GT PUSH2 0xE7C JUMPI DUP3 SWAP1 SUB PUSH1 0x1F AND DUP3 ADD SWAP2 JUMPDEST POP POP POP POP POP DUP2 MSTORE POP POP DUP2 MSTORE PUSH1 0x20 ADD SWAP1 PUSH1 0x1 ADD SWAP1 PUSH2 0xD9D JUMP JUMPDEST POP POP POP POP SWAP1 POP SWAP2 SWAP1 POP JUMP JUMPDEST PUSH1 0x60 PUSH1 0x6 DUP1 SLOAD DUP1 PUSH1 0x20 MUL PUSH1 0x20 ADD PUSH1 0x40 MLOAD SWAP1 DUP2 ADD PUSH1 0x40 MSTORE DUP1 SWAP3 SWAP2 SWAP1 DUP2 DUP2 MSTORE PUSH1 0x20 ADD PUSH0 SWAP1 JUMPDEST DUP3 DUP3 LT ISZERO PUSH2 0x1038 JUMPI DUP4 DUP3 SWAP1 PUSH0 MSTORE PUSH1 0x20 PUSH0 KECCAK256 SWAP1 PUSH1 0x3 MUL ADD PUSH1 0x40 MLOAD DUP1 PUSH1 0x60 ADD PUSH1 0x40 MSTORE SWAP1 DUP2 PUSH0 DUP3 ADD DUP1 SLOAD PUSH2 0xF0F SWAP1 PUSH2 0x2441 JUMP JUMPDEST DUP1 PUSH1 0x1F ADD PUSH1 0x20 DUP1 SWAP2 DIV MUL PUSH1 0x20 ADD PUSH1 0x40 MLOAD SWAP1 DUP2 ADD PUSH1 0x40 MSTORE DUP1 SWAP3 SWAP2 SWAP1 DUP2 DUP2 MSTORE PUSH1 0x20 ADD DUP3 DUP1 SLOAD PUSH2 0xF3B SWAP1 PUSH2 0x2441 JUMP JUMPDEST DUP1 ISZERO PUSH2 0xF86 JUMPI DUP1 PUSH1 0x1F LT PUSH2 0xF5D JUMPI PUSH2 0x100 DUP1 DUP4 SLOAD DIV MUL DUP4 MSTORE SWAP2 PUSH1 0x20 ADD SWAP2 PUSH2 0xF86 JUMP JUMPDEST DUP3 ADD SWAP2 SWAP1 PUSH0 MSTORE PUSH1 0x20 PUSH0 KECCAK256 SWAP1 JUMPDEST DUP2 SLOAD DUP2 MSTORE SWAP1 PUSH1 0x1 ADD SWAP1 PUSH1 0x20 ADD DUP1 DUP4 GT PUSH2 0xF69 JUMPI DUP3 SWAP1 SUB PUSH1 0x1F AND DUP3 ADD SWAP2 JUMPDEST POP POP POP POP POP DUP2 MSTORE PUSH1 0x20 ADD PUSH1 0x1 DUP3 ADD DUP1 SLOAD PUSH2 0xF9F SWAP1 PUSH2 0x2441 JUMP JUMPDEST DUP1 PUSH1 0x1F ADD PUSH1 0x20 DUP1 SWAP2 DIV MUL PUSH1 0x20 ADD PUSH1 0x40 MLOAD SWAP1 DUP2 ADD PUSH1 0x40 MSTORE DUP1 SWAP3 SWAP2 SWAP1 DUP2 DUP2 MSTORE PUSH1 0x20 ADD DUP3 DUP1 SLOAD PUSH2 0xFCB SWAP1 PUSH2 0x2441 JUMP JUMPDEST DUP1 ISZERO PUSH2 0x1016 JUMPI DUP1 PUSH1 0x1F LT PUSH2 0xFED JUMPI PUSH2 0x100 DUP1 DUP4 SLOAD DIV MUL DUP4 MSTORE SWAP2 PUSH1 0x20 ADD SWAP2 PUSH2 0x1016 JUMP JUMPDEST DUP3 ADD SWAP2 SWAP1 PUSH0 MSTORE PUSH1 0x20 PUSH0 KECCAK256 SWAP1 JUMPDEST DUP2 SLOAD DUP2 MSTORE SWAP1 PUSH1 0x1 ADD SWAP1 PUSH1 0x20 ADD DUP1 DUP4 GT PUSH2 0xFF9 JUMPI DUP3 SWAP1 SUB PUSH1 0x1F AND DUP3 ADD SWAP2 JUMPDEST POP POP POP POP POP DUP2 MSTORE PUSH1 0x20 ADD PUSH1 0x2 DUP3 ADD SLOAD DUP2 MSTORE POP POP DUP2 MSTORE PUSH1 0x20 ADD SWAP1 PUSH1 0x1 ADD SWAP1 PUSH2 0xEDF JUMP JUMPDEST POP POP POP POP SWAP1 POP SWAP1 JUMP JUMPDEST PUSH1 0x60 PUSH0 DUP1 SLOAD PUSH2 0x104F SWAP1 PUSH2 0x2441 JUMP JUMPDEST DUP1 PUSH1 0x1F ADD PUSH1 0x20 DUP1 SWAP2 DIV MUL PUSH1 0x20 ADD PUSH1 0x40 MLOAD SWAP1 DUP2 ADD PUSH1 0x40 MSTORE DUP1 SWAP3 SWAP2 SWAP1 DUP2 DUP2 MSTORE PUSH1 0x20 ADD DUP3 DUP1 SLOAD PUSH2 0x107B SWAP1 PUSH2 0x2441 JUMP JUMPDEST DUP1 ISZERO PUSH2 0x10C6 JUMPI DUP1 PUSH1 0x1F LT PUSH2 0x109D JUMPI PUSH2 0x100 DUP1 DUP4 SLOAD DIV MUL DUP4 MSTORE SWAP2 PUSH1 0x20 ADD SWAP2 PUSH2 0x10C6 JUMP JUMPDEST DUP3 ADD SWAP2 SWAP1 PUSH0 MSTORE PUSH1 0x20 PUSH0 KECCAK256 SWAP1 JUMPDEST DUP2 SLOAD DUP2 MSTORE SWAP1 PUSH1 0x1 ADD SWAP1 PUSH1 0x20 ADD DUP1 DUP4 GT PUSH2 0x10A9 JUMPI DUP3 SWAP1 SUB PUSH1 0x1F AND DUP3 ADD SWAP2 JUMPDEST POP POP POP POP POP SWAP1 POP SWAP1 JUMP JUMPDEST PUSH1 0x2 PUSH0 SWAP1 SLOAD SWAP1 PUSH2 0x100 EXP SWAP1 DIV PUSH20 0xFFFFFFFFFFFFFFFFFFFFFFFFFFFFFFFFFFFFFFFF AND PUSH20 0xFFFFFFFFFFFFFFFFFFFFFFFFFFFFFFFFFFFFFFFF AND CALLER PUSH20 0xFFFFFFFFFFFFFFFFFFFFFFFFFFFFFFFFFFFFFFFF AND EQ PUSH2 0x1128 JUMPI PUSH0 DUP1 REVERT JUMPDEST PUSH1 0x1 PUSH1 0x9 PUSH0 PUSH2 0x100 EXP DUP2 SLOAD DUP2 PUSH1 0xFF MUL NOT AND SWAP1 DUP4 ISZERO ISZERO MUL OR SWAP1 SSTORE POP JUMP JUMPDEST PUSH1 0x2 PUSH0 SWAP1 SLOAD SWAP1 PUSH2 0x100 EXP SWAP1 DIV PUSH20 0xFFFFFFFFFFFFFFFFFFFFFFFFFFFFFFFFFFFFFFFF AND PUSH20 0xFFFFFFFFFFFFFFFFFFFFFFFFFFFFFFFFFFFFFFFF AND CALLER PUSH20 0xFFFFFFFFFFFFFFFFFFFFFFFFFFFFFFFFFFFFFFFF AND EQ PUSH2 0x119C JUMPI PUSH0 DUP1 REVERT JUMPDEST JUMP JUMPDEST PUSH1 0x2 PUSH0 SWAP1 SLOAD SWAP1 PUSH2 0x100 EXP SWAP1 DIV PUSH20 0xFFFFFFFFFFFFFFFFFFFFFFFFFFFFFFFFFFFFFFFF AND PUSH20 0xFFFFFFFFFFFFFFFFFFFFFFFFFFFFFFFFFFFFFFFF AND CALLER PUSH20 0xFFFFFFFFFFFFFFFFFFFFFFFFFFFFFFFFFFFFFFFF AND EQ PUSH2 0x11F6 JUMPI PUSH0 DUP1 REVERT JUMPDEST PUSH1 0x9 PUSH0 SWAP1 SLOAD SWAP1 PUSH2 0x100 EXP SWAP1 DIV PUSH1 0xFF AND ISZERO PUSH2 0x120E JUMPI PUSH0 DUP1 REVERT JUMPDEST PUSH0 DUP6 MLOAD GT PUSH2 0x121A JUMPI PUSH0 DUP1 REVERT JUMPDEST PUSH0 DUP5 MLOAD GT PUSH2 0x1226 JUMPI PUSH0 DUP1 REVERT JUMPDEST PUSH0 DUP4 GT PUSH2 0x1231 JUMPI PUSH0 DUP1 REVERT JUMPDEST SELFBALANCE DUP4 GT ISZERO PUSH2 0x123D JUMPI PUSH0 DUP1 REVERT JUMPDEST PUSH0 DUP3 GT PUSH2 0x1248 JUMPI PUSH0 DUP1 REVERT JUMPDEST PUSH1 0x4 SLOAD DUP3 GT ISZERO PUSH2 0x1256 JUMPI PUSH0 DUP1 REVERT JUMPDEST PUSH0 PUSH1 0x7 DUP7 PUSH1 0x40 MLOAD PUSH2 0x1267 SWAP2 SWAP1 PUSH2 0x24AB JUMP JUMPDEST SWAP1 DUP2 MSTORE PUSH1 0x20 ADD PUSH1 0x40 MLOAD DUP1 SWAP2 SUB SWAP1 KECCAK256 SWAP1 POP DUP6 DUP2 PUSH0 ADD SWAP1 DUP2 PUSH2 0x1287 SWAP2 SWAP1 PUSH2 0x26D2 JUMP JUMPDEST POP DUP5 DUP2 PUSH1 0x1 ADD SWAP1 DUP2 PUSH2 0x1299 SWAP2 SWAP1 PUSH2 0x26D2 JUMP JUMPDEST POP DUP4 DUP2 PUSH1 0x2 ADD DUP2 SWAP1 SSTORE POP DUP2 DUP2 PUSH1 0x3 ADD PUSH0 PUSH2 0x100 EXP DUP2 SLOAD DUP2 PUSH20 0xFFFFFFFFFFFFFFFFFFFFFFFFFFFFFFFFFFFFFFFF MUL NOT AND SWAP1 DUP4 PUSH20 0xFFFFFFFFFFFFFFFFFFFFFFFFFFFFFFFFFFFFFFFF AND MUL OR SWAP1 SSTORE POP PUSH0 DUP2 PUSH1 0x4 ADD DUP2 SWAP1 SSTORE POP PUSH0 DUP2 PUSH1 0x7 ADD DUP2 SWAP1 SSTORE POP DUP3 DUP2 PUSH1 0x5 ADD DUP2 SWAP1 SSTORE POP PUSH0 DUP2 PUSH1 0x8 ADD PUSH1 0x1 PUSH2 0x100 EXP DUP2 SLOAD DUP2 PUSH1 0xFF MUL NOT AND SWAP1 DUP4 ISZERO ISZERO MUL OR SWAP1 SSTORE POP PUSH0 DUP2 PUSH1 0x8 ADD PUSH1 0x2 PUSH2 0x100 EXP DUP2 SLOAD DUP2 PUSH1 0xFF MUL NOT AND SWAP1 DUP4 ISZERO ISZERO MUL OR SWAP1 SSTORE POP PUSH1 0x8 PUSH0 DUP2 SLOAD DUP1 SWAP3 SWAP2 SWAP1 PUSH2 0x134A SWAP1 PUSH2 0x24EE JUMP JUMPDEST SWAP2 SWAP1 POP SSTORE POP PUSH0 PUSH1 0x40 MLOAD DUP1 PUSH1 0x60 ADD PUSH1 0x40 MSTORE DUP1 DUP9 DUP2 MSTORE PUSH1 0x20 ADD DUP8 DUP2 MSTORE PUSH1 0x20 ADD DUP7 DUP2 MSTORE POP SWAP1 POP PUSH1 0x6 DUP2 SWAP1 DUP1 PUSH1 0x1 DUP2 SLOAD ADD DUP1 DUP3 SSTORE DUP1 SWAP2 POP POP PUSH1 0x1 SWAP1 SUB SWAP1 PUSH0 MSTORE PUSH1 0x20 PUSH0 KECCAK256 SWAP1 PUSH1 0x3 MUL ADD PUSH0 SWAP1 SWAP2 SWAP1 SWAP2 SWAP1 SWAP2 POP PUSH0 DUP3 ADD MLOAD DUP2 PUSH0 ADD SWAP1 DUP2 PUSH2 0x13A9 SWAP2 SWAP1 PUSH2 0x26D2 JUMP JUMPDEST POP PUSH1 0x20 DUP3 ADD MLOAD DUP2 PUSH1 0x1 ADD SWAP1 DUP2 PUSH2 0x13BF SWAP2 SWAP1 PUSH2 0x26D2 JUMP JUMPDEST POP PUSH1 0x40 DUP3 ADD MLOAD DUP2 PUSH1 0x2 ADD SSTORE POP POP POP POP POP POP POP POP POP JUMP JUMPDEST PUSH0 PUSH1 0x3 PUSH0 CALLER PUSH20 0xFFFFFFFFFFFFFFFFFFFFFFFFFFFFFFFFFFFFFFFF AND PUSH20 0xFFFFFFFFFFFFFFFFFFFFFFFFFFFFFFFFFFFFFFFF AND DUP2 MSTORE PUSH1 0x20 ADD SWAP1 DUP2 MSTORE PUSH1 0x20 ADD PUSH0 KECCAK256 SLOAD SUB PUSH2 0x141D JUMPI PUSH0 DUP1 REVERT JUMPDEST PUSH1 0x9 PUSH0 SWAP1 SLOAD SWAP1 PUSH2 0x100 EXP SWAP1 DIV PUSH1 0xFF AND PUSH2 0x1434 JUMPI PUSH0 DUP1 REVERT JUMPDEST CALLER PUSH20 0xFFFFFFFFFFFFFFFFFFFFFFFFFFFFFFFFFFFFFFFF AND PUSH2 0x8FC PUSH1 0x3 PUSH0 CALLER PUSH20 0xFFFFFFFFFFFFFFFFFFFFFFFFFFFFFFFFFFFFFFFF AND PUSH20 0xFFFFFFFFFFFFFFFFFFFFFFFFFFFFFFFFFFFFFFFF AND DUP2 MSTORE PUSH1 0x20 ADD SWAP1 DUP2 MSTORE PUSH1 0x20 ADD PUSH0 KECCAK256 SLOAD SWAP1 DUP2 ISZERO MUL SWAP1 PUSH1 0x40 MLOAD PUSH0 PUSH1 0x40 MLOAD DUP1 DUP4 SUB DUP2 DUP6 DUP9 DUP9 CALL SWAP4 POP POP POP POP ISZERO DUP1 ISZERO PUSH2 0x14B4 JUMPI RETURNDATASIZE PUSH0 DUP1 RETURNDATACOPY RETURNDATASIZE PUSH0 REVERT JUMPDEST POP PUSH0 PUSH1 0x3 PUSH0 CALLER PUSH20 0xFFFFFFFFFFFFFFFFFFFFFFFFFFFFFFFFFFFFFFFF AND PUSH20 0xFFFFFFFFFFFFFFFFFFFFFFFFFFFFFFFFFFFFFFFF AND DUP2 MSTORE PUSH1 0x20 ADD SWAP1 DUP2 MSTORE PUSH1 0x20 ADD PUSH0 KECCAK256 DUP2 SWAP1 SSTORE POP PUSH1 0x4 PUSH0 DUP2 SLOAD DUP1 SWAP3 SWAP2 SWAP1 PUSH2 0x1509 SWAP1 PUSH2 0x27A1 JUMP JUMPDEST SWAP2 SWAP1 POP SSTORE POP JUMP JUMPDEST PUSH0 PUSH1 0x2 PUSH0 SWAP1 SLOAD SWAP1 PUSH2 0x100 EXP SWAP1 DIV PUSH20 0xFFFFFFFFFFFFFFFFFFFFFFFFFFFFFFFFFFFFFFFF AND SWAP1 POP SWAP1 JUMP JUMPDEST PUSH1 0x9 PUSH0 SWAP1 SLOAD SWAP1 PUSH2 0x100 EXP SWAP1 DIV PUSH1 0xFF AND ISZERO PUSH2 0x1550 JUMPI PUSH0 DUP1 REVERT JUMPDEST PUSH1 0x5 SLOAD CALLVALUE LT ISZERO PUSH2 0x155E JUMPI PUSH0 DUP1 REVERT JUMPDEST PUSH0 PUSH1 0x3 PUSH0 CALLER PUSH20 0xFFFFFFFFFFFFFFFFFFFFFFFFFFFFFFFFFFFFFFFF AND PUSH20 0xFFFFFFFFFFFFFFFFFFFFFFFFFFFFFFFFFFFFFFFF AND DUP2 MSTORE PUSH1 0x20 ADD SWAP1 DUP2 MSTORE PUSH1 0x20 ADD PUSH0 KECCAK256 SLOAD EQ PUSH2 0x15A6 JUMPI PUSH0 DUP1 REVERT JUMPDEST CALLVALUE PUSH1 0x3 PUSH0 CALLER PUSH20 0xFFFFFFFFFFFFFFFFFFFFFFFFFFFFFFFFFFFFFFFF AND PUSH20 0xFFFFFFFFFFFFFFFFFFFFFFFFFFFFFFFFFFFFFFFF AND DUP2 MSTORE PUSH1 0x20 ADD SWAP1 DUP2 MSTORE PUSH1 0x20 ADD PUSH0 KECCAK256 DUP2 SWAP1 SSTORE POP PUSH1 0x4 PUSH0 DUP2 SLOAD DUP1 SWAP3 SWAP2 SWAP1 PUSH2 0x15FA SWAP1 PUSH2 0x24EE JUMP JUMPDEST SWAP2 SWAP1 POP SSTORE POP JUMP JUMPDEST PUSH1 0x2 PUSH0 SWAP1 SLOAD SWAP1 PUSH2 0x100 EXP SWAP1 DIV PUSH20 0xFFFFFFFFFFFFFFFFFFFFFFFFFFFFFFFFFFFFFFFF AND PUSH20 0xFFFFFFFFFFFFFFFFFFFFFFFFFFFFFFFFFFFFFFFF AND CALLER PUSH20 0xFFFFFFFFFFFFFFFFFFFFFFFFFFFFFFFFFFFFFFFF AND EQ PUSH2 0x1659 JUMPI PUSH0 DUP1 REVERT JUMPDEST PUSH1 0x9 PUSH0 SWAP1 SLOAD SWAP1 PUSH2 0x100 EXP SWAP1 DIV PUSH1 0xFF AND ISZERO PUSH2 0x1671 JUMPI PUSH0 DUP1 REVERT JUMPDEST PUSH0 PUSH1 0x7 DUP3 PUSH1 0x40 MLOAD PUSH2 0x1682 SWAP2 SWAP1 PUSH2 0x24AB JUMP JUMPDEST SWAP1 DUP2 MSTORE PUSH1 0x20 ADD PUSH1 0x40 MLOAD DUP1 SWAP2 SUB SWAP1 KECCAK256 SWAP1 POP PUSH0 DUP2 PUSH0 ADD DUP1 SLOAD PUSH2 0x16A1 SWAP1 PUSH2 0x2441 JUMP JUMPDEST SWAP1 POP GT PUSH2 0x16AC JUMPI PUSH0 DUP1 REVERT JUMPDEST DUP2 MLOAD DUP2 PUSH0 ADD DUP1 SLOAD PUSH2 0x16BC SWAP1 PUSH2 0x2441 JUMP JUMPDEST SWAP1 POP EQ PUSH2 0x16C7 JUMPI PUSH0 DUP1 REVERT JUMPDEST DUP1 PUSH1 0x8 ADD PUSH0 SWAP1 SLOAD SWAP1 PUSH2 0x100 EXP SWAP1 DIV PUSH1 0xFF AND DUP1 ISZERO PUSH2 0x16F3 JUMPI POP DUP1 PUSH1 0x8 ADD PUSH1 0x1 SWAP1 SLOAD SWAP1 PUSH2 0x100 EXP SWAP1 DIV PUSH1 0xFF AND ISZERO JUMPDEST DUP1 ISZERO PUSH2 0x170E JUMPI POP DUP1 PUSH1 0x8 ADD PUSH1 0x2 SWAP1 SLOAD SWAP1 PUSH2 0x100 EXP SWAP1 DIV PUSH1 0xFF AND ISZERO JUMPDEST PUSH2 0x1716 JUMPI PUSH0 DUP1 REVERT JUMPDEST DUP1 PUSH1 0x2 ADD SLOAD SELFBALANCE LT ISZERO PUSH2 0x1726 JUMPI PUSH0 DUP1 REVERT JUMPDEST DUP1 PUSH1 0x3 ADD PUSH0 SWAP1 SLOAD SWAP1 PUSH2 0x100 EXP SWAP1 DIV PUSH20 0xFFFFFFFFFFFFFFFFFFFFFFFFFFFFFFFFFFFFFFFF AND PUSH20 0xFFFFFFFFFFFFFFFFFFFFFFFFFFFFFFFFFFFFFFFF AND PUSH2 0x8FC DUP3 PUSH1 0x2 ADD SLOAD SWAP1 DUP2 ISZERO MUL SWAP1 PUSH1 0x40 MLOAD PUSH0 PUSH1 0x40 MLOAD DUP1 DUP4 SUB DUP2 DUP6 DUP9 DUP9 CALL SWAP4 POP POP POP POP ISZERO DUP1 ISZERO PUSH2 0x1790 JUMPI RETURNDATASIZE PUSH0 DUP1 RETURNDATACOPY RETURNDATASIZE PUSH0 REVERT JUMPDEST POP PUSH1 0x1 DUP2 PUSH1 0x8 ADD PUSH1 0x1 PUSH2 0x100 EXP DUP2 SLOAD DUP2 PUSH1 0xFF MUL NOT AND SWAP1 DUP4 ISZERO ISZERO MUL OR SWAP1 SSTORE POP POP POP JUMP JUMPDEST PUSH0 PUSH1 0x3 PUSH0 CALLER PUSH20 0xFFFFFFFFFFFFFFFFFFFFFFFFFFFFFFFFFFFFFFFF AND PUSH20 0xFFFFFFFFFFFFFFFFFFFFFFFFFFFFFFFFFFFFFFFF AND DUP2 MSTORE PUSH1 0x20 ADD SWAP1 DUP2 MSTORE PUSH1 0x20 ADD PUSH0 KECCAK256 SLOAD SUB PUSH2 0x17FA JUMPI PUSH0 DUP1 REVERT JUMPDEST PUSH1 0x9 PUSH0 SWAP1 SLOAD SWAP1 PUSH2 0x100 EXP SWAP1 DIV PUSH1 0xFF AND ISZERO PUSH2 0x1812 JUMPI PUSH0 DUP1 REVERT JUMPDEST PUSH0 PUSH1 0x3 PUSH0 CALLER PUSH20 0xFFFFFFFFFFFFFFFFFFFFFFFFFFFFFFFFFFFFFFFF AND PUSH20 0xFFFFFFFFFFFFFFFFFFFFFFFFFFFFFFFFFFFFFFFF AND DUP2 MSTORE PUSH1 0x20 ADD SWAP1 DUP2 MSTORE PUSH1 0x20 ADD PUSH0 KECCAK256 SLOAD GT PUSH2 0x185A JUMPI PUSH0 DUP1 REVERT JUMPDEST PUSH0 PUSH1 0x7 DUP4 PUSH1 0x40 MLOAD PUSH2 0x186B SWAP2 SWAP1 PUSH2 0x24AB JUMP JUMPDEST SWAP1 DUP2 MSTORE PUSH1 0x20 ADD PUSH1 0x40 MLOAD DUP1 SWAP2 SUB SWAP1 KECCAK256 PUSH0 ADD DUP1 SLOAD PUSH2 0x1886 SWAP1 PUSH2 0x2441 JUMP JUMPDEST SWAP1 POP SUB PUSH2 0x1891 JUMPI PUSH0 DUP1 REVERT JUMPDEST PUSH1 0x7 DUP3 PUSH1 0x40 MLOAD PUSH2 0x18A1 SWAP2 SWAP1 PUSH2 0x24AB JUMP JUMPDEST SWAP1 DUP2 MSTORE PUSH1 0x20 ADD PUSH1 0x40 MLOAD DUP1 SWAP2 SUB SWAP1 KECCAK256 PUSH1 0x8 ADD PUSH1 0x2 SWAP1 SLOAD SWAP1 PUSH2 0x100 EXP SWAP1 DIV PUSH1 0xFF AND ISZERO DUP1 ISZERO PUSH2 0x18F9 JUMPI POP PUSH1 0x7 DUP3 PUSH1 0x40 MLOAD PUSH2 0x18D8 SWAP2 SWAP1 PUSH2 0x24AB JUMP JUMPDEST SWAP1 DUP2 MSTORE PUSH1 0x20 ADD PUSH1 0x40 MLOAD DUP1 SWAP2 SUB SWAP1 KECCAK256 PUSH1 0x8 ADD PUSH1 0x1 SWAP1 SLOAD SWAP1 PUSH2 0x100 EXP SWAP1 DIV PUSH1 0xFF AND ISZERO JUMPDEST PUSH2 0x1901 JUMPI PUSH0 DUP1 REVERT JUMPDEST PUSH0 PUSH1 0x40 MLOAD DUP1 PUSH1 0x40 ADD PUSH1 0x40 MSTORE DUP1 CALLER PUSH20 0xFFFFFFFFFFFFFFFFFFFFFFFFFFFFFFFFFFFFFFFF AND DUP2 MSTORE PUSH1 0x20 ADD DUP4 DUP2 MSTORE POP SWAP1 POP PUSH1 0x7 DUP4 PUSH1 0x40 MLOAD PUSH2 0x193F SWAP2 SWAP1 PUSH2 0x24AB JUMP JUMPDEST SWAP1 DUP2 MSTORE PUSH1 0x20 ADD PUSH1 0x40 MLOAD DUP1 SWAP2 SUB SWAP1 KECCAK256 PUSH1 0xB ADD DUP2 SWAP1 DUP1 PUSH1 0x1 DUP2 SLOAD ADD DUP1 DUP3 SSTORE DUP1 SWAP2 POP POP PUSH1 0x1 SWAP1 SUB SWAP1 PUSH0 MSTORE PUSH1 0x20 PUSH0 KECCAK256 SWAP1 PUSH1 0x2 MUL ADD PUSH0 SWAP1 SWAP2 SWAP1 SWAP2 SWAP1 SWAP2 POP PUSH0 DUP3 ADD MLOAD DUP2 PUSH0 ADD PUSH0 PUSH2 0x100 EXP DUP2 SLOAD DUP2 PUSH20 0xFFFFFFFFFFFFFFFFFFFFFFFFFFFFFFFFFFFFFFFF MUL NOT AND SWAP1 DUP4 PUSH20 0xFFFFFFFFFFFFFFFFFFFFFFFFFFFFFFFFFFFFFFFF AND MUL OR SWAP1 SSTORE POP PUSH1 0x20 DUP3 ADD MLOAD DUP2 PUSH1 0x1 ADD SWAP1 DUP2 PUSH2 0x19D0 SWAP2 SWAP1 PUSH2 0x26D2 JUMP JUMPDEST POP POP POP PUSH1 0x7 DUP4 PUSH1 0x40 MLOAD PUSH2 0x19E3 SWAP2 SWAP1 PUSH2 0x24AB JUMP JUMPDEST SWAP1 DUP2 MSTORE PUSH1 0x20 ADD PUSH1 0x40 MLOAD DUP1 SWAP2 SUB SWAP1 KECCAK256 PUSH1 0x7 ADD PUSH0 DUP2 SLOAD DUP1 SWAP3 SWAP2 SWAP1 PUSH2 0x1A04 SWAP1 PUSH2 0x24EE JUMP JUMPDEST SWAP2 SWAP1 POP SSTORE POP POP POP POP JUMP JUMPDEST PUSH0 PUSH1 0x5 SLOAD SWAP1 POP SWAP1 JUMP JUMPDEST PUSH0 PUSH1 0x4 SLOAD SWAP1 POP SWAP1 JUMP JUMPDEST PUSH1 0x40 MLOAD DUP1 PUSH2 0x100 ADD PUSH1 0x40 MSTORE DUP1 PUSH0 PUSH20 0xFFFFFFFFFFFFFFFFFFFFFFFFFFFFFFFFFFFFFFFF AND DUP2 MSTORE PUSH1 0x20 ADD PUSH1 0x60 DUP2 MSTORE PUSH1 0x20 ADD PUSH1 0x60 DUP2 MSTORE PUSH1 0x20 ADD PUSH0 DUP2 MSTORE PUSH1 0x20 ADD PUSH0 DUP2 MSTORE PUSH1 0x20 ADD PUSH0 DUP2 MSTORE PUSH1 0x20 ADD PUSH0 DUP2 MSTORE PUSH1 0x20 ADD PUSH0 ISZERO ISZERO DUP2 MSTORE POP SWAP1 JUMP JUMPDEST PUSH0 PUSH1 0x40 MLOAD SWAP1 POP SWAP1 JUMP JUMPDEST PUSH0 DUP1 REVERT JUMPDEST PUSH0 DUP1 REVERT JUMPDEST PUSH0 PUSH20 0xFFFFFFFFFFFFFFFFFFFFFFFFFFFFFFFFFFFFFFFF DUP3 AND SWAP1 POP SWAP2 SWAP1 POP JUMP JUMPDEST PUSH0 PUSH2 0x1AB1 DUP3 PUSH2 0x1A88 JUMP JUMPDEST SWAP1 POP SWAP2 SWAP1 POP JUMP JUMPDEST PUSH2 0x1AC1 DUP2 PUSH2 0x1AA7 JUMP JUMPDEST DUP2 EQ PUSH2 0x1ACB JUMPI PUSH0 DUP1 REVERT JUMPDEST POP JUMP JUMPDEST PUSH0 DUP2 CALLDATALOAD SWAP1 POP PUSH2 0x1ADC DUP2 PUSH2 0x1AB8 JUMP JUMPDEST SWAP3 SWAP2 POP POP JUMP JUMPDEST PUSH0 PUSH1 0x20 DUP3 DUP5 SUB SLT ISZERO PUSH2 0x1AF7 JUMPI PUSH2 0x1AF6 PUSH2 0x1A80 JUMP JUMPDEST JUMPDEST PUSH0 PUSH2 0x1B04 DUP5 DUP3 DUP6 ADD PUSH2 0x1ACE JUMP JUMPDEST SWAP2 POP POP SWAP3 SWAP2 POP POP JUMP JUMPDEST PUSH0 DUP2 SWAP1 POP SWAP2 SWAP1 POP JUMP JUMPDEST PUSH2 0x1B1F DUP2 PUSH2 0x1B0D JUMP JUMPDEST DUP3 MSTORE POP POP JUMP JUMPDEST PUSH0 PUSH1 0x20 DUP3 ADD SWAP1 POP PUSH2 0x1B38 PUSH0 DUP4 ADD DUP5 PUSH2 0x1B16 JUMP JUMPDEST SWAP3 SWAP2 POP POP JUMP JUMPDEST PUSH0 DUP2 MLOAD SWAP1 POP SWAP2 SWAP1 POP JUMP JUMPDEST PUSH0 DUP3 DUP3 MSTORE PUSH1 0x20 DUP3 ADD SWAP1 POP SWAP3 SWAP2 POP POP JUMP JUMPDEST PUSH0 JUMPDEST DUP4 DUP2 LT ISZERO PUSH2 0x1B75 JUMPI DUP1 DUP3 ADD MLOAD DUP2 DUP5 ADD MSTORE PUSH1 0x20 DUP2 ADD SWAP1 POP PUSH2 0x1B5A JUMP JUMPDEST PUSH0 DUP5 DUP5 ADD MSTORE POP POP POP POP JUMP JUMPDEST PUSH0 PUSH1 0x1F NOT PUSH1 0x1F DUP4 ADD AND SWAP1 POP SWAP2 SWAP1 POP JUMP JUMPDEST PUSH0 PUSH2 0x1B9A DUP3 PUSH2 0x1B3E JUMP JUMPDEST PUSH2 0x1BA4 DUP2 DUP6 PUSH2 0x1B48 JUMP JUMPDEST SWAP4 POP PUSH2 0x1BB4 DUP2 DUP6 PUSH1 0x20 DUP7 ADD PUSH2 0x1B58 JUMP JUMPDEST PUSH2 0x1BBD DUP2 PUSH2 0x1B80 JUMP JUMPDEST DUP5 ADD SWAP2 POP POP SWAP3 SWAP2 POP POP JUMP JUMPDEST PUSH0 PUSH1 0x20 DUP3 ADD SWAP1 POP DUP2 DUP2 SUB PUSH0 DUP4 ADD MSTORE PUSH2 0x1BE0 DUP2 DUP5 PUSH2 0x1B90 JUMP JUMPDEST SWAP1 POP SWAP3 SWAP2 POP POP JUMP JUMPDEST PUSH0 DUP1 REVERT JUMPDEST PUSH0 DUP1 REVERT JUMPDEST PUSH32 0x4E487B7100000000000000000000000000000000000000000000000000000000 PUSH0 MSTORE PUSH1 0x41 PUSH1 0x4 MSTORE PUSH1 0x24 PUSH0 REVERT JUMPDEST PUSH2 0x1C26 DUP3 PUSH2 0x1B80 JUMP JUMPDEST DUP2 ADD DUP2 DUP2 LT PUSH8 0xFFFFFFFFFFFFFFFF DUP3 GT OR ISZERO PUSH2 0x1C45 JUMPI PUSH2 0x1C44 PUSH2 0x1BF0 JUMP JUMPDEST JUMPDEST DUP1 PUSH1 0x40 MSTORE POP POP POP JUMP JUMPDEST PUSH0 PUSH2 0x1C57 PUSH2 0x1A77 JUMP JUMPDEST SWAP1 POP PUSH2 0x1C63 DUP3 DUP3 PUSH2 0x1C1D JUMP JUMPDEST SWAP2 SWAP1 POP JUMP JUMPDEST PUSH0 PUSH8 0xFFFFFFFFFFFFFFFF DUP3 GT ISZERO PUSH2 0x1C82 JUMPI PUSH2 0x1C81 PUSH2 0x1BF0 JUMP JUMPDEST JUMPDEST PUSH2 0x1C8B DUP3 PUSH2 0x1B80 JUMP JUMPDEST SWAP1 POP PUSH1 0x20 DUP2 ADD SWAP1 POP SWAP2 SWAP1 POP JUMP JUMPDEST DUP3 DUP2 DUP4 CALLDATACOPY PUSH0 DUP4 DUP4 ADD MSTORE POP POP POP JUMP JUMPDEST PUSH0 PUSH2 0x1CB8 PUSH2 0x1CB3 DUP5 PUSH2 0x1C68 JUMP JUMPDEST PUSH2 0x1C4E JUMP JUMPDEST SWAP1 POP DUP3 DUP2 MSTORE PUSH1 0x20 DUP2 ADD DUP5 DUP5 DUP5 ADD GT ISZERO PUSH2 0x1CD4 JUMPI PUSH2 0x1CD3 PUSH2 0x1BEC JUMP JUMPDEST JUMPDEST PUSH2 0x1CDF DUP5 DUP3 DUP6 PUSH2 0x1C98 JUMP JUMPDEST POP SWAP4 SWAP3 POP POP POP JUMP JUMPDEST PUSH0 DUP3 PUSH1 0x1F DUP4 ADD SLT PUSH2 0x1CFB JUMPI PUSH2 0x1CFA PUSH2 0x1BE8 JUMP JUMPDEST JUMPDEST DUP2 CALLDATALOAD PUSH2 0x1D0B DUP5 DUP3 PUSH1 0x20 DUP7 ADD PUSH2 0x1CA6 JUMP JUMPDEST SWAP2 POP POP SWAP3 SWAP2 POP POP JUMP JUMPDEST PUSH0 DUP2 ISZERO ISZERO SWAP1 POP SWAP2 SWAP1 POP JUMP JUMPDEST PUSH2 0x1D28 DUP2 PUSH2 0x1D14 JUMP JUMPDEST DUP2 EQ PUSH2 0x1D32 JUMPI PUSH0 DUP1 REVERT JUMPDEST POP JUMP JUMPDEST PUSH0 DUP2 CALLDATALOAD SWAP1 POP PUSH2 0x1D43 DUP2 PUSH2 0x1D1F JUMP JUMPDEST SWAP3 SWAP2 POP POP JUMP JUMPDEST PUSH0 DUP1 PUSH1 0x40 DUP4 DUP6 SUB SLT ISZERO PUSH2 0x1D5F JUMPI PUSH2 0x1D5E PUSH2 0x1A80 JUMP JUMPDEST JUMPDEST PUSH0 DUP4 ADD CALLDATALOAD PUSH8 0xFFFFFFFFFFFFFFFF DUP2 GT ISZERO PUSH2 0x1D7C JUMPI PUSH2 0x1D7B PUSH2 0x1A84 JUMP JUMPDEST JUMPDEST PUSH2 0x1D88 DUP6 DUP3 DUP7 ADD PUSH2 0x1CE7 JUMP JUMPDEST SWAP3 POP POP PUSH1 0x20 PUSH2 0x1D99 DUP6 DUP3 DUP7 ADD PUSH2 0x1D35 JUMP JUMPDEST SWAP2 POP POP SWAP3 POP SWAP3 SWAP1 POP JUMP JUMPDEST PUSH2 0x1DAC DUP2 PUSH2 0x1AA7 JUMP JUMPDEST DUP3 MSTORE POP POP JUMP JUMPDEST PUSH0 DUP3 DUP3 MSTORE PUSH1 0x20 DUP3 ADD SWAP1 POP SWAP3 SWAP2 POP POP JUMP JUMPDEST PUSH0 PUSH2 0x1DCC DUP3 PUSH2 0x1B3E JUMP JUMPDEST PUSH2 0x1DD6 DUP2 DUP6 PUSH2 0x1DB2 JUMP JUMPDEST SWAP4 POP PUSH2 0x1DE6 DUP2 DUP6 PUSH1 0x20 DUP7 ADD PUSH2 0x1B58 JUMP JUMPDEST PUSH2 0x1DEF DUP2 PUSH2 0x1B80 JUMP JUMPDEST DUP5 ADD SWAP2 POP POP SWAP3 SWAP2 POP POP JUMP JUMPDEST PUSH2 0x1E03 DUP2 PUSH2 0x1B0D JUMP JUMPDEST DUP3 MSTORE POP POP JUMP JUMPDEST PUSH2 0x1E12 DUP2 PUSH2 0x1D14 JUMP JUMPDEST DUP3 MSTORE POP POP JUMP JUMPDEST PUSH0 PUSH2 0x100 DUP4 ADD PUSH0 DUP4 ADD MLOAD PUSH2 0x1E2E PUSH0 DUP7 ADD DUP3 PUSH2 0x1DA3 JUMP JUMPDEST POP PUSH1 0x20 DUP4 ADD MLOAD DUP5 DUP3 SUB PUSH1 0x20 DUP7 ADD MSTORE PUSH2 0x1E46 DUP3 DUP3 PUSH2 0x1DC2 JUMP JUMPDEST SWAP2 POP POP PUSH1 0x40 DUP4 ADD MLOAD DUP5 DUP3 SUB PUSH1 0x40 DUP7 ADD MSTORE PUSH2 0x1E60 DUP3 DUP3 PUSH2 0x1DC2 JUMP JUMPDEST SWAP2 POP POP PUSH1 0x60 DUP4 ADD MLOAD PUSH2 0x1E75 PUSH1 0x60 DUP7 ADD DUP3 PUSH2 0x1DFA JUMP JUMPDEST POP PUSH1 0x80 DUP4 ADD MLOAD PUSH2 0x1E88 PUSH1 0x80 DUP7 ADD DUP3 PUSH2 0x1DFA JUMP JUMPDEST POP PUSH1 0xA0 DUP4 ADD MLOAD PUSH2 0x1E9B PUSH1 0xA0 DUP7 ADD DUP3 PUSH2 0x1DFA JUMP JUMPDEST POP PUSH1 0xC0 DUP4 ADD MLOAD PUSH2 0x1EAE PUSH1 0xC0 DUP7 ADD DUP3 PUSH2 0x1DFA JUMP JUMPDEST POP PUSH1 0xE0 DUP4 ADD MLOAD PUSH2 0x1EC1 PUSH1 0xE0 DUP7 ADD DUP3 PUSH2 0x1E09 JUMP JUMPDEST POP DUP1 SWAP2 POP POP SWAP3 SWAP2 POP POP JUMP JUMPDEST PUSH0 PUSH1 0x20 DUP3 ADD SWAP1 POP DUP2 DUP2 SUB PUSH0 DUP4 ADD MSTORE PUSH2 0x1EE4 DUP2 DUP5 PUSH2 0x1E18 JUMP JUMPDEST SWAP1 POP SWAP3 SWAP2 POP POP JUMP JUMPDEST PUSH0 PUSH1 0x20 DUP3 DUP5 SUB SLT ISZERO PUSH2 0x1F01 JUMPI PUSH2 0x1F00 PUSH2 0x1A80 JUMP JUMPDEST JUMPDEST PUSH0 DUP3 ADD CALLDATALOAD PUSH8 0xFFFFFFFFFFFFFFFF DUP2 GT ISZERO PUSH2 0x1F1E JUMPI PUSH2 0x1F1D PUSH2 0x1A84 JUMP JUMPDEST JUMPDEST PUSH2 0x1F2A DUP5 DUP3 DUP6 ADD PUSH2 0x1CE7 JUMP JUMPDEST SWAP2 POP POP SWAP3 SWAP2 POP POP JUMP JUMPDEST PUSH0 PUSH2 0x1F3D DUP3 PUSH2 0x1A88 JUMP JUMPDEST SWAP1 POP SWAP2 SWAP1 POP JUMP JUMPDEST PUSH2 0x1F4D DUP2 PUSH2 0x1F33 JUMP JUMPDEST DUP3 MSTORE POP POP JUMP JUMPDEST PUSH2 0x1F5C DUP2 PUSH2 0x1D14 JUMP JUMPDEST DUP3 MSTORE POP POP JUMP JUMPDEST PUSH0 PUSH2 0x180 DUP3 ADD SWAP1 POP DUP2 DUP2 SUB PUSH0 DUP4 ADD MSTORE PUSH2 0x1F7B DUP2 DUP16 PUSH2 0x1B90 JUMP JUMPDEST SWAP1 POP DUP2 DUP2 SUB PUSH1 0x20 DUP4 ADD MSTORE PUSH2 0x1F8F DUP2 DUP15 PUSH2 0x1B90 JUMP JUMPDEST SWAP1 POP PUSH2 0x1F9E PUSH1 0x40 DUP4 ADD DUP14 PUSH2 0x1B16 JUMP JUMPDEST PUSH2 0x1FAB PUSH1 0x60 DUP4 ADD DUP13 PUSH2 0x1F44 JUMP JUMPDEST PUSH2 0x1FB8 PUSH1 0x80 DUP4 ADD DUP12 PUSH2 0x1B16 JUMP JUMPDEST PUSH2 0x1FC5 PUSH1 0xA0 DUP4 ADD DUP11 PUSH2 0x1B16 JUMP JUMPDEST PUSH2 0x1FD2 PUSH1 0xC0 DUP4 ADD DUP10 PUSH2 0x1B16 JUMP JUMPDEST PUSH2 0x1FDF PUSH1 0xE0 DUP4 ADD DUP9 PUSH2 0x1B16 JUMP JUMPDEST PUSH2 0x1FED PUSH2 0x100 DUP4 ADD DUP8 PUSH2 0x1F53 JUMP JUMPDEST PUSH2 0x1FFB PUSH2 0x120 DUP4 ADD DUP7 PUSH2 0x1F53 JUMP JUMPDEST PUSH2 0x2009 PUSH2 0x140 DUP4 ADD DUP6 PUSH2 0x1F53 JUMP JUMPDEST DUP2 DUP2 SUB PUSH2 0x160 DUP4 ADD MSTORE PUSH2 0x201C DUP2 DUP5 PUSH2 0x1B90 JUMP JUMPDEST SWAP1 POP SWAP14 SWAP13 POP POP POP POP POP POP POP POP POP POP POP POP POP JUMP JUMPDEST PUSH0 DUP1 PUSH1 0x40 DUP4 DUP6 SUB SLT ISZERO PUSH2 0x2045 JUMPI PUSH2 0x2044 PUSH2 0x1A80 JUMP JUMPDEST JUMPDEST PUSH0 DUP4 ADD CALLDATALOAD PUSH8 0xFFFFFFFFFFFFFFFF DUP2 GT ISZERO PUSH2 0x2062 JUMPI PUSH2 0x2061 PUSH2 0x1A84 JUMP JUMPDEST JUMPDEST PUSH2 0x206E DUP6 DUP3 DUP7 ADD PUSH2 0x1CE7 JUMP JUMPDEST SWAP3 POP POP PUSH1 0x20 DUP4 ADD CALLDATALOAD PUSH8 0xFFFFFFFFFFFFFFFF DUP2 GT ISZERO PUSH2 0x208F JUMPI PUSH2 0x208E PUSH2 0x1A84 JUMP JUMPDEST JUMPDEST PUSH2 0x209B DUP6 DUP3 DUP7 ADD PUSH2 0x1CE7 JUMP JUMPDEST SWAP2 POP POP SWAP3 POP SWAP3 SWAP1 POP JUMP JUMPDEST PUSH0 DUP2 MLOAD SWAP1 POP SWAP2 SWAP1 POP JUMP JUMPDEST PUSH0 DUP3 DUP3 MSTORE PUSH1 0x20 DUP3 ADD SWAP1 POP SWAP3 SWAP2 POP POP JUMP JUMPDEST PUSH0 DUP2 SWAP1 POP PUSH1 0x20 DUP3 ADD SWAP1 POP SWAP2 SWAP1 POP JUMP JUMPDEST PUSH0 PUSH1 0x40 DUP4 ADD PUSH0 DUP4 ADD MLOAD PUSH2 0x20E3 PUSH0 DUP7 ADD DUP3 PUSH2 0x1DA3 JUMP JUMPDEST POP PUSH1 0x20 DUP4 ADD MLOAD DUP5 DUP3 SUB PUSH1 0x20 DUP7 ADD MSTORE PUSH2 0x20FB DUP3 DUP3 PUSH2 0x1DC2 JUMP JUMPDEST SWAP2 POP POP DUP1 SWAP2 POP POP SWAP3 SWAP2 POP POP JUMP JUMPDEST PUSH0 PUSH2 0x2113 DUP4 DUP4 PUSH2 0x20CE JUMP JUMPDEST SWAP1 POP SWAP3 SWAP2 POP POP JUMP JUMPDEST PUSH0 PUSH1 0x20 DUP3 ADD SWAP1 POP SWAP2 SWAP1 POP JUMP JUMPDEST PUSH0 PUSH2 0x2131 DUP3 PUSH2 0x20A5 JUMP JUMPDEST PUSH2 0x213B DUP2 DUP6 PUSH2 0x20AF JUMP JUMPDEST SWAP4 POP DUP4 PUSH1 0x20 DUP3 MUL DUP6 ADD PUSH2 0x214D DUP6 PUSH2 0x20BF JUMP JUMPDEST DUP1 PUSH0 JUMPDEST DUP6 DUP2 LT ISZERO PUSH2 0x2188 JUMPI DUP5 DUP5 SUB DUP10 MSTORE DUP2 MLOAD PUSH2 0x2169 DUP6 DUP3 PUSH2 0x2108 JUMP JUMPDEST SWAP5 POP PUSH2 0x2174 DUP4 PUSH2 0x211B JUMP JUMPDEST SWAP3 POP PUSH1 0x20 DUP11 ADD SWAP10 POP POP PUSH1 0x1 DUP2 ADD SWAP1 POP PUSH2 0x2150 JUMP JUMPDEST POP DUP3 SWAP8 POP DUP8 SWAP6 POP POP POP POP POP POP SWAP3 SWAP2 POP POP JUMP JUMPDEST PUSH0 PUSH1 0x20 DUP3 ADD SWAP1 POP DUP2 DUP2 SUB PUSH0 DUP4 ADD MSTORE PUSH2 0x21B2 DUP2 DUP5 PUSH2 0x2127 JUMP JUMPDEST SWAP1 POP SWAP3 SWAP2 POP POP JUMP JUMPDEST PUSH0 DUP2 MLOAD SWAP1 POP SWAP2 SWAP1 POP JUMP JUMPDEST PUSH0 DUP3 DUP3 MSTORE PUSH1 0x20 DUP3 ADD SWAP1 POP SWAP3 SWAP2 POP POP JUMP JUMPDEST PUSH0 DUP2 SWAP1 POP PUSH1 0x20 DUP3 ADD SWAP1 POP SWAP2 SWAP1 POP JUMP JUMPDEST PUSH0 PUSH1 0x60 DUP4 ADD PUSH0 DUP4 ADD MLOAD DUP5 DUP3 SUB PUSH0 DUP7 ADD MSTORE PUSH2 0x21FD DUP3 DUP3 PUSH2 0x1DC2 JUMP JUMPDEST SWAP2 POP POP PUSH1 0x20 DUP4 ADD MLOAD DUP5 DUP3 SUB PUSH1 0x20 DUP7 ADD MSTORE PUSH2 0x2217 DUP3 DUP3 PUSH2 0x1DC2 JUMP JUMPDEST SWAP2 POP POP PUSH1 0x40 DUP4 ADD MLOAD PUSH2 0x222C PUSH1 0x40 DUP7 ADD DUP3 PUSH2 0x1DFA JUMP JUMPDEST POP DUP1 SWAP2 POP POP SWAP3 SWAP2 POP POP JUMP JUMPDEST PUSH0 PUSH2 0x2242 DUP4 DUP4 PUSH2 0x21E3 JUMP JUMPDEST SWAP1 POP SWAP3 SWAP2 POP POP JUMP JUMPDEST PUSH0 PUSH1 0x20 DUP3 ADD SWAP1 POP SWAP2 SWAP1 POP JUMP JUMPDEST PUSH0 PUSH2 0x2260 DUP3 PUSH2 0x21BA JUMP JUMPDEST PUSH2 0x226A DUP2 DUP6 PUSH2 0x21C4 JUMP JUMPDEST SWAP4 POP DUP4 PUSH1 0x20 DUP3 MUL DUP6 ADD PUSH2 0x227C DUP6 PUSH2 0x21D4 JUMP JUMPDEST DUP1 PUSH0 JUMPDEST DUP6 DUP2 LT ISZERO PUSH2 0x22B7 JUMPI DUP5 DUP5 SUB DUP10 MSTORE DUP2 MLOAD PUSH2 0x2298 DUP6 DUP3 PUSH2 0x2237 JUMP JUMPDEST SWAP5 POP PUSH2 0x22A3 DUP4 PUSH2 0x224A JUMP JUMPDEST SWAP3 POP PUSH1 0x20 DUP11 ADD SWAP10 POP POP PUSH1 0x1 DUP2 ADD SWAP1 POP PUSH2 0x227F JUMP JUMPDEST POP DUP3 SWAP8 POP DUP8 SWAP6 POP POP POP POP POP POP SWAP3 SWAP2 POP POP JUMP JUMPDEST PUSH0 PUSH1 0x20 DUP3 ADD SWAP1 POP DUP2 DUP2 SUB PUSH0 DUP4 ADD MSTORE PUSH2 0x22E1 DUP2 DUP5 PUSH2 0x2256 JUMP JUMPDEST SWAP1 POP SWAP3 SWAP2 POP POP JUMP JUMPDEST PUSH2 0x22F2 DUP2 PUSH2 0x1B0D JUMP JUMPDEST DUP2 EQ PUSH2 0x22FC JUMPI PUSH0 DUP1 REVERT JUMPDEST POP JUMP JUMPDEST PUSH0 DUP2 CALLDATALOAD SWAP1 POP PUSH2 0x230D DUP2 PUSH2 0x22E9 JUMP JUMPDEST SWAP3 SWAP2 POP POP JUMP JUMPDEST PUSH2 0x231C DUP2 PUSH2 0x1F33 JUMP JUMPDEST DUP2 EQ PUSH2 0x2326 JUMPI PUSH0 DUP1 REVERT JUMPDEST POP JUMP JUMPDEST PUSH0 DUP2 CALLDATALOAD SWAP1 POP PUSH2 0x2337 DUP2 PUSH2 0x2313 JUMP JUMPDEST SWAP3 SWAP2 POP POP JUMP JUMPDEST PUSH0 DUP1 PUSH0 DUP1 PUSH0 PUSH1 0xA0 DUP7 DUP9 SUB SLT ISZERO PUSH2 0x2356 JUMPI PUSH2 0x2355 PUSH2 0x1A80 JUMP JUMPDEST JUMPDEST PUSH0 DUP7 ADD CALLDATALOAD PUSH8 0xFFFFFFFFFFFFFFFF DUP2 GT ISZERO PUSH2 0x2373 JUMPI PUSH2 0x2372 PUSH2 0x1A84 JUMP JUMPDEST JUMPDEST PUSH2 0x237F DUP9 DUP3 DUP10 ADD PUSH2 0x1CE7 JUMP JUMPDEST SWAP6 POP POP PUSH1 0x20 DUP7 ADD CALLDATALOAD PUSH8 0xFFFFFFFFFFFFFFFF DUP2 GT ISZERO PUSH2 0x23A0 JUMPI PUSH2 0x239F PUSH2 0x1A84 JUMP JUMPDEST JUMPDEST PUSH2 0x23AC DUP9 DUP3 DUP10 ADD PUSH2 0x1CE7 JUMP JUMPDEST SWAP5 POP POP PUSH1 0x40 PUSH2 0x23BD DUP9 DUP3 DUP10 ADD PUSH2 0x22FF JUMP JUMPDEST SWAP4 POP POP PUSH1 0x60 PUSH2 0x23CE DUP9 DUP3 DUP10 ADD PUSH2 0x22FF JUMP JUMPDEST SWAP3 POP POP PUSH1 0x80 PUSH2 0x23DF DUP9 DUP3 DUP10 ADD PUSH2 0x2329 JUMP JUMPDEST SWAP2 POP POP SWAP3 SWAP6 POP SWAP3 SWAP6 SWAP1 SWAP4 POP JUMP JUMPDEST PUSH2 0x23F5 DUP2 PUSH2 0x1AA7 JUMP JUMPDEST DUP3 MSTORE POP POP JUMP JUMPDEST PUSH0 PUSH1 0x20 DUP3 ADD SWAP1 POP PUSH2 0x240E PUSH0 DUP4 ADD DUP5 PUSH2 0x23EC JUMP JUMPDEST SWAP3 SWAP2 POP POP JUMP JUMPDEST PUSH32 0x4E487B7100000000000000000000000000000000000000000000000000000000 PUSH0 MSTORE PUSH1 0x22 PUSH1 0x4 MSTORE PUSH1 0x24 PUSH0 REVERT JUMPDEST PUSH0 PUSH1 0x2 DUP3 DIV SWAP1 POP PUSH1 0x1 DUP3 AND DUP1 PUSH2 0x2458 JUMPI PUSH1 0x7F DUP3 AND SWAP2 POP JUMPDEST PUSH1 0x20 DUP3 LT DUP2 SUB PUSH2 0x246B JUMPI PUSH2 0x246A PUSH2 0x2414 JUMP JUMPDEST JUMPDEST POP SWAP2 SWAP1 POP JUMP JUMPDEST PUSH0 DUP2 SWAP1 POP SWAP3 SWAP2 POP POP JUMP JUMPDEST PUSH0 PUSH2 0x2485 DUP3 PUSH2 0x1B3E JUMP JUMPDEST PUSH2 0x248F DUP2 DUP6 PUSH2 0x2471 JUMP JUMPDEST SWAP4 POP PUSH2 0x249F DUP2 DUP6 PUSH1 0x20 DUP7 ADD PUSH2 0x1B58 JUMP JUMPDEST DUP1 DUP5 ADD SWAP2 POP POP SWAP3 SWAP2 POP POP JUMP JUMPDEST PUSH0 PUSH2 0x24B6 DUP3 DUP5 PUSH2 0x247B JUMP JUMPDEST SWAP2 POP DUP2 SWAP1 POP SWAP3 SWAP2 POP POP JUMP JUMPDEST PUSH32 0x4E487B7100000000000000000000000000000000000000000000000000000000 PUSH0 MSTORE PUSH1 0x11 PUSH1 0x4 MSTORE PUSH1 0x24 PUSH0 REVERT JUMPDEST PUSH0 PUSH2 0x24F8 DUP3 PUSH2 0x1B0D JUMP JUMPDEST SWAP2 POP PUSH32 0xFFFFFFFFFFFFFFFFFFFFFFFFFFFFFFFFFFFFFFFFFFFFFFFFFFFFFFFFFFFFFFFF DUP3 SUB PUSH2 0x252A JUMPI PUSH2 0x2529 PUSH2 0x24C1 JUMP JUMPDEST JUMPDEST PUSH1 0x1 DUP3 ADD SWAP1 POP SWAP2 SWAP1 POP JUMP JUMPDEST PUSH0 DUP2 SWAP1 POP DUP2 PUSH0 MSTORE PUSH1 0x20 PUSH0 KECCAK256 SWAP1 POP SWAP2 SWAP1 POP JUMP JUMPDEST PUSH0 PUSH1 0x20 PUSH1 0x1F DUP4 ADD DIV SWAP1 POP SWAP2 SWAP1 POP JUMP JUMPDEST PUSH0 DUP3 DUP3 SHL SWAP1 POP SWAP3 SWAP2 POP POP JUMP JUMPDEST PUSH0 PUSH1 0x8 DUP4 MUL PUSH2 0x2591 PUSH32 0xFFFFFFFFFFFFFFFFFFFFFFFFFFFFFFFFFFFFFFFFFFFFFFFFFFFFFFFFFFFFFFFF DUP3 PUSH2 0x2556 JUMP JUMPDEST PUSH2 0x259B DUP7 DUP4 PUSH2 0x2556 JUMP JUMPDEST SWAP6 POP DUP1 NOT DUP5 AND SWAP4 POP DUP1 DUP7 AND DUP5 OR SWAP3 POP POP POP SWAP4 SWAP3 POP POP POP JUMP JUMPDEST PUSH0 DUP2 SWAP1 POP SWAP2 SWAP1 POP JUMP JUMPDEST PUSH0 PUSH2 0x25D6 PUSH2 0x25D1 PUSH2 0x25CC DUP5 PUSH2 0x1B0D JUMP JUMPDEST PUSH2 0x25B3 JUMP JUMPDEST PUSH2 0x1B0D JUMP JUMPDEST SWAP1 POP SWAP2 SWAP1 POP JUMP JUMPDEST PUSH0 DUP2 SWAP1 POP SWAP2 SWAP1 POP JUMP JUMPDEST PUSH2 0x25EF DUP4 PUSH2 0x25BC JUMP JUMPDEST PUSH2 0x2603 PUSH2 0x25FB DUP3 PUSH2 0x25DD JUMP JUMPDEST DUP5 DUP5 SLOAD PUSH2 0x2562 JUMP JUMPDEST DUP3 SSTORE POP POP POP POP JUMP JUMPDEST PUSH0 SWAP1 JUMP JUMPDEST PUSH2 0x2617 PUSH2 0x260B JUMP JUMPDEST PUSH2 0x2622 DUP2 DUP5 DUP5 PUSH2 0x25E6 JUMP JUMPDEST POP POP POP JUMP JUMPDEST JUMPDEST DUP2 DUP2 LT ISZERO PUSH2 0x2645 JUMPI PUSH2 0x263A PUSH0 DUP3 PUSH2 0x260F JUMP JUMPDEST PUSH1 0x1 DUP2 ADD SWAP1 POP PUSH2 0x2628 JUMP JUMPDEST POP POP JUMP JUMPDEST PUSH1 0x1F DUP3 GT ISZERO PUSH2 0x268A JUMPI PUSH2 0x265B DUP2 PUSH2 0x2535 JUMP JUMPDEST PUSH2 0x2664 DUP5 PUSH2 0x2547 JUMP JUMPDEST DUP2 ADD PUSH1 0x20 DUP6 LT ISZERO PUSH2 0x2673 JUMPI DUP2 SWAP1 POP JUMPDEST PUSH2 0x2687 PUSH2 0x267F DUP6 PUSH2 0x2547 JUMP JUMPDEST DUP4 ADD DUP3 PUSH2 0x2627 JUMP JUMPDEST POP POP JUMPDEST POP POP POP JUMP JUMPDEST PUSH0 DUP3 DUP3 SHR SWAP1 POP SWAP3 SWAP2 POP POP JUMP JUMPDEST PUSH0 PUSH2 0x26AA PUSH0 NOT DUP5 PUSH1 0x8 MUL PUSH2 0x268F JUMP JUMPDEST NOT DUP1 DUP4 AND SWAP2 POP POP SWAP3 SWAP2 POP POP JUMP JUMPDEST PUSH0 PUSH2 0x26C2 DUP4 DUP4 PUSH2 0x269B JUMP JUMPDEST SWAP2 POP DUP3 PUSH1 0x2 MUL DUP3 OR SWAP1 POP SWAP3 SWAP2 POP POP JUMP JUMPDEST PUSH2 0x26DB DUP3 PUSH2 0x1B3E JUMP JUMPDEST PUSH8 0xFFFFFFFFFFFFFFFF DUP2 GT ISZERO PUSH2 0x26F4 JUMPI PUSH2 0x26F3 PUSH2 0x1BF0 JUMP JUMPDEST JUMPDEST PUSH2 0x26FE DUP3 SLOAD PUSH2 0x2441 JUMP JUMPDEST PUSH2 0x2709 DUP3 DUP3 DUP6 PUSH2 0x2649 JUMP JUMPDEST PUSH0 PUSH1 0x20 SWAP1 POP PUSH1 0x1F DUP4 GT PUSH1 0x1 DUP2 EQ PUSH2 0x273A JUMPI PUSH0 DUP5 ISZERO PUSH2 0x2728 JUMPI DUP3 DUP8 ADD MLOAD SWAP1 POP JUMPDEST PUSH2 0x2732 DUP6 DUP3 PUSH2 0x26B7 JUMP JUMPDEST DUP7 SSTORE POP PUSH2 0x2799 JUMP JUMPDEST PUSH1 0x1F NOT DUP5 AND PUSH2 0x2748 DUP7 PUSH2 0x2535 JUMP JUMPDEST PUSH0 JUMPDEST DUP3 DUP2 LT ISZERO PUSH2 0x276F JUMPI DUP5 DUP10 ADD MLOAD DUP3 SSTORE PUSH1 0x1 DUP3 ADD SWAP2 POP PUSH1 0x20 DUP6 ADD SWAP5 POP PUSH1 0x20 DUP2 ADD SWAP1 POP PUSH2 0x274A JUMP JUMPDEST DUP7 DUP4 LT ISZERO PUSH2 0x278C JUMPI DUP5 DUP10 ADD MLOAD PUSH2 0x2788 PUSH1 0x1F DUP10 AND DUP3 PUSH2 0x269B JUMP JUMPDEST DUP4 SSTORE POP JUMPDEST PUSH1 0x1 PUSH1 0x2 DUP9 MUL ADD DUP9 SSTORE POP POP POP JUMPDEST POP POP POP POP POP POP JUMP JUMPDEST PUSH0 PUSH2 0x27AB DUP3 PUSH2 0x1B0D JUMP JUMPDEST SWAP2 POP PUSH0 DUP3 SUB PUSH2 0x27BD JUMPI PUSH2 0x27BC PUSH2 0x24C1 JUMP JUMPDEST JUMPDEST PUSH1 0x1 DUP3 SUB SWAP1 POP SWAP2 SWAP1 POP JUMP INVALID COINBASE PUSH13 0x6C2074686520636F6E74726962 PUSH22 0x746F7273206861766520766F74656420666F72207265 PUSH11 0x656374696F6EA264697066 PUSH20 0x582212207F256DB962A38CBC49B011F87C86D8A6 EXP 0xEF 0xC9 PUSH30 0x63548F50FC34629A8DCDCB8364736F6C6343000818003300000000000000 "},"gasEstimates":{"creation":{"codeDepositCost":"2056600","executionCost":"infinite","totalCost":"infinite"},"external":{"addFunds()":"2355","approvers(address)":"2826","cancelCampaign()":"26623","claimFunds()":"infinite","claimRequest(string,string)":"infinite","contribute()":"53206","getCampaignName()":"infinite","getContractBalance()":"379","getContributorsCount()":"2564","getDescription()":"infinite","getManager()":"2537","getMinimumContribution()":"2542","getRequestClaims(string)":"infinite","getRequests()":"infinite","getRequestsCount()":"2522","getSummary()":"infinite","rejectRequest(string,string)":"infinite","requests(string)":"infinite","submitRequest(string)":"infinite","triggerCampaignRequest(string,string,uint256,uint256,address)":"infinite","voteRequest(string,bool)":"infinite"}},"methodIdentifiers":{"addFunds()":"a26759cb","approvers(address)":"0a144391","cancelCampaign()":"980e7844","claimFunds()":"ac307773","claimRequest(string,string)":"f0190215","contribute()":"d7bb99ba","getCampaignName()":"885e7c62","getContractBalance()":"6f9fb98a","getContributorsCount()":"feed5561","getDescription()":"1a092541","getManager()":"d5009584","getMinimumContribution()":"f84038b1","getRequestClaims(string)":"7d6e5b9e","getRequests()":"8813ce12","getRequestsCount()":"3410452a","getSummary()":"4051ddac","rejectRequest(string,string)":"72a8d706","requests(string)":"692d51d2","submitRequest(string)":"e2e46b52","triggerCampaignRequest(string,string,uint256,uint256,address)":"a7ac8000","voteRequest(string,bool)":"30e8fc5c"}},"storageLayout":{"storage":[{"astId":165,"contract":"Campaign.sol:Campaign","label":"_name","offset":0,"slot":"0","type":"t_string_storage"},{"astId":167,"contract":"Campaign.sol:Campaign","label":"_description","offset":0,"slot":"1","type":"t_string_storage"},{"astId":169,"contract":"Campaign.sol:Campaign","label":"_manager","offset":0,"slot":"2","type":"t_address"},{"astId":173,"contract":"Campaign.sol:Campaign","label":"approvers","offset":0,"slot":"3","type":"t_mapping(t_address,t_uint256)"},{"astId":175,"contract":"Campaign.sol:Campaign","label":"_approversCount","offset":0,"slot":"4","type":"t_uint256"},{"astId":177,"contract":"Campaign.sol:Campaign","label":"_minimumContribution","offset":0,"slot":"5","type":"t_uint256"},{"astId":181,"contract":"Campaign.sol:Campaign","label":"_requests","offset":0,"slot":"6","type":"t_array(t_struct(RequestSummary)158_storage)dyn_storage"},{"astId":186,"contract":"Campaign.sol:Campaign","label":"requests","offset":0,"slot":"7","type":"t_mapping(t_string_memory_ptr,t_struct(Request)134_storage)"},{"astId":188,"contract":"Campaign.sol:Campaign","label":"_requestsCount","offset":0,"slot":"8","type":"t_uint256"},{"astId":190,"contract":"Campaign.sol:Campaign","label":"_cancelled","offset":0,"slot":"9","type":"t_bool"}],"types":{"t_address":{"encoding":"inplace","label":"address","numberOfBytes":"20"},"t_address_payable":{"encoding":"inplace","label":"address payable","numberOfBytes":"20"},"t_array(t_struct(RequestClaim)163_storage)dyn_storage":{"base":"t_struct(RequestClaim)163_storage","encoding":"dynamic_array","label":"struct Campaign.RequestClaim[]","numberOfBytes":"32"},"t_array(t_struct(RequestSummary)158_storage)dyn_storage":{"base":"t_struct(RequestSummary)158_storage","encoding":"dynamic_array","label":"struct Campaign.RequestSummary[]","numberOfBytes":"32"},"t_bool":{"encoding":"inplace","label":"bool","numberOfBytes":"1"},"t_mapping(t_address,t_bool)":{"encoding":"mapping","key":"t_address","label":"mapping(address => bool)","numberOfBytes":"32","value":"t_bool"},"t_mapping(t_address,t_uint256)":{"encoding":"mapping","key":"t_address","label":"mapping(address => uint256)","numberOfBytes":"32","value":"t_uint256"},"t_mapping(t_string_memory_ptr,t_struct(Request)134_storage)":{"encoding":"mapping","key":"t_string_memory_ptr","label":"mapping(string => struct Campaign.Request)","numberOfBytes":"32","value":"t_struct(Request)134_storage"},"t_string_memory_ptr":{"encoding":"bytes","label":"string","numberOfBytes":"32"},"t_string_storage":{"encoding":"bytes","label":"string","numberOfBytes":"32"},"t_struct(Request)134_storage":{"encoding":"inplace","label":"struct Campaign.Request","members":[{"astId":103,"contract":"Campaign.sol:Campaign","label":"name","offset":0,"slot":"0","type":"t_string_storage"},{"astId":105,"contract":"Campaign.sol:Campaign","label":"description","offset":0,"slot":"1","type":"t_string_storage"},{"astId":107,"contract":"Campaign.sol:Campaign","label":"amount","offset":0,"slot":"2","type":"t_uint256"},{"astId":109,"contract":"Campaign.sol:Campaign","label":"receiver","offset":0,"slot":"3","type":"t_address_payable"},{"astId":111,"contract":"Campaign.sol:Campaign","label":"approvalsCount","offset":0,"slot":"4","type":"t_uint256"},{"astId":113,"contract":"Campaign.sol:Campaign","label":"requiredApprovals","offset":0,"slot":"5","type":"t_uint256"},{"astId":115,"contract":"Campaign.sol:Campaign","label":"rejectionsCount","offset":0,"slot":"6","type":"t_uint256"},{"astId":117,"contract":"Campaign.sol:Campaign","label":"claimsCount","offset":0,"slot":"7","type":"t_uint256"},{"astId":119,"contract":"Campaign.sol:Campaign","label":"canSubmit","offset":0,"slot":"8","type":"t_bool"},{"astId":121,"contract":"Campaign.sol:Campaign","label":"complete","offset":1,"slot":"8","type":"t_bool"},{"astId":123,"contract":"Campaign.sol:Campaign","label":"rejected","offset":2,"slot":"8","type":"t_bool"},{"astId":125,"contract":"Campaign.sol:Campaign","label":"rejectReason","offset":0,"slot":"9","type":"t_string_storage"},{"astId":129,"contract":"Campaign.sol:Campaign","label":"approvers","offset":0,"slot":"10","type":"t_mapping(t_address,t_bool)"},{"astId":133,"contract":"Campaign.sol:Campaign","label":"claims","offset":0,"slot":"11","type":"t_array(t_struct(RequestClaim)163_storage)dyn_storage"}],"numberOfBytes":"384"},"t_struct(RequestClaim)163_storage":{"encoding":"inplace","label":"struct Campaign.RequestClaim","members":[{"astId":160,"contract":"Campaign.sol:Campaign","label":"contributor","offset":0,"slot":"0","type":"t_address"},{"astId":162,"contract":"Campaign.sol:Campaign","label":"description","offset":0,"slot":"1","type":"t_string_storage"}],"numberOfBytes":"64"},"t_struct(RequestSummary)158_storage":{"encoding":"inplace","label":"struct Campaign.RequestSummary","members":[{"astId":153,"contract":"Campaign.sol:Campaign","label":"name","offset":0,"slot":"0","type":"t_string_storage"},{"astId":155,"contract":"Campaign.sol:Campaign","label":"description","offset":0,"slot":"1","type":"t_string_storage"},{"astId":157,"contract":"Campaign.sol:Campaign","label":"amount","offset":0,"slot":"2","type":"t_uint256"}],"numberOfBytes":"96"},"t_uint256":{"encoding":"inplace","label":"uint256","numberOfBytes":"32"}}},"userdoc":{"kind":"user","methods":{},"version":1}}