{"abi":[{"inputs":[{"internalType":"string","name":"name","type":"string"},{"internalType":"string","name":"description","type":"string"},{"internalType":"uint256","name":"minimum","type":"uint256"},{"internalType":"address","name":"mngr","type":"address"}],"stateMutability":"nonpayable","type":"constructor"},{"inputs":[],"name":"addFunds","outputs":[],"stateMutability":"payable","type":"function"},{"inputs":[{"internalType":"address","name":"","type":"address"}],"name":"approvers","outputs":[{"internalType":"uint256","name":"","type":"uint256"}],"stateMutability":"view","type":"function"},{"inputs":[{"internalType":"string","name":"reqName","type":"string"},{"internalType":"string","name":"description","type":"string"}],"name":"claimRequest","outputs":[],"stateMutability":"nonpayable","type":"function"},{"inputs":[],"name":"contribute","outputs":[],"stateMutability":"payable","type":"function"},{"inputs":[],"name":"getCampaignName","outputs":[{"internalType":"string","name":"","type":"string"}],"stateMutability":"view","type":"function"},{"inputs":[],"name":"getContractBalance","outputs":[{"internalType":"uint256","name":"","type":"uint256"}],"stateMutability":"view","type":"function"},{"inputs":[],"name":"getContributorsCount","outputs":[{"internalType":"uint256","name":"","type":"uint256"}],"stateMutability":"view","type":"function"},{"inputs":[],"name":"getDescription","outputs":[{"internalType":"string","name":"","type":"string"}],"stateMutability":"view","type":"function"},{"inputs":[],"name":"getManager","outputs":[{"internalType":"address","name":"","type":"address"}],"stateMutability":"view","type":"function"},{"inputs":[],"name":"getMinimumContribution","outputs":[{"internalType":"uint256","name":"","type":"uint256"}],"stateMutability":"view","type":"function"},{"inputs":[{"internalType":"string","name":"reqName","type":"string"}],"name":"getRequestClaims","outputs":[{"components":[{"internalType":"address","name":"contributor","type":"address"},{"internalType":"string","name":"description","type":"string"}],"internalType":"struct Campaign.RequestClaim[]","name":"","type":"tuple[]"}],"stateMutability":"view","type":"function"},{"inputs":[],"name":"getRequests","outputs":[{"components":[{"internalType":"string","name":"name","type":"string"},{"internalType":"string","name":"description","type":"string"},{"internalType":"uint256","name":"amount","type":"uint256"}],"internalType":"struct Campaign.RequestSummary[]","name":"","type":"tuple[]"}],"stateMutability":"view","type":"function"},{"inputs":[],"name":"getRequestsCount","outputs":[{"internalType":"uint256","name":"","type":"uint256"}],"stateMutability":"view","type":"function"},{"inputs":[],"name":"getSummary","outputs":[{"components":[{"internalType":"address","name":"manager","type":"address"},{"internalType":"string","name":"name","type":"string"},{"internalType":"string","name":"description","type":"string"},{"internalType":"uint256","name":"minContribution","type":"uint256"},{"internalType":"uint256","name":"balance","type":"uint256"},{"internalType":"uint256","name":"contributors","type":"uint256"},{"internalType":"uint256","name":"totalRequests","type":"uint256"}],"internalType":"struct Campaign.Summary","name":"","type":"tuple"}],"stateMutability":"view","type":"function"},{"inputs":[{"internalType":"string","name":"","type":"string"}],"name":"requests","outputs":[{"internalType":"string","name":"name","type":"string"},{"internalType":"string","name":"description","type":"string"},{"internalType":"uint256","name":"amount","type":"uint256"},{"internalType":"address payable","name":"receiver","type":"address"},{"internalType":"uint256","name":"approvalsCount","type":"uint256"},{"internalType":"uint256","name":"requiredApprovals","type":"uint256"},{"internalType":"uint256","name":"claimsCount","type":"uint256"},{"internalType":"bool","name":"canSubmit","type":"bool"},{"internalType":"bool","name":"complete","type":"bool"}],"stateMutability":"view","type":"function"},{"inputs":[{"internalType":"string","name":"reqName","type":"string"}],"name":"submitRequest","outputs":[],"stateMutability":"nonpayable","type":"function"},{"inputs":[{"internalType":"string","name":"name","type":"string"},{"internalType":"string","name":"description","type":"string"},{"internalType":"uint256","name":"amount","type":"uint256"},{"internalType":"uint256","name":"requiredApprovals","type":"uint256"},{"internalType":"address payable","name":"receiver","type":"address"}],"name":"triggerCampaignRequest","outputs":[],"stateMutability":"nonpayable","type":"function"},{"inputs":[{"internalType":"string","name":"reqName","type":"string"},{"internalType":"bool","name":"isApproval","type":"bool"}],"name":"voteRequest","outputs":[],"stateMutability":"nonpayable","type":"function"}],"devdoc":{"kind":"dev","methods":{},"version":1},"evm":{"assembly":"    /* \"Campaign.sol\":1142:7017  contract Campaign... */\n  mstore(0x40, 0x80)\n    /* \"Campaign.sol\":2241:2494  constructor (string memory name, string memory description, uint minimum, address mngr)... */\n  callvalue\n  dup1\n  iszero\n  tag_1\n  jumpi\n  0x00\n  dup1\n  revert\ntag_1:\n  pop\n  mload(0x40)\n  sub(codesize, bytecodeSize)\n  dup1\n  bytecodeSize\n  dup4\n  codecopy\n  dup2\n  dup2\n  add\n  0x40\n  mstore\n  dup2\n  add\n  swap1\n  tag_2\n  swap2\n  swap1\n  tag_3\n  jump\t// in\ntag_2:\n    /* \"Campaign.sol\":2361:2362  0 */\n  0x00\n    /* \"Campaign.sol\":2351:2358  minimum */\n  dup3\n    /* \"Campaign.sol\":2351:2362  minimum > 0 */\n  gt\n    /* \"Campaign.sol\":2343:2363  require(minimum > 0) */\n  tag_6\n  jumpi\n  0x00\n  dup1\n  revert\ntag_6:\n    /* \"Campaign.sol\":2384:2388  mngr */\n  dup1\n    /* \"Campaign.sol\":2373:2381  _manager */\n  0x02\n  0x00\n    /* \"Campaign.sol\":2373:2388  _manager = mngr */\n  0x0100\n  exp\n  dup2\n  sload\n  dup2\n  0xffffffffffffffffffffffffffffffffffffffff\n  mul\n  not\n  and\n  swap1\n  dup4\n  0xffffffffffffffffffffffffffffffffffffffff\n  and\n  mul\n  or\n  swap1\n  sstore\n  pop\n    /* \"Campaign.sol\":2406:2410  name */\n  dup4\n    /* \"Campaign.sol\":2398:2403  _name */\n  0x00\n    /* \"Campaign.sol\":2398:2410  _name = name */\n  swap1\n  dup2\n  tag_7\n  swap2\n  swap1\n  tag_8\n  jump\t// in\ntag_7:\n  pop\n    /* \"Campaign.sol\":2435:2446  description */\n  dup3\n    /* \"Campaign.sol\":2420:2432  _description */\n  0x01\n    /* \"Campaign.sol\":2420:2446  _description = description */\n  swap1\n  dup2\n  tag_9\n  swap2\n  swap1\n  tag_8\n  jump\t// in\ntag_9:\n  pop\n    /* \"Campaign.sol\":2480:2487  minimum */\n  dup2\n    /* \"Campaign.sol\":2457:2477  _minimumContribution */\n  0x05\n    /* \"Campaign.sol\":2457:2487  _minimumContribution = minimum */\n  dup2\n  swap1\n  sstore\n  pop\n    /* \"Campaign.sol\":2241:2494  constructor (string memory name, string memory description, uint minimum, address mngr)... */\n  pop\n  pop\n  pop\n  pop\n    /* \"Campaign.sol\":1142:7017  contract Campaign... */\n  jump(tag_10)\n    /* \"#utility.yul\":7:82   */\ntag_11:\n    /* \"#utility.yul\":40:46   */\n  0x00\n    /* \"#utility.yul\":73:75   */\n  0x40\n    /* \"#utility.yul\":67:76   */\n  mload\n    /* \"#utility.yul\":57:76   */\n  swap1\n  pop\n    /* \"#utility.yul\":7:82   */\n  swap1\n  jump\t// out\n    /* \"#utility.yul\":88:205   */\ntag_12:\n    /* \"#utility.yul\":197:198   */\n  0x00\n    /* \"#utility.yul\":194:195   */\n  dup1\n    /* \"#utility.yul\":187:199   */\n  revert\n    /* \"#utility.yul\":211:328   */\ntag_13:\n    /* \"#utility.yul\":320:321   */\n  0x00\n    /* \"#utility.yul\":317:318   */\n  dup1\n    /* \"#utility.yul\":310:322   */\n  revert\n    /* \"#utility.yul\":334:451   */\ntag_14:\n    /* \"#utility.yul\":443:444   */\n  0x00\n    /* \"#utility.yul\":440:441   */\n  dup1\n    /* \"#utility.yul\":433:445   */\n  revert\n    /* \"#utility.yul\":457:574   */\ntag_15:\n    /* \"#utility.yul\":566:567   */\n  0x00\n    /* \"#utility.yul\":563:564   */\n  dup1\n    /* \"#utility.yul\":556:568   */\n  revert\n    /* \"#utility.yul\":580:682   */\ntag_16:\n    /* \"#utility.yul\":621:627   */\n  0x00\n    /* \"#utility.yul\":672:674   */\n  0x1f\n    /* \"#utility.yul\":668:675   */\n  not\n    /* \"#utility.yul\":663:665   */\n  0x1f\n    /* \"#utility.yul\":656:661   */\n  dup4\n    /* \"#utility.yul\":652:666   */\n  add\n    /* \"#utility.yul\":648:676   */\n  and\n    /* \"#utility.yul\":638:676   */\n  swap1\n  pop\n    /* \"#utility.yul\":580:682   */\n  swap2\n  swap1\n  pop\n  jump\t// out\n    /* \"#utility.yul\":688:868   */\ntag_17:\n    /* \"#utility.yul\":736:813   */\n  0x4e487b7100000000000000000000000000000000000000000000000000000000\n    /* \"#utility.yul\":733:734   */\n  0x00\n    /* \"#utility.yul\":726:814   */\n  mstore\n    /* \"#utility.yul\":833:837   */\n  0x41\n    /* \"#utility.yul\":830:831   */\n  0x04\n    /* \"#utility.yul\":823:838   */\n  mstore\n    /* \"#utility.yul\":857:861   */\n  0x24\n    /* \"#utility.yul\":854:855   */\n  0x00\n    /* \"#utility.yul\":847:862   */\n  revert\n    /* \"#utility.yul\":874:1155   */\ntag_18:\n    /* \"#utility.yul\":957:984   */\n  tag_58\n    /* \"#utility.yul\":979:983   */\n  dup3\n    /* \"#utility.yul\":957:984   */\n  tag_16\n  jump\t// in\ntag_58:\n    /* \"#utility.yul\":949:955   */\n  dup2\n    /* \"#utility.yul\":945:985   */\n  add\n    /* \"#utility.yul\":1087:1093   */\n  dup2\n    /* \"#utility.yul\":1075:1085   */\n  dup2\n    /* \"#utility.yul\":1072:1094   */\n  lt\n    /* \"#utility.yul\":1051:1069   */\n  0xffffffffffffffff\n    /* \"#utility.yul\":1039:1049   */\n  dup3\n    /* \"#utility.yul\":1036:1070   */\n  gt\n    /* \"#utility.yul\":1033:1095   */\n  or\n    /* \"#utility.yul\":1030:1118   */\n  iszero\n  tag_59\n  jumpi\n    /* \"#utility.yul\":1098:1116   */\n  tag_60\n  tag_17\n  jump\t// in\ntag_60:\n    /* \"#utility.yul\":1030:1118   */\ntag_59:\n    /* \"#utility.yul\":1138:1148   */\n  dup1\n    /* \"#utility.yul\":1134:1136   */\n  0x40\n    /* \"#utility.yul\":1127:1149   */\n  mstore\n    /* \"#utility.yul\":917:1155   */\n  pop\n    /* \"#utility.yul\":874:1155   */\n  pop\n  pop\n  jump\t// out\n    /* \"#utility.yul\":1161:1290   */\ntag_19:\n    /* \"#utility.yul\":1195:1201   */\n  0x00\n    /* \"#utility.yul\":1222:1242   */\n  tag_62\n  tag_11\n  jump\t// in\ntag_62:\n    /* \"#utility.yul\":1212:1242   */\n  swap1\n  pop\n    /* \"#utility.yul\":1251:1284   */\n  tag_63\n    /* \"#utility.yul\":1279:1283   */\n  dup3\n    /* \"#utility.yul\":1271:1277   */\n  dup3\n    /* \"#utility.yul\":1251:1284   */\n  tag_18\n  jump\t// in\ntag_63:\n    /* \"#utility.yul\":1161:1290   */\n  swap2\n  swap1\n  pop\n  jump\t// out\n    /* \"#utility.yul\":1296:1604   */\ntag_20:\n    /* \"#utility.yul\":1358:1362   */\n  0x00\n    /* \"#utility.yul\":1448:1466   */\n  0xffffffffffffffff\n    /* \"#utility.yul\":1440:1446   */\n  dup3\n    /* \"#utility.yul\":1437:1467   */\n  gt\n    /* \"#utility.yul\":1434:1490   */\n  iszero\n  tag_65\n  jumpi\n    /* \"#utility.yul\":1470:1488   */\n  tag_66\n  tag_17\n  jump\t// in\ntag_66:\n    /* \"#utility.yul\":1434:1490   */\ntag_65:\n    /* \"#utility.yul\":1508:1537   */\n  tag_67\n    /* \"#utility.yul\":1530:1536   */\n  dup3\n    /* \"#utility.yul\":1508:1537   */\n  tag_16\n  jump\t// in\ntag_67:\n    /* \"#utility.yul\":1500:1537   */\n  swap1\n  pop\n    /* \"#utility.yul\":1592:1596   */\n  0x20\n    /* \"#utility.yul\":1586:1590   */\n  dup2\n    /* \"#utility.yul\":1582:1597   */\n  add\n    /* \"#utility.yul\":1574:1597   */\n  swap1\n  pop\n    /* \"#utility.yul\":1296:1604   */\n  swap2\n  swap1\n  pop\n  jump\t// out\n    /* \"#utility.yul\":1610:1856   */\ntag_21:\n    /* \"#utility.yul\":1691:1692   */\n  0x00\n    /* \"#utility.yul\":1701:1814   */\ntag_69:\n    /* \"#utility.yul\":1715:1721   */\n  dup4\n    /* \"#utility.yul\":1712:1713   */\n  dup2\n    /* \"#utility.yul\":1709:1722   */\n  lt\n    /* \"#utility.yul\":1701:1814   */\n  iszero\n  tag_71\n  jumpi\n    /* \"#utility.yul\":1800:1801   */\n  dup1\n    /* \"#utility.yul\":1795:1798   */\n  dup3\n    /* \"#utility.yul\":1791:1802   */\n  add\n    /* \"#utility.yul\":1785:1803   */\n  mload\n    /* \"#utility.yul\":1781:1782   */\n  dup2\n    /* \"#utility.yul\":1776:1779   */\n  dup5\n    /* \"#utility.yul\":1772:1783   */\n  add\n    /* \"#utility.yul\":1765:1804   */\n  mstore\n    /* \"#utility.yul\":1737:1739   */\n  0x20\n    /* \"#utility.yul\":1734:1735   */\n  dup2\n    /* \"#utility.yul\":1730:1740   */\n  add\n    /* \"#utility.yul\":1725:1740   */\n  swap1\n  pop\n    /* \"#utility.yul\":1701:1814   */\n  jump(tag_69)\ntag_71:\n    /* \"#utility.yul\":1848:1849   */\n  0x00\n    /* \"#utility.yul\":1839:1845   */\n  dup5\n    /* \"#utility.yul\":1834:1837   */\n  dup5\n    /* \"#utility.yul\":1830:1846   */\n  add\n    /* \"#utility.yul\":1823:1850   */\n  mstore\n    /* \"#utility.yul\":1672:1856   */\n  pop\n    /* \"#utility.yul\":1610:1856   */\n  pop\n  pop\n  pop\n  jump\t// out\n    /* \"#utility.yul\":1862:2296   */\ntag_22:\n    /* \"#utility.yul\":1951:1956   */\n  0x00\n    /* \"#utility.yul\":1976:2042   */\n  tag_73\n    /* \"#utility.yul\":1992:2041   */\n  tag_74\n    /* \"#utility.yul\":2034:2040   */\n  dup5\n    /* \"#utility.yul\":1992:2041   */\n  tag_20\n  jump\t// in\ntag_74:\n    /* \"#utility.yul\":1976:2042   */\n  tag_19\n  jump\t// in\ntag_73:\n    /* \"#utility.yul\":1967:2042   */\n  swap1\n  pop\n    /* \"#utility.yul\":2065:2071   */\n  dup3\n    /* \"#utility.yul\":2058:2063   */\n  dup2\n    /* \"#utility.yul\":2051:2072   */\n  mstore\n    /* \"#utility.yul\":2103:2107   */\n  0x20\n    /* \"#utility.yul\":2096:2101   */\n  dup2\n    /* \"#utility.yul\":2092:2108   */\n  add\n    /* \"#utility.yul\":2141:2144   */\n  dup5\n    /* \"#utility.yul\":2132:2138   */\n  dup5\n    /* \"#utility.yul\":2127:2130   */\n  dup5\n    /* \"#utility.yul\":2123:2139   */\n  add\n    /* \"#utility.yul\":2120:2145   */\n  gt\n    /* \"#utility.yul\":2117:2229   */\n  iszero\n  tag_75\n  jumpi\n    /* \"#utility.yul\":2148:2227   */\n  tag_76\n  tag_15\n  jump\t// in\ntag_76:\n    /* \"#utility.yul\":2117:2229   */\ntag_75:\n    /* \"#utility.yul\":2238:2290   */\n  tag_77\n    /* \"#utility.yul\":2283:2289   */\n  dup5\n    /* \"#utility.yul\":2278:2281   */\n  dup3\n    /* \"#utility.yul\":2273:2276   */\n  dup6\n    /* \"#utility.yul\":2238:2290   */\n  tag_21\n  jump\t// in\ntag_77:\n    /* \"#utility.yul\":1957:2296   */\n  pop\n    /* \"#utility.yul\":1862:2296   */\n  swap4\n  swap3\n  pop\n  pop\n  pop\n  jump\t// out\n    /* \"#utility.yul\":2316:2671   */\ntag_23:\n    /* \"#utility.yul\":2383:2388   */\n  0x00\n    /* \"#utility.yul\":2432:2435   */\n  dup3\n    /* \"#utility.yul\":2425:2429   */\n  0x1f\n    /* \"#utility.yul\":2417:2423   */\n  dup4\n    /* \"#utility.yul\":2413:2430   */\n  add\n    /* \"#utility.yul\":2409:2436   */\n  slt\n    /* \"#utility.yul\":2399:2521   */\n  tag_79\n  jumpi\n    /* \"#utility.yul\":2440:2519   */\n  tag_80\n  tag_14\n  jump\t// in\ntag_80:\n    /* \"#utility.yul\":2399:2521   */\ntag_79:\n    /* \"#utility.yul\":2550:2556   */\n  dup2\n    /* \"#utility.yul\":2544:2557   */\n  mload\n    /* \"#utility.yul\":2575:2665   */\n  tag_81\n    /* \"#utility.yul\":2661:2664   */\n  dup5\n    /* \"#utility.yul\":2653:2659   */\n  dup3\n    /* \"#utility.yul\":2646:2650   */\n  0x20\n    /* \"#utility.yul\":2638:2644   */\n  dup7\n    /* \"#utility.yul\":2634:2651   */\n  add\n    /* \"#utility.yul\":2575:2665   */\n  tag_22\n  jump\t// in\ntag_81:\n    /* \"#utility.yul\":2566:2665   */\n  swap2\n  pop\n    /* \"#utility.yul\":2389:2671   */\n  pop\n    /* \"#utility.yul\":2316:2671   */\n  swap3\n  swap2\n  pop\n  pop\n  jump\t// out\n    /* \"#utility.yul\":2677:2754   */\ntag_24:\n    /* \"#utility.yul\":2714:2721   */\n  0x00\n    /* \"#utility.yul\":2743:2748   */\n  dup2\n    /* \"#utility.yul\":2732:2748   */\n  swap1\n  pop\n    /* \"#utility.yul\":2677:2754   */\n  swap2\n  swap1\n  pop\n  jump\t// out\n    /* \"#utility.yul\":2760:2882   */\ntag_25:\n    /* \"#utility.yul\":2833:2857   */\n  tag_84\n    /* \"#utility.yul\":2851:2856   */\n  dup2\n    /* \"#utility.yul\":2833:2857   */\n  tag_24\n  jump\t// in\ntag_84:\n    /* \"#utility.yul\":2826:2831   */\n  dup2\n    /* \"#utility.yul\":2823:2858   */\n  eq\n    /* \"#utility.yul\":2813:2876   */\n  tag_85\n  jumpi\n    /* \"#utility.yul\":2872:2873   */\n  0x00\n    /* \"#utility.yul\":2869:2870   */\n  dup1\n    /* \"#utility.yul\":2862:2874   */\n  revert\n    /* \"#utility.yul\":2813:2876   */\ntag_85:\n    /* \"#utility.yul\":2760:2882   */\n  pop\n  jump\t// out\n    /* \"#utility.yul\":2888:3031   */\ntag_26:\n    /* \"#utility.yul\":2945:2950   */\n  0x00\n    /* \"#utility.yul\":2976:2982   */\n  dup2\n    /* \"#utility.yul\":2970:2983   */\n  mload\n    /* \"#utility.yul\":2961:2983   */\n  swap1\n  pop\n    /* \"#utility.yul\":2992:3025   */\n  tag_87\n    /* \"#utility.yul\":3019:3024   */\n  dup2\n    /* \"#utility.yul\":2992:3025   */\n  tag_25\n  jump\t// in\ntag_87:\n    /* \"#utility.yul\":2888:3031   */\n  swap3\n  swap2\n  pop\n  pop\n  jump\t// out\n    /* \"#utility.yul\":3037:3163   */\ntag_27:\n    /* \"#utility.yul\":3074:3081   */\n  0x00\n    /* \"#utility.yul\":3114:3156   */\n  0xffffffffffffffffffffffffffffffffffffffff\n    /* \"#utility.yul\":3107:3112   */\n  dup3\n    /* \"#utility.yul\":3103:3157   */\n  and\n    /* \"#utility.yul\":3092:3157   */\n  swap1\n  pop\n    /* \"#utility.yul\":3037:3163   */\n  swap2\n  swap1\n  pop\n  jump\t// out\n    /* \"#utility.yul\":3169:3265   */\ntag_28:\n    /* \"#utility.yul\":3206:3213   */\n  0x00\n    /* \"#utility.yul\":3235:3259   */\n  tag_90\n    /* \"#utility.yul\":3253:3258   */\n  dup3\n    /* \"#utility.yul\":3235:3259   */\n  tag_27\n  jump\t// in\ntag_90:\n    /* \"#utility.yul\":3224:3259   */\n  swap1\n  pop\n    /* \"#utility.yul\":3169:3265   */\n  swap2\n  swap1\n  pop\n  jump\t// out\n    /* \"#utility.yul\":3271:3393   */\ntag_29:\n    /* \"#utility.yul\":3344:3368   */\n  tag_92\n    /* \"#utility.yul\":3362:3367   */\n  dup2\n    /* \"#utility.yul\":3344:3368   */\n  tag_28\n  jump\t// in\ntag_92:\n    /* \"#utility.yul\":3337:3342   */\n  dup2\n    /* \"#utility.yul\":3334:3369   */\n  eq\n    /* \"#utility.yul\":3324:3387   */\n  tag_93\n  jumpi\n    /* \"#utility.yul\":3383:3384   */\n  0x00\n    /* \"#utility.yul\":3380:3381   */\n  dup1\n    /* \"#utility.yul\":3373:3385   */\n  revert\n    /* \"#utility.yul\":3324:3387   */\ntag_93:\n    /* \"#utility.yul\":3271:3393   */\n  pop\n  jump\t// out\n    /* \"#utility.yul\":3399:3542   */\ntag_30:\n    /* \"#utility.yul\":3456:3461   */\n  0x00\n    /* \"#utility.yul\":3487:3493   */\n  dup2\n    /* \"#utility.yul\":3481:3494   */\n  mload\n    /* \"#utility.yul\":3472:3494   */\n  swap1\n  pop\n    /* \"#utility.yul\":3503:3536   */\n  tag_95\n    /* \"#utility.yul\":3530:3535   */\n  dup2\n    /* \"#utility.yul\":3503:3536   */\n  tag_29\n  jump\t// in\ntag_95:\n    /* \"#utility.yul\":3399:3542   */\n  swap3\n  swap2\n  pop\n  pop\n  jump\t// out\n    /* \"#utility.yul\":3548:4714   */\ntag_3:\n    /* \"#utility.yul\":3665:3671   */\n  0x00\n    /* \"#utility.yul\":3673:3679   */\n  dup1\n    /* \"#utility.yul\":3681:3687   */\n  0x00\n    /* \"#utility.yul\":3689:3695   */\n  dup1\n    /* \"#utility.yul\":3738:3741   */\n  0x80\n    /* \"#utility.yul\":3726:3735   */\n  dup6\n    /* \"#utility.yul\":3717:3724   */\n  dup8\n    /* \"#utility.yul\":3713:3736   */\n  sub\n    /* \"#utility.yul\":3709:3742   */\n  slt\n    /* \"#utility.yul\":3706:3826   */\n  iszero\n  tag_97\n  jumpi\n    /* \"#utility.yul\":3745:3824   */\n  tag_98\n  tag_12\n  jump\t// in\ntag_98:\n    /* \"#utility.yul\":3706:3826   */\ntag_97:\n    /* \"#utility.yul\":3886:3887   */\n  0x00\n    /* \"#utility.yul\":3875:3884   */\n  dup6\n    /* \"#utility.yul\":3871:3888   */\n  add\n    /* \"#utility.yul\":3865:3889   */\n  mload\n    /* \"#utility.yul\":3916:3934   */\n  0xffffffffffffffff\n    /* \"#utility.yul\":3908:3914   */\n  dup2\n    /* \"#utility.yul\":3905:3935   */\n  gt\n    /* \"#utility.yul\":3902:4019   */\n  iszero\n  tag_99\n  jumpi\n    /* \"#utility.yul\":3938:4017   */\n  tag_100\n  tag_13\n  jump\t// in\ntag_100:\n    /* \"#utility.yul\":3902:4019   */\ntag_99:\n    /* \"#utility.yul\":4043:4117   */\n  tag_101\n    /* \"#utility.yul\":4109:4116   */\n  dup8\n    /* \"#utility.yul\":4100:4106   */\n  dup3\n    /* \"#utility.yul\":4089:4098   */\n  dup9\n    /* \"#utility.yul\":4085:4107   */\n  add\n    /* \"#utility.yul\":4043:4117   */\n  tag_23\n  jump\t// in\ntag_101:\n    /* \"#utility.yul\":4033:4117   */\n  swap5\n  pop\n    /* \"#utility.yul\":3836:4127   */\n  pop\n    /* \"#utility.yul\":4187:4189   */\n  0x20\n    /* \"#utility.yul\":4176:4185   */\n  dup6\n    /* \"#utility.yul\":4172:4190   */\n  add\n    /* \"#utility.yul\":4166:4191   */\n  mload\n    /* \"#utility.yul\":4218:4236   */\n  0xffffffffffffffff\n    /* \"#utility.yul\":4210:4216   */\n  dup2\n    /* \"#utility.yul\":4207:4237   */\n  gt\n    /* \"#utility.yul\":4204:4321   */\n  iszero\n  tag_102\n  jumpi\n    /* \"#utility.yul\":4240:4319   */\n  tag_103\n  tag_13\n  jump\t// in\ntag_103:\n    /* \"#utility.yul\":4204:4321   */\ntag_102:\n    /* \"#utility.yul\":4345:4419   */\n  tag_104\n    /* \"#utility.yul\":4411:4418   */\n  dup8\n    /* \"#utility.yul\":4402:4408   */\n  dup3\n    /* \"#utility.yul\":4391:4400   */\n  dup9\n    /* \"#utility.yul\":4387:4409   */\n  add\n    /* \"#utility.yul\":4345:4419   */\n  tag_23\n  jump\t// in\ntag_104:\n    /* \"#utility.yul\":4335:4419   */\n  swap4\n  pop\n    /* \"#utility.yul\":4137:4429   */\n  pop\n    /* \"#utility.yul\":4468:4470   */\n  0x40\n    /* \"#utility.yul\":4494:4558   */\n  tag_105\n    /* \"#utility.yul\":4550:4557   */\n  dup8\n    /* \"#utility.yul\":4541:4547   */\n  dup3\n    /* \"#utility.yul\":4530:4539   */\n  dup9\n    /* \"#utility.yul\":4526:4548   */\n  add\n    /* \"#utility.yul\":4494:4558   */\n  tag_26\n  jump\t// in\ntag_105:\n    /* \"#utility.yul\":4484:4558   */\n  swap3\n  pop\n    /* \"#utility.yul\":4439:4568   */\n  pop\n    /* \"#utility.yul\":4607:4609   */\n  0x60\n    /* \"#utility.yul\":4633:4697   */\n  tag_106\n    /* \"#utility.yul\":4689:4696   */\n  dup8\n    /* \"#utility.yul\":4680:4686   */\n  dup3\n    /* \"#utility.yul\":4669:4678   */\n  dup9\n    /* \"#utility.yul\":4665:4687   */\n  add\n    /* \"#utility.yul\":4633:4697   */\n  tag_30\n  jump\t// in\ntag_106:\n    /* \"#utility.yul\":4623:4697   */\n  swap2\n  pop\n    /* \"#utility.yul\":4578:4707   */\n  pop\n    /* \"#utility.yul\":3548:4714   */\n  swap3\n  swap6\n  swap2\n  swap5\n  pop\n  swap3\n  pop\n  jump\t// out\n    /* \"#utility.yul\":4720:4819   */\ntag_31:\n    /* \"#utility.yul\":4772:4778   */\n  0x00\n    /* \"#utility.yul\":4806:4811   */\n  dup2\n    /* \"#utility.yul\":4800:4812   */\n  mload\n    /* \"#utility.yul\":4790:4812   */\n  swap1\n  pop\n    /* \"#utility.yul\":4720:4819   */\n  swap2\n  swap1\n  pop\n  jump\t// out\n    /* \"#utility.yul\":4825:5005   */\ntag_32:\n    /* \"#utility.yul\":4873:4950   */\n  0x4e487b7100000000000000000000000000000000000000000000000000000000\n    /* \"#utility.yul\":4870:4871   */\n  0x00\n    /* \"#utility.yul\":4863:4951   */\n  mstore\n    /* \"#utility.yul\":4970:4974   */\n  0x22\n    /* \"#utility.yul\":4967:4968   */\n  0x04\n    /* \"#utility.yul\":4960:4975   */\n  mstore\n    /* \"#utility.yul\":4994:4998   */\n  0x24\n    /* \"#utility.yul\":4991:4992   */\n  0x00\n    /* \"#utility.yul\":4984:4999   */\n  revert\n    /* \"#utility.yul\":5011:5331   */\ntag_33:\n    /* \"#utility.yul\":5055:5061   */\n  0x00\n    /* \"#utility.yul\":5092:5093   */\n  0x02\n    /* \"#utility.yul\":5086:5090   */\n  dup3\n    /* \"#utility.yul\":5082:5094   */\n  div\n    /* \"#utility.yul\":5072:5094   */\n  swap1\n  pop\n    /* \"#utility.yul\":5139:5140   */\n  0x01\n    /* \"#utility.yul\":5133:5137   */\n  dup3\n    /* \"#utility.yul\":5129:5141   */\n  and\n    /* \"#utility.yul\":5160:5178   */\n  dup1\n    /* \"#utility.yul\":5150:5231   */\n  tag_110\n  jumpi\n    /* \"#utility.yul\":5216:5220   */\n  0x7f\n    /* \"#utility.yul\":5208:5214   */\n  dup3\n    /* \"#utility.yul\":5204:5221   */\n  and\n    /* \"#utility.yul\":5194:5221   */\n  swap2\n  pop\n    /* \"#utility.yul\":5150:5231   */\ntag_110:\n    /* \"#utility.yul\":5278:5280   */\n  0x20\n    /* \"#utility.yul\":5270:5276   */\n  dup3\n    /* \"#utility.yul\":5267:5281   */\n  lt\n    /* \"#utility.yul\":5247:5265   */\n  dup2\n    /* \"#utility.yul\":5244:5282   */\n  sub\n    /* \"#utility.yul\":5241:5325   */\n  tag_111\n  jumpi\n    /* \"#utility.yul\":5297:5315   */\n  tag_112\n  tag_32\n  jump\t// in\ntag_112:\n    /* \"#utility.yul\":5241:5325   */\ntag_111:\n    /* \"#utility.yul\":5062:5331   */\n  pop\n    /* \"#utility.yul\":5011:5331   */\n  swap2\n  swap1\n  pop\n  jump\t// out\n    /* \"#utility.yul\":5337:5478   */\ntag_34:\n    /* \"#utility.yul\":5386:5390   */\n  0x00\n    /* \"#utility.yul\":5409:5412   */\n  dup2\n    /* \"#utility.yul\":5401:5412   */\n  swap1\n  pop\n    /* \"#utility.yul\":5432:5435   */\n  dup2\n    /* \"#utility.yul\":5429:5430   */\n  0x00\n    /* \"#utility.yul\":5422:5436   */\n  mstore\n    /* \"#utility.yul\":5466:5470   */\n  0x20\n    /* \"#utility.yul\":5463:5464   */\n  0x00\n    /* \"#utility.yul\":5453:5471   */\n  keccak256\n    /* \"#utility.yul\":5445:5471   */\n  swap1\n  pop\n    /* \"#utility.yul\":5337:5478   */\n  swap2\n  swap1\n  pop\n  jump\t// out\n    /* \"#utility.yul\":5484:5577   */\ntag_35:\n    /* \"#utility.yul\":5521:5527   */\n  0x00\n    /* \"#utility.yul\":5568:5570   */\n  0x20\n    /* \"#utility.yul\":5563:5565   */\n  0x1f\n    /* \"#utility.yul\":5556:5561   */\n  dup4\n    /* \"#utility.yul\":5552:5566   */\n  add\n    /* \"#utility.yul\":5548:5571   */\n  div\n    /* \"#utility.yul\":5538:5571   */\n  swap1\n  pop\n    /* \"#utility.yul\":5484:5577   */\n  swap2\n  swap1\n  pop\n  jump\t// out\n    /* \"#utility.yul\":5583:5690   */\ntag_36:\n    /* \"#utility.yul\":5627:5635   */\n  0x00\n    /* \"#utility.yul\":5677:5682   */\n  dup3\n    /* \"#utility.yul\":5671:5675   */\n  dup3\n    /* \"#utility.yul\":5667:5683   */\n  shl\n    /* \"#utility.yul\":5646:5683   */\n  swap1\n  pop\n    /* \"#utility.yul\":5583:5690   */\n  swap3\n  swap2\n  pop\n  pop\n  jump\t// out\n    /* \"#utility.yul\":5696:6089   */\ntag_37:\n    /* \"#utility.yul\":5765:5771   */\n  0x00\n    /* \"#utility.yul\":5815:5816   */\n  0x08\n    /* \"#utility.yul\":5803:5813   */\n  dup4\n    /* \"#utility.yul\":5799:5817   */\n  mul\n    /* \"#utility.yul\":5838:5935   */\n  tag_117\n    /* \"#utility.yul\":5868:5934   */\n  0xffffffffffffffffffffffffffffffffffffffffffffffffffffffffffffffff\n    /* \"#utility.yul\":5857:5866   */\n  dup3\n    /* \"#utility.yul\":5838:5935   */\n  tag_36\n  jump\t// in\ntag_117:\n    /* \"#utility.yul\":5956:5995   */\n  tag_118\n    /* \"#utility.yul\":5986:5994   */\n  dup7\n    /* \"#utility.yul\":5975:5984   */\n  dup4\n    /* \"#utility.yul\":5956:5995   */\n  tag_36\n  jump\t// in\ntag_118:\n    /* \"#utility.yul\":5944:5995   */\n  swap6\n  pop\n    /* \"#utility.yul\":6028:6032   */\n  dup1\n    /* \"#utility.yul\":6024:6033   */\n  not\n    /* \"#utility.yul\":6017:6022   */\n  dup5\n    /* \"#utility.yul\":6013:6034   */\n  and\n    /* \"#utility.yul\":6004:6034   */\n  swap4\n  pop\n    /* \"#utility.yul\":6077:6081   */\n  dup1\n    /* \"#utility.yul\":6067:6075   */\n  dup7\n    /* \"#utility.yul\":6063:6082   */\n  and\n    /* \"#utility.yul\":6056:6061   */\n  dup5\n    /* \"#utility.yul\":6053:6083   */\n  or\n    /* \"#utility.yul\":6043:6083   */\n  swap3\n  pop\n    /* \"#utility.yul\":5772:6089   */\n  pop\n  pop\n    /* \"#utility.yul\":5696:6089   */\n  swap4\n  swap3\n  pop\n  pop\n  pop\n  jump\t// out\n    /* \"#utility.yul\":6095:6155   */\ntag_38:\n    /* \"#utility.yul\":6123:6126   */\n  0x00\n    /* \"#utility.yul\":6144:6149   */\n  dup2\n    /* \"#utility.yul\":6137:6149   */\n  swap1\n  pop\n    /* \"#utility.yul\":6095:6155   */\n  swap2\n  swap1\n  pop\n  jump\t// out\n    /* \"#utility.yul\":6161:6303   */\ntag_39:\n    /* \"#utility.yul\":6211:6220   */\n  0x00\n    /* \"#utility.yul\":6244:6297   */\n  tag_121\n    /* \"#utility.yul\":6262:6296   */\n  tag_122\n    /* \"#utility.yul\":6271:6295   */\n  tag_123\n    /* \"#utility.yul\":6289:6294   */\n  dup5\n    /* \"#utility.yul\":6271:6295   */\n  tag_24\n  jump\t// in\ntag_123:\n    /* \"#utility.yul\":6262:6296   */\n  tag_38\n  jump\t// in\ntag_122:\n    /* \"#utility.yul\":6244:6297   */\n  tag_24\n  jump\t// in\ntag_121:\n    /* \"#utility.yul\":6231:6297   */\n  swap1\n  pop\n    /* \"#utility.yul\":6161:6303   */\n  swap2\n  swap1\n  pop\n  jump\t// out\n    /* \"#utility.yul\":6309:6384   */\ntag_40:\n    /* \"#utility.yul\":6352:6355   */\n  0x00\n    /* \"#utility.yul\":6373:6378   */\n  dup2\n    /* \"#utility.yul\":6366:6378   */\n  swap1\n  pop\n    /* \"#utility.yul\":6309:6384   */\n  swap2\n  swap1\n  pop\n  jump\t// out\n    /* \"#utility.yul\":6390:6659   */\ntag_41:\n    /* \"#utility.yul\":6500:6539   */\n  tag_126\n    /* \"#utility.yul\":6531:6538   */\n  dup4\n    /* \"#utility.yul\":6500:6539   */\n  tag_39\n  jump\t// in\ntag_126:\n    /* \"#utility.yul\":6561:6652   */\n  tag_127\n    /* \"#utility.yul\":6610:6651   */\n  tag_128\n    /* \"#utility.yul\":6634:6650   */\n  dup3\n    /* \"#utility.yul\":6610:6651   */\n  tag_40\n  jump\t// in\ntag_128:\n    /* \"#utility.yul\":6602:6608   */\n  dup5\n    /* \"#utility.yul\":6595:6599   */\n  dup5\n    /* \"#utility.yul\":6589:6600   */\n  sload\n    /* \"#utility.yul\":6561:6652   */\n  tag_37\n  jump\t// in\ntag_127:\n    /* \"#utility.yul\":6555:6559   */\n  dup3\n    /* \"#utility.yul\":6548:6653   */\n  sstore\n    /* \"#utility.yul\":6466:6659   */\n  pop\n    /* \"#utility.yul\":6390:6659   */\n  pop\n  pop\n  pop\n  jump\t// out\n    /* \"#utility.yul\":6665:6738   */\ntag_42:\n    /* \"#utility.yul\":6710:6713   */\n  0x00\n    /* \"#utility.yul\":6665:6738   */\n  swap1\n  jump\t// out\n    /* \"#utility.yul\":6744:6933   */\ntag_43:\n    /* \"#utility.yul\":6821:6853   */\n  tag_131\n  tag_42\n  jump\t// in\ntag_131:\n    /* \"#utility.yul\":6862:6927   */\n  tag_132\n    /* \"#utility.yul\":6920:6926   */\n  dup2\n    /* \"#utility.yul\":6912:6918   */\n  dup5\n    /* \"#utility.yul\":6906:6910   */\n  dup5\n    /* \"#utility.yul\":6862:6927   */\n  tag_41\n  jump\t// in\ntag_132:\n    /* \"#utility.yul\":6797:6933   */\n  pop\n    /* \"#utility.yul\":6744:6933   */\n  pop\n  pop\n  jump\t// out\n    /* \"#utility.yul\":6939:7125   */\ntag_44:\n    /* \"#utility.yul\":6999:7119   */\ntag_134:\n    /* \"#utility.yul\":7016:7019   */\n  dup2\n    /* \"#utility.yul\":7009:7014   */\n  dup2\n    /* \"#utility.yul\":7006:7020   */\n  lt\n    /* \"#utility.yul\":6999:7119   */\n  iszero\n  tag_136\n  jumpi\n    /* \"#utility.yul\":7070:7109   */\n  tag_137\n    /* \"#utility.yul\":7107:7108   */\n  0x00\n    /* \"#utility.yul\":7100:7105   */\n  dup3\n    /* \"#utility.yul\":7070:7109   */\n  tag_43\n  jump\t// in\ntag_137:\n    /* \"#utility.yul\":7043:7044   */\n  0x01\n    /* \"#utility.yul\":7036:7041   */\n  dup2\n    /* \"#utility.yul\":7032:7045   */\n  add\n    /* \"#utility.yul\":7023:7045   */\n  swap1\n  pop\n    /* \"#utility.yul\":6999:7119   */\n  jump(tag_134)\ntag_136:\n    /* \"#utility.yul\":6939:7125   */\n  pop\n  pop\n  jump\t// out\n    /* \"#utility.yul\":7131:7674   */\ntag_45:\n    /* \"#utility.yul\":7232:7234   */\n  0x1f\n    /* \"#utility.yul\":7227:7230   */\n  dup3\n    /* \"#utility.yul\":7224:7235   */\n  gt\n    /* \"#utility.yul\":7221:7667   */\n  iszero\n  tag_139\n  jumpi\n    /* \"#utility.yul\":7266:7304   */\n  tag_140\n    /* \"#utility.yul\":7298:7303   */\n  dup2\n    /* \"#utility.yul\":7266:7304   */\n  tag_34\n  jump\t// in\ntag_140:\n    /* \"#utility.yul\":7350:7379   */\n  tag_141\n    /* \"#utility.yul\":7368:7378   */\n  dup5\n    /* \"#utility.yul\":7350:7379   */\n  tag_35\n  jump\t// in\ntag_141:\n    /* \"#utility.yul\":7340:7348   */\n  dup2\n    /* \"#utility.yul\":7336:7380   */\n  add\n    /* \"#utility.yul\":7533:7535   */\n  0x20\n    /* \"#utility.yul\":7521:7531   */\n  dup6\n    /* \"#utility.yul\":7518:7536   */\n  lt\n    /* \"#utility.yul\":7515:7564   */\n  iszero\n  tag_142\n  jumpi\n    /* \"#utility.yul\":7554:7562   */\n  dup2\n    /* \"#utility.yul\":7539:7562   */\n  swap1\n  pop\n    /* \"#utility.yul\":7515:7564   */\ntag_142:\n    /* \"#utility.yul\":7577:7657   */\n  tag_143\n    /* \"#utility.yul\":7633:7655   */\n  tag_144\n    /* \"#utility.yul\":7651:7654   */\n  dup6\n    /* \"#utility.yul\":7633:7655   */\n  tag_35\n  jump\t// in\ntag_144:\n    /* \"#utility.yul\":7623:7631   */\n  dup4\n    /* \"#utility.yul\":7619:7656   */\n  add\n    /* \"#utility.yul\":7606:7617   */\n  dup3\n    /* \"#utility.yul\":7577:7657   */\n  tag_44\n  jump\t// in\ntag_143:\n    /* \"#utility.yul\":7236:7667   */\n  pop\n  pop\n    /* \"#utility.yul\":7221:7667   */\ntag_139:\n    /* \"#utility.yul\":7131:7674   */\n  pop\n  pop\n  pop\n  jump\t// out\n    /* \"#utility.yul\":7680:7797   */\ntag_46:\n    /* \"#utility.yul\":7734:7742   */\n  0x00\n    /* \"#utility.yul\":7784:7789   */\n  dup3\n    /* \"#utility.yul\":7778:7782   */\n  dup3\n    /* \"#utility.yul\":7774:7790   */\n  shr\n    /* \"#utility.yul\":7753:7790   */\n  swap1\n  pop\n    /* \"#utility.yul\":7680:7797   */\n  swap3\n  swap2\n  pop\n  pop\n  jump\t// out\n    /* \"#utility.yul\":7803:7972   */\ntag_47:\n    /* \"#utility.yul\":7847:7853   */\n  0x00\n    /* \"#utility.yul\":7880:7931   */\n  tag_147\n    /* \"#utility.yul\":7928:7929   */\n  0x00\n    /* \"#utility.yul\":7924:7930   */\n  not\n    /* \"#utility.yul\":7916:7921   */\n  dup5\n    /* \"#utility.yul\":7913:7914   */\n  0x08\n    /* \"#utility.yul\":7909:7922   */\n  mul\n    /* \"#utility.yul\":7880:7931   */\n  tag_46\n  jump\t// in\ntag_147:\n    /* \"#utility.yul\":7876:7932   */\n  not\n    /* \"#utility.yul\":7961:7965   */\n  dup1\n    /* \"#utility.yul\":7955:7959   */\n  dup4\n    /* \"#utility.yul\":7951:7966   */\n  and\n    /* \"#utility.yul\":7941:7966   */\n  swap2\n  pop\n    /* \"#utility.yul\":7854:7972   */\n  pop\n    /* \"#utility.yul\":7803:7972   */\n  swap3\n  swap2\n  pop\n  pop\n  jump\t// out\n    /* \"#utility.yul\":7977:8272   */\ntag_48:\n    /* \"#utility.yul\":8053:8057   */\n  0x00\n    /* \"#utility.yul\":8199:8228   */\n  tag_149\n    /* \"#utility.yul\":8224:8227   */\n  dup4\n    /* \"#utility.yul\":8218:8222   */\n  dup4\n    /* \"#utility.yul\":8199:8228   */\n  tag_47\n  jump\t// in\ntag_149:\n    /* \"#utility.yul\":8191:8228   */\n  swap2\n  pop\n    /* \"#utility.yul\":8261:8264   */\n  dup3\n    /* \"#utility.yul\":8258:8259   */\n  0x02\n    /* \"#utility.yul\":8254:8265   */\n  mul\n    /* \"#utility.yul\":8248:8252   */\n  dup3\n    /* \"#utility.yul\":8245:8266   */\n  or\n    /* \"#utility.yul\":8237:8266   */\n  swap1\n  pop\n    /* \"#utility.yul\":7977:8272   */\n  swap3\n  swap2\n  pop\n  pop\n  jump\t// out\n    /* \"#utility.yul\":8277:9672   */\ntag_8:\n    /* \"#utility.yul\":8394:8431   */\n  tag_151\n    /* \"#utility.yul\":8427:8430   */\n  dup3\n    /* \"#utility.yul\":8394:8431   */\n  tag_31\n  jump\t// in\ntag_151:\n    /* \"#utility.yul\":8496:8514   */\n  0xffffffffffffffff\n    /* \"#utility.yul\":8488:8494   */\n  dup2\n    /* \"#utility.yul\":8485:8515   */\n  gt\n    /* \"#utility.yul\":8482:8538   */\n  iszero\n  tag_152\n  jumpi\n    /* \"#utility.yul\":8518:8536   */\n  tag_153\n  tag_17\n  jump\t// in\ntag_153:\n    /* \"#utility.yul\":8482:8538   */\ntag_152:\n    /* \"#utility.yul\":8562:8600   */\n  tag_154\n    /* \"#utility.yul\":8594:8598   */\n  dup3\n    /* \"#utility.yul\":8588:8599   */\n  sload\n    /* \"#utility.yul\":8562:8600   */\n  tag_33\n  jump\t// in\ntag_154:\n    /* \"#utility.yul\":8647:8714   */\n  tag_155\n    /* \"#utility.yul\":8707:8713   */\n  dup3\n    /* \"#utility.yul\":8699:8705   */\n  dup3\n    /* \"#utility.yul\":8693:8697   */\n  dup6\n    /* \"#utility.yul\":8647:8714   */\n  tag_45\n  jump\t// in\ntag_155:\n    /* \"#utility.yul\":8741:8742   */\n  0x00\n    /* \"#utility.yul\":8765:8769   */\n  0x20\n    /* \"#utility.yul\":8752:8769   */\n  swap1\n  pop\n    /* \"#utility.yul\":8797:8799   */\n  0x1f\n    /* \"#utility.yul\":8789:8795   */\n  dup4\n    /* \"#utility.yul\":8786:8800   */\n  gt\n    /* \"#utility.yul\":8814:8815   */\n  0x01\n    /* \"#utility.yul\":8809:9427   */\n  dup2\n  eq\n  tag_157\n  jumpi\n    /* \"#utility.yul\":9471:9472   */\n  0x00\n    /* \"#utility.yul\":9488:9494   */\n  dup5\n    /* \"#utility.yul\":9485:9562   */\n  iszero\n  tag_158\n  jumpi\n    /* \"#utility.yul\":9537:9546   */\n  dup3\n    /* \"#utility.yul\":9532:9535   */\n  dup8\n    /* \"#utility.yul\":9528:9547   */\n  add\n    /* \"#utility.yul\":9522:9548   */\n  mload\n    /* \"#utility.yul\":9513:9548   */\n  swap1\n  pop\n    /* \"#utility.yul\":9485:9562   */\ntag_158:\n    /* \"#utility.yul\":9588:9655   */\n  tag_159\n    /* \"#utility.yul\":9648:9654   */\n  dup6\n    /* \"#utility.yul\":9641:9646   */\n  dup3\n    /* \"#utility.yul\":9588:9655   */\n  tag_48\n  jump\t// in\ntag_159:\n    /* \"#utility.yul\":9582:9586   */\n  dup7\n    /* \"#utility.yul\":9575:9656   */\n  sstore\n    /* \"#utility.yul\":9444:9666   */\n  pop\n    /* \"#utility.yul\":8779:9666   */\n  jump(tag_156)\n    /* \"#utility.yul\":8809:9427   */\ntag_157:\n    /* \"#utility.yul\":8861:8865   */\n  0x1f\n    /* \"#utility.yul\":8857:8866   */\n  not\n    /* \"#utility.yul\":8849:8855   */\n  dup5\n    /* \"#utility.yul\":8845:8867   */\n  and\n    /* \"#utility.yul\":8895:8932   */\n  tag_160\n    /* \"#utility.yul\":8927:8931   */\n  dup7\n    /* \"#utility.yul\":8895:8932   */\n  tag_34\n  jump\t// in\ntag_160:\n    /* \"#utility.yul\":8954:8955   */\n  0x00\n    /* \"#utility.yul\":8968:9176   */\ntag_161:\n    /* \"#utility.yul\":8982:8989   */\n  dup3\n    /* \"#utility.yul\":8979:8980   */\n  dup2\n    /* \"#utility.yul\":8976:8990   */\n  lt\n    /* \"#utility.yul\":8968:9176   */\n  iszero\n  tag_163\n  jumpi\n    /* \"#utility.yul\":9061:9070   */\n  dup5\n    /* \"#utility.yul\":9056:9059   */\n  dup10\n    /* \"#utility.yul\":9052:9071   */\n  add\n    /* \"#utility.yul\":9046:9072   */\n  mload\n    /* \"#utility.yul\":9038:9044   */\n  dup3\n    /* \"#utility.yul\":9031:9073   */\n  sstore\n    /* \"#utility.yul\":9112:9113   */\n  0x01\n    /* \"#utility.yul\":9104:9110   */\n  dup3\n    /* \"#utility.yul\":9100:9114   */\n  add\n    /* \"#utility.yul\":9090:9114   */\n  swap2\n  pop\n    /* \"#utility.yul\":9159:9161   */\n  0x20\n    /* \"#utility.yul\":9148:9157   */\n  dup6\n    /* \"#utility.yul\":9144:9162   */\n  add\n    /* \"#utility.yul\":9131:9162   */\n  swap5\n  pop\n    /* \"#utility.yul\":9005:9009   */\n  0x20\n    /* \"#utility.yul\":9002:9003   */\n  dup2\n    /* \"#utility.yul\":8998:9010   */\n  add\n    /* \"#utility.yul\":8993:9010   */\n  swap1\n  pop\n    /* \"#utility.yul\":8968:9176   */\n  jump(tag_161)\ntag_163:\n    /* \"#utility.yul\":9204:9210   */\n  dup7\n    /* \"#utility.yul\":9195:9202   */\n  dup4\n    /* \"#utility.yul\":9192:9211   */\n  lt\n    /* \"#utility.yul\":9189:9368   */\n  iszero\n  tag_164\n  jumpi\n    /* \"#utility.yul\":9262:9271   */\n  dup5\n    /* \"#utility.yul\":9257:9260   */\n  dup10\n    /* \"#utility.yul\":9253:9272   */\n  add\n    /* \"#utility.yul\":9247:9273   */\n  mload\n    /* \"#utility.yul\":9305:9353   */\n  tag_165\n    /* \"#utility.yul\":9347:9351   */\n  0x1f\n    /* \"#utility.yul\":9339:9345   */\n  dup10\n    /* \"#utility.yul\":9335:9352   */\n  and\n    /* \"#utility.yul\":9324:9333   */\n  dup3\n    /* \"#utility.yul\":9305:9353   */\n  tag_47\n  jump\t// in\ntag_165:\n    /* \"#utility.yul\":9297:9303   */\n  dup4\n    /* \"#utility.yul\":9290:9354   */\n  sstore\n    /* \"#utility.yul\":9212:9368   */\n  pop\n    /* \"#utility.yul\":9189:9368   */\ntag_164:\n    /* \"#utility.yul\":9414:9415   */\n  0x01\n    /* \"#utility.yul\":9410:9411   */\n  0x02\n    /* \"#utility.yul\":9402:9408   */\n  dup9\n    /* \"#utility.yul\":9398:9412   */\n  mul\n    /* \"#utility.yul\":9394:9416   */\n  add\n    /* \"#utility.yul\":9388:9392   */\n  dup9\n    /* \"#utility.yul\":9381:9417   */\n  sstore\n    /* \"#utility.yul\":8816:9427   */\n  pop\n  pop\n  pop\n    /* \"#utility.yul\":8779:9666   */\ntag_156:\n  pop\n    /* \"#utility.yul\":8369:9672   */\n  pop\n  pop\n  pop\n    /* \"#utility.yul\":8277:9672   */\n  pop\n  pop\n  jump\t// out\n    /* \"Campaign.sol\":1142:7017  contract Campaign... */\ntag_10:\n  dataSize(sub_0)\n  dup1\n  dataOffset(sub_0)\n  0x00\n  codecopy\n  0x00\n  return\nstop\n\nsub_0: assembly {\n        /* \"Campaign.sol\":1142:7017  contract Campaign... */\n      mstore(0x40, 0x80)\n      jumpi(tag_1, lt(calldatasize, 0x04))\n      shr(0xe0, calldataload(0x00))\n      dup1\n      0x885e7c62\n      gt\n      tag_20\n      jumpi\n      dup1\n      0xd7bb99ba\n      gt\n      tag_21\n      jumpi\n      dup1\n      0xd7bb99ba\n      eq\n      tag_15\n      jumpi\n      dup1\n      0xe2e46b52\n      eq\n      tag_16\n      jumpi\n      dup1\n      0xf0190215\n      eq\n      tag_17\n      jumpi\n      dup1\n      0xf84038b1\n      eq\n      tag_18\n      jumpi\n      dup1\n      0xfeed5561\n      eq\n      tag_19\n      jumpi\n      jump(tag_1)\n    tag_21:\n      dup1\n      0x885e7c62\n      eq\n      tag_11\n      jumpi\n      dup1\n      0xa26759cb\n      eq\n      tag_12\n      jumpi\n      dup1\n      0xa7ac8000\n      eq\n      tag_13\n      jumpi\n      dup1\n      0xd5009584\n      eq\n      tag_14\n      jumpi\n      jump(tag_1)\n    tag_20:\n      dup1\n      0x4051ddac\n      gt\n      tag_22\n      jumpi\n      dup1\n      0x4051ddac\n      eq\n      tag_6\n      jumpi\n      dup1\n      0x692d51d2\n      eq\n      tag_7\n      jumpi\n      dup1\n      0x6f9fb98a\n      eq\n      tag_8\n      jumpi\n      dup1\n      0x7d6e5b9e\n      eq\n      tag_9\n      jumpi\n      dup1\n      0x8813ce12\n      eq\n      tag_10\n      jumpi\n      jump(tag_1)\n    tag_22:\n      dup1\n      0x0a144391\n      eq\n      tag_2\n      jumpi\n      dup1\n      0x1a092541\n      eq\n      tag_3\n      jumpi\n      dup1\n      0x30e8fc5c\n      eq\n      tag_4\n      jumpi\n      dup1\n      0x3410452a\n      eq\n      tag_5\n      jumpi\n    tag_1:\n      0x00\n      dup1\n      revert\n        /* \"Campaign.sol\":1999:2040  mapping(address => uint) public approvers */\n    tag_2:\n      callvalue\n      dup1\n      iszero\n      tag_23\n      jumpi\n      0x00\n      dup1\n      revert\n    tag_23:\n      pop\n      tag_24\n      0x04\n      dup1\n      calldatasize\n      sub\n      dup2\n      add\n      swap1\n      tag_25\n      swap2\n      swap1\n      tag_26\n      jump\t// in\n    tag_25:\n      tag_27\n      jump\t// in\n    tag_24:\n      mload(0x40)\n      tag_28\n      swap2\n      swap1\n      tag_29\n      jump\t// in\n    tag_28:\n      mload(0x40)\n      dup1\n      swap2\n      sub\n      swap1\n      return\n        /* \"Campaign.sol\":2699:2803  function getDescription() external view returns (string memory)... */\n    tag_3:\n      callvalue\n      dup1\n      iszero\n      tag_30\n      jumpi\n      0x00\n      dup1\n      revert\n    tag_30:\n      pop\n      tag_31\n      tag_32\n      jump\t// in\n    tag_31:\n      mload(0x40)\n      tag_33\n      swap2\n      swap1\n      tag_34\n      jump\t// in\n    tag_33:\n      mload(0x40)\n      dup1\n      swap2\n      sub\n      swap1\n      return\n        /* \"Campaign.sol\":5077:5817  function voteRequest(string memory reqName, bool isApproval ) external... */\n    tag_4:\n      callvalue\n      dup1\n      iszero\n      tag_35\n      jumpi\n      0x00\n      dup1\n      revert\n    tag_35:\n      pop\n      tag_36\n      0x04\n      dup1\n      calldatasize\n      sub\n      dup2\n      add\n      swap1\n      tag_37\n      swap2\n      swap1\n      tag_38\n      jump\t// in\n    tag_37:\n      tag_39\n      jump\t// in\n    tag_36:\n      stop\n        /* \"Campaign.sol\":3129:3222  function getRequestsCount() external view returns(uint){... */\n    tag_5:\n      callvalue\n      dup1\n      iszero\n      tag_40\n      jumpi\n      0x00\n      dup1\n      revert\n    tag_40:\n      pop\n      tag_41\n      tag_42\n      jump\t// in\n    tag_41:\n      mload(0x40)\n      tag_43\n      swap2\n      swap1\n      tag_29\n      jump\t// in\n    tag_43:\n      mload(0x40)\n      dup1\n      swap2\n      sub\n      swap1\n      return\n        /* \"Campaign.sol\":3344:3774  function getSummary() external view returns(Summary memory)... */\n    tag_6:\n      callvalue\n      dup1\n      iszero\n      tag_44\n      jumpi\n      0x00\n      dup1\n      revert\n    tag_44:\n      pop\n      tag_45\n      tag_46\n      jump\t// in\n    tag_45:\n      mload(0x40)\n      tag_47\n      swap2\n      swap1\n      tag_48\n      jump\t// in\n    tag_47:\n      mload(0x40)\n      dup1\n      swap2\n      sub\n      swap1\n      return\n        /* \"Campaign.sol\":2159:2201  mapping(string => Request) public requests */\n    tag_7:\n      callvalue\n      dup1\n      iszero\n      tag_49\n      jumpi\n      0x00\n      dup1\n      revert\n    tag_49:\n      pop\n      tag_50\n      0x04\n      dup1\n      calldatasize\n      sub\n      dup2\n      add\n      swap1\n      tag_51\n      swap2\n      swap1\n      tag_52\n      jump\t// in\n    tag_51:\n      tag_53\n      jump\t// in\n    tag_50:\n      mload(0x40)\n      tag_54\n      swap10\n      swap9\n      swap8\n      swap7\n      swap6\n      swap5\n      swap4\n      swap3\n      swap2\n      swap1\n      tag_55\n      jump\t// in\n    tag_54:\n      mload(0x40)\n      dup1\n      swap2\n      sub\n      swap1\n      return\n        /* \"Campaign.sol\":3022:3124  function getContractBalance() external view returns(uint){... */\n    tag_8:\n      callvalue\n      dup1\n      iszero\n      tag_56\n      jumpi\n      0x00\n      dup1\n      revert\n    tag_56:\n      pop\n      tag_57\n      tag_58\n      jump\t// in\n    tag_57:\n      mload(0x40)\n      tag_59\n      swap2\n      swap1\n      tag_29\n      jump\t// in\n    tag_59:\n      mload(0x40)\n      dup1\n      swap2\n      sub\n      swap1\n      return\n        /* \"Campaign.sol\":6665:6872  function getRequestClaims(string memory reqName) external view returns(RequestClaim[] memory)... */\n    tag_9:\n      callvalue\n      dup1\n      iszero\n      tag_60\n      jumpi\n      0x00\n      dup1\n      revert\n    tag_60:\n      pop\n      tag_61\n      0x04\n      dup1\n      calldatasize\n      sub\n      dup2\n      add\n      swap1\n      tag_62\n      swap2\n      swap1\n      tag_52\n      jump\t// in\n    tag_62:\n      tag_63\n      jump\t// in\n    tag_61:\n      mload(0x40)\n      tag_64\n      swap2\n      swap1\n      tag_65\n      jump\t// in\n    tag_64:\n      mload(0x40)\n      dup1\n      swap2\n      sub\n      swap1\n      return\n        /* \"Campaign.sol\":3227:3334  function getRequests() external view returns(RequestSummary[] memory)... */\n    tag_10:\n      callvalue\n      dup1\n      iszero\n      tag_66\n      jumpi\n      0x00\n      dup1\n      revert\n    tag_66:\n      pop\n      tag_67\n      tag_68\n      jump\t// in\n    tag_67:\n      mload(0x40)\n      tag_69\n      swap2\n      swap1\n      tag_70\n      jump\t// in\n    tag_69:\n      mload(0x40)\n      dup1\n      swap2\n      sub\n      swap1\n      return\n        /* \"Campaign.sol\":2596:2694  function getCampaignName() external view returns (string memory)... */\n    tag_11:\n      callvalue\n      dup1\n      iszero\n      tag_71\n      jumpi\n      0x00\n      dup1\n      revert\n    tag_71:\n      pop\n      tag_72\n      tag_73\n      jump\t// in\n    tag_72:\n      mload(0x40)\n      tag_74\n      swap2\n      swap1\n      tag_34\n      jump\t// in\n    tag_74:\n      mload(0x40)\n      dup1\n      swap2\n      sub\n      swap1\n      return\n        /* \"Campaign.sol\":4001:4064  function addFunds() restricted external payable{... */\n    tag_12:\n      tag_75\n      tag_76\n      jump\t// in\n    tag_75:\n      stop\n        /* \"Campaign.sol\":4070:5071  function triggerCampaignRequest(string memory name, string memory description, uint amount, uint requiredApprovals, address payable receiver) restricted external {... */\n    tag_13:\n      callvalue\n      dup1\n      iszero\n      tag_77\n      jumpi\n      0x00\n      dup1\n      revert\n    tag_77:\n      pop\n      tag_78\n      0x04\n      dup1\n      calldatasize\n      sub\n      dup2\n      add\n      swap1\n      tag_79\n      swap2\n      swap1\n      tag_80\n      jump\t// in\n    tag_79:\n      tag_81\n      jump\t// in\n    tag_78:\n      stop\n        /* \"Campaign.sol\":2500:2590  function getManager() external view returns (address)... */\n    tag_14:\n      callvalue\n      dup1\n      iszero\n      tag_82\n      jumpi\n      0x00\n      dup1\n      revert\n    tag_82:\n      pop\n      tag_83\n      tag_84\n      jump\t// in\n    tag_83:\n      mload(0x40)\n      tag_85\n      swap2\n      swap1\n      tag_86\n      jump\t// in\n    tag_85:\n      mload(0x40)\n      dup1\n      swap2\n      sub\n      swap1\n      return\n        /* \"Campaign.sol\":3780:3995  function contribute() public payable {... */\n    tag_15:\n      tag_87\n      tag_88\n      jump\t// in\n    tag_87:\n      stop\n        /* \"Campaign.sol\":5823:6232  function submitRequest(string memory reqName) restricted external {... */\n    tag_16:\n      callvalue\n      dup1\n      iszero\n      tag_89\n      jumpi\n      0x00\n      dup1\n      revert\n    tag_89:\n      pop\n      tag_90\n      0x04\n      dup1\n      calldatasize\n      sub\n      dup2\n      add\n      swap1\n      tag_91\n      swap2\n      swap1\n      tag_52\n      jump\t// in\n    tag_91:\n      tag_92\n      jump\t// in\n    tag_90:\n      stop\n        /* \"Campaign.sol\":6238:6659  function claimRequest(string memory reqName, string memory description) external... */\n    tag_17:\n      callvalue\n      dup1\n      iszero\n      tag_93\n      jumpi\n      0x00\n      dup1\n      revert\n    tag_93:\n      pop\n      tag_94\n      0x04\n      dup1\n      calldatasize\n      sub\n      dup2\n      add\n      swap1\n      tag_95\n      swap2\n      swap1\n      tag_96\n      jump\t// in\n    tag_95:\n      tag_97\n      jump\t// in\n    tag_94:\n      stop\n        /* \"Campaign.sol\":2911:3016  function getMinimumContribution() external view returns(uint){... */\n    tag_18:\n      callvalue\n      dup1\n      iszero\n      tag_98\n      jumpi\n      0x00\n      dup1\n      revert\n    tag_98:\n      pop\n      tag_99\n      tag_100\n      jump\t// in\n    tag_99:\n      mload(0x40)\n      tag_101\n      swap2\n      swap1\n      tag_29\n      jump\t// in\n    tag_101:\n      mload(0x40)\n      dup1\n      swap2\n      sub\n      swap1\n      return\n        /* \"Campaign.sol\":2808:2906  function getContributorsCount() external view returns(uint){... */\n    tag_19:\n      callvalue\n      dup1\n      iszero\n      tag_102\n      jumpi\n      0x00\n      dup1\n      revert\n    tag_102:\n      pop\n      tag_103\n      tag_104\n      jump\t// in\n    tag_103:\n      mload(0x40)\n      tag_105\n      swap2\n      swap1\n      tag_29\n      jump\t// in\n    tag_105:\n      mload(0x40)\n      dup1\n      swap2\n      sub\n      swap1\n      return\n        /* \"Campaign.sol\":1999:2040  mapping(address => uint) public approvers */\n    tag_27:\n      mstore(0x20, 0x03)\n      dup1\n      0x00\n      mstore\n      keccak256(0x00, 0x40)\n      0x00\n      swap2\n      pop\n      swap1\n      pop\n      sload\n      dup2\n      jump\t// out\n        /* \"Campaign.sol\":2699:2803  function getDescription() external view returns (string memory)... */\n    tag_32:\n        /* \"Campaign.sol\":2748:2761  string memory */\n      0x60\n        /* \"Campaign.sol\":2784:2796  _description */\n      0x01\n        /* \"Campaign.sol\":2777:2796  return _description */\n      dup1\n      sload\n      tag_107\n      swap1\n      tag_108\n      jump\t// in\n    tag_107:\n      dup1\n      0x1f\n      add\n      0x20\n      dup1\n      swap2\n      div\n      mul\n      0x20\n      add\n      mload(0x40)\n      swap1\n      dup2\n      add\n      0x40\n      mstore\n      dup1\n      swap3\n      swap2\n      swap1\n      dup2\n      dup2\n      mstore\n      0x20\n      add\n      dup3\n      dup1\n      sload\n      tag_109\n      swap1\n      tag_108\n      jump\t// in\n    tag_109:\n      dup1\n      iszero\n      tag_110\n      jumpi\n      dup1\n      0x1f\n      lt\n      tag_111\n      jumpi\n      0x0100\n      dup1\n      dup4\n      sload\n      div\n      mul\n      dup4\n      mstore\n      swap2\n      0x20\n      add\n      swap2\n      jump(tag_110)\n    tag_111:\n      dup3\n      add\n      swap2\n      swap1\n      0x00\n      mstore\n      keccak256(0x00, 0x20)\n      swap1\n    tag_112:\n      dup2\n      sload\n      dup2\n      mstore\n      swap1\n      0x01\n      add\n      swap1\n      0x20\n      add\n      dup1\n      dup4\n      gt\n      tag_112\n      jumpi\n      dup3\n      swap1\n      sub\n      0x1f\n      and\n      dup3\n      add\n      swap2\n    tag_110:\n      pop\n      pop\n      pop\n      pop\n      pop\n      swap1\n      pop\n        /* \"Campaign.sol\":2699:2803  function getDescription() external view returns (string memory)... */\n      swap1\n      jump\t// out\n        /* \"Campaign.sol\":5077:5817  function voteRequest(string memory reqName, bool isApproval ) external... */\n    tag_39:\n        /* \"Campaign.sol\":5184:5192  _manager */\n      0x02\n      0x00\n      swap1\n      sload\n      swap1\n      0x0100\n      exp\n      swap1\n      div\n      0xffffffffffffffffffffffffffffffffffffffff\n      and\n        /* \"Campaign.sol\":5170:5192  msg.sender != _manager */\n      0xffffffffffffffffffffffffffffffffffffffff\n      and\n        /* \"Campaign.sol\":5170:5180  msg.sender */\n      caller\n        /* \"Campaign.sol\":5170:5192  msg.sender != _manager */\n      0xffffffffffffffffffffffffffffffffffffffff\n      and\n      sub\n        /* \"Campaign.sol\":5162:5193  require(msg.sender != _manager) */\n      tag_114\n      jumpi\n      0x00\n      dup1\n      revert\n    tag_114:\n        /* \"Campaign.sol\":5204:5223  Request storage req */\n      0x00\n        /* \"Campaign.sol\":5226:5234  requests */\n      0x07\n        /* \"Campaign.sol\":5235:5242  reqName */\n      dup4\n        /* \"Campaign.sol\":5226:5243  requests[reqName] */\n      mload(0x40)\n      tag_115\n      swap2\n      swap1\n      tag_116\n      jump\t// in\n    tag_115:\n      swap1\n      dup2\n      mstore\n      0x20\n      add\n      mload(0x40)\n      dup1\n      swap2\n      sub\n      swap1\n      keccak256\n        /* \"Campaign.sol\":5204:5243  Request storage req = requests[reqName] */\n      swap1\n      pop\n        /* \"Campaign.sol\":5287:5288  0 */\n      0x00\n        /* \"Campaign.sol\":5268:5271  req */\n      dup2\n        /* \"Campaign.sol\":5268:5276  req.name */\n      0x00\n      add\n        /* \"Campaign.sol\":5262:5284  bytes(req.name).length */\n      dup1\n      sload\n      tag_117\n      swap1\n      tag_108\n      jump\t// in\n    tag_117:\n      swap1\n      pop\n        /* \"Campaign.sol\":5262:5288  bytes(req.name).length > 0 */\n      gt\n        /* \"Campaign.sol\":5254:5289  require(bytes(req.name).length > 0) */\n      tag_118\n      jumpi\n      0x00\n      dup1\n      revert\n    tag_118:\n        /* \"Campaign.sol\":5339:5346  reqName */\n      dup3\n        /* \"Campaign.sol\":5333:5354  bytes(reqName).length */\n      mload\n        /* \"Campaign.sol\":5313:5316  req */\n      dup2\n        /* \"Campaign.sol\":5313:5321  req.name */\n      0x00\n      add\n        /* \"Campaign.sol\":5307:5329  bytes(req.name).length */\n      dup1\n      sload\n      tag_119\n      swap1\n      tag_108\n      jump\t// in\n    tag_119:\n      swap1\n      pop\n        /* \"Campaign.sol\":5307:5354  bytes(req.name).length == bytes(reqName).length */\n      eq\n        /* \"Campaign.sol\":5299:5355  require(bytes(req.name).length == bytes(reqName).length) */\n      tag_120\n      jumpi\n      0x00\n      dup1\n      revert\n    tag_120:\n        /* \"Campaign.sol\":5424:5425  0 */\n      0x00\n        /* \"Campaign.sol\":5400:5409  approvers */\n      0x03\n        /* \"Campaign.sol\":5400:5421  approvers[msg.sender] */\n      0x00\n        /* \"Campaign.sol\":5410:5420  msg.sender */\n      caller\n        /* \"Campaign.sol\":5400:5421  approvers[msg.sender] */\n      0xffffffffffffffffffffffffffffffffffffffff\n      and\n      0xffffffffffffffffffffffffffffffffffffffff\n      and\n      dup2\n      mstore\n      0x20\n      add\n      swap1\n      dup2\n      mstore\n      0x20\n      add\n      0x00\n      keccak256\n      sload\n        /* \"Campaign.sol\":5400:5425  approvers[msg.sender] > 0 */\n      gt\n        /* \"Campaign.sol\":5392:5426  require(approvers[msg.sender] > 0) */\n      tag_121\n      jumpi\n      0x00\n      dup1\n      revert\n    tag_121:\n        /* \"Campaign.sol\":5470:5473  req */\n      dup1\n        /* \"Campaign.sol\":5470:5483  req.canSubmit */\n      0x07\n      add\n      0x00\n      swap1\n      sload\n      swap1\n      0x0100\n      exp\n      swap1\n      div\n      0xff\n      and\n        /* \"Campaign.sol\":5469:5483  !req.canSubmit */\n      iszero\n        /* \"Campaign.sol\":5461:5484  require(!req.canSubmit) */\n      tag_122\n      jumpi\n      0x00\n      dup1\n      revert\n    tag_122:\n        /* \"Campaign.sol\":5503:5506  req */\n      dup1\n        /* \"Campaign.sol\":5503:5515  req.complete */\n      0x07\n      add\n      0x01\n      swap1\n      sload\n      swap1\n      0x0100\n      exp\n      swap1\n      div\n      0xff\n      and\n        /* \"Campaign.sol\":5502:5515  !req.complete */\n      iszero\n        /* \"Campaign.sol\":5494:5516  require(!req.complete) */\n      tag_123\n      jumpi\n      0x00\n      dup1\n      revert\n    tag_123:\n        /* \"Campaign.sol\":5561:5564  req */\n      dup1\n        /* \"Campaign.sol\":5561:5574  req.approvers */\n      0x08\n      add\n        /* \"Campaign.sol\":5561:5586  req.approvers[msg.sender] */\n      0x00\n        /* \"Campaign.sol\":5575:5585  msg.sender */\n      caller\n        /* \"Campaign.sol\":5561:5586  req.approvers[msg.sender] */\n      0xffffffffffffffffffffffffffffffffffffffff\n      and\n      0xffffffffffffffffffffffffffffffffffffffff\n      and\n      dup2\n      mstore\n      0x20\n      add\n      swap1\n      dup2\n      mstore\n      0x20\n      add\n      0x00\n      keccak256\n      0x00\n      swap1\n      sload\n      swap1\n      0x0100\n      exp\n      swap1\n      div\n      0xff\n      and\n        /* \"Campaign.sol\":5560:5586  !req.approvers[msg.sender] */\n      iszero\n        /* \"Campaign.sol\":5552:5587  require(!req.approvers[msg.sender]) */\n      tag_124\n      jumpi\n      0x00\n      dup1\n      revert\n    tag_124:\n        /* \"Campaign.sol\":5626:5630  true */\n      0x01\n        /* \"Campaign.sol\":5598:5601  req */\n      dup2\n        /* \"Campaign.sol\":5598:5611  req.approvers */\n      0x08\n      add\n        /* \"Campaign.sol\":5598:5623  req.approvers[msg.sender] */\n      0x00\n        /* \"Campaign.sol\":5612:5622  msg.sender */\n      caller\n        /* \"Campaign.sol\":5598:5623  req.approvers[msg.sender] */\n      0xffffffffffffffffffffffffffffffffffffffff\n      and\n      0xffffffffffffffffffffffffffffffffffffffff\n      and\n      dup2\n      mstore\n      0x20\n      add\n      swap1\n      dup2\n      mstore\n      0x20\n      add\n      0x00\n      keccak256\n      0x00\n        /* \"Campaign.sol\":5598:5630  req.approvers[msg.sender] = true */\n      0x0100\n      exp\n      dup2\n      sload\n      dup2\n      0xff\n      mul\n      not\n      and\n      swap1\n      dup4\n      iszero\n      iszero\n      mul\n      or\n      swap1\n      sstore\n      pop\n        /* \"Campaign.sol\":5652:5662  isApproval */\n      dup2\n        /* \"Campaign.sol\":5649:5708  if(isApproval){... */\n      iszero\n      tag_125\n      jumpi\n        /* \"Campaign.sol\":5677:5680  req */\n      dup1\n        /* \"Campaign.sol\":5677:5695  req.approvalsCount */\n      0x04\n      add\n      0x00\n        /* \"Campaign.sol\":5677:5697  req.approvalsCount++ */\n      dup2\n      sload\n      dup1\n      swap3\n      swap2\n      swap1\n      tag_126\n      swap1\n      tag_127\n      jump\t// in\n    tag_126:\n      swap2\n      swap1\n      pop\n      sstore\n      pop\n        /* \"Campaign.sol\":5649:5708  if(isApproval){... */\n    tag_125:\n        /* \"Campaign.sol\":5743:5746  req */\n      dup1\n        /* \"Campaign.sol\":5743:5764  req.requiredApprovals */\n      0x05\n      add\n      sload\n        /* \"Campaign.sol\":5721:5724  req */\n      dup2\n        /* \"Campaign.sol\":5721:5739  req.approvalsCount */\n      0x04\n      add\n      sload\n        /* \"Campaign.sol\":5721:5764  req.approvalsCount >= req.requiredApprovals */\n      lt\n        /* \"Campaign.sol\":5718:5811  if(req.approvalsCount >= req.requiredApprovals) {... */\n      tag_128\n      jumpi\n        /* \"Campaign.sol\":5796:5800  true */\n      0x01\n        /* \"Campaign.sol\":5780:5783  req */\n      dup2\n        /* \"Campaign.sol\":5780:5793  req.canSubmit */\n      0x07\n      add\n      0x00\n        /* \"Campaign.sol\":5780:5800  req.canSubmit = true */\n      0x0100\n      exp\n      dup2\n      sload\n      dup2\n      0xff\n      mul\n      not\n      and\n      swap1\n      dup4\n      iszero\n      iszero\n      mul\n      or\n      swap1\n      sstore\n      pop\n        /* \"Campaign.sol\":5718:5811  if(req.approvalsCount >= req.requiredApprovals) {... */\n    tag_128:\n        /* \"Campaign.sol\":5152:5817  {... */\n      pop\n        /* \"Campaign.sol\":5077:5817  function voteRequest(string memory reqName, bool isApproval ) external... */\n      pop\n      pop\n      jump\t// out\n        /* \"Campaign.sol\":3129:3222  function getRequestsCount() external view returns(uint){... */\n    tag_42:\n        /* \"Campaign.sol\":3179:3183  uint */\n      0x00\n        /* \"Campaign.sol\":3201:3215  _requestsCount */\n      sload(0x08)\n        /* \"Campaign.sol\":3194:3215  return _requestsCount */\n      swap1\n      pop\n        /* \"Campaign.sol\":3129:3222  function getRequestsCount() external view returns(uint){... */\n      swap1\n      jump\t// out\n        /* \"Campaign.sol\":3344:3774  function getSummary() external view returns(Summary memory)... */\n    tag_46:\n        /* \"Campaign.sol\":3388:3402  Summary memory */\n      tag_130\n      tag_131\n      jump\t// in\n    tag_130:\n        /* \"Campaign.sol\":3418:3437  Summary memory data */\n      0x00\n        /* \"Campaign.sol\":3441:3745  Summary({... */\n      mload(0x40)\n      dup1\n      0xe0\n      add\n      0x40\n      mstore\n      dup1\n        /* \"Campaign.sol\":3472:3480  _manager */\n      0x02\n      0x00\n      swap1\n      sload\n      swap1\n      0x0100\n      exp\n      swap1\n      div\n      0xffffffffffffffffffffffffffffffffffffffff\n      and\n        /* \"Campaign.sol\":3441:3745  Summary({... */\n      0xffffffffffffffffffffffffffffffffffffffff\n      and\n      dup2\n      mstore\n      0x20\n      add\n        /* \"Campaign.sol\":3500:3505  _name */\n      0x00\n        /* \"Campaign.sol\":3441:3745  Summary({... */\n      dup1\n      sload\n      tag_133\n      swap1\n      tag_108\n      jump\t// in\n    tag_133:\n      dup1\n      0x1f\n      add\n      0x20\n      dup1\n      swap2\n      div\n      mul\n      0x20\n      add\n      mload(0x40)\n      swap1\n      dup2\n      add\n      0x40\n      mstore\n      dup1\n      swap3\n      swap2\n      swap1\n      dup2\n      dup2\n      mstore\n      0x20\n      add\n      dup3\n      dup1\n      sload\n      tag_134\n      swap1\n      tag_108\n      jump\t// in\n    tag_134:\n      dup1\n      iszero\n      tag_135\n      jumpi\n      dup1\n      0x1f\n      lt\n      tag_136\n      jumpi\n      0x0100\n      dup1\n      dup4\n      sload\n      div\n      mul\n      dup4\n      mstore\n      swap2\n      0x20\n      add\n      swap2\n      jump(tag_135)\n    tag_136:\n      dup3\n      add\n      swap2\n      swap1\n      0x00\n      mstore\n      keccak256(0x00, 0x20)\n      swap1\n    tag_137:\n      dup2\n      sload\n      dup2\n      mstore\n      swap1\n      0x01\n      add\n      swap1\n      0x20\n      add\n      dup1\n      dup4\n      gt\n      tag_137\n      jumpi\n      dup3\n      swap1\n      sub\n      0x1f\n      and\n      dup3\n      add\n      swap2\n    tag_135:\n      pop\n      pop\n      pop\n      pop\n      pop\n      dup2\n      mstore\n      0x20\n      add\n        /* \"Campaign.sol\":3532:3544  _description */\n      0x01\n        /* \"Campaign.sol\":3441:3745  Summary({... */\n      dup1\n      sload\n      tag_138\n      swap1\n      tag_108\n      jump\t// in\n    tag_138:\n      dup1\n      0x1f\n      add\n      0x20\n      dup1\n      swap2\n      div\n      mul\n      0x20\n      add\n      mload(0x40)\n      swap1\n      dup2\n      add\n      0x40\n      mstore\n      dup1\n      swap3\n      swap2\n      swap1\n      dup2\n      dup2\n      mstore\n      0x20\n      add\n      dup3\n      dup1\n      sload\n      tag_139\n      swap1\n      tag_108\n      jump\t// in\n    tag_139:\n      dup1\n      iszero\n      tag_140\n      jumpi\n      dup1\n      0x1f\n      lt\n      tag_141\n      jumpi\n      0x0100\n      dup1\n      dup4\n      sload\n      div\n      mul\n      dup4\n      mstore\n      swap2\n      0x20\n      add\n      swap2\n      jump(tag_140)\n    tag_141:\n      dup3\n      add\n      swap2\n      swap1\n      0x00\n      mstore\n      keccak256(0x00, 0x20)\n      swap1\n    tag_142:\n      dup2\n      sload\n      dup2\n      mstore\n      swap1\n      0x01\n      add\n      swap1\n      0x20\n      add\n      dup1\n      dup4\n      gt\n      tag_142\n      jumpi\n      dup3\n      swap1\n      sub\n      0x1f\n      and\n      dup3\n      add\n      swap2\n    tag_140:\n      pop\n      pop\n      pop\n      pop\n      pop\n      dup2\n      mstore\n      0x20\n      add\n        /* \"Campaign.sol\":3575:3595  _minimumContribution */\n      sload(0x05)\n        /* \"Campaign.sol\":3441:3745  Summary({... */\n      dup2\n      mstore\n      0x20\n      add\n        /* \"Campaign.sol\":3618:3639  address(this).balance */\n      selfbalance\n        /* \"Campaign.sol\":3441:3745  Summary({... */\n      dup2\n      mstore\n      0x20\n      add\n        /* \"Campaign.sol\":3676:3691  _approversCount */\n      sload(0x04)\n        /* \"Campaign.sol\":3441:3745  Summary({... */\n      dup2\n      mstore\n      0x20\n      add\n        /* \"Campaign.sol\":3720:3734  _requestsCount */\n      sload(0x08)\n        /* \"Campaign.sol\":3441:3745  Summary({... */\n      dup2\n      mstore\n      pop\n        /* \"Campaign.sol\":3418:3745  Summary memory data  = Summary({... */\n      swap1\n      pop\n        /* \"Campaign.sol\":3763:3767  data */\n      dup1\n        /* \"Campaign.sol\":3756:3767  return data */\n      swap2\n      pop\n      pop\n        /* \"Campaign.sol\":3344:3774  function getSummary() external view returns(Summary memory)... */\n      swap1\n      jump\t// out\n        /* \"Campaign.sol\":2159:2201  mapping(string => Request) public requests */\n    tag_53:\n      0x07\n      dup2\n      dup1\n      mload\n      0x20\n      dup2\n      add\n      dup3\n      add\n      dup1\n      mload\n      dup5\n      dup3\n      mstore\n      0x20\n      dup4\n      add\n      0x20\n      dup6\n      add\n      keccak256\n      dup2\n      dup4\n      mstore\n      dup1\n      swap6\n      pop\n      pop\n      pop\n      pop\n      pop\n      pop\n      0x00\n      swap2\n      pop\n      swap1\n      pop\n      dup1\n      0x00\n      add\n      dup1\n      sload\n      tag_143\n      swap1\n      tag_108\n      jump\t// in\n    tag_143:\n      dup1\n      0x1f\n      add\n      0x20\n      dup1\n      swap2\n      div\n      mul\n      0x20\n      add\n      mload(0x40)\n      swap1\n      dup2\n      add\n      0x40\n      mstore\n      dup1\n      swap3\n      swap2\n      swap1\n      dup2\n      dup2\n      mstore\n      0x20\n      add\n      dup3\n      dup1\n      sload\n      tag_144\n      swap1\n      tag_108\n      jump\t// in\n    tag_144:\n      dup1\n      iszero\n      tag_145\n      jumpi\n      dup1\n      0x1f\n      lt\n      tag_146\n      jumpi\n      0x0100\n      dup1\n      dup4\n      sload\n      div\n      mul\n      dup4\n      mstore\n      swap2\n      0x20\n      add\n      swap2\n      jump(tag_145)\n    tag_146:\n      dup3\n      add\n      swap2\n      swap1\n      0x00\n      mstore\n      keccak256(0x00, 0x20)\n      swap1\n    tag_147:\n      dup2\n      sload\n      dup2\n      mstore\n      swap1\n      0x01\n      add\n      swap1\n      0x20\n      add\n      dup1\n      dup4\n      gt\n      tag_147\n      jumpi\n      dup3\n      swap1\n      sub\n      0x1f\n      and\n      dup3\n      add\n      swap2\n    tag_145:\n      pop\n      pop\n      pop\n      pop\n      pop\n      swap1\n      dup1\n      0x01\n      add\n      dup1\n      sload\n      tag_148\n      swap1\n      tag_108\n      jump\t// in\n    tag_148:\n      dup1\n      0x1f\n      add\n      0x20\n      dup1\n      swap2\n      div\n      mul\n      0x20\n      add\n      mload(0x40)\n      swap1\n      dup2\n      add\n      0x40\n      mstore\n      dup1\n      swap3\n      swap2\n      swap1\n      dup2\n      dup2\n      mstore\n      0x20\n      add\n      dup3\n      dup1\n      sload\n      tag_149\n      swap1\n      tag_108\n      jump\t// in\n    tag_149:\n      dup1\n      iszero\n      tag_150\n      jumpi\n      dup1\n      0x1f\n      lt\n      tag_151\n      jumpi\n      0x0100\n      dup1\n      dup4\n      sload\n      div\n      mul\n      dup4\n      mstore\n      swap2\n      0x20\n      add\n      swap2\n      jump(tag_150)\n    tag_151:\n      dup3\n      add\n      swap2\n      swap1\n      0x00\n      mstore\n      keccak256(0x00, 0x20)\n      swap1\n    tag_152:\n      dup2\n      sload\n      dup2\n      mstore\n      swap1\n      0x01\n      add\n      swap1\n      0x20\n      add\n      dup1\n      dup4\n      gt\n      tag_152\n      jumpi\n      dup3\n      swap1\n      sub\n      0x1f\n      and\n      dup3\n      add\n      swap2\n    tag_150:\n      pop\n      pop\n      pop\n      pop\n      pop\n      swap1\n      dup1\n      0x02\n      add\n      sload\n      swap1\n      dup1\n      0x03\n      add\n      0x00\n      swap1\n      sload\n      swap1\n      0x0100\n      exp\n      swap1\n      div\n      0xffffffffffffffffffffffffffffffffffffffff\n      and\n      swap1\n      dup1\n      0x04\n      add\n      sload\n      swap1\n      dup1\n      0x05\n      add\n      sload\n      swap1\n      dup1\n      0x06\n      add\n      sload\n      swap1\n      dup1\n      0x07\n      add\n      0x00\n      swap1\n      sload\n      swap1\n      0x0100\n      exp\n      swap1\n      div\n      0xff\n      and\n      swap1\n      dup1\n      0x07\n      add\n      0x01\n      swap1\n      sload\n      swap1\n      0x0100\n      exp\n      swap1\n      div\n      0xff\n      and\n      swap1\n      pop\n      dup10\n      jump\t// out\n        /* \"Campaign.sol\":3022:3124  function getContractBalance() external view returns(uint){... */\n    tag_58:\n        /* \"Campaign.sol\":3074:3078  uint */\n      0x00\n        /* \"Campaign.sol\":3096:3117  address(this).balance */\n      selfbalance\n        /* \"Campaign.sol\":3089:3117  return address(this).balance */\n      swap1\n      pop\n        /* \"Campaign.sol\":3022:3124  function getContractBalance() external view returns(uint){... */\n      swap1\n      jump\t// out\n        /* \"Campaign.sol\":6665:6872  function getRequestClaims(string memory reqName) external view returns(RequestClaim[] memory)... */\n    tag_63:\n        /* \"Campaign.sol\":6736:6757  RequestClaim[] memory */\n      0x60\n        /* \"Campaign.sol\":6821:6822  0 */\n      0x00\n        /* \"Campaign.sol\":6787:6795  requests */\n      0x07\n        /* \"Campaign.sol\":6796:6803  reqName */\n      dup4\n        /* \"Campaign.sol\":6787:6804  requests[reqName] */\n      mload(0x40)\n      tag_155\n      swap2\n      swap1\n      tag_116\n      jump\t// in\n    tag_155:\n      swap1\n      dup2\n      mstore\n      0x20\n      add\n      mload(0x40)\n      dup1\n      swap2\n      sub\n      swap1\n      keccak256\n        /* \"Campaign.sol\":6787:6809  requests[reqName].name */\n      0x00\n      add\n        /* \"Campaign.sol\":6781:6817  bytes(requests[reqName].name).length */\n      dup1\n      sload\n      tag_156\n      swap1\n      tag_108\n      jump\t// in\n    tag_156:\n      swap1\n      pop\n        /* \"Campaign.sol\":6781:6822  bytes(requests[reqName].name).length != 0 */\n      sub\n        /* \"Campaign.sol\":6773:6823  require(bytes(requests[reqName].name).length != 0) */\n      tag_157\n      jumpi\n      0x00\n      dup1\n      revert\n    tag_157:\n        /* \"Campaign.sol\":6841:6849  requests */\n      0x07\n        /* \"Campaign.sol\":6850:6857  reqName */\n      dup3\n        /* \"Campaign.sol\":6841:6858  requests[reqName] */\n      mload(0x40)\n      tag_158\n      swap2\n      swap1\n      tag_116\n      jump\t// in\n    tag_158:\n      swap1\n      dup2\n      mstore\n      0x20\n      add\n      mload(0x40)\n      dup1\n      swap2\n      sub\n      swap1\n      keccak256\n        /* \"Campaign.sol\":6841:6865  requests[reqName].claims */\n      0x09\n      add\n        /* \"Campaign.sol\":6834:6865  return requests[reqName].claims */\n      dup1\n      sload\n      dup1\n      0x20\n      mul\n      0x20\n      add\n      mload(0x40)\n      swap1\n      dup2\n      add\n      0x40\n      mstore\n      dup1\n      swap3\n      swap2\n      swap1\n      dup2\n      dup2\n      mstore\n      0x20\n      add\n      0x00\n      swap1\n    tag_159:\n      dup3\n      dup3\n      lt\n      iszero\n      tag_160\n      jumpi\n      dup4\n      dup3\n      swap1\n      0x00\n      mstore\n      keccak256(0x00, 0x20)\n      swap1\n      0x02\n      mul\n      add\n      mload(0x40)\n      dup1\n      0x40\n      add\n      0x40\n      mstore\n      swap1\n      dup2\n      0x00\n      dup3\n      add\n      0x00\n      swap1\n      sload\n      swap1\n      0x0100\n      exp\n      swap1\n      div\n      0xffffffffffffffffffffffffffffffffffffffff\n      and\n      0xffffffffffffffffffffffffffffffffffffffff\n      and\n      0xffffffffffffffffffffffffffffffffffffffff\n      and\n      dup2\n      mstore\n      0x20\n      add\n      0x01\n      dup3\n      add\n      dup1\n      sload\n      tag_162\n      swap1\n      tag_108\n      jump\t// in\n    tag_162:\n      dup1\n      0x1f\n      add\n      0x20\n      dup1\n      swap2\n      div\n      mul\n      0x20\n      add\n      mload(0x40)\n      swap1\n      dup2\n      add\n      0x40\n      mstore\n      dup1\n      swap3\n      swap2\n      swap1\n      dup2\n      dup2\n      mstore\n      0x20\n      add\n      dup3\n      dup1\n      sload\n      tag_163\n      swap1\n      tag_108\n      jump\t// in\n    tag_163:\n      dup1\n      iszero\n      tag_164\n      jumpi\n      dup1\n      0x1f\n      lt\n      tag_165\n      jumpi\n      0x0100\n      dup1\n      dup4\n      sload\n      div\n      mul\n      dup4\n      mstore\n      swap2\n      0x20\n      add\n      swap2\n      jump(tag_164)\n    tag_165:\n      dup3\n      add\n      swap2\n      swap1\n      0x00\n      mstore\n      keccak256(0x00, 0x20)\n      swap1\n    tag_166:\n      dup2\n      sload\n      dup2\n      mstore\n      swap1\n      0x01\n      add\n      swap1\n      0x20\n      add\n      dup1\n      dup4\n      gt\n      tag_166\n      jumpi\n      dup3\n      swap1\n      sub\n      0x1f\n      and\n      dup3\n      add\n      swap2\n    tag_164:\n      pop\n      pop\n      pop\n      pop\n      pop\n      dup2\n      mstore\n      pop\n      pop\n      dup2\n      mstore\n      0x20\n      add\n      swap1\n      0x01\n      add\n      swap1\n      jump(tag_159)\n    tag_160:\n      pop\n      pop\n      pop\n      pop\n      swap1\n      pop\n        /* \"Campaign.sol\":6665:6872  function getRequestClaims(string memory reqName) external view returns(RequestClaim[] memory)... */\n      swap2\n      swap1\n      pop\n      jump\t// out\n        /* \"Campaign.sol\":3227:3334  function getRequests() external view returns(RequestSummary[] memory)... */\n    tag_68:\n        /* \"Campaign.sol\":3272:3295  RequestSummary[] memory */\n      0x60\n        /* \"Campaign.sol\":3318:3327  _requests */\n      0x06\n        /* \"Campaign.sol\":3311:3327  return _requests */\n      dup1\n      sload\n      dup1\n      0x20\n      mul\n      0x20\n      add\n      mload(0x40)\n      swap1\n      dup2\n      add\n      0x40\n      mstore\n      dup1\n      swap3\n      swap2\n      swap1\n      dup2\n      dup2\n      mstore\n      0x20\n      add\n      0x00\n      swap1\n    tag_168:\n      dup3\n      dup3\n      lt\n      iszero\n      tag_169\n      jumpi\n      dup4\n      dup3\n      swap1\n      0x00\n      mstore\n      keccak256(0x00, 0x20)\n      swap1\n      0x03\n      mul\n      add\n      mload(0x40)\n      dup1\n      0x60\n      add\n      0x40\n      mstore\n      swap1\n      dup2\n      0x00\n      dup3\n      add\n      dup1\n      sload\n      tag_171\n      swap1\n      tag_108\n      jump\t// in\n    tag_171:\n      dup1\n      0x1f\n      add\n      0x20\n      dup1\n      swap2\n      div\n      mul\n      0x20\n      add\n      mload(0x40)\n      swap1\n      dup2\n      add\n      0x40\n      mstore\n      dup1\n      swap3\n      swap2\n      swap1\n      dup2\n      dup2\n      mstore\n      0x20\n      add\n      dup3\n      dup1\n      sload\n      tag_172\n      swap1\n      tag_108\n      jump\t// in\n    tag_172:\n      dup1\n      iszero\n      tag_173\n      jumpi\n      dup1\n      0x1f\n      lt\n      tag_174\n      jumpi\n      0x0100\n      dup1\n      dup4\n      sload\n      div\n      mul\n      dup4\n      mstore\n      swap2\n      0x20\n      add\n      swap2\n      jump(tag_173)\n    tag_174:\n      dup3\n      add\n      swap2\n      swap1\n      0x00\n      mstore\n      keccak256(0x00, 0x20)\n      swap1\n    tag_175:\n      dup2\n      sload\n      dup2\n      mstore\n      swap1\n      0x01\n      add\n      swap1\n      0x20\n      add\n      dup1\n      dup4\n      gt\n      tag_175\n      jumpi\n      dup3\n      swap1\n      sub\n      0x1f\n      and\n      dup3\n      add\n      swap2\n    tag_173:\n      pop\n      pop\n      pop\n      pop\n      pop\n      dup2\n      mstore\n      0x20\n      add\n      0x01\n      dup3\n      add\n      dup1\n      sload\n      tag_176\n      swap1\n      tag_108\n      jump\t// in\n    tag_176:\n      dup1\n      0x1f\n      add\n      0x20\n      dup1\n      swap2\n      div\n      mul\n      0x20\n      add\n      mload(0x40)\n      swap1\n      dup2\n      add\n      0x40\n      mstore\n      dup1\n      swap3\n      swap2\n      swap1\n      dup2\n      dup2\n      mstore\n      0x20\n      add\n      dup3\n      dup1\n      sload\n      tag_177\n      swap1\n      tag_108\n      jump\t// in\n    tag_177:\n      dup1\n      iszero\n      tag_178\n      jumpi\n      dup1\n      0x1f\n      lt\n      tag_179\n      jumpi\n      0x0100\n      dup1\n      dup4\n      sload\n      div\n      mul\n      dup4\n      mstore\n      swap2\n      0x20\n      add\n      swap2\n      jump(tag_178)\n    tag_179:\n      dup3\n      add\n      swap2\n      swap1\n      0x00\n      mstore\n      keccak256(0x00, 0x20)\n      swap1\n    tag_180:\n      dup2\n      sload\n      dup2\n      mstore\n      swap1\n      0x01\n      add\n      swap1\n      0x20\n      add\n      dup1\n      dup4\n      gt\n      tag_180\n      jumpi\n      dup3\n      swap1\n      sub\n      0x1f\n      and\n      dup3\n      add\n      swap2\n    tag_178:\n      pop\n      pop\n      pop\n      pop\n      pop\n      dup2\n      mstore\n      0x20\n      add\n      0x02\n      dup3\n      add\n      sload\n      dup2\n      mstore\n      pop\n      pop\n      dup2\n      mstore\n      0x20\n      add\n      swap1\n      0x01\n      add\n      swap1\n      jump(tag_168)\n    tag_169:\n      pop\n      pop\n      pop\n      pop\n      swap1\n      pop\n        /* \"Campaign.sol\":3227:3334  function getRequests() external view returns(RequestSummary[] memory)... */\n      swap1\n      jump\t// out\n        /* \"Campaign.sol\":2596:2694  function getCampaignName() external view returns (string memory)... */\n    tag_73:\n        /* \"Campaign.sol\":2646:2659  string memory */\n      0x60\n        /* \"Campaign.sol\":2682:2687  _name */\n      0x00\n        /* \"Campaign.sol\":2675:2687  return _name */\n      dup1\n      sload\n      tag_182\n      swap1\n      tag_108\n      jump\t// in\n    tag_182:\n      dup1\n      0x1f\n      add\n      0x20\n      dup1\n      swap2\n      div\n      mul\n      0x20\n      add\n      mload(0x40)\n      swap1\n      dup2\n      add\n      0x40\n      mstore\n      dup1\n      swap3\n      swap2\n      swap1\n      dup2\n      dup2\n      mstore\n      0x20\n      add\n      dup3\n      dup1\n      sload\n      tag_183\n      swap1\n      tag_108\n      jump\t// in\n    tag_183:\n      dup1\n      iszero\n      tag_184\n      jumpi\n      dup1\n      0x1f\n      lt\n      tag_185\n      jumpi\n      0x0100\n      dup1\n      dup4\n      sload\n      div\n      mul\n      dup4\n      mstore\n      swap2\n      0x20\n      add\n      swap2\n      jump(tag_184)\n    tag_185:\n      dup3\n      add\n      swap2\n      swap1\n      0x00\n      mstore\n      keccak256(0x00, 0x20)\n      swap1\n    tag_186:\n      dup2\n      sload\n      dup2\n      mstore\n      swap1\n      0x01\n      add\n      swap1\n      0x20\n      add\n      dup1\n      dup4\n      gt\n      tag_186\n      jumpi\n      dup3\n      swap1\n      sub\n      0x1f\n      and\n      dup3\n      add\n      swap2\n    tag_184:\n      pop\n      pop\n      pop\n      pop\n      pop\n      swap1\n      pop\n        /* \"Campaign.sol\":2596:2694  function getCampaignName() external view returns (string memory)... */\n      swap1\n      jump\t// out\n        /* \"Campaign.sol\":4001:4064  function addFunds() restricted external payable{... */\n    tag_76:\n        /* \"Campaign.sol\":6988:6996  _manager */\n      0x02\n      0x00\n      swap1\n      sload\n      swap1\n      0x0100\n      exp\n      swap1\n      div\n      0xffffffffffffffffffffffffffffffffffffffff\n      and\n        /* \"Campaign.sol\":6974:6996  msg.sender == _manager */\n      0xffffffffffffffffffffffffffffffffffffffff\n      and\n        /* \"Campaign.sol\":6974:6984  msg.sender */\n      caller\n        /* \"Campaign.sol\":6974:6996  msg.sender == _manager */\n      0xffffffffffffffffffffffffffffffffffffffff\n      and\n      eq\n        /* \"Campaign.sol\":6966:6997  require(msg.sender == _manager) */\n      tag_188\n      jumpi\n      0x00\n      dup1\n      revert\n    tag_188:\n        /* \"Campaign.sol\":4001:4064  function addFunds() restricted external payable{... */\n      jump\t// out\n        /* \"Campaign.sol\":4070:5071  function triggerCampaignRequest(string memory name, string memory description, uint amount, uint requiredApprovals, address payable receiver) restricted external {... */\n    tag_81:\n        /* \"Campaign.sol\":6988:6996  _manager */\n      0x02\n      0x00\n      swap1\n      sload\n      swap1\n      0x0100\n      exp\n      swap1\n      div\n      0xffffffffffffffffffffffffffffffffffffffff\n      and\n        /* \"Campaign.sol\":6974:6996  msg.sender == _manager */\n      0xffffffffffffffffffffffffffffffffffffffff\n      and\n        /* \"Campaign.sol\":6974:6984  msg.sender */\n      caller\n        /* \"Campaign.sol\":6974:6996  msg.sender == _manager */\n      0xffffffffffffffffffffffffffffffffffffffff\n      and\n      eq\n        /* \"Campaign.sol\":6966:6997  require(msg.sender == _manager) */\n      tag_191\n      jumpi\n      0x00\n      dup1\n      revert\n    tag_191:\n        /* \"Campaign.sol\":4280:4281  0 */\n      0x00\n        /* \"Campaign.sol\":4265:4269  name */\n      dup6\n        /* \"Campaign.sol\":4259:4277  bytes(name).length */\n      mload\n        /* \"Campaign.sol\":4259:4281  bytes(name).length > 0 */\n      gt\n        /* \"Campaign.sol\":4251:4282  require(bytes(name).length > 0) */\n      tag_193\n      jumpi\n      0x00\n      dup1\n      revert\n    tag_193:\n        /* \"Campaign.sol\":4328:4329  0 */\n      0x00\n        /* \"Campaign.sol\":4306:4317  description */\n      dup5\n        /* \"Campaign.sol\":4300:4325  bytes(description).length */\n      mload\n        /* \"Campaign.sol\":4300:4329  bytes(description).length > 0 */\n      gt\n        /* \"Campaign.sol\":4292:4330  require(bytes(description).length > 0) */\n      tag_194\n      jumpi\n      0x00\n      dup1\n      revert\n    tag_194:\n        /* \"Campaign.sol\":4357:4358  0 */\n      0x00\n        /* \"Campaign.sol\":4348:4354  amount */\n      dup4\n        /* \"Campaign.sol\":4348:4358  amount > 0 */\n      gt\n        /* \"Campaign.sol\":4340:4359  require(amount > 0) */\n      tag_195\n      jumpi\n      0x00\n      dup1\n      revert\n    tag_195:\n        /* \"Campaign.sol\":4387:4408  address(this).balance */\n      selfbalance\n        /* \"Campaign.sol\":4377:4383  amount */\n      dup4\n        /* \"Campaign.sol\":4377:4408  amount <= address(this).balance */\n      gt\n      iszero\n        /* \"Campaign.sol\":4369:4409  require(amount <= address(this).balance) */\n      tag_196\n      jumpi\n      0x00\n      dup1\n      revert\n    tag_196:\n        /* \"Campaign.sol\":4447:4448  0 */\n      0x00\n        /* \"Campaign.sol\":4427:4444  requiredApprovals */\n      dup3\n        /* \"Campaign.sol\":4427:4448  requiredApprovals > 0 */\n      gt\n        /* \"Campaign.sol\":4419:4449  require(requiredApprovals > 0) */\n      tag_197\n      jumpi\n      0x00\n      dup1\n      revert\n    tag_197:\n        /* \"Campaign.sol\":4488:4503  _approversCount */\n      sload(0x04)\n        /* \"Campaign.sol\":4467:4484  requiredApprovals */\n      dup3\n        /* \"Campaign.sol\":4467:4503  requiredApprovals <= _approversCount */\n      gt\n      iszero\n        /* \"Campaign.sol\":4459:4504  require(requiredApprovals <= _approversCount) */\n      tag_198\n      jumpi\n      0x00\n      dup1\n      revert\n    tag_198:\n        /* \"Campaign.sol\":4514:4533  Request storage req */\n      0x00\n        /* \"Campaign.sol\":4536:4544  requests */\n      0x07\n        /* \"Campaign.sol\":4545:4549  name */\n      dup7\n        /* \"Campaign.sol\":4536:4550  requests[name] */\n      mload(0x40)\n      tag_199\n      swap2\n      swap1\n      tag_116\n      jump\t// in\n    tag_199:\n      swap1\n      dup2\n      mstore\n      0x20\n      add\n      mload(0x40)\n      dup1\n      swap2\n      sub\n      swap1\n      keccak256\n        /* \"Campaign.sol\":4514:4550  Request storage req = requests[name] */\n      swap1\n      pop\n        /* \"Campaign.sol\":4579:4583  name */\n      dup6\n        /* \"Campaign.sol\":4569:4572  req */\n      dup2\n        /* \"Campaign.sol\":4569:4577  req.name */\n      0x00\n      add\n        /* \"Campaign.sol\":4569:4583  req.name= name */\n      swap1\n      dup2\n      tag_200\n      swap2\n      swap1\n      tag_201\n      jump\t// in\n    tag_200:\n      pop\n        /* \"Campaign.sol\":4611:4622  description */\n      dup5\n        /* \"Campaign.sol\":4593:4596  req */\n      dup2\n        /* \"Campaign.sol\":4593:4608  req.description */\n      0x01\n      add\n        /* \"Campaign.sol\":4593:4622  req.description = description */\n      swap1\n      dup2\n      tag_202\n      swap2\n      swap1\n      tag_201\n      jump\t// in\n    tag_202:\n      pop\n        /* \"Campaign.sol\":4645:4651  amount */\n      dup4\n        /* \"Campaign.sol\":4632:4635  req */\n      dup2\n        /* \"Campaign.sol\":4632:4642  req.amount */\n      0x02\n      add\n        /* \"Campaign.sol\":4632:4651  req.amount = amount */\n      dup2\n      swap1\n      sstore\n      pop\n        /* \"Campaign.sol\":4676:4684  receiver */\n      dup2\n        /* \"Campaign.sol\":4661:4664  req */\n      dup2\n        /* \"Campaign.sol\":4661:4673  req.receiver */\n      0x03\n      add\n      0x00\n        /* \"Campaign.sol\":4661:4684  req.receiver = receiver */\n      0x0100\n      exp\n      dup2\n      sload\n      dup2\n      0xffffffffffffffffffffffffffffffffffffffff\n      mul\n      not\n      and\n      swap1\n      dup4\n      0xffffffffffffffffffffffffffffffffffffffff\n      and\n      mul\n      or\n      swap1\n      sstore\n      pop\n        /* \"Campaign.sol\":4715:4716  0 */\n      0x00\n        /* \"Campaign.sol\":4694:4697  req */\n      dup2\n        /* \"Campaign.sol\":4694:4712  req.approvalsCount */\n      0x04\n      add\n        /* \"Campaign.sol\":4694:4716  req.approvalsCount=  0 */\n      dup2\n      swap1\n      sstore\n      pop\n        /* \"Campaign.sol\":4744:4745  0 */\n      0x00\n        /* \"Campaign.sol\":4726:4729  req */\n      dup2\n        /* \"Campaign.sol\":4726:4741  req.claimsCount */\n      0x06\n      add\n        /* \"Campaign.sol\":4726:4745  req.claimsCount = 0 */\n      dup2\n      swap1\n      sstore\n      pop\n        /* \"Campaign.sol\":4779:4796  requiredApprovals */\n      dup3\n        /* \"Campaign.sol\":4755:4758  req */\n      dup2\n        /* \"Campaign.sol\":4755:4776  req.requiredApprovals */\n      0x05\n      add\n        /* \"Campaign.sol\":4755:4796  req.requiredApprovals = requiredApprovals */\n      dup2\n      swap1\n      sstore\n      pop\n        /* \"Campaign.sol\":4820:4825  false */\n      0x00\n        /* \"Campaign.sol\":4806:4809  req */\n      dup2\n        /* \"Campaign.sol\":4806:4818  req.complete */\n      0x07\n      add\n      0x01\n        /* \"Campaign.sol\":4806:4825  req.complete= false */\n      0x0100\n      exp\n      dup2\n      sload\n      dup2\n      0xff\n      mul\n      not\n      and\n      swap1\n      dup4\n      iszero\n      iszero\n      mul\n      or\n      swap1\n      sstore\n      pop\n        /* \"Campaign.sol\":4856:4870  _requestsCount */\n      0x08\n      0x00\n        /* \"Campaign.sol\":4856:4872  _requestsCount++ */\n      dup2\n      sload\n      dup1\n      swap3\n      swap2\n      swap1\n      tag_203\n      swap1\n      tag_127\n      jump\t// in\n    tag_203:\n      swap2\n      swap1\n      pop\n      sstore\n      pop\n        /* \"Campaign.sol\":4882:4911  RequestSummary memory summary */\n      0x00\n        /* \"Campaign.sol\":4914:5030  RequestSummary({... */\n      mload(0x40)\n      dup1\n      0x60\n      add\n      0x40\n      mstore\n      dup1\n        /* \"Campaign.sol\":4949:4953  name */\n      dup9\n        /* \"Campaign.sol\":4914:5030  RequestSummary({... */\n      dup2\n      mstore\n      0x20\n      add\n        /* \"Campaign.sol\":4980:4991  description */\n      dup8\n        /* \"Campaign.sol\":4914:5030  RequestSummary({... */\n      dup2\n      mstore\n      0x20\n      add\n        /* \"Campaign.sol\":5013:5019  amount */\n      dup7\n        /* \"Campaign.sol\":4914:5030  RequestSummary({... */\n      dup2\n      mstore\n      pop\n        /* \"Campaign.sol\":4882:5030  RequestSummary memory summary = RequestSummary({... */\n      swap1\n      pop\n        /* \"Campaign.sol\":5041:5050  _requests */\n      0x06\n        /* \"Campaign.sol\":5056:5063  summary */\n      dup2\n        /* \"Campaign.sol\":5041:5064  _requests.push(summary) */\n      swap1\n      dup1\n      0x01\n      dup2\n      sload\n      add\n      dup1\n      dup3\n      sstore\n      dup1\n      swap2\n      pop\n      pop\n      0x01\n      swap1\n      sub\n      swap1\n      0x00\n      mstore\n      keccak256(0x00, 0x20)\n      swap1\n      0x03\n      mul\n      add\n      0x00\n      swap1\n      swap2\n      swap1\n      swap2\n      swap1\n      swap2\n      pop\n      0x00\n      dup3\n      add\n      mload\n      dup2\n      0x00\n      add\n      swap1\n      dup2\n      tag_205\n      swap2\n      swap1\n      tag_201\n      jump\t// in\n    tag_205:\n      pop\n      0x20\n      dup3\n      add\n      mload\n      dup2\n      0x01\n      add\n      swap1\n      dup2\n      tag_206\n      swap2\n      swap1\n      tag_201\n      jump\t// in\n    tag_206:\n      pop\n      0x40\n      dup3\n      add\n      mload\n      dup2\n      0x02\n      add\n      sstore\n      pop\n      pop\n        /* \"Campaign.sol\":4232:5071  {... */\n      pop\n      pop\n        /* \"Campaign.sol\":4070:5071  function triggerCampaignRequest(string memory name, string memory description, uint amount, uint requiredApprovals, address payable receiver) restricted external {... */\n      pop\n      pop\n      pop\n      pop\n      pop\n      jump\t// out\n        /* \"Campaign.sol\":2500:2590  function getManager() external view returns (address)... */\n    tag_84:\n        /* \"Campaign.sol\":2545:2552  address */\n      0x00\n        /* \"Campaign.sol\":2575:2583  _manager */\n      0x02\n      0x00\n      swap1\n      sload\n      swap1\n      0x0100\n      exp\n      swap1\n      div\n      0xffffffffffffffffffffffffffffffffffffffff\n      and\n        /* \"Campaign.sol\":2568:2583  return _manager */\n      swap1\n      pop\n        /* \"Campaign.sol\":2500:2590  function getManager() external view returns (address)... */\n      swap1\n      jump\t// out\n        /* \"Campaign.sol\":3780:3995  function contribute() public payable {... */\n    tag_88:\n        /* \"Campaign.sol\":3848:3868  _minimumContribution */\n      sload(0x05)\n        /* \"Campaign.sol\":3835:3844  msg.value */\n      callvalue\n        /* \"Campaign.sol\":3835:3868  msg.value >= _minimumContribution */\n      lt\n      iszero\n        /* \"Campaign.sol\":3827:3869  require(msg.value >= _minimumContribution) */\n      tag_209\n      jumpi\n      0x00\n      dup1\n      revert\n    tag_209:\n        /* \"Campaign.sol\":3913:3914  0 */\n      0x00\n        /* \"Campaign.sol\":3888:3897  approvers */\n      0x03\n        /* \"Campaign.sol\":3888:3909  approvers[msg.sender] */\n      0x00\n        /* \"Campaign.sol\":3898:3908  msg.sender */\n      caller\n        /* \"Campaign.sol\":3888:3909  approvers[msg.sender] */\n      0xffffffffffffffffffffffffffffffffffffffff\n      and\n      0xffffffffffffffffffffffffffffffffffffffff\n      and\n      dup2\n      mstore\n      0x20\n      add\n      swap1\n      dup2\n      mstore\n      0x20\n      add\n      0x00\n      keccak256\n      sload\n        /* \"Campaign.sol\":3888:3914  approvers[msg.sender] == 0 */\n      eq\n        /* \"Campaign.sol\":3880:3915  require(approvers[msg.sender] == 0) */\n      tag_210\n      jumpi\n      0x00\n      dup1\n      revert\n    tag_210:\n        /* \"Campaign.sol\":3950:3959  msg.value */\n      callvalue\n        /* \"Campaign.sol\":3925:3934  approvers */\n      0x03\n        /* \"Campaign.sol\":3925:3946  approvers[msg.sender] */\n      0x00\n        /* \"Campaign.sol\":3935:3945  msg.sender */\n      caller\n        /* \"Campaign.sol\":3925:3946  approvers[msg.sender] */\n      0xffffffffffffffffffffffffffffffffffffffff\n      and\n      0xffffffffffffffffffffffffffffffffffffffff\n      and\n      dup2\n      mstore\n      0x20\n      add\n      swap1\n      dup2\n      mstore\n      0x20\n      add\n      0x00\n      keccak256\n        /* \"Campaign.sol\":3925:3960  approvers[msg.sender] = (msg.value) */\n      dup2\n      swap1\n      sstore\n      pop\n        /* \"Campaign.sol\":3970:3985  _approversCount */\n      0x04\n      0x00\n        /* \"Campaign.sol\":3970:3987  _approversCount++ */\n      dup2\n      sload\n      dup1\n      swap3\n      swap2\n      swap1\n      tag_211\n      swap1\n      tag_127\n      jump\t// in\n    tag_211:\n      swap2\n      swap1\n      pop\n      sstore\n      pop\n        /* \"Campaign.sol\":3780:3995  function contribute() public payable {... */\n      jump\t// out\n        /* \"Campaign.sol\":5823:6232  function submitRequest(string memory reqName) restricted external {... */\n    tag_92:\n        /* \"Campaign.sol\":6988:6996  _manager */\n      0x02\n      0x00\n      swap1\n      sload\n      swap1\n      0x0100\n      exp\n      swap1\n      div\n      0xffffffffffffffffffffffffffffffffffffffff\n      and\n        /* \"Campaign.sol\":6974:6996  msg.sender == _manager */\n      0xffffffffffffffffffffffffffffffffffffffff\n      and\n        /* \"Campaign.sol\":6974:6984  msg.sender */\n      caller\n        /* \"Campaign.sol\":6974:6996  msg.sender == _manager */\n      0xffffffffffffffffffffffffffffffffffffffff\n      and\n      eq\n        /* \"Campaign.sol\":6966:6997  require(msg.sender == _manager) */\n      tag_213\n      jumpi\n      0x00\n      dup1\n      revert\n    tag_213:\n        /* \"Campaign.sol\":5899:5918  Request storage req */\n      0x00\n        /* \"Campaign.sol\":5921:5929  requests */\n      0x07\n        /* \"Campaign.sol\":5930:5937  reqName */\n      dup3\n        /* \"Campaign.sol\":5921:5938  requests[reqName] */\n      mload(0x40)\n      tag_215\n      swap2\n      swap1\n      tag_116\n      jump\t// in\n    tag_215:\n      swap1\n      dup2\n      mstore\n      0x20\n      add\n      mload(0x40)\n      dup1\n      swap2\n      sub\n      swap1\n      keccak256\n        /* \"Campaign.sol\":5899:5938  Request storage req = requests[reqName] */\n      swap1\n      pop\n        /* \"Campaign.sol\":5981:5982  0 */\n      0x00\n        /* \"Campaign.sol\":5962:5965  req */\n      dup2\n        /* \"Campaign.sol\":5962:5970  req.name */\n      0x00\n      add\n        /* \"Campaign.sol\":5956:5978  bytes(req.name).length */\n      dup1\n      sload\n      tag_216\n      swap1\n      tag_108\n      jump\t// in\n    tag_216:\n      swap1\n      pop\n        /* \"Campaign.sol\":5956:5982  bytes(req.name).length > 0 */\n      gt\n        /* \"Campaign.sol\":5948:5983  require(bytes(req.name).length > 0) */\n      tag_217\n      jumpi\n      0x00\n      dup1\n      revert\n    tag_217:\n        /* \"Campaign.sol\":6033:6040  reqName */\n      dup2\n        /* \"Campaign.sol\":6027:6048  bytes(reqName).length */\n      mload\n        /* \"Campaign.sol\":6007:6010  req */\n      dup2\n        /* \"Campaign.sol\":6007:6015  req.name */\n      0x00\n      add\n        /* \"Campaign.sol\":6001:6023  bytes(req.name).length */\n      dup1\n      sload\n      tag_218\n      swap1\n      tag_108\n      jump\t// in\n    tag_218:\n      swap1\n      pop\n        /* \"Campaign.sol\":6001:6048  bytes(req.name).length == bytes(reqName).length */\n      eq\n        /* \"Campaign.sol\":5993:6049  require(bytes(req.name).length == bytes(reqName).length) */\n      tag_219\n      jumpi\n      0x00\n      dup1\n      revert\n    tag_219:\n        /* \"Campaign.sol\":6067:6070  req */\n      dup1\n        /* \"Campaign.sol\":6067:6080  req.canSubmit */\n      0x07\n      add\n      0x00\n      swap1\n      sload\n      swap1\n      0x0100\n      exp\n      swap1\n      div\n      0xff\n      and\n        /* \"Campaign.sol\":6067:6097  req.canSubmit && !req.complete */\n      dup1\n      iszero\n      tag_220\n      jumpi\n      pop\n        /* \"Campaign.sol\":6085:6088  req */\n      dup1\n        /* \"Campaign.sol\":6085:6097  req.complete */\n      0x07\n      add\n      0x01\n      swap1\n      sload\n      swap1\n      0x0100\n      exp\n      swap1\n      div\n      0xff\n      and\n        /* \"Campaign.sol\":6084:6097  !req.complete */\n      iszero\n        /* \"Campaign.sol\":6067:6097  req.canSubmit && !req.complete */\n    tag_220:\n        /* \"Campaign.sol\":6059:6098  require(req.canSubmit && !req.complete) */\n      tag_221\n      jumpi\n      0x00\n      dup1\n      revert\n    tag_221:\n        /* \"Campaign.sol\":6141:6144  req */\n      dup1\n        /* \"Campaign.sol\":6141:6151  req.amount */\n      0x02\n      add\n      sload\n        /* \"Campaign.sol\":6116:6137  address(this).balance */\n      selfbalance\n        /* \"Campaign.sol\":6116:6151  address(this).balance >= req.amount */\n      lt\n      iszero\n        /* \"Campaign.sol\":6108:6152  require(address(this).balance >= req.amount) */\n      tag_222\n      jumpi\n      0x00\n      dup1\n      revert\n    tag_222:\n        /* \"Campaign.sol\":6162:6165  req */\n      dup1\n        /* \"Campaign.sol\":6162:6174  req.receiver */\n      0x03\n      add\n      0x00\n      swap1\n      sload\n      swap1\n      0x0100\n      exp\n      swap1\n      div\n      0xffffffffffffffffffffffffffffffffffffffff\n      and\n        /* \"Campaign.sol\":6162:6183  req.receiver.transfer */\n      0xffffffffffffffffffffffffffffffffffffffff\n      and\n        /* \"Campaign.sol\":6162:6195  req.receiver.transfer(req.amount) */\n      0x08fc\n        /* \"Campaign.sol\":6184:6187  req */\n      dup3\n        /* \"Campaign.sol\":6184:6194  req.amount */\n      0x02\n      add\n      sload\n        /* \"Campaign.sol\":6162:6195  req.receiver.transfer(req.amount) */\n      swap1\n      dup2\n      iszero\n      mul\n      swap1\n      mload(0x40)\n      0x00\n      mload(0x40)\n      dup1\n      dup4\n      sub\n      dup2\n      dup6\n      dup9\n      dup9\n      call\n      swap4\n      pop\n      pop\n      pop\n      pop\n      iszero\n      dup1\n      iszero\n      tag_224\n      jumpi\n      returndatasize\n      0x00\n      dup1\n      returndatacopy\n      revert(0x00, returndatasize)\n    tag_224:\n      pop\n        /* \"Campaign.sol\":6221:6225  true */\n      0x01\n        /* \"Campaign.sol\":6206:6209  req */\n      dup2\n        /* \"Campaign.sol\":6206:6218  req.complete */\n      0x07\n      add\n      0x01\n        /* \"Campaign.sol\":6206:6225  req.complete = true */\n      0x0100\n      exp\n      dup2\n      sload\n      dup2\n      0xff\n      mul\n      not\n      and\n      swap1\n      dup4\n      iszero\n      iszero\n      mul\n      or\n      swap1\n      sstore\n      pop\n        /* \"Campaign.sol\":5889:6232  {... */\n      pop\n        /* \"Campaign.sol\":5823:6232  function submitRequest(string memory reqName) restricted external {... */\n      pop\n      jump\t// out\n        /* \"Campaign.sol\":6238:6659  function claimRequest(string memory reqName, string memory description) external... */\n    tag_97:\n        /* \"Campaign.sol\":6365:6366  0 */\n      0x00\n        /* \"Campaign.sol\":6341:6350  approvers */\n      0x03\n        /* \"Campaign.sol\":6341:6362  approvers[msg.sender] */\n      0x00\n        /* \"Campaign.sol\":6351:6361  msg.sender */\n      caller\n        /* \"Campaign.sol\":6341:6362  approvers[msg.sender] */\n      0xffffffffffffffffffffffffffffffffffffffff\n      and\n      0xffffffffffffffffffffffffffffffffffffffff\n      and\n      dup2\n      mstore\n      0x20\n      add\n      swap1\n      dup2\n      mstore\n      0x20\n      add\n      0x00\n      keccak256\n      sload\n        /* \"Campaign.sol\":6341:6366  approvers[msg.sender] > 0 */\n      gt\n        /* \"Campaign.sol\":6333:6367  require(approvers[msg.sender] > 0) */\n      tag_226\n      jumpi\n      0x00\n      dup1\n      revert\n    tag_226:\n        /* \"Campaign.sol\":6425:6426  0 */\n      0x00\n        /* \"Campaign.sol\":6391:6399  requests */\n      0x07\n        /* \"Campaign.sol\":6400:6407  reqName */\n      dup4\n        /* \"Campaign.sol\":6391:6408  requests[reqName] */\n      mload(0x40)\n      tag_227\n      swap2\n      swap1\n      tag_116\n      jump\t// in\n    tag_227:\n      swap1\n      dup2\n      mstore\n      0x20\n      add\n      mload(0x40)\n      dup1\n      swap2\n      sub\n      swap1\n      keccak256\n        /* \"Campaign.sol\":6391:6413  requests[reqName].name */\n      0x00\n      add\n        /* \"Campaign.sol\":6385:6421  bytes(requests[reqName].name).length */\n      dup1\n      sload\n      tag_228\n      swap1\n      tag_108\n      jump\t// in\n    tag_228:\n      swap1\n      pop\n        /* \"Campaign.sol\":6385:6426  bytes(requests[reqName].name).length != 0 */\n      sub\n        /* \"Campaign.sol\":6377:6427  require(bytes(requests[reqName].name).length != 0) */\n      tag_229\n      jumpi\n      0x00\n      dup1\n      revert\n    tag_229:\n        /* \"Campaign.sol\":6437:6462  RequestClaim memory claim */\n      0x00\n        /* \"Campaign.sol\":6465:6564  RequestClaim({... */\n      mload(0x40)\n      dup1\n      0x40\n      add\n      0x40\n      mstore\n      dup1\n        /* \"Campaign.sol\":6505:6515  msg.sender */\n      caller\n        /* \"Campaign.sol\":6465:6564  RequestClaim({... */\n      0xffffffffffffffffffffffffffffffffffffffff\n      and\n      dup2\n      mstore\n      0x20\n      add\n        /* \"Campaign.sol\":6542:6553  description */\n      dup4\n        /* \"Campaign.sol\":6465:6564  RequestClaim({... */\n      dup2\n      mstore\n      pop\n        /* \"Campaign.sol\":6437:6564  RequestClaim memory claim = RequestClaim({... */\n      swap1\n      pop\n        /* \"Campaign.sol\":6575:6583  requests */\n      0x07\n        /* \"Campaign.sol\":6584:6591  reqName */\n      dup4\n        /* \"Campaign.sol\":6575:6592  requests[reqName] */\n      mload(0x40)\n      tag_230\n      swap2\n      swap1\n      tag_116\n      jump\t// in\n    tag_230:\n      swap1\n      dup2\n      mstore\n      0x20\n      add\n      mload(0x40)\n      dup1\n      swap2\n      sub\n      swap1\n      keccak256\n        /* \"Campaign.sol\":6575:6599  requests[reqName].claims */\n      0x09\n      add\n        /* \"Campaign.sol\":6605:6610  claim */\n      dup2\n        /* \"Campaign.sol\":6575:6611  requests[reqName].claims.push(claim) */\n      swap1\n      dup1\n      0x01\n      dup2\n      sload\n      add\n      dup1\n      dup3\n      sstore\n      dup1\n      swap2\n      pop\n      pop\n      0x01\n      swap1\n      sub\n      swap1\n      0x00\n      mstore\n      keccak256(0x00, 0x20)\n      swap1\n      0x02\n      mul\n      add\n      0x00\n      swap1\n      swap2\n      swap1\n      swap2\n      swap1\n      swap2\n      pop\n      0x00\n      dup3\n      add\n      mload\n      dup2\n      0x00\n      add\n      exp(0x0100, 0x00)\n      dup2\n      sload\n      dup2\n      0xffffffffffffffffffffffffffffffffffffffff\n      mul\n      not\n      and\n      swap1\n      dup4\n      0xffffffffffffffffffffffffffffffffffffffff\n      and\n      mul\n      or\n      swap1\n      sstore\n      pop\n      0x20\n      dup3\n      add\n      mload\n      dup2\n      0x01\n      add\n      swap1\n      dup2\n      tag_232\n      swap2\n      swap1\n      tag_201\n      jump\t// in\n    tag_232:\n      pop\n      pop\n      pop\n        /* \"Campaign.sol\":6621:6629  requests */\n      0x07\n        /* \"Campaign.sol\":6630:6637  reqName */\n      dup4\n        /* \"Campaign.sol\":6621:6638  requests[reqName] */\n      mload(0x40)\n      tag_233\n      swap2\n      swap1\n      tag_116\n      jump\t// in\n    tag_233:\n      swap1\n      dup2\n      mstore\n      0x20\n      add\n      mload(0x40)\n      dup1\n      swap2\n      sub\n      swap1\n      keccak256\n        /* \"Campaign.sol\":6621:6650  requests[reqName].claimsCount */\n      0x06\n      add\n      0x00\n        /* \"Campaign.sol\":6621:6652  requests[reqName].claimsCount++ */\n      dup2\n      sload\n      dup1\n      swap3\n      swap2\n      swap1\n      tag_234\n      swap1\n      tag_127\n      jump\t// in\n    tag_234:\n      swap2\n      swap1\n      pop\n      sstore\n      pop\n        /* \"Campaign.sol\":6323:6659  {... */\n      pop\n        /* \"Campaign.sol\":6238:6659  function claimRequest(string memory reqName, string memory description) external... */\n      pop\n      pop\n      jump\t// out\n        /* \"Campaign.sol\":2911:3016  function getMinimumContribution() external view returns(uint){... */\n    tag_100:\n        /* \"Campaign.sol\":2967:2971  uint */\n      0x00\n        /* \"Campaign.sol\":2989:3009  _minimumContribution */\n      sload(0x05)\n        /* \"Campaign.sol\":2982:3009  return _minimumContribution */\n      swap1\n      pop\n        /* \"Campaign.sol\":2911:3016  function getMinimumContribution() external view returns(uint){... */\n      swap1\n      jump\t// out\n        /* \"Campaign.sol\":2808:2906  function getContributorsCount() external view returns(uint){... */\n    tag_104:\n        /* \"Campaign.sol\":2862:2866  uint */\n      0x00\n        /* \"Campaign.sol\":2884:2899  _approversCount */\n      sload(0x04)\n        /* \"Campaign.sol\":2877:2899  return _approversCount */\n      swap1\n      pop\n        /* \"Campaign.sol\":2808:2906  function getContributorsCount() external view returns(uint){... */\n      swap1\n      jump\t// out\n    tag_131:\n      mload(0x40)\n      dup1\n      0xe0\n      add\n      0x40\n      mstore\n      dup1\n      and(0xffffffffffffffffffffffffffffffffffffffff, 0x00)\n      dup2\n      mstore\n      0x20\n      add\n      0x60\n      dup2\n      mstore\n      0x20\n      add\n      0x60\n      dup2\n      mstore\n      0x20\n      add\n      0x00\n      dup2\n      mstore\n      0x20\n      add\n      0x00\n      dup2\n      mstore\n      0x20\n      add\n      0x00\n      dup2\n      mstore\n      0x20\n      add\n      0x00\n      dup2\n      mstore\n      pop\n      swap1\n      jump\t// out\n        /* \"#utility.yul\":7:82   */\n    tag_237:\n        /* \"#utility.yul\":40:46   */\n      0x00\n        /* \"#utility.yul\":73:75   */\n      0x40\n        /* \"#utility.yul\":67:76   */\n      mload\n        /* \"#utility.yul\":57:76   */\n      swap1\n      pop\n        /* \"#utility.yul\":7:82   */\n      swap1\n      jump\t// out\n        /* \"#utility.yul\":88:205   */\n    tag_238:\n        /* \"#utility.yul\":197:198   */\n      0x00\n        /* \"#utility.yul\":194:195   */\n      dup1\n        /* \"#utility.yul\":187:199   */\n      revert\n        /* \"#utility.yul\":211:328   */\n    tag_239:\n        /* \"#utility.yul\":320:321   */\n      0x00\n        /* \"#utility.yul\":317:318   */\n      dup1\n        /* \"#utility.yul\":310:322   */\n      revert\n        /* \"#utility.yul\":334:460   */\n    tag_240:\n        /* \"#utility.yul\":371:378   */\n      0x00\n        /* \"#utility.yul\":411:453   */\n      0xffffffffffffffffffffffffffffffffffffffff\n        /* \"#utility.yul\":404:409   */\n      dup3\n        /* \"#utility.yul\":400:454   */\n      and\n        /* \"#utility.yul\":389:454   */\n      swap1\n      pop\n        /* \"#utility.yul\":334:460   */\n      swap2\n      swap1\n      pop\n      jump\t// out\n        /* \"#utility.yul\":466:562   */\n    tag_241:\n        /* \"#utility.yul\":503:510   */\n      0x00\n        /* \"#utility.yul\":532:556   */\n      tag_315\n        /* \"#utility.yul\":550:555   */\n      dup3\n        /* \"#utility.yul\":532:556   */\n      tag_240\n      jump\t// in\n    tag_315:\n        /* \"#utility.yul\":521:556   */\n      swap1\n      pop\n        /* \"#utility.yul\":466:562   */\n      swap2\n      swap1\n      pop\n      jump\t// out\n        /* \"#utility.yul\":568:690   */\n    tag_242:\n        /* \"#utility.yul\":641:665   */\n      tag_317\n        /* \"#utility.yul\":659:664   */\n      dup2\n        /* \"#utility.yul\":641:665   */\n      tag_241\n      jump\t// in\n    tag_317:\n        /* \"#utility.yul\":634:639   */\n      dup2\n        /* \"#utility.yul\":631:666   */\n      eq\n        /* \"#utility.yul\":621:684   */\n      tag_318\n      jumpi\n        /* \"#utility.yul\":680:681   */\n      0x00\n        /* \"#utility.yul\":677:678   */\n      dup1\n        /* \"#utility.yul\":670:682   */\n      revert\n        /* \"#utility.yul\":621:684   */\n    tag_318:\n        /* \"#utility.yul\":568:690   */\n      pop\n      jump\t// out\n        /* \"#utility.yul\":696:835   */\n    tag_243:\n        /* \"#utility.yul\":742:747   */\n      0x00\n        /* \"#utility.yul\":780:786   */\n      dup2\n        /* \"#utility.yul\":767:787   */\n      calldataload\n        /* \"#utility.yul\":758:787   */\n      swap1\n      pop\n        /* \"#utility.yul\":796:829   */\n      tag_320\n        /* \"#utility.yul\":823:828   */\n      dup2\n        /* \"#utility.yul\":796:829   */\n      tag_242\n      jump\t// in\n    tag_320:\n        /* \"#utility.yul\":696:835   */\n      swap3\n      swap2\n      pop\n      pop\n      jump\t// out\n        /* \"#utility.yul\":841:1170   */\n    tag_26:\n        /* \"#utility.yul\":900:906   */\n      0x00\n        /* \"#utility.yul\":949:951   */\n      0x20\n        /* \"#utility.yul\":937:946   */\n      dup3\n        /* \"#utility.yul\":928:935   */\n      dup5\n        /* \"#utility.yul\":924:947   */\n      sub\n        /* \"#utility.yul\":920:952   */\n      slt\n        /* \"#utility.yul\":917:1036   */\n      iszero\n      tag_322\n      jumpi\n        /* \"#utility.yul\":955:1034   */\n      tag_323\n      tag_238\n      jump\t// in\n    tag_323:\n        /* \"#utility.yul\":917:1036   */\n    tag_322:\n        /* \"#utility.yul\":1075:1076   */\n      0x00\n        /* \"#utility.yul\":1100:1153   */\n      tag_324\n        /* \"#utility.yul\":1145:1152   */\n      dup5\n        /* \"#utility.yul\":1136:1142   */\n      dup3\n        /* \"#utility.yul\":1125:1134   */\n      dup6\n        /* \"#utility.yul\":1121:1143   */\n      add\n        /* \"#utility.yul\":1100:1153   */\n      tag_243\n      jump\t// in\n    tag_324:\n        /* \"#utility.yul\":1090:1153   */\n      swap2\n      pop\n        /* \"#utility.yul\":1046:1163   */\n      pop\n        /* \"#utility.yul\":841:1170   */\n      swap3\n      swap2\n      pop\n      pop\n      jump\t// out\n        /* \"#utility.yul\":1176:1253   */\n    tag_244:\n        /* \"#utility.yul\":1213:1220   */\n      0x00\n        /* \"#utility.yul\":1242:1247   */\n      dup2\n        /* \"#utility.yul\":1231:1247   */\n      swap1\n      pop\n        /* \"#utility.yul\":1176:1253   */\n      swap2\n      swap1\n      pop\n      jump\t// out\n        /* \"#utility.yul\":1259:1377   */\n    tag_245:\n        /* \"#utility.yul\":1346:1370   */\n      tag_327\n        /* \"#utility.yul\":1364:1369   */\n      dup2\n        /* \"#utility.yul\":1346:1370   */\n      tag_244\n      jump\t// in\n    tag_327:\n        /* \"#utility.yul\":1341:1344   */\n      dup3\n        /* \"#utility.yul\":1334:1371   */\n      mstore\n        /* \"#utility.yul\":1259:1377   */\n      pop\n      pop\n      jump\t// out\n        /* \"#utility.yul\":1383:1605   */\n    tag_29:\n        /* \"#utility.yul\":1476:1480   */\n      0x00\n        /* \"#utility.yul\":1514:1516   */\n      0x20\n        /* \"#utility.yul\":1503:1512   */\n      dup3\n        /* \"#utility.yul\":1499:1517   */\n      add\n        /* \"#utility.yul\":1491:1517   */\n      swap1\n      pop\n        /* \"#utility.yul\":1527:1598   */\n      tag_329\n        /* \"#utility.yul\":1595:1596   */\n      0x00\n        /* \"#utility.yul\":1584:1593   */\n      dup4\n        /* \"#utility.yul\":1580:1597   */\n      add\n        /* \"#utility.yul\":1571:1577   */\n      dup5\n        /* \"#utility.yul\":1527:1598   */\n      tag_245\n      jump\t// in\n    tag_329:\n        /* \"#utility.yul\":1383:1605   */\n      swap3\n      swap2\n      pop\n      pop\n      jump\t// out\n        /* \"#utility.yul\":1611:1710   */\n    tag_246:\n        /* \"#utility.yul\":1663:1669   */\n      0x00\n        /* \"#utility.yul\":1697:1702   */\n      dup2\n        /* \"#utility.yul\":1691:1703   */\n      mload\n        /* \"#utility.yul\":1681:1703   */\n      swap1\n      pop\n        /* \"#utility.yul\":1611:1710   */\n      swap2\n      swap1\n      pop\n      jump\t// out\n        /* \"#utility.yul\":1716:1885   */\n    tag_247:\n        /* \"#utility.yul\":1800:1811   */\n      0x00\n        /* \"#utility.yul\":1834:1840   */\n      dup3\n        /* \"#utility.yul\":1829:1832   */\n      dup3\n        /* \"#utility.yul\":1822:1841   */\n      mstore\n        /* \"#utility.yul\":1874:1878   */\n      0x20\n        /* \"#utility.yul\":1869:1872   */\n      dup3\n        /* \"#utility.yul\":1865:1879   */\n      add\n        /* \"#utility.yul\":1850:1879   */\n      swap1\n      pop\n        /* \"#utility.yul\":1716:1885   */\n      swap3\n      swap2\n      pop\n      pop\n      jump\t// out\n        /* \"#utility.yul\":1891:2137   */\n    tag_248:\n        /* \"#utility.yul\":1972:1973   */\n      0x00\n        /* \"#utility.yul\":1982:2095   */\n    tag_333:\n        /* \"#utility.yul\":1996:2002   */\n      dup4\n        /* \"#utility.yul\":1993:1994   */\n      dup2\n        /* \"#utility.yul\":1990:2003   */\n      lt\n        /* \"#utility.yul\":1982:2095   */\n      iszero\n      tag_335\n      jumpi\n        /* \"#utility.yul\":2081:2082   */\n      dup1\n        /* \"#utility.yul\":2076:2079   */\n      dup3\n        /* \"#utility.yul\":2072:2083   */\n      add\n        /* \"#utility.yul\":2066:2084   */\n      mload\n        /* \"#utility.yul\":2062:2063   */\n      dup2\n        /* \"#utility.yul\":2057:2060   */\n      dup5\n        /* \"#utility.yul\":2053:2064   */\n      add\n        /* \"#utility.yul\":2046:2085   */\n      mstore\n        /* \"#utility.yul\":2018:2020   */\n      0x20\n        /* \"#utility.yul\":2015:2016   */\n      dup2\n        /* \"#utility.yul\":2011:2021   */\n      add\n        /* \"#utility.yul\":2006:2021   */\n      swap1\n      pop\n        /* \"#utility.yul\":1982:2095   */\n      jump(tag_333)\n    tag_335:\n        /* \"#utility.yul\":2129:2130   */\n      0x00\n        /* \"#utility.yul\":2120:2126   */\n      dup5\n        /* \"#utility.yul\":2115:2118   */\n      dup5\n        /* \"#utility.yul\":2111:2127   */\n      add\n        /* \"#utility.yul\":2104:2131   */\n      mstore\n        /* \"#utility.yul\":1953:2137   */\n      pop\n        /* \"#utility.yul\":1891:2137   */\n      pop\n      pop\n      pop\n      jump\t// out\n        /* \"#utility.yul\":2143:2245   */\n    tag_249:\n        /* \"#utility.yul\":2184:2190   */\n      0x00\n        /* \"#utility.yul\":2235:2237   */\n      0x1f\n        /* \"#utility.yul\":2231:2238   */\n      not\n        /* \"#utility.yul\":2226:2228   */\n      0x1f\n        /* \"#utility.yul\":2219:2224   */\n      dup4\n        /* \"#utility.yul\":2215:2229   */\n      add\n        /* \"#utility.yul\":2211:2239   */\n      and\n        /* \"#utility.yul\":2201:2239   */\n      swap1\n      pop\n        /* \"#utility.yul\":2143:2245   */\n      swap2\n      swap1\n      pop\n      jump\t// out\n        /* \"#utility.yul\":2251:2628   */\n    tag_250:\n        /* \"#utility.yul\":2339:2342   */\n      0x00\n        /* \"#utility.yul\":2367:2406   */\n      tag_338\n        /* \"#utility.yul\":2400:2405   */\n      dup3\n        /* \"#utility.yul\":2367:2406   */\n      tag_246\n      jump\t// in\n    tag_338:\n        /* \"#utility.yul\":2422:2493   */\n      tag_339\n        /* \"#utility.yul\":2486:2492   */\n      dup2\n        /* \"#utility.yul\":2481:2484   */\n      dup6\n        /* \"#utility.yul\":2422:2493   */\n      tag_247\n      jump\t// in\n    tag_339:\n        /* \"#utility.yul\":2415:2493   */\n      swap4\n      pop\n        /* \"#utility.yul\":2502:2567   */\n      tag_340\n        /* \"#utility.yul\":2560:2566   */\n      dup2\n        /* \"#utility.yul\":2555:2558   */\n      dup6\n        /* \"#utility.yul\":2548:2552   */\n      0x20\n        /* \"#utility.yul\":2541:2546   */\n      dup7\n        /* \"#utility.yul\":2537:2553   */\n      add\n        /* \"#utility.yul\":2502:2567   */\n      tag_248\n      jump\t// in\n    tag_340:\n        /* \"#utility.yul\":2592:2621   */\n      tag_341\n        /* \"#utility.yul\":2614:2620   */\n      dup2\n        /* \"#utility.yul\":2592:2621   */\n      tag_249\n      jump\t// in\n    tag_341:\n        /* \"#utility.yul\":2587:2590   */\n      dup5\n        /* \"#utility.yul\":2583:2622   */\n      add\n        /* \"#utility.yul\":2576:2622   */\n      swap2\n      pop\n        /* \"#utility.yul\":2343:2628   */\n      pop\n        /* \"#utility.yul\":2251:2628   */\n      swap3\n      swap2\n      pop\n      pop\n      jump\t// out\n        /* \"#utility.yul\":2634:2947   */\n    tag_34:\n        /* \"#utility.yul\":2747:2751   */\n      0x00\n        /* \"#utility.yul\":2785:2787   */\n      0x20\n        /* \"#utility.yul\":2774:2783   */\n      dup3\n        /* \"#utility.yul\":2770:2788   */\n      add\n        /* \"#utility.yul\":2762:2788   */\n      swap1\n      pop\n        /* \"#utility.yul\":2834:2843   */\n      dup2\n        /* \"#utility.yul\":2828:2832   */\n      dup2\n        /* \"#utility.yul\":2824:2844   */\n      sub\n        /* \"#utility.yul\":2820:2821   */\n      0x00\n        /* \"#utility.yul\":2809:2818   */\n      dup4\n        /* \"#utility.yul\":2805:2822   */\n      add\n        /* \"#utility.yul\":2798:2845   */\n      mstore\n        /* \"#utility.yul\":2862:2940   */\n      tag_343\n        /* \"#utility.yul\":2935:2939   */\n      dup2\n        /* \"#utility.yul\":2926:2932   */\n      dup5\n        /* \"#utility.yul\":2862:2940   */\n      tag_250\n      jump\t// in\n    tag_343:\n        /* \"#utility.yul\":2854:2940   */\n      swap1\n      pop\n        /* \"#utility.yul\":2634:2947   */\n      swap3\n      swap2\n      pop\n      pop\n      jump\t// out\n        /* \"#utility.yul\":2953:3070   */\n    tag_251:\n        /* \"#utility.yul\":3062:3063   */\n      0x00\n        /* \"#utility.yul\":3059:3060   */\n      dup1\n        /* \"#utility.yul\":3052:3064   */\n      revert\n        /* \"#utility.yul\":3076:3193   */\n    tag_252:\n        /* \"#utility.yul\":3185:3186   */\n      0x00\n        /* \"#utility.yul\":3182:3183   */\n      dup1\n        /* \"#utility.yul\":3175:3187   */\n      revert\n        /* \"#utility.yul\":3199:3379   */\n    tag_253:\n        /* \"#utility.yul\":3247:3324   */\n      0x4e487b7100000000000000000000000000000000000000000000000000000000\n        /* \"#utility.yul\":3244:3245   */\n      0x00\n        /* \"#utility.yul\":3237:3325   */\n      mstore\n        /* \"#utility.yul\":3344:3348   */\n      0x41\n        /* \"#utility.yul\":3341:3342   */\n      0x04\n        /* \"#utility.yul\":3334:3349   */\n      mstore\n        /* \"#utility.yul\":3368:3372   */\n      0x24\n        /* \"#utility.yul\":3365:3366   */\n      0x00\n        /* \"#utility.yul\":3358:3373   */\n      revert\n        /* \"#utility.yul\":3385:3666   */\n    tag_254:\n        /* \"#utility.yul\":3468:3495   */\n      tag_348\n        /* \"#utility.yul\":3490:3494   */\n      dup3\n        /* \"#utility.yul\":3468:3495   */\n      tag_249\n      jump\t// in\n    tag_348:\n        /* \"#utility.yul\":3460:3466   */\n      dup2\n        /* \"#utility.yul\":3456:3496   */\n      add\n        /* \"#utility.yul\":3598:3604   */\n      dup2\n        /* \"#utility.yul\":3586:3596   */\n      dup2\n        /* \"#utility.yul\":3583:3605   */\n      lt\n        /* \"#utility.yul\":3562:3580   */\n      0xffffffffffffffff\n        /* \"#utility.yul\":3550:3560   */\n      dup3\n        /* \"#utility.yul\":3547:3581   */\n      gt\n        /* \"#utility.yul\":3544:3606   */\n      or\n        /* \"#utility.yul\":3541:3629   */\n      iszero\n      tag_349\n      jumpi\n        /* \"#utility.yul\":3609:3627   */\n      tag_350\n      tag_253\n      jump\t// in\n    tag_350:\n        /* \"#utility.yul\":3541:3629   */\n    tag_349:\n        /* \"#utility.yul\":3649:3659   */\n      dup1\n        /* \"#utility.yul\":3645:3647   */\n      0x40\n        /* \"#utility.yul\":3638:3660   */\n      mstore\n        /* \"#utility.yul\":3428:3666   */\n      pop\n        /* \"#utility.yul\":3385:3666   */\n      pop\n      pop\n      jump\t// out\n        /* \"#utility.yul\":3672:3801   */\n    tag_255:\n        /* \"#utility.yul\":3706:3712   */\n      0x00\n        /* \"#utility.yul\":3733:3753   */\n      tag_352\n      tag_237\n      jump\t// in\n    tag_352:\n        /* \"#utility.yul\":3723:3753   */\n      swap1\n      pop\n        /* \"#utility.yul\":3762:3795   */\n      tag_353\n        /* \"#utility.yul\":3790:3794   */\n      dup3\n        /* \"#utility.yul\":3782:3788   */\n      dup3\n        /* \"#utility.yul\":3762:3795   */\n      tag_254\n      jump\t// in\n    tag_353:\n        /* \"#utility.yul\":3672:3801   */\n      swap2\n      swap1\n      pop\n      jump\t// out\n        /* \"#utility.yul\":3807:4115   */\n    tag_256:\n        /* \"#utility.yul\":3869:3873   */\n      0x00\n        /* \"#utility.yul\":3959:3977   */\n      0xffffffffffffffff\n        /* \"#utility.yul\":3951:3957   */\n      dup3\n        /* \"#utility.yul\":3948:3978   */\n      gt\n        /* \"#utility.yul\":3945:4001   */\n      iszero\n      tag_355\n      jumpi\n        /* \"#utility.yul\":3981:3999   */\n      tag_356\n      tag_253\n      jump\t// in\n    tag_356:\n        /* \"#utility.yul\":3945:4001   */\n    tag_355:\n        /* \"#utility.yul\":4019:4048   */\n      tag_357\n        /* \"#utility.yul\":4041:4047   */\n      dup3\n        /* \"#utility.yul\":4019:4048   */\n      tag_249\n      jump\t// in\n    tag_357:\n        /* \"#utility.yul\":4011:4048   */\n      swap1\n      pop\n        /* \"#utility.yul\":4103:4107   */\n      0x20\n        /* \"#utility.yul\":4097:4101   */\n      dup2\n        /* \"#utility.yul\":4093:4108   */\n      add\n        /* \"#utility.yul\":4085:4108   */\n      swap1\n      pop\n        /* \"#utility.yul\":3807:4115   */\n      swap2\n      swap1\n      pop\n      jump\t// out\n        /* \"#utility.yul\":4121:4267   */\n    tag_257:\n        /* \"#utility.yul\":4218:4224   */\n      dup3\n        /* \"#utility.yul\":4213:4216   */\n      dup2\n        /* \"#utility.yul\":4208:4211   */\n      dup4\n        /* \"#utility.yul\":4195:4225   */\n      calldatacopy\n        /* \"#utility.yul\":4259:4260   */\n      0x00\n        /* \"#utility.yul\":4250:4256   */\n      dup4\n        /* \"#utility.yul\":4245:4248   */\n      dup4\n        /* \"#utility.yul\":4241:4257   */\n      add\n        /* \"#utility.yul\":4234:4261   */\n      mstore\n        /* \"#utility.yul\":4121:4267   */\n      pop\n      pop\n      pop\n      jump\t// out\n        /* \"#utility.yul\":4273:4698   */\n    tag_258:\n        /* \"#utility.yul\":4351:4356   */\n      0x00\n        /* \"#utility.yul\":4376:4442   */\n      tag_360\n        /* \"#utility.yul\":4392:4441   */\n      tag_361\n        /* \"#utility.yul\":4434:4440   */\n      dup5\n        /* \"#utility.yul\":4392:4441   */\n      tag_256\n      jump\t// in\n    tag_361:\n        /* \"#utility.yul\":4376:4442   */\n      tag_255\n      jump\t// in\n    tag_360:\n        /* \"#utility.yul\":4367:4442   */\n      swap1\n      pop\n        /* \"#utility.yul\":4465:4471   */\n      dup3\n        /* \"#utility.yul\":4458:4463   */\n      dup2\n        /* \"#utility.yul\":4451:4472   */\n      mstore\n        /* \"#utility.yul\":4503:4507   */\n      0x20\n        /* \"#utility.yul\":4496:4501   */\n      dup2\n        /* \"#utility.yul\":4492:4508   */\n      add\n        /* \"#utility.yul\":4541:4544   */\n      dup5\n        /* \"#utility.yul\":4532:4538   */\n      dup5\n        /* \"#utility.yul\":4527:4530   */\n      dup5\n        /* \"#utility.yul\":4523:4539   */\n      add\n        /* \"#utility.yul\":4520:4545   */\n      gt\n        /* \"#utility.yul\":4517:4629   */\n      iszero\n      tag_362\n      jumpi\n        /* \"#utility.yul\":4548:4627   */\n      tag_363\n      tag_252\n      jump\t// in\n    tag_363:\n        /* \"#utility.yul\":4517:4629   */\n    tag_362:\n        /* \"#utility.yul\":4638:4692   */\n      tag_364\n        /* \"#utility.yul\":4685:4691   */\n      dup5\n        /* \"#utility.yul\":4680:4683   */\n      dup3\n        /* \"#utility.yul\":4675:4678   */\n      dup6\n        /* \"#utility.yul\":4638:4692   */\n      tag_257\n      jump\t// in\n    tag_364:\n        /* \"#utility.yul\":4357:4698   */\n      pop\n        /* \"#utility.yul\":4273:4698   */\n      swap4\n      swap3\n      pop\n      pop\n      pop\n      jump\t// out\n        /* \"#utility.yul\":4718:5058   */\n    tag_259:\n        /* \"#utility.yul\":4774:4779   */\n      0x00\n        /* \"#utility.yul\":4823:4826   */\n      dup3\n        /* \"#utility.yul\":4816:4820   */\n      0x1f\n        /* \"#utility.yul\":4808:4814   */\n      dup4\n        /* \"#utility.yul\":4804:4821   */\n      add\n        /* \"#utility.yul\":4800:4827   */\n      slt\n        /* \"#utility.yul\":4790:4912   */\n      tag_366\n      jumpi\n        /* \"#utility.yul\":4831:4910   */\n      tag_367\n      tag_251\n      jump\t// in\n    tag_367:\n        /* \"#utility.yul\":4790:4912   */\n    tag_366:\n        /* \"#utility.yul\":4948:4954   */\n      dup2\n        /* \"#utility.yul\":4935:4955   */\n      calldataload\n        /* \"#utility.yul\":4973:5052   */\n      tag_368\n        /* \"#utility.yul\":5048:5051   */\n      dup5\n        /* \"#utility.yul\":5040:5046   */\n      dup3\n        /* \"#utility.yul\":5033:5037   */\n      0x20\n        /* \"#utility.yul\":5025:5031   */\n      dup7\n        /* \"#utility.yul\":5021:5038   */\n      add\n        /* \"#utility.yul\":4973:5052   */\n      tag_258\n      jump\t// in\n    tag_368:\n        /* \"#utility.yul\":4964:5052   */\n      swap2\n      pop\n        /* \"#utility.yul\":4780:5058   */\n      pop\n        /* \"#utility.yul\":4718:5058   */\n      swap3\n      swap2\n      pop\n      pop\n      jump\t// out\n        /* \"#utility.yul\":5064:5154   */\n    tag_260:\n        /* \"#utility.yul\":5098:5105   */\n      0x00\n        /* \"#utility.yul\":5141:5146   */\n      dup2\n        /* \"#utility.yul\":5134:5147   */\n      iszero\n        /* \"#utility.yul\":5127:5148   */\n      iszero\n        /* \"#utility.yul\":5116:5148   */\n      swap1\n      pop\n        /* \"#utility.yul\":5064:5154   */\n      swap2\n      swap1\n      pop\n      jump\t// out\n        /* \"#utility.yul\":5160:5276   */\n    tag_261:\n        /* \"#utility.yul\":5230:5251   */\n      tag_371\n        /* \"#utility.yul\":5245:5250   */\n      dup2\n        /* \"#utility.yul\":5230:5251   */\n      tag_260\n      jump\t// in\n    tag_371:\n        /* \"#utility.yul\":5223:5228   */\n      dup2\n        /* \"#utility.yul\":5220:5252   */\n      eq\n        /* \"#utility.yul\":5210:5270   */\n      tag_372\n      jumpi\n        /* \"#utility.yul\":5266:5267   */\n      0x00\n        /* \"#utility.yul\":5263:5264   */\n      dup1\n        /* \"#utility.yul\":5256:5268   */\n      revert\n        /* \"#utility.yul\":5210:5270   */\n    tag_372:\n        /* \"#utility.yul\":5160:5276   */\n      pop\n      jump\t// out\n        /* \"#utility.yul\":5282:5415   */\n    tag_262:\n        /* \"#utility.yul\":5325:5330   */\n      0x00\n        /* \"#utility.yul\":5363:5369   */\n      dup2\n        /* \"#utility.yul\":5350:5370   */\n      calldataload\n        /* \"#utility.yul\":5341:5370   */\n      swap1\n      pop\n        /* \"#utility.yul\":5379:5409   */\n      tag_374\n        /* \"#utility.yul\":5403:5408   */\n      dup2\n        /* \"#utility.yul\":5379:5409   */\n      tag_261\n      jump\t// in\n    tag_374:\n        /* \"#utility.yul\":5282:5415   */\n      swap3\n      swap2\n      pop\n      pop\n      jump\t// out\n        /* \"#utility.yul\":5421:6069   */\n    tag_38:\n        /* \"#utility.yul\":5496:5502   */\n      0x00\n        /* \"#utility.yul\":5504:5510   */\n      dup1\n        /* \"#utility.yul\":5553:5555   */\n      0x40\n        /* \"#utility.yul\":5541:5550   */\n      dup4\n        /* \"#utility.yul\":5532:5539   */\n      dup6\n        /* \"#utility.yul\":5528:5551   */\n      sub\n        /* \"#utility.yul\":5524:5556   */\n      slt\n        /* \"#utility.yul\":5521:5640   */\n      iszero\n      tag_376\n      jumpi\n        /* \"#utility.yul\":5559:5638   */\n      tag_377\n      tag_238\n      jump\t// in\n    tag_377:\n        /* \"#utility.yul\":5521:5640   */\n    tag_376:\n        /* \"#utility.yul\":5707:5708   */\n      0x00\n        /* \"#utility.yul\":5696:5705   */\n      dup4\n        /* \"#utility.yul\":5692:5709   */\n      add\n        /* \"#utility.yul\":5679:5710   */\n      calldataload\n        /* \"#utility.yul\":5737:5755   */\n      0xffffffffffffffff\n        /* \"#utility.yul\":5729:5735   */\n      dup2\n        /* \"#utility.yul\":5726:5756   */\n      gt\n        /* \"#utility.yul\":5723:5840   */\n      iszero\n      tag_378\n      jumpi\n        /* \"#utility.yul\":5759:5838   */\n      tag_379\n      tag_239\n      jump\t// in\n    tag_379:\n        /* \"#utility.yul\":5723:5840   */\n    tag_378:\n        /* \"#utility.yul\":5864:5927   */\n      tag_380\n        /* \"#utility.yul\":5919:5926   */\n      dup6\n        /* \"#utility.yul\":5910:5916   */\n      dup3\n        /* \"#utility.yul\":5899:5908   */\n      dup7\n        /* \"#utility.yul\":5895:5917   */\n      add\n        /* \"#utility.yul\":5864:5927   */\n      tag_259\n      jump\t// in\n    tag_380:\n        /* \"#utility.yul\":5854:5927   */\n      swap3\n      pop\n        /* \"#utility.yul\":5650:5937   */\n      pop\n        /* \"#utility.yul\":5976:5978   */\n      0x20\n        /* \"#utility.yul\":6002:6052   */\n      tag_381\n        /* \"#utility.yul\":6044:6051   */\n      dup6\n        /* \"#utility.yul\":6035:6041   */\n      dup3\n        /* \"#utility.yul\":6024:6033   */\n      dup7\n        /* \"#utility.yul\":6020:6042   */\n      add\n        /* \"#utility.yul\":6002:6052   */\n      tag_262\n      jump\t// in\n    tag_381:\n        /* \"#utility.yul\":5992:6052   */\n      swap2\n      pop\n        /* \"#utility.yul\":5947:6062   */\n      pop\n        /* \"#utility.yul\":5421:6069   */\n      swap3\n      pop\n      swap3\n      swap1\n      pop\n      jump\t// out\n        /* \"#utility.yul\":6075:6183   */\n    tag_263:\n        /* \"#utility.yul\":6152:6176   */\n      tag_383\n        /* \"#utility.yul\":6170:6175   */\n      dup2\n        /* \"#utility.yul\":6152:6176   */\n      tag_241\n      jump\t// in\n    tag_383:\n        /* \"#utility.yul\":6147:6150   */\n      dup3\n        /* \"#utility.yul\":6140:6177   */\n      mstore\n        /* \"#utility.yul\":6075:6183   */\n      pop\n      pop\n      jump\t// out\n        /* \"#utility.yul\":6189:6348   */\n    tag_264:\n        /* \"#utility.yul\":6263:6274   */\n      0x00\n        /* \"#utility.yul\":6297:6303   */\n      dup3\n        /* \"#utility.yul\":6292:6295   */\n      dup3\n        /* \"#utility.yul\":6285:6304   */\n      mstore\n        /* \"#utility.yul\":6337:6341   */\n      0x20\n        /* \"#utility.yul\":6332:6335   */\n      dup3\n        /* \"#utility.yul\":6328:6342   */\n      add\n        /* \"#utility.yul\":6313:6342   */\n      swap1\n      pop\n        /* \"#utility.yul\":6189:6348   */\n      swap3\n      swap2\n      pop\n      pop\n      jump\t// out\n        /* \"#utility.yul\":6354:6711   */\n    tag_265:\n        /* \"#utility.yul\":6432:6435   */\n      0x00\n        /* \"#utility.yul\":6460:6499   */\n      tag_386\n        /* \"#utility.yul\":6493:6498   */\n      dup3\n        /* \"#utility.yul\":6460:6499   */\n      tag_246\n      jump\t// in\n    tag_386:\n        /* \"#utility.yul\":6515:6576   */\n      tag_387\n        /* \"#utility.yul\":6569:6575   */\n      dup2\n        /* \"#utility.yul\":6564:6567   */\n      dup6\n        /* \"#utility.yul\":6515:6576   */\n      tag_264\n      jump\t// in\n    tag_387:\n        /* \"#utility.yul\":6508:6576   */\n      swap4\n      pop\n        /* \"#utility.yul\":6585:6650   */\n      tag_388\n        /* \"#utility.yul\":6643:6649   */\n      dup2\n        /* \"#utility.yul\":6638:6641   */\n      dup6\n        /* \"#utility.yul\":6631:6635   */\n      0x20\n        /* \"#utility.yul\":6624:6629   */\n      dup7\n        /* \"#utility.yul\":6620:6636   */\n      add\n        /* \"#utility.yul\":6585:6650   */\n      tag_248\n      jump\t// in\n    tag_388:\n        /* \"#utility.yul\":6675:6704   */\n      tag_389\n        /* \"#utility.yul\":6697:6703   */\n      dup2\n        /* \"#utility.yul\":6675:6704   */\n      tag_249\n      jump\t// in\n    tag_389:\n        /* \"#utility.yul\":6670:6673   */\n      dup5\n        /* \"#utility.yul\":6666:6705   */\n      add\n        /* \"#utility.yul\":6659:6705   */\n      swap2\n      pop\n        /* \"#utility.yul\":6436:6711   */\n      pop\n        /* \"#utility.yul\":6354:6711   */\n      swap3\n      swap2\n      pop\n      pop\n      jump\t// out\n        /* \"#utility.yul\":6717:6825   */\n    tag_266:\n        /* \"#utility.yul\":6794:6818   */\n      tag_391\n        /* \"#utility.yul\":6812:6817   */\n      dup2\n        /* \"#utility.yul\":6794:6818   */\n      tag_244\n      jump\t// in\n    tag_391:\n        /* \"#utility.yul\":6789:6792   */\n      dup3\n        /* \"#utility.yul\":6782:6819   */\n      mstore\n        /* \"#utility.yul\":6717:6825   */\n      pop\n      pop\n      jump\t// out\n        /* \"#utility.yul\":6889:8475   */\n    tag_267:\n        /* \"#utility.yul\":7006:7009   */\n      0x00\n        /* \"#utility.yul\":7042:7046   */\n      0xe0\n        /* \"#utility.yul\":7037:7040   */\n      dup4\n        /* \"#utility.yul\":7033:7047   */\n      add\n        /* \"#utility.yul\":7132:7136   */\n      0x00\n        /* \"#utility.yul\":7125:7130   */\n      dup4\n        /* \"#utility.yul\":7121:7137   */\n      add\n        /* \"#utility.yul\":7115:7138   */\n      mload\n        /* \"#utility.yul\":7151:7214   */\n      tag_393\n        /* \"#utility.yul\":7208:7212   */\n      0x00\n        /* \"#utility.yul\":7203:7206   */\n      dup7\n        /* \"#utility.yul\":7199:7213   */\n      add\n        /* \"#utility.yul\":7185:7197   */\n      dup3\n        /* \"#utility.yul\":7151:7214   */\n      tag_263\n      jump\t// in\n    tag_393:\n        /* \"#utility.yul\":7057:7224   */\n      pop\n        /* \"#utility.yul\":7306:7310   */\n      0x20\n        /* \"#utility.yul\":7299:7304   */\n      dup4\n        /* \"#utility.yul\":7295:7311   */\n      add\n        /* \"#utility.yul\":7289:7312   */\n      mload\n        /* \"#utility.yul\":7359:7362   */\n      dup5\n        /* \"#utility.yul\":7353:7357   */\n      dup3\n        /* \"#utility.yul\":7349:7363   */\n      sub\n        /* \"#utility.yul\":7342:7346   */\n      0x20\n        /* \"#utility.yul\":7337:7340   */\n      dup7\n        /* \"#utility.yul\":7333:7347   */\n      add\n        /* \"#utility.yul\":7326:7364   */\n      mstore\n        /* \"#utility.yul\":7385:7458   */\n      tag_394\n        /* \"#utility.yul\":7453:7457   */\n      dup3\n        /* \"#utility.yul\":7439:7451   */\n      dup3\n        /* \"#utility.yul\":7385:7458   */\n      tag_265\n      jump\t// in\n    tag_394:\n        /* \"#utility.yul\":7377:7458   */\n      swap2\n      pop\n        /* \"#utility.yul\":7234:7469   */\n      pop\n        /* \"#utility.yul\":7558:7562   */\n      0x40\n        /* \"#utility.yul\":7551:7556   */\n      dup4\n        /* \"#utility.yul\":7547:7563   */\n      add\n        /* \"#utility.yul\":7541:7564   */\n      mload\n        /* \"#utility.yul\":7611:7614   */\n      dup5\n        /* \"#utility.yul\":7605:7609   */\n      dup3\n        /* \"#utility.yul\":7601:7615   */\n      sub\n        /* \"#utility.yul\":7594:7598   */\n      0x40\n        /* \"#utility.yul\":7589:7592   */\n      dup7\n        /* \"#utility.yul\":7585:7599   */\n      add\n        /* \"#utility.yul\":7578:7616   */\n      mstore\n        /* \"#utility.yul\":7637:7710   */\n      tag_395\n        /* \"#utility.yul\":7705:7709   */\n      dup3\n        /* \"#utility.yul\":7691:7703   */\n      dup3\n        /* \"#utility.yul\":7637:7710   */\n      tag_265\n      jump\t// in\n    tag_395:\n        /* \"#utility.yul\":7629:7710   */\n      swap2\n      pop\n        /* \"#utility.yul\":7479:7721   */\n      pop\n        /* \"#utility.yul\":7814:7818   */\n      0x60\n        /* \"#utility.yul\":7807:7812   */\n      dup4\n        /* \"#utility.yul\":7803:7819   */\n      add\n        /* \"#utility.yul\":7797:7820   */\n      mload\n        /* \"#utility.yul\":7833:7896   */\n      tag_396\n        /* \"#utility.yul\":7890:7894   */\n      0x60\n        /* \"#utility.yul\":7885:7888   */\n      dup7\n        /* \"#utility.yul\":7881:7895   */\n      add\n        /* \"#utility.yul\":7867:7879   */\n      dup3\n        /* \"#utility.yul\":7833:7896   */\n      tag_266\n      jump\t// in\n    tag_396:\n        /* \"#utility.yul\":7731:7906   */\n      pop\n        /* \"#utility.yul\":7991:7995   */\n      0x80\n        /* \"#utility.yul\":7984:7989   */\n      dup4\n        /* \"#utility.yul\":7980:7996   */\n      add\n        /* \"#utility.yul\":7974:7997   */\n      mload\n        /* \"#utility.yul\":8010:8073   */\n      tag_397\n        /* \"#utility.yul\":8067:8071   */\n      0x80\n        /* \"#utility.yul\":8062:8065   */\n      dup7\n        /* \"#utility.yul\":8058:8072   */\n      add\n        /* \"#utility.yul\":8044:8056   */\n      dup3\n        /* \"#utility.yul\":8010:8073   */\n      tag_266\n      jump\t// in\n    tag_397:\n        /* \"#utility.yul\":7916:8083   */\n      pop\n        /* \"#utility.yul\":8173:8177   */\n      0xa0\n        /* \"#utility.yul\":8166:8171   */\n      dup4\n        /* \"#utility.yul\":8162:8178   */\n      add\n        /* \"#utility.yul\":8156:8179   */\n      mload\n        /* \"#utility.yul\":8192:8255   */\n      tag_398\n        /* \"#utility.yul\":8249:8253   */\n      0xa0\n        /* \"#utility.yul\":8244:8247   */\n      dup7\n        /* \"#utility.yul\":8240:8254   */\n      add\n        /* \"#utility.yul\":8226:8238   */\n      dup3\n        /* \"#utility.yul\":8192:8255   */\n      tag_266\n      jump\t// in\n    tag_398:\n        /* \"#utility.yul\":8093:8265   */\n      pop\n        /* \"#utility.yul\":8356:8360   */\n      0xc0\n        /* \"#utility.yul\":8349:8354   */\n      dup4\n        /* \"#utility.yul\":8345:8361   */\n      add\n        /* \"#utility.yul\":8339:8362   */\n      mload\n        /* \"#utility.yul\":8375:8438   */\n      tag_399\n        /* \"#utility.yul\":8432:8436   */\n      0xc0\n        /* \"#utility.yul\":8427:8430   */\n      dup7\n        /* \"#utility.yul\":8423:8437   */\n      add\n        /* \"#utility.yul\":8409:8421   */\n      dup3\n        /* \"#utility.yul\":8375:8438   */\n      tag_266\n      jump\t// in\n    tag_399:\n        /* \"#utility.yul\":8275:8448   */\n      pop\n        /* \"#utility.yul\":8465:8469   */\n      dup1\n        /* \"#utility.yul\":8458:8469   */\n      swap2\n      pop\n        /* \"#utility.yul\":7011:8475   */\n      pop\n        /* \"#utility.yul\":6889:8475   */\n      swap3\n      swap2\n      pop\n      pop\n      jump\t// out\n        /* \"#utility.yul\":8481:8850   */\n    tag_48:\n        /* \"#utility.yul\":8622:8626   */\n      0x00\n        /* \"#utility.yul\":8660:8662   */\n      0x20\n        /* \"#utility.yul\":8649:8658   */\n      dup3\n        /* \"#utility.yul\":8645:8663   */\n      add\n        /* \"#utility.yul\":8637:8663   */\n      swap1\n      pop\n        /* \"#utility.yul\":8709:8718   */\n      dup2\n        /* \"#utility.yul\":8703:8707   */\n      dup2\n        /* \"#utility.yul\":8699:8719   */\n      sub\n        /* \"#utility.yul\":8695:8696   */\n      0x00\n        /* \"#utility.yul\":8684:8693   */\n      dup4\n        /* \"#utility.yul\":8680:8697   */\n      add\n        /* \"#utility.yul\":8673:8720   */\n      mstore\n        /* \"#utility.yul\":8737:8843   */\n      tag_401\n        /* \"#utility.yul\":8838:8842   */\n      dup2\n        /* \"#utility.yul\":8829:8835   */\n      dup5\n        /* \"#utility.yul\":8737:8843   */\n      tag_267\n      jump\t// in\n    tag_401:\n        /* \"#utility.yul\":8729:8843   */\n      swap1\n      pop\n        /* \"#utility.yul\":8481:8850   */\n      swap3\n      swap2\n      pop\n      pop\n      jump\t// out\n        /* \"#utility.yul\":8856:9365   */\n    tag_52:\n        /* \"#utility.yul\":8925:8931   */\n      0x00\n        /* \"#utility.yul\":8974:8976   */\n      0x20\n        /* \"#utility.yul\":8962:8971   */\n      dup3\n        /* \"#utility.yul\":8953:8960   */\n      dup5\n        /* \"#utility.yul\":8949:8972   */\n      sub\n        /* \"#utility.yul\":8945:8977   */\n      slt\n        /* \"#utility.yul\":8942:9061   */\n      iszero\n      tag_403\n      jumpi\n        /* \"#utility.yul\":8980:9059   */\n      tag_404\n      tag_238\n      jump\t// in\n    tag_404:\n        /* \"#utility.yul\":8942:9061   */\n    tag_403:\n        /* \"#utility.yul\":9128:9129   */\n      0x00\n        /* \"#utility.yul\":9117:9126   */\n      dup3\n        /* \"#utility.yul\":9113:9130   */\n      add\n        /* \"#utility.yul\":9100:9131   */\n      calldataload\n        /* \"#utility.yul\":9158:9176   */\n      0xffffffffffffffff\n        /* \"#utility.yul\":9150:9156   */\n      dup2\n        /* \"#utility.yul\":9147:9177   */\n      gt\n        /* \"#utility.yul\":9144:9261   */\n      iszero\n      tag_405\n      jumpi\n        /* \"#utility.yul\":9180:9259   */\n      tag_406\n      tag_239\n      jump\t// in\n    tag_406:\n        /* \"#utility.yul\":9144:9261   */\n    tag_405:\n        /* \"#utility.yul\":9285:9348   */\n      tag_407\n        /* \"#utility.yul\":9340:9347   */\n      dup5\n        /* \"#utility.yul\":9331:9337   */\n      dup3\n        /* \"#utility.yul\":9320:9329   */\n      dup6\n        /* \"#utility.yul\":9316:9338   */\n      add\n        /* \"#utility.yul\":9285:9348   */\n      tag_259\n      jump\t// in\n    tag_407:\n        /* \"#utility.yul\":9275:9348   */\n      swap2\n      pop\n        /* \"#utility.yul\":9071:9358   */\n      pop\n        /* \"#utility.yul\":8856:9365   */\n      swap3\n      swap2\n      pop\n      pop\n      jump\t// out\n        /* \"#utility.yul\":9371:9475   */\n    tag_268:\n        /* \"#utility.yul\":9416:9423   */\n      0x00\n        /* \"#utility.yul\":9445:9469   */\n      tag_409\n        /* \"#utility.yul\":9463:9468   */\n      dup3\n        /* \"#utility.yul\":9445:9469   */\n      tag_240\n      jump\t// in\n    tag_409:\n        /* \"#utility.yul\":9434:9469   */\n      swap1\n      pop\n        /* \"#utility.yul\":9371:9475   */\n      swap2\n      swap1\n      pop\n      jump\t// out\n        /* \"#utility.yul\":9481:9623   */\n    tag_269:\n        /* \"#utility.yul\":9584:9616   */\n      tag_411\n        /* \"#utility.yul\":9610:9615   */\n      dup2\n        /* \"#utility.yul\":9584:9616   */\n      tag_268\n      jump\t// in\n    tag_411:\n        /* \"#utility.yul\":9579:9582   */\n      dup3\n        /* \"#utility.yul\":9572:9617   */\n      mstore\n        /* \"#utility.yul\":9481:9623   */\n      pop\n      pop\n      jump\t// out\n        /* \"#utility.yul\":9629:9738   */\n    tag_270:\n        /* \"#utility.yul\":9710:9731   */\n      tag_413\n        /* \"#utility.yul\":9725:9730   */\n      dup2\n        /* \"#utility.yul\":9710:9731   */\n      tag_260\n      jump\t// in\n    tag_413:\n        /* \"#utility.yul\":9705:9708   */\n      dup3\n        /* \"#utility.yul\":9698:9732   */\n      mstore\n        /* \"#utility.yul\":9629:9738   */\n      pop\n      pop\n      jump\t// out\n        /* \"#utility.yul\":9744:11042   */\n    tag_55:\n        /* \"#utility.yul\":10105:10109   */\n      0x00\n        /* \"#utility.yul\":10143:10146   */\n      0x0120\n        /* \"#utility.yul\":10132:10141   */\n      dup3\n        /* \"#utility.yul\":10128:10147   */\n      add\n        /* \"#utility.yul\":10120:10147   */\n      swap1\n      pop\n        /* \"#utility.yul\":10193:10202   */\n      dup2\n        /* \"#utility.yul\":10187:10191   */\n      dup2\n        /* \"#utility.yul\":10183:10203   */\n      sub\n        /* \"#utility.yul\":10179:10180   */\n      0x00\n        /* \"#utility.yul\":10168:10177   */\n      dup4\n        /* \"#utility.yul\":10164:10181   */\n      add\n        /* \"#utility.yul\":10157:10204   */\n      mstore\n        /* \"#utility.yul\":10221:10299   */\n      tag_415\n        /* \"#utility.yul\":10294:10298   */\n      dup2\n        /* \"#utility.yul\":10285:10291   */\n      dup13\n        /* \"#utility.yul\":10221:10299   */\n      tag_250\n      jump\t// in\n    tag_415:\n        /* \"#utility.yul\":10213:10299   */\n      swap1\n      pop\n        /* \"#utility.yul\":10346:10355   */\n      dup2\n        /* \"#utility.yul\":10340:10344   */\n      dup2\n        /* \"#utility.yul\":10336:10356   */\n      sub\n        /* \"#utility.yul\":10331:10333   */\n      0x20\n        /* \"#utility.yul\":10320:10329   */\n      dup4\n        /* \"#utility.yul\":10316:10334   */\n      add\n        /* \"#utility.yul\":10309:10357   */\n      mstore\n        /* \"#utility.yul\":10374:10452   */\n      tag_416\n        /* \"#utility.yul\":10447:10451   */\n      dup2\n        /* \"#utility.yul\":10438:10444   */\n      dup12\n        /* \"#utility.yul\":10374:10452   */\n      tag_250\n      jump\t// in\n    tag_416:\n        /* \"#utility.yul\":10366:10452   */\n      swap1\n      pop\n        /* \"#utility.yul\":10462:10534   */\n      tag_417\n        /* \"#utility.yul\":10530:10532   */\n      0x40\n        /* \"#utility.yul\":10519:10528   */\n      dup4\n        /* \"#utility.yul\":10515:10533   */\n      add\n        /* \"#utility.yul\":10506:10512   */\n      dup11\n        /* \"#utility.yul\":10462:10534   */\n      tag_245\n      jump\t// in\n    tag_417:\n        /* \"#utility.yul\":10544:10632   */\n      tag_418\n        /* \"#utility.yul\":10628:10630   */\n      0x60\n        /* \"#utility.yul\":10617:10626   */\n      dup4\n        /* \"#utility.yul\":10613:10631   */\n      add\n        /* \"#utility.yul\":10604:10610   */\n      dup10\n        /* \"#utility.yul\":10544:10632   */\n      tag_269\n      jump\t// in\n    tag_418:\n        /* \"#utility.yul\":10642:10715   */\n      tag_419\n        /* \"#utility.yul\":10710:10713   */\n      0x80\n        /* \"#utility.yul\":10699:10708   */\n      dup4\n        /* \"#utility.yul\":10695:10714   */\n      add\n        /* \"#utility.yul\":10686:10692   */\n      dup9\n        /* \"#utility.yul\":10642:10715   */\n      tag_245\n      jump\t// in\n    tag_419:\n        /* \"#utility.yul\":10725:10798   */\n      tag_420\n        /* \"#utility.yul\":10793:10796   */\n      0xa0\n        /* \"#utility.yul\":10782:10791   */\n      dup4\n        /* \"#utility.yul\":10778:10797   */\n      add\n        /* \"#utility.yul\":10769:10775   */\n      dup8\n        /* \"#utility.yul\":10725:10798   */\n      tag_245\n      jump\t// in\n    tag_420:\n        /* \"#utility.yul\":10808:10881   */\n      tag_421\n        /* \"#utility.yul\":10876:10879   */\n      0xc0\n        /* \"#utility.yul\":10865:10874   */\n      dup4\n        /* \"#utility.yul\":10861:10880   */\n      add\n        /* \"#utility.yul\":10852:10858   */\n      dup7\n        /* \"#utility.yul\":10808:10881   */\n      tag_245\n      jump\t// in\n    tag_421:\n        /* \"#utility.yul\":10891:10958   */\n      tag_422\n        /* \"#utility.yul\":10953:10956   */\n      0xe0\n        /* \"#utility.yul\":10942:10951   */\n      dup4\n        /* \"#utility.yul\":10938:10957   */\n      add\n        /* \"#utility.yul\":10929:10935   */\n      dup6\n        /* \"#utility.yul\":10891:10958   */\n      tag_270\n      jump\t// in\n    tag_422:\n        /* \"#utility.yul\":10968:11035   */\n      tag_423\n        /* \"#utility.yul\":11030:11033   */\n      0x0100\n        /* \"#utility.yul\":11019:11028   */\n      dup4\n        /* \"#utility.yul\":11015:11034   */\n      add\n        /* \"#utility.yul\":11006:11012   */\n      dup5\n        /* \"#utility.yul\":10968:11035   */\n      tag_270\n      jump\t// in\n    tag_423:\n        /* \"#utility.yul\":9744:11042   */\n      swap11\n      swap10\n      pop\n      pop\n      pop\n      pop\n      pop\n      pop\n      pop\n      pop\n      pop\n      pop\n      jump\t// out\n        /* \"#utility.yul\":11048:11191   */\n    tag_271:\n        /* \"#utility.yul\":11144:11150   */\n      0x00\n        /* \"#utility.yul\":11178:11183   */\n      dup2\n        /* \"#utility.yul\":11172:11184   */\n      mload\n        /* \"#utility.yul\":11162:11184   */\n      swap1\n      pop\n        /* \"#utility.yul\":11048:11191   */\n      swap2\n      swap1\n      pop\n      jump\t// out\n        /* \"#utility.yul\":11197:11410   */\n    tag_272:\n        /* \"#utility.yul\":11325:11336   */\n      0x00\n        /* \"#utility.yul\":11359:11365   */\n      dup3\n        /* \"#utility.yul\":11354:11357   */\n      dup3\n        /* \"#utility.yul\":11347:11366   */\n      mstore\n        /* \"#utility.yul\":11399:11403   */\n      0x20\n        /* \"#utility.yul\":11394:11397   */\n      dup3\n        /* \"#utility.yul\":11390:11404   */\n      add\n        /* \"#utility.yul\":11375:11404   */\n      swap1\n      pop\n        /* \"#utility.yul\":11197:11410   */\n      swap3\n      swap2\n      pop\n      pop\n      jump\t// out\n        /* \"#utility.yul\":11416:11577   */\n    tag_273:\n        /* \"#utility.yul\":11512:11516   */\n      0x00\n        /* \"#utility.yul\":11535:11538   */\n      dup2\n        /* \"#utility.yul\":11527:11538   */\n      swap1\n      pop\n        /* \"#utility.yul\":11565:11569   */\n      0x20\n        /* \"#utility.yul\":11560:11563   */\n      dup3\n        /* \"#utility.yul\":11556:11570   */\n      add\n        /* \"#utility.yul\":11548:11570   */\n      swap1\n      pop\n        /* \"#utility.yul\":11416:11577   */\n      swap2\n      swap1\n      pop\n      jump\t// out\n        /* \"#utility.yul\":11651:12269   */\n    tag_274:\n        /* \"#utility.yul\":11768:11771   */\n      0x00\n        /* \"#utility.yul\":11804:11808   */\n      0x40\n        /* \"#utility.yul\":11799:11802   */\n      dup4\n        /* \"#utility.yul\":11795:11809   */\n      add\n        /* \"#utility.yul\":11898:11902   */\n      0x00\n        /* \"#utility.yul\":11891:11896   */\n      dup4\n        /* \"#utility.yul\":11887:11903   */\n      add\n        /* \"#utility.yul\":11881:11904   */\n      mload\n        /* \"#utility.yul\":11917:11980   */\n      tag_428\n        /* \"#utility.yul\":11974:11978   */\n      0x00\n        /* \"#utility.yul\":11969:11972   */\n      dup7\n        /* \"#utility.yul\":11965:11979   */\n      add\n        /* \"#utility.yul\":11951:11963   */\n      dup3\n        /* \"#utility.yul\":11917:11980   */\n      tag_263\n      jump\t// in\n    tag_428:\n        /* \"#utility.yul\":11819:11990   */\n      pop\n        /* \"#utility.yul\":12079:12083   */\n      0x20\n        /* \"#utility.yul\":12072:12077   */\n      dup4\n        /* \"#utility.yul\":12068:12084   */\n      add\n        /* \"#utility.yul\":12062:12085   */\n      mload\n        /* \"#utility.yul\":12132:12135   */\n      dup5\n        /* \"#utility.yul\":12126:12130   */\n      dup3\n        /* \"#utility.yul\":12122:12136   */\n      sub\n        /* \"#utility.yul\":12115:12119   */\n      0x20\n        /* \"#utility.yul\":12110:12113   */\n      dup7\n        /* \"#utility.yul\":12106:12120   */\n      add\n        /* \"#utility.yul\":12099:12137   */\n      mstore\n        /* \"#utility.yul\":12158:12231   */\n      tag_429\n        /* \"#utility.yul\":12226:12230   */\n      dup3\n        /* \"#utility.yul\":12212:12224   */\n      dup3\n        /* \"#utility.yul\":12158:12231   */\n      tag_265\n      jump\t// in\n    tag_429:\n        /* \"#utility.yul\":12150:12231   */\n      swap2\n      pop\n        /* \"#utility.yul\":12000:12242   */\n      pop\n        /* \"#utility.yul\":12259:12263   */\n      dup1\n        /* \"#utility.yul\":12252:12263   */\n      swap2\n      pop\n        /* \"#utility.yul\":11773:12269   */\n      pop\n        /* \"#utility.yul\":11651:12269   */\n      swap3\n      swap2\n      pop\n      pop\n      jump\t// out\n        /* \"#utility.yul\":12275:12547   */\n    tag_275:\n        /* \"#utility.yul\":12402:12412   */\n      0x00\n        /* \"#utility.yul\":12437:12541   */\n      tag_431\n        /* \"#utility.yul\":12537:12540   */\n      dup4\n        /* \"#utility.yul\":12529:12535   */\n      dup4\n        /* \"#utility.yul\":12437:12541   */\n      tag_274\n      jump\t// in\n    tag_431:\n        /* \"#utility.yul\":12423:12541   */\n      swap1\n      pop\n        /* \"#utility.yul\":12275:12547   */\n      swap3\n      swap2\n      pop\n      pop\n      jump\t// out\n        /* \"#utility.yul\":12553:12695   */\n    tag_276:\n        /* \"#utility.yul\":12652:12656   */\n      0x00\n        /* \"#utility.yul\":12684:12688   */\n      0x20\n        /* \"#utility.yul\":12679:12682   */\n      dup3\n        /* \"#utility.yul\":12675:12689   */\n      add\n        /* \"#utility.yul\":12667:12689   */\n      swap1\n      pop\n        /* \"#utility.yul\":12553:12695   */\n      swap2\n      swap1\n      pop\n      jump\t// out\n        /* \"#utility.yul\":12773:13916   */\n    tag_277:\n        /* \"#utility.yul\":12950:12953   */\n      0x00\n        /* \"#utility.yul\":12979:13062   */\n      tag_434\n        /* \"#utility.yul\":13056:13061   */\n      dup3\n        /* \"#utility.yul\":12979:13062   */\n      tag_271\n      jump\t// in\n    tag_434:\n        /* \"#utility.yul\":13078:13193   */\n      tag_435\n        /* \"#utility.yul\":13186:13192   */\n      dup2\n        /* \"#utility.yul\":13181:13184   */\n      dup6\n        /* \"#utility.yul\":13078:13193   */\n      tag_272\n      jump\t// in\n    tag_435:\n        /* \"#utility.yul\":13071:13193   */\n      swap4\n      pop\n        /* \"#utility.yul\":13219:13222   */\n      dup4\n        /* \"#utility.yul\":13264:13268   */\n      0x20\n        /* \"#utility.yul\":13256:13262   */\n      dup3\n        /* \"#utility.yul\":13252:13269   */\n      mul\n        /* \"#utility.yul\":13247:13250   */\n      dup6\n        /* \"#utility.yul\":13243:13270   */\n      add\n        /* \"#utility.yul\":13294:13379   */\n      tag_436\n        /* \"#utility.yul\":13373:13378   */\n      dup6\n        /* \"#utility.yul\":13294:13379   */\n      tag_273\n      jump\t// in\n    tag_436:\n        /* \"#utility.yul\":13402:13409   */\n      dup1\n        /* \"#utility.yul\":13433:13434   */\n      0x00\n        /* \"#utility.yul\":13418:13871   */\n    tag_437:\n        /* \"#utility.yul\":13443:13449   */\n      dup6\n        /* \"#utility.yul\":13440:13441   */\n      dup2\n        /* \"#utility.yul\":13437:13450   */\n      lt\n        /* \"#utility.yul\":13418:13871   */\n      iszero\n      tag_439\n      jumpi\n        /* \"#utility.yul\":13514:13523   */\n      dup5\n        /* \"#utility.yul\":13508:13512   */\n      dup5\n        /* \"#utility.yul\":13504:13524   */\n      sub\n        /* \"#utility.yul\":13499:13502   */\n      dup10\n        /* \"#utility.yul\":13492:13525   */\n      mstore\n        /* \"#utility.yul\":13565:13571   */\n      dup2\n        /* \"#utility.yul\":13559:13572   */\n      mload\n        /* \"#utility.yul\":13593:13715   */\n      tag_440\n        /* \"#utility.yul\":13710:13714   */\n      dup6\n        /* \"#utility.yul\":13695:13708   */\n      dup3\n        /* \"#utility.yul\":13593:13715   */\n      tag_275\n      jump\t// in\n    tag_440:\n        /* \"#utility.yul\":13585:13715   */\n      swap5\n      pop\n        /* \"#utility.yul\":13738:13827   */\n      tag_441\n        /* \"#utility.yul\":13820:13826   */\n      dup4\n        /* \"#utility.yul\":13738:13827   */\n      tag_276\n      jump\t// in\n    tag_441:\n        /* \"#utility.yul\":13728:13827   */\n      swap3\n      pop\n        /* \"#utility.yul\":13856:13860   */\n      0x20\n        /* \"#utility.yul\":13851:13854   */\n      dup11\n        /* \"#utility.yul\":13847:13861   */\n      add\n        /* \"#utility.yul\":13840:13861   */\n      swap10\n      pop\n        /* \"#utility.yul\":13478:13871   */\n      pop\n        /* \"#utility.yul\":13465:13466   */\n      0x01\n        /* \"#utility.yul\":13462:13463   */\n      dup2\n        /* \"#utility.yul\":13458:13467   */\n      add\n        /* \"#utility.yul\":13453:13467   */\n      swap1\n      pop\n        /* \"#utility.yul\":13418:13871   */\n      jump(tag_437)\n    tag_439:\n        /* \"#utility.yul\":13422:13436   */\n      pop\n        /* \"#utility.yul\":13887:13891   */\n      dup3\n        /* \"#utility.yul\":13880:13891   */\n      swap8\n      pop\n        /* \"#utility.yul\":13907:13910   */\n      dup8\n        /* \"#utility.yul\":13900:13910   */\n      swap6\n      pop\n        /* \"#utility.yul\":12955:13916   */\n      pop\n      pop\n      pop\n      pop\n      pop\n        /* \"#utility.yul\":12773:13916   */\n      swap3\n      swap2\n      pop\n      pop\n      jump\t// out\n        /* \"#utility.yul\":13922:14411   */\n    tag_65:\n        /* \"#utility.yul\":14123:14127   */\n      0x00\n        /* \"#utility.yul\":14161:14163   */\n      0x20\n        /* \"#utility.yul\":14150:14159   */\n      dup3\n        /* \"#utility.yul\":14146:14164   */\n      add\n        /* \"#utility.yul\":14138:14164   */\n      swap1\n      pop\n        /* \"#utility.yul\":14210:14219   */\n      dup2\n        /* \"#utility.yul\":14204:14208   */\n      dup2\n        /* \"#utility.yul\":14200:14220   */\n      sub\n        /* \"#utility.yul\":14196:14197   */\n      0x00\n        /* \"#utility.yul\":14185:14194   */\n      dup4\n        /* \"#utility.yul\":14181:14198   */\n      add\n        /* \"#utility.yul\":14174:14221   */\n      mstore\n        /* \"#utility.yul\":14238:14404   */\n      tag_443\n        /* \"#utility.yul\":14399:14403   */\n      dup2\n        /* \"#utility.yul\":14390:14396   */\n      dup5\n        /* \"#utility.yul\":14238:14404   */\n      tag_277\n      jump\t// in\n    tag_443:\n        /* \"#utility.yul\":14230:14404   */\n      swap1\n      pop\n        /* \"#utility.yul\":13922:14411   */\n      swap3\n      swap2\n      pop\n      pop\n      jump\t// out\n        /* \"#utility.yul\":14417:14562   */\n    tag_278:\n        /* \"#utility.yul\":14515:14521   */\n      0x00\n        /* \"#utility.yul\":14549:14554   */\n      dup2\n        /* \"#utility.yul\":14543:14555   */\n      mload\n        /* \"#utility.yul\":14533:14555   */\n      swap1\n      pop\n        /* \"#utility.yul\":14417:14562   */\n      swap2\n      swap1\n      pop\n      jump\t// out\n        /* \"#utility.yul\":14568:14783   */\n    tag_279:\n        /* \"#utility.yul\":14698:14709   */\n      0x00\n        /* \"#utility.yul\":14732:14738   */\n      dup3\n        /* \"#utility.yul\":14727:14730   */\n      dup3\n        /* \"#utility.yul\":14720:14739   */\n      mstore\n        /* \"#utility.yul\":14772:14776   */\n      0x20\n        /* \"#utility.yul\":14767:14770   */\n      dup3\n        /* \"#utility.yul\":14763:14777   */\n      add\n        /* \"#utility.yul\":14748:14777   */\n      swap1\n      pop\n        /* \"#utility.yul\":14568:14783   */\n      swap3\n      swap2\n      pop\n      pop\n      jump\t// out\n        /* \"#utility.yul\":14789:14952   */\n    tag_280:\n        /* \"#utility.yul\":14887:14891   */\n      0x00\n        /* \"#utility.yul\":14910:14913   */\n      dup2\n        /* \"#utility.yul\":14902:14913   */\n      swap1\n      pop\n        /* \"#utility.yul\":14940:14944   */\n      0x20\n        /* \"#utility.yul\":14935:14938   */\n      dup3\n        /* \"#utility.yul\":14931:14945   */\n      add\n        /* \"#utility.yul\":14923:14945   */\n      swap1\n      pop\n        /* \"#utility.yul\":14789:14952   */\n      swap2\n      swap1\n      pop\n      jump\t// out\n        /* \"#utility.yul\":15030:15892   */\n    tag_281:\n        /* \"#utility.yul\":15151:15154   */\n      0x00\n        /* \"#utility.yul\":15187:15191   */\n      0x60\n        /* \"#utility.yul\":15182:15185   */\n      dup4\n        /* \"#utility.yul\":15178:15192   */\n      add\n        /* \"#utility.yul\":15274:15278   */\n      0x00\n        /* \"#utility.yul\":15267:15272   */\n      dup4\n        /* \"#utility.yul\":15263:15279   */\n      add\n        /* \"#utility.yul\":15257:15280   */\n      mload\n        /* \"#utility.yul\":15327:15330   */\n      dup5\n        /* \"#utility.yul\":15321:15325   */\n      dup3\n        /* \"#utility.yul\":15317:15331   */\n      sub\n        /* \"#utility.yul\":15310:15314   */\n      0x00\n        /* \"#utility.yul\":15305:15308   */\n      dup7\n        /* \"#utility.yul\":15301:15315   */\n      add\n        /* \"#utility.yul\":15294:15332   */\n      mstore\n        /* \"#utility.yul\":15353:15426   */\n      tag_448\n        /* \"#utility.yul\":15421:15425   */\n      dup3\n        /* \"#utility.yul\":15407:15419   */\n      dup3\n        /* \"#utility.yul\":15353:15426   */\n      tag_265\n      jump\t// in\n    tag_448:\n        /* \"#utility.yul\":15345:15426   */\n      swap2\n      pop\n        /* \"#utility.yul\":15202:15437   */\n      pop\n        /* \"#utility.yul\":15526:15530   */\n      0x20\n        /* \"#utility.yul\":15519:15524   */\n      dup4\n        /* \"#utility.yul\":15515:15531   */\n      add\n        /* \"#utility.yul\":15509:15532   */\n      mload\n        /* \"#utility.yul\":15579:15582   */\n      dup5\n        /* \"#utility.yul\":15573:15577   */\n      dup3\n        /* \"#utility.yul\":15569:15583   */\n      sub\n        /* \"#utility.yul\":15562:15566   */\n      0x20\n        /* \"#utility.yul\":15557:15560   */\n      dup7\n        /* \"#utility.yul\":15553:15567   */\n      add\n        /* \"#utility.yul\":15546:15584   */\n      mstore\n        /* \"#utility.yul\":15605:15678   */\n      tag_449\n        /* \"#utility.yul\":15673:15677   */\n      dup3\n        /* \"#utility.yul\":15659:15671   */\n      dup3\n        /* \"#utility.yul\":15605:15678   */\n      tag_265\n      jump\t// in\n    tag_449:\n        /* \"#utility.yul\":15597:15678   */\n      swap2\n      pop\n        /* \"#utility.yul\":15447:15689   */\n      pop\n        /* \"#utility.yul\":15773:15777   */\n      0x40\n        /* \"#utility.yul\":15766:15771   */\n      dup4\n        /* \"#utility.yul\":15762:15778   */\n      add\n        /* \"#utility.yul\":15756:15779   */\n      mload\n        /* \"#utility.yul\":15792:15855   */\n      tag_450\n        /* \"#utility.yul\":15849:15853   */\n      0x40\n        /* \"#utility.yul\":15844:15847   */\n      dup7\n        /* \"#utility.yul\":15840:15854   */\n      add\n        /* \"#utility.yul\":15826:15838   */\n      dup3\n        /* \"#utility.yul\":15792:15855   */\n      tag_266\n      jump\t// in\n    tag_450:\n        /* \"#utility.yul\":15699:15865   */\n      pop\n        /* \"#utility.yul\":15882:15886   */\n      dup1\n        /* \"#utility.yul\":15875:15886   */\n      swap2\n      pop\n        /* \"#utility.yul\":15156:15892   */\n      pop\n        /* \"#utility.yul\":15030:15892   */\n      swap3\n      swap2\n      pop\n      pop\n      jump\t// out\n        /* \"#utility.yul\":15898:16178   */\n    tag_282:\n        /* \"#utility.yul\":16029:16039   */\n      0x00\n        /* \"#utility.yul\":16064:16172   */\n      tag_452\n        /* \"#utility.yul\":16168:16171   */\n      dup4\n        /* \"#utility.yul\":16160:16166   */\n      dup4\n        /* \"#utility.yul\":16064:16172   */\n      tag_281\n      jump\t// in\n    tag_452:\n        /* \"#utility.yul\":16050:16172   */\n      swap1\n      pop\n        /* \"#utility.yul\":15898:16178   */\n      swap3\n      swap2\n      pop\n      pop\n      jump\t// out\n        /* \"#utility.yul\":16184:16328   */\n    tag_283:\n        /* \"#utility.yul\":16285:16289   */\n      0x00\n        /* \"#utility.yul\":16317:16321   */\n      0x20\n        /* \"#utility.yul\":16312:16315   */\n      dup3\n        /* \"#utility.yul\":16308:16322   */\n      add\n        /* \"#utility.yul\":16300:16322   */\n      swap1\n      pop\n        /* \"#utility.yul\":16184:16328   */\n      swap2\n      swap1\n      pop\n      jump\t// out\n        /* \"#utility.yul\":16410:17569   */\n    tag_284:\n        /* \"#utility.yul\":16591:16594   */\n      0x00\n        /* \"#utility.yul\":16620:16705   */\n      tag_455\n        /* \"#utility.yul\":16699:16704   */\n      dup3\n        /* \"#utility.yul\":16620:16705   */\n      tag_278\n      jump\t// in\n    tag_455:\n        /* \"#utility.yul\":16721:16838   */\n      tag_456\n        /* \"#utility.yul\":16831:16837   */\n      dup2\n        /* \"#utility.yul\":16826:16829   */\n      dup6\n        /* \"#utility.yul\":16721:16838   */\n      tag_279\n      jump\t// in\n    tag_456:\n        /* \"#utility.yul\":16714:16838   */\n      swap4\n      pop\n        /* \"#utility.yul\":16864:16867   */\n      dup4\n        /* \"#utility.yul\":16909:16913   */\n      0x20\n        /* \"#utility.yul\":16901:16907   */\n      dup3\n        /* \"#utility.yul\":16897:16914   */\n      mul\n        /* \"#utility.yul\":16892:16895   */\n      dup6\n        /* \"#utility.yul\":16888:16915   */\n      add\n        /* \"#utility.yul\":16939:17026   */\n      tag_457\n        /* \"#utility.yul\":17020:17025   */\n      dup6\n        /* \"#utility.yul\":16939:17026   */\n      tag_280\n      jump\t// in\n    tag_457:\n        /* \"#utility.yul\":17049:17056   */\n      dup1\n        /* \"#utility.yul\":17080:17081   */\n      0x00\n        /* \"#utility.yul\":17065:17524   */\n    tag_458:\n        /* \"#utility.yul\":17090:17096   */\n      dup6\n        /* \"#utility.yul\":17087:17088   */\n      dup2\n        /* \"#utility.yul\":17084:17097   */\n      lt\n        /* \"#utility.yul\":17065:17524   */\n      iszero\n      tag_460\n      jumpi\n        /* \"#utility.yul\":17161:17170   */\n      dup5\n        /* \"#utility.yul\":17155:17159   */\n      dup5\n        /* \"#utility.yul\":17151:17171   */\n      sub\n        /* \"#utility.yul\":17146:17149   */\n      dup10\n        /* \"#utility.yul\":17139:17172   */\n      mstore\n        /* \"#utility.yul\":17212:17218   */\n      dup2\n        /* \"#utility.yul\":17206:17219   */\n      mload\n        /* \"#utility.yul\":17240:17366   */\n      tag_461\n        /* \"#utility.yul\":17361:17365   */\n      dup6\n        /* \"#utility.yul\":17346:17359   */\n      dup3\n        /* \"#utility.yul\":17240:17366   */\n      tag_282\n      jump\t// in\n    tag_461:\n        /* \"#utility.yul\":17232:17366   */\n      swap5\n      pop\n        /* \"#utility.yul\":17389:17480   */\n      tag_462\n        /* \"#utility.yul\":17473:17479   */\n      dup4\n        /* \"#utility.yul\":17389:17480   */\n      tag_283\n      jump\t// in\n    tag_462:\n        /* \"#utility.yul\":17379:17480   */\n      swap3\n      pop\n        /* \"#utility.yul\":17509:17513   */\n      0x20\n        /* \"#utility.yul\":17504:17507   */\n      dup11\n        /* \"#utility.yul\":17500:17514   */\n      add\n        /* \"#utility.yul\":17493:17514   */\n      swap10\n      pop\n        /* \"#utility.yul\":17125:17524   */\n      pop\n        /* \"#utility.yul\":17112:17113   */\n      0x01\n        /* \"#utility.yul\":17109:17110   */\n      dup2\n        /* \"#utility.yul\":17105:17114   */\n      add\n        /* \"#utility.yul\":17100:17114   */\n      swap1\n      pop\n        /* \"#utility.yul\":17065:17524   */\n      jump(tag_458)\n    tag_460:\n        /* \"#utility.yul\":17069:17083   */\n      pop\n        /* \"#utility.yul\":17540:17544   */\n      dup3\n        /* \"#utility.yul\":17533:17544   */\n      swap8\n      pop\n        /* \"#utility.yul\":17560:17563   */\n      dup8\n        /* \"#utility.yul\":17553:17563   */\n      swap6\n      pop\n        /* \"#utility.yul\":16596:17569   */\n      pop\n      pop\n      pop\n      pop\n      pop\n        /* \"#utility.yul\":16410:17569   */\n      swap3\n      swap2\n      pop\n      pop\n      jump\t// out\n        /* \"#utility.yul\":17575:18072   */\n    tag_70:\n        /* \"#utility.yul\":17780:17784   */\n      0x00\n        /* \"#utility.yul\":17818:17820   */\n      0x20\n        /* \"#utility.yul\":17807:17816   */\n      dup3\n        /* \"#utility.yul\":17803:17821   */\n      add\n        /* \"#utility.yul\":17795:17821   */\n      swap1\n      pop\n        /* \"#utility.yul\":17867:17876   */\n      dup2\n        /* \"#utility.yul\":17861:17865   */\n      dup2\n        /* \"#utility.yul\":17857:17877   */\n      sub\n        /* \"#utility.yul\":17853:17854   */\n      0x00\n        /* \"#utility.yul\":17842:17851   */\n      dup4\n        /* \"#utility.yul\":17838:17855   */\n      add\n        /* \"#utility.yul\":17831:17878   */\n      mstore\n        /* \"#utility.yul\":17895:18065   */\n      tag_464\n        /* \"#utility.yul\":18060:18064   */\n      dup2\n        /* \"#utility.yul\":18051:18057   */\n      dup5\n        /* \"#utility.yul\":17895:18065   */\n      tag_284\n      jump\t// in\n    tag_464:\n        /* \"#utility.yul\":17887:18065   */\n      swap1\n      pop\n        /* \"#utility.yul\":17575:18072   */\n      swap3\n      swap2\n      pop\n      pop\n      jump\t// out\n        /* \"#utility.yul\":18078:18200   */\n    tag_285:\n        /* \"#utility.yul\":18151:18175   */\n      tag_466\n        /* \"#utility.yul\":18169:18174   */\n      dup2\n        /* \"#utility.yul\":18151:18175   */\n      tag_244\n      jump\t// in\n    tag_466:\n        /* \"#utility.yul\":18144:18149   */\n      dup2\n        /* \"#utility.yul\":18141:18176   */\n      eq\n        /* \"#utility.yul\":18131:18194   */\n      tag_467\n      jumpi\n        /* \"#utility.yul\":18190:18191   */\n      0x00\n        /* \"#utility.yul\":18187:18188   */\n      dup1\n        /* \"#utility.yul\":18180:18192   */\n      revert\n        /* \"#utility.yul\":18131:18194   */\n    tag_467:\n        /* \"#utility.yul\":18078:18200   */\n      pop\n      jump\t// out\n        /* \"#utility.yul\":18206:18345   */\n    tag_286:\n        /* \"#utility.yul\":18252:18257   */\n      0x00\n        /* \"#utility.yul\":18290:18296   */\n      dup2\n        /* \"#utility.yul\":18277:18297   */\n      calldataload\n        /* \"#utility.yul\":18268:18297   */\n      swap1\n      pop\n        /* \"#utility.yul\":18306:18339   */\n      tag_469\n        /* \"#utility.yul\":18333:18338   */\n      dup2\n        /* \"#utility.yul\":18306:18339   */\n      tag_285\n      jump\t// in\n    tag_469:\n        /* \"#utility.yul\":18206:18345   */\n      swap3\n      swap2\n      pop\n      pop\n      jump\t// out\n        /* \"#utility.yul\":18351:18489   */\n    tag_287:\n        /* \"#utility.yul\":18432:18464   */\n      tag_471\n        /* \"#utility.yul\":18458:18463   */\n      dup2\n        /* \"#utility.yul\":18432:18464   */\n      tag_268\n      jump\t// in\n    tag_471:\n        /* \"#utility.yul\":18425:18430   */\n      dup2\n        /* \"#utility.yul\":18422:18465   */\n      eq\n        /* \"#utility.yul\":18412:18483   */\n      tag_472\n      jumpi\n        /* \"#utility.yul\":18479:18480   */\n      0x00\n        /* \"#utility.yul\":18476:18477   */\n      dup1\n        /* \"#utility.yul\":18469:18481   */\n      revert\n        /* \"#utility.yul\":18412:18483   */\n    tag_472:\n        /* \"#utility.yul\":18351:18489   */\n      pop\n      jump\t// out\n        /* \"#utility.yul\":18495:18650   */\n    tag_288:\n        /* \"#utility.yul\":18549:18554   */\n      0x00\n        /* \"#utility.yul\":18587:18593   */\n      dup2\n        /* \"#utility.yul\":18574:18594   */\n      calldataload\n        /* \"#utility.yul\":18565:18594   */\n      swap1\n      pop\n        /* \"#utility.yul\":18603:18644   */\n      tag_474\n        /* \"#utility.yul\":18638:18643   */\n      dup2\n        /* \"#utility.yul\":18603:18644   */\n      tag_287\n      jump\t// in\n    tag_474:\n        /* \"#utility.yul\":18495:18650   */\n      swap3\n      swap2\n      pop\n      pop\n      jump\t// out\n        /* \"#utility.yul\":18656:19943   */\n    tag_80:\n        /* \"#utility.yul\":18779:18785   */\n      0x00\n        /* \"#utility.yul\":18787:18793   */\n      dup1\n        /* \"#utility.yul\":18795:18801   */\n      0x00\n        /* \"#utility.yul\":18803:18809   */\n      dup1\n        /* \"#utility.yul\":18811:18817   */\n      0x00\n        /* \"#utility.yul\":18860:18863   */\n      0xa0\n        /* \"#utility.yul\":18848:18857   */\n      dup7\n        /* \"#utility.yul\":18839:18846   */\n      dup9\n        /* \"#utility.yul\":18835:18858   */\n      sub\n        /* \"#utility.yul\":18831:18864   */\n      slt\n        /* \"#utility.yul\":18828:18948   */\n      iszero\n      tag_476\n      jumpi\n        /* \"#utility.yul\":18867:18946   */\n      tag_477\n      tag_238\n      jump\t// in\n    tag_477:\n        /* \"#utility.yul\":18828:18948   */\n    tag_476:\n        /* \"#utility.yul\":19015:19016   */\n      0x00\n        /* \"#utility.yul\":19004:19013   */\n      dup7\n        /* \"#utility.yul\":19000:19017   */\n      add\n        /* \"#utility.yul\":18987:19018   */\n      calldataload\n        /* \"#utility.yul\":19045:19063   */\n      0xffffffffffffffff\n        /* \"#utility.yul\":19037:19043   */\n      dup2\n        /* \"#utility.yul\":19034:19064   */\n      gt\n        /* \"#utility.yul\":19031:19148   */\n      iszero\n      tag_478\n      jumpi\n        /* \"#utility.yul\":19067:19146   */\n      tag_479\n      tag_239\n      jump\t// in\n    tag_479:\n        /* \"#utility.yul\":19031:19148   */\n    tag_478:\n        /* \"#utility.yul\":19172:19235   */\n      tag_480\n        /* \"#utility.yul\":19227:19234   */\n      dup9\n        /* \"#utility.yul\":19218:19224   */\n      dup3\n        /* \"#utility.yul\":19207:19216   */\n      dup10\n        /* \"#utility.yul\":19203:19225   */\n      add\n        /* \"#utility.yul\":19172:19235   */\n      tag_259\n      jump\t// in\n    tag_480:\n        /* \"#utility.yul\":19162:19235   */\n      swap6\n      pop\n        /* \"#utility.yul\":18958:19245   */\n      pop\n        /* \"#utility.yul\":19312:19314   */\n      0x20\n        /* \"#utility.yul\":19301:19310   */\n      dup7\n        /* \"#utility.yul\":19297:19315   */\n      add\n        /* \"#utility.yul\":19284:19316   */\n      calldataload\n        /* \"#utility.yul\":19343:19361   */\n      0xffffffffffffffff\n        /* \"#utility.yul\":19335:19341   */\n      dup2\n        /* \"#utility.yul\":19332:19362   */\n      gt\n        /* \"#utility.yul\":19329:19446   */\n      iszero\n      tag_481\n      jumpi\n        /* \"#utility.yul\":19365:19444   */\n      tag_482\n      tag_239\n      jump\t// in\n    tag_482:\n        /* \"#utility.yul\":19329:19446   */\n    tag_481:\n        /* \"#utility.yul\":19470:19533   */\n      tag_483\n        /* \"#utility.yul\":19525:19532   */\n      dup9\n        /* \"#utility.yul\":19516:19522   */\n      dup3\n        /* \"#utility.yul\":19505:19514   */\n      dup10\n        /* \"#utility.yul\":19501:19523   */\n      add\n        /* \"#utility.yul\":19470:19533   */\n      tag_259\n      jump\t// in\n    tag_483:\n        /* \"#utility.yul\":19460:19533   */\n      swap5\n      pop\n        /* \"#utility.yul\":19255:19543   */\n      pop\n        /* \"#utility.yul\":19582:19584   */\n      0x40\n        /* \"#utility.yul\":19608:19661   */\n      tag_484\n        /* \"#utility.yul\":19653:19660   */\n      dup9\n        /* \"#utility.yul\":19644:19650   */\n      dup3\n        /* \"#utility.yul\":19633:19642   */\n      dup10\n        /* \"#utility.yul\":19629:19651   */\n      add\n        /* \"#utility.yul\":19608:19661   */\n      tag_286\n      jump\t// in\n    tag_484:\n        /* \"#utility.yul\":19598:19661   */\n      swap4\n      pop\n        /* \"#utility.yul\":19553:19671   */\n      pop\n        /* \"#utility.yul\":19710:19712   */\n      0x60\n        /* \"#utility.yul\":19736:19789   */\n      tag_485\n        /* \"#utility.yul\":19781:19788   */\n      dup9\n        /* \"#utility.yul\":19772:19778   */\n      dup3\n        /* \"#utility.yul\":19761:19770   */\n      dup10\n        /* \"#utility.yul\":19757:19779   */\n      add\n        /* \"#utility.yul\":19736:19789   */\n      tag_286\n      jump\t// in\n    tag_485:\n        /* \"#utility.yul\":19726:19789   */\n      swap3\n      pop\n        /* \"#utility.yul\":19681:19799   */\n      pop\n        /* \"#utility.yul\":19838:19841   */\n      0x80\n        /* \"#utility.yul\":19865:19926   */\n      tag_486\n        /* \"#utility.yul\":19918:19925   */\n      dup9\n        /* \"#utility.yul\":19909:19915   */\n      dup3\n        /* \"#utility.yul\":19898:19907   */\n      dup10\n        /* \"#utility.yul\":19894:19916   */\n      add\n        /* \"#utility.yul\":19865:19926   */\n      tag_288\n      jump\t// in\n    tag_486:\n        /* \"#utility.yul\":19855:19926   */\n      swap2\n      pop\n        /* \"#utility.yul\":19809:19936   */\n      pop\n        /* \"#utility.yul\":18656:19943   */\n      swap3\n      swap6\n      pop\n      swap3\n      swap6\n      swap1\n      swap4\n      pop\n      jump\t// out\n        /* \"#utility.yul\":19949:20067   */\n    tag_289:\n        /* \"#utility.yul\":20036:20060   */\n      tag_488\n        /* \"#utility.yul\":20054:20059   */\n      dup2\n        /* \"#utility.yul\":20036:20060   */\n      tag_241\n      jump\t// in\n    tag_488:\n        /* \"#utility.yul\":20031:20034   */\n      dup3\n        /* \"#utility.yul\":20024:20061   */\n      mstore\n        /* \"#utility.yul\":19949:20067   */\n      pop\n      pop\n      jump\t// out\n        /* \"#utility.yul\":20073:20295   */\n    tag_86:\n        /* \"#utility.yul\":20166:20170   */\n      0x00\n        /* \"#utility.yul\":20204:20206   */\n      0x20\n        /* \"#utility.yul\":20193:20202   */\n      dup3\n        /* \"#utility.yul\":20189:20207   */\n      add\n        /* \"#utility.yul\":20181:20207   */\n      swap1\n      pop\n        /* \"#utility.yul\":20217:20288   */\n      tag_490\n        /* \"#utility.yul\":20285:20286   */\n      0x00\n        /* \"#utility.yul\":20274:20283   */\n      dup4\n        /* \"#utility.yul\":20270:20287   */\n      add\n        /* \"#utility.yul\":20261:20267   */\n      dup5\n        /* \"#utility.yul\":20217:20288   */\n      tag_289\n      jump\t// in\n    tag_490:\n        /* \"#utility.yul\":20073:20295   */\n      swap3\n      swap2\n      pop\n      pop\n      jump\t// out\n        /* \"#utility.yul\":20301:21135   */\n    tag_96:\n        /* \"#utility.yul\":20389:20395   */\n      0x00\n        /* \"#utility.yul\":20397:20403   */\n      dup1\n        /* \"#utility.yul\":20446:20448   */\n      0x40\n        /* \"#utility.yul\":20434:20443   */\n      dup4\n        /* \"#utility.yul\":20425:20432   */\n      dup6\n        /* \"#utility.yul\":20421:20444   */\n      sub\n        /* \"#utility.yul\":20417:20449   */\n      slt\n        /* \"#utility.yul\":20414:20533   */\n      iszero\n      tag_492\n      jumpi\n        /* \"#utility.yul\":20452:20531   */\n      tag_493\n      tag_238\n      jump\t// in\n    tag_493:\n        /* \"#utility.yul\":20414:20533   */\n    tag_492:\n        /* \"#utility.yul\":20600:20601   */\n      0x00\n        /* \"#utility.yul\":20589:20598   */\n      dup4\n        /* \"#utility.yul\":20585:20602   */\n      add\n        /* \"#utility.yul\":20572:20603   */\n      calldataload\n        /* \"#utility.yul\":20630:20648   */\n      0xffffffffffffffff\n        /* \"#utility.yul\":20622:20628   */\n      dup2\n        /* \"#utility.yul\":20619:20649   */\n      gt\n        /* \"#utility.yul\":20616:20733   */\n      iszero\n      tag_494\n      jumpi\n        /* \"#utility.yul\":20652:20731   */\n      tag_495\n      tag_239\n      jump\t// in\n    tag_495:\n        /* \"#utility.yul\":20616:20733   */\n    tag_494:\n        /* \"#utility.yul\":20757:20820   */\n      tag_496\n        /* \"#utility.yul\":20812:20819   */\n      dup6\n        /* \"#utility.yul\":20803:20809   */\n      dup3\n        /* \"#utility.yul\":20792:20801   */\n      dup7\n        /* \"#utility.yul\":20788:20810   */\n      add\n        /* \"#utility.yul\":20757:20820   */\n      tag_259\n      jump\t// in\n    tag_496:\n        /* \"#utility.yul\":20747:20820   */\n      swap3\n      pop\n        /* \"#utility.yul\":20543:20830   */\n      pop\n        /* \"#utility.yul\":20897:20899   */\n      0x20\n        /* \"#utility.yul\":20886:20895   */\n      dup4\n        /* \"#utility.yul\":20882:20900   */\n      add\n        /* \"#utility.yul\":20869:20901   */\n      calldataload\n        /* \"#utility.yul\":20928:20946   */\n      0xffffffffffffffff\n        /* \"#utility.yul\":20920:20926   */\n      dup2\n        /* \"#utility.yul\":20917:20947   */\n      gt\n        /* \"#utility.yul\":20914:21031   */\n      iszero\n      tag_497\n      jumpi\n        /* \"#utility.yul\":20950:21029   */\n      tag_498\n      tag_239\n      jump\t// in\n    tag_498:\n        /* \"#utility.yul\":20914:21031   */\n    tag_497:\n        /* \"#utility.yul\":21055:21118   */\n      tag_499\n        /* \"#utility.yul\":21110:21117   */\n      dup6\n        /* \"#utility.yul\":21101:21107   */\n      dup3\n        /* \"#utility.yul\":21090:21099   */\n      dup7\n        /* \"#utility.yul\":21086:21108   */\n      add\n        /* \"#utility.yul\":21055:21118   */\n      tag_259\n      jump\t// in\n    tag_499:\n        /* \"#utility.yul\":21045:21118   */\n      swap2\n      pop\n        /* \"#utility.yul\":20840:21128   */\n      pop\n        /* \"#utility.yul\":20301:21135   */\n      swap3\n      pop\n      swap3\n      swap1\n      pop\n      jump\t// out\n        /* \"#utility.yul\":21141:21321   */\n    tag_290:\n        /* \"#utility.yul\":21189:21266   */\n      0x4e487b7100000000000000000000000000000000000000000000000000000000\n        /* \"#utility.yul\":21186:21187   */\n      0x00\n        /* \"#utility.yul\":21179:21267   */\n      mstore\n        /* \"#utility.yul\":21286:21290   */\n      0x22\n        /* \"#utility.yul\":21283:21284   */\n      0x04\n        /* \"#utility.yul\":21276:21291   */\n      mstore\n        /* \"#utility.yul\":21310:21314   */\n      0x24\n        /* \"#utility.yul\":21307:21308   */\n      0x00\n        /* \"#utility.yul\":21300:21315   */\n      revert\n        /* \"#utility.yul\":21327:21647   */\n    tag_108:\n        /* \"#utility.yul\":21371:21377   */\n      0x00\n        /* \"#utility.yul\":21408:21409   */\n      0x02\n        /* \"#utility.yul\":21402:21406   */\n      dup3\n        /* \"#utility.yul\":21398:21410   */\n      div\n        /* \"#utility.yul\":21388:21410   */\n      swap1\n      pop\n        /* \"#utility.yul\":21455:21456   */\n      0x01\n        /* \"#utility.yul\":21449:21453   */\n      dup3\n        /* \"#utility.yul\":21445:21457   */\n      and\n        /* \"#utility.yul\":21476:21494   */\n      dup1\n        /* \"#utility.yul\":21466:21547   */\n      tag_502\n      jumpi\n        /* \"#utility.yul\":21532:21536   */\n      0x7f\n        /* \"#utility.yul\":21524:21530   */\n      dup3\n        /* \"#utility.yul\":21520:21537   */\n      and\n        /* \"#utility.yul\":21510:21537   */\n      swap2\n      pop\n        /* \"#utility.yul\":21466:21547   */\n    tag_502:\n        /* \"#utility.yul\":21594:21596   */\n      0x20\n        /* \"#utility.yul\":21586:21592   */\n      dup3\n        /* \"#utility.yul\":21583:21597   */\n      lt\n        /* \"#utility.yul\":21563:21581   */\n      dup2\n        /* \"#utility.yul\":21560:21598   */\n      sub\n        /* \"#utility.yul\":21557:21641   */\n      tag_503\n      jumpi\n        /* \"#utility.yul\":21613:21631   */\n      tag_504\n      tag_290\n      jump\t// in\n    tag_504:\n        /* \"#utility.yul\":21557:21641   */\n    tag_503:\n        /* \"#utility.yul\":21378:21647   */\n      pop\n        /* \"#utility.yul\":21327:21647   */\n      swap2\n      swap1\n      pop\n      jump\t// out\n        /* \"#utility.yul\":21653:21801   */\n    tag_291:\n        /* \"#utility.yul\":21755:21766   */\n      0x00\n        /* \"#utility.yul\":21792:21795   */\n      dup2\n        /* \"#utility.yul\":21777:21795   */\n      swap1\n      pop\n        /* \"#utility.yul\":21653:21801   */\n      swap3\n      swap2\n      pop\n      pop\n      jump\t// out\n        /* \"#utility.yul\":21807:22197   */\n    tag_292:\n        /* \"#utility.yul\":21913:21916   */\n      0x00\n        /* \"#utility.yul\":21941:21980   */\n      tag_507\n        /* \"#utility.yul\":21974:21979   */\n      dup3\n        /* \"#utility.yul\":21941:21980   */\n      tag_246\n      jump\t// in\n    tag_507:\n        /* \"#utility.yul\":21996:22085   */\n      tag_508\n        /* \"#utility.yul\":22078:22084   */\n      dup2\n        /* \"#utility.yul\":22073:22076   */\n      dup6\n        /* \"#utility.yul\":21996:22085   */\n      tag_291\n      jump\t// in\n    tag_508:\n        /* \"#utility.yul\":21989:22085   */\n      swap4\n      pop\n        /* \"#utility.yul\":22094:22159   */\n      tag_509\n        /* \"#utility.yul\":22152:22158   */\n      dup2\n        /* \"#utility.yul\":22147:22150   */\n      dup6\n        /* \"#utility.yul\":22140:22144   */\n      0x20\n        /* \"#utility.yul\":22133:22138   */\n      dup7\n        /* \"#utility.yul\":22129:22145   */\n      add\n        /* \"#utility.yul\":22094:22159   */\n      tag_248\n      jump\t// in\n    tag_509:\n        /* \"#utility.yul\":22184:22190   */\n      dup1\n        /* \"#utility.yul\":22179:22182   */\n      dup5\n        /* \"#utility.yul\":22175:22191   */\n      add\n        /* \"#utility.yul\":22168:22191   */\n      swap2\n      pop\n        /* \"#utility.yul\":21917:22197   */\n      pop\n        /* \"#utility.yul\":21807:22197   */\n      swap3\n      swap2\n      pop\n      pop\n      jump\t// out\n        /* \"#utility.yul\":22203:22478   */\n    tag_116:\n        /* \"#utility.yul\":22335:22338   */\n      0x00\n        /* \"#utility.yul\":22357:22452   */\n      tag_511\n        /* \"#utility.yul\":22448:22451   */\n      dup3\n        /* \"#utility.yul\":22439:22445   */\n      dup5\n        /* \"#utility.yul\":22357:22452   */\n      tag_292\n      jump\t// in\n    tag_511:\n        /* \"#utility.yul\":22350:22452   */\n      swap2\n      pop\n        /* \"#utility.yul\":22469:22472   */\n      dup2\n        /* \"#utility.yul\":22462:22472   */\n      swap1\n      pop\n        /* \"#utility.yul\":22203:22478   */\n      swap3\n      swap2\n      pop\n      pop\n      jump\t// out\n        /* \"#utility.yul\":22484:22664   */\n    tag_293:\n        /* \"#utility.yul\":22532:22609   */\n      0x4e487b7100000000000000000000000000000000000000000000000000000000\n        /* \"#utility.yul\":22529:22530   */\n      0x00\n        /* \"#utility.yul\":22522:22610   */\n      mstore\n        /* \"#utility.yul\":22629:22633   */\n      0x11\n        /* \"#utility.yul\":22626:22627   */\n      0x04\n        /* \"#utility.yul\":22619:22634   */\n      mstore\n        /* \"#utility.yul\":22653:22657   */\n      0x24\n        /* \"#utility.yul\":22650:22651   */\n      0x00\n        /* \"#utility.yul\":22643:22658   */\n      revert\n        /* \"#utility.yul\":22670:22903   */\n    tag_127:\n        /* \"#utility.yul\":22709:22712   */\n      0x00\n        /* \"#utility.yul\":22732:22756   */\n      tag_514\n        /* \"#utility.yul\":22750:22755   */\n      dup3\n        /* \"#utility.yul\":22732:22756   */\n      tag_244\n      jump\t// in\n    tag_514:\n        /* \"#utility.yul\":22723:22756   */\n      swap2\n      pop\n        /* \"#utility.yul\":22778:22844   */\n      0xffffffffffffffffffffffffffffffffffffffffffffffffffffffffffffffff\n        /* \"#utility.yul\":22771:22776   */\n      dup3\n        /* \"#utility.yul\":22768:22845   */\n      sub\n        /* \"#utility.yul\":22765:22868   */\n      tag_515\n      jumpi\n        /* \"#utility.yul\":22848:22866   */\n      tag_516\n      tag_293\n      jump\t// in\n    tag_516:\n        /* \"#utility.yul\":22765:22868   */\n    tag_515:\n        /* \"#utility.yul\":22895:22896   */\n      0x01\n        /* \"#utility.yul\":22888:22893   */\n      dup3\n        /* \"#utility.yul\":22884:22897   */\n      add\n        /* \"#utility.yul\":22877:22897   */\n      swap1\n      pop\n        /* \"#utility.yul\":22670:22903   */\n      swap2\n      swap1\n      pop\n      jump\t// out\n        /* \"#utility.yul\":22909:23050   */\n    tag_294:\n        /* \"#utility.yul\":22958:22962   */\n      0x00\n        /* \"#utility.yul\":22981:22984   */\n      dup2\n        /* \"#utility.yul\":22973:22984   */\n      swap1\n      pop\n        /* \"#utility.yul\":23004:23007   */\n      dup2\n        /* \"#utility.yul\":23001:23002   */\n      0x00\n        /* \"#utility.yul\":22994:23008   */\n      mstore\n        /* \"#utility.yul\":23038:23042   */\n      0x20\n        /* \"#utility.yul\":23035:23036   */\n      0x00\n        /* \"#utility.yul\":23025:23043   */\n      keccak256\n        /* \"#utility.yul\":23017:23043   */\n      swap1\n      pop\n        /* \"#utility.yul\":22909:23050   */\n      swap2\n      swap1\n      pop\n      jump\t// out\n        /* \"#utility.yul\":23056:23149   */\n    tag_295:\n        /* \"#utility.yul\":23093:23099   */\n      0x00\n        /* \"#utility.yul\":23140:23142   */\n      0x20\n        /* \"#utility.yul\":23135:23137   */\n      0x1f\n        /* \"#utility.yul\":23128:23133   */\n      dup4\n        /* \"#utility.yul\":23124:23138   */\n      add\n        /* \"#utility.yul\":23120:23143   */\n      div\n        /* \"#utility.yul\":23110:23143   */\n      swap1\n      pop\n        /* \"#utility.yul\":23056:23149   */\n      swap2\n      swap1\n      pop\n      jump\t// out\n        /* \"#utility.yul\":23155:23262   */\n    tag_296:\n        /* \"#utility.yul\":23199:23207   */\n      0x00\n        /* \"#utility.yul\":23249:23254   */\n      dup3\n        /* \"#utility.yul\":23243:23247   */\n      dup3\n        /* \"#utility.yul\":23239:23255   */\n      shl\n        /* \"#utility.yul\":23218:23255   */\n      swap1\n      pop\n        /* \"#utility.yul\":23155:23262   */\n      swap3\n      swap2\n      pop\n      pop\n      jump\t// out\n        /* \"#utility.yul\":23268:23661   */\n    tag_297:\n        /* \"#utility.yul\":23337:23343   */\n      0x00\n        /* \"#utility.yul\":23387:23388   */\n      0x08\n        /* \"#utility.yul\":23375:23385   */\n      dup4\n        /* \"#utility.yul\":23371:23389   */\n      mul\n        /* \"#utility.yul\":23410:23507   */\n      tag_521\n        /* \"#utility.yul\":23440:23506   */\n      0xffffffffffffffffffffffffffffffffffffffffffffffffffffffffffffffff\n        /* \"#utility.yul\":23429:23438   */\n      dup3\n        /* \"#utility.yul\":23410:23507   */\n      tag_296\n      jump\t// in\n    tag_521:\n        /* \"#utility.yul\":23528:23567   */\n      tag_522\n        /* \"#utility.yul\":23558:23566   */\n      dup7\n        /* \"#utility.yul\":23547:23556   */\n      dup4\n        /* \"#utility.yul\":23528:23567   */\n      tag_296\n      jump\t// in\n    tag_522:\n        /* \"#utility.yul\":23516:23567   */\n      swap6\n      pop\n        /* \"#utility.yul\":23600:23604   */\n      dup1\n        /* \"#utility.yul\":23596:23605   */\n      not\n        /* \"#utility.yul\":23589:23594   */\n      dup5\n        /* \"#utility.yul\":23585:23606   */\n      and\n        /* \"#utility.yul\":23576:23606   */\n      swap4\n      pop\n        /* \"#utility.yul\":23649:23653   */\n      dup1\n        /* \"#utility.yul\":23639:23647   */\n      dup7\n        /* \"#utility.yul\":23635:23654   */\n      and\n        /* \"#utility.yul\":23628:23633   */\n      dup5\n        /* \"#utility.yul\":23625:23655   */\n      or\n        /* \"#utility.yul\":23615:23655   */\n      swap3\n      pop\n        /* \"#utility.yul\":23344:23661   */\n      pop\n      pop\n        /* \"#utility.yul\":23268:23661   */\n      swap4\n      swap3\n      pop\n      pop\n      pop\n      jump\t// out\n        /* \"#utility.yul\":23667:23727   */\n    tag_298:\n        /* \"#utility.yul\":23695:23698   */\n      0x00\n        /* \"#utility.yul\":23716:23721   */\n      dup2\n        /* \"#utility.yul\":23709:23721   */\n      swap1\n      pop\n        /* \"#utility.yul\":23667:23727   */\n      swap2\n      swap1\n      pop\n      jump\t// out\n        /* \"#utility.yul\":23733:23875   */\n    tag_299:\n        /* \"#utility.yul\":23783:23792   */\n      0x00\n        /* \"#utility.yul\":23816:23869   */\n      tag_525\n        /* \"#utility.yul\":23834:23868   */\n      tag_526\n        /* \"#utility.yul\":23843:23867   */\n      tag_527\n        /* \"#utility.yul\":23861:23866   */\n      dup5\n        /* \"#utility.yul\":23843:23867   */\n      tag_244\n      jump\t// in\n    tag_527:\n        /* \"#utility.yul\":23834:23868   */\n      tag_298\n      jump\t// in\n    tag_526:\n        /* \"#utility.yul\":23816:23869   */\n      tag_244\n      jump\t// in\n    tag_525:\n        /* \"#utility.yul\":23803:23869   */\n      swap1\n      pop\n        /* \"#utility.yul\":23733:23875   */\n      swap2\n      swap1\n      pop\n      jump\t// out\n        /* \"#utility.yul\":23881:23956   */\n    tag_300:\n        /* \"#utility.yul\":23924:23927   */\n      0x00\n        /* \"#utility.yul\":23945:23950   */\n      dup2\n        /* \"#utility.yul\":23938:23950   */\n      swap1\n      pop\n        /* \"#utility.yul\":23881:23956   */\n      swap2\n      swap1\n      pop\n      jump\t// out\n        /* \"#utility.yul\":23962:24231   */\n    tag_301:\n        /* \"#utility.yul\":24072:24111   */\n      tag_530\n        /* \"#utility.yul\":24103:24110   */\n      dup4\n        /* \"#utility.yul\":24072:24111   */\n      tag_299\n      jump\t// in\n    tag_530:\n        /* \"#utility.yul\":24133:24224   */\n      tag_531\n        /* \"#utility.yul\":24182:24223   */\n      tag_532\n        /* \"#utility.yul\":24206:24222   */\n      dup3\n        /* \"#utility.yul\":24182:24223   */\n      tag_300\n      jump\t// in\n    tag_532:\n        /* \"#utility.yul\":24174:24180   */\n      dup5\n        /* \"#utility.yul\":24167:24171   */\n      dup5\n        /* \"#utility.yul\":24161:24172   */\n      sload\n        /* \"#utility.yul\":24133:24224   */\n      tag_297\n      jump\t// in\n    tag_531:\n        /* \"#utility.yul\":24127:24131   */\n      dup3\n        /* \"#utility.yul\":24120:24225   */\n      sstore\n        /* \"#utility.yul\":24038:24231   */\n      pop\n        /* \"#utility.yul\":23962:24231   */\n      pop\n      pop\n      pop\n      jump\t// out\n        /* \"#utility.yul\":24237:24310   */\n    tag_302:\n        /* \"#utility.yul\":24282:24285   */\n      0x00\n        /* \"#utility.yul\":24237:24310   */\n      swap1\n      jump\t// out\n        /* \"#utility.yul\":24316:24505   */\n    tag_303:\n        /* \"#utility.yul\":24393:24425   */\n      tag_535\n      tag_302\n      jump\t// in\n    tag_535:\n        /* \"#utility.yul\":24434:24499   */\n      tag_536\n        /* \"#utility.yul\":24492:24498   */\n      dup2\n        /* \"#utility.yul\":24484:24490   */\n      dup5\n        /* \"#utility.yul\":24478:24482   */\n      dup5\n        /* \"#utility.yul\":24434:24499   */\n      tag_301\n      jump\t// in\n    tag_536:\n        /* \"#utility.yul\":24369:24505   */\n      pop\n        /* \"#utility.yul\":24316:24505   */\n      pop\n      pop\n      jump\t// out\n        /* \"#utility.yul\":24511:24697   */\n    tag_304:\n        /* \"#utility.yul\":24571:24691   */\n    tag_538:\n        /* \"#utility.yul\":24588:24591   */\n      dup2\n        /* \"#utility.yul\":24581:24586   */\n      dup2\n        /* \"#utility.yul\":24578:24592   */\n      lt\n        /* \"#utility.yul\":24571:24691   */\n      iszero\n      tag_540\n      jumpi\n        /* \"#utility.yul\":24642:24681   */\n      tag_541\n        /* \"#utility.yul\":24679:24680   */\n      0x00\n        /* \"#utility.yul\":24672:24677   */\n      dup3\n        /* \"#utility.yul\":24642:24681   */\n      tag_303\n      jump\t// in\n    tag_541:\n        /* \"#utility.yul\":24615:24616   */\n      0x01\n        /* \"#utility.yul\":24608:24613   */\n      dup2\n        /* \"#utility.yul\":24604:24617   */\n      add\n        /* \"#utility.yul\":24595:24617   */\n      swap1\n      pop\n        /* \"#utility.yul\":24571:24691   */\n      jump(tag_538)\n    tag_540:\n        /* \"#utility.yul\":24511:24697   */\n      pop\n      pop\n      jump\t// out\n        /* \"#utility.yul\":24703:25246   */\n    tag_305:\n        /* \"#utility.yul\":24804:24806   */\n      0x1f\n        /* \"#utility.yul\":24799:24802   */\n      dup3\n        /* \"#utility.yul\":24796:24807   */\n      gt\n        /* \"#utility.yul\":24793:25239   */\n      iszero\n      tag_543\n      jumpi\n        /* \"#utility.yul\":24838:24876   */\n      tag_544\n        /* \"#utility.yul\":24870:24875   */\n      dup2\n        /* \"#utility.yul\":24838:24876   */\n      tag_294\n      jump\t// in\n    tag_544:\n        /* \"#utility.yul\":24922:24951   */\n      tag_545\n        /* \"#utility.yul\":24940:24950   */\n      dup5\n        /* \"#utility.yul\":24922:24951   */\n      tag_295\n      jump\t// in\n    tag_545:\n        /* \"#utility.yul\":24912:24920   */\n      dup2\n        /* \"#utility.yul\":24908:24952   */\n      add\n        /* \"#utility.yul\":25105:25107   */\n      0x20\n        /* \"#utility.yul\":25093:25103   */\n      dup6\n        /* \"#utility.yul\":25090:25108   */\n      lt\n        /* \"#utility.yul\":25087:25136   */\n      iszero\n      tag_546\n      jumpi\n        /* \"#utility.yul\":25126:25134   */\n      dup2\n        /* \"#utility.yul\":25111:25134   */\n      swap1\n      pop\n        /* \"#utility.yul\":25087:25136   */\n    tag_546:\n        /* \"#utility.yul\":25149:25229   */\n      tag_547\n        /* \"#utility.yul\":25205:25227   */\n      tag_548\n        /* \"#utility.yul\":25223:25226   */\n      dup6\n        /* \"#utility.yul\":25205:25227   */\n      tag_295\n      jump\t// in\n    tag_548:\n        /* \"#utility.yul\":25195:25203   */\n      dup4\n        /* \"#utility.yul\":25191:25228   */\n      add\n        /* \"#utility.yul\":25178:25189   */\n      dup3\n        /* \"#utility.yul\":25149:25229   */\n      tag_304\n      jump\t// in\n    tag_547:\n        /* \"#utility.yul\":24808:25239   */\n      pop\n      pop\n        /* \"#utility.yul\":24793:25239   */\n    tag_543:\n        /* \"#utility.yul\":24703:25246   */\n      pop\n      pop\n      pop\n      jump\t// out\n        /* \"#utility.yul\":25252:25369   */\n    tag_306:\n        /* \"#utility.yul\":25306:25314   */\n      0x00\n        /* \"#utility.yul\":25356:25361   */\n      dup3\n        /* \"#utility.yul\":25350:25354   */\n      dup3\n        /* \"#utility.yul\":25346:25362   */\n      shr\n        /* \"#utility.yul\":25325:25362   */\n      swap1\n      pop\n        /* \"#utility.yul\":25252:25369   */\n      swap3\n      swap2\n      pop\n      pop\n      jump\t// out\n        /* \"#utility.yul\":25375:25544   */\n    tag_307:\n        /* \"#utility.yul\":25419:25425   */\n      0x00\n        /* \"#utility.yul\":25452:25503   */\n      tag_551\n        /* \"#utility.yul\":25500:25501   */\n      0x00\n        /* \"#utility.yul\":25496:25502   */\n      not\n        /* \"#utility.yul\":25488:25493   */\n      dup5\n        /* \"#utility.yul\":25485:25486   */\n      0x08\n        /* \"#utility.yul\":25481:25494   */\n      mul\n        /* \"#utility.yul\":25452:25503   */\n      tag_306\n      jump\t// in\n    tag_551:\n        /* \"#utility.yul\":25448:25504   */\n      not\n        /* \"#utility.yul\":25533:25537   */\n      dup1\n        /* \"#utility.yul\":25527:25531   */\n      dup4\n        /* \"#utility.yul\":25523:25538   */\n      and\n        /* \"#utility.yul\":25513:25538   */\n      swap2\n      pop\n        /* \"#utility.yul\":25426:25544   */\n      pop\n        /* \"#utility.yul\":25375:25544   */\n      swap3\n      swap2\n      pop\n      pop\n      jump\t// out\n        /* \"#utility.yul\":25549:25844   */\n    tag_308:\n        /* \"#utility.yul\":25625:25629   */\n      0x00\n        /* \"#utility.yul\":25771:25800   */\n      tag_553\n        /* \"#utility.yul\":25796:25799   */\n      dup4\n        /* \"#utility.yul\":25790:25794   */\n      dup4\n        /* \"#utility.yul\":25771:25800   */\n      tag_307\n      jump\t// in\n    tag_553:\n        /* \"#utility.yul\":25763:25800   */\n      swap2\n      pop\n        /* \"#utility.yul\":25833:25836   */\n      dup3\n        /* \"#utility.yul\":25830:25831   */\n      0x02\n        /* \"#utility.yul\":25826:25837   */\n      mul\n        /* \"#utility.yul\":25820:25824   */\n      dup3\n        /* \"#utility.yul\":25817:25838   */\n      or\n        /* \"#utility.yul\":25809:25838   */\n      swap1\n      pop\n        /* \"#utility.yul\":25549:25844   */\n      swap3\n      swap2\n      pop\n      pop\n      jump\t// out\n        /* \"#utility.yul\":25849:27244   */\n    tag_201:\n        /* \"#utility.yul\":25966:26003   */\n      tag_555\n        /* \"#utility.yul\":25999:26002   */\n      dup3\n        /* \"#utility.yul\":25966:26003   */\n      tag_246\n      jump\t// in\n    tag_555:\n        /* \"#utility.yul\":26068:26086   */\n      0xffffffffffffffff\n        /* \"#utility.yul\":26060:26066   */\n      dup2\n        /* \"#utility.yul\":26057:26087   */\n      gt\n        /* \"#utility.yul\":26054:26110   */\n      iszero\n      tag_556\n      jumpi\n        /* \"#utility.yul\":26090:26108   */\n      tag_557\n      tag_253\n      jump\t// in\n    tag_557:\n        /* \"#utility.yul\":26054:26110   */\n    tag_556:\n        /* \"#utility.yul\":26134:26172   */\n      tag_558\n        /* \"#utility.yul\":26166:26170   */\n      dup3\n        /* \"#utility.yul\":26160:26171   */\n      sload\n        /* \"#utility.yul\":26134:26172   */\n      tag_108\n      jump\t// in\n    tag_558:\n        /* \"#utility.yul\":26219:26286   */\n      tag_559\n        /* \"#utility.yul\":26279:26285   */\n      dup3\n        /* \"#utility.yul\":26271:26277   */\n      dup3\n        /* \"#utility.yul\":26265:26269   */\n      dup6\n        /* \"#utility.yul\":26219:26286   */\n      tag_305\n      jump\t// in\n    tag_559:\n        /* \"#utility.yul\":26313:26314   */\n      0x00\n        /* \"#utility.yul\":26337:26341   */\n      0x20\n        /* \"#utility.yul\":26324:26341   */\n      swap1\n      pop\n        /* \"#utility.yul\":26369:26371   */\n      0x1f\n        /* \"#utility.yul\":26361:26367   */\n      dup4\n        /* \"#utility.yul\":26358:26372   */\n      gt\n        /* \"#utility.yul\":26386:26387   */\n      0x01\n        /* \"#utility.yul\":26381:26999   */\n      dup2\n      eq\n      tag_561\n      jumpi\n        /* \"#utility.yul\":27043:27044   */\n      0x00\n        /* \"#utility.yul\":27060:27066   */\n      dup5\n        /* \"#utility.yul\":27057:27134   */\n      iszero\n      tag_562\n      jumpi\n        /* \"#utility.yul\":27109:27118   */\n      dup3\n        /* \"#utility.yul\":27104:27107   */\n      dup8\n        /* \"#utility.yul\":27100:27119   */\n      add\n        /* \"#utility.yul\":27094:27120   */\n      mload\n        /* \"#utility.yul\":27085:27120   */\n      swap1\n      pop\n        /* \"#utility.yul\":27057:27134   */\n    tag_562:\n        /* \"#utility.yul\":27160:27227   */\n      tag_563\n        /* \"#utility.yul\":27220:27226   */\n      dup6\n        /* \"#utility.yul\":27213:27218   */\n      dup3\n        /* \"#utility.yul\":27160:27227   */\n      tag_308\n      jump\t// in\n    tag_563:\n        /* \"#utility.yul\":27154:27158   */\n      dup7\n        /* \"#utility.yul\":27147:27228   */\n      sstore\n        /* \"#utility.yul\":27016:27238   */\n      pop\n        /* \"#utility.yul\":26351:27238   */\n      jump(tag_560)\n        /* \"#utility.yul\":26381:26999   */\n    tag_561:\n        /* \"#utility.yul\":26433:26437   */\n      0x1f\n        /* \"#utility.yul\":26429:26438   */\n      not\n        /* \"#utility.yul\":26421:26427   */\n      dup5\n        /* \"#utility.yul\":26417:26439   */\n      and\n        /* \"#utility.yul\":26467:26504   */\n      tag_564\n        /* \"#utility.yul\":26499:26503   */\n      dup7\n        /* \"#utility.yul\":26467:26504   */\n      tag_294\n      jump\t// in\n    tag_564:\n        /* \"#utility.yul\":26526:26527   */\n      0x00\n        /* \"#utility.yul\":26540:26748   */\n    tag_565:\n        /* \"#utility.yul\":26554:26561   */\n      dup3\n        /* \"#utility.yul\":26551:26552   */\n      dup2\n        /* \"#utility.yul\":26548:26562   */\n      lt\n        /* \"#utility.yul\":26540:26748   */\n      iszero\n      tag_567\n      jumpi\n        /* \"#utility.yul\":26633:26642   */\n      dup5\n        /* \"#utility.yul\":26628:26631   */\n      dup10\n        /* \"#utility.yul\":26624:26643   */\n      add\n        /* \"#utility.yul\":26618:26644   */\n      mload\n        /* \"#utility.yul\":26610:26616   */\n      dup3\n        /* \"#utility.yul\":26603:26645   */\n      sstore\n        /* \"#utility.yul\":26684:26685   */\n      0x01\n        /* \"#utility.yul\":26676:26682   */\n      dup3\n        /* \"#utility.yul\":26672:26686   */\n      add\n        /* \"#utility.yul\":26662:26686   */\n      swap2\n      pop\n        /* \"#utility.yul\":26731:26733   */\n      0x20\n        /* \"#utility.yul\":26720:26729   */\n      dup6\n        /* \"#utility.yul\":26716:26734   */\n      add\n        /* \"#utility.yul\":26703:26734   */\n      swap5\n      pop\n        /* \"#utility.yul\":26577:26581   */\n      0x20\n        /* \"#utility.yul\":26574:26575   */\n      dup2\n        /* \"#utility.yul\":26570:26582   */\n      add\n        /* \"#utility.yul\":26565:26582   */\n      swap1\n      pop\n        /* \"#utility.yul\":26540:26748   */\n      jump(tag_565)\n    tag_567:\n        /* \"#utility.yul\":26776:26782   */\n      dup7\n        /* \"#utility.yul\":26767:26774   */\n      dup4\n        /* \"#utility.yul\":26764:26783   */\n      lt\n        /* \"#utility.yul\":26761:26940   */\n      iszero\n      tag_568\n      jumpi\n        /* \"#utility.yul\":26834:26843   */\n      dup5\n        /* \"#utility.yul\":26829:26832   */\n      dup10\n        /* \"#utility.yul\":26825:26844   */\n      add\n        /* \"#utility.yul\":26819:26845   */\n      mload\n        /* \"#utility.yul\":26877:26925   */\n      tag_569\n        /* \"#utility.yul\":26919:26923   */\n      0x1f\n        /* \"#utility.yul\":26911:26917   */\n      dup10\n        /* \"#utility.yul\":26907:26924   */\n      and\n        /* \"#utility.yul\":26896:26905   */\n      dup3\n        /* \"#utility.yul\":26877:26925   */\n      tag_307\n      jump\t// in\n    tag_569:\n        /* \"#utility.yul\":26869:26875   */\n      dup4\n        /* \"#utility.yul\":26862:26926   */\n      sstore\n        /* \"#utility.yul\":26784:26940   */\n      pop\n        /* \"#utility.yul\":26761:26940   */\n    tag_568:\n        /* \"#utility.yul\":26986:26987   */\n      0x01\n        /* \"#utility.yul\":26982:26983   */\n      0x02\n        /* \"#utility.yul\":26974:26980   */\n      dup9\n        /* \"#utility.yul\":26970:26984   */\n      mul\n        /* \"#utility.yul\":26966:26988   */\n      add\n        /* \"#utility.yul\":26960:26964   */\n      dup9\n        /* \"#utility.yul\":26953:26989   */\n      sstore\n        /* \"#utility.yul\":26388:26999   */\n      pop\n      pop\n      pop\n        /* \"#utility.yul\":26351:27238   */\n    tag_560:\n      pop\n        /* \"#utility.yul\":25941:27244   */\n      pop\n      pop\n      pop\n        /* \"#utility.yul\":25849:27244   */\n      pop\n      pop\n      jump\t// out\n\n    auxdata: 0xa2646970667358221220e642ab4f7f97c48e7ccaf866ea32dc4d704242b753e415c87f3d8f89e85c1fee64736f6c63430008180033\n}\n","bytecode":{"linkReferences":{},"object":"608060405234801562000010575f80fd5b5060405162002800380380620028008339818101604052810190620000369190620002d4565b5f821162000042575f80fd5b8060025f6101000a81548173ffffffffffffffffffffffffffffffffffffffff021916908373ffffffffffffffffffffffffffffffffffffffff160217905550835f9081620000929190620005af565b508260019081620000a49190620005af565b50816005819055505050505062000693565b5f604051905090565b5f80fd5b5f80fd5b5f80fd5b5f80fd5b5f601f19601f8301169050919050565b7f4e487b71000000000000000000000000000000000000000000000000000000005f52604160045260245ffd5b6200011782620000cf565b810181811067ffffffffffffffff82111715620001395762000138620000df565b5b80604052505050565b5f6200014d620000b6565b90506200015b82826200010c565b919050565b5f67ffffffffffffffff8211156200017d576200017c620000df565b5b6200018882620000cf565b9050602081019050919050565b5f5b83811015620001b457808201518184015260208101905062000197565b5f8484015250505050565b5f620001d5620001cf8462000160565b62000142565b905082815260208101848484011115620001f457620001f3620000cb565b5b6200020184828562000195565b509392505050565b5f82601f83011262000220576200021f620000c7565b5b815162000232848260208601620001bf565b91505092915050565b5f819050919050565b6200024f816200023b565b81146200025a575f80fd5b50565b5f815190506200026d8162000244565b92915050565b5f73ffffffffffffffffffffffffffffffffffffffff82169050919050565b5f6200029e8262000273565b9050919050565b620002b08162000292565b8114620002bb575f80fd5b50565b5f81519050620002ce81620002a5565b92915050565b5f805f8060808587031215620002ef57620002ee620000bf565b5b5f85015167ffffffffffffffff8111156200030f576200030e620000c3565b5b6200031d8782880162000209565b945050602085015167ffffffffffffffff811115620003415762000340620000c3565b5b6200034f8782880162000209565b935050604062000362878288016200025d565b92505060606200037587828801620002be565b91505092959194509250565b5f81519050919050565b7f4e487b71000000000000000000000000000000000000000000000000000000005f52602260045260245ffd5b5f6002820490506001821680620003d057607f821691505b602082108103620003e657620003e56200038b565b5b50919050565b5f819050815f5260205f209050919050565b5f6020601f8301049050919050565b5f82821b905092915050565b5f600883026200044a7fffffffffffffffffffffffffffffffffffffffffffffffffffffffffffffffff826200040d565b6200045686836200040d565b95508019841693508086168417925050509392505050565b5f819050919050565b5f62000497620004916200048b846200023b565b6200046e565b6200023b565b9050919050565b5f819050919050565b620004b28362000477565b620004ca620004c1826200049e565b84845462000419565b825550505050565b5f90565b620004e0620004d2565b620004ed818484620004a7565b505050565b5b818110156200051457620005085f82620004d6565b600181019050620004f3565b5050565b601f82111562000563576200052d81620003ec565b6200053884620003fe565b8101602085101562000548578190505b620005606200055785620003fe565b830182620004f2565b50505b505050565b5f82821c905092915050565b5f620005855f198460080262000568565b1980831691505092915050565b5f6200059f838362000574565b9150826002028217905092915050565b620005ba8262000381565b67ffffffffffffffff811115620005d657620005d5620000df565b5b620005e28254620003b8565b620005ef82828562000518565b5f60209050601f83116001811462000625575f841562000610578287015190505b6200061c858262000592565b8655506200068b565b601f1984166200063586620003ec565b5f5b828110156200065e5784890151825560018201915060208501945060208101905062000637565b868310156200067e57848901516200067a601f89168262000574565b8355505b6001600288020188555050505b505050505050565b61215f80620006a15f395ff3fe608060405260043610610108575f3560e01c8063885e7c6211610094578063d7bb99ba11610063578063d7bb99ba14610348578063e2e46b5214610352578063f01902151461037a578063f84038b1146103a2578063feed5561146103cc57610108565b8063885e7c62146102c2578063a26759cb146102ec578063a7ac8000146102f6578063d50095841461031e57610108565b80634051ddac116100db5780634051ddac146101c4578063692d51d2146101ee5780636f9fb98a146102325780637d6e5b9e1461025c5780638813ce121461029857610108565b80630a1443911461010c5780631a0925411461014857806330e8fc5c146101725780633410452a1461019a575b5f80fd5b348015610117575f80fd5b50610132600480360381019061012d91906114c1565b6103f6565b60405161013f9190611504565b60405180910390f35b348015610153575f80fd5b5061015c61040b565b60405161016991906115a7565b60405180910390f35b34801561017d575f80fd5b5061019860048036038101906101939190611728565b61049b565b005b3480156101a5575f80fd5b506101ae6106c3565b6040516101bb9190611504565b60405180910390f35b3480156101cf575f80fd5b506101d86106cc565b6040516101e59190611888565b60405180910390f35b3480156101f9575f80fd5b50610214600480360381019061020f91906118a8565b61085d565b6040516102299998979695949392919061191e565b60405180910390f35b34801561023d575f80fd5b50610246610a03565b6040516102539190611504565b60405180910390f35b348015610267575f80fd5b50610282600480360381019061027d91906118a8565b610a0a565b60405161028f9190611aac565b60405180910390f35b3480156102a3575f80fd5b506102ac610ba2565b6040516102b99190611bdb565b60405180910390f35b3480156102cd575f80fd5b506102d6610d27565b6040516102e391906115a7565b60405180910390f35b6102f4610db6565b005b348015610301575f80fd5b5061031c60048036038101906103179190611c4f565b610e10565b005b348015610329575f80fd5b50610332611013565b60405161033f9190611d0d565b60405180910390f35b61035061103b565b005b34801561035d575f80fd5b50610378600480360381019061037391906118a8565b6110ec565b005b348015610385575f80fd5b506103a0600480360381019061039b9190611d26565b61126a565b005b3480156103ad575f80fd5b506103b66113f6565b6040516103c39190611504565b60405180910390f35b3480156103d7575f80fd5b506103e06113ff565b6040516103ed9190611504565b60405180910390f35b6003602052805f5260405f205f915090505481565b60606001805461041a90611dc9565b80601f016020809104026020016040519081016040528092919081815260200182805461044690611dc9565b80156104915780601f1061046857610100808354040283529160200191610491565b820191905f5260205f20905b81548152906001019060200180831161047457829003601f168201915b5050505050905090565b60025f9054906101000a900473ffffffffffffffffffffffffffffffffffffffff1673ffffffffffffffffffffffffffffffffffffffff163373ffffffffffffffffffffffffffffffffffffffff16036104f3575f80fd5b5f6007836040516105049190611e33565b908152602001604051809103902090505f815f01805461052390611dc9565b90501161052e575f80fd5b8251815f01805461053e90611dc9565b905014610549575f80fd5b5f60035f3373ffffffffffffffffffffffffffffffffffffffff1673ffffffffffffffffffffffffffffffffffffffff1681526020019081526020015f205411610591575f80fd5b806007015f9054906101000a900460ff16156105ab575f80fd5b8060070160019054906101000a900460ff16156105c6575f80fd5b806008015f3373ffffffffffffffffffffffffffffffffffffffff1673ffffffffffffffffffffffffffffffffffffffff1681526020019081526020015f205f9054906101000a900460ff161561061b575f80fd5b6001816008015f3373ffffffffffffffffffffffffffffffffffffffff1673ffffffffffffffffffffffffffffffffffffffff1681526020019081526020015f205f6101000a81548160ff021916908315150217905550811561069257806004015f81548092919061068c90611e76565b91905055505b80600501548160040154106106be576001816007015f6101000a81548160ff0219169083151502179055505b505050565b5f600854905090565b6106d4611408565b5f6040518060e0016040528060025f9054906101000a900473ffffffffffffffffffffffffffffffffffffffff1673ffffffffffffffffffffffffffffffffffffffff1681526020015f805461072990611dc9565b80601f016020809104026020016040519081016040528092919081815260200182805461075590611dc9565b80156107a05780601f10610777576101008083540402835291602001916107a0565b820191905f5260205f20905b81548152906001019060200180831161078357829003601f168201915b50505050508152602001600180546107b790611dc9565b80601f01602080910402602001604051908101604052809291908181526020018280546107e390611dc9565b801561082e5780601f106108055761010080835404028352916020019161082e565b820191905f5260205f20905b81548152906001019060200180831161081157829003601f168201915b505050505081526020016005548152602001478152602001600454815260200160085481525090508091505090565b6007818051602081018201805184825260208301602085012081835280955050505050505f91509050805f01805461089490611dc9565b80601f01602080910402602001604051908101604052809291908181526020018280546108c090611dc9565b801561090b5780601f106108e25761010080835404028352916020019161090b565b820191905f5260205f20905b8154815290600101906020018083116108ee57829003601f168201915b50505050509080600101805461092090611dc9565b80601f016020809104026020016040519081016040528092919081815260200182805461094c90611dc9565b80156109975780601f1061096e57610100808354040283529160200191610997565b820191905f5260205f20905b81548152906001019060200180831161097a57829003601f168201915b505050505090806002015490806003015f9054906101000a900473ffffffffffffffffffffffffffffffffffffffff1690806004015490806005015490806006015490806007015f9054906101000a900460ff16908060070160019054906101000a900460ff16905089565b5f47905090565b60605f600783604051610a1d9190611e33565b90815260200160405180910390205f018054610a3890611dc9565b905003610a43575f80fd5b600782604051610a539190611e33565b9081526020016040518091039020600901805480602002602001604051908101604052809291908181526020015f905b82821015610b97578382905f5260205f2090600202016040518060400160405290815f82015f9054906101000a900473ffffffffffffffffffffffffffffffffffffffff1673ffffffffffffffffffffffffffffffffffffffff1673ffffffffffffffffffffffffffffffffffffffff168152602001600182018054610b0890611dc9565b80601f0160208091040260200160405190810160405280929190818152602001828054610b3490611dc9565b8015610b7f5780601f10610b5657610100808354040283529160200191610b7f565b820191905f5260205f20905b815481529060010190602001808311610b6257829003601f168201915b50505050508152505081526020019060010190610a83565b505050509050919050565b60606006805480602002602001604051908101604052809291908181526020015f905b82821015610d1e578382905f5260205f2090600302016040518060600160405290815f82018054610bf590611dc9565b80601f0160208091040260200160405190810160405280929190818152602001828054610c2190611dc9565b8015610c6c5780601f10610c4357610100808354040283529160200191610c6c565b820191905f5260205f20905b815481529060010190602001808311610c4f57829003601f168201915b50505050508152602001600182018054610c8590611dc9565b80601f0160208091040260200160405190810160405280929190818152602001828054610cb190611dc9565b8015610cfc5780601f10610cd357610100808354040283529160200191610cfc565b820191905f5260205f20905b815481529060010190602001808311610cdf57829003601f168201915b5050505050815260200160028201548152505081526020019060010190610bc5565b50505050905090565b60605f8054610d3590611dc9565b80601f0160208091040260200160405190810160405280929190818152602001828054610d6190611dc9565b8015610dac5780601f10610d8357610100808354040283529160200191610dac565b820191905f5260205f20905b815481529060010190602001808311610d8f57829003601f168201915b5050505050905090565b60025f9054906101000a900473ffffffffffffffffffffffffffffffffffffffff1673ffffffffffffffffffffffffffffffffffffffff163373ffffffffffffffffffffffffffffffffffffffff1614610e0e575f80fd5b565b60025f9054906101000a900473ffffffffffffffffffffffffffffffffffffffff1673ffffffffffffffffffffffffffffffffffffffff163373ffffffffffffffffffffffffffffffffffffffff1614610e68575f80fd5b5f855111610e74575f80fd5b5f845111610e80575f80fd5b5f8311610e8b575f80fd5b47831115610e97575f80fd5b5f8211610ea2575f80fd5b600454821115610eb0575f80fd5b5f600786604051610ec19190611e33565b9081526020016040518091039020905085815f019081610ee1919061205a565b5084816001019081610ef3919061205a565b5083816002018190555081816003015f6101000a81548173ffffffffffffffffffffffffffffffffffffffff021916908373ffffffffffffffffffffffffffffffffffffffff1602179055505f81600401819055505f81600601819055508281600501819055505f8160070160016101000a81548160ff02191690831515021790555060085f815480929190610f8890611e76565b91905055505f6040518060600160405280888152602001878152602001868152509050600681908060018154018082558091505060019003905f5260205f2090600302015f909190919091505f820151815f019081610fe7919061205a565b506020820151816001019081610ffd919061205a565b5060408201518160020155505050505050505050565b5f60025f9054906101000a900473ffffffffffffffffffffffffffffffffffffffff16905090565b600554341015611049575f80fd5b5f60035f3373ffffffffffffffffffffffffffffffffffffffff1673ffffffffffffffffffffffffffffffffffffffff1681526020019081526020015f205414611091575f80fd5b3460035f3373ffffffffffffffffffffffffffffffffffffffff1673ffffffffffffffffffffffffffffffffffffffff1681526020019081526020015f208190555060045f8154809291906110e590611e76565b9190505550565b60025f9054906101000a900473ffffffffffffffffffffffffffffffffffffffff1673ffffffffffffffffffffffffffffffffffffffff163373ffffffffffffffffffffffffffffffffffffffff1614611144575f80fd5b5f6007826040516111559190611e33565b908152602001604051809103902090505f815f01805461117490611dc9565b90501161117f575f80fd5b8151815f01805461118f90611dc9565b90501461119a575f80fd5b806007015f9054906101000a900460ff1680156111c657508060070160019054906101000a900460ff16155b6111ce575f80fd5b80600201544710156111de575f80fd5b806003015f9054906101000a900473ffffffffffffffffffffffffffffffffffffffff1673ffffffffffffffffffffffffffffffffffffffff166108fc826002015490811502906040515f60405180830381858888f19350505050158015611248573d5f803e3d5ffd5b5060018160070160016101000a81548160ff0219169083151502179055505050565b5f60035f3373ffffffffffffffffffffffffffffffffffffffff1673ffffffffffffffffffffffffffffffffffffffff1681526020019081526020015f2054116112b2575f80fd5b5f6007836040516112c39190611e33565b90815260200160405180910390205f0180546112de90611dc9565b9050036112e9575f80fd5b5f60405180604001604052803373ffffffffffffffffffffffffffffffffffffffff1681526020018381525090506007836040516113279190611e33565b908152602001604051809103902060090181908060018154018082558091505060019003905f5260205f2090600202015f909190919091505f820151815f015f6101000a81548173ffffffffffffffffffffffffffffffffffffffff021916908373ffffffffffffffffffffffffffffffffffffffff16021790555060208201518160010190816113b8919061205a565b5050506007836040516113cb9190611e33565b90815260200160405180910390206006015f8154809291906113ec90611e76565b9190505550505050565b5f600554905090565b5f600454905090565b6040518060e001604052805f73ffffffffffffffffffffffffffffffffffffffff16815260200160608152602001606081526020015f81526020015f81526020015f81526020015f81525090565b5f604051905090565b5f80fd5b5f80fd5b5f73ffffffffffffffffffffffffffffffffffffffff82169050919050565b5f61149082611467565b9050919050565b6114a081611486565b81146114aa575f80fd5b50565b5f813590506114bb81611497565b92915050565b5f602082840312156114d6576114d561145f565b5b5f6114e3848285016114ad565b91505092915050565b5f819050919050565b6114fe816114ec565b82525050565b5f6020820190506115175f8301846114f5565b92915050565b5f81519050919050565b5f82825260208201905092915050565b5f5b83811015611554578082015181840152602081019050611539565b5f8484015250505050565b5f601f19601f8301169050919050565b5f6115798261151d565b6115838185611527565b9350611593818560208601611537565b61159c8161155f565b840191505092915050565b5f6020820190508181035f8301526115bf818461156f565b905092915050565b5f80fd5b5f80fd5b7f4e487b71000000000000000000000000000000000000000000000000000000005f52604160045260245ffd5b6116058261155f565b810181811067ffffffffffffffff82111715611624576116236115cf565b5b80604052505050565b5f611636611456565b905061164282826115fc565b919050565b5f67ffffffffffffffff821115611661576116606115cf565b5b61166a8261155f565b9050602081019050919050565b828183375f83830152505050565b5f61169761169284611647565b61162d565b9050828152602081018484840111156116b3576116b26115cb565b5b6116be848285611677565b509392505050565b5f82601f8301126116da576116d96115c7565b5b81356116ea848260208601611685565b91505092915050565b5f8115159050919050565b611707816116f3565b8114611711575f80fd5b50565b5f81359050611722816116fe565b92915050565b5f806040838503121561173e5761173d61145f565b5b5f83013567ffffffffffffffff81111561175b5761175a611463565b5b611767858286016116c6565b925050602061177885828601611714565b9150509250929050565b61178b81611486565b82525050565b5f82825260208201905092915050565b5f6117ab8261151d565b6117b58185611791565b93506117c5818560208601611537565b6117ce8161155f565b840191505092915050565b6117e2816114ec565b82525050565b5f60e083015f8301516117fd5f860182611782565b506020830151848203602086015261181582826117a1565b9150506040830151848203604086015261182f82826117a1565b915050606083015161184460608601826117d9565b50608083015161185760808601826117d9565b5060a083015161186a60a08601826117d9565b5060c083015161187d60c08601826117d9565b508091505092915050565b5f6020820190508181035f8301526118a081846117e8565b905092915050565b5f602082840312156118bd576118bc61145f565b5b5f82013567ffffffffffffffff8111156118da576118d9611463565b5b6118e6848285016116c6565b91505092915050565b5f6118f982611467565b9050919050565b611909816118ef565b82525050565b611918816116f3565b82525050565b5f610120820190508181035f830152611937818c61156f565b9050818103602083015261194b818b61156f565b905061195a604083018a6114f5565b6119676060830189611900565b61197460808301886114f5565b61198160a08301876114f5565b61198e60c08301866114f5565b61199b60e083018561190f565b6119a961010083018461190f565b9a9950505050505050505050565b5f81519050919050565b5f82825260208201905092915050565b5f819050602082019050919050565b5f604083015f8301516119f55f860182611782565b5060208301518482036020860152611a0d82826117a1565b9150508091505092915050565b5f611a2583836119e0565b905092915050565b5f602082019050919050565b5f611a43826119b7565b611a4d81856119c1565b935083602082028501611a5f856119d1565b805f5b85811015611a9a5784840389528151611a7b8582611a1a565b9450611a8683611a2d565b925060208a01995050600181019050611a62565b50829750879550505050505092915050565b5f6020820190508181035f830152611ac48184611a39565b905092915050565b5f81519050919050565b5f82825260208201905092915050565b5f819050602082019050919050565b5f606083015f8301518482035f860152611b0f82826117a1565b91505060208301518482036020860152611b2982826117a1565b9150506040830151611b3e60408601826117d9565b508091505092915050565b5f611b548383611af5565b905092915050565b5f602082019050919050565b5f611b7282611acc565b611b7c8185611ad6565b935083602082028501611b8e85611ae6565b805f5b85811015611bc95784840389528151611baa8582611b49565b9450611bb583611b5c565b925060208a01995050600181019050611b91565b50829750879550505050505092915050565b5f6020820190508181035f830152611bf38184611b68565b905092915050565b611c04816114ec565b8114611c0e575f80fd5b50565b5f81359050611c1f81611bfb565b92915050565b611c2e816118ef565b8114611c38575f80fd5b50565b5f81359050611c4981611c25565b92915050565b5f805f805f60a08688031215611c6857611c6761145f565b5b5f86013567ffffffffffffffff811115611c8557611c84611463565b5b611c91888289016116c6565b955050602086013567ffffffffffffffff811115611cb257611cb1611463565b5b611cbe888289016116c6565b9450506040611ccf88828901611c11565b9350506060611ce088828901611c11565b9250506080611cf188828901611c3b565b9150509295509295909350565b611d0781611486565b82525050565b5f602082019050611d205f830184611cfe565b92915050565b5f8060408385031215611d3c57611d3b61145f565b5b5f83013567ffffffffffffffff811115611d5957611d58611463565b5b611d65858286016116c6565b925050602083013567ffffffffffffffff811115611d8657611d85611463565b5b611d92858286016116c6565b9150509250929050565b7f4e487b71000000000000000000000000000000000000000000000000000000005f52602260045260245ffd5b5f6002820490506001821680611de057607f821691505b602082108103611df357611df2611d9c565b5b50919050565b5f81905092915050565b5f611e0d8261151d565b611e178185611df9565b9350611e27818560208601611537565b80840191505092915050565b5f611e3e8284611e03565b915081905092915050565b7f4e487b71000000000000000000000000000000000000000000000000000000005f52601160045260245ffd5b5f611e80826114ec565b91507fffffffffffffffffffffffffffffffffffffffffffffffffffffffffffffffff8203611eb257611eb1611e49565b5b600182019050919050565b5f819050815f5260205f209050919050565b5f6020601f8301049050919050565b5f82821b905092915050565b5f60088302611f197fffffffffffffffffffffffffffffffffffffffffffffffffffffffffffffffff82611ede565b611f238683611ede565b95508019841693508086168417925050509392505050565b5f819050919050565b5f611f5e611f59611f54846114ec565b611f3b565b6114ec565b9050919050565b5f819050919050565b611f7783611f44565b611f8b611f8382611f65565b848454611eea565b825550505050565b5f90565b611f9f611f93565b611faa818484611f6e565b505050565b5b81811015611fcd57611fc25f82611f97565b600181019050611fb0565b5050565b601f82111561201257611fe381611ebd565b611fec84611ecf565b81016020851015611ffb578190505b61200f61200785611ecf565b830182611faf565b50505b505050565b5f82821c905092915050565b5f6120325f1984600802612017565b1980831691505092915050565b5f61204a8383612023565b9150826002028217905092915050565b6120638261151d565b67ffffffffffffffff81111561207c5761207b6115cf565b5b6120868254611dc9565b612091828285611fd1565b5f60209050601f8311600181146120c2575f84156120b0578287015190505b6120ba858261203f565b865550612121565b601f1984166120d086611ebd565b5f5b828110156120f7578489015182556001820191506020850194506020810190506120d2565b868310156121145784890151612110601f891682612023565b8355505b6001600288020188555050505b50505050505056fea2646970667358221220e642ab4f7f97c48e7ccaf866ea32dc4d704242b753e415c87f3d8f89e85c1fee64736f6c63430008180033","opcodes":"PUSH1 0x80 PUSH1 0x40 MSTORE CALLVALUE DUP1 ISZERO PUSH3 0x10 JUMPI PUSH0 DUP1 REVERT JUMPDEST POP PUSH1 0x40 MLOAD PUSH3 0x2800 CODESIZE SUB DUP1 PUSH3 0x2800 DUP4 CODECOPY DUP2 DUP2 ADD PUSH1 0x40 MSTORE DUP2 ADD SWAP1 PUSH3 0x36 SWAP2 SWAP1 PUSH3 0x2D4 JUMP JUMPDEST PUSH0 DUP3 GT PUSH3 0x42 JUMPI PUSH0 DUP1 REVERT JUMPDEST DUP1 PUSH1 0x2 PUSH0 PUSH2 0x100 EXP DUP2 SLOAD DUP2 PUSH20 0xFFFFFFFFFFFFFFFFFFFFFFFFFFFFFFFFFFFFFFFF MUL NOT AND SWAP1 DUP4 PUSH20 0xFFFFFFFFFFFFFFFFFFFFFFFFFFFFFFFFFFFFFFFF AND MUL OR SWAP1 SSTORE POP DUP4 PUSH0 SWAP1 DUP2 PUSH3 0x92 SWAP2 SWAP1 PUSH3 0x5AF JUMP JUMPDEST POP DUP3 PUSH1 0x1 SWAP1 DUP2 PUSH3 0xA4 SWAP2 SWAP1 PUSH3 0x5AF JUMP JUMPDEST POP DUP2 PUSH1 0x5 DUP2 SWAP1 SSTORE POP POP POP POP POP PUSH3 0x693 JUMP JUMPDEST PUSH0 PUSH1 0x40 MLOAD SWAP1 POP SWAP1 JUMP JUMPDEST PUSH0 DUP1 REVERT JUMPDEST PUSH0 DUP1 REVERT JUMPDEST PUSH0 DUP1 REVERT JUMPDEST PUSH0 DUP1 REVERT JUMPDEST PUSH0 PUSH1 0x1F NOT PUSH1 0x1F DUP4 ADD AND SWAP1 POP SWAP2 SWAP1 POP JUMP JUMPDEST PUSH32 0x4E487B7100000000000000000000000000000000000000000000000000000000 PUSH0 MSTORE PUSH1 0x41 PUSH1 0x4 MSTORE PUSH1 0x24 PUSH0 REVERT JUMPDEST PUSH3 0x117 DUP3 PUSH3 0xCF JUMP JUMPDEST DUP2 ADD DUP2 DUP2 LT PUSH8 0xFFFFFFFFFFFFFFFF DUP3 GT OR ISZERO PUSH3 0x139 JUMPI PUSH3 0x138 PUSH3 0xDF JUMP JUMPDEST JUMPDEST DUP1 PUSH1 0x40 MSTORE POP POP POP JUMP JUMPDEST PUSH0 PUSH3 0x14D PUSH3 0xB6 JUMP JUMPDEST SWAP1 POP PUSH3 0x15B DUP3 DUP3 PUSH3 0x10C JUMP JUMPDEST SWAP2 SWAP1 POP JUMP JUMPDEST PUSH0 PUSH8 0xFFFFFFFFFFFFFFFF DUP3 GT ISZERO PUSH3 0x17D JUMPI PUSH3 0x17C PUSH3 0xDF JUMP JUMPDEST JUMPDEST PUSH3 0x188 DUP3 PUSH3 0xCF JUMP JUMPDEST SWAP1 POP PUSH1 0x20 DUP2 ADD SWAP1 POP SWAP2 SWAP1 POP JUMP JUMPDEST PUSH0 JUMPDEST DUP4 DUP2 LT ISZERO PUSH3 0x1B4 JUMPI DUP1 DUP3 ADD MLOAD DUP2 DUP5 ADD MSTORE PUSH1 0x20 DUP2 ADD SWAP1 POP PUSH3 0x197 JUMP JUMPDEST PUSH0 DUP5 DUP5 ADD MSTORE POP POP POP POP JUMP JUMPDEST PUSH0 PUSH3 0x1D5 PUSH3 0x1CF DUP5 PUSH3 0x160 JUMP JUMPDEST PUSH3 0x142 JUMP JUMPDEST SWAP1 POP DUP3 DUP2 MSTORE PUSH1 0x20 DUP2 ADD DUP5 DUP5 DUP5 ADD GT ISZERO PUSH3 0x1F4 JUMPI PUSH3 0x1F3 PUSH3 0xCB JUMP JUMPDEST JUMPDEST PUSH3 0x201 DUP5 DUP3 DUP6 PUSH3 0x195 JUMP JUMPDEST POP SWAP4 SWAP3 POP POP POP JUMP JUMPDEST PUSH0 DUP3 PUSH1 0x1F DUP4 ADD SLT PUSH3 0x220 JUMPI PUSH3 0x21F PUSH3 0xC7 JUMP JUMPDEST JUMPDEST DUP2 MLOAD PUSH3 0x232 DUP5 DUP3 PUSH1 0x20 DUP7 ADD PUSH3 0x1BF JUMP JUMPDEST SWAP2 POP POP SWAP3 SWAP2 POP POP JUMP JUMPDEST PUSH0 DUP2 SWAP1 POP SWAP2 SWAP1 POP JUMP JUMPDEST PUSH3 0x24F DUP2 PUSH3 0x23B JUMP JUMPDEST DUP2 EQ PUSH3 0x25A JUMPI PUSH0 DUP1 REVERT JUMPDEST POP JUMP JUMPDEST PUSH0 DUP2 MLOAD SWAP1 POP PUSH3 0x26D DUP2 PUSH3 0x244 JUMP JUMPDEST SWAP3 SWAP2 POP POP JUMP JUMPDEST PUSH0 PUSH20 0xFFFFFFFFFFFFFFFFFFFFFFFFFFFFFFFFFFFFFFFF DUP3 AND SWAP1 POP SWAP2 SWAP1 POP JUMP JUMPDEST PUSH0 PUSH3 0x29E DUP3 PUSH3 0x273 JUMP JUMPDEST SWAP1 POP SWAP2 SWAP1 POP JUMP JUMPDEST PUSH3 0x2B0 DUP2 PUSH3 0x292 JUMP JUMPDEST DUP2 EQ PUSH3 0x2BB JUMPI PUSH0 DUP1 REVERT JUMPDEST POP JUMP JUMPDEST PUSH0 DUP2 MLOAD SWAP1 POP PUSH3 0x2CE DUP2 PUSH3 0x2A5 JUMP JUMPDEST SWAP3 SWAP2 POP POP JUMP JUMPDEST PUSH0 DUP1 PUSH0 DUP1 PUSH1 0x80 DUP6 DUP8 SUB SLT ISZERO PUSH3 0x2EF JUMPI PUSH3 0x2EE PUSH3 0xBF JUMP JUMPDEST JUMPDEST PUSH0 DUP6 ADD MLOAD PUSH8 0xFFFFFFFFFFFFFFFF DUP2 GT ISZERO PUSH3 0x30F JUMPI PUSH3 0x30E PUSH3 0xC3 JUMP JUMPDEST JUMPDEST PUSH3 0x31D DUP8 DUP3 DUP9 ADD PUSH3 0x209 JUMP JUMPDEST SWAP5 POP POP PUSH1 0x20 DUP6 ADD MLOAD PUSH8 0xFFFFFFFFFFFFFFFF DUP2 GT ISZERO PUSH3 0x341 JUMPI PUSH3 0x340 PUSH3 0xC3 JUMP JUMPDEST JUMPDEST PUSH3 0x34F DUP8 DUP3 DUP9 ADD PUSH3 0x209 JUMP JUMPDEST SWAP4 POP POP PUSH1 0x40 PUSH3 0x362 DUP8 DUP3 DUP9 ADD PUSH3 0x25D JUMP JUMPDEST SWAP3 POP POP PUSH1 0x60 PUSH3 0x375 DUP8 DUP3 DUP9 ADD PUSH3 0x2BE JUMP JUMPDEST SWAP2 POP POP SWAP3 SWAP6 SWAP2 SWAP5 POP SWAP3 POP JUMP JUMPDEST PUSH0 DUP2 MLOAD SWAP1 POP SWAP2 SWAP1 POP JUMP JUMPDEST PUSH32 0x4E487B7100000000000000000000000000000000000000000000000000000000 PUSH0 MSTORE PUSH1 0x22 PUSH1 0x4 MSTORE PUSH1 0x24 PUSH0 REVERT JUMPDEST PUSH0 PUSH1 0x2 DUP3 DIV SWAP1 POP PUSH1 0x1 DUP3 AND DUP1 PUSH3 0x3D0 JUMPI PUSH1 0x7F DUP3 AND SWAP2 POP JUMPDEST PUSH1 0x20 DUP3 LT DUP2 SUB PUSH3 0x3E6 JUMPI PUSH3 0x3E5 PUSH3 0x38B JUMP JUMPDEST JUMPDEST POP SWAP2 SWAP1 POP JUMP JUMPDEST PUSH0 DUP2 SWAP1 POP DUP2 PUSH0 MSTORE PUSH1 0x20 PUSH0 KECCAK256 SWAP1 POP SWAP2 SWAP1 POP JUMP JUMPDEST PUSH0 PUSH1 0x20 PUSH1 0x1F DUP4 ADD DIV SWAP1 POP SWAP2 SWAP1 POP JUMP JUMPDEST PUSH0 DUP3 DUP3 SHL SWAP1 POP SWAP3 SWAP2 POP POP JUMP JUMPDEST PUSH0 PUSH1 0x8 DUP4 MUL PUSH3 0x44A PUSH32 0xFFFFFFFFFFFFFFFFFFFFFFFFFFFFFFFFFFFFFFFFFFFFFFFFFFFFFFFFFFFFFFFF DUP3 PUSH3 0x40D JUMP JUMPDEST PUSH3 0x456 DUP7 DUP4 PUSH3 0x40D JUMP JUMPDEST SWAP6 POP DUP1 NOT DUP5 AND SWAP4 POP DUP1 DUP7 AND DUP5 OR SWAP3 POP POP POP SWAP4 SWAP3 POP POP POP JUMP JUMPDEST PUSH0 DUP2 SWAP1 POP SWAP2 SWAP1 POP JUMP JUMPDEST PUSH0 PUSH3 0x497 PUSH3 0x491 PUSH3 0x48B DUP5 PUSH3 0x23B JUMP JUMPDEST PUSH3 0x46E JUMP JUMPDEST PUSH3 0x23B JUMP JUMPDEST SWAP1 POP SWAP2 SWAP1 POP JUMP JUMPDEST PUSH0 DUP2 SWAP1 POP SWAP2 SWAP1 POP JUMP JUMPDEST PUSH3 0x4B2 DUP4 PUSH3 0x477 JUMP JUMPDEST PUSH3 0x4CA PUSH3 0x4C1 DUP3 PUSH3 0x49E JUMP JUMPDEST DUP5 DUP5 SLOAD PUSH3 0x419 JUMP JUMPDEST DUP3 SSTORE POP POP POP POP JUMP JUMPDEST PUSH0 SWAP1 JUMP JUMPDEST PUSH3 0x4E0 PUSH3 0x4D2 JUMP JUMPDEST PUSH3 0x4ED DUP2 DUP5 DUP5 PUSH3 0x4A7 JUMP JUMPDEST POP POP POP JUMP JUMPDEST JUMPDEST DUP2 DUP2 LT ISZERO PUSH3 0x514 JUMPI PUSH3 0x508 PUSH0 DUP3 PUSH3 0x4D6 JUMP JUMPDEST PUSH1 0x1 DUP2 ADD SWAP1 POP PUSH3 0x4F3 JUMP JUMPDEST POP POP JUMP JUMPDEST PUSH1 0x1F DUP3 GT ISZERO PUSH3 0x563 JUMPI PUSH3 0x52D DUP2 PUSH3 0x3EC JUMP JUMPDEST PUSH3 0x538 DUP5 PUSH3 0x3FE JUMP JUMPDEST DUP2 ADD PUSH1 0x20 DUP6 LT ISZERO PUSH3 0x548 JUMPI DUP2 SWAP1 POP JUMPDEST PUSH3 0x560 PUSH3 0x557 DUP6 PUSH3 0x3FE JUMP JUMPDEST DUP4 ADD DUP3 PUSH3 0x4F2 JUMP JUMPDEST POP POP JUMPDEST POP POP POP JUMP JUMPDEST PUSH0 DUP3 DUP3 SHR SWAP1 POP SWAP3 SWAP2 POP POP JUMP JUMPDEST PUSH0 PUSH3 0x585 PUSH0 NOT DUP5 PUSH1 0x8 MUL PUSH3 0x568 JUMP JUMPDEST NOT DUP1 DUP4 AND SWAP2 POP POP SWAP3 SWAP2 POP POP JUMP JUMPDEST PUSH0 PUSH3 0x59F DUP4 DUP4 PUSH3 0x574 JUMP JUMPDEST SWAP2 POP DUP3 PUSH1 0x2 MUL DUP3 OR SWAP1 POP SWAP3 SWAP2 POP POP JUMP JUMPDEST PUSH3 0x5BA DUP3 PUSH3 0x381 JUMP JUMPDEST PUSH8 0xFFFFFFFFFFFFFFFF DUP2 GT ISZERO PUSH3 0x5D6 JUMPI PUSH3 0x5D5 PUSH3 0xDF JUMP JUMPDEST JUMPDEST PUSH3 0x5E2 DUP3 SLOAD PUSH3 0x3B8 JUMP JUMPDEST PUSH3 0x5EF DUP3 DUP3 DUP6 PUSH3 0x518 JUMP JUMPDEST PUSH0 PUSH1 0x20 SWAP1 POP PUSH1 0x1F DUP4 GT PUSH1 0x1 DUP2 EQ PUSH3 0x625 JUMPI PUSH0 DUP5 ISZERO PUSH3 0x610 JUMPI DUP3 DUP8 ADD MLOAD SWAP1 POP JUMPDEST PUSH3 0x61C DUP6 DUP3 PUSH3 0x592 JUMP JUMPDEST DUP7 SSTORE POP PUSH3 0x68B JUMP JUMPDEST PUSH1 0x1F NOT DUP5 AND PUSH3 0x635 DUP7 PUSH3 0x3EC JUMP JUMPDEST PUSH0 JUMPDEST DUP3 DUP2 LT ISZERO PUSH3 0x65E JUMPI DUP5 DUP10 ADD MLOAD DUP3 SSTORE PUSH1 0x1 DUP3 ADD SWAP2 POP PUSH1 0x20 DUP6 ADD SWAP5 POP PUSH1 0x20 DUP2 ADD SWAP1 POP PUSH3 0x637 JUMP JUMPDEST DUP7 DUP4 LT ISZERO PUSH3 0x67E JUMPI DUP5 DUP10 ADD MLOAD PUSH3 0x67A PUSH1 0x1F DUP10 AND DUP3 PUSH3 0x574 JUMP JUMPDEST DUP4 SSTORE POP JUMPDEST PUSH1 0x1 PUSH1 0x2 DUP9 MUL ADD DUP9 SSTORE POP POP POP JUMPDEST POP POP POP POP POP POP JUMP JUMPDEST PUSH2 0x215F DUP1 PUSH3 0x6A1 PUSH0 CODECOPY PUSH0 RETURN INVALID PUSH1 0x80 PUSH1 0x40 MSTORE PUSH1 0x4 CALLDATASIZE LT PUSH2 0x108 JUMPI PUSH0 CALLDATALOAD PUSH1 0xE0 SHR DUP1 PUSH4 0x885E7C62 GT PUSH2 0x94 JUMPI DUP1 PUSH4 0xD7BB99BA GT PUSH2 0x63 JUMPI DUP1 PUSH4 0xD7BB99BA EQ PUSH2 0x348 JUMPI DUP1 PUSH4 0xE2E46B52 EQ PUSH2 0x352 JUMPI DUP1 PUSH4 0xF0190215 EQ PUSH2 0x37A JUMPI DUP1 PUSH4 0xF84038B1 EQ PUSH2 0x3A2 JUMPI DUP1 PUSH4 0xFEED5561 EQ PUSH2 0x3CC JUMPI PUSH2 0x108 JUMP JUMPDEST DUP1 PUSH4 0x885E7C62 EQ PUSH2 0x2C2 JUMPI DUP1 PUSH4 0xA26759CB EQ PUSH2 0x2EC JUMPI DUP1 PUSH4 0xA7AC8000 EQ PUSH2 0x2F6 JUMPI DUP1 PUSH4 0xD5009584 EQ PUSH2 0x31E JUMPI PUSH2 0x108 JUMP JUMPDEST DUP1 PUSH4 0x4051DDAC GT PUSH2 0xDB JUMPI DUP1 PUSH4 0x4051DDAC EQ PUSH2 0x1C4 JUMPI DUP1 PUSH4 0x692D51D2 EQ PUSH2 0x1EE JUMPI DUP1 PUSH4 0x6F9FB98A EQ PUSH2 0x232 JUMPI DUP1 PUSH4 0x7D6E5B9E EQ PUSH2 0x25C JUMPI DUP1 PUSH4 0x8813CE12 EQ PUSH2 0x298 JUMPI PUSH2 0x108 JUMP JUMPDEST DUP1 PUSH4 0xA144391 EQ PUSH2 0x10C JUMPI DUP1 PUSH4 0x1A092541 EQ PUSH2 0x148 JUMPI DUP1 PUSH4 0x30E8FC5C EQ PUSH2 0x172 JUMPI DUP1 PUSH4 0x3410452A EQ PUSH2 0x19A JUMPI JUMPDEST PUSH0 DUP1 REVERT JUMPDEST CALLVALUE DUP1 ISZERO PUSH2 0x117 JUMPI PUSH0 DUP1 REVERT JUMPDEST POP PUSH2 0x132 PUSH1 0x4 DUP1 CALLDATASIZE SUB DUP2 ADD SWAP1 PUSH2 0x12D SWAP2 SWAP1 PUSH2 0x14C1 JUMP JUMPDEST PUSH2 0x3F6 JUMP JUMPDEST PUSH1 0x40 MLOAD PUSH2 0x13F SWAP2 SWAP1 PUSH2 0x1504 JUMP JUMPDEST PUSH1 0x40 MLOAD DUP1 SWAP2 SUB SWAP1 RETURN JUMPDEST CALLVALUE DUP1 ISZERO PUSH2 0x153 JUMPI PUSH0 DUP1 REVERT JUMPDEST POP PUSH2 0x15C PUSH2 0x40B JUMP JUMPDEST PUSH1 0x40 MLOAD PUSH2 0x169 SWAP2 SWAP1 PUSH2 0x15A7 JUMP JUMPDEST PUSH1 0x40 MLOAD DUP1 SWAP2 SUB SWAP1 RETURN JUMPDEST CALLVALUE DUP1 ISZERO PUSH2 0x17D JUMPI PUSH0 DUP1 REVERT JUMPDEST POP PUSH2 0x198 PUSH1 0x4 DUP1 CALLDATASIZE SUB DUP2 ADD SWAP1 PUSH2 0x193 SWAP2 SWAP1 PUSH2 0x1728 JUMP JUMPDEST PUSH2 0x49B JUMP JUMPDEST STOP JUMPDEST CALLVALUE DUP1 ISZERO PUSH2 0x1A5 JUMPI PUSH0 DUP1 REVERT JUMPDEST POP PUSH2 0x1AE PUSH2 0x6C3 JUMP JUMPDEST PUSH1 0x40 MLOAD PUSH2 0x1BB SWAP2 SWAP1 PUSH2 0x1504 JUMP JUMPDEST PUSH1 0x40 MLOAD DUP1 SWAP2 SUB SWAP1 RETURN JUMPDEST CALLVALUE DUP1 ISZERO PUSH2 0x1CF JUMPI PUSH0 DUP1 REVERT JUMPDEST POP PUSH2 0x1D8 PUSH2 0x6CC JUMP JUMPDEST PUSH1 0x40 MLOAD PUSH2 0x1E5 SWAP2 SWAP1 PUSH2 0x1888 JUMP JUMPDEST PUSH1 0x40 MLOAD DUP1 SWAP2 SUB SWAP1 RETURN JUMPDEST CALLVALUE DUP1 ISZERO PUSH2 0x1F9 JUMPI PUSH0 DUP1 REVERT JUMPDEST POP PUSH2 0x214 PUSH1 0x4 DUP1 CALLDATASIZE SUB DUP2 ADD SWAP1 PUSH2 0x20F SWAP2 SWAP1 PUSH2 0x18A8 JUMP JUMPDEST PUSH2 0x85D JUMP JUMPDEST PUSH1 0x40 MLOAD PUSH2 0x229 SWAP10 SWAP9 SWAP8 SWAP7 SWAP6 SWAP5 SWAP4 SWAP3 SWAP2 SWAP1 PUSH2 0x191E JUMP JUMPDEST PUSH1 0x40 MLOAD DUP1 SWAP2 SUB SWAP1 RETURN JUMPDEST CALLVALUE DUP1 ISZERO PUSH2 0x23D JUMPI PUSH0 DUP1 REVERT JUMPDEST POP PUSH2 0x246 PUSH2 0xA03 JUMP JUMPDEST PUSH1 0x40 MLOAD PUSH2 0x253 SWAP2 SWAP1 PUSH2 0x1504 JUMP JUMPDEST PUSH1 0x40 MLOAD DUP1 SWAP2 SUB SWAP1 RETURN JUMPDEST CALLVALUE DUP1 ISZERO PUSH2 0x267 JUMPI PUSH0 DUP1 REVERT JUMPDEST POP PUSH2 0x282 PUSH1 0x4 DUP1 CALLDATASIZE SUB DUP2 ADD SWAP1 PUSH2 0x27D SWAP2 SWAP1 PUSH2 0x18A8 JUMP JUMPDEST PUSH2 0xA0A JUMP JUMPDEST PUSH1 0x40 MLOAD PUSH2 0x28F SWAP2 SWAP1 PUSH2 0x1AAC JUMP JUMPDEST PUSH1 0x40 MLOAD DUP1 SWAP2 SUB SWAP1 RETURN JUMPDEST CALLVALUE DUP1 ISZERO PUSH2 0x2A3 JUMPI PUSH0 DUP1 REVERT JUMPDEST POP PUSH2 0x2AC PUSH2 0xBA2 JUMP JUMPDEST PUSH1 0x40 MLOAD PUSH2 0x2B9 SWAP2 SWAP1 PUSH2 0x1BDB JUMP JUMPDEST PUSH1 0x40 MLOAD DUP1 SWAP2 SUB SWAP1 RETURN JUMPDEST CALLVALUE DUP1 ISZERO PUSH2 0x2CD JUMPI PUSH0 DUP1 REVERT JUMPDEST POP PUSH2 0x2D6 PUSH2 0xD27 JUMP JUMPDEST PUSH1 0x40 MLOAD PUSH2 0x2E3 SWAP2 SWAP1 PUSH2 0x15A7 JUMP JUMPDEST PUSH1 0x40 MLOAD DUP1 SWAP2 SUB SWAP1 RETURN JUMPDEST PUSH2 0x2F4 PUSH2 0xDB6 JUMP JUMPDEST STOP JUMPDEST CALLVALUE DUP1 ISZERO PUSH2 0x301 JUMPI PUSH0 DUP1 REVERT JUMPDEST POP PUSH2 0x31C PUSH1 0x4 DUP1 CALLDATASIZE SUB DUP2 ADD SWAP1 PUSH2 0x317 SWAP2 SWAP1 PUSH2 0x1C4F JUMP JUMPDEST PUSH2 0xE10 JUMP JUMPDEST STOP JUMPDEST CALLVALUE DUP1 ISZERO PUSH2 0x329 JUMPI PUSH0 DUP1 REVERT JUMPDEST POP PUSH2 0x332 PUSH2 0x1013 JUMP JUMPDEST PUSH1 0x40 MLOAD PUSH2 0x33F SWAP2 SWAP1 PUSH2 0x1D0D JUMP JUMPDEST PUSH1 0x40 MLOAD DUP1 SWAP2 SUB SWAP1 RETURN JUMPDEST PUSH2 0x350 PUSH2 0x103B JUMP JUMPDEST STOP JUMPDEST CALLVALUE DUP1 ISZERO PUSH2 0x35D JUMPI PUSH0 DUP1 REVERT JUMPDEST POP PUSH2 0x378 PUSH1 0x4 DUP1 CALLDATASIZE SUB DUP2 ADD SWAP1 PUSH2 0x373 SWAP2 SWAP1 PUSH2 0x18A8 JUMP JUMPDEST PUSH2 0x10EC JUMP JUMPDEST STOP JUMPDEST CALLVALUE DUP1 ISZERO PUSH2 0x385 JUMPI PUSH0 DUP1 REVERT JUMPDEST POP PUSH2 0x3A0 PUSH1 0x4 DUP1 CALLDATASIZE SUB DUP2 ADD SWAP1 PUSH2 0x39B SWAP2 SWAP1 PUSH2 0x1D26 JUMP JUMPDEST PUSH2 0x126A JUMP JUMPDEST STOP JUMPDEST CALLVALUE DUP1 ISZERO PUSH2 0x3AD JUMPI PUSH0 DUP1 REVERT JUMPDEST POP PUSH2 0x3B6 PUSH2 0x13F6 JUMP JUMPDEST PUSH1 0x40 MLOAD PUSH2 0x3C3 SWAP2 SWAP1 PUSH2 0x1504 JUMP JUMPDEST PUSH1 0x40 MLOAD DUP1 SWAP2 SUB SWAP1 RETURN JUMPDEST CALLVALUE DUP1 ISZERO PUSH2 0x3D7 JUMPI PUSH0 DUP1 REVERT JUMPDEST POP PUSH2 0x3E0 PUSH2 0x13FF JUMP JUMPDEST PUSH1 0x40 MLOAD PUSH2 0x3ED SWAP2 SWAP1 PUSH2 0x1504 JUMP JUMPDEST PUSH1 0x40 MLOAD DUP1 SWAP2 SUB SWAP1 RETURN JUMPDEST PUSH1 0x3 PUSH1 0x20 MSTORE DUP1 PUSH0 MSTORE PUSH1 0x40 PUSH0 KECCAK256 PUSH0 SWAP2 POP SWAP1 POP SLOAD DUP2 JUMP JUMPDEST PUSH1 0x60 PUSH1 0x1 DUP1 SLOAD PUSH2 0x41A SWAP1 PUSH2 0x1DC9 JUMP JUMPDEST DUP1 PUSH1 0x1F ADD PUSH1 0x20 DUP1 SWAP2 DIV MUL PUSH1 0x20 ADD PUSH1 0x40 MLOAD SWAP1 DUP2 ADD PUSH1 0x40 MSTORE DUP1 SWAP3 SWAP2 SWAP1 DUP2 DUP2 MSTORE PUSH1 0x20 ADD DUP3 DUP1 SLOAD PUSH2 0x446 SWAP1 PUSH2 0x1DC9 JUMP JUMPDEST DUP1 ISZERO PUSH2 0x491 JUMPI DUP1 PUSH1 0x1F LT PUSH2 0x468 JUMPI PUSH2 0x100 DUP1 DUP4 SLOAD DIV MUL DUP4 MSTORE SWAP2 PUSH1 0x20 ADD SWAP2 PUSH2 0x491 JUMP JUMPDEST DUP3 ADD SWAP2 SWAP1 PUSH0 MSTORE PUSH1 0x20 PUSH0 KECCAK256 SWAP1 JUMPDEST DUP2 SLOAD DUP2 MSTORE SWAP1 PUSH1 0x1 ADD SWAP1 PUSH1 0x20 ADD DUP1 DUP4 GT PUSH2 0x474 JUMPI DUP3 SWAP1 SUB PUSH1 0x1F AND DUP3 ADD SWAP2 JUMPDEST POP POP POP POP POP SWAP1 POP SWAP1 JUMP JUMPDEST PUSH1 0x2 PUSH0 SWAP1 SLOAD SWAP1 PUSH2 0x100 EXP SWAP1 DIV PUSH20 0xFFFFFFFFFFFFFFFFFFFFFFFFFFFFFFFFFFFFFFFF AND PUSH20 0xFFFFFFFFFFFFFFFFFFFFFFFFFFFFFFFFFFFFFFFF AND CALLER PUSH20 0xFFFFFFFFFFFFFFFFFFFFFFFFFFFFFFFFFFFFFFFF AND SUB PUSH2 0x4F3 JUMPI PUSH0 DUP1 REVERT JUMPDEST PUSH0 PUSH1 0x7 DUP4 PUSH1 0x40 MLOAD PUSH2 0x504 SWAP2 SWAP1 PUSH2 0x1E33 JUMP JUMPDEST SWAP1 DUP2 MSTORE PUSH1 0x20 ADD PUSH1 0x40 MLOAD DUP1 SWAP2 SUB SWAP1 KECCAK256 SWAP1 POP PUSH0 DUP2 PUSH0 ADD DUP1 SLOAD PUSH2 0x523 SWAP1 PUSH2 0x1DC9 JUMP JUMPDEST SWAP1 POP GT PUSH2 0x52E JUMPI PUSH0 DUP1 REVERT JUMPDEST DUP3 MLOAD DUP2 PUSH0 ADD DUP1 SLOAD PUSH2 0x53E SWAP1 PUSH2 0x1DC9 JUMP JUMPDEST SWAP1 POP EQ PUSH2 0x549 JUMPI PUSH0 DUP1 REVERT JUMPDEST PUSH0 PUSH1 0x3 PUSH0 CALLER PUSH20 0xFFFFFFFFFFFFFFFFFFFFFFFFFFFFFFFFFFFFFFFF AND PUSH20 0xFFFFFFFFFFFFFFFFFFFFFFFFFFFFFFFFFFFFFFFF AND DUP2 MSTORE PUSH1 0x20 ADD SWAP1 DUP2 MSTORE PUSH1 0x20 ADD PUSH0 KECCAK256 SLOAD GT PUSH2 0x591 JUMPI PUSH0 DUP1 REVERT JUMPDEST DUP1 PUSH1 0x7 ADD PUSH0 SWAP1 SLOAD SWAP1 PUSH2 0x100 EXP SWAP1 DIV PUSH1 0xFF AND ISZERO PUSH2 0x5AB JUMPI PUSH0 DUP1 REVERT JUMPDEST DUP1 PUSH1 0x7 ADD PUSH1 0x1 SWAP1 SLOAD SWAP1 PUSH2 0x100 EXP SWAP1 DIV PUSH1 0xFF AND ISZERO PUSH2 0x5C6 JUMPI PUSH0 DUP1 REVERT JUMPDEST DUP1 PUSH1 0x8 ADD PUSH0 CALLER PUSH20 0xFFFFFFFFFFFFFFFFFFFFFFFFFFFFFFFFFFFFFFFF AND PUSH20 0xFFFFFFFFFFFFFFFFFFFFFFFFFFFFFFFFFFFFFFFF AND DUP2 MSTORE PUSH1 0x20 ADD SWAP1 DUP2 MSTORE PUSH1 0x20 ADD PUSH0 KECCAK256 PUSH0 SWAP1 SLOAD SWAP1 PUSH2 0x100 EXP SWAP1 DIV PUSH1 0xFF AND ISZERO PUSH2 0x61B JUMPI PUSH0 DUP1 REVERT JUMPDEST PUSH1 0x1 DUP2 PUSH1 0x8 ADD PUSH0 CALLER PUSH20 0xFFFFFFFFFFFFFFFFFFFFFFFFFFFFFFFFFFFFFFFF AND PUSH20 0xFFFFFFFFFFFFFFFFFFFFFFFFFFFFFFFFFFFFFFFF AND DUP2 MSTORE PUSH1 0x20 ADD SWAP1 DUP2 MSTORE PUSH1 0x20 ADD PUSH0 KECCAK256 PUSH0 PUSH2 0x100 EXP DUP2 SLOAD DUP2 PUSH1 0xFF MUL NOT AND SWAP1 DUP4 ISZERO ISZERO MUL OR SWAP1 SSTORE POP DUP2 ISZERO PUSH2 0x692 JUMPI DUP1 PUSH1 0x4 ADD PUSH0 DUP2 SLOAD DUP1 SWAP3 SWAP2 SWAP1 PUSH2 0x68C SWAP1 PUSH2 0x1E76 JUMP JUMPDEST SWAP2 SWAP1 POP SSTORE POP JUMPDEST DUP1 PUSH1 0x5 ADD SLOAD DUP2 PUSH1 0x4 ADD SLOAD LT PUSH2 0x6BE JUMPI PUSH1 0x1 DUP2 PUSH1 0x7 ADD PUSH0 PUSH2 0x100 EXP DUP2 SLOAD DUP2 PUSH1 0xFF MUL NOT AND SWAP1 DUP4 ISZERO ISZERO MUL OR SWAP1 SSTORE POP JUMPDEST POP POP POP JUMP JUMPDEST PUSH0 PUSH1 0x8 SLOAD SWAP1 POP SWAP1 JUMP JUMPDEST PUSH2 0x6D4 PUSH2 0x1408 JUMP JUMPDEST PUSH0 PUSH1 0x40 MLOAD DUP1 PUSH1 0xE0 ADD PUSH1 0x40 MSTORE DUP1 PUSH1 0x2 PUSH0 SWAP1 SLOAD SWAP1 PUSH2 0x100 EXP SWAP1 DIV PUSH20 0xFFFFFFFFFFFFFFFFFFFFFFFFFFFFFFFFFFFFFFFF AND PUSH20 0xFFFFFFFFFFFFFFFFFFFFFFFFFFFFFFFFFFFFFFFF AND DUP2 MSTORE PUSH1 0x20 ADD PUSH0 DUP1 SLOAD PUSH2 0x729 SWAP1 PUSH2 0x1DC9 JUMP JUMPDEST DUP1 PUSH1 0x1F ADD PUSH1 0x20 DUP1 SWAP2 DIV MUL PUSH1 0x20 ADD PUSH1 0x40 MLOAD SWAP1 DUP2 ADD PUSH1 0x40 MSTORE DUP1 SWAP3 SWAP2 SWAP1 DUP2 DUP2 MSTORE PUSH1 0x20 ADD DUP3 DUP1 SLOAD PUSH2 0x755 SWAP1 PUSH2 0x1DC9 JUMP JUMPDEST DUP1 ISZERO PUSH2 0x7A0 JUMPI DUP1 PUSH1 0x1F LT PUSH2 0x777 JUMPI PUSH2 0x100 DUP1 DUP4 SLOAD DIV MUL DUP4 MSTORE SWAP2 PUSH1 0x20 ADD SWAP2 PUSH2 0x7A0 JUMP JUMPDEST DUP3 ADD SWAP2 SWAP1 PUSH0 MSTORE PUSH1 0x20 PUSH0 KECCAK256 SWAP1 JUMPDEST DUP2 SLOAD DUP2 MSTORE SWAP1 PUSH1 0x1 ADD SWAP1 PUSH1 0x20 ADD DUP1 DUP4 GT PUSH2 0x783 JUMPI DUP3 SWAP1 SUB PUSH1 0x1F AND DUP3 ADD SWAP2 JUMPDEST POP POP POP POP POP DUP2 MSTORE PUSH1 0x20 ADD PUSH1 0x1 DUP1 SLOAD PUSH2 0x7B7 SWAP1 PUSH2 0x1DC9 JUMP JUMPDEST DUP1 PUSH1 0x1F ADD PUSH1 0x20 DUP1 SWAP2 DIV MUL PUSH1 0x20 ADD PUSH1 0x40 MLOAD SWAP1 DUP2 ADD PUSH1 0x40 MSTORE DUP1 SWAP3 SWAP2 SWAP1 DUP2 DUP2 MSTORE PUSH1 0x20 ADD DUP3 DUP1 SLOAD PUSH2 0x7E3 SWAP1 PUSH2 0x1DC9 JUMP JUMPDEST DUP1 ISZERO PUSH2 0x82E JUMPI DUP1 PUSH1 0x1F LT PUSH2 0x805 JUMPI PUSH2 0x100 DUP1 DUP4 SLOAD DIV MUL DUP4 MSTORE SWAP2 PUSH1 0x20 ADD SWAP2 PUSH2 0x82E JUMP JUMPDEST DUP3 ADD SWAP2 SWAP1 PUSH0 MSTORE PUSH1 0x20 PUSH0 KECCAK256 SWAP1 JUMPDEST DUP2 SLOAD DUP2 MSTORE SWAP1 PUSH1 0x1 ADD SWAP1 PUSH1 0x20 ADD DUP1 DUP4 GT PUSH2 0x811 JUMPI DUP3 SWAP1 SUB PUSH1 0x1F AND DUP3 ADD SWAP2 JUMPDEST POP POP POP POP POP DUP2 MSTORE PUSH1 0x20 ADD PUSH1 0x5 SLOAD DUP2 MSTORE PUSH1 0x20 ADD SELFBALANCE DUP2 MSTORE PUSH1 0x20 ADD PUSH1 0x4 SLOAD DUP2 MSTORE PUSH1 0x20 ADD PUSH1 0x8 SLOAD DUP2 MSTORE POP SWAP1 POP DUP1 SWAP2 POP POP SWAP1 JUMP JUMPDEST PUSH1 0x7 DUP2 DUP1 MLOAD PUSH1 0x20 DUP2 ADD DUP3 ADD DUP1 MLOAD DUP5 DUP3 MSTORE PUSH1 0x20 DUP4 ADD PUSH1 0x20 DUP6 ADD KECCAK256 DUP2 DUP4 MSTORE DUP1 SWAP6 POP POP POP POP POP POP PUSH0 SWAP2 POP SWAP1 POP DUP1 PUSH0 ADD DUP1 SLOAD PUSH2 0x894 SWAP1 PUSH2 0x1DC9 JUMP JUMPDEST DUP1 PUSH1 0x1F ADD PUSH1 0x20 DUP1 SWAP2 DIV MUL PUSH1 0x20 ADD PUSH1 0x40 MLOAD SWAP1 DUP2 ADD PUSH1 0x40 MSTORE DUP1 SWAP3 SWAP2 SWAP1 DUP2 DUP2 MSTORE PUSH1 0x20 ADD DUP3 DUP1 SLOAD PUSH2 0x8C0 SWAP1 PUSH2 0x1DC9 JUMP JUMPDEST DUP1 ISZERO PUSH2 0x90B JUMPI DUP1 PUSH1 0x1F LT PUSH2 0x8E2 JUMPI PUSH2 0x100 DUP1 DUP4 SLOAD DIV MUL DUP4 MSTORE SWAP2 PUSH1 0x20 ADD SWAP2 PUSH2 0x90B JUMP JUMPDEST DUP3 ADD SWAP2 SWAP1 PUSH0 MSTORE PUSH1 0x20 PUSH0 KECCAK256 SWAP1 JUMPDEST DUP2 SLOAD DUP2 MSTORE SWAP1 PUSH1 0x1 ADD SWAP1 PUSH1 0x20 ADD DUP1 DUP4 GT PUSH2 0x8EE JUMPI DUP3 SWAP1 SUB PUSH1 0x1F AND DUP3 ADD SWAP2 JUMPDEST POP POP POP POP POP SWAP1 DUP1 PUSH1 0x1 ADD DUP1 SLOAD PUSH2 0x920 SWAP1 PUSH2 0x1DC9 JUMP JUMPDEST DUP1 PUSH1 0x1F ADD PUSH1 0x20 DUP1 SWAP2 DIV MUL PUSH1 0x20 ADD PUSH1 0x40 MLOAD SWAP1 DUP2 ADD PUSH1 0x40 MSTORE DUP1 SWAP3 SWAP2 SWAP1 DUP2 DUP2 MSTORE PUSH1 0x20 ADD DUP3 DUP1 SLOAD PUSH2 0x94C SWAP1 PUSH2 0x1DC9 JUMP JUMPDEST DUP1 ISZERO PUSH2 0x997 JUMPI DUP1 PUSH1 0x1F LT PUSH2 0x96E JUMPI PUSH2 0x100 DUP1 DUP4 SLOAD DIV MUL DUP4 MSTORE SWAP2 PUSH1 0x20 ADD SWAP2 PUSH2 0x997 JUMP JUMPDEST DUP3 ADD SWAP2 SWAP1 PUSH0 MSTORE PUSH1 0x20 PUSH0 KECCAK256 SWAP1 JUMPDEST DUP2 SLOAD DUP2 MSTORE SWAP1 PUSH1 0x1 ADD SWAP1 PUSH1 0x20 ADD DUP1 DUP4 GT PUSH2 0x97A JUMPI DUP3 SWAP1 SUB PUSH1 0x1F AND DUP3 ADD SWAP2 JUMPDEST POP POP POP POP POP SWAP1 DUP1 PUSH1 0x2 ADD SLOAD SWAP1 DUP1 PUSH1 0x3 ADD PUSH0 SWAP1 SLOAD SWAP1 PUSH2 0x100 EXP SWAP1 DIV PUSH20 0xFFFFFFFFFFFFFFFFFFFFFFFFFFFFFFFFFFFFFFFF AND SWAP1 DUP1 PUSH1 0x4 ADD SLOAD SWAP1 DUP1 PUSH1 0x5 ADD SLOAD SWAP1 DUP1 PUSH1 0x6 ADD SLOAD SWAP1 DUP1 PUSH1 0x7 ADD PUSH0 SWAP1 SLOAD SWAP1 PUSH2 0x100 EXP SWAP1 DIV PUSH1 0xFF AND SWAP1 DUP1 PUSH1 0x7 ADD PUSH1 0x1 SWAP1 SLOAD SWAP1 PUSH2 0x100 EXP SWAP1 DIV PUSH1 0xFF AND SWAP1 POP DUP10 JUMP JUMPDEST PUSH0 SELFBALANCE SWAP1 POP SWAP1 JUMP JUMPDEST PUSH1 0x60 PUSH0 PUSH1 0x7 DUP4 PUSH1 0x40 MLOAD PUSH2 0xA1D SWAP2 SWAP1 PUSH2 0x1E33 JUMP JUMPDEST SWAP1 DUP2 MSTORE PUSH1 0x20 ADD PUSH1 0x40 MLOAD DUP1 SWAP2 SUB SWAP1 KECCAK256 PUSH0 ADD DUP1 SLOAD PUSH2 0xA38 SWAP1 PUSH2 0x1DC9 JUMP JUMPDEST SWAP1 POP SUB PUSH2 0xA43 JUMPI PUSH0 DUP1 REVERT JUMPDEST PUSH1 0x7 DUP3 PUSH1 0x40 MLOAD PUSH2 0xA53 SWAP2 SWAP1 PUSH2 0x1E33 JUMP JUMPDEST SWAP1 DUP2 MSTORE PUSH1 0x20 ADD PUSH1 0x40 MLOAD DUP1 SWAP2 SUB SWAP1 KECCAK256 PUSH1 0x9 ADD DUP1 SLOAD DUP1 PUSH1 0x20 MUL PUSH1 0x20 ADD PUSH1 0x40 MLOAD SWAP1 DUP2 ADD PUSH1 0x40 MSTORE DUP1 SWAP3 SWAP2 SWAP1 DUP2 DUP2 MSTORE PUSH1 0x20 ADD PUSH0 SWAP1 JUMPDEST DUP3 DUP3 LT ISZERO PUSH2 0xB97 JUMPI DUP4 DUP3 SWAP1 PUSH0 MSTORE PUSH1 0x20 PUSH0 KECCAK256 SWAP1 PUSH1 0x2 MUL ADD PUSH1 0x40 MLOAD DUP1 PUSH1 0x40 ADD PUSH1 0x40 MSTORE SWAP1 DUP2 PUSH0 DUP3 ADD PUSH0 SWAP1 SLOAD SWAP1 PUSH2 0x100 EXP SWAP1 DIV PUSH20 0xFFFFFFFFFFFFFFFFFFFFFFFFFFFFFFFFFFFFFFFF AND PUSH20 0xFFFFFFFFFFFFFFFFFFFFFFFFFFFFFFFFFFFFFFFF AND PUSH20 0xFFFFFFFFFFFFFFFFFFFFFFFFFFFFFFFFFFFFFFFF AND DUP2 MSTORE PUSH1 0x20 ADD PUSH1 0x1 DUP3 ADD DUP1 SLOAD PUSH2 0xB08 SWAP1 PUSH2 0x1DC9 JUMP JUMPDEST DUP1 PUSH1 0x1F ADD PUSH1 0x20 DUP1 SWAP2 DIV MUL PUSH1 0x20 ADD PUSH1 0x40 MLOAD SWAP1 DUP2 ADD PUSH1 0x40 MSTORE DUP1 SWAP3 SWAP2 SWAP1 DUP2 DUP2 MSTORE PUSH1 0x20 ADD DUP3 DUP1 SLOAD PUSH2 0xB34 SWAP1 PUSH2 0x1DC9 JUMP JUMPDEST DUP1 ISZERO PUSH2 0xB7F JUMPI DUP1 PUSH1 0x1F LT PUSH2 0xB56 JUMPI PUSH2 0x100 DUP1 DUP4 SLOAD DIV MUL DUP4 MSTORE SWAP2 PUSH1 0x20 ADD SWAP2 PUSH2 0xB7F JUMP JUMPDEST DUP3 ADD SWAP2 SWAP1 PUSH0 MSTORE PUSH1 0x20 PUSH0 KECCAK256 SWAP1 JUMPDEST DUP2 SLOAD DUP2 MSTORE SWAP1 PUSH1 0x1 ADD SWAP1 PUSH1 0x20 ADD DUP1 DUP4 GT PUSH2 0xB62 JUMPI DUP3 SWAP1 SUB PUSH1 0x1F AND DUP3 ADD SWAP2 JUMPDEST POP POP POP POP POP DUP2 MSTORE POP POP DUP2 MSTORE PUSH1 0x20 ADD SWAP1 PUSH1 0x1 ADD SWAP1 PUSH2 0xA83 JUMP JUMPDEST POP POP POP POP SWAP1 POP SWAP2 SWAP1 POP JUMP JUMPDEST PUSH1 0x60 PUSH1 0x6 DUP1 SLOAD DUP1 PUSH1 0x20 MUL PUSH1 0x20 ADD PUSH1 0x40 MLOAD SWAP1 DUP2 ADD PUSH1 0x40 MSTORE DUP1 SWAP3 SWAP2 SWAP1 DUP2 DUP2 MSTORE PUSH1 0x20 ADD PUSH0 SWAP1 JUMPDEST DUP3 DUP3 LT ISZERO PUSH2 0xD1E JUMPI DUP4 DUP3 SWAP1 PUSH0 MSTORE PUSH1 0x20 PUSH0 KECCAK256 SWAP1 PUSH1 0x3 MUL ADD PUSH1 0x40 MLOAD DUP1 PUSH1 0x60 ADD PUSH1 0x40 MSTORE SWAP1 DUP2 PUSH0 DUP3 ADD DUP1 SLOAD PUSH2 0xBF5 SWAP1 PUSH2 0x1DC9 JUMP JUMPDEST DUP1 PUSH1 0x1F ADD PUSH1 0x20 DUP1 SWAP2 DIV MUL PUSH1 0x20 ADD PUSH1 0x40 MLOAD SWAP1 DUP2 ADD PUSH1 0x40 MSTORE DUP1 SWAP3 SWAP2 SWAP1 DUP2 DUP2 MSTORE PUSH1 0x20 ADD DUP3 DUP1 SLOAD PUSH2 0xC21 SWAP1 PUSH2 0x1DC9 JUMP JUMPDEST DUP1 ISZERO PUSH2 0xC6C JUMPI DUP1 PUSH1 0x1F LT PUSH2 0xC43 JUMPI PUSH2 0x100 DUP1 DUP4 SLOAD DIV MUL DUP4 MSTORE SWAP2 PUSH1 0x20 ADD SWAP2 PUSH2 0xC6C JUMP JUMPDEST DUP3 ADD SWAP2 SWAP1 PUSH0 MSTORE PUSH1 0x20 PUSH0 KECCAK256 SWAP1 JUMPDEST DUP2 SLOAD DUP2 MSTORE SWAP1 PUSH1 0x1 ADD SWAP1 PUSH1 0x20 ADD DUP1 DUP4 GT PUSH2 0xC4F JUMPI DUP3 SWAP1 SUB PUSH1 0x1F AND DUP3 ADD SWAP2 JUMPDEST POP POP POP POP POP DUP2 MSTORE PUSH1 0x20 ADD PUSH1 0x1 DUP3 ADD DUP1 SLOAD PUSH2 0xC85 SWAP1 PUSH2 0x1DC9 JUMP JUMPDEST DUP1 PUSH1 0x1F ADD PUSH1 0x20 DUP1 SWAP2 DIV MUL PUSH1 0x20 ADD PUSH1 0x40 MLOAD SWAP1 DUP2 ADD PUSH1 0x40 MSTORE DUP1 SWAP3 SWAP2 SWAP1 DUP2 DUP2 MSTORE PUSH1 0x20 ADD DUP3 DUP1 SLOAD PUSH2 0xCB1 SWAP1 PUSH2 0x1DC9 JUMP JUMPDEST DUP1 ISZERO PUSH2 0xCFC JUMPI DUP1 PUSH1 0x1F LT PUSH2 0xCD3 JUMPI PUSH2 0x100 DUP1 DUP4 SLOAD DIV MUL DUP4 MSTORE SWAP2 PUSH1 0x20 ADD SWAP2 PUSH2 0xCFC JUMP JUMPDEST DUP3 ADD SWAP2 SWAP1 PUSH0 MSTORE PUSH1 0x20 PUSH0 KECCAK256 SWAP1 JUMPDEST DUP2 SLOAD DUP2 MSTORE SWAP1 PUSH1 0x1 ADD SWAP1 PUSH1 0x20 ADD DUP1 DUP4 GT PUSH2 0xCDF JUMPI DUP3 SWAP1 SUB PUSH1 0x1F AND DUP3 ADD SWAP2 JUMPDEST POP POP POP POP POP DUP2 MSTORE PUSH1 0x20 ADD PUSH1 0x2 DUP3 ADD SLOAD DUP2 MSTORE POP POP DUP2 MSTORE PUSH1 0x20 ADD SWAP1 PUSH1 0x1 ADD SWAP1 PUSH2 0xBC5 JUMP JUMPDEST POP POP POP POP SWAP1 POP SWAP1 JUMP JUMPDEST PUSH1 0x60 PUSH0 DUP1 SLOAD PUSH2 0xD35 SWAP1 PUSH2 0x1DC9 JUMP JUMPDEST DUP1 PUSH1 0x1F ADD PUSH1 0x20 DUP1 SWAP2 DIV MUL PUSH1 0x20 ADD PUSH1 0x40 MLOAD SWAP1 DUP2 ADD PUSH1 0x40 MSTORE DUP1 SWAP3 SWAP2 SWAP1 DUP2 DUP2 MSTORE PUSH1 0x20 ADD DUP3 DUP1 SLOAD PUSH2 0xD61 SWAP1 PUSH2 0x1DC9 JUMP JUMPDEST DUP1 ISZERO PUSH2 0xDAC JUMPI DUP1 PUSH1 0x1F LT PUSH2 0xD83 JUMPI PUSH2 0x100 DUP1 DUP4 SLOAD DIV MUL DUP4 MSTORE SWAP2 PUSH1 0x20 ADD SWAP2 PUSH2 0xDAC JUMP JUMPDEST DUP3 ADD SWAP2 SWAP1 PUSH0 MSTORE PUSH1 0x20 PUSH0 KECCAK256 SWAP1 JUMPDEST DUP2 SLOAD DUP2 MSTORE SWAP1 PUSH1 0x1 ADD SWAP1 PUSH1 0x20 ADD DUP1 DUP4 GT PUSH2 0xD8F JUMPI DUP3 SWAP1 SUB PUSH1 0x1F AND DUP3 ADD SWAP2 JUMPDEST POP POP POP POP POP SWAP1 POP SWAP1 JUMP JUMPDEST PUSH1 0x2 PUSH0 SWAP1 SLOAD SWAP1 PUSH2 0x100 EXP SWAP1 DIV PUSH20 0xFFFFFFFFFFFFFFFFFFFFFFFFFFFFFFFFFFFFFFFF AND PUSH20 0xFFFFFFFFFFFFFFFFFFFFFFFFFFFFFFFFFFFFFFFF AND CALLER PUSH20 0xFFFFFFFFFFFFFFFFFFFFFFFFFFFFFFFFFFFFFFFF AND EQ PUSH2 0xE0E JUMPI PUSH0 DUP1 REVERT JUMPDEST JUMP JUMPDEST PUSH1 0x2 PUSH0 SWAP1 SLOAD SWAP1 PUSH2 0x100 EXP SWAP1 DIV PUSH20 0xFFFFFFFFFFFFFFFFFFFFFFFFFFFFFFFFFFFFFFFF AND PUSH20 0xFFFFFFFFFFFFFFFFFFFFFFFFFFFFFFFFFFFFFFFF AND CALLER PUSH20 0xFFFFFFFFFFFFFFFFFFFFFFFFFFFFFFFFFFFFFFFF AND EQ PUSH2 0xE68 JUMPI PUSH0 DUP1 REVERT JUMPDEST PUSH0 DUP6 MLOAD GT PUSH2 0xE74 JUMPI PUSH0 DUP1 REVERT JUMPDEST PUSH0 DUP5 MLOAD GT PUSH2 0xE80 JUMPI PUSH0 DUP1 REVERT JUMPDEST PUSH0 DUP4 GT PUSH2 0xE8B JUMPI PUSH0 DUP1 REVERT JUMPDEST SELFBALANCE DUP4 GT ISZERO PUSH2 0xE97 JUMPI PUSH0 DUP1 REVERT JUMPDEST PUSH0 DUP3 GT PUSH2 0xEA2 JUMPI PUSH0 DUP1 REVERT JUMPDEST PUSH1 0x4 SLOAD DUP3 GT ISZERO PUSH2 0xEB0 JUMPI PUSH0 DUP1 REVERT JUMPDEST PUSH0 PUSH1 0x7 DUP7 PUSH1 0x40 MLOAD PUSH2 0xEC1 SWAP2 SWAP1 PUSH2 0x1E33 JUMP JUMPDEST SWAP1 DUP2 MSTORE PUSH1 0x20 ADD PUSH1 0x40 MLOAD DUP1 SWAP2 SUB SWAP1 KECCAK256 SWAP1 POP DUP6 DUP2 PUSH0 ADD SWAP1 DUP2 PUSH2 0xEE1 SWAP2 SWAP1 PUSH2 0x205A JUMP JUMPDEST POP DUP5 DUP2 PUSH1 0x1 ADD SWAP1 DUP2 PUSH2 0xEF3 SWAP2 SWAP1 PUSH2 0x205A JUMP JUMPDEST POP DUP4 DUP2 PUSH1 0x2 ADD DUP2 SWAP1 SSTORE POP DUP2 DUP2 PUSH1 0x3 ADD PUSH0 PUSH2 0x100 EXP DUP2 SLOAD DUP2 PUSH20 0xFFFFFFFFFFFFFFFFFFFFFFFFFFFFFFFFFFFFFFFF MUL NOT AND SWAP1 DUP4 PUSH20 0xFFFFFFFFFFFFFFFFFFFFFFFFFFFFFFFFFFFFFFFF AND MUL OR SWAP1 SSTORE POP PUSH0 DUP2 PUSH1 0x4 ADD DUP2 SWAP1 SSTORE POP PUSH0 DUP2 PUSH1 0x6 ADD DUP2 SWAP1 SSTORE POP DUP3 DUP2 PUSH1 0x5 ADD DUP2 SWAP1 SSTORE POP PUSH0 DUP2 PUSH1 0x7 ADD PUSH1 0x1 PUSH2 0x100 EXP DUP2 SLOAD DUP2 PUSH1 0xFF MUL NOT AND SWAP1 DUP4 ISZERO ISZERO MUL OR SWAP1 SSTORE POP PUSH1 0x8 PUSH0 DUP2 SLOAD DUP1 SWAP3 SWAP2 SWAP1 PUSH2 0xF88 SWAP1 PUSH2 0x1E76 JUMP JUMPDEST SWAP2 SWAP1 POP SSTORE POP PUSH0 PUSH1 0x40 MLOAD DUP1 PUSH1 0x60 ADD PUSH1 0x40 MSTORE DUP1 DUP9 DUP2 MSTORE PUSH1 0x20 ADD DUP8 DUP2 MSTORE PUSH1 0x20 ADD DUP7 DUP2 MSTORE POP SWAP1 POP PUSH1 0x6 DUP2 SWAP1 DUP1 PUSH1 0x1 DUP2 SLOAD ADD DUP1 DUP3 SSTORE DUP1 SWAP2 POP POP PUSH1 0x1 SWAP1 SUB SWAP1 PUSH0 MSTORE PUSH1 0x20 PUSH0 KECCAK256 SWAP1 PUSH1 0x3 MUL ADD PUSH0 SWAP1 SWAP2 SWAP1 SWAP2 SWAP1 SWAP2 POP PUSH0 DUP3 ADD MLOAD DUP2 PUSH0 ADD SWAP1 DUP2 PUSH2 0xFE7 SWAP2 SWAP1 PUSH2 0x205A JUMP JUMPDEST POP PUSH1 0x20 DUP3 ADD MLOAD DUP2 PUSH1 0x1 ADD SWAP1 DUP2 PUSH2 0xFFD SWAP2 SWAP1 PUSH2 0x205A JUMP JUMPDEST POP PUSH1 0x40 DUP3 ADD MLOAD DUP2 PUSH1 0x2 ADD SSTORE POP POP POP POP POP POP POP POP POP JUMP JUMPDEST PUSH0 PUSH1 0x2 PUSH0 SWAP1 SLOAD SWAP1 PUSH2 0x100 EXP SWAP1 DIV PUSH20 0xFFFFFFFFFFFFFFFFFFFFFFFFFFFFFFFFFFFFFFFF AND SWAP1 POP SWAP1 JUMP JUMPDEST PUSH1 0x5 SLOAD CALLVALUE LT ISZERO PUSH2 0x1049 JUMPI PUSH0 DUP1 REVERT JUMPDEST PUSH0 PUSH1 0x3 PUSH0 CALLER PUSH20 0xFFFFFFFFFFFFFFFFFFFFFFFFFFFFFFFFFFFFFFFF AND PUSH20 0xFFFFFFFFFFFFFFFFFFFFFFFFFFFFFFFFFFFFFFFF AND DUP2 MSTORE PUSH1 0x20 ADD SWAP1 DUP2 MSTORE PUSH1 0x20 ADD PUSH0 KECCAK256 SLOAD EQ PUSH2 0x1091 JUMPI PUSH0 DUP1 REVERT JUMPDEST CALLVALUE PUSH1 0x3 PUSH0 CALLER PUSH20 0xFFFFFFFFFFFFFFFFFFFFFFFFFFFFFFFFFFFFFFFF AND PUSH20 0xFFFFFFFFFFFFFFFFFFFFFFFFFFFFFFFFFFFFFFFF AND DUP2 MSTORE PUSH1 0x20 ADD SWAP1 DUP2 MSTORE PUSH1 0x20 ADD PUSH0 KECCAK256 DUP2 SWAP1 SSTORE POP PUSH1 0x4 PUSH0 DUP2 SLOAD DUP1 SWAP3 SWAP2 SWAP1 PUSH2 0x10E5 SWAP1 PUSH2 0x1E76 JUMP JUMPDEST SWAP2 SWAP1 POP SSTORE POP JUMP JUMPDEST PUSH1 0x2 PUSH0 SWAP1 SLOAD SWAP1 PUSH2 0x100 EXP SWAP1 DIV PUSH20 0xFFFFFFFFFFFFFFFFFFFFFFFFFFFFFFFFFFFFFFFF AND PUSH20 0xFFFFFFFFFFFFFFFFFFFFFFFFFFFFFFFFFFFFFFFF AND CALLER PUSH20 0xFFFFFFFFFFFFFFFFFFFFFFFFFFFFFFFFFFFFFFFF AND EQ PUSH2 0x1144 JUMPI PUSH0 DUP1 REVERT JUMPDEST PUSH0 PUSH1 0x7 DUP3 PUSH1 0x40 MLOAD PUSH2 0x1155 SWAP2 SWAP1 PUSH2 0x1E33 JUMP JUMPDEST SWAP1 DUP2 MSTORE PUSH1 0x20 ADD PUSH1 0x40 MLOAD DUP1 SWAP2 SUB SWAP1 KECCAK256 SWAP1 POP PUSH0 DUP2 PUSH0 ADD DUP1 SLOAD PUSH2 0x1174 SWAP1 PUSH2 0x1DC9 JUMP JUMPDEST SWAP1 POP GT PUSH2 0x117F JUMPI PUSH0 DUP1 REVERT JUMPDEST DUP2 MLOAD DUP2 PUSH0 ADD DUP1 SLOAD PUSH2 0x118F SWAP1 PUSH2 0x1DC9 JUMP JUMPDEST SWAP1 POP EQ PUSH2 0x119A JUMPI PUSH0 DUP1 REVERT JUMPDEST DUP1 PUSH1 0x7 ADD PUSH0 SWAP1 SLOAD SWAP1 PUSH2 0x100 EXP SWAP1 DIV PUSH1 0xFF AND DUP1 ISZERO PUSH2 0x11C6 JUMPI POP DUP1 PUSH1 0x7 ADD PUSH1 0x1 SWAP1 SLOAD SWAP1 PUSH2 0x100 EXP SWAP1 DIV PUSH1 0xFF AND ISZERO JUMPDEST PUSH2 0x11CE JUMPI PUSH0 DUP1 REVERT JUMPDEST DUP1 PUSH1 0x2 ADD SLOAD SELFBALANCE LT ISZERO PUSH2 0x11DE JUMPI PUSH0 DUP1 REVERT JUMPDEST DUP1 PUSH1 0x3 ADD PUSH0 SWAP1 SLOAD SWAP1 PUSH2 0x100 EXP SWAP1 DIV PUSH20 0xFFFFFFFFFFFFFFFFFFFFFFFFFFFFFFFFFFFFFFFF AND PUSH20 0xFFFFFFFFFFFFFFFFFFFFFFFFFFFFFFFFFFFFFFFF AND PUSH2 0x8FC DUP3 PUSH1 0x2 ADD SLOAD SWAP1 DUP2 ISZERO MUL SWAP1 PUSH1 0x40 MLOAD PUSH0 PUSH1 0x40 MLOAD DUP1 DUP4 SUB DUP2 DUP6 DUP9 DUP9 CALL SWAP4 POP POP POP POP ISZERO DUP1 ISZERO PUSH2 0x1248 JUMPI RETURNDATASIZE PUSH0 DUP1 RETURNDATACOPY RETURNDATASIZE PUSH0 REVERT JUMPDEST POP PUSH1 0x1 DUP2 PUSH1 0x7 ADD PUSH1 0x1 PUSH2 0x100 EXP DUP2 SLOAD DUP2 PUSH1 0xFF MUL NOT AND SWAP1 DUP4 ISZERO ISZERO MUL OR SWAP1 SSTORE POP POP POP JUMP JUMPDEST PUSH0 PUSH1 0x3 PUSH0 CALLER PUSH20 0xFFFFFFFFFFFFFFFFFFFFFFFFFFFFFFFFFFFFFFFF AND PUSH20 0xFFFFFFFFFFFFFFFFFFFFFFFFFFFFFFFFFFFFFFFF AND DUP2 MSTORE PUSH1 0x20 ADD SWAP1 DUP2 MSTORE PUSH1 0x20 ADD PUSH0 KECCAK256 SLOAD GT PUSH2 0x12B2 JUMPI PUSH0 DUP1 REVERT JUMPDEST PUSH0 PUSH1 0x7 DUP4 PUSH1 0x40 MLOAD PUSH2 0x12C3 SWAP2 SWAP1 PUSH2 0x1E33 JUMP JUMPDEST SWAP1 DUP2 MSTORE PUSH1 0x20 ADD PUSH1 0x40 MLOAD DUP1 SWAP2 SUB SWAP1 KECCAK256 PUSH0 ADD DUP1 SLOAD PUSH2 0x12DE SWAP1 PUSH2 0x1DC9 JUMP JUMPDEST SWAP1 POP SUB PUSH2 0x12E9 JUMPI PUSH0 DUP1 REVERT JUMPDEST PUSH0 PUSH1 0x40 MLOAD DUP1 PUSH1 0x40 ADD PUSH1 0x40 MSTORE DUP1 CALLER PUSH20 0xFFFFFFFFFFFFFFFFFFFFFFFFFFFFFFFFFFFFFFFF AND DUP2 MSTORE PUSH1 0x20 ADD DUP4 DUP2 MSTORE POP SWAP1 POP PUSH1 0x7 DUP4 PUSH1 0x40 MLOAD PUSH2 0x1327 SWAP2 SWAP1 PUSH2 0x1E33 JUMP JUMPDEST SWAP1 DUP2 MSTORE PUSH1 0x20 ADD PUSH1 0x40 MLOAD DUP1 SWAP2 SUB SWAP1 KECCAK256 PUSH1 0x9 ADD DUP2 SWAP1 DUP1 PUSH1 0x1 DUP2 SLOAD ADD DUP1 DUP3 SSTORE DUP1 SWAP2 POP POP PUSH1 0x1 SWAP1 SUB SWAP1 PUSH0 MSTORE PUSH1 0x20 PUSH0 KECCAK256 SWAP1 PUSH1 0x2 MUL ADD PUSH0 SWAP1 SWAP2 SWAP1 SWAP2 SWAP1 SWAP2 POP PUSH0 DUP3 ADD MLOAD DUP2 PUSH0 ADD PUSH0 PUSH2 0x100 EXP DUP2 SLOAD DUP2 PUSH20 0xFFFFFFFFFFFFFFFFFFFFFFFFFFFFFFFFFFFFFFFF MUL NOT AND SWAP1 DUP4 PUSH20 0xFFFFFFFFFFFFFFFFFFFFFFFFFFFFFFFFFFFFFFFF AND MUL OR SWAP1 SSTORE POP PUSH1 0x20 DUP3 ADD MLOAD DUP2 PUSH1 0x1 ADD SWAP1 DUP2 PUSH2 0x13B8 SWAP2 SWAP1 PUSH2 0x205A JUMP JUMPDEST POP POP POP PUSH1 0x7 DUP4 PUSH1 0x40 MLOAD PUSH2 0x13CB SWAP2 SWAP1 PUSH2 0x1E33 JUMP JUMPDEST SWAP1 DUP2 MSTORE PUSH1 0x20 ADD PUSH1 0x40 MLOAD DUP1 SWAP2 SUB SWAP1 KECCAK256 PUSH1 0x6 ADD PUSH0 DUP2 SLOAD DUP1 SWAP3 SWAP2 SWAP1 PUSH2 0x13EC SWAP1 PUSH2 0x1E76 JUMP JUMPDEST SWAP2 SWAP1 POP SSTORE POP POP POP POP JUMP JUMPDEST PUSH0 PUSH1 0x5 SLOAD SWAP1 POP SWAP1 JUMP JUMPDEST PUSH0 PUSH1 0x4 SLOAD SWAP1 POP SWAP1 JUMP JUMPDEST PUSH1 0x40 MLOAD DUP1 PUSH1 0xE0 ADD PUSH1 0x40 MSTORE DUP1 PUSH0 PUSH20 0xFFFFFFFFFFFFFFFFFFFFFFFFFFFFFFFFFFFFFFFF AND DUP2 MSTORE PUSH1 0x20 ADD PUSH1 0x60 DUP2 MSTORE PUSH1 0x20 ADD PUSH1 0x60 DUP2 MSTORE PUSH1 0x20 ADD PUSH0 DUP2 MSTORE PUSH1 0x20 ADD PUSH0 DUP2 MSTORE PUSH1 0x20 ADD PUSH0 DUP2 MSTORE PUSH1 0x20 ADD PUSH0 DUP2 MSTORE POP SWAP1 JUMP JUMPDEST PUSH0 PUSH1 0x40 MLOAD SWAP1 POP SWAP1 JUMP JUMPDEST PUSH0 DUP1 REVERT JUMPDEST PUSH0 DUP1 REVERT JUMPDEST PUSH0 PUSH20 0xFFFFFFFFFFFFFFFFFFFFFFFFFFFFFFFFFFFFFFFF DUP3 AND SWAP1 POP SWAP2 SWAP1 POP JUMP JUMPDEST PUSH0 PUSH2 0x1490 DUP3 PUSH2 0x1467 JUMP JUMPDEST SWAP1 POP SWAP2 SWAP1 POP JUMP JUMPDEST PUSH2 0x14A0 DUP2 PUSH2 0x1486 JUMP JUMPDEST DUP2 EQ PUSH2 0x14AA JUMPI PUSH0 DUP1 REVERT JUMPDEST POP JUMP JUMPDEST PUSH0 DUP2 CALLDATALOAD SWAP1 POP PUSH2 0x14BB DUP2 PUSH2 0x1497 JUMP JUMPDEST SWAP3 SWAP2 POP POP JUMP JUMPDEST PUSH0 PUSH1 0x20 DUP3 DUP5 SUB SLT ISZERO PUSH2 0x14D6 JUMPI PUSH2 0x14D5 PUSH2 0x145F JUMP JUMPDEST JUMPDEST PUSH0 PUSH2 0x14E3 DUP5 DUP3 DUP6 ADD PUSH2 0x14AD JUMP JUMPDEST SWAP2 POP POP SWAP3 SWAP2 POP POP JUMP JUMPDEST PUSH0 DUP2 SWAP1 POP SWAP2 SWAP1 POP JUMP JUMPDEST PUSH2 0x14FE DUP2 PUSH2 0x14EC JUMP JUMPDEST DUP3 MSTORE POP POP JUMP JUMPDEST PUSH0 PUSH1 0x20 DUP3 ADD SWAP1 POP PUSH2 0x1517 PUSH0 DUP4 ADD DUP5 PUSH2 0x14F5 JUMP JUMPDEST SWAP3 SWAP2 POP POP JUMP JUMPDEST PUSH0 DUP2 MLOAD SWAP1 POP SWAP2 SWAP1 POP JUMP JUMPDEST PUSH0 DUP3 DUP3 MSTORE PUSH1 0x20 DUP3 ADD SWAP1 POP SWAP3 SWAP2 POP POP JUMP JUMPDEST PUSH0 JUMPDEST DUP4 DUP2 LT ISZERO PUSH2 0x1554 JUMPI DUP1 DUP3 ADD MLOAD DUP2 DUP5 ADD MSTORE PUSH1 0x20 DUP2 ADD SWAP1 POP PUSH2 0x1539 JUMP JUMPDEST PUSH0 DUP5 DUP5 ADD MSTORE POP POP POP POP JUMP JUMPDEST PUSH0 PUSH1 0x1F NOT PUSH1 0x1F DUP4 ADD AND SWAP1 POP SWAP2 SWAP1 POP JUMP JUMPDEST PUSH0 PUSH2 0x1579 DUP3 PUSH2 0x151D JUMP JUMPDEST PUSH2 0x1583 DUP2 DUP6 PUSH2 0x1527 JUMP JUMPDEST SWAP4 POP PUSH2 0x1593 DUP2 DUP6 PUSH1 0x20 DUP7 ADD PUSH2 0x1537 JUMP JUMPDEST PUSH2 0x159C DUP2 PUSH2 0x155F JUMP JUMPDEST DUP5 ADD SWAP2 POP POP SWAP3 SWAP2 POP POP JUMP JUMPDEST PUSH0 PUSH1 0x20 DUP3 ADD SWAP1 POP DUP2 DUP2 SUB PUSH0 DUP4 ADD MSTORE PUSH2 0x15BF DUP2 DUP5 PUSH2 0x156F JUMP JUMPDEST SWAP1 POP SWAP3 SWAP2 POP POP JUMP JUMPDEST PUSH0 DUP1 REVERT JUMPDEST PUSH0 DUP1 REVERT JUMPDEST PUSH32 0x4E487B7100000000000000000000000000000000000000000000000000000000 PUSH0 MSTORE PUSH1 0x41 PUSH1 0x4 MSTORE PUSH1 0x24 PUSH0 REVERT JUMPDEST PUSH2 0x1605 DUP3 PUSH2 0x155F JUMP JUMPDEST DUP2 ADD DUP2 DUP2 LT PUSH8 0xFFFFFFFFFFFFFFFF DUP3 GT OR ISZERO PUSH2 0x1624 JUMPI PUSH2 0x1623 PUSH2 0x15CF JUMP JUMPDEST JUMPDEST DUP1 PUSH1 0x40 MSTORE POP POP POP JUMP JUMPDEST PUSH0 PUSH2 0x1636 PUSH2 0x1456 JUMP JUMPDEST SWAP1 POP PUSH2 0x1642 DUP3 DUP3 PUSH2 0x15FC JUMP JUMPDEST SWAP2 SWAP1 POP JUMP JUMPDEST PUSH0 PUSH8 0xFFFFFFFFFFFFFFFF DUP3 GT ISZERO PUSH2 0x1661 JUMPI PUSH2 0x1660 PUSH2 0x15CF JUMP JUMPDEST JUMPDEST PUSH2 0x166A DUP3 PUSH2 0x155F JUMP JUMPDEST SWAP1 POP PUSH1 0x20 DUP2 ADD SWAP1 POP SWAP2 SWAP1 POP JUMP JUMPDEST DUP3 DUP2 DUP4 CALLDATACOPY PUSH0 DUP4 DUP4 ADD MSTORE POP POP POP JUMP JUMPDEST PUSH0 PUSH2 0x1697 PUSH2 0x1692 DUP5 PUSH2 0x1647 JUMP JUMPDEST PUSH2 0x162D JUMP JUMPDEST SWAP1 POP DUP3 DUP2 MSTORE PUSH1 0x20 DUP2 ADD DUP5 DUP5 DUP5 ADD GT ISZERO PUSH2 0x16B3 JUMPI PUSH2 0x16B2 PUSH2 0x15CB JUMP JUMPDEST JUMPDEST PUSH2 0x16BE DUP5 DUP3 DUP6 PUSH2 0x1677 JUMP JUMPDEST POP SWAP4 SWAP3 POP POP POP JUMP JUMPDEST PUSH0 DUP3 PUSH1 0x1F DUP4 ADD SLT PUSH2 0x16DA JUMPI PUSH2 0x16D9 PUSH2 0x15C7 JUMP JUMPDEST JUMPDEST DUP2 CALLDATALOAD PUSH2 0x16EA DUP5 DUP3 PUSH1 0x20 DUP7 ADD PUSH2 0x1685 JUMP JUMPDEST SWAP2 POP POP SWAP3 SWAP2 POP POP JUMP JUMPDEST PUSH0 DUP2 ISZERO ISZERO SWAP1 POP SWAP2 SWAP1 POP JUMP JUMPDEST PUSH2 0x1707 DUP2 PUSH2 0x16F3 JUMP JUMPDEST DUP2 EQ PUSH2 0x1711 JUMPI PUSH0 DUP1 REVERT JUMPDEST POP JUMP JUMPDEST PUSH0 DUP2 CALLDATALOAD SWAP1 POP PUSH2 0x1722 DUP2 PUSH2 0x16FE JUMP JUMPDEST SWAP3 SWAP2 POP POP JUMP JUMPDEST PUSH0 DUP1 PUSH1 0x40 DUP4 DUP6 SUB SLT ISZERO PUSH2 0x173E JUMPI PUSH2 0x173D PUSH2 0x145F JUMP JUMPDEST JUMPDEST PUSH0 DUP4 ADD CALLDATALOAD PUSH8 0xFFFFFFFFFFFFFFFF DUP2 GT ISZERO PUSH2 0x175B JUMPI PUSH2 0x175A PUSH2 0x1463 JUMP JUMPDEST JUMPDEST PUSH2 0x1767 DUP6 DUP3 DUP7 ADD PUSH2 0x16C6 JUMP JUMPDEST SWAP3 POP POP PUSH1 0x20 PUSH2 0x1778 DUP6 DUP3 DUP7 ADD PUSH2 0x1714 JUMP JUMPDEST SWAP2 POP POP SWAP3 POP SWAP3 SWAP1 POP JUMP JUMPDEST PUSH2 0x178B DUP2 PUSH2 0x1486 JUMP JUMPDEST DUP3 MSTORE POP POP JUMP JUMPDEST PUSH0 DUP3 DUP3 MSTORE PUSH1 0x20 DUP3 ADD SWAP1 POP SWAP3 SWAP2 POP POP JUMP JUMPDEST PUSH0 PUSH2 0x17AB DUP3 PUSH2 0x151D JUMP JUMPDEST PUSH2 0x17B5 DUP2 DUP6 PUSH2 0x1791 JUMP JUMPDEST SWAP4 POP PUSH2 0x17C5 DUP2 DUP6 PUSH1 0x20 DUP7 ADD PUSH2 0x1537 JUMP JUMPDEST PUSH2 0x17CE DUP2 PUSH2 0x155F JUMP JUMPDEST DUP5 ADD SWAP2 POP POP SWAP3 SWAP2 POP POP JUMP JUMPDEST PUSH2 0x17E2 DUP2 PUSH2 0x14EC JUMP JUMPDEST DUP3 MSTORE POP POP JUMP JUMPDEST PUSH0 PUSH1 0xE0 DUP4 ADD PUSH0 DUP4 ADD MLOAD PUSH2 0x17FD PUSH0 DUP7 ADD DUP3 PUSH2 0x1782 JUMP JUMPDEST POP PUSH1 0x20 DUP4 ADD MLOAD DUP5 DUP3 SUB PUSH1 0x20 DUP7 ADD MSTORE PUSH2 0x1815 DUP3 DUP3 PUSH2 0x17A1 JUMP JUMPDEST SWAP2 POP POP PUSH1 0x40 DUP4 ADD MLOAD DUP5 DUP3 SUB PUSH1 0x40 DUP7 ADD MSTORE PUSH2 0x182F DUP3 DUP3 PUSH2 0x17A1 JUMP JUMPDEST SWAP2 POP POP PUSH1 0x60 DUP4 ADD MLOAD PUSH2 0x1844 PUSH1 0x60 DUP7 ADD DUP3 PUSH2 0x17D9 JUMP JUMPDEST POP PUSH1 0x80 DUP4 ADD MLOAD PUSH2 0x1857 PUSH1 0x80 DUP7 ADD DUP3 PUSH2 0x17D9 JUMP JUMPDEST POP PUSH1 0xA0 DUP4 ADD MLOAD PUSH2 0x186A PUSH1 0xA0 DUP7 ADD DUP3 PUSH2 0x17D9 JUMP JUMPDEST POP PUSH1 0xC0 DUP4 ADD MLOAD PUSH2 0x187D PUSH1 0xC0 DUP7 ADD DUP3 PUSH2 0x17D9 JUMP JUMPDEST POP DUP1 SWAP2 POP POP SWAP3 SWAP2 POP POP JUMP JUMPDEST PUSH0 PUSH1 0x20 DUP3 ADD SWAP1 POP DUP2 DUP2 SUB PUSH0 DUP4 ADD MSTORE PUSH2 0x18A0 DUP2 DUP5 PUSH2 0x17E8 JUMP JUMPDEST SWAP1 POP SWAP3 SWAP2 POP POP JUMP JUMPDEST PUSH0 PUSH1 0x20 DUP3 DUP5 SUB SLT ISZERO PUSH2 0x18BD JUMPI PUSH2 0x18BC PUSH2 0x145F JUMP JUMPDEST JUMPDEST PUSH0 DUP3 ADD CALLDATALOAD PUSH8 0xFFFFFFFFFFFFFFFF DUP2 GT ISZERO PUSH2 0x18DA JUMPI PUSH2 0x18D9 PUSH2 0x1463 JUMP JUMPDEST JUMPDEST PUSH2 0x18E6 DUP5 DUP3 DUP6 ADD PUSH2 0x16C6 JUMP JUMPDEST SWAP2 POP POP SWAP3 SWAP2 POP POP JUMP JUMPDEST PUSH0 PUSH2 0x18F9 DUP3 PUSH2 0x1467 JUMP JUMPDEST SWAP1 POP SWAP2 SWAP1 POP JUMP JUMPDEST PUSH2 0x1909 DUP2 PUSH2 0x18EF JUMP JUMPDEST DUP3 MSTORE POP POP JUMP JUMPDEST PUSH2 0x1918 DUP2 PUSH2 0x16F3 JUMP JUMPDEST DUP3 MSTORE POP POP JUMP JUMPDEST PUSH0 PUSH2 0x120 DUP3 ADD SWAP1 POP DUP2 DUP2 SUB PUSH0 DUP4 ADD MSTORE PUSH2 0x1937 DUP2 DUP13 PUSH2 0x156F JUMP JUMPDEST SWAP1 POP DUP2 DUP2 SUB PUSH1 0x20 DUP4 ADD MSTORE PUSH2 0x194B DUP2 DUP12 PUSH2 0x156F JUMP JUMPDEST SWAP1 POP PUSH2 0x195A PUSH1 0x40 DUP4 ADD DUP11 PUSH2 0x14F5 JUMP JUMPDEST PUSH2 0x1967 PUSH1 0x60 DUP4 ADD DUP10 PUSH2 0x1900 JUMP JUMPDEST PUSH2 0x1974 PUSH1 0x80 DUP4 ADD DUP9 PUSH2 0x14F5 JUMP JUMPDEST PUSH2 0x1981 PUSH1 0xA0 DUP4 ADD DUP8 PUSH2 0x14F5 JUMP JUMPDEST PUSH2 0x198E PUSH1 0xC0 DUP4 ADD DUP7 PUSH2 0x14F5 JUMP JUMPDEST PUSH2 0x199B PUSH1 0xE0 DUP4 ADD DUP6 PUSH2 0x190F JUMP JUMPDEST PUSH2 0x19A9 PUSH2 0x100 DUP4 ADD DUP5 PUSH2 0x190F JUMP JUMPDEST SWAP11 SWAP10 POP POP POP POP POP POP POP POP POP POP JUMP JUMPDEST PUSH0 DUP2 MLOAD SWAP1 POP SWAP2 SWAP1 POP JUMP JUMPDEST PUSH0 DUP3 DUP3 MSTORE PUSH1 0x20 DUP3 ADD SWAP1 POP SWAP3 SWAP2 POP POP JUMP JUMPDEST PUSH0 DUP2 SWAP1 POP PUSH1 0x20 DUP3 ADD SWAP1 POP SWAP2 SWAP1 POP JUMP JUMPDEST PUSH0 PUSH1 0x40 DUP4 ADD PUSH0 DUP4 ADD MLOAD PUSH2 0x19F5 PUSH0 DUP7 ADD DUP3 PUSH2 0x1782 JUMP JUMPDEST POP PUSH1 0x20 DUP4 ADD MLOAD DUP5 DUP3 SUB PUSH1 0x20 DUP7 ADD MSTORE PUSH2 0x1A0D DUP3 DUP3 PUSH2 0x17A1 JUMP JUMPDEST SWAP2 POP POP DUP1 SWAP2 POP POP SWAP3 SWAP2 POP POP JUMP JUMPDEST PUSH0 PUSH2 0x1A25 DUP4 DUP4 PUSH2 0x19E0 JUMP JUMPDEST SWAP1 POP SWAP3 SWAP2 POP POP JUMP JUMPDEST PUSH0 PUSH1 0x20 DUP3 ADD SWAP1 POP SWAP2 SWAP1 POP JUMP JUMPDEST PUSH0 PUSH2 0x1A43 DUP3 PUSH2 0x19B7 JUMP JUMPDEST PUSH2 0x1A4D DUP2 DUP6 PUSH2 0x19C1 JUMP JUMPDEST SWAP4 POP DUP4 PUSH1 0x20 DUP3 MUL DUP6 ADD PUSH2 0x1A5F DUP6 PUSH2 0x19D1 JUMP JUMPDEST DUP1 PUSH0 JUMPDEST DUP6 DUP2 LT ISZERO PUSH2 0x1A9A JUMPI DUP5 DUP5 SUB DUP10 MSTORE DUP2 MLOAD PUSH2 0x1A7B DUP6 DUP3 PUSH2 0x1A1A JUMP JUMPDEST SWAP5 POP PUSH2 0x1A86 DUP4 PUSH2 0x1A2D JUMP JUMPDEST SWAP3 POP PUSH1 0x20 DUP11 ADD SWAP10 POP POP PUSH1 0x1 DUP2 ADD SWAP1 POP PUSH2 0x1A62 JUMP JUMPDEST POP DUP3 SWAP8 POP DUP8 SWAP6 POP POP POP POP POP POP SWAP3 SWAP2 POP POP JUMP JUMPDEST PUSH0 PUSH1 0x20 DUP3 ADD SWAP1 POP DUP2 DUP2 SUB PUSH0 DUP4 ADD MSTORE PUSH2 0x1AC4 DUP2 DUP5 PUSH2 0x1A39 JUMP JUMPDEST SWAP1 POP SWAP3 SWAP2 POP POP JUMP JUMPDEST PUSH0 DUP2 MLOAD SWAP1 POP SWAP2 SWAP1 POP JUMP JUMPDEST PUSH0 DUP3 DUP3 MSTORE PUSH1 0x20 DUP3 ADD SWAP1 POP SWAP3 SWAP2 POP POP JUMP JUMPDEST PUSH0 DUP2 SWAP1 POP PUSH1 0x20 DUP3 ADD SWAP1 POP SWAP2 SWAP1 POP JUMP JUMPDEST PUSH0 PUSH1 0x60 DUP4 ADD PUSH0 DUP4 ADD MLOAD DUP5 DUP3 SUB PUSH0 DUP7 ADD MSTORE PUSH2 0x1B0F DUP3 DUP3 PUSH2 0x17A1 JUMP JUMPDEST SWAP2 POP POP PUSH1 0x20 DUP4 ADD MLOAD DUP5 DUP3 SUB PUSH1 0x20 DUP7 ADD MSTORE PUSH2 0x1B29 DUP3 DUP3 PUSH2 0x17A1 JUMP JUMPDEST SWAP2 POP POP PUSH1 0x40 DUP4 ADD MLOAD PUSH2 0x1B3E PUSH1 0x40 DUP7 ADD DUP3 PUSH2 0x17D9 JUMP JUMPDEST POP DUP1 SWAP2 POP POP SWAP3 SWAP2 POP POP JUMP JUMPDEST PUSH0 PUSH2 0x1B54 DUP4 DUP4 PUSH2 0x1AF5 JUMP JUMPDEST SWAP1 POP SWAP3 SWAP2 POP POP JUMP JUMPDEST PUSH0 PUSH1 0x20 DUP3 ADD SWAP1 POP SWAP2 SWAP1 POP JUMP JUMPDEST PUSH0 PUSH2 0x1B72 DUP3 PUSH2 0x1ACC JUMP JUMPDEST PUSH2 0x1B7C DUP2 DUP6 PUSH2 0x1AD6 JUMP JUMPDEST SWAP4 POP DUP4 PUSH1 0x20 DUP3 MUL DUP6 ADD PUSH2 0x1B8E DUP6 PUSH2 0x1AE6 JUMP JUMPDEST DUP1 PUSH0 JUMPDEST DUP6 DUP2 LT ISZERO PUSH2 0x1BC9 JUMPI DUP5 DUP5 SUB DUP10 MSTORE DUP2 MLOAD PUSH2 0x1BAA DUP6 DUP3 PUSH2 0x1B49 JUMP JUMPDEST SWAP5 POP PUSH2 0x1BB5 DUP4 PUSH2 0x1B5C JUMP JUMPDEST SWAP3 POP PUSH1 0x20 DUP11 ADD SWAP10 POP POP PUSH1 0x1 DUP2 ADD SWAP1 POP PUSH2 0x1B91 JUMP JUMPDEST POP DUP3 SWAP8 POP DUP8 SWAP6 POP POP POP POP POP POP SWAP3 SWAP2 POP POP JUMP JUMPDEST PUSH0 PUSH1 0x20 DUP3 ADD SWAP1 POP DUP2 DUP2 SUB PUSH0 DUP4 ADD MSTORE PUSH2 0x1BF3 DUP2 DUP5 PUSH2 0x1B68 JUMP JUMPDEST SWAP1 POP SWAP3 SWAP2 POP POP JUMP JUMPDEST PUSH2 0x1C04 DUP2 PUSH2 0x14EC JUMP JUMPDEST DUP2 EQ PUSH2 0x1C0E JUMPI PUSH0 DUP1 REVERT JUMPDEST POP JUMP JUMPDEST PUSH0 DUP2 CALLDATALOAD SWAP1 POP PUSH2 0x1C1F DUP2 PUSH2 0x1BFB JUMP JUMPDEST SWAP3 SWAP2 POP POP JUMP JUMPDEST PUSH2 0x1C2E DUP2 PUSH2 0x18EF JUMP JUMPDEST DUP2 EQ PUSH2 0x1C38 JUMPI PUSH0 DUP1 REVERT JUMPDEST POP JUMP JUMPDEST PUSH0 DUP2 CALLDATALOAD SWAP1 POP PUSH2 0x1C49 DUP2 PUSH2 0x1C25 JUMP JUMPDEST SWAP3 SWAP2 POP POP JUMP JUMPDEST PUSH0 DUP1 PUSH0 DUP1 PUSH0 PUSH1 0xA0 DUP7 DUP9 SUB SLT ISZERO PUSH2 0x1C68 JUMPI PUSH2 0x1C67 PUSH2 0x145F JUMP JUMPDEST JUMPDEST PUSH0 DUP7 ADD CALLDATALOAD PUSH8 0xFFFFFFFFFFFFFFFF DUP2 GT ISZERO PUSH2 0x1C85 JUMPI PUSH2 0x1C84 PUSH2 0x1463 JUMP JUMPDEST JUMPDEST PUSH2 0x1C91 DUP9 DUP3 DUP10 ADD PUSH2 0x16C6 JUMP JUMPDEST SWAP6 POP POP PUSH1 0x20 DUP7 ADD CALLDATALOAD PUSH8 0xFFFFFFFFFFFFFFFF DUP2 GT ISZERO PUSH2 0x1CB2 JUMPI PUSH2 0x1CB1 PUSH2 0x1463 JUMP JUMPDEST JUMPDEST PUSH2 0x1CBE DUP9 DUP3 DUP10 ADD PUSH2 0x16C6 JUMP JUMPDEST SWAP5 POP POP PUSH1 0x40 PUSH2 0x1CCF DUP9 DUP3 DUP10 ADD PUSH2 0x1C11 JUMP JUMPDEST SWAP4 POP POP PUSH1 0x60 PUSH2 0x1CE0 DUP9 DUP3 DUP10 ADD PUSH2 0x1C11 JUMP JUMPDEST SWAP3 POP POP PUSH1 0x80 PUSH2 0x1CF1 DUP9 DUP3 DUP10 ADD PUSH2 0x1C3B JUMP JUMPDEST SWAP2 POP POP SWAP3 SWAP6 POP SWAP3 SWAP6 SWAP1 SWAP4 POP JUMP JUMPDEST PUSH2 0x1D07 DUP2 PUSH2 0x1486 JUMP JUMPDEST DUP3 MSTORE POP POP JUMP JUMPDEST PUSH0 PUSH1 0x20 DUP3 ADD SWAP1 POP PUSH2 0x1D20 PUSH0 DUP4 ADD DUP5 PUSH2 0x1CFE JUMP JUMPDEST SWAP3 SWAP2 POP POP JUMP JUMPDEST PUSH0 DUP1 PUSH1 0x40 DUP4 DUP6 SUB SLT ISZERO PUSH2 0x1D3C JUMPI PUSH2 0x1D3B PUSH2 0x145F JUMP JUMPDEST JUMPDEST PUSH0 DUP4 ADD CALLDATALOAD PUSH8 0xFFFFFFFFFFFFFFFF DUP2 GT ISZERO PUSH2 0x1D59 JUMPI PUSH2 0x1D58 PUSH2 0x1463 JUMP JUMPDEST JUMPDEST PUSH2 0x1D65 DUP6 DUP3 DUP7 ADD PUSH2 0x16C6 JUMP JUMPDEST SWAP3 POP POP PUSH1 0x20 DUP4 ADD CALLDATALOAD PUSH8 0xFFFFFFFFFFFFFFFF DUP2 GT ISZERO PUSH2 0x1D86 JUMPI PUSH2 0x1D85 PUSH2 0x1463 JUMP JUMPDEST JUMPDEST PUSH2 0x1D92 DUP6 DUP3 DUP7 ADD PUSH2 0x16C6 JUMP JUMPDEST SWAP2 POP POP SWAP3 POP SWAP3 SWAP1 POP JUMP JUMPDEST PUSH32 0x4E487B7100000000000000000000000000000000000000000000000000000000 PUSH0 MSTORE PUSH1 0x22 PUSH1 0x4 MSTORE PUSH1 0x24 PUSH0 REVERT JUMPDEST PUSH0 PUSH1 0x2 DUP3 DIV SWAP1 POP PUSH1 0x1 DUP3 AND DUP1 PUSH2 0x1DE0 JUMPI PUSH1 0x7F DUP3 AND SWAP2 POP JUMPDEST PUSH1 0x20 DUP3 LT DUP2 SUB PUSH2 0x1DF3 JUMPI PUSH2 0x1DF2 PUSH2 0x1D9C JUMP JUMPDEST JUMPDEST POP SWAP2 SWAP1 POP JUMP JUMPDEST PUSH0 DUP2 SWAP1 POP SWAP3 SWAP2 POP POP JUMP JUMPDEST PUSH0 PUSH2 0x1E0D DUP3 PUSH2 0x151D JUMP JUMPDEST PUSH2 0x1E17 DUP2 DUP6 PUSH2 0x1DF9 JUMP JUMPDEST SWAP4 POP PUSH2 0x1E27 DUP2 DUP6 PUSH1 0x20 DUP7 ADD PUSH2 0x1537 JUMP JUMPDEST DUP1 DUP5 ADD SWAP2 POP POP SWAP3 SWAP2 POP POP JUMP JUMPDEST PUSH0 PUSH2 0x1E3E DUP3 DUP5 PUSH2 0x1E03 JUMP JUMPDEST SWAP2 POP DUP2 SWAP1 POP SWAP3 SWAP2 POP POP JUMP JUMPDEST PUSH32 0x4E487B7100000000000000000000000000000000000000000000000000000000 PUSH0 MSTORE PUSH1 0x11 PUSH1 0x4 MSTORE PUSH1 0x24 PUSH0 REVERT JUMPDEST PUSH0 PUSH2 0x1E80 DUP3 PUSH2 0x14EC JUMP JUMPDEST SWAP2 POP PUSH32 0xFFFFFFFFFFFFFFFFFFFFFFFFFFFFFFFFFFFFFFFFFFFFFFFFFFFFFFFFFFFFFFFF DUP3 SUB PUSH2 0x1EB2 JUMPI PUSH2 0x1EB1 PUSH2 0x1E49 JUMP JUMPDEST JUMPDEST PUSH1 0x1 DUP3 ADD SWAP1 POP SWAP2 SWAP1 POP JUMP JUMPDEST PUSH0 DUP2 SWAP1 POP DUP2 PUSH0 MSTORE PUSH1 0x20 PUSH0 KECCAK256 SWAP1 POP SWAP2 SWAP1 POP JUMP JUMPDEST PUSH0 PUSH1 0x20 PUSH1 0x1F DUP4 ADD DIV SWAP1 POP SWAP2 SWAP1 POP JUMP JUMPDEST PUSH0 DUP3 DUP3 SHL SWAP1 POP SWAP3 SWAP2 POP POP JUMP JUMPDEST PUSH0 PUSH1 0x8 DUP4 MUL PUSH2 0x1F19 PUSH32 0xFFFFFFFFFFFFFFFFFFFFFFFFFFFFFFFFFFFFFFFFFFFFFFFFFFFFFFFFFFFFFFFF DUP3 PUSH2 0x1EDE JUMP JUMPDEST PUSH2 0x1F23 DUP7 DUP4 PUSH2 0x1EDE JUMP JUMPDEST SWAP6 POP DUP1 NOT DUP5 AND SWAP4 POP DUP1 DUP7 AND DUP5 OR SWAP3 POP POP POP SWAP4 SWAP3 POP POP POP JUMP JUMPDEST PUSH0 DUP2 SWAP1 POP SWAP2 SWAP1 POP JUMP JUMPDEST PUSH0 PUSH2 0x1F5E PUSH2 0x1F59 PUSH2 0x1F54 DUP5 PUSH2 0x14EC JUMP JUMPDEST PUSH2 0x1F3B JUMP JUMPDEST PUSH2 0x14EC JUMP JUMPDEST SWAP1 POP SWAP2 SWAP1 POP JUMP JUMPDEST PUSH0 DUP2 SWAP1 POP SWAP2 SWAP1 POP JUMP JUMPDEST PUSH2 0x1F77 DUP4 PUSH2 0x1F44 JUMP JUMPDEST PUSH2 0x1F8B PUSH2 0x1F83 DUP3 PUSH2 0x1F65 JUMP JUMPDEST DUP5 DUP5 SLOAD PUSH2 0x1EEA JUMP JUMPDEST DUP3 SSTORE POP POP POP POP JUMP JUMPDEST PUSH0 SWAP1 JUMP JUMPDEST PUSH2 0x1F9F PUSH2 0x1F93 JUMP JUMPDEST PUSH2 0x1FAA DUP2 DUP5 DUP5 PUSH2 0x1F6E JUMP JUMPDEST POP POP POP JUMP JUMPDEST JUMPDEST DUP2 DUP2 LT ISZERO PUSH2 0x1FCD JUMPI PUSH2 0x1FC2 PUSH0 DUP3 PUSH2 0x1F97 JUMP JUMPDEST PUSH1 0x1 DUP2 ADD SWAP1 POP PUSH2 0x1FB0 JUMP JUMPDEST POP POP JUMP JUMPDEST PUSH1 0x1F DUP3 GT ISZERO PUSH2 0x2012 JUMPI PUSH2 0x1FE3 DUP2 PUSH2 0x1EBD JUMP JUMPDEST PUSH2 0x1FEC DUP5 PUSH2 0x1ECF JUMP JUMPDEST DUP2 ADD PUSH1 0x20 DUP6 LT ISZERO PUSH2 0x1FFB JUMPI DUP2 SWAP1 POP JUMPDEST PUSH2 0x200F PUSH2 0x2007 DUP6 PUSH2 0x1ECF JUMP JUMPDEST DUP4 ADD DUP3 PUSH2 0x1FAF JUMP JUMPDEST POP POP JUMPDEST POP POP POP JUMP JUMPDEST PUSH0 DUP3 DUP3 SHR SWAP1 POP SWAP3 SWAP2 POP POP JUMP JUMPDEST PUSH0 PUSH2 0x2032 PUSH0 NOT DUP5 PUSH1 0x8 MUL PUSH2 0x2017 JUMP JUMPDEST NOT DUP1 DUP4 AND SWAP2 POP POP SWAP3 SWAP2 POP POP JUMP JUMPDEST PUSH0 PUSH2 0x204A DUP4 DUP4 PUSH2 0x2023 JUMP JUMPDEST SWAP2 POP DUP3 PUSH1 0x2 MUL DUP3 OR SWAP1 POP SWAP3 SWAP2 POP POP JUMP JUMPDEST PUSH2 0x2063 DUP3 PUSH2 0x151D JUMP JUMPDEST PUSH8 0xFFFFFFFFFFFFFFFF DUP2 GT ISZERO PUSH2 0x207C JUMPI PUSH2 0x207B PUSH2 0x15CF JUMP JUMPDEST JUMPDEST PUSH2 0x2086 DUP3 SLOAD PUSH2 0x1DC9 JUMP JUMPDEST PUSH2 0x2091 DUP3 DUP3 DUP6 PUSH2 0x1FD1 JUMP JUMPDEST PUSH0 PUSH1 0x20 SWAP1 POP PUSH1 0x1F DUP4 GT PUSH1 0x1 DUP2 EQ PUSH2 0x20C2 JUMPI PUSH0 DUP5 ISZERO PUSH2 0x20B0 JUMPI DUP3 DUP8 ADD MLOAD SWAP1 POP JUMPDEST PUSH2 0x20BA DUP6 DUP3 PUSH2 0x203F JUMP JUMPDEST DUP7 SSTORE POP PUSH2 0x2121 JUMP JUMPDEST PUSH1 0x1F NOT DUP5 AND PUSH2 0x20D0 DUP7 PUSH2 0x1EBD JUMP JUMPDEST PUSH0 JUMPDEST DUP3 DUP2 LT ISZERO PUSH2 0x20F7 JUMPI DUP5 DUP10 ADD MLOAD DUP3 SSTORE PUSH1 0x1 DUP3 ADD SWAP2 POP PUSH1 0x20 DUP6 ADD SWAP5 POP PUSH1 0x20 DUP2 ADD SWAP1 POP PUSH2 0x20D2 JUMP JUMPDEST DUP7 DUP4 LT ISZERO PUSH2 0x2114 JUMPI DUP5 DUP10 ADD MLOAD PUSH2 0x2110 PUSH1 0x1F DUP10 AND DUP3 PUSH2 0x2023 JUMP JUMPDEST DUP4 SSTORE POP JUMPDEST PUSH1 0x1 PUSH1 0x2 DUP9 MUL ADD DUP9 SSTORE POP POP POP JUMPDEST POP POP POP POP POP POP JUMP INVALID LOG2 PUSH5 0x6970667358 0x22 SLT KECCAK256 0xE6 TIMESTAMP 0xAB 0x4F PUSH32 0x97C48E7CCAF866EA32DC4D704242B753E415C87F3D8F89E85C1FEE64736F6C63 NUMBER STOP ADDMOD XOR STOP CALLER "},"gasEstimates":{"creation":{"codeDepositCost":"1708600","executionCost":"infinite","totalCost":"infinite"},"external":{"addFunds()":"2333","approvers(address)":"2826","claimRequest(string,string)":"infinite","contribute()":"51029","getCampaignName()":"infinite","getContractBalance()":"401","getContributorsCount()":"2542","getDescription()":"infinite","getManager()":"2604","getMinimumContribution()":"2520","getRequestClaims(string)":"infinite","getRequests()":"infinite","getRequestsCount()":"2522","getSummary()":"infinite","requests(string)":"infinite","submitRequest(string)":"infinite","triggerCampaignRequest(string,string,uint256,uint256,address)":"infinite","voteRequest(string,bool)":"infinite"}},"methodIdentifiers":{"addFunds()":"a26759cb","approvers(address)":"0a144391","claimRequest(string,string)":"f0190215","contribute()":"d7bb99ba","getCampaignName()":"885e7c62","getContractBalance()":"6f9fb98a","getContributorsCount()":"feed5561","getDescription()":"1a092541","getManager()":"d5009584","getMinimumContribution()":"f84038b1","getRequestClaims(string)":"7d6e5b9e","getRequests()":"8813ce12","getRequestsCount()":"3410452a","getSummary()":"4051ddac","requests(string)":"692d51d2","submitRequest(string)":"e2e46b52","triggerCampaignRequest(string,string,uint256,uint256,address)":"a7ac8000","voteRequest(string,bool)":"30e8fc5c"}},"storageLayout":{"storage":[{"astId":157,"contract":"Campaign.sol:Campaign","label":"_name","offset":0,"slot":"0","type":"t_string_storage"},{"astId":159,"contract":"Campaign.sol:Campaign","label":"_description","offset":0,"slot":"1","type":"t_string_storage"},{"astId":161,"contract":"Campaign.sol:Campaign","label":"_manager","offset":0,"slot":"2","type":"t_address"},{"astId":165,"contract":"Campaign.sol:Campaign","label":"approvers","offset":0,"slot":"3","type":"t_mapping(t_address,t_uint256)"},{"astId":167,"contract":"Campaign.sol:Campaign","label":"_approversCount","offset":0,"slot":"4","type":"t_uint256"},{"astId":169,"contract":"Campaign.sol:Campaign","label":"_minimumContribution","offset":0,"slot":"5","type":"t_uint256"},{"astId":173,"contract":"Campaign.sol:Campaign","label":"_requests","offset":0,"slot":"6","type":"t_array(t_struct(RequestSummary)150_storage)dyn_storage"},{"astId":178,"contract":"Campaign.sol:Campaign","label":"requests","offset":0,"slot":"7","type":"t_mapping(t_string_memory_ptr,t_struct(Request)128_storage)"},{"astId":180,"contract":"Campaign.sol:Campaign","label":"_requestsCount","offset":0,"slot":"8","type":"t_uint256"}],"types":{"t_address":{"encoding":"inplace","label":"address","numberOfBytes":"20"},"t_address_payable":{"encoding":"inplace","label":"address payable","numberOfBytes":"20"},"t_array(t_struct(RequestClaim)155_storage)dyn_storage":{"base":"t_struct(RequestClaim)155_storage","encoding":"dynamic_array","label":"struct Campaign.RequestClaim[]","numberOfBytes":"32"},"t_array(t_struct(RequestSummary)150_storage)dyn_storage":{"base":"t_struct(RequestSummary)150_storage","encoding":"dynamic_array","label":"struct Campaign.RequestSummary[]","numberOfBytes":"32"},"t_bool":{"encoding":"inplace","label":"bool","numberOfBytes":"1"},"t_mapping(t_address,t_bool)":{"encoding":"mapping","key":"t_address","label":"mapping(address => bool)","numberOfBytes":"32","value":"t_bool"},"t_mapping(t_address,t_uint256)":{"encoding":"mapping","key":"t_address","label":"mapping(address => uint256)","numberOfBytes":"32","value":"t_uint256"},"t_mapping(t_string_memory_ptr,t_struct(Request)128_storage)":{"encoding":"mapping","key":"t_string_memory_ptr","label":"mapping(string => struct Campaign.Request)","numberOfBytes":"32","value":"t_struct(Request)128_storage"},"t_string_memory_ptr":{"encoding":"bytes","label":"string","numberOfBytes":"32"},"t_string_storage":{"encoding":"bytes","label":"string","numberOfBytes":"32"},"t_struct(Request)128_storage":{"encoding":"inplace","label":"struct Campaign.Request","members":[{"astId":103,"contract":"Campaign.sol:Campaign","label":"name","offset":0,"slot":"0","type":"t_string_storage"},{"astId":105,"contract":"Campaign.sol:Campaign","label":"description","offset":0,"slot":"1","type":"t_string_storage"},{"astId":107,"contract":"Campaign.sol:Campaign","label":"amount","offset":0,"slot":"2","type":"t_uint256"},{"astId":109,"contract":"Campaign.sol:Campaign","label":"receiver","offset":0,"slot":"3","type":"t_address_payable"},{"astId":111,"contract":"Campaign.sol:Campaign","label":"approvalsCount","offset":0,"slot":"4","type":"t_uint256"},{"astId":113,"contract":"Campaign.sol:Campaign","label":"requiredApprovals","offset":0,"slot":"5","type":"t_uint256"},{"astId":115,"contract":"Campaign.sol:Campaign","label":"claimsCount","offset":0,"slot":"6","type":"t_uint256"},{"astId":117,"contract":"Campaign.sol:Campaign","label":"canSubmit","offset":0,"slot":"7","type":"t_bool"},{"astId":119,"contract":"Campaign.sol:Campaign","label":"complete","offset":1,"slot":"7","type":"t_bool"},{"astId":123,"contract":"Campaign.sol:Campaign","label":"approvers","offset":0,"slot":"8","type":"t_mapping(t_address,t_bool)"},{"astId":127,"contract":"Campaign.sol:Campaign","label":"claims","offset":0,"slot":"9","type":"t_array(t_struct(RequestClaim)155_storage)dyn_storage"}],"numberOfBytes":"320"},"t_struct(RequestClaim)155_storage":{"encoding":"inplace","label":"struct Campaign.RequestClaim","members":[{"astId":152,"contract":"Campaign.sol:Campaign","label":"contributor","offset":0,"slot":"0","type":"t_address"},{"astId":154,"contract":"Campaign.sol:Campaign","label":"description","offset":0,"slot":"1","type":"t_string_storage"}],"numberOfBytes":"64"},"t_struct(RequestSummary)150_storage":{"encoding":"inplace","label":"struct Campaign.RequestSummary","members":[{"astId":145,"contract":"Campaign.sol:Campaign","label":"name","offset":0,"slot":"0","type":"t_string_storage"},{"astId":147,"contract":"Campaign.sol:Campaign","label":"description","offset":0,"slot":"1","type":"t_string_storage"},{"astId":149,"contract":"Campaign.sol:Campaign","label":"amount","offset":0,"slot":"2","type":"t_uint256"}],"numberOfBytes":"96"},"t_uint256":{"encoding":"inplace","label":"uint256","numberOfBytes":"32"}}},"userdoc":{"kind":"user","methods":{},"version":1}}