{"abi":[{"inputs":[{"internalType":"string","name":"name","type":"string"},{"internalType":"string","name":"description","type":"string"},{"internalType":"uint256","name":"minimum","type":"uint256"},{"internalType":"address","name":"mngr","type":"address"}],"stateMutability":"nonpayable","type":"constructor"},{"inputs":[{"internalType":"address","name":"","type":"address"}],"name":"approvers","outputs":[{"internalType":"uint256","name":"","type":"uint256"}],"stateMutability":"view","type":"function"},{"inputs":[],"name":"contribute","outputs":[],"stateMutability":"payable","type":"function"},{"inputs":[],"name":"getCampaignName","outputs":[{"internalType":"string","name":"","type":"string"}],"stateMutability":"view","type":"function"},{"inputs":[],"name":"getContractBalance","outputs":[{"internalType":"uint256","name":"","type":"uint256"}],"stateMutability":"view","type":"function"},{"inputs":[],"name":"getContributorsCount","outputs":[{"internalType":"uint256","name":"","type":"uint256"}],"stateMutability":"view","type":"function"},{"inputs":[],"name":"getDescription","outputs":[{"internalType":"string","name":"","type":"string"}],"stateMutability":"view","type":"function"},{"inputs":[],"name":"getManager","outputs":[{"internalType":"address","name":"","type":"address"}],"stateMutability":"view","type":"function"},{"inputs":[],"name":"getMinimumContribution","outputs":[{"internalType":"uint256","name":"","type":"uint256"}],"stateMutability":"view","type":"function"},{"inputs":[],"name":"getRequests","outputs":[{"internalType":"string[]","name":"","type":"string[]"}],"stateMutability":"view","type":"function"},{"inputs":[],"name":"getRequestsCount","outputs":[{"internalType":"uint256","name":"","type":"uint256"}],"stateMutability":"view","type":"function"},{"inputs":[],"name":"getSummary","outputs":[{"components":[{"internalType":"address","name":"manager","type":"address"},{"internalType":"string","name":"name","type":"string"},{"internalType":"string","name":"description","type":"string"},{"internalType":"uint256","name":"minContribution","type":"uint256"},{"internalType":"uint256","name":"balance","type":"uint256"},{"internalType":"uint256","name":"contributors","type":"uint256"},{"internalType":"uint256","name":"totalRequests","type":"uint256"}],"internalType":"struct Campaign.Summary","name":"","type":"tuple"}],"stateMutability":"view","type":"function"},{"inputs":[{"internalType":"string","name":"","type":"string"}],"name":"requests","outputs":[{"internalType":"string","name":"name","type":"string"},{"internalType":"string","name":"description","type":"string"},{"internalType":"uint256","name":"amount","type":"uint256"},{"internalType":"address payable","name":"receiver","type":"address"},{"internalType":"uint256","name":"approvalsCount","type":"uint256"},{"internalType":"uint256","name":"requiredApprovals","type":"uint256"},{"internalType":"bool","name":"canSubmit","type":"bool"},{"internalType":"bool","name":"complete","type":"bool"}],"stateMutability":"view","type":"function"},{"inputs":[{"internalType":"string","name":"reqName","type":"string"}],"name":"submitRequest","outputs":[],"stateMutability":"nonpayable","type":"function"},{"inputs":[{"internalType":"string","name":"name","type":"string"},{"internalType":"string","name":"description","type":"string"},{"internalType":"uint256","name":"amount","type":"uint256"},{"internalType":"uint256","name":"requiredApprovals","type":"uint256"},{"internalType":"address payable","name":"receiver","type":"address"}],"name":"triggerCampaignRequest","outputs":[],"stateMutability":"nonpayable","type":"function"},{"inputs":[{"internalType":"string","name":"reqName","type":"string"},{"internalType":"bool","name":"isApproval","type":"bool"}],"name":"voteRequest","outputs":[],"stateMutability":"nonpayable","type":"function"}],"devdoc":{"kind":"dev","methods":{},"version":1},"evm":{"assembly":"    /* \"Campaign.sol\":1142:5769  contract Campaign... */\n  mstore(0x40, 0x80)\n    /* \"Campaign.sol\":1982:2235  constructor (string memory name, string memory description, uint minimum, address mngr)... */\n  callvalue\n  dup1\n  iszero\n  tag_1\n  jumpi\n  0x00\n  dup1\n  revert\ntag_1:\n  pop\n  mload(0x40)\n  sub(codesize, bytecodeSize)\n  dup1\n  bytecodeSize\n  dup4\n  codecopy\n  dup2\n  dup2\n  add\n  0x40\n  mstore\n  dup2\n  add\n  swap1\n  tag_2\n  swap2\n  swap1\n  tag_3\n  jump\t// in\ntag_2:\n    /* \"Campaign.sol\":2102:2103  0 */\n  0x00\n    /* \"Campaign.sol\":2092:2099  minimum */\n  dup3\n    /* \"Campaign.sol\":2092:2103  minimum > 0 */\n  gt\n    /* \"Campaign.sol\":2084:2104  require(minimum > 0) */\n  tag_6\n  jumpi\n  0x00\n  dup1\n  revert\ntag_6:\n    /* \"Campaign.sol\":2125:2129  mngr */\n  dup1\n    /* \"Campaign.sol\":2114:2122  _manager */\n  0x02\n  0x00\n    /* \"Campaign.sol\":2114:2129  _manager = mngr */\n  0x0100\n  exp\n  dup2\n  sload\n  dup2\n  0xffffffffffffffffffffffffffffffffffffffff\n  mul\n  not\n  and\n  swap1\n  dup4\n  0xffffffffffffffffffffffffffffffffffffffff\n  and\n  mul\n  or\n  swap1\n  sstore\n  pop\n    /* \"Campaign.sol\":2147:2151  name */\n  dup4\n    /* \"Campaign.sol\":2139:2144  _name */\n  0x00\n    /* \"Campaign.sol\":2139:2151  _name = name */\n  swap1\n  dup2\n  tag_7\n  swap2\n  swap1\n  tag_8\n  jump\t// in\ntag_7:\n  pop\n    /* \"Campaign.sol\":2176:2187  description */\n  dup3\n    /* \"Campaign.sol\":2161:2173  _description */\n  0x01\n    /* \"Campaign.sol\":2161:2187  _description = description */\n  swap1\n  dup2\n  tag_9\n  swap2\n  swap1\n  tag_8\n  jump\t// in\ntag_9:\n  pop\n    /* \"Campaign.sol\":2221:2228  minimum */\n  dup2\n    /* \"Campaign.sol\":2198:2218  _minimumContribution */\n  0x05\n    /* \"Campaign.sol\":2198:2228  _minimumContribution = minimum */\n  dup2\n  swap1\n  sstore\n  pop\n    /* \"Campaign.sol\":1982:2235  constructor (string memory name, string memory description, uint minimum, address mngr)... */\n  pop\n  pop\n  pop\n  pop\n    /* \"Campaign.sol\":1142:5769  contract Campaign... */\n  jump(tag_10)\n    /* \"#utility.yul\":7:82   */\ntag_11:\n    /* \"#utility.yul\":40:46   */\n  0x00\n    /* \"#utility.yul\":73:75   */\n  0x40\n    /* \"#utility.yul\":67:76   */\n  mload\n    /* \"#utility.yul\":57:76   */\n  swap1\n  pop\n    /* \"#utility.yul\":7:82   */\n  swap1\n  jump\t// out\n    /* \"#utility.yul\":88:205   */\ntag_12:\n    /* \"#utility.yul\":197:198   */\n  0x00\n    /* \"#utility.yul\":194:195   */\n  dup1\n    /* \"#utility.yul\":187:199   */\n  revert\n    /* \"#utility.yul\":211:328   */\ntag_13:\n    /* \"#utility.yul\":320:321   */\n  0x00\n    /* \"#utility.yul\":317:318   */\n  dup1\n    /* \"#utility.yul\":310:322   */\n  revert\n    /* \"#utility.yul\":334:451   */\ntag_14:\n    /* \"#utility.yul\":443:444   */\n  0x00\n    /* \"#utility.yul\":440:441   */\n  dup1\n    /* \"#utility.yul\":433:445   */\n  revert\n    /* \"#utility.yul\":457:574   */\ntag_15:\n    /* \"#utility.yul\":566:567   */\n  0x00\n    /* \"#utility.yul\":563:564   */\n  dup1\n    /* \"#utility.yul\":556:568   */\n  revert\n    /* \"#utility.yul\":580:682   */\ntag_16:\n    /* \"#utility.yul\":621:627   */\n  0x00\n    /* \"#utility.yul\":672:674   */\n  0x1f\n    /* \"#utility.yul\":668:675   */\n  not\n    /* \"#utility.yul\":663:665   */\n  0x1f\n    /* \"#utility.yul\":656:661   */\n  dup4\n    /* \"#utility.yul\":652:666   */\n  add\n    /* \"#utility.yul\":648:676   */\n  and\n    /* \"#utility.yul\":638:676   */\n  swap1\n  pop\n    /* \"#utility.yul\":580:682   */\n  swap2\n  swap1\n  pop\n  jump\t// out\n    /* \"#utility.yul\":688:868   */\ntag_17:\n    /* \"#utility.yul\":736:813   */\n  0x4e487b7100000000000000000000000000000000000000000000000000000000\n    /* \"#utility.yul\":733:734   */\n  0x00\n    /* \"#utility.yul\":726:814   */\n  mstore\n    /* \"#utility.yul\":833:837   */\n  0x41\n    /* \"#utility.yul\":830:831   */\n  0x04\n    /* \"#utility.yul\":823:838   */\n  mstore\n    /* \"#utility.yul\":857:861   */\n  0x24\n    /* \"#utility.yul\":854:855   */\n  0x00\n    /* \"#utility.yul\":847:862   */\n  revert\n    /* \"#utility.yul\":874:1155   */\ntag_18:\n    /* \"#utility.yul\":957:984   */\n  tag_58\n    /* \"#utility.yul\":979:983   */\n  dup3\n    /* \"#utility.yul\":957:984   */\n  tag_16\n  jump\t// in\ntag_58:\n    /* \"#utility.yul\":949:955   */\n  dup2\n    /* \"#utility.yul\":945:985   */\n  add\n    /* \"#utility.yul\":1087:1093   */\n  dup2\n    /* \"#utility.yul\":1075:1085   */\n  dup2\n    /* \"#utility.yul\":1072:1094   */\n  lt\n    /* \"#utility.yul\":1051:1069   */\n  0xffffffffffffffff\n    /* \"#utility.yul\":1039:1049   */\n  dup3\n    /* \"#utility.yul\":1036:1070   */\n  gt\n    /* \"#utility.yul\":1033:1095   */\n  or\n    /* \"#utility.yul\":1030:1118   */\n  iszero\n  tag_59\n  jumpi\n    /* \"#utility.yul\":1098:1116   */\n  tag_60\n  tag_17\n  jump\t// in\ntag_60:\n    /* \"#utility.yul\":1030:1118   */\ntag_59:\n    /* \"#utility.yul\":1138:1148   */\n  dup1\n    /* \"#utility.yul\":1134:1136   */\n  0x40\n    /* \"#utility.yul\":1127:1149   */\n  mstore\n    /* \"#utility.yul\":917:1155   */\n  pop\n    /* \"#utility.yul\":874:1155   */\n  pop\n  pop\n  jump\t// out\n    /* \"#utility.yul\":1161:1290   */\ntag_19:\n    /* \"#utility.yul\":1195:1201   */\n  0x00\n    /* \"#utility.yul\":1222:1242   */\n  tag_62\n  tag_11\n  jump\t// in\ntag_62:\n    /* \"#utility.yul\":1212:1242   */\n  swap1\n  pop\n    /* \"#utility.yul\":1251:1284   */\n  tag_63\n    /* \"#utility.yul\":1279:1283   */\n  dup3\n    /* \"#utility.yul\":1271:1277   */\n  dup3\n    /* \"#utility.yul\":1251:1284   */\n  tag_18\n  jump\t// in\ntag_63:\n    /* \"#utility.yul\":1161:1290   */\n  swap2\n  swap1\n  pop\n  jump\t// out\n    /* \"#utility.yul\":1296:1604   */\ntag_20:\n    /* \"#utility.yul\":1358:1362   */\n  0x00\n    /* \"#utility.yul\":1448:1466   */\n  0xffffffffffffffff\n    /* \"#utility.yul\":1440:1446   */\n  dup3\n    /* \"#utility.yul\":1437:1467   */\n  gt\n    /* \"#utility.yul\":1434:1490   */\n  iszero\n  tag_65\n  jumpi\n    /* \"#utility.yul\":1470:1488   */\n  tag_66\n  tag_17\n  jump\t// in\ntag_66:\n    /* \"#utility.yul\":1434:1490   */\ntag_65:\n    /* \"#utility.yul\":1508:1537   */\n  tag_67\n    /* \"#utility.yul\":1530:1536   */\n  dup3\n    /* \"#utility.yul\":1508:1537   */\n  tag_16\n  jump\t// in\ntag_67:\n    /* \"#utility.yul\":1500:1537   */\n  swap1\n  pop\n    /* \"#utility.yul\":1592:1596   */\n  0x20\n    /* \"#utility.yul\":1586:1590   */\n  dup2\n    /* \"#utility.yul\":1582:1597   */\n  add\n    /* \"#utility.yul\":1574:1597   */\n  swap1\n  pop\n    /* \"#utility.yul\":1296:1604   */\n  swap2\n  swap1\n  pop\n  jump\t// out\n    /* \"#utility.yul\":1610:1856   */\ntag_21:\n    /* \"#utility.yul\":1691:1692   */\n  0x00\n    /* \"#utility.yul\":1701:1814   */\ntag_69:\n    /* \"#utility.yul\":1715:1721   */\n  dup4\n    /* \"#utility.yul\":1712:1713   */\n  dup2\n    /* \"#utility.yul\":1709:1722   */\n  lt\n    /* \"#utility.yul\":1701:1814   */\n  iszero\n  tag_71\n  jumpi\n    /* \"#utility.yul\":1800:1801   */\n  dup1\n    /* \"#utility.yul\":1795:1798   */\n  dup3\n    /* \"#utility.yul\":1791:1802   */\n  add\n    /* \"#utility.yul\":1785:1803   */\n  mload\n    /* \"#utility.yul\":1781:1782   */\n  dup2\n    /* \"#utility.yul\":1776:1779   */\n  dup5\n    /* \"#utility.yul\":1772:1783   */\n  add\n    /* \"#utility.yul\":1765:1804   */\n  mstore\n    /* \"#utility.yul\":1737:1739   */\n  0x20\n    /* \"#utility.yul\":1734:1735   */\n  dup2\n    /* \"#utility.yul\":1730:1740   */\n  add\n    /* \"#utility.yul\":1725:1740   */\n  swap1\n  pop\n    /* \"#utility.yul\":1701:1814   */\n  jump(tag_69)\ntag_71:\n    /* \"#utility.yul\":1848:1849   */\n  0x00\n    /* \"#utility.yul\":1839:1845   */\n  dup5\n    /* \"#utility.yul\":1834:1837   */\n  dup5\n    /* \"#utility.yul\":1830:1846   */\n  add\n    /* \"#utility.yul\":1823:1850   */\n  mstore\n    /* \"#utility.yul\":1672:1856   */\n  pop\n    /* \"#utility.yul\":1610:1856   */\n  pop\n  pop\n  pop\n  jump\t// out\n    /* \"#utility.yul\":1862:2296   */\ntag_22:\n    /* \"#utility.yul\":1951:1956   */\n  0x00\n    /* \"#utility.yul\":1976:2042   */\n  tag_73\n    /* \"#utility.yul\":1992:2041   */\n  tag_74\n    /* \"#utility.yul\":2034:2040   */\n  dup5\n    /* \"#utility.yul\":1992:2041   */\n  tag_20\n  jump\t// in\ntag_74:\n    /* \"#utility.yul\":1976:2042   */\n  tag_19\n  jump\t// in\ntag_73:\n    /* \"#utility.yul\":1967:2042   */\n  swap1\n  pop\n    /* \"#utility.yul\":2065:2071   */\n  dup3\n    /* \"#utility.yul\":2058:2063   */\n  dup2\n    /* \"#utility.yul\":2051:2072   */\n  mstore\n    /* \"#utility.yul\":2103:2107   */\n  0x20\n    /* \"#utility.yul\":2096:2101   */\n  dup2\n    /* \"#utility.yul\":2092:2108   */\n  add\n    /* \"#utility.yul\":2141:2144   */\n  dup5\n    /* \"#utility.yul\":2132:2138   */\n  dup5\n    /* \"#utility.yul\":2127:2130   */\n  dup5\n    /* \"#utility.yul\":2123:2139   */\n  add\n    /* \"#utility.yul\":2120:2145   */\n  gt\n    /* \"#utility.yul\":2117:2229   */\n  iszero\n  tag_75\n  jumpi\n    /* \"#utility.yul\":2148:2227   */\n  tag_76\n  tag_15\n  jump\t// in\ntag_76:\n    /* \"#utility.yul\":2117:2229   */\ntag_75:\n    /* \"#utility.yul\":2238:2290   */\n  tag_77\n    /* \"#utility.yul\":2283:2289   */\n  dup5\n    /* \"#utility.yul\":2278:2281   */\n  dup3\n    /* \"#utility.yul\":2273:2276   */\n  dup6\n    /* \"#utility.yul\":2238:2290   */\n  tag_21\n  jump\t// in\ntag_77:\n    /* \"#utility.yul\":1957:2296   */\n  pop\n    /* \"#utility.yul\":1862:2296   */\n  swap4\n  swap3\n  pop\n  pop\n  pop\n  jump\t// out\n    /* \"#utility.yul\":2316:2671   */\ntag_23:\n    /* \"#utility.yul\":2383:2388   */\n  0x00\n    /* \"#utility.yul\":2432:2435   */\n  dup3\n    /* \"#utility.yul\":2425:2429   */\n  0x1f\n    /* \"#utility.yul\":2417:2423   */\n  dup4\n    /* \"#utility.yul\":2413:2430   */\n  add\n    /* \"#utility.yul\":2409:2436   */\n  slt\n    /* \"#utility.yul\":2399:2521   */\n  tag_79\n  jumpi\n    /* \"#utility.yul\":2440:2519   */\n  tag_80\n  tag_14\n  jump\t// in\ntag_80:\n    /* \"#utility.yul\":2399:2521   */\ntag_79:\n    /* \"#utility.yul\":2550:2556   */\n  dup2\n    /* \"#utility.yul\":2544:2557   */\n  mload\n    /* \"#utility.yul\":2575:2665   */\n  tag_81\n    /* \"#utility.yul\":2661:2664   */\n  dup5\n    /* \"#utility.yul\":2653:2659   */\n  dup3\n    /* \"#utility.yul\":2646:2650   */\n  0x20\n    /* \"#utility.yul\":2638:2644   */\n  dup7\n    /* \"#utility.yul\":2634:2651   */\n  add\n    /* \"#utility.yul\":2575:2665   */\n  tag_22\n  jump\t// in\ntag_81:\n    /* \"#utility.yul\":2566:2665   */\n  swap2\n  pop\n    /* \"#utility.yul\":2389:2671   */\n  pop\n    /* \"#utility.yul\":2316:2671   */\n  swap3\n  swap2\n  pop\n  pop\n  jump\t// out\n    /* \"#utility.yul\":2677:2754   */\ntag_24:\n    /* \"#utility.yul\":2714:2721   */\n  0x00\n    /* \"#utility.yul\":2743:2748   */\n  dup2\n    /* \"#utility.yul\":2732:2748   */\n  swap1\n  pop\n    /* \"#utility.yul\":2677:2754   */\n  swap2\n  swap1\n  pop\n  jump\t// out\n    /* \"#utility.yul\":2760:2882   */\ntag_25:\n    /* \"#utility.yul\":2833:2857   */\n  tag_84\n    /* \"#utility.yul\":2851:2856   */\n  dup2\n    /* \"#utility.yul\":2833:2857   */\n  tag_24\n  jump\t// in\ntag_84:\n    /* \"#utility.yul\":2826:2831   */\n  dup2\n    /* \"#utility.yul\":2823:2858   */\n  eq\n    /* \"#utility.yul\":2813:2876   */\n  tag_85\n  jumpi\n    /* \"#utility.yul\":2872:2873   */\n  0x00\n    /* \"#utility.yul\":2869:2870   */\n  dup1\n    /* \"#utility.yul\":2862:2874   */\n  revert\n    /* \"#utility.yul\":2813:2876   */\ntag_85:\n    /* \"#utility.yul\":2760:2882   */\n  pop\n  jump\t// out\n    /* \"#utility.yul\":2888:3031   */\ntag_26:\n    /* \"#utility.yul\":2945:2950   */\n  0x00\n    /* \"#utility.yul\":2976:2982   */\n  dup2\n    /* \"#utility.yul\":2970:2983   */\n  mload\n    /* \"#utility.yul\":2961:2983   */\n  swap1\n  pop\n    /* \"#utility.yul\":2992:3025   */\n  tag_87\n    /* \"#utility.yul\":3019:3024   */\n  dup2\n    /* \"#utility.yul\":2992:3025   */\n  tag_25\n  jump\t// in\ntag_87:\n    /* \"#utility.yul\":2888:3031   */\n  swap3\n  swap2\n  pop\n  pop\n  jump\t// out\n    /* \"#utility.yul\":3037:3163   */\ntag_27:\n    /* \"#utility.yul\":3074:3081   */\n  0x00\n    /* \"#utility.yul\":3114:3156   */\n  0xffffffffffffffffffffffffffffffffffffffff\n    /* \"#utility.yul\":3107:3112   */\n  dup3\n    /* \"#utility.yul\":3103:3157   */\n  and\n    /* \"#utility.yul\":3092:3157   */\n  swap1\n  pop\n    /* \"#utility.yul\":3037:3163   */\n  swap2\n  swap1\n  pop\n  jump\t// out\n    /* \"#utility.yul\":3169:3265   */\ntag_28:\n    /* \"#utility.yul\":3206:3213   */\n  0x00\n    /* \"#utility.yul\":3235:3259   */\n  tag_90\n    /* \"#utility.yul\":3253:3258   */\n  dup3\n    /* \"#utility.yul\":3235:3259   */\n  tag_27\n  jump\t// in\ntag_90:\n    /* \"#utility.yul\":3224:3259   */\n  swap1\n  pop\n    /* \"#utility.yul\":3169:3265   */\n  swap2\n  swap1\n  pop\n  jump\t// out\n    /* \"#utility.yul\":3271:3393   */\ntag_29:\n    /* \"#utility.yul\":3344:3368   */\n  tag_92\n    /* \"#utility.yul\":3362:3367   */\n  dup2\n    /* \"#utility.yul\":3344:3368   */\n  tag_28\n  jump\t// in\ntag_92:\n    /* \"#utility.yul\":3337:3342   */\n  dup2\n    /* \"#utility.yul\":3334:3369   */\n  eq\n    /* \"#utility.yul\":3324:3387   */\n  tag_93\n  jumpi\n    /* \"#utility.yul\":3383:3384   */\n  0x00\n    /* \"#utility.yul\":3380:3381   */\n  dup1\n    /* \"#utility.yul\":3373:3385   */\n  revert\n    /* \"#utility.yul\":3324:3387   */\ntag_93:\n    /* \"#utility.yul\":3271:3393   */\n  pop\n  jump\t// out\n    /* \"#utility.yul\":3399:3542   */\ntag_30:\n    /* \"#utility.yul\":3456:3461   */\n  0x00\n    /* \"#utility.yul\":3487:3493   */\n  dup2\n    /* \"#utility.yul\":3481:3494   */\n  mload\n    /* \"#utility.yul\":3472:3494   */\n  swap1\n  pop\n    /* \"#utility.yul\":3503:3536   */\n  tag_95\n    /* \"#utility.yul\":3530:3535   */\n  dup2\n    /* \"#utility.yul\":3503:3536   */\n  tag_29\n  jump\t// in\ntag_95:\n    /* \"#utility.yul\":3399:3542   */\n  swap3\n  swap2\n  pop\n  pop\n  jump\t// out\n    /* \"#utility.yul\":3548:4714   */\ntag_3:\n    /* \"#utility.yul\":3665:3671   */\n  0x00\n    /* \"#utility.yul\":3673:3679   */\n  dup1\n    /* \"#utility.yul\":3681:3687   */\n  0x00\n    /* \"#utility.yul\":3689:3695   */\n  dup1\n    /* \"#utility.yul\":3738:3741   */\n  0x80\n    /* \"#utility.yul\":3726:3735   */\n  dup6\n    /* \"#utility.yul\":3717:3724   */\n  dup8\n    /* \"#utility.yul\":3713:3736   */\n  sub\n    /* \"#utility.yul\":3709:3742   */\n  slt\n    /* \"#utility.yul\":3706:3826   */\n  iszero\n  tag_97\n  jumpi\n    /* \"#utility.yul\":3745:3824   */\n  tag_98\n  tag_12\n  jump\t// in\ntag_98:\n    /* \"#utility.yul\":3706:3826   */\ntag_97:\n    /* \"#utility.yul\":3886:3887   */\n  0x00\n    /* \"#utility.yul\":3875:3884   */\n  dup6\n    /* \"#utility.yul\":3871:3888   */\n  add\n    /* \"#utility.yul\":3865:3889   */\n  mload\n    /* \"#utility.yul\":3916:3934   */\n  0xffffffffffffffff\n    /* \"#utility.yul\":3908:3914   */\n  dup2\n    /* \"#utility.yul\":3905:3935   */\n  gt\n    /* \"#utility.yul\":3902:4019   */\n  iszero\n  tag_99\n  jumpi\n    /* \"#utility.yul\":3938:4017   */\n  tag_100\n  tag_13\n  jump\t// in\ntag_100:\n    /* \"#utility.yul\":3902:4019   */\ntag_99:\n    /* \"#utility.yul\":4043:4117   */\n  tag_101\n    /* \"#utility.yul\":4109:4116   */\n  dup8\n    /* \"#utility.yul\":4100:4106   */\n  dup3\n    /* \"#utility.yul\":4089:4098   */\n  dup9\n    /* \"#utility.yul\":4085:4107   */\n  add\n    /* \"#utility.yul\":4043:4117   */\n  tag_23\n  jump\t// in\ntag_101:\n    /* \"#utility.yul\":4033:4117   */\n  swap5\n  pop\n    /* \"#utility.yul\":3836:4127   */\n  pop\n    /* \"#utility.yul\":4187:4189   */\n  0x20\n    /* \"#utility.yul\":4176:4185   */\n  dup6\n    /* \"#utility.yul\":4172:4190   */\n  add\n    /* \"#utility.yul\":4166:4191   */\n  mload\n    /* \"#utility.yul\":4218:4236   */\n  0xffffffffffffffff\n    /* \"#utility.yul\":4210:4216   */\n  dup2\n    /* \"#utility.yul\":4207:4237   */\n  gt\n    /* \"#utility.yul\":4204:4321   */\n  iszero\n  tag_102\n  jumpi\n    /* \"#utility.yul\":4240:4319   */\n  tag_103\n  tag_13\n  jump\t// in\ntag_103:\n    /* \"#utility.yul\":4204:4321   */\ntag_102:\n    /* \"#utility.yul\":4345:4419   */\n  tag_104\n    /* \"#utility.yul\":4411:4418   */\n  dup8\n    /* \"#utility.yul\":4402:4408   */\n  dup3\n    /* \"#utility.yul\":4391:4400   */\n  dup9\n    /* \"#utility.yul\":4387:4409   */\n  add\n    /* \"#utility.yul\":4345:4419   */\n  tag_23\n  jump\t// in\ntag_104:\n    /* \"#utility.yul\":4335:4419   */\n  swap4\n  pop\n    /* \"#utility.yul\":4137:4429   */\n  pop\n    /* \"#utility.yul\":4468:4470   */\n  0x40\n    /* \"#utility.yul\":4494:4558   */\n  tag_105\n    /* \"#utility.yul\":4550:4557   */\n  dup8\n    /* \"#utility.yul\":4541:4547   */\n  dup3\n    /* \"#utility.yul\":4530:4539   */\n  dup9\n    /* \"#utility.yul\":4526:4548   */\n  add\n    /* \"#utility.yul\":4494:4558   */\n  tag_26\n  jump\t// in\ntag_105:\n    /* \"#utility.yul\":4484:4558   */\n  swap3\n  pop\n    /* \"#utility.yul\":4439:4568   */\n  pop\n    /* \"#utility.yul\":4607:4609   */\n  0x60\n    /* \"#utility.yul\":4633:4697   */\n  tag_106\n    /* \"#utility.yul\":4689:4696   */\n  dup8\n    /* \"#utility.yul\":4680:4686   */\n  dup3\n    /* \"#utility.yul\":4669:4678   */\n  dup9\n    /* \"#utility.yul\":4665:4687   */\n  add\n    /* \"#utility.yul\":4633:4697   */\n  tag_30\n  jump\t// in\ntag_106:\n    /* \"#utility.yul\":4623:4697   */\n  swap2\n  pop\n    /* \"#utility.yul\":4578:4707   */\n  pop\n    /* \"#utility.yul\":3548:4714   */\n  swap3\n  swap6\n  swap2\n  swap5\n  pop\n  swap3\n  pop\n  jump\t// out\n    /* \"#utility.yul\":4720:4819   */\ntag_31:\n    /* \"#utility.yul\":4772:4778   */\n  0x00\n    /* \"#utility.yul\":4806:4811   */\n  dup2\n    /* \"#utility.yul\":4800:4812   */\n  mload\n    /* \"#utility.yul\":4790:4812   */\n  swap1\n  pop\n    /* \"#utility.yul\":4720:4819   */\n  swap2\n  swap1\n  pop\n  jump\t// out\n    /* \"#utility.yul\":4825:5005   */\ntag_32:\n    /* \"#utility.yul\":4873:4950   */\n  0x4e487b7100000000000000000000000000000000000000000000000000000000\n    /* \"#utility.yul\":4870:4871   */\n  0x00\n    /* \"#utility.yul\":4863:4951   */\n  mstore\n    /* \"#utility.yul\":4970:4974   */\n  0x22\n    /* \"#utility.yul\":4967:4968   */\n  0x04\n    /* \"#utility.yul\":4960:4975   */\n  mstore\n    /* \"#utility.yul\":4994:4998   */\n  0x24\n    /* \"#utility.yul\":4991:4992   */\n  0x00\n    /* \"#utility.yul\":4984:4999   */\n  revert\n    /* \"#utility.yul\":5011:5331   */\ntag_33:\n    /* \"#utility.yul\":5055:5061   */\n  0x00\n    /* \"#utility.yul\":5092:5093   */\n  0x02\n    /* \"#utility.yul\":5086:5090   */\n  dup3\n    /* \"#utility.yul\":5082:5094   */\n  div\n    /* \"#utility.yul\":5072:5094   */\n  swap1\n  pop\n    /* \"#utility.yul\":5139:5140   */\n  0x01\n    /* \"#utility.yul\":5133:5137   */\n  dup3\n    /* \"#utility.yul\":5129:5141   */\n  and\n    /* \"#utility.yul\":5160:5178   */\n  dup1\n    /* \"#utility.yul\":5150:5231   */\n  tag_110\n  jumpi\n    /* \"#utility.yul\":5216:5220   */\n  0x7f\n    /* \"#utility.yul\":5208:5214   */\n  dup3\n    /* \"#utility.yul\":5204:5221   */\n  and\n    /* \"#utility.yul\":5194:5221   */\n  swap2\n  pop\n    /* \"#utility.yul\":5150:5231   */\ntag_110:\n    /* \"#utility.yul\":5278:5280   */\n  0x20\n    /* \"#utility.yul\":5270:5276   */\n  dup3\n    /* \"#utility.yul\":5267:5281   */\n  lt\n    /* \"#utility.yul\":5247:5265   */\n  dup2\n    /* \"#utility.yul\":5244:5282   */\n  sub\n    /* \"#utility.yul\":5241:5325   */\n  tag_111\n  jumpi\n    /* \"#utility.yul\":5297:5315   */\n  tag_112\n  tag_32\n  jump\t// in\ntag_112:\n    /* \"#utility.yul\":5241:5325   */\ntag_111:\n    /* \"#utility.yul\":5062:5331   */\n  pop\n    /* \"#utility.yul\":5011:5331   */\n  swap2\n  swap1\n  pop\n  jump\t// out\n    /* \"#utility.yul\":5337:5478   */\ntag_34:\n    /* \"#utility.yul\":5386:5390   */\n  0x00\n    /* \"#utility.yul\":5409:5412   */\n  dup2\n    /* \"#utility.yul\":5401:5412   */\n  swap1\n  pop\n    /* \"#utility.yul\":5432:5435   */\n  dup2\n    /* \"#utility.yul\":5429:5430   */\n  0x00\n    /* \"#utility.yul\":5422:5436   */\n  mstore\n    /* \"#utility.yul\":5466:5470   */\n  0x20\n    /* \"#utility.yul\":5463:5464   */\n  0x00\n    /* \"#utility.yul\":5453:5471   */\n  keccak256\n    /* \"#utility.yul\":5445:5471   */\n  swap1\n  pop\n    /* \"#utility.yul\":5337:5478   */\n  swap2\n  swap1\n  pop\n  jump\t// out\n    /* \"#utility.yul\":5484:5577   */\ntag_35:\n    /* \"#utility.yul\":5521:5527   */\n  0x00\n    /* \"#utility.yul\":5568:5570   */\n  0x20\n    /* \"#utility.yul\":5563:5565   */\n  0x1f\n    /* \"#utility.yul\":5556:5561   */\n  dup4\n    /* \"#utility.yul\":5552:5566   */\n  add\n    /* \"#utility.yul\":5548:5571   */\n  div\n    /* \"#utility.yul\":5538:5571   */\n  swap1\n  pop\n    /* \"#utility.yul\":5484:5577   */\n  swap2\n  swap1\n  pop\n  jump\t// out\n    /* \"#utility.yul\":5583:5690   */\ntag_36:\n    /* \"#utility.yul\":5627:5635   */\n  0x00\n    /* \"#utility.yul\":5677:5682   */\n  dup3\n    /* \"#utility.yul\":5671:5675   */\n  dup3\n    /* \"#utility.yul\":5667:5683   */\n  shl\n    /* \"#utility.yul\":5646:5683   */\n  swap1\n  pop\n    /* \"#utility.yul\":5583:5690   */\n  swap3\n  swap2\n  pop\n  pop\n  jump\t// out\n    /* \"#utility.yul\":5696:6089   */\ntag_37:\n    /* \"#utility.yul\":5765:5771   */\n  0x00\n    /* \"#utility.yul\":5815:5816   */\n  0x08\n    /* \"#utility.yul\":5803:5813   */\n  dup4\n    /* \"#utility.yul\":5799:5817   */\n  mul\n    /* \"#utility.yul\":5838:5935   */\n  tag_117\n    /* \"#utility.yul\":5868:5934   */\n  0xffffffffffffffffffffffffffffffffffffffffffffffffffffffffffffffff\n    /* \"#utility.yul\":5857:5866   */\n  dup3\n    /* \"#utility.yul\":5838:5935   */\n  tag_36\n  jump\t// in\ntag_117:\n    /* \"#utility.yul\":5956:5995   */\n  tag_118\n    /* \"#utility.yul\":5986:5994   */\n  dup7\n    /* \"#utility.yul\":5975:5984   */\n  dup4\n    /* \"#utility.yul\":5956:5995   */\n  tag_36\n  jump\t// in\ntag_118:\n    /* \"#utility.yul\":5944:5995   */\n  swap6\n  pop\n    /* \"#utility.yul\":6028:6032   */\n  dup1\n    /* \"#utility.yul\":6024:6033   */\n  not\n    /* \"#utility.yul\":6017:6022   */\n  dup5\n    /* \"#utility.yul\":6013:6034   */\n  and\n    /* \"#utility.yul\":6004:6034   */\n  swap4\n  pop\n    /* \"#utility.yul\":6077:6081   */\n  dup1\n    /* \"#utility.yul\":6067:6075   */\n  dup7\n    /* \"#utility.yul\":6063:6082   */\n  and\n    /* \"#utility.yul\":6056:6061   */\n  dup5\n    /* \"#utility.yul\":6053:6083   */\n  or\n    /* \"#utility.yul\":6043:6083   */\n  swap3\n  pop\n    /* \"#utility.yul\":5772:6089   */\n  pop\n  pop\n    /* \"#utility.yul\":5696:6089   */\n  swap4\n  swap3\n  pop\n  pop\n  pop\n  jump\t// out\n    /* \"#utility.yul\":6095:6155   */\ntag_38:\n    /* \"#utility.yul\":6123:6126   */\n  0x00\n    /* \"#utility.yul\":6144:6149   */\n  dup2\n    /* \"#utility.yul\":6137:6149   */\n  swap1\n  pop\n    /* \"#utility.yul\":6095:6155   */\n  swap2\n  swap1\n  pop\n  jump\t// out\n    /* \"#utility.yul\":6161:6303   */\ntag_39:\n    /* \"#utility.yul\":6211:6220   */\n  0x00\n    /* \"#utility.yul\":6244:6297   */\n  tag_121\n    /* \"#utility.yul\":6262:6296   */\n  tag_122\n    /* \"#utility.yul\":6271:6295   */\n  tag_123\n    /* \"#utility.yul\":6289:6294   */\n  dup5\n    /* \"#utility.yul\":6271:6295   */\n  tag_24\n  jump\t// in\ntag_123:\n    /* \"#utility.yul\":6262:6296   */\n  tag_38\n  jump\t// in\ntag_122:\n    /* \"#utility.yul\":6244:6297   */\n  tag_24\n  jump\t// in\ntag_121:\n    /* \"#utility.yul\":6231:6297   */\n  swap1\n  pop\n    /* \"#utility.yul\":6161:6303   */\n  swap2\n  swap1\n  pop\n  jump\t// out\n    /* \"#utility.yul\":6309:6384   */\ntag_40:\n    /* \"#utility.yul\":6352:6355   */\n  0x00\n    /* \"#utility.yul\":6373:6378   */\n  dup2\n    /* \"#utility.yul\":6366:6378   */\n  swap1\n  pop\n    /* \"#utility.yul\":6309:6384   */\n  swap2\n  swap1\n  pop\n  jump\t// out\n    /* \"#utility.yul\":6390:6659   */\ntag_41:\n    /* \"#utility.yul\":6500:6539   */\n  tag_126\n    /* \"#utility.yul\":6531:6538   */\n  dup4\n    /* \"#utility.yul\":6500:6539   */\n  tag_39\n  jump\t// in\ntag_126:\n    /* \"#utility.yul\":6561:6652   */\n  tag_127\n    /* \"#utility.yul\":6610:6651   */\n  tag_128\n    /* \"#utility.yul\":6634:6650   */\n  dup3\n    /* \"#utility.yul\":6610:6651   */\n  tag_40\n  jump\t// in\ntag_128:\n    /* \"#utility.yul\":6602:6608   */\n  dup5\n    /* \"#utility.yul\":6595:6599   */\n  dup5\n    /* \"#utility.yul\":6589:6600   */\n  sload\n    /* \"#utility.yul\":6561:6652   */\n  tag_37\n  jump\t// in\ntag_127:\n    /* \"#utility.yul\":6555:6559   */\n  dup3\n    /* \"#utility.yul\":6548:6653   */\n  sstore\n    /* \"#utility.yul\":6466:6659   */\n  pop\n    /* \"#utility.yul\":6390:6659   */\n  pop\n  pop\n  pop\n  jump\t// out\n    /* \"#utility.yul\":6665:6738   */\ntag_42:\n    /* \"#utility.yul\":6710:6713   */\n  0x00\n    /* \"#utility.yul\":6665:6738   */\n  swap1\n  jump\t// out\n    /* \"#utility.yul\":6744:6933   */\ntag_43:\n    /* \"#utility.yul\":6821:6853   */\n  tag_131\n  tag_42\n  jump\t// in\ntag_131:\n    /* \"#utility.yul\":6862:6927   */\n  tag_132\n    /* \"#utility.yul\":6920:6926   */\n  dup2\n    /* \"#utility.yul\":6912:6918   */\n  dup5\n    /* \"#utility.yul\":6906:6910   */\n  dup5\n    /* \"#utility.yul\":6862:6927   */\n  tag_41\n  jump\t// in\ntag_132:\n    /* \"#utility.yul\":6797:6933   */\n  pop\n    /* \"#utility.yul\":6744:6933   */\n  pop\n  pop\n  jump\t// out\n    /* \"#utility.yul\":6939:7125   */\ntag_44:\n    /* \"#utility.yul\":6999:7119   */\ntag_134:\n    /* \"#utility.yul\":7016:7019   */\n  dup2\n    /* \"#utility.yul\":7009:7014   */\n  dup2\n    /* \"#utility.yul\":7006:7020   */\n  lt\n    /* \"#utility.yul\":6999:7119   */\n  iszero\n  tag_136\n  jumpi\n    /* \"#utility.yul\":7070:7109   */\n  tag_137\n    /* \"#utility.yul\":7107:7108   */\n  0x00\n    /* \"#utility.yul\":7100:7105   */\n  dup3\n    /* \"#utility.yul\":7070:7109   */\n  tag_43\n  jump\t// in\ntag_137:\n    /* \"#utility.yul\":7043:7044   */\n  0x01\n    /* \"#utility.yul\":7036:7041   */\n  dup2\n    /* \"#utility.yul\":7032:7045   */\n  add\n    /* \"#utility.yul\":7023:7045   */\n  swap1\n  pop\n    /* \"#utility.yul\":6999:7119   */\n  jump(tag_134)\ntag_136:\n    /* \"#utility.yul\":6939:7125   */\n  pop\n  pop\n  jump\t// out\n    /* \"#utility.yul\":7131:7674   */\ntag_45:\n    /* \"#utility.yul\":7232:7234   */\n  0x1f\n    /* \"#utility.yul\":7227:7230   */\n  dup3\n    /* \"#utility.yul\":7224:7235   */\n  gt\n    /* \"#utility.yul\":7221:7667   */\n  iszero\n  tag_139\n  jumpi\n    /* \"#utility.yul\":7266:7304   */\n  tag_140\n    /* \"#utility.yul\":7298:7303   */\n  dup2\n    /* \"#utility.yul\":7266:7304   */\n  tag_34\n  jump\t// in\ntag_140:\n    /* \"#utility.yul\":7350:7379   */\n  tag_141\n    /* \"#utility.yul\":7368:7378   */\n  dup5\n    /* \"#utility.yul\":7350:7379   */\n  tag_35\n  jump\t// in\ntag_141:\n    /* \"#utility.yul\":7340:7348   */\n  dup2\n    /* \"#utility.yul\":7336:7380   */\n  add\n    /* \"#utility.yul\":7533:7535   */\n  0x20\n    /* \"#utility.yul\":7521:7531   */\n  dup6\n    /* \"#utility.yul\":7518:7536   */\n  lt\n    /* \"#utility.yul\":7515:7564   */\n  iszero\n  tag_142\n  jumpi\n    /* \"#utility.yul\":7554:7562   */\n  dup2\n    /* \"#utility.yul\":7539:7562   */\n  swap1\n  pop\n    /* \"#utility.yul\":7515:7564   */\ntag_142:\n    /* \"#utility.yul\":7577:7657   */\n  tag_143\n    /* \"#utility.yul\":7633:7655   */\n  tag_144\n    /* \"#utility.yul\":7651:7654   */\n  dup6\n    /* \"#utility.yul\":7633:7655   */\n  tag_35\n  jump\t// in\ntag_144:\n    /* \"#utility.yul\":7623:7631   */\n  dup4\n    /* \"#utility.yul\":7619:7656   */\n  add\n    /* \"#utility.yul\":7606:7617   */\n  dup3\n    /* \"#utility.yul\":7577:7657   */\n  tag_44\n  jump\t// in\ntag_143:\n    /* \"#utility.yul\":7236:7667   */\n  pop\n  pop\n    /* \"#utility.yul\":7221:7667   */\ntag_139:\n    /* \"#utility.yul\":7131:7674   */\n  pop\n  pop\n  pop\n  jump\t// out\n    /* \"#utility.yul\":7680:7797   */\ntag_46:\n    /* \"#utility.yul\":7734:7742   */\n  0x00\n    /* \"#utility.yul\":7784:7789   */\n  dup3\n    /* \"#utility.yul\":7778:7782   */\n  dup3\n    /* \"#utility.yul\":7774:7790   */\n  shr\n    /* \"#utility.yul\":7753:7790   */\n  swap1\n  pop\n    /* \"#utility.yul\":7680:7797   */\n  swap3\n  swap2\n  pop\n  pop\n  jump\t// out\n    /* \"#utility.yul\":7803:7972   */\ntag_47:\n    /* \"#utility.yul\":7847:7853   */\n  0x00\n    /* \"#utility.yul\":7880:7931   */\n  tag_147\n    /* \"#utility.yul\":7928:7929   */\n  0x00\n    /* \"#utility.yul\":7924:7930   */\n  not\n    /* \"#utility.yul\":7916:7921   */\n  dup5\n    /* \"#utility.yul\":7913:7914   */\n  0x08\n    /* \"#utility.yul\":7909:7922   */\n  mul\n    /* \"#utility.yul\":7880:7931   */\n  tag_46\n  jump\t// in\ntag_147:\n    /* \"#utility.yul\":7876:7932   */\n  not\n    /* \"#utility.yul\":7961:7965   */\n  dup1\n    /* \"#utility.yul\":7955:7959   */\n  dup4\n    /* \"#utility.yul\":7951:7966   */\n  and\n    /* \"#utility.yul\":7941:7966   */\n  swap2\n  pop\n    /* \"#utility.yul\":7854:7972   */\n  pop\n    /* \"#utility.yul\":7803:7972   */\n  swap3\n  swap2\n  pop\n  pop\n  jump\t// out\n    /* \"#utility.yul\":7977:8272   */\ntag_48:\n    /* \"#utility.yul\":8053:8057   */\n  0x00\n    /* \"#utility.yul\":8199:8228   */\n  tag_149\n    /* \"#utility.yul\":8224:8227   */\n  dup4\n    /* \"#utility.yul\":8218:8222   */\n  dup4\n    /* \"#utility.yul\":8199:8228   */\n  tag_47\n  jump\t// in\ntag_149:\n    /* \"#utility.yul\":8191:8228   */\n  swap2\n  pop\n    /* \"#utility.yul\":8261:8264   */\n  dup3\n    /* \"#utility.yul\":8258:8259   */\n  0x02\n    /* \"#utility.yul\":8254:8265   */\n  mul\n    /* \"#utility.yul\":8248:8252   */\n  dup3\n    /* \"#utility.yul\":8245:8266   */\n  or\n    /* \"#utility.yul\":8237:8266   */\n  swap1\n  pop\n    /* \"#utility.yul\":7977:8272   */\n  swap3\n  swap2\n  pop\n  pop\n  jump\t// out\n    /* \"#utility.yul\":8277:9672   */\ntag_8:\n    /* \"#utility.yul\":8394:8431   */\n  tag_151\n    /* \"#utility.yul\":8427:8430   */\n  dup3\n    /* \"#utility.yul\":8394:8431   */\n  tag_31\n  jump\t// in\ntag_151:\n    /* \"#utility.yul\":8496:8514   */\n  0xffffffffffffffff\n    /* \"#utility.yul\":8488:8494   */\n  dup2\n    /* \"#utility.yul\":8485:8515   */\n  gt\n    /* \"#utility.yul\":8482:8538   */\n  iszero\n  tag_152\n  jumpi\n    /* \"#utility.yul\":8518:8536   */\n  tag_153\n  tag_17\n  jump\t// in\ntag_153:\n    /* \"#utility.yul\":8482:8538   */\ntag_152:\n    /* \"#utility.yul\":8562:8600   */\n  tag_154\n    /* \"#utility.yul\":8594:8598   */\n  dup3\n    /* \"#utility.yul\":8588:8599   */\n  sload\n    /* \"#utility.yul\":8562:8600   */\n  tag_33\n  jump\t// in\ntag_154:\n    /* \"#utility.yul\":8647:8714   */\n  tag_155\n    /* \"#utility.yul\":8707:8713   */\n  dup3\n    /* \"#utility.yul\":8699:8705   */\n  dup3\n    /* \"#utility.yul\":8693:8697   */\n  dup6\n    /* \"#utility.yul\":8647:8714   */\n  tag_45\n  jump\t// in\ntag_155:\n    /* \"#utility.yul\":8741:8742   */\n  0x00\n    /* \"#utility.yul\":8765:8769   */\n  0x20\n    /* \"#utility.yul\":8752:8769   */\n  swap1\n  pop\n    /* \"#utility.yul\":8797:8799   */\n  0x1f\n    /* \"#utility.yul\":8789:8795   */\n  dup4\n    /* \"#utility.yul\":8786:8800   */\n  gt\n    /* \"#utility.yul\":8814:8815   */\n  0x01\n    /* \"#utility.yul\":8809:9427   */\n  dup2\n  eq\n  tag_157\n  jumpi\n    /* \"#utility.yul\":9471:9472   */\n  0x00\n    /* \"#utility.yul\":9488:9494   */\n  dup5\n    /* \"#utility.yul\":9485:9562   */\n  iszero\n  tag_158\n  jumpi\n    /* \"#utility.yul\":9537:9546   */\n  dup3\n    /* \"#utility.yul\":9532:9535   */\n  dup8\n    /* \"#utility.yul\":9528:9547   */\n  add\n    /* \"#utility.yul\":9522:9548   */\n  mload\n    /* \"#utility.yul\":9513:9548   */\n  swap1\n  pop\n    /* \"#utility.yul\":9485:9562   */\ntag_158:\n    /* \"#utility.yul\":9588:9655   */\n  tag_159\n    /* \"#utility.yul\":9648:9654   */\n  dup6\n    /* \"#utility.yul\":9641:9646   */\n  dup3\n    /* \"#utility.yul\":9588:9655   */\n  tag_48\n  jump\t// in\ntag_159:\n    /* \"#utility.yul\":9582:9586   */\n  dup7\n    /* \"#utility.yul\":9575:9656   */\n  sstore\n    /* \"#utility.yul\":9444:9666   */\n  pop\n    /* \"#utility.yul\":8779:9666   */\n  jump(tag_156)\n    /* \"#utility.yul\":8809:9427   */\ntag_157:\n    /* \"#utility.yul\":8861:8865   */\n  0x1f\n    /* \"#utility.yul\":8857:8866   */\n  not\n    /* \"#utility.yul\":8849:8855   */\n  dup5\n    /* \"#utility.yul\":8845:8867   */\n  and\n    /* \"#utility.yul\":8895:8932   */\n  tag_160\n    /* \"#utility.yul\":8927:8931   */\n  dup7\n    /* \"#utility.yul\":8895:8932   */\n  tag_34\n  jump\t// in\ntag_160:\n    /* \"#utility.yul\":8954:8955   */\n  0x00\n    /* \"#utility.yul\":8968:9176   */\ntag_161:\n    /* \"#utility.yul\":8982:8989   */\n  dup3\n    /* \"#utility.yul\":8979:8980   */\n  dup2\n    /* \"#utility.yul\":8976:8990   */\n  lt\n    /* \"#utility.yul\":8968:9176   */\n  iszero\n  tag_163\n  jumpi\n    /* \"#utility.yul\":9061:9070   */\n  dup5\n    /* \"#utility.yul\":9056:9059   */\n  dup10\n    /* \"#utility.yul\":9052:9071   */\n  add\n    /* \"#utility.yul\":9046:9072   */\n  mload\n    /* \"#utility.yul\":9038:9044   */\n  dup3\n    /* \"#utility.yul\":9031:9073   */\n  sstore\n    /* \"#utility.yul\":9112:9113   */\n  0x01\n    /* \"#utility.yul\":9104:9110   */\n  dup3\n    /* \"#utility.yul\":9100:9114   */\n  add\n    /* \"#utility.yul\":9090:9114   */\n  swap2\n  pop\n    /* \"#utility.yul\":9159:9161   */\n  0x20\n    /* \"#utility.yul\":9148:9157   */\n  dup6\n    /* \"#utility.yul\":9144:9162   */\n  add\n    /* \"#utility.yul\":9131:9162   */\n  swap5\n  pop\n    /* \"#utility.yul\":9005:9009   */\n  0x20\n    /* \"#utility.yul\":9002:9003   */\n  dup2\n    /* \"#utility.yul\":8998:9010   */\n  add\n    /* \"#utility.yul\":8993:9010   */\n  swap1\n  pop\n    /* \"#utility.yul\":8968:9176   */\n  jump(tag_161)\ntag_163:\n    /* \"#utility.yul\":9204:9210   */\n  dup7\n    /* \"#utility.yul\":9195:9202   */\n  dup4\n    /* \"#utility.yul\":9192:9211   */\n  lt\n    /* \"#utility.yul\":9189:9368   */\n  iszero\n  tag_164\n  jumpi\n    /* \"#utility.yul\":9262:9271   */\n  dup5\n    /* \"#utility.yul\":9257:9260   */\n  dup10\n    /* \"#utility.yul\":9253:9272   */\n  add\n    /* \"#utility.yul\":9247:9273   */\n  mload\n    /* \"#utility.yul\":9305:9353   */\n  tag_165\n    /* \"#utility.yul\":9347:9351   */\n  0x1f\n    /* \"#utility.yul\":9339:9345   */\n  dup10\n    /* \"#utility.yul\":9335:9352   */\n  and\n    /* \"#utility.yul\":9324:9333   */\n  dup3\n    /* \"#utility.yul\":9305:9353   */\n  tag_47\n  jump\t// in\ntag_165:\n    /* \"#utility.yul\":9297:9303   */\n  dup4\n    /* \"#utility.yul\":9290:9354   */\n  sstore\n    /* \"#utility.yul\":9212:9368   */\n  pop\n    /* \"#utility.yul\":9189:9368   */\ntag_164:\n    /* \"#utility.yul\":9414:9415   */\n  0x01\n    /* \"#utility.yul\":9410:9411   */\n  0x02\n    /* \"#utility.yul\":9402:9408   */\n  dup9\n    /* \"#utility.yul\":9398:9412   */\n  mul\n    /* \"#utility.yul\":9394:9416   */\n  add\n    /* \"#utility.yul\":9388:9392   */\n  dup9\n    /* \"#utility.yul\":9381:9417   */\n  sstore\n    /* \"#utility.yul\":8816:9427   */\n  pop\n  pop\n  pop\n    /* \"#utility.yul\":8779:9666   */\ntag_156:\n  pop\n    /* \"#utility.yul\":8369:9672   */\n  pop\n  pop\n  pop\n    /* \"#utility.yul\":8277:9672   */\n  pop\n  pop\n  jump\t// out\n    /* \"Campaign.sol\":1142:5769  contract Campaign... */\ntag_10:\n  dataSize(sub_0)\n  dup1\n  dataOffset(sub_0)\n  0x00\n  codecopy\n  0x00\n  return\nstop\n\nsub_0: assembly {\n        /* \"Campaign.sol\":1142:5769  contract Campaign... */\n      mstore(0x40, 0x80)\n      jumpi(tag_1, lt(calldatasize, 0x04))\n      shr(0xe0, calldataload(0x00))\n      dup1\n      0x8813ce12\n      gt\n      tag_17\n      jumpi\n      dup1\n      0xd7bb99ba\n      gt\n      tag_18\n      jumpi\n      dup1\n      0xd7bb99ba\n      eq\n      tag_13\n      jumpi\n      dup1\n      0xe2e46b52\n      eq\n      tag_14\n      jumpi\n      dup1\n      0xf84038b1\n      eq\n      tag_15\n      jumpi\n      dup1\n      0xfeed5561\n      eq\n      tag_16\n      jumpi\n      jump(tag_1)\n    tag_18:\n      dup1\n      0x8813ce12\n      eq\n      tag_9\n      jumpi\n      dup1\n      0x885e7c62\n      eq\n      tag_10\n      jumpi\n      dup1\n      0xa7ac8000\n      eq\n      tag_11\n      jumpi\n      dup1\n      0xd5009584\n      eq\n      tag_12\n      jumpi\n      jump(tag_1)\n    tag_17:\n      dup1\n      0x3410452a\n      gt\n      tag_19\n      jumpi\n      dup1\n      0x3410452a\n      eq\n      tag_5\n      jumpi\n      dup1\n      0x4051ddac\n      eq\n      tag_6\n      jumpi\n      dup1\n      0x692d51d2\n      eq\n      tag_7\n      jumpi\n      dup1\n      0x6f9fb98a\n      eq\n      tag_8\n      jumpi\n      jump(tag_1)\n    tag_19:\n      dup1\n      0x0a144391\n      eq\n      tag_2\n      jumpi\n      dup1\n      0x1a092541\n      eq\n      tag_3\n      jumpi\n      dup1\n      0x30e8fc5c\n      eq\n      tag_4\n      jumpi\n    tag_1:\n      0x00\n      dup1\n      revert\n        /* \"Campaign.sol\":1748:1789  mapping(address => uint) public approvers */\n    tag_2:\n      callvalue\n      dup1\n      iszero\n      tag_20\n      jumpi\n      0x00\n      dup1\n      revert\n    tag_20:\n      pop\n      tag_21\n      0x04\n      dup1\n      calldatasize\n      sub\n      dup2\n      add\n      swap1\n      tag_22\n      swap2\n      swap1\n      tag_23\n      jump\t// in\n    tag_22:\n      tag_24\n      jump\t// in\n    tag_21:\n      mload(0x40)\n      tag_25\n      swap2\n      swap1\n      tag_26\n      jump\t// in\n    tag_25:\n      mload(0x40)\n      dup1\n      swap2\n      sub\n      swap1\n      return\n        /* \"Campaign.sol\":2440:2544  function getDescription() external view returns (string memory)... */\n    tag_3:\n      callvalue\n      dup1\n      iszero\n      tag_27\n      jumpi\n      0x00\n      dup1\n      revert\n    tag_27:\n      pop\n      tag_28\n      tag_29\n      jump\t// in\n    tag_28:\n      mload(0x40)\n      tag_30\n      swap2\n      swap1\n      tag_31\n      jump\t// in\n    tag_30:\n      mload(0x40)\n      dup1\n      swap2\n      sub\n      swap1\n      return\n        /* \"Campaign.sol\":4525:5265  function voteRequest(string memory reqName, bool isApproval ) external... */\n    tag_4:\n      callvalue\n      dup1\n      iszero\n      tag_32\n      jumpi\n      0x00\n      dup1\n      revert\n    tag_32:\n      pop\n      tag_33\n      0x04\n      dup1\n      calldatasize\n      sub\n      dup2\n      add\n      swap1\n      tag_34\n      swap2\n      swap1\n      tag_35\n      jump\t// in\n    tag_34:\n      tag_36\n      jump\t// in\n    tag_33:\n      stop\n        /* \"Campaign.sol\":2870:2963  function getRequestsCount() external view returns(uint){... */\n    tag_5:\n      callvalue\n      dup1\n      iszero\n      tag_37\n      jumpi\n      0x00\n      dup1\n      revert\n    tag_37:\n      pop\n      tag_38\n      tag_39\n      jump\t// in\n    tag_38:\n      mload(0x40)\n      tag_40\n      swap2\n      swap1\n      tag_26\n      jump\t// in\n    tag_40:\n      mload(0x40)\n      dup1\n      swap2\n      sub\n      swap1\n      return\n        /* \"Campaign.sol\":3072:3502  function getSummary() external view returns(Summary memory)... */\n    tag_6:\n      callvalue\n      dup1\n      iszero\n      tag_41\n      jumpi\n      0x00\n      dup1\n      revert\n    tag_41:\n      pop\n      tag_42\n      tag_43\n      jump\t// in\n    tag_42:\n      mload(0x40)\n      tag_44\n      swap2\n      swap1\n      tag_45\n      jump\t// in\n    tag_44:\n      mload(0x40)\n      dup1\n      swap2\n      sub\n      swap1\n      return\n        /* \"Campaign.sol\":1900:1942  mapping(string => Request) public requests */\n    tag_7:\n      callvalue\n      dup1\n      iszero\n      tag_46\n      jumpi\n      0x00\n      dup1\n      revert\n    tag_46:\n      pop\n      tag_47\n      0x04\n      dup1\n      calldatasize\n      sub\n      dup2\n      add\n      swap1\n      tag_48\n      swap2\n      swap1\n      tag_49\n      jump\t// in\n    tag_48:\n      tag_50\n      jump\t// in\n    tag_47:\n      mload(0x40)\n      tag_51\n      swap9\n      swap8\n      swap7\n      swap6\n      swap5\n      swap4\n      swap3\n      swap2\n      swap1\n      tag_52\n      jump\t// in\n    tag_51:\n      mload(0x40)\n      dup1\n      swap2\n      sub\n      swap1\n      return\n        /* \"Campaign.sol\":2763:2865  function getContractBalance() external view returns(uint){... */\n    tag_8:\n      callvalue\n      dup1\n      iszero\n      tag_53\n      jumpi\n      0x00\n      dup1\n      revert\n    tag_53:\n      pop\n      tag_54\n      tag_55\n      jump\t// in\n    tag_54:\n      mload(0x40)\n      tag_56\n      swap2\n      swap1\n      tag_26\n      jump\t// in\n    tag_56:\n      mload(0x40)\n      dup1\n      swap2\n      sub\n      swap1\n      return\n        /* \"Campaign.sol\":2968:3067  function getRequests() external view returns(string[] memory)... */\n    tag_9:\n      callvalue\n      dup1\n      iszero\n      tag_57\n      jumpi\n      0x00\n      dup1\n      revert\n    tag_57:\n      pop\n      tag_58\n      tag_59\n      jump\t// in\n    tag_58:\n      mload(0x40)\n      tag_60\n      swap2\n      swap1\n      tag_61\n      jump\t// in\n    tag_60:\n      mload(0x40)\n      dup1\n      swap2\n      sub\n      swap1\n      return\n        /* \"Campaign.sol\":2337:2435  function getCampaignName() external view returns (string memory)... */\n    tag_10:\n      callvalue\n      dup1\n      iszero\n      tag_62\n      jumpi\n      0x00\n      dup1\n      revert\n    tag_62:\n      pop\n      tag_63\n      tag_64\n      jump\t// in\n    tag_63:\n      mload(0x40)\n      tag_65\n      swap2\n      swap1\n      tag_31\n      jump\t// in\n    tag_65:\n      mload(0x40)\n      dup1\n      swap2\n      sub\n      swap1\n      return\n        /* \"Campaign.sol\":3729:4519  function triggerCampaignRequest(string memory name, string memory description, uint amount, uint requiredApprovals, address payable receiver) restricted external {... */\n    tag_11:\n      callvalue\n      dup1\n      iszero\n      tag_66\n      jumpi\n      0x00\n      dup1\n      revert\n    tag_66:\n      pop\n      tag_67\n      0x04\n      dup1\n      calldatasize\n      sub\n      dup2\n      add\n      swap1\n      tag_68\n      swap2\n      swap1\n      tag_69\n      jump\t// in\n    tag_68:\n      tag_70\n      jump\t// in\n    tag_67:\n      stop\n        /* \"Campaign.sol\":2241:2331  function getManager() external view returns (address)... */\n    tag_12:\n      callvalue\n      dup1\n      iszero\n      tag_71\n      jumpi\n      0x00\n      dup1\n      revert\n    tag_71:\n      pop\n      tag_72\n      tag_73\n      jump\t// in\n    tag_72:\n      mload(0x40)\n      tag_74\n      swap2\n      swap1\n      tag_75\n      jump\t// in\n    tag_74:\n      mload(0x40)\n      dup1\n      swap2\n      sub\n      swap1\n      return\n        /* \"Campaign.sol\":3508:3723  function contribute() public payable {... */\n    tag_13:\n      tag_76\n      tag_77\n      jump\t// in\n    tag_76:\n      stop\n        /* \"Campaign.sol\":5271:5680  function submitRequest(string memory reqName) restricted external {... */\n    tag_14:\n      callvalue\n      dup1\n      iszero\n      tag_78\n      jumpi\n      0x00\n      dup1\n      revert\n    tag_78:\n      pop\n      tag_79\n      0x04\n      dup1\n      calldatasize\n      sub\n      dup2\n      add\n      swap1\n      tag_80\n      swap2\n      swap1\n      tag_49\n      jump\t// in\n    tag_80:\n      tag_81\n      jump\t// in\n    tag_79:\n      stop\n        /* \"Campaign.sol\":2652:2757  function getMinimumContribution() external view returns(uint){... */\n    tag_15:\n      callvalue\n      dup1\n      iszero\n      tag_82\n      jumpi\n      0x00\n      dup1\n      revert\n    tag_82:\n      pop\n      tag_83\n      tag_84\n      jump\t// in\n    tag_83:\n      mload(0x40)\n      tag_85\n      swap2\n      swap1\n      tag_26\n      jump\t// in\n    tag_85:\n      mload(0x40)\n      dup1\n      swap2\n      sub\n      swap1\n      return\n        /* \"Campaign.sol\":2549:2647  function getContributorsCount() external view returns(uint){... */\n    tag_16:\n      callvalue\n      dup1\n      iszero\n      tag_86\n      jumpi\n      0x00\n      dup1\n      revert\n    tag_86:\n      pop\n      tag_87\n      tag_88\n      jump\t// in\n    tag_87:\n      mload(0x40)\n      tag_89\n      swap2\n      swap1\n      tag_26\n      jump\t// in\n    tag_89:\n      mload(0x40)\n      dup1\n      swap2\n      sub\n      swap1\n      return\n        /* \"Campaign.sol\":1748:1789  mapping(address => uint) public approvers */\n    tag_24:\n      mstore(0x20, 0x03)\n      dup1\n      0x00\n      mstore\n      keccak256(0x00, 0x40)\n      0x00\n      swap2\n      pop\n      swap1\n      pop\n      sload\n      dup2\n      jump\t// out\n        /* \"Campaign.sol\":2440:2544  function getDescription() external view returns (string memory)... */\n    tag_29:\n        /* \"Campaign.sol\":2489:2502  string memory */\n      0x60\n        /* \"Campaign.sol\":2525:2537  _description */\n      0x01\n        /* \"Campaign.sol\":2518:2537  return _description */\n      dup1\n      sload\n      tag_91\n      swap1\n      tag_92\n      jump\t// in\n    tag_91:\n      dup1\n      0x1f\n      add\n      0x20\n      dup1\n      swap2\n      div\n      mul\n      0x20\n      add\n      mload(0x40)\n      swap1\n      dup2\n      add\n      0x40\n      mstore\n      dup1\n      swap3\n      swap2\n      swap1\n      dup2\n      dup2\n      mstore\n      0x20\n      add\n      dup3\n      dup1\n      sload\n      tag_93\n      swap1\n      tag_92\n      jump\t// in\n    tag_93:\n      dup1\n      iszero\n      tag_94\n      jumpi\n      dup1\n      0x1f\n      lt\n      tag_95\n      jumpi\n      0x0100\n      dup1\n      dup4\n      sload\n      div\n      mul\n      dup4\n      mstore\n      swap2\n      0x20\n      add\n      swap2\n      jump(tag_94)\n    tag_95:\n      dup3\n      add\n      swap2\n      swap1\n      0x00\n      mstore\n      keccak256(0x00, 0x20)\n      swap1\n    tag_96:\n      dup2\n      sload\n      dup2\n      mstore\n      swap1\n      0x01\n      add\n      swap1\n      0x20\n      add\n      dup1\n      dup4\n      gt\n      tag_96\n      jumpi\n      dup3\n      swap1\n      sub\n      0x1f\n      and\n      dup3\n      add\n      swap2\n    tag_94:\n      pop\n      pop\n      pop\n      pop\n      pop\n      swap1\n      pop\n        /* \"Campaign.sol\":2440:2544  function getDescription() external view returns (string memory)... */\n      swap1\n      jump\t// out\n        /* \"Campaign.sol\":4525:5265  function voteRequest(string memory reqName, bool isApproval ) external... */\n    tag_36:\n        /* \"Campaign.sol\":4632:4640  _manager */\n      0x02\n      0x00\n      swap1\n      sload\n      swap1\n      0x0100\n      exp\n      swap1\n      div\n      0xffffffffffffffffffffffffffffffffffffffff\n      and\n        /* \"Campaign.sol\":4618:4640  msg.sender != _manager */\n      0xffffffffffffffffffffffffffffffffffffffff\n      and\n        /* \"Campaign.sol\":4618:4628  msg.sender */\n      caller\n        /* \"Campaign.sol\":4618:4640  msg.sender != _manager */\n      0xffffffffffffffffffffffffffffffffffffffff\n      and\n      sub\n        /* \"Campaign.sol\":4610:4641  require(msg.sender != _manager) */\n      tag_98\n      jumpi\n      0x00\n      dup1\n      revert\n    tag_98:\n        /* \"Campaign.sol\":4652:4671  Request storage req */\n      0x00\n        /* \"Campaign.sol\":4674:4682  requests */\n      0x07\n        /* \"Campaign.sol\":4683:4690  reqName */\n      dup4\n        /* \"Campaign.sol\":4674:4691  requests[reqName] */\n      mload(0x40)\n      tag_99\n      swap2\n      swap1\n      tag_100\n      jump\t// in\n    tag_99:\n      swap1\n      dup2\n      mstore\n      0x20\n      add\n      mload(0x40)\n      dup1\n      swap2\n      sub\n      swap1\n      keccak256\n        /* \"Campaign.sol\":4652:4691  Request storage req = requests[reqName] */\n      swap1\n      pop\n        /* \"Campaign.sol\":4735:4736  0 */\n      0x00\n        /* \"Campaign.sol\":4716:4719  req */\n      dup2\n        /* \"Campaign.sol\":4716:4724  req.name */\n      0x00\n      add\n        /* \"Campaign.sol\":4710:4732  bytes(req.name).length */\n      dup1\n      sload\n      tag_101\n      swap1\n      tag_92\n      jump\t// in\n    tag_101:\n      swap1\n      pop\n        /* \"Campaign.sol\":4710:4736  bytes(req.name).length > 0 */\n      gt\n        /* \"Campaign.sol\":4702:4737  require(bytes(req.name).length > 0) */\n      tag_102\n      jumpi\n      0x00\n      dup1\n      revert\n    tag_102:\n        /* \"Campaign.sol\":4787:4794  reqName */\n      dup3\n        /* \"Campaign.sol\":4781:4802  bytes(reqName).length */\n      mload\n        /* \"Campaign.sol\":4761:4764  req */\n      dup2\n        /* \"Campaign.sol\":4761:4769  req.name */\n      0x00\n      add\n        /* \"Campaign.sol\":4755:4777  bytes(req.name).length */\n      dup1\n      sload\n      tag_103\n      swap1\n      tag_92\n      jump\t// in\n    tag_103:\n      swap1\n      pop\n        /* \"Campaign.sol\":4755:4802  bytes(req.name).length == bytes(reqName).length */\n      eq\n        /* \"Campaign.sol\":4747:4803  require(bytes(req.name).length == bytes(reqName).length) */\n      tag_104\n      jumpi\n      0x00\n      dup1\n      revert\n    tag_104:\n        /* \"Campaign.sol\":4872:4873  0 */\n      0x00\n        /* \"Campaign.sol\":4848:4857  approvers */\n      0x03\n        /* \"Campaign.sol\":4848:4869  approvers[msg.sender] */\n      0x00\n        /* \"Campaign.sol\":4858:4868  msg.sender */\n      caller\n        /* \"Campaign.sol\":4848:4869  approvers[msg.sender] */\n      0xffffffffffffffffffffffffffffffffffffffff\n      and\n      0xffffffffffffffffffffffffffffffffffffffff\n      and\n      dup2\n      mstore\n      0x20\n      add\n      swap1\n      dup2\n      mstore\n      0x20\n      add\n      0x00\n      keccak256\n      sload\n        /* \"Campaign.sol\":4848:4873  approvers[msg.sender] > 0 */\n      gt\n        /* \"Campaign.sol\":4840:4874  require(approvers[msg.sender] > 0) */\n      tag_105\n      jumpi\n      0x00\n      dup1\n      revert\n    tag_105:\n        /* \"Campaign.sol\":4918:4921  req */\n      dup1\n        /* \"Campaign.sol\":4918:4931  req.canSubmit */\n      0x06\n      add\n      0x00\n      swap1\n      sload\n      swap1\n      0x0100\n      exp\n      swap1\n      div\n      0xff\n      and\n        /* \"Campaign.sol\":4917:4931  !req.canSubmit */\n      iszero\n        /* \"Campaign.sol\":4909:4932  require(!req.canSubmit) */\n      tag_106\n      jumpi\n      0x00\n      dup1\n      revert\n    tag_106:\n        /* \"Campaign.sol\":4951:4954  req */\n      dup1\n        /* \"Campaign.sol\":4951:4963  req.complete */\n      0x06\n      add\n      0x01\n      swap1\n      sload\n      swap1\n      0x0100\n      exp\n      swap1\n      div\n      0xff\n      and\n        /* \"Campaign.sol\":4950:4963  !req.complete */\n      iszero\n        /* \"Campaign.sol\":4942:4964  require(!req.complete) */\n      tag_107\n      jumpi\n      0x00\n      dup1\n      revert\n    tag_107:\n        /* \"Campaign.sol\":5009:5012  req */\n      dup1\n        /* \"Campaign.sol\":5009:5022  req.approvers */\n      0x07\n      add\n        /* \"Campaign.sol\":5009:5034  req.approvers[msg.sender] */\n      0x00\n        /* \"Campaign.sol\":5023:5033  msg.sender */\n      caller\n        /* \"Campaign.sol\":5009:5034  req.approvers[msg.sender] */\n      0xffffffffffffffffffffffffffffffffffffffff\n      and\n      0xffffffffffffffffffffffffffffffffffffffff\n      and\n      dup2\n      mstore\n      0x20\n      add\n      swap1\n      dup2\n      mstore\n      0x20\n      add\n      0x00\n      keccak256\n      0x00\n      swap1\n      sload\n      swap1\n      0x0100\n      exp\n      swap1\n      div\n      0xff\n      and\n        /* \"Campaign.sol\":5008:5034  !req.approvers[msg.sender] */\n      iszero\n        /* \"Campaign.sol\":5000:5035  require(!req.approvers[msg.sender]) */\n      tag_108\n      jumpi\n      0x00\n      dup1\n      revert\n    tag_108:\n        /* \"Campaign.sol\":5074:5078  true */\n      0x01\n        /* \"Campaign.sol\":5046:5049  req */\n      dup2\n        /* \"Campaign.sol\":5046:5059  req.approvers */\n      0x07\n      add\n        /* \"Campaign.sol\":5046:5071  req.approvers[msg.sender] */\n      0x00\n        /* \"Campaign.sol\":5060:5070  msg.sender */\n      caller\n        /* \"Campaign.sol\":5046:5071  req.approvers[msg.sender] */\n      0xffffffffffffffffffffffffffffffffffffffff\n      and\n      0xffffffffffffffffffffffffffffffffffffffff\n      and\n      dup2\n      mstore\n      0x20\n      add\n      swap1\n      dup2\n      mstore\n      0x20\n      add\n      0x00\n      keccak256\n      0x00\n        /* \"Campaign.sol\":5046:5078  req.approvers[msg.sender] = true */\n      0x0100\n      exp\n      dup2\n      sload\n      dup2\n      0xff\n      mul\n      not\n      and\n      swap1\n      dup4\n      iszero\n      iszero\n      mul\n      or\n      swap1\n      sstore\n      pop\n        /* \"Campaign.sol\":5100:5110  isApproval */\n      dup2\n        /* \"Campaign.sol\":5097:5156  if(isApproval){... */\n      iszero\n      tag_109\n      jumpi\n        /* \"Campaign.sol\":5125:5128  req */\n      dup1\n        /* \"Campaign.sol\":5125:5143  req.approvalsCount */\n      0x04\n      add\n      0x00\n        /* \"Campaign.sol\":5125:5145  req.approvalsCount++ */\n      dup2\n      sload\n      dup1\n      swap3\n      swap2\n      swap1\n      tag_110\n      swap1\n      tag_111\n      jump\t// in\n    tag_110:\n      swap2\n      swap1\n      pop\n      sstore\n      pop\n        /* \"Campaign.sol\":5097:5156  if(isApproval){... */\n    tag_109:\n        /* \"Campaign.sol\":5191:5194  req */\n      dup1\n        /* \"Campaign.sol\":5191:5212  req.requiredApprovals */\n      0x05\n      add\n      sload\n        /* \"Campaign.sol\":5169:5172  req */\n      dup2\n        /* \"Campaign.sol\":5169:5187  req.approvalsCount */\n      0x04\n      add\n      sload\n        /* \"Campaign.sol\":5169:5212  req.approvalsCount >= req.requiredApprovals */\n      lt\n        /* \"Campaign.sol\":5166:5259  if(req.approvalsCount >= req.requiredApprovals) {... */\n      tag_112\n      jumpi\n        /* \"Campaign.sol\":5244:5248  true */\n      0x01\n        /* \"Campaign.sol\":5228:5231  req */\n      dup2\n        /* \"Campaign.sol\":5228:5241  req.canSubmit */\n      0x06\n      add\n      0x00\n        /* \"Campaign.sol\":5228:5248  req.canSubmit = true */\n      0x0100\n      exp\n      dup2\n      sload\n      dup2\n      0xff\n      mul\n      not\n      and\n      swap1\n      dup4\n      iszero\n      iszero\n      mul\n      or\n      swap1\n      sstore\n      pop\n        /* \"Campaign.sol\":5166:5259  if(req.approvalsCount >= req.requiredApprovals) {... */\n    tag_112:\n        /* \"Campaign.sol\":4600:5265  {... */\n      pop\n        /* \"Campaign.sol\":4525:5265  function voteRequest(string memory reqName, bool isApproval ) external... */\n      pop\n      pop\n      jump\t// out\n        /* \"Campaign.sol\":2870:2963  function getRequestsCount() external view returns(uint){... */\n    tag_39:\n        /* \"Campaign.sol\":2920:2924  uint */\n      0x00\n        /* \"Campaign.sol\":2942:2956  _requestsCount */\n      sload(0x08)\n        /* \"Campaign.sol\":2935:2956  return _requestsCount */\n      swap1\n      pop\n        /* \"Campaign.sol\":2870:2963  function getRequestsCount() external view returns(uint){... */\n      swap1\n      jump\t// out\n        /* \"Campaign.sol\":3072:3502  function getSummary() external view returns(Summary memory)... */\n    tag_43:\n        /* \"Campaign.sol\":3116:3130  Summary memory */\n      tag_114\n      tag_115\n      jump\t// in\n    tag_114:\n        /* \"Campaign.sol\":3146:3165  Summary memory data */\n      0x00\n        /* \"Campaign.sol\":3169:3473  Summary({... */\n      mload(0x40)\n      dup1\n      0xe0\n      add\n      0x40\n      mstore\n      dup1\n        /* \"Campaign.sol\":3200:3208  _manager */\n      0x02\n      0x00\n      swap1\n      sload\n      swap1\n      0x0100\n      exp\n      swap1\n      div\n      0xffffffffffffffffffffffffffffffffffffffff\n      and\n        /* \"Campaign.sol\":3169:3473  Summary({... */\n      0xffffffffffffffffffffffffffffffffffffffff\n      and\n      dup2\n      mstore\n      0x20\n      add\n        /* \"Campaign.sol\":3228:3233  _name */\n      0x00\n        /* \"Campaign.sol\":3169:3473  Summary({... */\n      dup1\n      sload\n      tag_117\n      swap1\n      tag_92\n      jump\t// in\n    tag_117:\n      dup1\n      0x1f\n      add\n      0x20\n      dup1\n      swap2\n      div\n      mul\n      0x20\n      add\n      mload(0x40)\n      swap1\n      dup2\n      add\n      0x40\n      mstore\n      dup1\n      swap3\n      swap2\n      swap1\n      dup2\n      dup2\n      mstore\n      0x20\n      add\n      dup3\n      dup1\n      sload\n      tag_118\n      swap1\n      tag_92\n      jump\t// in\n    tag_118:\n      dup1\n      iszero\n      tag_119\n      jumpi\n      dup1\n      0x1f\n      lt\n      tag_120\n      jumpi\n      0x0100\n      dup1\n      dup4\n      sload\n      div\n      mul\n      dup4\n      mstore\n      swap2\n      0x20\n      add\n      swap2\n      jump(tag_119)\n    tag_120:\n      dup3\n      add\n      swap2\n      swap1\n      0x00\n      mstore\n      keccak256(0x00, 0x20)\n      swap1\n    tag_121:\n      dup2\n      sload\n      dup2\n      mstore\n      swap1\n      0x01\n      add\n      swap1\n      0x20\n      add\n      dup1\n      dup4\n      gt\n      tag_121\n      jumpi\n      dup3\n      swap1\n      sub\n      0x1f\n      and\n      dup3\n      add\n      swap2\n    tag_119:\n      pop\n      pop\n      pop\n      pop\n      pop\n      dup2\n      mstore\n      0x20\n      add\n        /* \"Campaign.sol\":3260:3272  _description */\n      0x01\n        /* \"Campaign.sol\":3169:3473  Summary({... */\n      dup1\n      sload\n      tag_122\n      swap1\n      tag_92\n      jump\t// in\n    tag_122:\n      dup1\n      0x1f\n      add\n      0x20\n      dup1\n      swap2\n      div\n      mul\n      0x20\n      add\n      mload(0x40)\n      swap1\n      dup2\n      add\n      0x40\n      mstore\n      dup1\n      swap3\n      swap2\n      swap1\n      dup2\n      dup2\n      mstore\n      0x20\n      add\n      dup3\n      dup1\n      sload\n      tag_123\n      swap1\n      tag_92\n      jump\t// in\n    tag_123:\n      dup1\n      iszero\n      tag_124\n      jumpi\n      dup1\n      0x1f\n      lt\n      tag_125\n      jumpi\n      0x0100\n      dup1\n      dup4\n      sload\n      div\n      mul\n      dup4\n      mstore\n      swap2\n      0x20\n      add\n      swap2\n      jump(tag_124)\n    tag_125:\n      dup3\n      add\n      swap2\n      swap1\n      0x00\n      mstore\n      keccak256(0x00, 0x20)\n      swap1\n    tag_126:\n      dup2\n      sload\n      dup2\n      mstore\n      swap1\n      0x01\n      add\n      swap1\n      0x20\n      add\n      dup1\n      dup4\n      gt\n      tag_126\n      jumpi\n      dup3\n      swap1\n      sub\n      0x1f\n      and\n      dup3\n      add\n      swap2\n    tag_124:\n      pop\n      pop\n      pop\n      pop\n      pop\n      dup2\n      mstore\n      0x20\n      add\n        /* \"Campaign.sol\":3303:3323  _minimumContribution */\n      sload(0x05)\n        /* \"Campaign.sol\":3169:3473  Summary({... */\n      dup2\n      mstore\n      0x20\n      add\n        /* \"Campaign.sol\":3346:3367  address(this).balance */\n      selfbalance\n        /* \"Campaign.sol\":3169:3473  Summary({... */\n      dup2\n      mstore\n      0x20\n      add\n        /* \"Campaign.sol\":3404:3419  _approversCount */\n      sload(0x04)\n        /* \"Campaign.sol\":3169:3473  Summary({... */\n      dup2\n      mstore\n      0x20\n      add\n        /* \"Campaign.sol\":3448:3462  _requestsCount */\n      sload(0x08)\n        /* \"Campaign.sol\":3169:3473  Summary({... */\n      dup2\n      mstore\n      pop\n        /* \"Campaign.sol\":3146:3473  Summary memory data  = Summary({... */\n      swap1\n      pop\n        /* \"Campaign.sol\":3491:3495  data */\n      dup1\n        /* \"Campaign.sol\":3484:3495  return data */\n      swap2\n      pop\n      pop\n        /* \"Campaign.sol\":3072:3502  function getSummary() external view returns(Summary memory)... */\n      swap1\n      jump\t// out\n        /* \"Campaign.sol\":1900:1942  mapping(string => Request) public requests */\n    tag_50:\n      0x07\n      dup2\n      dup1\n      mload\n      0x20\n      dup2\n      add\n      dup3\n      add\n      dup1\n      mload\n      dup5\n      dup3\n      mstore\n      0x20\n      dup4\n      add\n      0x20\n      dup6\n      add\n      keccak256\n      dup2\n      dup4\n      mstore\n      dup1\n      swap6\n      pop\n      pop\n      pop\n      pop\n      pop\n      pop\n      0x00\n      swap2\n      pop\n      swap1\n      pop\n      dup1\n      0x00\n      add\n      dup1\n      sload\n      tag_127\n      swap1\n      tag_92\n      jump\t// in\n    tag_127:\n      dup1\n      0x1f\n      add\n      0x20\n      dup1\n      swap2\n      div\n      mul\n      0x20\n      add\n      mload(0x40)\n      swap1\n      dup2\n      add\n      0x40\n      mstore\n      dup1\n      swap3\n      swap2\n      swap1\n      dup2\n      dup2\n      mstore\n      0x20\n      add\n      dup3\n      dup1\n      sload\n      tag_128\n      swap1\n      tag_92\n      jump\t// in\n    tag_128:\n      dup1\n      iszero\n      tag_129\n      jumpi\n      dup1\n      0x1f\n      lt\n      tag_130\n      jumpi\n      0x0100\n      dup1\n      dup4\n      sload\n      div\n      mul\n      dup4\n      mstore\n      swap2\n      0x20\n      add\n      swap2\n      jump(tag_129)\n    tag_130:\n      dup3\n      add\n      swap2\n      swap1\n      0x00\n      mstore\n      keccak256(0x00, 0x20)\n      swap1\n    tag_131:\n      dup2\n      sload\n      dup2\n      mstore\n      swap1\n      0x01\n      add\n      swap1\n      0x20\n      add\n      dup1\n      dup4\n      gt\n      tag_131\n      jumpi\n      dup3\n      swap1\n      sub\n      0x1f\n      and\n      dup3\n      add\n      swap2\n    tag_129:\n      pop\n      pop\n      pop\n      pop\n      pop\n      swap1\n      dup1\n      0x01\n      add\n      dup1\n      sload\n      tag_132\n      swap1\n      tag_92\n      jump\t// in\n    tag_132:\n      dup1\n      0x1f\n      add\n      0x20\n      dup1\n      swap2\n      div\n      mul\n      0x20\n      add\n      mload(0x40)\n      swap1\n      dup2\n      add\n      0x40\n      mstore\n      dup1\n      swap3\n      swap2\n      swap1\n      dup2\n      dup2\n      mstore\n      0x20\n      add\n      dup3\n      dup1\n      sload\n      tag_133\n      swap1\n      tag_92\n      jump\t// in\n    tag_133:\n      dup1\n      iszero\n      tag_134\n      jumpi\n      dup1\n      0x1f\n      lt\n      tag_135\n      jumpi\n      0x0100\n      dup1\n      dup4\n      sload\n      div\n      mul\n      dup4\n      mstore\n      swap2\n      0x20\n      add\n      swap2\n      jump(tag_134)\n    tag_135:\n      dup3\n      add\n      swap2\n      swap1\n      0x00\n      mstore\n      keccak256(0x00, 0x20)\n      swap1\n    tag_136:\n      dup2\n      sload\n      dup2\n      mstore\n      swap1\n      0x01\n      add\n      swap1\n      0x20\n      add\n      dup1\n      dup4\n      gt\n      tag_136\n      jumpi\n      dup3\n      swap1\n      sub\n      0x1f\n      and\n      dup3\n      add\n      swap2\n    tag_134:\n      pop\n      pop\n      pop\n      pop\n      pop\n      swap1\n      dup1\n      0x02\n      add\n      sload\n      swap1\n      dup1\n      0x03\n      add\n      0x00\n      swap1\n      sload\n      swap1\n      0x0100\n      exp\n      swap1\n      div\n      0xffffffffffffffffffffffffffffffffffffffff\n      and\n      swap1\n      dup1\n      0x04\n      add\n      sload\n      swap1\n      dup1\n      0x05\n      add\n      sload\n      swap1\n      dup1\n      0x06\n      add\n      0x00\n      swap1\n      sload\n      swap1\n      0x0100\n      exp\n      swap1\n      div\n      0xff\n      and\n      swap1\n      dup1\n      0x06\n      add\n      0x01\n      swap1\n      sload\n      swap1\n      0x0100\n      exp\n      swap1\n      div\n      0xff\n      and\n      swap1\n      pop\n      dup9\n      jump\t// out\n        /* \"Campaign.sol\":2763:2865  function getContractBalance() external view returns(uint){... */\n    tag_55:\n        /* \"Campaign.sol\":2815:2819  uint */\n      0x00\n        /* \"Campaign.sol\":2837:2858  address(this).balance */\n      selfbalance\n        /* \"Campaign.sol\":2830:2858  return address(this).balance */\n      swap1\n      pop\n        /* \"Campaign.sol\":2763:2865  function getContractBalance() external view returns(uint){... */\n      swap1\n      jump\t// out\n        /* \"Campaign.sol\":2968:3067  function getRequests() external view returns(string[] memory)... */\n    tag_59:\n        /* \"Campaign.sol\":3013:3028  string[] memory */\n      0x60\n        /* \"Campaign.sol\":3051:3060  _requests */\n      0x06\n        /* \"Campaign.sol\":3044:3060  return _requests */\n      dup1\n      sload\n      dup1\n      0x20\n      mul\n      0x20\n      add\n      mload(0x40)\n      swap1\n      dup2\n      add\n      0x40\n      mstore\n      dup1\n      swap3\n      swap2\n      swap1\n      dup2\n      dup2\n      mstore\n      0x20\n      add\n      0x00\n      swap1\n    tag_139:\n      dup3\n      dup3\n      lt\n      iszero\n      tag_140\n      jumpi\n      dup4\n      dup3\n      swap1\n      0x00\n      mstore\n      keccak256(0x00, 0x20)\n      add\n      dup1\n      sload\n      tag_142\n      swap1\n      tag_92\n      jump\t// in\n    tag_142:\n      dup1\n      0x1f\n      add\n      0x20\n      dup1\n      swap2\n      div\n      mul\n      0x20\n      add\n      mload(0x40)\n      swap1\n      dup2\n      add\n      0x40\n      mstore\n      dup1\n      swap3\n      swap2\n      swap1\n      dup2\n      dup2\n      mstore\n      0x20\n      add\n      dup3\n      dup1\n      sload\n      tag_143\n      swap1\n      tag_92\n      jump\t// in\n    tag_143:\n      dup1\n      iszero\n      tag_144\n      jumpi\n      dup1\n      0x1f\n      lt\n      tag_145\n      jumpi\n      0x0100\n      dup1\n      dup4\n      sload\n      div\n      mul\n      dup4\n      mstore\n      swap2\n      0x20\n      add\n      swap2\n      jump(tag_144)\n    tag_145:\n      dup3\n      add\n      swap2\n      swap1\n      0x00\n      mstore\n      keccak256(0x00, 0x20)\n      swap1\n    tag_146:\n      dup2\n      sload\n      dup2\n      mstore\n      swap1\n      0x01\n      add\n      swap1\n      0x20\n      add\n      dup1\n      dup4\n      gt\n      tag_146\n      jumpi\n      dup3\n      swap1\n      sub\n      0x1f\n      and\n      dup3\n      add\n      swap2\n    tag_144:\n      pop\n      pop\n      pop\n      pop\n      pop\n      dup2\n      mstore\n      0x20\n      add\n      swap1\n      0x01\n      add\n      swap1\n      jump(tag_139)\n    tag_140:\n      pop\n      pop\n      pop\n      pop\n      swap1\n      pop\n        /* \"Campaign.sol\":2968:3067  function getRequests() external view returns(string[] memory)... */\n      swap1\n      jump\t// out\n        /* \"Campaign.sol\":2337:2435  function getCampaignName() external view returns (string memory)... */\n    tag_64:\n        /* \"Campaign.sol\":2387:2400  string memory */\n      0x60\n        /* \"Campaign.sol\":2423:2428  _name */\n      0x00\n        /* \"Campaign.sol\":2416:2428  return _name */\n      dup1\n      sload\n      tag_148\n      swap1\n      tag_92\n      jump\t// in\n    tag_148:\n      dup1\n      0x1f\n      add\n      0x20\n      dup1\n      swap2\n      div\n      mul\n      0x20\n      add\n      mload(0x40)\n      swap1\n      dup2\n      add\n      0x40\n      mstore\n      dup1\n      swap3\n      swap2\n      swap1\n      dup2\n      dup2\n      mstore\n      0x20\n      add\n      dup3\n      dup1\n      sload\n      tag_149\n      swap1\n      tag_92\n      jump\t// in\n    tag_149:\n      dup1\n      iszero\n      tag_150\n      jumpi\n      dup1\n      0x1f\n      lt\n      tag_151\n      jumpi\n      0x0100\n      dup1\n      dup4\n      sload\n      div\n      mul\n      dup4\n      mstore\n      swap2\n      0x20\n      add\n      swap2\n      jump(tag_150)\n    tag_151:\n      dup3\n      add\n      swap2\n      swap1\n      0x00\n      mstore\n      keccak256(0x00, 0x20)\n      swap1\n    tag_152:\n      dup2\n      sload\n      dup2\n      mstore\n      swap1\n      0x01\n      add\n      swap1\n      0x20\n      add\n      dup1\n      dup4\n      gt\n      tag_152\n      jumpi\n      dup3\n      swap1\n      sub\n      0x1f\n      and\n      dup3\n      add\n      swap2\n    tag_150:\n      pop\n      pop\n      pop\n      pop\n      pop\n      swap1\n      pop\n        /* \"Campaign.sol\":2337:2435  function getCampaignName() external view returns (string memory)... */\n      swap1\n      jump\t// out\n        /* \"Campaign.sol\":3729:4519  function triggerCampaignRequest(string memory name, string memory description, uint amount, uint requiredApprovals, address payable receiver) restricted external {... */\n    tag_70:\n        /* \"Campaign.sol\":5740:5748  _manager */\n      0x02\n      0x00\n      swap1\n      sload\n      swap1\n      0x0100\n      exp\n      swap1\n      div\n      0xffffffffffffffffffffffffffffffffffffffff\n      and\n        /* \"Campaign.sol\":5726:5748  msg.sender == _manager */\n      0xffffffffffffffffffffffffffffffffffffffff\n      and\n        /* \"Campaign.sol\":5726:5736  msg.sender */\n      caller\n        /* \"Campaign.sol\":5726:5748  msg.sender == _manager */\n      0xffffffffffffffffffffffffffffffffffffffff\n      and\n      eq\n        /* \"Campaign.sol\":5718:5749  require(msg.sender == _manager) */\n      tag_154\n      jumpi\n      0x00\n      dup1\n      revert\n    tag_154:\n        /* \"Campaign.sol\":3939:3940  0 */\n      0x00\n        /* \"Campaign.sol\":3924:3928  name */\n      dup6\n        /* \"Campaign.sol\":3918:3936  bytes(name).length */\n      mload\n        /* \"Campaign.sol\":3918:3940  bytes(name).length > 0 */\n      gt\n        /* \"Campaign.sol\":3910:3941  require(bytes(name).length > 0) */\n      tag_156\n      jumpi\n      0x00\n      dup1\n      revert\n    tag_156:\n        /* \"Campaign.sol\":3987:3988  0 */\n      0x00\n        /* \"Campaign.sol\":3965:3976  description */\n      dup5\n        /* \"Campaign.sol\":3959:3984  bytes(description).length */\n      mload\n        /* \"Campaign.sol\":3959:3988  bytes(description).length > 0 */\n      gt\n        /* \"Campaign.sol\":3951:3989  require(bytes(description).length > 0) */\n      tag_157\n      jumpi\n      0x00\n      dup1\n      revert\n    tag_157:\n        /* \"Campaign.sol\":4016:4017  0 */\n      0x00\n        /* \"Campaign.sol\":4007:4013  amount */\n      dup4\n        /* \"Campaign.sol\":4007:4017  amount > 0 */\n      gt\n        /* \"Campaign.sol\":3999:4018  require(amount > 0) */\n      tag_158\n      jumpi\n      0x00\n      dup1\n      revert\n    tag_158:\n        /* \"Campaign.sol\":4046:4067  address(this).balance */\n      selfbalance\n        /* \"Campaign.sol\":4036:4042  amount */\n      dup4\n        /* \"Campaign.sol\":4036:4067  amount <= address(this).balance */\n      gt\n      iszero\n        /* \"Campaign.sol\":4028:4068  require(amount <= address(this).balance) */\n      tag_159\n      jumpi\n      0x00\n      dup1\n      revert\n    tag_159:\n        /* \"Campaign.sol\":4106:4107  0 */\n      0x00\n        /* \"Campaign.sol\":4086:4103  requiredApprovals */\n      dup3\n        /* \"Campaign.sol\":4086:4107  requiredApprovals > 0 */\n      gt\n        /* \"Campaign.sol\":4078:4108  require(requiredApprovals > 0) */\n      tag_160\n      jumpi\n      0x00\n      dup1\n      revert\n    tag_160:\n        /* \"Campaign.sol\":4147:4162  _approversCount */\n      sload(0x04)\n        /* \"Campaign.sol\":4126:4143  requiredApprovals */\n      dup3\n        /* \"Campaign.sol\":4126:4162  requiredApprovals <= _approversCount */\n      gt\n      iszero\n        /* \"Campaign.sol\":4118:4163  require(requiredApprovals <= _approversCount) */\n      tag_161\n      jumpi\n      0x00\n      dup1\n      revert\n    tag_161:\n        /* \"Campaign.sol\":4173:4192  Request storage req */\n      0x00\n        /* \"Campaign.sol\":4195:4203  requests */\n      0x07\n        /* \"Campaign.sol\":4204:4208  name */\n      dup7\n        /* \"Campaign.sol\":4195:4209  requests[name] */\n      mload(0x40)\n      tag_162\n      swap2\n      swap1\n      tag_100\n      jump\t// in\n    tag_162:\n      swap1\n      dup2\n      mstore\n      0x20\n      add\n      mload(0x40)\n      dup1\n      swap2\n      sub\n      swap1\n      keccak256\n        /* \"Campaign.sol\":4173:4209  Request storage req = requests[name] */\n      swap1\n      pop\n        /* \"Campaign.sol\":4238:4242  name */\n      dup6\n        /* \"Campaign.sol\":4228:4231  req */\n      dup2\n        /* \"Campaign.sol\":4228:4236  req.name */\n      0x00\n      add\n        /* \"Campaign.sol\":4228:4242  req.name= name */\n      swap1\n      dup2\n      tag_163\n      swap2\n      swap1\n      tag_164\n      jump\t// in\n    tag_163:\n      pop\n        /* \"Campaign.sol\":4270:4281  description */\n      dup5\n        /* \"Campaign.sol\":4252:4255  req */\n      dup2\n        /* \"Campaign.sol\":4252:4267  req.description */\n      0x01\n      add\n        /* \"Campaign.sol\":4252:4281  req.description = description */\n      swap1\n      dup2\n      tag_165\n      swap2\n      swap1\n      tag_164\n      jump\t// in\n    tag_165:\n      pop\n        /* \"Campaign.sol\":4304:4310  amount */\n      dup4\n        /* \"Campaign.sol\":4291:4294  req */\n      dup2\n        /* \"Campaign.sol\":4291:4301  req.amount */\n      0x02\n      add\n        /* \"Campaign.sol\":4291:4310  req.amount = amount */\n      dup2\n      swap1\n      sstore\n      pop\n        /* \"Campaign.sol\":4335:4343  receiver */\n      dup2\n        /* \"Campaign.sol\":4320:4323  req */\n      dup2\n        /* \"Campaign.sol\":4320:4332  req.receiver */\n      0x03\n      add\n      0x00\n        /* \"Campaign.sol\":4320:4343  req.receiver = receiver */\n      0x0100\n      exp\n      dup2\n      sload\n      dup2\n      0xffffffffffffffffffffffffffffffffffffffff\n      mul\n      not\n      and\n      swap1\n      dup4\n      0xffffffffffffffffffffffffffffffffffffffff\n      and\n      mul\n      or\n      swap1\n      sstore\n      pop\n        /* \"Campaign.sol\":4374:4375  0 */\n      0x00\n        /* \"Campaign.sol\":4353:4356  req */\n      dup2\n        /* \"Campaign.sol\":4353:4371  req.approvalsCount */\n      0x04\n      add\n        /* \"Campaign.sol\":4353:4375  req.approvalsCount=  0 */\n      dup2\n      swap1\n      sstore\n      pop\n        /* \"Campaign.sol\":4409:4426  requiredApprovals */\n      dup3\n        /* \"Campaign.sol\":4385:4388  req */\n      dup2\n        /* \"Campaign.sol\":4385:4406  req.requiredApprovals */\n      0x05\n      add\n        /* \"Campaign.sol\":4385:4426  req.requiredApprovals = requiredApprovals */\n      dup2\n      swap1\n      sstore\n      pop\n        /* \"Campaign.sol\":4450:4455  false */\n      0x00\n        /* \"Campaign.sol\":4436:4439  req */\n      dup2\n        /* \"Campaign.sol\":4436:4448  req.complete */\n      0x06\n      add\n      0x01\n        /* \"Campaign.sol\":4436:4455  req.complete= false */\n      0x0100\n      exp\n      dup2\n      sload\n      dup2\n      0xff\n      mul\n      not\n      and\n      swap1\n      dup4\n      iszero\n      iszero\n      mul\n      or\n      swap1\n      sstore\n      pop\n        /* \"Campaign.sol\":4466:4480  _requestsCount */\n      0x08\n      0x00\n        /* \"Campaign.sol\":4466:4482  _requestsCount++ */\n      dup2\n      sload\n      dup1\n      swap3\n      swap2\n      swap1\n      tag_166\n      swap1\n      tag_111\n      jump\t// in\n    tag_166:\n      swap2\n      swap1\n      pop\n      sstore\n      pop\n        /* \"Campaign.sol\":4492:4501  _requests */\n      0x06\n        /* \"Campaign.sol\":4507:4511  name */\n      dup7\n        /* \"Campaign.sol\":4492:4512  _requests.push(name) */\n      swap1\n      dup1\n      0x01\n      dup2\n      sload\n      add\n      dup1\n      dup3\n      sstore\n      dup1\n      swap2\n      pop\n      pop\n      0x01\n      swap1\n      sub\n      swap1\n      0x00\n      mstore\n      keccak256(0x00, 0x20)\n      add\n      0x00\n      swap1\n      swap2\n      swap1\n      swap2\n      swap1\n      swap2\n      pop\n      swap1\n      dup2\n      tag_168\n      swap2\n      swap1\n      tag_164\n      jump\t// in\n    tag_168:\n      pop\n        /* \"Campaign.sol\":3891:4519  {... */\n      pop\n        /* \"Campaign.sol\":3729:4519  function triggerCampaignRequest(string memory name, string memory description, uint amount, uint requiredApprovals, address payable receiver) restricted external {... */\n      pop\n      pop\n      pop\n      pop\n      pop\n      jump\t// out\n        /* \"Campaign.sol\":2241:2331  function getManager() external view returns (address)... */\n    tag_73:\n        /* \"Campaign.sol\":2286:2293  address */\n      0x00\n        /* \"Campaign.sol\":2316:2324  _manager */\n      0x02\n      0x00\n      swap1\n      sload\n      swap1\n      0x0100\n      exp\n      swap1\n      div\n      0xffffffffffffffffffffffffffffffffffffffff\n      and\n        /* \"Campaign.sol\":2309:2324  return _manager */\n      swap1\n      pop\n        /* \"Campaign.sol\":2241:2331  function getManager() external view returns (address)... */\n      swap1\n      jump\t// out\n        /* \"Campaign.sol\":3508:3723  function contribute() public payable {... */\n    tag_77:\n        /* \"Campaign.sol\":3576:3596  _minimumContribution */\n      sload(0x05)\n        /* \"Campaign.sol\":3563:3572  msg.value */\n      callvalue\n        /* \"Campaign.sol\":3563:3596  msg.value >= _minimumContribution */\n      lt\n      iszero\n        /* \"Campaign.sol\":3555:3597  require(msg.value >= _minimumContribution) */\n      tag_171\n      jumpi\n      0x00\n      dup1\n      revert\n    tag_171:\n        /* \"Campaign.sol\":3641:3642  0 */\n      0x00\n        /* \"Campaign.sol\":3616:3625  approvers */\n      0x03\n        /* \"Campaign.sol\":3616:3637  approvers[msg.sender] */\n      0x00\n        /* \"Campaign.sol\":3626:3636  msg.sender */\n      caller\n        /* \"Campaign.sol\":3616:3637  approvers[msg.sender] */\n      0xffffffffffffffffffffffffffffffffffffffff\n      and\n      0xffffffffffffffffffffffffffffffffffffffff\n      and\n      dup2\n      mstore\n      0x20\n      add\n      swap1\n      dup2\n      mstore\n      0x20\n      add\n      0x00\n      keccak256\n      sload\n        /* \"Campaign.sol\":3616:3642  approvers[msg.sender] == 0 */\n      eq\n        /* \"Campaign.sol\":3608:3643  require(approvers[msg.sender] == 0) */\n      tag_172\n      jumpi\n      0x00\n      dup1\n      revert\n    tag_172:\n        /* \"Campaign.sol\":3678:3687  msg.value */\n      callvalue\n        /* \"Campaign.sol\":3653:3662  approvers */\n      0x03\n        /* \"Campaign.sol\":3653:3674  approvers[msg.sender] */\n      0x00\n        /* \"Campaign.sol\":3663:3673  msg.sender */\n      caller\n        /* \"Campaign.sol\":3653:3674  approvers[msg.sender] */\n      0xffffffffffffffffffffffffffffffffffffffff\n      and\n      0xffffffffffffffffffffffffffffffffffffffff\n      and\n      dup2\n      mstore\n      0x20\n      add\n      swap1\n      dup2\n      mstore\n      0x20\n      add\n      0x00\n      keccak256\n        /* \"Campaign.sol\":3653:3688  approvers[msg.sender] = (msg.value) */\n      dup2\n      swap1\n      sstore\n      pop\n        /* \"Campaign.sol\":3698:3713  _approversCount */\n      0x04\n      0x00\n        /* \"Campaign.sol\":3698:3715  _approversCount++ */\n      dup2\n      sload\n      dup1\n      swap3\n      swap2\n      swap1\n      tag_173\n      swap1\n      tag_111\n      jump\t// in\n    tag_173:\n      swap2\n      swap1\n      pop\n      sstore\n      pop\n        /* \"Campaign.sol\":3508:3723  function contribute() public payable {... */\n      jump\t// out\n        /* \"Campaign.sol\":5271:5680  function submitRequest(string memory reqName) restricted external {... */\n    tag_81:\n        /* \"Campaign.sol\":5740:5748  _manager */\n      0x02\n      0x00\n      swap1\n      sload\n      swap1\n      0x0100\n      exp\n      swap1\n      div\n      0xffffffffffffffffffffffffffffffffffffffff\n      and\n        /* \"Campaign.sol\":5726:5748  msg.sender == _manager */\n      0xffffffffffffffffffffffffffffffffffffffff\n      and\n        /* \"Campaign.sol\":5726:5736  msg.sender */\n      caller\n        /* \"Campaign.sol\":5726:5748  msg.sender == _manager */\n      0xffffffffffffffffffffffffffffffffffffffff\n      and\n      eq\n        /* \"Campaign.sol\":5718:5749  require(msg.sender == _manager) */\n      tag_175\n      jumpi\n      0x00\n      dup1\n      revert\n    tag_175:\n        /* \"Campaign.sol\":5347:5366  Request storage req */\n      0x00\n        /* \"Campaign.sol\":5369:5377  requests */\n      0x07\n        /* \"Campaign.sol\":5378:5385  reqName */\n      dup3\n        /* \"Campaign.sol\":5369:5386  requests[reqName] */\n      mload(0x40)\n      tag_177\n      swap2\n      swap1\n      tag_100\n      jump\t// in\n    tag_177:\n      swap1\n      dup2\n      mstore\n      0x20\n      add\n      mload(0x40)\n      dup1\n      swap2\n      sub\n      swap1\n      keccak256\n        /* \"Campaign.sol\":5347:5386  Request storage req = requests[reqName] */\n      swap1\n      pop\n        /* \"Campaign.sol\":5429:5430  0 */\n      0x00\n        /* \"Campaign.sol\":5410:5413  req */\n      dup2\n        /* \"Campaign.sol\":5410:5418  req.name */\n      0x00\n      add\n        /* \"Campaign.sol\":5404:5426  bytes(req.name).length */\n      dup1\n      sload\n      tag_178\n      swap1\n      tag_92\n      jump\t// in\n    tag_178:\n      swap1\n      pop\n        /* \"Campaign.sol\":5404:5430  bytes(req.name).length > 0 */\n      gt\n        /* \"Campaign.sol\":5396:5431  require(bytes(req.name).length > 0) */\n      tag_179\n      jumpi\n      0x00\n      dup1\n      revert\n    tag_179:\n        /* \"Campaign.sol\":5481:5488  reqName */\n      dup2\n        /* \"Campaign.sol\":5475:5496  bytes(reqName).length */\n      mload\n        /* \"Campaign.sol\":5455:5458  req */\n      dup2\n        /* \"Campaign.sol\":5455:5463  req.name */\n      0x00\n      add\n        /* \"Campaign.sol\":5449:5471  bytes(req.name).length */\n      dup1\n      sload\n      tag_180\n      swap1\n      tag_92\n      jump\t// in\n    tag_180:\n      swap1\n      pop\n        /* \"Campaign.sol\":5449:5496  bytes(req.name).length == bytes(reqName).length */\n      eq\n        /* \"Campaign.sol\":5441:5497  require(bytes(req.name).length == bytes(reqName).length) */\n      tag_181\n      jumpi\n      0x00\n      dup1\n      revert\n    tag_181:\n        /* \"Campaign.sol\":5515:5518  req */\n      dup1\n        /* \"Campaign.sol\":5515:5528  req.canSubmit */\n      0x06\n      add\n      0x00\n      swap1\n      sload\n      swap1\n      0x0100\n      exp\n      swap1\n      div\n      0xff\n      and\n        /* \"Campaign.sol\":5515:5545  req.canSubmit && !req.complete */\n      dup1\n      iszero\n      tag_182\n      jumpi\n      pop\n        /* \"Campaign.sol\":5533:5536  req */\n      dup1\n        /* \"Campaign.sol\":5533:5545  req.complete */\n      0x06\n      add\n      0x01\n      swap1\n      sload\n      swap1\n      0x0100\n      exp\n      swap1\n      div\n      0xff\n      and\n        /* \"Campaign.sol\":5532:5545  !req.complete */\n      iszero\n        /* \"Campaign.sol\":5515:5545  req.canSubmit && !req.complete */\n    tag_182:\n        /* \"Campaign.sol\":5507:5546  require(req.canSubmit && !req.complete) */\n      tag_183\n      jumpi\n      0x00\n      dup1\n      revert\n    tag_183:\n        /* \"Campaign.sol\":5589:5592  req */\n      dup1\n        /* \"Campaign.sol\":5589:5599  req.amount */\n      0x02\n      add\n      sload\n        /* \"Campaign.sol\":5564:5585  address(this).balance */\n      selfbalance\n        /* \"Campaign.sol\":5564:5599  address(this).balance >= req.amount */\n      lt\n      iszero\n        /* \"Campaign.sol\":5556:5600  require(address(this).balance >= req.amount) */\n      tag_184\n      jumpi\n      0x00\n      dup1\n      revert\n    tag_184:\n        /* \"Campaign.sol\":5610:5613  req */\n      dup1\n        /* \"Campaign.sol\":5610:5622  req.receiver */\n      0x03\n      add\n      0x00\n      swap1\n      sload\n      swap1\n      0x0100\n      exp\n      swap1\n      div\n      0xffffffffffffffffffffffffffffffffffffffff\n      and\n        /* \"Campaign.sol\":5610:5631  req.receiver.transfer */\n      0xffffffffffffffffffffffffffffffffffffffff\n      and\n        /* \"Campaign.sol\":5610:5643  req.receiver.transfer(req.amount) */\n      0x08fc\n        /* \"Campaign.sol\":5632:5635  req */\n      dup3\n        /* \"Campaign.sol\":5632:5642  req.amount */\n      0x02\n      add\n      sload\n        /* \"Campaign.sol\":5610:5643  req.receiver.transfer(req.amount) */\n      swap1\n      dup2\n      iszero\n      mul\n      swap1\n      mload(0x40)\n      0x00\n      mload(0x40)\n      dup1\n      dup4\n      sub\n      dup2\n      dup6\n      dup9\n      dup9\n      call\n      swap4\n      pop\n      pop\n      pop\n      pop\n      iszero\n      dup1\n      iszero\n      tag_186\n      jumpi\n      returndatasize\n      0x00\n      dup1\n      returndatacopy\n      revert(0x00, returndatasize)\n    tag_186:\n      pop\n        /* \"Campaign.sol\":5669:5673  true */\n      0x01\n        /* \"Campaign.sol\":5654:5657  req */\n      dup2\n        /* \"Campaign.sol\":5654:5666  req.complete */\n      0x06\n      add\n      0x01\n        /* \"Campaign.sol\":5654:5673  req.complete = true */\n      0x0100\n      exp\n      dup2\n      sload\n      dup2\n      0xff\n      mul\n      not\n      and\n      swap1\n      dup4\n      iszero\n      iszero\n      mul\n      or\n      swap1\n      sstore\n      pop\n        /* \"Campaign.sol\":5337:5680  {... */\n      pop\n        /* \"Campaign.sol\":5271:5680  function submitRequest(string memory reqName) restricted external {... */\n      pop\n      jump\t// out\n        /* \"Campaign.sol\":2652:2757  function getMinimumContribution() external view returns(uint){... */\n    tag_84:\n        /* \"Campaign.sol\":2708:2712  uint */\n      0x00\n        /* \"Campaign.sol\":2730:2750  _minimumContribution */\n      sload(0x05)\n        /* \"Campaign.sol\":2723:2750  return _minimumContribution */\n      swap1\n      pop\n        /* \"Campaign.sol\":2652:2757  function getMinimumContribution() external view returns(uint){... */\n      swap1\n      jump\t// out\n        /* \"Campaign.sol\":2549:2647  function getContributorsCount() external view returns(uint){... */\n    tag_88:\n        /* \"Campaign.sol\":2603:2607  uint */\n      0x00\n        /* \"Campaign.sol\":2625:2640  _approversCount */\n      sload(0x04)\n        /* \"Campaign.sol\":2618:2640  return _approversCount */\n      swap1\n      pop\n        /* \"Campaign.sol\":2549:2647  function getContributorsCount() external view returns(uint){... */\n      swap1\n      jump\t// out\n    tag_115:\n      mload(0x40)\n      dup1\n      0xe0\n      add\n      0x40\n      mstore\n      dup1\n      and(0xffffffffffffffffffffffffffffffffffffffff, 0x00)\n      dup2\n      mstore\n      0x20\n      add\n      0x60\n      dup2\n      mstore\n      0x20\n      add\n      0x60\n      dup2\n      mstore\n      0x20\n      add\n      0x00\n      dup2\n      mstore\n      0x20\n      add\n      0x00\n      dup2\n      mstore\n      0x20\n      add\n      0x00\n      dup2\n      mstore\n      0x20\n      add\n      0x00\n      dup2\n      mstore\n      pop\n      swap1\n      jump\t// out\n        /* \"#utility.yul\":7:82   */\n    tag_189:\n        /* \"#utility.yul\":40:46   */\n      0x00\n        /* \"#utility.yul\":73:75   */\n      0x40\n        /* \"#utility.yul\":67:76   */\n      mload\n        /* \"#utility.yul\":57:76   */\n      swap1\n      pop\n        /* \"#utility.yul\":7:82   */\n      swap1\n      jump\t// out\n        /* \"#utility.yul\":88:205   */\n    tag_190:\n        /* \"#utility.yul\":197:198   */\n      0x00\n        /* \"#utility.yul\":194:195   */\n      dup1\n        /* \"#utility.yul\":187:199   */\n      revert\n        /* \"#utility.yul\":211:328   */\n    tag_191:\n        /* \"#utility.yul\":320:321   */\n      0x00\n        /* \"#utility.yul\":317:318   */\n      dup1\n        /* \"#utility.yul\":310:322   */\n      revert\n        /* \"#utility.yul\":334:460   */\n    tag_192:\n        /* \"#utility.yul\":371:378   */\n      0x00\n        /* \"#utility.yul\":411:453   */\n      0xffffffffffffffffffffffffffffffffffffffff\n        /* \"#utility.yul\":404:409   */\n      dup3\n        /* \"#utility.yul\":400:454   */\n      and\n        /* \"#utility.yul\":389:454   */\n      swap1\n      pop\n        /* \"#utility.yul\":334:460   */\n      swap2\n      swap1\n      pop\n      jump\t// out\n        /* \"#utility.yul\":466:562   */\n    tag_193:\n        /* \"#utility.yul\":503:510   */\n      0x00\n        /* \"#utility.yul\":532:556   */\n      tag_259\n        /* \"#utility.yul\":550:555   */\n      dup3\n        /* \"#utility.yul\":532:556   */\n      tag_192\n      jump\t// in\n    tag_259:\n        /* \"#utility.yul\":521:556   */\n      swap1\n      pop\n        /* \"#utility.yul\":466:562   */\n      swap2\n      swap1\n      pop\n      jump\t// out\n        /* \"#utility.yul\":568:690   */\n    tag_194:\n        /* \"#utility.yul\":641:665   */\n      tag_261\n        /* \"#utility.yul\":659:664   */\n      dup2\n        /* \"#utility.yul\":641:665   */\n      tag_193\n      jump\t// in\n    tag_261:\n        /* \"#utility.yul\":634:639   */\n      dup2\n        /* \"#utility.yul\":631:666   */\n      eq\n        /* \"#utility.yul\":621:684   */\n      tag_262\n      jumpi\n        /* \"#utility.yul\":680:681   */\n      0x00\n        /* \"#utility.yul\":677:678   */\n      dup1\n        /* \"#utility.yul\":670:682   */\n      revert\n        /* \"#utility.yul\":621:684   */\n    tag_262:\n        /* \"#utility.yul\":568:690   */\n      pop\n      jump\t// out\n        /* \"#utility.yul\":696:835   */\n    tag_195:\n        /* \"#utility.yul\":742:747   */\n      0x00\n        /* \"#utility.yul\":780:786   */\n      dup2\n        /* \"#utility.yul\":767:787   */\n      calldataload\n        /* \"#utility.yul\":758:787   */\n      swap1\n      pop\n        /* \"#utility.yul\":796:829   */\n      tag_264\n        /* \"#utility.yul\":823:828   */\n      dup2\n        /* \"#utility.yul\":796:829   */\n      tag_194\n      jump\t// in\n    tag_264:\n        /* \"#utility.yul\":696:835   */\n      swap3\n      swap2\n      pop\n      pop\n      jump\t// out\n        /* \"#utility.yul\":841:1170   */\n    tag_23:\n        /* \"#utility.yul\":900:906   */\n      0x00\n        /* \"#utility.yul\":949:951   */\n      0x20\n        /* \"#utility.yul\":937:946   */\n      dup3\n        /* \"#utility.yul\":928:935   */\n      dup5\n        /* \"#utility.yul\":924:947   */\n      sub\n        /* \"#utility.yul\":920:952   */\n      slt\n        /* \"#utility.yul\":917:1036   */\n      iszero\n      tag_266\n      jumpi\n        /* \"#utility.yul\":955:1034   */\n      tag_267\n      tag_190\n      jump\t// in\n    tag_267:\n        /* \"#utility.yul\":917:1036   */\n    tag_266:\n        /* \"#utility.yul\":1075:1076   */\n      0x00\n        /* \"#utility.yul\":1100:1153   */\n      tag_268\n        /* \"#utility.yul\":1145:1152   */\n      dup5\n        /* \"#utility.yul\":1136:1142   */\n      dup3\n        /* \"#utility.yul\":1125:1134   */\n      dup6\n        /* \"#utility.yul\":1121:1143   */\n      add\n        /* \"#utility.yul\":1100:1153   */\n      tag_195\n      jump\t// in\n    tag_268:\n        /* \"#utility.yul\":1090:1153   */\n      swap2\n      pop\n        /* \"#utility.yul\":1046:1163   */\n      pop\n        /* \"#utility.yul\":841:1170   */\n      swap3\n      swap2\n      pop\n      pop\n      jump\t// out\n        /* \"#utility.yul\":1176:1253   */\n    tag_196:\n        /* \"#utility.yul\":1213:1220   */\n      0x00\n        /* \"#utility.yul\":1242:1247   */\n      dup2\n        /* \"#utility.yul\":1231:1247   */\n      swap1\n      pop\n        /* \"#utility.yul\":1176:1253   */\n      swap2\n      swap1\n      pop\n      jump\t// out\n        /* \"#utility.yul\":1259:1377   */\n    tag_197:\n        /* \"#utility.yul\":1346:1370   */\n      tag_271\n        /* \"#utility.yul\":1364:1369   */\n      dup2\n        /* \"#utility.yul\":1346:1370   */\n      tag_196\n      jump\t// in\n    tag_271:\n        /* \"#utility.yul\":1341:1344   */\n      dup3\n        /* \"#utility.yul\":1334:1371   */\n      mstore\n        /* \"#utility.yul\":1259:1377   */\n      pop\n      pop\n      jump\t// out\n        /* \"#utility.yul\":1383:1605   */\n    tag_26:\n        /* \"#utility.yul\":1476:1480   */\n      0x00\n        /* \"#utility.yul\":1514:1516   */\n      0x20\n        /* \"#utility.yul\":1503:1512   */\n      dup3\n        /* \"#utility.yul\":1499:1517   */\n      add\n        /* \"#utility.yul\":1491:1517   */\n      swap1\n      pop\n        /* \"#utility.yul\":1527:1598   */\n      tag_273\n        /* \"#utility.yul\":1595:1596   */\n      0x00\n        /* \"#utility.yul\":1584:1593   */\n      dup4\n        /* \"#utility.yul\":1580:1597   */\n      add\n        /* \"#utility.yul\":1571:1577   */\n      dup5\n        /* \"#utility.yul\":1527:1598   */\n      tag_197\n      jump\t// in\n    tag_273:\n        /* \"#utility.yul\":1383:1605   */\n      swap3\n      swap2\n      pop\n      pop\n      jump\t// out\n        /* \"#utility.yul\":1611:1710   */\n    tag_198:\n        /* \"#utility.yul\":1663:1669   */\n      0x00\n        /* \"#utility.yul\":1697:1702   */\n      dup2\n        /* \"#utility.yul\":1691:1703   */\n      mload\n        /* \"#utility.yul\":1681:1703   */\n      swap1\n      pop\n        /* \"#utility.yul\":1611:1710   */\n      swap2\n      swap1\n      pop\n      jump\t// out\n        /* \"#utility.yul\":1716:1885   */\n    tag_199:\n        /* \"#utility.yul\":1800:1811   */\n      0x00\n        /* \"#utility.yul\":1834:1840   */\n      dup3\n        /* \"#utility.yul\":1829:1832   */\n      dup3\n        /* \"#utility.yul\":1822:1841   */\n      mstore\n        /* \"#utility.yul\":1874:1878   */\n      0x20\n        /* \"#utility.yul\":1869:1872   */\n      dup3\n        /* \"#utility.yul\":1865:1879   */\n      add\n        /* \"#utility.yul\":1850:1879   */\n      swap1\n      pop\n        /* \"#utility.yul\":1716:1885   */\n      swap3\n      swap2\n      pop\n      pop\n      jump\t// out\n        /* \"#utility.yul\":1891:2137   */\n    tag_200:\n        /* \"#utility.yul\":1972:1973   */\n      0x00\n        /* \"#utility.yul\":1982:2095   */\n    tag_277:\n        /* \"#utility.yul\":1996:2002   */\n      dup4\n        /* \"#utility.yul\":1993:1994   */\n      dup2\n        /* \"#utility.yul\":1990:2003   */\n      lt\n        /* \"#utility.yul\":1982:2095   */\n      iszero\n      tag_279\n      jumpi\n        /* \"#utility.yul\":2081:2082   */\n      dup1\n        /* \"#utility.yul\":2076:2079   */\n      dup3\n        /* \"#utility.yul\":2072:2083   */\n      add\n        /* \"#utility.yul\":2066:2084   */\n      mload\n        /* \"#utility.yul\":2062:2063   */\n      dup2\n        /* \"#utility.yul\":2057:2060   */\n      dup5\n        /* \"#utility.yul\":2053:2064   */\n      add\n        /* \"#utility.yul\":2046:2085   */\n      mstore\n        /* \"#utility.yul\":2018:2020   */\n      0x20\n        /* \"#utility.yul\":2015:2016   */\n      dup2\n        /* \"#utility.yul\":2011:2021   */\n      add\n        /* \"#utility.yul\":2006:2021   */\n      swap1\n      pop\n        /* \"#utility.yul\":1982:2095   */\n      jump(tag_277)\n    tag_279:\n        /* \"#utility.yul\":2129:2130   */\n      0x00\n        /* \"#utility.yul\":2120:2126   */\n      dup5\n        /* \"#utility.yul\":2115:2118   */\n      dup5\n        /* \"#utility.yul\":2111:2127   */\n      add\n        /* \"#utility.yul\":2104:2131   */\n      mstore\n        /* \"#utility.yul\":1953:2137   */\n      pop\n        /* \"#utility.yul\":1891:2137   */\n      pop\n      pop\n      pop\n      jump\t// out\n        /* \"#utility.yul\":2143:2245   */\n    tag_201:\n        /* \"#utility.yul\":2184:2190   */\n      0x00\n        /* \"#utility.yul\":2235:2237   */\n      0x1f\n        /* \"#utility.yul\":2231:2238   */\n      not\n        /* \"#utility.yul\":2226:2228   */\n      0x1f\n        /* \"#utility.yul\":2219:2224   */\n      dup4\n        /* \"#utility.yul\":2215:2229   */\n      add\n        /* \"#utility.yul\":2211:2239   */\n      and\n        /* \"#utility.yul\":2201:2239   */\n      swap1\n      pop\n        /* \"#utility.yul\":2143:2245   */\n      swap2\n      swap1\n      pop\n      jump\t// out\n        /* \"#utility.yul\":2251:2628   */\n    tag_202:\n        /* \"#utility.yul\":2339:2342   */\n      0x00\n        /* \"#utility.yul\":2367:2406   */\n      tag_282\n        /* \"#utility.yul\":2400:2405   */\n      dup3\n        /* \"#utility.yul\":2367:2406   */\n      tag_198\n      jump\t// in\n    tag_282:\n        /* \"#utility.yul\":2422:2493   */\n      tag_283\n        /* \"#utility.yul\":2486:2492   */\n      dup2\n        /* \"#utility.yul\":2481:2484   */\n      dup6\n        /* \"#utility.yul\":2422:2493   */\n      tag_199\n      jump\t// in\n    tag_283:\n        /* \"#utility.yul\":2415:2493   */\n      swap4\n      pop\n        /* \"#utility.yul\":2502:2567   */\n      tag_284\n        /* \"#utility.yul\":2560:2566   */\n      dup2\n        /* \"#utility.yul\":2555:2558   */\n      dup6\n        /* \"#utility.yul\":2548:2552   */\n      0x20\n        /* \"#utility.yul\":2541:2546   */\n      dup7\n        /* \"#utility.yul\":2537:2553   */\n      add\n        /* \"#utility.yul\":2502:2567   */\n      tag_200\n      jump\t// in\n    tag_284:\n        /* \"#utility.yul\":2592:2621   */\n      tag_285\n        /* \"#utility.yul\":2614:2620   */\n      dup2\n        /* \"#utility.yul\":2592:2621   */\n      tag_201\n      jump\t// in\n    tag_285:\n        /* \"#utility.yul\":2587:2590   */\n      dup5\n        /* \"#utility.yul\":2583:2622   */\n      add\n        /* \"#utility.yul\":2576:2622   */\n      swap2\n      pop\n        /* \"#utility.yul\":2343:2628   */\n      pop\n        /* \"#utility.yul\":2251:2628   */\n      swap3\n      swap2\n      pop\n      pop\n      jump\t// out\n        /* \"#utility.yul\":2634:2947   */\n    tag_31:\n        /* \"#utility.yul\":2747:2751   */\n      0x00\n        /* \"#utility.yul\":2785:2787   */\n      0x20\n        /* \"#utility.yul\":2774:2783   */\n      dup3\n        /* \"#utility.yul\":2770:2788   */\n      add\n        /* \"#utility.yul\":2762:2788   */\n      swap1\n      pop\n        /* \"#utility.yul\":2834:2843   */\n      dup2\n        /* \"#utility.yul\":2828:2832   */\n      dup2\n        /* \"#utility.yul\":2824:2844   */\n      sub\n        /* \"#utility.yul\":2820:2821   */\n      0x00\n        /* \"#utility.yul\":2809:2818   */\n      dup4\n        /* \"#utility.yul\":2805:2822   */\n      add\n        /* \"#utility.yul\":2798:2845   */\n      mstore\n        /* \"#utility.yul\":2862:2940   */\n      tag_287\n        /* \"#utility.yul\":2935:2939   */\n      dup2\n        /* \"#utility.yul\":2926:2932   */\n      dup5\n        /* \"#utility.yul\":2862:2940   */\n      tag_202\n      jump\t// in\n    tag_287:\n        /* \"#utility.yul\":2854:2940   */\n      swap1\n      pop\n        /* \"#utility.yul\":2634:2947   */\n      swap3\n      swap2\n      pop\n      pop\n      jump\t// out\n        /* \"#utility.yul\":2953:3070   */\n    tag_203:\n        /* \"#utility.yul\":3062:3063   */\n      0x00\n        /* \"#utility.yul\":3059:3060   */\n      dup1\n        /* \"#utility.yul\":3052:3064   */\n      revert\n        /* \"#utility.yul\":3076:3193   */\n    tag_204:\n        /* \"#utility.yul\":3185:3186   */\n      0x00\n        /* \"#utility.yul\":3182:3183   */\n      dup1\n        /* \"#utility.yul\":3175:3187   */\n      revert\n        /* \"#utility.yul\":3199:3379   */\n    tag_205:\n        /* \"#utility.yul\":3247:3324   */\n      0x4e487b7100000000000000000000000000000000000000000000000000000000\n        /* \"#utility.yul\":3244:3245   */\n      0x00\n        /* \"#utility.yul\":3237:3325   */\n      mstore\n        /* \"#utility.yul\":3344:3348   */\n      0x41\n        /* \"#utility.yul\":3341:3342   */\n      0x04\n        /* \"#utility.yul\":3334:3349   */\n      mstore\n        /* \"#utility.yul\":3368:3372   */\n      0x24\n        /* \"#utility.yul\":3365:3366   */\n      0x00\n        /* \"#utility.yul\":3358:3373   */\n      revert\n        /* \"#utility.yul\":3385:3666   */\n    tag_206:\n        /* \"#utility.yul\":3468:3495   */\n      tag_292\n        /* \"#utility.yul\":3490:3494   */\n      dup3\n        /* \"#utility.yul\":3468:3495   */\n      tag_201\n      jump\t// in\n    tag_292:\n        /* \"#utility.yul\":3460:3466   */\n      dup2\n        /* \"#utility.yul\":3456:3496   */\n      add\n        /* \"#utility.yul\":3598:3604   */\n      dup2\n        /* \"#utility.yul\":3586:3596   */\n      dup2\n        /* \"#utility.yul\":3583:3605   */\n      lt\n        /* \"#utility.yul\":3562:3580   */\n      0xffffffffffffffff\n        /* \"#utility.yul\":3550:3560   */\n      dup3\n        /* \"#utility.yul\":3547:3581   */\n      gt\n        /* \"#utility.yul\":3544:3606   */\n      or\n        /* \"#utility.yul\":3541:3629   */\n      iszero\n      tag_293\n      jumpi\n        /* \"#utility.yul\":3609:3627   */\n      tag_294\n      tag_205\n      jump\t// in\n    tag_294:\n        /* \"#utility.yul\":3541:3629   */\n    tag_293:\n        /* \"#utility.yul\":3649:3659   */\n      dup1\n        /* \"#utility.yul\":3645:3647   */\n      0x40\n        /* \"#utility.yul\":3638:3660   */\n      mstore\n        /* \"#utility.yul\":3428:3666   */\n      pop\n        /* \"#utility.yul\":3385:3666   */\n      pop\n      pop\n      jump\t// out\n        /* \"#utility.yul\":3672:3801   */\n    tag_207:\n        /* \"#utility.yul\":3706:3712   */\n      0x00\n        /* \"#utility.yul\":3733:3753   */\n      tag_296\n      tag_189\n      jump\t// in\n    tag_296:\n        /* \"#utility.yul\":3723:3753   */\n      swap1\n      pop\n        /* \"#utility.yul\":3762:3795   */\n      tag_297\n        /* \"#utility.yul\":3790:3794   */\n      dup3\n        /* \"#utility.yul\":3782:3788   */\n      dup3\n        /* \"#utility.yul\":3762:3795   */\n      tag_206\n      jump\t// in\n    tag_297:\n        /* \"#utility.yul\":3672:3801   */\n      swap2\n      swap1\n      pop\n      jump\t// out\n        /* \"#utility.yul\":3807:4115   */\n    tag_208:\n        /* \"#utility.yul\":3869:3873   */\n      0x00\n        /* \"#utility.yul\":3959:3977   */\n      0xffffffffffffffff\n        /* \"#utility.yul\":3951:3957   */\n      dup3\n        /* \"#utility.yul\":3948:3978   */\n      gt\n        /* \"#utility.yul\":3945:4001   */\n      iszero\n      tag_299\n      jumpi\n        /* \"#utility.yul\":3981:3999   */\n      tag_300\n      tag_205\n      jump\t// in\n    tag_300:\n        /* \"#utility.yul\":3945:4001   */\n    tag_299:\n        /* \"#utility.yul\":4019:4048   */\n      tag_301\n        /* \"#utility.yul\":4041:4047   */\n      dup3\n        /* \"#utility.yul\":4019:4048   */\n      tag_201\n      jump\t// in\n    tag_301:\n        /* \"#utility.yul\":4011:4048   */\n      swap1\n      pop\n        /* \"#utility.yul\":4103:4107   */\n      0x20\n        /* \"#utility.yul\":4097:4101   */\n      dup2\n        /* \"#utility.yul\":4093:4108   */\n      add\n        /* \"#utility.yul\":4085:4108   */\n      swap1\n      pop\n        /* \"#utility.yul\":3807:4115   */\n      swap2\n      swap1\n      pop\n      jump\t// out\n        /* \"#utility.yul\":4121:4267   */\n    tag_209:\n        /* \"#utility.yul\":4218:4224   */\n      dup3\n        /* \"#utility.yul\":4213:4216   */\n      dup2\n        /* \"#utility.yul\":4208:4211   */\n      dup4\n        /* \"#utility.yul\":4195:4225   */\n      calldatacopy\n        /* \"#utility.yul\":4259:4260   */\n      0x00\n        /* \"#utility.yul\":4250:4256   */\n      dup4\n        /* \"#utility.yul\":4245:4248   */\n      dup4\n        /* \"#utility.yul\":4241:4257   */\n      add\n        /* \"#utility.yul\":4234:4261   */\n      mstore\n        /* \"#utility.yul\":4121:4267   */\n      pop\n      pop\n      pop\n      jump\t// out\n        /* \"#utility.yul\":4273:4698   */\n    tag_210:\n        /* \"#utility.yul\":4351:4356   */\n      0x00\n        /* \"#utility.yul\":4376:4442   */\n      tag_304\n        /* \"#utility.yul\":4392:4441   */\n      tag_305\n        /* \"#utility.yul\":4434:4440   */\n      dup5\n        /* \"#utility.yul\":4392:4441   */\n      tag_208\n      jump\t// in\n    tag_305:\n        /* \"#utility.yul\":4376:4442   */\n      tag_207\n      jump\t// in\n    tag_304:\n        /* \"#utility.yul\":4367:4442   */\n      swap1\n      pop\n        /* \"#utility.yul\":4465:4471   */\n      dup3\n        /* \"#utility.yul\":4458:4463   */\n      dup2\n        /* \"#utility.yul\":4451:4472   */\n      mstore\n        /* \"#utility.yul\":4503:4507   */\n      0x20\n        /* \"#utility.yul\":4496:4501   */\n      dup2\n        /* \"#utility.yul\":4492:4508   */\n      add\n        /* \"#utility.yul\":4541:4544   */\n      dup5\n        /* \"#utility.yul\":4532:4538   */\n      dup5\n        /* \"#utility.yul\":4527:4530   */\n      dup5\n        /* \"#utility.yul\":4523:4539   */\n      add\n        /* \"#utility.yul\":4520:4545   */\n      gt\n        /* \"#utility.yul\":4517:4629   */\n      iszero\n      tag_306\n      jumpi\n        /* \"#utility.yul\":4548:4627   */\n      tag_307\n      tag_204\n      jump\t// in\n    tag_307:\n        /* \"#utility.yul\":4517:4629   */\n    tag_306:\n        /* \"#utility.yul\":4638:4692   */\n      tag_308\n        /* \"#utility.yul\":4685:4691   */\n      dup5\n        /* \"#utility.yul\":4680:4683   */\n      dup3\n        /* \"#utility.yul\":4675:4678   */\n      dup6\n        /* \"#utility.yul\":4638:4692   */\n      tag_209\n      jump\t// in\n    tag_308:\n        /* \"#utility.yul\":4357:4698   */\n      pop\n        /* \"#utility.yul\":4273:4698   */\n      swap4\n      swap3\n      pop\n      pop\n      pop\n      jump\t// out\n        /* \"#utility.yul\":4718:5058   */\n    tag_211:\n        /* \"#utility.yul\":4774:4779   */\n      0x00\n        /* \"#utility.yul\":4823:4826   */\n      dup3\n        /* \"#utility.yul\":4816:4820   */\n      0x1f\n        /* \"#utility.yul\":4808:4814   */\n      dup4\n        /* \"#utility.yul\":4804:4821   */\n      add\n        /* \"#utility.yul\":4800:4827   */\n      slt\n        /* \"#utility.yul\":4790:4912   */\n      tag_310\n      jumpi\n        /* \"#utility.yul\":4831:4910   */\n      tag_311\n      tag_203\n      jump\t// in\n    tag_311:\n        /* \"#utility.yul\":4790:4912   */\n    tag_310:\n        /* \"#utility.yul\":4948:4954   */\n      dup2\n        /* \"#utility.yul\":4935:4955   */\n      calldataload\n        /* \"#utility.yul\":4973:5052   */\n      tag_312\n        /* \"#utility.yul\":5048:5051   */\n      dup5\n        /* \"#utility.yul\":5040:5046   */\n      dup3\n        /* \"#utility.yul\":5033:5037   */\n      0x20\n        /* \"#utility.yul\":5025:5031   */\n      dup7\n        /* \"#utility.yul\":5021:5038   */\n      add\n        /* \"#utility.yul\":4973:5052   */\n      tag_210\n      jump\t// in\n    tag_312:\n        /* \"#utility.yul\":4964:5052   */\n      swap2\n      pop\n        /* \"#utility.yul\":4780:5058   */\n      pop\n        /* \"#utility.yul\":4718:5058   */\n      swap3\n      swap2\n      pop\n      pop\n      jump\t// out\n        /* \"#utility.yul\":5064:5154   */\n    tag_212:\n        /* \"#utility.yul\":5098:5105   */\n      0x00\n        /* \"#utility.yul\":5141:5146   */\n      dup2\n        /* \"#utility.yul\":5134:5147   */\n      iszero\n        /* \"#utility.yul\":5127:5148   */\n      iszero\n        /* \"#utility.yul\":5116:5148   */\n      swap1\n      pop\n        /* \"#utility.yul\":5064:5154   */\n      swap2\n      swap1\n      pop\n      jump\t// out\n        /* \"#utility.yul\":5160:5276   */\n    tag_213:\n        /* \"#utility.yul\":5230:5251   */\n      tag_315\n        /* \"#utility.yul\":5245:5250   */\n      dup2\n        /* \"#utility.yul\":5230:5251   */\n      tag_212\n      jump\t// in\n    tag_315:\n        /* \"#utility.yul\":5223:5228   */\n      dup2\n        /* \"#utility.yul\":5220:5252   */\n      eq\n        /* \"#utility.yul\":5210:5270   */\n      tag_316\n      jumpi\n        /* \"#utility.yul\":5266:5267   */\n      0x00\n        /* \"#utility.yul\":5263:5264   */\n      dup1\n        /* \"#utility.yul\":5256:5268   */\n      revert\n        /* \"#utility.yul\":5210:5270   */\n    tag_316:\n        /* \"#utility.yul\":5160:5276   */\n      pop\n      jump\t// out\n        /* \"#utility.yul\":5282:5415   */\n    tag_214:\n        /* \"#utility.yul\":5325:5330   */\n      0x00\n        /* \"#utility.yul\":5363:5369   */\n      dup2\n        /* \"#utility.yul\":5350:5370   */\n      calldataload\n        /* \"#utility.yul\":5341:5370   */\n      swap1\n      pop\n        /* \"#utility.yul\":5379:5409   */\n      tag_318\n        /* \"#utility.yul\":5403:5408   */\n      dup2\n        /* \"#utility.yul\":5379:5409   */\n      tag_213\n      jump\t// in\n    tag_318:\n        /* \"#utility.yul\":5282:5415   */\n      swap3\n      swap2\n      pop\n      pop\n      jump\t// out\n        /* \"#utility.yul\":5421:6069   */\n    tag_35:\n        /* \"#utility.yul\":5496:5502   */\n      0x00\n        /* \"#utility.yul\":5504:5510   */\n      dup1\n        /* \"#utility.yul\":5553:5555   */\n      0x40\n        /* \"#utility.yul\":5541:5550   */\n      dup4\n        /* \"#utility.yul\":5532:5539   */\n      dup6\n        /* \"#utility.yul\":5528:5551   */\n      sub\n        /* \"#utility.yul\":5524:5556   */\n      slt\n        /* \"#utility.yul\":5521:5640   */\n      iszero\n      tag_320\n      jumpi\n        /* \"#utility.yul\":5559:5638   */\n      tag_321\n      tag_190\n      jump\t// in\n    tag_321:\n        /* \"#utility.yul\":5521:5640   */\n    tag_320:\n        /* \"#utility.yul\":5707:5708   */\n      0x00\n        /* \"#utility.yul\":5696:5705   */\n      dup4\n        /* \"#utility.yul\":5692:5709   */\n      add\n        /* \"#utility.yul\":5679:5710   */\n      calldataload\n        /* \"#utility.yul\":5737:5755   */\n      0xffffffffffffffff\n        /* \"#utility.yul\":5729:5735   */\n      dup2\n        /* \"#utility.yul\":5726:5756   */\n      gt\n        /* \"#utility.yul\":5723:5840   */\n      iszero\n      tag_322\n      jumpi\n        /* \"#utility.yul\":5759:5838   */\n      tag_323\n      tag_191\n      jump\t// in\n    tag_323:\n        /* \"#utility.yul\":5723:5840   */\n    tag_322:\n        /* \"#utility.yul\":5864:5927   */\n      tag_324\n        /* \"#utility.yul\":5919:5926   */\n      dup6\n        /* \"#utility.yul\":5910:5916   */\n      dup3\n        /* \"#utility.yul\":5899:5908   */\n      dup7\n        /* \"#utility.yul\":5895:5917   */\n      add\n        /* \"#utility.yul\":5864:5927   */\n      tag_211\n      jump\t// in\n    tag_324:\n        /* \"#utility.yul\":5854:5927   */\n      swap3\n      pop\n        /* \"#utility.yul\":5650:5937   */\n      pop\n        /* \"#utility.yul\":5976:5978   */\n      0x20\n        /* \"#utility.yul\":6002:6052   */\n      tag_325\n        /* \"#utility.yul\":6044:6051   */\n      dup6\n        /* \"#utility.yul\":6035:6041   */\n      dup3\n        /* \"#utility.yul\":6024:6033   */\n      dup7\n        /* \"#utility.yul\":6020:6042   */\n      add\n        /* \"#utility.yul\":6002:6052   */\n      tag_214\n      jump\t// in\n    tag_325:\n        /* \"#utility.yul\":5992:6052   */\n      swap2\n      pop\n        /* \"#utility.yul\":5947:6062   */\n      pop\n        /* \"#utility.yul\":5421:6069   */\n      swap3\n      pop\n      swap3\n      swap1\n      pop\n      jump\t// out\n        /* \"#utility.yul\":6075:6183   */\n    tag_215:\n        /* \"#utility.yul\":6152:6176   */\n      tag_327\n        /* \"#utility.yul\":6170:6175   */\n      dup2\n        /* \"#utility.yul\":6152:6176   */\n      tag_193\n      jump\t// in\n    tag_327:\n        /* \"#utility.yul\":6147:6150   */\n      dup3\n        /* \"#utility.yul\":6140:6177   */\n      mstore\n        /* \"#utility.yul\":6075:6183   */\n      pop\n      pop\n      jump\t// out\n        /* \"#utility.yul\":6189:6348   */\n    tag_216:\n        /* \"#utility.yul\":6263:6274   */\n      0x00\n        /* \"#utility.yul\":6297:6303   */\n      dup3\n        /* \"#utility.yul\":6292:6295   */\n      dup3\n        /* \"#utility.yul\":6285:6304   */\n      mstore\n        /* \"#utility.yul\":6337:6341   */\n      0x20\n        /* \"#utility.yul\":6332:6335   */\n      dup3\n        /* \"#utility.yul\":6328:6342   */\n      add\n        /* \"#utility.yul\":6313:6342   */\n      swap1\n      pop\n        /* \"#utility.yul\":6189:6348   */\n      swap3\n      swap2\n      pop\n      pop\n      jump\t// out\n        /* \"#utility.yul\":6354:6711   */\n    tag_217:\n        /* \"#utility.yul\":6432:6435   */\n      0x00\n        /* \"#utility.yul\":6460:6499   */\n      tag_330\n        /* \"#utility.yul\":6493:6498   */\n      dup3\n        /* \"#utility.yul\":6460:6499   */\n      tag_198\n      jump\t// in\n    tag_330:\n        /* \"#utility.yul\":6515:6576   */\n      tag_331\n        /* \"#utility.yul\":6569:6575   */\n      dup2\n        /* \"#utility.yul\":6564:6567   */\n      dup6\n        /* \"#utility.yul\":6515:6576   */\n      tag_216\n      jump\t// in\n    tag_331:\n        /* \"#utility.yul\":6508:6576   */\n      swap4\n      pop\n        /* \"#utility.yul\":6585:6650   */\n      tag_332\n        /* \"#utility.yul\":6643:6649   */\n      dup2\n        /* \"#utility.yul\":6638:6641   */\n      dup6\n        /* \"#utility.yul\":6631:6635   */\n      0x20\n        /* \"#utility.yul\":6624:6629   */\n      dup7\n        /* \"#utility.yul\":6620:6636   */\n      add\n        /* \"#utility.yul\":6585:6650   */\n      tag_200\n      jump\t// in\n    tag_332:\n        /* \"#utility.yul\":6675:6704   */\n      tag_333\n        /* \"#utility.yul\":6697:6703   */\n      dup2\n        /* \"#utility.yul\":6675:6704   */\n      tag_201\n      jump\t// in\n    tag_333:\n        /* \"#utility.yul\":6670:6673   */\n      dup5\n        /* \"#utility.yul\":6666:6705   */\n      add\n        /* \"#utility.yul\":6659:6705   */\n      swap2\n      pop\n        /* \"#utility.yul\":6436:6711   */\n      pop\n        /* \"#utility.yul\":6354:6711   */\n      swap3\n      swap2\n      pop\n      pop\n      jump\t// out\n        /* \"#utility.yul\":6717:6825   */\n    tag_218:\n        /* \"#utility.yul\":6794:6818   */\n      tag_335\n        /* \"#utility.yul\":6812:6817   */\n      dup2\n        /* \"#utility.yul\":6794:6818   */\n      tag_196\n      jump\t// in\n    tag_335:\n        /* \"#utility.yul\":6789:6792   */\n      dup3\n        /* \"#utility.yul\":6782:6819   */\n      mstore\n        /* \"#utility.yul\":6717:6825   */\n      pop\n      pop\n      jump\t// out\n        /* \"#utility.yul\":6889:8475   */\n    tag_219:\n        /* \"#utility.yul\":7006:7009   */\n      0x00\n        /* \"#utility.yul\":7042:7046   */\n      0xe0\n        /* \"#utility.yul\":7037:7040   */\n      dup4\n        /* \"#utility.yul\":7033:7047   */\n      add\n        /* \"#utility.yul\":7132:7136   */\n      0x00\n        /* \"#utility.yul\":7125:7130   */\n      dup4\n        /* \"#utility.yul\":7121:7137   */\n      add\n        /* \"#utility.yul\":7115:7138   */\n      mload\n        /* \"#utility.yul\":7151:7214   */\n      tag_337\n        /* \"#utility.yul\":7208:7212   */\n      0x00\n        /* \"#utility.yul\":7203:7206   */\n      dup7\n        /* \"#utility.yul\":7199:7213   */\n      add\n        /* \"#utility.yul\":7185:7197   */\n      dup3\n        /* \"#utility.yul\":7151:7214   */\n      tag_215\n      jump\t// in\n    tag_337:\n        /* \"#utility.yul\":7057:7224   */\n      pop\n        /* \"#utility.yul\":7306:7310   */\n      0x20\n        /* \"#utility.yul\":7299:7304   */\n      dup4\n        /* \"#utility.yul\":7295:7311   */\n      add\n        /* \"#utility.yul\":7289:7312   */\n      mload\n        /* \"#utility.yul\":7359:7362   */\n      dup5\n        /* \"#utility.yul\":7353:7357   */\n      dup3\n        /* \"#utility.yul\":7349:7363   */\n      sub\n        /* \"#utility.yul\":7342:7346   */\n      0x20\n        /* \"#utility.yul\":7337:7340   */\n      dup7\n        /* \"#utility.yul\":7333:7347   */\n      add\n        /* \"#utility.yul\":7326:7364   */\n      mstore\n        /* \"#utility.yul\":7385:7458   */\n      tag_338\n        /* \"#utility.yul\":7453:7457   */\n      dup3\n        /* \"#utility.yul\":7439:7451   */\n      dup3\n        /* \"#utility.yul\":7385:7458   */\n      tag_217\n      jump\t// in\n    tag_338:\n        /* \"#utility.yul\":7377:7458   */\n      swap2\n      pop\n        /* \"#utility.yul\":7234:7469   */\n      pop\n        /* \"#utility.yul\":7558:7562   */\n      0x40\n        /* \"#utility.yul\":7551:7556   */\n      dup4\n        /* \"#utility.yul\":7547:7563   */\n      add\n        /* \"#utility.yul\":7541:7564   */\n      mload\n        /* \"#utility.yul\":7611:7614   */\n      dup5\n        /* \"#utility.yul\":7605:7609   */\n      dup3\n        /* \"#utility.yul\":7601:7615   */\n      sub\n        /* \"#utility.yul\":7594:7598   */\n      0x40\n        /* \"#utility.yul\":7589:7592   */\n      dup7\n        /* \"#utility.yul\":7585:7599   */\n      add\n        /* \"#utility.yul\":7578:7616   */\n      mstore\n        /* \"#utility.yul\":7637:7710   */\n      tag_339\n        /* \"#utility.yul\":7705:7709   */\n      dup3\n        /* \"#utility.yul\":7691:7703   */\n      dup3\n        /* \"#utility.yul\":7637:7710   */\n      tag_217\n      jump\t// in\n    tag_339:\n        /* \"#utility.yul\":7629:7710   */\n      swap2\n      pop\n        /* \"#utility.yul\":7479:7721   */\n      pop\n        /* \"#utility.yul\":7814:7818   */\n      0x60\n        /* \"#utility.yul\":7807:7812   */\n      dup4\n        /* \"#utility.yul\":7803:7819   */\n      add\n        /* \"#utility.yul\":7797:7820   */\n      mload\n        /* \"#utility.yul\":7833:7896   */\n      tag_340\n        /* \"#utility.yul\":7890:7894   */\n      0x60\n        /* \"#utility.yul\":7885:7888   */\n      dup7\n        /* \"#utility.yul\":7881:7895   */\n      add\n        /* \"#utility.yul\":7867:7879   */\n      dup3\n        /* \"#utility.yul\":7833:7896   */\n      tag_218\n      jump\t// in\n    tag_340:\n        /* \"#utility.yul\":7731:7906   */\n      pop\n        /* \"#utility.yul\":7991:7995   */\n      0x80\n        /* \"#utility.yul\":7984:7989   */\n      dup4\n        /* \"#utility.yul\":7980:7996   */\n      add\n        /* \"#utility.yul\":7974:7997   */\n      mload\n        /* \"#utility.yul\":8010:8073   */\n      tag_341\n        /* \"#utility.yul\":8067:8071   */\n      0x80\n        /* \"#utility.yul\":8062:8065   */\n      dup7\n        /* \"#utility.yul\":8058:8072   */\n      add\n        /* \"#utility.yul\":8044:8056   */\n      dup3\n        /* \"#utility.yul\":8010:8073   */\n      tag_218\n      jump\t// in\n    tag_341:\n        /* \"#utility.yul\":7916:8083   */\n      pop\n        /* \"#utility.yul\":8173:8177   */\n      0xa0\n        /* \"#utility.yul\":8166:8171   */\n      dup4\n        /* \"#utility.yul\":8162:8178   */\n      add\n        /* \"#utility.yul\":8156:8179   */\n      mload\n        /* \"#utility.yul\":8192:8255   */\n      tag_342\n        /* \"#utility.yul\":8249:8253   */\n      0xa0\n        /* \"#utility.yul\":8244:8247   */\n      dup7\n        /* \"#utility.yul\":8240:8254   */\n      add\n        /* \"#utility.yul\":8226:8238   */\n      dup3\n        /* \"#utility.yul\":8192:8255   */\n      tag_218\n      jump\t// in\n    tag_342:\n        /* \"#utility.yul\":8093:8265   */\n      pop\n        /* \"#utility.yul\":8356:8360   */\n      0xc0\n        /* \"#utility.yul\":8349:8354   */\n      dup4\n        /* \"#utility.yul\":8345:8361   */\n      add\n        /* \"#utility.yul\":8339:8362   */\n      mload\n        /* \"#utility.yul\":8375:8438   */\n      tag_343\n        /* \"#utility.yul\":8432:8436   */\n      0xc0\n        /* \"#utility.yul\":8427:8430   */\n      dup7\n        /* \"#utility.yul\":8423:8437   */\n      add\n        /* \"#utility.yul\":8409:8421   */\n      dup3\n        /* \"#utility.yul\":8375:8438   */\n      tag_218\n      jump\t// in\n    tag_343:\n        /* \"#utility.yul\":8275:8448   */\n      pop\n        /* \"#utility.yul\":8465:8469   */\n      dup1\n        /* \"#utility.yul\":8458:8469   */\n      swap2\n      pop\n        /* \"#utility.yul\":7011:8475   */\n      pop\n        /* \"#utility.yul\":6889:8475   */\n      swap3\n      swap2\n      pop\n      pop\n      jump\t// out\n        /* \"#utility.yul\":8481:8850   */\n    tag_45:\n        /* \"#utility.yul\":8622:8626   */\n      0x00\n        /* \"#utility.yul\":8660:8662   */\n      0x20\n        /* \"#utility.yul\":8649:8658   */\n      dup3\n        /* \"#utility.yul\":8645:8663   */\n      add\n        /* \"#utility.yul\":8637:8663   */\n      swap1\n      pop\n        /* \"#utility.yul\":8709:8718   */\n      dup2\n        /* \"#utility.yul\":8703:8707   */\n      dup2\n        /* \"#utility.yul\":8699:8719   */\n      sub\n        /* \"#utility.yul\":8695:8696   */\n      0x00\n        /* \"#utility.yul\":8684:8693   */\n      dup4\n        /* \"#utility.yul\":8680:8697   */\n      add\n        /* \"#utility.yul\":8673:8720   */\n      mstore\n        /* \"#utility.yul\":8737:8843   */\n      tag_345\n        /* \"#utility.yul\":8838:8842   */\n      dup2\n        /* \"#utility.yul\":8829:8835   */\n      dup5\n        /* \"#utility.yul\":8737:8843   */\n      tag_219\n      jump\t// in\n    tag_345:\n        /* \"#utility.yul\":8729:8843   */\n      swap1\n      pop\n        /* \"#utility.yul\":8481:8850   */\n      swap3\n      swap2\n      pop\n      pop\n      jump\t// out\n        /* \"#utility.yul\":8856:9365   */\n    tag_49:\n        /* \"#utility.yul\":8925:8931   */\n      0x00\n        /* \"#utility.yul\":8974:8976   */\n      0x20\n        /* \"#utility.yul\":8962:8971   */\n      dup3\n        /* \"#utility.yul\":8953:8960   */\n      dup5\n        /* \"#utility.yul\":8949:8972   */\n      sub\n        /* \"#utility.yul\":8945:8977   */\n      slt\n        /* \"#utility.yul\":8942:9061   */\n      iszero\n      tag_347\n      jumpi\n        /* \"#utility.yul\":8980:9059   */\n      tag_348\n      tag_190\n      jump\t// in\n    tag_348:\n        /* \"#utility.yul\":8942:9061   */\n    tag_347:\n        /* \"#utility.yul\":9128:9129   */\n      0x00\n        /* \"#utility.yul\":9117:9126   */\n      dup3\n        /* \"#utility.yul\":9113:9130   */\n      add\n        /* \"#utility.yul\":9100:9131   */\n      calldataload\n        /* \"#utility.yul\":9158:9176   */\n      0xffffffffffffffff\n        /* \"#utility.yul\":9150:9156   */\n      dup2\n        /* \"#utility.yul\":9147:9177   */\n      gt\n        /* \"#utility.yul\":9144:9261   */\n      iszero\n      tag_349\n      jumpi\n        /* \"#utility.yul\":9180:9259   */\n      tag_350\n      tag_191\n      jump\t// in\n    tag_350:\n        /* \"#utility.yul\":9144:9261   */\n    tag_349:\n        /* \"#utility.yul\":9285:9348   */\n      tag_351\n        /* \"#utility.yul\":9340:9347   */\n      dup5\n        /* \"#utility.yul\":9331:9337   */\n      dup3\n        /* \"#utility.yul\":9320:9329   */\n      dup6\n        /* \"#utility.yul\":9316:9338   */\n      add\n        /* \"#utility.yul\":9285:9348   */\n      tag_211\n      jump\t// in\n    tag_351:\n        /* \"#utility.yul\":9275:9348   */\n      swap2\n      pop\n        /* \"#utility.yul\":9071:9358   */\n      pop\n        /* \"#utility.yul\":8856:9365   */\n      swap3\n      swap2\n      pop\n      pop\n      jump\t// out\n        /* \"#utility.yul\":9371:9475   */\n    tag_220:\n        /* \"#utility.yul\":9416:9423   */\n      0x00\n        /* \"#utility.yul\":9445:9469   */\n      tag_353\n        /* \"#utility.yul\":9463:9468   */\n      dup3\n        /* \"#utility.yul\":9445:9469   */\n      tag_192\n      jump\t// in\n    tag_353:\n        /* \"#utility.yul\":9434:9469   */\n      swap1\n      pop\n        /* \"#utility.yul\":9371:9475   */\n      swap2\n      swap1\n      pop\n      jump\t// out\n        /* \"#utility.yul\":9481:9623   */\n    tag_221:\n        /* \"#utility.yul\":9584:9616   */\n      tag_355\n        /* \"#utility.yul\":9610:9615   */\n      dup2\n        /* \"#utility.yul\":9584:9616   */\n      tag_220\n      jump\t// in\n    tag_355:\n        /* \"#utility.yul\":9579:9582   */\n      dup3\n        /* \"#utility.yul\":9572:9617   */\n      mstore\n        /* \"#utility.yul\":9481:9623   */\n      pop\n      pop\n      jump\t// out\n        /* \"#utility.yul\":9629:9738   */\n    tag_222:\n        /* \"#utility.yul\":9710:9731   */\n      tag_357\n        /* \"#utility.yul\":9725:9730   */\n      dup2\n        /* \"#utility.yul\":9710:9731   */\n      tag_212\n      jump\t// in\n    tag_357:\n        /* \"#utility.yul\":9705:9708   */\n      dup3\n        /* \"#utility.yul\":9698:9732   */\n      mstore\n        /* \"#utility.yul\":9629:9738   */\n      pop\n      pop\n      jump\t// out\n        /* \"#utility.yul\":9744:10931   */\n    tag_52:\n        /* \"#utility.yul\":10077:10081   */\n      0x00\n        /* \"#utility.yul\":10115:10118   */\n      0x0100\n        /* \"#utility.yul\":10104:10113   */\n      dup3\n        /* \"#utility.yul\":10100:10119   */\n      add\n        /* \"#utility.yul\":10092:10119   */\n      swap1\n      pop\n        /* \"#utility.yul\":10165:10174   */\n      dup2\n        /* \"#utility.yul\":10159:10163   */\n      dup2\n        /* \"#utility.yul\":10155:10175   */\n      sub\n        /* \"#utility.yul\":10151:10152   */\n      0x00\n        /* \"#utility.yul\":10140:10149   */\n      dup4\n        /* \"#utility.yul\":10136:10153   */\n      add\n        /* \"#utility.yul\":10129:10176   */\n      mstore\n        /* \"#utility.yul\":10193:10271   */\n      tag_359\n        /* \"#utility.yul\":10266:10270   */\n      dup2\n        /* \"#utility.yul\":10257:10263   */\n      dup12\n        /* \"#utility.yul\":10193:10271   */\n      tag_202\n      jump\t// in\n    tag_359:\n        /* \"#utility.yul\":10185:10271   */\n      swap1\n      pop\n        /* \"#utility.yul\":10318:10327   */\n      dup2\n        /* \"#utility.yul\":10312:10316   */\n      dup2\n        /* \"#utility.yul\":10308:10328   */\n      sub\n        /* \"#utility.yul\":10303:10305   */\n      0x20\n        /* \"#utility.yul\":10292:10301   */\n      dup4\n        /* \"#utility.yul\":10288:10306   */\n      add\n        /* \"#utility.yul\":10281:10329   */\n      mstore\n        /* \"#utility.yul\":10346:10424   */\n      tag_360\n        /* \"#utility.yul\":10419:10423   */\n      dup2\n        /* \"#utility.yul\":10410:10416   */\n      dup11\n        /* \"#utility.yul\":10346:10424   */\n      tag_202\n      jump\t// in\n    tag_360:\n        /* \"#utility.yul\":10338:10424   */\n      swap1\n      pop\n        /* \"#utility.yul\":10434:10506   */\n      tag_361\n        /* \"#utility.yul\":10502:10504   */\n      0x40\n        /* \"#utility.yul\":10491:10500   */\n      dup4\n        /* \"#utility.yul\":10487:10505   */\n      add\n        /* \"#utility.yul\":10478:10484   */\n      dup10\n        /* \"#utility.yul\":10434:10506   */\n      tag_197\n      jump\t// in\n    tag_361:\n        /* \"#utility.yul\":10516:10604   */\n      tag_362\n        /* \"#utility.yul\":10600:10602   */\n      0x60\n        /* \"#utility.yul\":10589:10598   */\n      dup4\n        /* \"#utility.yul\":10585:10603   */\n      add\n        /* \"#utility.yul\":10576:10582   */\n      dup9\n        /* \"#utility.yul\":10516:10604   */\n      tag_221\n      jump\t// in\n    tag_362:\n        /* \"#utility.yul\":10614:10687   */\n      tag_363\n        /* \"#utility.yul\":10682:10685   */\n      0x80\n        /* \"#utility.yul\":10671:10680   */\n      dup4\n        /* \"#utility.yul\":10667:10686   */\n      add\n        /* \"#utility.yul\":10658:10664   */\n      dup8\n        /* \"#utility.yul\":10614:10687   */\n      tag_197\n      jump\t// in\n    tag_363:\n        /* \"#utility.yul\":10697:10770   */\n      tag_364\n        /* \"#utility.yul\":10765:10768   */\n      0xa0\n        /* \"#utility.yul\":10754:10763   */\n      dup4\n        /* \"#utility.yul\":10750:10769   */\n      add\n        /* \"#utility.yul\":10741:10747   */\n      dup7\n        /* \"#utility.yul\":10697:10770   */\n      tag_197\n      jump\t// in\n    tag_364:\n        /* \"#utility.yul\":10780:10847   */\n      tag_365\n        /* \"#utility.yul\":10842:10845   */\n      0xc0\n        /* \"#utility.yul\":10831:10840   */\n      dup4\n        /* \"#utility.yul\":10827:10846   */\n      add\n        /* \"#utility.yul\":10818:10824   */\n      dup6\n        /* \"#utility.yul\":10780:10847   */\n      tag_222\n      jump\t// in\n    tag_365:\n        /* \"#utility.yul\":10857:10924   */\n      tag_366\n        /* \"#utility.yul\":10919:10922   */\n      0xe0\n        /* \"#utility.yul\":10908:10917   */\n      dup4\n        /* \"#utility.yul\":10904:10923   */\n      add\n        /* \"#utility.yul\":10895:10901   */\n      dup5\n        /* \"#utility.yul\":10857:10924   */\n      tag_222\n      jump\t// in\n    tag_366:\n        /* \"#utility.yul\":9744:10931   */\n      swap10\n      swap9\n      pop\n      pop\n      pop\n      pop\n      pop\n      pop\n      pop\n      pop\n      pop\n      jump\t// out\n        /* \"#utility.yul\":10937:11061   */\n    tag_223:\n        /* \"#utility.yul\":11014:11020   */\n      0x00\n        /* \"#utility.yul\":11048:11053   */\n      dup2\n        /* \"#utility.yul\":11042:11054   */\n      mload\n        /* \"#utility.yul\":11032:11054   */\n      swap1\n      pop\n        /* \"#utility.yul\":10937:11061   */\n      swap2\n      swap1\n      pop\n      jump\t// out\n        /* \"#utility.yul\":11067:11261   */\n    tag_224:\n        /* \"#utility.yul\":11176:11187   */\n      0x00\n        /* \"#utility.yul\":11210:11216   */\n      dup3\n        /* \"#utility.yul\":11205:11208   */\n      dup3\n        /* \"#utility.yul\":11198:11217   */\n      mstore\n        /* \"#utility.yul\":11250:11254   */\n      0x20\n        /* \"#utility.yul\":11245:11248   */\n      dup3\n        /* \"#utility.yul\":11241:11255   */\n      add\n        /* \"#utility.yul\":11226:11255   */\n      swap1\n      pop\n        /* \"#utility.yul\":11067:11261   */\n      swap3\n      swap2\n      pop\n      pop\n      jump\t// out\n        /* \"#utility.yul\":11267:11409   */\n    tag_225:\n        /* \"#utility.yul\":11344:11348   */\n      0x00\n        /* \"#utility.yul\":11367:11370   */\n      dup2\n        /* \"#utility.yul\":11359:11370   */\n      swap1\n      pop\n        /* \"#utility.yul\":11397:11401   */\n      0x20\n        /* \"#utility.yul\":11392:11395   */\n      dup3\n        /* \"#utility.yul\":11388:11402   */\n      add\n        /* \"#utility.yul\":11380:11402   */\n      swap1\n      pop\n        /* \"#utility.yul\":11267:11409   */\n      swap2\n      swap1\n      pop\n      jump\t// out\n        /* \"#utility.yul\":11415:11611   */\n    tag_226:\n        /* \"#utility.yul\":11504:11514   */\n      0x00\n        /* \"#utility.yul\":11539:11605   */\n      tag_371\n        /* \"#utility.yul\":11601:11604   */\n      dup4\n        /* \"#utility.yul\":11593:11599   */\n      dup4\n        /* \"#utility.yul\":11539:11605   */\n      tag_217\n      jump\t// in\n    tag_371:\n        /* \"#utility.yul\":11525:11605   */\n      swap1\n      pop\n        /* \"#utility.yul\":11415:11611   */\n      swap3\n      swap2\n      pop\n      pop\n      jump\t// out\n        /* \"#utility.yul\":11617:11740   */\n    tag_227:\n        /* \"#utility.yul\":11697:11701   */\n      0x00\n        /* \"#utility.yul\":11729:11733   */\n      0x20\n        /* \"#utility.yul\":11724:11727   */\n      dup3\n        /* \"#utility.yul\":11720:11734   */\n      add\n        /* \"#utility.yul\":11712:11734   */\n      swap1\n      pop\n        /* \"#utility.yul\":11617:11740   */\n      swap2\n      swap1\n      pop\n      jump\t// out\n        /* \"#utility.yul\":11774:12765   */\n    tag_228:\n        /* \"#utility.yul\":11913:11916   */\n      0x00\n        /* \"#utility.yul\":11942:12006   */\n      tag_374\n        /* \"#utility.yul\":12000:12005   */\n      dup3\n        /* \"#utility.yul\":11942:12006   */\n      tag_223\n      jump\t// in\n    tag_374:\n        /* \"#utility.yul\":12022:12118   */\n      tag_375\n        /* \"#utility.yul\":12111:12117   */\n      dup2\n        /* \"#utility.yul\":12106:12109   */\n      dup6\n        /* \"#utility.yul\":12022:12118   */\n      tag_224\n      jump\t// in\n    tag_375:\n        /* \"#utility.yul\":12015:12118   */\n      swap4\n      pop\n        /* \"#utility.yul\":12144:12147   */\n      dup4\n        /* \"#utility.yul\":12189:12193   */\n      0x20\n        /* \"#utility.yul\":12181:12187   */\n      dup3\n        /* \"#utility.yul\":12177:12194   */\n      mul\n        /* \"#utility.yul\":12172:12175   */\n      dup6\n        /* \"#utility.yul\":12168:12195   */\n      add\n        /* \"#utility.yul\":12219:12285   */\n      tag_376\n        /* \"#utility.yul\":12279:12284   */\n      dup6\n        /* \"#utility.yul\":12219:12285   */\n      tag_225\n      jump\t// in\n    tag_376:\n        /* \"#utility.yul\":12308:12315   */\n      dup1\n        /* \"#utility.yul\":12339:12340   */\n      0x00\n        /* \"#utility.yul\":12324:12720   */\n    tag_377:\n        /* \"#utility.yul\":12349:12355   */\n      dup6\n        /* \"#utility.yul\":12346:12347   */\n      dup2\n        /* \"#utility.yul\":12343:12356   */\n      lt\n        /* \"#utility.yul\":12324:12720   */\n      iszero\n      tag_379\n      jumpi\n        /* \"#utility.yul\":12420:12429   */\n      dup5\n        /* \"#utility.yul\":12414:12418   */\n      dup5\n        /* \"#utility.yul\":12410:12430   */\n      sub\n        /* \"#utility.yul\":12405:12408   */\n      dup10\n        /* \"#utility.yul\":12398:12431   */\n      mstore\n        /* \"#utility.yul\":12471:12477   */\n      dup2\n        /* \"#utility.yul\":12465:12478   */\n      mload\n        /* \"#utility.yul\":12499:12583   */\n      tag_380\n        /* \"#utility.yul\":12578:12582   */\n      dup6\n        /* \"#utility.yul\":12563:12576   */\n      dup3\n        /* \"#utility.yul\":12499:12583   */\n      tag_226\n      jump\t// in\n    tag_380:\n        /* \"#utility.yul\":12491:12583   */\n      swap5\n      pop\n        /* \"#utility.yul\":12606:12676   */\n      tag_381\n        /* \"#utility.yul\":12669:12675   */\n      dup4\n        /* \"#utility.yul\":12606:12676   */\n      tag_227\n      jump\t// in\n    tag_381:\n        /* \"#utility.yul\":12596:12676   */\n      swap3\n      pop\n        /* \"#utility.yul\":12705:12709   */\n      0x20\n        /* \"#utility.yul\":12700:12703   */\n      dup11\n        /* \"#utility.yul\":12696:12710   */\n      add\n        /* \"#utility.yul\":12689:12710   */\n      swap10\n      pop\n        /* \"#utility.yul\":12384:12720   */\n      pop\n        /* \"#utility.yul\":12371:12372   */\n      0x01\n        /* \"#utility.yul\":12368:12369   */\n      dup2\n        /* \"#utility.yul\":12364:12373   */\n      add\n        /* \"#utility.yul\":12359:12373   */\n      swap1\n      pop\n        /* \"#utility.yul\":12324:12720   */\n      jump(tag_377)\n    tag_379:\n        /* \"#utility.yul\":12328:12342   */\n      pop\n        /* \"#utility.yul\":12736:12740   */\n      dup3\n        /* \"#utility.yul\":12729:12740   */\n      swap8\n      pop\n        /* \"#utility.yul\":12756:12759   */\n      dup8\n        /* \"#utility.yul\":12749:12759   */\n      swap6\n      pop\n        /* \"#utility.yul\":11918:12765   */\n      pop\n      pop\n      pop\n      pop\n      pop\n        /* \"#utility.yul\":11774:12765   */\n      swap3\n      swap2\n      pop\n      pop\n      jump\t// out\n        /* \"#utility.yul\":12771:13184   */\n    tag_61:\n        /* \"#utility.yul\":12934:12938   */\n      0x00\n        /* \"#utility.yul\":12972:12974   */\n      0x20\n        /* \"#utility.yul\":12961:12970   */\n      dup3\n        /* \"#utility.yul\":12957:12975   */\n      add\n        /* \"#utility.yul\":12949:12975   */\n      swap1\n      pop\n        /* \"#utility.yul\":13021:13030   */\n      dup2\n        /* \"#utility.yul\":13015:13019   */\n      dup2\n        /* \"#utility.yul\":13011:13031   */\n      sub\n        /* \"#utility.yul\":13007:13008   */\n      0x00\n        /* \"#utility.yul\":12996:13005   */\n      dup4\n        /* \"#utility.yul\":12992:13009   */\n      add\n        /* \"#utility.yul\":12985:13032   */\n      mstore\n        /* \"#utility.yul\":13049:13177   */\n      tag_383\n        /* \"#utility.yul\":13172:13176   */\n      dup2\n        /* \"#utility.yul\":13163:13169   */\n      dup5\n        /* \"#utility.yul\":13049:13177   */\n      tag_228\n      jump\t// in\n    tag_383:\n        /* \"#utility.yul\":13041:13177   */\n      swap1\n      pop\n        /* \"#utility.yul\":12771:13184   */\n      swap3\n      swap2\n      pop\n      pop\n      jump\t// out\n        /* \"#utility.yul\":13190:13312   */\n    tag_229:\n        /* \"#utility.yul\":13263:13287   */\n      tag_385\n        /* \"#utility.yul\":13281:13286   */\n      dup2\n        /* \"#utility.yul\":13263:13287   */\n      tag_196\n      jump\t// in\n    tag_385:\n        /* \"#utility.yul\":13256:13261   */\n      dup2\n        /* \"#utility.yul\":13253:13288   */\n      eq\n        /* \"#utility.yul\":13243:13306   */\n      tag_386\n      jumpi\n        /* \"#utility.yul\":13302:13303   */\n      0x00\n        /* \"#utility.yul\":13299:13300   */\n      dup1\n        /* \"#utility.yul\":13292:13304   */\n      revert\n        /* \"#utility.yul\":13243:13306   */\n    tag_386:\n        /* \"#utility.yul\":13190:13312   */\n      pop\n      jump\t// out\n        /* \"#utility.yul\":13318:13457   */\n    tag_230:\n        /* \"#utility.yul\":13364:13369   */\n      0x00\n        /* \"#utility.yul\":13402:13408   */\n      dup2\n        /* \"#utility.yul\":13389:13409   */\n      calldataload\n        /* \"#utility.yul\":13380:13409   */\n      swap1\n      pop\n        /* \"#utility.yul\":13418:13451   */\n      tag_388\n        /* \"#utility.yul\":13445:13450   */\n      dup2\n        /* \"#utility.yul\":13418:13451   */\n      tag_229\n      jump\t// in\n    tag_388:\n        /* \"#utility.yul\":13318:13457   */\n      swap3\n      swap2\n      pop\n      pop\n      jump\t// out\n        /* \"#utility.yul\":13463:13601   */\n    tag_231:\n        /* \"#utility.yul\":13544:13576   */\n      tag_390\n        /* \"#utility.yul\":13570:13575   */\n      dup2\n        /* \"#utility.yul\":13544:13576   */\n      tag_220\n      jump\t// in\n    tag_390:\n        /* \"#utility.yul\":13537:13542   */\n      dup2\n        /* \"#utility.yul\":13534:13577   */\n      eq\n        /* \"#utility.yul\":13524:13595   */\n      tag_391\n      jumpi\n        /* \"#utility.yul\":13591:13592   */\n      0x00\n        /* \"#utility.yul\":13588:13589   */\n      dup1\n        /* \"#utility.yul\":13581:13593   */\n      revert\n        /* \"#utility.yul\":13524:13595   */\n    tag_391:\n        /* \"#utility.yul\":13463:13601   */\n      pop\n      jump\t// out\n        /* \"#utility.yul\":13607:13762   */\n    tag_232:\n        /* \"#utility.yul\":13661:13666   */\n      0x00\n        /* \"#utility.yul\":13699:13705   */\n      dup2\n        /* \"#utility.yul\":13686:13706   */\n      calldataload\n        /* \"#utility.yul\":13677:13706   */\n      swap1\n      pop\n        /* \"#utility.yul\":13715:13756   */\n      tag_393\n        /* \"#utility.yul\":13750:13755   */\n      dup2\n        /* \"#utility.yul\":13715:13756   */\n      tag_231\n      jump\t// in\n    tag_393:\n        /* \"#utility.yul\":13607:13762   */\n      swap3\n      swap2\n      pop\n      pop\n      jump\t// out\n        /* \"#utility.yul\":13768:15055   */\n    tag_69:\n        /* \"#utility.yul\":13891:13897   */\n      0x00\n        /* \"#utility.yul\":13899:13905   */\n      dup1\n        /* \"#utility.yul\":13907:13913   */\n      0x00\n        /* \"#utility.yul\":13915:13921   */\n      dup1\n        /* \"#utility.yul\":13923:13929   */\n      0x00\n        /* \"#utility.yul\":13972:13975   */\n      0xa0\n        /* \"#utility.yul\":13960:13969   */\n      dup7\n        /* \"#utility.yul\":13951:13958   */\n      dup9\n        /* \"#utility.yul\":13947:13970   */\n      sub\n        /* \"#utility.yul\":13943:13976   */\n      slt\n        /* \"#utility.yul\":13940:14060   */\n      iszero\n      tag_395\n      jumpi\n        /* \"#utility.yul\":13979:14058   */\n      tag_396\n      tag_190\n      jump\t// in\n    tag_396:\n        /* \"#utility.yul\":13940:14060   */\n    tag_395:\n        /* \"#utility.yul\":14127:14128   */\n      0x00\n        /* \"#utility.yul\":14116:14125   */\n      dup7\n        /* \"#utility.yul\":14112:14129   */\n      add\n        /* \"#utility.yul\":14099:14130   */\n      calldataload\n        /* \"#utility.yul\":14157:14175   */\n      0xffffffffffffffff\n        /* \"#utility.yul\":14149:14155   */\n      dup2\n        /* \"#utility.yul\":14146:14176   */\n      gt\n        /* \"#utility.yul\":14143:14260   */\n      iszero\n      tag_397\n      jumpi\n        /* \"#utility.yul\":14179:14258   */\n      tag_398\n      tag_191\n      jump\t// in\n    tag_398:\n        /* \"#utility.yul\":14143:14260   */\n    tag_397:\n        /* \"#utility.yul\":14284:14347   */\n      tag_399\n        /* \"#utility.yul\":14339:14346   */\n      dup9\n        /* \"#utility.yul\":14330:14336   */\n      dup3\n        /* \"#utility.yul\":14319:14328   */\n      dup10\n        /* \"#utility.yul\":14315:14337   */\n      add\n        /* \"#utility.yul\":14284:14347   */\n      tag_211\n      jump\t// in\n    tag_399:\n        /* \"#utility.yul\":14274:14347   */\n      swap6\n      pop\n        /* \"#utility.yul\":14070:14357   */\n      pop\n        /* \"#utility.yul\":14424:14426   */\n      0x20\n        /* \"#utility.yul\":14413:14422   */\n      dup7\n        /* \"#utility.yul\":14409:14427   */\n      add\n        /* \"#utility.yul\":14396:14428   */\n      calldataload\n        /* \"#utility.yul\":14455:14473   */\n      0xffffffffffffffff\n        /* \"#utility.yul\":14447:14453   */\n      dup2\n        /* \"#utility.yul\":14444:14474   */\n      gt\n        /* \"#utility.yul\":14441:14558   */\n      iszero\n      tag_400\n      jumpi\n        /* \"#utility.yul\":14477:14556   */\n      tag_401\n      tag_191\n      jump\t// in\n    tag_401:\n        /* \"#utility.yul\":14441:14558   */\n    tag_400:\n        /* \"#utility.yul\":14582:14645   */\n      tag_402\n        /* \"#utility.yul\":14637:14644   */\n      dup9\n        /* \"#utility.yul\":14628:14634   */\n      dup3\n        /* \"#utility.yul\":14617:14626   */\n      dup10\n        /* \"#utility.yul\":14613:14635   */\n      add\n        /* \"#utility.yul\":14582:14645   */\n      tag_211\n      jump\t// in\n    tag_402:\n        /* \"#utility.yul\":14572:14645   */\n      swap5\n      pop\n        /* \"#utility.yul\":14367:14655   */\n      pop\n        /* \"#utility.yul\":14694:14696   */\n      0x40\n        /* \"#utility.yul\":14720:14773   */\n      tag_403\n        /* \"#utility.yul\":14765:14772   */\n      dup9\n        /* \"#utility.yul\":14756:14762   */\n      dup3\n        /* \"#utility.yul\":14745:14754   */\n      dup10\n        /* \"#utility.yul\":14741:14763   */\n      add\n        /* \"#utility.yul\":14720:14773   */\n      tag_230\n      jump\t// in\n    tag_403:\n        /* \"#utility.yul\":14710:14773   */\n      swap4\n      pop\n        /* \"#utility.yul\":14665:14783   */\n      pop\n        /* \"#utility.yul\":14822:14824   */\n      0x60\n        /* \"#utility.yul\":14848:14901   */\n      tag_404\n        /* \"#utility.yul\":14893:14900   */\n      dup9\n        /* \"#utility.yul\":14884:14890   */\n      dup3\n        /* \"#utility.yul\":14873:14882   */\n      dup10\n        /* \"#utility.yul\":14869:14891   */\n      add\n        /* \"#utility.yul\":14848:14901   */\n      tag_230\n      jump\t// in\n    tag_404:\n        /* \"#utility.yul\":14838:14901   */\n      swap3\n      pop\n        /* \"#utility.yul\":14793:14911   */\n      pop\n        /* \"#utility.yul\":14950:14953   */\n      0x80\n        /* \"#utility.yul\":14977:15038   */\n      tag_405\n        /* \"#utility.yul\":15030:15037   */\n      dup9\n        /* \"#utility.yul\":15021:15027   */\n      dup3\n        /* \"#utility.yul\":15010:15019   */\n      dup10\n        /* \"#utility.yul\":15006:15028   */\n      add\n        /* \"#utility.yul\":14977:15038   */\n      tag_232\n      jump\t// in\n    tag_405:\n        /* \"#utility.yul\":14967:15038   */\n      swap2\n      pop\n        /* \"#utility.yul\":14921:15048   */\n      pop\n        /* \"#utility.yul\":13768:15055   */\n      swap3\n      swap6\n      pop\n      swap3\n      swap6\n      swap1\n      swap4\n      pop\n      jump\t// out\n        /* \"#utility.yul\":15061:15179   */\n    tag_233:\n        /* \"#utility.yul\":15148:15172   */\n      tag_407\n        /* \"#utility.yul\":15166:15171   */\n      dup2\n        /* \"#utility.yul\":15148:15172   */\n      tag_193\n      jump\t// in\n    tag_407:\n        /* \"#utility.yul\":15143:15146   */\n      dup3\n        /* \"#utility.yul\":15136:15173   */\n      mstore\n        /* \"#utility.yul\":15061:15179   */\n      pop\n      pop\n      jump\t// out\n        /* \"#utility.yul\":15185:15407   */\n    tag_75:\n        /* \"#utility.yul\":15278:15282   */\n      0x00\n        /* \"#utility.yul\":15316:15318   */\n      0x20\n        /* \"#utility.yul\":15305:15314   */\n      dup3\n        /* \"#utility.yul\":15301:15319   */\n      add\n        /* \"#utility.yul\":15293:15319   */\n      swap1\n      pop\n        /* \"#utility.yul\":15329:15400   */\n      tag_409\n        /* \"#utility.yul\":15397:15398   */\n      0x00\n        /* \"#utility.yul\":15386:15395   */\n      dup4\n        /* \"#utility.yul\":15382:15399   */\n      add\n        /* \"#utility.yul\":15373:15379   */\n      dup5\n        /* \"#utility.yul\":15329:15400   */\n      tag_233\n      jump\t// in\n    tag_409:\n        /* \"#utility.yul\":15185:15407   */\n      swap3\n      swap2\n      pop\n      pop\n      jump\t// out\n        /* \"#utility.yul\":15413:15593   */\n    tag_234:\n        /* \"#utility.yul\":15461:15538   */\n      0x4e487b7100000000000000000000000000000000000000000000000000000000\n        /* \"#utility.yul\":15458:15459   */\n      0x00\n        /* \"#utility.yul\":15451:15539   */\n      mstore\n        /* \"#utility.yul\":15558:15562   */\n      0x22\n        /* \"#utility.yul\":15555:15556   */\n      0x04\n        /* \"#utility.yul\":15548:15563   */\n      mstore\n        /* \"#utility.yul\":15582:15586   */\n      0x24\n        /* \"#utility.yul\":15579:15580   */\n      0x00\n        /* \"#utility.yul\":15572:15587   */\n      revert\n        /* \"#utility.yul\":15599:15919   */\n    tag_92:\n        /* \"#utility.yul\":15643:15649   */\n      0x00\n        /* \"#utility.yul\":15680:15681   */\n      0x02\n        /* \"#utility.yul\":15674:15678   */\n      dup3\n        /* \"#utility.yul\":15670:15682   */\n      div\n        /* \"#utility.yul\":15660:15682   */\n      swap1\n      pop\n        /* \"#utility.yul\":15727:15728   */\n      0x01\n        /* \"#utility.yul\":15721:15725   */\n      dup3\n        /* \"#utility.yul\":15717:15729   */\n      and\n        /* \"#utility.yul\":15748:15766   */\n      dup1\n        /* \"#utility.yul\":15738:15819   */\n      tag_412\n      jumpi\n        /* \"#utility.yul\":15804:15808   */\n      0x7f\n        /* \"#utility.yul\":15796:15802   */\n      dup3\n        /* \"#utility.yul\":15792:15809   */\n      and\n        /* \"#utility.yul\":15782:15809   */\n      swap2\n      pop\n        /* \"#utility.yul\":15738:15819   */\n    tag_412:\n        /* \"#utility.yul\":15866:15868   */\n      0x20\n        /* \"#utility.yul\":15858:15864   */\n      dup3\n        /* \"#utility.yul\":15855:15869   */\n      lt\n        /* \"#utility.yul\":15835:15853   */\n      dup2\n        /* \"#utility.yul\":15832:15870   */\n      sub\n        /* \"#utility.yul\":15829:15913   */\n      tag_413\n      jumpi\n        /* \"#utility.yul\":15885:15903   */\n      tag_414\n      tag_234\n      jump\t// in\n    tag_414:\n        /* \"#utility.yul\":15829:15913   */\n    tag_413:\n        /* \"#utility.yul\":15650:15919   */\n      pop\n        /* \"#utility.yul\":15599:15919   */\n      swap2\n      swap1\n      pop\n      jump\t// out\n        /* \"#utility.yul\":15925:16073   */\n    tag_235:\n        /* \"#utility.yul\":16027:16038   */\n      0x00\n        /* \"#utility.yul\":16064:16067   */\n      dup2\n        /* \"#utility.yul\":16049:16067   */\n      swap1\n      pop\n        /* \"#utility.yul\":15925:16073   */\n      swap3\n      swap2\n      pop\n      pop\n      jump\t// out\n        /* \"#utility.yul\":16079:16469   */\n    tag_236:\n        /* \"#utility.yul\":16185:16188   */\n      0x00\n        /* \"#utility.yul\":16213:16252   */\n      tag_417\n        /* \"#utility.yul\":16246:16251   */\n      dup3\n        /* \"#utility.yul\":16213:16252   */\n      tag_198\n      jump\t// in\n    tag_417:\n        /* \"#utility.yul\":16268:16357   */\n      tag_418\n        /* \"#utility.yul\":16350:16356   */\n      dup2\n        /* \"#utility.yul\":16345:16348   */\n      dup6\n        /* \"#utility.yul\":16268:16357   */\n      tag_235\n      jump\t// in\n    tag_418:\n        /* \"#utility.yul\":16261:16357   */\n      swap4\n      pop\n        /* \"#utility.yul\":16366:16431   */\n      tag_419\n        /* \"#utility.yul\":16424:16430   */\n      dup2\n        /* \"#utility.yul\":16419:16422   */\n      dup6\n        /* \"#utility.yul\":16412:16416   */\n      0x20\n        /* \"#utility.yul\":16405:16410   */\n      dup7\n        /* \"#utility.yul\":16401:16417   */\n      add\n        /* \"#utility.yul\":16366:16431   */\n      tag_200\n      jump\t// in\n    tag_419:\n        /* \"#utility.yul\":16456:16462   */\n      dup1\n        /* \"#utility.yul\":16451:16454   */\n      dup5\n        /* \"#utility.yul\":16447:16463   */\n      add\n        /* \"#utility.yul\":16440:16463   */\n      swap2\n      pop\n        /* \"#utility.yul\":16189:16469   */\n      pop\n        /* \"#utility.yul\":16079:16469   */\n      swap3\n      swap2\n      pop\n      pop\n      jump\t// out\n        /* \"#utility.yul\":16475:16750   */\n    tag_100:\n        /* \"#utility.yul\":16607:16610   */\n      0x00\n        /* \"#utility.yul\":16629:16724   */\n      tag_421\n        /* \"#utility.yul\":16720:16723   */\n      dup3\n        /* \"#utility.yul\":16711:16717   */\n      dup5\n        /* \"#utility.yul\":16629:16724   */\n      tag_236\n      jump\t// in\n    tag_421:\n        /* \"#utility.yul\":16622:16724   */\n      swap2\n      pop\n        /* \"#utility.yul\":16741:16744   */\n      dup2\n        /* \"#utility.yul\":16734:16744   */\n      swap1\n      pop\n        /* \"#utility.yul\":16475:16750   */\n      swap3\n      swap2\n      pop\n      pop\n      jump\t// out\n        /* \"#utility.yul\":16756:16936   */\n    tag_237:\n        /* \"#utility.yul\":16804:16881   */\n      0x4e487b7100000000000000000000000000000000000000000000000000000000\n        /* \"#utility.yul\":16801:16802   */\n      0x00\n        /* \"#utility.yul\":16794:16882   */\n      mstore\n        /* \"#utility.yul\":16901:16905   */\n      0x11\n        /* \"#utility.yul\":16898:16899   */\n      0x04\n        /* \"#utility.yul\":16891:16906   */\n      mstore\n        /* \"#utility.yul\":16925:16929   */\n      0x24\n        /* \"#utility.yul\":16922:16923   */\n      0x00\n        /* \"#utility.yul\":16915:16930   */\n      revert\n        /* \"#utility.yul\":16942:17175   */\n    tag_111:\n        /* \"#utility.yul\":16981:16984   */\n      0x00\n        /* \"#utility.yul\":17004:17028   */\n      tag_424\n        /* \"#utility.yul\":17022:17027   */\n      dup3\n        /* \"#utility.yul\":17004:17028   */\n      tag_196\n      jump\t// in\n    tag_424:\n        /* \"#utility.yul\":16995:17028   */\n      swap2\n      pop\n        /* \"#utility.yul\":17050:17116   */\n      0xffffffffffffffffffffffffffffffffffffffffffffffffffffffffffffffff\n        /* \"#utility.yul\":17043:17048   */\n      dup3\n        /* \"#utility.yul\":17040:17117   */\n      sub\n        /* \"#utility.yul\":17037:17140   */\n      tag_425\n      jumpi\n        /* \"#utility.yul\":17120:17138   */\n      tag_426\n      tag_237\n      jump\t// in\n    tag_426:\n        /* \"#utility.yul\":17037:17140   */\n    tag_425:\n        /* \"#utility.yul\":17167:17168   */\n      0x01\n        /* \"#utility.yul\":17160:17165   */\n      dup3\n        /* \"#utility.yul\":17156:17169   */\n      add\n        /* \"#utility.yul\":17149:17169   */\n      swap1\n      pop\n        /* \"#utility.yul\":16942:17175   */\n      swap2\n      swap1\n      pop\n      jump\t// out\n        /* \"#utility.yul\":17181:17322   */\n    tag_238:\n        /* \"#utility.yul\":17230:17234   */\n      0x00\n        /* \"#utility.yul\":17253:17256   */\n      dup2\n        /* \"#utility.yul\":17245:17256   */\n      swap1\n      pop\n        /* \"#utility.yul\":17276:17279   */\n      dup2\n        /* \"#utility.yul\":17273:17274   */\n      0x00\n        /* \"#utility.yul\":17266:17280   */\n      mstore\n        /* \"#utility.yul\":17310:17314   */\n      0x20\n        /* \"#utility.yul\":17307:17308   */\n      0x00\n        /* \"#utility.yul\":17297:17315   */\n      keccak256\n        /* \"#utility.yul\":17289:17315   */\n      swap1\n      pop\n        /* \"#utility.yul\":17181:17322   */\n      swap2\n      swap1\n      pop\n      jump\t// out\n        /* \"#utility.yul\":17328:17421   */\n    tag_239:\n        /* \"#utility.yul\":17365:17371   */\n      0x00\n        /* \"#utility.yul\":17412:17414   */\n      0x20\n        /* \"#utility.yul\":17407:17409   */\n      0x1f\n        /* \"#utility.yul\":17400:17405   */\n      dup4\n        /* \"#utility.yul\":17396:17410   */\n      add\n        /* \"#utility.yul\":17392:17415   */\n      div\n        /* \"#utility.yul\":17382:17415   */\n      swap1\n      pop\n        /* \"#utility.yul\":17328:17421   */\n      swap2\n      swap1\n      pop\n      jump\t// out\n        /* \"#utility.yul\":17427:17534   */\n    tag_240:\n        /* \"#utility.yul\":17471:17479   */\n      0x00\n        /* \"#utility.yul\":17521:17526   */\n      dup3\n        /* \"#utility.yul\":17515:17519   */\n      dup3\n        /* \"#utility.yul\":17511:17527   */\n      shl\n        /* \"#utility.yul\":17490:17527   */\n      swap1\n      pop\n        /* \"#utility.yul\":17427:17534   */\n      swap3\n      swap2\n      pop\n      pop\n      jump\t// out\n        /* \"#utility.yul\":17540:17933   */\n    tag_241:\n        /* \"#utility.yul\":17609:17615   */\n      0x00\n        /* \"#utility.yul\":17659:17660   */\n      0x08\n        /* \"#utility.yul\":17647:17657   */\n      dup4\n        /* \"#utility.yul\":17643:17661   */\n      mul\n        /* \"#utility.yul\":17682:17779   */\n      tag_431\n        /* \"#utility.yul\":17712:17778   */\n      0xffffffffffffffffffffffffffffffffffffffffffffffffffffffffffffffff\n        /* \"#utility.yul\":17701:17710   */\n      dup3\n        /* \"#utility.yul\":17682:17779   */\n      tag_240\n      jump\t// in\n    tag_431:\n        /* \"#utility.yul\":17800:17839   */\n      tag_432\n        /* \"#utility.yul\":17830:17838   */\n      dup7\n        /* \"#utility.yul\":17819:17828   */\n      dup4\n        /* \"#utility.yul\":17800:17839   */\n      tag_240\n      jump\t// in\n    tag_432:\n        /* \"#utility.yul\":17788:17839   */\n      swap6\n      pop\n        /* \"#utility.yul\":17872:17876   */\n      dup1\n        /* \"#utility.yul\":17868:17877   */\n      not\n        /* \"#utility.yul\":17861:17866   */\n      dup5\n        /* \"#utility.yul\":17857:17878   */\n      and\n        /* \"#utility.yul\":17848:17878   */\n      swap4\n      pop\n        /* \"#utility.yul\":17921:17925   */\n      dup1\n        /* \"#utility.yul\":17911:17919   */\n      dup7\n        /* \"#utility.yul\":17907:17926   */\n      and\n        /* \"#utility.yul\":17900:17905   */\n      dup5\n        /* \"#utility.yul\":17897:17927   */\n      or\n        /* \"#utility.yul\":17887:17927   */\n      swap3\n      pop\n        /* \"#utility.yul\":17616:17933   */\n      pop\n      pop\n        /* \"#utility.yul\":17540:17933   */\n      swap4\n      swap3\n      pop\n      pop\n      pop\n      jump\t// out\n        /* \"#utility.yul\":17939:17999   */\n    tag_242:\n        /* \"#utility.yul\":17967:17970   */\n      0x00\n        /* \"#utility.yul\":17988:17993   */\n      dup2\n        /* \"#utility.yul\":17981:17993   */\n      swap1\n      pop\n        /* \"#utility.yul\":17939:17999   */\n      swap2\n      swap1\n      pop\n      jump\t// out\n        /* \"#utility.yul\":18005:18147   */\n    tag_243:\n        /* \"#utility.yul\":18055:18064   */\n      0x00\n        /* \"#utility.yul\":18088:18141   */\n      tag_435\n        /* \"#utility.yul\":18106:18140   */\n      tag_436\n        /* \"#utility.yul\":18115:18139   */\n      tag_437\n        /* \"#utility.yul\":18133:18138   */\n      dup5\n        /* \"#utility.yul\":18115:18139   */\n      tag_196\n      jump\t// in\n    tag_437:\n        /* \"#utility.yul\":18106:18140   */\n      tag_242\n      jump\t// in\n    tag_436:\n        /* \"#utility.yul\":18088:18141   */\n      tag_196\n      jump\t// in\n    tag_435:\n        /* \"#utility.yul\":18075:18141   */\n      swap1\n      pop\n        /* \"#utility.yul\":18005:18147   */\n      swap2\n      swap1\n      pop\n      jump\t// out\n        /* \"#utility.yul\":18153:18228   */\n    tag_244:\n        /* \"#utility.yul\":18196:18199   */\n      0x00\n        /* \"#utility.yul\":18217:18222   */\n      dup2\n        /* \"#utility.yul\":18210:18222   */\n      swap1\n      pop\n        /* \"#utility.yul\":18153:18228   */\n      swap2\n      swap1\n      pop\n      jump\t// out\n        /* \"#utility.yul\":18234:18503   */\n    tag_245:\n        /* \"#utility.yul\":18344:18383   */\n      tag_440\n        /* \"#utility.yul\":18375:18382   */\n      dup4\n        /* \"#utility.yul\":18344:18383   */\n      tag_243\n      jump\t// in\n    tag_440:\n        /* \"#utility.yul\":18405:18496   */\n      tag_441\n        /* \"#utility.yul\":18454:18495   */\n      tag_442\n        /* \"#utility.yul\":18478:18494   */\n      dup3\n        /* \"#utility.yul\":18454:18495   */\n      tag_244\n      jump\t// in\n    tag_442:\n        /* \"#utility.yul\":18446:18452   */\n      dup5\n        /* \"#utility.yul\":18439:18443   */\n      dup5\n        /* \"#utility.yul\":18433:18444   */\n      sload\n        /* \"#utility.yul\":18405:18496   */\n      tag_241\n      jump\t// in\n    tag_441:\n        /* \"#utility.yul\":18399:18403   */\n      dup3\n        /* \"#utility.yul\":18392:18497   */\n      sstore\n        /* \"#utility.yul\":18310:18503   */\n      pop\n        /* \"#utility.yul\":18234:18503   */\n      pop\n      pop\n      pop\n      jump\t// out\n        /* \"#utility.yul\":18509:18582   */\n    tag_246:\n        /* \"#utility.yul\":18554:18557   */\n      0x00\n        /* \"#utility.yul\":18509:18582   */\n      swap1\n      jump\t// out\n        /* \"#utility.yul\":18588:18777   */\n    tag_247:\n        /* \"#utility.yul\":18665:18697   */\n      tag_445\n      tag_246\n      jump\t// in\n    tag_445:\n        /* \"#utility.yul\":18706:18771   */\n      tag_446\n        /* \"#utility.yul\":18764:18770   */\n      dup2\n        /* \"#utility.yul\":18756:18762   */\n      dup5\n        /* \"#utility.yul\":18750:18754   */\n      dup5\n        /* \"#utility.yul\":18706:18771   */\n      tag_245\n      jump\t// in\n    tag_446:\n        /* \"#utility.yul\":18641:18777   */\n      pop\n        /* \"#utility.yul\":18588:18777   */\n      pop\n      pop\n      jump\t// out\n        /* \"#utility.yul\":18783:18969   */\n    tag_248:\n        /* \"#utility.yul\":18843:18963   */\n    tag_448:\n        /* \"#utility.yul\":18860:18863   */\n      dup2\n        /* \"#utility.yul\":18853:18858   */\n      dup2\n        /* \"#utility.yul\":18850:18864   */\n      lt\n        /* \"#utility.yul\":18843:18963   */\n      iszero\n      tag_450\n      jumpi\n        /* \"#utility.yul\":18914:18953   */\n      tag_451\n        /* \"#utility.yul\":18951:18952   */\n      0x00\n        /* \"#utility.yul\":18944:18949   */\n      dup3\n        /* \"#utility.yul\":18914:18953   */\n      tag_247\n      jump\t// in\n    tag_451:\n        /* \"#utility.yul\":18887:18888   */\n      0x01\n        /* \"#utility.yul\":18880:18885   */\n      dup2\n        /* \"#utility.yul\":18876:18889   */\n      add\n        /* \"#utility.yul\":18867:18889   */\n      swap1\n      pop\n        /* \"#utility.yul\":18843:18963   */\n      jump(tag_448)\n    tag_450:\n        /* \"#utility.yul\":18783:18969   */\n      pop\n      pop\n      jump\t// out\n        /* \"#utility.yul\":18975:19518   */\n    tag_249:\n        /* \"#utility.yul\":19076:19078   */\n      0x1f\n        /* \"#utility.yul\":19071:19074   */\n      dup3\n        /* \"#utility.yul\":19068:19079   */\n      gt\n        /* \"#utility.yul\":19065:19511   */\n      iszero\n      tag_453\n      jumpi\n        /* \"#utility.yul\":19110:19148   */\n      tag_454\n        /* \"#utility.yul\":19142:19147   */\n      dup2\n        /* \"#utility.yul\":19110:19148   */\n      tag_238\n      jump\t// in\n    tag_454:\n        /* \"#utility.yul\":19194:19223   */\n      tag_455\n        /* \"#utility.yul\":19212:19222   */\n      dup5\n        /* \"#utility.yul\":19194:19223   */\n      tag_239\n      jump\t// in\n    tag_455:\n        /* \"#utility.yul\":19184:19192   */\n      dup2\n        /* \"#utility.yul\":19180:19224   */\n      add\n        /* \"#utility.yul\":19377:19379   */\n      0x20\n        /* \"#utility.yul\":19365:19375   */\n      dup6\n        /* \"#utility.yul\":19362:19380   */\n      lt\n        /* \"#utility.yul\":19359:19408   */\n      iszero\n      tag_456\n      jumpi\n        /* \"#utility.yul\":19398:19406   */\n      dup2\n        /* \"#utility.yul\":19383:19406   */\n      swap1\n      pop\n        /* \"#utility.yul\":19359:19408   */\n    tag_456:\n        /* \"#utility.yul\":19421:19501   */\n      tag_457\n        /* \"#utility.yul\":19477:19499   */\n      tag_458\n        /* \"#utility.yul\":19495:19498   */\n      dup6\n        /* \"#utility.yul\":19477:19499   */\n      tag_239\n      jump\t// in\n    tag_458:\n        /* \"#utility.yul\":19467:19475   */\n      dup4\n        /* \"#utility.yul\":19463:19500   */\n      add\n        /* \"#utility.yul\":19450:19461   */\n      dup3\n        /* \"#utility.yul\":19421:19501   */\n      tag_248\n      jump\t// in\n    tag_457:\n        /* \"#utility.yul\":19080:19511   */\n      pop\n      pop\n        /* \"#utility.yul\":19065:19511   */\n    tag_453:\n        /* \"#utility.yul\":18975:19518   */\n      pop\n      pop\n      pop\n      jump\t// out\n        /* \"#utility.yul\":19524:19641   */\n    tag_250:\n        /* \"#utility.yul\":19578:19586   */\n      0x00\n        /* \"#utility.yul\":19628:19633   */\n      dup3\n        /* \"#utility.yul\":19622:19626   */\n      dup3\n        /* \"#utility.yul\":19618:19634   */\n      shr\n        /* \"#utility.yul\":19597:19634   */\n      swap1\n      pop\n        /* \"#utility.yul\":19524:19641   */\n      swap3\n      swap2\n      pop\n      pop\n      jump\t// out\n        /* \"#utility.yul\":19647:19816   */\n    tag_251:\n        /* \"#utility.yul\":19691:19697   */\n      0x00\n        /* \"#utility.yul\":19724:19775   */\n      tag_461\n        /* \"#utility.yul\":19772:19773   */\n      0x00\n        /* \"#utility.yul\":19768:19774   */\n      not\n        /* \"#utility.yul\":19760:19765   */\n      dup5\n        /* \"#utility.yul\":19757:19758   */\n      0x08\n        /* \"#utility.yul\":19753:19766   */\n      mul\n        /* \"#utility.yul\":19724:19775   */\n      tag_250\n      jump\t// in\n    tag_461:\n        /* \"#utility.yul\":19720:19776   */\n      not\n        /* \"#utility.yul\":19805:19809   */\n      dup1\n        /* \"#utility.yul\":19799:19803   */\n      dup4\n        /* \"#utility.yul\":19795:19810   */\n      and\n        /* \"#utility.yul\":19785:19810   */\n      swap2\n      pop\n        /* \"#utility.yul\":19698:19816   */\n      pop\n        /* \"#utility.yul\":19647:19816   */\n      swap3\n      swap2\n      pop\n      pop\n      jump\t// out\n        /* \"#utility.yul\":19821:20116   */\n    tag_252:\n        /* \"#utility.yul\":19897:19901   */\n      0x00\n        /* \"#utility.yul\":20043:20072   */\n      tag_463\n        /* \"#utility.yul\":20068:20071   */\n      dup4\n        /* \"#utility.yul\":20062:20066   */\n      dup4\n        /* \"#utility.yul\":20043:20072   */\n      tag_251\n      jump\t// in\n    tag_463:\n        /* \"#utility.yul\":20035:20072   */\n      swap2\n      pop\n        /* \"#utility.yul\":20105:20108   */\n      dup3\n        /* \"#utility.yul\":20102:20103   */\n      0x02\n        /* \"#utility.yul\":20098:20109   */\n      mul\n        /* \"#utility.yul\":20092:20096   */\n      dup3\n        /* \"#utility.yul\":20089:20110   */\n      or\n        /* \"#utility.yul\":20081:20110   */\n      swap1\n      pop\n        /* \"#utility.yul\":19821:20116   */\n      swap3\n      swap2\n      pop\n      pop\n      jump\t// out\n        /* \"#utility.yul\":20121:21516   */\n    tag_164:\n        /* \"#utility.yul\":20238:20275   */\n      tag_465\n        /* \"#utility.yul\":20271:20274   */\n      dup3\n        /* \"#utility.yul\":20238:20275   */\n      tag_198\n      jump\t// in\n    tag_465:\n        /* \"#utility.yul\":20340:20358   */\n      0xffffffffffffffff\n        /* \"#utility.yul\":20332:20338   */\n      dup2\n        /* \"#utility.yul\":20329:20359   */\n      gt\n        /* \"#utility.yul\":20326:20382   */\n      iszero\n      tag_466\n      jumpi\n        /* \"#utility.yul\":20362:20380   */\n      tag_467\n      tag_205\n      jump\t// in\n    tag_467:\n        /* \"#utility.yul\":20326:20382   */\n    tag_466:\n        /* \"#utility.yul\":20406:20444   */\n      tag_468\n        /* \"#utility.yul\":20438:20442   */\n      dup3\n        /* \"#utility.yul\":20432:20443   */\n      sload\n        /* \"#utility.yul\":20406:20444   */\n      tag_92\n      jump\t// in\n    tag_468:\n        /* \"#utility.yul\":20491:20558   */\n      tag_469\n        /* \"#utility.yul\":20551:20557   */\n      dup3\n        /* \"#utility.yul\":20543:20549   */\n      dup3\n        /* \"#utility.yul\":20537:20541   */\n      dup6\n        /* \"#utility.yul\":20491:20558   */\n      tag_249\n      jump\t// in\n    tag_469:\n        /* \"#utility.yul\":20585:20586   */\n      0x00\n        /* \"#utility.yul\":20609:20613   */\n      0x20\n        /* \"#utility.yul\":20596:20613   */\n      swap1\n      pop\n        /* \"#utility.yul\":20641:20643   */\n      0x1f\n        /* \"#utility.yul\":20633:20639   */\n      dup4\n        /* \"#utility.yul\":20630:20644   */\n      gt\n        /* \"#utility.yul\":20658:20659   */\n      0x01\n        /* \"#utility.yul\":20653:21271   */\n      dup2\n      eq\n      tag_471\n      jumpi\n        /* \"#utility.yul\":21315:21316   */\n      0x00\n        /* \"#utility.yul\":21332:21338   */\n      dup5\n        /* \"#utility.yul\":21329:21406   */\n      iszero\n      tag_472\n      jumpi\n        /* \"#utility.yul\":21381:21390   */\n      dup3\n        /* \"#utility.yul\":21376:21379   */\n      dup8\n        /* \"#utility.yul\":21372:21391   */\n      add\n        /* \"#utility.yul\":21366:21392   */\n      mload\n        /* \"#utility.yul\":21357:21392   */\n      swap1\n      pop\n        /* \"#utility.yul\":21329:21406   */\n    tag_472:\n        /* \"#utility.yul\":21432:21499   */\n      tag_473\n        /* \"#utility.yul\":21492:21498   */\n      dup6\n        /* \"#utility.yul\":21485:21490   */\n      dup3\n        /* \"#utility.yul\":21432:21499   */\n      tag_252\n      jump\t// in\n    tag_473:\n        /* \"#utility.yul\":21426:21430   */\n      dup7\n        /* \"#utility.yul\":21419:21500   */\n      sstore\n        /* \"#utility.yul\":21288:21510   */\n      pop\n        /* \"#utility.yul\":20623:21510   */\n      jump(tag_470)\n        /* \"#utility.yul\":20653:21271   */\n    tag_471:\n        /* \"#utility.yul\":20705:20709   */\n      0x1f\n        /* \"#utility.yul\":20701:20710   */\n      not\n        /* \"#utility.yul\":20693:20699   */\n      dup5\n        /* \"#utility.yul\":20689:20711   */\n      and\n        /* \"#utility.yul\":20739:20776   */\n      tag_474\n        /* \"#utility.yul\":20771:20775   */\n      dup7\n        /* \"#utility.yul\":20739:20776   */\n      tag_238\n      jump\t// in\n    tag_474:\n        /* \"#utility.yul\":20798:20799   */\n      0x00\n        /* \"#utility.yul\":20812:21020   */\n    tag_475:\n        /* \"#utility.yul\":20826:20833   */\n      dup3\n        /* \"#utility.yul\":20823:20824   */\n      dup2\n        /* \"#utility.yul\":20820:20834   */\n      lt\n        /* \"#utility.yul\":20812:21020   */\n      iszero\n      tag_477\n      jumpi\n        /* \"#utility.yul\":20905:20914   */\n      dup5\n        /* \"#utility.yul\":20900:20903   */\n      dup10\n        /* \"#utility.yul\":20896:20915   */\n      add\n        /* \"#utility.yul\":20890:20916   */\n      mload\n        /* \"#utility.yul\":20882:20888   */\n      dup3\n        /* \"#utility.yul\":20875:20917   */\n      sstore\n        /* \"#utility.yul\":20956:20957   */\n      0x01\n        /* \"#utility.yul\":20948:20954   */\n      dup3\n        /* \"#utility.yul\":20944:20958   */\n      add\n        /* \"#utility.yul\":20934:20958   */\n      swap2\n      pop\n        /* \"#utility.yul\":21003:21005   */\n      0x20\n        /* \"#utility.yul\":20992:21001   */\n      dup6\n        /* \"#utility.yul\":20988:21006   */\n      add\n        /* \"#utility.yul\":20975:21006   */\n      swap5\n      pop\n        /* \"#utility.yul\":20849:20853   */\n      0x20\n        /* \"#utility.yul\":20846:20847   */\n      dup2\n        /* \"#utility.yul\":20842:20854   */\n      add\n        /* \"#utility.yul\":20837:20854   */\n      swap1\n      pop\n        /* \"#utility.yul\":20812:21020   */\n      jump(tag_475)\n    tag_477:\n        /* \"#utility.yul\":21048:21054   */\n      dup7\n        /* \"#utility.yul\":21039:21046   */\n      dup4\n        /* \"#utility.yul\":21036:21055   */\n      lt\n        /* \"#utility.yul\":21033:21212   */\n      iszero\n      tag_478\n      jumpi\n        /* \"#utility.yul\":21106:21115   */\n      dup5\n        /* \"#utility.yul\":21101:21104   */\n      dup10\n        /* \"#utility.yul\":21097:21116   */\n      add\n        /* \"#utility.yul\":21091:21117   */\n      mload\n        /* \"#utility.yul\":21149:21197   */\n      tag_479\n        /* \"#utility.yul\":21191:21195   */\n      0x1f\n        /* \"#utility.yul\":21183:21189   */\n      dup10\n        /* \"#utility.yul\":21179:21196   */\n      and\n        /* \"#utility.yul\":21168:21177   */\n      dup3\n        /* \"#utility.yul\":21149:21197   */\n      tag_251\n      jump\t// in\n    tag_479:\n        /* \"#utility.yul\":21141:21147   */\n      dup4\n        /* \"#utility.yul\":21134:21198   */\n      sstore\n        /* \"#utility.yul\":21056:21212   */\n      pop\n        /* \"#utility.yul\":21033:21212   */\n    tag_478:\n        /* \"#utility.yul\":21258:21259   */\n      0x01\n        /* \"#utility.yul\":21254:21255   */\n      0x02\n        /* \"#utility.yul\":21246:21252   */\n      dup9\n        /* \"#utility.yul\":21242:21256   */\n      mul\n        /* \"#utility.yul\":21238:21260   */\n      add\n        /* \"#utility.yul\":21232:21236   */\n      dup9\n        /* \"#utility.yul\":21225:21261   */\n      sstore\n        /* \"#utility.yul\":20660:21271   */\n      pop\n      pop\n      pop\n        /* \"#utility.yul\":20623:21510   */\n    tag_470:\n      pop\n        /* \"#utility.yul\":20213:21516   */\n      pop\n      pop\n      pop\n        /* \"#utility.yul\":20121:21516   */\n      pop\n      pop\n      jump\t// out\n\n    auxdata: 0xa2646970667358221220feb5524b11b4a2e64765e98d7f4297b2f0b54074836fad6b9c473fdc7927943164736f6c63430008180033\n}\n","bytecode":{"linkReferences":{},"object":"608060405234801562000010575f80fd5b50604051620020f8380380620020f88339818101604052810190620000369190620002d4565b5f821162000042575f80fd5b8060025f6101000a81548173ffffffffffffffffffffffffffffffffffffffff021916908373ffffffffffffffffffffffffffffffffffffffff160217905550835f9081620000929190620005af565b508260019081620000a49190620005af565b50816005819055505050505062000693565b5f604051905090565b5f80fd5b5f80fd5b5f80fd5b5f80fd5b5f601f19601f8301169050919050565b7f4e487b71000000000000000000000000000000000000000000000000000000005f52604160045260245ffd5b6200011782620000cf565b810181811067ffffffffffffffff82111715620001395762000138620000df565b5b80604052505050565b5f6200014d620000b6565b90506200015b82826200010c565b919050565b5f67ffffffffffffffff8211156200017d576200017c620000df565b5b6200018882620000cf565b9050602081019050919050565b5f5b83811015620001b457808201518184015260208101905062000197565b5f8484015250505050565b5f620001d5620001cf8462000160565b62000142565b905082815260208101848484011115620001f457620001f3620000cb565b5b6200020184828562000195565b509392505050565b5f82601f83011262000220576200021f620000c7565b5b815162000232848260208601620001bf565b91505092915050565b5f819050919050565b6200024f816200023b565b81146200025a575f80fd5b50565b5f815190506200026d8162000244565b92915050565b5f73ffffffffffffffffffffffffffffffffffffffff82169050919050565b5f6200029e8262000273565b9050919050565b620002b08162000292565b8114620002bb575f80fd5b50565b5f81519050620002ce81620002a5565b92915050565b5f805f8060808587031215620002ef57620002ee620000bf565b5b5f85015167ffffffffffffffff8111156200030f576200030e620000c3565b5b6200031d8782880162000209565b945050602085015167ffffffffffffffff811115620003415762000340620000c3565b5b6200034f8782880162000209565b935050604062000362878288016200025d565b92505060606200037587828801620002be565b91505092959194509250565b5f81519050919050565b7f4e487b71000000000000000000000000000000000000000000000000000000005f52602260045260245ffd5b5f6002820490506001821680620003d057607f821691505b602082108103620003e657620003e56200038b565b5b50919050565b5f819050815f5260205f209050919050565b5f6020601f8301049050919050565b5f82821b905092915050565b5f600883026200044a7fffffffffffffffffffffffffffffffffffffffffffffffffffffffffffffffff826200040d565b6200045686836200040d565b95508019841693508086168417925050509392505050565b5f819050919050565b5f62000497620004916200048b846200023b565b6200046e565b6200023b565b9050919050565b5f819050919050565b620004b28362000477565b620004ca620004c1826200049e565b84845462000419565b825550505050565b5f90565b620004e0620004d2565b620004ed818484620004a7565b505050565b5b818110156200051457620005085f82620004d6565b600181019050620004f3565b5050565b601f82111562000563576200052d81620003ec565b6200053884620003fe565b8101602085101562000548578190505b620005606200055785620003fe565b830182620004f2565b50505b505050565b5f82821c905092915050565b5f620005855f198460080262000568565b1980831691505092915050565b5f6200059f838362000574565b9150826002028217905092915050565b620005ba8262000381565b67ffffffffffffffff811115620005d657620005d5620000df565b5b620005e28254620003b8565b620005ef82828562000518565b5f60209050601f83116001811462000625575f841562000610578287015190505b6200061c858262000592565b8655506200068b565b601f1984166200063586620003ec565b5f5b828110156200065e5784890151825560018201915060208501945060208101905062000637565b868310156200067e57848901516200067a601f89168262000574565b8355505b6001600288020188555050505b505050505050565b611a5780620006a15f395ff3fe6080604052600436106100e7575f3560e01c80638813ce1211610089578063d7bb99ba11610058578063d7bb99ba146102e0578063e2e46b52146102ea578063f84038b114610312578063feed55611461033c576100e7565b80638813ce121461023a578063885e7c6214610264578063a7ac80001461028e578063d5009584146102b6576100e7565b80633410452a116100c55780633410452a146101795780634051ddac146101a3578063692d51d2146101cd5780636f9fb98a14610210576100e7565b80630a144391146100eb5780631a0925411461012757806330e8fc5c14610151575b5f80fd5b3480156100f6575f80fd5b50610111600480360381019061010c9190610fa7565b610366565b60405161011e9190610fea565b60405180910390f35b348015610132575f80fd5b5061013b61037b565b604051610148919061108d565b60405180910390f35b34801561015c575f80fd5b506101776004803603810190610172919061120e565b61040b565b005b348015610184575f80fd5b5061018d610633565b60405161019a9190610fea565b60405180910390f35b3480156101ae575f80fd5b506101b761063c565b6040516101c4919061136e565b60405180910390f35b3480156101d8575f80fd5b506101f360048036038101906101ee919061138e565b6107cd565b604051610207989796959493929190611404565b60405180910390f35b34801561021b575f80fd5b5061022461096d565b6040516102319190610fea565b60405180910390f35b348015610245575f80fd5b5061024e610974565b60405161025b9190611549565b60405180910390f35b34801561026f575f80fd5b50610278610a48565b604051610285919061108d565b60405180910390f35b348015610299575f80fd5b506102b460048036038101906102af91906115bd565b610ad7565b005b3480156102c1575f80fd5b506102ca610c85565b6040516102d7919061167b565b60405180910390f35b6102e8610cad565b005b3480156102f5575f80fd5b50610310600480360381019061030b919061138e565b610d5e565b005b34801561031d575f80fd5b50610326610edc565b6040516103339190610fea565b60405180910390f35b348015610347575f80fd5b50610350610ee5565b60405161035d9190610fea565b60405180910390f35b6003602052805f5260405f205f915090505481565b60606001805461038a906116c1565b80601f01602080910402602001604051908101604052809291908181526020018280546103b6906116c1565b80156104015780601f106103d857610100808354040283529160200191610401565b820191905f5260205f20905b8154815290600101906020018083116103e457829003601f168201915b5050505050905090565b60025f9054906101000a900473ffffffffffffffffffffffffffffffffffffffff1673ffffffffffffffffffffffffffffffffffffffff163373ffffffffffffffffffffffffffffffffffffffff1603610463575f80fd5b5f600783604051610474919061172b565b908152602001604051809103902090505f815f018054610493906116c1565b90501161049e575f80fd5b8251815f0180546104ae906116c1565b9050146104b9575f80fd5b5f60035f3373ffffffffffffffffffffffffffffffffffffffff1673ffffffffffffffffffffffffffffffffffffffff1681526020019081526020015f205411610501575f80fd5b806006015f9054906101000a900460ff161561051b575f80fd5b8060060160019054906101000a900460ff1615610536575f80fd5b806007015f3373ffffffffffffffffffffffffffffffffffffffff1673ffffffffffffffffffffffffffffffffffffffff1681526020019081526020015f205f9054906101000a900460ff161561058b575f80fd5b6001816007015f3373ffffffffffffffffffffffffffffffffffffffff1673ffffffffffffffffffffffffffffffffffffffff1681526020019081526020015f205f6101000a81548160ff021916908315150217905550811561060257806004015f8154809291906105fc9061176e565b91905055505b806005015481600401541061062e576001816006015f6101000a81548160ff0219169083151502179055505b505050565b5f600854905090565b610644610eee565b5f6040518060e0016040528060025f9054906101000a900473ffffffffffffffffffffffffffffffffffffffff1673ffffffffffffffffffffffffffffffffffffffff1681526020015f8054610699906116c1565b80601f01602080910402602001604051908101604052809291908181526020018280546106c5906116c1565b80156107105780601f106106e757610100808354040283529160200191610710565b820191905f5260205f20905b8154815290600101906020018083116106f357829003601f168201915b5050505050815260200160018054610727906116c1565b80601f0160208091040260200160405190810160405280929190818152602001828054610753906116c1565b801561079e5780601f106107755761010080835404028352916020019161079e565b820191905f5260205f20905b81548152906001019060200180831161078157829003601f168201915b505050505081526020016005548152602001478152602001600454815260200160085481525090508091505090565b6007818051602081018201805184825260208301602085012081835280955050505050505f91509050805f018054610804906116c1565b80601f0160208091040260200160405190810160405280929190818152602001828054610830906116c1565b801561087b5780601f106108525761010080835404028352916020019161087b565b820191905f5260205f20905b81548152906001019060200180831161085e57829003601f168201915b505050505090806001018054610890906116c1565b80601f01602080910402602001604051908101604052809291908181526020018280546108bc906116c1565b80156109075780601f106108de57610100808354040283529160200191610907565b820191905f5260205f20905b8154815290600101906020018083116108ea57829003601f168201915b505050505090806002015490806003015f9054906101000a900473ffffffffffffffffffffffffffffffffffffffff1690806004015490806005015490806006015f9054906101000a900460ff16908060060160019054906101000a900460ff16905088565b5f47905090565b60606006805480602002602001604051908101604052809291908181526020015f905b82821015610a3f578382905f5260205f200180546109b4906116c1565b80601f01602080910402602001604051908101604052809291908181526020018280546109e0906116c1565b8015610a2b5780601f10610a0257610100808354040283529160200191610a2b565b820191905f5260205f20905b815481529060010190602001808311610a0e57829003601f168201915b505050505081526020019060010190610997565b50505050905090565b60605f8054610a56906116c1565b80601f0160208091040260200160405190810160405280929190818152602001828054610a82906116c1565b8015610acd5780601f10610aa457610100808354040283529160200191610acd565b820191905f5260205f20905b815481529060010190602001808311610ab057829003601f168201915b5050505050905090565b60025f9054906101000a900473ffffffffffffffffffffffffffffffffffffffff1673ffffffffffffffffffffffffffffffffffffffff163373ffffffffffffffffffffffffffffffffffffffff1614610b2f575f80fd5b5f855111610b3b575f80fd5b5f845111610b47575f80fd5b5f8311610b52575f80fd5b47831115610b5e575f80fd5b5f8211610b69575f80fd5b600454821115610b77575f80fd5b5f600786604051610b88919061172b565b9081526020016040518091039020905085815f019081610ba89190611952565b5084816001019081610bba9190611952565b5083816002018190555081816003015f6101000a81548173ffffffffffffffffffffffffffffffffffffffff021916908373ffffffffffffffffffffffffffffffffffffffff1602179055505f81600401819055508281600501819055505f8160060160016101000a81548160ff02191690831515021790555060085f815480929190610c469061176e565b9190505550600686908060018154018082558091505060019003905f5260205f20015f909190919091509081610c7c9190611952565b50505050505050565b5f60025f9054906101000a900473ffffffffffffffffffffffffffffffffffffffff16905090565b600554341015610cbb575f80fd5b5f60035f3373ffffffffffffffffffffffffffffffffffffffff1673ffffffffffffffffffffffffffffffffffffffff1681526020019081526020015f205414610d03575f80fd5b3460035f3373ffffffffffffffffffffffffffffffffffffffff1673ffffffffffffffffffffffffffffffffffffffff1681526020019081526020015f208190555060045f815480929190610d579061176e565b9190505550565b60025f9054906101000a900473ffffffffffffffffffffffffffffffffffffffff1673ffffffffffffffffffffffffffffffffffffffff163373ffffffffffffffffffffffffffffffffffffffff1614610db6575f80fd5b5f600782604051610dc7919061172b565b908152602001604051809103902090505f815f018054610de6906116c1565b905011610df1575f80fd5b8151815f018054610e01906116c1565b905014610e0c575f80fd5b806006015f9054906101000a900460ff168015610e3857508060060160019054906101000a900460ff16155b610e40575f80fd5b8060020154471015610e50575f80fd5b806003015f9054906101000a900473ffffffffffffffffffffffffffffffffffffffff1673ffffffffffffffffffffffffffffffffffffffff166108fc826002015490811502906040515f60405180830381858888f19350505050158015610eba573d5f803e3d5ffd5b5060018160060160016101000a81548160ff0219169083151502179055505050565b5f600554905090565b5f600454905090565b6040518060e001604052805f73ffffffffffffffffffffffffffffffffffffffff16815260200160608152602001606081526020015f81526020015f81526020015f81526020015f81525090565b5f604051905090565b5f80fd5b5f80fd5b5f73ffffffffffffffffffffffffffffffffffffffff82169050919050565b5f610f7682610f4d565b9050919050565b610f8681610f6c565b8114610f90575f80fd5b50565b5f81359050610fa181610f7d565b92915050565b5f60208284031215610fbc57610fbb610f45565b5b5f610fc984828501610f93565b91505092915050565b5f819050919050565b610fe481610fd2565b82525050565b5f602082019050610ffd5f830184610fdb565b92915050565b5f81519050919050565b5f82825260208201905092915050565b5f5b8381101561103a57808201518184015260208101905061101f565b5f8484015250505050565b5f601f19601f8301169050919050565b5f61105f82611003565b611069818561100d565b935061107981856020860161101d565b61108281611045565b840191505092915050565b5f6020820190508181035f8301526110a58184611055565b905092915050565b5f80fd5b5f80fd5b7f4e487b71000000000000000000000000000000000000000000000000000000005f52604160045260245ffd5b6110eb82611045565b810181811067ffffffffffffffff8211171561110a576111096110b5565b5b80604052505050565b5f61111c610f3c565b905061112882826110e2565b919050565b5f67ffffffffffffffff821115611147576111466110b5565b5b61115082611045565b9050602081019050919050565b828183375f83830152505050565b5f61117d6111788461112d565b611113565b905082815260208101848484011115611199576111986110b1565b5b6111a484828561115d565b509392505050565b5f82601f8301126111c0576111bf6110ad565b5b81356111d084826020860161116b565b91505092915050565b5f8115159050919050565b6111ed816111d9565b81146111f7575f80fd5b50565b5f81359050611208816111e4565b92915050565b5f806040838503121561122457611223610f45565b5b5f83013567ffffffffffffffff81111561124157611240610f49565b5b61124d858286016111ac565b925050602061125e858286016111fa565b9150509250929050565b61127181610f6c565b82525050565b5f82825260208201905092915050565b5f61129182611003565b61129b8185611277565b93506112ab81856020860161101d565b6112b481611045565b840191505092915050565b6112c881610fd2565b82525050565b5f60e083015f8301516112e35f860182611268565b50602083015184820360208601526112fb8282611287565b915050604083015184820360408601526113158282611287565b915050606083015161132a60608601826112bf565b50608083015161133d60808601826112bf565b5060a083015161135060a08601826112bf565b5060c083015161136360c08601826112bf565b508091505092915050565b5f6020820190508181035f83015261138681846112ce565b905092915050565b5f602082840312156113a3576113a2610f45565b5b5f82013567ffffffffffffffff8111156113c0576113bf610f49565b5b6113cc848285016111ac565b91505092915050565b5f6113df82610f4d565b9050919050565b6113ef816113d5565b82525050565b6113fe816111d9565b82525050565b5f610100820190508181035f83015261141d818b611055565b90508181036020830152611431818a611055565b90506114406040830189610fdb565b61144d60608301886113e6565b61145a6080830187610fdb565b61146760a0830186610fdb565b61147460c08301856113f5565b61148160e08301846113f5565b9998505050505050505050565b5f81519050919050565b5f82825260208201905092915050565b5f819050602082019050919050565b5f6114c28383611287565b905092915050565b5f602082019050919050565b5f6114e08261148e565b6114ea8185611498565b9350836020820285016114fc856114a8565b805f5b85811015611537578484038952815161151885826114b7565b9450611523836114ca565b925060208a019950506001810190506114ff565b50829750879550505050505092915050565b5f6020820190508181035f83015261156181846114d6565b905092915050565b61157281610fd2565b811461157c575f80fd5b50565b5f8135905061158d81611569565b92915050565b61159c816113d5565b81146115a6575f80fd5b50565b5f813590506115b781611593565b92915050565b5f805f805f60a086880312156115d6576115d5610f45565b5b5f86013567ffffffffffffffff8111156115f3576115f2610f49565b5b6115ff888289016111ac565b955050602086013567ffffffffffffffff8111156116205761161f610f49565b5b61162c888289016111ac565b945050604061163d8882890161157f565b935050606061164e8882890161157f565b925050608061165f888289016115a9565b9150509295509295909350565b61167581610f6c565b82525050565b5f60208201905061168e5f83018461166c565b92915050565b7f4e487b71000000000000000000000000000000000000000000000000000000005f52602260045260245ffd5b5f60028204905060018216806116d857607f821691505b6020821081036116eb576116ea611694565b5b50919050565b5f81905092915050565b5f61170582611003565b61170f81856116f1565b935061171f81856020860161101d565b80840191505092915050565b5f61173682846116fb565b915081905092915050565b7f4e487b71000000000000000000000000000000000000000000000000000000005f52601160045260245ffd5b5f61177882610fd2565b91507fffffffffffffffffffffffffffffffffffffffffffffffffffffffffffffffff82036117aa576117a9611741565b5b600182019050919050565b5f819050815f5260205f209050919050565b5f6020601f8301049050919050565b5f82821b905092915050565b5f600883026118117fffffffffffffffffffffffffffffffffffffffffffffffffffffffffffffffff826117d6565b61181b86836117d6565b95508019841693508086168417925050509392505050565b5f819050919050565b5f61185661185161184c84610fd2565b611833565b610fd2565b9050919050565b5f819050919050565b61186f8361183c565b61188361187b8261185d565b8484546117e2565b825550505050565b5f90565b61189761188b565b6118a2818484611866565b505050565b5b818110156118c5576118ba5f8261188f565b6001810190506118a8565b5050565b601f82111561190a576118db816117b5565b6118e4846117c7565b810160208510156118f3578190505b6119076118ff856117c7565b8301826118a7565b50505b505050565b5f82821c905092915050565b5f61192a5f198460080261190f565b1980831691505092915050565b5f611942838361191b565b9150826002028217905092915050565b61195b82611003565b67ffffffffffffffff811115611974576119736110b5565b5b61197e82546116c1565b6119898282856118c9565b5f60209050601f8311600181146119ba575f84156119a8578287015190505b6119b28582611937565b865550611a19565b601f1984166119c8866117b5565b5f5b828110156119ef578489015182556001820191506020850194506020810190506119ca565b86831015611a0c5784890151611a08601f89168261191b565b8355505b6001600288020188555050505b50505050505056fea2646970667358221220feb5524b11b4a2e64765e98d7f4297b2f0b54074836fad6b9c473fdc7927943164736f6c63430008180033","opcodes":"PUSH1 0x80 PUSH1 0x40 MSTORE CALLVALUE DUP1 ISZERO PUSH3 0x10 JUMPI PUSH0 DUP1 REVERT JUMPDEST POP PUSH1 0x40 MLOAD PUSH3 0x20F8 CODESIZE SUB DUP1 PUSH3 0x20F8 DUP4 CODECOPY DUP2 DUP2 ADD PUSH1 0x40 MSTORE DUP2 ADD SWAP1 PUSH3 0x36 SWAP2 SWAP1 PUSH3 0x2D4 JUMP JUMPDEST PUSH0 DUP3 GT PUSH3 0x42 JUMPI PUSH0 DUP1 REVERT JUMPDEST DUP1 PUSH1 0x2 PUSH0 PUSH2 0x100 EXP DUP2 SLOAD DUP2 PUSH20 0xFFFFFFFFFFFFFFFFFFFFFFFFFFFFFFFFFFFFFFFF MUL NOT AND SWAP1 DUP4 PUSH20 0xFFFFFFFFFFFFFFFFFFFFFFFFFFFFFFFFFFFFFFFF AND MUL OR SWAP1 SSTORE POP DUP4 PUSH0 SWAP1 DUP2 PUSH3 0x92 SWAP2 SWAP1 PUSH3 0x5AF JUMP JUMPDEST POP DUP3 PUSH1 0x1 SWAP1 DUP2 PUSH3 0xA4 SWAP2 SWAP1 PUSH3 0x5AF JUMP JUMPDEST POP DUP2 PUSH1 0x5 DUP2 SWAP1 SSTORE POP POP POP POP POP PUSH3 0x693 JUMP JUMPDEST PUSH0 PUSH1 0x40 MLOAD SWAP1 POP SWAP1 JUMP JUMPDEST PUSH0 DUP1 REVERT JUMPDEST PUSH0 DUP1 REVERT JUMPDEST PUSH0 DUP1 REVERT JUMPDEST PUSH0 DUP1 REVERT JUMPDEST PUSH0 PUSH1 0x1F NOT PUSH1 0x1F DUP4 ADD AND SWAP1 POP SWAP2 SWAP1 POP JUMP JUMPDEST PUSH32 0x4E487B7100000000000000000000000000000000000000000000000000000000 PUSH0 MSTORE PUSH1 0x41 PUSH1 0x4 MSTORE PUSH1 0x24 PUSH0 REVERT JUMPDEST PUSH3 0x117 DUP3 PUSH3 0xCF JUMP JUMPDEST DUP2 ADD DUP2 DUP2 LT PUSH8 0xFFFFFFFFFFFFFFFF DUP3 GT OR ISZERO PUSH3 0x139 JUMPI PUSH3 0x138 PUSH3 0xDF JUMP JUMPDEST JUMPDEST DUP1 PUSH1 0x40 MSTORE POP POP POP JUMP JUMPDEST PUSH0 PUSH3 0x14D PUSH3 0xB6 JUMP JUMPDEST SWAP1 POP PUSH3 0x15B DUP3 DUP3 PUSH3 0x10C JUMP JUMPDEST SWAP2 SWAP1 POP JUMP JUMPDEST PUSH0 PUSH8 0xFFFFFFFFFFFFFFFF DUP3 GT ISZERO PUSH3 0x17D JUMPI PUSH3 0x17C PUSH3 0xDF JUMP JUMPDEST JUMPDEST PUSH3 0x188 DUP3 PUSH3 0xCF JUMP JUMPDEST SWAP1 POP PUSH1 0x20 DUP2 ADD SWAP1 POP SWAP2 SWAP1 POP JUMP JUMPDEST PUSH0 JUMPDEST DUP4 DUP2 LT ISZERO PUSH3 0x1B4 JUMPI DUP1 DUP3 ADD MLOAD DUP2 DUP5 ADD MSTORE PUSH1 0x20 DUP2 ADD SWAP1 POP PUSH3 0x197 JUMP JUMPDEST PUSH0 DUP5 DUP5 ADD MSTORE POP POP POP POP JUMP JUMPDEST PUSH0 PUSH3 0x1D5 PUSH3 0x1CF DUP5 PUSH3 0x160 JUMP JUMPDEST PUSH3 0x142 JUMP JUMPDEST SWAP1 POP DUP3 DUP2 MSTORE PUSH1 0x20 DUP2 ADD DUP5 DUP5 DUP5 ADD GT ISZERO PUSH3 0x1F4 JUMPI PUSH3 0x1F3 PUSH3 0xCB JUMP JUMPDEST JUMPDEST PUSH3 0x201 DUP5 DUP3 DUP6 PUSH3 0x195 JUMP JUMPDEST POP SWAP4 SWAP3 POP POP POP JUMP JUMPDEST PUSH0 DUP3 PUSH1 0x1F DUP4 ADD SLT PUSH3 0x220 JUMPI PUSH3 0x21F PUSH3 0xC7 JUMP JUMPDEST JUMPDEST DUP2 MLOAD PUSH3 0x232 DUP5 DUP3 PUSH1 0x20 DUP7 ADD PUSH3 0x1BF JUMP JUMPDEST SWAP2 POP POP SWAP3 SWAP2 POP POP JUMP JUMPDEST PUSH0 DUP2 SWAP1 POP SWAP2 SWAP1 POP JUMP JUMPDEST PUSH3 0x24F DUP2 PUSH3 0x23B JUMP JUMPDEST DUP2 EQ PUSH3 0x25A JUMPI PUSH0 DUP1 REVERT JUMPDEST POP JUMP JUMPDEST PUSH0 DUP2 MLOAD SWAP1 POP PUSH3 0x26D DUP2 PUSH3 0x244 JUMP JUMPDEST SWAP3 SWAP2 POP POP JUMP JUMPDEST PUSH0 PUSH20 0xFFFFFFFFFFFFFFFFFFFFFFFFFFFFFFFFFFFFFFFF DUP3 AND SWAP1 POP SWAP2 SWAP1 POP JUMP JUMPDEST PUSH0 PUSH3 0x29E DUP3 PUSH3 0x273 JUMP JUMPDEST SWAP1 POP SWAP2 SWAP1 POP JUMP JUMPDEST PUSH3 0x2B0 DUP2 PUSH3 0x292 JUMP JUMPDEST DUP2 EQ PUSH3 0x2BB JUMPI PUSH0 DUP1 REVERT JUMPDEST POP JUMP JUMPDEST PUSH0 DUP2 MLOAD SWAP1 POP PUSH3 0x2CE DUP2 PUSH3 0x2A5 JUMP JUMPDEST SWAP3 SWAP2 POP POP JUMP JUMPDEST PUSH0 DUP1 PUSH0 DUP1 PUSH1 0x80 DUP6 DUP8 SUB SLT ISZERO PUSH3 0x2EF JUMPI PUSH3 0x2EE PUSH3 0xBF JUMP JUMPDEST JUMPDEST PUSH0 DUP6 ADD MLOAD PUSH8 0xFFFFFFFFFFFFFFFF DUP2 GT ISZERO PUSH3 0x30F JUMPI PUSH3 0x30E PUSH3 0xC3 JUMP JUMPDEST JUMPDEST PUSH3 0x31D DUP8 DUP3 DUP9 ADD PUSH3 0x209 JUMP JUMPDEST SWAP5 POP POP PUSH1 0x20 DUP6 ADD MLOAD PUSH8 0xFFFFFFFFFFFFFFFF DUP2 GT ISZERO PUSH3 0x341 JUMPI PUSH3 0x340 PUSH3 0xC3 JUMP JUMPDEST JUMPDEST PUSH3 0x34F DUP8 DUP3 DUP9 ADD PUSH3 0x209 JUMP JUMPDEST SWAP4 POP POP PUSH1 0x40 PUSH3 0x362 DUP8 DUP3 DUP9 ADD PUSH3 0x25D JUMP JUMPDEST SWAP3 POP POP PUSH1 0x60 PUSH3 0x375 DUP8 DUP3 DUP9 ADD PUSH3 0x2BE JUMP JUMPDEST SWAP2 POP POP SWAP3 SWAP6 SWAP2 SWAP5 POP SWAP3 POP JUMP JUMPDEST PUSH0 DUP2 MLOAD SWAP1 POP SWAP2 SWAP1 POP JUMP JUMPDEST PUSH32 0x4E487B7100000000000000000000000000000000000000000000000000000000 PUSH0 MSTORE PUSH1 0x22 PUSH1 0x4 MSTORE PUSH1 0x24 PUSH0 REVERT JUMPDEST PUSH0 PUSH1 0x2 DUP3 DIV SWAP1 POP PUSH1 0x1 DUP3 AND DUP1 PUSH3 0x3D0 JUMPI PUSH1 0x7F DUP3 AND SWAP2 POP JUMPDEST PUSH1 0x20 DUP3 LT DUP2 SUB PUSH3 0x3E6 JUMPI PUSH3 0x3E5 PUSH3 0x38B JUMP JUMPDEST JUMPDEST POP SWAP2 SWAP1 POP JUMP JUMPDEST PUSH0 DUP2 SWAP1 POP DUP2 PUSH0 MSTORE PUSH1 0x20 PUSH0 KECCAK256 SWAP1 POP SWAP2 SWAP1 POP JUMP JUMPDEST PUSH0 PUSH1 0x20 PUSH1 0x1F DUP4 ADD DIV SWAP1 POP SWAP2 SWAP1 POP JUMP JUMPDEST PUSH0 DUP3 DUP3 SHL SWAP1 POP SWAP3 SWAP2 POP POP JUMP JUMPDEST PUSH0 PUSH1 0x8 DUP4 MUL PUSH3 0x44A PUSH32 0xFFFFFFFFFFFFFFFFFFFFFFFFFFFFFFFFFFFFFFFFFFFFFFFFFFFFFFFFFFFFFFFF DUP3 PUSH3 0x40D JUMP JUMPDEST PUSH3 0x456 DUP7 DUP4 PUSH3 0x40D JUMP JUMPDEST SWAP6 POP DUP1 NOT DUP5 AND SWAP4 POP DUP1 DUP7 AND DUP5 OR SWAP3 POP POP POP SWAP4 SWAP3 POP POP POP JUMP JUMPDEST PUSH0 DUP2 SWAP1 POP SWAP2 SWAP1 POP JUMP JUMPDEST PUSH0 PUSH3 0x497 PUSH3 0x491 PUSH3 0x48B DUP5 PUSH3 0x23B JUMP JUMPDEST PUSH3 0x46E JUMP JUMPDEST PUSH3 0x23B JUMP JUMPDEST SWAP1 POP SWAP2 SWAP1 POP JUMP JUMPDEST PUSH0 DUP2 SWAP1 POP SWAP2 SWAP1 POP JUMP JUMPDEST PUSH3 0x4B2 DUP4 PUSH3 0x477 JUMP JUMPDEST PUSH3 0x4CA PUSH3 0x4C1 DUP3 PUSH3 0x49E JUMP JUMPDEST DUP5 DUP5 SLOAD PUSH3 0x419 JUMP JUMPDEST DUP3 SSTORE POP POP POP POP JUMP JUMPDEST PUSH0 SWAP1 JUMP JUMPDEST PUSH3 0x4E0 PUSH3 0x4D2 JUMP JUMPDEST PUSH3 0x4ED DUP2 DUP5 DUP5 PUSH3 0x4A7 JUMP JUMPDEST POP POP POP JUMP JUMPDEST JUMPDEST DUP2 DUP2 LT ISZERO PUSH3 0x514 JUMPI PUSH3 0x508 PUSH0 DUP3 PUSH3 0x4D6 JUMP JUMPDEST PUSH1 0x1 DUP2 ADD SWAP1 POP PUSH3 0x4F3 JUMP JUMPDEST POP POP JUMP JUMPDEST PUSH1 0x1F DUP3 GT ISZERO PUSH3 0x563 JUMPI PUSH3 0x52D DUP2 PUSH3 0x3EC JUMP JUMPDEST PUSH3 0x538 DUP5 PUSH3 0x3FE JUMP JUMPDEST DUP2 ADD PUSH1 0x20 DUP6 LT ISZERO PUSH3 0x548 JUMPI DUP2 SWAP1 POP JUMPDEST PUSH3 0x560 PUSH3 0x557 DUP6 PUSH3 0x3FE JUMP JUMPDEST DUP4 ADD DUP3 PUSH3 0x4F2 JUMP JUMPDEST POP POP JUMPDEST POP POP POP JUMP JUMPDEST PUSH0 DUP3 DUP3 SHR SWAP1 POP SWAP3 SWAP2 POP POP JUMP JUMPDEST PUSH0 PUSH3 0x585 PUSH0 NOT DUP5 PUSH1 0x8 MUL PUSH3 0x568 JUMP JUMPDEST NOT DUP1 DUP4 AND SWAP2 POP POP SWAP3 SWAP2 POP POP JUMP JUMPDEST PUSH0 PUSH3 0x59F DUP4 DUP4 PUSH3 0x574 JUMP JUMPDEST SWAP2 POP DUP3 PUSH1 0x2 MUL DUP3 OR SWAP1 POP SWAP3 SWAP2 POP POP JUMP JUMPDEST PUSH3 0x5BA DUP3 PUSH3 0x381 JUMP JUMPDEST PUSH8 0xFFFFFFFFFFFFFFFF DUP2 GT ISZERO PUSH3 0x5D6 JUMPI PUSH3 0x5D5 PUSH3 0xDF JUMP JUMPDEST JUMPDEST PUSH3 0x5E2 DUP3 SLOAD PUSH3 0x3B8 JUMP JUMPDEST PUSH3 0x5EF DUP3 DUP3 DUP6 PUSH3 0x518 JUMP JUMPDEST PUSH0 PUSH1 0x20 SWAP1 POP PUSH1 0x1F DUP4 GT PUSH1 0x1 DUP2 EQ PUSH3 0x625 JUMPI PUSH0 DUP5 ISZERO PUSH3 0x610 JUMPI DUP3 DUP8 ADD MLOAD SWAP1 POP JUMPDEST PUSH3 0x61C DUP6 DUP3 PUSH3 0x592 JUMP JUMPDEST DUP7 SSTORE POP PUSH3 0x68B JUMP JUMPDEST PUSH1 0x1F NOT DUP5 AND PUSH3 0x635 DUP7 PUSH3 0x3EC JUMP JUMPDEST PUSH0 JUMPDEST DUP3 DUP2 LT ISZERO PUSH3 0x65E JUMPI DUP5 DUP10 ADD MLOAD DUP3 SSTORE PUSH1 0x1 DUP3 ADD SWAP2 POP PUSH1 0x20 DUP6 ADD SWAP5 POP PUSH1 0x20 DUP2 ADD SWAP1 POP PUSH3 0x637 JUMP JUMPDEST DUP7 DUP4 LT ISZERO PUSH3 0x67E JUMPI DUP5 DUP10 ADD MLOAD PUSH3 0x67A PUSH1 0x1F DUP10 AND DUP3 PUSH3 0x574 JUMP JUMPDEST DUP4 SSTORE POP JUMPDEST PUSH1 0x1 PUSH1 0x2 DUP9 MUL ADD DUP9 SSTORE POP POP POP JUMPDEST POP POP POP POP POP POP JUMP JUMPDEST PUSH2 0x1A57 DUP1 PUSH3 0x6A1 PUSH0 CODECOPY PUSH0 RETURN INVALID PUSH1 0x80 PUSH1 0x40 MSTORE PUSH1 0x4 CALLDATASIZE LT PUSH2 0xE7 JUMPI PUSH0 CALLDATALOAD PUSH1 0xE0 SHR DUP1 PUSH4 0x8813CE12 GT PUSH2 0x89 JUMPI DUP1 PUSH4 0xD7BB99BA GT PUSH2 0x58 JUMPI DUP1 PUSH4 0xD7BB99BA EQ PUSH2 0x2E0 JUMPI DUP1 PUSH4 0xE2E46B52 EQ PUSH2 0x2EA JUMPI DUP1 PUSH4 0xF84038B1 EQ PUSH2 0x312 JUMPI DUP1 PUSH4 0xFEED5561 EQ PUSH2 0x33C JUMPI PUSH2 0xE7 JUMP JUMPDEST DUP1 PUSH4 0x8813CE12 EQ PUSH2 0x23A JUMPI DUP1 PUSH4 0x885E7C62 EQ PUSH2 0x264 JUMPI DUP1 PUSH4 0xA7AC8000 EQ PUSH2 0x28E JUMPI DUP1 PUSH4 0xD5009584 EQ PUSH2 0x2B6 JUMPI PUSH2 0xE7 JUMP JUMPDEST DUP1 PUSH4 0x3410452A GT PUSH2 0xC5 JUMPI DUP1 PUSH4 0x3410452A EQ PUSH2 0x179 JUMPI DUP1 PUSH4 0x4051DDAC EQ PUSH2 0x1A3 JUMPI DUP1 PUSH4 0x692D51D2 EQ PUSH2 0x1CD JUMPI DUP1 PUSH4 0x6F9FB98A EQ PUSH2 0x210 JUMPI PUSH2 0xE7 JUMP JUMPDEST DUP1 PUSH4 0xA144391 EQ PUSH2 0xEB JUMPI DUP1 PUSH4 0x1A092541 EQ PUSH2 0x127 JUMPI DUP1 PUSH4 0x30E8FC5C EQ PUSH2 0x151 JUMPI JUMPDEST PUSH0 DUP1 REVERT JUMPDEST CALLVALUE DUP1 ISZERO PUSH2 0xF6 JUMPI PUSH0 DUP1 REVERT JUMPDEST POP PUSH2 0x111 PUSH1 0x4 DUP1 CALLDATASIZE SUB DUP2 ADD SWAP1 PUSH2 0x10C SWAP2 SWAP1 PUSH2 0xFA7 JUMP JUMPDEST PUSH2 0x366 JUMP JUMPDEST PUSH1 0x40 MLOAD PUSH2 0x11E SWAP2 SWAP1 PUSH2 0xFEA JUMP JUMPDEST PUSH1 0x40 MLOAD DUP1 SWAP2 SUB SWAP1 RETURN JUMPDEST CALLVALUE DUP1 ISZERO PUSH2 0x132 JUMPI PUSH0 DUP1 REVERT JUMPDEST POP PUSH2 0x13B PUSH2 0x37B JUMP JUMPDEST PUSH1 0x40 MLOAD PUSH2 0x148 SWAP2 SWAP1 PUSH2 0x108D JUMP JUMPDEST PUSH1 0x40 MLOAD DUP1 SWAP2 SUB SWAP1 RETURN JUMPDEST CALLVALUE DUP1 ISZERO PUSH2 0x15C JUMPI PUSH0 DUP1 REVERT JUMPDEST POP PUSH2 0x177 PUSH1 0x4 DUP1 CALLDATASIZE SUB DUP2 ADD SWAP1 PUSH2 0x172 SWAP2 SWAP1 PUSH2 0x120E JUMP JUMPDEST PUSH2 0x40B JUMP JUMPDEST STOP JUMPDEST CALLVALUE DUP1 ISZERO PUSH2 0x184 JUMPI PUSH0 DUP1 REVERT JUMPDEST POP PUSH2 0x18D PUSH2 0x633 JUMP JUMPDEST PUSH1 0x40 MLOAD PUSH2 0x19A SWAP2 SWAP1 PUSH2 0xFEA JUMP JUMPDEST PUSH1 0x40 MLOAD DUP1 SWAP2 SUB SWAP1 RETURN JUMPDEST CALLVALUE DUP1 ISZERO PUSH2 0x1AE JUMPI PUSH0 DUP1 REVERT JUMPDEST POP PUSH2 0x1B7 PUSH2 0x63C JUMP JUMPDEST PUSH1 0x40 MLOAD PUSH2 0x1C4 SWAP2 SWAP1 PUSH2 0x136E JUMP JUMPDEST PUSH1 0x40 MLOAD DUP1 SWAP2 SUB SWAP1 RETURN JUMPDEST CALLVALUE DUP1 ISZERO PUSH2 0x1D8 JUMPI PUSH0 DUP1 REVERT JUMPDEST POP PUSH2 0x1F3 PUSH1 0x4 DUP1 CALLDATASIZE SUB DUP2 ADD SWAP1 PUSH2 0x1EE SWAP2 SWAP1 PUSH2 0x138E JUMP JUMPDEST PUSH2 0x7CD JUMP JUMPDEST PUSH1 0x40 MLOAD PUSH2 0x207 SWAP9 SWAP8 SWAP7 SWAP6 SWAP5 SWAP4 SWAP3 SWAP2 SWAP1 PUSH2 0x1404 JUMP JUMPDEST PUSH1 0x40 MLOAD DUP1 SWAP2 SUB SWAP1 RETURN JUMPDEST CALLVALUE DUP1 ISZERO PUSH2 0x21B JUMPI PUSH0 DUP1 REVERT JUMPDEST POP PUSH2 0x224 PUSH2 0x96D JUMP JUMPDEST PUSH1 0x40 MLOAD PUSH2 0x231 SWAP2 SWAP1 PUSH2 0xFEA JUMP JUMPDEST PUSH1 0x40 MLOAD DUP1 SWAP2 SUB SWAP1 RETURN JUMPDEST CALLVALUE DUP1 ISZERO PUSH2 0x245 JUMPI PUSH0 DUP1 REVERT JUMPDEST POP PUSH2 0x24E PUSH2 0x974 JUMP JUMPDEST PUSH1 0x40 MLOAD PUSH2 0x25B SWAP2 SWAP1 PUSH2 0x1549 JUMP JUMPDEST PUSH1 0x40 MLOAD DUP1 SWAP2 SUB SWAP1 RETURN JUMPDEST CALLVALUE DUP1 ISZERO PUSH2 0x26F JUMPI PUSH0 DUP1 REVERT JUMPDEST POP PUSH2 0x278 PUSH2 0xA48 JUMP JUMPDEST PUSH1 0x40 MLOAD PUSH2 0x285 SWAP2 SWAP1 PUSH2 0x108D JUMP JUMPDEST PUSH1 0x40 MLOAD DUP1 SWAP2 SUB SWAP1 RETURN JUMPDEST CALLVALUE DUP1 ISZERO PUSH2 0x299 JUMPI PUSH0 DUP1 REVERT JUMPDEST POP PUSH2 0x2B4 PUSH1 0x4 DUP1 CALLDATASIZE SUB DUP2 ADD SWAP1 PUSH2 0x2AF SWAP2 SWAP1 PUSH2 0x15BD JUMP JUMPDEST PUSH2 0xAD7 JUMP JUMPDEST STOP JUMPDEST CALLVALUE DUP1 ISZERO PUSH2 0x2C1 JUMPI PUSH0 DUP1 REVERT JUMPDEST POP PUSH2 0x2CA PUSH2 0xC85 JUMP JUMPDEST PUSH1 0x40 MLOAD PUSH2 0x2D7 SWAP2 SWAP1 PUSH2 0x167B JUMP JUMPDEST PUSH1 0x40 MLOAD DUP1 SWAP2 SUB SWAP1 RETURN JUMPDEST PUSH2 0x2E8 PUSH2 0xCAD JUMP JUMPDEST STOP JUMPDEST CALLVALUE DUP1 ISZERO PUSH2 0x2F5 JUMPI PUSH0 DUP1 REVERT JUMPDEST POP PUSH2 0x310 PUSH1 0x4 DUP1 CALLDATASIZE SUB DUP2 ADD SWAP1 PUSH2 0x30B SWAP2 SWAP1 PUSH2 0x138E JUMP JUMPDEST PUSH2 0xD5E JUMP JUMPDEST STOP JUMPDEST CALLVALUE DUP1 ISZERO PUSH2 0x31D JUMPI PUSH0 DUP1 REVERT JUMPDEST POP PUSH2 0x326 PUSH2 0xEDC JUMP JUMPDEST PUSH1 0x40 MLOAD PUSH2 0x333 SWAP2 SWAP1 PUSH2 0xFEA JUMP JUMPDEST PUSH1 0x40 MLOAD DUP1 SWAP2 SUB SWAP1 RETURN JUMPDEST CALLVALUE DUP1 ISZERO PUSH2 0x347 JUMPI PUSH0 DUP1 REVERT JUMPDEST POP PUSH2 0x350 PUSH2 0xEE5 JUMP JUMPDEST PUSH1 0x40 MLOAD PUSH2 0x35D SWAP2 SWAP1 PUSH2 0xFEA JUMP JUMPDEST PUSH1 0x40 MLOAD DUP1 SWAP2 SUB SWAP1 RETURN JUMPDEST PUSH1 0x3 PUSH1 0x20 MSTORE DUP1 PUSH0 MSTORE PUSH1 0x40 PUSH0 KECCAK256 PUSH0 SWAP2 POP SWAP1 POP SLOAD DUP2 JUMP JUMPDEST PUSH1 0x60 PUSH1 0x1 DUP1 SLOAD PUSH2 0x38A SWAP1 PUSH2 0x16C1 JUMP JUMPDEST DUP1 PUSH1 0x1F ADD PUSH1 0x20 DUP1 SWAP2 DIV MUL PUSH1 0x20 ADD PUSH1 0x40 MLOAD SWAP1 DUP2 ADD PUSH1 0x40 MSTORE DUP1 SWAP3 SWAP2 SWAP1 DUP2 DUP2 MSTORE PUSH1 0x20 ADD DUP3 DUP1 SLOAD PUSH2 0x3B6 SWAP1 PUSH2 0x16C1 JUMP JUMPDEST DUP1 ISZERO PUSH2 0x401 JUMPI DUP1 PUSH1 0x1F LT PUSH2 0x3D8 JUMPI PUSH2 0x100 DUP1 DUP4 SLOAD DIV MUL DUP4 MSTORE SWAP2 PUSH1 0x20 ADD SWAP2 PUSH2 0x401 JUMP JUMPDEST DUP3 ADD SWAP2 SWAP1 PUSH0 MSTORE PUSH1 0x20 PUSH0 KECCAK256 SWAP1 JUMPDEST DUP2 SLOAD DUP2 MSTORE SWAP1 PUSH1 0x1 ADD SWAP1 PUSH1 0x20 ADD DUP1 DUP4 GT PUSH2 0x3E4 JUMPI DUP3 SWAP1 SUB PUSH1 0x1F AND DUP3 ADD SWAP2 JUMPDEST POP POP POP POP POP SWAP1 POP SWAP1 JUMP JUMPDEST PUSH1 0x2 PUSH0 SWAP1 SLOAD SWAP1 PUSH2 0x100 EXP SWAP1 DIV PUSH20 0xFFFFFFFFFFFFFFFFFFFFFFFFFFFFFFFFFFFFFFFF AND PUSH20 0xFFFFFFFFFFFFFFFFFFFFFFFFFFFFFFFFFFFFFFFF AND CALLER PUSH20 0xFFFFFFFFFFFFFFFFFFFFFFFFFFFFFFFFFFFFFFFF AND SUB PUSH2 0x463 JUMPI PUSH0 DUP1 REVERT JUMPDEST PUSH0 PUSH1 0x7 DUP4 PUSH1 0x40 MLOAD PUSH2 0x474 SWAP2 SWAP1 PUSH2 0x172B JUMP JUMPDEST SWAP1 DUP2 MSTORE PUSH1 0x20 ADD PUSH1 0x40 MLOAD DUP1 SWAP2 SUB SWAP1 KECCAK256 SWAP1 POP PUSH0 DUP2 PUSH0 ADD DUP1 SLOAD PUSH2 0x493 SWAP1 PUSH2 0x16C1 JUMP JUMPDEST SWAP1 POP GT PUSH2 0x49E JUMPI PUSH0 DUP1 REVERT JUMPDEST DUP3 MLOAD DUP2 PUSH0 ADD DUP1 SLOAD PUSH2 0x4AE SWAP1 PUSH2 0x16C1 JUMP JUMPDEST SWAP1 POP EQ PUSH2 0x4B9 JUMPI PUSH0 DUP1 REVERT JUMPDEST PUSH0 PUSH1 0x3 PUSH0 CALLER PUSH20 0xFFFFFFFFFFFFFFFFFFFFFFFFFFFFFFFFFFFFFFFF AND PUSH20 0xFFFFFFFFFFFFFFFFFFFFFFFFFFFFFFFFFFFFFFFF AND DUP2 MSTORE PUSH1 0x20 ADD SWAP1 DUP2 MSTORE PUSH1 0x20 ADD PUSH0 KECCAK256 SLOAD GT PUSH2 0x501 JUMPI PUSH0 DUP1 REVERT JUMPDEST DUP1 PUSH1 0x6 ADD PUSH0 SWAP1 SLOAD SWAP1 PUSH2 0x100 EXP SWAP1 DIV PUSH1 0xFF AND ISZERO PUSH2 0x51B JUMPI PUSH0 DUP1 REVERT JUMPDEST DUP1 PUSH1 0x6 ADD PUSH1 0x1 SWAP1 SLOAD SWAP1 PUSH2 0x100 EXP SWAP1 DIV PUSH1 0xFF AND ISZERO PUSH2 0x536 JUMPI PUSH0 DUP1 REVERT JUMPDEST DUP1 PUSH1 0x7 ADD PUSH0 CALLER PUSH20 0xFFFFFFFFFFFFFFFFFFFFFFFFFFFFFFFFFFFFFFFF AND PUSH20 0xFFFFFFFFFFFFFFFFFFFFFFFFFFFFFFFFFFFFFFFF AND DUP2 MSTORE PUSH1 0x20 ADD SWAP1 DUP2 MSTORE PUSH1 0x20 ADD PUSH0 KECCAK256 PUSH0 SWAP1 SLOAD SWAP1 PUSH2 0x100 EXP SWAP1 DIV PUSH1 0xFF AND ISZERO PUSH2 0x58B JUMPI PUSH0 DUP1 REVERT JUMPDEST PUSH1 0x1 DUP2 PUSH1 0x7 ADD PUSH0 CALLER PUSH20 0xFFFFFFFFFFFFFFFFFFFFFFFFFFFFFFFFFFFFFFFF AND PUSH20 0xFFFFFFFFFFFFFFFFFFFFFFFFFFFFFFFFFFFFFFFF AND DUP2 MSTORE PUSH1 0x20 ADD SWAP1 DUP2 MSTORE PUSH1 0x20 ADD PUSH0 KECCAK256 PUSH0 PUSH2 0x100 EXP DUP2 SLOAD DUP2 PUSH1 0xFF MUL NOT AND SWAP1 DUP4 ISZERO ISZERO MUL OR SWAP1 SSTORE POP DUP2 ISZERO PUSH2 0x602 JUMPI DUP1 PUSH1 0x4 ADD PUSH0 DUP2 SLOAD DUP1 SWAP3 SWAP2 SWAP1 PUSH2 0x5FC SWAP1 PUSH2 0x176E JUMP JUMPDEST SWAP2 SWAP1 POP SSTORE POP JUMPDEST DUP1 PUSH1 0x5 ADD SLOAD DUP2 PUSH1 0x4 ADD SLOAD LT PUSH2 0x62E JUMPI PUSH1 0x1 DUP2 PUSH1 0x6 ADD PUSH0 PUSH2 0x100 EXP DUP2 SLOAD DUP2 PUSH1 0xFF MUL NOT AND SWAP1 DUP4 ISZERO ISZERO MUL OR SWAP1 SSTORE POP JUMPDEST POP POP POP JUMP JUMPDEST PUSH0 PUSH1 0x8 SLOAD SWAP1 POP SWAP1 JUMP JUMPDEST PUSH2 0x644 PUSH2 0xEEE JUMP JUMPDEST PUSH0 PUSH1 0x40 MLOAD DUP1 PUSH1 0xE0 ADD PUSH1 0x40 MSTORE DUP1 PUSH1 0x2 PUSH0 SWAP1 SLOAD SWAP1 PUSH2 0x100 EXP SWAP1 DIV PUSH20 0xFFFFFFFFFFFFFFFFFFFFFFFFFFFFFFFFFFFFFFFF AND PUSH20 0xFFFFFFFFFFFFFFFFFFFFFFFFFFFFFFFFFFFFFFFF AND DUP2 MSTORE PUSH1 0x20 ADD PUSH0 DUP1 SLOAD PUSH2 0x699 SWAP1 PUSH2 0x16C1 JUMP JUMPDEST DUP1 PUSH1 0x1F ADD PUSH1 0x20 DUP1 SWAP2 DIV MUL PUSH1 0x20 ADD PUSH1 0x40 MLOAD SWAP1 DUP2 ADD PUSH1 0x40 MSTORE DUP1 SWAP3 SWAP2 SWAP1 DUP2 DUP2 MSTORE PUSH1 0x20 ADD DUP3 DUP1 SLOAD PUSH2 0x6C5 SWAP1 PUSH2 0x16C1 JUMP JUMPDEST DUP1 ISZERO PUSH2 0x710 JUMPI DUP1 PUSH1 0x1F LT PUSH2 0x6E7 JUMPI PUSH2 0x100 DUP1 DUP4 SLOAD DIV MUL DUP4 MSTORE SWAP2 PUSH1 0x20 ADD SWAP2 PUSH2 0x710 JUMP JUMPDEST DUP3 ADD SWAP2 SWAP1 PUSH0 MSTORE PUSH1 0x20 PUSH0 KECCAK256 SWAP1 JUMPDEST DUP2 SLOAD DUP2 MSTORE SWAP1 PUSH1 0x1 ADD SWAP1 PUSH1 0x20 ADD DUP1 DUP4 GT PUSH2 0x6F3 JUMPI DUP3 SWAP1 SUB PUSH1 0x1F AND DUP3 ADD SWAP2 JUMPDEST POP POP POP POP POP DUP2 MSTORE PUSH1 0x20 ADD PUSH1 0x1 DUP1 SLOAD PUSH2 0x727 SWAP1 PUSH2 0x16C1 JUMP JUMPDEST DUP1 PUSH1 0x1F ADD PUSH1 0x20 DUP1 SWAP2 DIV MUL PUSH1 0x20 ADD PUSH1 0x40 MLOAD SWAP1 DUP2 ADD PUSH1 0x40 MSTORE DUP1 SWAP3 SWAP2 SWAP1 DUP2 DUP2 MSTORE PUSH1 0x20 ADD DUP3 DUP1 SLOAD PUSH2 0x753 SWAP1 PUSH2 0x16C1 JUMP JUMPDEST DUP1 ISZERO PUSH2 0x79E JUMPI DUP1 PUSH1 0x1F LT PUSH2 0x775 JUMPI PUSH2 0x100 DUP1 DUP4 SLOAD DIV MUL DUP4 MSTORE SWAP2 PUSH1 0x20 ADD SWAP2 PUSH2 0x79E JUMP JUMPDEST DUP3 ADD SWAP2 SWAP1 PUSH0 MSTORE PUSH1 0x20 PUSH0 KECCAK256 SWAP1 JUMPDEST DUP2 SLOAD DUP2 MSTORE SWAP1 PUSH1 0x1 ADD SWAP1 PUSH1 0x20 ADD DUP1 DUP4 GT PUSH2 0x781 JUMPI DUP3 SWAP1 SUB PUSH1 0x1F AND DUP3 ADD SWAP2 JUMPDEST POP POP POP POP POP DUP2 MSTORE PUSH1 0x20 ADD PUSH1 0x5 SLOAD DUP2 MSTORE PUSH1 0x20 ADD SELFBALANCE DUP2 MSTORE PUSH1 0x20 ADD PUSH1 0x4 SLOAD DUP2 MSTORE PUSH1 0x20 ADD PUSH1 0x8 SLOAD DUP2 MSTORE POP SWAP1 POP DUP1 SWAP2 POP POP SWAP1 JUMP JUMPDEST PUSH1 0x7 DUP2 DUP1 MLOAD PUSH1 0x20 DUP2 ADD DUP3 ADD DUP1 MLOAD DUP5 DUP3 MSTORE PUSH1 0x20 DUP4 ADD PUSH1 0x20 DUP6 ADD KECCAK256 DUP2 DUP4 MSTORE DUP1 SWAP6 POP POP POP POP POP POP PUSH0 SWAP2 POP SWAP1 POP DUP1 PUSH0 ADD DUP1 SLOAD PUSH2 0x804 SWAP1 PUSH2 0x16C1 JUMP JUMPDEST DUP1 PUSH1 0x1F ADD PUSH1 0x20 DUP1 SWAP2 DIV MUL PUSH1 0x20 ADD PUSH1 0x40 MLOAD SWAP1 DUP2 ADD PUSH1 0x40 MSTORE DUP1 SWAP3 SWAP2 SWAP1 DUP2 DUP2 MSTORE PUSH1 0x20 ADD DUP3 DUP1 SLOAD PUSH2 0x830 SWAP1 PUSH2 0x16C1 JUMP JUMPDEST DUP1 ISZERO PUSH2 0x87B JUMPI DUP1 PUSH1 0x1F LT PUSH2 0x852 JUMPI PUSH2 0x100 DUP1 DUP4 SLOAD DIV MUL DUP4 MSTORE SWAP2 PUSH1 0x20 ADD SWAP2 PUSH2 0x87B JUMP JUMPDEST DUP3 ADD SWAP2 SWAP1 PUSH0 MSTORE PUSH1 0x20 PUSH0 KECCAK256 SWAP1 JUMPDEST DUP2 SLOAD DUP2 MSTORE SWAP1 PUSH1 0x1 ADD SWAP1 PUSH1 0x20 ADD DUP1 DUP4 GT PUSH2 0x85E JUMPI DUP3 SWAP1 SUB PUSH1 0x1F AND DUP3 ADD SWAP2 JUMPDEST POP POP POP POP POP SWAP1 DUP1 PUSH1 0x1 ADD DUP1 SLOAD PUSH2 0x890 SWAP1 PUSH2 0x16C1 JUMP JUMPDEST DUP1 PUSH1 0x1F ADD PUSH1 0x20 DUP1 SWAP2 DIV MUL PUSH1 0x20 ADD PUSH1 0x40 MLOAD SWAP1 DUP2 ADD PUSH1 0x40 MSTORE DUP1 SWAP3 SWAP2 SWAP1 DUP2 DUP2 MSTORE PUSH1 0x20 ADD DUP3 DUP1 SLOAD PUSH2 0x8BC SWAP1 PUSH2 0x16C1 JUMP JUMPDEST DUP1 ISZERO PUSH2 0x907 JUMPI DUP1 PUSH1 0x1F LT PUSH2 0x8DE JUMPI PUSH2 0x100 DUP1 DUP4 SLOAD DIV MUL DUP4 MSTORE SWAP2 PUSH1 0x20 ADD SWAP2 PUSH2 0x907 JUMP JUMPDEST DUP3 ADD SWAP2 SWAP1 PUSH0 MSTORE PUSH1 0x20 PUSH0 KECCAK256 SWAP1 JUMPDEST DUP2 SLOAD DUP2 MSTORE SWAP1 PUSH1 0x1 ADD SWAP1 PUSH1 0x20 ADD DUP1 DUP4 GT PUSH2 0x8EA JUMPI DUP3 SWAP1 SUB PUSH1 0x1F AND DUP3 ADD SWAP2 JUMPDEST POP POP POP POP POP SWAP1 DUP1 PUSH1 0x2 ADD SLOAD SWAP1 DUP1 PUSH1 0x3 ADD PUSH0 SWAP1 SLOAD SWAP1 PUSH2 0x100 EXP SWAP1 DIV PUSH20 0xFFFFFFFFFFFFFFFFFFFFFFFFFFFFFFFFFFFFFFFF AND SWAP1 DUP1 PUSH1 0x4 ADD SLOAD SWAP1 DUP1 PUSH1 0x5 ADD SLOAD SWAP1 DUP1 PUSH1 0x6 ADD PUSH0 SWAP1 SLOAD SWAP1 PUSH2 0x100 EXP SWAP1 DIV PUSH1 0xFF AND SWAP1 DUP1 PUSH1 0x6 ADD PUSH1 0x1 SWAP1 SLOAD SWAP1 PUSH2 0x100 EXP SWAP1 DIV PUSH1 0xFF AND SWAP1 POP DUP9 JUMP JUMPDEST PUSH0 SELFBALANCE SWAP1 POP SWAP1 JUMP JUMPDEST PUSH1 0x60 PUSH1 0x6 DUP1 SLOAD DUP1 PUSH1 0x20 MUL PUSH1 0x20 ADD PUSH1 0x40 MLOAD SWAP1 DUP2 ADD PUSH1 0x40 MSTORE DUP1 SWAP3 SWAP2 SWAP1 DUP2 DUP2 MSTORE PUSH1 0x20 ADD PUSH0 SWAP1 JUMPDEST DUP3 DUP3 LT ISZERO PUSH2 0xA3F JUMPI DUP4 DUP3 SWAP1 PUSH0 MSTORE PUSH1 0x20 PUSH0 KECCAK256 ADD DUP1 SLOAD PUSH2 0x9B4 SWAP1 PUSH2 0x16C1 JUMP JUMPDEST DUP1 PUSH1 0x1F ADD PUSH1 0x20 DUP1 SWAP2 DIV MUL PUSH1 0x20 ADD PUSH1 0x40 MLOAD SWAP1 DUP2 ADD PUSH1 0x40 MSTORE DUP1 SWAP3 SWAP2 SWAP1 DUP2 DUP2 MSTORE PUSH1 0x20 ADD DUP3 DUP1 SLOAD PUSH2 0x9E0 SWAP1 PUSH2 0x16C1 JUMP JUMPDEST DUP1 ISZERO PUSH2 0xA2B JUMPI DUP1 PUSH1 0x1F LT PUSH2 0xA02 JUMPI PUSH2 0x100 DUP1 DUP4 SLOAD DIV MUL DUP4 MSTORE SWAP2 PUSH1 0x20 ADD SWAP2 PUSH2 0xA2B JUMP JUMPDEST DUP3 ADD SWAP2 SWAP1 PUSH0 MSTORE PUSH1 0x20 PUSH0 KECCAK256 SWAP1 JUMPDEST DUP2 SLOAD DUP2 MSTORE SWAP1 PUSH1 0x1 ADD SWAP1 PUSH1 0x20 ADD DUP1 DUP4 GT PUSH2 0xA0E JUMPI DUP3 SWAP1 SUB PUSH1 0x1F AND DUP3 ADD SWAP2 JUMPDEST POP POP POP POP POP DUP2 MSTORE PUSH1 0x20 ADD SWAP1 PUSH1 0x1 ADD SWAP1 PUSH2 0x997 JUMP JUMPDEST POP POP POP POP SWAP1 POP SWAP1 JUMP JUMPDEST PUSH1 0x60 PUSH0 DUP1 SLOAD PUSH2 0xA56 SWAP1 PUSH2 0x16C1 JUMP JUMPDEST DUP1 PUSH1 0x1F ADD PUSH1 0x20 DUP1 SWAP2 DIV MUL PUSH1 0x20 ADD PUSH1 0x40 MLOAD SWAP1 DUP2 ADD PUSH1 0x40 MSTORE DUP1 SWAP3 SWAP2 SWAP1 DUP2 DUP2 MSTORE PUSH1 0x20 ADD DUP3 DUP1 SLOAD PUSH2 0xA82 SWAP1 PUSH2 0x16C1 JUMP JUMPDEST DUP1 ISZERO PUSH2 0xACD JUMPI DUP1 PUSH1 0x1F LT PUSH2 0xAA4 JUMPI PUSH2 0x100 DUP1 DUP4 SLOAD DIV MUL DUP4 MSTORE SWAP2 PUSH1 0x20 ADD SWAP2 PUSH2 0xACD JUMP JUMPDEST DUP3 ADD SWAP2 SWAP1 PUSH0 MSTORE PUSH1 0x20 PUSH0 KECCAK256 SWAP1 JUMPDEST DUP2 SLOAD DUP2 MSTORE SWAP1 PUSH1 0x1 ADD SWAP1 PUSH1 0x20 ADD DUP1 DUP4 GT PUSH2 0xAB0 JUMPI DUP3 SWAP1 SUB PUSH1 0x1F AND DUP3 ADD SWAP2 JUMPDEST POP POP POP POP POP SWAP1 POP SWAP1 JUMP JUMPDEST PUSH1 0x2 PUSH0 SWAP1 SLOAD SWAP1 PUSH2 0x100 EXP SWAP1 DIV PUSH20 0xFFFFFFFFFFFFFFFFFFFFFFFFFFFFFFFFFFFFFFFF AND PUSH20 0xFFFFFFFFFFFFFFFFFFFFFFFFFFFFFFFFFFFFFFFF AND CALLER PUSH20 0xFFFFFFFFFFFFFFFFFFFFFFFFFFFFFFFFFFFFFFFF AND EQ PUSH2 0xB2F JUMPI PUSH0 DUP1 REVERT JUMPDEST PUSH0 DUP6 MLOAD GT PUSH2 0xB3B JUMPI PUSH0 DUP1 REVERT JUMPDEST PUSH0 DUP5 MLOAD GT PUSH2 0xB47 JUMPI PUSH0 DUP1 REVERT JUMPDEST PUSH0 DUP4 GT PUSH2 0xB52 JUMPI PUSH0 DUP1 REVERT JUMPDEST SELFBALANCE DUP4 GT ISZERO PUSH2 0xB5E JUMPI PUSH0 DUP1 REVERT JUMPDEST PUSH0 DUP3 GT PUSH2 0xB69 JUMPI PUSH0 DUP1 REVERT JUMPDEST PUSH1 0x4 SLOAD DUP3 GT ISZERO PUSH2 0xB77 JUMPI PUSH0 DUP1 REVERT JUMPDEST PUSH0 PUSH1 0x7 DUP7 PUSH1 0x40 MLOAD PUSH2 0xB88 SWAP2 SWAP1 PUSH2 0x172B JUMP JUMPDEST SWAP1 DUP2 MSTORE PUSH1 0x20 ADD PUSH1 0x40 MLOAD DUP1 SWAP2 SUB SWAP1 KECCAK256 SWAP1 POP DUP6 DUP2 PUSH0 ADD SWAP1 DUP2 PUSH2 0xBA8 SWAP2 SWAP1 PUSH2 0x1952 JUMP JUMPDEST POP DUP5 DUP2 PUSH1 0x1 ADD SWAP1 DUP2 PUSH2 0xBBA SWAP2 SWAP1 PUSH2 0x1952 JUMP JUMPDEST POP DUP4 DUP2 PUSH1 0x2 ADD DUP2 SWAP1 SSTORE POP DUP2 DUP2 PUSH1 0x3 ADD PUSH0 PUSH2 0x100 EXP DUP2 SLOAD DUP2 PUSH20 0xFFFFFFFFFFFFFFFFFFFFFFFFFFFFFFFFFFFFFFFF MUL NOT AND SWAP1 DUP4 PUSH20 0xFFFFFFFFFFFFFFFFFFFFFFFFFFFFFFFFFFFFFFFF AND MUL OR SWAP1 SSTORE POP PUSH0 DUP2 PUSH1 0x4 ADD DUP2 SWAP1 SSTORE POP DUP3 DUP2 PUSH1 0x5 ADD DUP2 SWAP1 SSTORE POP PUSH0 DUP2 PUSH1 0x6 ADD PUSH1 0x1 PUSH2 0x100 EXP DUP2 SLOAD DUP2 PUSH1 0xFF MUL NOT AND SWAP1 DUP4 ISZERO ISZERO MUL OR SWAP1 SSTORE POP PUSH1 0x8 PUSH0 DUP2 SLOAD DUP1 SWAP3 SWAP2 SWAP1 PUSH2 0xC46 SWAP1 PUSH2 0x176E JUMP JUMPDEST SWAP2 SWAP1 POP SSTORE POP PUSH1 0x6 DUP7 SWAP1 DUP1 PUSH1 0x1 DUP2 SLOAD ADD DUP1 DUP3 SSTORE DUP1 SWAP2 POP POP PUSH1 0x1 SWAP1 SUB SWAP1 PUSH0 MSTORE PUSH1 0x20 PUSH0 KECCAK256 ADD PUSH0 SWAP1 SWAP2 SWAP1 SWAP2 SWAP1 SWAP2 POP SWAP1 DUP2 PUSH2 0xC7C SWAP2 SWAP1 PUSH2 0x1952 JUMP JUMPDEST POP POP POP POP POP POP POP JUMP JUMPDEST PUSH0 PUSH1 0x2 PUSH0 SWAP1 SLOAD SWAP1 PUSH2 0x100 EXP SWAP1 DIV PUSH20 0xFFFFFFFFFFFFFFFFFFFFFFFFFFFFFFFFFFFFFFFF AND SWAP1 POP SWAP1 JUMP JUMPDEST PUSH1 0x5 SLOAD CALLVALUE LT ISZERO PUSH2 0xCBB JUMPI PUSH0 DUP1 REVERT JUMPDEST PUSH0 PUSH1 0x3 PUSH0 CALLER PUSH20 0xFFFFFFFFFFFFFFFFFFFFFFFFFFFFFFFFFFFFFFFF AND PUSH20 0xFFFFFFFFFFFFFFFFFFFFFFFFFFFFFFFFFFFFFFFF AND DUP2 MSTORE PUSH1 0x20 ADD SWAP1 DUP2 MSTORE PUSH1 0x20 ADD PUSH0 KECCAK256 SLOAD EQ PUSH2 0xD03 JUMPI PUSH0 DUP1 REVERT JUMPDEST CALLVALUE PUSH1 0x3 PUSH0 CALLER PUSH20 0xFFFFFFFFFFFFFFFFFFFFFFFFFFFFFFFFFFFFFFFF AND PUSH20 0xFFFFFFFFFFFFFFFFFFFFFFFFFFFFFFFFFFFFFFFF AND DUP2 MSTORE PUSH1 0x20 ADD SWAP1 DUP2 MSTORE PUSH1 0x20 ADD PUSH0 KECCAK256 DUP2 SWAP1 SSTORE POP PUSH1 0x4 PUSH0 DUP2 SLOAD DUP1 SWAP3 SWAP2 SWAP1 PUSH2 0xD57 SWAP1 PUSH2 0x176E JUMP JUMPDEST SWAP2 SWAP1 POP SSTORE POP JUMP JUMPDEST PUSH1 0x2 PUSH0 SWAP1 SLOAD SWAP1 PUSH2 0x100 EXP SWAP1 DIV PUSH20 0xFFFFFFFFFFFFFFFFFFFFFFFFFFFFFFFFFFFFFFFF AND PUSH20 0xFFFFFFFFFFFFFFFFFFFFFFFFFFFFFFFFFFFFFFFF AND CALLER PUSH20 0xFFFFFFFFFFFFFFFFFFFFFFFFFFFFFFFFFFFFFFFF AND EQ PUSH2 0xDB6 JUMPI PUSH0 DUP1 REVERT JUMPDEST PUSH0 PUSH1 0x7 DUP3 PUSH1 0x40 MLOAD PUSH2 0xDC7 SWAP2 SWAP1 PUSH2 0x172B JUMP JUMPDEST SWAP1 DUP2 MSTORE PUSH1 0x20 ADD PUSH1 0x40 MLOAD DUP1 SWAP2 SUB SWAP1 KECCAK256 SWAP1 POP PUSH0 DUP2 PUSH0 ADD DUP1 SLOAD PUSH2 0xDE6 SWAP1 PUSH2 0x16C1 JUMP JUMPDEST SWAP1 POP GT PUSH2 0xDF1 JUMPI PUSH0 DUP1 REVERT JUMPDEST DUP2 MLOAD DUP2 PUSH0 ADD DUP1 SLOAD PUSH2 0xE01 SWAP1 PUSH2 0x16C1 JUMP JUMPDEST SWAP1 POP EQ PUSH2 0xE0C JUMPI PUSH0 DUP1 REVERT JUMPDEST DUP1 PUSH1 0x6 ADD PUSH0 SWAP1 SLOAD SWAP1 PUSH2 0x100 EXP SWAP1 DIV PUSH1 0xFF AND DUP1 ISZERO PUSH2 0xE38 JUMPI POP DUP1 PUSH1 0x6 ADD PUSH1 0x1 SWAP1 SLOAD SWAP1 PUSH2 0x100 EXP SWAP1 DIV PUSH1 0xFF AND ISZERO JUMPDEST PUSH2 0xE40 JUMPI PUSH0 DUP1 REVERT JUMPDEST DUP1 PUSH1 0x2 ADD SLOAD SELFBALANCE LT ISZERO PUSH2 0xE50 JUMPI PUSH0 DUP1 REVERT JUMPDEST DUP1 PUSH1 0x3 ADD PUSH0 SWAP1 SLOAD SWAP1 PUSH2 0x100 EXP SWAP1 DIV PUSH20 0xFFFFFFFFFFFFFFFFFFFFFFFFFFFFFFFFFFFFFFFF AND PUSH20 0xFFFFFFFFFFFFFFFFFFFFFFFFFFFFFFFFFFFFFFFF AND PUSH2 0x8FC DUP3 PUSH1 0x2 ADD SLOAD SWAP1 DUP2 ISZERO MUL SWAP1 PUSH1 0x40 MLOAD PUSH0 PUSH1 0x40 MLOAD DUP1 DUP4 SUB DUP2 DUP6 DUP9 DUP9 CALL SWAP4 POP POP POP POP ISZERO DUP1 ISZERO PUSH2 0xEBA JUMPI RETURNDATASIZE PUSH0 DUP1 RETURNDATACOPY RETURNDATASIZE PUSH0 REVERT JUMPDEST POP PUSH1 0x1 DUP2 PUSH1 0x6 ADD PUSH1 0x1 PUSH2 0x100 EXP DUP2 SLOAD DUP2 PUSH1 0xFF MUL NOT AND SWAP1 DUP4 ISZERO ISZERO MUL OR SWAP1 SSTORE POP POP POP JUMP JUMPDEST PUSH0 PUSH1 0x5 SLOAD SWAP1 POP SWAP1 JUMP JUMPDEST PUSH0 PUSH1 0x4 SLOAD SWAP1 POP SWAP1 JUMP JUMPDEST PUSH1 0x40 MLOAD DUP1 PUSH1 0xE0 ADD PUSH1 0x40 MSTORE DUP1 PUSH0 PUSH20 0xFFFFFFFFFFFFFFFFFFFFFFFFFFFFFFFFFFFFFFFF AND DUP2 MSTORE PUSH1 0x20 ADD PUSH1 0x60 DUP2 MSTORE PUSH1 0x20 ADD PUSH1 0x60 DUP2 MSTORE PUSH1 0x20 ADD PUSH0 DUP2 MSTORE PUSH1 0x20 ADD PUSH0 DUP2 MSTORE PUSH1 0x20 ADD PUSH0 DUP2 MSTORE PUSH1 0x20 ADD PUSH0 DUP2 MSTORE POP SWAP1 JUMP JUMPDEST PUSH0 PUSH1 0x40 MLOAD SWAP1 POP SWAP1 JUMP JUMPDEST PUSH0 DUP1 REVERT JUMPDEST PUSH0 DUP1 REVERT JUMPDEST PUSH0 PUSH20 0xFFFFFFFFFFFFFFFFFFFFFFFFFFFFFFFFFFFFFFFF DUP3 AND SWAP1 POP SWAP2 SWAP1 POP JUMP JUMPDEST PUSH0 PUSH2 0xF76 DUP3 PUSH2 0xF4D JUMP JUMPDEST SWAP1 POP SWAP2 SWAP1 POP JUMP JUMPDEST PUSH2 0xF86 DUP2 PUSH2 0xF6C JUMP JUMPDEST DUP2 EQ PUSH2 0xF90 JUMPI PUSH0 DUP1 REVERT JUMPDEST POP JUMP JUMPDEST PUSH0 DUP2 CALLDATALOAD SWAP1 POP PUSH2 0xFA1 DUP2 PUSH2 0xF7D JUMP JUMPDEST SWAP3 SWAP2 POP POP JUMP JUMPDEST PUSH0 PUSH1 0x20 DUP3 DUP5 SUB SLT ISZERO PUSH2 0xFBC JUMPI PUSH2 0xFBB PUSH2 0xF45 JUMP JUMPDEST JUMPDEST PUSH0 PUSH2 0xFC9 DUP5 DUP3 DUP6 ADD PUSH2 0xF93 JUMP JUMPDEST SWAP2 POP POP SWAP3 SWAP2 POP POP JUMP JUMPDEST PUSH0 DUP2 SWAP1 POP SWAP2 SWAP1 POP JUMP JUMPDEST PUSH2 0xFE4 DUP2 PUSH2 0xFD2 JUMP JUMPDEST DUP3 MSTORE POP POP JUMP JUMPDEST PUSH0 PUSH1 0x20 DUP3 ADD SWAP1 POP PUSH2 0xFFD PUSH0 DUP4 ADD DUP5 PUSH2 0xFDB JUMP JUMPDEST SWAP3 SWAP2 POP POP JUMP JUMPDEST PUSH0 DUP2 MLOAD SWAP1 POP SWAP2 SWAP1 POP JUMP JUMPDEST PUSH0 DUP3 DUP3 MSTORE PUSH1 0x20 DUP3 ADD SWAP1 POP SWAP3 SWAP2 POP POP JUMP JUMPDEST PUSH0 JUMPDEST DUP4 DUP2 LT ISZERO PUSH2 0x103A JUMPI DUP1 DUP3 ADD MLOAD DUP2 DUP5 ADD MSTORE PUSH1 0x20 DUP2 ADD SWAP1 POP PUSH2 0x101F JUMP JUMPDEST PUSH0 DUP5 DUP5 ADD MSTORE POP POP POP POP JUMP JUMPDEST PUSH0 PUSH1 0x1F NOT PUSH1 0x1F DUP4 ADD AND SWAP1 POP SWAP2 SWAP1 POP JUMP JUMPDEST PUSH0 PUSH2 0x105F DUP3 PUSH2 0x1003 JUMP JUMPDEST PUSH2 0x1069 DUP2 DUP6 PUSH2 0x100D JUMP JUMPDEST SWAP4 POP PUSH2 0x1079 DUP2 DUP6 PUSH1 0x20 DUP7 ADD PUSH2 0x101D JUMP JUMPDEST PUSH2 0x1082 DUP2 PUSH2 0x1045 JUMP JUMPDEST DUP5 ADD SWAP2 POP POP SWAP3 SWAP2 POP POP JUMP JUMPDEST PUSH0 PUSH1 0x20 DUP3 ADD SWAP1 POP DUP2 DUP2 SUB PUSH0 DUP4 ADD MSTORE PUSH2 0x10A5 DUP2 DUP5 PUSH2 0x1055 JUMP JUMPDEST SWAP1 POP SWAP3 SWAP2 POP POP JUMP JUMPDEST PUSH0 DUP1 REVERT JUMPDEST PUSH0 DUP1 REVERT JUMPDEST PUSH32 0x4E487B7100000000000000000000000000000000000000000000000000000000 PUSH0 MSTORE PUSH1 0x41 PUSH1 0x4 MSTORE PUSH1 0x24 PUSH0 REVERT JUMPDEST PUSH2 0x10EB DUP3 PUSH2 0x1045 JUMP JUMPDEST DUP2 ADD DUP2 DUP2 LT PUSH8 0xFFFFFFFFFFFFFFFF DUP3 GT OR ISZERO PUSH2 0x110A JUMPI PUSH2 0x1109 PUSH2 0x10B5 JUMP JUMPDEST JUMPDEST DUP1 PUSH1 0x40 MSTORE POP POP POP JUMP JUMPDEST PUSH0 PUSH2 0x111C PUSH2 0xF3C JUMP JUMPDEST SWAP1 POP PUSH2 0x1128 DUP3 DUP3 PUSH2 0x10E2 JUMP JUMPDEST SWAP2 SWAP1 POP JUMP JUMPDEST PUSH0 PUSH8 0xFFFFFFFFFFFFFFFF DUP3 GT ISZERO PUSH2 0x1147 JUMPI PUSH2 0x1146 PUSH2 0x10B5 JUMP JUMPDEST JUMPDEST PUSH2 0x1150 DUP3 PUSH2 0x1045 JUMP JUMPDEST SWAP1 POP PUSH1 0x20 DUP2 ADD SWAP1 POP SWAP2 SWAP1 POP JUMP JUMPDEST DUP3 DUP2 DUP4 CALLDATACOPY PUSH0 DUP4 DUP4 ADD MSTORE POP POP POP JUMP JUMPDEST PUSH0 PUSH2 0x117D PUSH2 0x1178 DUP5 PUSH2 0x112D JUMP JUMPDEST PUSH2 0x1113 JUMP JUMPDEST SWAP1 POP DUP3 DUP2 MSTORE PUSH1 0x20 DUP2 ADD DUP5 DUP5 DUP5 ADD GT ISZERO PUSH2 0x1199 JUMPI PUSH2 0x1198 PUSH2 0x10B1 JUMP JUMPDEST JUMPDEST PUSH2 0x11A4 DUP5 DUP3 DUP6 PUSH2 0x115D JUMP JUMPDEST POP SWAP4 SWAP3 POP POP POP JUMP JUMPDEST PUSH0 DUP3 PUSH1 0x1F DUP4 ADD SLT PUSH2 0x11C0 JUMPI PUSH2 0x11BF PUSH2 0x10AD JUMP JUMPDEST JUMPDEST DUP2 CALLDATALOAD PUSH2 0x11D0 DUP5 DUP3 PUSH1 0x20 DUP7 ADD PUSH2 0x116B JUMP JUMPDEST SWAP2 POP POP SWAP3 SWAP2 POP POP JUMP JUMPDEST PUSH0 DUP2 ISZERO ISZERO SWAP1 POP SWAP2 SWAP1 POP JUMP JUMPDEST PUSH2 0x11ED DUP2 PUSH2 0x11D9 JUMP JUMPDEST DUP2 EQ PUSH2 0x11F7 JUMPI PUSH0 DUP1 REVERT JUMPDEST POP JUMP JUMPDEST PUSH0 DUP2 CALLDATALOAD SWAP1 POP PUSH2 0x1208 DUP2 PUSH2 0x11E4 JUMP JUMPDEST SWAP3 SWAP2 POP POP JUMP JUMPDEST PUSH0 DUP1 PUSH1 0x40 DUP4 DUP6 SUB SLT ISZERO PUSH2 0x1224 JUMPI PUSH2 0x1223 PUSH2 0xF45 JUMP JUMPDEST JUMPDEST PUSH0 DUP4 ADD CALLDATALOAD PUSH8 0xFFFFFFFFFFFFFFFF DUP2 GT ISZERO PUSH2 0x1241 JUMPI PUSH2 0x1240 PUSH2 0xF49 JUMP JUMPDEST JUMPDEST PUSH2 0x124D DUP6 DUP3 DUP7 ADD PUSH2 0x11AC JUMP JUMPDEST SWAP3 POP POP PUSH1 0x20 PUSH2 0x125E DUP6 DUP3 DUP7 ADD PUSH2 0x11FA JUMP JUMPDEST SWAP2 POP POP SWAP3 POP SWAP3 SWAP1 POP JUMP JUMPDEST PUSH2 0x1271 DUP2 PUSH2 0xF6C JUMP JUMPDEST DUP3 MSTORE POP POP JUMP JUMPDEST PUSH0 DUP3 DUP3 MSTORE PUSH1 0x20 DUP3 ADD SWAP1 POP SWAP3 SWAP2 POP POP JUMP JUMPDEST PUSH0 PUSH2 0x1291 DUP3 PUSH2 0x1003 JUMP JUMPDEST PUSH2 0x129B DUP2 DUP6 PUSH2 0x1277 JUMP JUMPDEST SWAP4 POP PUSH2 0x12AB DUP2 DUP6 PUSH1 0x20 DUP7 ADD PUSH2 0x101D JUMP JUMPDEST PUSH2 0x12B4 DUP2 PUSH2 0x1045 JUMP JUMPDEST DUP5 ADD SWAP2 POP POP SWAP3 SWAP2 POP POP JUMP JUMPDEST PUSH2 0x12C8 DUP2 PUSH2 0xFD2 JUMP JUMPDEST DUP3 MSTORE POP POP JUMP JUMPDEST PUSH0 PUSH1 0xE0 DUP4 ADD PUSH0 DUP4 ADD MLOAD PUSH2 0x12E3 PUSH0 DUP7 ADD DUP3 PUSH2 0x1268 JUMP JUMPDEST POP PUSH1 0x20 DUP4 ADD MLOAD DUP5 DUP3 SUB PUSH1 0x20 DUP7 ADD MSTORE PUSH2 0x12FB DUP3 DUP3 PUSH2 0x1287 JUMP JUMPDEST SWAP2 POP POP PUSH1 0x40 DUP4 ADD MLOAD DUP5 DUP3 SUB PUSH1 0x40 DUP7 ADD MSTORE PUSH2 0x1315 DUP3 DUP3 PUSH2 0x1287 JUMP JUMPDEST SWAP2 POP POP PUSH1 0x60 DUP4 ADD MLOAD PUSH2 0x132A PUSH1 0x60 DUP7 ADD DUP3 PUSH2 0x12BF JUMP JUMPDEST POP PUSH1 0x80 DUP4 ADD MLOAD PUSH2 0x133D PUSH1 0x80 DUP7 ADD DUP3 PUSH2 0x12BF JUMP JUMPDEST POP PUSH1 0xA0 DUP4 ADD MLOAD PUSH2 0x1350 PUSH1 0xA0 DUP7 ADD DUP3 PUSH2 0x12BF JUMP JUMPDEST POP PUSH1 0xC0 DUP4 ADD MLOAD PUSH2 0x1363 PUSH1 0xC0 DUP7 ADD DUP3 PUSH2 0x12BF JUMP JUMPDEST POP DUP1 SWAP2 POP POP SWAP3 SWAP2 POP POP JUMP JUMPDEST PUSH0 PUSH1 0x20 DUP3 ADD SWAP1 POP DUP2 DUP2 SUB PUSH0 DUP4 ADD MSTORE PUSH2 0x1386 DUP2 DUP5 PUSH2 0x12CE JUMP JUMPDEST SWAP1 POP SWAP3 SWAP2 POP POP JUMP JUMPDEST PUSH0 PUSH1 0x20 DUP3 DUP5 SUB SLT ISZERO PUSH2 0x13A3 JUMPI PUSH2 0x13A2 PUSH2 0xF45 JUMP JUMPDEST JUMPDEST PUSH0 DUP3 ADD CALLDATALOAD PUSH8 0xFFFFFFFFFFFFFFFF DUP2 GT ISZERO PUSH2 0x13C0 JUMPI PUSH2 0x13BF PUSH2 0xF49 JUMP JUMPDEST JUMPDEST PUSH2 0x13CC DUP5 DUP3 DUP6 ADD PUSH2 0x11AC JUMP JUMPDEST SWAP2 POP POP SWAP3 SWAP2 POP POP JUMP JUMPDEST PUSH0 PUSH2 0x13DF DUP3 PUSH2 0xF4D JUMP JUMPDEST SWAP1 POP SWAP2 SWAP1 POP JUMP JUMPDEST PUSH2 0x13EF DUP2 PUSH2 0x13D5 JUMP JUMPDEST DUP3 MSTORE POP POP JUMP JUMPDEST PUSH2 0x13FE DUP2 PUSH2 0x11D9 JUMP JUMPDEST DUP3 MSTORE POP POP JUMP JUMPDEST PUSH0 PUSH2 0x100 DUP3 ADD SWAP1 POP DUP2 DUP2 SUB PUSH0 DUP4 ADD MSTORE PUSH2 0x141D DUP2 DUP12 PUSH2 0x1055 JUMP JUMPDEST SWAP1 POP DUP2 DUP2 SUB PUSH1 0x20 DUP4 ADD MSTORE PUSH2 0x1431 DUP2 DUP11 PUSH2 0x1055 JUMP JUMPDEST SWAP1 POP PUSH2 0x1440 PUSH1 0x40 DUP4 ADD DUP10 PUSH2 0xFDB JUMP JUMPDEST PUSH2 0x144D PUSH1 0x60 DUP4 ADD DUP9 PUSH2 0x13E6 JUMP JUMPDEST PUSH2 0x145A PUSH1 0x80 DUP4 ADD DUP8 PUSH2 0xFDB JUMP JUMPDEST PUSH2 0x1467 PUSH1 0xA0 DUP4 ADD DUP7 PUSH2 0xFDB JUMP JUMPDEST PUSH2 0x1474 PUSH1 0xC0 DUP4 ADD DUP6 PUSH2 0x13F5 JUMP JUMPDEST PUSH2 0x1481 PUSH1 0xE0 DUP4 ADD DUP5 PUSH2 0x13F5 JUMP JUMPDEST SWAP10 SWAP9 POP POP POP POP POP POP POP POP POP JUMP JUMPDEST PUSH0 DUP2 MLOAD SWAP1 POP SWAP2 SWAP1 POP JUMP JUMPDEST PUSH0 DUP3 DUP3 MSTORE PUSH1 0x20 DUP3 ADD SWAP1 POP SWAP3 SWAP2 POP POP JUMP JUMPDEST PUSH0 DUP2 SWAP1 POP PUSH1 0x20 DUP3 ADD SWAP1 POP SWAP2 SWAP1 POP JUMP JUMPDEST PUSH0 PUSH2 0x14C2 DUP4 DUP4 PUSH2 0x1287 JUMP JUMPDEST SWAP1 POP SWAP3 SWAP2 POP POP JUMP JUMPDEST PUSH0 PUSH1 0x20 DUP3 ADD SWAP1 POP SWAP2 SWAP1 POP JUMP JUMPDEST PUSH0 PUSH2 0x14E0 DUP3 PUSH2 0x148E JUMP JUMPDEST PUSH2 0x14EA DUP2 DUP6 PUSH2 0x1498 JUMP JUMPDEST SWAP4 POP DUP4 PUSH1 0x20 DUP3 MUL DUP6 ADD PUSH2 0x14FC DUP6 PUSH2 0x14A8 JUMP JUMPDEST DUP1 PUSH0 JUMPDEST DUP6 DUP2 LT ISZERO PUSH2 0x1537 JUMPI DUP5 DUP5 SUB DUP10 MSTORE DUP2 MLOAD PUSH2 0x1518 DUP6 DUP3 PUSH2 0x14B7 JUMP JUMPDEST SWAP5 POP PUSH2 0x1523 DUP4 PUSH2 0x14CA JUMP JUMPDEST SWAP3 POP PUSH1 0x20 DUP11 ADD SWAP10 POP POP PUSH1 0x1 DUP2 ADD SWAP1 POP PUSH2 0x14FF JUMP JUMPDEST POP DUP3 SWAP8 POP DUP8 SWAP6 POP POP POP POP POP POP SWAP3 SWAP2 POP POP JUMP JUMPDEST PUSH0 PUSH1 0x20 DUP3 ADD SWAP1 POP DUP2 DUP2 SUB PUSH0 DUP4 ADD MSTORE PUSH2 0x1561 DUP2 DUP5 PUSH2 0x14D6 JUMP JUMPDEST SWAP1 POP SWAP3 SWAP2 POP POP JUMP JUMPDEST PUSH2 0x1572 DUP2 PUSH2 0xFD2 JUMP JUMPDEST DUP2 EQ PUSH2 0x157C JUMPI PUSH0 DUP1 REVERT JUMPDEST POP JUMP JUMPDEST PUSH0 DUP2 CALLDATALOAD SWAP1 POP PUSH2 0x158D DUP2 PUSH2 0x1569 JUMP JUMPDEST SWAP3 SWAP2 POP POP JUMP JUMPDEST PUSH2 0x159C DUP2 PUSH2 0x13D5 JUMP JUMPDEST DUP2 EQ PUSH2 0x15A6 JUMPI PUSH0 DUP1 REVERT JUMPDEST POP JUMP JUMPDEST PUSH0 DUP2 CALLDATALOAD SWAP1 POP PUSH2 0x15B7 DUP2 PUSH2 0x1593 JUMP JUMPDEST SWAP3 SWAP2 POP POP JUMP JUMPDEST PUSH0 DUP1 PUSH0 DUP1 PUSH0 PUSH1 0xA0 DUP7 DUP9 SUB SLT ISZERO PUSH2 0x15D6 JUMPI PUSH2 0x15D5 PUSH2 0xF45 JUMP JUMPDEST JUMPDEST PUSH0 DUP7 ADD CALLDATALOAD PUSH8 0xFFFFFFFFFFFFFFFF DUP2 GT ISZERO PUSH2 0x15F3 JUMPI PUSH2 0x15F2 PUSH2 0xF49 JUMP JUMPDEST JUMPDEST PUSH2 0x15FF DUP9 DUP3 DUP10 ADD PUSH2 0x11AC JUMP JUMPDEST SWAP6 POP POP PUSH1 0x20 DUP7 ADD CALLDATALOAD PUSH8 0xFFFFFFFFFFFFFFFF DUP2 GT ISZERO PUSH2 0x1620 JUMPI PUSH2 0x161F PUSH2 0xF49 JUMP JUMPDEST JUMPDEST PUSH2 0x162C DUP9 DUP3 DUP10 ADD PUSH2 0x11AC JUMP JUMPDEST SWAP5 POP POP PUSH1 0x40 PUSH2 0x163D DUP9 DUP3 DUP10 ADD PUSH2 0x157F JUMP JUMPDEST SWAP4 POP POP PUSH1 0x60 PUSH2 0x164E DUP9 DUP3 DUP10 ADD PUSH2 0x157F JUMP JUMPDEST SWAP3 POP POP PUSH1 0x80 PUSH2 0x165F DUP9 DUP3 DUP10 ADD PUSH2 0x15A9 JUMP JUMPDEST SWAP2 POP POP SWAP3 SWAP6 POP SWAP3 SWAP6 SWAP1 SWAP4 POP JUMP JUMPDEST PUSH2 0x1675 DUP2 PUSH2 0xF6C JUMP JUMPDEST DUP3 MSTORE POP POP JUMP JUMPDEST PUSH0 PUSH1 0x20 DUP3 ADD SWAP1 POP PUSH2 0x168E PUSH0 DUP4 ADD DUP5 PUSH2 0x166C JUMP JUMPDEST SWAP3 SWAP2 POP POP JUMP JUMPDEST PUSH32 0x4E487B7100000000000000000000000000000000000000000000000000000000 PUSH0 MSTORE PUSH1 0x22 PUSH1 0x4 MSTORE PUSH1 0x24 PUSH0 REVERT JUMPDEST PUSH0 PUSH1 0x2 DUP3 DIV SWAP1 POP PUSH1 0x1 DUP3 AND DUP1 PUSH2 0x16D8 JUMPI PUSH1 0x7F DUP3 AND SWAP2 POP JUMPDEST PUSH1 0x20 DUP3 LT DUP2 SUB PUSH2 0x16EB JUMPI PUSH2 0x16EA PUSH2 0x1694 JUMP JUMPDEST JUMPDEST POP SWAP2 SWAP1 POP JUMP JUMPDEST PUSH0 DUP2 SWAP1 POP SWAP3 SWAP2 POP POP JUMP JUMPDEST PUSH0 PUSH2 0x1705 DUP3 PUSH2 0x1003 JUMP JUMPDEST PUSH2 0x170F DUP2 DUP6 PUSH2 0x16F1 JUMP JUMPDEST SWAP4 POP PUSH2 0x171F DUP2 DUP6 PUSH1 0x20 DUP7 ADD PUSH2 0x101D JUMP JUMPDEST DUP1 DUP5 ADD SWAP2 POP POP SWAP3 SWAP2 POP POP JUMP JUMPDEST PUSH0 PUSH2 0x1736 DUP3 DUP5 PUSH2 0x16FB JUMP JUMPDEST SWAP2 POP DUP2 SWAP1 POP SWAP3 SWAP2 POP POP JUMP JUMPDEST PUSH32 0x4E487B7100000000000000000000000000000000000000000000000000000000 PUSH0 MSTORE PUSH1 0x11 PUSH1 0x4 MSTORE PUSH1 0x24 PUSH0 REVERT JUMPDEST PUSH0 PUSH2 0x1778 DUP3 PUSH2 0xFD2 JUMP JUMPDEST SWAP2 POP PUSH32 0xFFFFFFFFFFFFFFFFFFFFFFFFFFFFFFFFFFFFFFFFFFFFFFFFFFFFFFFFFFFFFFFF DUP3 SUB PUSH2 0x17AA JUMPI PUSH2 0x17A9 PUSH2 0x1741 JUMP JUMPDEST JUMPDEST PUSH1 0x1 DUP3 ADD SWAP1 POP SWAP2 SWAP1 POP JUMP JUMPDEST PUSH0 DUP2 SWAP1 POP DUP2 PUSH0 MSTORE PUSH1 0x20 PUSH0 KECCAK256 SWAP1 POP SWAP2 SWAP1 POP JUMP JUMPDEST PUSH0 PUSH1 0x20 PUSH1 0x1F DUP4 ADD DIV SWAP1 POP SWAP2 SWAP1 POP JUMP JUMPDEST PUSH0 DUP3 DUP3 SHL SWAP1 POP SWAP3 SWAP2 POP POP JUMP JUMPDEST PUSH0 PUSH1 0x8 DUP4 MUL PUSH2 0x1811 PUSH32 0xFFFFFFFFFFFFFFFFFFFFFFFFFFFFFFFFFFFFFFFFFFFFFFFFFFFFFFFFFFFFFFFF DUP3 PUSH2 0x17D6 JUMP JUMPDEST PUSH2 0x181B DUP7 DUP4 PUSH2 0x17D6 JUMP JUMPDEST SWAP6 POP DUP1 NOT DUP5 AND SWAP4 POP DUP1 DUP7 AND DUP5 OR SWAP3 POP POP POP SWAP4 SWAP3 POP POP POP JUMP JUMPDEST PUSH0 DUP2 SWAP1 POP SWAP2 SWAP1 POP JUMP JUMPDEST PUSH0 PUSH2 0x1856 PUSH2 0x1851 PUSH2 0x184C DUP5 PUSH2 0xFD2 JUMP JUMPDEST PUSH2 0x1833 JUMP JUMPDEST PUSH2 0xFD2 JUMP JUMPDEST SWAP1 POP SWAP2 SWAP1 POP JUMP JUMPDEST PUSH0 DUP2 SWAP1 POP SWAP2 SWAP1 POP JUMP JUMPDEST PUSH2 0x186F DUP4 PUSH2 0x183C JUMP JUMPDEST PUSH2 0x1883 PUSH2 0x187B DUP3 PUSH2 0x185D JUMP JUMPDEST DUP5 DUP5 SLOAD PUSH2 0x17E2 JUMP JUMPDEST DUP3 SSTORE POP POP POP POP JUMP JUMPDEST PUSH0 SWAP1 JUMP JUMPDEST PUSH2 0x1897 PUSH2 0x188B JUMP JUMPDEST PUSH2 0x18A2 DUP2 DUP5 DUP5 PUSH2 0x1866 JUMP JUMPDEST POP POP POP JUMP JUMPDEST JUMPDEST DUP2 DUP2 LT ISZERO PUSH2 0x18C5 JUMPI PUSH2 0x18BA PUSH0 DUP3 PUSH2 0x188F JUMP JUMPDEST PUSH1 0x1 DUP2 ADD SWAP1 POP PUSH2 0x18A8 JUMP JUMPDEST POP POP JUMP JUMPDEST PUSH1 0x1F DUP3 GT ISZERO PUSH2 0x190A JUMPI PUSH2 0x18DB DUP2 PUSH2 0x17B5 JUMP JUMPDEST PUSH2 0x18E4 DUP5 PUSH2 0x17C7 JUMP JUMPDEST DUP2 ADD PUSH1 0x20 DUP6 LT ISZERO PUSH2 0x18F3 JUMPI DUP2 SWAP1 POP JUMPDEST PUSH2 0x1907 PUSH2 0x18FF DUP6 PUSH2 0x17C7 JUMP JUMPDEST DUP4 ADD DUP3 PUSH2 0x18A7 JUMP JUMPDEST POP POP JUMPDEST POP POP POP JUMP JUMPDEST PUSH0 DUP3 DUP3 SHR SWAP1 POP SWAP3 SWAP2 POP POP JUMP JUMPDEST PUSH0 PUSH2 0x192A PUSH0 NOT DUP5 PUSH1 0x8 MUL PUSH2 0x190F JUMP JUMPDEST NOT DUP1 DUP4 AND SWAP2 POP POP SWAP3 SWAP2 POP POP JUMP JUMPDEST PUSH0 PUSH2 0x1942 DUP4 DUP4 PUSH2 0x191B JUMP JUMPDEST SWAP2 POP DUP3 PUSH1 0x2 MUL DUP3 OR SWAP1 POP SWAP3 SWAP2 POP POP JUMP JUMPDEST PUSH2 0x195B DUP3 PUSH2 0x1003 JUMP JUMPDEST PUSH8 0xFFFFFFFFFFFFFFFF DUP2 GT ISZERO PUSH2 0x1974 JUMPI PUSH2 0x1973 PUSH2 0x10B5 JUMP JUMPDEST JUMPDEST PUSH2 0x197E DUP3 SLOAD PUSH2 0x16C1 JUMP JUMPDEST PUSH2 0x1989 DUP3 DUP3 DUP6 PUSH2 0x18C9 JUMP JUMPDEST PUSH0 PUSH1 0x20 SWAP1 POP PUSH1 0x1F DUP4 GT PUSH1 0x1 DUP2 EQ PUSH2 0x19BA JUMPI PUSH0 DUP5 ISZERO PUSH2 0x19A8 JUMPI DUP3 DUP8 ADD MLOAD SWAP1 POP JUMPDEST PUSH2 0x19B2 DUP6 DUP3 PUSH2 0x1937 JUMP JUMPDEST DUP7 SSTORE POP PUSH2 0x1A19 JUMP JUMPDEST PUSH1 0x1F NOT DUP5 AND PUSH2 0x19C8 DUP7 PUSH2 0x17B5 JUMP JUMPDEST PUSH0 JUMPDEST DUP3 DUP2 LT ISZERO PUSH2 0x19EF JUMPI DUP5 DUP10 ADD MLOAD DUP3 SSTORE PUSH1 0x1 DUP3 ADD SWAP2 POP PUSH1 0x20 DUP6 ADD SWAP5 POP PUSH1 0x20 DUP2 ADD SWAP1 POP PUSH2 0x19CA JUMP JUMPDEST DUP7 DUP4 LT ISZERO PUSH2 0x1A0C JUMPI DUP5 DUP10 ADD MLOAD PUSH2 0x1A08 PUSH1 0x1F DUP10 AND DUP3 PUSH2 0x191B JUMP JUMPDEST DUP4 SSTORE POP JUMPDEST PUSH1 0x1 PUSH1 0x2 DUP9 MUL ADD DUP9 SSTORE POP POP POP JUMPDEST POP POP POP POP POP POP JUMP INVALID LOG2 PUSH5 0x6970667358 0x22 SLT KECCAK256 INVALID 0xB5 MSTORE 0x4B GT 0xB4 LOG2 0xE6 SELFBALANCE PUSH6 0xE98D7F4297B2 CREATE 0xB5 BLOCKHASH PUSH21 0x836FAD6B9C473FDC7927943164736F6C6343000818 STOP CALLER "},"gasEstimates":{"creation":{"codeDepositCost":"1348600","executionCost":"infinite","totalCost":"infinite"},"external":{"approvers(address)":"2826","contribute()":"51029","getCampaignName()":"infinite","getContractBalance()":"423","getContributorsCount()":"2520","getDescription()":"infinite","getManager()":"2604","getMinimumContribution()":"2498","getRequests()":"infinite","getRequestsCount()":"2455","getSummary()":"infinite","requests(string)":"infinite","submitRequest(string)":"infinite","triggerCampaignRequest(string,string,uint256,uint256,address)":"infinite","voteRequest(string,bool)":"infinite"}},"methodIdentifiers":{"approvers(address)":"0a144391","contribute()":"d7bb99ba","getCampaignName()":"885e7c62","getContractBalance()":"6f9fb98a","getContributorsCount()":"feed5561","getDescription()":"1a092541","getManager()":"d5009584","getMinimumContribution()":"f84038b1","getRequests()":"8813ce12","getRequestsCount()":"3410452a","getSummary()":"4051ddac","requests(string)":"692d51d2","submitRequest(string)":"e2e46b52","triggerCampaignRequest(string,string,uint256,uint256,address)":"a7ac8000","voteRequest(string,bool)":"30e8fc5c"}},"storageLayout":{"storage":[{"astId":139,"contract":"Campaign.sol:Campaign","label":"_name","offset":0,"slot":"0","type":"t_string_storage"},{"astId":141,"contract":"Campaign.sol:Campaign","label":"_description","offset":0,"slot":"1","type":"t_string_storage"},{"astId":143,"contract":"Campaign.sol:Campaign","label":"_manager","offset":0,"slot":"2","type":"t_address"},{"astId":147,"contract":"Campaign.sol:Campaign","label":"approvers","offset":0,"slot":"3","type":"t_mapping(t_address,t_uint256)"},{"astId":149,"contract":"Campaign.sol:Campaign","label":"_approversCount","offset":0,"slot":"4","type":"t_uint256"},{"astId":151,"contract":"Campaign.sol:Campaign","label":"_minimumContribution","offset":0,"slot":"5","type":"t_uint256"},{"astId":154,"contract":"Campaign.sol:Campaign","label":"_requests","offset":0,"slot":"6","type":"t_array(t_string_storage)dyn_storage"},{"astId":159,"contract":"Campaign.sol:Campaign","label":"requests","offset":0,"slot":"7","type":"t_mapping(t_string_memory_ptr,t_struct(Request)122_storage)"},{"astId":161,"contract":"Campaign.sol:Campaign","label":"_requestsCount","offset":0,"slot":"8","type":"t_uint256"}],"types":{"t_address":{"encoding":"inplace","label":"address","numberOfBytes":"20"},"t_address_payable":{"encoding":"inplace","label":"address payable","numberOfBytes":"20"},"t_array(t_string_storage)dyn_storage":{"base":"t_string_storage","encoding":"dynamic_array","label":"string[]","numberOfBytes":"32"},"t_bool":{"encoding":"inplace","label":"bool","numberOfBytes":"1"},"t_mapping(t_address,t_bool)":{"encoding":"mapping","key":"t_address","label":"mapping(address => bool)","numberOfBytes":"32","value":"t_bool"},"t_mapping(t_address,t_uint256)":{"encoding":"mapping","key":"t_address","label":"mapping(address => uint256)","numberOfBytes":"32","value":"t_uint256"},"t_mapping(t_string_memory_ptr,t_struct(Request)122_storage)":{"encoding":"mapping","key":"t_string_memory_ptr","label":"mapping(string => struct Campaign.Request)","numberOfBytes":"32","value":"t_struct(Request)122_storage"},"t_string_memory_ptr":{"encoding":"bytes","label":"string","numberOfBytes":"32"},"t_string_storage":{"encoding":"bytes","label":"string","numberOfBytes":"32"},"t_struct(Request)122_storage":{"encoding":"inplace","label":"struct Campaign.Request","members":[{"astId":103,"contract":"Campaign.sol:Campaign","label":"name","offset":0,"slot":"0","type":"t_string_storage"},{"astId":105,"contract":"Campaign.sol:Campaign","label":"description","offset":0,"slot":"1","type":"t_string_storage"},{"astId":107,"contract":"Campaign.sol:Campaign","label":"amount","offset":0,"slot":"2","type":"t_uint256"},{"astId":109,"contract":"Campaign.sol:Campaign","label":"receiver","offset":0,"slot":"3","type":"t_address_payable"},{"astId":111,"contract":"Campaign.sol:Campaign","label":"approvalsCount","offset":0,"slot":"4","type":"t_uint256"},{"astId":113,"contract":"Campaign.sol:Campaign","label":"requiredApprovals","offset":0,"slot":"5","type":"t_uint256"},{"astId":115,"contract":"Campaign.sol:Campaign","label":"canSubmit","offset":0,"slot":"6","type":"t_bool"},{"astId":117,"contract":"Campaign.sol:Campaign","label":"complete","offset":1,"slot":"6","type":"t_bool"},{"astId":121,"contract":"Campaign.sol:Campaign","label":"approvers","offset":0,"slot":"7","type":"t_mapping(t_address,t_bool)"}],"numberOfBytes":"256"},"t_uint256":{"encoding":"inplace","label":"uint256","numberOfBytes":"32"}}},"userdoc":{"kind":"user","methods":{},"version":1}}