{"abi":[{"inputs":[{"internalType":"string","name":"name","type":"string"},{"internalType":"string","name":"description","type":"string"},{"internalType":"uint256","name":"minimum","type":"uint256"},{"internalType":"address","name":"mngr","type":"address"}],"stateMutability":"nonpayable","type":"constructor"},{"inputs":[],"name":"addFunds","outputs":[],"stateMutability":"payable","type":"function"},{"inputs":[{"internalType":"address","name":"","type":"address"}],"name":"approvers","outputs":[{"internalType":"uint256","name":"","type":"uint256"}],"stateMutability":"view","type":"function"},{"inputs":[{"internalType":"string","name":"reason","type":"string"}],"name":"cancelCampaign","outputs":[],"stateMutability":"nonpayable","type":"function"},{"inputs":[],"name":"claimFunds","outputs":[],"stateMutability":"nonpayable","type":"function"},{"inputs":[{"internalType":"string","name":"reqName","type":"string"},{"internalType":"string","name":"description","type":"string"}],"name":"claimRequest","outputs":[],"stateMutability":"nonpayable","type":"function"},{"inputs":[],"name":"contribute","outputs":[],"stateMutability":"payable","type":"function"},{"inputs":[],"name":"getCampaignName","outputs":[{"internalType":"string","name":"","type":"string"}],"stateMutability":"view","type":"function"},{"inputs":[],"name":"getContractBalance","outputs":[{"internalType":"uint256","name":"","type":"uint256"}],"stateMutability":"view","type":"function"},{"inputs":[],"name":"getContributorsCount","outputs":[{"internalType":"uint256","name":"","type":"uint256"}],"stateMutability":"view","type":"function"},{"inputs":[],"name":"getDescription","outputs":[{"internalType":"string","name":"","type":"string"}],"stateMutability":"view","type":"function"},{"inputs":[],"name":"getManager","outputs":[{"internalType":"address","name":"","type":"address"}],"stateMutability":"view","type":"function"},{"inputs":[],"name":"getMinimumContribution","outputs":[{"internalType":"uint256","name":"","type":"uint256"}],"stateMutability":"view","type":"function"},{"inputs":[],"name":"getRemainingBalance","outputs":[],"stateMutability":"nonpayable","type":"function"},{"inputs":[{"internalType":"string","name":"reqName","type":"string"}],"name":"getRequestClaims","outputs":[{"components":[{"internalType":"address","name":"contributor","type":"address"},{"internalType":"string","name":"description","type":"string"}],"internalType":"struct Campaign.RequestClaim[]","name":"","type":"tuple[]"}],"stateMutability":"view","type":"function"},{"inputs":[],"name":"getRequests","outputs":[{"components":[{"internalType":"string","name":"name","type":"string"},{"internalType":"string","name":"description","type":"string"},{"internalType":"uint256","name":"amount","type":"uint256"}],"internalType":"struct Campaign.RequestSummary[]","name":"","type":"tuple[]"}],"stateMutability":"view","type":"function"},{"inputs":[],"name":"getRequestsCount","outputs":[{"internalType":"uint256","name":"","type":"uint256"}],"stateMutability":"view","type":"function"},{"inputs":[],"name":"getSummary","outputs":[{"components":[{"internalType":"address","name":"manager","type":"address"},{"internalType":"string","name":"name","type":"string"},{"internalType":"string","name":"description","type":"string"},{"internalType":"uint256","name":"minContribution","type":"uint256"},{"internalType":"uint256","name":"balance","type":"uint256"},{"internalType":"uint256","name":"contributors","type":"uint256"},{"internalType":"uint256","name":"totalRequests","type":"uint256"},{"internalType":"bool","name":"isCancelled","type":"bool"},{"internalType":"string","name":"cancelReason","type":"string"}],"internalType":"struct Campaign.Summary","name":"","type":"tuple"}],"stateMutability":"view","type":"function"},{"inputs":[{"internalType":"string","name":"reqName","type":"string"},{"internalType":"string","name":"reason","type":"string"}],"name":"rejectRequest","outputs":[],"stateMutability":"nonpayable","type":"function"},{"inputs":[{"internalType":"string","name":"","type":"string"}],"name":"requests","outputs":[{"internalType":"string","name":"name","type":"string"},{"internalType":"string","name":"description","type":"string"},{"internalType":"uint256","name":"amount","type":"uint256"},{"internalType":"address payable","name":"receiver","type":"address"},{"internalType":"uint256","name":"approvalsCount","type":"uint256"},{"internalType":"uint256","name":"requiredApprovals","type":"uint256"},{"internalType":"uint256","name":"rejectionsCount","type":"uint256"},{"internalType":"uint256","name":"claimsCount","type":"uint256"},{"internalType":"bool","name":"canSubmit","type":"bool"},{"internalType":"bool","name":"complete","type":"bool"},{"internalType":"bool","name":"rejected","type":"bool"},{"internalType":"string","name":"rejectReason","type":"string"}],"stateMutability":"view","type":"function"},{"inputs":[{"internalType":"string","name":"reqName","type":"string"}],"name":"submitRequest","outputs":[],"stateMutability":"nonpayable","type":"function"},{"inputs":[{"internalType":"string","name":"name","type":"string"},{"internalType":"string","name":"description","type":"string"},{"internalType":"uint256","name":"amount","type":"uint256"},{"internalType":"uint256","name":"requiredApprovals","type":"uint256"},{"internalType":"address payable","name":"receiver","type":"address"}],"name":"triggerCampaignRequest","outputs":[],"stateMutability":"nonpayable","type":"function"},{"inputs":[{"internalType":"string","name":"reqName","type":"string"},{"internalType":"bool","name":"isApproval","type":"bool"}],"name":"voteRequest","outputs":[],"stateMutability":"nonpayable","type":"function"}],"devdoc":{"kind":"dev","methods":{},"version":1},"evm":{"assembly":"    /* \"Campaign.sol\":1142:8973  contract Campaign... */\n  mstore(0x40, 0x80)\n    /* \"Campaign.sol\":2440:2693  constructor (string memory name, string memory description, uint minimum, address mngr)... */\n  callvalue\n  dup1\n  iszero\n  tag_1\n  jumpi\n  0x00\n  dup1\n  revert\ntag_1:\n  pop\n  mload(0x40)\n  sub(codesize, bytecodeSize)\n  dup1\n  bytecodeSize\n  dup4\n  codecopy\n  dup2\n  dup2\n  add\n  0x40\n  mstore\n  dup2\n  add\n  swap1\n  tag_2\n  swap2\n  swap1\n  tag_3\n  jump\t// in\ntag_2:\n    /* \"Campaign.sol\":2560:2561  0 */\n  0x00\n    /* \"Campaign.sol\":2550:2557  minimum */\n  dup3\n    /* \"Campaign.sol\":2550:2561  minimum > 0 */\n  gt\n    /* \"Campaign.sol\":2542:2562  require(minimum > 0) */\n  tag_6\n  jumpi\n  0x00\n  dup1\n  revert\ntag_6:\n    /* \"Campaign.sol\":2583:2587  mngr */\n  dup1\n    /* \"Campaign.sol\":2572:2580  _manager */\n  0x02\n  0x00\n    /* \"Campaign.sol\":2572:2587  _manager = mngr */\n  0x0100\n  exp\n  dup2\n  sload\n  dup2\n  0xffffffffffffffffffffffffffffffffffffffff\n  mul\n  not\n  and\n  swap1\n  dup4\n  0xffffffffffffffffffffffffffffffffffffffff\n  and\n  mul\n  or\n  swap1\n  sstore\n  pop\n    /* \"Campaign.sol\":2605:2609  name */\n  dup4\n    /* \"Campaign.sol\":2597:2602  _name */\n  0x00\n    /* \"Campaign.sol\":2597:2609  _name = name */\n  swap1\n  dup2\n  tag_7\n  swap2\n  swap1\n  tag_8\n  jump\t// in\ntag_7:\n  pop\n    /* \"Campaign.sol\":2634:2645  description */\n  dup3\n    /* \"Campaign.sol\":2619:2631  _description */\n  0x01\n    /* \"Campaign.sol\":2619:2645  _description = description */\n  swap1\n  dup2\n  tag_9\n  swap2\n  swap1\n  tag_8\n  jump\t// in\ntag_9:\n  pop\n    /* \"Campaign.sol\":2679:2686  minimum */\n  dup2\n    /* \"Campaign.sol\":2656:2676  _minimumContribution */\n  0x05\n    /* \"Campaign.sol\":2656:2686  _minimumContribution = minimum */\n  dup2\n  swap1\n  sstore\n  pop\n    /* \"Campaign.sol\":2440:2693  constructor (string memory name, string memory description, uint minimum, address mngr)... */\n  pop\n  pop\n  pop\n  pop\n    /* \"Campaign.sol\":1142:8973  contract Campaign... */\n  jump(tag_10)\n    /* \"#utility.yul\":7:82   */\ntag_11:\n    /* \"#utility.yul\":40:46   */\n  0x00\n    /* \"#utility.yul\":73:75   */\n  0x40\n    /* \"#utility.yul\":67:76   */\n  mload\n    /* \"#utility.yul\":57:76   */\n  swap1\n  pop\n    /* \"#utility.yul\":7:82   */\n  swap1\n  jump\t// out\n    /* \"#utility.yul\":88:205   */\ntag_12:\n    /* \"#utility.yul\":197:198   */\n  0x00\n    /* \"#utility.yul\":194:195   */\n  dup1\n    /* \"#utility.yul\":187:199   */\n  revert\n    /* \"#utility.yul\":211:328   */\ntag_13:\n    /* \"#utility.yul\":320:321   */\n  0x00\n    /* \"#utility.yul\":317:318   */\n  dup1\n    /* \"#utility.yul\":310:322   */\n  revert\n    /* \"#utility.yul\":334:451   */\ntag_14:\n    /* \"#utility.yul\":443:444   */\n  0x00\n    /* \"#utility.yul\":440:441   */\n  dup1\n    /* \"#utility.yul\":433:445   */\n  revert\n    /* \"#utility.yul\":457:574   */\ntag_15:\n    /* \"#utility.yul\":566:567   */\n  0x00\n    /* \"#utility.yul\":563:564   */\n  dup1\n    /* \"#utility.yul\":556:568   */\n  revert\n    /* \"#utility.yul\":580:682   */\ntag_16:\n    /* \"#utility.yul\":621:627   */\n  0x00\n    /* \"#utility.yul\":672:674   */\n  0x1f\n    /* \"#utility.yul\":668:675   */\n  not\n    /* \"#utility.yul\":663:665   */\n  0x1f\n    /* \"#utility.yul\":656:661   */\n  dup4\n    /* \"#utility.yul\":652:666   */\n  add\n    /* \"#utility.yul\":648:676   */\n  and\n    /* \"#utility.yul\":638:676   */\n  swap1\n  pop\n    /* \"#utility.yul\":580:682   */\n  swap2\n  swap1\n  pop\n  jump\t// out\n    /* \"#utility.yul\":688:868   */\ntag_17:\n    /* \"#utility.yul\":736:813   */\n  0x4e487b7100000000000000000000000000000000000000000000000000000000\n    /* \"#utility.yul\":733:734   */\n  0x00\n    /* \"#utility.yul\":726:814   */\n  mstore\n    /* \"#utility.yul\":833:837   */\n  0x41\n    /* \"#utility.yul\":830:831   */\n  0x04\n    /* \"#utility.yul\":823:838   */\n  mstore\n    /* \"#utility.yul\":857:861   */\n  0x24\n    /* \"#utility.yul\":854:855   */\n  0x00\n    /* \"#utility.yul\":847:862   */\n  revert\n    /* \"#utility.yul\":874:1155   */\ntag_18:\n    /* \"#utility.yul\":957:984   */\n  tag_58\n    /* \"#utility.yul\":979:983   */\n  dup3\n    /* \"#utility.yul\":957:984   */\n  tag_16\n  jump\t// in\ntag_58:\n    /* \"#utility.yul\":949:955   */\n  dup2\n    /* \"#utility.yul\":945:985   */\n  add\n    /* \"#utility.yul\":1087:1093   */\n  dup2\n    /* \"#utility.yul\":1075:1085   */\n  dup2\n    /* \"#utility.yul\":1072:1094   */\n  lt\n    /* \"#utility.yul\":1051:1069   */\n  0xffffffffffffffff\n    /* \"#utility.yul\":1039:1049   */\n  dup3\n    /* \"#utility.yul\":1036:1070   */\n  gt\n    /* \"#utility.yul\":1033:1095   */\n  or\n    /* \"#utility.yul\":1030:1118   */\n  iszero\n  tag_59\n  jumpi\n    /* \"#utility.yul\":1098:1116   */\n  tag_60\n  tag_17\n  jump\t// in\ntag_60:\n    /* \"#utility.yul\":1030:1118   */\ntag_59:\n    /* \"#utility.yul\":1138:1148   */\n  dup1\n    /* \"#utility.yul\":1134:1136   */\n  0x40\n    /* \"#utility.yul\":1127:1149   */\n  mstore\n    /* \"#utility.yul\":917:1155   */\n  pop\n    /* \"#utility.yul\":874:1155   */\n  pop\n  pop\n  jump\t// out\n    /* \"#utility.yul\":1161:1290   */\ntag_19:\n    /* \"#utility.yul\":1195:1201   */\n  0x00\n    /* \"#utility.yul\":1222:1242   */\n  tag_62\n  tag_11\n  jump\t// in\ntag_62:\n    /* \"#utility.yul\":1212:1242   */\n  swap1\n  pop\n    /* \"#utility.yul\":1251:1284   */\n  tag_63\n    /* \"#utility.yul\":1279:1283   */\n  dup3\n    /* \"#utility.yul\":1271:1277   */\n  dup3\n    /* \"#utility.yul\":1251:1284   */\n  tag_18\n  jump\t// in\ntag_63:\n    /* \"#utility.yul\":1161:1290   */\n  swap2\n  swap1\n  pop\n  jump\t// out\n    /* \"#utility.yul\":1296:1604   */\ntag_20:\n    /* \"#utility.yul\":1358:1362   */\n  0x00\n    /* \"#utility.yul\":1448:1466   */\n  0xffffffffffffffff\n    /* \"#utility.yul\":1440:1446   */\n  dup3\n    /* \"#utility.yul\":1437:1467   */\n  gt\n    /* \"#utility.yul\":1434:1490   */\n  iszero\n  tag_65\n  jumpi\n    /* \"#utility.yul\":1470:1488   */\n  tag_66\n  tag_17\n  jump\t// in\ntag_66:\n    /* \"#utility.yul\":1434:1490   */\ntag_65:\n    /* \"#utility.yul\":1508:1537   */\n  tag_67\n    /* \"#utility.yul\":1530:1536   */\n  dup3\n    /* \"#utility.yul\":1508:1537   */\n  tag_16\n  jump\t// in\ntag_67:\n    /* \"#utility.yul\":1500:1537   */\n  swap1\n  pop\n    /* \"#utility.yul\":1592:1596   */\n  0x20\n    /* \"#utility.yul\":1586:1590   */\n  dup2\n    /* \"#utility.yul\":1582:1597   */\n  add\n    /* \"#utility.yul\":1574:1597   */\n  swap1\n  pop\n    /* \"#utility.yul\":1296:1604   */\n  swap2\n  swap1\n  pop\n  jump\t// out\n    /* \"#utility.yul\":1610:1856   */\ntag_21:\n    /* \"#utility.yul\":1691:1692   */\n  0x00\n    /* \"#utility.yul\":1701:1814   */\ntag_69:\n    /* \"#utility.yul\":1715:1721   */\n  dup4\n    /* \"#utility.yul\":1712:1713   */\n  dup2\n    /* \"#utility.yul\":1709:1722   */\n  lt\n    /* \"#utility.yul\":1701:1814   */\n  iszero\n  tag_71\n  jumpi\n    /* \"#utility.yul\":1800:1801   */\n  dup1\n    /* \"#utility.yul\":1795:1798   */\n  dup3\n    /* \"#utility.yul\":1791:1802   */\n  add\n    /* \"#utility.yul\":1785:1803   */\n  mload\n    /* \"#utility.yul\":1781:1782   */\n  dup2\n    /* \"#utility.yul\":1776:1779   */\n  dup5\n    /* \"#utility.yul\":1772:1783   */\n  add\n    /* \"#utility.yul\":1765:1804   */\n  mstore\n    /* \"#utility.yul\":1737:1739   */\n  0x20\n    /* \"#utility.yul\":1734:1735   */\n  dup2\n    /* \"#utility.yul\":1730:1740   */\n  add\n    /* \"#utility.yul\":1725:1740   */\n  swap1\n  pop\n    /* \"#utility.yul\":1701:1814   */\n  jump(tag_69)\ntag_71:\n    /* \"#utility.yul\":1848:1849   */\n  0x00\n    /* \"#utility.yul\":1839:1845   */\n  dup5\n    /* \"#utility.yul\":1834:1837   */\n  dup5\n    /* \"#utility.yul\":1830:1846   */\n  add\n    /* \"#utility.yul\":1823:1850   */\n  mstore\n    /* \"#utility.yul\":1672:1856   */\n  pop\n    /* \"#utility.yul\":1610:1856   */\n  pop\n  pop\n  pop\n  jump\t// out\n    /* \"#utility.yul\":1862:2296   */\ntag_22:\n    /* \"#utility.yul\":1951:1956   */\n  0x00\n    /* \"#utility.yul\":1976:2042   */\n  tag_73\n    /* \"#utility.yul\":1992:2041   */\n  tag_74\n    /* \"#utility.yul\":2034:2040   */\n  dup5\n    /* \"#utility.yul\":1992:2041   */\n  tag_20\n  jump\t// in\ntag_74:\n    /* \"#utility.yul\":1976:2042   */\n  tag_19\n  jump\t// in\ntag_73:\n    /* \"#utility.yul\":1967:2042   */\n  swap1\n  pop\n    /* \"#utility.yul\":2065:2071   */\n  dup3\n    /* \"#utility.yul\":2058:2063   */\n  dup2\n    /* \"#utility.yul\":2051:2072   */\n  mstore\n    /* \"#utility.yul\":2103:2107   */\n  0x20\n    /* \"#utility.yul\":2096:2101   */\n  dup2\n    /* \"#utility.yul\":2092:2108   */\n  add\n    /* \"#utility.yul\":2141:2144   */\n  dup5\n    /* \"#utility.yul\":2132:2138   */\n  dup5\n    /* \"#utility.yul\":2127:2130   */\n  dup5\n    /* \"#utility.yul\":2123:2139   */\n  add\n    /* \"#utility.yul\":2120:2145   */\n  gt\n    /* \"#utility.yul\":2117:2229   */\n  iszero\n  tag_75\n  jumpi\n    /* \"#utility.yul\":2148:2227   */\n  tag_76\n  tag_15\n  jump\t// in\ntag_76:\n    /* \"#utility.yul\":2117:2229   */\ntag_75:\n    /* \"#utility.yul\":2238:2290   */\n  tag_77\n    /* \"#utility.yul\":2283:2289   */\n  dup5\n    /* \"#utility.yul\":2278:2281   */\n  dup3\n    /* \"#utility.yul\":2273:2276   */\n  dup6\n    /* \"#utility.yul\":2238:2290   */\n  tag_21\n  jump\t// in\ntag_77:\n    /* \"#utility.yul\":1957:2296   */\n  pop\n    /* \"#utility.yul\":1862:2296   */\n  swap4\n  swap3\n  pop\n  pop\n  pop\n  jump\t// out\n    /* \"#utility.yul\":2316:2671   */\ntag_23:\n    /* \"#utility.yul\":2383:2388   */\n  0x00\n    /* \"#utility.yul\":2432:2435   */\n  dup3\n    /* \"#utility.yul\":2425:2429   */\n  0x1f\n    /* \"#utility.yul\":2417:2423   */\n  dup4\n    /* \"#utility.yul\":2413:2430   */\n  add\n    /* \"#utility.yul\":2409:2436   */\n  slt\n    /* \"#utility.yul\":2399:2521   */\n  tag_79\n  jumpi\n    /* \"#utility.yul\":2440:2519   */\n  tag_80\n  tag_14\n  jump\t// in\ntag_80:\n    /* \"#utility.yul\":2399:2521   */\ntag_79:\n    /* \"#utility.yul\":2550:2556   */\n  dup2\n    /* \"#utility.yul\":2544:2557   */\n  mload\n    /* \"#utility.yul\":2575:2665   */\n  tag_81\n    /* \"#utility.yul\":2661:2664   */\n  dup5\n    /* \"#utility.yul\":2653:2659   */\n  dup3\n    /* \"#utility.yul\":2646:2650   */\n  0x20\n    /* \"#utility.yul\":2638:2644   */\n  dup7\n    /* \"#utility.yul\":2634:2651   */\n  add\n    /* \"#utility.yul\":2575:2665   */\n  tag_22\n  jump\t// in\ntag_81:\n    /* \"#utility.yul\":2566:2665   */\n  swap2\n  pop\n    /* \"#utility.yul\":2389:2671   */\n  pop\n    /* \"#utility.yul\":2316:2671   */\n  swap3\n  swap2\n  pop\n  pop\n  jump\t// out\n    /* \"#utility.yul\":2677:2754   */\ntag_24:\n    /* \"#utility.yul\":2714:2721   */\n  0x00\n    /* \"#utility.yul\":2743:2748   */\n  dup2\n    /* \"#utility.yul\":2732:2748   */\n  swap1\n  pop\n    /* \"#utility.yul\":2677:2754   */\n  swap2\n  swap1\n  pop\n  jump\t// out\n    /* \"#utility.yul\":2760:2882   */\ntag_25:\n    /* \"#utility.yul\":2833:2857   */\n  tag_84\n    /* \"#utility.yul\":2851:2856   */\n  dup2\n    /* \"#utility.yul\":2833:2857   */\n  tag_24\n  jump\t// in\ntag_84:\n    /* \"#utility.yul\":2826:2831   */\n  dup2\n    /* \"#utility.yul\":2823:2858   */\n  eq\n    /* \"#utility.yul\":2813:2876   */\n  tag_85\n  jumpi\n    /* \"#utility.yul\":2872:2873   */\n  0x00\n    /* \"#utility.yul\":2869:2870   */\n  dup1\n    /* \"#utility.yul\":2862:2874   */\n  revert\n    /* \"#utility.yul\":2813:2876   */\ntag_85:\n    /* \"#utility.yul\":2760:2882   */\n  pop\n  jump\t// out\n    /* \"#utility.yul\":2888:3031   */\ntag_26:\n    /* \"#utility.yul\":2945:2950   */\n  0x00\n    /* \"#utility.yul\":2976:2982   */\n  dup2\n    /* \"#utility.yul\":2970:2983   */\n  mload\n    /* \"#utility.yul\":2961:2983   */\n  swap1\n  pop\n    /* \"#utility.yul\":2992:3025   */\n  tag_87\n    /* \"#utility.yul\":3019:3024   */\n  dup2\n    /* \"#utility.yul\":2992:3025   */\n  tag_25\n  jump\t// in\ntag_87:\n    /* \"#utility.yul\":2888:3031   */\n  swap3\n  swap2\n  pop\n  pop\n  jump\t// out\n    /* \"#utility.yul\":3037:3163   */\ntag_27:\n    /* \"#utility.yul\":3074:3081   */\n  0x00\n    /* \"#utility.yul\":3114:3156   */\n  0xffffffffffffffffffffffffffffffffffffffff\n    /* \"#utility.yul\":3107:3112   */\n  dup3\n    /* \"#utility.yul\":3103:3157   */\n  and\n    /* \"#utility.yul\":3092:3157   */\n  swap1\n  pop\n    /* \"#utility.yul\":3037:3163   */\n  swap2\n  swap1\n  pop\n  jump\t// out\n    /* \"#utility.yul\":3169:3265   */\ntag_28:\n    /* \"#utility.yul\":3206:3213   */\n  0x00\n    /* \"#utility.yul\":3235:3259   */\n  tag_90\n    /* \"#utility.yul\":3253:3258   */\n  dup3\n    /* \"#utility.yul\":3235:3259   */\n  tag_27\n  jump\t// in\ntag_90:\n    /* \"#utility.yul\":3224:3259   */\n  swap1\n  pop\n    /* \"#utility.yul\":3169:3265   */\n  swap2\n  swap1\n  pop\n  jump\t// out\n    /* \"#utility.yul\":3271:3393   */\ntag_29:\n    /* \"#utility.yul\":3344:3368   */\n  tag_92\n    /* \"#utility.yul\":3362:3367   */\n  dup2\n    /* \"#utility.yul\":3344:3368   */\n  tag_28\n  jump\t// in\ntag_92:\n    /* \"#utility.yul\":3337:3342   */\n  dup2\n    /* \"#utility.yul\":3334:3369   */\n  eq\n    /* \"#utility.yul\":3324:3387   */\n  tag_93\n  jumpi\n    /* \"#utility.yul\":3383:3384   */\n  0x00\n    /* \"#utility.yul\":3380:3381   */\n  dup1\n    /* \"#utility.yul\":3373:3385   */\n  revert\n    /* \"#utility.yul\":3324:3387   */\ntag_93:\n    /* \"#utility.yul\":3271:3393   */\n  pop\n  jump\t// out\n    /* \"#utility.yul\":3399:3542   */\ntag_30:\n    /* \"#utility.yul\":3456:3461   */\n  0x00\n    /* \"#utility.yul\":3487:3493   */\n  dup2\n    /* \"#utility.yul\":3481:3494   */\n  mload\n    /* \"#utility.yul\":3472:3494   */\n  swap1\n  pop\n    /* \"#utility.yul\":3503:3536   */\n  tag_95\n    /* \"#utility.yul\":3530:3535   */\n  dup2\n    /* \"#utility.yul\":3503:3536   */\n  tag_29\n  jump\t// in\ntag_95:\n    /* \"#utility.yul\":3399:3542   */\n  swap3\n  swap2\n  pop\n  pop\n  jump\t// out\n    /* \"#utility.yul\":3548:4714   */\ntag_3:\n    /* \"#utility.yul\":3665:3671   */\n  0x00\n    /* \"#utility.yul\":3673:3679   */\n  dup1\n    /* \"#utility.yul\":3681:3687   */\n  0x00\n    /* \"#utility.yul\":3689:3695   */\n  dup1\n    /* \"#utility.yul\":3738:3741   */\n  0x80\n    /* \"#utility.yul\":3726:3735   */\n  dup6\n    /* \"#utility.yul\":3717:3724   */\n  dup8\n    /* \"#utility.yul\":3713:3736   */\n  sub\n    /* \"#utility.yul\":3709:3742   */\n  slt\n    /* \"#utility.yul\":3706:3826   */\n  iszero\n  tag_97\n  jumpi\n    /* \"#utility.yul\":3745:3824   */\n  tag_98\n  tag_12\n  jump\t// in\ntag_98:\n    /* \"#utility.yul\":3706:3826   */\ntag_97:\n    /* \"#utility.yul\":3886:3887   */\n  0x00\n    /* \"#utility.yul\":3875:3884   */\n  dup6\n    /* \"#utility.yul\":3871:3888   */\n  add\n    /* \"#utility.yul\":3865:3889   */\n  mload\n    /* \"#utility.yul\":3916:3934   */\n  0xffffffffffffffff\n    /* \"#utility.yul\":3908:3914   */\n  dup2\n    /* \"#utility.yul\":3905:3935   */\n  gt\n    /* \"#utility.yul\":3902:4019   */\n  iszero\n  tag_99\n  jumpi\n    /* \"#utility.yul\":3938:4017   */\n  tag_100\n  tag_13\n  jump\t// in\ntag_100:\n    /* \"#utility.yul\":3902:4019   */\ntag_99:\n    /* \"#utility.yul\":4043:4117   */\n  tag_101\n    /* \"#utility.yul\":4109:4116   */\n  dup8\n    /* \"#utility.yul\":4100:4106   */\n  dup3\n    /* \"#utility.yul\":4089:4098   */\n  dup9\n    /* \"#utility.yul\":4085:4107   */\n  add\n    /* \"#utility.yul\":4043:4117   */\n  tag_23\n  jump\t// in\ntag_101:\n    /* \"#utility.yul\":4033:4117   */\n  swap5\n  pop\n    /* \"#utility.yul\":3836:4127   */\n  pop\n    /* \"#utility.yul\":4187:4189   */\n  0x20\n    /* \"#utility.yul\":4176:4185   */\n  dup6\n    /* \"#utility.yul\":4172:4190   */\n  add\n    /* \"#utility.yul\":4166:4191   */\n  mload\n    /* \"#utility.yul\":4218:4236   */\n  0xffffffffffffffff\n    /* \"#utility.yul\":4210:4216   */\n  dup2\n    /* \"#utility.yul\":4207:4237   */\n  gt\n    /* \"#utility.yul\":4204:4321   */\n  iszero\n  tag_102\n  jumpi\n    /* \"#utility.yul\":4240:4319   */\n  tag_103\n  tag_13\n  jump\t// in\ntag_103:\n    /* \"#utility.yul\":4204:4321   */\ntag_102:\n    /* \"#utility.yul\":4345:4419   */\n  tag_104\n    /* \"#utility.yul\":4411:4418   */\n  dup8\n    /* \"#utility.yul\":4402:4408   */\n  dup3\n    /* \"#utility.yul\":4391:4400   */\n  dup9\n    /* \"#utility.yul\":4387:4409   */\n  add\n    /* \"#utility.yul\":4345:4419   */\n  tag_23\n  jump\t// in\ntag_104:\n    /* \"#utility.yul\":4335:4419   */\n  swap4\n  pop\n    /* \"#utility.yul\":4137:4429   */\n  pop\n    /* \"#utility.yul\":4468:4470   */\n  0x40\n    /* \"#utility.yul\":4494:4558   */\n  tag_105\n    /* \"#utility.yul\":4550:4557   */\n  dup8\n    /* \"#utility.yul\":4541:4547   */\n  dup3\n    /* \"#utility.yul\":4530:4539   */\n  dup9\n    /* \"#utility.yul\":4526:4548   */\n  add\n    /* \"#utility.yul\":4494:4558   */\n  tag_26\n  jump\t// in\ntag_105:\n    /* \"#utility.yul\":4484:4558   */\n  swap3\n  pop\n    /* \"#utility.yul\":4439:4568   */\n  pop\n    /* \"#utility.yul\":4607:4609   */\n  0x60\n    /* \"#utility.yul\":4633:4697   */\n  tag_106\n    /* \"#utility.yul\":4689:4696   */\n  dup8\n    /* \"#utility.yul\":4680:4686   */\n  dup3\n    /* \"#utility.yul\":4669:4678   */\n  dup9\n    /* \"#utility.yul\":4665:4687   */\n  add\n    /* \"#utility.yul\":4633:4697   */\n  tag_30\n  jump\t// in\ntag_106:\n    /* \"#utility.yul\":4623:4697   */\n  swap2\n  pop\n    /* \"#utility.yul\":4578:4707   */\n  pop\n    /* \"#utility.yul\":3548:4714   */\n  swap3\n  swap6\n  swap2\n  swap5\n  pop\n  swap3\n  pop\n  jump\t// out\n    /* \"#utility.yul\":4720:4819   */\ntag_31:\n    /* \"#utility.yul\":4772:4778   */\n  0x00\n    /* \"#utility.yul\":4806:4811   */\n  dup2\n    /* \"#utility.yul\":4800:4812   */\n  mload\n    /* \"#utility.yul\":4790:4812   */\n  swap1\n  pop\n    /* \"#utility.yul\":4720:4819   */\n  swap2\n  swap1\n  pop\n  jump\t// out\n    /* \"#utility.yul\":4825:5005   */\ntag_32:\n    /* \"#utility.yul\":4873:4950   */\n  0x4e487b7100000000000000000000000000000000000000000000000000000000\n    /* \"#utility.yul\":4870:4871   */\n  0x00\n    /* \"#utility.yul\":4863:4951   */\n  mstore\n    /* \"#utility.yul\":4970:4974   */\n  0x22\n    /* \"#utility.yul\":4967:4968   */\n  0x04\n    /* \"#utility.yul\":4960:4975   */\n  mstore\n    /* \"#utility.yul\":4994:4998   */\n  0x24\n    /* \"#utility.yul\":4991:4992   */\n  0x00\n    /* \"#utility.yul\":4984:4999   */\n  revert\n    /* \"#utility.yul\":5011:5331   */\ntag_33:\n    /* \"#utility.yul\":5055:5061   */\n  0x00\n    /* \"#utility.yul\":5092:5093   */\n  0x02\n    /* \"#utility.yul\":5086:5090   */\n  dup3\n    /* \"#utility.yul\":5082:5094   */\n  div\n    /* \"#utility.yul\":5072:5094   */\n  swap1\n  pop\n    /* \"#utility.yul\":5139:5140   */\n  0x01\n    /* \"#utility.yul\":5133:5137   */\n  dup3\n    /* \"#utility.yul\":5129:5141   */\n  and\n    /* \"#utility.yul\":5160:5178   */\n  dup1\n    /* \"#utility.yul\":5150:5231   */\n  tag_110\n  jumpi\n    /* \"#utility.yul\":5216:5220   */\n  0x7f\n    /* \"#utility.yul\":5208:5214   */\n  dup3\n    /* \"#utility.yul\":5204:5221   */\n  and\n    /* \"#utility.yul\":5194:5221   */\n  swap2\n  pop\n    /* \"#utility.yul\":5150:5231   */\ntag_110:\n    /* \"#utility.yul\":5278:5280   */\n  0x20\n    /* \"#utility.yul\":5270:5276   */\n  dup3\n    /* \"#utility.yul\":5267:5281   */\n  lt\n    /* \"#utility.yul\":5247:5265   */\n  dup2\n    /* \"#utility.yul\":5244:5282   */\n  sub\n    /* \"#utility.yul\":5241:5325   */\n  tag_111\n  jumpi\n    /* \"#utility.yul\":5297:5315   */\n  tag_112\n  tag_32\n  jump\t// in\ntag_112:\n    /* \"#utility.yul\":5241:5325   */\ntag_111:\n    /* \"#utility.yul\":5062:5331   */\n  pop\n    /* \"#utility.yul\":5011:5331   */\n  swap2\n  swap1\n  pop\n  jump\t// out\n    /* \"#utility.yul\":5337:5478   */\ntag_34:\n    /* \"#utility.yul\":5386:5390   */\n  0x00\n    /* \"#utility.yul\":5409:5412   */\n  dup2\n    /* \"#utility.yul\":5401:5412   */\n  swap1\n  pop\n    /* \"#utility.yul\":5432:5435   */\n  dup2\n    /* \"#utility.yul\":5429:5430   */\n  0x00\n    /* \"#utility.yul\":5422:5436   */\n  mstore\n    /* \"#utility.yul\":5466:5470   */\n  0x20\n    /* \"#utility.yul\":5463:5464   */\n  0x00\n    /* \"#utility.yul\":5453:5471   */\n  keccak256\n    /* \"#utility.yul\":5445:5471   */\n  swap1\n  pop\n    /* \"#utility.yul\":5337:5478   */\n  swap2\n  swap1\n  pop\n  jump\t// out\n    /* \"#utility.yul\":5484:5577   */\ntag_35:\n    /* \"#utility.yul\":5521:5527   */\n  0x00\n    /* \"#utility.yul\":5568:5570   */\n  0x20\n    /* \"#utility.yul\":5563:5565   */\n  0x1f\n    /* \"#utility.yul\":5556:5561   */\n  dup4\n    /* \"#utility.yul\":5552:5566   */\n  add\n    /* \"#utility.yul\":5548:5571   */\n  div\n    /* \"#utility.yul\":5538:5571   */\n  swap1\n  pop\n    /* \"#utility.yul\":5484:5577   */\n  swap2\n  swap1\n  pop\n  jump\t// out\n    /* \"#utility.yul\":5583:5690   */\ntag_36:\n    /* \"#utility.yul\":5627:5635   */\n  0x00\n    /* \"#utility.yul\":5677:5682   */\n  dup3\n    /* \"#utility.yul\":5671:5675   */\n  dup3\n    /* \"#utility.yul\":5667:5683   */\n  shl\n    /* \"#utility.yul\":5646:5683   */\n  swap1\n  pop\n    /* \"#utility.yul\":5583:5690   */\n  swap3\n  swap2\n  pop\n  pop\n  jump\t// out\n    /* \"#utility.yul\":5696:6089   */\ntag_37:\n    /* \"#utility.yul\":5765:5771   */\n  0x00\n    /* \"#utility.yul\":5815:5816   */\n  0x08\n    /* \"#utility.yul\":5803:5813   */\n  dup4\n    /* \"#utility.yul\":5799:5817   */\n  mul\n    /* \"#utility.yul\":5838:5935   */\n  tag_117\n    /* \"#utility.yul\":5868:5934   */\n  0xffffffffffffffffffffffffffffffffffffffffffffffffffffffffffffffff\n    /* \"#utility.yul\":5857:5866   */\n  dup3\n    /* \"#utility.yul\":5838:5935   */\n  tag_36\n  jump\t// in\ntag_117:\n    /* \"#utility.yul\":5956:5995   */\n  tag_118\n    /* \"#utility.yul\":5986:5994   */\n  dup7\n    /* \"#utility.yul\":5975:5984   */\n  dup4\n    /* \"#utility.yul\":5956:5995   */\n  tag_36\n  jump\t// in\ntag_118:\n    /* \"#utility.yul\":5944:5995   */\n  swap6\n  pop\n    /* \"#utility.yul\":6028:6032   */\n  dup1\n    /* \"#utility.yul\":6024:6033   */\n  not\n    /* \"#utility.yul\":6017:6022   */\n  dup5\n    /* \"#utility.yul\":6013:6034   */\n  and\n    /* \"#utility.yul\":6004:6034   */\n  swap4\n  pop\n    /* \"#utility.yul\":6077:6081   */\n  dup1\n    /* \"#utility.yul\":6067:6075   */\n  dup7\n    /* \"#utility.yul\":6063:6082   */\n  and\n    /* \"#utility.yul\":6056:6061   */\n  dup5\n    /* \"#utility.yul\":6053:6083   */\n  or\n    /* \"#utility.yul\":6043:6083   */\n  swap3\n  pop\n    /* \"#utility.yul\":5772:6089   */\n  pop\n  pop\n    /* \"#utility.yul\":5696:6089   */\n  swap4\n  swap3\n  pop\n  pop\n  pop\n  jump\t// out\n    /* \"#utility.yul\":6095:6155   */\ntag_38:\n    /* \"#utility.yul\":6123:6126   */\n  0x00\n    /* \"#utility.yul\":6144:6149   */\n  dup2\n    /* \"#utility.yul\":6137:6149   */\n  swap1\n  pop\n    /* \"#utility.yul\":6095:6155   */\n  swap2\n  swap1\n  pop\n  jump\t// out\n    /* \"#utility.yul\":6161:6303   */\ntag_39:\n    /* \"#utility.yul\":6211:6220   */\n  0x00\n    /* \"#utility.yul\":6244:6297   */\n  tag_121\n    /* \"#utility.yul\":6262:6296   */\n  tag_122\n    /* \"#utility.yul\":6271:6295   */\n  tag_123\n    /* \"#utility.yul\":6289:6294   */\n  dup5\n    /* \"#utility.yul\":6271:6295   */\n  tag_24\n  jump\t// in\ntag_123:\n    /* \"#utility.yul\":6262:6296   */\n  tag_38\n  jump\t// in\ntag_122:\n    /* \"#utility.yul\":6244:6297   */\n  tag_24\n  jump\t// in\ntag_121:\n    /* \"#utility.yul\":6231:6297   */\n  swap1\n  pop\n    /* \"#utility.yul\":6161:6303   */\n  swap2\n  swap1\n  pop\n  jump\t// out\n    /* \"#utility.yul\":6309:6384   */\ntag_40:\n    /* \"#utility.yul\":6352:6355   */\n  0x00\n    /* \"#utility.yul\":6373:6378   */\n  dup2\n    /* \"#utility.yul\":6366:6378   */\n  swap1\n  pop\n    /* \"#utility.yul\":6309:6384   */\n  swap2\n  swap1\n  pop\n  jump\t// out\n    /* \"#utility.yul\":6390:6659   */\ntag_41:\n    /* \"#utility.yul\":6500:6539   */\n  tag_126\n    /* \"#utility.yul\":6531:6538   */\n  dup4\n    /* \"#utility.yul\":6500:6539   */\n  tag_39\n  jump\t// in\ntag_126:\n    /* \"#utility.yul\":6561:6652   */\n  tag_127\n    /* \"#utility.yul\":6610:6651   */\n  tag_128\n    /* \"#utility.yul\":6634:6650   */\n  dup3\n    /* \"#utility.yul\":6610:6651   */\n  tag_40\n  jump\t// in\ntag_128:\n    /* \"#utility.yul\":6602:6608   */\n  dup5\n    /* \"#utility.yul\":6595:6599   */\n  dup5\n    /* \"#utility.yul\":6589:6600   */\n  sload\n    /* \"#utility.yul\":6561:6652   */\n  tag_37\n  jump\t// in\ntag_127:\n    /* \"#utility.yul\":6555:6559   */\n  dup3\n    /* \"#utility.yul\":6548:6653   */\n  sstore\n    /* \"#utility.yul\":6466:6659   */\n  pop\n    /* \"#utility.yul\":6390:6659   */\n  pop\n  pop\n  pop\n  jump\t// out\n    /* \"#utility.yul\":6665:6738   */\ntag_42:\n    /* \"#utility.yul\":6710:6713   */\n  0x00\n    /* \"#utility.yul\":6665:6738   */\n  swap1\n  jump\t// out\n    /* \"#utility.yul\":6744:6933   */\ntag_43:\n    /* \"#utility.yul\":6821:6853   */\n  tag_131\n  tag_42\n  jump\t// in\ntag_131:\n    /* \"#utility.yul\":6862:6927   */\n  tag_132\n    /* \"#utility.yul\":6920:6926   */\n  dup2\n    /* \"#utility.yul\":6912:6918   */\n  dup5\n    /* \"#utility.yul\":6906:6910   */\n  dup5\n    /* \"#utility.yul\":6862:6927   */\n  tag_41\n  jump\t// in\ntag_132:\n    /* \"#utility.yul\":6797:6933   */\n  pop\n    /* \"#utility.yul\":6744:6933   */\n  pop\n  pop\n  jump\t// out\n    /* \"#utility.yul\":6939:7125   */\ntag_44:\n    /* \"#utility.yul\":6999:7119   */\ntag_134:\n    /* \"#utility.yul\":7016:7019   */\n  dup2\n    /* \"#utility.yul\":7009:7014   */\n  dup2\n    /* \"#utility.yul\":7006:7020   */\n  lt\n    /* \"#utility.yul\":6999:7119   */\n  iszero\n  tag_136\n  jumpi\n    /* \"#utility.yul\":7070:7109   */\n  tag_137\n    /* \"#utility.yul\":7107:7108   */\n  0x00\n    /* \"#utility.yul\":7100:7105   */\n  dup3\n    /* \"#utility.yul\":7070:7109   */\n  tag_43\n  jump\t// in\ntag_137:\n    /* \"#utility.yul\":7043:7044   */\n  0x01\n    /* \"#utility.yul\":7036:7041   */\n  dup2\n    /* \"#utility.yul\":7032:7045   */\n  add\n    /* \"#utility.yul\":7023:7045   */\n  swap1\n  pop\n    /* \"#utility.yul\":6999:7119   */\n  jump(tag_134)\ntag_136:\n    /* \"#utility.yul\":6939:7125   */\n  pop\n  pop\n  jump\t// out\n    /* \"#utility.yul\":7131:7674   */\ntag_45:\n    /* \"#utility.yul\":7232:7234   */\n  0x1f\n    /* \"#utility.yul\":7227:7230   */\n  dup3\n    /* \"#utility.yul\":7224:7235   */\n  gt\n    /* \"#utility.yul\":7221:7667   */\n  iszero\n  tag_139\n  jumpi\n    /* \"#utility.yul\":7266:7304   */\n  tag_140\n    /* \"#utility.yul\":7298:7303   */\n  dup2\n    /* \"#utility.yul\":7266:7304   */\n  tag_34\n  jump\t// in\ntag_140:\n    /* \"#utility.yul\":7350:7379   */\n  tag_141\n    /* \"#utility.yul\":7368:7378   */\n  dup5\n    /* \"#utility.yul\":7350:7379   */\n  tag_35\n  jump\t// in\ntag_141:\n    /* \"#utility.yul\":7340:7348   */\n  dup2\n    /* \"#utility.yul\":7336:7380   */\n  add\n    /* \"#utility.yul\":7533:7535   */\n  0x20\n    /* \"#utility.yul\":7521:7531   */\n  dup6\n    /* \"#utility.yul\":7518:7536   */\n  lt\n    /* \"#utility.yul\":7515:7564   */\n  iszero\n  tag_142\n  jumpi\n    /* \"#utility.yul\":7554:7562   */\n  dup2\n    /* \"#utility.yul\":7539:7562   */\n  swap1\n  pop\n    /* \"#utility.yul\":7515:7564   */\ntag_142:\n    /* \"#utility.yul\":7577:7657   */\n  tag_143\n    /* \"#utility.yul\":7633:7655   */\n  tag_144\n    /* \"#utility.yul\":7651:7654   */\n  dup6\n    /* \"#utility.yul\":7633:7655   */\n  tag_35\n  jump\t// in\ntag_144:\n    /* \"#utility.yul\":7623:7631   */\n  dup4\n    /* \"#utility.yul\":7619:7656   */\n  add\n    /* \"#utility.yul\":7606:7617   */\n  dup3\n    /* \"#utility.yul\":7577:7657   */\n  tag_44\n  jump\t// in\ntag_143:\n    /* \"#utility.yul\":7236:7667   */\n  pop\n  pop\n    /* \"#utility.yul\":7221:7667   */\ntag_139:\n    /* \"#utility.yul\":7131:7674   */\n  pop\n  pop\n  pop\n  jump\t// out\n    /* \"#utility.yul\":7680:7797   */\ntag_46:\n    /* \"#utility.yul\":7734:7742   */\n  0x00\n    /* \"#utility.yul\":7784:7789   */\n  dup3\n    /* \"#utility.yul\":7778:7782   */\n  dup3\n    /* \"#utility.yul\":7774:7790   */\n  shr\n    /* \"#utility.yul\":7753:7790   */\n  swap1\n  pop\n    /* \"#utility.yul\":7680:7797   */\n  swap3\n  swap2\n  pop\n  pop\n  jump\t// out\n    /* \"#utility.yul\":7803:7972   */\ntag_47:\n    /* \"#utility.yul\":7847:7853   */\n  0x00\n    /* \"#utility.yul\":7880:7931   */\n  tag_147\n    /* \"#utility.yul\":7928:7929   */\n  0x00\n    /* \"#utility.yul\":7924:7930   */\n  not\n    /* \"#utility.yul\":7916:7921   */\n  dup5\n    /* \"#utility.yul\":7913:7914   */\n  0x08\n    /* \"#utility.yul\":7909:7922   */\n  mul\n    /* \"#utility.yul\":7880:7931   */\n  tag_46\n  jump\t// in\ntag_147:\n    /* \"#utility.yul\":7876:7932   */\n  not\n    /* \"#utility.yul\":7961:7965   */\n  dup1\n    /* \"#utility.yul\":7955:7959   */\n  dup4\n    /* \"#utility.yul\":7951:7966   */\n  and\n    /* \"#utility.yul\":7941:7966   */\n  swap2\n  pop\n    /* \"#utility.yul\":7854:7972   */\n  pop\n    /* \"#utility.yul\":7803:7972   */\n  swap3\n  swap2\n  pop\n  pop\n  jump\t// out\n    /* \"#utility.yul\":7977:8272   */\ntag_48:\n    /* \"#utility.yul\":8053:8057   */\n  0x00\n    /* \"#utility.yul\":8199:8228   */\n  tag_149\n    /* \"#utility.yul\":8224:8227   */\n  dup4\n    /* \"#utility.yul\":8218:8222   */\n  dup4\n    /* \"#utility.yul\":8199:8228   */\n  tag_47\n  jump\t// in\ntag_149:\n    /* \"#utility.yul\":8191:8228   */\n  swap2\n  pop\n    /* \"#utility.yul\":8261:8264   */\n  dup3\n    /* \"#utility.yul\":8258:8259   */\n  0x02\n    /* \"#utility.yul\":8254:8265   */\n  mul\n    /* \"#utility.yul\":8248:8252   */\n  dup3\n    /* \"#utility.yul\":8245:8266   */\n  or\n    /* \"#utility.yul\":8237:8266   */\n  swap1\n  pop\n    /* \"#utility.yul\":7977:8272   */\n  swap3\n  swap2\n  pop\n  pop\n  jump\t// out\n    /* \"#utility.yul\":8277:9672   */\ntag_8:\n    /* \"#utility.yul\":8394:8431   */\n  tag_151\n    /* \"#utility.yul\":8427:8430   */\n  dup3\n    /* \"#utility.yul\":8394:8431   */\n  tag_31\n  jump\t// in\ntag_151:\n    /* \"#utility.yul\":8496:8514   */\n  0xffffffffffffffff\n    /* \"#utility.yul\":8488:8494   */\n  dup2\n    /* \"#utility.yul\":8485:8515   */\n  gt\n    /* \"#utility.yul\":8482:8538   */\n  iszero\n  tag_152\n  jumpi\n    /* \"#utility.yul\":8518:8536   */\n  tag_153\n  tag_17\n  jump\t// in\ntag_153:\n    /* \"#utility.yul\":8482:8538   */\ntag_152:\n    /* \"#utility.yul\":8562:8600   */\n  tag_154\n    /* \"#utility.yul\":8594:8598   */\n  dup3\n    /* \"#utility.yul\":8588:8599   */\n  sload\n    /* \"#utility.yul\":8562:8600   */\n  tag_33\n  jump\t// in\ntag_154:\n    /* \"#utility.yul\":8647:8714   */\n  tag_155\n    /* \"#utility.yul\":8707:8713   */\n  dup3\n    /* \"#utility.yul\":8699:8705   */\n  dup3\n    /* \"#utility.yul\":8693:8697   */\n  dup6\n    /* \"#utility.yul\":8647:8714   */\n  tag_45\n  jump\t// in\ntag_155:\n    /* \"#utility.yul\":8741:8742   */\n  0x00\n    /* \"#utility.yul\":8765:8769   */\n  0x20\n    /* \"#utility.yul\":8752:8769   */\n  swap1\n  pop\n    /* \"#utility.yul\":8797:8799   */\n  0x1f\n    /* \"#utility.yul\":8789:8795   */\n  dup4\n    /* \"#utility.yul\":8786:8800   */\n  gt\n    /* \"#utility.yul\":8814:8815   */\n  0x01\n    /* \"#utility.yul\":8809:9427   */\n  dup2\n  eq\n  tag_157\n  jumpi\n    /* \"#utility.yul\":9471:9472   */\n  0x00\n    /* \"#utility.yul\":9488:9494   */\n  dup5\n    /* \"#utility.yul\":9485:9562   */\n  iszero\n  tag_158\n  jumpi\n    /* \"#utility.yul\":9537:9546   */\n  dup3\n    /* \"#utility.yul\":9532:9535   */\n  dup8\n    /* \"#utility.yul\":9528:9547   */\n  add\n    /* \"#utility.yul\":9522:9548   */\n  mload\n    /* \"#utility.yul\":9513:9548   */\n  swap1\n  pop\n    /* \"#utility.yul\":9485:9562   */\ntag_158:\n    /* \"#utility.yul\":9588:9655   */\n  tag_159\n    /* \"#utility.yul\":9648:9654   */\n  dup6\n    /* \"#utility.yul\":9641:9646   */\n  dup3\n    /* \"#utility.yul\":9588:9655   */\n  tag_48\n  jump\t// in\ntag_159:\n    /* \"#utility.yul\":9582:9586   */\n  dup7\n    /* \"#utility.yul\":9575:9656   */\n  sstore\n    /* \"#utility.yul\":9444:9666   */\n  pop\n    /* \"#utility.yul\":8779:9666   */\n  jump(tag_156)\n    /* \"#utility.yul\":8809:9427   */\ntag_157:\n    /* \"#utility.yul\":8861:8865   */\n  0x1f\n    /* \"#utility.yul\":8857:8866   */\n  not\n    /* \"#utility.yul\":8849:8855   */\n  dup5\n    /* \"#utility.yul\":8845:8867   */\n  and\n    /* \"#utility.yul\":8895:8932   */\n  tag_160\n    /* \"#utility.yul\":8927:8931   */\n  dup7\n    /* \"#utility.yul\":8895:8932   */\n  tag_34\n  jump\t// in\ntag_160:\n    /* \"#utility.yul\":8954:8955   */\n  0x00\n    /* \"#utility.yul\":8968:9176   */\ntag_161:\n    /* \"#utility.yul\":8982:8989   */\n  dup3\n    /* \"#utility.yul\":8979:8980   */\n  dup2\n    /* \"#utility.yul\":8976:8990   */\n  lt\n    /* \"#utility.yul\":8968:9176   */\n  iszero\n  tag_163\n  jumpi\n    /* \"#utility.yul\":9061:9070   */\n  dup5\n    /* \"#utility.yul\":9056:9059   */\n  dup10\n    /* \"#utility.yul\":9052:9071   */\n  add\n    /* \"#utility.yul\":9046:9072   */\n  mload\n    /* \"#utility.yul\":9038:9044   */\n  dup3\n    /* \"#utility.yul\":9031:9073   */\n  sstore\n    /* \"#utility.yul\":9112:9113   */\n  0x01\n    /* \"#utility.yul\":9104:9110   */\n  dup3\n    /* \"#utility.yul\":9100:9114   */\n  add\n    /* \"#utility.yul\":9090:9114   */\n  swap2\n  pop\n    /* \"#utility.yul\":9159:9161   */\n  0x20\n    /* \"#utility.yul\":9148:9157   */\n  dup6\n    /* \"#utility.yul\":9144:9162   */\n  add\n    /* \"#utility.yul\":9131:9162   */\n  swap5\n  pop\n    /* \"#utility.yul\":9005:9009   */\n  0x20\n    /* \"#utility.yul\":9002:9003   */\n  dup2\n    /* \"#utility.yul\":8998:9010   */\n  add\n    /* \"#utility.yul\":8993:9010   */\n  swap1\n  pop\n    /* \"#utility.yul\":8968:9176   */\n  jump(tag_161)\ntag_163:\n    /* \"#utility.yul\":9204:9210   */\n  dup7\n    /* \"#utility.yul\":9195:9202   */\n  dup4\n    /* \"#utility.yul\":9192:9211   */\n  lt\n    /* \"#utility.yul\":9189:9368   */\n  iszero\n  tag_164\n  jumpi\n    /* \"#utility.yul\":9262:9271   */\n  dup5\n    /* \"#utility.yul\":9257:9260   */\n  dup10\n    /* \"#utility.yul\":9253:9272   */\n  add\n    /* \"#utility.yul\":9247:9273   */\n  mload\n    /* \"#utility.yul\":9305:9353   */\n  tag_165\n    /* \"#utility.yul\":9347:9351   */\n  0x1f\n    /* \"#utility.yul\":9339:9345   */\n  dup10\n    /* \"#utility.yul\":9335:9352   */\n  and\n    /* \"#utility.yul\":9324:9333   */\n  dup3\n    /* \"#utility.yul\":9305:9353   */\n  tag_47\n  jump\t// in\ntag_165:\n    /* \"#utility.yul\":9297:9303   */\n  dup4\n    /* \"#utility.yul\":9290:9354   */\n  sstore\n    /* \"#utility.yul\":9212:9368   */\n  pop\n    /* \"#utility.yul\":9189:9368   */\ntag_164:\n    /* \"#utility.yul\":9414:9415   */\n  0x01\n    /* \"#utility.yul\":9410:9411   */\n  0x02\n    /* \"#utility.yul\":9402:9408   */\n  dup9\n    /* \"#utility.yul\":9398:9412   */\n  mul\n    /* \"#utility.yul\":9394:9416   */\n  add\n    /* \"#utility.yul\":9388:9392   */\n  dup9\n    /* \"#utility.yul\":9381:9417   */\n  sstore\n    /* \"#utility.yul\":8816:9427   */\n  pop\n  pop\n  pop\n    /* \"#utility.yul\":8779:9666   */\ntag_156:\n  pop\n    /* \"#utility.yul\":8369:9672   */\n  pop\n  pop\n  pop\n    /* \"#utility.yul\":8277:9672   */\n  pop\n  pop\n  jump\t// out\n    /* \"Campaign.sol\":1142:8973  contract Campaign... */\ntag_10:\n  dataSize(sub_0)\n  dup1\n  dataOffset(sub_0)\n  0x00\n  codecopy\n  0x00\n  return\nstop\n\nsub_0: assembly {\n        /* \"Campaign.sol\":1142:8973  contract Campaign... */\n      mstore(0x40, 0x80)\n      jumpi(tag_1, lt(calldatasize, 0x04))\n      shr(0xe0, calldataload(0x00))\n      dup1\n      0x885e7c62\n      gt\n      tag_24\n      jumpi\n      dup1\n      0xd7bb99ba\n      gt\n      tag_25\n      jumpi\n      dup1\n      0xd7bb99ba\n      eq\n      tag_18\n      jumpi\n      dup1\n      0xe2e46b52\n      eq\n      tag_19\n      jumpi\n      dup1\n      0xe35d66a8\n      eq\n      tag_20\n      jumpi\n      dup1\n      0xf0190215\n      eq\n      tag_21\n      jumpi\n      dup1\n      0xf84038b1\n      eq\n      tag_22\n      jumpi\n      dup1\n      0xfeed5561\n      eq\n      tag_23\n      jumpi\n      jump(tag_1)\n    tag_25:\n      dup1\n      0x885e7c62\n      eq\n      tag_13\n      jumpi\n      dup1\n      0xa26759cb\n      eq\n      tag_14\n      jumpi\n      dup1\n      0xa7ac8000\n      eq\n      tag_15\n      jumpi\n      dup1\n      0xac307773\n      eq\n      tag_16\n      jumpi\n      dup1\n      0xd5009584\n      eq\n      tag_17\n      jumpi\n      jump(tag_1)\n    tag_24:\n      dup1\n      0x4051ddac\n      gt\n      tag_26\n      jumpi\n      dup1\n      0x4051ddac\n      eq\n      tag_7\n      jumpi\n      dup1\n      0x692d51d2\n      eq\n      tag_8\n      jumpi\n      dup1\n      0x6f9fb98a\n      eq\n      tag_9\n      jumpi\n      dup1\n      0x72a8d706\n      eq\n      tag_10\n      jumpi\n      dup1\n      0x7d6e5b9e\n      eq\n      tag_11\n      jumpi\n      dup1\n      0x8813ce12\n      eq\n      tag_12\n      jumpi\n      jump(tag_1)\n    tag_26:\n      dup1\n      0x0a144391\n      eq\n      tag_2\n      jumpi\n      dup1\n      0x1a092541\n      eq\n      tag_3\n      jumpi\n      dup1\n      0x2fba2c85\n      eq\n      tag_4\n      jumpi\n      dup1\n      0x30e8fc5c\n      eq\n      tag_5\n      jumpi\n      dup1\n      0x3410452a\n      eq\n      tag_6\n      jumpi\n    tag_1:\n      0x00\n      dup1\n      revert\n        /* \"Campaign.sol\":2136:2177  mapping(address => uint) public approvers */\n    tag_2:\n      callvalue\n      dup1\n      iszero\n      tag_27\n      jumpi\n      0x00\n      dup1\n      revert\n    tag_27:\n      pop\n      tag_28\n      0x04\n      dup1\n      calldatasize\n      sub\n      dup2\n      add\n      swap1\n      tag_29\n      swap2\n      swap1\n      tag_30\n      jump\t// in\n    tag_29:\n      tag_31\n      jump\t// in\n    tag_28:\n      mload(0x40)\n      tag_32\n      swap2\n      swap1\n      tag_33\n      jump\t// in\n    tag_32:\n      mload(0x40)\n      dup1\n      swap2\n      sub\n      swap1\n      return\n        /* \"Campaign.sol\":2898:3002  function getDescription() external view returns (string memory)... */\n    tag_3:\n      callvalue\n      dup1\n      iszero\n      tag_34\n      jumpi\n      0x00\n      dup1\n      revert\n    tag_34:\n      pop\n      tag_35\n      tag_36\n      jump\t// in\n    tag_35:\n      mload(0x40)\n      tag_37\n      swap2\n      swap1\n      tag_38\n      jump\t// in\n    tag_37:\n      mload(0x40)\n      dup1\n      swap2\n      sub\n      swap1\n      return\n        /* \"Campaign.sol\":8604:8789  function getRemainingBalance() external restricted {... */\n    tag_4:\n      callvalue\n      dup1\n      iszero\n      tag_39\n      jumpi\n      0x00\n      dup1\n      revert\n    tag_39:\n      pop\n      tag_40\n      tag_41\n      jump\t// in\n    tag_40:\n      stop\n        /* \"Campaign.sol\":5416:6495  function voteRequest(string memory reqName, bool isApproval ) external forContributors... */\n    tag_5:\n      callvalue\n      dup1\n      iszero\n      tag_42\n      jumpi\n      0x00\n      dup1\n      revert\n    tag_42:\n      pop\n      tag_43\n      0x04\n      dup1\n      calldatasize\n      sub\n      dup2\n      add\n      swap1\n      tag_44\n      swap2\n      swap1\n      tag_45\n      jump\t// in\n    tag_44:\n      tag_46\n      jump\t// in\n    tag_43:\n      stop\n        /* \"Campaign.sol\":3328:3421  function getRequestsCount() external view returns(uint){... */\n    tag_6:\n      callvalue\n      dup1\n      iszero\n      tag_47\n      jumpi\n      0x00\n      dup1\n      revert\n    tag_47:\n      pop\n      tag_48\n      tag_49\n      jump\t// in\n    tag_48:\n      mload(0x40)\n      tag_50\n      swap2\n      swap1\n      tag_33\n      jump\t// in\n    tag_50:\n      mload(0x40)\n      dup1\n      swap2\n      sub\n      swap1\n      return\n        /* \"Campaign.sol\":3543:4051  function getSummary() external view returns(Summary memory)... */\n    tag_7:\n      callvalue\n      dup1\n      iszero\n      tag_51\n      jumpi\n      0x00\n      dup1\n      revert\n    tag_51:\n      pop\n      tag_52\n      tag_53\n      jump\t// in\n    tag_52:\n      mload(0x40)\n      tag_54\n      swap2\n      swap1\n      tag_55\n      jump\t// in\n    tag_54:\n      mload(0x40)\n      dup1\n      swap2\n      sub\n      swap1\n      return\n        /* \"Campaign.sol\":2296:2338  mapping(string => Request) public requests */\n    tag_8:\n      callvalue\n      dup1\n      iszero\n      tag_56\n      jumpi\n      0x00\n      dup1\n      revert\n    tag_56:\n      pop\n      tag_57\n      0x04\n      dup1\n      calldatasize\n      sub\n      dup2\n      add\n      swap1\n      tag_58\n      swap2\n      swap1\n      tag_59\n      jump\t// in\n    tag_58:\n      tag_60\n      jump\t// in\n    tag_57:\n      mload(0x40)\n      tag_61\n      swap13\n      swap12\n      swap11\n      swap10\n      swap9\n      swap8\n      swap7\n      swap6\n      swap5\n      swap4\n      swap3\n      swap2\n      swap1\n      tag_62\n      jump\t// in\n    tag_61:\n      mload(0x40)\n      dup1\n      swap2\n      sub\n      swap1\n      return\n        /* \"Campaign.sol\":3221:3323  function getContractBalance() external view returns(uint){... */\n    tag_9:\n      callvalue\n      dup1\n      iszero\n      tag_63\n      jumpi\n      0x00\n      dup1\n      revert\n    tag_63:\n      pop\n      tag_64\n      tag_65\n      jump\t// in\n    tag_64:\n      mload(0x40)\n      tag_66\n      swap2\n      swap1\n      tag_33\n      jump\t// in\n    tag_66:\n      mload(0x40)\n      dup1\n      swap2\n      sub\n      swap1\n      return\n        /* \"Campaign.sol\":7869:8204  function rejectRequest(string memory reqName, string memory reason) external restricted {... */\n    tag_10:\n      callvalue\n      dup1\n      iszero\n      tag_67\n      jumpi\n      0x00\n      dup1\n      revert\n    tag_67:\n      pop\n      tag_68\n      0x04\n      dup1\n      calldatasize\n      sub\n      dup2\n      add\n      swap1\n      tag_69\n      swap2\n      swap1\n      tag_70\n      jump\t// in\n    tag_69:\n      tag_71\n      jump\t// in\n    tag_68:\n      stop\n        /* \"Campaign.sol\":7513:7720  function getRequestClaims(string memory reqName) external view returns(RequestClaim[] memory)... */\n    tag_11:\n      callvalue\n      dup1\n      iszero\n      tag_72\n      jumpi\n      0x00\n      dup1\n      revert\n    tag_72:\n      pop\n      tag_73\n      0x04\n      dup1\n      calldatasize\n      sub\n      dup2\n      add\n      swap1\n      tag_74\n      swap2\n      swap1\n      tag_59\n      jump\t// in\n    tag_74:\n      tag_75\n      jump\t// in\n    tag_73:\n      mload(0x40)\n      tag_76\n      swap2\n      swap1\n      tag_77\n      jump\t// in\n    tag_76:\n      mload(0x40)\n      dup1\n      swap2\n      sub\n      swap1\n      return\n        /* \"Campaign.sol\":3426:3533  function getRequests() external view returns(RequestSummary[] memory)... */\n    tag_12:\n      callvalue\n      dup1\n      iszero\n      tag_78\n      jumpi\n      0x00\n      dup1\n      revert\n    tag_78:\n      pop\n      tag_79\n      tag_80\n      jump\t// in\n    tag_79:\n      mload(0x40)\n      tag_81\n      swap2\n      swap1\n      tag_82\n      jump\t// in\n    tag_81:\n      mload(0x40)\n      dup1\n      swap2\n      sub\n      swap1\n      return\n        /* \"Campaign.sol\":2795:2893  function getCampaignName() external view returns (string memory)... */\n    tag_13:\n      callvalue\n      dup1\n      iszero\n      tag_83\n      jumpi\n      0x00\n      dup1\n      revert\n    tag_83:\n      pop\n      tag_84\n      tag_85\n      jump\t// in\n    tag_84:\n      mload(0x40)\n      tag_86\n      swap2\n      swap1\n      tag_38\n      jump\t// in\n    tag_86:\n      mload(0x40)\n      dup1\n      swap2\n      sub\n      swap1\n      return\n        /* \"Campaign.sol\":4308:4371  function addFunds() restricted external payable{... */\n    tag_14:\n      tag_87\n      tag_88\n      jump\t// in\n    tag_87:\n      stop\n        /* \"Campaign.sol\":4377:5410  function triggerCampaignRequest(string memory name, string memory description, uint amount, uint requiredApprovals, address payable receiver) restricted external {... */\n    tag_15:\n      callvalue\n      dup1\n      iszero\n      tag_89\n      jumpi\n      0x00\n      dup1\n      revert\n    tag_89:\n      pop\n      tag_90\n      0x04\n      dup1\n      calldatasize\n      sub\n      dup2\n      add\n      swap1\n      tag_91\n      swap2\n      swap1\n      tag_92\n      jump\t// in\n    tag_91:\n      tag_93\n      jump\t// in\n    tag_90:\n      stop\n        /* \"Campaign.sol\":8391:8598  function claimFunds() external forContributors {... */\n    tag_16:\n      callvalue\n      dup1\n      iszero\n      tag_94\n      jumpi\n      0x00\n      dup1\n      revert\n    tag_94:\n      pop\n      tag_95\n      tag_96\n      jump\t// in\n    tag_95:\n      stop\n        /* \"Campaign.sol\":2699:2789  function getManager() external view returns (address)... */\n    tag_17:\n      callvalue\n      dup1\n      iszero\n      tag_97\n      jumpi\n      0x00\n      dup1\n      revert\n    tag_97:\n      pop\n      tag_98\n      tag_99\n      jump\t// in\n    tag_98:\n      mload(0x40)\n      tag_100\n      swap2\n      swap1\n      tag_101\n      jump\t// in\n    tag_100:\n      mload(0x40)\n      dup1\n      swap2\n      sub\n      swap1\n      return\n        /* \"Campaign.sol\":4057:4302  function contribute() public payable {... */\n    tag_18:\n      tag_102\n      tag_103\n      jump\t// in\n    tag_102:\n      stop\n        /* \"Campaign.sol\":6501:6957  function submitRequest(string memory reqName) restricted external {... */\n    tag_19:\n      callvalue\n      dup1\n      iszero\n      tag_104\n      jumpi\n      0x00\n      dup1\n      revert\n    tag_104:\n      pop\n      tag_105\n      0x04\n      dup1\n      calldatasize\n      sub\n      dup2\n      add\n      swap1\n      tag_106\n      swap2\n      swap1\n      tag_59\n      jump\t// in\n    tag_106:\n      tag_107\n      jump\t// in\n    tag_105:\n      stop\n        /* \"Campaign.sol\":8209:8384  function cancelCampaign(string memory reason) external restricted {... */\n    tag_20:\n      callvalue\n      dup1\n      iszero\n      tag_108\n      jumpi\n      0x00\n      dup1\n      revert\n    tag_108:\n      pop\n      tag_109\n      0x04\n      dup1\n      calldatasize\n      sub\n      dup2\n      add\n      swap1\n      tag_110\n      swap2\n      swap1\n      tag_59\n      jump\t// in\n    tag_110:\n      tag_111\n      jump\t// in\n    tag_109:\n      stop\n        /* \"Campaign.sol\":6963:7507  function claimRequest(string memory reqName, string memory description) external forContributors... */\n    tag_21:\n      callvalue\n      dup1\n      iszero\n      tag_112\n      jumpi\n      0x00\n      dup1\n      revert\n    tag_112:\n      pop\n      tag_113\n      0x04\n      dup1\n      calldatasize\n      sub\n      dup2\n      add\n      swap1\n      tag_114\n      swap2\n      swap1\n      tag_70\n      jump\t// in\n    tag_114:\n      tag_115\n      jump\t// in\n    tag_113:\n      stop\n        /* \"Campaign.sol\":3110:3215  function getMinimumContribution() external view returns(uint){... */\n    tag_22:\n      callvalue\n      dup1\n      iszero\n      tag_116\n      jumpi\n      0x00\n      dup1\n      revert\n    tag_116:\n      pop\n      tag_117\n      tag_118\n      jump\t// in\n    tag_117:\n      mload(0x40)\n      tag_119\n      swap2\n      swap1\n      tag_33\n      jump\t// in\n    tag_119:\n      mload(0x40)\n      dup1\n      swap2\n      sub\n      swap1\n      return\n        /* \"Campaign.sol\":3007:3105  function getContributorsCount() external view returns(uint){... */\n    tag_23:\n      callvalue\n      dup1\n      iszero\n      tag_120\n      jumpi\n      0x00\n      dup1\n      revert\n    tag_120:\n      pop\n      tag_121\n      tag_122\n      jump\t// in\n    tag_121:\n      mload(0x40)\n      tag_123\n      swap2\n      swap1\n      tag_33\n      jump\t// in\n    tag_123:\n      mload(0x40)\n      dup1\n      swap2\n      sub\n      swap1\n      return\n        /* \"Campaign.sol\":2136:2177  mapping(address => uint) public approvers */\n    tag_31:\n      mstore(0x20, 0x03)\n      dup1\n      0x00\n      mstore\n      keccak256(0x00, 0x40)\n      0x00\n      swap2\n      pop\n      swap1\n      pop\n      sload\n      dup2\n      jump\t// out\n        /* \"Campaign.sol\":2898:3002  function getDescription() external view returns (string memory)... */\n    tag_36:\n        /* \"Campaign.sol\":2947:2960  string memory */\n      0x60\n        /* \"Campaign.sol\":2983:2995  _description */\n      0x01\n        /* \"Campaign.sol\":2976:2995  return _description */\n      dup1\n      sload\n      tag_125\n      swap1\n      tag_126\n      jump\t// in\n    tag_125:\n      dup1\n      0x1f\n      add\n      0x20\n      dup1\n      swap2\n      div\n      mul\n      0x20\n      add\n      mload(0x40)\n      swap1\n      dup2\n      add\n      0x40\n      mstore\n      dup1\n      swap3\n      swap2\n      swap1\n      dup2\n      dup2\n      mstore\n      0x20\n      add\n      dup3\n      dup1\n      sload\n      tag_127\n      swap1\n      tag_126\n      jump\t// in\n    tag_127:\n      dup1\n      iszero\n      tag_128\n      jumpi\n      dup1\n      0x1f\n      lt\n      tag_129\n      jumpi\n      0x0100\n      dup1\n      dup4\n      sload\n      div\n      mul\n      dup4\n      mstore\n      swap2\n      0x20\n      add\n      swap2\n      jump(tag_128)\n    tag_129:\n      dup3\n      add\n      swap2\n      swap1\n      0x00\n      mstore\n      keccak256(0x00, 0x20)\n      swap1\n    tag_130:\n      dup2\n      sload\n      dup2\n      mstore\n      swap1\n      0x01\n      add\n      swap1\n      0x20\n      add\n      dup1\n      dup4\n      gt\n      tag_130\n      jumpi\n      dup3\n      swap1\n      sub\n      0x1f\n      and\n      dup3\n      add\n      swap2\n    tag_128:\n      pop\n      pop\n      pop\n      pop\n      pop\n      swap1\n      pop\n        /* \"Campaign.sol\":2898:3002  function getDescription() external view returns (string memory)... */\n      swap1\n      jump\t// out\n        /* \"Campaign.sol\":8604:8789  function getRemainingBalance() external restricted {... */\n    tag_41:\n        /* \"Campaign.sol\":8848:8856  _manager */\n      0x02\n      0x00\n      swap1\n      sload\n      swap1\n      0x0100\n      exp\n      swap1\n      div\n      0xffffffffffffffffffffffffffffffffffffffff\n      and\n        /* \"Campaign.sol\":8834:8856  msg.sender == _manager */\n      0xffffffffffffffffffffffffffffffffffffffff\n      and\n        /* \"Campaign.sol\":8834:8844  msg.sender */\n      caller\n        /* \"Campaign.sol\":8834:8856  msg.sender == _manager */\n      0xffffffffffffffffffffffffffffffffffffffff\n      and\n      eq\n        /* \"Campaign.sol\":8826:8857  require(msg.sender == _manager) */\n      tag_132\n      jumpi\n      0x00\n      dup1\n      revert\n    tag_132:\n        /* \"Campaign.sol\":8673:8683  _cancelled */\n      0x09\n      0x00\n      swap1\n      sload\n      swap1\n      0x0100\n      exp\n      swap1\n      div\n      0xff\n      and\n        /* \"Campaign.sol\":8665:8684  require(_cancelled) */\n      tag_134\n      jumpi\n      0x00\n      dup1\n      revert\n    tag_134:\n        /* \"Campaign.sol\":8721:8722  0 */\n      0x00\n        /* \"Campaign.sol\":8702:8717  _approversCount */\n      sload(0x04)\n        /* \"Campaign.sol\":8702:8722  _approversCount == 0 */\n      eq\n        /* \"Campaign.sol\":8694:8723  require(_approversCount == 0) */\n      tag_135\n      jumpi\n      0x00\n      dup1\n      revert\n    tag_135:\n        /* \"Campaign.sol\":8741:8749  _manager */\n      0x02\n      0x00\n      swap1\n      sload\n      swap1\n      0x0100\n      exp\n      swap1\n      div\n      0xffffffffffffffffffffffffffffffffffffffff\n      and\n        /* \"Campaign.sol\":8733:8759  payable(_manager).transfer */\n      0xffffffffffffffffffffffffffffffffffffffff\n      and\n        /* \"Campaign.sol\":8733:8782  payable(_manager).transfer(address(this).balance) */\n      0x08fc\n        /* \"Campaign.sol\":8760:8781  address(this).balance */\n      selfbalance\n        /* \"Campaign.sol\":8733:8782  payable(_manager).transfer(address(this).balance) */\n      swap1\n      dup2\n      iszero\n      mul\n      swap1\n      mload(0x40)\n      0x00\n      mload(0x40)\n      dup1\n      dup4\n      sub\n      dup2\n      dup6\n      dup9\n      dup9\n      call\n      swap4\n      pop\n      pop\n      pop\n      pop\n      iszero\n      dup1\n      iszero\n      tag_137\n      jumpi\n      returndatasize\n      0x00\n      dup1\n      returndatacopy\n      revert(0x00, returndatasize)\n    tag_137:\n      pop\n        /* \"Campaign.sol\":8604:8789  function getRemainingBalance() external restricted {... */\n      jump\t// out\n        /* \"Campaign.sol\":5416:6495  function voteRequest(string memory reqName, bool isApproval ) external forContributors... */\n    tag_46:\n        /* \"Campaign.sol\":8951:8952  0 */\n      0x00\n        /* \"Campaign.sol\":8926:8935  approvers */\n      0x03\n        /* \"Campaign.sol\":8926:8947  approvers[msg.sender] */\n      0x00\n        /* \"Campaign.sol\":8936:8946  msg.sender */\n      caller\n        /* \"Campaign.sol\":8926:8947  approvers[msg.sender] */\n      0xffffffffffffffffffffffffffffffffffffffff\n      and\n      0xffffffffffffffffffffffffffffffffffffffff\n      and\n      dup2\n      mstore\n      0x20\n      add\n      swap1\n      dup2\n      mstore\n      0x20\n      add\n      0x00\n      keccak256\n      sload\n        /* \"Campaign.sol\":8926:8952  approvers[msg.sender] != 0 */\n      sub\n        /* \"Campaign.sol\":8918:8953  require(approvers[msg.sender] != 0) */\n      tag_139\n      jumpi\n      0x00\n      dup1\n      revert\n    tag_139:\n        /* \"Campaign.sol\":5526:5536  _cancelled */\n      0x09\n      0x00\n      swap1\n      sload\n      swap1\n      0x0100\n      exp\n      swap1\n      div\n      0xff\n      and\n        /* \"Campaign.sol\":5525:5536  !_cancelled */\n      iszero\n        /* \"Campaign.sol\":5517:5537  require(!_cancelled) */\n      tag_141\n      jumpi\n      0x00\n      dup1\n      revert\n    tag_141:\n        /* \"Campaign.sol\":5569:5577  _manager */\n      0x02\n      0x00\n      swap1\n      sload\n      swap1\n      0x0100\n      exp\n      swap1\n      div\n      0xffffffffffffffffffffffffffffffffffffffff\n      and\n        /* \"Campaign.sol\":5555:5577  msg.sender != _manager */\n      0xffffffffffffffffffffffffffffffffffffffff\n      and\n        /* \"Campaign.sol\":5555:5565  msg.sender */\n      caller\n        /* \"Campaign.sol\":5555:5577  msg.sender != _manager */\n      0xffffffffffffffffffffffffffffffffffffffff\n      and\n      sub\n        /* \"Campaign.sol\":5547:5578  require(msg.sender != _manager) */\n      tag_142\n      jumpi\n      0x00\n      dup1\n      revert\n    tag_142:\n        /* \"Campaign.sol\":5589:5608  Request storage req */\n      0x00\n        /* \"Campaign.sol\":5611:5619  requests */\n      0x07\n        /* \"Campaign.sol\":5620:5627  reqName */\n      dup4\n        /* \"Campaign.sol\":5611:5628  requests[reqName] */\n      mload(0x40)\n      tag_143\n      swap2\n      swap1\n      tag_144\n      jump\t// in\n    tag_143:\n      swap1\n      dup2\n      mstore\n      0x20\n      add\n      mload(0x40)\n      dup1\n      swap2\n      sub\n      swap1\n      keccak256\n        /* \"Campaign.sol\":5589:5628  Request storage req = requests[reqName] */\n      swap1\n      pop\n        /* \"Campaign.sol\":5672:5673  0 */\n      0x00\n        /* \"Campaign.sol\":5653:5656  req */\n      dup2\n        /* \"Campaign.sol\":5653:5661  req.name */\n      0x00\n      add\n        /* \"Campaign.sol\":5647:5669  bytes(req.name).length */\n      dup1\n      sload\n      tag_145\n      swap1\n      tag_126\n      jump\t// in\n    tag_145:\n      swap1\n      pop\n        /* \"Campaign.sol\":5647:5673  bytes(req.name).length > 0 */\n      gt\n        /* \"Campaign.sol\":5639:5674  require(bytes(req.name).length > 0) */\n      tag_146\n      jumpi\n      0x00\n      dup1\n      revert\n    tag_146:\n        /* \"Campaign.sol\":5724:5731  reqName */\n      dup3\n        /* \"Campaign.sol\":5718:5739  bytes(reqName).length */\n      mload\n        /* \"Campaign.sol\":5698:5701  req */\n      dup2\n        /* \"Campaign.sol\":5698:5706  req.name */\n      0x00\n      add\n        /* \"Campaign.sol\":5692:5714  bytes(req.name).length */\n      dup1\n      sload\n      tag_147\n      swap1\n      tag_126\n      jump\t// in\n    tag_147:\n      swap1\n      pop\n        /* \"Campaign.sol\":5692:5739  bytes(req.name).length == bytes(reqName).length */\n      eq\n        /* \"Campaign.sol\":5684:5740  require(bytes(req.name).length == bytes(reqName).length) */\n      tag_148\n      jumpi\n      0x00\n      dup1\n      revert\n    tag_148:\n        /* \"Campaign.sol\":5789:5792  req */\n      dup1\n        /* \"Campaign.sol\":5789:5802  req.canSubmit */\n      0x08\n      add\n      0x00\n      swap1\n      sload\n      swap1\n      0x0100\n      exp\n      swap1\n      div\n      0xff\n      and\n        /* \"Campaign.sol\":5788:5802  !req.canSubmit */\n      iszero\n        /* \"Campaign.sol\":5780:5803  require(!req.canSubmit) */\n      tag_149\n      jumpi\n      0x00\n      dup1\n      revert\n    tag_149:\n        /* \"Campaign.sol\":5822:5825  req */\n      dup1\n        /* \"Campaign.sol\":5822:5834  req.complete */\n      0x08\n      add\n      0x01\n      swap1\n      sload\n      swap1\n      0x0100\n      exp\n      swap1\n      div\n      0xff\n      and\n        /* \"Campaign.sol\":5821:5834  !req.complete */\n      iszero\n        /* \"Campaign.sol\":5813:5835  require(!req.complete) */\n      tag_150\n      jumpi\n      0x00\n      dup1\n      revert\n    tag_150:\n        /* \"Campaign.sol\":5854:5857  req */\n      dup1\n        /* \"Campaign.sol\":5854:5866  req.rejected */\n      0x08\n      add\n      0x02\n      swap1\n      sload\n      swap1\n      0x0100\n      exp\n      swap1\n      div\n      0xff\n      and\n        /* \"Campaign.sol\":5853:5866  !req.rejected */\n      iszero\n        /* \"Campaign.sol\":5845:5867  require(!req.rejected) */\n      tag_151\n      jumpi\n      0x00\n      dup1\n      revert\n    tag_151:\n        /* \"Campaign.sol\":5928:5931  req */\n      dup1\n        /* \"Campaign.sol\":5928:5941  req.approvers */\n      0x0a\n      add\n        /* \"Campaign.sol\":5928:5953  req.approvers[msg.sender] */\n      0x00\n        /* \"Campaign.sol\":5942:5952  msg.sender */\n      caller\n        /* \"Campaign.sol\":5928:5953  req.approvers[msg.sender] */\n      0xffffffffffffffffffffffffffffffffffffffff\n      and\n      0xffffffffffffffffffffffffffffffffffffffff\n      and\n      dup2\n      mstore\n      0x20\n      add\n      swap1\n      dup2\n      mstore\n      0x20\n      add\n      0x00\n      keccak256\n      0x00\n      swap1\n      sload\n      swap1\n      0x0100\n      exp\n      swap1\n      div\n      0xff\n      and\n        /* \"Campaign.sol\":5927:5953  !req.approvers[msg.sender] */\n      iszero\n        /* \"Campaign.sol\":5919:5954  require(!req.approvers[msg.sender]) */\n      tag_152\n      jumpi\n      0x00\n      dup1\n      revert\n    tag_152:\n        /* \"Campaign.sol\":6025:6029  true */\n      0x01\n        /* \"Campaign.sol\":5997:6000  req */\n      dup2\n        /* \"Campaign.sol\":5997:6010  req.approvers */\n      0x0a\n      add\n        /* \"Campaign.sol\":5997:6022  req.approvers[msg.sender] */\n      0x00\n        /* \"Campaign.sol\":6011:6021  msg.sender */\n      caller\n        /* \"Campaign.sol\":5997:6022  req.approvers[msg.sender] */\n      0xffffffffffffffffffffffffffffffffffffffff\n      and\n      0xffffffffffffffffffffffffffffffffffffffff\n      and\n      dup2\n      mstore\n      0x20\n      add\n      swap1\n      dup2\n      mstore\n      0x20\n      add\n      0x00\n      keccak256\n      0x00\n        /* \"Campaign.sol\":5997:6029  req.approvers[msg.sender] = true */\n      0x0100\n      exp\n      dup2\n      sload\n      dup2\n      0xff\n      mul\n      not\n      and\n      swap1\n      dup4\n      iszero\n      iszero\n      mul\n      or\n      swap1\n      sstore\n      pop\n        /* \"Campaign.sol\":6077:6087  isApproval */\n      dup2\n        /* \"Campaign.sol\":6074:6193  if(isApproval){... */\n      iszero\n      tag_153\n      jumpi\n        /* \"Campaign.sol\":6102:6105  req */\n      dup1\n        /* \"Campaign.sol\":6102:6120  req.approvalsCount */\n      0x04\n      add\n      0x00\n        /* \"Campaign.sol\":6102:6122  req.approvalsCount++ */\n      dup2\n      sload\n      dup1\n      swap3\n      swap2\n      swap1\n      tag_154\n      swap1\n      tag_155\n      jump\t// in\n    tag_154:\n      swap2\n      swap1\n      pop\n      sstore\n      pop\n        /* \"Campaign.sol\":6074:6193  if(isApproval){... */\n      jump(tag_156)\n    tag_153:\n        /* \"Campaign.sol\":6161:6164  req */\n      dup1\n        /* \"Campaign.sol\":6161:6180  req.rejectionsCount */\n      0x06\n      add\n      0x00\n        /* \"Campaign.sol\":6161:6182  req.rejectionsCount++ */\n      dup2\n      sload\n      dup1\n      swap3\n      swap2\n      swap1\n      tag_157\n      swap1\n      tag_155\n      jump\t// in\n    tag_157:\n      swap2\n      swap1\n      pop\n      sstore\n      pop\n        /* \"Campaign.sol\":6074:6193  if(isApproval){... */\n    tag_156:\n        /* \"Campaign.sol\":6228:6231  req */\n      dup1\n        /* \"Campaign.sol\":6228:6249  req.requiredApprovals */\n      0x05\n      add\n      sload\n        /* \"Campaign.sol\":6206:6209  req */\n      dup2\n        /* \"Campaign.sol\":6206:6224  req.approvalsCount */\n      0x04\n      add\n      sload\n        /* \"Campaign.sol\":6206:6249  req.approvalsCount >= req.requiredApprovals */\n      lt\n        /* \"Campaign.sol\":6203:6296  if(req.approvalsCount >= req.requiredApprovals) {... */\n      tag_158\n      jumpi\n        /* \"Campaign.sol\":6281:6285  true */\n      0x01\n        /* \"Campaign.sol\":6265:6268  req */\n      dup2\n        /* \"Campaign.sol\":6265:6278  req.canSubmit */\n      0x08\n      add\n      0x00\n        /* \"Campaign.sol\":6265:6285  req.canSubmit = true */\n      0x0100\n      exp\n      dup2\n      sload\n      dup2\n      0xff\n      mul\n      not\n      and\n      swap1\n      dup4\n      iszero\n      iszero\n      mul\n      or\n      swap1\n      sstore\n      pop\n        /* \"Campaign.sol\":6203:6296  if(req.approvalsCount >= req.requiredApprovals) {... */\n    tag_158:\n        /* \"Campaign.sol\":6331:6334  req */\n      dup1\n        /* \"Campaign.sol\":6331:6352  req.requiredApprovals */\n      0x05\n      add\n      sload\n        /* \"Campaign.sol\":6308:6311  req */\n      dup2\n        /* \"Campaign.sol\":6308:6327  req.rejectionsCount */\n      0x06\n      add\n      sload\n        /* \"Campaign.sol\":6308:6352  req.rejectionsCount >= req.requiredApprovals */\n      lt\n        /* \"Campaign.sol\":6305:6489  if(req.rejectionsCount >= req.requiredApprovals){... */\n      tag_159\n      jumpi\n        /* \"Campaign.sol\":6382:6386  true */\n      0x01\n        /* \"Campaign.sol\":6367:6370  req */\n      dup2\n        /* \"Campaign.sol\":6367:6379  req.rejected */\n      0x08\n      add\n      0x02\n        /* \"Campaign.sol\":6367:6386  req.rejected = true */\n      0x0100\n      exp\n      dup2\n      sload\n      dup2\n      0xff\n      mul\n      not\n      and\n      swap1\n      dup4\n      iszero\n      iszero\n      mul\n      or\n      swap1\n      sstore\n      pop\n        /* \"Campaign.sol\":6400:6478  req.rejectReason = \"The majority of the contributors have voted for rejection\" */\n      mload(0x40)\n      dup1\n      0x60\n      add\n      0x40\n      mstore\n      dup1\n      0x39\n      dup2\n      mstore\n      0x20\n      add\n      data_6ef24f460241b37e7e7970ac62078253e322b5717d6a1271f64410bbaf78c264\n      0x39\n      swap2\n      codecopy\n        /* \"Campaign.sol\":6400:6403  req */\n      dup2\n        /* \"Campaign.sol\":6400:6416  req.rejectReason */\n      0x09\n      add\n        /* \"Campaign.sol\":6400:6478  req.rejectReason = \"The majority of the contributors have voted for rejection\" */\n      swap1\n      dup2\n      tag_160\n      swap2\n      swap1\n      tag_161\n      jump\t// in\n    tag_160:\n      pop\n        /* \"Campaign.sol\":6305:6489  if(req.rejectionsCount >= req.requiredApprovals){... */\n    tag_159:\n        /* \"Campaign.sol\":5507:6495  {... */\n      pop\n        /* \"Campaign.sol\":5416:6495  function voteRequest(string memory reqName, bool isApproval ) external forContributors... */\n      pop\n      pop\n      jump\t// out\n        /* \"Campaign.sol\":3328:3421  function getRequestsCount() external view returns(uint){... */\n    tag_49:\n        /* \"Campaign.sol\":3378:3382  uint */\n      0x00\n        /* \"Campaign.sol\":3400:3414  _requestsCount */\n      sload(0x08)\n        /* \"Campaign.sol\":3393:3414  return _requestsCount */\n      swap1\n      pop\n        /* \"Campaign.sol\":3328:3421  function getRequestsCount() external view returns(uint){... */\n      swap1\n      jump\t// out\n        /* \"Campaign.sol\":3543:4051  function getSummary() external view returns(Summary memory)... */\n    tag_53:\n        /* \"Campaign.sol\":3587:3601  Summary memory */\n      tag_163\n      tag_164\n      jump\t// in\n    tag_163:\n        /* \"Campaign.sol\":3617:3636  Summary memory data */\n      0x00\n        /* \"Campaign.sol\":3640:4022  Summary({... */\n      mload(0x40)\n      dup1\n      0x0120\n      add\n      0x40\n      mstore\n      dup1\n        /* \"Campaign.sol\":3671:3679  _manager */\n      0x02\n      0x00\n      swap1\n      sload\n      swap1\n      0x0100\n      exp\n      swap1\n      div\n      0xffffffffffffffffffffffffffffffffffffffff\n      and\n        /* \"Campaign.sol\":3640:4022  Summary({... */\n      0xffffffffffffffffffffffffffffffffffffffff\n      and\n      dup2\n      mstore\n      0x20\n      add\n        /* \"Campaign.sol\":3699:3704  _name */\n      0x00\n        /* \"Campaign.sol\":3640:4022  Summary({... */\n      dup1\n      sload\n      tag_166\n      swap1\n      tag_126\n      jump\t// in\n    tag_166:\n      dup1\n      0x1f\n      add\n      0x20\n      dup1\n      swap2\n      div\n      mul\n      0x20\n      add\n      mload(0x40)\n      swap1\n      dup2\n      add\n      0x40\n      mstore\n      dup1\n      swap3\n      swap2\n      swap1\n      dup2\n      dup2\n      mstore\n      0x20\n      add\n      dup3\n      dup1\n      sload\n      tag_167\n      swap1\n      tag_126\n      jump\t// in\n    tag_167:\n      dup1\n      iszero\n      tag_168\n      jumpi\n      dup1\n      0x1f\n      lt\n      tag_169\n      jumpi\n      0x0100\n      dup1\n      dup4\n      sload\n      div\n      mul\n      dup4\n      mstore\n      swap2\n      0x20\n      add\n      swap2\n      jump(tag_168)\n    tag_169:\n      dup3\n      add\n      swap2\n      swap1\n      0x00\n      mstore\n      keccak256(0x00, 0x20)\n      swap1\n    tag_170:\n      dup2\n      sload\n      dup2\n      mstore\n      swap1\n      0x01\n      add\n      swap1\n      0x20\n      add\n      dup1\n      dup4\n      gt\n      tag_170\n      jumpi\n      dup3\n      swap1\n      sub\n      0x1f\n      and\n      dup3\n      add\n      swap2\n    tag_168:\n      pop\n      pop\n      pop\n      pop\n      pop\n      dup2\n      mstore\n      0x20\n      add\n        /* \"Campaign.sol\":3731:3743  _description */\n      0x01\n        /* \"Campaign.sol\":3640:4022  Summary({... */\n      dup1\n      sload\n      tag_171\n      swap1\n      tag_126\n      jump\t// in\n    tag_171:\n      dup1\n      0x1f\n      add\n      0x20\n      dup1\n      swap2\n      div\n      mul\n      0x20\n      add\n      mload(0x40)\n      swap1\n      dup2\n      add\n      0x40\n      mstore\n      dup1\n      swap3\n      swap2\n      swap1\n      dup2\n      dup2\n      mstore\n      0x20\n      add\n      dup3\n      dup1\n      sload\n      tag_172\n      swap1\n      tag_126\n      jump\t// in\n    tag_172:\n      dup1\n      iszero\n      tag_173\n      jumpi\n      dup1\n      0x1f\n      lt\n      tag_174\n      jumpi\n      0x0100\n      dup1\n      dup4\n      sload\n      div\n      mul\n      dup4\n      mstore\n      swap2\n      0x20\n      add\n      swap2\n      jump(tag_173)\n    tag_174:\n      dup3\n      add\n      swap2\n      swap1\n      0x00\n      mstore\n      keccak256(0x00, 0x20)\n      swap1\n    tag_175:\n      dup2\n      sload\n      dup2\n      mstore\n      swap1\n      0x01\n      add\n      swap1\n      0x20\n      add\n      dup1\n      dup4\n      gt\n      tag_175\n      jumpi\n      dup3\n      swap1\n      sub\n      0x1f\n      and\n      dup3\n      add\n      swap2\n    tag_173:\n      pop\n      pop\n      pop\n      pop\n      pop\n      dup2\n      mstore\n      0x20\n      add\n        /* \"Campaign.sol\":3774:3794  _minimumContribution */\n      sload(0x05)\n        /* \"Campaign.sol\":3640:4022  Summary({... */\n      dup2\n      mstore\n      0x20\n      add\n        /* \"Campaign.sol\":3817:3838  address(this).balance */\n      selfbalance\n        /* \"Campaign.sol\":3640:4022  Summary({... */\n      dup2\n      mstore\n      0x20\n      add\n        /* \"Campaign.sol\":3875:3890  _approversCount */\n      sload(0x04)\n        /* \"Campaign.sol\":3640:4022  Summary({... */\n      dup2\n      mstore\n      0x20\n      add\n        /* \"Campaign.sol\":3919:3933  _requestsCount */\n      sload(0x08)\n        /* \"Campaign.sol\":3640:4022  Summary({... */\n      dup2\n      mstore\n      0x20\n      add\n        /* \"Campaign.sol\":3960:3970  _cancelled */\n      0x09\n      0x00\n      swap1\n      sload\n      swap1\n      0x0100\n      exp\n      swap1\n      div\n      0xff\n      and\n        /* \"Campaign.sol\":3640:4022  Summary({... */\n      iszero\n      iszero\n      dup2\n      mstore\n      0x20\n      add\n        /* \"Campaign.sol\":3998:4011  _cancelReason */\n      0x0a\n        /* \"Campaign.sol\":3640:4022  Summary({... */\n      dup1\n      sload\n      tag_176\n      swap1\n      tag_126\n      jump\t// in\n    tag_176:\n      dup1\n      0x1f\n      add\n      0x20\n      dup1\n      swap2\n      div\n      mul\n      0x20\n      add\n      mload(0x40)\n      swap1\n      dup2\n      add\n      0x40\n      mstore\n      dup1\n      swap3\n      swap2\n      swap1\n      dup2\n      dup2\n      mstore\n      0x20\n      add\n      dup3\n      dup1\n      sload\n      tag_177\n      swap1\n      tag_126\n      jump\t// in\n    tag_177:\n      dup1\n      iszero\n      tag_178\n      jumpi\n      dup1\n      0x1f\n      lt\n      tag_179\n      jumpi\n      0x0100\n      dup1\n      dup4\n      sload\n      div\n      mul\n      dup4\n      mstore\n      swap2\n      0x20\n      add\n      swap2\n      jump(tag_178)\n    tag_179:\n      dup3\n      add\n      swap2\n      swap1\n      0x00\n      mstore\n      keccak256(0x00, 0x20)\n      swap1\n    tag_180:\n      dup2\n      sload\n      dup2\n      mstore\n      swap1\n      0x01\n      add\n      swap1\n      0x20\n      add\n      dup1\n      dup4\n      gt\n      tag_180\n      jumpi\n      dup3\n      swap1\n      sub\n      0x1f\n      and\n      dup3\n      add\n      swap2\n    tag_178:\n      pop\n      pop\n      pop\n      pop\n      pop\n      dup2\n      mstore\n      pop\n        /* \"Campaign.sol\":3617:4022  Summary memory data  = Summary({... */\n      swap1\n      pop\n        /* \"Campaign.sol\":4040:4044  data */\n      dup1\n        /* \"Campaign.sol\":4033:4044  return data */\n      swap2\n      pop\n      pop\n        /* \"Campaign.sol\":3543:4051  function getSummary() external view returns(Summary memory)... */\n      swap1\n      jump\t// out\n        /* \"Campaign.sol\":2296:2338  mapping(string => Request) public requests */\n    tag_60:\n      0x07\n      dup2\n      dup1\n      mload\n      0x20\n      dup2\n      add\n      dup3\n      add\n      dup1\n      mload\n      dup5\n      dup3\n      mstore\n      0x20\n      dup4\n      add\n      0x20\n      dup6\n      add\n      keccak256\n      dup2\n      dup4\n      mstore\n      dup1\n      swap6\n      pop\n      pop\n      pop\n      pop\n      pop\n      pop\n      0x00\n      swap2\n      pop\n      swap1\n      pop\n      dup1\n      0x00\n      add\n      dup1\n      sload\n      tag_181\n      swap1\n      tag_126\n      jump\t// in\n    tag_181:\n      dup1\n      0x1f\n      add\n      0x20\n      dup1\n      swap2\n      div\n      mul\n      0x20\n      add\n      mload(0x40)\n      swap1\n      dup2\n      add\n      0x40\n      mstore\n      dup1\n      swap3\n      swap2\n      swap1\n      dup2\n      dup2\n      mstore\n      0x20\n      add\n      dup3\n      dup1\n      sload\n      tag_182\n      swap1\n      tag_126\n      jump\t// in\n    tag_182:\n      dup1\n      iszero\n      tag_183\n      jumpi\n      dup1\n      0x1f\n      lt\n      tag_184\n      jumpi\n      0x0100\n      dup1\n      dup4\n      sload\n      div\n      mul\n      dup4\n      mstore\n      swap2\n      0x20\n      add\n      swap2\n      jump(tag_183)\n    tag_184:\n      dup3\n      add\n      swap2\n      swap1\n      0x00\n      mstore\n      keccak256(0x00, 0x20)\n      swap1\n    tag_185:\n      dup2\n      sload\n      dup2\n      mstore\n      swap1\n      0x01\n      add\n      swap1\n      0x20\n      add\n      dup1\n      dup4\n      gt\n      tag_185\n      jumpi\n      dup3\n      swap1\n      sub\n      0x1f\n      and\n      dup3\n      add\n      swap2\n    tag_183:\n      pop\n      pop\n      pop\n      pop\n      pop\n      swap1\n      dup1\n      0x01\n      add\n      dup1\n      sload\n      tag_186\n      swap1\n      tag_126\n      jump\t// in\n    tag_186:\n      dup1\n      0x1f\n      add\n      0x20\n      dup1\n      swap2\n      div\n      mul\n      0x20\n      add\n      mload(0x40)\n      swap1\n      dup2\n      add\n      0x40\n      mstore\n      dup1\n      swap3\n      swap2\n      swap1\n      dup2\n      dup2\n      mstore\n      0x20\n      add\n      dup3\n      dup1\n      sload\n      tag_187\n      swap1\n      tag_126\n      jump\t// in\n    tag_187:\n      dup1\n      iszero\n      tag_188\n      jumpi\n      dup1\n      0x1f\n      lt\n      tag_189\n      jumpi\n      0x0100\n      dup1\n      dup4\n      sload\n      div\n      mul\n      dup4\n      mstore\n      swap2\n      0x20\n      add\n      swap2\n      jump(tag_188)\n    tag_189:\n      dup3\n      add\n      swap2\n      swap1\n      0x00\n      mstore\n      keccak256(0x00, 0x20)\n      swap1\n    tag_190:\n      dup2\n      sload\n      dup2\n      mstore\n      swap1\n      0x01\n      add\n      swap1\n      0x20\n      add\n      dup1\n      dup4\n      gt\n      tag_190\n      jumpi\n      dup3\n      swap1\n      sub\n      0x1f\n      and\n      dup3\n      add\n      swap2\n    tag_188:\n      pop\n      pop\n      pop\n      pop\n      pop\n      swap1\n      dup1\n      0x02\n      add\n      sload\n      swap1\n      dup1\n      0x03\n      add\n      0x00\n      swap1\n      sload\n      swap1\n      0x0100\n      exp\n      swap1\n      div\n      0xffffffffffffffffffffffffffffffffffffffff\n      and\n      swap1\n      dup1\n      0x04\n      add\n      sload\n      swap1\n      dup1\n      0x05\n      add\n      sload\n      swap1\n      dup1\n      0x06\n      add\n      sload\n      swap1\n      dup1\n      0x07\n      add\n      sload\n      swap1\n      dup1\n      0x08\n      add\n      0x00\n      swap1\n      sload\n      swap1\n      0x0100\n      exp\n      swap1\n      div\n      0xff\n      and\n      swap1\n      dup1\n      0x08\n      add\n      0x01\n      swap1\n      sload\n      swap1\n      0x0100\n      exp\n      swap1\n      div\n      0xff\n      and\n      swap1\n      dup1\n      0x08\n      add\n      0x02\n      swap1\n      sload\n      swap1\n      0x0100\n      exp\n      swap1\n      div\n      0xff\n      and\n      swap1\n      dup1\n      0x09\n      add\n      dup1\n      sload\n      tag_191\n      swap1\n      tag_126\n      jump\t// in\n    tag_191:\n      dup1\n      0x1f\n      add\n      0x20\n      dup1\n      swap2\n      div\n      mul\n      0x20\n      add\n      mload(0x40)\n      swap1\n      dup2\n      add\n      0x40\n      mstore\n      dup1\n      swap3\n      swap2\n      swap1\n      dup2\n      dup2\n      mstore\n      0x20\n      add\n      dup3\n      dup1\n      sload\n      tag_192\n      swap1\n      tag_126\n      jump\t// in\n    tag_192:\n      dup1\n      iszero\n      tag_193\n      jumpi\n      dup1\n      0x1f\n      lt\n      tag_194\n      jumpi\n      0x0100\n      dup1\n      dup4\n      sload\n      div\n      mul\n      dup4\n      mstore\n      swap2\n      0x20\n      add\n      swap2\n      jump(tag_193)\n    tag_194:\n      dup3\n      add\n      swap2\n      swap1\n      0x00\n      mstore\n      keccak256(0x00, 0x20)\n      swap1\n    tag_195:\n      dup2\n      sload\n      dup2\n      mstore\n      swap1\n      0x01\n      add\n      swap1\n      0x20\n      add\n      dup1\n      dup4\n      gt\n      tag_195\n      jumpi\n      dup3\n      swap1\n      sub\n      0x1f\n      and\n      dup3\n      add\n      swap2\n    tag_193:\n      pop\n      pop\n      pop\n      pop\n      pop\n      swap1\n      pop\n      dup13\n      jump\t// out\n        /* \"Campaign.sol\":3221:3323  function getContractBalance() external view returns(uint){... */\n    tag_65:\n        /* \"Campaign.sol\":3273:3277  uint */\n      0x00\n        /* \"Campaign.sol\":3295:3316  address(this).balance */\n      selfbalance\n        /* \"Campaign.sol\":3288:3316  return address(this).balance */\n      swap1\n      pop\n        /* \"Campaign.sol\":3221:3323  function getContractBalance() external view returns(uint){... */\n      swap1\n      jump\t// out\n        /* \"Campaign.sol\":7869:8204  function rejectRequest(string memory reqName, string memory reason) external restricted {... */\n    tag_71:\n        /* \"Campaign.sol\":8848:8856  _manager */\n      0x02\n      0x00\n      swap1\n      sload\n      swap1\n      0x0100\n      exp\n      swap1\n      div\n      0xffffffffffffffffffffffffffffffffffffffff\n      and\n        /* \"Campaign.sol\":8834:8856  msg.sender == _manager */\n      0xffffffffffffffffffffffffffffffffffffffff\n      and\n        /* \"Campaign.sol\":8834:8844  msg.sender */\n      caller\n        /* \"Campaign.sol\":8834:8856  msg.sender == _manager */\n      0xffffffffffffffffffffffffffffffffffffffff\n      and\n      eq\n        /* \"Campaign.sol\":8826:8857  require(msg.sender == _manager) */\n      tag_198\n      jumpi\n      0x00\n      dup1\n      revert\n    tag_198:\n        /* \"Campaign.sol\":7998:7999  0 */\n      0x00\n        /* \"Campaign.sol\":7981:7987  reason */\n      dup2\n        /* \"Campaign.sol\":7975:7995  bytes(reason).length */\n      mload\n        /* \"Campaign.sol\":7975:7999  bytes(reason).length > 0 */\n      gt\n        /* \"Campaign.sol\":7967:8000  require(bytes(reason).length > 0) */\n      tag_200\n      jumpi\n      0x00\n      dup1\n      revert\n    tag_200:\n        /* \"Campaign.sol\":8057:8058  0 */\n      0x00\n        /* \"Campaign.sol\":8024:8032  requests */\n      0x07\n        /* \"Campaign.sol\":8033:8040  reqName */\n      dup4\n        /* \"Campaign.sol\":8024:8041  requests[reqName] */\n      mload(0x40)\n      tag_201\n      swap2\n      swap1\n      tag_144\n      jump\t// in\n    tag_201:\n      swap1\n      dup2\n      mstore\n      0x20\n      add\n      mload(0x40)\n      dup1\n      swap2\n      sub\n      swap1\n      keccak256\n        /* \"Campaign.sol\":8024:8046  requests[reqName].name */\n      0x00\n      add\n        /* \"Campaign.sol\":8018:8054  bytes(requests[reqName].name).length */\n      dup1\n      sload\n      tag_202\n      swap1\n      tag_126\n      jump\t// in\n    tag_202:\n      swap1\n      pop\n        /* \"Campaign.sol\":8018:8058  bytes(requests[reqName].name).length > 0 */\n      gt\n        /* \"Campaign.sol\":8010:8059  require(bytes(requests[reqName].name).length > 0) */\n      tag_203\n      jumpi\n      0x00\n      dup1\n      revert\n    tag_203:\n        /* \"Campaign.sol\":8078:8086  requests */\n      0x07\n        /* \"Campaign.sol\":8087:8094  reqName */\n      dup3\n        /* \"Campaign.sol\":8078:8095  requests[reqName] */\n      mload(0x40)\n      tag_204\n      swap2\n      swap1\n      tag_144\n      jump\t// in\n    tag_204:\n      swap1\n      dup2\n      mstore\n      0x20\n      add\n      mload(0x40)\n      dup1\n      swap2\n      sub\n      swap1\n      keccak256\n        /* \"Campaign.sol\":8078:8104  requests[reqName].rejected */\n      0x08\n      add\n      0x02\n      swap1\n      sload\n      swap1\n      0x0100\n      exp\n      swap1\n      div\n      0xff\n      and\n        /* \"Campaign.sol\":8077:8104  !requests[reqName].rejected */\n      iszero\n        /* \"Campaign.sol\":8069:8105  require(!requests[reqName].rejected) */\n      tag_205\n      jumpi\n      0x00\n      dup1\n      revert\n    tag_205:\n        /* \"Campaign.sol\":8144:8148  true */\n      0x01\n        /* \"Campaign.sol\":8115:8123  requests */\n      0x07\n        /* \"Campaign.sol\":8124:8131  reqName */\n      dup4\n        /* \"Campaign.sol\":8115:8132  requests[reqName] */\n      mload(0x40)\n      tag_206\n      swap2\n      swap1\n      tag_144\n      jump\t// in\n    tag_206:\n      swap1\n      dup2\n      mstore\n      0x20\n      add\n      mload(0x40)\n      dup1\n      swap2\n      sub\n      swap1\n      keccak256\n        /* \"Campaign.sol\":8115:8141  requests[reqName].rejected */\n      0x08\n      add\n      0x02\n        /* \"Campaign.sol\":8115:8148  requests[reqName].rejected = true */\n      0x0100\n      exp\n      dup2\n      sload\n      dup2\n      0xff\n      mul\n      not\n      and\n      swap1\n      dup4\n      iszero\n      iszero\n      mul\n      or\n      swap1\n      sstore\n      pop\n        /* \"Campaign.sol\":8191:8197  reason */\n      dup1\n        /* \"Campaign.sol\":8158:8166  requests */\n      0x07\n        /* \"Campaign.sol\":8167:8174  reqName */\n      dup4\n        /* \"Campaign.sol\":8158:8175  requests[reqName] */\n      mload(0x40)\n      tag_207\n      swap2\n      swap1\n      tag_144\n      jump\t// in\n    tag_207:\n      swap1\n      dup2\n      mstore\n      0x20\n      add\n      mload(0x40)\n      dup1\n      swap2\n      sub\n      swap1\n      keccak256\n        /* \"Campaign.sol\":8158:8188  requests[reqName].rejectReason */\n      0x09\n      add\n        /* \"Campaign.sol\":8158:8197  requests[reqName].rejectReason = reason */\n      swap1\n      dup2\n      tag_208\n      swap2\n      swap1\n      tag_161\n      jump\t// in\n    tag_208:\n      pop\n        /* \"Campaign.sol\":7869:8204  function rejectRequest(string memory reqName, string memory reason) external restricted {... */\n      pop\n      pop\n      jump\t// out\n        /* \"Campaign.sol\":7513:7720  function getRequestClaims(string memory reqName) external view returns(RequestClaim[] memory)... */\n    tag_75:\n        /* \"Campaign.sol\":7584:7605  RequestClaim[] memory */\n      0x60\n        /* \"Campaign.sol\":7669:7670  0 */\n      0x00\n        /* \"Campaign.sol\":7635:7643  requests */\n      0x07\n        /* \"Campaign.sol\":7644:7651  reqName */\n      dup4\n        /* \"Campaign.sol\":7635:7652  requests[reqName] */\n      mload(0x40)\n      tag_210\n      swap2\n      swap1\n      tag_144\n      jump\t// in\n    tag_210:\n      swap1\n      dup2\n      mstore\n      0x20\n      add\n      mload(0x40)\n      dup1\n      swap2\n      sub\n      swap1\n      keccak256\n        /* \"Campaign.sol\":7635:7657  requests[reqName].name */\n      0x00\n      add\n        /* \"Campaign.sol\":7629:7665  bytes(requests[reqName].name).length */\n      dup1\n      sload\n      tag_211\n      swap1\n      tag_126\n      jump\t// in\n    tag_211:\n      swap1\n      pop\n        /* \"Campaign.sol\":7629:7670  bytes(requests[reqName].name).length != 0 */\n      sub\n        /* \"Campaign.sol\":7621:7671  require(bytes(requests[reqName].name).length != 0) */\n      tag_212\n      jumpi\n      0x00\n      dup1\n      revert\n    tag_212:\n        /* \"Campaign.sol\":7689:7697  requests */\n      0x07\n        /* \"Campaign.sol\":7698:7705  reqName */\n      dup3\n        /* \"Campaign.sol\":7689:7706  requests[reqName] */\n      mload(0x40)\n      tag_213\n      swap2\n      swap1\n      tag_144\n      jump\t// in\n    tag_213:\n      swap1\n      dup2\n      mstore\n      0x20\n      add\n      mload(0x40)\n      dup1\n      swap2\n      sub\n      swap1\n      keccak256\n        /* \"Campaign.sol\":7689:7713  requests[reqName].claims */\n      0x0b\n      add\n        /* \"Campaign.sol\":7682:7713  return requests[reqName].claims */\n      dup1\n      sload\n      dup1\n      0x20\n      mul\n      0x20\n      add\n      mload(0x40)\n      swap1\n      dup2\n      add\n      0x40\n      mstore\n      dup1\n      swap3\n      swap2\n      swap1\n      dup2\n      dup2\n      mstore\n      0x20\n      add\n      0x00\n      swap1\n    tag_214:\n      dup3\n      dup3\n      lt\n      iszero\n      tag_215\n      jumpi\n      dup4\n      dup3\n      swap1\n      0x00\n      mstore\n      keccak256(0x00, 0x20)\n      swap1\n      0x02\n      mul\n      add\n      mload(0x40)\n      dup1\n      0x40\n      add\n      0x40\n      mstore\n      swap1\n      dup2\n      0x00\n      dup3\n      add\n      0x00\n      swap1\n      sload\n      swap1\n      0x0100\n      exp\n      swap1\n      div\n      0xffffffffffffffffffffffffffffffffffffffff\n      and\n      0xffffffffffffffffffffffffffffffffffffffff\n      and\n      0xffffffffffffffffffffffffffffffffffffffff\n      and\n      dup2\n      mstore\n      0x20\n      add\n      0x01\n      dup3\n      add\n      dup1\n      sload\n      tag_217\n      swap1\n      tag_126\n      jump\t// in\n    tag_217:\n      dup1\n      0x1f\n      add\n      0x20\n      dup1\n      swap2\n      div\n      mul\n      0x20\n      add\n      mload(0x40)\n      swap1\n      dup2\n      add\n      0x40\n      mstore\n      dup1\n      swap3\n      swap2\n      swap1\n      dup2\n      dup2\n      mstore\n      0x20\n      add\n      dup3\n      dup1\n      sload\n      tag_218\n      swap1\n      tag_126\n      jump\t// in\n    tag_218:\n      dup1\n      iszero\n      tag_219\n      jumpi\n      dup1\n      0x1f\n      lt\n      tag_220\n      jumpi\n      0x0100\n      dup1\n      dup4\n      sload\n      div\n      mul\n      dup4\n      mstore\n      swap2\n      0x20\n      add\n      swap2\n      jump(tag_219)\n    tag_220:\n      dup3\n      add\n      swap2\n      swap1\n      0x00\n      mstore\n      keccak256(0x00, 0x20)\n      swap1\n    tag_221:\n      dup2\n      sload\n      dup2\n      mstore\n      swap1\n      0x01\n      add\n      swap1\n      0x20\n      add\n      dup1\n      dup4\n      gt\n      tag_221\n      jumpi\n      dup3\n      swap1\n      sub\n      0x1f\n      and\n      dup3\n      add\n      swap2\n    tag_219:\n      pop\n      pop\n      pop\n      pop\n      pop\n      dup2\n      mstore\n      pop\n      pop\n      dup2\n      mstore\n      0x20\n      add\n      swap1\n      0x01\n      add\n      swap1\n      jump(tag_214)\n    tag_215:\n      pop\n      pop\n      pop\n      pop\n      swap1\n      pop\n        /* \"Campaign.sol\":7513:7720  function getRequestClaims(string memory reqName) external view returns(RequestClaim[] memory)... */\n      swap2\n      swap1\n      pop\n      jump\t// out\n        /* \"Campaign.sol\":3426:3533  function getRequests() external view returns(RequestSummary[] memory)... */\n    tag_80:\n        /* \"Campaign.sol\":3471:3494  RequestSummary[] memory */\n      0x60\n        /* \"Campaign.sol\":3517:3526  _requests */\n      0x06\n        /* \"Campaign.sol\":3510:3526  return _requests */\n      dup1\n      sload\n      dup1\n      0x20\n      mul\n      0x20\n      add\n      mload(0x40)\n      swap1\n      dup2\n      add\n      0x40\n      mstore\n      dup1\n      swap3\n      swap2\n      swap1\n      dup2\n      dup2\n      mstore\n      0x20\n      add\n      0x00\n      swap1\n    tag_223:\n      dup3\n      dup3\n      lt\n      iszero\n      tag_224\n      jumpi\n      dup4\n      dup3\n      swap1\n      0x00\n      mstore\n      keccak256(0x00, 0x20)\n      swap1\n      0x03\n      mul\n      add\n      mload(0x40)\n      dup1\n      0x60\n      add\n      0x40\n      mstore\n      swap1\n      dup2\n      0x00\n      dup3\n      add\n      dup1\n      sload\n      tag_226\n      swap1\n      tag_126\n      jump\t// in\n    tag_226:\n      dup1\n      0x1f\n      add\n      0x20\n      dup1\n      swap2\n      div\n      mul\n      0x20\n      add\n      mload(0x40)\n      swap1\n      dup2\n      add\n      0x40\n      mstore\n      dup1\n      swap3\n      swap2\n      swap1\n      dup2\n      dup2\n      mstore\n      0x20\n      add\n      dup3\n      dup1\n      sload\n      tag_227\n      swap1\n      tag_126\n      jump\t// in\n    tag_227:\n      dup1\n      iszero\n      tag_228\n      jumpi\n      dup1\n      0x1f\n      lt\n      tag_229\n      jumpi\n      0x0100\n      dup1\n      dup4\n      sload\n      div\n      mul\n      dup4\n      mstore\n      swap2\n      0x20\n      add\n      swap2\n      jump(tag_228)\n    tag_229:\n      dup3\n      add\n      swap2\n      swap1\n      0x00\n      mstore\n      keccak256(0x00, 0x20)\n      swap1\n    tag_230:\n      dup2\n      sload\n      dup2\n      mstore\n      swap1\n      0x01\n      add\n      swap1\n      0x20\n      add\n      dup1\n      dup4\n      gt\n      tag_230\n      jumpi\n      dup3\n      swap1\n      sub\n      0x1f\n      and\n      dup3\n      add\n      swap2\n    tag_228:\n      pop\n      pop\n      pop\n      pop\n      pop\n      dup2\n      mstore\n      0x20\n      add\n      0x01\n      dup3\n      add\n      dup1\n      sload\n      tag_231\n      swap1\n      tag_126\n      jump\t// in\n    tag_231:\n      dup1\n      0x1f\n      add\n      0x20\n      dup1\n      swap2\n      div\n      mul\n      0x20\n      add\n      mload(0x40)\n      swap1\n      dup2\n      add\n      0x40\n      mstore\n      dup1\n      swap3\n      swap2\n      swap1\n      dup2\n      dup2\n      mstore\n      0x20\n      add\n      dup3\n      dup1\n      sload\n      tag_232\n      swap1\n      tag_126\n      jump\t// in\n    tag_232:\n      dup1\n      iszero\n      tag_233\n      jumpi\n      dup1\n      0x1f\n      lt\n      tag_234\n      jumpi\n      0x0100\n      dup1\n      dup4\n      sload\n      div\n      mul\n      dup4\n      mstore\n      swap2\n      0x20\n      add\n      swap2\n      jump(tag_233)\n    tag_234:\n      dup3\n      add\n      swap2\n      swap1\n      0x00\n      mstore\n      keccak256(0x00, 0x20)\n      swap1\n    tag_235:\n      dup2\n      sload\n      dup2\n      mstore\n      swap1\n      0x01\n      add\n      swap1\n      0x20\n      add\n      dup1\n      dup4\n      gt\n      tag_235\n      jumpi\n      dup3\n      swap1\n      sub\n      0x1f\n      and\n      dup3\n      add\n      swap2\n    tag_233:\n      pop\n      pop\n      pop\n      pop\n      pop\n      dup2\n      mstore\n      0x20\n      add\n      0x02\n      dup3\n      add\n      sload\n      dup2\n      mstore\n      pop\n      pop\n      dup2\n      mstore\n      0x20\n      add\n      swap1\n      0x01\n      add\n      swap1\n      jump(tag_223)\n    tag_224:\n      pop\n      pop\n      pop\n      pop\n      swap1\n      pop\n        /* \"Campaign.sol\":3426:3533  function getRequests() external view returns(RequestSummary[] memory)... */\n      swap1\n      jump\t// out\n        /* \"Campaign.sol\":2795:2893  function getCampaignName() external view returns (string memory)... */\n    tag_85:\n        /* \"Campaign.sol\":2845:2858  string memory */\n      0x60\n        /* \"Campaign.sol\":2881:2886  _name */\n      0x00\n        /* \"Campaign.sol\":2874:2886  return _name */\n      dup1\n      sload\n      tag_237\n      swap1\n      tag_126\n      jump\t// in\n    tag_237:\n      dup1\n      0x1f\n      add\n      0x20\n      dup1\n      swap2\n      div\n      mul\n      0x20\n      add\n      mload(0x40)\n      swap1\n      dup2\n      add\n      0x40\n      mstore\n      dup1\n      swap3\n      swap2\n      swap1\n      dup2\n      dup2\n      mstore\n      0x20\n      add\n      dup3\n      dup1\n      sload\n      tag_238\n      swap1\n      tag_126\n      jump\t// in\n    tag_238:\n      dup1\n      iszero\n      tag_239\n      jumpi\n      dup1\n      0x1f\n      lt\n      tag_240\n      jumpi\n      0x0100\n      dup1\n      dup4\n      sload\n      div\n      mul\n      dup4\n      mstore\n      swap2\n      0x20\n      add\n      swap2\n      jump(tag_239)\n    tag_240:\n      dup3\n      add\n      swap2\n      swap1\n      0x00\n      mstore\n      keccak256(0x00, 0x20)\n      swap1\n    tag_241:\n      dup2\n      sload\n      dup2\n      mstore\n      swap1\n      0x01\n      add\n      swap1\n      0x20\n      add\n      dup1\n      dup4\n      gt\n      tag_241\n      jumpi\n      dup3\n      swap1\n      sub\n      0x1f\n      and\n      dup3\n      add\n      swap2\n    tag_239:\n      pop\n      pop\n      pop\n      pop\n      pop\n      swap1\n      pop\n        /* \"Campaign.sol\":2795:2893  function getCampaignName() external view returns (string memory)... */\n      swap1\n      jump\t// out\n        /* \"Campaign.sol\":4308:4371  function addFunds() restricted external payable{... */\n    tag_88:\n        /* \"Campaign.sol\":8848:8856  _manager */\n      0x02\n      0x00\n      swap1\n      sload\n      swap1\n      0x0100\n      exp\n      swap1\n      div\n      0xffffffffffffffffffffffffffffffffffffffff\n      and\n        /* \"Campaign.sol\":8834:8856  msg.sender == _manager */\n      0xffffffffffffffffffffffffffffffffffffffff\n      and\n        /* \"Campaign.sol\":8834:8844  msg.sender */\n      caller\n        /* \"Campaign.sol\":8834:8856  msg.sender == _manager */\n      0xffffffffffffffffffffffffffffffffffffffff\n      and\n      eq\n        /* \"Campaign.sol\":8826:8857  require(msg.sender == _manager) */\n      tag_243\n      jumpi\n      0x00\n      dup1\n      revert\n    tag_243:\n        /* \"Campaign.sol\":4308:4371  function addFunds() restricted external payable{... */\n      jump\t// out\n        /* \"Campaign.sol\":4377:5410  function triggerCampaignRequest(string memory name, string memory description, uint amount, uint requiredApprovals, address payable receiver) restricted external {... */\n    tag_93:\n        /* \"Campaign.sol\":8848:8856  _manager */\n      0x02\n      0x00\n      swap1\n      sload\n      swap1\n      0x0100\n      exp\n      swap1\n      div\n      0xffffffffffffffffffffffffffffffffffffffff\n      and\n        /* \"Campaign.sol\":8834:8856  msg.sender == _manager */\n      0xffffffffffffffffffffffffffffffffffffffff\n      and\n        /* \"Campaign.sol\":8834:8844  msg.sender */\n      caller\n        /* \"Campaign.sol\":8834:8856  msg.sender == _manager */\n      0xffffffffffffffffffffffffffffffffffffffff\n      and\n      eq\n        /* \"Campaign.sol\":8826:8857  require(msg.sender == _manager) */\n      tag_246\n      jumpi\n      0x00\n      dup1\n      revert\n    tag_246:\n        /* \"Campaign.sol\":4558:4568  _cancelled */\n      0x09\n      0x00\n      swap1\n      sload\n      swap1\n      0x0100\n      exp\n      swap1\n      div\n      0xff\n      and\n        /* \"Campaign.sol\":4557:4568  !_cancelled */\n      iszero\n        /* \"Campaign.sol\":4549:4569  require(!_cancelled) */\n      tag_248\n      jumpi\n      0x00\n      dup1\n      revert\n    tag_248:\n        /* \"Campaign.sol\":4608:4609  0 */\n      0x00\n        /* \"Campaign.sol\":4593:4597  name */\n      dup6\n        /* \"Campaign.sol\":4587:4605  bytes(name).length */\n      mload\n        /* \"Campaign.sol\":4587:4609  bytes(name).length > 0 */\n      gt\n        /* \"Campaign.sol\":4579:4610  require(bytes(name).length > 0) */\n      tag_249\n      jumpi\n      0x00\n      dup1\n      revert\n    tag_249:\n        /* \"Campaign.sol\":4656:4657  0 */\n      0x00\n        /* \"Campaign.sol\":4634:4645  description */\n      dup5\n        /* \"Campaign.sol\":4628:4653  bytes(description).length */\n      mload\n        /* \"Campaign.sol\":4628:4657  bytes(description).length > 0 */\n      gt\n        /* \"Campaign.sol\":4620:4658  require(bytes(description).length > 0) */\n      tag_250\n      jumpi\n      0x00\n      dup1\n      revert\n    tag_250:\n        /* \"Campaign.sol\":4685:4686  0 */\n      0x00\n        /* \"Campaign.sol\":4676:4682  amount */\n      dup4\n        /* \"Campaign.sol\":4676:4686  amount > 0 */\n      gt\n        /* \"Campaign.sol\":4668:4687  require(amount > 0) */\n      tag_251\n      jumpi\n      0x00\n      dup1\n      revert\n    tag_251:\n        /* \"Campaign.sol\":4715:4736  address(this).balance */\n      selfbalance\n        /* \"Campaign.sol\":4705:4711  amount */\n      dup4\n        /* \"Campaign.sol\":4705:4736  amount <= address(this).balance */\n      gt\n      iszero\n        /* \"Campaign.sol\":4697:4737  require(amount <= address(this).balance) */\n      tag_252\n      jumpi\n      0x00\n      dup1\n      revert\n    tag_252:\n        /* \"Campaign.sol\":4775:4776  0 */\n      0x00\n        /* \"Campaign.sol\":4755:4772  requiredApprovals */\n      dup3\n        /* \"Campaign.sol\":4755:4776  requiredApprovals > 0 */\n      gt\n        /* \"Campaign.sol\":4747:4777  require(requiredApprovals > 0) */\n      tag_253\n      jumpi\n      0x00\n      dup1\n      revert\n    tag_253:\n        /* \"Campaign.sol\":4816:4831  _approversCount */\n      sload(0x04)\n        /* \"Campaign.sol\":4795:4812  requiredApprovals */\n      dup3\n        /* \"Campaign.sol\":4795:4831  requiredApprovals <= _approversCount */\n      gt\n      iszero\n        /* \"Campaign.sol\":4787:4832  require(requiredApprovals <= _approversCount) */\n      tag_254\n      jumpi\n      0x00\n      dup1\n      revert\n    tag_254:\n        /* \"Campaign.sol\":4842:4861  Request storage req */\n      0x00\n        /* \"Campaign.sol\":4864:4872  requests */\n      0x07\n        /* \"Campaign.sol\":4873:4877  name */\n      dup7\n        /* \"Campaign.sol\":4864:4878  requests[name] */\n      mload(0x40)\n      tag_255\n      swap2\n      swap1\n      tag_144\n      jump\t// in\n    tag_255:\n      swap1\n      dup2\n      mstore\n      0x20\n      add\n      mload(0x40)\n      dup1\n      swap2\n      sub\n      swap1\n      keccak256\n        /* \"Campaign.sol\":4842:4878  Request storage req = requests[name] */\n      swap1\n      pop\n        /* \"Campaign.sol\":4907:4911  name */\n      dup6\n        /* \"Campaign.sol\":4897:4900  req */\n      dup2\n        /* \"Campaign.sol\":4897:4905  req.name */\n      0x00\n      add\n        /* \"Campaign.sol\":4897:4911  req.name= name */\n      swap1\n      dup2\n      tag_256\n      swap2\n      swap1\n      tag_161\n      jump\t// in\n    tag_256:\n      pop\n        /* \"Campaign.sol\":4939:4950  description */\n      dup5\n        /* \"Campaign.sol\":4921:4924  req */\n      dup2\n        /* \"Campaign.sol\":4921:4936  req.description */\n      0x01\n      add\n        /* \"Campaign.sol\":4921:4950  req.description = description */\n      swap1\n      dup2\n      tag_257\n      swap2\n      swap1\n      tag_161\n      jump\t// in\n    tag_257:\n      pop\n        /* \"Campaign.sol\":4973:4979  amount */\n      dup4\n        /* \"Campaign.sol\":4960:4963  req */\n      dup2\n        /* \"Campaign.sol\":4960:4970  req.amount */\n      0x02\n      add\n        /* \"Campaign.sol\":4960:4979  req.amount = amount */\n      dup2\n      swap1\n      sstore\n      pop\n        /* \"Campaign.sol\":5004:5012  receiver */\n      dup2\n        /* \"Campaign.sol\":4989:4992  req */\n      dup2\n        /* \"Campaign.sol\":4989:5001  req.receiver */\n      0x03\n      add\n      0x00\n        /* \"Campaign.sol\":4989:5012  req.receiver = receiver */\n      0x0100\n      exp\n      dup2\n      sload\n      dup2\n      0xffffffffffffffffffffffffffffffffffffffff\n      mul\n      not\n      and\n      swap1\n      dup4\n      0xffffffffffffffffffffffffffffffffffffffff\n      and\n      mul\n      or\n      swap1\n      sstore\n      pop\n        /* \"Campaign.sol\":5043:5044  0 */\n      0x00\n        /* \"Campaign.sol\":5022:5025  req */\n      dup2\n        /* \"Campaign.sol\":5022:5040  req.approvalsCount */\n      0x04\n      add\n        /* \"Campaign.sol\":5022:5044  req.approvalsCount=  0 */\n      dup2\n      swap1\n      sstore\n      pop\n        /* \"Campaign.sol\":5072:5073  0 */\n      0x00\n        /* \"Campaign.sol\":5054:5057  req */\n      dup2\n        /* \"Campaign.sol\":5054:5069  req.claimsCount */\n      0x07\n      add\n        /* \"Campaign.sol\":5054:5073  req.claimsCount = 0 */\n      dup2\n      swap1\n      sstore\n      pop\n        /* \"Campaign.sol\":5107:5124  requiredApprovals */\n      dup3\n        /* \"Campaign.sol\":5083:5086  req */\n      dup2\n        /* \"Campaign.sol\":5083:5104  req.requiredApprovals */\n      0x05\n      add\n        /* \"Campaign.sol\":5083:5124  req.requiredApprovals = requiredApprovals */\n      dup2\n      swap1\n      sstore\n      pop\n        /* \"Campaign.sol\":5149:5154  false */\n      0x00\n        /* \"Campaign.sol\":5134:5137  req */\n      dup2\n        /* \"Campaign.sol\":5134:5146  req.complete */\n      0x08\n      add\n      0x01\n        /* \"Campaign.sol\":5134:5154  req.complete = false */\n      0x0100\n      exp\n      dup2\n      sload\n      dup2\n      0xff\n      mul\n      not\n      and\n      swap1\n      dup4\n      iszero\n      iszero\n      mul\n      or\n      swap1\n      sstore\n      pop\n        /* \"Campaign.sol\":5179:5184  false */\n      0x00\n        /* \"Campaign.sol\":5164:5167  req */\n      dup2\n        /* \"Campaign.sol\":5164:5176  req.rejected */\n      0x08\n      add\n      0x02\n        /* \"Campaign.sol\":5164:5184  req.rejected = false */\n      0x0100\n      exp\n      dup2\n      sload\n      dup2\n      0xff\n      mul\n      not\n      and\n      swap1\n      dup4\n      iszero\n      iszero\n      mul\n      or\n      swap1\n      sstore\n      pop\n        /* \"Campaign.sol\":5195:5209  _requestsCount */\n      0x08\n      0x00\n        /* \"Campaign.sol\":5195:5211  _requestsCount++ */\n      dup2\n      sload\n      dup1\n      swap3\n      swap2\n      swap1\n      tag_258\n      swap1\n      tag_155\n      jump\t// in\n    tag_258:\n      swap2\n      swap1\n      pop\n      sstore\n      pop\n        /* \"Campaign.sol\":5221:5250  RequestSummary memory summary */\n      0x00\n        /* \"Campaign.sol\":5253:5369  RequestSummary({... */\n      mload(0x40)\n      dup1\n      0x60\n      add\n      0x40\n      mstore\n      dup1\n        /* \"Campaign.sol\":5288:5292  name */\n      dup9\n        /* \"Campaign.sol\":5253:5369  RequestSummary({... */\n      dup2\n      mstore\n      0x20\n      add\n        /* \"Campaign.sol\":5319:5330  description */\n      dup8\n        /* \"Campaign.sol\":5253:5369  RequestSummary({... */\n      dup2\n      mstore\n      0x20\n      add\n        /* \"Campaign.sol\":5352:5358  amount */\n      dup7\n        /* \"Campaign.sol\":5253:5369  RequestSummary({... */\n      dup2\n      mstore\n      pop\n        /* \"Campaign.sol\":5221:5369  RequestSummary memory summary = RequestSummary({... */\n      swap1\n      pop\n        /* \"Campaign.sol\":5380:5389  _requests */\n      0x06\n        /* \"Campaign.sol\":5395:5402  summary */\n      dup2\n        /* \"Campaign.sol\":5380:5403  _requests.push(summary) */\n      swap1\n      dup1\n      0x01\n      dup2\n      sload\n      add\n      dup1\n      dup3\n      sstore\n      dup1\n      swap2\n      pop\n      pop\n      0x01\n      swap1\n      sub\n      swap1\n      0x00\n      mstore\n      keccak256(0x00, 0x20)\n      swap1\n      0x03\n      mul\n      add\n      0x00\n      swap1\n      swap2\n      swap1\n      swap2\n      swap1\n      swap2\n      pop\n      0x00\n      dup3\n      add\n      mload\n      dup2\n      0x00\n      add\n      swap1\n      dup2\n      tag_260\n      swap2\n      swap1\n      tag_161\n      jump\t// in\n    tag_260:\n      pop\n      0x20\n      dup3\n      add\n      mload\n      dup2\n      0x01\n      add\n      swap1\n      dup2\n      tag_261\n      swap2\n      swap1\n      tag_161\n      jump\t// in\n    tag_261:\n      pop\n      0x40\n      dup3\n      add\n      mload\n      dup2\n      0x02\n      add\n      sstore\n      pop\n      pop\n        /* \"Campaign.sol\":4539:5410  {... */\n      pop\n      pop\n        /* \"Campaign.sol\":4377:5410  function triggerCampaignRequest(string memory name, string memory description, uint amount, uint requiredApprovals, address payable receiver) restricted external {... */\n      pop\n      pop\n      pop\n      pop\n      pop\n      jump\t// out\n        /* \"Campaign.sol\":8391:8598  function claimFunds() external forContributors {... */\n    tag_96:\n        /* \"Campaign.sol\":8951:8952  0 */\n      0x00\n        /* \"Campaign.sol\":8926:8935  approvers */\n      0x03\n        /* \"Campaign.sol\":8926:8947  approvers[msg.sender] */\n      0x00\n        /* \"Campaign.sol\":8936:8946  msg.sender */\n      caller\n        /* \"Campaign.sol\":8926:8947  approvers[msg.sender] */\n      0xffffffffffffffffffffffffffffffffffffffff\n      and\n      0xffffffffffffffffffffffffffffffffffffffff\n      and\n      dup2\n      mstore\n      0x20\n      add\n      swap1\n      dup2\n      mstore\n      0x20\n      add\n      0x00\n      keccak256\n      sload\n        /* \"Campaign.sol\":8926:8952  approvers[msg.sender] != 0 */\n      sub\n        /* \"Campaign.sol\":8918:8953  require(approvers[msg.sender] != 0) */\n      tag_263\n      jumpi\n      0x00\n      dup1\n      revert\n    tag_263:\n        /* \"Campaign.sol\":8456:8466  _cancelled */\n      0x09\n      0x00\n      swap1\n      sload\n      swap1\n      0x0100\n      exp\n      swap1\n      div\n      0xff\n      and\n        /* \"Campaign.sol\":8448:8467  require(_cancelled) */\n      tag_265\n      jumpi\n      0x00\n      dup1\n      revert\n    tag_265:\n        /* \"Campaign.sol\":8485:8495  msg.sender */\n      caller\n        /* \"Campaign.sol\":8477:8505  payable(msg.sender).transfer */\n      0xffffffffffffffffffffffffffffffffffffffff\n      and\n        /* \"Campaign.sol\":8477:8528  payable(msg.sender).transfer(approvers[msg.sender]) */\n      0x08fc\n        /* \"Campaign.sol\":8506:8515  approvers */\n      0x03\n        /* \"Campaign.sol\":8506:8527  approvers[msg.sender] */\n      0x00\n        /* \"Campaign.sol\":8516:8526  msg.sender */\n      caller\n        /* \"Campaign.sol\":8506:8527  approvers[msg.sender] */\n      0xffffffffffffffffffffffffffffffffffffffff\n      and\n      0xffffffffffffffffffffffffffffffffffffffff\n      and\n      dup2\n      mstore\n      0x20\n      add\n      swap1\n      dup2\n      mstore\n      0x20\n      add\n      0x00\n      keccak256\n      sload\n        /* \"Campaign.sol\":8477:8528  payable(msg.sender).transfer(approvers[msg.sender]) */\n      swap1\n      dup2\n      iszero\n      mul\n      swap1\n      mload(0x40)\n      0x00\n      mload(0x40)\n      dup1\n      dup4\n      sub\n      dup2\n      dup6\n      dup9\n      dup9\n      call\n      swap4\n      pop\n      pop\n      pop\n      pop\n      iszero\n      dup1\n      iszero\n      tag_267\n      jumpi\n      returndatasize\n      0x00\n      dup1\n      returndatacopy\n      revert(0x00, returndatasize)\n    tag_267:\n      pop\n        /* \"Campaign.sol\":8562:8563  0 */\n      0x00\n        /* \"Campaign.sol\":8538:8547  approvers */\n      0x03\n        /* \"Campaign.sol\":8538:8559  approvers[msg.sender] */\n      0x00\n        /* \"Campaign.sol\":8548:8558  msg.sender */\n      caller\n        /* \"Campaign.sol\":8538:8559  approvers[msg.sender] */\n      0xffffffffffffffffffffffffffffffffffffffff\n      and\n      0xffffffffffffffffffffffffffffffffffffffff\n      and\n      dup2\n      mstore\n      0x20\n      add\n      swap1\n      dup2\n      mstore\n      0x20\n      add\n      0x00\n      keccak256\n        /* \"Campaign.sol\":8538:8563  approvers[msg.sender] = 0 */\n      dup2\n      swap1\n      sstore\n      pop\n        /* \"Campaign.sol\":8573:8588  _approversCount */\n      0x04\n      0x00\n        /* \"Campaign.sol\":8573:8590  _approversCount-- */\n      dup2\n      sload\n      dup1\n      swap3\n      swap2\n      swap1\n      tag_268\n      swap1\n      tag_269\n      jump\t// in\n    tag_268:\n      swap2\n      swap1\n      pop\n      sstore\n      pop\n        /* \"Campaign.sol\":8391:8598  function claimFunds() external forContributors {... */\n      jump\t// out\n        /* \"Campaign.sol\":2699:2789  function getManager() external view returns (address)... */\n    tag_99:\n        /* \"Campaign.sol\":2744:2751  address */\n      0x00\n        /* \"Campaign.sol\":2774:2782  _manager */\n      0x02\n      0x00\n      swap1\n      sload\n      swap1\n      0x0100\n      exp\n      swap1\n      div\n      0xffffffffffffffffffffffffffffffffffffffff\n      and\n        /* \"Campaign.sol\":2767:2782  return _manager */\n      swap1\n      pop\n        /* \"Campaign.sol\":2699:2789  function getManager() external view returns (address)... */\n      swap1\n      jump\t// out\n        /* \"Campaign.sol\":4057:4302  function contribute() public payable {... */\n    tag_103:\n        /* \"Campaign.sol\":4113:4123  _cancelled */\n      0x09\n      0x00\n      swap1\n      sload\n      swap1\n      0x0100\n      exp\n      swap1\n      div\n      0xff\n      and\n        /* \"Campaign.sol\":4112:4123  !_cancelled */\n      iszero\n        /* \"Campaign.sol\":4104:4124  require(!_cancelled) */\n      tag_272\n      jumpi\n      0x00\n      dup1\n      revert\n    tag_272:\n        /* \"Campaign.sol\":4155:4175  _minimumContribution */\n      sload(0x05)\n        /* \"Campaign.sol\":4142:4151  msg.value */\n      callvalue\n        /* \"Campaign.sol\":4142:4175  msg.value >= _minimumContribution */\n      lt\n      iszero\n        /* \"Campaign.sol\":4134:4176  require(msg.value >= _minimumContribution) */\n      tag_273\n      jumpi\n      0x00\n      dup1\n      revert\n    tag_273:\n        /* \"Campaign.sol\":4220:4221  0 */\n      0x00\n        /* \"Campaign.sol\":4195:4204  approvers */\n      0x03\n        /* \"Campaign.sol\":4195:4216  approvers[msg.sender] */\n      0x00\n        /* \"Campaign.sol\":4205:4215  msg.sender */\n      caller\n        /* \"Campaign.sol\":4195:4216  approvers[msg.sender] */\n      0xffffffffffffffffffffffffffffffffffffffff\n      and\n      0xffffffffffffffffffffffffffffffffffffffff\n      and\n      dup2\n      mstore\n      0x20\n      add\n      swap1\n      dup2\n      mstore\n      0x20\n      add\n      0x00\n      keccak256\n      sload\n        /* \"Campaign.sol\":4195:4221  approvers[msg.sender] == 0 */\n      eq\n        /* \"Campaign.sol\":4187:4222  require(approvers[msg.sender] == 0) */\n      tag_274\n      jumpi\n      0x00\n      dup1\n      revert\n    tag_274:\n        /* \"Campaign.sol\":4257:4266  msg.value */\n      callvalue\n        /* \"Campaign.sol\":4232:4241  approvers */\n      0x03\n        /* \"Campaign.sol\":4232:4253  approvers[msg.sender] */\n      0x00\n        /* \"Campaign.sol\":4242:4252  msg.sender */\n      caller\n        /* \"Campaign.sol\":4232:4253  approvers[msg.sender] */\n      0xffffffffffffffffffffffffffffffffffffffff\n      and\n      0xffffffffffffffffffffffffffffffffffffffff\n      and\n      dup2\n      mstore\n      0x20\n      add\n      swap1\n      dup2\n      mstore\n      0x20\n      add\n      0x00\n      keccak256\n        /* \"Campaign.sol\":4232:4267  approvers[msg.sender] = (msg.value) */\n      dup2\n      swap1\n      sstore\n      pop\n        /* \"Campaign.sol\":4277:4292  _approversCount */\n      0x04\n      0x00\n        /* \"Campaign.sol\":4277:4294  _approversCount++ */\n      dup2\n      sload\n      dup1\n      swap3\n      swap2\n      swap1\n      tag_275\n      swap1\n      tag_155\n      jump\t// in\n    tag_275:\n      swap2\n      swap1\n      pop\n      sstore\n      pop\n        /* \"Campaign.sol\":4057:4302  function contribute() public payable {... */\n      jump\t// out\n        /* \"Campaign.sol\":6501:6957  function submitRequest(string memory reqName) restricted external {... */\n    tag_107:\n        /* \"Campaign.sol\":8848:8856  _manager */\n      0x02\n      0x00\n      swap1\n      sload\n      swap1\n      0x0100\n      exp\n      swap1\n      div\n      0xffffffffffffffffffffffffffffffffffffffff\n      and\n        /* \"Campaign.sol\":8834:8856  msg.sender == _manager */\n      0xffffffffffffffffffffffffffffffffffffffff\n      and\n        /* \"Campaign.sol\":8834:8844  msg.sender */\n      caller\n        /* \"Campaign.sol\":8834:8856  msg.sender == _manager */\n      0xffffffffffffffffffffffffffffffffffffffff\n      and\n      eq\n        /* \"Campaign.sol\":8826:8857  require(msg.sender == _manager) */\n      tag_277\n      jumpi\n      0x00\n      dup1\n      revert\n    tag_277:\n        /* \"Campaign.sol\":6586:6596  _cancelled */\n      0x09\n      0x00\n      swap1\n      sload\n      swap1\n      0x0100\n      exp\n      swap1\n      div\n      0xff\n      and\n        /* \"Campaign.sol\":6585:6596  !_cancelled */\n      iszero\n        /* \"Campaign.sol\":6577:6597  require(!_cancelled) */\n      tag_279\n      jumpi\n      0x00\n      dup1\n      revert\n    tag_279:\n        /* \"Campaign.sol\":6607:6626  Request storage req */\n      0x00\n        /* \"Campaign.sol\":6629:6637  requests */\n      0x07\n        /* \"Campaign.sol\":6638:6645  reqName */\n      dup3\n        /* \"Campaign.sol\":6629:6646  requests[reqName] */\n      mload(0x40)\n      tag_280\n      swap2\n      swap1\n      tag_144\n      jump\t// in\n    tag_280:\n      swap1\n      dup2\n      mstore\n      0x20\n      add\n      mload(0x40)\n      dup1\n      swap2\n      sub\n      swap1\n      keccak256\n        /* \"Campaign.sol\":6607:6646  Request storage req = requests[reqName] */\n      swap1\n      pop\n        /* \"Campaign.sol\":6689:6690  0 */\n      0x00\n        /* \"Campaign.sol\":6670:6673  req */\n      dup2\n        /* \"Campaign.sol\":6670:6678  req.name */\n      0x00\n      add\n        /* \"Campaign.sol\":6664:6686  bytes(req.name).length */\n      dup1\n      sload\n      tag_281\n      swap1\n      tag_126\n      jump\t// in\n    tag_281:\n      swap1\n      pop\n        /* \"Campaign.sol\":6664:6690  bytes(req.name).length > 0 */\n      gt\n        /* \"Campaign.sol\":6656:6691  require(bytes(req.name).length > 0) */\n      tag_282\n      jumpi\n      0x00\n      dup1\n      revert\n    tag_282:\n        /* \"Campaign.sol\":6741:6748  reqName */\n      dup2\n        /* \"Campaign.sol\":6735:6756  bytes(reqName).length */\n      mload\n        /* \"Campaign.sol\":6715:6718  req */\n      dup2\n        /* \"Campaign.sol\":6715:6723  req.name */\n      0x00\n      add\n        /* \"Campaign.sol\":6709:6731  bytes(req.name).length */\n      dup1\n      sload\n      tag_283\n      swap1\n      tag_126\n      jump\t// in\n    tag_283:\n      swap1\n      pop\n        /* \"Campaign.sol\":6709:6756  bytes(req.name).length == bytes(reqName).length */\n      eq\n        /* \"Campaign.sol\":6701:6757  require(bytes(req.name).length == bytes(reqName).length) */\n      tag_284\n      jumpi\n      0x00\n      dup1\n      revert\n    tag_284:\n        /* \"Campaign.sol\":6775:6778  req */\n      dup1\n        /* \"Campaign.sol\":6775:6788  req.canSubmit */\n      0x08\n      add\n      0x00\n      swap1\n      sload\n      swap1\n      0x0100\n      exp\n      swap1\n      div\n      0xff\n      and\n        /* \"Campaign.sol\":6775:6805  req.canSubmit && !req.complete */\n      dup1\n      iszero\n      tag_285\n      jumpi\n      pop\n        /* \"Campaign.sol\":6793:6796  req */\n      dup1\n        /* \"Campaign.sol\":6793:6805  req.complete */\n      0x08\n      add\n      0x01\n      swap1\n      sload\n      swap1\n      0x0100\n      exp\n      swap1\n      div\n      0xff\n      and\n        /* \"Campaign.sol\":6792:6805  !req.complete */\n      iszero\n        /* \"Campaign.sol\":6775:6805  req.canSubmit && !req.complete */\n    tag_285:\n        /* \"Campaign.sol\":6775:6822  req.canSubmit && !req.complete && !req.rejected */\n      dup1\n      iszero\n      tag_286\n      jumpi\n      pop\n        /* \"Campaign.sol\":6810:6813  req */\n      dup1\n        /* \"Campaign.sol\":6810:6822  req.rejected */\n      0x08\n      add\n      0x02\n      swap1\n      sload\n      swap1\n      0x0100\n      exp\n      swap1\n      div\n      0xff\n      and\n        /* \"Campaign.sol\":6809:6822  !req.rejected */\n      iszero\n        /* \"Campaign.sol\":6775:6822  req.canSubmit && !req.complete && !req.rejected */\n    tag_286:\n        /* \"Campaign.sol\":6767:6823  require(req.canSubmit && !req.complete && !req.rejected) */\n      tag_287\n      jumpi\n      0x00\n      dup1\n      revert\n    tag_287:\n        /* \"Campaign.sol\":6866:6869  req */\n      dup1\n        /* \"Campaign.sol\":6866:6876  req.amount */\n      0x02\n      add\n      sload\n        /* \"Campaign.sol\":6841:6862  address(this).balance */\n      selfbalance\n        /* \"Campaign.sol\":6841:6876  address(this).balance >= req.amount */\n      lt\n      iszero\n        /* \"Campaign.sol\":6833:6877  require(address(this).balance >= req.amount) */\n      tag_288\n      jumpi\n      0x00\n      dup1\n      revert\n    tag_288:\n        /* \"Campaign.sol\":6887:6890  req */\n      dup1\n        /* \"Campaign.sol\":6887:6899  req.receiver */\n      0x03\n      add\n      0x00\n      swap1\n      sload\n      swap1\n      0x0100\n      exp\n      swap1\n      div\n      0xffffffffffffffffffffffffffffffffffffffff\n      and\n        /* \"Campaign.sol\":6887:6908  req.receiver.transfer */\n      0xffffffffffffffffffffffffffffffffffffffff\n      and\n        /* \"Campaign.sol\":6887:6920  req.receiver.transfer(req.amount) */\n      0x08fc\n        /* \"Campaign.sol\":6909:6912  req */\n      dup3\n        /* \"Campaign.sol\":6909:6919  req.amount */\n      0x02\n      add\n      sload\n        /* \"Campaign.sol\":6887:6920  req.receiver.transfer(req.amount) */\n      swap1\n      dup2\n      iszero\n      mul\n      swap1\n      mload(0x40)\n      0x00\n      mload(0x40)\n      dup1\n      dup4\n      sub\n      dup2\n      dup6\n      dup9\n      dup9\n      call\n      swap4\n      pop\n      pop\n      pop\n      pop\n      iszero\n      dup1\n      iszero\n      tag_290\n      jumpi\n      returndatasize\n      0x00\n      dup1\n      returndatacopy\n      revert(0x00, returndatasize)\n    tag_290:\n      pop\n        /* \"Campaign.sol\":6946:6950  true */\n      0x01\n        /* \"Campaign.sol\":6931:6934  req */\n      dup2\n        /* \"Campaign.sol\":6931:6943  req.complete */\n      0x08\n      add\n      0x01\n        /* \"Campaign.sol\":6931:6950  req.complete = true */\n      0x0100\n      exp\n      dup2\n      sload\n      dup2\n      0xff\n      mul\n      not\n      and\n      swap1\n      dup4\n      iszero\n      iszero\n      mul\n      or\n      swap1\n      sstore\n      pop\n        /* \"Campaign.sol\":6567:6957  {... */\n      pop\n        /* \"Campaign.sol\":6501:6957  function submitRequest(string memory reqName) restricted external {... */\n      pop\n      jump\t// out\n        /* \"Campaign.sol\":8209:8384  function cancelCampaign(string memory reason) external restricted {... */\n    tag_111:\n        /* \"Campaign.sol\":8848:8856  _manager */\n      0x02\n      0x00\n      swap1\n      sload\n      swap1\n      0x0100\n      exp\n      swap1\n      div\n      0xffffffffffffffffffffffffffffffffffffffff\n      and\n        /* \"Campaign.sol\":8834:8856  msg.sender == _manager */\n      0xffffffffffffffffffffffffffffffffffffffff\n      and\n        /* \"Campaign.sol\":8834:8844  msg.sender */\n      caller\n        /* \"Campaign.sol\":8834:8856  msg.sender == _manager */\n      0xffffffffffffffffffffffffffffffffffffffff\n      and\n      eq\n        /* \"Campaign.sol\":8826:8857  require(msg.sender == _manager) */\n      tag_292\n      jumpi\n      0x00\n      dup1\n      revert\n    tag_292:\n        /* \"Campaign.sol\":8316:8317  0 */\n      0x00\n        /* \"Campaign.sol\":8299:8305  reason */\n      dup2\n        /* \"Campaign.sol\":8293:8313  bytes(reason).length */\n      mload\n        /* \"Campaign.sol\":8293:8317  bytes(reason).length > 0 */\n      gt\n        /* \"Campaign.sol\":8285:8318  require(bytes(reason).length > 0) */\n      tag_294\n      jumpi\n      0x00\n      dup1\n      revert\n    tag_294:\n        /* \"Campaign.sol\":8341:8345  true */\n      0x01\n        /* \"Campaign.sol\":8328:8338  _cancelled */\n      0x09\n      0x00\n        /* \"Campaign.sol\":8328:8345  _cancelled = true */\n      0x0100\n      exp\n      dup2\n      sload\n      dup2\n      0xff\n      mul\n      not\n      and\n      swap1\n      dup4\n      iszero\n      iszero\n      mul\n      or\n      swap1\n      sstore\n      pop\n        /* \"Campaign.sol\":8371:8377  reason */\n      dup1\n        /* \"Campaign.sol\":8355:8368  _cancelReason */\n      0x0a\n        /* \"Campaign.sol\":8355:8377  _cancelReason = reason */\n      swap1\n      dup2\n      tag_295\n      swap2\n      swap1\n      tag_161\n      jump\t// in\n    tag_295:\n      pop\n        /* \"Campaign.sol\":8209:8384  function cancelCampaign(string memory reason) external restricted {... */\n      pop\n      jump\t// out\n        /* \"Campaign.sol\":6963:7507  function claimRequest(string memory reqName, string memory description) external forContributors... */\n    tag_115:\n        /* \"Campaign.sol\":8951:8952  0 */\n      0x00\n        /* \"Campaign.sol\":8926:8935  approvers */\n      0x03\n        /* \"Campaign.sol\":8926:8947  approvers[msg.sender] */\n      0x00\n        /* \"Campaign.sol\":8936:8946  msg.sender */\n      caller\n        /* \"Campaign.sol\":8926:8947  approvers[msg.sender] */\n      0xffffffffffffffffffffffffffffffffffffffff\n      and\n      0xffffffffffffffffffffffffffffffffffffffff\n      and\n      dup2\n      mstore\n      0x20\n      add\n      swap1\n      dup2\n      mstore\n      0x20\n      add\n      0x00\n      keccak256\n      sload\n        /* \"Campaign.sol\":8926:8952  approvers[msg.sender] != 0 */\n      sub\n        /* \"Campaign.sol\":8918:8953  require(approvers[msg.sender] != 0) */\n      tag_297\n      jumpi\n      0x00\n      dup1\n      revert\n    tag_297:\n        /* \"Campaign.sol\":7083:7093  _cancelled */\n      0x09\n      0x00\n      swap1\n      sload\n      swap1\n      0x0100\n      exp\n      swap1\n      div\n      0xff\n      and\n        /* \"Campaign.sol\":7082:7093  !_cancelled */\n      iszero\n        /* \"Campaign.sol\":7074:7094  require(!_cancelled) */\n      tag_299\n      jumpi\n      0x00\n      dup1\n      revert\n    tag_299:\n        /* \"Campaign.sol\":7136:7137  0 */\n      0x00\n        /* \"Campaign.sol\":7112:7121  approvers */\n      0x03\n        /* \"Campaign.sol\":7112:7133  approvers[msg.sender] */\n      0x00\n        /* \"Campaign.sol\":7122:7132  msg.sender */\n      caller\n        /* \"Campaign.sol\":7112:7133  approvers[msg.sender] */\n      0xffffffffffffffffffffffffffffffffffffffff\n      and\n      0xffffffffffffffffffffffffffffffffffffffff\n      and\n      dup2\n      mstore\n      0x20\n      add\n      swap1\n      dup2\n      mstore\n      0x20\n      add\n      0x00\n      keccak256\n      sload\n        /* \"Campaign.sol\":7112:7137  approvers[msg.sender] > 0 */\n      gt\n        /* \"Campaign.sol\":7104:7138  require(approvers[msg.sender] > 0) */\n      tag_300\n      jumpi\n      0x00\n      dup1\n      revert\n    tag_300:\n        /* \"Campaign.sol\":7196:7197  0 */\n      0x00\n        /* \"Campaign.sol\":7162:7170  requests */\n      0x07\n        /* \"Campaign.sol\":7171:7178  reqName */\n      dup4\n        /* \"Campaign.sol\":7162:7179  requests[reqName] */\n      mload(0x40)\n      tag_301\n      swap2\n      swap1\n      tag_144\n      jump\t// in\n    tag_301:\n      swap1\n      dup2\n      mstore\n      0x20\n      add\n      mload(0x40)\n      dup1\n      swap2\n      sub\n      swap1\n      keccak256\n        /* \"Campaign.sol\":7162:7184  requests[reqName].name */\n      0x00\n      add\n        /* \"Campaign.sol\":7156:7192  bytes(requests[reqName].name).length */\n      dup1\n      sload\n      tag_302\n      swap1\n      tag_126\n      jump\t// in\n    tag_302:\n      swap1\n      pop\n        /* \"Campaign.sol\":7156:7197  bytes(requests[reqName].name).length != 0 */\n      sub\n        /* \"Campaign.sol\":7148:7198  require(bytes(requests[reqName].name).length != 0) */\n      tag_303\n      jumpi\n      0x00\n      dup1\n      revert\n    tag_303:\n        /* \"Campaign.sol\":7217:7225  requests */\n      0x07\n        /* \"Campaign.sol\":7226:7233  reqName */\n      dup3\n        /* \"Campaign.sol\":7217:7234  requests[reqName] */\n      mload(0x40)\n      tag_304\n      swap2\n      swap1\n      tag_144\n      jump\t// in\n    tag_304:\n      swap1\n      dup2\n      mstore\n      0x20\n      add\n      mload(0x40)\n      dup1\n      swap2\n      sub\n      swap1\n      keccak256\n        /* \"Campaign.sol\":7217:7243  requests[reqName].rejected */\n      0x08\n      add\n      0x02\n      swap1\n      sload\n      swap1\n      0x0100\n      exp\n      swap1\n      div\n      0xff\n      and\n        /* \"Campaign.sol\":7216:7243  !requests[reqName].rejected */\n      iszero\n        /* \"Campaign.sol\":7216:7274  !requests[reqName].rejected && !requests[reqName].complete */\n      dup1\n      iszero\n      tag_305\n      jumpi\n      pop\n        /* \"Campaign.sol\":7248:7256  requests */\n      0x07\n        /* \"Campaign.sol\":7257:7264  reqName */\n      dup3\n        /* \"Campaign.sol\":7248:7265  requests[reqName] */\n      mload(0x40)\n      tag_306\n      swap2\n      swap1\n      tag_144\n      jump\t// in\n    tag_306:\n      swap1\n      dup2\n      mstore\n      0x20\n      add\n      mload(0x40)\n      dup1\n      swap2\n      sub\n      swap1\n      keccak256\n        /* \"Campaign.sol\":7248:7274  requests[reqName].complete */\n      0x08\n      add\n      0x01\n      swap1\n      sload\n      swap1\n      0x0100\n      exp\n      swap1\n      div\n      0xff\n      and\n        /* \"Campaign.sol\":7247:7274  !requests[reqName].complete */\n      iszero\n        /* \"Campaign.sol\":7216:7274  !requests[reqName].rejected && !requests[reqName].complete */\n    tag_305:\n        /* \"Campaign.sol\":7208:7275  require(!requests[reqName].rejected && !requests[reqName].complete) */\n      tag_307\n      jumpi\n      0x00\n      dup1\n      revert\n    tag_307:\n        /* \"Campaign.sol\":7285:7310  RequestClaim memory claim */\n      0x00\n        /* \"Campaign.sol\":7313:7412  RequestClaim({... */\n      mload(0x40)\n      dup1\n      0x40\n      add\n      0x40\n      mstore\n      dup1\n        /* \"Campaign.sol\":7353:7363  msg.sender */\n      caller\n        /* \"Campaign.sol\":7313:7412  RequestClaim({... */\n      0xffffffffffffffffffffffffffffffffffffffff\n      and\n      dup2\n      mstore\n      0x20\n      add\n        /* \"Campaign.sol\":7390:7401  description */\n      dup4\n        /* \"Campaign.sol\":7313:7412  RequestClaim({... */\n      dup2\n      mstore\n      pop\n        /* \"Campaign.sol\":7285:7412  RequestClaim memory claim = RequestClaim({... */\n      swap1\n      pop\n        /* \"Campaign.sol\":7423:7431  requests */\n      0x07\n        /* \"Campaign.sol\":7432:7439  reqName */\n      dup4\n        /* \"Campaign.sol\":7423:7440  requests[reqName] */\n      mload(0x40)\n      tag_308\n      swap2\n      swap1\n      tag_144\n      jump\t// in\n    tag_308:\n      swap1\n      dup2\n      mstore\n      0x20\n      add\n      mload(0x40)\n      dup1\n      swap2\n      sub\n      swap1\n      keccak256\n        /* \"Campaign.sol\":7423:7447  requests[reqName].claims */\n      0x0b\n      add\n        /* \"Campaign.sol\":7453:7458  claim */\n      dup2\n        /* \"Campaign.sol\":7423:7459  requests[reqName].claims.push(claim) */\n      swap1\n      dup1\n      0x01\n      dup2\n      sload\n      add\n      dup1\n      dup3\n      sstore\n      dup1\n      swap2\n      pop\n      pop\n      0x01\n      swap1\n      sub\n      swap1\n      0x00\n      mstore\n      keccak256(0x00, 0x20)\n      swap1\n      0x02\n      mul\n      add\n      0x00\n      swap1\n      swap2\n      swap1\n      swap2\n      swap1\n      swap2\n      pop\n      0x00\n      dup3\n      add\n      mload\n      dup2\n      0x00\n      add\n      exp(0x0100, 0x00)\n      dup2\n      sload\n      dup2\n      0xffffffffffffffffffffffffffffffffffffffff\n      mul\n      not\n      and\n      swap1\n      dup4\n      0xffffffffffffffffffffffffffffffffffffffff\n      and\n      mul\n      or\n      swap1\n      sstore\n      pop\n      0x20\n      dup3\n      add\n      mload\n      dup2\n      0x01\n      add\n      swap1\n      dup2\n      tag_310\n      swap2\n      swap1\n      tag_161\n      jump\t// in\n    tag_310:\n      pop\n      pop\n      pop\n        /* \"Campaign.sol\":7469:7477  requests */\n      0x07\n        /* \"Campaign.sol\":7478:7485  reqName */\n      dup4\n        /* \"Campaign.sol\":7469:7486  requests[reqName] */\n      mload(0x40)\n      tag_311\n      swap2\n      swap1\n      tag_144\n      jump\t// in\n    tag_311:\n      swap1\n      dup2\n      mstore\n      0x20\n      add\n      mload(0x40)\n      dup1\n      swap2\n      sub\n      swap1\n      keccak256\n        /* \"Campaign.sol\":7469:7498  requests[reqName].claimsCount */\n      0x07\n      add\n      0x00\n        /* \"Campaign.sol\":7469:7500  requests[reqName].claimsCount++ */\n      dup2\n      sload\n      dup1\n      swap3\n      swap2\n      swap1\n      tag_312\n      swap1\n      tag_155\n      jump\t// in\n    tag_312:\n      swap2\n      swap1\n      pop\n      sstore\n      pop\n        /* \"Campaign.sol\":7064:7507  {... */\n      pop\n        /* \"Campaign.sol\":6963:7507  function claimRequest(string memory reqName, string memory description) external forContributors... */\n      pop\n      pop\n      jump\t// out\n        /* \"Campaign.sol\":3110:3215  function getMinimumContribution() external view returns(uint){... */\n    tag_118:\n        /* \"Campaign.sol\":3166:3170  uint */\n      0x00\n        /* \"Campaign.sol\":3188:3208  _minimumContribution */\n      sload(0x05)\n        /* \"Campaign.sol\":3181:3208  return _minimumContribution */\n      swap1\n      pop\n        /* \"Campaign.sol\":3110:3215  function getMinimumContribution() external view returns(uint){... */\n      swap1\n      jump\t// out\n        /* \"Campaign.sol\":3007:3105  function getContributorsCount() external view returns(uint){... */\n    tag_122:\n        /* \"Campaign.sol\":3061:3065  uint */\n      0x00\n        /* \"Campaign.sol\":3083:3098  _approversCount */\n      sload(0x04)\n        /* \"Campaign.sol\":3076:3098  return _approversCount */\n      swap1\n      pop\n        /* \"Campaign.sol\":3007:3105  function getContributorsCount() external view returns(uint){... */\n      swap1\n      jump\t// out\n    tag_164:\n      mload(0x40)\n      dup1\n      0x0120\n      add\n      0x40\n      mstore\n      dup1\n      and(0xffffffffffffffffffffffffffffffffffffffff, 0x00)\n      dup2\n      mstore\n      0x20\n      add\n      0x60\n      dup2\n      mstore\n      0x20\n      add\n      0x60\n      dup2\n      mstore\n      0x20\n      add\n      0x00\n      dup2\n      mstore\n      0x20\n      add\n      0x00\n      dup2\n      mstore\n      0x20\n      add\n      0x00\n      dup2\n      mstore\n      0x20\n      add\n      0x00\n      dup2\n      mstore\n      0x20\n      add\n      iszero(iszero(0x00))\n      dup2\n      mstore\n      0x20\n      add\n      0x60\n      dup2\n      mstore\n      pop\n      swap1\n      jump\t// out\n        /* \"#utility.yul\":7:82   */\n    tag_315:\n        /* \"#utility.yul\":40:46   */\n      0x00\n        /* \"#utility.yul\":73:75   */\n      0x40\n        /* \"#utility.yul\":67:76   */\n      mload\n        /* \"#utility.yul\":57:76   */\n      swap1\n      pop\n        /* \"#utility.yul\":7:82   */\n      swap1\n      jump\t// out\n        /* \"#utility.yul\":88:205   */\n    tag_316:\n        /* \"#utility.yul\":197:198   */\n      0x00\n        /* \"#utility.yul\":194:195   */\n      dup1\n        /* \"#utility.yul\":187:199   */\n      revert\n        /* \"#utility.yul\":211:328   */\n    tag_317:\n        /* \"#utility.yul\":320:321   */\n      0x00\n        /* \"#utility.yul\":317:318   */\n      dup1\n        /* \"#utility.yul\":310:322   */\n      revert\n        /* \"#utility.yul\":334:460   */\n    tag_318:\n        /* \"#utility.yul\":371:378   */\n      0x00\n        /* \"#utility.yul\":411:453   */\n      0xffffffffffffffffffffffffffffffffffffffff\n        /* \"#utility.yul\":404:409   */\n      dup3\n        /* \"#utility.yul\":400:454   */\n      and\n        /* \"#utility.yul\":389:454   */\n      swap1\n      pop\n        /* \"#utility.yul\":334:460   */\n      swap2\n      swap1\n      pop\n      jump\t// out\n        /* \"#utility.yul\":466:562   */\n    tag_319:\n        /* \"#utility.yul\":503:510   */\n      0x00\n        /* \"#utility.yul\":532:556   */\n      tag_394\n        /* \"#utility.yul\":550:555   */\n      dup3\n        /* \"#utility.yul\":532:556   */\n      tag_318\n      jump\t// in\n    tag_394:\n        /* \"#utility.yul\":521:556   */\n      swap1\n      pop\n        /* \"#utility.yul\":466:562   */\n      swap2\n      swap1\n      pop\n      jump\t// out\n        /* \"#utility.yul\":568:690   */\n    tag_320:\n        /* \"#utility.yul\":641:665   */\n      tag_396\n        /* \"#utility.yul\":659:664   */\n      dup2\n        /* \"#utility.yul\":641:665   */\n      tag_319\n      jump\t// in\n    tag_396:\n        /* \"#utility.yul\":634:639   */\n      dup2\n        /* \"#utility.yul\":631:666   */\n      eq\n        /* \"#utility.yul\":621:684   */\n      tag_397\n      jumpi\n        /* \"#utility.yul\":680:681   */\n      0x00\n        /* \"#utility.yul\":677:678   */\n      dup1\n        /* \"#utility.yul\":670:682   */\n      revert\n        /* \"#utility.yul\":621:684   */\n    tag_397:\n        /* \"#utility.yul\":568:690   */\n      pop\n      jump\t// out\n        /* \"#utility.yul\":696:835   */\n    tag_321:\n        /* \"#utility.yul\":742:747   */\n      0x00\n        /* \"#utility.yul\":780:786   */\n      dup2\n        /* \"#utility.yul\":767:787   */\n      calldataload\n        /* \"#utility.yul\":758:787   */\n      swap1\n      pop\n        /* \"#utility.yul\":796:829   */\n      tag_399\n        /* \"#utility.yul\":823:828   */\n      dup2\n        /* \"#utility.yul\":796:829   */\n      tag_320\n      jump\t// in\n    tag_399:\n        /* \"#utility.yul\":696:835   */\n      swap3\n      swap2\n      pop\n      pop\n      jump\t// out\n        /* \"#utility.yul\":841:1170   */\n    tag_30:\n        /* \"#utility.yul\":900:906   */\n      0x00\n        /* \"#utility.yul\":949:951   */\n      0x20\n        /* \"#utility.yul\":937:946   */\n      dup3\n        /* \"#utility.yul\":928:935   */\n      dup5\n        /* \"#utility.yul\":924:947   */\n      sub\n        /* \"#utility.yul\":920:952   */\n      slt\n        /* \"#utility.yul\":917:1036   */\n      iszero\n      tag_401\n      jumpi\n        /* \"#utility.yul\":955:1034   */\n      tag_402\n      tag_316\n      jump\t// in\n    tag_402:\n        /* \"#utility.yul\":917:1036   */\n    tag_401:\n        /* \"#utility.yul\":1075:1076   */\n      0x00\n        /* \"#utility.yul\":1100:1153   */\n      tag_403\n        /* \"#utility.yul\":1145:1152   */\n      dup5\n        /* \"#utility.yul\":1136:1142   */\n      dup3\n        /* \"#utility.yul\":1125:1134   */\n      dup6\n        /* \"#utility.yul\":1121:1143   */\n      add\n        /* \"#utility.yul\":1100:1153   */\n      tag_321\n      jump\t// in\n    tag_403:\n        /* \"#utility.yul\":1090:1153   */\n      swap2\n      pop\n        /* \"#utility.yul\":1046:1163   */\n      pop\n        /* \"#utility.yul\":841:1170   */\n      swap3\n      swap2\n      pop\n      pop\n      jump\t// out\n        /* \"#utility.yul\":1176:1253   */\n    tag_322:\n        /* \"#utility.yul\":1213:1220   */\n      0x00\n        /* \"#utility.yul\":1242:1247   */\n      dup2\n        /* \"#utility.yul\":1231:1247   */\n      swap1\n      pop\n        /* \"#utility.yul\":1176:1253   */\n      swap2\n      swap1\n      pop\n      jump\t// out\n        /* \"#utility.yul\":1259:1377   */\n    tag_323:\n        /* \"#utility.yul\":1346:1370   */\n      tag_406\n        /* \"#utility.yul\":1364:1369   */\n      dup2\n        /* \"#utility.yul\":1346:1370   */\n      tag_322\n      jump\t// in\n    tag_406:\n        /* \"#utility.yul\":1341:1344   */\n      dup3\n        /* \"#utility.yul\":1334:1371   */\n      mstore\n        /* \"#utility.yul\":1259:1377   */\n      pop\n      pop\n      jump\t// out\n        /* \"#utility.yul\":1383:1605   */\n    tag_33:\n        /* \"#utility.yul\":1476:1480   */\n      0x00\n        /* \"#utility.yul\":1514:1516   */\n      0x20\n        /* \"#utility.yul\":1503:1512   */\n      dup3\n        /* \"#utility.yul\":1499:1517   */\n      add\n        /* \"#utility.yul\":1491:1517   */\n      swap1\n      pop\n        /* \"#utility.yul\":1527:1598   */\n      tag_408\n        /* \"#utility.yul\":1595:1596   */\n      0x00\n        /* \"#utility.yul\":1584:1593   */\n      dup4\n        /* \"#utility.yul\":1580:1597   */\n      add\n        /* \"#utility.yul\":1571:1577   */\n      dup5\n        /* \"#utility.yul\":1527:1598   */\n      tag_323\n      jump\t// in\n    tag_408:\n        /* \"#utility.yul\":1383:1605   */\n      swap3\n      swap2\n      pop\n      pop\n      jump\t// out\n        /* \"#utility.yul\":1611:1710   */\n    tag_324:\n        /* \"#utility.yul\":1663:1669   */\n      0x00\n        /* \"#utility.yul\":1697:1702   */\n      dup2\n        /* \"#utility.yul\":1691:1703   */\n      mload\n        /* \"#utility.yul\":1681:1703   */\n      swap1\n      pop\n        /* \"#utility.yul\":1611:1710   */\n      swap2\n      swap1\n      pop\n      jump\t// out\n        /* \"#utility.yul\":1716:1885   */\n    tag_325:\n        /* \"#utility.yul\":1800:1811   */\n      0x00\n        /* \"#utility.yul\":1834:1840   */\n      dup3\n        /* \"#utility.yul\":1829:1832   */\n      dup3\n        /* \"#utility.yul\":1822:1841   */\n      mstore\n        /* \"#utility.yul\":1874:1878   */\n      0x20\n        /* \"#utility.yul\":1869:1872   */\n      dup3\n        /* \"#utility.yul\":1865:1879   */\n      add\n        /* \"#utility.yul\":1850:1879   */\n      swap1\n      pop\n        /* \"#utility.yul\":1716:1885   */\n      swap3\n      swap2\n      pop\n      pop\n      jump\t// out\n        /* \"#utility.yul\":1891:2137   */\n    tag_326:\n        /* \"#utility.yul\":1972:1973   */\n      0x00\n        /* \"#utility.yul\":1982:2095   */\n    tag_412:\n        /* \"#utility.yul\":1996:2002   */\n      dup4\n        /* \"#utility.yul\":1993:1994   */\n      dup2\n        /* \"#utility.yul\":1990:2003   */\n      lt\n        /* \"#utility.yul\":1982:2095   */\n      iszero\n      tag_414\n      jumpi\n        /* \"#utility.yul\":2081:2082   */\n      dup1\n        /* \"#utility.yul\":2076:2079   */\n      dup3\n        /* \"#utility.yul\":2072:2083   */\n      add\n        /* \"#utility.yul\":2066:2084   */\n      mload\n        /* \"#utility.yul\":2062:2063   */\n      dup2\n        /* \"#utility.yul\":2057:2060   */\n      dup5\n        /* \"#utility.yul\":2053:2064   */\n      add\n        /* \"#utility.yul\":2046:2085   */\n      mstore\n        /* \"#utility.yul\":2018:2020   */\n      0x20\n        /* \"#utility.yul\":2015:2016   */\n      dup2\n        /* \"#utility.yul\":2011:2021   */\n      add\n        /* \"#utility.yul\":2006:2021   */\n      swap1\n      pop\n        /* \"#utility.yul\":1982:2095   */\n      jump(tag_412)\n    tag_414:\n        /* \"#utility.yul\":2129:2130   */\n      0x00\n        /* \"#utility.yul\":2120:2126   */\n      dup5\n        /* \"#utility.yul\":2115:2118   */\n      dup5\n        /* \"#utility.yul\":2111:2127   */\n      add\n        /* \"#utility.yul\":2104:2131   */\n      mstore\n        /* \"#utility.yul\":1953:2137   */\n      pop\n        /* \"#utility.yul\":1891:2137   */\n      pop\n      pop\n      pop\n      jump\t// out\n        /* \"#utility.yul\":2143:2245   */\n    tag_327:\n        /* \"#utility.yul\":2184:2190   */\n      0x00\n        /* \"#utility.yul\":2235:2237   */\n      0x1f\n        /* \"#utility.yul\":2231:2238   */\n      not\n        /* \"#utility.yul\":2226:2228   */\n      0x1f\n        /* \"#utility.yul\":2219:2224   */\n      dup4\n        /* \"#utility.yul\":2215:2229   */\n      add\n        /* \"#utility.yul\":2211:2239   */\n      and\n        /* \"#utility.yul\":2201:2239   */\n      swap1\n      pop\n        /* \"#utility.yul\":2143:2245   */\n      swap2\n      swap1\n      pop\n      jump\t// out\n        /* \"#utility.yul\":2251:2628   */\n    tag_328:\n        /* \"#utility.yul\":2339:2342   */\n      0x00\n        /* \"#utility.yul\":2367:2406   */\n      tag_417\n        /* \"#utility.yul\":2400:2405   */\n      dup3\n        /* \"#utility.yul\":2367:2406   */\n      tag_324\n      jump\t// in\n    tag_417:\n        /* \"#utility.yul\":2422:2493   */\n      tag_418\n        /* \"#utility.yul\":2486:2492   */\n      dup2\n        /* \"#utility.yul\":2481:2484   */\n      dup6\n        /* \"#utility.yul\":2422:2493   */\n      tag_325\n      jump\t// in\n    tag_418:\n        /* \"#utility.yul\":2415:2493   */\n      swap4\n      pop\n        /* \"#utility.yul\":2502:2567   */\n      tag_419\n        /* \"#utility.yul\":2560:2566   */\n      dup2\n        /* \"#utility.yul\":2555:2558   */\n      dup6\n        /* \"#utility.yul\":2548:2552   */\n      0x20\n        /* \"#utility.yul\":2541:2546   */\n      dup7\n        /* \"#utility.yul\":2537:2553   */\n      add\n        /* \"#utility.yul\":2502:2567   */\n      tag_326\n      jump\t// in\n    tag_419:\n        /* \"#utility.yul\":2592:2621   */\n      tag_420\n        /* \"#utility.yul\":2614:2620   */\n      dup2\n        /* \"#utility.yul\":2592:2621   */\n      tag_327\n      jump\t// in\n    tag_420:\n        /* \"#utility.yul\":2587:2590   */\n      dup5\n        /* \"#utility.yul\":2583:2622   */\n      add\n        /* \"#utility.yul\":2576:2622   */\n      swap2\n      pop\n        /* \"#utility.yul\":2343:2628   */\n      pop\n        /* \"#utility.yul\":2251:2628   */\n      swap3\n      swap2\n      pop\n      pop\n      jump\t// out\n        /* \"#utility.yul\":2634:2947   */\n    tag_38:\n        /* \"#utility.yul\":2747:2751   */\n      0x00\n        /* \"#utility.yul\":2785:2787   */\n      0x20\n        /* \"#utility.yul\":2774:2783   */\n      dup3\n        /* \"#utility.yul\":2770:2788   */\n      add\n        /* \"#utility.yul\":2762:2788   */\n      swap1\n      pop\n        /* \"#utility.yul\":2834:2843   */\n      dup2\n        /* \"#utility.yul\":2828:2832   */\n      dup2\n        /* \"#utility.yul\":2824:2844   */\n      sub\n        /* \"#utility.yul\":2820:2821   */\n      0x00\n        /* \"#utility.yul\":2809:2818   */\n      dup4\n        /* \"#utility.yul\":2805:2822   */\n      add\n        /* \"#utility.yul\":2798:2845   */\n      mstore\n        /* \"#utility.yul\":2862:2940   */\n      tag_422\n        /* \"#utility.yul\":2935:2939   */\n      dup2\n        /* \"#utility.yul\":2926:2932   */\n      dup5\n        /* \"#utility.yul\":2862:2940   */\n      tag_328\n      jump\t// in\n    tag_422:\n        /* \"#utility.yul\":2854:2940   */\n      swap1\n      pop\n        /* \"#utility.yul\":2634:2947   */\n      swap3\n      swap2\n      pop\n      pop\n      jump\t// out\n        /* \"#utility.yul\":2953:3070   */\n    tag_329:\n        /* \"#utility.yul\":3062:3063   */\n      0x00\n        /* \"#utility.yul\":3059:3060   */\n      dup1\n        /* \"#utility.yul\":3052:3064   */\n      revert\n        /* \"#utility.yul\":3076:3193   */\n    tag_330:\n        /* \"#utility.yul\":3185:3186   */\n      0x00\n        /* \"#utility.yul\":3182:3183   */\n      dup1\n        /* \"#utility.yul\":3175:3187   */\n      revert\n        /* \"#utility.yul\":3199:3379   */\n    tag_331:\n        /* \"#utility.yul\":3247:3324   */\n      0x4e487b7100000000000000000000000000000000000000000000000000000000\n        /* \"#utility.yul\":3244:3245   */\n      0x00\n        /* \"#utility.yul\":3237:3325   */\n      mstore\n        /* \"#utility.yul\":3344:3348   */\n      0x41\n        /* \"#utility.yul\":3341:3342   */\n      0x04\n        /* \"#utility.yul\":3334:3349   */\n      mstore\n        /* \"#utility.yul\":3368:3372   */\n      0x24\n        /* \"#utility.yul\":3365:3366   */\n      0x00\n        /* \"#utility.yul\":3358:3373   */\n      revert\n        /* \"#utility.yul\":3385:3666   */\n    tag_332:\n        /* \"#utility.yul\":3468:3495   */\n      tag_427\n        /* \"#utility.yul\":3490:3494   */\n      dup3\n        /* \"#utility.yul\":3468:3495   */\n      tag_327\n      jump\t// in\n    tag_427:\n        /* \"#utility.yul\":3460:3466   */\n      dup2\n        /* \"#utility.yul\":3456:3496   */\n      add\n        /* \"#utility.yul\":3598:3604   */\n      dup2\n        /* \"#utility.yul\":3586:3596   */\n      dup2\n        /* \"#utility.yul\":3583:3605   */\n      lt\n        /* \"#utility.yul\":3562:3580   */\n      0xffffffffffffffff\n        /* \"#utility.yul\":3550:3560   */\n      dup3\n        /* \"#utility.yul\":3547:3581   */\n      gt\n        /* \"#utility.yul\":3544:3606   */\n      or\n        /* \"#utility.yul\":3541:3629   */\n      iszero\n      tag_428\n      jumpi\n        /* \"#utility.yul\":3609:3627   */\n      tag_429\n      tag_331\n      jump\t// in\n    tag_429:\n        /* \"#utility.yul\":3541:3629   */\n    tag_428:\n        /* \"#utility.yul\":3649:3659   */\n      dup1\n        /* \"#utility.yul\":3645:3647   */\n      0x40\n        /* \"#utility.yul\":3638:3660   */\n      mstore\n        /* \"#utility.yul\":3428:3666   */\n      pop\n        /* \"#utility.yul\":3385:3666   */\n      pop\n      pop\n      jump\t// out\n        /* \"#utility.yul\":3672:3801   */\n    tag_333:\n        /* \"#utility.yul\":3706:3712   */\n      0x00\n        /* \"#utility.yul\":3733:3753   */\n      tag_431\n      tag_315\n      jump\t// in\n    tag_431:\n        /* \"#utility.yul\":3723:3753   */\n      swap1\n      pop\n        /* \"#utility.yul\":3762:3795   */\n      tag_432\n        /* \"#utility.yul\":3790:3794   */\n      dup3\n        /* \"#utility.yul\":3782:3788   */\n      dup3\n        /* \"#utility.yul\":3762:3795   */\n      tag_332\n      jump\t// in\n    tag_432:\n        /* \"#utility.yul\":3672:3801   */\n      swap2\n      swap1\n      pop\n      jump\t// out\n        /* \"#utility.yul\":3807:4115   */\n    tag_334:\n        /* \"#utility.yul\":3869:3873   */\n      0x00\n        /* \"#utility.yul\":3959:3977   */\n      0xffffffffffffffff\n        /* \"#utility.yul\":3951:3957   */\n      dup3\n        /* \"#utility.yul\":3948:3978   */\n      gt\n        /* \"#utility.yul\":3945:4001   */\n      iszero\n      tag_434\n      jumpi\n        /* \"#utility.yul\":3981:3999   */\n      tag_435\n      tag_331\n      jump\t// in\n    tag_435:\n        /* \"#utility.yul\":3945:4001   */\n    tag_434:\n        /* \"#utility.yul\":4019:4048   */\n      tag_436\n        /* \"#utility.yul\":4041:4047   */\n      dup3\n        /* \"#utility.yul\":4019:4048   */\n      tag_327\n      jump\t// in\n    tag_436:\n        /* \"#utility.yul\":4011:4048   */\n      swap1\n      pop\n        /* \"#utility.yul\":4103:4107   */\n      0x20\n        /* \"#utility.yul\":4097:4101   */\n      dup2\n        /* \"#utility.yul\":4093:4108   */\n      add\n        /* \"#utility.yul\":4085:4108   */\n      swap1\n      pop\n        /* \"#utility.yul\":3807:4115   */\n      swap2\n      swap1\n      pop\n      jump\t// out\n        /* \"#utility.yul\":4121:4267   */\n    tag_335:\n        /* \"#utility.yul\":4218:4224   */\n      dup3\n        /* \"#utility.yul\":4213:4216   */\n      dup2\n        /* \"#utility.yul\":4208:4211   */\n      dup4\n        /* \"#utility.yul\":4195:4225   */\n      calldatacopy\n        /* \"#utility.yul\":4259:4260   */\n      0x00\n        /* \"#utility.yul\":4250:4256   */\n      dup4\n        /* \"#utility.yul\":4245:4248   */\n      dup4\n        /* \"#utility.yul\":4241:4257   */\n      add\n        /* \"#utility.yul\":4234:4261   */\n      mstore\n        /* \"#utility.yul\":4121:4267   */\n      pop\n      pop\n      pop\n      jump\t// out\n        /* \"#utility.yul\":4273:4698   */\n    tag_336:\n        /* \"#utility.yul\":4351:4356   */\n      0x00\n        /* \"#utility.yul\":4376:4442   */\n      tag_439\n        /* \"#utility.yul\":4392:4441   */\n      tag_440\n        /* \"#utility.yul\":4434:4440   */\n      dup5\n        /* \"#utility.yul\":4392:4441   */\n      tag_334\n      jump\t// in\n    tag_440:\n        /* \"#utility.yul\":4376:4442   */\n      tag_333\n      jump\t// in\n    tag_439:\n        /* \"#utility.yul\":4367:4442   */\n      swap1\n      pop\n        /* \"#utility.yul\":4465:4471   */\n      dup3\n        /* \"#utility.yul\":4458:4463   */\n      dup2\n        /* \"#utility.yul\":4451:4472   */\n      mstore\n        /* \"#utility.yul\":4503:4507   */\n      0x20\n        /* \"#utility.yul\":4496:4501   */\n      dup2\n        /* \"#utility.yul\":4492:4508   */\n      add\n        /* \"#utility.yul\":4541:4544   */\n      dup5\n        /* \"#utility.yul\":4532:4538   */\n      dup5\n        /* \"#utility.yul\":4527:4530   */\n      dup5\n        /* \"#utility.yul\":4523:4539   */\n      add\n        /* \"#utility.yul\":4520:4545   */\n      gt\n        /* \"#utility.yul\":4517:4629   */\n      iszero\n      tag_441\n      jumpi\n        /* \"#utility.yul\":4548:4627   */\n      tag_442\n      tag_330\n      jump\t// in\n    tag_442:\n        /* \"#utility.yul\":4517:4629   */\n    tag_441:\n        /* \"#utility.yul\":4638:4692   */\n      tag_443\n        /* \"#utility.yul\":4685:4691   */\n      dup5\n        /* \"#utility.yul\":4680:4683   */\n      dup3\n        /* \"#utility.yul\":4675:4678   */\n      dup6\n        /* \"#utility.yul\":4638:4692   */\n      tag_335\n      jump\t// in\n    tag_443:\n        /* \"#utility.yul\":4357:4698   */\n      pop\n        /* \"#utility.yul\":4273:4698   */\n      swap4\n      swap3\n      pop\n      pop\n      pop\n      jump\t// out\n        /* \"#utility.yul\":4718:5058   */\n    tag_337:\n        /* \"#utility.yul\":4774:4779   */\n      0x00\n        /* \"#utility.yul\":4823:4826   */\n      dup3\n        /* \"#utility.yul\":4816:4820   */\n      0x1f\n        /* \"#utility.yul\":4808:4814   */\n      dup4\n        /* \"#utility.yul\":4804:4821   */\n      add\n        /* \"#utility.yul\":4800:4827   */\n      slt\n        /* \"#utility.yul\":4790:4912   */\n      tag_445\n      jumpi\n        /* \"#utility.yul\":4831:4910   */\n      tag_446\n      tag_329\n      jump\t// in\n    tag_446:\n        /* \"#utility.yul\":4790:4912   */\n    tag_445:\n        /* \"#utility.yul\":4948:4954   */\n      dup2\n        /* \"#utility.yul\":4935:4955   */\n      calldataload\n        /* \"#utility.yul\":4973:5052   */\n      tag_447\n        /* \"#utility.yul\":5048:5051   */\n      dup5\n        /* \"#utility.yul\":5040:5046   */\n      dup3\n        /* \"#utility.yul\":5033:5037   */\n      0x20\n        /* \"#utility.yul\":5025:5031   */\n      dup7\n        /* \"#utility.yul\":5021:5038   */\n      add\n        /* \"#utility.yul\":4973:5052   */\n      tag_336\n      jump\t// in\n    tag_447:\n        /* \"#utility.yul\":4964:5052   */\n      swap2\n      pop\n        /* \"#utility.yul\":4780:5058   */\n      pop\n        /* \"#utility.yul\":4718:5058   */\n      swap3\n      swap2\n      pop\n      pop\n      jump\t// out\n        /* \"#utility.yul\":5064:5154   */\n    tag_338:\n        /* \"#utility.yul\":5098:5105   */\n      0x00\n        /* \"#utility.yul\":5141:5146   */\n      dup2\n        /* \"#utility.yul\":5134:5147   */\n      iszero\n        /* \"#utility.yul\":5127:5148   */\n      iszero\n        /* \"#utility.yul\":5116:5148   */\n      swap1\n      pop\n        /* \"#utility.yul\":5064:5154   */\n      swap2\n      swap1\n      pop\n      jump\t// out\n        /* \"#utility.yul\":5160:5276   */\n    tag_339:\n        /* \"#utility.yul\":5230:5251   */\n      tag_450\n        /* \"#utility.yul\":5245:5250   */\n      dup2\n        /* \"#utility.yul\":5230:5251   */\n      tag_338\n      jump\t// in\n    tag_450:\n        /* \"#utility.yul\":5223:5228   */\n      dup2\n        /* \"#utility.yul\":5220:5252   */\n      eq\n        /* \"#utility.yul\":5210:5270   */\n      tag_451\n      jumpi\n        /* \"#utility.yul\":5266:5267   */\n      0x00\n        /* \"#utility.yul\":5263:5264   */\n      dup1\n        /* \"#utility.yul\":5256:5268   */\n      revert\n        /* \"#utility.yul\":5210:5270   */\n    tag_451:\n        /* \"#utility.yul\":5160:5276   */\n      pop\n      jump\t// out\n        /* \"#utility.yul\":5282:5415   */\n    tag_340:\n        /* \"#utility.yul\":5325:5330   */\n      0x00\n        /* \"#utility.yul\":5363:5369   */\n      dup2\n        /* \"#utility.yul\":5350:5370   */\n      calldataload\n        /* \"#utility.yul\":5341:5370   */\n      swap1\n      pop\n        /* \"#utility.yul\":5379:5409   */\n      tag_453\n        /* \"#utility.yul\":5403:5408   */\n      dup2\n        /* \"#utility.yul\":5379:5409   */\n      tag_339\n      jump\t// in\n    tag_453:\n        /* \"#utility.yul\":5282:5415   */\n      swap3\n      swap2\n      pop\n      pop\n      jump\t// out\n        /* \"#utility.yul\":5421:6069   */\n    tag_45:\n        /* \"#utility.yul\":5496:5502   */\n      0x00\n        /* \"#utility.yul\":5504:5510   */\n      dup1\n        /* \"#utility.yul\":5553:5555   */\n      0x40\n        /* \"#utility.yul\":5541:5550   */\n      dup4\n        /* \"#utility.yul\":5532:5539   */\n      dup6\n        /* \"#utility.yul\":5528:5551   */\n      sub\n        /* \"#utility.yul\":5524:5556   */\n      slt\n        /* \"#utility.yul\":5521:5640   */\n      iszero\n      tag_455\n      jumpi\n        /* \"#utility.yul\":5559:5638   */\n      tag_456\n      tag_316\n      jump\t// in\n    tag_456:\n        /* \"#utility.yul\":5521:5640   */\n    tag_455:\n        /* \"#utility.yul\":5707:5708   */\n      0x00\n        /* \"#utility.yul\":5696:5705   */\n      dup4\n        /* \"#utility.yul\":5692:5709   */\n      add\n        /* \"#utility.yul\":5679:5710   */\n      calldataload\n        /* \"#utility.yul\":5737:5755   */\n      0xffffffffffffffff\n        /* \"#utility.yul\":5729:5735   */\n      dup2\n        /* \"#utility.yul\":5726:5756   */\n      gt\n        /* \"#utility.yul\":5723:5840   */\n      iszero\n      tag_457\n      jumpi\n        /* \"#utility.yul\":5759:5838   */\n      tag_458\n      tag_317\n      jump\t// in\n    tag_458:\n        /* \"#utility.yul\":5723:5840   */\n    tag_457:\n        /* \"#utility.yul\":5864:5927   */\n      tag_459\n        /* \"#utility.yul\":5919:5926   */\n      dup6\n        /* \"#utility.yul\":5910:5916   */\n      dup3\n        /* \"#utility.yul\":5899:5908   */\n      dup7\n        /* \"#utility.yul\":5895:5917   */\n      add\n        /* \"#utility.yul\":5864:5927   */\n      tag_337\n      jump\t// in\n    tag_459:\n        /* \"#utility.yul\":5854:5927   */\n      swap3\n      pop\n        /* \"#utility.yul\":5650:5937   */\n      pop\n        /* \"#utility.yul\":5976:5978   */\n      0x20\n        /* \"#utility.yul\":6002:6052   */\n      tag_460\n        /* \"#utility.yul\":6044:6051   */\n      dup6\n        /* \"#utility.yul\":6035:6041   */\n      dup3\n        /* \"#utility.yul\":6024:6033   */\n      dup7\n        /* \"#utility.yul\":6020:6042   */\n      add\n        /* \"#utility.yul\":6002:6052   */\n      tag_340\n      jump\t// in\n    tag_460:\n        /* \"#utility.yul\":5992:6052   */\n      swap2\n      pop\n        /* \"#utility.yul\":5947:6062   */\n      pop\n        /* \"#utility.yul\":5421:6069   */\n      swap3\n      pop\n      swap3\n      swap1\n      pop\n      jump\t// out\n        /* \"#utility.yul\":6075:6183   */\n    tag_341:\n        /* \"#utility.yul\":6152:6176   */\n      tag_462\n        /* \"#utility.yul\":6170:6175   */\n      dup2\n        /* \"#utility.yul\":6152:6176   */\n      tag_319\n      jump\t// in\n    tag_462:\n        /* \"#utility.yul\":6147:6150   */\n      dup3\n        /* \"#utility.yul\":6140:6177   */\n      mstore\n        /* \"#utility.yul\":6075:6183   */\n      pop\n      pop\n      jump\t// out\n        /* \"#utility.yul\":6189:6348   */\n    tag_342:\n        /* \"#utility.yul\":6263:6274   */\n      0x00\n        /* \"#utility.yul\":6297:6303   */\n      dup3\n        /* \"#utility.yul\":6292:6295   */\n      dup3\n        /* \"#utility.yul\":6285:6304   */\n      mstore\n        /* \"#utility.yul\":6337:6341   */\n      0x20\n        /* \"#utility.yul\":6332:6335   */\n      dup3\n        /* \"#utility.yul\":6328:6342   */\n      add\n        /* \"#utility.yul\":6313:6342   */\n      swap1\n      pop\n        /* \"#utility.yul\":6189:6348   */\n      swap3\n      swap2\n      pop\n      pop\n      jump\t// out\n        /* \"#utility.yul\":6354:6711   */\n    tag_343:\n        /* \"#utility.yul\":6432:6435   */\n      0x00\n        /* \"#utility.yul\":6460:6499   */\n      tag_465\n        /* \"#utility.yul\":6493:6498   */\n      dup3\n        /* \"#utility.yul\":6460:6499   */\n      tag_324\n      jump\t// in\n    tag_465:\n        /* \"#utility.yul\":6515:6576   */\n      tag_466\n        /* \"#utility.yul\":6569:6575   */\n      dup2\n        /* \"#utility.yul\":6564:6567   */\n      dup6\n        /* \"#utility.yul\":6515:6576   */\n      tag_342\n      jump\t// in\n    tag_466:\n        /* \"#utility.yul\":6508:6576   */\n      swap4\n      pop\n        /* \"#utility.yul\":6585:6650   */\n      tag_467\n        /* \"#utility.yul\":6643:6649   */\n      dup2\n        /* \"#utility.yul\":6638:6641   */\n      dup6\n        /* \"#utility.yul\":6631:6635   */\n      0x20\n        /* \"#utility.yul\":6624:6629   */\n      dup7\n        /* \"#utility.yul\":6620:6636   */\n      add\n        /* \"#utility.yul\":6585:6650   */\n      tag_326\n      jump\t// in\n    tag_467:\n        /* \"#utility.yul\":6675:6704   */\n      tag_468\n        /* \"#utility.yul\":6697:6703   */\n      dup2\n        /* \"#utility.yul\":6675:6704   */\n      tag_327\n      jump\t// in\n    tag_468:\n        /* \"#utility.yul\":6670:6673   */\n      dup5\n        /* \"#utility.yul\":6666:6705   */\n      add\n        /* \"#utility.yul\":6659:6705   */\n      swap2\n      pop\n        /* \"#utility.yul\":6436:6711   */\n      pop\n        /* \"#utility.yul\":6354:6711   */\n      swap3\n      swap2\n      pop\n      pop\n      jump\t// out\n        /* \"#utility.yul\":6717:6825   */\n    tag_344:\n        /* \"#utility.yul\":6794:6818   */\n      tag_470\n        /* \"#utility.yul\":6812:6817   */\n      dup2\n        /* \"#utility.yul\":6794:6818   */\n      tag_322\n      jump\t// in\n    tag_470:\n        /* \"#utility.yul\":6789:6792   */\n      dup3\n        /* \"#utility.yul\":6782:6819   */\n      mstore\n        /* \"#utility.yul\":6717:6825   */\n      pop\n      pop\n      jump\t// out\n        /* \"#utility.yul\":6831:6930   */\n    tag_345:\n        /* \"#utility.yul\":6902:6923   */\n      tag_472\n        /* \"#utility.yul\":6917:6922   */\n      dup2\n        /* \"#utility.yul\":6902:6923   */\n      tag_338\n      jump\t// in\n    tag_472:\n        /* \"#utility.yul\":6897:6900   */\n      dup3\n        /* \"#utility.yul\":6890:6924   */\n      mstore\n        /* \"#utility.yul\":6831:6930   */\n      pop\n      pop\n      jump\t// out\n        /* \"#utility.yul\":6994:9014   */\n    tag_346:\n        /* \"#utility.yul\":7111:7114   */\n      0x00\n        /* \"#utility.yul\":7147:7153   */\n      0x0120\n        /* \"#utility.yul\":7142:7145   */\n      dup4\n        /* \"#utility.yul\":7138:7154   */\n      add\n        /* \"#utility.yul\":7239:7243   */\n      0x00\n        /* \"#utility.yul\":7232:7237   */\n      dup4\n        /* \"#utility.yul\":7228:7244   */\n      add\n        /* \"#utility.yul\":7222:7245   */\n      mload\n        /* \"#utility.yul\":7258:7321   */\n      tag_474\n        /* \"#utility.yul\":7315:7319   */\n      0x00\n        /* \"#utility.yul\":7310:7313   */\n      dup7\n        /* \"#utility.yul\":7306:7320   */\n      add\n        /* \"#utility.yul\":7292:7304   */\n      dup3\n        /* \"#utility.yul\":7258:7321   */\n      tag_341\n      jump\t// in\n    tag_474:\n        /* \"#utility.yul\":7164:7331   */\n      pop\n        /* \"#utility.yul\":7413:7417   */\n      0x20\n        /* \"#utility.yul\":7406:7411   */\n      dup4\n        /* \"#utility.yul\":7402:7418   */\n      add\n        /* \"#utility.yul\":7396:7419   */\n      mload\n        /* \"#utility.yul\":7466:7469   */\n      dup5\n        /* \"#utility.yul\":7460:7464   */\n      dup3\n        /* \"#utility.yul\":7456:7470   */\n      sub\n        /* \"#utility.yul\":7449:7453   */\n      0x20\n        /* \"#utility.yul\":7444:7447   */\n      dup7\n        /* \"#utility.yul\":7440:7454   */\n      add\n        /* \"#utility.yul\":7433:7471   */\n      mstore\n        /* \"#utility.yul\":7492:7565   */\n      tag_475\n        /* \"#utility.yul\":7560:7564   */\n      dup3\n        /* \"#utility.yul\":7546:7558   */\n      dup3\n        /* \"#utility.yul\":7492:7565   */\n      tag_343\n      jump\t// in\n    tag_475:\n        /* \"#utility.yul\":7484:7565   */\n      swap2\n      pop\n        /* \"#utility.yul\":7341:7576   */\n      pop\n        /* \"#utility.yul\":7665:7669   */\n      0x40\n        /* \"#utility.yul\":7658:7663   */\n      dup4\n        /* \"#utility.yul\":7654:7670   */\n      add\n        /* \"#utility.yul\":7648:7671   */\n      mload\n        /* \"#utility.yul\":7718:7721   */\n      dup5\n        /* \"#utility.yul\":7712:7716   */\n      dup3\n        /* \"#utility.yul\":7708:7722   */\n      sub\n        /* \"#utility.yul\":7701:7705   */\n      0x40\n        /* \"#utility.yul\":7696:7699   */\n      dup7\n        /* \"#utility.yul\":7692:7706   */\n      add\n        /* \"#utility.yul\":7685:7723   */\n      mstore\n        /* \"#utility.yul\":7744:7817   */\n      tag_476\n        /* \"#utility.yul\":7812:7816   */\n      dup3\n        /* \"#utility.yul\":7798:7810   */\n      dup3\n        /* \"#utility.yul\":7744:7817   */\n      tag_343\n      jump\t// in\n    tag_476:\n        /* \"#utility.yul\":7736:7817   */\n      swap2\n      pop\n        /* \"#utility.yul\":7586:7828   */\n      pop\n        /* \"#utility.yul\":7921:7925   */\n      0x60\n        /* \"#utility.yul\":7914:7919   */\n      dup4\n        /* \"#utility.yul\":7910:7926   */\n      add\n        /* \"#utility.yul\":7904:7927   */\n      mload\n        /* \"#utility.yul\":7940:8003   */\n      tag_477\n        /* \"#utility.yul\":7997:8001   */\n      0x60\n        /* \"#utility.yul\":7992:7995   */\n      dup7\n        /* \"#utility.yul\":7988:8002   */\n      add\n        /* \"#utility.yul\":7974:7986   */\n      dup3\n        /* \"#utility.yul\":7940:8003   */\n      tag_344\n      jump\t// in\n    tag_477:\n        /* \"#utility.yul\":7838:8013   */\n      pop\n        /* \"#utility.yul\":8098:8102   */\n      0x80\n        /* \"#utility.yul\":8091:8096   */\n      dup4\n        /* \"#utility.yul\":8087:8103   */\n      add\n        /* \"#utility.yul\":8081:8104   */\n      mload\n        /* \"#utility.yul\":8117:8180   */\n      tag_478\n        /* \"#utility.yul\":8174:8178   */\n      0x80\n        /* \"#utility.yul\":8169:8172   */\n      dup7\n        /* \"#utility.yul\":8165:8179   */\n      add\n        /* \"#utility.yul\":8151:8163   */\n      dup3\n        /* \"#utility.yul\":8117:8180   */\n      tag_344\n      jump\t// in\n    tag_478:\n        /* \"#utility.yul\":8023:8190   */\n      pop\n        /* \"#utility.yul\":8280:8284   */\n      0xa0\n        /* \"#utility.yul\":8273:8278   */\n      dup4\n        /* \"#utility.yul\":8269:8285   */\n      add\n        /* \"#utility.yul\":8263:8286   */\n      mload\n        /* \"#utility.yul\":8299:8362   */\n      tag_479\n        /* \"#utility.yul\":8356:8360   */\n      0xa0\n        /* \"#utility.yul\":8351:8354   */\n      dup7\n        /* \"#utility.yul\":8347:8361   */\n      add\n        /* \"#utility.yul\":8333:8345   */\n      dup3\n        /* \"#utility.yul\":8299:8362   */\n      tag_344\n      jump\t// in\n    tag_479:\n        /* \"#utility.yul\":8200:8372   */\n      pop\n        /* \"#utility.yul\":8463:8467   */\n      0xc0\n        /* \"#utility.yul\":8456:8461   */\n      dup4\n        /* \"#utility.yul\":8452:8468   */\n      add\n        /* \"#utility.yul\":8446:8469   */\n      mload\n        /* \"#utility.yul\":8482:8545   */\n      tag_480\n        /* \"#utility.yul\":8539:8543   */\n      0xc0\n        /* \"#utility.yul\":8534:8537   */\n      dup7\n        /* \"#utility.yul\":8530:8544   */\n      add\n        /* \"#utility.yul\":8516:8528   */\n      dup3\n        /* \"#utility.yul\":8482:8545   */\n      tag_344\n      jump\t// in\n    tag_480:\n        /* \"#utility.yul\":8382:8555   */\n      pop\n        /* \"#utility.yul\":8644:8648   */\n      0xe0\n        /* \"#utility.yul\":8637:8642   */\n      dup4\n        /* \"#utility.yul\":8633:8649   */\n      add\n        /* \"#utility.yul\":8627:8650   */\n      mload\n        /* \"#utility.yul\":8663:8720   */\n      tag_481\n        /* \"#utility.yul\":8714:8718   */\n      0xe0\n        /* \"#utility.yul\":8709:8712   */\n      dup7\n        /* \"#utility.yul\":8705:8719   */\n      add\n        /* \"#utility.yul\":8691:8703   */\n      dup3\n        /* \"#utility.yul\":8663:8720   */\n      tag_345\n      jump\t// in\n    tag_481:\n        /* \"#utility.yul\":8565:8730   */\n      pop\n        /* \"#utility.yul\":8820:8826   */\n      0x0100\n        /* \"#utility.yul\":8813:8818   */\n      dup4\n        /* \"#utility.yul\":8809:8827   */\n      add\n        /* \"#utility.yul\":8803:8828   */\n      mload\n        /* \"#utility.yul\":8877:8880   */\n      dup5\n        /* \"#utility.yul\":8871:8875   */\n      dup3\n        /* \"#utility.yul\":8867:8881   */\n      sub\n        /* \"#utility.yul\":8858:8864   */\n      0x0100\n        /* \"#utility.yul\":8853:8856   */\n      dup7\n        /* \"#utility.yul\":8849:8865   */\n      add\n        /* \"#utility.yul\":8842:8882   */\n      mstore\n        /* \"#utility.yul\":8903:8976   */\n      tag_482\n        /* \"#utility.yul\":8971:8975   */\n      dup3\n        /* \"#utility.yul\":8957:8969   */\n      dup3\n        /* \"#utility.yul\":8903:8976   */\n      tag_343\n      jump\t// in\n    tag_482:\n        /* \"#utility.yul\":8895:8976   */\n      swap2\n      pop\n        /* \"#utility.yul\":8740:8987   */\n      pop\n        /* \"#utility.yul\":9004:9008   */\n      dup1\n        /* \"#utility.yul\":8997:9008   */\n      swap2\n      pop\n        /* \"#utility.yul\":7116:9014   */\n      pop\n        /* \"#utility.yul\":6994:9014   */\n      swap3\n      swap2\n      pop\n      pop\n      jump\t// out\n        /* \"#utility.yul\":9020:9389   */\n    tag_55:\n        /* \"#utility.yul\":9161:9165   */\n      0x00\n        /* \"#utility.yul\":9199:9201   */\n      0x20\n        /* \"#utility.yul\":9188:9197   */\n      dup3\n        /* \"#utility.yul\":9184:9202   */\n      add\n        /* \"#utility.yul\":9176:9202   */\n      swap1\n      pop\n        /* \"#utility.yul\":9248:9257   */\n      dup2\n        /* \"#utility.yul\":9242:9246   */\n      dup2\n        /* \"#utility.yul\":9238:9258   */\n      sub\n        /* \"#utility.yul\":9234:9235   */\n      0x00\n        /* \"#utility.yul\":9223:9232   */\n      dup4\n        /* \"#utility.yul\":9219:9236   */\n      add\n        /* \"#utility.yul\":9212:9259   */\n      mstore\n        /* \"#utility.yul\":9276:9382   */\n      tag_484\n        /* \"#utility.yul\":9377:9381   */\n      dup2\n        /* \"#utility.yul\":9368:9374   */\n      dup5\n        /* \"#utility.yul\":9276:9382   */\n      tag_346\n      jump\t// in\n    tag_484:\n        /* \"#utility.yul\":9268:9382   */\n      swap1\n      pop\n        /* \"#utility.yul\":9020:9389   */\n      swap3\n      swap2\n      pop\n      pop\n      jump\t// out\n        /* \"#utility.yul\":9395:9904   */\n    tag_59:\n        /* \"#utility.yul\":9464:9470   */\n      0x00\n        /* \"#utility.yul\":9513:9515   */\n      0x20\n        /* \"#utility.yul\":9501:9510   */\n      dup3\n        /* \"#utility.yul\":9492:9499   */\n      dup5\n        /* \"#utility.yul\":9488:9511   */\n      sub\n        /* \"#utility.yul\":9484:9516   */\n      slt\n        /* \"#utility.yul\":9481:9600   */\n      iszero\n      tag_486\n      jumpi\n        /* \"#utility.yul\":9519:9598   */\n      tag_487\n      tag_316\n      jump\t// in\n    tag_487:\n        /* \"#utility.yul\":9481:9600   */\n    tag_486:\n        /* \"#utility.yul\":9667:9668   */\n      0x00\n        /* \"#utility.yul\":9656:9665   */\n      dup3\n        /* \"#utility.yul\":9652:9669   */\n      add\n        /* \"#utility.yul\":9639:9670   */\n      calldataload\n        /* \"#utility.yul\":9697:9715   */\n      0xffffffffffffffff\n        /* \"#utility.yul\":9689:9695   */\n      dup2\n        /* \"#utility.yul\":9686:9716   */\n      gt\n        /* \"#utility.yul\":9683:9800   */\n      iszero\n      tag_488\n      jumpi\n        /* \"#utility.yul\":9719:9798   */\n      tag_489\n      tag_317\n      jump\t// in\n    tag_489:\n        /* \"#utility.yul\":9683:9800   */\n    tag_488:\n        /* \"#utility.yul\":9824:9887   */\n      tag_490\n        /* \"#utility.yul\":9879:9886   */\n      dup5\n        /* \"#utility.yul\":9870:9876   */\n      dup3\n        /* \"#utility.yul\":9859:9868   */\n      dup6\n        /* \"#utility.yul\":9855:9877   */\n      add\n        /* \"#utility.yul\":9824:9887   */\n      tag_337\n      jump\t// in\n    tag_490:\n        /* \"#utility.yul\":9814:9887   */\n      swap2\n      pop\n        /* \"#utility.yul\":9610:9897   */\n      pop\n        /* \"#utility.yul\":9395:9904   */\n      swap3\n      swap2\n      pop\n      pop\n      jump\t// out\n        /* \"#utility.yul\":9910:10014   */\n    tag_347:\n        /* \"#utility.yul\":9955:9962   */\n      0x00\n        /* \"#utility.yul\":9984:10008   */\n      tag_492\n        /* \"#utility.yul\":10002:10007   */\n      dup3\n        /* \"#utility.yul\":9984:10008   */\n      tag_318\n      jump\t// in\n    tag_492:\n        /* \"#utility.yul\":9973:10008   */\n      swap1\n      pop\n        /* \"#utility.yul\":9910:10014   */\n      swap2\n      swap1\n      pop\n      jump\t// out\n        /* \"#utility.yul\":10020:10162   */\n    tag_348:\n        /* \"#utility.yul\":10123:10155   */\n      tag_494\n        /* \"#utility.yul\":10149:10154   */\n      dup2\n        /* \"#utility.yul\":10123:10155   */\n      tag_347\n      jump\t// in\n    tag_494:\n        /* \"#utility.yul\":10118:10121   */\n      dup3\n        /* \"#utility.yul\":10111:10156   */\n      mstore\n        /* \"#utility.yul\":10020:10162   */\n      pop\n      pop\n      jump\t// out\n        /* \"#utility.yul\":10168:10277   */\n    tag_349:\n        /* \"#utility.yul\":10249:10270   */\n      tag_496\n        /* \"#utility.yul\":10264:10269   */\n      dup2\n        /* \"#utility.yul\":10249:10270   */\n      tag_338\n      jump\t// in\n    tag_496:\n        /* \"#utility.yul\":10244:10247   */\n      dup3\n        /* \"#utility.yul\":10237:10271   */\n      mstore\n        /* \"#utility.yul\":10168:10277   */\n      pop\n      pop\n      jump\t// out\n        /* \"#utility.yul\":10283:11997   */\n    tag_62:\n        /* \"#utility.yul\":10744:10748   */\n      0x00\n        /* \"#utility.yul\":10782:10785   */\n      0x0180\n        /* \"#utility.yul\":10771:10780   */\n      dup3\n        /* \"#utility.yul\":10767:10786   */\n      add\n        /* \"#utility.yul\":10759:10786   */\n      swap1\n      pop\n        /* \"#utility.yul\":10832:10841   */\n      dup2\n        /* \"#utility.yul\":10826:10830   */\n      dup2\n        /* \"#utility.yul\":10822:10842   */\n      sub\n        /* \"#utility.yul\":10818:10819   */\n      0x00\n        /* \"#utility.yul\":10807:10816   */\n      dup4\n        /* \"#utility.yul\":10803:10820   */\n      add\n        /* \"#utility.yul\":10796:10843   */\n      mstore\n        /* \"#utility.yul\":10860:10938   */\n      tag_498\n        /* \"#utility.yul\":10933:10937   */\n      dup2\n        /* \"#utility.yul\":10924:10930   */\n      dup16\n        /* \"#utility.yul\":10860:10938   */\n      tag_328\n      jump\t// in\n    tag_498:\n        /* \"#utility.yul\":10852:10938   */\n      swap1\n      pop\n        /* \"#utility.yul\":10985:10994   */\n      dup2\n        /* \"#utility.yul\":10979:10983   */\n      dup2\n        /* \"#utility.yul\":10975:10995   */\n      sub\n        /* \"#utility.yul\":10970:10972   */\n      0x20\n        /* \"#utility.yul\":10959:10968   */\n      dup4\n        /* \"#utility.yul\":10955:10973   */\n      add\n        /* \"#utility.yul\":10948:10996   */\n      mstore\n        /* \"#utility.yul\":11013:11091   */\n      tag_499\n        /* \"#utility.yul\":11086:11090   */\n      dup2\n        /* \"#utility.yul\":11077:11083   */\n      dup15\n        /* \"#utility.yul\":11013:11091   */\n      tag_328\n      jump\t// in\n    tag_499:\n        /* \"#utility.yul\":11005:11091   */\n      swap1\n      pop\n        /* \"#utility.yul\":11101:11173   */\n      tag_500\n        /* \"#utility.yul\":11169:11171   */\n      0x40\n        /* \"#utility.yul\":11158:11167   */\n      dup4\n        /* \"#utility.yul\":11154:11172   */\n      add\n        /* \"#utility.yul\":11145:11151   */\n      dup14\n        /* \"#utility.yul\":11101:11173   */\n      tag_323\n      jump\t// in\n    tag_500:\n        /* \"#utility.yul\":11183:11271   */\n      tag_501\n        /* \"#utility.yul\":11267:11269   */\n      0x60\n        /* \"#utility.yul\":11256:11265   */\n      dup4\n        /* \"#utility.yul\":11252:11270   */\n      add\n        /* \"#utility.yul\":11243:11249   */\n      dup13\n        /* \"#utility.yul\":11183:11271   */\n      tag_348\n      jump\t// in\n    tag_501:\n        /* \"#utility.yul\":11281:11354   */\n      tag_502\n        /* \"#utility.yul\":11349:11352   */\n      0x80\n        /* \"#utility.yul\":11338:11347   */\n      dup4\n        /* \"#utility.yul\":11334:11353   */\n      add\n        /* \"#utility.yul\":11325:11331   */\n      dup12\n        /* \"#utility.yul\":11281:11354   */\n      tag_323\n      jump\t// in\n    tag_502:\n        /* \"#utility.yul\":11364:11437   */\n      tag_503\n        /* \"#utility.yul\":11432:11435   */\n      0xa0\n        /* \"#utility.yul\":11421:11430   */\n      dup4\n        /* \"#utility.yul\":11417:11436   */\n      add\n        /* \"#utility.yul\":11408:11414   */\n      dup11\n        /* \"#utility.yul\":11364:11437   */\n      tag_323\n      jump\t// in\n    tag_503:\n        /* \"#utility.yul\":11447:11520   */\n      tag_504\n        /* \"#utility.yul\":11515:11518   */\n      0xc0\n        /* \"#utility.yul\":11504:11513   */\n      dup4\n        /* \"#utility.yul\":11500:11519   */\n      add\n        /* \"#utility.yul\":11491:11497   */\n      dup10\n        /* \"#utility.yul\":11447:11520   */\n      tag_323\n      jump\t// in\n    tag_504:\n        /* \"#utility.yul\":11530:11603   */\n      tag_505\n        /* \"#utility.yul\":11598:11601   */\n      0xe0\n        /* \"#utility.yul\":11587:11596   */\n      dup4\n        /* \"#utility.yul\":11583:11602   */\n      add\n        /* \"#utility.yul\":11574:11580   */\n      dup9\n        /* \"#utility.yul\":11530:11603   */\n      tag_323\n      jump\t// in\n    tag_505:\n        /* \"#utility.yul\":11613:11680   */\n      tag_506\n        /* \"#utility.yul\":11675:11678   */\n      0x0100\n        /* \"#utility.yul\":11664:11673   */\n      dup4\n        /* \"#utility.yul\":11660:11679   */\n      add\n        /* \"#utility.yul\":11651:11657   */\n      dup8\n        /* \"#utility.yul\":11613:11680   */\n      tag_349\n      jump\t// in\n    tag_506:\n        /* \"#utility.yul\":11690:11757   */\n      tag_507\n        /* \"#utility.yul\":11752:11755   */\n      0x0120\n        /* \"#utility.yul\":11741:11750   */\n      dup4\n        /* \"#utility.yul\":11737:11756   */\n      add\n        /* \"#utility.yul\":11728:11734   */\n      dup7\n        /* \"#utility.yul\":11690:11757   */\n      tag_349\n      jump\t// in\n    tag_507:\n        /* \"#utility.yul\":11767:11835   */\n      tag_508\n        /* \"#utility.yul\":11830:11833   */\n      0x0140\n        /* \"#utility.yul\":11819:11828   */\n      dup4\n        /* \"#utility.yul\":11815:11834   */\n      add\n        /* \"#utility.yul\":11805:11812   */\n      dup6\n        /* \"#utility.yul\":11767:11835   */\n      tag_349\n      jump\t// in\n    tag_508:\n        /* \"#utility.yul\":11883:11892   */\n      dup2\n        /* \"#utility.yul\":11877:11881   */\n      dup2\n        /* \"#utility.yul\":11873:11893   */\n      sub\n        /* \"#utility.yul\":11867:11870   */\n      0x0160\n        /* \"#utility.yul\":11856:11865   */\n      dup4\n        /* \"#utility.yul\":11852:11871   */\n      add\n        /* \"#utility.yul\":11845:11894   */\n      mstore\n        /* \"#utility.yul\":11911:11990   */\n      tag_509\n        /* \"#utility.yul\":11985:11989   */\n      dup2\n        /* \"#utility.yul\":11975:11982   */\n      dup5\n        /* \"#utility.yul\":11911:11990   */\n      tag_328\n      jump\t// in\n    tag_509:\n        /* \"#utility.yul\":11903:11990   */\n      swap1\n      pop\n        /* \"#utility.yul\":10283:11997   */\n      swap14\n      swap13\n      pop\n      pop\n      pop\n      pop\n      pop\n      pop\n      pop\n      pop\n      pop\n      pop\n      pop\n      pop\n      pop\n      jump\t// out\n        /* \"#utility.yul\":12003:12837   */\n    tag_70:\n        /* \"#utility.yul\":12091:12097   */\n      0x00\n        /* \"#utility.yul\":12099:12105   */\n      dup1\n        /* \"#utility.yul\":12148:12150   */\n      0x40\n        /* \"#utility.yul\":12136:12145   */\n      dup4\n        /* \"#utility.yul\":12127:12134   */\n      dup6\n        /* \"#utility.yul\":12123:12146   */\n      sub\n        /* \"#utility.yul\":12119:12151   */\n      slt\n        /* \"#utility.yul\":12116:12235   */\n      iszero\n      tag_511\n      jumpi\n        /* \"#utility.yul\":12154:12233   */\n      tag_512\n      tag_316\n      jump\t// in\n    tag_512:\n        /* \"#utility.yul\":12116:12235   */\n    tag_511:\n        /* \"#utility.yul\":12302:12303   */\n      0x00\n        /* \"#utility.yul\":12291:12300   */\n      dup4\n        /* \"#utility.yul\":12287:12304   */\n      add\n        /* \"#utility.yul\":12274:12305   */\n      calldataload\n        /* \"#utility.yul\":12332:12350   */\n      0xffffffffffffffff\n        /* \"#utility.yul\":12324:12330   */\n      dup2\n        /* \"#utility.yul\":12321:12351   */\n      gt\n        /* \"#utility.yul\":12318:12435   */\n      iszero\n      tag_513\n      jumpi\n        /* \"#utility.yul\":12354:12433   */\n      tag_514\n      tag_317\n      jump\t// in\n    tag_514:\n        /* \"#utility.yul\":12318:12435   */\n    tag_513:\n        /* \"#utility.yul\":12459:12522   */\n      tag_515\n        /* \"#utility.yul\":12514:12521   */\n      dup6\n        /* \"#utility.yul\":12505:12511   */\n      dup3\n        /* \"#utility.yul\":12494:12503   */\n      dup7\n        /* \"#utility.yul\":12490:12512   */\n      add\n        /* \"#utility.yul\":12459:12522   */\n      tag_337\n      jump\t// in\n    tag_515:\n        /* \"#utility.yul\":12449:12522   */\n      swap3\n      pop\n        /* \"#utility.yul\":12245:12532   */\n      pop\n        /* \"#utility.yul\":12599:12601   */\n      0x20\n        /* \"#utility.yul\":12588:12597   */\n      dup4\n        /* \"#utility.yul\":12584:12602   */\n      add\n        /* \"#utility.yul\":12571:12603   */\n      calldataload\n        /* \"#utility.yul\":12630:12648   */\n      0xffffffffffffffff\n        /* \"#utility.yul\":12622:12628   */\n      dup2\n        /* \"#utility.yul\":12619:12649   */\n      gt\n        /* \"#utility.yul\":12616:12733   */\n      iszero\n      tag_516\n      jumpi\n        /* \"#utility.yul\":12652:12731   */\n      tag_517\n      tag_317\n      jump\t// in\n    tag_517:\n        /* \"#utility.yul\":12616:12733   */\n    tag_516:\n        /* \"#utility.yul\":12757:12820   */\n      tag_518\n        /* \"#utility.yul\":12812:12819   */\n      dup6\n        /* \"#utility.yul\":12803:12809   */\n      dup3\n        /* \"#utility.yul\":12792:12801   */\n      dup7\n        /* \"#utility.yul\":12788:12810   */\n      add\n        /* \"#utility.yul\":12757:12820   */\n      tag_337\n      jump\t// in\n    tag_518:\n        /* \"#utility.yul\":12747:12820   */\n      swap2\n      pop\n        /* \"#utility.yul\":12542:12830   */\n      pop\n        /* \"#utility.yul\":12003:12837   */\n      swap3\n      pop\n      swap3\n      swap1\n      pop\n      jump\t// out\n        /* \"#utility.yul\":12843:12986   */\n    tag_350:\n        /* \"#utility.yul\":12939:12945   */\n      0x00\n        /* \"#utility.yul\":12973:12978   */\n      dup2\n        /* \"#utility.yul\":12967:12979   */\n      mload\n        /* \"#utility.yul\":12957:12979   */\n      swap1\n      pop\n        /* \"#utility.yul\":12843:12986   */\n      swap2\n      swap1\n      pop\n      jump\t// out\n        /* \"#utility.yul\":12992:13205   */\n    tag_351:\n        /* \"#utility.yul\":13120:13131   */\n      0x00\n        /* \"#utility.yul\":13154:13160   */\n      dup3\n        /* \"#utility.yul\":13149:13152   */\n      dup3\n        /* \"#utility.yul\":13142:13161   */\n      mstore\n        /* \"#utility.yul\":13194:13198   */\n      0x20\n        /* \"#utility.yul\":13189:13192   */\n      dup3\n        /* \"#utility.yul\":13185:13199   */\n      add\n        /* \"#utility.yul\":13170:13199   */\n      swap1\n      pop\n        /* \"#utility.yul\":12992:13205   */\n      swap3\n      swap2\n      pop\n      pop\n      jump\t// out\n        /* \"#utility.yul\":13211:13372   */\n    tag_352:\n        /* \"#utility.yul\":13307:13311   */\n      0x00\n        /* \"#utility.yul\":13330:13333   */\n      dup2\n        /* \"#utility.yul\":13322:13333   */\n      swap1\n      pop\n        /* \"#utility.yul\":13360:13364   */\n      0x20\n        /* \"#utility.yul\":13355:13358   */\n      dup3\n        /* \"#utility.yul\":13351:13365   */\n      add\n        /* \"#utility.yul\":13343:13365   */\n      swap1\n      pop\n        /* \"#utility.yul\":13211:13372   */\n      swap2\n      swap1\n      pop\n      jump\t// out\n        /* \"#utility.yul\":13446:14064   */\n    tag_353:\n        /* \"#utility.yul\":13563:13566   */\n      0x00\n        /* \"#utility.yul\":13599:13603   */\n      0x40\n        /* \"#utility.yul\":13594:13597   */\n      dup4\n        /* \"#utility.yul\":13590:13604   */\n      add\n        /* \"#utility.yul\":13693:13697   */\n      0x00\n        /* \"#utility.yul\":13686:13691   */\n      dup4\n        /* \"#utility.yul\":13682:13698   */\n      add\n        /* \"#utility.yul\":13676:13699   */\n      mload\n        /* \"#utility.yul\":13712:13775   */\n      tag_523\n        /* \"#utility.yul\":13769:13773   */\n      0x00\n        /* \"#utility.yul\":13764:13767   */\n      dup7\n        /* \"#utility.yul\":13760:13774   */\n      add\n        /* \"#utility.yul\":13746:13758   */\n      dup3\n        /* \"#utility.yul\":13712:13775   */\n      tag_341\n      jump\t// in\n    tag_523:\n        /* \"#utility.yul\":13614:13785   */\n      pop\n        /* \"#utility.yul\":13874:13878   */\n      0x20\n        /* \"#utility.yul\":13867:13872   */\n      dup4\n        /* \"#utility.yul\":13863:13879   */\n      add\n        /* \"#utility.yul\":13857:13880   */\n      mload\n        /* \"#utility.yul\":13927:13930   */\n      dup5\n        /* \"#utility.yul\":13921:13925   */\n      dup3\n        /* \"#utility.yul\":13917:13931   */\n      sub\n        /* \"#utility.yul\":13910:13914   */\n      0x20\n        /* \"#utility.yul\":13905:13908   */\n      dup7\n        /* \"#utility.yul\":13901:13915   */\n      add\n        /* \"#utility.yul\":13894:13932   */\n      mstore\n        /* \"#utility.yul\":13953:14026   */\n      tag_524\n        /* \"#utility.yul\":14021:14025   */\n      dup3\n        /* \"#utility.yul\":14007:14019   */\n      dup3\n        /* \"#utility.yul\":13953:14026   */\n      tag_343\n      jump\t// in\n    tag_524:\n        /* \"#utility.yul\":13945:14026   */\n      swap2\n      pop\n        /* \"#utility.yul\":13795:14037   */\n      pop\n        /* \"#utility.yul\":14054:14058   */\n      dup1\n        /* \"#utility.yul\":14047:14058   */\n      swap2\n      pop\n        /* \"#utility.yul\":13568:14064   */\n      pop\n        /* \"#utility.yul\":13446:14064   */\n      swap3\n      swap2\n      pop\n      pop\n      jump\t// out\n        /* \"#utility.yul\":14070:14342   */\n    tag_354:\n        /* \"#utility.yul\":14197:14207   */\n      0x00\n        /* \"#utility.yul\":14232:14336   */\n      tag_526\n        /* \"#utility.yul\":14332:14335   */\n      dup4\n        /* \"#utility.yul\":14324:14330   */\n      dup4\n        /* \"#utility.yul\":14232:14336   */\n      tag_353\n      jump\t// in\n    tag_526:\n        /* \"#utility.yul\":14218:14336   */\n      swap1\n      pop\n        /* \"#utility.yul\":14070:14342   */\n      swap3\n      swap2\n      pop\n      pop\n      jump\t// out\n        /* \"#utility.yul\":14348:14490   */\n    tag_355:\n        /* \"#utility.yul\":14447:14451   */\n      0x00\n        /* \"#utility.yul\":14479:14483   */\n      0x20\n        /* \"#utility.yul\":14474:14477   */\n      dup3\n        /* \"#utility.yul\":14470:14484   */\n      add\n        /* \"#utility.yul\":14462:14484   */\n      swap1\n      pop\n        /* \"#utility.yul\":14348:14490   */\n      swap2\n      swap1\n      pop\n      jump\t// out\n        /* \"#utility.yul\":14568:15711   */\n    tag_356:\n        /* \"#utility.yul\":14745:14748   */\n      0x00\n        /* \"#utility.yul\":14774:14857   */\n      tag_529\n        /* \"#utility.yul\":14851:14856   */\n      dup3\n        /* \"#utility.yul\":14774:14857   */\n      tag_350\n      jump\t// in\n    tag_529:\n        /* \"#utility.yul\":14873:14988   */\n      tag_530\n        /* \"#utility.yul\":14981:14987   */\n      dup2\n        /* \"#utility.yul\":14976:14979   */\n      dup6\n        /* \"#utility.yul\":14873:14988   */\n      tag_351\n      jump\t// in\n    tag_530:\n        /* \"#utility.yul\":14866:14988   */\n      swap4\n      pop\n        /* \"#utility.yul\":15014:15017   */\n      dup4\n        /* \"#utility.yul\":15059:15063   */\n      0x20\n        /* \"#utility.yul\":15051:15057   */\n      dup3\n        /* \"#utility.yul\":15047:15064   */\n      mul\n        /* \"#utility.yul\":15042:15045   */\n      dup6\n        /* \"#utility.yul\":15038:15065   */\n      add\n        /* \"#utility.yul\":15089:15174   */\n      tag_531\n        /* \"#utility.yul\":15168:15173   */\n      dup6\n        /* \"#utility.yul\":15089:15174   */\n      tag_352\n      jump\t// in\n    tag_531:\n        /* \"#utility.yul\":15197:15204   */\n      dup1\n        /* \"#utility.yul\":15228:15229   */\n      0x00\n        /* \"#utility.yul\":15213:15666   */\n    tag_532:\n        /* \"#utility.yul\":15238:15244   */\n      dup6\n        /* \"#utility.yul\":15235:15236   */\n      dup2\n        /* \"#utility.yul\":15232:15245   */\n      lt\n        /* \"#utility.yul\":15213:15666   */\n      iszero\n      tag_534\n      jumpi\n        /* \"#utility.yul\":15309:15318   */\n      dup5\n        /* \"#utility.yul\":15303:15307   */\n      dup5\n        /* \"#utility.yul\":15299:15319   */\n      sub\n        /* \"#utility.yul\":15294:15297   */\n      dup10\n        /* \"#utility.yul\":15287:15320   */\n      mstore\n        /* \"#utility.yul\":15360:15366   */\n      dup2\n        /* \"#utility.yul\":15354:15367   */\n      mload\n        /* \"#utility.yul\":15388:15510   */\n      tag_535\n        /* \"#utility.yul\":15505:15509   */\n      dup6\n        /* \"#utility.yul\":15490:15503   */\n      dup3\n        /* \"#utility.yul\":15388:15510   */\n      tag_354\n      jump\t// in\n    tag_535:\n        /* \"#utility.yul\":15380:15510   */\n      swap5\n      pop\n        /* \"#utility.yul\":15533:15622   */\n      tag_536\n        /* \"#utility.yul\":15615:15621   */\n      dup4\n        /* \"#utility.yul\":15533:15622   */\n      tag_355\n      jump\t// in\n    tag_536:\n        /* \"#utility.yul\":15523:15622   */\n      swap3\n      pop\n        /* \"#utility.yul\":15651:15655   */\n      0x20\n        /* \"#utility.yul\":15646:15649   */\n      dup11\n        /* \"#utility.yul\":15642:15656   */\n      add\n        /* \"#utility.yul\":15635:15656   */\n      swap10\n      pop\n        /* \"#utility.yul\":15273:15666   */\n      pop\n        /* \"#utility.yul\":15260:15261   */\n      0x01\n        /* \"#utility.yul\":15257:15258   */\n      dup2\n        /* \"#utility.yul\":15253:15262   */\n      add\n        /* \"#utility.yul\":15248:15262   */\n      swap1\n      pop\n        /* \"#utility.yul\":15213:15666   */\n      jump(tag_532)\n    tag_534:\n        /* \"#utility.yul\":15217:15231   */\n      pop\n        /* \"#utility.yul\":15682:15686   */\n      dup3\n        /* \"#utility.yul\":15675:15686   */\n      swap8\n      pop\n        /* \"#utility.yul\":15702:15705   */\n      dup8\n        /* \"#utility.yul\":15695:15705   */\n      swap6\n      pop\n        /* \"#utility.yul\":14750:15711   */\n      pop\n      pop\n      pop\n      pop\n      pop\n        /* \"#utility.yul\":14568:15711   */\n      swap3\n      swap2\n      pop\n      pop\n      jump\t// out\n        /* \"#utility.yul\":15717:16206   */\n    tag_77:\n        /* \"#utility.yul\":15918:15922   */\n      0x00\n        /* \"#utility.yul\":15956:15958   */\n      0x20\n        /* \"#utility.yul\":15945:15954   */\n      dup3\n        /* \"#utility.yul\":15941:15959   */\n      add\n        /* \"#utility.yul\":15933:15959   */\n      swap1\n      pop\n        /* \"#utility.yul\":16005:16014   */\n      dup2\n        /* \"#utility.yul\":15999:16003   */\n      dup2\n        /* \"#utility.yul\":15995:16015   */\n      sub\n        /* \"#utility.yul\":15991:15992   */\n      0x00\n        /* \"#utility.yul\":15980:15989   */\n      dup4\n        /* \"#utility.yul\":15976:15993   */\n      add\n        /* \"#utility.yul\":15969:16016   */\n      mstore\n        /* \"#utility.yul\":16033:16199   */\n      tag_538\n        /* \"#utility.yul\":16194:16198   */\n      dup2\n        /* \"#utility.yul\":16185:16191   */\n      dup5\n        /* \"#utility.yul\":16033:16199   */\n      tag_356\n      jump\t// in\n    tag_538:\n        /* \"#utility.yul\":16025:16199   */\n      swap1\n      pop\n        /* \"#utility.yul\":15717:16206   */\n      swap3\n      swap2\n      pop\n      pop\n      jump\t// out\n        /* \"#utility.yul\":16212:16357   */\n    tag_357:\n        /* \"#utility.yul\":16310:16316   */\n      0x00\n        /* \"#utility.yul\":16344:16349   */\n      dup2\n        /* \"#utility.yul\":16338:16350   */\n      mload\n        /* \"#utility.yul\":16328:16350   */\n      swap1\n      pop\n        /* \"#utility.yul\":16212:16357   */\n      swap2\n      swap1\n      pop\n      jump\t// out\n        /* \"#utility.yul\":16363:16578   */\n    tag_358:\n        /* \"#utility.yul\":16493:16504   */\n      0x00\n        /* \"#utility.yul\":16527:16533   */\n      dup3\n        /* \"#utility.yul\":16522:16525   */\n      dup3\n        /* \"#utility.yul\":16515:16534   */\n      mstore\n        /* \"#utility.yul\":16567:16571   */\n      0x20\n        /* \"#utility.yul\":16562:16565   */\n      dup3\n        /* \"#utility.yul\":16558:16572   */\n      add\n        /* \"#utility.yul\":16543:16572   */\n      swap1\n      pop\n        /* \"#utility.yul\":16363:16578   */\n      swap3\n      swap2\n      pop\n      pop\n      jump\t// out\n        /* \"#utility.yul\":16584:16747   */\n    tag_359:\n        /* \"#utility.yul\":16682:16686   */\n      0x00\n        /* \"#utility.yul\":16705:16708   */\n      dup2\n        /* \"#utility.yul\":16697:16708   */\n      swap1\n      pop\n        /* \"#utility.yul\":16735:16739   */\n      0x20\n        /* \"#utility.yul\":16730:16733   */\n      dup3\n        /* \"#utility.yul\":16726:16740   */\n      add\n        /* \"#utility.yul\":16718:16740   */\n      swap1\n      pop\n        /* \"#utility.yul\":16584:16747   */\n      swap2\n      swap1\n      pop\n      jump\t// out\n        /* \"#utility.yul\":16825:17687   */\n    tag_360:\n        /* \"#utility.yul\":16946:16949   */\n      0x00\n        /* \"#utility.yul\":16982:16986   */\n      0x60\n        /* \"#utility.yul\":16977:16980   */\n      dup4\n        /* \"#utility.yul\":16973:16987   */\n      add\n        /* \"#utility.yul\":17069:17073   */\n      0x00\n        /* \"#utility.yul\":17062:17067   */\n      dup4\n        /* \"#utility.yul\":17058:17074   */\n      add\n        /* \"#utility.yul\":17052:17075   */\n      mload\n        /* \"#utility.yul\":17122:17125   */\n      dup5\n        /* \"#utility.yul\":17116:17120   */\n      dup3\n        /* \"#utility.yul\":17112:17126   */\n      sub\n        /* \"#utility.yul\":17105:17109   */\n      0x00\n        /* \"#utility.yul\":17100:17103   */\n      dup7\n        /* \"#utility.yul\":17096:17110   */\n      add\n        /* \"#utility.yul\":17089:17127   */\n      mstore\n        /* \"#utility.yul\":17148:17221   */\n      tag_543\n        /* \"#utility.yul\":17216:17220   */\n      dup3\n        /* \"#utility.yul\":17202:17214   */\n      dup3\n        /* \"#utility.yul\":17148:17221   */\n      tag_343\n      jump\t// in\n    tag_543:\n        /* \"#utility.yul\":17140:17221   */\n      swap2\n      pop\n        /* \"#utility.yul\":16997:17232   */\n      pop\n        /* \"#utility.yul\":17321:17325   */\n      0x20\n        /* \"#utility.yul\":17314:17319   */\n      dup4\n        /* \"#utility.yul\":17310:17326   */\n      add\n        /* \"#utility.yul\":17304:17327   */\n      mload\n        /* \"#utility.yul\":17374:17377   */\n      dup5\n        /* \"#utility.yul\":17368:17372   */\n      dup3\n        /* \"#utility.yul\":17364:17378   */\n      sub\n        /* \"#utility.yul\":17357:17361   */\n      0x20\n        /* \"#utility.yul\":17352:17355   */\n      dup7\n        /* \"#utility.yul\":17348:17362   */\n      add\n        /* \"#utility.yul\":17341:17379   */\n      mstore\n        /* \"#utility.yul\":17400:17473   */\n      tag_544\n        /* \"#utility.yul\":17468:17472   */\n      dup3\n        /* \"#utility.yul\":17454:17466   */\n      dup3\n        /* \"#utility.yul\":17400:17473   */\n      tag_343\n      jump\t// in\n    tag_544:\n        /* \"#utility.yul\":17392:17473   */\n      swap2\n      pop\n        /* \"#utility.yul\":17242:17484   */\n      pop\n        /* \"#utility.yul\":17568:17572   */\n      0x40\n        /* \"#utility.yul\":17561:17566   */\n      dup4\n        /* \"#utility.yul\":17557:17573   */\n      add\n        /* \"#utility.yul\":17551:17574   */\n      mload\n        /* \"#utility.yul\":17587:17650   */\n      tag_545\n        /* \"#utility.yul\":17644:17648   */\n      0x40\n        /* \"#utility.yul\":17639:17642   */\n      dup7\n        /* \"#utility.yul\":17635:17649   */\n      add\n        /* \"#utility.yul\":17621:17633   */\n      dup3\n        /* \"#utility.yul\":17587:17650   */\n      tag_344\n      jump\t// in\n    tag_545:\n        /* \"#utility.yul\":17494:17660   */\n      pop\n        /* \"#utility.yul\":17677:17681   */\n      dup1\n        /* \"#utility.yul\":17670:17681   */\n      swap2\n      pop\n        /* \"#utility.yul\":16951:17687   */\n      pop\n        /* \"#utility.yul\":16825:17687   */\n      swap3\n      swap2\n      pop\n      pop\n      jump\t// out\n        /* \"#utility.yul\":17693:17973   */\n    tag_361:\n        /* \"#utility.yul\":17824:17834   */\n      0x00\n        /* \"#utility.yul\":17859:17967   */\n      tag_547\n        /* \"#utility.yul\":17963:17966   */\n      dup4\n        /* \"#utility.yul\":17955:17961   */\n      dup4\n        /* \"#utility.yul\":17859:17967   */\n      tag_360\n      jump\t// in\n    tag_547:\n        /* \"#utility.yul\":17845:17967   */\n      swap1\n      pop\n        /* \"#utility.yul\":17693:17973   */\n      swap3\n      swap2\n      pop\n      pop\n      jump\t// out\n        /* \"#utility.yul\":17979:18123   */\n    tag_362:\n        /* \"#utility.yul\":18080:18084   */\n      0x00\n        /* \"#utility.yul\":18112:18116   */\n      0x20\n        /* \"#utility.yul\":18107:18110   */\n      dup3\n        /* \"#utility.yul\":18103:18117   */\n      add\n        /* \"#utility.yul\":18095:18117   */\n      swap1\n      pop\n        /* \"#utility.yul\":17979:18123   */\n      swap2\n      swap1\n      pop\n      jump\t// out\n        /* \"#utility.yul\":18205:19364   */\n    tag_363:\n        /* \"#utility.yul\":18386:18389   */\n      0x00\n        /* \"#utility.yul\":18415:18500   */\n      tag_550\n        /* \"#utility.yul\":18494:18499   */\n      dup3\n        /* \"#utility.yul\":18415:18500   */\n      tag_357\n      jump\t// in\n    tag_550:\n        /* \"#utility.yul\":18516:18633   */\n      tag_551\n        /* \"#utility.yul\":18626:18632   */\n      dup2\n        /* \"#utility.yul\":18621:18624   */\n      dup6\n        /* \"#utility.yul\":18516:18633   */\n      tag_358\n      jump\t// in\n    tag_551:\n        /* \"#utility.yul\":18509:18633   */\n      swap4\n      pop\n        /* \"#utility.yul\":18659:18662   */\n      dup4\n        /* \"#utility.yul\":18704:18708   */\n      0x20\n        /* \"#utility.yul\":18696:18702   */\n      dup3\n        /* \"#utility.yul\":18692:18709   */\n      mul\n        /* \"#utility.yul\":18687:18690   */\n      dup6\n        /* \"#utility.yul\":18683:18710   */\n      add\n        /* \"#utility.yul\":18734:18821   */\n      tag_552\n        /* \"#utility.yul\":18815:18820   */\n      dup6\n        /* \"#utility.yul\":18734:18821   */\n      tag_359\n      jump\t// in\n    tag_552:\n        /* \"#utility.yul\":18844:18851   */\n      dup1\n        /* \"#utility.yul\":18875:18876   */\n      0x00\n        /* \"#utility.yul\":18860:19319   */\n    tag_553:\n        /* \"#utility.yul\":18885:18891   */\n      dup6\n        /* \"#utility.yul\":18882:18883   */\n      dup2\n        /* \"#utility.yul\":18879:18892   */\n      lt\n        /* \"#utility.yul\":18860:19319   */\n      iszero\n      tag_555\n      jumpi\n        /* \"#utility.yul\":18956:18965   */\n      dup5\n        /* \"#utility.yul\":18950:18954   */\n      dup5\n        /* \"#utility.yul\":18946:18966   */\n      sub\n        /* \"#utility.yul\":18941:18944   */\n      dup10\n        /* \"#utility.yul\":18934:18967   */\n      mstore\n        /* \"#utility.yul\":19007:19013   */\n      dup2\n        /* \"#utility.yul\":19001:19014   */\n      mload\n        /* \"#utility.yul\":19035:19161   */\n      tag_556\n        /* \"#utility.yul\":19156:19160   */\n      dup6\n        /* \"#utility.yul\":19141:19154   */\n      dup3\n        /* \"#utility.yul\":19035:19161   */\n      tag_361\n      jump\t// in\n    tag_556:\n        /* \"#utility.yul\":19027:19161   */\n      swap5\n      pop\n        /* \"#utility.yul\":19184:19275   */\n      tag_557\n        /* \"#utility.yul\":19268:19274   */\n      dup4\n        /* \"#utility.yul\":19184:19275   */\n      tag_362\n      jump\t// in\n    tag_557:\n        /* \"#utility.yul\":19174:19275   */\n      swap3\n      pop\n        /* \"#utility.yul\":19304:19308   */\n      0x20\n        /* \"#utility.yul\":19299:19302   */\n      dup11\n        /* \"#utility.yul\":19295:19309   */\n      add\n        /* \"#utility.yul\":19288:19309   */\n      swap10\n      pop\n        /* \"#utility.yul\":18920:19319   */\n      pop\n        /* \"#utility.yul\":18907:18908   */\n      0x01\n        /* \"#utility.yul\":18904:18905   */\n      dup2\n        /* \"#utility.yul\":18900:18909   */\n      add\n        /* \"#utility.yul\":18895:18909   */\n      swap1\n      pop\n        /* \"#utility.yul\":18860:19319   */\n      jump(tag_553)\n    tag_555:\n        /* \"#utility.yul\":18864:18878   */\n      pop\n        /* \"#utility.yul\":19335:19339   */\n      dup3\n        /* \"#utility.yul\":19328:19339   */\n      swap8\n      pop\n        /* \"#utility.yul\":19355:19358   */\n      dup8\n        /* \"#utility.yul\":19348:19358   */\n      swap6\n      pop\n        /* \"#utility.yul\":18391:19364   */\n      pop\n      pop\n      pop\n      pop\n      pop\n        /* \"#utility.yul\":18205:19364   */\n      swap3\n      swap2\n      pop\n      pop\n      jump\t// out\n        /* \"#utility.yul\":19370:19867   */\n    tag_82:\n        /* \"#utility.yul\":19575:19579   */\n      0x00\n        /* \"#utility.yul\":19613:19615   */\n      0x20\n        /* \"#utility.yul\":19602:19611   */\n      dup3\n        /* \"#utility.yul\":19598:19616   */\n      add\n        /* \"#utility.yul\":19590:19616   */\n      swap1\n      pop\n        /* \"#utility.yul\":19662:19671   */\n      dup2\n        /* \"#utility.yul\":19656:19660   */\n      dup2\n        /* \"#utility.yul\":19652:19672   */\n      sub\n        /* \"#utility.yul\":19648:19649   */\n      0x00\n        /* \"#utility.yul\":19637:19646   */\n      dup4\n        /* \"#utility.yul\":19633:19650   */\n      add\n        /* \"#utility.yul\":19626:19673   */\n      mstore\n        /* \"#utility.yul\":19690:19860   */\n      tag_559\n        /* \"#utility.yul\":19855:19859   */\n      dup2\n        /* \"#utility.yul\":19846:19852   */\n      dup5\n        /* \"#utility.yul\":19690:19860   */\n      tag_363\n      jump\t// in\n    tag_559:\n        /* \"#utility.yul\":19682:19860   */\n      swap1\n      pop\n        /* \"#utility.yul\":19370:19867   */\n      swap3\n      swap2\n      pop\n      pop\n      jump\t// out\n        /* \"#utility.yul\":19873:19995   */\n    tag_364:\n        /* \"#utility.yul\":19946:19970   */\n      tag_561\n        /* \"#utility.yul\":19964:19969   */\n      dup2\n        /* \"#utility.yul\":19946:19970   */\n      tag_322\n      jump\t// in\n    tag_561:\n        /* \"#utility.yul\":19939:19944   */\n      dup2\n        /* \"#utility.yul\":19936:19971   */\n      eq\n        /* \"#utility.yul\":19926:19989   */\n      tag_562\n      jumpi\n        /* \"#utility.yul\":19985:19986   */\n      0x00\n        /* \"#utility.yul\":19982:19983   */\n      dup1\n        /* \"#utility.yul\":19975:19987   */\n      revert\n        /* \"#utility.yul\":19926:19989   */\n    tag_562:\n        /* \"#utility.yul\":19873:19995   */\n      pop\n      jump\t// out\n        /* \"#utility.yul\":20001:20140   */\n    tag_365:\n        /* \"#utility.yul\":20047:20052   */\n      0x00\n        /* \"#utility.yul\":20085:20091   */\n      dup2\n        /* \"#utility.yul\":20072:20092   */\n      calldataload\n        /* \"#utility.yul\":20063:20092   */\n      swap1\n      pop\n        /* \"#utility.yul\":20101:20134   */\n      tag_564\n        /* \"#utility.yul\":20128:20133   */\n      dup2\n        /* \"#utility.yul\":20101:20134   */\n      tag_364\n      jump\t// in\n    tag_564:\n        /* \"#utility.yul\":20001:20140   */\n      swap3\n      swap2\n      pop\n      pop\n      jump\t// out\n        /* \"#utility.yul\":20146:20284   */\n    tag_366:\n        /* \"#utility.yul\":20227:20259   */\n      tag_566\n        /* \"#utility.yul\":20253:20258   */\n      dup2\n        /* \"#utility.yul\":20227:20259   */\n      tag_347\n      jump\t// in\n    tag_566:\n        /* \"#utility.yul\":20220:20225   */\n      dup2\n        /* \"#utility.yul\":20217:20260   */\n      eq\n        /* \"#utility.yul\":20207:20278   */\n      tag_567\n      jumpi\n        /* \"#utility.yul\":20274:20275   */\n      0x00\n        /* \"#utility.yul\":20271:20272   */\n      dup1\n        /* \"#utility.yul\":20264:20276   */\n      revert\n        /* \"#utility.yul\":20207:20278   */\n    tag_567:\n        /* \"#utility.yul\":20146:20284   */\n      pop\n      jump\t// out\n        /* \"#utility.yul\":20290:20445   */\n    tag_367:\n        /* \"#utility.yul\":20344:20349   */\n      0x00\n        /* \"#utility.yul\":20382:20388   */\n      dup2\n        /* \"#utility.yul\":20369:20389   */\n      calldataload\n        /* \"#utility.yul\":20360:20389   */\n      swap1\n      pop\n        /* \"#utility.yul\":20398:20439   */\n      tag_569\n        /* \"#utility.yul\":20433:20438   */\n      dup2\n        /* \"#utility.yul\":20398:20439   */\n      tag_366\n      jump\t// in\n    tag_569:\n        /* \"#utility.yul\":20290:20445   */\n      swap3\n      swap2\n      pop\n      pop\n      jump\t// out\n        /* \"#utility.yul\":20451:21738   */\n    tag_92:\n        /* \"#utility.yul\":20574:20580   */\n      0x00\n        /* \"#utility.yul\":20582:20588   */\n      dup1\n        /* \"#utility.yul\":20590:20596   */\n      0x00\n        /* \"#utility.yul\":20598:20604   */\n      dup1\n        /* \"#utility.yul\":20606:20612   */\n      0x00\n        /* \"#utility.yul\":20655:20658   */\n      0xa0\n        /* \"#utility.yul\":20643:20652   */\n      dup7\n        /* \"#utility.yul\":20634:20641   */\n      dup9\n        /* \"#utility.yul\":20630:20653   */\n      sub\n        /* \"#utility.yul\":20626:20659   */\n      slt\n        /* \"#utility.yul\":20623:20743   */\n      iszero\n      tag_571\n      jumpi\n        /* \"#utility.yul\":20662:20741   */\n      tag_572\n      tag_316\n      jump\t// in\n    tag_572:\n        /* \"#utility.yul\":20623:20743   */\n    tag_571:\n        /* \"#utility.yul\":20810:20811   */\n      0x00\n        /* \"#utility.yul\":20799:20808   */\n      dup7\n        /* \"#utility.yul\":20795:20812   */\n      add\n        /* \"#utility.yul\":20782:20813   */\n      calldataload\n        /* \"#utility.yul\":20840:20858   */\n      0xffffffffffffffff\n        /* \"#utility.yul\":20832:20838   */\n      dup2\n        /* \"#utility.yul\":20829:20859   */\n      gt\n        /* \"#utility.yul\":20826:20943   */\n      iszero\n      tag_573\n      jumpi\n        /* \"#utility.yul\":20862:20941   */\n      tag_574\n      tag_317\n      jump\t// in\n    tag_574:\n        /* \"#utility.yul\":20826:20943   */\n    tag_573:\n        /* \"#utility.yul\":20967:21030   */\n      tag_575\n        /* \"#utility.yul\":21022:21029   */\n      dup9\n        /* \"#utility.yul\":21013:21019   */\n      dup3\n        /* \"#utility.yul\":21002:21011   */\n      dup10\n        /* \"#utility.yul\":20998:21020   */\n      add\n        /* \"#utility.yul\":20967:21030   */\n      tag_337\n      jump\t// in\n    tag_575:\n        /* \"#utility.yul\":20957:21030   */\n      swap6\n      pop\n        /* \"#utility.yul\":20753:21040   */\n      pop\n        /* \"#utility.yul\":21107:21109   */\n      0x20\n        /* \"#utility.yul\":21096:21105   */\n      dup7\n        /* \"#utility.yul\":21092:21110   */\n      add\n        /* \"#utility.yul\":21079:21111   */\n      calldataload\n        /* \"#utility.yul\":21138:21156   */\n      0xffffffffffffffff\n        /* \"#utility.yul\":21130:21136   */\n      dup2\n        /* \"#utility.yul\":21127:21157   */\n      gt\n        /* \"#utility.yul\":21124:21241   */\n      iszero\n      tag_576\n      jumpi\n        /* \"#utility.yul\":21160:21239   */\n      tag_577\n      tag_317\n      jump\t// in\n    tag_577:\n        /* \"#utility.yul\":21124:21241   */\n    tag_576:\n        /* \"#utility.yul\":21265:21328   */\n      tag_578\n        /* \"#utility.yul\":21320:21327   */\n      dup9\n        /* \"#utility.yul\":21311:21317   */\n      dup3\n        /* \"#utility.yul\":21300:21309   */\n      dup10\n        /* \"#utility.yul\":21296:21318   */\n      add\n        /* \"#utility.yul\":21265:21328   */\n      tag_337\n      jump\t// in\n    tag_578:\n        /* \"#utility.yul\":21255:21328   */\n      swap5\n      pop\n        /* \"#utility.yul\":21050:21338   */\n      pop\n        /* \"#utility.yul\":21377:21379   */\n      0x40\n        /* \"#utility.yul\":21403:21456   */\n      tag_579\n        /* \"#utility.yul\":21448:21455   */\n      dup9\n        /* \"#utility.yul\":21439:21445   */\n      dup3\n        /* \"#utility.yul\":21428:21437   */\n      dup10\n        /* \"#utility.yul\":21424:21446   */\n      add\n        /* \"#utility.yul\":21403:21456   */\n      tag_365\n      jump\t// in\n    tag_579:\n        /* \"#utility.yul\":21393:21456   */\n      swap4\n      pop\n        /* \"#utility.yul\":21348:21466   */\n      pop\n        /* \"#utility.yul\":21505:21507   */\n      0x60\n        /* \"#utility.yul\":21531:21584   */\n      tag_580\n        /* \"#utility.yul\":21576:21583   */\n      dup9\n        /* \"#utility.yul\":21567:21573   */\n      dup3\n        /* \"#utility.yul\":21556:21565   */\n      dup10\n        /* \"#utility.yul\":21552:21574   */\n      add\n        /* \"#utility.yul\":21531:21584   */\n      tag_365\n      jump\t// in\n    tag_580:\n        /* \"#utility.yul\":21521:21584   */\n      swap3\n      pop\n        /* \"#utility.yul\":21476:21594   */\n      pop\n        /* \"#utility.yul\":21633:21636   */\n      0x80\n        /* \"#utility.yul\":21660:21721   */\n      tag_581\n        /* \"#utility.yul\":21713:21720   */\n      dup9\n        /* \"#utility.yul\":21704:21710   */\n      dup3\n        /* \"#utility.yul\":21693:21702   */\n      dup10\n        /* \"#utility.yul\":21689:21711   */\n      add\n        /* \"#utility.yul\":21660:21721   */\n      tag_367\n      jump\t// in\n    tag_581:\n        /* \"#utility.yul\":21650:21721   */\n      swap2\n      pop\n        /* \"#utility.yul\":21604:21731   */\n      pop\n        /* \"#utility.yul\":20451:21738   */\n      swap3\n      swap6\n      pop\n      swap3\n      swap6\n      swap1\n      swap4\n      pop\n      jump\t// out\n        /* \"#utility.yul\":21744:21862   */\n    tag_368:\n        /* \"#utility.yul\":21831:21855   */\n      tag_583\n        /* \"#utility.yul\":21849:21854   */\n      dup2\n        /* \"#utility.yul\":21831:21855   */\n      tag_319\n      jump\t// in\n    tag_583:\n        /* \"#utility.yul\":21826:21829   */\n      dup3\n        /* \"#utility.yul\":21819:21856   */\n      mstore\n        /* \"#utility.yul\":21744:21862   */\n      pop\n      pop\n      jump\t// out\n        /* \"#utility.yul\":21868:22090   */\n    tag_101:\n        /* \"#utility.yul\":21961:21965   */\n      0x00\n        /* \"#utility.yul\":21999:22001   */\n      0x20\n        /* \"#utility.yul\":21988:21997   */\n      dup3\n        /* \"#utility.yul\":21984:22002   */\n      add\n        /* \"#utility.yul\":21976:22002   */\n      swap1\n      pop\n        /* \"#utility.yul\":22012:22083   */\n      tag_585\n        /* \"#utility.yul\":22080:22081   */\n      0x00\n        /* \"#utility.yul\":22069:22078   */\n      dup4\n        /* \"#utility.yul\":22065:22082   */\n      add\n        /* \"#utility.yul\":22056:22062   */\n      dup5\n        /* \"#utility.yul\":22012:22083   */\n      tag_368\n      jump\t// in\n    tag_585:\n        /* \"#utility.yul\":21868:22090   */\n      swap3\n      swap2\n      pop\n      pop\n      jump\t// out\n        /* \"#utility.yul\":22096:22276   */\n    tag_369:\n        /* \"#utility.yul\":22144:22221   */\n      0x4e487b7100000000000000000000000000000000000000000000000000000000\n        /* \"#utility.yul\":22141:22142   */\n      0x00\n        /* \"#utility.yul\":22134:22222   */\n      mstore\n        /* \"#utility.yul\":22241:22245   */\n      0x22\n        /* \"#utility.yul\":22238:22239   */\n      0x04\n        /* \"#utility.yul\":22231:22246   */\n      mstore\n        /* \"#utility.yul\":22265:22269   */\n      0x24\n        /* \"#utility.yul\":22262:22263   */\n      0x00\n        /* \"#utility.yul\":22255:22270   */\n      revert\n        /* \"#utility.yul\":22282:22602   */\n    tag_126:\n        /* \"#utility.yul\":22326:22332   */\n      0x00\n        /* \"#utility.yul\":22363:22364   */\n      0x02\n        /* \"#utility.yul\":22357:22361   */\n      dup3\n        /* \"#utility.yul\":22353:22365   */\n      div\n        /* \"#utility.yul\":22343:22365   */\n      swap1\n      pop\n        /* \"#utility.yul\":22410:22411   */\n      0x01\n        /* \"#utility.yul\":22404:22408   */\n      dup3\n        /* \"#utility.yul\":22400:22412   */\n      and\n        /* \"#utility.yul\":22431:22449   */\n      dup1\n        /* \"#utility.yul\":22421:22502   */\n      tag_588\n      jumpi\n        /* \"#utility.yul\":22487:22491   */\n      0x7f\n        /* \"#utility.yul\":22479:22485   */\n      dup3\n        /* \"#utility.yul\":22475:22492   */\n      and\n        /* \"#utility.yul\":22465:22492   */\n      swap2\n      pop\n        /* \"#utility.yul\":22421:22502   */\n    tag_588:\n        /* \"#utility.yul\":22549:22551   */\n      0x20\n        /* \"#utility.yul\":22541:22547   */\n      dup3\n        /* \"#utility.yul\":22538:22552   */\n      lt\n        /* \"#utility.yul\":22518:22536   */\n      dup2\n        /* \"#utility.yul\":22515:22553   */\n      sub\n        /* \"#utility.yul\":22512:22596   */\n      tag_589\n      jumpi\n        /* \"#utility.yul\":22568:22586   */\n      tag_590\n      tag_369\n      jump\t// in\n    tag_590:\n        /* \"#utility.yul\":22512:22596   */\n    tag_589:\n        /* \"#utility.yul\":22333:22602   */\n      pop\n        /* \"#utility.yul\":22282:22602   */\n      swap2\n      swap1\n      pop\n      jump\t// out\n        /* \"#utility.yul\":22608:22756   */\n    tag_370:\n        /* \"#utility.yul\":22710:22721   */\n      0x00\n        /* \"#utility.yul\":22747:22750   */\n      dup2\n        /* \"#utility.yul\":22732:22750   */\n      swap1\n      pop\n        /* \"#utility.yul\":22608:22756   */\n      swap3\n      swap2\n      pop\n      pop\n      jump\t// out\n        /* \"#utility.yul\":22762:23152   */\n    tag_371:\n        /* \"#utility.yul\":22868:22871   */\n      0x00\n        /* \"#utility.yul\":22896:22935   */\n      tag_593\n        /* \"#utility.yul\":22929:22934   */\n      dup3\n        /* \"#utility.yul\":22896:22935   */\n      tag_324\n      jump\t// in\n    tag_593:\n        /* \"#utility.yul\":22951:23040   */\n      tag_594\n        /* \"#utility.yul\":23033:23039   */\n      dup2\n        /* \"#utility.yul\":23028:23031   */\n      dup6\n        /* \"#utility.yul\":22951:23040   */\n      tag_370\n      jump\t// in\n    tag_594:\n        /* \"#utility.yul\":22944:23040   */\n      swap4\n      pop\n        /* \"#utility.yul\":23049:23114   */\n      tag_595\n        /* \"#utility.yul\":23107:23113   */\n      dup2\n        /* \"#utility.yul\":23102:23105   */\n      dup6\n        /* \"#utility.yul\":23095:23099   */\n      0x20\n        /* \"#utility.yul\":23088:23093   */\n      dup7\n        /* \"#utility.yul\":23084:23100   */\n      add\n        /* \"#utility.yul\":23049:23114   */\n      tag_326\n      jump\t// in\n    tag_595:\n        /* \"#utility.yul\":23139:23145   */\n      dup1\n        /* \"#utility.yul\":23134:23137   */\n      dup5\n        /* \"#utility.yul\":23130:23146   */\n      add\n        /* \"#utility.yul\":23123:23146   */\n      swap2\n      pop\n        /* \"#utility.yul\":22872:23152   */\n      pop\n        /* \"#utility.yul\":22762:23152   */\n      swap3\n      swap2\n      pop\n      pop\n      jump\t// out\n        /* \"#utility.yul\":23158:23433   */\n    tag_144:\n        /* \"#utility.yul\":23290:23293   */\n      0x00\n        /* \"#utility.yul\":23312:23407   */\n      tag_597\n        /* \"#utility.yul\":23403:23406   */\n      dup3\n        /* \"#utility.yul\":23394:23400   */\n      dup5\n        /* \"#utility.yul\":23312:23407   */\n      tag_371\n      jump\t// in\n    tag_597:\n        /* \"#utility.yul\":23305:23407   */\n      swap2\n      pop\n        /* \"#utility.yul\":23424:23427   */\n      dup2\n        /* \"#utility.yul\":23417:23427   */\n      swap1\n      pop\n        /* \"#utility.yul\":23158:23433   */\n      swap3\n      swap2\n      pop\n      pop\n      jump\t// out\n        /* \"#utility.yul\":23439:23619   */\n    tag_372:\n        /* \"#utility.yul\":23487:23564   */\n      0x4e487b7100000000000000000000000000000000000000000000000000000000\n        /* \"#utility.yul\":23484:23485   */\n      0x00\n        /* \"#utility.yul\":23477:23565   */\n      mstore\n        /* \"#utility.yul\":23584:23588   */\n      0x11\n        /* \"#utility.yul\":23581:23582   */\n      0x04\n        /* \"#utility.yul\":23574:23589   */\n      mstore\n        /* \"#utility.yul\":23608:23612   */\n      0x24\n        /* \"#utility.yul\":23605:23606   */\n      0x00\n        /* \"#utility.yul\":23598:23613   */\n      revert\n        /* \"#utility.yul\":23625:23858   */\n    tag_155:\n        /* \"#utility.yul\":23664:23667   */\n      0x00\n        /* \"#utility.yul\":23687:23711   */\n      tag_600\n        /* \"#utility.yul\":23705:23710   */\n      dup3\n        /* \"#utility.yul\":23687:23711   */\n      tag_322\n      jump\t// in\n    tag_600:\n        /* \"#utility.yul\":23678:23711   */\n      swap2\n      pop\n        /* \"#utility.yul\":23733:23799   */\n      0xffffffffffffffffffffffffffffffffffffffffffffffffffffffffffffffff\n        /* \"#utility.yul\":23726:23731   */\n      dup3\n        /* \"#utility.yul\":23723:23800   */\n      sub\n        /* \"#utility.yul\":23720:23823   */\n      tag_601\n      jumpi\n        /* \"#utility.yul\":23803:23821   */\n      tag_602\n      tag_372\n      jump\t// in\n    tag_602:\n        /* \"#utility.yul\":23720:23823   */\n    tag_601:\n        /* \"#utility.yul\":23850:23851   */\n      0x01\n        /* \"#utility.yul\":23843:23848   */\n      dup3\n        /* \"#utility.yul\":23839:23852   */\n      add\n        /* \"#utility.yul\":23832:23852   */\n      swap1\n      pop\n        /* \"#utility.yul\":23625:23858   */\n      swap2\n      swap1\n      pop\n      jump\t// out\n        /* \"#utility.yul\":23864:24005   */\n    tag_373:\n        /* \"#utility.yul\":23913:23917   */\n      0x00\n        /* \"#utility.yul\":23936:23939   */\n      dup2\n        /* \"#utility.yul\":23928:23939   */\n      swap1\n      pop\n        /* \"#utility.yul\":23959:23962   */\n      dup2\n        /* \"#utility.yul\":23956:23957   */\n      0x00\n        /* \"#utility.yul\":23949:23963   */\n      mstore\n        /* \"#utility.yul\":23993:23997   */\n      0x20\n        /* \"#utility.yul\":23990:23991   */\n      0x00\n        /* \"#utility.yul\":23980:23998   */\n      keccak256\n        /* \"#utility.yul\":23972:23998   */\n      swap1\n      pop\n        /* \"#utility.yul\":23864:24005   */\n      swap2\n      swap1\n      pop\n      jump\t// out\n        /* \"#utility.yul\":24011:24104   */\n    tag_374:\n        /* \"#utility.yul\":24048:24054   */\n      0x00\n        /* \"#utility.yul\":24095:24097   */\n      0x20\n        /* \"#utility.yul\":24090:24092   */\n      0x1f\n        /* \"#utility.yul\":24083:24088   */\n      dup4\n        /* \"#utility.yul\":24079:24093   */\n      add\n        /* \"#utility.yul\":24075:24098   */\n      div\n        /* \"#utility.yul\":24065:24098   */\n      swap1\n      pop\n        /* \"#utility.yul\":24011:24104   */\n      swap2\n      swap1\n      pop\n      jump\t// out\n        /* \"#utility.yul\":24110:24217   */\n    tag_375:\n        /* \"#utility.yul\":24154:24162   */\n      0x00\n        /* \"#utility.yul\":24204:24209   */\n      dup3\n        /* \"#utility.yul\":24198:24202   */\n      dup3\n        /* \"#utility.yul\":24194:24210   */\n      shl\n        /* \"#utility.yul\":24173:24210   */\n      swap1\n      pop\n        /* \"#utility.yul\":24110:24217   */\n      swap3\n      swap2\n      pop\n      pop\n      jump\t// out\n        /* \"#utility.yul\":24223:24616   */\n    tag_376:\n        /* \"#utility.yul\":24292:24298   */\n      0x00\n        /* \"#utility.yul\":24342:24343   */\n      0x08\n        /* \"#utility.yul\":24330:24340   */\n      dup4\n        /* \"#utility.yul\":24326:24344   */\n      mul\n        /* \"#utility.yul\":24365:24462   */\n      tag_607\n        /* \"#utility.yul\":24395:24461   */\n      0xffffffffffffffffffffffffffffffffffffffffffffffffffffffffffffffff\n        /* \"#utility.yul\":24384:24393   */\n      dup3\n        /* \"#utility.yul\":24365:24462   */\n      tag_375\n      jump\t// in\n    tag_607:\n        /* \"#utility.yul\":24483:24522   */\n      tag_608\n        /* \"#utility.yul\":24513:24521   */\n      dup7\n        /* \"#utility.yul\":24502:24511   */\n      dup4\n        /* \"#utility.yul\":24483:24522   */\n      tag_375\n      jump\t// in\n    tag_608:\n        /* \"#utility.yul\":24471:24522   */\n      swap6\n      pop\n        /* \"#utility.yul\":24555:24559   */\n      dup1\n        /* \"#utility.yul\":24551:24560   */\n      not\n        /* \"#utility.yul\":24544:24549   */\n      dup5\n        /* \"#utility.yul\":24540:24561   */\n      and\n        /* \"#utility.yul\":24531:24561   */\n      swap4\n      pop\n        /* \"#utility.yul\":24604:24608   */\n      dup1\n        /* \"#utility.yul\":24594:24602   */\n      dup7\n        /* \"#utility.yul\":24590:24609   */\n      and\n        /* \"#utility.yul\":24583:24588   */\n      dup5\n        /* \"#utility.yul\":24580:24610   */\n      or\n        /* \"#utility.yul\":24570:24610   */\n      swap3\n      pop\n        /* \"#utility.yul\":24299:24616   */\n      pop\n      pop\n        /* \"#utility.yul\":24223:24616   */\n      swap4\n      swap3\n      pop\n      pop\n      pop\n      jump\t// out\n        /* \"#utility.yul\":24622:24682   */\n    tag_377:\n        /* \"#utility.yul\":24650:24653   */\n      0x00\n        /* \"#utility.yul\":24671:24676   */\n      dup2\n        /* \"#utility.yul\":24664:24676   */\n      swap1\n      pop\n        /* \"#utility.yul\":24622:24682   */\n      swap2\n      swap1\n      pop\n      jump\t// out\n        /* \"#utility.yul\":24688:24830   */\n    tag_378:\n        /* \"#utility.yul\":24738:24747   */\n      0x00\n        /* \"#utility.yul\":24771:24824   */\n      tag_611\n        /* \"#utility.yul\":24789:24823   */\n      tag_612\n        /* \"#utility.yul\":24798:24822   */\n      tag_613\n        /* \"#utility.yul\":24816:24821   */\n      dup5\n        /* \"#utility.yul\":24798:24822   */\n      tag_322\n      jump\t// in\n    tag_613:\n        /* \"#utility.yul\":24789:24823   */\n      tag_377\n      jump\t// in\n    tag_612:\n        /* \"#utility.yul\":24771:24824   */\n      tag_322\n      jump\t// in\n    tag_611:\n        /* \"#utility.yul\":24758:24824   */\n      swap1\n      pop\n        /* \"#utility.yul\":24688:24830   */\n      swap2\n      swap1\n      pop\n      jump\t// out\n        /* \"#utility.yul\":24836:24911   */\n    tag_379:\n        /* \"#utility.yul\":24879:24882   */\n      0x00\n        /* \"#utility.yul\":24900:24905   */\n      dup2\n        /* \"#utility.yul\":24893:24905   */\n      swap1\n      pop\n        /* \"#utility.yul\":24836:24911   */\n      swap2\n      swap1\n      pop\n      jump\t// out\n        /* \"#utility.yul\":24917:25186   */\n    tag_380:\n        /* \"#utility.yul\":25027:25066   */\n      tag_616\n        /* \"#utility.yul\":25058:25065   */\n      dup4\n        /* \"#utility.yul\":25027:25066   */\n      tag_378\n      jump\t// in\n    tag_616:\n        /* \"#utility.yul\":25088:25179   */\n      tag_617\n        /* \"#utility.yul\":25137:25178   */\n      tag_618\n        /* \"#utility.yul\":25161:25177   */\n      dup3\n        /* \"#utility.yul\":25137:25178   */\n      tag_379\n      jump\t// in\n    tag_618:\n        /* \"#utility.yul\":25129:25135   */\n      dup5\n        /* \"#utility.yul\":25122:25126   */\n      dup5\n        /* \"#utility.yul\":25116:25127   */\n      sload\n        /* \"#utility.yul\":25088:25179   */\n      tag_376\n      jump\t// in\n    tag_617:\n        /* \"#utility.yul\":25082:25086   */\n      dup3\n        /* \"#utility.yul\":25075:25180   */\n      sstore\n        /* \"#utility.yul\":24993:25186   */\n      pop\n        /* \"#utility.yul\":24917:25186   */\n      pop\n      pop\n      pop\n      jump\t// out\n        /* \"#utility.yul\":25192:25265   */\n    tag_381:\n        /* \"#utility.yul\":25237:25240   */\n      0x00\n        /* \"#utility.yul\":25192:25265   */\n      swap1\n      jump\t// out\n        /* \"#utility.yul\":25271:25460   */\n    tag_382:\n        /* \"#utility.yul\":25348:25380   */\n      tag_621\n      tag_381\n      jump\t// in\n    tag_621:\n        /* \"#utility.yul\":25389:25454   */\n      tag_622\n        /* \"#utility.yul\":25447:25453   */\n      dup2\n        /* \"#utility.yul\":25439:25445   */\n      dup5\n        /* \"#utility.yul\":25433:25437   */\n      dup5\n        /* \"#utility.yul\":25389:25454   */\n      tag_380\n      jump\t// in\n    tag_622:\n        /* \"#utility.yul\":25324:25460   */\n      pop\n        /* \"#utility.yul\":25271:25460   */\n      pop\n      pop\n      jump\t// out\n        /* \"#utility.yul\":25466:25652   */\n    tag_383:\n        /* \"#utility.yul\":25526:25646   */\n    tag_624:\n        /* \"#utility.yul\":25543:25546   */\n      dup2\n        /* \"#utility.yul\":25536:25541   */\n      dup2\n        /* \"#utility.yul\":25533:25547   */\n      lt\n        /* \"#utility.yul\":25526:25646   */\n      iszero\n      tag_626\n      jumpi\n        /* \"#utility.yul\":25597:25636   */\n      tag_627\n        /* \"#utility.yul\":25634:25635   */\n      0x00\n        /* \"#utility.yul\":25627:25632   */\n      dup3\n        /* \"#utility.yul\":25597:25636   */\n      tag_382\n      jump\t// in\n    tag_627:\n        /* \"#utility.yul\":25570:25571   */\n      0x01\n        /* \"#utility.yul\":25563:25568   */\n      dup2\n        /* \"#utility.yul\":25559:25572   */\n      add\n        /* \"#utility.yul\":25550:25572   */\n      swap1\n      pop\n        /* \"#utility.yul\":25526:25646   */\n      jump(tag_624)\n    tag_626:\n        /* \"#utility.yul\":25466:25652   */\n      pop\n      pop\n      jump\t// out\n        /* \"#utility.yul\":25658:26201   */\n    tag_384:\n        /* \"#utility.yul\":25759:25761   */\n      0x1f\n        /* \"#utility.yul\":25754:25757   */\n      dup3\n        /* \"#utility.yul\":25751:25762   */\n      gt\n        /* \"#utility.yul\":25748:26194   */\n      iszero\n      tag_629\n      jumpi\n        /* \"#utility.yul\":25793:25831   */\n      tag_630\n        /* \"#utility.yul\":25825:25830   */\n      dup2\n        /* \"#utility.yul\":25793:25831   */\n      tag_373\n      jump\t// in\n    tag_630:\n        /* \"#utility.yul\":25877:25906   */\n      tag_631\n        /* \"#utility.yul\":25895:25905   */\n      dup5\n        /* \"#utility.yul\":25877:25906   */\n      tag_374\n      jump\t// in\n    tag_631:\n        /* \"#utility.yul\":25867:25875   */\n      dup2\n        /* \"#utility.yul\":25863:25907   */\n      add\n        /* \"#utility.yul\":26060:26062   */\n      0x20\n        /* \"#utility.yul\":26048:26058   */\n      dup6\n        /* \"#utility.yul\":26045:26063   */\n      lt\n        /* \"#utility.yul\":26042:26091   */\n      iszero\n      tag_632\n      jumpi\n        /* \"#utility.yul\":26081:26089   */\n      dup2\n        /* \"#utility.yul\":26066:26089   */\n      swap1\n      pop\n        /* \"#utility.yul\":26042:26091   */\n    tag_632:\n        /* \"#utility.yul\":26104:26184   */\n      tag_633\n        /* \"#utility.yul\":26160:26182   */\n      tag_634\n        /* \"#utility.yul\":26178:26181   */\n      dup6\n        /* \"#utility.yul\":26160:26182   */\n      tag_374\n      jump\t// in\n    tag_634:\n        /* \"#utility.yul\":26150:26158   */\n      dup4\n        /* \"#utility.yul\":26146:26183   */\n      add\n        /* \"#utility.yul\":26133:26144   */\n      dup3\n        /* \"#utility.yul\":26104:26184   */\n      tag_383\n      jump\t// in\n    tag_633:\n        /* \"#utility.yul\":25763:26194   */\n      pop\n      pop\n        /* \"#utility.yul\":25748:26194   */\n    tag_629:\n        /* \"#utility.yul\":25658:26201   */\n      pop\n      pop\n      pop\n      jump\t// out\n        /* \"#utility.yul\":26207:26324   */\n    tag_385:\n        /* \"#utility.yul\":26261:26269   */\n      0x00\n        /* \"#utility.yul\":26311:26316   */\n      dup3\n        /* \"#utility.yul\":26305:26309   */\n      dup3\n        /* \"#utility.yul\":26301:26317   */\n      shr\n        /* \"#utility.yul\":26280:26317   */\n      swap1\n      pop\n        /* \"#utility.yul\":26207:26324   */\n      swap3\n      swap2\n      pop\n      pop\n      jump\t// out\n        /* \"#utility.yul\":26330:26499   */\n    tag_386:\n        /* \"#utility.yul\":26374:26380   */\n      0x00\n        /* \"#utility.yul\":26407:26458   */\n      tag_637\n        /* \"#utility.yul\":26455:26456   */\n      0x00\n        /* \"#utility.yul\":26451:26457   */\n      not\n        /* \"#utility.yul\":26443:26448   */\n      dup5\n        /* \"#utility.yul\":26440:26441   */\n      0x08\n        /* \"#utility.yul\":26436:26449   */\n      mul\n        /* \"#utility.yul\":26407:26458   */\n      tag_385\n      jump\t// in\n    tag_637:\n        /* \"#utility.yul\":26403:26459   */\n      not\n        /* \"#utility.yul\":26488:26492   */\n      dup1\n        /* \"#utility.yul\":26482:26486   */\n      dup4\n        /* \"#utility.yul\":26478:26493   */\n      and\n        /* \"#utility.yul\":26468:26493   */\n      swap2\n      pop\n        /* \"#utility.yul\":26381:26499   */\n      pop\n        /* \"#utility.yul\":26330:26499   */\n      swap3\n      swap2\n      pop\n      pop\n      jump\t// out\n        /* \"#utility.yul\":26504:26799   */\n    tag_387:\n        /* \"#utility.yul\":26580:26584   */\n      0x00\n        /* \"#utility.yul\":26726:26755   */\n      tag_639\n        /* \"#utility.yul\":26751:26754   */\n      dup4\n        /* \"#utility.yul\":26745:26749   */\n      dup4\n        /* \"#utility.yul\":26726:26755   */\n      tag_386\n      jump\t// in\n    tag_639:\n        /* \"#utility.yul\":26718:26755   */\n      swap2\n      pop\n        /* \"#utility.yul\":26788:26791   */\n      dup3\n        /* \"#utility.yul\":26785:26786   */\n      0x02\n        /* \"#utility.yul\":26781:26792   */\n      mul\n        /* \"#utility.yul\":26775:26779   */\n      dup3\n        /* \"#utility.yul\":26772:26793   */\n      or\n        /* \"#utility.yul\":26764:26793   */\n      swap1\n      pop\n        /* \"#utility.yul\":26504:26799   */\n      swap3\n      swap2\n      pop\n      pop\n      jump\t// out\n        /* \"#utility.yul\":26804:28199   */\n    tag_161:\n        /* \"#utility.yul\":26921:26958   */\n      tag_641\n        /* \"#utility.yul\":26954:26957   */\n      dup3\n        /* \"#utility.yul\":26921:26958   */\n      tag_324\n      jump\t// in\n    tag_641:\n        /* \"#utility.yul\":27023:27041   */\n      0xffffffffffffffff\n        /* \"#utility.yul\":27015:27021   */\n      dup2\n        /* \"#utility.yul\":27012:27042   */\n      gt\n        /* \"#utility.yul\":27009:27065   */\n      iszero\n      tag_642\n      jumpi\n        /* \"#utility.yul\":27045:27063   */\n      tag_643\n      tag_331\n      jump\t// in\n    tag_643:\n        /* \"#utility.yul\":27009:27065   */\n    tag_642:\n        /* \"#utility.yul\":27089:27127   */\n      tag_644\n        /* \"#utility.yul\":27121:27125   */\n      dup3\n        /* \"#utility.yul\":27115:27126   */\n      sload\n        /* \"#utility.yul\":27089:27127   */\n      tag_126\n      jump\t// in\n    tag_644:\n        /* \"#utility.yul\":27174:27241   */\n      tag_645\n        /* \"#utility.yul\":27234:27240   */\n      dup3\n        /* \"#utility.yul\":27226:27232   */\n      dup3\n        /* \"#utility.yul\":27220:27224   */\n      dup6\n        /* \"#utility.yul\":27174:27241   */\n      tag_384\n      jump\t// in\n    tag_645:\n        /* \"#utility.yul\":27268:27269   */\n      0x00\n        /* \"#utility.yul\":27292:27296   */\n      0x20\n        /* \"#utility.yul\":27279:27296   */\n      swap1\n      pop\n        /* \"#utility.yul\":27324:27326   */\n      0x1f\n        /* \"#utility.yul\":27316:27322   */\n      dup4\n        /* \"#utility.yul\":27313:27327   */\n      gt\n        /* \"#utility.yul\":27341:27342   */\n      0x01\n        /* \"#utility.yul\":27336:27954   */\n      dup2\n      eq\n      tag_647\n      jumpi\n        /* \"#utility.yul\":27998:27999   */\n      0x00\n        /* \"#utility.yul\":28015:28021   */\n      dup5\n        /* \"#utility.yul\":28012:28089   */\n      iszero\n      tag_648\n      jumpi\n        /* \"#utility.yul\":28064:28073   */\n      dup3\n        /* \"#utility.yul\":28059:28062   */\n      dup8\n        /* \"#utility.yul\":28055:28074   */\n      add\n        /* \"#utility.yul\":28049:28075   */\n      mload\n        /* \"#utility.yul\":28040:28075   */\n      swap1\n      pop\n        /* \"#utility.yul\":28012:28089   */\n    tag_648:\n        /* \"#utility.yul\":28115:28182   */\n      tag_649\n        /* \"#utility.yul\":28175:28181   */\n      dup6\n        /* \"#utility.yul\":28168:28173   */\n      dup3\n        /* \"#utility.yul\":28115:28182   */\n      tag_387\n      jump\t// in\n    tag_649:\n        /* \"#utility.yul\":28109:28113   */\n      dup7\n        /* \"#utility.yul\":28102:28183   */\n      sstore\n        /* \"#utility.yul\":27971:28193   */\n      pop\n        /* \"#utility.yul\":27306:28193   */\n      jump(tag_646)\n        /* \"#utility.yul\":27336:27954   */\n    tag_647:\n        /* \"#utility.yul\":27388:27392   */\n      0x1f\n        /* \"#utility.yul\":27384:27393   */\n      not\n        /* \"#utility.yul\":27376:27382   */\n      dup5\n        /* \"#utility.yul\":27372:27394   */\n      and\n        /* \"#utility.yul\":27422:27459   */\n      tag_650\n        /* \"#utility.yul\":27454:27458   */\n      dup7\n        /* \"#utility.yul\":27422:27459   */\n      tag_373\n      jump\t// in\n    tag_650:\n        /* \"#utility.yul\":27481:27482   */\n      0x00\n        /* \"#utility.yul\":27495:27703   */\n    tag_651:\n        /* \"#utility.yul\":27509:27516   */\n      dup3\n        /* \"#utility.yul\":27506:27507   */\n      dup2\n        /* \"#utility.yul\":27503:27517   */\n      lt\n        /* \"#utility.yul\":27495:27703   */\n      iszero\n      tag_653\n      jumpi\n        /* \"#utility.yul\":27588:27597   */\n      dup5\n        /* \"#utility.yul\":27583:27586   */\n      dup10\n        /* \"#utility.yul\":27579:27598   */\n      add\n        /* \"#utility.yul\":27573:27599   */\n      mload\n        /* \"#utility.yul\":27565:27571   */\n      dup3\n        /* \"#utility.yul\":27558:27600   */\n      sstore\n        /* \"#utility.yul\":27639:27640   */\n      0x01\n        /* \"#utility.yul\":27631:27637   */\n      dup3\n        /* \"#utility.yul\":27627:27641   */\n      add\n        /* \"#utility.yul\":27617:27641   */\n      swap2\n      pop\n        /* \"#utility.yul\":27686:27688   */\n      0x20\n        /* \"#utility.yul\":27675:27684   */\n      dup6\n        /* \"#utility.yul\":27671:27689   */\n      add\n        /* \"#utility.yul\":27658:27689   */\n      swap5\n      pop\n        /* \"#utility.yul\":27532:27536   */\n      0x20\n        /* \"#utility.yul\":27529:27530   */\n      dup2\n        /* \"#utility.yul\":27525:27537   */\n      add\n        /* \"#utility.yul\":27520:27537   */\n      swap1\n      pop\n        /* \"#utility.yul\":27495:27703   */\n      jump(tag_651)\n    tag_653:\n        /* \"#utility.yul\":27731:27737   */\n      dup7\n        /* \"#utility.yul\":27722:27729   */\n      dup4\n        /* \"#utility.yul\":27719:27738   */\n      lt\n        /* \"#utility.yul\":27716:27895   */\n      iszero\n      tag_654\n      jumpi\n        /* \"#utility.yul\":27789:27798   */\n      dup5\n        /* \"#utility.yul\":27784:27787   */\n      dup10\n        /* \"#utility.yul\":27780:27799   */\n      add\n        /* \"#utility.yul\":27774:27800   */\n      mload\n        /* \"#utility.yul\":27832:27880   */\n      tag_655\n        /* \"#utility.yul\":27874:27878   */\n      0x1f\n        /* \"#utility.yul\":27866:27872   */\n      dup10\n        /* \"#utility.yul\":27862:27879   */\n      and\n        /* \"#utility.yul\":27851:27860   */\n      dup3\n        /* \"#utility.yul\":27832:27880   */\n      tag_386\n      jump\t// in\n    tag_655:\n        /* \"#utility.yul\":27824:27830   */\n      dup4\n        /* \"#utility.yul\":27817:27881   */\n      sstore\n        /* \"#utility.yul\":27739:27895   */\n      pop\n        /* \"#utility.yul\":27716:27895   */\n    tag_654:\n        /* \"#utility.yul\":27941:27942   */\n      0x01\n        /* \"#utility.yul\":27937:27938   */\n      0x02\n        /* \"#utility.yul\":27929:27935   */\n      dup9\n        /* \"#utility.yul\":27925:27939   */\n      mul\n        /* \"#utility.yul\":27921:27943   */\n      add\n        /* \"#utility.yul\":27915:27919   */\n      dup9\n        /* \"#utility.yul\":27908:27944   */\n      sstore\n        /* \"#utility.yul\":27343:27954   */\n      pop\n      pop\n      pop\n        /* \"#utility.yul\":27306:28193   */\n    tag_646:\n      pop\n        /* \"#utility.yul\":26896:28199   */\n      pop\n      pop\n      pop\n        /* \"#utility.yul\":26804:28199   */\n      pop\n      pop\n      jump\t// out\n        /* \"#utility.yul\":28205:28376   */\n    tag_269:\n        /* \"#utility.yul\":28244:28247   */\n      0x00\n        /* \"#utility.yul\":28267:28291   */\n      tag_657\n        /* \"#utility.yul\":28285:28290   */\n      dup3\n        /* \"#utility.yul\":28267:28291   */\n      tag_322\n      jump\t// in\n    tag_657:\n        /* \"#utility.yul\":28258:28291   */\n      swap2\n      pop\n        /* \"#utility.yul\":28313:28317   */\n      0x00\n        /* \"#utility.yul\":28306:28311   */\n      dup3\n        /* \"#utility.yul\":28303:28318   */\n      sub\n        /* \"#utility.yul\":28300:28341   */\n      tag_658\n      jumpi\n        /* \"#utility.yul\":28321:28339   */\n      tag_659\n      tag_372\n      jump\t// in\n    tag_659:\n        /* \"#utility.yul\":28300:28341   */\n    tag_658:\n        /* \"#utility.yul\":28368:28369   */\n      0x01\n        /* \"#utility.yul\":28361:28366   */\n      dup3\n        /* \"#utility.yul\":28357:28370   */\n      sub\n        /* \"#utility.yul\":28350:28370   */\n      swap1\n      pop\n        /* \"#utility.yul\":28205:28376   */\n      swap2\n      swap1\n      pop\n      jump\t// out\n    stop\n    data_6ef24f460241b37e7e7970ac62078253e322b5717d6a1271f64410bbaf78c264 546865206d616a6f72697479206f662074686520636f6e7472696275746f7273206861766520766f74656420666f722072656a656374696f6e\n\n    auxdata: 0xa2646970667358221220793e9ecd9b4be43a77f88db3369fd85e281c8af689d4c27ec85359fdac09489864736f6c63430008180033\n}\n","bytecode":{"linkReferences":{},"object":"608060405234801562000010575f80fd5b50604051620030be380380620030be8339818101604052810190620000369190620002d4565b5f821162000042575f80fd5b8060025f6101000a81548173ffffffffffffffffffffffffffffffffffffffff021916908373ffffffffffffffffffffffffffffffffffffffff160217905550835f9081620000929190620005af565b508260019081620000a49190620005af565b50816005819055505050505062000693565b5f604051905090565b5f80fd5b5f80fd5b5f80fd5b5f80fd5b5f601f19601f8301169050919050565b7f4e487b71000000000000000000000000000000000000000000000000000000005f52604160045260245ffd5b6200011782620000cf565b810181811067ffffffffffffffff82111715620001395762000138620000df565b5b80604052505050565b5f6200014d620000b6565b90506200015b82826200010c565b919050565b5f67ffffffffffffffff8211156200017d576200017c620000df565b5b6200018882620000cf565b9050602081019050919050565b5f5b83811015620001b457808201518184015260208101905062000197565b5f8484015250505050565b5f620001d5620001cf8462000160565b62000142565b905082815260208101848484011115620001f457620001f3620000cb565b5b6200020184828562000195565b509392505050565b5f82601f83011262000220576200021f620000c7565b5b815162000232848260208601620001bf565b91505092915050565b5f819050919050565b6200024f816200023b565b81146200025a575f80fd5b50565b5f815190506200026d8162000244565b92915050565b5f73ffffffffffffffffffffffffffffffffffffffff82169050919050565b5f6200029e8262000273565b9050919050565b620002b08162000292565b8114620002bb575f80fd5b50565b5f81519050620002ce81620002a5565b92915050565b5f805f8060808587031215620002ef57620002ee620000bf565b5b5f85015167ffffffffffffffff8111156200030f576200030e620000c3565b5b6200031d8782880162000209565b945050602085015167ffffffffffffffff811115620003415762000340620000c3565b5b6200034f8782880162000209565b935050604062000362878288016200025d565b92505060606200037587828801620002be565b91505092959194509250565b5f81519050919050565b7f4e487b71000000000000000000000000000000000000000000000000000000005f52602260045260245ffd5b5f6002820490506001821680620003d057607f821691505b602082108103620003e657620003e56200038b565b5b50919050565b5f819050815f5260205f209050919050565b5f6020601f8301049050919050565b5f82821b905092915050565b5f600883026200044a7fffffffffffffffffffffffffffffffffffffffffffffffffffffffffffffffff826200040d565b6200045686836200040d565b95508019841693508086168417925050509392505050565b5f819050919050565b5f62000497620004916200048b846200023b565b6200046e565b6200023b565b9050919050565b5f819050919050565b620004b28362000477565b620004ca620004c1826200049e565b84845462000419565b825550505050565b5f90565b620004e0620004d2565b620004ed818484620004a7565b505050565b5b818110156200051457620005085f82620004d6565b600181019050620004f3565b5050565b601f82111562000563576200052d81620003ec565b6200053884620003fe565b8101602085101562000548578190505b620005606200055785620003fe565b830182620004f2565b50505b505050565b5f82821c905092915050565b5f620005855f198460080262000568565b1980831691505092915050565b5f6200059f838362000574565b9150826002028217905092915050565b620005ba8262000381565b67ffffffffffffffff811115620005d657620005d5620000df565b5b620005e28254620003b8565b620005ef82828562000518565b5f60209050601f83116001811462000625575f841562000610578287015190505b6200061c858262000592565b8655506200068b565b601f1984166200063586620003ec565b5f5b828110156200065e5784890151825560018201915060208501945060208101905062000637565b868310156200067e57848901516200067a601f89168262000574565b8355505b6001600288020188555050505b505050505050565b612a1d80620006a15f395ff3fe608060405260043610610134575f3560e01c8063885e7c62116100aa578063d7bb99ba1161006e578063d7bb99ba146103cb578063e2e46b52146103d5578063e35d66a8146103fd578063f019021514610425578063f84038b11461044d578063feed55611461047757610134565b8063885e7c621461032f578063a26759cb14610359578063a7ac800014610363578063ac3077731461038b578063d5009584146103a157610134565b80634051ddac116100fc5780634051ddac14610206578063692d51d2146102305780636f9fb98a1461027757806372a8d706146102a15780637d6e5b9e146102c95780638813ce121461030557610134565b80630a144391146101385780631a092541146101745780632fba2c851461019e57806330e8fc5c146101b45780633410452a146101dc575b5f80fd5b348015610143575f80fd5b5061015e60048036038101906101599190611cac565b6104a1565b60405161016b9190611cef565b60405180910390f35b34801561017f575f80fd5b506101886104b6565b6040516101959190611d92565b60405180910390f35b3480156101a9575f80fd5b506101b2610546565b005b3480156101bf575f80fd5b506101da60048036038101906101d59190611f13565b610629565b005b3480156101e7575f80fd5b506101f06108f9565b6040516101fd9190611cef565b60405180910390f35b348015610211575f80fd5b5061021a610902565b60405161022791906120b2565b60405180910390f35b34801561023b575f80fd5b50610256600480360381019061025191906120d2565b610b38565b60405161026e9c9b9a99989796959493929190612148565b60405180910390f35b348015610282575f80fd5b5061028b610d83565b6040516102989190611cef565b60405180910390f35b3480156102ac575f80fd5b506102c760048036038101906102c29190612215565b610d8a565b005b3480156102d4575f80fd5b506102ef60048036038101906102ea91906120d2565b610eca565b6040516102fc9190612380565b60405180910390f35b348015610310575f80fd5b50610319611062565b60405161032691906124af565b60405180910390f35b34801561033a575f80fd5b506103436111e7565b6040516103509190611d92565b60405180910390f35b610361611276565b005b34801561036e575f80fd5b5061038960048036038101906103849190612523565b6112d0565b005b348015610396575f80fd5b5061039f611507565b005b3480156103ac575f80fd5b506103b5611642565b6040516103c291906125e1565b60405180910390f35b6103d361166a565b005b3480156103e0575f80fd5b506103fb60048036038101906103f691906120d2565b611733565b005b348015610408575f80fd5b50610423600480360381019061041e91906120d2565b6118e4565b005b348015610430575f80fd5b5061044b60048036038101906104469190612215565b611975565b005b348015610458575f80fd5b50610461611bd1565b60405161046e9190611cef565b60405180910390f35b348015610482575f80fd5b5061048b611bda565b6040516104989190611cef565b60405180910390f35b6003602052805f5260405f205f915090505481565b6060600180546104c590612627565b80601f01602080910402602001604051908101604052809291908181526020018280546104f190612627565b801561053c5780601f106105135761010080835404028352916020019161053c565b820191905f5260205f20905b81548152906001019060200180831161051f57829003601f168201915b5050505050905090565b60025f9054906101000a900473ffffffffffffffffffffffffffffffffffffffff1673ffffffffffffffffffffffffffffffffffffffff163373ffffffffffffffffffffffffffffffffffffffff161461059e575f80fd5b60095f9054906101000a900460ff166105b5575f80fd5b5f600454146105c2575f80fd5b60025f9054906101000a900473ffffffffffffffffffffffffffffffffffffffff1673ffffffffffffffffffffffffffffffffffffffff166108fc4790811502906040515f60405180830381858888f19350505050158015610626573d5f803e3d5ffd5b50565b5f60035f3373ffffffffffffffffffffffffffffffffffffffff1673ffffffffffffffffffffffffffffffffffffffff1681526020019081526020015f205403610671575f80fd5b60095f9054906101000a900460ff1615610689575f80fd5b60025f9054906101000a900473ffffffffffffffffffffffffffffffffffffffff1673ffffffffffffffffffffffffffffffffffffffff163373ffffffffffffffffffffffffffffffffffffffff16036106e1575f80fd5b5f6007836040516106f29190612691565b908152602001604051809103902090505f815f01805461071190612627565b90501161071c575f80fd5b8251815f01805461072c90612627565b905014610737575f80fd5b806008015f9054906101000a900460ff1615610751575f80fd5b8060080160019054906101000a900460ff161561076c575f80fd5b8060080160029054906101000a900460ff1615610787575f80fd5b80600a015f3373ffffffffffffffffffffffffffffffffffffffff1673ffffffffffffffffffffffffffffffffffffffff1681526020019081526020015f205f9054906101000a900460ff16156107dc575f80fd5b600181600a015f3373ffffffffffffffffffffffffffffffffffffffff1673ffffffffffffffffffffffffffffffffffffffff1681526020019081526020015f205f6101000a81548160ff021916908315150217905550811561085757806004015f81548092919061084d906126d4565b9190505550610871565b806006015f81548092919061086b906126d4565b91905055505b806005015481600401541061089d576001816008015f6101000a81548160ff0219169083151502179055505b80600501548160060154106108f45760018160080160026101000a81548160ff0219169083151502179055506040518060600160405280603981526020016129af603991398160090190816108f291906128b8565b505b505050565b5f600854905090565b61090a611be3565b5f60405180610120016040528060025f9054906101000a900473ffffffffffffffffffffffffffffffffffffffff1673ffffffffffffffffffffffffffffffffffffffff1681526020015f805461096090612627565b80601f016020809104026020016040519081016040528092919081815260200182805461098c90612627565b80156109d75780601f106109ae576101008083540402835291602001916109d7565b820191905f5260205f20905b8154815290600101906020018083116109ba57829003601f168201915b50505050508152602001600180546109ee90612627565b80601f0160208091040260200160405190810160405280929190818152602001828054610a1a90612627565b8015610a655780601f10610a3c57610100808354040283529160200191610a65565b820191905f5260205f20905b815481529060010190602001808311610a4857829003601f168201915b5050505050815260200160055481526020014781526020016004548152602001600854815260200160095f9054906101000a900460ff1615158152602001600a8054610ab090612627565b80601f0160208091040260200160405190810160405280929190818152602001828054610adc90612627565b8015610b275780601f10610afe57610100808354040283529160200191610b27565b820191905f5260205f20905b815481529060010190602001808311610b0a57829003601f168201915b505050505081525090508091505090565b6007818051602081018201805184825260208301602085012081835280955050505050505f91509050805f018054610b6f90612627565b80601f0160208091040260200160405190810160405280929190818152602001828054610b9b90612627565b8015610be65780601f10610bbd57610100808354040283529160200191610be6565b820191905f5260205f20905b815481529060010190602001808311610bc957829003601f168201915b505050505090806001018054610bfb90612627565b80601f0160208091040260200160405190810160405280929190818152602001828054610c2790612627565b8015610c725780601f10610c4957610100808354040283529160200191610c72565b820191905f5260205f20905b815481529060010190602001808311610c5557829003601f168201915b505050505090806002015490806003015f9054906101000a900473ffffffffffffffffffffffffffffffffffffffff1690806004015490806005015490806006015490806007015490806008015f9054906101000a900460ff16908060080160019054906101000a900460ff16908060080160029054906101000a900460ff1690806009018054610d0290612627565b80601f0160208091040260200160405190810160405280929190818152602001828054610d2e90612627565b8015610d795780601f10610d5057610100808354040283529160200191610d79565b820191905f5260205f20905b815481529060010190602001808311610d5c57829003601f168201915b505050505090508c565b5f47905090565b60025f9054906101000a900473ffffffffffffffffffffffffffffffffffffffff1673ffffffffffffffffffffffffffffffffffffffff163373ffffffffffffffffffffffffffffffffffffffff1614610de2575f80fd5b5f815111610dee575f80fd5b5f600783604051610dff9190612691565b90815260200160405180910390205f018054610e1a90612627565b905011610e25575f80fd5b600782604051610e359190612691565b908152602001604051809103902060080160029054906101000a900460ff1615610e5d575f80fd5b6001600783604051610e6f9190612691565b908152602001604051809103902060080160026101000a81548160ff02191690831515021790555080600783604051610ea89190612691565b90815260200160405180910390206009019081610ec591906128b8565b505050565b60605f600783604051610edd9190612691565b90815260200160405180910390205f018054610ef890612627565b905003610f03575f80fd5b600782604051610f139190612691565b9081526020016040518091039020600b01805480602002602001604051908101604052809291908181526020015f905b82821015611057578382905f5260205f2090600202016040518060400160405290815f82015f9054906101000a900473ffffffffffffffffffffffffffffffffffffffff1673ffffffffffffffffffffffffffffffffffffffff1673ffffffffffffffffffffffffffffffffffffffff168152602001600182018054610fc890612627565b80601f0160208091040260200160405190810160405280929190818152602001828054610ff490612627565b801561103f5780601f106110165761010080835404028352916020019161103f565b820191905f5260205f20905b81548152906001019060200180831161102257829003601f168201915b50505050508152505081526020019060010190610f43565b505050509050919050565b60606006805480602002602001604051908101604052809291908181526020015f905b828210156111de578382905f5260205f2090600302016040518060600160405290815f820180546110b590612627565b80601f01602080910402602001604051908101604052809291908181526020018280546110e190612627565b801561112c5780601f106111035761010080835404028352916020019161112c565b820191905f5260205f20905b81548152906001019060200180831161110f57829003601f168201915b5050505050815260200160018201805461114590612627565b80601f016020809104026020016040519081016040528092919081815260200182805461117190612627565b80156111bc5780601f10611193576101008083540402835291602001916111bc565b820191905f5260205f20905b81548152906001019060200180831161119f57829003601f168201915b5050505050815260200160028201548152505081526020019060010190611085565b50505050905090565b60605f80546111f590612627565b80601f016020809104026020016040519081016040528092919081815260200182805461122190612627565b801561126c5780601f106112435761010080835404028352916020019161126c565b820191905f5260205f20905b81548152906001019060200180831161124f57829003601f168201915b5050505050905090565b60025f9054906101000a900473ffffffffffffffffffffffffffffffffffffffff1673ffffffffffffffffffffffffffffffffffffffff163373ffffffffffffffffffffffffffffffffffffffff16146112ce575f80fd5b565b60025f9054906101000a900473ffffffffffffffffffffffffffffffffffffffff1673ffffffffffffffffffffffffffffffffffffffff163373ffffffffffffffffffffffffffffffffffffffff1614611328575f80fd5b60095f9054906101000a900460ff1615611340575f80fd5b5f85511161134c575f80fd5b5f845111611358575f80fd5b5f8311611363575f80fd5b4783111561136f575f80fd5b5f821161137a575f80fd5b600454821115611388575f80fd5b5f6007866040516113999190612691565b9081526020016040518091039020905085815f0190816113b991906128b8565b50848160010190816113cb91906128b8565b5083816002018190555081816003015f6101000a81548173ffffffffffffffffffffffffffffffffffffffff021916908373ffffffffffffffffffffffffffffffffffffffff1602179055505f81600401819055505f81600701819055508281600501819055505f8160080160016101000a81548160ff0219169083151502179055505f8160080160026101000a81548160ff02191690831515021790555060085f81548092919061147c906126d4565b91905055505f6040518060600160405280888152602001878152602001868152509050600681908060018154018082558091505060019003905f5260205f2090600302015f909190919091505f820151815f0190816114db91906128b8565b5060208201518160010190816114f191906128b8565b5060408201518160020155505050505050505050565b5f60035f3373ffffffffffffffffffffffffffffffffffffffff1673ffffffffffffffffffffffffffffffffffffffff1681526020019081526020015f20540361154f575f80fd5b60095f9054906101000a900460ff16611566575f80fd5b3373ffffffffffffffffffffffffffffffffffffffff166108fc60035f3373ffffffffffffffffffffffffffffffffffffffff1673ffffffffffffffffffffffffffffffffffffffff1681526020019081526020015f205490811502906040515f60405180830381858888f193505050501580156115e6573d5f803e3d5ffd5b505f60035f3373ffffffffffffffffffffffffffffffffffffffff1673ffffffffffffffffffffffffffffffffffffffff1681526020019081526020015f208190555060045f81548092919061163b90612987565b9190505550565b5f60025f9054906101000a900473ffffffffffffffffffffffffffffffffffffffff16905090565b60095f9054906101000a900460ff1615611682575f80fd5b600554341015611690575f80fd5b5f60035f3373ffffffffffffffffffffffffffffffffffffffff1673ffffffffffffffffffffffffffffffffffffffff1681526020019081526020015f2054146116d8575f80fd5b3460035f3373ffffffffffffffffffffffffffffffffffffffff1673ffffffffffffffffffffffffffffffffffffffff1681526020019081526020015f208190555060045f81548092919061172c906126d4565b9190505550565b60025f9054906101000a900473ffffffffffffffffffffffffffffffffffffffff1673ffffffffffffffffffffffffffffffffffffffff163373ffffffffffffffffffffffffffffffffffffffff161461178b575f80fd5b60095f9054906101000a900460ff16156117a3575f80fd5b5f6007826040516117b49190612691565b908152602001604051809103902090505f815f0180546117d390612627565b9050116117de575f80fd5b8151815f0180546117ee90612627565b9050146117f9575f80fd5b806008015f9054906101000a900460ff16801561182557508060080160019054906101000a900460ff16155b801561184057508060080160029054906101000a900460ff16155b611848575f80fd5b8060020154471015611858575f80fd5b806003015f9054906101000a900473ffffffffffffffffffffffffffffffffffffffff1673ffffffffffffffffffffffffffffffffffffffff166108fc826002015490811502906040515f60405180830381858888f193505050501580156118c2573d5f803e3d5ffd5b5060018160080160016101000a81548160ff0219169083151502179055505050565b60025f9054906101000a900473ffffffffffffffffffffffffffffffffffffffff1673ffffffffffffffffffffffffffffffffffffffff163373ffffffffffffffffffffffffffffffffffffffff161461193c575f80fd5b5f815111611948575f80fd5b600160095f6101000a81548160ff02191690831515021790555080600a908161197191906128b8565b5050565b5f60035f3373ffffffffffffffffffffffffffffffffffffffff1673ffffffffffffffffffffffffffffffffffffffff1681526020019081526020015f2054036119bd575f80fd5b60095f9054906101000a900460ff16156119d5575f80fd5b5f60035f3373ffffffffffffffffffffffffffffffffffffffff1673ffffffffffffffffffffffffffffffffffffffff1681526020019081526020015f205411611a1d575f80fd5b5f600783604051611a2e9190612691565b90815260200160405180910390205f018054611a4990612627565b905003611a54575f80fd5b600782604051611a649190612691565b908152602001604051809103902060080160029054906101000a900460ff16158015611abc5750600782604051611a9b9190612691565b908152602001604051809103902060080160019054906101000a900460ff16155b611ac4575f80fd5b5f60405180604001604052803373ffffffffffffffffffffffffffffffffffffffff168152602001838152509050600783604051611b029190612691565b9081526020016040518091039020600b0181908060018154018082558091505060019003905f5260205f2090600202015f909190919091505f820151815f015f6101000a81548173ffffffffffffffffffffffffffffffffffffffff021916908373ffffffffffffffffffffffffffffffffffffffff1602179055506020820151816001019081611b9391906128b8565b505050600783604051611ba69190612691565b90815260200160405180910390206007015f815480929190611bc7906126d4565b9190505550505050565b5f600554905090565b5f600454905090565b6040518061012001604052805f73ffffffffffffffffffffffffffffffffffffffff16815260200160608152602001606081526020015f81526020015f81526020015f81526020015f81526020015f15158152602001606081525090565b5f604051905090565b5f80fd5b5f80fd5b5f73ffffffffffffffffffffffffffffffffffffffff82169050919050565b5f611c7b82611c52565b9050919050565b611c8b81611c71565b8114611c95575f80fd5b50565b5f81359050611ca681611c82565b92915050565b5f60208284031215611cc157611cc0611c4a565b5b5f611cce84828501611c98565b91505092915050565b5f819050919050565b611ce981611cd7565b82525050565b5f602082019050611d025f830184611ce0565b92915050565b5f81519050919050565b5f82825260208201905092915050565b5f5b83811015611d3f578082015181840152602081019050611d24565b5f8484015250505050565b5f601f19601f8301169050919050565b5f611d6482611d08565b611d6e8185611d12565b9350611d7e818560208601611d22565b611d8781611d4a565b840191505092915050565b5f6020820190508181035f830152611daa8184611d5a565b905092915050565b5f80fd5b5f80fd5b7f4e487b71000000000000000000000000000000000000000000000000000000005f52604160045260245ffd5b611df082611d4a565b810181811067ffffffffffffffff82111715611e0f57611e0e611dba565b5b80604052505050565b5f611e21611c41565b9050611e2d8282611de7565b919050565b5f67ffffffffffffffff821115611e4c57611e4b611dba565b5b611e5582611d4a565b9050602081019050919050565b828183375f83830152505050565b5f611e82611e7d84611e32565b611e18565b905082815260208101848484011115611e9e57611e9d611db6565b5b611ea9848285611e62565b509392505050565b5f82601f830112611ec557611ec4611db2565b5b8135611ed5848260208601611e70565b91505092915050565b5f8115159050919050565b611ef281611ede565b8114611efc575f80fd5b50565b5f81359050611f0d81611ee9565b92915050565b5f8060408385031215611f2957611f28611c4a565b5b5f83013567ffffffffffffffff811115611f4657611f45611c4e565b5b611f5285828601611eb1565b9250506020611f6385828601611eff565b9150509250929050565b611f7681611c71565b82525050565b5f82825260208201905092915050565b5f611f9682611d08565b611fa08185611f7c565b9350611fb0818560208601611d22565b611fb981611d4a565b840191505092915050565b611fcd81611cd7565b82525050565b611fdc81611ede565b82525050565b5f61012083015f830151611ff85f860182611f6d565b50602083015184820360208601526120108282611f8c565b9150506040830151848203604086015261202a8282611f8c565b915050606083015161203f6060860182611fc4565b5060808301516120526080860182611fc4565b5060a083015161206560a0860182611fc4565b5060c083015161207860c0860182611fc4565b5060e083015161208b60e0860182611fd3565b506101008301518482036101008601526120a58282611f8c565b9150508091505092915050565b5f6020820190508181035f8301526120ca8184611fe2565b905092915050565b5f602082840312156120e7576120e6611c4a565b5b5f82013567ffffffffffffffff81111561210457612103611c4e565b5b61211084828501611eb1565b91505092915050565b5f61212382611c52565b9050919050565b61213381612119565b82525050565b61214281611ede565b82525050565b5f610180820190508181035f830152612161818f611d5a565b90508181036020830152612175818e611d5a565b9050612184604083018d611ce0565b612191606083018c61212a565b61219e608083018b611ce0565b6121ab60a083018a611ce0565b6121b860c0830189611ce0565b6121c560e0830188611ce0565b6121d3610100830187612139565b6121e1610120830186612139565b6121ef610140830185612139565b8181036101608301526122028184611d5a565b90509d9c50505050505050505050505050565b5f806040838503121561222b5761222a611c4a565b5b5f83013567ffffffffffffffff81111561224857612247611c4e565b5b61225485828601611eb1565b925050602083013567ffffffffffffffff81111561227557612274611c4e565b5b61228185828601611eb1565b9150509250929050565b5f81519050919050565b5f82825260208201905092915050565b5f819050602082019050919050565b5f604083015f8301516122c95f860182611f6d565b50602083015184820360208601526122e18282611f8c565b9150508091505092915050565b5f6122f983836122b4565b905092915050565b5f602082019050919050565b5f6123178261228b565b6123218185612295565b935083602082028501612333856122a5565b805f5b8581101561236e578484038952815161234f85826122ee565b945061235a83612301565b925060208a01995050600181019050612336565b50829750879550505050505092915050565b5f6020820190508181035f830152612398818461230d565b905092915050565b5f81519050919050565b5f82825260208201905092915050565b5f819050602082019050919050565b5f606083015f8301518482035f8601526123e38282611f8c565b915050602083015184820360208601526123fd8282611f8c565b91505060408301516124126040860182611fc4565b508091505092915050565b5f61242883836123c9565b905092915050565b5f602082019050919050565b5f612446826123a0565b61245081856123aa565b935083602082028501612462856123ba565b805f5b8581101561249d578484038952815161247e858261241d565b945061248983612430565b925060208a01995050600181019050612465565b50829750879550505050505092915050565b5f6020820190508181035f8301526124c7818461243c565b905092915050565b6124d881611cd7565b81146124e2575f80fd5b50565b5f813590506124f3816124cf565b92915050565b61250281612119565b811461250c575f80fd5b50565b5f8135905061251d816124f9565b92915050565b5f805f805f60a0868803121561253c5761253b611c4a565b5b5f86013567ffffffffffffffff81111561255957612558611c4e565b5b61256588828901611eb1565b955050602086013567ffffffffffffffff81111561258657612585611c4e565b5b61259288828901611eb1565b94505060406125a3888289016124e5565b93505060606125b4888289016124e5565b92505060806125c58882890161250f565b9150509295509295909350565b6125db81611c71565b82525050565b5f6020820190506125f45f8301846125d2565b92915050565b7f4e487b71000000000000000000000000000000000000000000000000000000005f52602260045260245ffd5b5f600282049050600182168061263e57607f821691505b602082108103612651576126506125fa565b5b50919050565b5f81905092915050565b5f61266b82611d08565b6126758185612657565b9350612685818560208601611d22565b80840191505092915050565b5f61269c8284612661565b915081905092915050565b7f4e487b71000000000000000000000000000000000000000000000000000000005f52601160045260245ffd5b5f6126de82611cd7565b91507fffffffffffffffffffffffffffffffffffffffffffffffffffffffffffffffff82036127105761270f6126a7565b5b600182019050919050565b5f819050815f5260205f209050919050565b5f6020601f8301049050919050565b5f82821b905092915050565b5f600883026127777fffffffffffffffffffffffffffffffffffffffffffffffffffffffffffffffff8261273c565b612781868361273c565b95508019841693508086168417925050509392505050565b5f819050919050565b5f6127bc6127b76127b284611cd7565b612799565b611cd7565b9050919050565b5f819050919050565b6127d5836127a2565b6127e96127e1826127c3565b848454612748565b825550505050565b5f90565b6127fd6127f1565b6128088184846127cc565b505050565b5b8181101561282b576128205f826127f5565b60018101905061280e565b5050565b601f821115612870576128418161271b565b61284a8461272d565b81016020851015612859578190505b61286d6128658561272d565b83018261280d565b50505b505050565b5f82821c905092915050565b5f6128905f1984600802612875565b1980831691505092915050565b5f6128a88383612881565b9150826002028217905092915050565b6128c182611d08565b67ffffffffffffffff8111156128da576128d9611dba565b5b6128e48254612627565b6128ef82828561282f565b5f60209050601f831160018114612920575f841561290e578287015190505b612918858261289d565b86555061297f565b601f19841661292e8661271b565b5f5b8281101561295557848901518255600182019150602085019450602081019050612930565b86831015612972578489015161296e601f891682612881565b8355505b6001600288020188555050505b505050505050565b5f61299182611cd7565b91505f82036129a3576129a26126a7565b5b60018203905091905056fe546865206d616a6f72697479206f662074686520636f6e7472696275746f7273206861766520766f74656420666f722072656a656374696f6ea2646970667358221220793e9ecd9b4be43a77f88db3369fd85e281c8af689d4c27ec85359fdac09489864736f6c63430008180033","opcodes":"PUSH1 0x80 PUSH1 0x40 MSTORE CALLVALUE DUP1 ISZERO PUSH3 0x10 JUMPI PUSH0 DUP1 REVERT JUMPDEST POP PUSH1 0x40 MLOAD PUSH3 0x30BE CODESIZE SUB DUP1 PUSH3 0x30BE DUP4 CODECOPY DUP2 DUP2 ADD PUSH1 0x40 MSTORE DUP2 ADD SWAP1 PUSH3 0x36 SWAP2 SWAP1 PUSH3 0x2D4 JUMP JUMPDEST PUSH0 DUP3 GT PUSH3 0x42 JUMPI PUSH0 DUP1 REVERT JUMPDEST DUP1 PUSH1 0x2 PUSH0 PUSH2 0x100 EXP DUP2 SLOAD DUP2 PUSH20 0xFFFFFFFFFFFFFFFFFFFFFFFFFFFFFFFFFFFFFFFF MUL NOT AND SWAP1 DUP4 PUSH20 0xFFFFFFFFFFFFFFFFFFFFFFFFFFFFFFFFFFFFFFFF AND MUL OR SWAP1 SSTORE POP DUP4 PUSH0 SWAP1 DUP2 PUSH3 0x92 SWAP2 SWAP1 PUSH3 0x5AF JUMP JUMPDEST POP DUP3 PUSH1 0x1 SWAP1 DUP2 PUSH3 0xA4 SWAP2 SWAP1 PUSH3 0x5AF JUMP JUMPDEST POP DUP2 PUSH1 0x5 DUP2 SWAP1 SSTORE POP POP POP POP POP PUSH3 0x693 JUMP JUMPDEST PUSH0 PUSH1 0x40 MLOAD SWAP1 POP SWAP1 JUMP JUMPDEST PUSH0 DUP1 REVERT JUMPDEST PUSH0 DUP1 REVERT JUMPDEST PUSH0 DUP1 REVERT JUMPDEST PUSH0 DUP1 REVERT JUMPDEST PUSH0 PUSH1 0x1F NOT PUSH1 0x1F DUP4 ADD AND SWAP1 POP SWAP2 SWAP1 POP JUMP JUMPDEST PUSH32 0x4E487B7100000000000000000000000000000000000000000000000000000000 PUSH0 MSTORE PUSH1 0x41 PUSH1 0x4 MSTORE PUSH1 0x24 PUSH0 REVERT JUMPDEST PUSH3 0x117 DUP3 PUSH3 0xCF JUMP JUMPDEST DUP2 ADD DUP2 DUP2 LT PUSH8 0xFFFFFFFFFFFFFFFF DUP3 GT OR ISZERO PUSH3 0x139 JUMPI PUSH3 0x138 PUSH3 0xDF JUMP JUMPDEST JUMPDEST DUP1 PUSH1 0x40 MSTORE POP POP POP JUMP JUMPDEST PUSH0 PUSH3 0x14D PUSH3 0xB6 JUMP JUMPDEST SWAP1 POP PUSH3 0x15B DUP3 DUP3 PUSH3 0x10C JUMP JUMPDEST SWAP2 SWAP1 POP JUMP JUMPDEST PUSH0 PUSH8 0xFFFFFFFFFFFFFFFF DUP3 GT ISZERO PUSH3 0x17D JUMPI PUSH3 0x17C PUSH3 0xDF JUMP JUMPDEST JUMPDEST PUSH3 0x188 DUP3 PUSH3 0xCF JUMP JUMPDEST SWAP1 POP PUSH1 0x20 DUP2 ADD SWAP1 POP SWAP2 SWAP1 POP JUMP JUMPDEST PUSH0 JUMPDEST DUP4 DUP2 LT ISZERO PUSH3 0x1B4 JUMPI DUP1 DUP3 ADD MLOAD DUP2 DUP5 ADD MSTORE PUSH1 0x20 DUP2 ADD SWAP1 POP PUSH3 0x197 JUMP JUMPDEST PUSH0 DUP5 DUP5 ADD MSTORE POP POP POP POP JUMP JUMPDEST PUSH0 PUSH3 0x1D5 PUSH3 0x1CF DUP5 PUSH3 0x160 JUMP JUMPDEST PUSH3 0x142 JUMP JUMPDEST SWAP1 POP DUP3 DUP2 MSTORE PUSH1 0x20 DUP2 ADD DUP5 DUP5 DUP5 ADD GT ISZERO PUSH3 0x1F4 JUMPI PUSH3 0x1F3 PUSH3 0xCB JUMP JUMPDEST JUMPDEST PUSH3 0x201 DUP5 DUP3 DUP6 PUSH3 0x195 JUMP JUMPDEST POP SWAP4 SWAP3 POP POP POP JUMP JUMPDEST PUSH0 DUP3 PUSH1 0x1F DUP4 ADD SLT PUSH3 0x220 JUMPI PUSH3 0x21F PUSH3 0xC7 JUMP JUMPDEST JUMPDEST DUP2 MLOAD PUSH3 0x232 DUP5 DUP3 PUSH1 0x20 DUP7 ADD PUSH3 0x1BF JUMP JUMPDEST SWAP2 POP POP SWAP3 SWAP2 POP POP JUMP JUMPDEST PUSH0 DUP2 SWAP1 POP SWAP2 SWAP1 POP JUMP JUMPDEST PUSH3 0x24F DUP2 PUSH3 0x23B JUMP JUMPDEST DUP2 EQ PUSH3 0x25A JUMPI PUSH0 DUP1 REVERT JUMPDEST POP JUMP JUMPDEST PUSH0 DUP2 MLOAD SWAP1 POP PUSH3 0x26D DUP2 PUSH3 0x244 JUMP JUMPDEST SWAP3 SWAP2 POP POP JUMP JUMPDEST PUSH0 PUSH20 0xFFFFFFFFFFFFFFFFFFFFFFFFFFFFFFFFFFFFFFFF DUP3 AND SWAP1 POP SWAP2 SWAP1 POP JUMP JUMPDEST PUSH0 PUSH3 0x29E DUP3 PUSH3 0x273 JUMP JUMPDEST SWAP1 POP SWAP2 SWAP1 POP JUMP JUMPDEST PUSH3 0x2B0 DUP2 PUSH3 0x292 JUMP JUMPDEST DUP2 EQ PUSH3 0x2BB JUMPI PUSH0 DUP1 REVERT JUMPDEST POP JUMP JUMPDEST PUSH0 DUP2 MLOAD SWAP1 POP PUSH3 0x2CE DUP2 PUSH3 0x2A5 JUMP JUMPDEST SWAP3 SWAP2 POP POP JUMP JUMPDEST PUSH0 DUP1 PUSH0 DUP1 PUSH1 0x80 DUP6 DUP8 SUB SLT ISZERO PUSH3 0x2EF JUMPI PUSH3 0x2EE PUSH3 0xBF JUMP JUMPDEST JUMPDEST PUSH0 DUP6 ADD MLOAD PUSH8 0xFFFFFFFFFFFFFFFF DUP2 GT ISZERO PUSH3 0x30F JUMPI PUSH3 0x30E PUSH3 0xC3 JUMP JUMPDEST JUMPDEST PUSH3 0x31D DUP8 DUP3 DUP9 ADD PUSH3 0x209 JUMP JUMPDEST SWAP5 POP POP PUSH1 0x20 DUP6 ADD MLOAD PUSH8 0xFFFFFFFFFFFFFFFF DUP2 GT ISZERO PUSH3 0x341 JUMPI PUSH3 0x340 PUSH3 0xC3 JUMP JUMPDEST JUMPDEST PUSH3 0x34F DUP8 DUP3 DUP9 ADD PUSH3 0x209 JUMP JUMPDEST SWAP4 POP POP PUSH1 0x40 PUSH3 0x362 DUP8 DUP3 DUP9 ADD PUSH3 0x25D JUMP JUMPDEST SWAP3 POP POP PUSH1 0x60 PUSH3 0x375 DUP8 DUP3 DUP9 ADD PUSH3 0x2BE JUMP JUMPDEST SWAP2 POP POP SWAP3 SWAP6 SWAP2 SWAP5 POP SWAP3 POP JUMP JUMPDEST PUSH0 DUP2 MLOAD SWAP1 POP SWAP2 SWAP1 POP JUMP JUMPDEST PUSH32 0x4E487B7100000000000000000000000000000000000000000000000000000000 PUSH0 MSTORE PUSH1 0x22 PUSH1 0x4 MSTORE PUSH1 0x24 PUSH0 REVERT JUMPDEST PUSH0 PUSH1 0x2 DUP3 DIV SWAP1 POP PUSH1 0x1 DUP3 AND DUP1 PUSH3 0x3D0 JUMPI PUSH1 0x7F DUP3 AND SWAP2 POP JUMPDEST PUSH1 0x20 DUP3 LT DUP2 SUB PUSH3 0x3E6 JUMPI PUSH3 0x3E5 PUSH3 0x38B JUMP JUMPDEST JUMPDEST POP SWAP2 SWAP1 POP JUMP JUMPDEST PUSH0 DUP2 SWAP1 POP DUP2 PUSH0 MSTORE PUSH1 0x20 PUSH0 KECCAK256 SWAP1 POP SWAP2 SWAP1 POP JUMP JUMPDEST PUSH0 PUSH1 0x20 PUSH1 0x1F DUP4 ADD DIV SWAP1 POP SWAP2 SWAP1 POP JUMP JUMPDEST PUSH0 DUP3 DUP3 SHL SWAP1 POP SWAP3 SWAP2 POP POP JUMP JUMPDEST PUSH0 PUSH1 0x8 DUP4 MUL PUSH3 0x44A PUSH32 0xFFFFFFFFFFFFFFFFFFFFFFFFFFFFFFFFFFFFFFFFFFFFFFFFFFFFFFFFFFFFFFFF DUP3 PUSH3 0x40D JUMP JUMPDEST PUSH3 0x456 DUP7 DUP4 PUSH3 0x40D JUMP JUMPDEST SWAP6 POP DUP1 NOT DUP5 AND SWAP4 POP DUP1 DUP7 AND DUP5 OR SWAP3 POP POP POP SWAP4 SWAP3 POP POP POP JUMP JUMPDEST PUSH0 DUP2 SWAP1 POP SWAP2 SWAP1 POP JUMP JUMPDEST PUSH0 PUSH3 0x497 PUSH3 0x491 PUSH3 0x48B DUP5 PUSH3 0x23B JUMP JUMPDEST PUSH3 0x46E JUMP JUMPDEST PUSH3 0x23B JUMP JUMPDEST SWAP1 POP SWAP2 SWAP1 POP JUMP JUMPDEST PUSH0 DUP2 SWAP1 POP SWAP2 SWAP1 POP JUMP JUMPDEST PUSH3 0x4B2 DUP4 PUSH3 0x477 JUMP JUMPDEST PUSH3 0x4CA PUSH3 0x4C1 DUP3 PUSH3 0x49E JUMP JUMPDEST DUP5 DUP5 SLOAD PUSH3 0x419 JUMP JUMPDEST DUP3 SSTORE POP POP POP POP JUMP JUMPDEST PUSH0 SWAP1 JUMP JUMPDEST PUSH3 0x4E0 PUSH3 0x4D2 JUMP JUMPDEST PUSH3 0x4ED DUP2 DUP5 DUP5 PUSH3 0x4A7 JUMP JUMPDEST POP POP POP JUMP JUMPDEST JUMPDEST DUP2 DUP2 LT ISZERO PUSH3 0x514 JUMPI PUSH3 0x508 PUSH0 DUP3 PUSH3 0x4D6 JUMP JUMPDEST PUSH1 0x1 DUP2 ADD SWAP1 POP PUSH3 0x4F3 JUMP JUMPDEST POP POP JUMP JUMPDEST PUSH1 0x1F DUP3 GT ISZERO PUSH3 0x563 JUMPI PUSH3 0x52D DUP2 PUSH3 0x3EC JUMP JUMPDEST PUSH3 0x538 DUP5 PUSH3 0x3FE JUMP JUMPDEST DUP2 ADD PUSH1 0x20 DUP6 LT ISZERO PUSH3 0x548 JUMPI DUP2 SWAP1 POP JUMPDEST PUSH3 0x560 PUSH3 0x557 DUP6 PUSH3 0x3FE JUMP JUMPDEST DUP4 ADD DUP3 PUSH3 0x4F2 JUMP JUMPDEST POP POP JUMPDEST POP POP POP JUMP JUMPDEST PUSH0 DUP3 DUP3 SHR SWAP1 POP SWAP3 SWAP2 POP POP JUMP JUMPDEST PUSH0 PUSH3 0x585 PUSH0 NOT DUP5 PUSH1 0x8 MUL PUSH3 0x568 JUMP JUMPDEST NOT DUP1 DUP4 AND SWAP2 POP POP SWAP3 SWAP2 POP POP JUMP JUMPDEST PUSH0 PUSH3 0x59F DUP4 DUP4 PUSH3 0x574 JUMP JUMPDEST SWAP2 POP DUP3 PUSH1 0x2 MUL DUP3 OR SWAP1 POP SWAP3 SWAP2 POP POP JUMP JUMPDEST PUSH3 0x5BA DUP3 PUSH3 0x381 JUMP JUMPDEST PUSH8 0xFFFFFFFFFFFFFFFF DUP2 GT ISZERO PUSH3 0x5D6 JUMPI PUSH3 0x5D5 PUSH3 0xDF JUMP JUMPDEST JUMPDEST PUSH3 0x5E2 DUP3 SLOAD PUSH3 0x3B8 JUMP JUMPDEST PUSH3 0x5EF DUP3 DUP3 DUP6 PUSH3 0x518 JUMP JUMPDEST PUSH0 PUSH1 0x20 SWAP1 POP PUSH1 0x1F DUP4 GT PUSH1 0x1 DUP2 EQ PUSH3 0x625 JUMPI PUSH0 DUP5 ISZERO PUSH3 0x610 JUMPI DUP3 DUP8 ADD MLOAD SWAP1 POP JUMPDEST PUSH3 0x61C DUP6 DUP3 PUSH3 0x592 JUMP JUMPDEST DUP7 SSTORE POP PUSH3 0x68B JUMP JUMPDEST PUSH1 0x1F NOT DUP5 AND PUSH3 0x635 DUP7 PUSH3 0x3EC JUMP JUMPDEST PUSH0 JUMPDEST DUP3 DUP2 LT ISZERO PUSH3 0x65E JUMPI DUP5 DUP10 ADD MLOAD DUP3 SSTORE PUSH1 0x1 DUP3 ADD SWAP2 POP PUSH1 0x20 DUP6 ADD SWAP5 POP PUSH1 0x20 DUP2 ADD SWAP1 POP PUSH3 0x637 JUMP JUMPDEST DUP7 DUP4 LT ISZERO PUSH3 0x67E JUMPI DUP5 DUP10 ADD MLOAD PUSH3 0x67A PUSH1 0x1F DUP10 AND DUP3 PUSH3 0x574 JUMP JUMPDEST DUP4 SSTORE POP JUMPDEST PUSH1 0x1 PUSH1 0x2 DUP9 MUL ADD DUP9 SSTORE POP POP POP JUMPDEST POP POP POP POP POP POP JUMP JUMPDEST PUSH2 0x2A1D DUP1 PUSH3 0x6A1 PUSH0 CODECOPY PUSH0 RETURN INVALID PUSH1 0x80 PUSH1 0x40 MSTORE PUSH1 0x4 CALLDATASIZE LT PUSH2 0x134 JUMPI PUSH0 CALLDATALOAD PUSH1 0xE0 SHR DUP1 PUSH4 0x885E7C62 GT PUSH2 0xAA JUMPI DUP1 PUSH4 0xD7BB99BA GT PUSH2 0x6E JUMPI DUP1 PUSH4 0xD7BB99BA EQ PUSH2 0x3CB JUMPI DUP1 PUSH4 0xE2E46B52 EQ PUSH2 0x3D5 JUMPI DUP1 PUSH4 0xE35D66A8 EQ PUSH2 0x3FD JUMPI DUP1 PUSH4 0xF0190215 EQ PUSH2 0x425 JUMPI DUP1 PUSH4 0xF84038B1 EQ PUSH2 0x44D JUMPI DUP1 PUSH4 0xFEED5561 EQ PUSH2 0x477 JUMPI PUSH2 0x134 JUMP JUMPDEST DUP1 PUSH4 0x885E7C62 EQ PUSH2 0x32F JUMPI DUP1 PUSH4 0xA26759CB EQ PUSH2 0x359 JUMPI DUP1 PUSH4 0xA7AC8000 EQ PUSH2 0x363 JUMPI DUP1 PUSH4 0xAC307773 EQ PUSH2 0x38B JUMPI DUP1 PUSH4 0xD5009584 EQ PUSH2 0x3A1 JUMPI PUSH2 0x134 JUMP JUMPDEST DUP1 PUSH4 0x4051DDAC GT PUSH2 0xFC JUMPI DUP1 PUSH4 0x4051DDAC EQ PUSH2 0x206 JUMPI DUP1 PUSH4 0x692D51D2 EQ PUSH2 0x230 JUMPI DUP1 PUSH4 0x6F9FB98A EQ PUSH2 0x277 JUMPI DUP1 PUSH4 0x72A8D706 EQ PUSH2 0x2A1 JUMPI DUP1 PUSH4 0x7D6E5B9E EQ PUSH2 0x2C9 JUMPI DUP1 PUSH4 0x8813CE12 EQ PUSH2 0x305 JUMPI PUSH2 0x134 JUMP JUMPDEST DUP1 PUSH4 0xA144391 EQ PUSH2 0x138 JUMPI DUP1 PUSH4 0x1A092541 EQ PUSH2 0x174 JUMPI DUP1 PUSH4 0x2FBA2C85 EQ PUSH2 0x19E JUMPI DUP1 PUSH4 0x30E8FC5C EQ PUSH2 0x1B4 JUMPI DUP1 PUSH4 0x3410452A EQ PUSH2 0x1DC JUMPI JUMPDEST PUSH0 DUP1 REVERT JUMPDEST CALLVALUE DUP1 ISZERO PUSH2 0x143 JUMPI PUSH0 DUP1 REVERT JUMPDEST POP PUSH2 0x15E PUSH1 0x4 DUP1 CALLDATASIZE SUB DUP2 ADD SWAP1 PUSH2 0x159 SWAP2 SWAP1 PUSH2 0x1CAC JUMP JUMPDEST PUSH2 0x4A1 JUMP JUMPDEST PUSH1 0x40 MLOAD PUSH2 0x16B SWAP2 SWAP1 PUSH2 0x1CEF JUMP JUMPDEST PUSH1 0x40 MLOAD DUP1 SWAP2 SUB SWAP1 RETURN JUMPDEST CALLVALUE DUP1 ISZERO PUSH2 0x17F JUMPI PUSH0 DUP1 REVERT JUMPDEST POP PUSH2 0x188 PUSH2 0x4B6 JUMP JUMPDEST PUSH1 0x40 MLOAD PUSH2 0x195 SWAP2 SWAP1 PUSH2 0x1D92 JUMP JUMPDEST PUSH1 0x40 MLOAD DUP1 SWAP2 SUB SWAP1 RETURN JUMPDEST CALLVALUE DUP1 ISZERO PUSH2 0x1A9 JUMPI PUSH0 DUP1 REVERT JUMPDEST POP PUSH2 0x1B2 PUSH2 0x546 JUMP JUMPDEST STOP JUMPDEST CALLVALUE DUP1 ISZERO PUSH2 0x1BF JUMPI PUSH0 DUP1 REVERT JUMPDEST POP PUSH2 0x1DA PUSH1 0x4 DUP1 CALLDATASIZE SUB DUP2 ADD SWAP1 PUSH2 0x1D5 SWAP2 SWAP1 PUSH2 0x1F13 JUMP JUMPDEST PUSH2 0x629 JUMP JUMPDEST STOP JUMPDEST CALLVALUE DUP1 ISZERO PUSH2 0x1E7 JUMPI PUSH0 DUP1 REVERT JUMPDEST POP PUSH2 0x1F0 PUSH2 0x8F9 JUMP JUMPDEST PUSH1 0x40 MLOAD PUSH2 0x1FD SWAP2 SWAP1 PUSH2 0x1CEF JUMP JUMPDEST PUSH1 0x40 MLOAD DUP1 SWAP2 SUB SWAP1 RETURN JUMPDEST CALLVALUE DUP1 ISZERO PUSH2 0x211 JUMPI PUSH0 DUP1 REVERT JUMPDEST POP PUSH2 0x21A PUSH2 0x902 JUMP JUMPDEST PUSH1 0x40 MLOAD PUSH2 0x227 SWAP2 SWAP1 PUSH2 0x20B2 JUMP JUMPDEST PUSH1 0x40 MLOAD DUP1 SWAP2 SUB SWAP1 RETURN JUMPDEST CALLVALUE DUP1 ISZERO PUSH2 0x23B JUMPI PUSH0 DUP1 REVERT JUMPDEST POP PUSH2 0x256 PUSH1 0x4 DUP1 CALLDATASIZE SUB DUP2 ADD SWAP1 PUSH2 0x251 SWAP2 SWAP1 PUSH2 0x20D2 JUMP JUMPDEST PUSH2 0xB38 JUMP JUMPDEST PUSH1 0x40 MLOAD PUSH2 0x26E SWAP13 SWAP12 SWAP11 SWAP10 SWAP9 SWAP8 SWAP7 SWAP6 SWAP5 SWAP4 SWAP3 SWAP2 SWAP1 PUSH2 0x2148 JUMP JUMPDEST PUSH1 0x40 MLOAD DUP1 SWAP2 SUB SWAP1 RETURN JUMPDEST CALLVALUE DUP1 ISZERO PUSH2 0x282 JUMPI PUSH0 DUP1 REVERT JUMPDEST POP PUSH2 0x28B PUSH2 0xD83 JUMP JUMPDEST PUSH1 0x40 MLOAD PUSH2 0x298 SWAP2 SWAP1 PUSH2 0x1CEF JUMP JUMPDEST PUSH1 0x40 MLOAD DUP1 SWAP2 SUB SWAP1 RETURN JUMPDEST CALLVALUE DUP1 ISZERO PUSH2 0x2AC JUMPI PUSH0 DUP1 REVERT JUMPDEST POP PUSH2 0x2C7 PUSH1 0x4 DUP1 CALLDATASIZE SUB DUP2 ADD SWAP1 PUSH2 0x2C2 SWAP2 SWAP1 PUSH2 0x2215 JUMP JUMPDEST PUSH2 0xD8A JUMP JUMPDEST STOP JUMPDEST CALLVALUE DUP1 ISZERO PUSH2 0x2D4 JUMPI PUSH0 DUP1 REVERT JUMPDEST POP PUSH2 0x2EF PUSH1 0x4 DUP1 CALLDATASIZE SUB DUP2 ADD SWAP1 PUSH2 0x2EA SWAP2 SWAP1 PUSH2 0x20D2 JUMP JUMPDEST PUSH2 0xECA JUMP JUMPDEST PUSH1 0x40 MLOAD PUSH2 0x2FC SWAP2 SWAP1 PUSH2 0x2380 JUMP JUMPDEST PUSH1 0x40 MLOAD DUP1 SWAP2 SUB SWAP1 RETURN JUMPDEST CALLVALUE DUP1 ISZERO PUSH2 0x310 JUMPI PUSH0 DUP1 REVERT JUMPDEST POP PUSH2 0x319 PUSH2 0x1062 JUMP JUMPDEST PUSH1 0x40 MLOAD PUSH2 0x326 SWAP2 SWAP1 PUSH2 0x24AF JUMP JUMPDEST PUSH1 0x40 MLOAD DUP1 SWAP2 SUB SWAP1 RETURN JUMPDEST CALLVALUE DUP1 ISZERO PUSH2 0x33A JUMPI PUSH0 DUP1 REVERT JUMPDEST POP PUSH2 0x343 PUSH2 0x11E7 JUMP JUMPDEST PUSH1 0x40 MLOAD PUSH2 0x350 SWAP2 SWAP1 PUSH2 0x1D92 JUMP JUMPDEST PUSH1 0x40 MLOAD DUP1 SWAP2 SUB SWAP1 RETURN JUMPDEST PUSH2 0x361 PUSH2 0x1276 JUMP JUMPDEST STOP JUMPDEST CALLVALUE DUP1 ISZERO PUSH2 0x36E JUMPI PUSH0 DUP1 REVERT JUMPDEST POP PUSH2 0x389 PUSH1 0x4 DUP1 CALLDATASIZE SUB DUP2 ADD SWAP1 PUSH2 0x384 SWAP2 SWAP1 PUSH2 0x2523 JUMP JUMPDEST PUSH2 0x12D0 JUMP JUMPDEST STOP JUMPDEST CALLVALUE DUP1 ISZERO PUSH2 0x396 JUMPI PUSH0 DUP1 REVERT JUMPDEST POP PUSH2 0x39F PUSH2 0x1507 JUMP JUMPDEST STOP JUMPDEST CALLVALUE DUP1 ISZERO PUSH2 0x3AC JUMPI PUSH0 DUP1 REVERT JUMPDEST POP PUSH2 0x3B5 PUSH2 0x1642 JUMP JUMPDEST PUSH1 0x40 MLOAD PUSH2 0x3C2 SWAP2 SWAP1 PUSH2 0x25E1 JUMP JUMPDEST PUSH1 0x40 MLOAD DUP1 SWAP2 SUB SWAP1 RETURN JUMPDEST PUSH2 0x3D3 PUSH2 0x166A JUMP JUMPDEST STOP JUMPDEST CALLVALUE DUP1 ISZERO PUSH2 0x3E0 JUMPI PUSH0 DUP1 REVERT JUMPDEST POP PUSH2 0x3FB PUSH1 0x4 DUP1 CALLDATASIZE SUB DUP2 ADD SWAP1 PUSH2 0x3F6 SWAP2 SWAP1 PUSH2 0x20D2 JUMP JUMPDEST PUSH2 0x1733 JUMP JUMPDEST STOP JUMPDEST CALLVALUE DUP1 ISZERO PUSH2 0x408 JUMPI PUSH0 DUP1 REVERT JUMPDEST POP PUSH2 0x423 PUSH1 0x4 DUP1 CALLDATASIZE SUB DUP2 ADD SWAP1 PUSH2 0x41E SWAP2 SWAP1 PUSH2 0x20D2 JUMP JUMPDEST PUSH2 0x18E4 JUMP JUMPDEST STOP JUMPDEST CALLVALUE DUP1 ISZERO PUSH2 0x430 JUMPI PUSH0 DUP1 REVERT JUMPDEST POP PUSH2 0x44B PUSH1 0x4 DUP1 CALLDATASIZE SUB DUP2 ADD SWAP1 PUSH2 0x446 SWAP2 SWAP1 PUSH2 0x2215 JUMP JUMPDEST PUSH2 0x1975 JUMP JUMPDEST STOP JUMPDEST CALLVALUE DUP1 ISZERO PUSH2 0x458 JUMPI PUSH0 DUP1 REVERT JUMPDEST POP PUSH2 0x461 PUSH2 0x1BD1 JUMP JUMPDEST PUSH1 0x40 MLOAD PUSH2 0x46E SWAP2 SWAP1 PUSH2 0x1CEF JUMP JUMPDEST PUSH1 0x40 MLOAD DUP1 SWAP2 SUB SWAP1 RETURN JUMPDEST CALLVALUE DUP1 ISZERO PUSH2 0x482 JUMPI PUSH0 DUP1 REVERT JUMPDEST POP PUSH2 0x48B PUSH2 0x1BDA JUMP JUMPDEST PUSH1 0x40 MLOAD PUSH2 0x498 SWAP2 SWAP1 PUSH2 0x1CEF JUMP JUMPDEST PUSH1 0x40 MLOAD DUP1 SWAP2 SUB SWAP1 RETURN JUMPDEST PUSH1 0x3 PUSH1 0x20 MSTORE DUP1 PUSH0 MSTORE PUSH1 0x40 PUSH0 KECCAK256 PUSH0 SWAP2 POP SWAP1 POP SLOAD DUP2 JUMP JUMPDEST PUSH1 0x60 PUSH1 0x1 DUP1 SLOAD PUSH2 0x4C5 SWAP1 PUSH2 0x2627 JUMP JUMPDEST DUP1 PUSH1 0x1F ADD PUSH1 0x20 DUP1 SWAP2 DIV MUL PUSH1 0x20 ADD PUSH1 0x40 MLOAD SWAP1 DUP2 ADD PUSH1 0x40 MSTORE DUP1 SWAP3 SWAP2 SWAP1 DUP2 DUP2 MSTORE PUSH1 0x20 ADD DUP3 DUP1 SLOAD PUSH2 0x4F1 SWAP1 PUSH2 0x2627 JUMP JUMPDEST DUP1 ISZERO PUSH2 0x53C JUMPI DUP1 PUSH1 0x1F LT PUSH2 0x513 JUMPI PUSH2 0x100 DUP1 DUP4 SLOAD DIV MUL DUP4 MSTORE SWAP2 PUSH1 0x20 ADD SWAP2 PUSH2 0x53C JUMP JUMPDEST DUP3 ADD SWAP2 SWAP1 PUSH0 MSTORE PUSH1 0x20 PUSH0 KECCAK256 SWAP1 JUMPDEST DUP2 SLOAD DUP2 MSTORE SWAP1 PUSH1 0x1 ADD SWAP1 PUSH1 0x20 ADD DUP1 DUP4 GT PUSH2 0x51F JUMPI DUP3 SWAP1 SUB PUSH1 0x1F AND DUP3 ADD SWAP2 JUMPDEST POP POP POP POP POP SWAP1 POP SWAP1 JUMP JUMPDEST PUSH1 0x2 PUSH0 SWAP1 SLOAD SWAP1 PUSH2 0x100 EXP SWAP1 DIV PUSH20 0xFFFFFFFFFFFFFFFFFFFFFFFFFFFFFFFFFFFFFFFF AND PUSH20 0xFFFFFFFFFFFFFFFFFFFFFFFFFFFFFFFFFFFFFFFF AND CALLER PUSH20 0xFFFFFFFFFFFFFFFFFFFFFFFFFFFFFFFFFFFFFFFF AND EQ PUSH2 0x59E JUMPI PUSH0 DUP1 REVERT JUMPDEST PUSH1 0x9 PUSH0 SWAP1 SLOAD SWAP1 PUSH2 0x100 EXP SWAP1 DIV PUSH1 0xFF AND PUSH2 0x5B5 JUMPI PUSH0 DUP1 REVERT JUMPDEST PUSH0 PUSH1 0x4 SLOAD EQ PUSH2 0x5C2 JUMPI PUSH0 DUP1 REVERT JUMPDEST PUSH1 0x2 PUSH0 SWAP1 SLOAD SWAP1 PUSH2 0x100 EXP SWAP1 DIV PUSH20 0xFFFFFFFFFFFFFFFFFFFFFFFFFFFFFFFFFFFFFFFF AND PUSH20 0xFFFFFFFFFFFFFFFFFFFFFFFFFFFFFFFFFFFFFFFF AND PUSH2 0x8FC SELFBALANCE SWAP1 DUP2 ISZERO MUL SWAP1 PUSH1 0x40 MLOAD PUSH0 PUSH1 0x40 MLOAD DUP1 DUP4 SUB DUP2 DUP6 DUP9 DUP9 CALL SWAP4 POP POP POP POP ISZERO DUP1 ISZERO PUSH2 0x626 JUMPI RETURNDATASIZE PUSH0 DUP1 RETURNDATACOPY RETURNDATASIZE PUSH0 REVERT JUMPDEST POP JUMP JUMPDEST PUSH0 PUSH1 0x3 PUSH0 CALLER PUSH20 0xFFFFFFFFFFFFFFFFFFFFFFFFFFFFFFFFFFFFFFFF AND PUSH20 0xFFFFFFFFFFFFFFFFFFFFFFFFFFFFFFFFFFFFFFFF AND DUP2 MSTORE PUSH1 0x20 ADD SWAP1 DUP2 MSTORE PUSH1 0x20 ADD PUSH0 KECCAK256 SLOAD SUB PUSH2 0x671 JUMPI PUSH0 DUP1 REVERT JUMPDEST PUSH1 0x9 PUSH0 SWAP1 SLOAD SWAP1 PUSH2 0x100 EXP SWAP1 DIV PUSH1 0xFF AND ISZERO PUSH2 0x689 JUMPI PUSH0 DUP1 REVERT JUMPDEST PUSH1 0x2 PUSH0 SWAP1 SLOAD SWAP1 PUSH2 0x100 EXP SWAP1 DIV PUSH20 0xFFFFFFFFFFFFFFFFFFFFFFFFFFFFFFFFFFFFFFFF AND PUSH20 0xFFFFFFFFFFFFFFFFFFFFFFFFFFFFFFFFFFFFFFFF AND CALLER PUSH20 0xFFFFFFFFFFFFFFFFFFFFFFFFFFFFFFFFFFFFFFFF AND SUB PUSH2 0x6E1 JUMPI PUSH0 DUP1 REVERT JUMPDEST PUSH0 PUSH1 0x7 DUP4 PUSH1 0x40 MLOAD PUSH2 0x6F2 SWAP2 SWAP1 PUSH2 0x2691 JUMP JUMPDEST SWAP1 DUP2 MSTORE PUSH1 0x20 ADD PUSH1 0x40 MLOAD DUP1 SWAP2 SUB SWAP1 KECCAK256 SWAP1 POP PUSH0 DUP2 PUSH0 ADD DUP1 SLOAD PUSH2 0x711 SWAP1 PUSH2 0x2627 JUMP JUMPDEST SWAP1 POP GT PUSH2 0x71C JUMPI PUSH0 DUP1 REVERT JUMPDEST DUP3 MLOAD DUP2 PUSH0 ADD DUP1 SLOAD PUSH2 0x72C SWAP1 PUSH2 0x2627 JUMP JUMPDEST SWAP1 POP EQ PUSH2 0x737 JUMPI PUSH0 DUP1 REVERT JUMPDEST DUP1 PUSH1 0x8 ADD PUSH0 SWAP1 SLOAD SWAP1 PUSH2 0x100 EXP SWAP1 DIV PUSH1 0xFF AND ISZERO PUSH2 0x751 JUMPI PUSH0 DUP1 REVERT JUMPDEST DUP1 PUSH1 0x8 ADD PUSH1 0x1 SWAP1 SLOAD SWAP1 PUSH2 0x100 EXP SWAP1 DIV PUSH1 0xFF AND ISZERO PUSH2 0x76C JUMPI PUSH0 DUP1 REVERT JUMPDEST DUP1 PUSH1 0x8 ADD PUSH1 0x2 SWAP1 SLOAD SWAP1 PUSH2 0x100 EXP SWAP1 DIV PUSH1 0xFF AND ISZERO PUSH2 0x787 JUMPI PUSH0 DUP1 REVERT JUMPDEST DUP1 PUSH1 0xA ADD PUSH0 CALLER PUSH20 0xFFFFFFFFFFFFFFFFFFFFFFFFFFFFFFFFFFFFFFFF AND PUSH20 0xFFFFFFFFFFFFFFFFFFFFFFFFFFFFFFFFFFFFFFFF AND DUP2 MSTORE PUSH1 0x20 ADD SWAP1 DUP2 MSTORE PUSH1 0x20 ADD PUSH0 KECCAK256 PUSH0 SWAP1 SLOAD SWAP1 PUSH2 0x100 EXP SWAP1 DIV PUSH1 0xFF AND ISZERO PUSH2 0x7DC JUMPI PUSH0 DUP1 REVERT JUMPDEST PUSH1 0x1 DUP2 PUSH1 0xA ADD PUSH0 CALLER PUSH20 0xFFFFFFFFFFFFFFFFFFFFFFFFFFFFFFFFFFFFFFFF AND PUSH20 0xFFFFFFFFFFFFFFFFFFFFFFFFFFFFFFFFFFFFFFFF AND DUP2 MSTORE PUSH1 0x20 ADD SWAP1 DUP2 MSTORE PUSH1 0x20 ADD PUSH0 KECCAK256 PUSH0 PUSH2 0x100 EXP DUP2 SLOAD DUP2 PUSH1 0xFF MUL NOT AND SWAP1 DUP4 ISZERO ISZERO MUL OR SWAP1 SSTORE POP DUP2 ISZERO PUSH2 0x857 JUMPI DUP1 PUSH1 0x4 ADD PUSH0 DUP2 SLOAD DUP1 SWAP3 SWAP2 SWAP1 PUSH2 0x84D SWAP1 PUSH2 0x26D4 JUMP JUMPDEST SWAP2 SWAP1 POP SSTORE POP PUSH2 0x871 JUMP JUMPDEST DUP1 PUSH1 0x6 ADD PUSH0 DUP2 SLOAD DUP1 SWAP3 SWAP2 SWAP1 PUSH2 0x86B SWAP1 PUSH2 0x26D4 JUMP JUMPDEST SWAP2 SWAP1 POP SSTORE POP JUMPDEST DUP1 PUSH1 0x5 ADD SLOAD DUP2 PUSH1 0x4 ADD SLOAD LT PUSH2 0x89D JUMPI PUSH1 0x1 DUP2 PUSH1 0x8 ADD PUSH0 PUSH2 0x100 EXP DUP2 SLOAD DUP2 PUSH1 0xFF MUL NOT AND SWAP1 DUP4 ISZERO ISZERO MUL OR SWAP1 SSTORE POP JUMPDEST DUP1 PUSH1 0x5 ADD SLOAD DUP2 PUSH1 0x6 ADD SLOAD LT PUSH2 0x8F4 JUMPI PUSH1 0x1 DUP2 PUSH1 0x8 ADD PUSH1 0x2 PUSH2 0x100 EXP DUP2 SLOAD DUP2 PUSH1 0xFF MUL NOT AND SWAP1 DUP4 ISZERO ISZERO MUL OR SWAP1 SSTORE POP PUSH1 0x40 MLOAD DUP1 PUSH1 0x60 ADD PUSH1 0x40 MSTORE DUP1 PUSH1 0x39 DUP2 MSTORE PUSH1 0x20 ADD PUSH2 0x29AF PUSH1 0x39 SWAP2 CODECOPY DUP2 PUSH1 0x9 ADD SWAP1 DUP2 PUSH2 0x8F2 SWAP2 SWAP1 PUSH2 0x28B8 JUMP JUMPDEST POP JUMPDEST POP POP POP JUMP JUMPDEST PUSH0 PUSH1 0x8 SLOAD SWAP1 POP SWAP1 JUMP JUMPDEST PUSH2 0x90A PUSH2 0x1BE3 JUMP JUMPDEST PUSH0 PUSH1 0x40 MLOAD DUP1 PUSH2 0x120 ADD PUSH1 0x40 MSTORE DUP1 PUSH1 0x2 PUSH0 SWAP1 SLOAD SWAP1 PUSH2 0x100 EXP SWAP1 DIV PUSH20 0xFFFFFFFFFFFFFFFFFFFFFFFFFFFFFFFFFFFFFFFF AND PUSH20 0xFFFFFFFFFFFFFFFFFFFFFFFFFFFFFFFFFFFFFFFF AND DUP2 MSTORE PUSH1 0x20 ADD PUSH0 DUP1 SLOAD PUSH2 0x960 SWAP1 PUSH2 0x2627 JUMP JUMPDEST DUP1 PUSH1 0x1F ADD PUSH1 0x20 DUP1 SWAP2 DIV MUL PUSH1 0x20 ADD PUSH1 0x40 MLOAD SWAP1 DUP2 ADD PUSH1 0x40 MSTORE DUP1 SWAP3 SWAP2 SWAP1 DUP2 DUP2 MSTORE PUSH1 0x20 ADD DUP3 DUP1 SLOAD PUSH2 0x98C SWAP1 PUSH2 0x2627 JUMP JUMPDEST DUP1 ISZERO PUSH2 0x9D7 JUMPI DUP1 PUSH1 0x1F LT PUSH2 0x9AE JUMPI PUSH2 0x100 DUP1 DUP4 SLOAD DIV MUL DUP4 MSTORE SWAP2 PUSH1 0x20 ADD SWAP2 PUSH2 0x9D7 JUMP JUMPDEST DUP3 ADD SWAP2 SWAP1 PUSH0 MSTORE PUSH1 0x20 PUSH0 KECCAK256 SWAP1 JUMPDEST DUP2 SLOAD DUP2 MSTORE SWAP1 PUSH1 0x1 ADD SWAP1 PUSH1 0x20 ADD DUP1 DUP4 GT PUSH2 0x9BA JUMPI DUP3 SWAP1 SUB PUSH1 0x1F AND DUP3 ADD SWAP2 JUMPDEST POP POP POP POP POP DUP2 MSTORE PUSH1 0x20 ADD PUSH1 0x1 DUP1 SLOAD PUSH2 0x9EE SWAP1 PUSH2 0x2627 JUMP JUMPDEST DUP1 PUSH1 0x1F ADD PUSH1 0x20 DUP1 SWAP2 DIV MUL PUSH1 0x20 ADD PUSH1 0x40 MLOAD SWAP1 DUP2 ADD PUSH1 0x40 MSTORE DUP1 SWAP3 SWAP2 SWAP1 DUP2 DUP2 MSTORE PUSH1 0x20 ADD DUP3 DUP1 SLOAD PUSH2 0xA1A SWAP1 PUSH2 0x2627 JUMP JUMPDEST DUP1 ISZERO PUSH2 0xA65 JUMPI DUP1 PUSH1 0x1F LT PUSH2 0xA3C JUMPI PUSH2 0x100 DUP1 DUP4 SLOAD DIV MUL DUP4 MSTORE SWAP2 PUSH1 0x20 ADD SWAP2 PUSH2 0xA65 JUMP JUMPDEST DUP3 ADD SWAP2 SWAP1 PUSH0 MSTORE PUSH1 0x20 PUSH0 KECCAK256 SWAP1 JUMPDEST DUP2 SLOAD DUP2 MSTORE SWAP1 PUSH1 0x1 ADD SWAP1 PUSH1 0x20 ADD DUP1 DUP4 GT PUSH2 0xA48 JUMPI DUP3 SWAP1 SUB PUSH1 0x1F AND DUP3 ADD SWAP2 JUMPDEST POP POP POP POP POP DUP2 MSTORE PUSH1 0x20 ADD PUSH1 0x5 SLOAD DUP2 MSTORE PUSH1 0x20 ADD SELFBALANCE DUP2 MSTORE PUSH1 0x20 ADD PUSH1 0x4 SLOAD DUP2 MSTORE PUSH1 0x20 ADD PUSH1 0x8 SLOAD DUP2 MSTORE PUSH1 0x20 ADD PUSH1 0x9 PUSH0 SWAP1 SLOAD SWAP1 PUSH2 0x100 EXP SWAP1 DIV PUSH1 0xFF AND ISZERO ISZERO DUP2 MSTORE PUSH1 0x20 ADD PUSH1 0xA DUP1 SLOAD PUSH2 0xAB0 SWAP1 PUSH2 0x2627 JUMP JUMPDEST DUP1 PUSH1 0x1F ADD PUSH1 0x20 DUP1 SWAP2 DIV MUL PUSH1 0x20 ADD PUSH1 0x40 MLOAD SWAP1 DUP2 ADD PUSH1 0x40 MSTORE DUP1 SWAP3 SWAP2 SWAP1 DUP2 DUP2 MSTORE PUSH1 0x20 ADD DUP3 DUP1 SLOAD PUSH2 0xADC SWAP1 PUSH2 0x2627 JUMP JUMPDEST DUP1 ISZERO PUSH2 0xB27 JUMPI DUP1 PUSH1 0x1F LT PUSH2 0xAFE JUMPI PUSH2 0x100 DUP1 DUP4 SLOAD DIV MUL DUP4 MSTORE SWAP2 PUSH1 0x20 ADD SWAP2 PUSH2 0xB27 JUMP JUMPDEST DUP3 ADD SWAP2 SWAP1 PUSH0 MSTORE PUSH1 0x20 PUSH0 KECCAK256 SWAP1 JUMPDEST DUP2 SLOAD DUP2 MSTORE SWAP1 PUSH1 0x1 ADD SWAP1 PUSH1 0x20 ADD DUP1 DUP4 GT PUSH2 0xB0A JUMPI DUP3 SWAP1 SUB PUSH1 0x1F AND DUP3 ADD SWAP2 JUMPDEST POP POP POP POP POP DUP2 MSTORE POP SWAP1 POP DUP1 SWAP2 POP POP SWAP1 JUMP JUMPDEST PUSH1 0x7 DUP2 DUP1 MLOAD PUSH1 0x20 DUP2 ADD DUP3 ADD DUP1 MLOAD DUP5 DUP3 MSTORE PUSH1 0x20 DUP4 ADD PUSH1 0x20 DUP6 ADD KECCAK256 DUP2 DUP4 MSTORE DUP1 SWAP6 POP POP POP POP POP POP PUSH0 SWAP2 POP SWAP1 POP DUP1 PUSH0 ADD DUP1 SLOAD PUSH2 0xB6F SWAP1 PUSH2 0x2627 JUMP JUMPDEST DUP1 PUSH1 0x1F ADD PUSH1 0x20 DUP1 SWAP2 DIV MUL PUSH1 0x20 ADD PUSH1 0x40 MLOAD SWAP1 DUP2 ADD PUSH1 0x40 MSTORE DUP1 SWAP3 SWAP2 SWAP1 DUP2 DUP2 MSTORE PUSH1 0x20 ADD DUP3 DUP1 SLOAD PUSH2 0xB9B SWAP1 PUSH2 0x2627 JUMP JUMPDEST DUP1 ISZERO PUSH2 0xBE6 JUMPI DUP1 PUSH1 0x1F LT PUSH2 0xBBD JUMPI PUSH2 0x100 DUP1 DUP4 SLOAD DIV MUL DUP4 MSTORE SWAP2 PUSH1 0x20 ADD SWAP2 PUSH2 0xBE6 JUMP JUMPDEST DUP3 ADD SWAP2 SWAP1 PUSH0 MSTORE PUSH1 0x20 PUSH0 KECCAK256 SWAP1 JUMPDEST DUP2 SLOAD DUP2 MSTORE SWAP1 PUSH1 0x1 ADD SWAP1 PUSH1 0x20 ADD DUP1 DUP4 GT PUSH2 0xBC9 JUMPI DUP3 SWAP1 SUB PUSH1 0x1F AND DUP3 ADD SWAP2 JUMPDEST POP POP POP POP POP SWAP1 DUP1 PUSH1 0x1 ADD DUP1 SLOAD PUSH2 0xBFB SWAP1 PUSH2 0x2627 JUMP JUMPDEST DUP1 PUSH1 0x1F ADD PUSH1 0x20 DUP1 SWAP2 DIV MUL PUSH1 0x20 ADD PUSH1 0x40 MLOAD SWAP1 DUP2 ADD PUSH1 0x40 MSTORE DUP1 SWAP3 SWAP2 SWAP1 DUP2 DUP2 MSTORE PUSH1 0x20 ADD DUP3 DUP1 SLOAD PUSH2 0xC27 SWAP1 PUSH2 0x2627 JUMP JUMPDEST DUP1 ISZERO PUSH2 0xC72 JUMPI DUP1 PUSH1 0x1F LT PUSH2 0xC49 JUMPI PUSH2 0x100 DUP1 DUP4 SLOAD DIV MUL DUP4 MSTORE SWAP2 PUSH1 0x20 ADD SWAP2 PUSH2 0xC72 JUMP JUMPDEST DUP3 ADD SWAP2 SWAP1 PUSH0 MSTORE PUSH1 0x20 PUSH0 KECCAK256 SWAP1 JUMPDEST DUP2 SLOAD DUP2 MSTORE SWAP1 PUSH1 0x1 ADD SWAP1 PUSH1 0x20 ADD DUP1 DUP4 GT PUSH2 0xC55 JUMPI DUP3 SWAP1 SUB PUSH1 0x1F AND DUP3 ADD SWAP2 JUMPDEST POP POP POP POP POP SWAP1 DUP1 PUSH1 0x2 ADD SLOAD SWAP1 DUP1 PUSH1 0x3 ADD PUSH0 SWAP1 SLOAD SWAP1 PUSH2 0x100 EXP SWAP1 DIV PUSH20 0xFFFFFFFFFFFFFFFFFFFFFFFFFFFFFFFFFFFFFFFF AND SWAP1 DUP1 PUSH1 0x4 ADD SLOAD SWAP1 DUP1 PUSH1 0x5 ADD SLOAD SWAP1 DUP1 PUSH1 0x6 ADD SLOAD SWAP1 DUP1 PUSH1 0x7 ADD SLOAD SWAP1 DUP1 PUSH1 0x8 ADD PUSH0 SWAP1 SLOAD SWAP1 PUSH2 0x100 EXP SWAP1 DIV PUSH1 0xFF AND SWAP1 DUP1 PUSH1 0x8 ADD PUSH1 0x1 SWAP1 SLOAD SWAP1 PUSH2 0x100 EXP SWAP1 DIV PUSH1 0xFF AND SWAP1 DUP1 PUSH1 0x8 ADD PUSH1 0x2 SWAP1 SLOAD SWAP1 PUSH2 0x100 EXP SWAP1 DIV PUSH1 0xFF AND SWAP1 DUP1 PUSH1 0x9 ADD DUP1 SLOAD PUSH2 0xD02 SWAP1 PUSH2 0x2627 JUMP JUMPDEST DUP1 PUSH1 0x1F ADD PUSH1 0x20 DUP1 SWAP2 DIV MUL PUSH1 0x20 ADD PUSH1 0x40 MLOAD SWAP1 DUP2 ADD PUSH1 0x40 MSTORE DUP1 SWAP3 SWAP2 SWAP1 DUP2 DUP2 MSTORE PUSH1 0x20 ADD DUP3 DUP1 SLOAD PUSH2 0xD2E SWAP1 PUSH2 0x2627 JUMP JUMPDEST DUP1 ISZERO PUSH2 0xD79 JUMPI DUP1 PUSH1 0x1F LT PUSH2 0xD50 JUMPI PUSH2 0x100 DUP1 DUP4 SLOAD DIV MUL DUP4 MSTORE SWAP2 PUSH1 0x20 ADD SWAP2 PUSH2 0xD79 JUMP JUMPDEST DUP3 ADD SWAP2 SWAP1 PUSH0 MSTORE PUSH1 0x20 PUSH0 KECCAK256 SWAP1 JUMPDEST DUP2 SLOAD DUP2 MSTORE SWAP1 PUSH1 0x1 ADD SWAP1 PUSH1 0x20 ADD DUP1 DUP4 GT PUSH2 0xD5C JUMPI DUP3 SWAP1 SUB PUSH1 0x1F AND DUP3 ADD SWAP2 JUMPDEST POP POP POP POP POP SWAP1 POP DUP13 JUMP JUMPDEST PUSH0 SELFBALANCE SWAP1 POP SWAP1 JUMP JUMPDEST PUSH1 0x2 PUSH0 SWAP1 SLOAD SWAP1 PUSH2 0x100 EXP SWAP1 DIV PUSH20 0xFFFFFFFFFFFFFFFFFFFFFFFFFFFFFFFFFFFFFFFF AND PUSH20 0xFFFFFFFFFFFFFFFFFFFFFFFFFFFFFFFFFFFFFFFF AND CALLER PUSH20 0xFFFFFFFFFFFFFFFFFFFFFFFFFFFFFFFFFFFFFFFF AND EQ PUSH2 0xDE2 JUMPI PUSH0 DUP1 REVERT JUMPDEST PUSH0 DUP2 MLOAD GT PUSH2 0xDEE JUMPI PUSH0 DUP1 REVERT JUMPDEST PUSH0 PUSH1 0x7 DUP4 PUSH1 0x40 MLOAD PUSH2 0xDFF SWAP2 SWAP1 PUSH2 0x2691 JUMP JUMPDEST SWAP1 DUP2 MSTORE PUSH1 0x20 ADD PUSH1 0x40 MLOAD DUP1 SWAP2 SUB SWAP1 KECCAK256 PUSH0 ADD DUP1 SLOAD PUSH2 0xE1A SWAP1 PUSH2 0x2627 JUMP JUMPDEST SWAP1 POP GT PUSH2 0xE25 JUMPI PUSH0 DUP1 REVERT JUMPDEST PUSH1 0x7 DUP3 PUSH1 0x40 MLOAD PUSH2 0xE35 SWAP2 SWAP1 PUSH2 0x2691 JUMP JUMPDEST SWAP1 DUP2 MSTORE PUSH1 0x20 ADD PUSH1 0x40 MLOAD DUP1 SWAP2 SUB SWAP1 KECCAK256 PUSH1 0x8 ADD PUSH1 0x2 SWAP1 SLOAD SWAP1 PUSH2 0x100 EXP SWAP1 DIV PUSH1 0xFF AND ISZERO PUSH2 0xE5D JUMPI PUSH0 DUP1 REVERT JUMPDEST PUSH1 0x1 PUSH1 0x7 DUP4 PUSH1 0x40 MLOAD PUSH2 0xE6F SWAP2 SWAP1 PUSH2 0x2691 JUMP JUMPDEST SWAP1 DUP2 MSTORE PUSH1 0x20 ADD PUSH1 0x40 MLOAD DUP1 SWAP2 SUB SWAP1 KECCAK256 PUSH1 0x8 ADD PUSH1 0x2 PUSH2 0x100 EXP DUP2 SLOAD DUP2 PUSH1 0xFF MUL NOT AND SWAP1 DUP4 ISZERO ISZERO MUL OR SWAP1 SSTORE POP DUP1 PUSH1 0x7 DUP4 PUSH1 0x40 MLOAD PUSH2 0xEA8 SWAP2 SWAP1 PUSH2 0x2691 JUMP JUMPDEST SWAP1 DUP2 MSTORE PUSH1 0x20 ADD PUSH1 0x40 MLOAD DUP1 SWAP2 SUB SWAP1 KECCAK256 PUSH1 0x9 ADD SWAP1 DUP2 PUSH2 0xEC5 SWAP2 SWAP1 PUSH2 0x28B8 JUMP JUMPDEST POP POP POP JUMP JUMPDEST PUSH1 0x60 PUSH0 PUSH1 0x7 DUP4 PUSH1 0x40 MLOAD PUSH2 0xEDD SWAP2 SWAP1 PUSH2 0x2691 JUMP JUMPDEST SWAP1 DUP2 MSTORE PUSH1 0x20 ADD PUSH1 0x40 MLOAD DUP1 SWAP2 SUB SWAP1 KECCAK256 PUSH0 ADD DUP1 SLOAD PUSH2 0xEF8 SWAP1 PUSH2 0x2627 JUMP JUMPDEST SWAP1 POP SUB PUSH2 0xF03 JUMPI PUSH0 DUP1 REVERT JUMPDEST PUSH1 0x7 DUP3 PUSH1 0x40 MLOAD PUSH2 0xF13 SWAP2 SWAP1 PUSH2 0x2691 JUMP JUMPDEST SWAP1 DUP2 MSTORE PUSH1 0x20 ADD PUSH1 0x40 MLOAD DUP1 SWAP2 SUB SWAP1 KECCAK256 PUSH1 0xB ADD DUP1 SLOAD DUP1 PUSH1 0x20 MUL PUSH1 0x20 ADD PUSH1 0x40 MLOAD SWAP1 DUP2 ADD PUSH1 0x40 MSTORE DUP1 SWAP3 SWAP2 SWAP1 DUP2 DUP2 MSTORE PUSH1 0x20 ADD PUSH0 SWAP1 JUMPDEST DUP3 DUP3 LT ISZERO PUSH2 0x1057 JUMPI DUP4 DUP3 SWAP1 PUSH0 MSTORE PUSH1 0x20 PUSH0 KECCAK256 SWAP1 PUSH1 0x2 MUL ADD PUSH1 0x40 MLOAD DUP1 PUSH1 0x40 ADD PUSH1 0x40 MSTORE SWAP1 DUP2 PUSH0 DUP3 ADD PUSH0 SWAP1 SLOAD SWAP1 PUSH2 0x100 EXP SWAP1 DIV PUSH20 0xFFFFFFFFFFFFFFFFFFFFFFFFFFFFFFFFFFFFFFFF AND PUSH20 0xFFFFFFFFFFFFFFFFFFFFFFFFFFFFFFFFFFFFFFFF AND PUSH20 0xFFFFFFFFFFFFFFFFFFFFFFFFFFFFFFFFFFFFFFFF AND DUP2 MSTORE PUSH1 0x20 ADD PUSH1 0x1 DUP3 ADD DUP1 SLOAD PUSH2 0xFC8 SWAP1 PUSH2 0x2627 JUMP JUMPDEST DUP1 PUSH1 0x1F ADD PUSH1 0x20 DUP1 SWAP2 DIV MUL PUSH1 0x20 ADD PUSH1 0x40 MLOAD SWAP1 DUP2 ADD PUSH1 0x40 MSTORE DUP1 SWAP3 SWAP2 SWAP1 DUP2 DUP2 MSTORE PUSH1 0x20 ADD DUP3 DUP1 SLOAD PUSH2 0xFF4 SWAP1 PUSH2 0x2627 JUMP JUMPDEST DUP1 ISZERO PUSH2 0x103F JUMPI DUP1 PUSH1 0x1F LT PUSH2 0x1016 JUMPI PUSH2 0x100 DUP1 DUP4 SLOAD DIV MUL DUP4 MSTORE SWAP2 PUSH1 0x20 ADD SWAP2 PUSH2 0x103F JUMP JUMPDEST DUP3 ADD SWAP2 SWAP1 PUSH0 MSTORE PUSH1 0x20 PUSH0 KECCAK256 SWAP1 JUMPDEST DUP2 SLOAD DUP2 MSTORE SWAP1 PUSH1 0x1 ADD SWAP1 PUSH1 0x20 ADD DUP1 DUP4 GT PUSH2 0x1022 JUMPI DUP3 SWAP1 SUB PUSH1 0x1F AND DUP3 ADD SWAP2 JUMPDEST POP POP POP POP POP DUP2 MSTORE POP POP DUP2 MSTORE PUSH1 0x20 ADD SWAP1 PUSH1 0x1 ADD SWAP1 PUSH2 0xF43 JUMP JUMPDEST POP POP POP POP SWAP1 POP SWAP2 SWAP1 POP JUMP JUMPDEST PUSH1 0x60 PUSH1 0x6 DUP1 SLOAD DUP1 PUSH1 0x20 MUL PUSH1 0x20 ADD PUSH1 0x40 MLOAD SWAP1 DUP2 ADD PUSH1 0x40 MSTORE DUP1 SWAP3 SWAP2 SWAP1 DUP2 DUP2 MSTORE PUSH1 0x20 ADD PUSH0 SWAP1 JUMPDEST DUP3 DUP3 LT ISZERO PUSH2 0x11DE JUMPI DUP4 DUP3 SWAP1 PUSH0 MSTORE PUSH1 0x20 PUSH0 KECCAK256 SWAP1 PUSH1 0x3 MUL ADD PUSH1 0x40 MLOAD DUP1 PUSH1 0x60 ADD PUSH1 0x40 MSTORE SWAP1 DUP2 PUSH0 DUP3 ADD DUP1 SLOAD PUSH2 0x10B5 SWAP1 PUSH2 0x2627 JUMP JUMPDEST DUP1 PUSH1 0x1F ADD PUSH1 0x20 DUP1 SWAP2 DIV MUL PUSH1 0x20 ADD PUSH1 0x40 MLOAD SWAP1 DUP2 ADD PUSH1 0x40 MSTORE DUP1 SWAP3 SWAP2 SWAP1 DUP2 DUP2 MSTORE PUSH1 0x20 ADD DUP3 DUP1 SLOAD PUSH2 0x10E1 SWAP1 PUSH2 0x2627 JUMP JUMPDEST DUP1 ISZERO PUSH2 0x112C JUMPI DUP1 PUSH1 0x1F LT PUSH2 0x1103 JUMPI PUSH2 0x100 DUP1 DUP4 SLOAD DIV MUL DUP4 MSTORE SWAP2 PUSH1 0x20 ADD SWAP2 PUSH2 0x112C JUMP JUMPDEST DUP3 ADD SWAP2 SWAP1 PUSH0 MSTORE PUSH1 0x20 PUSH0 KECCAK256 SWAP1 JUMPDEST DUP2 SLOAD DUP2 MSTORE SWAP1 PUSH1 0x1 ADD SWAP1 PUSH1 0x20 ADD DUP1 DUP4 GT PUSH2 0x110F JUMPI DUP3 SWAP1 SUB PUSH1 0x1F AND DUP3 ADD SWAP2 JUMPDEST POP POP POP POP POP DUP2 MSTORE PUSH1 0x20 ADD PUSH1 0x1 DUP3 ADD DUP1 SLOAD PUSH2 0x1145 SWAP1 PUSH2 0x2627 JUMP JUMPDEST DUP1 PUSH1 0x1F ADD PUSH1 0x20 DUP1 SWAP2 DIV MUL PUSH1 0x20 ADD PUSH1 0x40 MLOAD SWAP1 DUP2 ADD PUSH1 0x40 MSTORE DUP1 SWAP3 SWAP2 SWAP1 DUP2 DUP2 MSTORE PUSH1 0x20 ADD DUP3 DUP1 SLOAD PUSH2 0x1171 SWAP1 PUSH2 0x2627 JUMP JUMPDEST DUP1 ISZERO PUSH2 0x11BC JUMPI DUP1 PUSH1 0x1F LT PUSH2 0x1193 JUMPI PUSH2 0x100 DUP1 DUP4 SLOAD DIV MUL DUP4 MSTORE SWAP2 PUSH1 0x20 ADD SWAP2 PUSH2 0x11BC JUMP JUMPDEST DUP3 ADD SWAP2 SWAP1 PUSH0 MSTORE PUSH1 0x20 PUSH0 KECCAK256 SWAP1 JUMPDEST DUP2 SLOAD DUP2 MSTORE SWAP1 PUSH1 0x1 ADD SWAP1 PUSH1 0x20 ADD DUP1 DUP4 GT PUSH2 0x119F JUMPI DUP3 SWAP1 SUB PUSH1 0x1F AND DUP3 ADD SWAP2 JUMPDEST POP POP POP POP POP DUP2 MSTORE PUSH1 0x20 ADD PUSH1 0x2 DUP3 ADD SLOAD DUP2 MSTORE POP POP DUP2 MSTORE PUSH1 0x20 ADD SWAP1 PUSH1 0x1 ADD SWAP1 PUSH2 0x1085 JUMP JUMPDEST POP POP POP POP SWAP1 POP SWAP1 JUMP JUMPDEST PUSH1 0x60 PUSH0 DUP1 SLOAD PUSH2 0x11F5 SWAP1 PUSH2 0x2627 JUMP JUMPDEST DUP1 PUSH1 0x1F ADD PUSH1 0x20 DUP1 SWAP2 DIV MUL PUSH1 0x20 ADD PUSH1 0x40 MLOAD SWAP1 DUP2 ADD PUSH1 0x40 MSTORE DUP1 SWAP3 SWAP2 SWAP1 DUP2 DUP2 MSTORE PUSH1 0x20 ADD DUP3 DUP1 SLOAD PUSH2 0x1221 SWAP1 PUSH2 0x2627 JUMP JUMPDEST DUP1 ISZERO PUSH2 0x126C JUMPI DUP1 PUSH1 0x1F LT PUSH2 0x1243 JUMPI PUSH2 0x100 DUP1 DUP4 SLOAD DIV MUL DUP4 MSTORE SWAP2 PUSH1 0x20 ADD SWAP2 PUSH2 0x126C JUMP JUMPDEST DUP3 ADD SWAP2 SWAP1 PUSH0 MSTORE PUSH1 0x20 PUSH0 KECCAK256 SWAP1 JUMPDEST DUP2 SLOAD DUP2 MSTORE SWAP1 PUSH1 0x1 ADD SWAP1 PUSH1 0x20 ADD DUP1 DUP4 GT PUSH2 0x124F JUMPI DUP3 SWAP1 SUB PUSH1 0x1F AND DUP3 ADD SWAP2 JUMPDEST POP POP POP POP POP SWAP1 POP SWAP1 JUMP JUMPDEST PUSH1 0x2 PUSH0 SWAP1 SLOAD SWAP1 PUSH2 0x100 EXP SWAP1 DIV PUSH20 0xFFFFFFFFFFFFFFFFFFFFFFFFFFFFFFFFFFFFFFFF AND PUSH20 0xFFFFFFFFFFFFFFFFFFFFFFFFFFFFFFFFFFFFFFFF AND CALLER PUSH20 0xFFFFFFFFFFFFFFFFFFFFFFFFFFFFFFFFFFFFFFFF AND EQ PUSH2 0x12CE JUMPI PUSH0 DUP1 REVERT JUMPDEST JUMP JUMPDEST PUSH1 0x2 PUSH0 SWAP1 SLOAD SWAP1 PUSH2 0x100 EXP SWAP1 DIV PUSH20 0xFFFFFFFFFFFFFFFFFFFFFFFFFFFFFFFFFFFFFFFF AND PUSH20 0xFFFFFFFFFFFFFFFFFFFFFFFFFFFFFFFFFFFFFFFF AND CALLER PUSH20 0xFFFFFFFFFFFFFFFFFFFFFFFFFFFFFFFFFFFFFFFF AND EQ PUSH2 0x1328 JUMPI PUSH0 DUP1 REVERT JUMPDEST PUSH1 0x9 PUSH0 SWAP1 SLOAD SWAP1 PUSH2 0x100 EXP SWAP1 DIV PUSH1 0xFF AND ISZERO PUSH2 0x1340 JUMPI PUSH0 DUP1 REVERT JUMPDEST PUSH0 DUP6 MLOAD GT PUSH2 0x134C JUMPI PUSH0 DUP1 REVERT JUMPDEST PUSH0 DUP5 MLOAD GT PUSH2 0x1358 JUMPI PUSH0 DUP1 REVERT JUMPDEST PUSH0 DUP4 GT PUSH2 0x1363 JUMPI PUSH0 DUP1 REVERT JUMPDEST SELFBALANCE DUP4 GT ISZERO PUSH2 0x136F JUMPI PUSH0 DUP1 REVERT JUMPDEST PUSH0 DUP3 GT PUSH2 0x137A JUMPI PUSH0 DUP1 REVERT JUMPDEST PUSH1 0x4 SLOAD DUP3 GT ISZERO PUSH2 0x1388 JUMPI PUSH0 DUP1 REVERT JUMPDEST PUSH0 PUSH1 0x7 DUP7 PUSH1 0x40 MLOAD PUSH2 0x1399 SWAP2 SWAP1 PUSH2 0x2691 JUMP JUMPDEST SWAP1 DUP2 MSTORE PUSH1 0x20 ADD PUSH1 0x40 MLOAD DUP1 SWAP2 SUB SWAP1 KECCAK256 SWAP1 POP DUP6 DUP2 PUSH0 ADD SWAP1 DUP2 PUSH2 0x13B9 SWAP2 SWAP1 PUSH2 0x28B8 JUMP JUMPDEST POP DUP5 DUP2 PUSH1 0x1 ADD SWAP1 DUP2 PUSH2 0x13CB SWAP2 SWAP1 PUSH2 0x28B8 JUMP JUMPDEST POP DUP4 DUP2 PUSH1 0x2 ADD DUP2 SWAP1 SSTORE POP DUP2 DUP2 PUSH1 0x3 ADD PUSH0 PUSH2 0x100 EXP DUP2 SLOAD DUP2 PUSH20 0xFFFFFFFFFFFFFFFFFFFFFFFFFFFFFFFFFFFFFFFF MUL NOT AND SWAP1 DUP4 PUSH20 0xFFFFFFFFFFFFFFFFFFFFFFFFFFFFFFFFFFFFFFFF AND MUL OR SWAP1 SSTORE POP PUSH0 DUP2 PUSH1 0x4 ADD DUP2 SWAP1 SSTORE POP PUSH0 DUP2 PUSH1 0x7 ADD DUP2 SWAP1 SSTORE POP DUP3 DUP2 PUSH1 0x5 ADD DUP2 SWAP1 SSTORE POP PUSH0 DUP2 PUSH1 0x8 ADD PUSH1 0x1 PUSH2 0x100 EXP DUP2 SLOAD DUP2 PUSH1 0xFF MUL NOT AND SWAP1 DUP4 ISZERO ISZERO MUL OR SWAP1 SSTORE POP PUSH0 DUP2 PUSH1 0x8 ADD PUSH1 0x2 PUSH2 0x100 EXP DUP2 SLOAD DUP2 PUSH1 0xFF MUL NOT AND SWAP1 DUP4 ISZERO ISZERO MUL OR SWAP1 SSTORE POP PUSH1 0x8 PUSH0 DUP2 SLOAD DUP1 SWAP3 SWAP2 SWAP1 PUSH2 0x147C SWAP1 PUSH2 0x26D4 JUMP JUMPDEST SWAP2 SWAP1 POP SSTORE POP PUSH0 PUSH1 0x40 MLOAD DUP1 PUSH1 0x60 ADD PUSH1 0x40 MSTORE DUP1 DUP9 DUP2 MSTORE PUSH1 0x20 ADD DUP8 DUP2 MSTORE PUSH1 0x20 ADD DUP7 DUP2 MSTORE POP SWAP1 POP PUSH1 0x6 DUP2 SWAP1 DUP1 PUSH1 0x1 DUP2 SLOAD ADD DUP1 DUP3 SSTORE DUP1 SWAP2 POP POP PUSH1 0x1 SWAP1 SUB SWAP1 PUSH0 MSTORE PUSH1 0x20 PUSH0 KECCAK256 SWAP1 PUSH1 0x3 MUL ADD PUSH0 SWAP1 SWAP2 SWAP1 SWAP2 SWAP1 SWAP2 POP PUSH0 DUP3 ADD MLOAD DUP2 PUSH0 ADD SWAP1 DUP2 PUSH2 0x14DB SWAP2 SWAP1 PUSH2 0x28B8 JUMP JUMPDEST POP PUSH1 0x20 DUP3 ADD MLOAD DUP2 PUSH1 0x1 ADD SWAP1 DUP2 PUSH2 0x14F1 SWAP2 SWAP1 PUSH2 0x28B8 JUMP JUMPDEST POP PUSH1 0x40 DUP3 ADD MLOAD DUP2 PUSH1 0x2 ADD SSTORE POP POP POP POP POP POP POP POP POP JUMP JUMPDEST PUSH0 PUSH1 0x3 PUSH0 CALLER PUSH20 0xFFFFFFFFFFFFFFFFFFFFFFFFFFFFFFFFFFFFFFFF AND PUSH20 0xFFFFFFFFFFFFFFFFFFFFFFFFFFFFFFFFFFFFFFFF AND DUP2 MSTORE PUSH1 0x20 ADD SWAP1 DUP2 MSTORE PUSH1 0x20 ADD PUSH0 KECCAK256 SLOAD SUB PUSH2 0x154F JUMPI PUSH0 DUP1 REVERT JUMPDEST PUSH1 0x9 PUSH0 SWAP1 SLOAD SWAP1 PUSH2 0x100 EXP SWAP1 DIV PUSH1 0xFF AND PUSH2 0x1566 JUMPI PUSH0 DUP1 REVERT JUMPDEST CALLER PUSH20 0xFFFFFFFFFFFFFFFFFFFFFFFFFFFFFFFFFFFFFFFF AND PUSH2 0x8FC PUSH1 0x3 PUSH0 CALLER PUSH20 0xFFFFFFFFFFFFFFFFFFFFFFFFFFFFFFFFFFFFFFFF AND PUSH20 0xFFFFFFFFFFFFFFFFFFFFFFFFFFFFFFFFFFFFFFFF AND DUP2 MSTORE PUSH1 0x20 ADD SWAP1 DUP2 MSTORE PUSH1 0x20 ADD PUSH0 KECCAK256 SLOAD SWAP1 DUP2 ISZERO MUL SWAP1 PUSH1 0x40 MLOAD PUSH0 PUSH1 0x40 MLOAD DUP1 DUP4 SUB DUP2 DUP6 DUP9 DUP9 CALL SWAP4 POP POP POP POP ISZERO DUP1 ISZERO PUSH2 0x15E6 JUMPI RETURNDATASIZE PUSH0 DUP1 RETURNDATACOPY RETURNDATASIZE PUSH0 REVERT JUMPDEST POP PUSH0 PUSH1 0x3 PUSH0 CALLER PUSH20 0xFFFFFFFFFFFFFFFFFFFFFFFFFFFFFFFFFFFFFFFF AND PUSH20 0xFFFFFFFFFFFFFFFFFFFFFFFFFFFFFFFFFFFFFFFF AND DUP2 MSTORE PUSH1 0x20 ADD SWAP1 DUP2 MSTORE PUSH1 0x20 ADD PUSH0 KECCAK256 DUP2 SWAP1 SSTORE POP PUSH1 0x4 PUSH0 DUP2 SLOAD DUP1 SWAP3 SWAP2 SWAP1 PUSH2 0x163B SWAP1 PUSH2 0x2987 JUMP JUMPDEST SWAP2 SWAP1 POP SSTORE POP JUMP JUMPDEST PUSH0 PUSH1 0x2 PUSH0 SWAP1 SLOAD SWAP1 PUSH2 0x100 EXP SWAP1 DIV PUSH20 0xFFFFFFFFFFFFFFFFFFFFFFFFFFFFFFFFFFFFFFFF AND SWAP1 POP SWAP1 JUMP JUMPDEST PUSH1 0x9 PUSH0 SWAP1 SLOAD SWAP1 PUSH2 0x100 EXP SWAP1 DIV PUSH1 0xFF AND ISZERO PUSH2 0x1682 JUMPI PUSH0 DUP1 REVERT JUMPDEST PUSH1 0x5 SLOAD CALLVALUE LT ISZERO PUSH2 0x1690 JUMPI PUSH0 DUP1 REVERT JUMPDEST PUSH0 PUSH1 0x3 PUSH0 CALLER PUSH20 0xFFFFFFFFFFFFFFFFFFFFFFFFFFFFFFFFFFFFFFFF AND PUSH20 0xFFFFFFFFFFFFFFFFFFFFFFFFFFFFFFFFFFFFFFFF AND DUP2 MSTORE PUSH1 0x20 ADD SWAP1 DUP2 MSTORE PUSH1 0x20 ADD PUSH0 KECCAK256 SLOAD EQ PUSH2 0x16D8 JUMPI PUSH0 DUP1 REVERT JUMPDEST CALLVALUE PUSH1 0x3 PUSH0 CALLER PUSH20 0xFFFFFFFFFFFFFFFFFFFFFFFFFFFFFFFFFFFFFFFF AND PUSH20 0xFFFFFFFFFFFFFFFFFFFFFFFFFFFFFFFFFFFFFFFF AND DUP2 MSTORE PUSH1 0x20 ADD SWAP1 DUP2 MSTORE PUSH1 0x20 ADD PUSH0 KECCAK256 DUP2 SWAP1 SSTORE POP PUSH1 0x4 PUSH0 DUP2 SLOAD DUP1 SWAP3 SWAP2 SWAP1 PUSH2 0x172C SWAP1 PUSH2 0x26D4 JUMP JUMPDEST SWAP2 SWAP1 POP SSTORE POP JUMP JUMPDEST PUSH1 0x2 PUSH0 SWAP1 SLOAD SWAP1 PUSH2 0x100 EXP SWAP1 DIV PUSH20 0xFFFFFFFFFFFFFFFFFFFFFFFFFFFFFFFFFFFFFFFF AND PUSH20 0xFFFFFFFFFFFFFFFFFFFFFFFFFFFFFFFFFFFFFFFF AND CALLER PUSH20 0xFFFFFFFFFFFFFFFFFFFFFFFFFFFFFFFFFFFFFFFF AND EQ PUSH2 0x178B JUMPI PUSH0 DUP1 REVERT JUMPDEST PUSH1 0x9 PUSH0 SWAP1 SLOAD SWAP1 PUSH2 0x100 EXP SWAP1 DIV PUSH1 0xFF AND ISZERO PUSH2 0x17A3 JUMPI PUSH0 DUP1 REVERT JUMPDEST PUSH0 PUSH1 0x7 DUP3 PUSH1 0x40 MLOAD PUSH2 0x17B4 SWAP2 SWAP1 PUSH2 0x2691 JUMP JUMPDEST SWAP1 DUP2 MSTORE PUSH1 0x20 ADD PUSH1 0x40 MLOAD DUP1 SWAP2 SUB SWAP1 KECCAK256 SWAP1 POP PUSH0 DUP2 PUSH0 ADD DUP1 SLOAD PUSH2 0x17D3 SWAP1 PUSH2 0x2627 JUMP JUMPDEST SWAP1 POP GT PUSH2 0x17DE JUMPI PUSH0 DUP1 REVERT JUMPDEST DUP2 MLOAD DUP2 PUSH0 ADD DUP1 SLOAD PUSH2 0x17EE SWAP1 PUSH2 0x2627 JUMP JUMPDEST SWAP1 POP EQ PUSH2 0x17F9 JUMPI PUSH0 DUP1 REVERT JUMPDEST DUP1 PUSH1 0x8 ADD PUSH0 SWAP1 SLOAD SWAP1 PUSH2 0x100 EXP SWAP1 DIV PUSH1 0xFF AND DUP1 ISZERO PUSH2 0x1825 JUMPI POP DUP1 PUSH1 0x8 ADD PUSH1 0x1 SWAP1 SLOAD SWAP1 PUSH2 0x100 EXP SWAP1 DIV PUSH1 0xFF AND ISZERO JUMPDEST DUP1 ISZERO PUSH2 0x1840 JUMPI POP DUP1 PUSH1 0x8 ADD PUSH1 0x2 SWAP1 SLOAD SWAP1 PUSH2 0x100 EXP SWAP1 DIV PUSH1 0xFF AND ISZERO JUMPDEST PUSH2 0x1848 JUMPI PUSH0 DUP1 REVERT JUMPDEST DUP1 PUSH1 0x2 ADD SLOAD SELFBALANCE LT ISZERO PUSH2 0x1858 JUMPI PUSH0 DUP1 REVERT JUMPDEST DUP1 PUSH1 0x3 ADD PUSH0 SWAP1 SLOAD SWAP1 PUSH2 0x100 EXP SWAP1 DIV PUSH20 0xFFFFFFFFFFFFFFFFFFFFFFFFFFFFFFFFFFFFFFFF AND PUSH20 0xFFFFFFFFFFFFFFFFFFFFFFFFFFFFFFFFFFFFFFFF AND PUSH2 0x8FC DUP3 PUSH1 0x2 ADD SLOAD SWAP1 DUP2 ISZERO MUL SWAP1 PUSH1 0x40 MLOAD PUSH0 PUSH1 0x40 MLOAD DUP1 DUP4 SUB DUP2 DUP6 DUP9 DUP9 CALL SWAP4 POP POP POP POP ISZERO DUP1 ISZERO PUSH2 0x18C2 JUMPI RETURNDATASIZE PUSH0 DUP1 RETURNDATACOPY RETURNDATASIZE PUSH0 REVERT JUMPDEST POP PUSH1 0x1 DUP2 PUSH1 0x8 ADD PUSH1 0x1 PUSH2 0x100 EXP DUP2 SLOAD DUP2 PUSH1 0xFF MUL NOT AND SWAP1 DUP4 ISZERO ISZERO MUL OR SWAP1 SSTORE POP POP POP JUMP JUMPDEST PUSH1 0x2 PUSH0 SWAP1 SLOAD SWAP1 PUSH2 0x100 EXP SWAP1 DIV PUSH20 0xFFFFFFFFFFFFFFFFFFFFFFFFFFFFFFFFFFFFFFFF AND PUSH20 0xFFFFFFFFFFFFFFFFFFFFFFFFFFFFFFFFFFFFFFFF AND CALLER PUSH20 0xFFFFFFFFFFFFFFFFFFFFFFFFFFFFFFFFFFFFFFFF AND EQ PUSH2 0x193C JUMPI PUSH0 DUP1 REVERT JUMPDEST PUSH0 DUP2 MLOAD GT PUSH2 0x1948 JUMPI PUSH0 DUP1 REVERT JUMPDEST PUSH1 0x1 PUSH1 0x9 PUSH0 PUSH2 0x100 EXP DUP2 SLOAD DUP2 PUSH1 0xFF MUL NOT AND SWAP1 DUP4 ISZERO ISZERO MUL OR SWAP1 SSTORE POP DUP1 PUSH1 0xA SWAP1 DUP2 PUSH2 0x1971 SWAP2 SWAP1 PUSH2 0x28B8 JUMP JUMPDEST POP POP JUMP JUMPDEST PUSH0 PUSH1 0x3 PUSH0 CALLER PUSH20 0xFFFFFFFFFFFFFFFFFFFFFFFFFFFFFFFFFFFFFFFF AND PUSH20 0xFFFFFFFFFFFFFFFFFFFFFFFFFFFFFFFFFFFFFFFF AND DUP2 MSTORE PUSH1 0x20 ADD SWAP1 DUP2 MSTORE PUSH1 0x20 ADD PUSH0 KECCAK256 SLOAD SUB PUSH2 0x19BD JUMPI PUSH0 DUP1 REVERT JUMPDEST PUSH1 0x9 PUSH0 SWAP1 SLOAD SWAP1 PUSH2 0x100 EXP SWAP1 DIV PUSH1 0xFF AND ISZERO PUSH2 0x19D5 JUMPI PUSH0 DUP1 REVERT JUMPDEST PUSH0 PUSH1 0x3 PUSH0 CALLER PUSH20 0xFFFFFFFFFFFFFFFFFFFFFFFFFFFFFFFFFFFFFFFF AND PUSH20 0xFFFFFFFFFFFFFFFFFFFFFFFFFFFFFFFFFFFFFFFF AND DUP2 MSTORE PUSH1 0x20 ADD SWAP1 DUP2 MSTORE PUSH1 0x20 ADD PUSH0 KECCAK256 SLOAD GT PUSH2 0x1A1D JUMPI PUSH0 DUP1 REVERT JUMPDEST PUSH0 PUSH1 0x7 DUP4 PUSH1 0x40 MLOAD PUSH2 0x1A2E SWAP2 SWAP1 PUSH2 0x2691 JUMP JUMPDEST SWAP1 DUP2 MSTORE PUSH1 0x20 ADD PUSH1 0x40 MLOAD DUP1 SWAP2 SUB SWAP1 KECCAK256 PUSH0 ADD DUP1 SLOAD PUSH2 0x1A49 SWAP1 PUSH2 0x2627 JUMP JUMPDEST SWAP1 POP SUB PUSH2 0x1A54 JUMPI PUSH0 DUP1 REVERT JUMPDEST PUSH1 0x7 DUP3 PUSH1 0x40 MLOAD PUSH2 0x1A64 SWAP2 SWAP1 PUSH2 0x2691 JUMP JUMPDEST SWAP1 DUP2 MSTORE PUSH1 0x20 ADD PUSH1 0x40 MLOAD DUP1 SWAP2 SUB SWAP1 KECCAK256 PUSH1 0x8 ADD PUSH1 0x2 SWAP1 SLOAD SWAP1 PUSH2 0x100 EXP SWAP1 DIV PUSH1 0xFF AND ISZERO DUP1 ISZERO PUSH2 0x1ABC JUMPI POP PUSH1 0x7 DUP3 PUSH1 0x40 MLOAD PUSH2 0x1A9B SWAP2 SWAP1 PUSH2 0x2691 JUMP JUMPDEST SWAP1 DUP2 MSTORE PUSH1 0x20 ADD PUSH1 0x40 MLOAD DUP1 SWAP2 SUB SWAP1 KECCAK256 PUSH1 0x8 ADD PUSH1 0x1 SWAP1 SLOAD SWAP1 PUSH2 0x100 EXP SWAP1 DIV PUSH1 0xFF AND ISZERO JUMPDEST PUSH2 0x1AC4 JUMPI PUSH0 DUP1 REVERT JUMPDEST PUSH0 PUSH1 0x40 MLOAD DUP1 PUSH1 0x40 ADD PUSH1 0x40 MSTORE DUP1 CALLER PUSH20 0xFFFFFFFFFFFFFFFFFFFFFFFFFFFFFFFFFFFFFFFF AND DUP2 MSTORE PUSH1 0x20 ADD DUP4 DUP2 MSTORE POP SWAP1 POP PUSH1 0x7 DUP4 PUSH1 0x40 MLOAD PUSH2 0x1B02 SWAP2 SWAP1 PUSH2 0x2691 JUMP JUMPDEST SWAP1 DUP2 MSTORE PUSH1 0x20 ADD PUSH1 0x40 MLOAD DUP1 SWAP2 SUB SWAP1 KECCAK256 PUSH1 0xB ADD DUP2 SWAP1 DUP1 PUSH1 0x1 DUP2 SLOAD ADD DUP1 DUP3 SSTORE DUP1 SWAP2 POP POP PUSH1 0x1 SWAP1 SUB SWAP1 PUSH0 MSTORE PUSH1 0x20 PUSH0 KECCAK256 SWAP1 PUSH1 0x2 MUL ADD PUSH0 SWAP1 SWAP2 SWAP1 SWAP2 SWAP1 SWAP2 POP PUSH0 DUP3 ADD MLOAD DUP2 PUSH0 ADD PUSH0 PUSH2 0x100 EXP DUP2 SLOAD DUP2 PUSH20 0xFFFFFFFFFFFFFFFFFFFFFFFFFFFFFFFFFFFFFFFF MUL NOT AND SWAP1 DUP4 PUSH20 0xFFFFFFFFFFFFFFFFFFFFFFFFFFFFFFFFFFFFFFFF AND MUL OR SWAP1 SSTORE POP PUSH1 0x20 DUP3 ADD MLOAD DUP2 PUSH1 0x1 ADD SWAP1 DUP2 PUSH2 0x1B93 SWAP2 SWAP1 PUSH2 0x28B8 JUMP JUMPDEST POP POP POP PUSH1 0x7 DUP4 PUSH1 0x40 MLOAD PUSH2 0x1BA6 SWAP2 SWAP1 PUSH2 0x2691 JUMP JUMPDEST SWAP1 DUP2 MSTORE PUSH1 0x20 ADD PUSH1 0x40 MLOAD DUP1 SWAP2 SUB SWAP1 KECCAK256 PUSH1 0x7 ADD PUSH0 DUP2 SLOAD DUP1 SWAP3 SWAP2 SWAP1 PUSH2 0x1BC7 SWAP1 PUSH2 0x26D4 JUMP JUMPDEST SWAP2 SWAP1 POP SSTORE POP POP POP POP JUMP JUMPDEST PUSH0 PUSH1 0x5 SLOAD SWAP1 POP SWAP1 JUMP JUMPDEST PUSH0 PUSH1 0x4 SLOAD SWAP1 POP SWAP1 JUMP JUMPDEST PUSH1 0x40 MLOAD DUP1 PUSH2 0x120 ADD PUSH1 0x40 MSTORE DUP1 PUSH0 PUSH20 0xFFFFFFFFFFFFFFFFFFFFFFFFFFFFFFFFFFFFFFFF AND DUP2 MSTORE PUSH1 0x20 ADD PUSH1 0x60 DUP2 MSTORE PUSH1 0x20 ADD PUSH1 0x60 DUP2 MSTORE PUSH1 0x20 ADD PUSH0 DUP2 MSTORE PUSH1 0x20 ADD PUSH0 DUP2 MSTORE PUSH1 0x20 ADD PUSH0 DUP2 MSTORE PUSH1 0x20 ADD PUSH0 DUP2 MSTORE PUSH1 0x20 ADD PUSH0 ISZERO ISZERO DUP2 MSTORE PUSH1 0x20 ADD PUSH1 0x60 DUP2 MSTORE POP SWAP1 JUMP JUMPDEST PUSH0 PUSH1 0x40 MLOAD SWAP1 POP SWAP1 JUMP JUMPDEST PUSH0 DUP1 REVERT JUMPDEST PUSH0 DUP1 REVERT JUMPDEST PUSH0 PUSH20 0xFFFFFFFFFFFFFFFFFFFFFFFFFFFFFFFFFFFFFFFF DUP3 AND SWAP1 POP SWAP2 SWAP1 POP JUMP JUMPDEST PUSH0 PUSH2 0x1C7B DUP3 PUSH2 0x1C52 JUMP JUMPDEST SWAP1 POP SWAP2 SWAP1 POP JUMP JUMPDEST PUSH2 0x1C8B DUP2 PUSH2 0x1C71 JUMP JUMPDEST DUP2 EQ PUSH2 0x1C95 JUMPI PUSH0 DUP1 REVERT JUMPDEST POP JUMP JUMPDEST PUSH0 DUP2 CALLDATALOAD SWAP1 POP PUSH2 0x1CA6 DUP2 PUSH2 0x1C82 JUMP JUMPDEST SWAP3 SWAP2 POP POP JUMP JUMPDEST PUSH0 PUSH1 0x20 DUP3 DUP5 SUB SLT ISZERO PUSH2 0x1CC1 JUMPI PUSH2 0x1CC0 PUSH2 0x1C4A JUMP JUMPDEST JUMPDEST PUSH0 PUSH2 0x1CCE DUP5 DUP3 DUP6 ADD PUSH2 0x1C98 JUMP JUMPDEST SWAP2 POP POP SWAP3 SWAP2 POP POP JUMP JUMPDEST PUSH0 DUP2 SWAP1 POP SWAP2 SWAP1 POP JUMP JUMPDEST PUSH2 0x1CE9 DUP2 PUSH2 0x1CD7 JUMP JUMPDEST DUP3 MSTORE POP POP JUMP JUMPDEST PUSH0 PUSH1 0x20 DUP3 ADD SWAP1 POP PUSH2 0x1D02 PUSH0 DUP4 ADD DUP5 PUSH2 0x1CE0 JUMP JUMPDEST SWAP3 SWAP2 POP POP JUMP JUMPDEST PUSH0 DUP2 MLOAD SWAP1 POP SWAP2 SWAP1 POP JUMP JUMPDEST PUSH0 DUP3 DUP3 MSTORE PUSH1 0x20 DUP3 ADD SWAP1 POP SWAP3 SWAP2 POP POP JUMP JUMPDEST PUSH0 JUMPDEST DUP4 DUP2 LT ISZERO PUSH2 0x1D3F JUMPI DUP1 DUP3 ADD MLOAD DUP2 DUP5 ADD MSTORE PUSH1 0x20 DUP2 ADD SWAP1 POP PUSH2 0x1D24 JUMP JUMPDEST PUSH0 DUP5 DUP5 ADD MSTORE POP POP POP POP JUMP JUMPDEST PUSH0 PUSH1 0x1F NOT PUSH1 0x1F DUP4 ADD AND SWAP1 POP SWAP2 SWAP1 POP JUMP JUMPDEST PUSH0 PUSH2 0x1D64 DUP3 PUSH2 0x1D08 JUMP JUMPDEST PUSH2 0x1D6E DUP2 DUP6 PUSH2 0x1D12 JUMP JUMPDEST SWAP4 POP PUSH2 0x1D7E DUP2 DUP6 PUSH1 0x20 DUP7 ADD PUSH2 0x1D22 JUMP JUMPDEST PUSH2 0x1D87 DUP2 PUSH2 0x1D4A JUMP JUMPDEST DUP5 ADD SWAP2 POP POP SWAP3 SWAP2 POP POP JUMP JUMPDEST PUSH0 PUSH1 0x20 DUP3 ADD SWAP1 POP DUP2 DUP2 SUB PUSH0 DUP4 ADD MSTORE PUSH2 0x1DAA DUP2 DUP5 PUSH2 0x1D5A JUMP JUMPDEST SWAP1 POP SWAP3 SWAP2 POP POP JUMP JUMPDEST PUSH0 DUP1 REVERT JUMPDEST PUSH0 DUP1 REVERT JUMPDEST PUSH32 0x4E487B7100000000000000000000000000000000000000000000000000000000 PUSH0 MSTORE PUSH1 0x41 PUSH1 0x4 MSTORE PUSH1 0x24 PUSH0 REVERT JUMPDEST PUSH2 0x1DF0 DUP3 PUSH2 0x1D4A JUMP JUMPDEST DUP2 ADD DUP2 DUP2 LT PUSH8 0xFFFFFFFFFFFFFFFF DUP3 GT OR ISZERO PUSH2 0x1E0F JUMPI PUSH2 0x1E0E PUSH2 0x1DBA JUMP JUMPDEST JUMPDEST DUP1 PUSH1 0x40 MSTORE POP POP POP JUMP JUMPDEST PUSH0 PUSH2 0x1E21 PUSH2 0x1C41 JUMP JUMPDEST SWAP1 POP PUSH2 0x1E2D DUP3 DUP3 PUSH2 0x1DE7 JUMP JUMPDEST SWAP2 SWAP1 POP JUMP JUMPDEST PUSH0 PUSH8 0xFFFFFFFFFFFFFFFF DUP3 GT ISZERO PUSH2 0x1E4C JUMPI PUSH2 0x1E4B PUSH2 0x1DBA JUMP JUMPDEST JUMPDEST PUSH2 0x1E55 DUP3 PUSH2 0x1D4A JUMP JUMPDEST SWAP1 POP PUSH1 0x20 DUP2 ADD SWAP1 POP SWAP2 SWAP1 POP JUMP JUMPDEST DUP3 DUP2 DUP4 CALLDATACOPY PUSH0 DUP4 DUP4 ADD MSTORE POP POP POP JUMP JUMPDEST PUSH0 PUSH2 0x1E82 PUSH2 0x1E7D DUP5 PUSH2 0x1E32 JUMP JUMPDEST PUSH2 0x1E18 JUMP JUMPDEST SWAP1 POP DUP3 DUP2 MSTORE PUSH1 0x20 DUP2 ADD DUP5 DUP5 DUP5 ADD GT ISZERO PUSH2 0x1E9E JUMPI PUSH2 0x1E9D PUSH2 0x1DB6 JUMP JUMPDEST JUMPDEST PUSH2 0x1EA9 DUP5 DUP3 DUP6 PUSH2 0x1E62 JUMP JUMPDEST POP SWAP4 SWAP3 POP POP POP JUMP JUMPDEST PUSH0 DUP3 PUSH1 0x1F DUP4 ADD SLT PUSH2 0x1EC5 JUMPI PUSH2 0x1EC4 PUSH2 0x1DB2 JUMP JUMPDEST JUMPDEST DUP2 CALLDATALOAD PUSH2 0x1ED5 DUP5 DUP3 PUSH1 0x20 DUP7 ADD PUSH2 0x1E70 JUMP JUMPDEST SWAP2 POP POP SWAP3 SWAP2 POP POP JUMP JUMPDEST PUSH0 DUP2 ISZERO ISZERO SWAP1 POP SWAP2 SWAP1 POP JUMP JUMPDEST PUSH2 0x1EF2 DUP2 PUSH2 0x1EDE JUMP JUMPDEST DUP2 EQ PUSH2 0x1EFC JUMPI PUSH0 DUP1 REVERT JUMPDEST POP JUMP JUMPDEST PUSH0 DUP2 CALLDATALOAD SWAP1 POP PUSH2 0x1F0D DUP2 PUSH2 0x1EE9 JUMP JUMPDEST SWAP3 SWAP2 POP POP JUMP JUMPDEST PUSH0 DUP1 PUSH1 0x40 DUP4 DUP6 SUB SLT ISZERO PUSH2 0x1F29 JUMPI PUSH2 0x1F28 PUSH2 0x1C4A JUMP JUMPDEST JUMPDEST PUSH0 DUP4 ADD CALLDATALOAD PUSH8 0xFFFFFFFFFFFFFFFF DUP2 GT ISZERO PUSH2 0x1F46 JUMPI PUSH2 0x1F45 PUSH2 0x1C4E JUMP JUMPDEST JUMPDEST PUSH2 0x1F52 DUP6 DUP3 DUP7 ADD PUSH2 0x1EB1 JUMP JUMPDEST SWAP3 POP POP PUSH1 0x20 PUSH2 0x1F63 DUP6 DUP3 DUP7 ADD PUSH2 0x1EFF JUMP JUMPDEST SWAP2 POP POP SWAP3 POP SWAP3 SWAP1 POP JUMP JUMPDEST PUSH2 0x1F76 DUP2 PUSH2 0x1C71 JUMP JUMPDEST DUP3 MSTORE POP POP JUMP JUMPDEST PUSH0 DUP3 DUP3 MSTORE PUSH1 0x20 DUP3 ADD SWAP1 POP SWAP3 SWAP2 POP POP JUMP JUMPDEST PUSH0 PUSH2 0x1F96 DUP3 PUSH2 0x1D08 JUMP JUMPDEST PUSH2 0x1FA0 DUP2 DUP6 PUSH2 0x1F7C JUMP JUMPDEST SWAP4 POP PUSH2 0x1FB0 DUP2 DUP6 PUSH1 0x20 DUP7 ADD PUSH2 0x1D22 JUMP JUMPDEST PUSH2 0x1FB9 DUP2 PUSH2 0x1D4A JUMP JUMPDEST DUP5 ADD SWAP2 POP POP SWAP3 SWAP2 POP POP JUMP JUMPDEST PUSH2 0x1FCD DUP2 PUSH2 0x1CD7 JUMP JUMPDEST DUP3 MSTORE POP POP JUMP JUMPDEST PUSH2 0x1FDC DUP2 PUSH2 0x1EDE JUMP JUMPDEST DUP3 MSTORE POP POP JUMP JUMPDEST PUSH0 PUSH2 0x120 DUP4 ADD PUSH0 DUP4 ADD MLOAD PUSH2 0x1FF8 PUSH0 DUP7 ADD DUP3 PUSH2 0x1F6D JUMP JUMPDEST POP PUSH1 0x20 DUP4 ADD MLOAD DUP5 DUP3 SUB PUSH1 0x20 DUP7 ADD MSTORE PUSH2 0x2010 DUP3 DUP3 PUSH2 0x1F8C JUMP JUMPDEST SWAP2 POP POP PUSH1 0x40 DUP4 ADD MLOAD DUP5 DUP3 SUB PUSH1 0x40 DUP7 ADD MSTORE PUSH2 0x202A DUP3 DUP3 PUSH2 0x1F8C JUMP JUMPDEST SWAP2 POP POP PUSH1 0x60 DUP4 ADD MLOAD PUSH2 0x203F PUSH1 0x60 DUP7 ADD DUP3 PUSH2 0x1FC4 JUMP JUMPDEST POP PUSH1 0x80 DUP4 ADD MLOAD PUSH2 0x2052 PUSH1 0x80 DUP7 ADD DUP3 PUSH2 0x1FC4 JUMP JUMPDEST POP PUSH1 0xA0 DUP4 ADD MLOAD PUSH2 0x2065 PUSH1 0xA0 DUP7 ADD DUP3 PUSH2 0x1FC4 JUMP JUMPDEST POP PUSH1 0xC0 DUP4 ADD MLOAD PUSH2 0x2078 PUSH1 0xC0 DUP7 ADD DUP3 PUSH2 0x1FC4 JUMP JUMPDEST POP PUSH1 0xE0 DUP4 ADD MLOAD PUSH2 0x208B PUSH1 0xE0 DUP7 ADD DUP3 PUSH2 0x1FD3 JUMP JUMPDEST POP PUSH2 0x100 DUP4 ADD MLOAD DUP5 DUP3 SUB PUSH2 0x100 DUP7 ADD MSTORE PUSH2 0x20A5 DUP3 DUP3 PUSH2 0x1F8C JUMP JUMPDEST SWAP2 POP POP DUP1 SWAP2 POP POP SWAP3 SWAP2 POP POP JUMP JUMPDEST PUSH0 PUSH1 0x20 DUP3 ADD SWAP1 POP DUP2 DUP2 SUB PUSH0 DUP4 ADD MSTORE PUSH2 0x20CA DUP2 DUP5 PUSH2 0x1FE2 JUMP JUMPDEST SWAP1 POP SWAP3 SWAP2 POP POP JUMP JUMPDEST PUSH0 PUSH1 0x20 DUP3 DUP5 SUB SLT ISZERO PUSH2 0x20E7 JUMPI PUSH2 0x20E6 PUSH2 0x1C4A JUMP JUMPDEST JUMPDEST PUSH0 DUP3 ADD CALLDATALOAD PUSH8 0xFFFFFFFFFFFFFFFF DUP2 GT ISZERO PUSH2 0x2104 JUMPI PUSH2 0x2103 PUSH2 0x1C4E JUMP JUMPDEST JUMPDEST PUSH2 0x2110 DUP5 DUP3 DUP6 ADD PUSH2 0x1EB1 JUMP JUMPDEST SWAP2 POP POP SWAP3 SWAP2 POP POP JUMP JUMPDEST PUSH0 PUSH2 0x2123 DUP3 PUSH2 0x1C52 JUMP JUMPDEST SWAP1 POP SWAP2 SWAP1 POP JUMP JUMPDEST PUSH2 0x2133 DUP2 PUSH2 0x2119 JUMP JUMPDEST DUP3 MSTORE POP POP JUMP JUMPDEST PUSH2 0x2142 DUP2 PUSH2 0x1EDE JUMP JUMPDEST DUP3 MSTORE POP POP JUMP JUMPDEST PUSH0 PUSH2 0x180 DUP3 ADD SWAP1 POP DUP2 DUP2 SUB PUSH0 DUP4 ADD MSTORE PUSH2 0x2161 DUP2 DUP16 PUSH2 0x1D5A JUMP JUMPDEST SWAP1 POP DUP2 DUP2 SUB PUSH1 0x20 DUP4 ADD MSTORE PUSH2 0x2175 DUP2 DUP15 PUSH2 0x1D5A JUMP JUMPDEST SWAP1 POP PUSH2 0x2184 PUSH1 0x40 DUP4 ADD DUP14 PUSH2 0x1CE0 JUMP JUMPDEST PUSH2 0x2191 PUSH1 0x60 DUP4 ADD DUP13 PUSH2 0x212A JUMP JUMPDEST PUSH2 0x219E PUSH1 0x80 DUP4 ADD DUP12 PUSH2 0x1CE0 JUMP JUMPDEST PUSH2 0x21AB PUSH1 0xA0 DUP4 ADD DUP11 PUSH2 0x1CE0 JUMP JUMPDEST PUSH2 0x21B8 PUSH1 0xC0 DUP4 ADD DUP10 PUSH2 0x1CE0 JUMP JUMPDEST PUSH2 0x21C5 PUSH1 0xE0 DUP4 ADD DUP9 PUSH2 0x1CE0 JUMP JUMPDEST PUSH2 0x21D3 PUSH2 0x100 DUP4 ADD DUP8 PUSH2 0x2139 JUMP JUMPDEST PUSH2 0x21E1 PUSH2 0x120 DUP4 ADD DUP7 PUSH2 0x2139 JUMP JUMPDEST PUSH2 0x21EF PUSH2 0x140 DUP4 ADD DUP6 PUSH2 0x2139 JUMP JUMPDEST DUP2 DUP2 SUB PUSH2 0x160 DUP4 ADD MSTORE PUSH2 0x2202 DUP2 DUP5 PUSH2 0x1D5A JUMP JUMPDEST SWAP1 POP SWAP14 SWAP13 POP POP POP POP POP POP POP POP POP POP POP POP POP JUMP JUMPDEST PUSH0 DUP1 PUSH1 0x40 DUP4 DUP6 SUB SLT ISZERO PUSH2 0x222B JUMPI PUSH2 0x222A PUSH2 0x1C4A JUMP JUMPDEST JUMPDEST PUSH0 DUP4 ADD CALLDATALOAD PUSH8 0xFFFFFFFFFFFFFFFF DUP2 GT ISZERO PUSH2 0x2248 JUMPI PUSH2 0x2247 PUSH2 0x1C4E JUMP JUMPDEST JUMPDEST PUSH2 0x2254 DUP6 DUP3 DUP7 ADD PUSH2 0x1EB1 JUMP JUMPDEST SWAP3 POP POP PUSH1 0x20 DUP4 ADD CALLDATALOAD PUSH8 0xFFFFFFFFFFFFFFFF DUP2 GT ISZERO PUSH2 0x2275 JUMPI PUSH2 0x2274 PUSH2 0x1C4E JUMP JUMPDEST JUMPDEST PUSH2 0x2281 DUP6 DUP3 DUP7 ADD PUSH2 0x1EB1 JUMP JUMPDEST SWAP2 POP POP SWAP3 POP SWAP3 SWAP1 POP JUMP JUMPDEST PUSH0 DUP2 MLOAD SWAP1 POP SWAP2 SWAP1 POP JUMP JUMPDEST PUSH0 DUP3 DUP3 MSTORE PUSH1 0x20 DUP3 ADD SWAP1 POP SWAP3 SWAP2 POP POP JUMP JUMPDEST PUSH0 DUP2 SWAP1 POP PUSH1 0x20 DUP3 ADD SWAP1 POP SWAP2 SWAP1 POP JUMP JUMPDEST PUSH0 PUSH1 0x40 DUP4 ADD PUSH0 DUP4 ADD MLOAD PUSH2 0x22C9 PUSH0 DUP7 ADD DUP3 PUSH2 0x1F6D JUMP JUMPDEST POP PUSH1 0x20 DUP4 ADD MLOAD DUP5 DUP3 SUB PUSH1 0x20 DUP7 ADD MSTORE PUSH2 0x22E1 DUP3 DUP3 PUSH2 0x1F8C JUMP JUMPDEST SWAP2 POP POP DUP1 SWAP2 POP POP SWAP3 SWAP2 POP POP JUMP JUMPDEST PUSH0 PUSH2 0x22F9 DUP4 DUP4 PUSH2 0x22B4 JUMP JUMPDEST SWAP1 POP SWAP3 SWAP2 POP POP JUMP JUMPDEST PUSH0 PUSH1 0x20 DUP3 ADD SWAP1 POP SWAP2 SWAP1 POP JUMP JUMPDEST PUSH0 PUSH2 0x2317 DUP3 PUSH2 0x228B JUMP JUMPDEST PUSH2 0x2321 DUP2 DUP6 PUSH2 0x2295 JUMP JUMPDEST SWAP4 POP DUP4 PUSH1 0x20 DUP3 MUL DUP6 ADD PUSH2 0x2333 DUP6 PUSH2 0x22A5 JUMP JUMPDEST DUP1 PUSH0 JUMPDEST DUP6 DUP2 LT ISZERO PUSH2 0x236E JUMPI DUP5 DUP5 SUB DUP10 MSTORE DUP2 MLOAD PUSH2 0x234F DUP6 DUP3 PUSH2 0x22EE JUMP JUMPDEST SWAP5 POP PUSH2 0x235A DUP4 PUSH2 0x2301 JUMP JUMPDEST SWAP3 POP PUSH1 0x20 DUP11 ADD SWAP10 POP POP PUSH1 0x1 DUP2 ADD SWAP1 POP PUSH2 0x2336 JUMP JUMPDEST POP DUP3 SWAP8 POP DUP8 SWAP6 POP POP POP POP POP POP SWAP3 SWAP2 POP POP JUMP JUMPDEST PUSH0 PUSH1 0x20 DUP3 ADD SWAP1 POP DUP2 DUP2 SUB PUSH0 DUP4 ADD MSTORE PUSH2 0x2398 DUP2 DUP5 PUSH2 0x230D JUMP JUMPDEST SWAP1 POP SWAP3 SWAP2 POP POP JUMP JUMPDEST PUSH0 DUP2 MLOAD SWAP1 POP SWAP2 SWAP1 POP JUMP JUMPDEST PUSH0 DUP3 DUP3 MSTORE PUSH1 0x20 DUP3 ADD SWAP1 POP SWAP3 SWAP2 POP POP JUMP JUMPDEST PUSH0 DUP2 SWAP1 POP PUSH1 0x20 DUP3 ADD SWAP1 POP SWAP2 SWAP1 POP JUMP JUMPDEST PUSH0 PUSH1 0x60 DUP4 ADD PUSH0 DUP4 ADD MLOAD DUP5 DUP3 SUB PUSH0 DUP7 ADD MSTORE PUSH2 0x23E3 DUP3 DUP3 PUSH2 0x1F8C JUMP JUMPDEST SWAP2 POP POP PUSH1 0x20 DUP4 ADD MLOAD DUP5 DUP3 SUB PUSH1 0x20 DUP7 ADD MSTORE PUSH2 0x23FD DUP3 DUP3 PUSH2 0x1F8C JUMP JUMPDEST SWAP2 POP POP PUSH1 0x40 DUP4 ADD MLOAD PUSH2 0x2412 PUSH1 0x40 DUP7 ADD DUP3 PUSH2 0x1FC4 JUMP JUMPDEST POP DUP1 SWAP2 POP POP SWAP3 SWAP2 POP POP JUMP JUMPDEST PUSH0 PUSH2 0x2428 DUP4 DUP4 PUSH2 0x23C9 JUMP JUMPDEST SWAP1 POP SWAP3 SWAP2 POP POP JUMP JUMPDEST PUSH0 PUSH1 0x20 DUP3 ADD SWAP1 POP SWAP2 SWAP1 POP JUMP JUMPDEST PUSH0 PUSH2 0x2446 DUP3 PUSH2 0x23A0 JUMP JUMPDEST PUSH2 0x2450 DUP2 DUP6 PUSH2 0x23AA JUMP JUMPDEST SWAP4 POP DUP4 PUSH1 0x20 DUP3 MUL DUP6 ADD PUSH2 0x2462 DUP6 PUSH2 0x23BA JUMP JUMPDEST DUP1 PUSH0 JUMPDEST DUP6 DUP2 LT ISZERO PUSH2 0x249D JUMPI DUP5 DUP5 SUB DUP10 MSTORE DUP2 MLOAD PUSH2 0x247E DUP6 DUP3 PUSH2 0x241D JUMP JUMPDEST SWAP5 POP PUSH2 0x2489 DUP4 PUSH2 0x2430 JUMP JUMPDEST SWAP3 POP PUSH1 0x20 DUP11 ADD SWAP10 POP POP PUSH1 0x1 DUP2 ADD SWAP1 POP PUSH2 0x2465 JUMP JUMPDEST POP DUP3 SWAP8 POP DUP8 SWAP6 POP POP POP POP POP POP SWAP3 SWAP2 POP POP JUMP JUMPDEST PUSH0 PUSH1 0x20 DUP3 ADD SWAP1 POP DUP2 DUP2 SUB PUSH0 DUP4 ADD MSTORE PUSH2 0x24C7 DUP2 DUP5 PUSH2 0x243C JUMP JUMPDEST SWAP1 POP SWAP3 SWAP2 POP POP JUMP JUMPDEST PUSH2 0x24D8 DUP2 PUSH2 0x1CD7 JUMP JUMPDEST DUP2 EQ PUSH2 0x24E2 JUMPI PUSH0 DUP1 REVERT JUMPDEST POP JUMP JUMPDEST PUSH0 DUP2 CALLDATALOAD SWAP1 POP PUSH2 0x24F3 DUP2 PUSH2 0x24CF JUMP JUMPDEST SWAP3 SWAP2 POP POP JUMP JUMPDEST PUSH2 0x2502 DUP2 PUSH2 0x2119 JUMP JUMPDEST DUP2 EQ PUSH2 0x250C JUMPI PUSH0 DUP1 REVERT JUMPDEST POP JUMP JUMPDEST PUSH0 DUP2 CALLDATALOAD SWAP1 POP PUSH2 0x251D DUP2 PUSH2 0x24F9 JUMP JUMPDEST SWAP3 SWAP2 POP POP JUMP JUMPDEST PUSH0 DUP1 PUSH0 DUP1 PUSH0 PUSH1 0xA0 DUP7 DUP9 SUB SLT ISZERO PUSH2 0x253C JUMPI PUSH2 0x253B PUSH2 0x1C4A JUMP JUMPDEST JUMPDEST PUSH0 DUP7 ADD CALLDATALOAD PUSH8 0xFFFFFFFFFFFFFFFF DUP2 GT ISZERO PUSH2 0x2559 JUMPI PUSH2 0x2558 PUSH2 0x1C4E JUMP JUMPDEST JUMPDEST PUSH2 0x2565 DUP9 DUP3 DUP10 ADD PUSH2 0x1EB1 JUMP JUMPDEST SWAP6 POP POP PUSH1 0x20 DUP7 ADD CALLDATALOAD PUSH8 0xFFFFFFFFFFFFFFFF DUP2 GT ISZERO PUSH2 0x2586 JUMPI PUSH2 0x2585 PUSH2 0x1C4E JUMP JUMPDEST JUMPDEST PUSH2 0x2592 DUP9 DUP3 DUP10 ADD PUSH2 0x1EB1 JUMP JUMPDEST SWAP5 POP POP PUSH1 0x40 PUSH2 0x25A3 DUP9 DUP3 DUP10 ADD PUSH2 0x24E5 JUMP JUMPDEST SWAP4 POP POP PUSH1 0x60 PUSH2 0x25B4 DUP9 DUP3 DUP10 ADD PUSH2 0x24E5 JUMP JUMPDEST SWAP3 POP POP PUSH1 0x80 PUSH2 0x25C5 DUP9 DUP3 DUP10 ADD PUSH2 0x250F JUMP JUMPDEST SWAP2 POP POP SWAP3 SWAP6 POP SWAP3 SWAP6 SWAP1 SWAP4 POP JUMP JUMPDEST PUSH2 0x25DB DUP2 PUSH2 0x1C71 JUMP JUMPDEST DUP3 MSTORE POP POP JUMP JUMPDEST PUSH0 PUSH1 0x20 DUP3 ADD SWAP1 POP PUSH2 0x25F4 PUSH0 DUP4 ADD DUP5 PUSH2 0x25D2 JUMP JUMPDEST SWAP3 SWAP2 POP POP JUMP JUMPDEST PUSH32 0x4E487B7100000000000000000000000000000000000000000000000000000000 PUSH0 MSTORE PUSH1 0x22 PUSH1 0x4 MSTORE PUSH1 0x24 PUSH0 REVERT JUMPDEST PUSH0 PUSH1 0x2 DUP3 DIV SWAP1 POP PUSH1 0x1 DUP3 AND DUP1 PUSH2 0x263E JUMPI PUSH1 0x7F DUP3 AND SWAP2 POP JUMPDEST PUSH1 0x20 DUP3 LT DUP2 SUB PUSH2 0x2651 JUMPI PUSH2 0x2650 PUSH2 0x25FA JUMP JUMPDEST JUMPDEST POP SWAP2 SWAP1 POP JUMP JUMPDEST PUSH0 DUP2 SWAP1 POP SWAP3 SWAP2 POP POP JUMP JUMPDEST PUSH0 PUSH2 0x266B DUP3 PUSH2 0x1D08 JUMP JUMPDEST PUSH2 0x2675 DUP2 DUP6 PUSH2 0x2657 JUMP JUMPDEST SWAP4 POP PUSH2 0x2685 DUP2 DUP6 PUSH1 0x20 DUP7 ADD PUSH2 0x1D22 JUMP JUMPDEST DUP1 DUP5 ADD SWAP2 POP POP SWAP3 SWAP2 POP POP JUMP JUMPDEST PUSH0 PUSH2 0x269C DUP3 DUP5 PUSH2 0x2661 JUMP JUMPDEST SWAP2 POP DUP2 SWAP1 POP SWAP3 SWAP2 POP POP JUMP JUMPDEST PUSH32 0x4E487B7100000000000000000000000000000000000000000000000000000000 PUSH0 MSTORE PUSH1 0x11 PUSH1 0x4 MSTORE PUSH1 0x24 PUSH0 REVERT JUMPDEST PUSH0 PUSH2 0x26DE DUP3 PUSH2 0x1CD7 JUMP JUMPDEST SWAP2 POP PUSH32 0xFFFFFFFFFFFFFFFFFFFFFFFFFFFFFFFFFFFFFFFFFFFFFFFFFFFFFFFFFFFFFFFF DUP3 SUB PUSH2 0x2710 JUMPI PUSH2 0x270F PUSH2 0x26A7 JUMP JUMPDEST JUMPDEST PUSH1 0x1 DUP3 ADD SWAP1 POP SWAP2 SWAP1 POP JUMP JUMPDEST PUSH0 DUP2 SWAP1 POP DUP2 PUSH0 MSTORE PUSH1 0x20 PUSH0 KECCAK256 SWAP1 POP SWAP2 SWAP1 POP JUMP JUMPDEST PUSH0 PUSH1 0x20 PUSH1 0x1F DUP4 ADD DIV SWAP1 POP SWAP2 SWAP1 POP JUMP JUMPDEST PUSH0 DUP3 DUP3 SHL SWAP1 POP SWAP3 SWAP2 POP POP JUMP JUMPDEST PUSH0 PUSH1 0x8 DUP4 MUL PUSH2 0x2777 PUSH32 0xFFFFFFFFFFFFFFFFFFFFFFFFFFFFFFFFFFFFFFFFFFFFFFFFFFFFFFFFFFFFFFFF DUP3 PUSH2 0x273C JUMP JUMPDEST PUSH2 0x2781 DUP7 DUP4 PUSH2 0x273C JUMP JUMPDEST SWAP6 POP DUP1 NOT DUP5 AND SWAP4 POP DUP1 DUP7 AND DUP5 OR SWAP3 POP POP POP SWAP4 SWAP3 POP POP POP JUMP JUMPDEST PUSH0 DUP2 SWAP1 POP SWAP2 SWAP1 POP JUMP JUMPDEST PUSH0 PUSH2 0x27BC PUSH2 0x27B7 PUSH2 0x27B2 DUP5 PUSH2 0x1CD7 JUMP JUMPDEST PUSH2 0x2799 JUMP JUMPDEST PUSH2 0x1CD7 JUMP JUMPDEST SWAP1 POP SWAP2 SWAP1 POP JUMP JUMPDEST PUSH0 DUP2 SWAP1 POP SWAP2 SWAP1 POP JUMP JUMPDEST PUSH2 0x27D5 DUP4 PUSH2 0x27A2 JUMP JUMPDEST PUSH2 0x27E9 PUSH2 0x27E1 DUP3 PUSH2 0x27C3 JUMP JUMPDEST DUP5 DUP5 SLOAD PUSH2 0x2748 JUMP JUMPDEST DUP3 SSTORE POP POP POP POP JUMP JUMPDEST PUSH0 SWAP1 JUMP JUMPDEST PUSH2 0x27FD PUSH2 0x27F1 JUMP JUMPDEST PUSH2 0x2808 DUP2 DUP5 DUP5 PUSH2 0x27CC JUMP JUMPDEST POP POP POP JUMP JUMPDEST JUMPDEST DUP2 DUP2 LT ISZERO PUSH2 0x282B JUMPI PUSH2 0x2820 PUSH0 DUP3 PUSH2 0x27F5 JUMP JUMPDEST PUSH1 0x1 DUP2 ADD SWAP1 POP PUSH2 0x280E JUMP JUMPDEST POP POP JUMP JUMPDEST PUSH1 0x1F DUP3 GT ISZERO PUSH2 0x2870 JUMPI PUSH2 0x2841 DUP2 PUSH2 0x271B JUMP JUMPDEST PUSH2 0x284A DUP5 PUSH2 0x272D JUMP JUMPDEST DUP2 ADD PUSH1 0x20 DUP6 LT ISZERO PUSH2 0x2859 JUMPI DUP2 SWAP1 POP JUMPDEST PUSH2 0x286D PUSH2 0x2865 DUP6 PUSH2 0x272D JUMP JUMPDEST DUP4 ADD DUP3 PUSH2 0x280D JUMP JUMPDEST POP POP JUMPDEST POP POP POP JUMP JUMPDEST PUSH0 DUP3 DUP3 SHR SWAP1 POP SWAP3 SWAP2 POP POP JUMP JUMPDEST PUSH0 PUSH2 0x2890 PUSH0 NOT DUP5 PUSH1 0x8 MUL PUSH2 0x2875 JUMP JUMPDEST NOT DUP1 DUP4 AND SWAP2 POP POP SWAP3 SWAP2 POP POP JUMP JUMPDEST PUSH0 PUSH2 0x28A8 DUP4 DUP4 PUSH2 0x2881 JUMP JUMPDEST SWAP2 POP DUP3 PUSH1 0x2 MUL DUP3 OR SWAP1 POP SWAP3 SWAP2 POP POP JUMP JUMPDEST PUSH2 0x28C1 DUP3 PUSH2 0x1D08 JUMP JUMPDEST PUSH8 0xFFFFFFFFFFFFFFFF DUP2 GT ISZERO PUSH2 0x28DA JUMPI PUSH2 0x28D9 PUSH2 0x1DBA JUMP JUMPDEST JUMPDEST PUSH2 0x28E4 DUP3 SLOAD PUSH2 0x2627 JUMP JUMPDEST PUSH2 0x28EF DUP3 DUP3 DUP6 PUSH2 0x282F JUMP JUMPDEST PUSH0 PUSH1 0x20 SWAP1 POP PUSH1 0x1F DUP4 GT PUSH1 0x1 DUP2 EQ PUSH2 0x2920 JUMPI PUSH0 DUP5 ISZERO PUSH2 0x290E JUMPI DUP3 DUP8 ADD MLOAD SWAP1 POP JUMPDEST PUSH2 0x2918 DUP6 DUP3 PUSH2 0x289D JUMP JUMPDEST DUP7 SSTORE POP PUSH2 0x297F JUMP JUMPDEST PUSH1 0x1F NOT DUP5 AND PUSH2 0x292E DUP7 PUSH2 0x271B JUMP JUMPDEST PUSH0 JUMPDEST DUP3 DUP2 LT ISZERO PUSH2 0x2955 JUMPI DUP5 DUP10 ADD MLOAD DUP3 SSTORE PUSH1 0x1 DUP3 ADD SWAP2 POP PUSH1 0x20 DUP6 ADD SWAP5 POP PUSH1 0x20 DUP2 ADD SWAP1 POP PUSH2 0x2930 JUMP JUMPDEST DUP7 DUP4 LT ISZERO PUSH2 0x2972 JUMPI DUP5 DUP10 ADD MLOAD PUSH2 0x296E PUSH1 0x1F DUP10 AND DUP3 PUSH2 0x2881 JUMP JUMPDEST DUP4 SSTORE POP JUMPDEST PUSH1 0x1 PUSH1 0x2 DUP9 MUL ADD DUP9 SSTORE POP POP POP JUMPDEST POP POP POP POP POP POP JUMP JUMPDEST PUSH0 PUSH2 0x2991 DUP3 PUSH2 0x1CD7 JUMP JUMPDEST SWAP2 POP PUSH0 DUP3 SUB PUSH2 0x29A3 JUMPI PUSH2 0x29A2 PUSH2 0x26A7 JUMP JUMPDEST JUMPDEST PUSH1 0x1 DUP3 SUB SWAP1 POP SWAP2 SWAP1 POP JUMP INVALID SLOAD PUSH9 0x65206D616A6F726974 PUSH26 0x206F662074686520636F6E7472696275746F7273206861766520 PUSH23 0x6F74656420666F722072656A656374696F6EA264697066 PUSH20 0x58221220793E9ECD9B4BE43A77F88DB3369FD85E 0x28 SHR DUP11 0xF6 DUP10 0xD4 0xC2 PUSH31 0xC85359FDAC09489864736F6C63430008180033000000000000000000000000 "},"gasEstimates":{"creation":{"codeDepositCost":"2156200","executionCost":"infinite","totalCost":"infinite"},"external":{"addFunds()":"2333","approvers(address)":"2826","cancelCampaign(string)":"infinite","claimFunds()":"infinite","claimRequest(string,string)":"infinite","contribute()":"53184","getCampaignName()":"infinite","getContractBalance()":"401","getContributorsCount()":"2564","getDescription()":"infinite","getManager()":"2626","getMinimumContribution()":"2542","getRemainingBalance()":"infinite","getRequestClaims(string)":"infinite","getRequests()":"infinite","getRequestsCount()":"2544","getSummary()":"infinite","rejectRequest(string,string)":"infinite","requests(string)":"infinite","submitRequest(string)":"infinite","triggerCampaignRequest(string,string,uint256,uint256,address)":"infinite","voteRequest(string,bool)":"infinite"}},"methodIdentifiers":{"addFunds()":"a26759cb","approvers(address)":"0a144391","cancelCampaign(string)":"e35d66a8","claimFunds()":"ac307773","claimRequest(string,string)":"f0190215","contribute()":"d7bb99ba","getCampaignName()":"885e7c62","getContractBalance()":"6f9fb98a","getContributorsCount()":"feed5561","getDescription()":"1a092541","getManager()":"d5009584","getMinimumContribution()":"f84038b1","getRemainingBalance()":"2fba2c85","getRequestClaims(string)":"7d6e5b9e","getRequests()":"8813ce12","getRequestsCount()":"3410452a","getSummary()":"4051ddac","rejectRequest(string,string)":"72a8d706","requests(string)":"692d51d2","submitRequest(string)":"e2e46b52","triggerCampaignRequest(string,string,uint256,uint256,address)":"a7ac8000","voteRequest(string,bool)":"30e8fc5c"}},"storageLayout":{"storage":[{"astId":167,"contract":"Campaign.sol:Campaign","label":"_name","offset":0,"slot":"0","type":"t_string_storage"},{"astId":169,"contract":"Campaign.sol:Campaign","label":"_description","offset":0,"slot":"1","type":"t_string_storage"},{"astId":171,"contract":"Campaign.sol:Campaign","label":"_manager","offset":0,"slot":"2","type":"t_address"},{"astId":175,"contract":"Campaign.sol:Campaign","label":"approvers","offset":0,"slot":"3","type":"t_mapping(t_address,t_uint256)"},{"astId":177,"contract":"Campaign.sol:Campaign","label":"_approversCount","offset":0,"slot":"4","type":"t_uint256"},{"astId":179,"contract":"Campaign.sol:Campaign","label":"_minimumContribution","offset":0,"slot":"5","type":"t_uint256"},{"astId":183,"contract":"Campaign.sol:Campaign","label":"_requests","offset":0,"slot":"6","type":"t_array(t_struct(RequestSummary)160_storage)dyn_storage"},{"astId":188,"contract":"Campaign.sol:Campaign","label":"requests","offset":0,"slot":"7","type":"t_mapping(t_string_memory_ptr,t_struct(Request)134_storage)"},{"astId":190,"contract":"Campaign.sol:Campaign","label":"_requestsCount","offset":0,"slot":"8","type":"t_uint256"},{"astId":192,"contract":"Campaign.sol:Campaign","label":"_cancelled","offset":0,"slot":"9","type":"t_bool"},{"astId":194,"contract":"Campaign.sol:Campaign","label":"_cancelReason","offset":0,"slot":"10","type":"t_string_storage"}],"types":{"t_address":{"encoding":"inplace","label":"address","numberOfBytes":"20"},"t_address_payable":{"encoding":"inplace","label":"address payable","numberOfBytes":"20"},"t_array(t_struct(RequestClaim)165_storage)dyn_storage":{"base":"t_struct(RequestClaim)165_storage","encoding":"dynamic_array","label":"struct Campaign.RequestClaim[]","numberOfBytes":"32"},"t_array(t_struct(RequestSummary)160_storage)dyn_storage":{"base":"t_struct(RequestSummary)160_storage","encoding":"dynamic_array","label":"struct Campaign.RequestSummary[]","numberOfBytes":"32"},"t_bool":{"encoding":"inplace","label":"bool","numberOfBytes":"1"},"t_mapping(t_address,t_bool)":{"encoding":"mapping","key":"t_address","label":"mapping(address => bool)","numberOfBytes":"32","value":"t_bool"},"t_mapping(t_address,t_uint256)":{"encoding":"mapping","key":"t_address","label":"mapping(address => uint256)","numberOfBytes":"32","value":"t_uint256"},"t_mapping(t_string_memory_ptr,t_struct(Request)134_storage)":{"encoding":"mapping","key":"t_string_memory_ptr","label":"mapping(string => struct Campaign.Request)","numberOfBytes":"32","value":"t_struct(Request)134_storage"},"t_string_memory_ptr":{"encoding":"bytes","label":"string","numberOfBytes":"32"},"t_string_storage":{"encoding":"bytes","label":"string","numberOfBytes":"32"},"t_struct(Request)134_storage":{"encoding":"inplace","label":"struct Campaign.Request","members":[{"astId":103,"contract":"Campaign.sol:Campaign","label":"name","offset":0,"slot":"0","type":"t_string_storage"},{"astId":105,"contract":"Campaign.sol:Campaign","label":"description","offset":0,"slot":"1","type":"t_string_storage"},{"astId":107,"contract":"Campaign.sol:Campaign","label":"amount","offset":0,"slot":"2","type":"t_uint256"},{"astId":109,"contract":"Campaign.sol:Campaign","label":"receiver","offset":0,"slot":"3","type":"t_address_payable"},{"astId":111,"contract":"Campaign.sol:Campaign","label":"approvalsCount","offset":0,"slot":"4","type":"t_uint256"},{"astId":113,"contract":"Campaign.sol:Campaign","label":"requiredApprovals","offset":0,"slot":"5","type":"t_uint256"},{"astId":115,"contract":"Campaign.sol:Campaign","label":"rejectionsCount","offset":0,"slot":"6","type":"t_uint256"},{"astId":117,"contract":"Campaign.sol:Campaign","label":"claimsCount","offset":0,"slot":"7","type":"t_uint256"},{"astId":119,"contract":"Campaign.sol:Campaign","label":"canSubmit","offset":0,"slot":"8","type":"t_bool"},{"astId":121,"contract":"Campaign.sol:Campaign","label":"complete","offset":1,"slot":"8","type":"t_bool"},{"astId":123,"contract":"Campaign.sol:Campaign","label":"rejected","offset":2,"slot":"8","type":"t_bool"},{"astId":125,"contract":"Campaign.sol:Campaign","label":"rejectReason","offset":0,"slot":"9","type":"t_string_storage"},{"astId":129,"contract":"Campaign.sol:Campaign","label":"approvers","offset":0,"slot":"10","type":"t_mapping(t_address,t_bool)"},{"astId":133,"contract":"Campaign.sol:Campaign","label":"claims","offset":0,"slot":"11","type":"t_array(t_struct(RequestClaim)165_storage)dyn_storage"}],"numberOfBytes":"384"},"t_struct(RequestClaim)165_storage":{"encoding":"inplace","label":"struct Campaign.RequestClaim","members":[{"astId":162,"contract":"Campaign.sol:Campaign","label":"contributor","offset":0,"slot":"0","type":"t_address"},{"astId":164,"contract":"Campaign.sol:Campaign","label":"description","offset":0,"slot":"1","type":"t_string_storage"}],"numberOfBytes":"64"},"t_struct(RequestSummary)160_storage":{"encoding":"inplace","label":"struct Campaign.RequestSummary","members":[{"astId":155,"contract":"Campaign.sol:Campaign","label":"name","offset":0,"slot":"0","type":"t_string_storage"},{"astId":157,"contract":"Campaign.sol:Campaign","label":"description","offset":0,"slot":"1","type":"t_string_storage"},{"astId":159,"contract":"Campaign.sol:Campaign","label":"amount","offset":0,"slot":"2","type":"t_uint256"}],"numberOfBytes":"96"},"t_uint256":{"encoding":"inplace","label":"uint256","numberOfBytes":"32"}}},"userdoc":{"kind":"user","methods":{},"version":1}}