{"abi":[{"inputs":[],"stateMutability":"nonpayable","type":"constructor"},{"inputs":[{"internalType":"string","name":"name","type":"string"},{"internalType":"string","name":"desc","type":"string"},{"internalType":"uint256","name":"minAmount","type":"uint256"}],"name":"createCampaign","outputs":[],"stateMutability":"nonpayable","type":"function"},{"inputs":[],"name":"getCampaigns","outputs":[{"components":[{"internalType":"address","name":"creatorAddress","type":"address"},{"internalType":"string","name":"name","type":"string"},{"internalType":"address","name":"campaignAddress","type":"address"}],"internalType":"struct CampaignFactory.CampaignInfo[]","name":"","type":"tuple[]"}],"stateMutability":"view","type":"function"},{"inputs":[],"name":"getCreatorAddress","outputs":[{"internalType":"address","name":"","type":"address"}],"stateMutability":"view","type":"function"},{"inputs":[],"name":"getDeployedCampaigns","outputs":[{"internalType":"address[]","name":"","type":"address[]"}],"stateMutability":"view","type":"function"}],"devdoc":{"kind":"dev","methods":{},"version":1},"evm":{"assembly":"    /* \"Campaign.sol\":58:1140  contract CampaignFactory... */\n  mstore(0x40, 0x80)\n    /* \"Campaign.sol\":318:374  constructor()... */\n  callvalue\n  dup1\n  iszero\n  tag_1\n  jumpi\n  0x00\n  dup1\n  revert\ntag_1:\n  pop\n    /* \"Campaign.sol\":357:367  msg.sender */\n  caller\n    /* \"Campaign.sol\":346:354  _creator */\n  0x01\n  0x00\n    /* \"Campaign.sol\":346:367  _creator = msg.sender */\n  0x0100\n  exp\n  dup2\n  sload\n  dup2\n  0xffffffffffffffffffffffffffffffffffffffff\n  mul\n  not\n  and\n  swap1\n  dup4\n  0xffffffffffffffffffffffffffffffffffffffff\n  and\n  mul\n  or\n  swap1\n  sstore\n  pop\n    /* \"Campaign.sol\":58:1140  contract CampaignFactory... */\n  dataSize(sub_0)\n  dup1\n  dataOffset(sub_0)\n  0x00\n  codecopy\n  0x00\n  return\nstop\n\nsub_0: assembly {\n        /* \"Campaign.sol\":58:1140  contract CampaignFactory... */\n      mstore(0x40, 0x80)\n      callvalue\n      dup1\n      iszero\n      tag_1\n      jumpi\n      0x00\n      dup1\n      revert\n    tag_1:\n      pop\n      jumpi(tag_2, lt(calldatasize, 0x04))\n      shr(0xe0, calldataload(0x00))\n      dup1\n      0x4acb9d4f\n      eq\n      tag_3\n      jumpi\n      dup1\n      0x94d2d7a7\n      eq\n      tag_4\n      jumpi\n      dup1\n      0xa6b03633\n      eq\n      tag_5\n      jumpi\n      dup1\n      0xffa56a57\n      eq\n      tag_6\n      jumpi\n    tag_2:\n      0x00\n      dup1\n      revert\n        /* \"Campaign.sol\":816:934  function getDeployedCampaigns() external view returns(address[] memory)... */\n    tag_3:\n      tag_7\n      tag_8\n      jump\t// in\n    tag_7:\n      mload(0x40)\n      tag_9\n      swap2\n      swap1\n      tag_10\n      jump\t// in\n    tag_9:\n      mload(0x40)\n      dup1\n      swap2\n      sub\n      swap1\n      return\n        /* \"Campaign.sol\":940:1031  function getCreatorAddress() external view returns(address){... */\n    tag_4:\n      tag_11\n      tag_12\n      jump\t// in\n    tag_11:\n      mload(0x40)\n      tag_13\n      swap2\n      swap1\n      tag_14\n      jump\t// in\n    tag_13:\n      mload(0x40)\n      dup1\n      swap2\n      sub\n      swap1\n      return\n        /* \"Campaign.sol\":1036:1138  function getCampaigns() external view returns(CampaignInfo[] memory){... */\n    tag_5:\n      tag_15\n      tag_16\n      jump\t// in\n    tag_15:\n      mload(0x40)\n      tag_17\n      swap2\n      swap1\n      tag_18\n      jump\t// in\n    tag_17:\n      mload(0x40)\n      dup1\n      swap2\n      sub\n      swap1\n      return\n        /* \"Campaign.sol\":380:810  function createCampaign(string memory name, string memory desc, uint minAmount) external{... */\n    tag_6:\n      tag_19\n      0x04\n      dup1\n      calldatasize\n      sub\n      dup2\n      add\n      swap1\n      tag_20\n      swap2\n      swap1\n      tag_21\n      jump\t// in\n    tag_20:\n      tag_22\n      jump\t// in\n    tag_19:\n      stop\n        /* \"Campaign.sol\":816:934  function getDeployedCampaigns() external view returns(address[] memory)... */\n    tag_8:\n        /* \"Campaign.sol\":870:886  address[] memory */\n      0x60\n        /* \"Campaign.sol\":909:927  _deployedCampaigns */\n      0x00\n        /* \"Campaign.sol\":902:927  return _deployedCampaigns */\n      dup1\n      sload\n      dup1\n      0x20\n      mul\n      0x20\n      add\n      mload(0x40)\n      swap1\n      dup2\n      add\n      0x40\n      mstore\n      dup1\n      swap3\n      swap2\n      swap1\n      dup2\n      dup2\n      mstore\n      0x20\n      add\n      dup3\n      dup1\n      sload\n      dup1\n      iszero\n      tag_24\n      jumpi\n      0x20\n      mul\n      dup3\n      add\n      swap2\n      swap1\n      0x00\n      mstore\n      keccak256(0x00, 0x20)\n      swap1\n    tag_25:\n      dup2\n      0x00\n      swap1\n      sload\n      swap1\n      0x0100\n      exp\n      swap1\n      div\n      0xffffffffffffffffffffffffffffffffffffffff\n      and\n      0xffffffffffffffffffffffffffffffffffffffff\n      and\n      dup2\n      mstore\n      0x20\n      add\n      swap1\n      0x01\n      add\n      swap1\n      dup1\n      dup4\n      gt\n      tag_25\n      jumpi\n    tag_24:\n      pop\n      pop\n      pop\n      pop\n      pop\n      swap1\n      pop\n        /* \"Campaign.sol\":816:934  function getDeployedCampaigns() external view returns(address[] memory)... */\n      swap1\n      jump\t// out\n        /* \"Campaign.sol\":940:1031  function getCreatorAddress() external view returns(address){... */\n    tag_12:\n        /* \"Campaign.sol\":991:998  address */\n      0x00\n        /* \"Campaign.sol\":1016:1024  _creator */\n      0x01\n      0x00\n      swap1\n      sload\n      swap1\n      0x0100\n      exp\n      swap1\n      div\n      0xffffffffffffffffffffffffffffffffffffffff\n      and\n        /* \"Campaign.sol\":1009:1024  return _creator */\n      swap1\n      pop\n        /* \"Campaign.sol\":940:1031  function getCreatorAddress() external view returns(address){... */\n      swap1\n      jump\t// out\n        /* \"Campaign.sol\":1036:1138  function getCampaigns() external view returns(CampaignInfo[] memory){... */\n    tag_16:\n        /* \"Campaign.sol\":1082:1103  CampaignInfo[] memory */\n      0x60\n        /* \"Campaign.sol\":1121:1131  _campaigns */\n      0x02\n        /* \"Campaign.sol\":1114:1131  return _campaigns */\n      dup1\n      sload\n      dup1\n      0x20\n      mul\n      0x20\n      add\n      mload(0x40)\n      swap1\n      dup2\n      add\n      0x40\n      mstore\n      dup1\n      swap3\n      swap2\n      swap1\n      dup2\n      dup2\n      mstore\n      0x20\n      add\n      0x00\n      swap1\n    tag_28:\n      dup3\n      dup3\n      lt\n      iszero\n      tag_29\n      jumpi\n      dup4\n      dup3\n      swap1\n      0x00\n      mstore\n      keccak256(0x00, 0x20)\n      swap1\n      0x03\n      mul\n      add\n      mload(0x40)\n      dup1\n      0x60\n      add\n      0x40\n      mstore\n      swap1\n      dup2\n      0x00\n      dup3\n      add\n      0x00\n      swap1\n      sload\n      swap1\n      0x0100\n      exp\n      swap1\n      div\n      0xffffffffffffffffffffffffffffffffffffffff\n      and\n      0xffffffffffffffffffffffffffffffffffffffff\n      and\n      0xffffffffffffffffffffffffffffffffffffffff\n      and\n      dup2\n      mstore\n      0x20\n      add\n      0x01\n      dup3\n      add\n      dup1\n      sload\n      tag_31\n      swap1\n      tag_32\n      jump\t// in\n    tag_31:\n      dup1\n      0x1f\n      add\n      0x20\n      dup1\n      swap2\n      div\n      mul\n      0x20\n      add\n      mload(0x40)\n      swap1\n      dup2\n      add\n      0x40\n      mstore\n      dup1\n      swap3\n      swap2\n      swap1\n      dup2\n      dup2\n      mstore\n      0x20\n      add\n      dup3\n      dup1\n      sload\n      tag_33\n      swap1\n      tag_32\n      jump\t// in\n    tag_33:\n      dup1\n      iszero\n      tag_34\n      jumpi\n      dup1\n      0x1f\n      lt\n      tag_35\n      jumpi\n      0x0100\n      dup1\n      dup4\n      sload\n      div\n      mul\n      dup4\n      mstore\n      swap2\n      0x20\n      add\n      swap2\n      jump(tag_34)\n    tag_35:\n      dup3\n      add\n      swap2\n      swap1\n      0x00\n      mstore\n      keccak256(0x00, 0x20)\n      swap1\n    tag_36:\n      dup2\n      sload\n      dup2\n      mstore\n      swap1\n      0x01\n      add\n      swap1\n      0x20\n      add\n      dup1\n      dup4\n      gt\n      tag_36\n      jumpi\n      dup3\n      swap1\n      sub\n      0x1f\n      and\n      dup3\n      add\n      swap2\n    tag_34:\n      pop\n      pop\n      pop\n      pop\n      pop\n      dup2\n      mstore\n      0x20\n      add\n      0x02\n      dup3\n      add\n      0x00\n      swap1\n      sload\n      swap1\n      0x0100\n      exp\n      swap1\n      div\n      0xffffffffffffffffffffffffffffffffffffffff\n      and\n      0xffffffffffffffffffffffffffffffffffffffff\n      and\n      0xffffffffffffffffffffffffffffffffffffffff\n      and\n      dup2\n      mstore\n      pop\n      pop\n      dup2\n      mstore\n      0x20\n      add\n      swap1\n      0x01\n      add\n      swap1\n      jump(tag_28)\n    tag_29:\n      pop\n      pop\n      pop\n      pop\n      swap1\n      pop\n        /* \"Campaign.sol\":1036:1138  function getCampaigns() external view returns(CampaignInfo[] memory){... */\n      swap1\n      jump\t// out\n        /* \"Campaign.sol\":380:810  function createCampaign(string memory name, string memory desc, uint minAmount) external{... */\n    tag_22:\n        /* \"Campaign.sol\":478:497  address newCampaign */\n      0x00\n        /* \"Campaign.sol\":521:525  name */\n      dup4\n        /* \"Campaign.sol\":527:531  desc */\n      dup4\n        /* \"Campaign.sol\":533:542  minAmount */\n      dup4\n        /* \"Campaign.sol\":544:554  msg.sender */\n      caller\n        /* \"Campaign.sol\":508:555  new Campaign(name, desc, minAmount, msg.sender) */\n      mload(0x40)\n      tag_38\n      swap1\n      tag_39\n      jump\t// in\n    tag_38:\n      tag_40\n      swap5\n      swap4\n      swap3\n      swap2\n      swap1\n      tag_41\n      jump\t// in\n    tag_40:\n      mload(0x40)\n      dup1\n      swap2\n      sub\n      swap1\n      0x00\n      create\n      dup1\n      iszero\n      dup1\n      iszero\n      tag_42\n      jumpi\n      returndatasize\n      0x00\n      dup1\n      returndatacopy\n      revert(0x00, returndatasize)\n    tag_42:\n      pop\n        /* \"Campaign.sol\":478:556  address newCampaign = address(new Campaign(name, desc, minAmount, msg.sender)) */\n      swap1\n      pop\n        /* \"Campaign.sol\":566:584  _deployedCampaigns */\n      0x00\n        /* \"Campaign.sol\":590:601  newCampaign */\n      dup2\n        /* \"Campaign.sol\":566:602  _deployedCampaigns.push(newCampaign) */\n      swap1\n      dup1\n      0x01\n      dup2\n      sload\n      add\n      dup1\n      dup3\n      sstore\n      dup1\n      swap2\n      pop\n      pop\n      0x01\n      swap1\n      sub\n      swap1\n      0x00\n      mstore\n      keccak256(0x00, 0x20)\n      add\n      0x00\n      swap1\n      swap2\n      swap1\n      swap2\n      swap1\n      swap2\n      0x0100\n      exp\n      dup2\n      sload\n      dup2\n      0xffffffffffffffffffffffffffffffffffffffff\n      mul\n      not\n      and\n      swap1\n      dup4\n      0xffffffffffffffffffffffffffffffffffffffff\n      and\n      mul\n      or\n      swap1\n      sstore\n      pop\n        /* \"Campaign.sol\":614:638  CampaignInfo memory info */\n      0x00\n        /* \"Campaign.sol\":641:771  CampaignInfo({... */\n      mload(0x40)\n      dup1\n      0x60\n      add\n      0x40\n      mstore\n      dup1\n        /* \"Campaign.sol\":684:694  msg.sender */\n      caller\n        /* \"Campaign.sol\":641:771  CampaignInfo({... */\n      0xffffffffffffffffffffffffffffffffffffffff\n      and\n      dup2\n      mstore\n      0x20\n      add\n        /* \"Campaign.sol\":714:718  name */\n      dup7\n        /* \"Campaign.sol\":641:771  CampaignInfo({... */\n      dup2\n      mstore\n      0x20\n      add\n        /* \"Campaign.sol\":749:760  newCampaign */\n      dup4\n        /* \"Campaign.sol\":641:771  CampaignInfo({... */\n      0xffffffffffffffffffffffffffffffffffffffff\n      and\n      dup2\n      mstore\n      pop\n        /* \"Campaign.sol\":614:771  CampaignInfo memory info = CampaignInfo({... */\n      swap1\n      pop\n        /* \"Campaign.sol\":782:792  _campaigns */\n      0x02\n        /* \"Campaign.sol\":798:802  info */\n      dup2\n        /* \"Campaign.sol\":782:803  _campaigns.push(info) */\n      swap1\n      dup1\n      0x01\n      dup2\n      sload\n      add\n      dup1\n      dup3\n      sstore\n      dup1\n      swap2\n      pop\n      pop\n      0x01\n      swap1\n      sub\n      swap1\n      0x00\n      mstore\n      keccak256(0x00, 0x20)\n      swap1\n      0x03\n      mul\n      add\n      0x00\n      swap1\n      swap2\n      swap1\n      swap2\n      swap1\n      swap2\n      pop\n      0x00\n      dup3\n      add\n      mload\n      dup2\n      0x00\n      add\n      exp(0x0100, 0x00)\n      dup2\n      sload\n      dup2\n      0xffffffffffffffffffffffffffffffffffffffff\n      mul\n      not\n      and\n      swap1\n      dup4\n      0xffffffffffffffffffffffffffffffffffffffff\n      and\n      mul\n      or\n      swap1\n      sstore\n      pop\n      0x20\n      dup3\n      add\n      mload\n      dup2\n      0x01\n      add\n      swap1\n      dup2\n      tag_45\n      swap2\n      swap1\n      tag_46\n      jump\t// in\n    tag_45:\n      pop\n      0x40\n      dup3\n      add\n      mload\n      dup2\n      0x02\n      add\n      exp(0x0100, 0x00)\n      dup2\n      sload\n      dup2\n      0xffffffffffffffffffffffffffffffffffffffff\n      mul\n      not\n      and\n      swap1\n      dup4\n      0xffffffffffffffffffffffffffffffffffffffff\n      and\n      mul\n      or\n      swap1\n      sstore\n      pop\n      pop\n      pop\n        /* \"Campaign.sol\":468:810  {... */\n      pop\n      pop\n        /* \"Campaign.sol\":380:810  function createCampaign(string memory name, string memory desc, uint minAmount) external{... */\n      pop\n      pop\n      pop\n      jump\t// out\n    tag_39:\n      dataSize(sub_0)\n      dup1\n      dataOffset(sub_0)\n      dup4\n      codecopy\n      add\n      swap1\n      jump\t// out\n        /* \"#utility.yul\":7:121   */\n    tag_47:\n        /* \"#utility.yul\":74:80   */\n      0x00\n        /* \"#utility.yul\":108:113   */\n      dup2\n        /* \"#utility.yul\":102:114   */\n      mload\n        /* \"#utility.yul\":92:114   */\n      swap1\n      pop\n        /* \"#utility.yul\":7:121   */\n      swap2\n      swap1\n      pop\n      jump\t// out\n        /* \"#utility.yul\":127:311   */\n    tag_48:\n        /* \"#utility.yul\":226:237   */\n      0x00\n        /* \"#utility.yul\":260:266   */\n      dup3\n        /* \"#utility.yul\":255:258   */\n      dup3\n        /* \"#utility.yul\":248:267   */\n      mstore\n        /* \"#utility.yul\":300:304   */\n      0x20\n        /* \"#utility.yul\":295:298   */\n      dup3\n        /* \"#utility.yul\":291:305   */\n      add\n        /* \"#utility.yul\":276:305   */\n      swap1\n      pop\n        /* \"#utility.yul\":127:311   */\n      swap3\n      swap2\n      pop\n      pop\n      jump\t// out\n        /* \"#utility.yul\":317:449   */\n    tag_49:\n        /* \"#utility.yul\":384:388   */\n      0x00\n        /* \"#utility.yul\":407:410   */\n      dup2\n        /* \"#utility.yul\":399:410   */\n      swap1\n      pop\n        /* \"#utility.yul\":437:441   */\n      0x20\n        /* \"#utility.yul\":432:435   */\n      dup3\n        /* \"#utility.yul\":428:442   */\n      add\n        /* \"#utility.yul\":420:442   */\n      swap1\n      pop\n        /* \"#utility.yul\":317:449   */\n      swap2\n      swap1\n      pop\n      jump\t// out\n        /* \"#utility.yul\":455:581   */\n    tag_50:\n        /* \"#utility.yul\":492:499   */\n      0x00\n        /* \"#utility.yul\":532:574   */\n      0xffffffffffffffffffffffffffffffffffffffff\n        /* \"#utility.yul\":525:530   */\n      dup3\n        /* \"#utility.yul\":521:575   */\n      and\n        /* \"#utility.yul\":510:575   */\n      swap1\n      pop\n        /* \"#utility.yul\":455:581   */\n      swap2\n      swap1\n      pop\n      jump\t// out\n        /* \"#utility.yul\":587:683   */\n    tag_51:\n        /* \"#utility.yul\":624:631   */\n      0x00\n        /* \"#utility.yul\":653:677   */\n      tag_109\n        /* \"#utility.yul\":671:676   */\n      dup3\n        /* \"#utility.yul\":653:677   */\n      tag_50\n      jump\t// in\n    tag_109:\n        /* \"#utility.yul\":642:677   */\n      swap1\n      pop\n        /* \"#utility.yul\":587:683   */\n      swap2\n      swap1\n      pop\n      jump\t// out\n        /* \"#utility.yul\":689:797   */\n    tag_52:\n        /* \"#utility.yul\":766:790   */\n      tag_111\n        /* \"#utility.yul\":784:789   */\n      dup2\n        /* \"#utility.yul\":766:790   */\n      tag_51\n      jump\t// in\n    tag_111:\n        /* \"#utility.yul\":761:764   */\n      dup3\n        /* \"#utility.yul\":754:791   */\n      mstore\n        /* \"#utility.yul\":689:797   */\n      pop\n      pop\n      jump\t// out\n        /* \"#utility.yul\":803:982   */\n    tag_53:\n        /* \"#utility.yul\":872:882   */\n      0x00\n        /* \"#utility.yul\":893:939   */\n      tag_113\n        /* \"#utility.yul\":935:938   */\n      dup4\n        /* \"#utility.yul\":927:933   */\n      dup4\n        /* \"#utility.yul\":893:939   */\n      tag_52\n      jump\t// in\n    tag_113:\n        /* \"#utility.yul\":971:975   */\n      0x20\n        /* \"#utility.yul\":966:969   */\n      dup4\n        /* \"#utility.yul\":962:976   */\n      add\n        /* \"#utility.yul\":948:976   */\n      swap1\n      pop\n        /* \"#utility.yul\":803:982   */\n      swap3\n      swap2\n      pop\n      pop\n      jump\t// out\n        /* \"#utility.yul\":988:1101   */\n    tag_54:\n        /* \"#utility.yul\":1058:1062   */\n      0x00\n        /* \"#utility.yul\":1090:1094   */\n      0x20\n        /* \"#utility.yul\":1085:1088   */\n      dup3\n        /* \"#utility.yul\":1081:1095   */\n      add\n        /* \"#utility.yul\":1073:1095   */\n      swap1\n      pop\n        /* \"#utility.yul\":988:1101   */\n      swap2\n      swap1\n      pop\n      jump\t// out\n        /* \"#utility.yul\":1137:1869   */\n    tag_55:\n        /* \"#utility.yul\":1256:1259   */\n      0x00\n        /* \"#utility.yul\":1285:1339   */\n      tag_116\n        /* \"#utility.yul\":1333:1338   */\n      dup3\n        /* \"#utility.yul\":1285:1339   */\n      tag_47\n      jump\t// in\n    tag_116:\n        /* \"#utility.yul\":1355:1441   */\n      tag_117\n        /* \"#utility.yul\":1434:1440   */\n      dup2\n        /* \"#utility.yul\":1429:1432   */\n      dup6\n        /* \"#utility.yul\":1355:1441   */\n      tag_48\n      jump\t// in\n    tag_117:\n        /* \"#utility.yul\":1348:1441   */\n      swap4\n      pop\n        /* \"#utility.yul\":1465:1521   */\n      tag_118\n        /* \"#utility.yul\":1515:1520   */\n      dup4\n        /* \"#utility.yul\":1465:1521   */\n      tag_49\n      jump\t// in\n    tag_118:\n        /* \"#utility.yul\":1544:1551   */\n      dup1\n        /* \"#utility.yul\":1575:1576   */\n      0x00\n        /* \"#utility.yul\":1560:1844   */\n    tag_119:\n        /* \"#utility.yul\":1585:1591   */\n      dup4\n        /* \"#utility.yul\":1582:1583   */\n      dup2\n        /* \"#utility.yul\":1579:1592   */\n      lt\n        /* \"#utility.yul\":1560:1844   */\n      iszero\n      tag_121\n      jumpi\n        /* \"#utility.yul\":1661:1667   */\n      dup2\n        /* \"#utility.yul\":1655:1668   */\n      mload\n        /* \"#utility.yul\":1688:1751   */\n      tag_122\n        /* \"#utility.yul\":1747:1750   */\n      dup9\n        /* \"#utility.yul\":1732:1745   */\n      dup3\n        /* \"#utility.yul\":1688:1751   */\n      tag_53\n      jump\t// in\n    tag_122:\n        /* \"#utility.yul\":1681:1751   */\n      swap8\n      pop\n        /* \"#utility.yul\":1774:1834   */\n      tag_123\n        /* \"#utility.yul\":1827:1833   */\n      dup4\n        /* \"#utility.yul\":1774:1834   */\n      tag_54\n      jump\t// in\n    tag_123:\n        /* \"#utility.yul\":1764:1834   */\n      swap3\n      pop\n        /* \"#utility.yul\":1620:1844   */\n      pop\n        /* \"#utility.yul\":1607:1608   */\n      0x01\n        /* \"#utility.yul\":1604:1605   */\n      dup2\n        /* \"#utility.yul\":1600:1609   */\n      add\n        /* \"#utility.yul\":1595:1609   */\n      swap1\n      pop\n        /* \"#utility.yul\":1560:1844   */\n      jump(tag_119)\n    tag_121:\n        /* \"#utility.yul\":1564:1578   */\n      pop\n        /* \"#utility.yul\":1860:1863   */\n      dup6\n        /* \"#utility.yul\":1853:1863   */\n      swap4\n      pop\n        /* \"#utility.yul\":1261:1869   */\n      pop\n      pop\n      pop\n        /* \"#utility.yul\":1137:1869   */\n      swap3\n      swap2\n      pop\n      pop\n      jump\t// out\n        /* \"#utility.yul\":1875:2248   */\n    tag_10:\n        /* \"#utility.yul\":2018:2022   */\n      0x00\n        /* \"#utility.yul\":2056:2058   */\n      0x20\n        /* \"#utility.yul\":2045:2054   */\n      dup3\n        /* \"#utility.yul\":2041:2059   */\n      add\n        /* \"#utility.yul\":2033:2059   */\n      swap1\n      pop\n        /* \"#utility.yul\":2105:2114   */\n      dup2\n        /* \"#utility.yul\":2099:2103   */\n      dup2\n        /* \"#utility.yul\":2095:2115   */\n      sub\n        /* \"#utility.yul\":2091:2092   */\n      0x00\n        /* \"#utility.yul\":2080:2089   */\n      dup4\n        /* \"#utility.yul\":2076:2093   */\n      add\n        /* \"#utility.yul\":2069:2116   */\n      mstore\n        /* \"#utility.yul\":2133:2241   */\n      tag_125\n        /* \"#utility.yul\":2236:2240   */\n      dup2\n        /* \"#utility.yul\":2227:2233   */\n      dup5\n        /* \"#utility.yul\":2133:2241   */\n      tag_55\n      jump\t// in\n    tag_125:\n        /* \"#utility.yul\":2125:2241   */\n      swap1\n      pop\n        /* \"#utility.yul\":1875:2248   */\n      swap3\n      swap2\n      pop\n      pop\n      jump\t// out\n        /* \"#utility.yul\":2254:2372   */\n    tag_56:\n        /* \"#utility.yul\":2341:2365   */\n      tag_127\n        /* \"#utility.yul\":2359:2364   */\n      dup2\n        /* \"#utility.yul\":2341:2365   */\n      tag_51\n      jump\t// in\n    tag_127:\n        /* \"#utility.yul\":2336:2339   */\n      dup3\n        /* \"#utility.yul\":2329:2366   */\n      mstore\n        /* \"#utility.yul\":2254:2372   */\n      pop\n      pop\n      jump\t// out\n        /* \"#utility.yul\":2378:2600   */\n    tag_14:\n        /* \"#utility.yul\":2471:2475   */\n      0x00\n        /* \"#utility.yul\":2509:2511   */\n      0x20\n        /* \"#utility.yul\":2498:2507   */\n      dup3\n        /* \"#utility.yul\":2494:2512   */\n      add\n        /* \"#utility.yul\":2486:2512   */\n      swap1\n      pop\n        /* \"#utility.yul\":2522:2593   */\n      tag_129\n        /* \"#utility.yul\":2590:2591   */\n      0x00\n        /* \"#utility.yul\":2579:2588   */\n      dup4\n        /* \"#utility.yul\":2575:2592   */\n      add\n        /* \"#utility.yul\":2566:2572   */\n      dup5\n        /* \"#utility.yul\":2522:2593   */\n      tag_56\n      jump\t// in\n    tag_129:\n        /* \"#utility.yul\":2378:2600   */\n      swap3\n      swap2\n      pop\n      pop\n      jump\t// out\n        /* \"#utility.yul\":2606:2747   */\n    tag_57:\n        /* \"#utility.yul\":2700:2706   */\n      0x00\n        /* \"#utility.yul\":2734:2739   */\n      dup2\n        /* \"#utility.yul\":2728:2740   */\n      mload\n        /* \"#utility.yul\":2718:2740   */\n      swap1\n      pop\n        /* \"#utility.yul\":2606:2747   */\n      swap2\n      swap1\n      pop\n      jump\t// out\n        /* \"#utility.yul\":2753:2964   */\n    tag_58:\n        /* \"#utility.yul\":2879:2890   */\n      0x00\n        /* \"#utility.yul\":2913:2919   */\n      dup3\n        /* \"#utility.yul\":2908:2911   */\n      dup3\n        /* \"#utility.yul\":2901:2920   */\n      mstore\n        /* \"#utility.yul\":2953:2957   */\n      0x20\n        /* \"#utility.yul\":2948:2951   */\n      dup3\n        /* \"#utility.yul\":2944:2958   */\n      add\n        /* \"#utility.yul\":2929:2958   */\n      swap1\n      pop\n        /* \"#utility.yul\":2753:2964   */\n      swap3\n      swap2\n      pop\n      pop\n      jump\t// out\n        /* \"#utility.yul\":2970:3129   */\n    tag_59:\n        /* \"#utility.yul\":3064:3068   */\n      0x00\n        /* \"#utility.yul\":3087:3090   */\n      dup2\n        /* \"#utility.yul\":3079:3090   */\n      swap1\n      pop\n        /* \"#utility.yul\":3117:3121   */\n      0x20\n        /* \"#utility.yul\":3112:3115   */\n      dup3\n        /* \"#utility.yul\":3108:3122   */\n      add\n        /* \"#utility.yul\":3100:3122   */\n      swap1\n      pop\n        /* \"#utility.yul\":2970:3129   */\n      swap2\n      swap1\n      pop\n      jump\t// out\n        /* \"#utility.yul\":3135:3234   */\n    tag_60:\n        /* \"#utility.yul\":3187:3193   */\n      0x00\n        /* \"#utility.yul\":3221:3226   */\n      dup2\n        /* \"#utility.yul\":3215:3227   */\n      mload\n        /* \"#utility.yul\":3205:3227   */\n      swap1\n      pop\n        /* \"#utility.yul\":3135:3234   */\n      swap2\n      swap1\n      pop\n      jump\t// out\n        /* \"#utility.yul\":3240:3399   */\n    tag_61:\n        /* \"#utility.yul\":3314:3325   */\n      0x00\n        /* \"#utility.yul\":3348:3354   */\n      dup3\n        /* \"#utility.yul\":3343:3346   */\n      dup3\n        /* \"#utility.yul\":3336:3355   */\n      mstore\n        /* \"#utility.yul\":3388:3392   */\n      0x20\n        /* \"#utility.yul\":3383:3386   */\n      dup3\n        /* \"#utility.yul\":3379:3393   */\n      add\n        /* \"#utility.yul\":3364:3393   */\n      swap1\n      pop\n        /* \"#utility.yul\":3240:3399   */\n      swap3\n      swap2\n      pop\n      pop\n      jump\t// out\n        /* \"#utility.yul\":3405:3651   */\n    tag_62:\n        /* \"#utility.yul\":3486:3487   */\n      0x00\n        /* \"#utility.yul\":3496:3609   */\n    tag_136:\n        /* \"#utility.yul\":3510:3516   */\n      dup4\n        /* \"#utility.yul\":3507:3508   */\n      dup2\n        /* \"#utility.yul\":3504:3517   */\n      lt\n        /* \"#utility.yul\":3496:3609   */\n      iszero\n      tag_138\n      jumpi\n        /* \"#utility.yul\":3595:3596   */\n      dup1\n        /* \"#utility.yul\":3590:3593   */\n      dup3\n        /* \"#utility.yul\":3586:3597   */\n      add\n        /* \"#utility.yul\":3580:3598   */\n      mload\n        /* \"#utility.yul\":3576:3577   */\n      dup2\n        /* \"#utility.yul\":3571:3574   */\n      dup5\n        /* \"#utility.yul\":3567:3578   */\n      add\n        /* \"#utility.yul\":3560:3599   */\n      mstore\n        /* \"#utility.yul\":3532:3534   */\n      0x20\n        /* \"#utility.yul\":3529:3530   */\n      dup2\n        /* \"#utility.yul\":3525:3535   */\n      add\n        /* \"#utility.yul\":3520:3535   */\n      swap1\n      pop\n        /* \"#utility.yul\":3496:3609   */\n      jump(tag_136)\n    tag_138:\n        /* \"#utility.yul\":3643:3644   */\n      0x00\n        /* \"#utility.yul\":3634:3640   */\n      dup5\n        /* \"#utility.yul\":3629:3632   */\n      dup5\n        /* \"#utility.yul\":3625:3641   */\n      add\n        /* \"#utility.yul\":3618:3645   */\n      mstore\n        /* \"#utility.yul\":3467:3651   */\n      pop\n        /* \"#utility.yul\":3405:3651   */\n      pop\n      pop\n      pop\n      jump\t// out\n        /* \"#utility.yul\":3657:3759   */\n    tag_63:\n        /* \"#utility.yul\":3698:3704   */\n      0x00\n        /* \"#utility.yul\":3749:3751   */\n      0x1f\n        /* \"#utility.yul\":3745:3752   */\n      not\n        /* \"#utility.yul\":3740:3742   */\n      0x1f\n        /* \"#utility.yul\":3733:3738   */\n      dup4\n        /* \"#utility.yul\":3729:3743   */\n      add\n        /* \"#utility.yul\":3725:3753   */\n      and\n        /* \"#utility.yul\":3715:3753   */\n      swap1\n      pop\n        /* \"#utility.yul\":3657:3759   */\n      swap2\n      swap1\n      pop\n      jump\t// out\n        /* \"#utility.yul\":3765:4122   */\n    tag_64:\n        /* \"#utility.yul\":3843:3846   */\n      0x00\n        /* \"#utility.yul\":3871:3910   */\n      tag_141\n        /* \"#utility.yul\":3904:3909   */\n      dup3\n        /* \"#utility.yul\":3871:3910   */\n      tag_60\n      jump\t// in\n    tag_141:\n        /* \"#utility.yul\":3926:3987   */\n      tag_142\n        /* \"#utility.yul\":3980:3986   */\n      dup2\n        /* \"#utility.yul\":3975:3978   */\n      dup6\n        /* \"#utility.yul\":3926:3987   */\n      tag_61\n      jump\t// in\n    tag_142:\n        /* \"#utility.yul\":3919:3987   */\n      swap4\n      pop\n        /* \"#utility.yul\":3996:4061   */\n      tag_143\n        /* \"#utility.yul\":4054:4060   */\n      dup2\n        /* \"#utility.yul\":4049:4052   */\n      dup6\n        /* \"#utility.yul\":4042:4046   */\n      0x20\n        /* \"#utility.yul\":4035:4040   */\n      dup7\n        /* \"#utility.yul\":4031:4047   */\n      add\n        /* \"#utility.yul\":3996:4061   */\n      tag_62\n      jump\t// in\n    tag_143:\n        /* \"#utility.yul\":4086:4115   */\n      tag_144\n        /* \"#utility.yul\":4108:4114   */\n      dup2\n        /* \"#utility.yul\":4086:4115   */\n      tag_63\n      jump\t// in\n    tag_144:\n        /* \"#utility.yul\":4081:4084   */\n      dup5\n        /* \"#utility.yul\":4077:4116   */\n      add\n        /* \"#utility.yul\":4070:4116   */\n      swap2\n      pop\n        /* \"#utility.yul\":3847:4122   */\n      pop\n        /* \"#utility.yul\":3765:4122   */\n      swap3\n      swap2\n      pop\n      pop\n      jump\t// out\n        /* \"#utility.yul\":4210:5005   */\n    tag_65:\n        /* \"#utility.yul\":4323:4326   */\n      0x00\n        /* \"#utility.yul\":4359:4363   */\n      0x60\n        /* \"#utility.yul\":4354:4357   */\n      dup4\n        /* \"#utility.yul\":4350:4364   */\n      add\n        /* \"#utility.yul\":4456:4460   */\n      0x00\n        /* \"#utility.yul\":4449:4454   */\n      dup4\n        /* \"#utility.yul\":4445:4461   */\n      add\n        /* \"#utility.yul\":4439:4462   */\n      mload\n        /* \"#utility.yul\":4475:4538   */\n      tag_146\n        /* \"#utility.yul\":4532:4536   */\n      0x00\n        /* \"#utility.yul\":4527:4530   */\n      dup7\n        /* \"#utility.yul\":4523:4537   */\n      add\n        /* \"#utility.yul\":4509:4521   */\n      dup3\n        /* \"#utility.yul\":4475:4538   */\n      tag_52\n      jump\t// in\n    tag_146:\n        /* \"#utility.yul\":4374:4548   */\n      pop\n        /* \"#utility.yul\":4630:4634   */\n      0x20\n        /* \"#utility.yul\":4623:4628   */\n      dup4\n        /* \"#utility.yul\":4619:4635   */\n      add\n        /* \"#utility.yul\":4613:4636   */\n      mload\n        /* \"#utility.yul\":4683:4686   */\n      dup5\n        /* \"#utility.yul\":4677:4681   */\n      dup3\n        /* \"#utility.yul\":4673:4687   */\n      sub\n        /* \"#utility.yul\":4666:4670   */\n      0x20\n        /* \"#utility.yul\":4661:4664   */\n      dup7\n        /* \"#utility.yul\":4657:4671   */\n      add\n        /* \"#utility.yul\":4650:4688   */\n      mstore\n        /* \"#utility.yul\":4709:4782   */\n      tag_147\n        /* \"#utility.yul\":4777:4781   */\n      dup3\n        /* \"#utility.yul\":4763:4775   */\n      dup3\n        /* \"#utility.yul\":4709:4782   */\n      tag_64\n      jump\t// in\n    tag_147:\n        /* \"#utility.yul\":4701:4782   */\n      swap2\n      pop\n        /* \"#utility.yul\":4558:4793   */\n      pop\n        /* \"#utility.yul\":4886:4890   */\n      0x40\n        /* \"#utility.yul\":4879:4884   */\n      dup4\n        /* \"#utility.yul\":4875:4891   */\n      add\n        /* \"#utility.yul\":4869:4892   */\n      mload\n        /* \"#utility.yul\":4905:4968   */\n      tag_148\n        /* \"#utility.yul\":4962:4966   */\n      0x40\n        /* \"#utility.yul\":4957:4960   */\n      dup7\n        /* \"#utility.yul\":4953:4967   */\n      add\n        /* \"#utility.yul\":4939:4951   */\n      dup3\n        /* \"#utility.yul\":4905:4968   */\n      tag_52\n      jump\t// in\n    tag_148:\n        /* \"#utility.yul\":4803:4978   */\n      pop\n        /* \"#utility.yul\":4995:4999   */\n      dup1\n        /* \"#utility.yul\":4988:4999   */\n      swap2\n      pop\n        /* \"#utility.yul\":4328:5005   */\n      pop\n        /* \"#utility.yul\":4210:5005   */\n      swap3\n      swap2\n      pop\n      pop\n      jump\t// out\n        /* \"#utility.yul\":5011:5275   */\n    tag_66:\n        /* \"#utility.yul\":5134:5144   */\n      0x00\n        /* \"#utility.yul\":5169:5269   */\n      tag_150\n        /* \"#utility.yul\":5265:5268   */\n      dup4\n        /* \"#utility.yul\":5257:5263   */\n      dup4\n        /* \"#utility.yul\":5169:5269   */\n      tag_65\n      jump\t// in\n    tag_150:\n        /* \"#utility.yul\":5155:5269   */\n      swap1\n      pop\n        /* \"#utility.yul\":5011:5275   */\n      swap3\n      swap2\n      pop\n      pop\n      jump\t// out\n        /* \"#utility.yul\":5281:5421   */\n    tag_67:\n        /* \"#utility.yul\":5378:5382   */\n      0x00\n        /* \"#utility.yul\":5410:5414   */\n      0x20\n        /* \"#utility.yul\":5405:5408   */\n      dup3\n        /* \"#utility.yul\":5401:5415   */\n      add\n        /* \"#utility.yul\":5393:5415   */\n      swap1\n      pop\n        /* \"#utility.yul\":5281:5421   */\n      swap2\n      swap1\n      pop\n      jump\t// out\n        /* \"#utility.yul\":5513:6640   */\n    tag_68:\n        /* \"#utility.yul\":5686:5689   */\n      0x00\n        /* \"#utility.yul\":5715:5796   */\n      tag_153\n        /* \"#utility.yul\":5790:5795   */\n      dup3\n        /* \"#utility.yul\":5715:5796   */\n      tag_57\n      jump\t// in\n    tag_153:\n        /* \"#utility.yul\":5812:5925   */\n      tag_154\n        /* \"#utility.yul\":5918:5924   */\n      dup2\n        /* \"#utility.yul\":5913:5916   */\n      dup6\n        /* \"#utility.yul\":5812:5925   */\n      tag_58\n      jump\t// in\n    tag_154:\n        /* \"#utility.yul\":5805:5925   */\n      swap4\n      pop\n        /* \"#utility.yul\":5951:5954   */\n      dup4\n        /* \"#utility.yul\":5996:6000   */\n      0x20\n        /* \"#utility.yul\":5988:5994   */\n      dup3\n        /* \"#utility.yul\":5984:6001   */\n      mul\n        /* \"#utility.yul\":5979:5982   */\n      dup6\n        /* \"#utility.yul\":5975:6002   */\n      add\n        /* \"#utility.yul\":6026:6109   */\n      tag_155\n        /* \"#utility.yul\":6103:6108   */\n      dup6\n        /* \"#utility.yul\":6026:6109   */\n      tag_59\n      jump\t// in\n    tag_155:\n        /* \"#utility.yul\":6132:6139   */\n      dup1\n        /* \"#utility.yul\":6163:6164   */\n      0x00\n        /* \"#utility.yul\":6148:6595   */\n    tag_156:\n        /* \"#utility.yul\":6173:6179   */\n      dup6\n        /* \"#utility.yul\":6170:6171   */\n      dup2\n        /* \"#utility.yul\":6167:6180   */\n      lt\n        /* \"#utility.yul\":6148:6595   */\n      iszero\n      tag_158\n      jumpi\n        /* \"#utility.yul\":6244:6253   */\n      dup5\n        /* \"#utility.yul\":6238:6242   */\n      dup5\n        /* \"#utility.yul\":6234:6254   */\n      sub\n        /* \"#utility.yul\":6229:6232   */\n      dup10\n        /* \"#utility.yul\":6222:6255   */\n      mstore\n        /* \"#utility.yul\":6295:6301   */\n      dup2\n        /* \"#utility.yul\":6289:6302   */\n      mload\n        /* \"#utility.yul\":6323:6441   */\n      tag_159\n        /* \"#utility.yul\":6436:6440   */\n      dup6\n        /* \"#utility.yul\":6421:6434   */\n      dup3\n        /* \"#utility.yul\":6323:6441   */\n      tag_66\n      jump\t// in\n    tag_159:\n        /* \"#utility.yul\":6315:6441   */\n      swap5\n      pop\n        /* \"#utility.yul\":6464:6551   */\n      tag_160\n        /* \"#utility.yul\":6544:6550   */\n      dup4\n        /* \"#utility.yul\":6464:6551   */\n      tag_67\n      jump\t// in\n    tag_160:\n        /* \"#utility.yul\":6454:6551   */\n      swap3\n      pop\n        /* \"#utility.yul\":6580:6584   */\n      0x20\n        /* \"#utility.yul\":6575:6578   */\n      dup11\n        /* \"#utility.yul\":6571:6585   */\n      add\n        /* \"#utility.yul\":6564:6585   */\n      swap10\n      pop\n        /* \"#utility.yul\":6208:6595   */\n      pop\n        /* \"#utility.yul\":6195:6196   */\n      0x01\n        /* \"#utility.yul\":6192:6193   */\n      dup2\n        /* \"#utility.yul\":6188:6197   */\n      add\n        /* \"#utility.yul\":6183:6197   */\n      swap1\n      pop\n        /* \"#utility.yul\":6148:6595   */\n      jump(tag_156)\n    tag_158:\n        /* \"#utility.yul\":6152:6166   */\n      pop\n        /* \"#utility.yul\":6611:6615   */\n      dup3\n        /* \"#utility.yul\":6604:6615   */\n      swap8\n      pop\n        /* \"#utility.yul\":6631:6634   */\n      dup8\n        /* \"#utility.yul\":6624:6634   */\n      swap6\n      pop\n        /* \"#utility.yul\":5691:6640   */\n      pop\n      pop\n      pop\n      pop\n      pop\n        /* \"#utility.yul\":5513:6640   */\n      swap3\n      swap2\n      pop\n      pop\n      jump\t// out\n        /* \"#utility.yul\":6646:7127   */\n    tag_18:\n        /* \"#utility.yul\":6843:6847   */\n      0x00\n        /* \"#utility.yul\":6881:6883   */\n      0x20\n        /* \"#utility.yul\":6870:6879   */\n      dup3\n        /* \"#utility.yul\":6866:6884   */\n      add\n        /* \"#utility.yul\":6858:6884   */\n      swap1\n      pop\n        /* \"#utility.yul\":6930:6939   */\n      dup2\n        /* \"#utility.yul\":6924:6928   */\n      dup2\n        /* \"#utility.yul\":6920:6940   */\n      sub\n        /* \"#utility.yul\":6916:6917   */\n      0x00\n        /* \"#utility.yul\":6905:6914   */\n      dup4\n        /* \"#utility.yul\":6901:6918   */\n      add\n        /* \"#utility.yul\":6894:6941   */\n      mstore\n        /* \"#utility.yul\":6958:7120   */\n      tag_162\n        /* \"#utility.yul\":7115:7119   */\n      dup2\n        /* \"#utility.yul\":7106:7112   */\n      dup5\n        /* \"#utility.yul\":6958:7120   */\n      tag_68\n      jump\t// in\n    tag_162:\n        /* \"#utility.yul\":6950:7120   */\n      swap1\n      pop\n        /* \"#utility.yul\":6646:7127   */\n      swap3\n      swap2\n      pop\n      pop\n      jump\t// out\n        /* \"#utility.yul\":7133:7208   */\n    tag_69:\n        /* \"#utility.yul\":7166:7172   */\n      0x00\n        /* \"#utility.yul\":7199:7201   */\n      0x40\n        /* \"#utility.yul\":7193:7202   */\n      mload\n        /* \"#utility.yul\":7183:7202   */\n      swap1\n      pop\n        /* \"#utility.yul\":7133:7208   */\n      swap1\n      jump\t// out\n        /* \"#utility.yul\":7214:7331   */\n    tag_70:\n        /* \"#utility.yul\":7323:7324   */\n      0x00\n        /* \"#utility.yul\":7320:7321   */\n      dup1\n        /* \"#utility.yul\":7313:7325   */\n      revert\n        /* \"#utility.yul\":7337:7454   */\n    tag_71:\n        /* \"#utility.yul\":7446:7447   */\n      0x00\n        /* \"#utility.yul\":7443:7444   */\n      dup1\n        /* \"#utility.yul\":7436:7448   */\n      revert\n        /* \"#utility.yul\":7460:7577   */\n    tag_72:\n        /* \"#utility.yul\":7569:7570   */\n      0x00\n        /* \"#utility.yul\":7566:7567   */\n      dup1\n        /* \"#utility.yul\":7559:7571   */\n      revert\n        /* \"#utility.yul\":7583:7700   */\n    tag_73:\n        /* \"#utility.yul\":7692:7693   */\n      0x00\n        /* \"#utility.yul\":7689:7690   */\n      dup1\n        /* \"#utility.yul\":7682:7694   */\n      revert\n        /* \"#utility.yul\":7706:7886   */\n    tag_74:\n        /* \"#utility.yul\":7754:7831   */\n      0x4e487b7100000000000000000000000000000000000000000000000000000000\n        /* \"#utility.yul\":7751:7752   */\n      0x00\n        /* \"#utility.yul\":7744:7832   */\n      mstore\n        /* \"#utility.yul\":7851:7855   */\n      0x41\n        /* \"#utility.yul\":7848:7849   */\n      0x04\n        /* \"#utility.yul\":7841:7856   */\n      mstore\n        /* \"#utility.yul\":7875:7879   */\n      0x24\n        /* \"#utility.yul\":7872:7873   */\n      0x00\n        /* \"#utility.yul\":7865:7880   */\n      revert\n        /* \"#utility.yul\":7892:8173   */\n    tag_75:\n        /* \"#utility.yul\":7975:8002   */\n      tag_170\n        /* \"#utility.yul\":7997:8001   */\n      dup3\n        /* \"#utility.yul\":7975:8002   */\n      tag_63\n      jump\t// in\n    tag_170:\n        /* \"#utility.yul\":7967:7973   */\n      dup2\n        /* \"#utility.yul\":7963:8003   */\n      add\n        /* \"#utility.yul\":8105:8111   */\n      dup2\n        /* \"#utility.yul\":8093:8103   */\n      dup2\n        /* \"#utility.yul\":8090:8112   */\n      lt\n        /* \"#utility.yul\":8069:8087   */\n      0xffffffffffffffff\n        /* \"#utility.yul\":8057:8067   */\n      dup3\n        /* \"#utility.yul\":8054:8088   */\n      gt\n        /* \"#utility.yul\":8051:8113   */\n      or\n        /* \"#utility.yul\":8048:8136   */\n      iszero\n      tag_171\n      jumpi\n        /* \"#utility.yul\":8116:8134   */\n      tag_172\n      tag_74\n      jump\t// in\n    tag_172:\n        /* \"#utility.yul\":8048:8136   */\n    tag_171:\n        /* \"#utility.yul\":8156:8166   */\n      dup1\n        /* \"#utility.yul\":8152:8154   */\n      0x40\n        /* \"#utility.yul\":8145:8167   */\n      mstore\n        /* \"#utility.yul\":7935:8173   */\n      pop\n        /* \"#utility.yul\":7892:8173   */\n      pop\n      pop\n      jump\t// out\n        /* \"#utility.yul\":8179:8308   */\n    tag_76:\n        /* \"#utility.yul\":8213:8219   */\n      0x00\n        /* \"#utility.yul\":8240:8260   */\n      tag_174\n      tag_69\n      jump\t// in\n    tag_174:\n        /* \"#utility.yul\":8230:8260   */\n      swap1\n      pop\n        /* \"#utility.yul\":8269:8302   */\n      tag_175\n        /* \"#utility.yul\":8297:8301   */\n      dup3\n        /* \"#utility.yul\":8289:8295   */\n      dup3\n        /* \"#utility.yul\":8269:8302   */\n      tag_75\n      jump\t// in\n    tag_175:\n        /* \"#utility.yul\":8179:8308   */\n      swap2\n      swap1\n      pop\n      jump\t// out\n        /* \"#utility.yul\":8314:8622   */\n    tag_77:\n        /* \"#utility.yul\":8376:8380   */\n      0x00\n        /* \"#utility.yul\":8466:8484   */\n      0xffffffffffffffff\n        /* \"#utility.yul\":8458:8464   */\n      dup3\n        /* \"#utility.yul\":8455:8485   */\n      gt\n        /* \"#utility.yul\":8452:8508   */\n      iszero\n      tag_177\n      jumpi\n        /* \"#utility.yul\":8488:8506   */\n      tag_178\n      tag_74\n      jump\t// in\n    tag_178:\n        /* \"#utility.yul\":8452:8508   */\n    tag_177:\n        /* \"#utility.yul\":8526:8555   */\n      tag_179\n        /* \"#utility.yul\":8548:8554   */\n      dup3\n        /* \"#utility.yul\":8526:8555   */\n      tag_63\n      jump\t// in\n    tag_179:\n        /* \"#utility.yul\":8518:8555   */\n      swap1\n      pop\n        /* \"#utility.yul\":8610:8614   */\n      0x20\n        /* \"#utility.yul\":8604:8608   */\n      dup2\n        /* \"#utility.yul\":8600:8615   */\n      add\n        /* \"#utility.yul\":8592:8615   */\n      swap1\n      pop\n        /* \"#utility.yul\":8314:8622   */\n      swap2\n      swap1\n      pop\n      jump\t// out\n        /* \"#utility.yul\":8628:8774   */\n    tag_78:\n        /* \"#utility.yul\":8725:8731   */\n      dup3\n        /* \"#utility.yul\":8720:8723   */\n      dup2\n        /* \"#utility.yul\":8715:8718   */\n      dup4\n        /* \"#utility.yul\":8702:8732   */\n      calldatacopy\n        /* \"#utility.yul\":8766:8767   */\n      0x00\n        /* \"#utility.yul\":8757:8763   */\n      dup4\n        /* \"#utility.yul\":8752:8755   */\n      dup4\n        /* \"#utility.yul\":8748:8764   */\n      add\n        /* \"#utility.yul\":8741:8768   */\n      mstore\n        /* \"#utility.yul\":8628:8774   */\n      pop\n      pop\n      pop\n      jump\t// out\n        /* \"#utility.yul\":8780:9205   */\n    tag_79:\n        /* \"#utility.yul\":8858:8863   */\n      0x00\n        /* \"#utility.yul\":8883:8949   */\n      tag_182\n        /* \"#utility.yul\":8899:8948   */\n      tag_183\n        /* \"#utility.yul\":8941:8947   */\n      dup5\n        /* \"#utility.yul\":8899:8948   */\n      tag_77\n      jump\t// in\n    tag_183:\n        /* \"#utility.yul\":8883:8949   */\n      tag_76\n      jump\t// in\n    tag_182:\n        /* \"#utility.yul\":8874:8949   */\n      swap1\n      pop\n        /* \"#utility.yul\":8972:8978   */\n      dup3\n        /* \"#utility.yul\":8965:8970   */\n      dup2\n        /* \"#utility.yul\":8958:8979   */\n      mstore\n        /* \"#utility.yul\":9010:9014   */\n      0x20\n        /* \"#utility.yul\":9003:9008   */\n      dup2\n        /* \"#utility.yul\":8999:9015   */\n      add\n        /* \"#utility.yul\":9048:9051   */\n      dup5\n        /* \"#utility.yul\":9039:9045   */\n      dup5\n        /* \"#utility.yul\":9034:9037   */\n      dup5\n        /* \"#utility.yul\":9030:9046   */\n      add\n        /* \"#utility.yul\":9027:9052   */\n      gt\n        /* \"#utility.yul\":9024:9136   */\n      iszero\n      tag_184\n      jumpi\n        /* \"#utility.yul\":9055:9134   */\n      tag_185\n      tag_73\n      jump\t// in\n    tag_185:\n        /* \"#utility.yul\":9024:9136   */\n    tag_184:\n        /* \"#utility.yul\":9145:9199   */\n      tag_186\n        /* \"#utility.yul\":9192:9198   */\n      dup5\n        /* \"#utility.yul\":9187:9190   */\n      dup3\n        /* \"#utility.yul\":9182:9185   */\n      dup6\n        /* \"#utility.yul\":9145:9199   */\n      tag_78\n      jump\t// in\n    tag_186:\n        /* \"#utility.yul\":8864:9205   */\n      pop\n        /* \"#utility.yul\":8780:9205   */\n      swap4\n      swap3\n      pop\n      pop\n      pop\n      jump\t// out\n        /* \"#utility.yul\":9225:9565   */\n    tag_80:\n        /* \"#utility.yul\":9281:9286   */\n      0x00\n        /* \"#utility.yul\":9330:9333   */\n      dup3\n        /* \"#utility.yul\":9323:9327   */\n      0x1f\n        /* \"#utility.yul\":9315:9321   */\n      dup4\n        /* \"#utility.yul\":9311:9328   */\n      add\n        /* \"#utility.yul\":9307:9334   */\n      slt\n        /* \"#utility.yul\":9297:9419   */\n      tag_188\n      jumpi\n        /* \"#utility.yul\":9338:9417   */\n      tag_189\n      tag_72\n      jump\t// in\n    tag_189:\n        /* \"#utility.yul\":9297:9419   */\n    tag_188:\n        /* \"#utility.yul\":9455:9461   */\n      dup2\n        /* \"#utility.yul\":9442:9462   */\n      calldataload\n        /* \"#utility.yul\":9480:9559   */\n      tag_190\n        /* \"#utility.yul\":9555:9558   */\n      dup5\n        /* \"#utility.yul\":9547:9553   */\n      dup3\n        /* \"#utility.yul\":9540:9544   */\n      0x20\n        /* \"#utility.yul\":9532:9538   */\n      dup7\n        /* \"#utility.yul\":9528:9545   */\n      add\n        /* \"#utility.yul\":9480:9559   */\n      tag_79\n      jump\t// in\n    tag_190:\n        /* \"#utility.yul\":9471:9559   */\n      swap2\n      pop\n        /* \"#utility.yul\":9287:9565   */\n      pop\n        /* \"#utility.yul\":9225:9565   */\n      swap3\n      swap2\n      pop\n      pop\n      jump\t// out\n        /* \"#utility.yul\":9571:9648   */\n    tag_81:\n        /* \"#utility.yul\":9608:9615   */\n      0x00\n        /* \"#utility.yul\":9637:9642   */\n      dup2\n        /* \"#utility.yul\":9626:9642   */\n      swap1\n      pop\n        /* \"#utility.yul\":9571:9648   */\n      swap2\n      swap1\n      pop\n      jump\t// out\n        /* \"#utility.yul\":9654:9776   */\n    tag_82:\n        /* \"#utility.yul\":9727:9751   */\n      tag_193\n        /* \"#utility.yul\":9745:9750   */\n      dup2\n        /* \"#utility.yul\":9727:9751   */\n      tag_81\n      jump\t// in\n    tag_193:\n        /* \"#utility.yul\":9720:9725   */\n      dup2\n        /* \"#utility.yul\":9717:9752   */\n      eq\n        /* \"#utility.yul\":9707:9770   */\n      tag_194\n      jumpi\n        /* \"#utility.yul\":9766:9767   */\n      0x00\n        /* \"#utility.yul\":9763:9764   */\n      dup1\n        /* \"#utility.yul\":9756:9768   */\n      revert\n        /* \"#utility.yul\":9707:9770   */\n    tag_194:\n        /* \"#utility.yul\":9654:9776   */\n      pop\n      jump\t// out\n        /* \"#utility.yul\":9782:9921   */\n    tag_83:\n        /* \"#utility.yul\":9828:9833   */\n      0x00\n        /* \"#utility.yul\":9866:9872   */\n      dup2\n        /* \"#utility.yul\":9853:9873   */\n      calldataload\n        /* \"#utility.yul\":9844:9873   */\n      swap1\n      pop\n        /* \"#utility.yul\":9882:9915   */\n      tag_196\n        /* \"#utility.yul\":9909:9914   */\n      dup2\n        /* \"#utility.yul\":9882:9915   */\n      tag_82\n      jump\t// in\n    tag_196:\n        /* \"#utility.yul\":9782:9921   */\n      swap3\n      swap2\n      pop\n      pop\n      jump\t// out\n        /* \"#utility.yul\":9927:10906   */\n    tag_21:\n        /* \"#utility.yul\":10024:10030   */\n      0x00\n        /* \"#utility.yul\":10032:10038   */\n      dup1\n        /* \"#utility.yul\":10040:10046   */\n      0x00\n        /* \"#utility.yul\":10089:10091   */\n      0x60\n        /* \"#utility.yul\":10077:10086   */\n      dup5\n        /* \"#utility.yul\":10068:10075   */\n      dup7\n        /* \"#utility.yul\":10064:10087   */\n      sub\n        /* \"#utility.yul\":10060:10092   */\n      slt\n        /* \"#utility.yul\":10057:10176   */\n      iszero\n      tag_198\n      jumpi\n        /* \"#utility.yul\":10095:10174   */\n      tag_199\n      tag_70\n      jump\t// in\n    tag_199:\n        /* \"#utility.yul\":10057:10176   */\n    tag_198:\n        /* \"#utility.yul\":10243:10244   */\n      0x00\n        /* \"#utility.yul\":10232:10241   */\n      dup5\n        /* \"#utility.yul\":10228:10245   */\n      add\n        /* \"#utility.yul\":10215:10246   */\n      calldataload\n        /* \"#utility.yul\":10273:10291   */\n      0xffffffffffffffff\n        /* \"#utility.yul\":10265:10271   */\n      dup2\n        /* \"#utility.yul\":10262:10292   */\n      gt\n        /* \"#utility.yul\":10259:10376   */\n      iszero\n      tag_200\n      jumpi\n        /* \"#utility.yul\":10295:10374   */\n      tag_201\n      tag_71\n      jump\t// in\n    tag_201:\n        /* \"#utility.yul\":10259:10376   */\n    tag_200:\n        /* \"#utility.yul\":10400:10463   */\n      tag_202\n        /* \"#utility.yul\":10455:10462   */\n      dup7\n        /* \"#utility.yul\":10446:10452   */\n      dup3\n        /* \"#utility.yul\":10435:10444   */\n      dup8\n        /* \"#utility.yul\":10431:10453   */\n      add\n        /* \"#utility.yul\":10400:10463   */\n      tag_80\n      jump\t// in\n    tag_202:\n        /* \"#utility.yul\":10390:10463   */\n      swap4\n      pop\n        /* \"#utility.yul\":10186:10473   */\n      pop\n        /* \"#utility.yul\":10540:10542   */\n      0x20\n        /* \"#utility.yul\":10529:10538   */\n      dup5\n        /* \"#utility.yul\":10525:10543   */\n      add\n        /* \"#utility.yul\":10512:10544   */\n      calldataload\n        /* \"#utility.yul\":10571:10589   */\n      0xffffffffffffffff\n        /* \"#utility.yul\":10563:10569   */\n      dup2\n        /* \"#utility.yul\":10560:10590   */\n      gt\n        /* \"#utility.yul\":10557:10674   */\n      iszero\n      tag_203\n      jumpi\n        /* \"#utility.yul\":10593:10672   */\n      tag_204\n      tag_71\n      jump\t// in\n    tag_204:\n        /* \"#utility.yul\":10557:10674   */\n    tag_203:\n        /* \"#utility.yul\":10698:10761   */\n      tag_205\n        /* \"#utility.yul\":10753:10760   */\n      dup7\n        /* \"#utility.yul\":10744:10750   */\n      dup3\n        /* \"#utility.yul\":10733:10742   */\n      dup8\n        /* \"#utility.yul\":10729:10751   */\n      add\n        /* \"#utility.yul\":10698:10761   */\n      tag_80\n      jump\t// in\n    tag_205:\n        /* \"#utility.yul\":10688:10761   */\n      swap3\n      pop\n        /* \"#utility.yul\":10483:10771   */\n      pop\n        /* \"#utility.yul\":10810:10812   */\n      0x40\n        /* \"#utility.yul\":10836:10889   */\n      tag_206\n        /* \"#utility.yul\":10881:10888   */\n      dup7\n        /* \"#utility.yul\":10872:10878   */\n      dup3\n        /* \"#utility.yul\":10861:10870   */\n      dup8\n        /* \"#utility.yul\":10857:10879   */\n      add\n        /* \"#utility.yul\":10836:10889   */\n      tag_83\n      jump\t// in\n    tag_206:\n        /* \"#utility.yul\":10826:10889   */\n      swap2\n      pop\n        /* \"#utility.yul\":10781:10899   */\n      pop\n        /* \"#utility.yul\":9927:10906   */\n      swap3\n      pop\n      swap3\n      pop\n      swap3\n      jump\t// out\n        /* \"#utility.yul\":10912:11092   */\n    tag_84:\n        /* \"#utility.yul\":10960:11037   */\n      0x4e487b7100000000000000000000000000000000000000000000000000000000\n        /* \"#utility.yul\":10957:10958   */\n      0x00\n        /* \"#utility.yul\":10950:11038   */\n      mstore\n        /* \"#utility.yul\":11057:11061   */\n      0x22\n        /* \"#utility.yul\":11054:11055   */\n      0x04\n        /* \"#utility.yul\":11047:11062   */\n      mstore\n        /* \"#utility.yul\":11081:11085   */\n      0x24\n        /* \"#utility.yul\":11078:11079   */\n      0x00\n        /* \"#utility.yul\":11071:11086   */\n      revert\n        /* \"#utility.yul\":11098:11418   */\n    tag_32:\n        /* \"#utility.yul\":11142:11148   */\n      0x00\n        /* \"#utility.yul\":11179:11180   */\n      0x02\n        /* \"#utility.yul\":11173:11177   */\n      dup3\n        /* \"#utility.yul\":11169:11181   */\n      div\n        /* \"#utility.yul\":11159:11181   */\n      swap1\n      pop\n        /* \"#utility.yul\":11226:11227   */\n      0x01\n        /* \"#utility.yul\":11220:11224   */\n      dup3\n        /* \"#utility.yul\":11216:11228   */\n      and\n        /* \"#utility.yul\":11247:11265   */\n      dup1\n        /* \"#utility.yul\":11237:11318   */\n      tag_209\n      jumpi\n        /* \"#utility.yul\":11303:11307   */\n      0x7f\n        /* \"#utility.yul\":11295:11301   */\n      dup3\n        /* \"#utility.yul\":11291:11308   */\n      and\n        /* \"#utility.yul\":11281:11308   */\n      swap2\n      pop\n        /* \"#utility.yul\":11237:11318   */\n    tag_209:\n        /* \"#utility.yul\":11365:11367   */\n      0x20\n        /* \"#utility.yul\":11357:11363   */\n      dup3\n        /* \"#utility.yul\":11354:11368   */\n      lt\n        /* \"#utility.yul\":11334:11352   */\n      dup2\n        /* \"#utility.yul\":11331:11369   */\n      sub\n        /* \"#utility.yul\":11328:11412   */\n      tag_210\n      jumpi\n        /* \"#utility.yul\":11384:11402   */\n      tag_211\n      tag_84\n      jump\t// in\n    tag_211:\n        /* \"#utility.yul\":11328:11412   */\n    tag_210:\n        /* \"#utility.yul\":11149:11418   */\n      pop\n        /* \"#utility.yul\":11098:11418   */\n      swap2\n      swap1\n      pop\n      jump\t// out\n        /* \"#utility.yul\":11424:11593   */\n    tag_85:\n        /* \"#utility.yul\":11508:11519   */\n      0x00\n        /* \"#utility.yul\":11542:11548   */\n      dup3\n        /* \"#utility.yul\":11537:11540   */\n      dup3\n        /* \"#utility.yul\":11530:11549   */\n      mstore\n        /* \"#utility.yul\":11582:11586   */\n      0x20\n        /* \"#utility.yul\":11577:11580   */\n      dup3\n        /* \"#utility.yul\":11573:11587   */\n      add\n        /* \"#utility.yul\":11558:11587   */\n      swap1\n      pop\n        /* \"#utility.yul\":11424:11593   */\n      swap3\n      swap2\n      pop\n      pop\n      jump\t// out\n        /* \"#utility.yul\":11599:11976   */\n    tag_86:\n        /* \"#utility.yul\":11687:11690   */\n      0x00\n        /* \"#utility.yul\":11715:11754   */\n      tag_214\n        /* \"#utility.yul\":11748:11753   */\n      dup3\n        /* \"#utility.yul\":11715:11754   */\n      tag_60\n      jump\t// in\n    tag_214:\n        /* \"#utility.yul\":11770:11841   */\n      tag_215\n        /* \"#utility.yul\":11834:11840   */\n      dup2\n        /* \"#utility.yul\":11829:11832   */\n      dup6\n        /* \"#utility.yul\":11770:11841   */\n      tag_85\n      jump\t// in\n    tag_215:\n        /* \"#utility.yul\":11763:11841   */\n      swap4\n      pop\n        /* \"#utility.yul\":11850:11915   */\n      tag_216\n        /* \"#utility.yul\":11908:11914   */\n      dup2\n        /* \"#utility.yul\":11903:11906   */\n      dup6\n        /* \"#utility.yul\":11896:11900   */\n      0x20\n        /* \"#utility.yul\":11889:11894   */\n      dup7\n        /* \"#utility.yul\":11885:11901   */\n      add\n        /* \"#utility.yul\":11850:11915   */\n      tag_62\n      jump\t// in\n    tag_216:\n        /* \"#utility.yul\":11940:11969   */\n      tag_217\n        /* \"#utility.yul\":11962:11968   */\n      dup2\n        /* \"#utility.yul\":11940:11969   */\n      tag_63\n      jump\t// in\n    tag_217:\n        /* \"#utility.yul\":11935:11938   */\n      dup5\n        /* \"#utility.yul\":11931:11970   */\n      add\n        /* \"#utility.yul\":11924:11970   */\n      swap2\n      pop\n        /* \"#utility.yul\":11691:11976   */\n      pop\n        /* \"#utility.yul\":11599:11976   */\n      swap3\n      swap2\n      pop\n      pop\n      jump\t// out\n        /* \"#utility.yul\":11982:12100   */\n    tag_87:\n        /* \"#utility.yul\":12069:12093   */\n      tag_219\n        /* \"#utility.yul\":12087:12092   */\n      dup2\n        /* \"#utility.yul\":12069:12093   */\n      tag_81\n      jump\t// in\n    tag_219:\n        /* \"#utility.yul\":12064:12067   */\n      dup3\n        /* \"#utility.yul\":12057:12094   */\n      mstore\n        /* \"#utility.yul\":11982:12100   */\n      pop\n      pop\n      jump\t// out\n        /* \"#utility.yul\":12106:12841   */\n    tag_41:\n        /* \"#utility.yul\":12323:12327   */\n      0x00\n        /* \"#utility.yul\":12361:12364   */\n      0x80\n        /* \"#utility.yul\":12350:12359   */\n      dup3\n        /* \"#utility.yul\":12346:12365   */\n      add\n        /* \"#utility.yul\":12338:12365   */\n      swap1\n      pop\n        /* \"#utility.yul\":12411:12420   */\n      dup2\n        /* \"#utility.yul\":12405:12409   */\n      dup2\n        /* \"#utility.yul\":12401:12421   */\n      sub\n        /* \"#utility.yul\":12397:12398   */\n      0x00\n        /* \"#utility.yul\":12386:12395   */\n      dup4\n        /* \"#utility.yul\":12382:12399   */\n      add\n        /* \"#utility.yul\":12375:12422   */\n      mstore\n        /* \"#utility.yul\":12439:12517   */\n      tag_221\n        /* \"#utility.yul\":12512:12516   */\n      dup2\n        /* \"#utility.yul\":12503:12509   */\n      dup8\n        /* \"#utility.yul\":12439:12517   */\n      tag_86\n      jump\t// in\n    tag_221:\n        /* \"#utility.yul\":12431:12517   */\n      swap1\n      pop\n        /* \"#utility.yul\":12564:12573   */\n      dup2\n        /* \"#utility.yul\":12558:12562   */\n      dup2\n        /* \"#utility.yul\":12554:12574   */\n      sub\n        /* \"#utility.yul\":12549:12551   */\n      0x20\n        /* \"#utility.yul\":12538:12547   */\n      dup4\n        /* \"#utility.yul\":12534:12552   */\n      add\n        /* \"#utility.yul\":12527:12575   */\n      mstore\n        /* \"#utility.yul\":12592:12670   */\n      tag_222\n        /* \"#utility.yul\":12665:12669   */\n      dup2\n        /* \"#utility.yul\":12656:12662   */\n      dup7\n        /* \"#utility.yul\":12592:12670   */\n      tag_86\n      jump\t// in\n    tag_222:\n        /* \"#utility.yul\":12584:12670   */\n      swap1\n      pop\n        /* \"#utility.yul\":12680:12752   */\n      tag_223\n        /* \"#utility.yul\":12748:12750   */\n      0x40\n        /* \"#utility.yul\":12737:12746   */\n      dup4\n        /* \"#utility.yul\":12733:12751   */\n      add\n        /* \"#utility.yul\":12724:12730   */\n      dup6\n        /* \"#utility.yul\":12680:12752   */\n      tag_87\n      jump\t// in\n    tag_223:\n        /* \"#utility.yul\":12762:12834   */\n      tag_224\n        /* \"#utility.yul\":12830:12832   */\n      0x60\n        /* \"#utility.yul\":12819:12828   */\n      dup4\n        /* \"#utility.yul\":12815:12833   */\n      add\n        /* \"#utility.yul\":12806:12812   */\n      dup5\n        /* \"#utility.yul\":12762:12834   */\n      tag_56\n      jump\t// in\n    tag_224:\n        /* \"#utility.yul\":12106:12841   */\n      swap6\n      swap5\n      pop\n      pop\n      pop\n      pop\n      pop\n      jump\t// out\n        /* \"#utility.yul\":12847:12988   */\n    tag_88:\n        /* \"#utility.yul\":12896:12900   */\n      0x00\n        /* \"#utility.yul\":12919:12922   */\n      dup2\n        /* \"#utility.yul\":12911:12922   */\n      swap1\n      pop\n        /* \"#utility.yul\":12942:12945   */\n      dup2\n        /* \"#utility.yul\":12939:12940   */\n      0x00\n        /* \"#utility.yul\":12932:12946   */\n      mstore\n        /* \"#utility.yul\":12976:12980   */\n      0x20\n        /* \"#utility.yul\":12973:12974   */\n      0x00\n        /* \"#utility.yul\":12963:12981   */\n      keccak256\n        /* \"#utility.yul\":12955:12981   */\n      swap1\n      pop\n        /* \"#utility.yul\":12847:12988   */\n      swap2\n      swap1\n      pop\n      jump\t// out\n        /* \"#utility.yul\":12994:13087   */\n    tag_89:\n        /* \"#utility.yul\":13031:13037   */\n      0x00\n        /* \"#utility.yul\":13078:13080   */\n      0x20\n        /* \"#utility.yul\":13073:13075   */\n      0x1f\n        /* \"#utility.yul\":13066:13071   */\n      dup4\n        /* \"#utility.yul\":13062:13076   */\n      add\n        /* \"#utility.yul\":13058:13081   */\n      div\n        /* \"#utility.yul\":13048:13081   */\n      swap1\n      pop\n        /* \"#utility.yul\":12994:13087   */\n      swap2\n      swap1\n      pop\n      jump\t// out\n        /* \"#utility.yul\":13093:13200   */\n    tag_90:\n        /* \"#utility.yul\":13137:13145   */\n      0x00\n        /* \"#utility.yul\":13187:13192   */\n      dup3\n        /* \"#utility.yul\":13181:13185   */\n      dup3\n        /* \"#utility.yul\":13177:13193   */\n      shl\n        /* \"#utility.yul\":13156:13193   */\n      swap1\n      pop\n        /* \"#utility.yul\":13093:13200   */\n      swap3\n      swap2\n      pop\n      pop\n      jump\t// out\n        /* \"#utility.yul\":13206:13599   */\n    tag_91:\n        /* \"#utility.yul\":13275:13281   */\n      0x00\n        /* \"#utility.yul\":13325:13326   */\n      0x08\n        /* \"#utility.yul\":13313:13323   */\n      dup4\n        /* \"#utility.yul\":13309:13327   */\n      mul\n        /* \"#utility.yul\":13348:13445   */\n      tag_229\n        /* \"#utility.yul\":13378:13444   */\n      0xffffffffffffffffffffffffffffffffffffffffffffffffffffffffffffffff\n        /* \"#utility.yul\":13367:13376   */\n      dup3\n        /* \"#utility.yul\":13348:13445   */\n      tag_90\n      jump\t// in\n    tag_229:\n        /* \"#utility.yul\":13466:13505   */\n      tag_230\n        /* \"#utility.yul\":13496:13504   */\n      dup7\n        /* \"#utility.yul\":13485:13494   */\n      dup4\n        /* \"#utility.yul\":13466:13505   */\n      tag_90\n      jump\t// in\n    tag_230:\n        /* \"#utility.yul\":13454:13505   */\n      swap6\n      pop\n        /* \"#utility.yul\":13538:13542   */\n      dup1\n        /* \"#utility.yul\":13534:13543   */\n      not\n        /* \"#utility.yul\":13527:13532   */\n      dup5\n        /* \"#utility.yul\":13523:13544   */\n      and\n        /* \"#utility.yul\":13514:13544   */\n      swap4\n      pop\n        /* \"#utility.yul\":13587:13591   */\n      dup1\n        /* \"#utility.yul\":13577:13585   */\n      dup7\n        /* \"#utility.yul\":13573:13592   */\n      and\n        /* \"#utility.yul\":13566:13571   */\n      dup5\n        /* \"#utility.yul\":13563:13593   */\n      or\n        /* \"#utility.yul\":13553:13593   */\n      swap3\n      pop\n        /* \"#utility.yul\":13282:13599   */\n      pop\n      pop\n        /* \"#utility.yul\":13206:13599   */\n      swap4\n      swap3\n      pop\n      pop\n      pop\n      jump\t// out\n        /* \"#utility.yul\":13605:13665   */\n    tag_92:\n        /* \"#utility.yul\":13633:13636   */\n      0x00\n        /* \"#utility.yul\":13654:13659   */\n      dup2\n        /* \"#utility.yul\":13647:13659   */\n      swap1\n      pop\n        /* \"#utility.yul\":13605:13665   */\n      swap2\n      swap1\n      pop\n      jump\t// out\n        /* \"#utility.yul\":13671:13813   */\n    tag_93:\n        /* \"#utility.yul\":13721:13730   */\n      0x00\n        /* \"#utility.yul\":13754:13807   */\n      tag_233\n        /* \"#utility.yul\":13772:13806   */\n      tag_234\n        /* \"#utility.yul\":13781:13805   */\n      tag_235\n        /* \"#utility.yul\":13799:13804   */\n      dup5\n        /* \"#utility.yul\":13781:13805   */\n      tag_81\n      jump\t// in\n    tag_235:\n        /* \"#utility.yul\":13772:13806   */\n      tag_92\n      jump\t// in\n    tag_234:\n        /* \"#utility.yul\":13754:13807   */\n      tag_81\n      jump\t// in\n    tag_233:\n        /* \"#utility.yul\":13741:13807   */\n      swap1\n      pop\n        /* \"#utility.yul\":13671:13813   */\n      swap2\n      swap1\n      pop\n      jump\t// out\n        /* \"#utility.yul\":13819:13894   */\n    tag_94:\n        /* \"#utility.yul\":13862:13865   */\n      0x00\n        /* \"#utility.yul\":13883:13888   */\n      dup2\n        /* \"#utility.yul\":13876:13888   */\n      swap1\n      pop\n        /* \"#utility.yul\":13819:13894   */\n      swap2\n      swap1\n      pop\n      jump\t// out\n        /* \"#utility.yul\":13900:14169   */\n    tag_95:\n        /* \"#utility.yul\":14010:14049   */\n      tag_238\n        /* \"#utility.yul\":14041:14048   */\n      dup4\n        /* \"#utility.yul\":14010:14049   */\n      tag_93\n      jump\t// in\n    tag_238:\n        /* \"#utility.yul\":14071:14162   */\n      tag_239\n        /* \"#utility.yul\":14120:14161   */\n      tag_240\n        /* \"#utility.yul\":14144:14160   */\n      dup3\n        /* \"#utility.yul\":14120:14161   */\n      tag_94\n      jump\t// in\n    tag_240:\n        /* \"#utility.yul\":14112:14118   */\n      dup5\n        /* \"#utility.yul\":14105:14109   */\n      dup5\n        /* \"#utility.yul\":14099:14110   */\n      sload\n        /* \"#utility.yul\":14071:14162   */\n      tag_91\n      jump\t// in\n    tag_239:\n        /* \"#utility.yul\":14065:14069   */\n      dup3\n        /* \"#utility.yul\":14058:14163   */\n      sstore\n        /* \"#utility.yul\":13976:14169   */\n      pop\n        /* \"#utility.yul\":13900:14169   */\n      pop\n      pop\n      pop\n      jump\t// out\n        /* \"#utility.yul\":14175:14248   */\n    tag_96:\n        /* \"#utility.yul\":14220:14223   */\n      0x00\n        /* \"#utility.yul\":14175:14248   */\n      swap1\n      jump\t// out\n        /* \"#utility.yul\":14254:14443   */\n    tag_97:\n        /* \"#utility.yul\":14331:14363   */\n      tag_243\n      tag_96\n      jump\t// in\n    tag_243:\n        /* \"#utility.yul\":14372:14437   */\n      tag_244\n        /* \"#utility.yul\":14430:14436   */\n      dup2\n        /* \"#utility.yul\":14422:14428   */\n      dup5\n        /* \"#utility.yul\":14416:14420   */\n      dup5\n        /* \"#utility.yul\":14372:14437   */\n      tag_95\n      jump\t// in\n    tag_244:\n        /* \"#utility.yul\":14307:14443   */\n      pop\n        /* \"#utility.yul\":14254:14443   */\n      pop\n      pop\n      jump\t// out\n        /* \"#utility.yul\":14449:14635   */\n    tag_98:\n        /* \"#utility.yul\":14509:14629   */\n    tag_246:\n        /* \"#utility.yul\":14526:14529   */\n      dup2\n        /* \"#utility.yul\":14519:14524   */\n      dup2\n        /* \"#utility.yul\":14516:14530   */\n      lt\n        /* \"#utility.yul\":14509:14629   */\n      iszero\n      tag_248\n      jumpi\n        /* \"#utility.yul\":14580:14619   */\n      tag_249\n        /* \"#utility.yul\":14617:14618   */\n      0x00\n        /* \"#utility.yul\":14610:14615   */\n      dup3\n        /* \"#utility.yul\":14580:14619   */\n      tag_97\n      jump\t// in\n    tag_249:\n        /* \"#utility.yul\":14553:14554   */\n      0x01\n        /* \"#utility.yul\":14546:14551   */\n      dup2\n        /* \"#utility.yul\":14542:14555   */\n      add\n        /* \"#utility.yul\":14533:14555   */\n      swap1\n      pop\n        /* \"#utility.yul\":14509:14629   */\n      jump(tag_246)\n    tag_248:\n        /* \"#utility.yul\":14449:14635   */\n      pop\n      pop\n      jump\t// out\n        /* \"#utility.yul\":14641:15184   */\n    tag_99:\n        /* \"#utility.yul\":14742:14744   */\n      0x1f\n        /* \"#utility.yul\":14737:14740   */\n      dup3\n        /* \"#utility.yul\":14734:14745   */\n      gt\n        /* \"#utility.yul\":14731:15177   */\n      iszero\n      tag_251\n      jumpi\n        /* \"#utility.yul\":14776:14814   */\n      tag_252\n        /* \"#utility.yul\":14808:14813   */\n      dup2\n        /* \"#utility.yul\":14776:14814   */\n      tag_88\n      jump\t// in\n    tag_252:\n        /* \"#utility.yul\":14860:14889   */\n      tag_253\n        /* \"#utility.yul\":14878:14888   */\n      dup5\n        /* \"#utility.yul\":14860:14889   */\n      tag_89\n      jump\t// in\n    tag_253:\n        /* \"#utility.yul\":14850:14858   */\n      dup2\n        /* \"#utility.yul\":14846:14890   */\n      add\n        /* \"#utility.yul\":15043:15045   */\n      0x20\n        /* \"#utility.yul\":15031:15041   */\n      dup6\n        /* \"#utility.yul\":15028:15046   */\n      lt\n        /* \"#utility.yul\":15025:15074   */\n      iszero\n      tag_254\n      jumpi\n        /* \"#utility.yul\":15064:15072   */\n      dup2\n        /* \"#utility.yul\":15049:15072   */\n      swap1\n      pop\n        /* \"#utility.yul\":15025:15074   */\n    tag_254:\n        /* \"#utility.yul\":15087:15167   */\n      tag_255\n        /* \"#utility.yul\":15143:15165   */\n      tag_256\n        /* \"#utility.yul\":15161:15164   */\n      dup6\n        /* \"#utility.yul\":15143:15165   */\n      tag_89\n      jump\t// in\n    tag_256:\n        /* \"#utility.yul\":15133:15141   */\n      dup4\n        /* \"#utility.yul\":15129:15166   */\n      add\n        /* \"#utility.yul\":15116:15127   */\n      dup3\n        /* \"#utility.yul\":15087:15167   */\n      tag_98\n      jump\t// in\n    tag_255:\n        /* \"#utility.yul\":14746:15177   */\n      pop\n      pop\n        /* \"#utility.yul\":14731:15177   */\n    tag_251:\n        /* \"#utility.yul\":14641:15184   */\n      pop\n      pop\n      pop\n      jump\t// out\n        /* \"#utility.yul\":15190:15307   */\n    tag_100:\n        /* \"#utility.yul\":15244:15252   */\n      0x00\n        /* \"#utility.yul\":15294:15299   */\n      dup3\n        /* \"#utility.yul\":15288:15292   */\n      dup3\n        /* \"#utility.yul\":15284:15300   */\n      shr\n        /* \"#utility.yul\":15263:15300   */\n      swap1\n      pop\n        /* \"#utility.yul\":15190:15307   */\n      swap3\n      swap2\n      pop\n      pop\n      jump\t// out\n        /* \"#utility.yul\":15313:15482   */\n    tag_101:\n        /* \"#utility.yul\":15357:15363   */\n      0x00\n        /* \"#utility.yul\":15390:15441   */\n      tag_259\n        /* \"#utility.yul\":15438:15439   */\n      0x00\n        /* \"#utility.yul\":15434:15440   */\n      not\n        /* \"#utility.yul\":15426:15431   */\n      dup5\n        /* \"#utility.yul\":15423:15424   */\n      0x08\n        /* \"#utility.yul\":15419:15432   */\n      mul\n        /* \"#utility.yul\":15390:15441   */\n      tag_100\n      jump\t// in\n    tag_259:\n        /* \"#utility.yul\":15386:15442   */\n      not\n        /* \"#utility.yul\":15471:15475   */\n      dup1\n        /* \"#utility.yul\":15465:15469   */\n      dup4\n        /* \"#utility.yul\":15461:15476   */\n      and\n        /* \"#utility.yul\":15451:15476   */\n      swap2\n      pop\n        /* \"#utility.yul\":15364:15482   */\n      pop\n        /* \"#utility.yul\":15313:15482   */\n      swap3\n      swap2\n      pop\n      pop\n      jump\t// out\n        /* \"#utility.yul\":15487:15782   */\n    tag_102:\n        /* \"#utility.yul\":15563:15567   */\n      0x00\n        /* \"#utility.yul\":15709:15738   */\n      tag_261\n        /* \"#utility.yul\":15734:15737   */\n      dup4\n        /* \"#utility.yul\":15728:15732   */\n      dup4\n        /* \"#utility.yul\":15709:15738   */\n      tag_101\n      jump\t// in\n    tag_261:\n        /* \"#utility.yul\":15701:15738   */\n      swap2\n      pop\n        /* \"#utility.yul\":15771:15774   */\n      dup3\n        /* \"#utility.yul\":15768:15769   */\n      0x02\n        /* \"#utility.yul\":15764:15775   */\n      mul\n        /* \"#utility.yul\":15758:15762   */\n      dup3\n        /* \"#utility.yul\":15755:15776   */\n      or\n        /* \"#utility.yul\":15747:15776   */\n      swap1\n      pop\n        /* \"#utility.yul\":15487:15782   */\n      swap3\n      swap2\n      pop\n      pop\n      jump\t// out\n        /* \"#utility.yul\":15787:17182   */\n    tag_46:\n        /* \"#utility.yul\":15904:15941   */\n      tag_263\n        /* \"#utility.yul\":15937:15940   */\n      dup3\n        /* \"#utility.yul\":15904:15941   */\n      tag_60\n      jump\t// in\n    tag_263:\n        /* \"#utility.yul\":16006:16024   */\n      0xffffffffffffffff\n        /* \"#utility.yul\":15998:16004   */\n      dup2\n        /* \"#utility.yul\":15995:16025   */\n      gt\n        /* \"#utility.yul\":15992:16048   */\n      iszero\n      tag_264\n      jumpi\n        /* \"#utility.yul\":16028:16046   */\n      tag_265\n      tag_74\n      jump\t// in\n    tag_265:\n        /* \"#utility.yul\":15992:16048   */\n    tag_264:\n        /* \"#utility.yul\":16072:16110   */\n      tag_266\n        /* \"#utility.yul\":16104:16108   */\n      dup3\n        /* \"#utility.yul\":16098:16109   */\n      sload\n        /* \"#utility.yul\":16072:16110   */\n      tag_32\n      jump\t// in\n    tag_266:\n        /* \"#utility.yul\":16157:16224   */\n      tag_267\n        /* \"#utility.yul\":16217:16223   */\n      dup3\n        /* \"#utility.yul\":16209:16215   */\n      dup3\n        /* \"#utility.yul\":16203:16207   */\n      dup6\n        /* \"#utility.yul\":16157:16224   */\n      tag_99\n      jump\t// in\n    tag_267:\n        /* \"#utility.yul\":16251:16252   */\n      0x00\n        /* \"#utility.yul\":16275:16279   */\n      0x20\n        /* \"#utility.yul\":16262:16279   */\n      swap1\n      pop\n        /* \"#utility.yul\":16307:16309   */\n      0x1f\n        /* \"#utility.yul\":16299:16305   */\n      dup4\n        /* \"#utility.yul\":16296:16310   */\n      gt\n        /* \"#utility.yul\":16324:16325   */\n      0x01\n        /* \"#utility.yul\":16319:16937   */\n      dup2\n      eq\n      tag_269\n      jumpi\n        /* \"#utility.yul\":16981:16982   */\n      0x00\n        /* \"#utility.yul\":16998:17004   */\n      dup5\n        /* \"#utility.yul\":16995:17072   */\n      iszero\n      tag_270\n      jumpi\n        /* \"#utility.yul\":17047:17056   */\n      dup3\n        /* \"#utility.yul\":17042:17045   */\n      dup8\n        /* \"#utility.yul\":17038:17057   */\n      add\n        /* \"#utility.yul\":17032:17058   */\n      mload\n        /* \"#utility.yul\":17023:17058   */\n      swap1\n      pop\n        /* \"#utility.yul\":16995:17072   */\n    tag_270:\n        /* \"#utility.yul\":17098:17165   */\n      tag_271\n        /* \"#utility.yul\":17158:17164   */\n      dup6\n        /* \"#utility.yul\":17151:17156   */\n      dup3\n        /* \"#utility.yul\":17098:17165   */\n      tag_102\n      jump\t// in\n    tag_271:\n        /* \"#utility.yul\":17092:17096   */\n      dup7\n        /* \"#utility.yul\":17085:17166   */\n      sstore\n        /* \"#utility.yul\":16954:17176   */\n      pop\n        /* \"#utility.yul\":16289:17176   */\n      jump(tag_268)\n        /* \"#utility.yul\":16319:16937   */\n    tag_269:\n        /* \"#utility.yul\":16371:16375   */\n      0x1f\n        /* \"#utility.yul\":16367:16376   */\n      not\n        /* \"#utility.yul\":16359:16365   */\n      dup5\n        /* \"#utility.yul\":16355:16377   */\n      and\n        /* \"#utility.yul\":16405:16442   */\n      tag_272\n        /* \"#utility.yul\":16437:16441   */\n      dup7\n        /* \"#utility.yul\":16405:16442   */\n      tag_88\n      jump\t// in\n    tag_272:\n        /* \"#utility.yul\":16464:16465   */\n      0x00\n        /* \"#utility.yul\":16478:16686   */\n    tag_273:\n        /* \"#utility.yul\":16492:16499   */\n      dup3\n        /* \"#utility.yul\":16489:16490   */\n      dup2\n        /* \"#utility.yul\":16486:16500   */\n      lt\n        /* \"#utility.yul\":16478:16686   */\n      iszero\n      tag_275\n      jumpi\n        /* \"#utility.yul\":16571:16580   */\n      dup5\n        /* \"#utility.yul\":16566:16569   */\n      dup10\n        /* \"#utility.yul\":16562:16581   */\n      add\n        /* \"#utility.yul\":16556:16582   */\n      mload\n        /* \"#utility.yul\":16548:16554   */\n      dup3\n        /* \"#utility.yul\":16541:16583   */\n      sstore\n        /* \"#utility.yul\":16622:16623   */\n      0x01\n        /* \"#utility.yul\":16614:16620   */\n      dup3\n        /* \"#utility.yul\":16610:16624   */\n      add\n        /* \"#utility.yul\":16600:16624   */\n      swap2\n      pop\n        /* \"#utility.yul\":16669:16671   */\n      0x20\n        /* \"#utility.yul\":16658:16667   */\n      dup6\n        /* \"#utility.yul\":16654:16672   */\n      add\n        /* \"#utility.yul\":16641:16672   */\n      swap5\n      pop\n        /* \"#utility.yul\":16515:16519   */\n      0x20\n        /* \"#utility.yul\":16512:16513   */\n      dup2\n        /* \"#utility.yul\":16508:16520   */\n      add\n        /* \"#utility.yul\":16503:16520   */\n      swap1\n      pop\n        /* \"#utility.yul\":16478:16686   */\n      jump(tag_273)\n    tag_275:\n        /* \"#utility.yul\":16714:16720   */\n      dup7\n        /* \"#utility.yul\":16705:16712   */\n      dup4\n        /* \"#utility.yul\":16702:16721   */\n      lt\n        /* \"#utility.yul\":16699:16878   */\n      iszero\n      tag_276\n      jumpi\n        /* \"#utility.yul\":16772:16781   */\n      dup5\n        /* \"#utility.yul\":16767:16770   */\n      dup10\n        /* \"#utility.yul\":16763:16782   */\n      add\n        /* \"#utility.yul\":16757:16783   */\n      mload\n        /* \"#utility.yul\":16815:16863   */\n      tag_277\n        /* \"#utility.yul\":16857:16861   */\n      0x1f\n        /* \"#utility.yul\":16849:16855   */\n      dup10\n        /* \"#utility.yul\":16845:16862   */\n      and\n        /* \"#utility.yul\":16834:16843   */\n      dup3\n        /* \"#utility.yul\":16815:16863   */\n      tag_101\n      jump\t// in\n    tag_277:\n        /* \"#utility.yul\":16807:16813   */\n      dup4\n        /* \"#utility.yul\":16800:16864   */\n      sstore\n        /* \"#utility.yul\":16722:16878   */\n      pop\n        /* \"#utility.yul\":16699:16878   */\n    tag_276:\n        /* \"#utility.yul\":16924:16925   */\n      0x01\n        /* \"#utility.yul\":16920:16921   */\n      0x02\n        /* \"#utility.yul\":16912:16918   */\n      dup9\n        /* \"#utility.yul\":16908:16922   */\n      mul\n        /* \"#utility.yul\":16904:16926   */\n      add\n        /* \"#utility.yul\":16898:16902   */\n      dup9\n        /* \"#utility.yul\":16891:16927   */\n      sstore\n        /* \"#utility.yul\":16326:16937   */\n      pop\n      pop\n      pop\n        /* \"#utility.yul\":16289:17176   */\n    tag_268:\n      pop\n        /* \"#utility.yul\":15879:17182   */\n      pop\n      pop\n      pop\n        /* \"#utility.yul\":15787:17182   */\n      pop\n      pop\n      jump\t// out\n    stop\n\n    sub_0: assembly {\n            /* \"Campaign.sol\":1142:6052  contract Campaign... */\n          mstore(0x40, 0x80)\n            /* \"Campaign.sol\":2095:2348  constructor (string memory name, string memory description, uint minimum, address mngr)... */\n          callvalue\n          dup1\n          iszero\n          tag_1\n          jumpi\n          0x00\n          dup1\n          revert\n        tag_1:\n          pop\n          mload(0x40)\n          sub(codesize, bytecodeSize)\n          dup1\n          bytecodeSize\n          dup4\n          codecopy\n          dup2\n          dup2\n          add\n          0x40\n          mstore\n          dup2\n          add\n          swap1\n          tag_2\n          swap2\n          swap1\n          tag_3\n          jump\t// in\n        tag_2:\n            /* \"Campaign.sol\":2215:2216  0 */\n          0x00\n            /* \"Campaign.sol\":2205:2212  minimum */\n          dup3\n            /* \"Campaign.sol\":2205:2216  minimum > 0 */\n          gt\n            /* \"Campaign.sol\":2197:2217  require(minimum > 0) */\n          tag_6\n          jumpi\n          0x00\n          dup1\n          revert\n        tag_6:\n            /* \"Campaign.sol\":2238:2242  mngr */\n          dup1\n            /* \"Campaign.sol\":2227:2235  _manager */\n          0x02\n          0x00\n            /* \"Campaign.sol\":2227:2242  _manager = mngr */\n          0x0100\n          exp\n          dup2\n          sload\n          dup2\n          0xffffffffffffffffffffffffffffffffffffffff\n          mul\n          not\n          and\n          swap1\n          dup4\n          0xffffffffffffffffffffffffffffffffffffffff\n          and\n          mul\n          or\n          swap1\n          sstore\n          pop\n            /* \"Campaign.sol\":2260:2264  name */\n          dup4\n            /* \"Campaign.sol\":2252:2257  _name */\n          0x00\n            /* \"Campaign.sol\":2252:2264  _name = name */\n          swap1\n          dup2\n          tag_7\n          swap2\n          swap1\n          tag_8\n          jump\t// in\n        tag_7:\n          pop\n            /* \"Campaign.sol\":2289:2300  description */\n          dup3\n            /* \"Campaign.sol\":2274:2286  _description */\n          0x01\n            /* \"Campaign.sol\":2274:2300  _description = description */\n          swap1\n          dup2\n          tag_9\n          swap2\n          swap1\n          tag_8\n          jump\t// in\n        tag_9:\n          pop\n            /* \"Campaign.sol\":2334:2341  minimum */\n          dup2\n            /* \"Campaign.sol\":2311:2331  _minimumContribution */\n          0x05\n            /* \"Campaign.sol\":2311:2341  _minimumContribution = minimum */\n          dup2\n          swap1\n          sstore\n          pop\n            /* \"Campaign.sol\":2095:2348  constructor (string memory name, string memory description, uint minimum, address mngr)... */\n          pop\n          pop\n          pop\n          pop\n            /* \"Campaign.sol\":1142:6052  contract Campaign... */\n          jump(tag_10)\n            /* \"#utility.yul\":7:82   */\n        tag_11:\n            /* \"#utility.yul\":40:46   */\n          0x00\n            /* \"#utility.yul\":73:75   */\n          0x40\n            /* \"#utility.yul\":67:76   */\n          mload\n            /* \"#utility.yul\":57:76   */\n          swap1\n          pop\n            /* \"#utility.yul\":7:82   */\n          swap1\n          jump\t// out\n            /* \"#utility.yul\":88:205   */\n        tag_12:\n            /* \"#utility.yul\":197:198   */\n          0x00\n            /* \"#utility.yul\":194:195   */\n          dup1\n            /* \"#utility.yul\":187:199   */\n          revert\n            /* \"#utility.yul\":211:328   */\n        tag_13:\n            /* \"#utility.yul\":320:321   */\n          0x00\n            /* \"#utility.yul\":317:318   */\n          dup1\n            /* \"#utility.yul\":310:322   */\n          revert\n            /* \"#utility.yul\":334:451   */\n        tag_14:\n            /* \"#utility.yul\":443:444   */\n          0x00\n            /* \"#utility.yul\":440:441   */\n          dup1\n            /* \"#utility.yul\":433:445   */\n          revert\n            /* \"#utility.yul\":457:574   */\n        tag_15:\n            /* \"#utility.yul\":566:567   */\n          0x00\n            /* \"#utility.yul\":563:564   */\n          dup1\n            /* \"#utility.yul\":556:568   */\n          revert\n            /* \"#utility.yul\":580:682   */\n        tag_16:\n            /* \"#utility.yul\":621:627   */\n          0x00\n            /* \"#utility.yul\":672:674   */\n          0x1f\n            /* \"#utility.yul\":668:675   */\n          not\n            /* \"#utility.yul\":663:665   */\n          0x1f\n            /* \"#utility.yul\":656:661   */\n          dup4\n            /* \"#utility.yul\":652:666   */\n          add\n            /* \"#utility.yul\":648:676   */\n          and\n            /* \"#utility.yul\":638:676   */\n          swap1\n          pop\n            /* \"#utility.yul\":580:682   */\n          swap2\n          swap1\n          pop\n          jump\t// out\n            /* \"#utility.yul\":688:868   */\n        tag_17:\n            /* \"#utility.yul\":736:813   */\n          0x4e487b7100000000000000000000000000000000000000000000000000000000\n            /* \"#utility.yul\":733:734   */\n          0x00\n            /* \"#utility.yul\":726:814   */\n          mstore\n            /* \"#utility.yul\":833:837   */\n          0x41\n            /* \"#utility.yul\":830:831   */\n          0x04\n            /* \"#utility.yul\":823:838   */\n          mstore\n            /* \"#utility.yul\":857:861   */\n          0x24\n            /* \"#utility.yul\":854:855   */\n          0x00\n            /* \"#utility.yul\":847:862   */\n          revert\n            /* \"#utility.yul\":874:1155   */\n        tag_18:\n            /* \"#utility.yul\":957:984   */\n          tag_58\n            /* \"#utility.yul\":979:983   */\n          dup3\n            /* \"#utility.yul\":957:984   */\n          tag_16\n          jump\t// in\n        tag_58:\n            /* \"#utility.yul\":949:955   */\n          dup2\n            /* \"#utility.yul\":945:985   */\n          add\n            /* \"#utility.yul\":1087:1093   */\n          dup2\n            /* \"#utility.yul\":1075:1085   */\n          dup2\n            /* \"#utility.yul\":1072:1094   */\n          lt\n            /* \"#utility.yul\":1051:1069   */\n          0xffffffffffffffff\n            /* \"#utility.yul\":1039:1049   */\n          dup3\n            /* \"#utility.yul\":1036:1070   */\n          gt\n            /* \"#utility.yul\":1033:1095   */\n          or\n            /* \"#utility.yul\":1030:1118   */\n          iszero\n          tag_59\n          jumpi\n            /* \"#utility.yul\":1098:1116   */\n          tag_60\n          tag_17\n          jump\t// in\n        tag_60:\n            /* \"#utility.yul\":1030:1118   */\n        tag_59:\n            /* \"#utility.yul\":1138:1148   */\n          dup1\n            /* \"#utility.yul\":1134:1136   */\n          0x40\n            /* \"#utility.yul\":1127:1149   */\n          mstore\n            /* \"#utility.yul\":917:1155   */\n          pop\n            /* \"#utility.yul\":874:1155   */\n          pop\n          pop\n          jump\t// out\n            /* \"#utility.yul\":1161:1290   */\n        tag_19:\n            /* \"#utility.yul\":1195:1201   */\n          0x00\n            /* \"#utility.yul\":1222:1242   */\n          tag_62\n          tag_11\n          jump\t// in\n        tag_62:\n            /* \"#utility.yul\":1212:1242   */\n          swap1\n          pop\n            /* \"#utility.yul\":1251:1284   */\n          tag_63\n            /* \"#utility.yul\":1279:1283   */\n          dup3\n            /* \"#utility.yul\":1271:1277   */\n          dup3\n            /* \"#utility.yul\":1251:1284   */\n          tag_18\n          jump\t// in\n        tag_63:\n            /* \"#utility.yul\":1161:1290   */\n          swap2\n          swap1\n          pop\n          jump\t// out\n            /* \"#utility.yul\":1296:1604   */\n        tag_20:\n            /* \"#utility.yul\":1358:1362   */\n          0x00\n            /* \"#utility.yul\":1448:1466   */\n          0xffffffffffffffff\n            /* \"#utility.yul\":1440:1446   */\n          dup3\n            /* \"#utility.yul\":1437:1467   */\n          gt\n            /* \"#utility.yul\":1434:1490   */\n          iszero\n          tag_65\n          jumpi\n            /* \"#utility.yul\":1470:1488   */\n          tag_66\n          tag_17\n          jump\t// in\n        tag_66:\n            /* \"#utility.yul\":1434:1490   */\n        tag_65:\n            /* \"#utility.yul\":1508:1537   */\n          tag_67\n            /* \"#utility.yul\":1530:1536   */\n          dup3\n            /* \"#utility.yul\":1508:1537   */\n          tag_16\n          jump\t// in\n        tag_67:\n            /* \"#utility.yul\":1500:1537   */\n          swap1\n          pop\n            /* \"#utility.yul\":1592:1596   */\n          0x20\n            /* \"#utility.yul\":1586:1590   */\n          dup2\n            /* \"#utility.yul\":1582:1597   */\n          add\n            /* \"#utility.yul\":1574:1597   */\n          swap1\n          pop\n            /* \"#utility.yul\":1296:1604   */\n          swap2\n          swap1\n          pop\n          jump\t// out\n            /* \"#utility.yul\":1610:1856   */\n        tag_21:\n            /* \"#utility.yul\":1691:1692   */\n          0x00\n            /* \"#utility.yul\":1701:1814   */\n        tag_69:\n            /* \"#utility.yul\":1715:1721   */\n          dup4\n            /* \"#utility.yul\":1712:1713   */\n          dup2\n            /* \"#utility.yul\":1709:1722   */\n          lt\n            /* \"#utility.yul\":1701:1814   */\n          iszero\n          tag_71\n          jumpi\n            /* \"#utility.yul\":1800:1801   */\n          dup1\n            /* \"#utility.yul\":1795:1798   */\n          dup3\n            /* \"#utility.yul\":1791:1802   */\n          add\n            /* \"#utility.yul\":1785:1803   */\n          mload\n            /* \"#utility.yul\":1781:1782   */\n          dup2\n            /* \"#utility.yul\":1776:1779   */\n          dup5\n            /* \"#utility.yul\":1772:1783   */\n          add\n            /* \"#utility.yul\":1765:1804   */\n          mstore\n            /* \"#utility.yul\":1737:1739   */\n          0x20\n            /* \"#utility.yul\":1734:1735   */\n          dup2\n            /* \"#utility.yul\":1730:1740   */\n          add\n            /* \"#utility.yul\":1725:1740   */\n          swap1\n          pop\n            /* \"#utility.yul\":1701:1814   */\n          jump(tag_69)\n        tag_71:\n            /* \"#utility.yul\":1848:1849   */\n          0x00\n            /* \"#utility.yul\":1839:1845   */\n          dup5\n            /* \"#utility.yul\":1834:1837   */\n          dup5\n            /* \"#utility.yul\":1830:1846   */\n          add\n            /* \"#utility.yul\":1823:1850   */\n          mstore\n            /* \"#utility.yul\":1672:1856   */\n          pop\n            /* \"#utility.yul\":1610:1856   */\n          pop\n          pop\n          pop\n          jump\t// out\n            /* \"#utility.yul\":1862:2296   */\n        tag_22:\n            /* \"#utility.yul\":1951:1956   */\n          0x00\n            /* \"#utility.yul\":1976:2042   */\n          tag_73\n            /* \"#utility.yul\":1992:2041   */\n          tag_74\n            /* \"#utility.yul\":2034:2040   */\n          dup5\n            /* \"#utility.yul\":1992:2041   */\n          tag_20\n          jump\t// in\n        tag_74:\n            /* \"#utility.yul\":1976:2042   */\n          tag_19\n          jump\t// in\n        tag_73:\n            /* \"#utility.yul\":1967:2042   */\n          swap1\n          pop\n            /* \"#utility.yul\":2065:2071   */\n          dup3\n            /* \"#utility.yul\":2058:2063   */\n          dup2\n            /* \"#utility.yul\":2051:2072   */\n          mstore\n            /* \"#utility.yul\":2103:2107   */\n          0x20\n            /* \"#utility.yul\":2096:2101   */\n          dup2\n            /* \"#utility.yul\":2092:2108   */\n          add\n            /* \"#utility.yul\":2141:2144   */\n          dup5\n            /* \"#utility.yul\":2132:2138   */\n          dup5\n            /* \"#utility.yul\":2127:2130   */\n          dup5\n            /* \"#utility.yul\":2123:2139   */\n          add\n            /* \"#utility.yul\":2120:2145   */\n          gt\n            /* \"#utility.yul\":2117:2229   */\n          iszero\n          tag_75\n          jumpi\n            /* \"#utility.yul\":2148:2227   */\n          tag_76\n          tag_15\n          jump\t// in\n        tag_76:\n            /* \"#utility.yul\":2117:2229   */\n        tag_75:\n            /* \"#utility.yul\":2238:2290   */\n          tag_77\n            /* \"#utility.yul\":2283:2289   */\n          dup5\n            /* \"#utility.yul\":2278:2281   */\n          dup3\n            /* \"#utility.yul\":2273:2276   */\n          dup6\n            /* \"#utility.yul\":2238:2290   */\n          tag_21\n          jump\t// in\n        tag_77:\n            /* \"#utility.yul\":1957:2296   */\n          pop\n            /* \"#utility.yul\":1862:2296   */\n          swap4\n          swap3\n          pop\n          pop\n          pop\n          jump\t// out\n            /* \"#utility.yul\":2316:2671   */\n        tag_23:\n            /* \"#utility.yul\":2383:2388   */\n          0x00\n            /* \"#utility.yul\":2432:2435   */\n          dup3\n            /* \"#utility.yul\":2425:2429   */\n          0x1f\n            /* \"#utility.yul\":2417:2423   */\n          dup4\n            /* \"#utility.yul\":2413:2430   */\n          add\n            /* \"#utility.yul\":2409:2436   */\n          slt\n            /* \"#utility.yul\":2399:2521   */\n          tag_79\n          jumpi\n            /* \"#utility.yul\":2440:2519   */\n          tag_80\n          tag_14\n          jump\t// in\n        tag_80:\n            /* \"#utility.yul\":2399:2521   */\n        tag_79:\n            /* \"#utility.yul\":2550:2556   */\n          dup2\n            /* \"#utility.yul\":2544:2557   */\n          mload\n            /* \"#utility.yul\":2575:2665   */\n          tag_81\n            /* \"#utility.yul\":2661:2664   */\n          dup5\n            /* \"#utility.yul\":2653:2659   */\n          dup3\n            /* \"#utility.yul\":2646:2650   */\n          0x20\n            /* \"#utility.yul\":2638:2644   */\n          dup7\n            /* \"#utility.yul\":2634:2651   */\n          add\n            /* \"#utility.yul\":2575:2665   */\n          tag_22\n          jump\t// in\n        tag_81:\n            /* \"#utility.yul\":2566:2665   */\n          swap2\n          pop\n            /* \"#utility.yul\":2389:2671   */\n          pop\n            /* \"#utility.yul\":2316:2671   */\n          swap3\n          swap2\n          pop\n          pop\n          jump\t// out\n            /* \"#utility.yul\":2677:2754   */\n        tag_24:\n            /* \"#utility.yul\":2714:2721   */\n          0x00\n            /* \"#utility.yul\":2743:2748   */\n          dup2\n            /* \"#utility.yul\":2732:2748   */\n          swap1\n          pop\n            /* \"#utility.yul\":2677:2754   */\n          swap2\n          swap1\n          pop\n          jump\t// out\n            /* \"#utility.yul\":2760:2882   */\n        tag_25:\n            /* \"#utility.yul\":2833:2857   */\n          tag_84\n            /* \"#utility.yul\":2851:2856   */\n          dup2\n            /* \"#utility.yul\":2833:2857   */\n          tag_24\n          jump\t// in\n        tag_84:\n            /* \"#utility.yul\":2826:2831   */\n          dup2\n            /* \"#utility.yul\":2823:2858   */\n          eq\n            /* \"#utility.yul\":2813:2876   */\n          tag_85\n          jumpi\n            /* \"#utility.yul\":2872:2873   */\n          0x00\n            /* \"#utility.yul\":2869:2870   */\n          dup1\n            /* \"#utility.yul\":2862:2874   */\n          revert\n            /* \"#utility.yul\":2813:2876   */\n        tag_85:\n            /* \"#utility.yul\":2760:2882   */\n          pop\n          jump\t// out\n            /* \"#utility.yul\":2888:3031   */\n        tag_26:\n            /* \"#utility.yul\":2945:2950   */\n          0x00\n            /* \"#utility.yul\":2976:2982   */\n          dup2\n            /* \"#utility.yul\":2970:2983   */\n          mload\n            /* \"#utility.yul\":2961:2983   */\n          swap1\n          pop\n            /* \"#utility.yul\":2992:3025   */\n          tag_87\n            /* \"#utility.yul\":3019:3024   */\n          dup2\n            /* \"#utility.yul\":2992:3025   */\n          tag_25\n          jump\t// in\n        tag_87:\n            /* \"#utility.yul\":2888:3031   */\n          swap3\n          swap2\n          pop\n          pop\n          jump\t// out\n            /* \"#utility.yul\":3037:3163   */\n        tag_27:\n            /* \"#utility.yul\":3074:3081   */\n          0x00\n            /* \"#utility.yul\":3114:3156   */\n          0xffffffffffffffffffffffffffffffffffffffff\n            /* \"#utility.yul\":3107:3112   */\n          dup3\n            /* \"#utility.yul\":3103:3157   */\n          and\n            /* \"#utility.yul\":3092:3157   */\n          swap1\n          pop\n            /* \"#utility.yul\":3037:3163   */\n          swap2\n          swap1\n          pop\n          jump\t// out\n            /* \"#utility.yul\":3169:3265   */\n        tag_28:\n            /* \"#utility.yul\":3206:3213   */\n          0x00\n            /* \"#utility.yul\":3235:3259   */\n          tag_90\n            /* \"#utility.yul\":3253:3258   */\n          dup3\n            /* \"#utility.yul\":3235:3259   */\n          tag_27\n          jump\t// in\n        tag_90:\n            /* \"#utility.yul\":3224:3259   */\n          swap1\n          pop\n            /* \"#utility.yul\":3169:3265   */\n          swap2\n          swap1\n          pop\n          jump\t// out\n            /* \"#utility.yul\":3271:3393   */\n        tag_29:\n            /* \"#utility.yul\":3344:3368   */\n          tag_92\n            /* \"#utility.yul\":3362:3367   */\n          dup2\n            /* \"#utility.yul\":3344:3368   */\n          tag_28\n          jump\t// in\n        tag_92:\n            /* \"#utility.yul\":3337:3342   */\n          dup2\n            /* \"#utility.yul\":3334:3369   */\n          eq\n            /* \"#utility.yul\":3324:3387   */\n          tag_93\n          jumpi\n            /* \"#utility.yul\":3383:3384   */\n          0x00\n            /* \"#utility.yul\":3380:3381   */\n          dup1\n            /* \"#utility.yul\":3373:3385   */\n          revert\n            /* \"#utility.yul\":3324:3387   */\n        tag_93:\n            /* \"#utility.yul\":3271:3393   */\n          pop\n          jump\t// out\n            /* \"#utility.yul\":3399:3542   */\n        tag_30:\n            /* \"#utility.yul\":3456:3461   */\n          0x00\n            /* \"#utility.yul\":3487:3493   */\n          dup2\n            /* \"#utility.yul\":3481:3494   */\n          mload\n            /* \"#utility.yul\":3472:3494   */\n          swap1\n          pop\n            /* \"#utility.yul\":3503:3536   */\n          tag_95\n            /* \"#utility.yul\":3530:3535   */\n          dup2\n            /* \"#utility.yul\":3503:3536   */\n          tag_29\n          jump\t// in\n        tag_95:\n            /* \"#utility.yul\":3399:3542   */\n          swap3\n          swap2\n          pop\n          pop\n          jump\t// out\n            /* \"#utility.yul\":3548:4714   */\n        tag_3:\n            /* \"#utility.yul\":3665:3671   */\n          0x00\n            /* \"#utility.yul\":3673:3679   */\n          dup1\n            /* \"#utility.yul\":3681:3687   */\n          0x00\n            /* \"#utility.yul\":3689:3695   */\n          dup1\n            /* \"#utility.yul\":3738:3741   */\n          0x80\n            /* \"#utility.yul\":3726:3735   */\n          dup6\n            /* \"#utility.yul\":3717:3724   */\n          dup8\n            /* \"#utility.yul\":3713:3736   */\n          sub\n            /* \"#utility.yul\":3709:3742   */\n          slt\n            /* \"#utility.yul\":3706:3826   */\n          iszero\n          tag_97\n          jumpi\n            /* \"#utility.yul\":3745:3824   */\n          tag_98\n          tag_12\n          jump\t// in\n        tag_98:\n            /* \"#utility.yul\":3706:3826   */\n        tag_97:\n            /* \"#utility.yul\":3886:3887   */\n          0x00\n            /* \"#utility.yul\":3875:3884   */\n          dup6\n            /* \"#utility.yul\":3871:3888   */\n          add\n            /* \"#utility.yul\":3865:3889   */\n          mload\n            /* \"#utility.yul\":3916:3934   */\n          0xffffffffffffffff\n            /* \"#utility.yul\":3908:3914   */\n          dup2\n            /* \"#utility.yul\":3905:3935   */\n          gt\n            /* \"#utility.yul\":3902:4019   */\n          iszero\n          tag_99\n          jumpi\n            /* \"#utility.yul\":3938:4017   */\n          tag_100\n          tag_13\n          jump\t// in\n        tag_100:\n            /* \"#utility.yul\":3902:4019   */\n        tag_99:\n            /* \"#utility.yul\":4043:4117   */\n          tag_101\n            /* \"#utility.yul\":4109:4116   */\n          dup8\n            /* \"#utility.yul\":4100:4106   */\n          dup3\n            /* \"#utility.yul\":4089:4098   */\n          dup9\n            /* \"#utility.yul\":4085:4107   */\n          add\n            /* \"#utility.yul\":4043:4117   */\n          tag_23\n          jump\t// in\n        tag_101:\n            /* \"#utility.yul\":4033:4117   */\n          swap5\n          pop\n            /* \"#utility.yul\":3836:4127   */\n          pop\n            /* \"#utility.yul\":4187:4189   */\n          0x20\n            /* \"#utility.yul\":4176:4185   */\n          dup6\n            /* \"#utility.yul\":4172:4190   */\n          add\n            /* \"#utility.yul\":4166:4191   */\n          mload\n            /* \"#utility.yul\":4218:4236   */\n          0xffffffffffffffff\n            /* \"#utility.yul\":4210:4216   */\n          dup2\n            /* \"#utility.yul\":4207:4237   */\n          gt\n            /* \"#utility.yul\":4204:4321   */\n          iszero\n          tag_102\n          jumpi\n            /* \"#utility.yul\":4240:4319   */\n          tag_103\n          tag_13\n          jump\t// in\n        tag_103:\n            /* \"#utility.yul\":4204:4321   */\n        tag_102:\n            /* \"#utility.yul\":4345:4419   */\n          tag_104\n            /* \"#utility.yul\":4411:4418   */\n          dup8\n            /* \"#utility.yul\":4402:4408   */\n          dup3\n            /* \"#utility.yul\":4391:4400   */\n          dup9\n            /* \"#utility.yul\":4387:4409   */\n          add\n            /* \"#utility.yul\":4345:4419   */\n          tag_23\n          jump\t// in\n        tag_104:\n            /* \"#utility.yul\":4335:4419   */\n          swap4\n          pop\n            /* \"#utility.yul\":4137:4429   */\n          pop\n            /* \"#utility.yul\":4468:4470   */\n          0x40\n            /* \"#utility.yul\":4494:4558   */\n          tag_105\n            /* \"#utility.yul\":4550:4557   */\n          dup8\n            /* \"#utility.yul\":4541:4547   */\n          dup3\n            /* \"#utility.yul\":4530:4539   */\n          dup9\n            /* \"#utility.yul\":4526:4548   */\n          add\n            /* \"#utility.yul\":4494:4558   */\n          tag_26\n          jump\t// in\n        tag_105:\n            /* \"#utility.yul\":4484:4558   */\n          swap3\n          pop\n            /* \"#utility.yul\":4439:4568   */\n          pop\n            /* \"#utility.yul\":4607:4609   */\n          0x60\n            /* \"#utility.yul\":4633:4697   */\n          tag_106\n            /* \"#utility.yul\":4689:4696   */\n          dup8\n            /* \"#utility.yul\":4680:4686   */\n          dup3\n            /* \"#utility.yul\":4669:4678   */\n          dup9\n            /* \"#utility.yul\":4665:4687   */\n          add\n            /* \"#utility.yul\":4633:4697   */\n          tag_30\n          jump\t// in\n        tag_106:\n            /* \"#utility.yul\":4623:4697   */\n          swap2\n          pop\n            /* \"#utility.yul\":4578:4707   */\n          pop\n            /* \"#utility.yul\":3548:4714   */\n          swap3\n          swap6\n          swap2\n          swap5\n          pop\n          swap3\n          pop\n          jump\t// out\n            /* \"#utility.yul\":4720:4819   */\n        tag_31:\n            /* \"#utility.yul\":4772:4778   */\n          0x00\n            /* \"#utility.yul\":4806:4811   */\n          dup2\n            /* \"#utility.yul\":4800:4812   */\n          mload\n            /* \"#utility.yul\":4790:4812   */\n          swap1\n          pop\n            /* \"#utility.yul\":4720:4819   */\n          swap2\n          swap1\n          pop\n          jump\t// out\n            /* \"#utility.yul\":4825:5005   */\n        tag_32:\n            /* \"#utility.yul\":4873:4950   */\n          0x4e487b7100000000000000000000000000000000000000000000000000000000\n            /* \"#utility.yul\":4870:4871   */\n          0x00\n            /* \"#utility.yul\":4863:4951   */\n          mstore\n            /* \"#utility.yul\":4970:4974   */\n          0x22\n            /* \"#utility.yul\":4967:4968   */\n          0x04\n            /* \"#utility.yul\":4960:4975   */\n          mstore\n            /* \"#utility.yul\":4994:4998   */\n          0x24\n            /* \"#utility.yul\":4991:4992   */\n          0x00\n            /* \"#utility.yul\":4984:4999   */\n          revert\n            /* \"#utility.yul\":5011:5331   */\n        tag_33:\n            /* \"#utility.yul\":5055:5061   */\n          0x00\n            /* \"#utility.yul\":5092:5093   */\n          0x02\n            /* \"#utility.yul\":5086:5090   */\n          dup3\n            /* \"#utility.yul\":5082:5094   */\n          div\n            /* \"#utility.yul\":5072:5094   */\n          swap1\n          pop\n            /* \"#utility.yul\":5139:5140   */\n          0x01\n            /* \"#utility.yul\":5133:5137   */\n          dup3\n            /* \"#utility.yul\":5129:5141   */\n          and\n            /* \"#utility.yul\":5160:5178   */\n          dup1\n            /* \"#utility.yul\":5150:5231   */\n          tag_110\n          jumpi\n            /* \"#utility.yul\":5216:5220   */\n          0x7f\n            /* \"#utility.yul\":5208:5214   */\n          dup3\n            /* \"#utility.yul\":5204:5221   */\n          and\n            /* \"#utility.yul\":5194:5221   */\n          swap2\n          pop\n            /* \"#utility.yul\":5150:5231   */\n        tag_110:\n            /* \"#utility.yul\":5278:5280   */\n          0x20\n            /* \"#utility.yul\":5270:5276   */\n          dup3\n            /* \"#utility.yul\":5267:5281   */\n          lt\n            /* \"#utility.yul\":5247:5265   */\n          dup2\n            /* \"#utility.yul\":5244:5282   */\n          sub\n            /* \"#utility.yul\":5241:5325   */\n          tag_111\n          jumpi\n            /* \"#utility.yul\":5297:5315   */\n          tag_112\n          tag_32\n          jump\t// in\n        tag_112:\n            /* \"#utility.yul\":5241:5325   */\n        tag_111:\n            /* \"#utility.yul\":5062:5331   */\n          pop\n            /* \"#utility.yul\":5011:5331   */\n          swap2\n          swap1\n          pop\n          jump\t// out\n            /* \"#utility.yul\":5337:5478   */\n        tag_34:\n            /* \"#utility.yul\":5386:5390   */\n          0x00\n            /* \"#utility.yul\":5409:5412   */\n          dup2\n            /* \"#utility.yul\":5401:5412   */\n          swap1\n          pop\n            /* \"#utility.yul\":5432:5435   */\n          dup2\n            /* \"#utility.yul\":5429:5430   */\n          0x00\n            /* \"#utility.yul\":5422:5436   */\n          mstore\n            /* \"#utility.yul\":5466:5470   */\n          0x20\n            /* \"#utility.yul\":5463:5464   */\n          0x00\n            /* \"#utility.yul\":5453:5471   */\n          keccak256\n            /* \"#utility.yul\":5445:5471   */\n          swap1\n          pop\n            /* \"#utility.yul\":5337:5478   */\n          swap2\n          swap1\n          pop\n          jump\t// out\n            /* \"#utility.yul\":5484:5577   */\n        tag_35:\n            /* \"#utility.yul\":5521:5527   */\n          0x00\n            /* \"#utility.yul\":5568:5570   */\n          0x20\n            /* \"#utility.yul\":5563:5565   */\n          0x1f\n            /* \"#utility.yul\":5556:5561   */\n          dup4\n            /* \"#utility.yul\":5552:5566   */\n          add\n            /* \"#utility.yul\":5548:5571   */\n          div\n            /* \"#utility.yul\":5538:5571   */\n          swap1\n          pop\n            /* \"#utility.yul\":5484:5577   */\n          swap2\n          swap1\n          pop\n          jump\t// out\n            /* \"#utility.yul\":5583:5690   */\n        tag_36:\n            /* \"#utility.yul\":5627:5635   */\n          0x00\n            /* \"#utility.yul\":5677:5682   */\n          dup3\n            /* \"#utility.yul\":5671:5675   */\n          dup3\n            /* \"#utility.yul\":5667:5683   */\n          shl\n            /* \"#utility.yul\":5646:5683   */\n          swap1\n          pop\n            /* \"#utility.yul\":5583:5690   */\n          swap3\n          swap2\n          pop\n          pop\n          jump\t// out\n            /* \"#utility.yul\":5696:6089   */\n        tag_37:\n            /* \"#utility.yul\":5765:5771   */\n          0x00\n            /* \"#utility.yul\":5815:5816   */\n          0x08\n            /* \"#utility.yul\":5803:5813   */\n          dup4\n            /* \"#utility.yul\":5799:5817   */\n          mul\n            /* \"#utility.yul\":5838:5935   */\n          tag_117\n            /* \"#utility.yul\":5868:5934   */\n          0xffffffffffffffffffffffffffffffffffffffffffffffffffffffffffffffff\n            /* \"#utility.yul\":5857:5866   */\n          dup3\n            /* \"#utility.yul\":5838:5935   */\n          tag_36\n          jump\t// in\n        tag_117:\n            /* \"#utility.yul\":5956:5995   */\n          tag_118\n            /* \"#utility.yul\":5986:5994   */\n          dup7\n            /* \"#utility.yul\":5975:5984   */\n          dup4\n            /* \"#utility.yul\":5956:5995   */\n          tag_36\n          jump\t// in\n        tag_118:\n            /* \"#utility.yul\":5944:5995   */\n          swap6\n          pop\n            /* \"#utility.yul\":6028:6032   */\n          dup1\n            /* \"#utility.yul\":6024:6033   */\n          not\n            /* \"#utility.yul\":6017:6022   */\n          dup5\n            /* \"#utility.yul\":6013:6034   */\n          and\n            /* \"#utility.yul\":6004:6034   */\n          swap4\n          pop\n            /* \"#utility.yul\":6077:6081   */\n          dup1\n            /* \"#utility.yul\":6067:6075   */\n          dup7\n            /* \"#utility.yul\":6063:6082   */\n          and\n            /* \"#utility.yul\":6056:6061   */\n          dup5\n            /* \"#utility.yul\":6053:6083   */\n          or\n            /* \"#utility.yul\":6043:6083   */\n          swap3\n          pop\n            /* \"#utility.yul\":5772:6089   */\n          pop\n          pop\n            /* \"#utility.yul\":5696:6089   */\n          swap4\n          swap3\n          pop\n          pop\n          pop\n          jump\t// out\n            /* \"#utility.yul\":6095:6155   */\n        tag_38:\n            /* \"#utility.yul\":6123:6126   */\n          0x00\n            /* \"#utility.yul\":6144:6149   */\n          dup2\n            /* \"#utility.yul\":6137:6149   */\n          swap1\n          pop\n            /* \"#utility.yul\":6095:6155   */\n          swap2\n          swap1\n          pop\n          jump\t// out\n            /* \"#utility.yul\":6161:6303   */\n        tag_39:\n            /* \"#utility.yul\":6211:6220   */\n          0x00\n            /* \"#utility.yul\":6244:6297   */\n          tag_121\n            /* \"#utility.yul\":6262:6296   */\n          tag_122\n            /* \"#utility.yul\":6271:6295   */\n          tag_123\n            /* \"#utility.yul\":6289:6294   */\n          dup5\n            /* \"#utility.yul\":6271:6295   */\n          tag_24\n          jump\t// in\n        tag_123:\n            /* \"#utility.yul\":6262:6296   */\n          tag_38\n          jump\t// in\n        tag_122:\n            /* \"#utility.yul\":6244:6297   */\n          tag_24\n          jump\t// in\n        tag_121:\n            /* \"#utility.yul\":6231:6297   */\n          swap1\n          pop\n            /* \"#utility.yul\":6161:6303   */\n          swap2\n          swap1\n          pop\n          jump\t// out\n            /* \"#utility.yul\":6309:6384   */\n        tag_40:\n            /* \"#utility.yul\":6352:6355   */\n          0x00\n            /* \"#utility.yul\":6373:6378   */\n          dup2\n            /* \"#utility.yul\":6366:6378   */\n          swap1\n          pop\n            /* \"#utility.yul\":6309:6384   */\n          swap2\n          swap1\n          pop\n          jump\t// out\n            /* \"#utility.yul\":6390:6659   */\n        tag_41:\n            /* \"#utility.yul\":6500:6539   */\n          tag_126\n            /* \"#utility.yul\":6531:6538   */\n          dup4\n            /* \"#utility.yul\":6500:6539   */\n          tag_39\n          jump\t// in\n        tag_126:\n            /* \"#utility.yul\":6561:6652   */\n          tag_127\n            /* \"#utility.yul\":6610:6651   */\n          tag_128\n            /* \"#utility.yul\":6634:6650   */\n          dup3\n            /* \"#utility.yul\":6610:6651   */\n          tag_40\n          jump\t// in\n        tag_128:\n            /* \"#utility.yul\":6602:6608   */\n          dup5\n            /* \"#utility.yul\":6595:6599   */\n          dup5\n            /* \"#utility.yul\":6589:6600   */\n          sload\n            /* \"#utility.yul\":6561:6652   */\n          tag_37\n          jump\t// in\n        tag_127:\n            /* \"#utility.yul\":6555:6559   */\n          dup3\n            /* \"#utility.yul\":6548:6653   */\n          sstore\n            /* \"#utility.yul\":6466:6659   */\n          pop\n            /* \"#utility.yul\":6390:6659   */\n          pop\n          pop\n          pop\n          jump\t// out\n            /* \"#utility.yul\":6665:6738   */\n        tag_42:\n            /* \"#utility.yul\":6710:6713   */\n          0x00\n            /* \"#utility.yul\":6665:6738   */\n          swap1\n          jump\t// out\n            /* \"#utility.yul\":6744:6933   */\n        tag_43:\n            /* \"#utility.yul\":6821:6853   */\n          tag_131\n          tag_42\n          jump\t// in\n        tag_131:\n            /* \"#utility.yul\":6862:6927   */\n          tag_132\n            /* \"#utility.yul\":6920:6926   */\n          dup2\n            /* \"#utility.yul\":6912:6918   */\n          dup5\n            /* \"#utility.yul\":6906:6910   */\n          dup5\n            /* \"#utility.yul\":6862:6927   */\n          tag_41\n          jump\t// in\n        tag_132:\n            /* \"#utility.yul\":6797:6933   */\n          pop\n            /* \"#utility.yul\":6744:6933   */\n          pop\n          pop\n          jump\t// out\n            /* \"#utility.yul\":6939:7125   */\n        tag_44:\n            /* \"#utility.yul\":6999:7119   */\n        tag_134:\n            /* \"#utility.yul\":7016:7019   */\n          dup2\n            /* \"#utility.yul\":7009:7014   */\n          dup2\n            /* \"#utility.yul\":7006:7020   */\n          lt\n            /* \"#utility.yul\":6999:7119   */\n          iszero\n          tag_136\n          jumpi\n            /* \"#utility.yul\":7070:7109   */\n          tag_137\n            /* \"#utility.yul\":7107:7108   */\n          0x00\n            /* \"#utility.yul\":7100:7105   */\n          dup3\n            /* \"#utility.yul\":7070:7109   */\n          tag_43\n          jump\t// in\n        tag_137:\n            /* \"#utility.yul\":7043:7044   */\n          0x01\n            /* \"#utility.yul\":7036:7041   */\n          dup2\n            /* \"#utility.yul\":7032:7045   */\n          add\n            /* \"#utility.yul\":7023:7045   */\n          swap1\n          pop\n            /* \"#utility.yul\":6999:7119   */\n          jump(tag_134)\n        tag_136:\n            /* \"#utility.yul\":6939:7125   */\n          pop\n          pop\n          jump\t// out\n            /* \"#utility.yul\":7131:7674   */\n        tag_45:\n            /* \"#utility.yul\":7232:7234   */\n          0x1f\n            /* \"#utility.yul\":7227:7230   */\n          dup3\n            /* \"#utility.yul\":7224:7235   */\n          gt\n            /* \"#utility.yul\":7221:7667   */\n          iszero\n          tag_139\n          jumpi\n            /* \"#utility.yul\":7266:7304   */\n          tag_140\n            /* \"#utility.yul\":7298:7303   */\n          dup2\n            /* \"#utility.yul\":7266:7304   */\n          tag_34\n          jump\t// in\n        tag_140:\n            /* \"#utility.yul\":7350:7379   */\n          tag_141\n            /* \"#utility.yul\":7368:7378   */\n          dup5\n            /* \"#utility.yul\":7350:7379   */\n          tag_35\n          jump\t// in\n        tag_141:\n            /* \"#utility.yul\":7340:7348   */\n          dup2\n            /* \"#utility.yul\":7336:7380   */\n          add\n            /* \"#utility.yul\":7533:7535   */\n          0x20\n            /* \"#utility.yul\":7521:7531   */\n          dup6\n            /* \"#utility.yul\":7518:7536   */\n          lt\n            /* \"#utility.yul\":7515:7564   */\n          iszero\n          tag_142\n          jumpi\n            /* \"#utility.yul\":7554:7562   */\n          dup2\n            /* \"#utility.yul\":7539:7562   */\n          swap1\n          pop\n            /* \"#utility.yul\":7515:7564   */\n        tag_142:\n            /* \"#utility.yul\":7577:7657   */\n          tag_143\n            /* \"#utility.yul\":7633:7655   */\n          tag_144\n            /* \"#utility.yul\":7651:7654   */\n          dup6\n            /* \"#utility.yul\":7633:7655   */\n          tag_35\n          jump\t// in\n        tag_144:\n            /* \"#utility.yul\":7623:7631   */\n          dup4\n            /* \"#utility.yul\":7619:7656   */\n          add\n            /* \"#utility.yul\":7606:7617   */\n          dup3\n            /* \"#utility.yul\":7577:7657   */\n          tag_44\n          jump\t// in\n        tag_143:\n            /* \"#utility.yul\":7236:7667   */\n          pop\n          pop\n            /* \"#utility.yul\":7221:7667   */\n        tag_139:\n            /* \"#utility.yul\":7131:7674   */\n          pop\n          pop\n          pop\n          jump\t// out\n            /* \"#utility.yul\":7680:7797   */\n        tag_46:\n            /* \"#utility.yul\":7734:7742   */\n          0x00\n            /* \"#utility.yul\":7784:7789   */\n          dup3\n            /* \"#utility.yul\":7778:7782   */\n          dup3\n            /* \"#utility.yul\":7774:7790   */\n          shr\n            /* \"#utility.yul\":7753:7790   */\n          swap1\n          pop\n            /* \"#utility.yul\":7680:7797   */\n          swap3\n          swap2\n          pop\n          pop\n          jump\t// out\n            /* \"#utility.yul\":7803:7972   */\n        tag_47:\n            /* \"#utility.yul\":7847:7853   */\n          0x00\n            /* \"#utility.yul\":7880:7931   */\n          tag_147\n            /* \"#utility.yul\":7928:7929   */\n          0x00\n            /* \"#utility.yul\":7924:7930   */\n          not\n            /* \"#utility.yul\":7916:7921   */\n          dup5\n            /* \"#utility.yul\":7913:7914   */\n          0x08\n            /* \"#utility.yul\":7909:7922   */\n          mul\n            /* \"#utility.yul\":7880:7931   */\n          tag_46\n          jump\t// in\n        tag_147:\n            /* \"#utility.yul\":7876:7932   */\n          not\n            /* \"#utility.yul\":7961:7965   */\n          dup1\n            /* \"#utility.yul\":7955:7959   */\n          dup4\n            /* \"#utility.yul\":7951:7966   */\n          and\n            /* \"#utility.yul\":7941:7966   */\n          swap2\n          pop\n            /* \"#utility.yul\":7854:7972   */\n          pop\n            /* \"#utility.yul\":7803:7972   */\n          swap3\n          swap2\n          pop\n          pop\n          jump\t// out\n            /* \"#utility.yul\":7977:8272   */\n        tag_48:\n            /* \"#utility.yul\":8053:8057   */\n          0x00\n            /* \"#utility.yul\":8199:8228   */\n          tag_149\n            /* \"#utility.yul\":8224:8227   */\n          dup4\n            /* \"#utility.yul\":8218:8222   */\n          dup4\n            /* \"#utility.yul\":8199:8228   */\n          tag_47\n          jump\t// in\n        tag_149:\n            /* \"#utility.yul\":8191:8228   */\n          swap2\n          pop\n            /* \"#utility.yul\":8261:8264   */\n          dup3\n            /* \"#utility.yul\":8258:8259   */\n          0x02\n            /* \"#utility.yul\":8254:8265   */\n          mul\n            /* \"#utility.yul\":8248:8252   */\n          dup3\n            /* \"#utility.yul\":8245:8266   */\n          or\n            /* \"#utility.yul\":8237:8266   */\n          swap1\n          pop\n            /* \"#utility.yul\":7977:8272   */\n          swap3\n          swap2\n          pop\n          pop\n          jump\t// out\n            /* \"#utility.yul\":8277:9672   */\n        tag_8:\n            /* \"#utility.yul\":8394:8431   */\n          tag_151\n            /* \"#utility.yul\":8427:8430   */\n          dup3\n            /* \"#utility.yul\":8394:8431   */\n          tag_31\n          jump\t// in\n        tag_151:\n            /* \"#utility.yul\":8496:8514   */\n          0xffffffffffffffff\n            /* \"#utility.yul\":8488:8494   */\n          dup2\n            /* \"#utility.yul\":8485:8515   */\n          gt\n            /* \"#utility.yul\":8482:8538   */\n          iszero\n          tag_152\n          jumpi\n            /* \"#utility.yul\":8518:8536   */\n          tag_153\n          tag_17\n          jump\t// in\n        tag_153:\n            /* \"#utility.yul\":8482:8538   */\n        tag_152:\n            /* \"#utility.yul\":8562:8600   */\n          tag_154\n            /* \"#utility.yul\":8594:8598   */\n          dup3\n            /* \"#utility.yul\":8588:8599   */\n          sload\n            /* \"#utility.yul\":8562:8600   */\n          tag_33\n          jump\t// in\n        tag_154:\n            /* \"#utility.yul\":8647:8714   */\n          tag_155\n            /* \"#utility.yul\":8707:8713   */\n          dup3\n            /* \"#utility.yul\":8699:8705   */\n          dup3\n            /* \"#utility.yul\":8693:8697   */\n          dup6\n            /* \"#utility.yul\":8647:8714   */\n          tag_45\n          jump\t// in\n        tag_155:\n            /* \"#utility.yul\":8741:8742   */\n          0x00\n            /* \"#utility.yul\":8765:8769   */\n          0x20\n            /* \"#utility.yul\":8752:8769   */\n          swap1\n          pop\n            /* \"#utility.yul\":8797:8799   */\n          0x1f\n            /* \"#utility.yul\":8789:8795   */\n          dup4\n            /* \"#utility.yul\":8786:8800   */\n          gt\n            /* \"#utility.yul\":8814:8815   */\n          0x01\n            /* \"#utility.yul\":8809:9427   */\n          dup2\n          eq\n          tag_157\n          jumpi\n            /* \"#utility.yul\":9471:9472   */\n          0x00\n            /* \"#utility.yul\":9488:9494   */\n          dup5\n            /* \"#utility.yul\":9485:9562   */\n          iszero\n          tag_158\n          jumpi\n            /* \"#utility.yul\":9537:9546   */\n          dup3\n            /* \"#utility.yul\":9532:9535   */\n          dup8\n            /* \"#utility.yul\":9528:9547   */\n          add\n            /* \"#utility.yul\":9522:9548   */\n          mload\n            /* \"#utility.yul\":9513:9548   */\n          swap1\n          pop\n            /* \"#utility.yul\":9485:9562   */\n        tag_158:\n            /* \"#utility.yul\":9588:9655   */\n          tag_159\n            /* \"#utility.yul\":9648:9654   */\n          dup6\n            /* \"#utility.yul\":9641:9646   */\n          dup3\n            /* \"#utility.yul\":9588:9655   */\n          tag_48\n          jump\t// in\n        tag_159:\n            /* \"#utility.yul\":9582:9586   */\n          dup7\n            /* \"#utility.yul\":9575:9656   */\n          sstore\n            /* \"#utility.yul\":9444:9666   */\n          pop\n            /* \"#utility.yul\":8779:9666   */\n          jump(tag_156)\n            /* \"#utility.yul\":8809:9427   */\n        tag_157:\n            /* \"#utility.yul\":8861:8865   */\n          0x1f\n            /* \"#utility.yul\":8857:8866   */\n          not\n            /* \"#utility.yul\":8849:8855   */\n          dup5\n            /* \"#utility.yul\":8845:8867   */\n          and\n            /* \"#utility.yul\":8895:8932   */\n          tag_160\n            /* \"#utility.yul\":8927:8931   */\n          dup7\n            /* \"#utility.yul\":8895:8932   */\n          tag_34\n          jump\t// in\n        tag_160:\n            /* \"#utility.yul\":8954:8955   */\n          0x00\n            /* \"#utility.yul\":8968:9176   */\n        tag_161:\n            /* \"#utility.yul\":8982:8989   */\n          dup3\n            /* \"#utility.yul\":8979:8980   */\n          dup2\n            /* \"#utility.yul\":8976:8990   */\n          lt\n            /* \"#utility.yul\":8968:9176   */\n          iszero\n          tag_163\n          jumpi\n            /* \"#utility.yul\":9061:9070   */\n          dup5\n            /* \"#utility.yul\":9056:9059   */\n          dup10\n            /* \"#utility.yul\":9052:9071   */\n          add\n            /* \"#utility.yul\":9046:9072   */\n          mload\n            /* \"#utility.yul\":9038:9044   */\n          dup3\n            /* \"#utility.yul\":9031:9073   */\n          sstore\n            /* \"#utility.yul\":9112:9113   */\n          0x01\n            /* \"#utility.yul\":9104:9110   */\n          dup3\n            /* \"#utility.yul\":9100:9114   */\n          add\n            /* \"#utility.yul\":9090:9114   */\n          swap2\n          pop\n            /* \"#utility.yul\":9159:9161   */\n          0x20\n            /* \"#utility.yul\":9148:9157   */\n          dup6\n            /* \"#utility.yul\":9144:9162   */\n          add\n            /* \"#utility.yul\":9131:9162   */\n          swap5\n          pop\n            /* \"#utility.yul\":9005:9009   */\n          0x20\n            /* \"#utility.yul\":9002:9003   */\n          dup2\n            /* \"#utility.yul\":8998:9010   */\n          add\n            /* \"#utility.yul\":8993:9010   */\n          swap1\n          pop\n            /* \"#utility.yul\":8968:9176   */\n          jump(tag_161)\n        tag_163:\n            /* \"#utility.yul\":9204:9210   */\n          dup7\n            /* \"#utility.yul\":9195:9202   */\n          dup4\n            /* \"#utility.yul\":9192:9211   */\n          lt\n            /* \"#utility.yul\":9189:9368   */\n          iszero\n          tag_164\n          jumpi\n            /* \"#utility.yul\":9262:9271   */\n          dup5\n            /* \"#utility.yul\":9257:9260   */\n          dup10\n            /* \"#utility.yul\":9253:9272   */\n          add\n            /* \"#utility.yul\":9247:9273   */\n          mload\n            /* \"#utility.yul\":9305:9353   */\n          tag_165\n            /* \"#utility.yul\":9347:9351   */\n          0x1f\n            /* \"#utility.yul\":9339:9345   */\n          dup10\n            /* \"#utility.yul\":9335:9352   */\n          and\n            /* \"#utility.yul\":9324:9333   */\n          dup3\n            /* \"#utility.yul\":9305:9353   */\n          tag_47\n          jump\t// in\n        tag_165:\n            /* \"#utility.yul\":9297:9303   */\n          dup4\n            /* \"#utility.yul\":9290:9354   */\n          sstore\n            /* \"#utility.yul\":9212:9368   */\n          pop\n            /* \"#utility.yul\":9189:9368   */\n        tag_164:\n            /* \"#utility.yul\":9414:9415   */\n          0x01\n            /* \"#utility.yul\":9410:9411   */\n          0x02\n            /* \"#utility.yul\":9402:9408   */\n          dup9\n            /* \"#utility.yul\":9398:9412   */\n          mul\n            /* \"#utility.yul\":9394:9416   */\n          add\n            /* \"#utility.yul\":9388:9392   */\n          dup9\n            /* \"#utility.yul\":9381:9417   */\n          sstore\n            /* \"#utility.yul\":8816:9427   */\n          pop\n          pop\n          pop\n            /* \"#utility.yul\":8779:9666   */\n        tag_156:\n          pop\n            /* \"#utility.yul\":8369:9672   */\n          pop\n          pop\n          pop\n            /* \"#utility.yul\":8277:9672   */\n          pop\n          pop\n          jump\t// out\n            /* \"Campaign.sol\":1142:6052  contract Campaign... */\n        tag_10:\n          dataSize(sub_0)\n          dup1\n          dataOffset(sub_0)\n          0x00\n          codecopy\n          0x00\n          return\n        stop\n\n        sub_0: assembly {\n                /* \"Campaign.sol\":1142:6052  contract Campaign... */\n              mstore(0x40, 0x80)\n              jumpi(tag_1, lt(calldatasize, 0x04))\n              shr(0xe0, calldataload(0x00))\n              dup1\n              0x8813ce12\n              gt\n              tag_17\n              jumpi\n              dup1\n              0xd7bb99ba\n              gt\n              tag_18\n              jumpi\n              dup1\n              0xd7bb99ba\n              eq\n              tag_13\n              jumpi\n              dup1\n              0xe2e46b52\n              eq\n              tag_14\n              jumpi\n              dup1\n              0xf84038b1\n              eq\n              tag_15\n              jumpi\n              dup1\n              0xfeed5561\n              eq\n              tag_16\n              jumpi\n              jump(tag_1)\n            tag_18:\n              dup1\n              0x8813ce12\n              eq\n              tag_9\n              jumpi\n              dup1\n              0x885e7c62\n              eq\n              tag_10\n              jumpi\n              dup1\n              0xa7ac8000\n              eq\n              tag_11\n              jumpi\n              dup1\n              0xd5009584\n              eq\n              tag_12\n              jumpi\n              jump(tag_1)\n            tag_17:\n              dup1\n              0x3410452a\n              gt\n              tag_19\n              jumpi\n              dup1\n              0x3410452a\n              eq\n              tag_5\n              jumpi\n              dup1\n              0x4051ddac\n              eq\n              tag_6\n              jumpi\n              dup1\n              0x692d51d2\n              eq\n              tag_7\n              jumpi\n              dup1\n              0x6f9fb98a\n              eq\n              tag_8\n              jumpi\n              jump(tag_1)\n            tag_19:\n              dup1\n              0x0a144391\n              eq\n              tag_2\n              jumpi\n              dup1\n              0x1a092541\n              eq\n              tag_3\n              jumpi\n              dup1\n              0x30e8fc5c\n              eq\n              tag_4\n              jumpi\n            tag_1:\n              0x00\n              dup1\n              revert\n                /* \"Campaign.sol\":1853:1894  mapping(address => uint) public approvers */\n            tag_2:\n              callvalue\n              dup1\n              iszero\n              tag_20\n              jumpi\n              0x00\n              dup1\n              revert\n            tag_20:\n              pop\n              tag_21\n              0x04\n              dup1\n              calldatasize\n              sub\n              dup2\n              add\n              swap1\n              tag_22\n              swap2\n              swap1\n              tag_23\n              jump\t// in\n            tag_22:\n              tag_24\n              jump\t// in\n            tag_21:\n              mload(0x40)\n              tag_25\n              swap2\n              swap1\n              tag_26\n              jump\t// in\n            tag_25:\n              mload(0x40)\n              dup1\n              swap2\n              sub\n              swap1\n              return\n                /* \"Campaign.sol\":2553:2657  function getDescription() external view returns (string memory)... */\n            tag_3:\n              callvalue\n              dup1\n              iszero\n              tag_27\n              jumpi\n              0x00\n              dup1\n              revert\n            tag_27:\n              pop\n              tag_28\n              tag_29\n              jump\t// in\n            tag_28:\n              mload(0x40)\n              tag_30\n              swap2\n              swap1\n              tag_31\n              jump\t// in\n            tag_30:\n              mload(0x40)\n              dup1\n              swap2\n              sub\n              swap1\n              return\n                /* \"Campaign.sol\":4808:5548  function voteRequest(string memory reqName, bool isApproval ) external... */\n            tag_4:\n              callvalue\n              dup1\n              iszero\n              tag_32\n              jumpi\n              0x00\n              dup1\n              revert\n            tag_32:\n              pop\n              tag_33\n              0x04\n              dup1\n              calldatasize\n              sub\n              dup2\n              add\n              swap1\n              tag_34\n              swap2\n              swap1\n              tag_35\n              jump\t// in\n            tag_34:\n              tag_36\n              jump\t// in\n            tag_33:\n              stop\n                /* \"Campaign.sol\":2983:3076  function getRequestsCount() external view returns(uint){... */\n            tag_5:\n              callvalue\n              dup1\n              iszero\n              tag_37\n              jumpi\n              0x00\n              dup1\n              revert\n            tag_37:\n              pop\n              tag_38\n              tag_39\n              jump\t// in\n            tag_38:\n              mload(0x40)\n              tag_40\n              swap2\n              swap1\n              tag_26\n              jump\t// in\n            tag_40:\n              mload(0x40)\n              dup1\n              swap2\n              sub\n              swap1\n              return\n                /* \"Campaign.sol\":3193:3623  function getSummary() external view returns(Summary memory)... */\n            tag_6:\n              callvalue\n              dup1\n              iszero\n              tag_41\n              jumpi\n              0x00\n              dup1\n              revert\n            tag_41:\n              pop\n              tag_42\n              tag_43\n              jump\t// in\n            tag_42:\n              mload(0x40)\n              tag_44\n              swap2\n              swap1\n              tag_45\n              jump\t// in\n            tag_44:\n              mload(0x40)\n              dup1\n              swap2\n              sub\n              swap1\n              return\n                /* \"Campaign.sol\":2013:2055  mapping(string => Request) public requests */\n            tag_7:\n              callvalue\n              dup1\n              iszero\n              tag_46\n              jumpi\n              0x00\n              dup1\n              revert\n            tag_46:\n              pop\n              tag_47\n              0x04\n              dup1\n              calldatasize\n              sub\n              dup2\n              add\n              swap1\n              tag_48\n              swap2\n              swap1\n              tag_49\n              jump\t// in\n            tag_48:\n              tag_50\n              jump\t// in\n            tag_47:\n              mload(0x40)\n              tag_51\n              swap9\n              swap8\n              swap7\n              swap6\n              swap5\n              swap4\n              swap3\n              swap2\n              swap1\n              tag_52\n              jump\t// in\n            tag_51:\n              mload(0x40)\n              dup1\n              swap2\n              sub\n              swap1\n              return\n                /* \"Campaign.sol\":2876:2978  function getContractBalance() external view returns(uint){... */\n            tag_8:\n              callvalue\n              dup1\n              iszero\n              tag_53\n              jumpi\n              0x00\n              dup1\n              revert\n            tag_53:\n              pop\n              tag_54\n              tag_55\n              jump\t// in\n            tag_54:\n              mload(0x40)\n              tag_56\n              swap2\n              swap1\n              tag_26\n              jump\t// in\n            tag_56:\n              mload(0x40)\n              dup1\n              swap2\n              sub\n              swap1\n              return\n                /* \"Campaign.sol\":3081:3188  function getRequests() external view returns(RequestSummary[] memory)... */\n            tag_9:\n              callvalue\n              dup1\n              iszero\n              tag_57\n              jumpi\n              0x00\n              dup1\n              revert\n            tag_57:\n              pop\n              tag_58\n              tag_59\n              jump\t// in\n            tag_58:\n              mload(0x40)\n              tag_60\n              swap2\n              swap1\n              tag_61\n              jump\t// in\n            tag_60:\n              mload(0x40)\n              dup1\n              swap2\n              sub\n              swap1\n              return\n                /* \"Campaign.sol\":2450:2548  function getCampaignName() external view returns (string memory)... */\n            tag_10:\n              callvalue\n              dup1\n              iszero\n              tag_62\n              jumpi\n              0x00\n              dup1\n              revert\n            tag_62:\n              pop\n              tag_63\n              tag_64\n              jump\t// in\n            tag_63:\n              mload(0x40)\n              tag_65\n              swap2\n              swap1\n              tag_31\n              jump\t// in\n            tag_65:\n              mload(0x40)\n              dup1\n              swap2\n              sub\n              swap1\n              return\n                /* \"Campaign.sol\":3850:4802  function triggerCampaignRequest(string memory name, string memory description, uint amount, uint requiredApprovals, address payable receiver) restricted external {... */\n            tag_11:\n              callvalue\n              dup1\n              iszero\n              tag_66\n              jumpi\n              0x00\n              dup1\n              revert\n            tag_66:\n              pop\n              tag_67\n              0x04\n              dup1\n              calldatasize\n              sub\n              dup2\n              add\n              swap1\n              tag_68\n              swap2\n              swap1\n              tag_69\n              jump\t// in\n            tag_68:\n              tag_70\n              jump\t// in\n            tag_67:\n              stop\n                /* \"Campaign.sol\":2354:2444  function getManager() external view returns (address)... */\n            tag_12:\n              callvalue\n              dup1\n              iszero\n              tag_71\n              jumpi\n              0x00\n              dup1\n              revert\n            tag_71:\n              pop\n              tag_72\n              tag_73\n              jump\t// in\n            tag_72:\n              mload(0x40)\n              tag_74\n              swap2\n              swap1\n              tag_75\n              jump\t// in\n            tag_74:\n              mload(0x40)\n              dup1\n              swap2\n              sub\n              swap1\n              return\n                /* \"Campaign.sol\":3629:3844  function contribute() public payable {... */\n            tag_13:\n              tag_76\n              tag_77\n              jump\t// in\n            tag_76:\n              stop\n                /* \"Campaign.sol\":5554:5963  function submitRequest(string memory reqName) restricted external {... */\n            tag_14:\n              callvalue\n              dup1\n              iszero\n              tag_78\n              jumpi\n              0x00\n              dup1\n              revert\n            tag_78:\n              pop\n              tag_79\n              0x04\n              dup1\n              calldatasize\n              sub\n              dup2\n              add\n              swap1\n              tag_80\n              swap2\n              swap1\n              tag_49\n              jump\t// in\n            tag_80:\n              tag_81\n              jump\t// in\n            tag_79:\n              stop\n                /* \"Campaign.sol\":2765:2870  function getMinimumContribution() external view returns(uint){... */\n            tag_15:\n              callvalue\n              dup1\n              iszero\n              tag_82\n              jumpi\n              0x00\n              dup1\n              revert\n            tag_82:\n              pop\n              tag_83\n              tag_84\n              jump\t// in\n            tag_83:\n              mload(0x40)\n              tag_85\n              swap2\n              swap1\n              tag_26\n              jump\t// in\n            tag_85:\n              mload(0x40)\n              dup1\n              swap2\n              sub\n              swap1\n              return\n                /* \"Campaign.sol\":2662:2760  function getContributorsCount() external view returns(uint){... */\n            tag_16:\n              callvalue\n              dup1\n              iszero\n              tag_86\n              jumpi\n              0x00\n              dup1\n              revert\n            tag_86:\n              pop\n              tag_87\n              tag_88\n              jump\t// in\n            tag_87:\n              mload(0x40)\n              tag_89\n              swap2\n              swap1\n              tag_26\n              jump\t// in\n            tag_89:\n              mload(0x40)\n              dup1\n              swap2\n              sub\n              swap1\n              return\n                /* \"Campaign.sol\":1853:1894  mapping(address => uint) public approvers */\n            tag_24:\n              mstore(0x20, 0x03)\n              dup1\n              0x00\n              mstore\n              keccak256(0x00, 0x40)\n              0x00\n              swap2\n              pop\n              swap1\n              pop\n              sload\n              dup2\n              jump\t// out\n                /* \"Campaign.sol\":2553:2657  function getDescription() external view returns (string memory)... */\n            tag_29:\n                /* \"Campaign.sol\":2602:2615  string memory */\n              0x60\n                /* \"Campaign.sol\":2638:2650  _description */\n              0x01\n                /* \"Campaign.sol\":2631:2650  return _description */\n              dup1\n              sload\n              tag_91\n              swap1\n              tag_92\n              jump\t// in\n            tag_91:\n              dup1\n              0x1f\n              add\n              0x20\n              dup1\n              swap2\n              div\n              mul\n              0x20\n              add\n              mload(0x40)\n              swap1\n              dup2\n              add\n              0x40\n              mstore\n              dup1\n              swap3\n              swap2\n              swap1\n              dup2\n              dup2\n              mstore\n              0x20\n              add\n              dup3\n              dup1\n              sload\n              tag_93\n              swap1\n              tag_92\n              jump\t// in\n            tag_93:\n              dup1\n              iszero\n              tag_94\n              jumpi\n              dup1\n              0x1f\n              lt\n              tag_95\n              jumpi\n              0x0100\n              dup1\n              dup4\n              sload\n              div\n              mul\n              dup4\n              mstore\n              swap2\n              0x20\n              add\n              swap2\n              jump(tag_94)\n            tag_95:\n              dup3\n              add\n              swap2\n              swap1\n              0x00\n              mstore\n              keccak256(0x00, 0x20)\n              swap1\n            tag_96:\n              dup2\n              sload\n              dup2\n              mstore\n              swap1\n              0x01\n              add\n              swap1\n              0x20\n              add\n              dup1\n              dup4\n              gt\n              tag_96\n              jumpi\n              dup3\n              swap1\n              sub\n              0x1f\n              and\n              dup3\n              add\n              swap2\n            tag_94:\n              pop\n              pop\n              pop\n              pop\n              pop\n              swap1\n              pop\n                /* \"Campaign.sol\":2553:2657  function getDescription() external view returns (string memory)... */\n              swap1\n              jump\t// out\n                /* \"Campaign.sol\":4808:5548  function voteRequest(string memory reqName, bool isApproval ) external... */\n            tag_36:\n                /* \"Campaign.sol\":4915:4923  _manager */\n              0x02\n              0x00\n              swap1\n              sload\n              swap1\n              0x0100\n              exp\n              swap1\n              div\n              0xffffffffffffffffffffffffffffffffffffffff\n              and\n                /* \"Campaign.sol\":4901:4923  msg.sender != _manager */\n              0xffffffffffffffffffffffffffffffffffffffff\n              and\n                /* \"Campaign.sol\":4901:4911  msg.sender */\n              caller\n                /* \"Campaign.sol\":4901:4923  msg.sender != _manager */\n              0xffffffffffffffffffffffffffffffffffffffff\n              and\n              sub\n                /* \"Campaign.sol\":4893:4924  require(msg.sender != _manager) */\n              tag_98\n              jumpi\n              0x00\n              dup1\n              revert\n            tag_98:\n                /* \"Campaign.sol\":4935:4954  Request storage req */\n              0x00\n                /* \"Campaign.sol\":4957:4965  requests */\n              0x07\n                /* \"Campaign.sol\":4966:4973  reqName */\n              dup4\n                /* \"Campaign.sol\":4957:4974  requests[reqName] */\n              mload(0x40)\n              tag_99\n              swap2\n              swap1\n              tag_100\n              jump\t// in\n            tag_99:\n              swap1\n              dup2\n              mstore\n              0x20\n              add\n              mload(0x40)\n              dup1\n              swap2\n              sub\n              swap1\n              keccak256\n                /* \"Campaign.sol\":4935:4974  Request storage req = requests[reqName] */\n              swap1\n              pop\n                /* \"Campaign.sol\":5018:5019  0 */\n              0x00\n                /* \"Campaign.sol\":4999:5002  req */\n              dup2\n                /* \"Campaign.sol\":4999:5007  req.name */\n              0x00\n              add\n                /* \"Campaign.sol\":4993:5015  bytes(req.name).length */\n              dup1\n              sload\n              tag_101\n              swap1\n              tag_92\n              jump\t// in\n            tag_101:\n              swap1\n              pop\n                /* \"Campaign.sol\":4993:5019  bytes(req.name).length > 0 */\n              gt\n                /* \"Campaign.sol\":4985:5020  require(bytes(req.name).length > 0) */\n              tag_102\n              jumpi\n              0x00\n              dup1\n              revert\n            tag_102:\n                /* \"Campaign.sol\":5070:5077  reqName */\n              dup3\n                /* \"Campaign.sol\":5064:5085  bytes(reqName).length */\n              mload\n                /* \"Campaign.sol\":5044:5047  req */\n              dup2\n                /* \"Campaign.sol\":5044:5052  req.name */\n              0x00\n              add\n                /* \"Campaign.sol\":5038:5060  bytes(req.name).length */\n              dup1\n              sload\n              tag_103\n              swap1\n              tag_92\n              jump\t// in\n            tag_103:\n              swap1\n              pop\n                /* \"Campaign.sol\":5038:5085  bytes(req.name).length == bytes(reqName).length */\n              eq\n                /* \"Campaign.sol\":5030:5086  require(bytes(req.name).length == bytes(reqName).length) */\n              tag_104\n              jumpi\n              0x00\n              dup1\n              revert\n            tag_104:\n                /* \"Campaign.sol\":5155:5156  0 */\n              0x00\n                /* \"Campaign.sol\":5131:5140  approvers */\n              0x03\n                /* \"Campaign.sol\":5131:5152  approvers[msg.sender] */\n              0x00\n                /* \"Campaign.sol\":5141:5151  msg.sender */\n              caller\n                /* \"Campaign.sol\":5131:5152  approvers[msg.sender] */\n              0xffffffffffffffffffffffffffffffffffffffff\n              and\n              0xffffffffffffffffffffffffffffffffffffffff\n              and\n              dup2\n              mstore\n              0x20\n              add\n              swap1\n              dup2\n              mstore\n              0x20\n              add\n              0x00\n              keccak256\n              sload\n                /* \"Campaign.sol\":5131:5156  approvers[msg.sender] > 0 */\n              gt\n                /* \"Campaign.sol\":5123:5157  require(approvers[msg.sender] > 0) */\n              tag_105\n              jumpi\n              0x00\n              dup1\n              revert\n            tag_105:\n                /* \"Campaign.sol\":5201:5204  req */\n              dup1\n                /* \"Campaign.sol\":5201:5214  req.canSubmit */\n              0x06\n              add\n              0x00\n              swap1\n              sload\n              swap1\n              0x0100\n              exp\n              swap1\n              div\n              0xff\n              and\n                /* \"Campaign.sol\":5200:5214  !req.canSubmit */\n              iszero\n                /* \"Campaign.sol\":5192:5215  require(!req.canSubmit) */\n              tag_106\n              jumpi\n              0x00\n              dup1\n              revert\n            tag_106:\n                /* \"Campaign.sol\":5234:5237  req */\n              dup1\n                /* \"Campaign.sol\":5234:5246  req.complete */\n              0x06\n              add\n              0x01\n              swap1\n              sload\n              swap1\n              0x0100\n              exp\n              swap1\n              div\n              0xff\n              and\n                /* \"Campaign.sol\":5233:5246  !req.complete */\n              iszero\n                /* \"Campaign.sol\":5225:5247  require(!req.complete) */\n              tag_107\n              jumpi\n              0x00\n              dup1\n              revert\n            tag_107:\n                /* \"Campaign.sol\":5292:5295  req */\n              dup1\n                /* \"Campaign.sol\":5292:5305  req.approvers */\n              0x07\n              add\n                /* \"Campaign.sol\":5292:5317  req.approvers[msg.sender] */\n              0x00\n                /* \"Campaign.sol\":5306:5316  msg.sender */\n              caller\n                /* \"Campaign.sol\":5292:5317  req.approvers[msg.sender] */\n              0xffffffffffffffffffffffffffffffffffffffff\n              and\n              0xffffffffffffffffffffffffffffffffffffffff\n              and\n              dup2\n              mstore\n              0x20\n              add\n              swap1\n              dup2\n              mstore\n              0x20\n              add\n              0x00\n              keccak256\n              0x00\n              swap1\n              sload\n              swap1\n              0x0100\n              exp\n              swap1\n              div\n              0xff\n              and\n                /* \"Campaign.sol\":5291:5317  !req.approvers[msg.sender] */\n              iszero\n                /* \"Campaign.sol\":5283:5318  require(!req.approvers[msg.sender]) */\n              tag_108\n              jumpi\n              0x00\n              dup1\n              revert\n            tag_108:\n                /* \"Campaign.sol\":5357:5361  true */\n              0x01\n                /* \"Campaign.sol\":5329:5332  req */\n              dup2\n                /* \"Campaign.sol\":5329:5342  req.approvers */\n              0x07\n              add\n                /* \"Campaign.sol\":5329:5354  req.approvers[msg.sender] */\n              0x00\n                /* \"Campaign.sol\":5343:5353  msg.sender */\n              caller\n                /* \"Campaign.sol\":5329:5354  req.approvers[msg.sender] */\n              0xffffffffffffffffffffffffffffffffffffffff\n              and\n              0xffffffffffffffffffffffffffffffffffffffff\n              and\n              dup2\n              mstore\n              0x20\n              add\n              swap1\n              dup2\n              mstore\n              0x20\n              add\n              0x00\n              keccak256\n              0x00\n                /* \"Campaign.sol\":5329:5361  req.approvers[msg.sender] = true */\n              0x0100\n              exp\n              dup2\n              sload\n              dup2\n              0xff\n              mul\n              not\n              and\n              swap1\n              dup4\n              iszero\n              iszero\n              mul\n              or\n              swap1\n              sstore\n              pop\n                /* \"Campaign.sol\":5383:5393  isApproval */\n              dup2\n                /* \"Campaign.sol\":5380:5439  if(isApproval){... */\n              iszero\n              tag_109\n              jumpi\n                /* \"Campaign.sol\":5408:5411  req */\n              dup1\n                /* \"Campaign.sol\":5408:5426  req.approvalsCount */\n              0x04\n              add\n              0x00\n                /* \"Campaign.sol\":5408:5428  req.approvalsCount++ */\n              dup2\n              sload\n              dup1\n              swap3\n              swap2\n              swap1\n              tag_110\n              swap1\n              tag_111\n              jump\t// in\n            tag_110:\n              swap2\n              swap1\n              pop\n              sstore\n              pop\n                /* \"Campaign.sol\":5380:5439  if(isApproval){... */\n            tag_109:\n                /* \"Campaign.sol\":5474:5477  req */\n              dup1\n                /* \"Campaign.sol\":5474:5495  req.requiredApprovals */\n              0x05\n              add\n              sload\n                /* \"Campaign.sol\":5452:5455  req */\n              dup2\n                /* \"Campaign.sol\":5452:5470  req.approvalsCount */\n              0x04\n              add\n              sload\n                /* \"Campaign.sol\":5452:5495  req.approvalsCount >= req.requiredApprovals */\n              lt\n                /* \"Campaign.sol\":5449:5542  if(req.approvalsCount >= req.requiredApprovals) {... */\n              tag_112\n              jumpi\n                /* \"Campaign.sol\":5527:5531  true */\n              0x01\n                /* \"Campaign.sol\":5511:5514  req */\n              dup2\n                /* \"Campaign.sol\":5511:5524  req.canSubmit */\n              0x06\n              add\n              0x00\n                /* \"Campaign.sol\":5511:5531  req.canSubmit = true */\n              0x0100\n              exp\n              dup2\n              sload\n              dup2\n              0xff\n              mul\n              not\n              and\n              swap1\n              dup4\n              iszero\n              iszero\n              mul\n              or\n              swap1\n              sstore\n              pop\n                /* \"Campaign.sol\":5449:5542  if(req.approvalsCount >= req.requiredApprovals) {... */\n            tag_112:\n                /* \"Campaign.sol\":4883:5548  {... */\n              pop\n                /* \"Campaign.sol\":4808:5548  function voteRequest(string memory reqName, bool isApproval ) external... */\n              pop\n              pop\n              jump\t// out\n                /* \"Campaign.sol\":2983:3076  function getRequestsCount() external view returns(uint){... */\n            tag_39:\n                /* \"Campaign.sol\":3033:3037  uint */\n              0x00\n                /* \"Campaign.sol\":3055:3069  _requestsCount */\n              sload(0x08)\n                /* \"Campaign.sol\":3048:3069  return _requestsCount */\n              swap1\n              pop\n                /* \"Campaign.sol\":2983:3076  function getRequestsCount() external view returns(uint){... */\n              swap1\n              jump\t// out\n                /* \"Campaign.sol\":3193:3623  function getSummary() external view returns(Summary memory)... */\n            tag_43:\n                /* \"Campaign.sol\":3237:3251  Summary memory */\n              tag_114\n              tag_115\n              jump\t// in\n            tag_114:\n                /* \"Campaign.sol\":3267:3286  Summary memory data */\n              0x00\n                /* \"Campaign.sol\":3290:3594  Summary({... */\n              mload(0x40)\n              dup1\n              0xe0\n              add\n              0x40\n              mstore\n              dup1\n                /* \"Campaign.sol\":3321:3329  _manager */\n              0x02\n              0x00\n              swap1\n              sload\n              swap1\n              0x0100\n              exp\n              swap1\n              div\n              0xffffffffffffffffffffffffffffffffffffffff\n              and\n                /* \"Campaign.sol\":3290:3594  Summary({... */\n              0xffffffffffffffffffffffffffffffffffffffff\n              and\n              dup2\n              mstore\n              0x20\n              add\n                /* \"Campaign.sol\":3349:3354  _name */\n              0x00\n                /* \"Campaign.sol\":3290:3594  Summary({... */\n              dup1\n              sload\n              tag_117\n              swap1\n              tag_92\n              jump\t// in\n            tag_117:\n              dup1\n              0x1f\n              add\n              0x20\n              dup1\n              swap2\n              div\n              mul\n              0x20\n              add\n              mload(0x40)\n              swap1\n              dup2\n              add\n              0x40\n              mstore\n              dup1\n              swap3\n              swap2\n              swap1\n              dup2\n              dup2\n              mstore\n              0x20\n              add\n              dup3\n              dup1\n              sload\n              tag_118\n              swap1\n              tag_92\n              jump\t// in\n            tag_118:\n              dup1\n              iszero\n              tag_119\n              jumpi\n              dup1\n              0x1f\n              lt\n              tag_120\n              jumpi\n              0x0100\n              dup1\n              dup4\n              sload\n              div\n              mul\n              dup4\n              mstore\n              swap2\n              0x20\n              add\n              swap2\n              jump(tag_119)\n            tag_120:\n              dup3\n              add\n              swap2\n              swap1\n              0x00\n              mstore\n              keccak256(0x00, 0x20)\n              swap1\n            tag_121:\n              dup2\n              sload\n              dup2\n              mstore\n              swap1\n              0x01\n              add\n              swap1\n              0x20\n              add\n              dup1\n              dup4\n              gt\n              tag_121\n              jumpi\n              dup3\n              swap1\n              sub\n              0x1f\n              and\n              dup3\n              add\n              swap2\n            tag_119:\n              pop\n              pop\n              pop\n              pop\n              pop\n              dup2\n              mstore\n              0x20\n              add\n                /* \"Campaign.sol\":3381:3393  _description */\n              0x01\n                /* \"Campaign.sol\":3290:3594  Summary({... */\n              dup1\n              sload\n              tag_122\n              swap1\n              tag_92\n              jump\t// in\n            tag_122:\n              dup1\n              0x1f\n              add\n              0x20\n              dup1\n              swap2\n              div\n              mul\n              0x20\n              add\n              mload(0x40)\n              swap1\n              dup2\n              add\n              0x40\n              mstore\n              dup1\n              swap3\n              swap2\n              swap1\n              dup2\n              dup2\n              mstore\n              0x20\n              add\n              dup3\n              dup1\n              sload\n              tag_123\n              swap1\n              tag_92\n              jump\t// in\n            tag_123:\n              dup1\n              iszero\n              tag_124\n              jumpi\n              dup1\n              0x1f\n              lt\n              tag_125\n              jumpi\n              0x0100\n              dup1\n              dup4\n              sload\n              div\n              mul\n              dup4\n              mstore\n              swap2\n              0x20\n              add\n              swap2\n              jump(tag_124)\n            tag_125:\n              dup3\n              add\n              swap2\n              swap1\n              0x00\n              mstore\n              keccak256(0x00, 0x20)\n              swap1\n            tag_126:\n              dup2\n              sload\n              dup2\n              mstore\n              swap1\n              0x01\n              add\n              swap1\n              0x20\n              add\n              dup1\n              dup4\n              gt\n              tag_126\n              jumpi\n              dup3\n              swap1\n              sub\n              0x1f\n              and\n              dup3\n              add\n              swap2\n            tag_124:\n              pop\n              pop\n              pop\n              pop\n              pop\n              dup2\n              mstore\n              0x20\n              add\n                /* \"Campaign.sol\":3424:3444  _minimumContribution */\n              sload(0x05)\n                /* \"Campaign.sol\":3290:3594  Summary({... */\n              dup2\n              mstore\n              0x20\n              add\n                /* \"Campaign.sol\":3467:3488  address(this).balance */\n              selfbalance\n                /* \"Campaign.sol\":3290:3594  Summary({... */\n              dup2\n              mstore\n              0x20\n              add\n                /* \"Campaign.sol\":3525:3540  _approversCount */\n              sload(0x04)\n                /* \"Campaign.sol\":3290:3594  Summary({... */\n              dup2\n              mstore\n              0x20\n              add\n                /* \"Campaign.sol\":3569:3583  _requestsCount */\n              sload(0x08)\n                /* \"Campaign.sol\":3290:3594  Summary({... */\n              dup2\n              mstore\n              pop\n                /* \"Campaign.sol\":3267:3594  Summary memory data  = Summary({... */\n              swap1\n              pop\n                /* \"Campaign.sol\":3612:3616  data */\n              dup1\n                /* \"Campaign.sol\":3605:3616  return data */\n              swap2\n              pop\n              pop\n                /* \"Campaign.sol\":3193:3623  function getSummary() external view returns(Summary memory)... */\n              swap1\n              jump\t// out\n                /* \"Campaign.sol\":2013:2055  mapping(string => Request) public requests */\n            tag_50:\n              0x07\n              dup2\n              dup1\n              mload\n              0x20\n              dup2\n              add\n              dup3\n              add\n              dup1\n              mload\n              dup5\n              dup3\n              mstore\n              0x20\n              dup4\n              add\n              0x20\n              dup6\n              add\n              keccak256\n              dup2\n              dup4\n              mstore\n              dup1\n              swap6\n              pop\n              pop\n              pop\n              pop\n              pop\n              pop\n              0x00\n              swap2\n              pop\n              swap1\n              pop\n              dup1\n              0x00\n              add\n              dup1\n              sload\n              tag_127\n              swap1\n              tag_92\n              jump\t// in\n            tag_127:\n              dup1\n              0x1f\n              add\n              0x20\n              dup1\n              swap2\n              div\n              mul\n              0x20\n              add\n              mload(0x40)\n              swap1\n              dup2\n              add\n              0x40\n              mstore\n              dup1\n              swap3\n              swap2\n              swap1\n              dup2\n              dup2\n              mstore\n              0x20\n              add\n              dup3\n              dup1\n              sload\n              tag_128\n              swap1\n              tag_92\n              jump\t// in\n            tag_128:\n              dup1\n              iszero\n              tag_129\n              jumpi\n              dup1\n              0x1f\n              lt\n              tag_130\n              jumpi\n              0x0100\n              dup1\n              dup4\n              sload\n              div\n              mul\n              dup4\n              mstore\n              swap2\n              0x20\n              add\n              swap2\n              jump(tag_129)\n            tag_130:\n              dup3\n              add\n              swap2\n              swap1\n              0x00\n              mstore\n              keccak256(0x00, 0x20)\n              swap1\n            tag_131:\n              dup2\n              sload\n              dup2\n              mstore\n              swap1\n              0x01\n              add\n              swap1\n              0x20\n              add\n              dup1\n              dup4\n              gt\n              tag_131\n              jumpi\n              dup3\n              swap1\n              sub\n              0x1f\n              and\n              dup3\n              add\n              swap2\n            tag_129:\n              pop\n              pop\n              pop\n              pop\n              pop\n              swap1\n              dup1\n              0x01\n              add\n              dup1\n              sload\n              tag_132\n              swap1\n              tag_92\n              jump\t// in\n            tag_132:\n              dup1\n              0x1f\n              add\n              0x20\n              dup1\n              swap2\n              div\n              mul\n              0x20\n              add\n              mload(0x40)\n              swap1\n              dup2\n              add\n              0x40\n              mstore\n              dup1\n              swap3\n              swap2\n              swap1\n              dup2\n              dup2\n              mstore\n              0x20\n              add\n              dup3\n              dup1\n              sload\n              tag_133\n              swap1\n              tag_92\n              jump\t// in\n            tag_133:\n              dup1\n              iszero\n              tag_134\n              jumpi\n              dup1\n              0x1f\n              lt\n              tag_135\n              jumpi\n              0x0100\n              dup1\n              dup4\n              sload\n              div\n              mul\n              dup4\n              mstore\n              swap2\n              0x20\n              add\n              swap2\n              jump(tag_134)\n            tag_135:\n              dup3\n              add\n              swap2\n              swap1\n              0x00\n              mstore\n              keccak256(0x00, 0x20)\n              swap1\n            tag_136:\n              dup2\n              sload\n              dup2\n              mstore\n              swap1\n              0x01\n              add\n              swap1\n              0x20\n              add\n              dup1\n              dup4\n              gt\n              tag_136\n              jumpi\n              dup3\n              swap1\n              sub\n              0x1f\n              and\n              dup3\n              add\n              swap2\n            tag_134:\n              pop\n              pop\n              pop\n              pop\n              pop\n              swap1\n              dup1\n              0x02\n              add\n              sload\n              swap1\n              dup1\n              0x03\n              add\n              0x00\n              swap1\n              sload\n              swap1\n              0x0100\n              exp\n              swap1\n              div\n              0xffffffffffffffffffffffffffffffffffffffff\n              and\n              swap1\n              dup1\n              0x04\n              add\n              sload\n              swap1\n              dup1\n              0x05\n              add\n              sload\n              swap1\n              dup1\n              0x06\n              add\n              0x00\n              swap1\n              sload\n              swap1\n              0x0100\n              exp\n              swap1\n              div\n              0xff\n              and\n              swap1\n              dup1\n              0x06\n              add\n              0x01\n              swap1\n              sload\n              swap1\n              0x0100\n              exp\n              swap1\n              div\n              0xff\n              and\n              swap1\n              pop\n              dup9\n              jump\t// out\n                /* \"Campaign.sol\":2876:2978  function getContractBalance() external view returns(uint){... */\n            tag_55:\n                /* \"Campaign.sol\":2928:2932  uint */\n              0x00\n                /* \"Campaign.sol\":2950:2971  address(this).balance */\n              selfbalance\n                /* \"Campaign.sol\":2943:2971  return address(this).balance */\n              swap1\n              pop\n                /* \"Campaign.sol\":2876:2978  function getContractBalance() external view returns(uint){... */\n              swap1\n              jump\t// out\n                /* \"Campaign.sol\":3081:3188  function getRequests() external view returns(RequestSummary[] memory)... */\n            tag_59:\n                /* \"Campaign.sol\":3126:3149  RequestSummary[] memory */\n              0x60\n                /* \"Campaign.sol\":3172:3181  _requests */\n              0x06\n                /* \"Campaign.sol\":3165:3181  return _requests */\n              dup1\n              sload\n              dup1\n              0x20\n              mul\n              0x20\n              add\n              mload(0x40)\n              swap1\n              dup2\n              add\n              0x40\n              mstore\n              dup1\n              swap3\n              swap2\n              swap1\n              dup2\n              dup2\n              mstore\n              0x20\n              add\n              0x00\n              swap1\n            tag_139:\n              dup3\n              dup3\n              lt\n              iszero\n              tag_140\n              jumpi\n              dup4\n              dup3\n              swap1\n              0x00\n              mstore\n              keccak256(0x00, 0x20)\n              swap1\n              0x03\n              mul\n              add\n              mload(0x40)\n              dup1\n              0x60\n              add\n              0x40\n              mstore\n              swap1\n              dup2\n              0x00\n              dup3\n              add\n              dup1\n              sload\n              tag_142\n              swap1\n              tag_92\n              jump\t// in\n            tag_142:\n              dup1\n              0x1f\n              add\n              0x20\n              dup1\n              swap2\n              div\n              mul\n              0x20\n              add\n              mload(0x40)\n              swap1\n              dup2\n              add\n              0x40\n              mstore\n              dup1\n              swap3\n              swap2\n              swap1\n              dup2\n              dup2\n              mstore\n              0x20\n              add\n              dup3\n              dup1\n              sload\n              tag_143\n              swap1\n              tag_92\n              jump\t// in\n            tag_143:\n              dup1\n              iszero\n              tag_144\n              jumpi\n              dup1\n              0x1f\n              lt\n              tag_145\n              jumpi\n              0x0100\n              dup1\n              dup4\n              sload\n              div\n              mul\n              dup4\n              mstore\n              swap2\n              0x20\n              add\n              swap2\n              jump(tag_144)\n            tag_145:\n              dup3\n              add\n              swap2\n              swap1\n              0x00\n              mstore\n              keccak256(0x00, 0x20)\n              swap1\n            tag_146:\n              dup2\n              sload\n              dup2\n              mstore\n              swap1\n              0x01\n              add\n              swap1\n              0x20\n              add\n              dup1\n              dup4\n              gt\n              tag_146\n              jumpi\n              dup3\n              swap1\n              sub\n              0x1f\n              and\n              dup3\n              add\n              swap2\n            tag_144:\n              pop\n              pop\n              pop\n              pop\n              pop\n              dup2\n              mstore\n              0x20\n              add\n              0x01\n              dup3\n              add\n              dup1\n              sload\n              tag_147\n              swap1\n              tag_92\n              jump\t// in\n            tag_147:\n              dup1\n              0x1f\n              add\n              0x20\n              dup1\n              swap2\n              div\n              mul\n              0x20\n              add\n              mload(0x40)\n              swap1\n              dup2\n              add\n              0x40\n              mstore\n              dup1\n              swap3\n              swap2\n              swap1\n              dup2\n              dup2\n              mstore\n              0x20\n              add\n              dup3\n              dup1\n              sload\n              tag_148\n              swap1\n              tag_92\n              jump\t// in\n            tag_148:\n              dup1\n              iszero\n              tag_149\n              jumpi\n              dup1\n              0x1f\n              lt\n              tag_150\n              jumpi\n              0x0100\n              dup1\n              dup4\n              sload\n              div\n              mul\n              dup4\n              mstore\n              swap2\n              0x20\n              add\n              swap2\n              jump(tag_149)\n            tag_150:\n              dup3\n              add\n              swap2\n              swap1\n              0x00\n              mstore\n              keccak256(0x00, 0x20)\n              swap1\n            tag_151:\n              dup2\n              sload\n              dup2\n              mstore\n              swap1\n              0x01\n              add\n              swap1\n              0x20\n              add\n              dup1\n              dup4\n              gt\n              tag_151\n              jumpi\n              dup3\n              swap1\n              sub\n              0x1f\n              and\n              dup3\n              add\n              swap2\n            tag_149:\n              pop\n              pop\n              pop\n              pop\n              pop\n              dup2\n              mstore\n              0x20\n              add\n              0x02\n              dup3\n              add\n              sload\n              dup2\n              mstore\n              pop\n              pop\n              dup2\n              mstore\n              0x20\n              add\n              swap1\n              0x01\n              add\n              swap1\n              jump(tag_139)\n            tag_140:\n              pop\n              pop\n              pop\n              pop\n              swap1\n              pop\n                /* \"Campaign.sol\":3081:3188  function getRequests() external view returns(RequestSummary[] memory)... */\n              swap1\n              jump\t// out\n                /* \"Campaign.sol\":2450:2548  function getCampaignName() external view returns (string memory)... */\n            tag_64:\n                /* \"Campaign.sol\":2500:2513  string memory */\n              0x60\n                /* \"Campaign.sol\":2536:2541  _name */\n              0x00\n                /* \"Campaign.sol\":2529:2541  return _name */\n              dup1\n              sload\n              tag_153\n              swap1\n              tag_92\n              jump\t// in\n            tag_153:\n              dup1\n              0x1f\n              add\n              0x20\n              dup1\n              swap2\n              div\n              mul\n              0x20\n              add\n              mload(0x40)\n              swap1\n              dup2\n              add\n              0x40\n              mstore\n              dup1\n              swap3\n              swap2\n              swap1\n              dup2\n              dup2\n              mstore\n              0x20\n              add\n              dup3\n              dup1\n              sload\n              tag_154\n              swap1\n              tag_92\n              jump\t// in\n            tag_154:\n              dup1\n              iszero\n              tag_155\n              jumpi\n              dup1\n              0x1f\n              lt\n              tag_156\n              jumpi\n              0x0100\n              dup1\n              dup4\n              sload\n              div\n              mul\n              dup4\n              mstore\n              swap2\n              0x20\n              add\n              swap2\n              jump(tag_155)\n            tag_156:\n              dup3\n              add\n              swap2\n              swap1\n              0x00\n              mstore\n              keccak256(0x00, 0x20)\n              swap1\n            tag_157:\n              dup2\n              sload\n              dup2\n              mstore\n              swap1\n              0x01\n              add\n              swap1\n              0x20\n              add\n              dup1\n              dup4\n              gt\n              tag_157\n              jumpi\n              dup3\n              swap1\n              sub\n              0x1f\n              and\n              dup3\n              add\n              swap2\n            tag_155:\n              pop\n              pop\n              pop\n              pop\n              pop\n              swap1\n              pop\n                /* \"Campaign.sol\":2450:2548  function getCampaignName() external view returns (string memory)... */\n              swap1\n              jump\t// out\n                /* \"Campaign.sol\":3850:4802  function triggerCampaignRequest(string memory name, string memory description, uint amount, uint requiredApprovals, address payable receiver) restricted external {... */\n            tag_70:\n                /* \"Campaign.sol\":6023:6031  _manager */\n              0x02\n              0x00\n              swap1\n              sload\n              swap1\n              0x0100\n              exp\n              swap1\n              div\n              0xffffffffffffffffffffffffffffffffffffffff\n              and\n                /* \"Campaign.sol\":6009:6031  msg.sender == _manager */\n              0xffffffffffffffffffffffffffffffffffffffff\n              and\n                /* \"Campaign.sol\":6009:6019  msg.sender */\n              caller\n                /* \"Campaign.sol\":6009:6031  msg.sender == _manager */\n              0xffffffffffffffffffffffffffffffffffffffff\n              and\n              eq\n                /* \"Campaign.sol\":6001:6032  require(msg.sender == _manager) */\n              tag_159\n              jumpi\n              0x00\n              dup1\n              revert\n            tag_159:\n                /* \"Campaign.sol\":4060:4061  0 */\n              0x00\n                /* \"Campaign.sol\":4045:4049  name */\n              dup6\n                /* \"Campaign.sol\":4039:4057  bytes(name).length */\n              mload\n                /* \"Campaign.sol\":4039:4061  bytes(name).length > 0 */\n              gt\n                /* \"Campaign.sol\":4031:4062  require(bytes(name).length > 0) */\n              tag_161\n              jumpi\n              0x00\n              dup1\n              revert\n            tag_161:\n                /* \"Campaign.sol\":4108:4109  0 */\n              0x00\n                /* \"Campaign.sol\":4086:4097  description */\n              dup5\n                /* \"Campaign.sol\":4080:4105  bytes(description).length */\n              mload\n                /* \"Campaign.sol\":4080:4109  bytes(description).length > 0 */\n              gt\n                /* \"Campaign.sol\":4072:4110  require(bytes(description).length > 0) */\n              tag_162\n              jumpi\n              0x00\n              dup1\n              revert\n            tag_162:\n                /* \"Campaign.sol\":4137:4138  0 */\n              0x00\n                /* \"Campaign.sol\":4128:4134  amount */\n              dup4\n                /* \"Campaign.sol\":4128:4138  amount > 0 */\n              gt\n                /* \"Campaign.sol\":4120:4139  require(amount > 0) */\n              tag_163\n              jumpi\n              0x00\n              dup1\n              revert\n            tag_163:\n                /* \"Campaign.sol\":4167:4188  address(this).balance */\n              selfbalance\n                /* \"Campaign.sol\":4157:4163  amount */\n              dup4\n                /* \"Campaign.sol\":4157:4188  amount <= address(this).balance */\n              gt\n              iszero\n                /* \"Campaign.sol\":4149:4189  require(amount <= address(this).balance) */\n              tag_164\n              jumpi\n              0x00\n              dup1\n              revert\n            tag_164:\n                /* \"Campaign.sol\":4227:4228  0 */\n              0x00\n                /* \"Campaign.sol\":4207:4224  requiredApprovals */\n              dup3\n                /* \"Campaign.sol\":4207:4228  requiredApprovals > 0 */\n              gt\n                /* \"Campaign.sol\":4199:4229  require(requiredApprovals > 0) */\n              tag_165\n              jumpi\n              0x00\n              dup1\n              revert\n            tag_165:\n                /* \"Campaign.sol\":4268:4283  _approversCount */\n              sload(0x04)\n                /* \"Campaign.sol\":4247:4264  requiredApprovals */\n              dup3\n                /* \"Campaign.sol\":4247:4283  requiredApprovals <= _approversCount */\n              gt\n              iszero\n                /* \"Campaign.sol\":4239:4284  require(requiredApprovals <= _approversCount) */\n              tag_166\n              jumpi\n              0x00\n              dup1\n              revert\n            tag_166:\n                /* \"Campaign.sol\":4294:4313  Request storage req */\n              0x00\n                /* \"Campaign.sol\":4316:4324  requests */\n              0x07\n                /* \"Campaign.sol\":4325:4329  name */\n              dup7\n                /* \"Campaign.sol\":4316:4330  requests[name] */\n              mload(0x40)\n              tag_167\n              swap2\n              swap1\n              tag_100\n              jump\t// in\n            tag_167:\n              swap1\n              dup2\n              mstore\n              0x20\n              add\n              mload(0x40)\n              dup1\n              swap2\n              sub\n              swap1\n              keccak256\n                /* \"Campaign.sol\":4294:4330  Request storage req = requests[name] */\n              swap1\n              pop\n                /* \"Campaign.sol\":4359:4363  name */\n              dup6\n                /* \"Campaign.sol\":4349:4352  req */\n              dup2\n                /* \"Campaign.sol\":4349:4357  req.name */\n              0x00\n              add\n                /* \"Campaign.sol\":4349:4363  req.name= name */\n              swap1\n              dup2\n              tag_168\n              swap2\n              swap1\n              tag_169\n              jump\t// in\n            tag_168:\n              pop\n                /* \"Campaign.sol\":4391:4402  description */\n              dup5\n                /* \"Campaign.sol\":4373:4376  req */\n              dup2\n                /* \"Campaign.sol\":4373:4388  req.description */\n              0x01\n              add\n                /* \"Campaign.sol\":4373:4402  req.description = description */\n              swap1\n              dup2\n              tag_170\n              swap2\n              swap1\n              tag_169\n              jump\t// in\n            tag_170:\n              pop\n                /* \"Campaign.sol\":4425:4431  amount */\n              dup4\n                /* \"Campaign.sol\":4412:4415  req */\n              dup2\n                /* \"Campaign.sol\":4412:4422  req.amount */\n              0x02\n              add\n                /* \"Campaign.sol\":4412:4431  req.amount = amount */\n              dup2\n              swap1\n              sstore\n              pop\n                /* \"Campaign.sol\":4456:4464  receiver */\n              dup2\n                /* \"Campaign.sol\":4441:4444  req */\n              dup2\n                /* \"Campaign.sol\":4441:4453  req.receiver */\n              0x03\n              add\n              0x00\n                /* \"Campaign.sol\":4441:4464  req.receiver = receiver */\n              0x0100\n              exp\n              dup2\n              sload\n              dup2\n              0xffffffffffffffffffffffffffffffffffffffff\n              mul\n              not\n              and\n              swap1\n              dup4\n              0xffffffffffffffffffffffffffffffffffffffff\n              and\n              mul\n              or\n              swap1\n              sstore\n              pop\n                /* \"Campaign.sol\":4495:4496  0 */\n              0x00\n                /* \"Campaign.sol\":4474:4477  req */\n              dup2\n                /* \"Campaign.sol\":4474:4492  req.approvalsCount */\n              0x04\n              add\n                /* \"Campaign.sol\":4474:4496  req.approvalsCount=  0 */\n              dup2\n              swap1\n              sstore\n              pop\n                /* \"Campaign.sol\":4530:4547  requiredApprovals */\n              dup3\n                /* \"Campaign.sol\":4506:4509  req */\n              dup2\n                /* \"Campaign.sol\":4506:4527  req.requiredApprovals */\n              0x05\n              add\n                /* \"Campaign.sol\":4506:4547  req.requiredApprovals = requiredApprovals */\n              dup2\n              swap1\n              sstore\n              pop\n                /* \"Campaign.sol\":4571:4576  false */\n              0x00\n                /* \"Campaign.sol\":4557:4560  req */\n              dup2\n                /* \"Campaign.sol\":4557:4569  req.complete */\n              0x06\n              add\n              0x01\n                /* \"Campaign.sol\":4557:4576  req.complete= false */\n              0x0100\n              exp\n              dup2\n              sload\n              dup2\n              0xff\n              mul\n              not\n              and\n              swap1\n              dup4\n              iszero\n              iszero\n              mul\n              or\n              swap1\n              sstore\n              pop\n                /* \"Campaign.sol\":4587:4601  _requestsCount */\n              0x08\n              0x00\n                /* \"Campaign.sol\":4587:4603  _requestsCount++ */\n              dup2\n              sload\n              dup1\n              swap3\n              swap2\n              swap1\n              tag_171\n              swap1\n              tag_111\n              jump\t// in\n            tag_171:\n              swap2\n              swap1\n              pop\n              sstore\n              pop\n                /* \"Campaign.sol\":4613:4642  RequestSummary memory summary */\n              0x00\n                /* \"Campaign.sol\":4645:4761  RequestSummary({... */\n              mload(0x40)\n              dup1\n              0x60\n              add\n              0x40\n              mstore\n              dup1\n                /* \"Campaign.sol\":4680:4684  name */\n              dup9\n                /* \"Campaign.sol\":4645:4761  RequestSummary({... */\n              dup2\n              mstore\n              0x20\n              add\n                /* \"Campaign.sol\":4711:4722  description */\n              dup8\n                /* \"Campaign.sol\":4645:4761  RequestSummary({... */\n              dup2\n              mstore\n              0x20\n              add\n                /* \"Campaign.sol\":4744:4750  amount */\n              dup7\n                /* \"Campaign.sol\":4645:4761  RequestSummary({... */\n              dup2\n              mstore\n              pop\n                /* \"Campaign.sol\":4613:4761  RequestSummary memory summary = RequestSummary({... */\n              swap1\n              pop\n                /* \"Campaign.sol\":4772:4781  _requests */\n              0x06\n                /* \"Campaign.sol\":4787:4794  summary */\n              dup2\n                /* \"Campaign.sol\":4772:4795  _requests.push(summary) */\n              swap1\n              dup1\n              0x01\n              dup2\n              sload\n              add\n              dup1\n              dup3\n              sstore\n              dup1\n              swap2\n              pop\n              pop\n              0x01\n              swap1\n              sub\n              swap1\n              0x00\n              mstore\n              keccak256(0x00, 0x20)\n              swap1\n              0x03\n              mul\n              add\n              0x00\n              swap1\n              swap2\n              swap1\n              swap2\n              swap1\n              swap2\n              pop\n              0x00\n              dup3\n              add\n              mload\n              dup2\n              0x00\n              add\n              swap1\n              dup2\n              tag_173\n              swap2\n              swap1\n              tag_169\n              jump\t// in\n            tag_173:\n              pop\n              0x20\n              dup3\n              add\n              mload\n              dup2\n              0x01\n              add\n              swap1\n              dup2\n              tag_174\n              swap2\n              swap1\n              tag_169\n              jump\t// in\n            tag_174:\n              pop\n              0x40\n              dup3\n              add\n              mload\n              dup2\n              0x02\n              add\n              sstore\n              pop\n              pop\n                /* \"Campaign.sol\":4012:4802  {... */\n              pop\n              pop\n                /* \"Campaign.sol\":3850:4802  function triggerCampaignRequest(string memory name, string memory description, uint amount, uint requiredApprovals, address payable receiver) restricted external {... */\n              pop\n              pop\n              pop\n              pop\n              pop\n              jump\t// out\n                /* \"Campaign.sol\":2354:2444  function getManager() external view returns (address)... */\n            tag_73:\n                /* \"Campaign.sol\":2399:2406  address */\n              0x00\n                /* \"Campaign.sol\":2429:2437  _manager */\n              0x02\n              0x00\n              swap1\n              sload\n              swap1\n              0x0100\n              exp\n              swap1\n              div\n              0xffffffffffffffffffffffffffffffffffffffff\n              and\n                /* \"Campaign.sol\":2422:2437  return _manager */\n              swap1\n              pop\n                /* \"Campaign.sol\":2354:2444  function getManager() external view returns (address)... */\n              swap1\n              jump\t// out\n                /* \"Campaign.sol\":3629:3844  function contribute() public payable {... */\n            tag_77:\n                /* \"Campaign.sol\":3697:3717  _minimumContribution */\n              sload(0x05)\n                /* \"Campaign.sol\":3684:3693  msg.value */\n              callvalue\n                /* \"Campaign.sol\":3684:3717  msg.value >= _minimumContribution */\n              lt\n              iszero\n                /* \"Campaign.sol\":3676:3718  require(msg.value >= _minimumContribution) */\n              tag_177\n              jumpi\n              0x00\n              dup1\n              revert\n            tag_177:\n                /* \"Campaign.sol\":3762:3763  0 */\n              0x00\n                /* \"Campaign.sol\":3737:3746  approvers */\n              0x03\n                /* \"Campaign.sol\":3737:3758  approvers[msg.sender] */\n              0x00\n                /* \"Campaign.sol\":3747:3757  msg.sender */\n              caller\n                /* \"Campaign.sol\":3737:3758  approvers[msg.sender] */\n              0xffffffffffffffffffffffffffffffffffffffff\n              and\n              0xffffffffffffffffffffffffffffffffffffffff\n              and\n              dup2\n              mstore\n              0x20\n              add\n              swap1\n              dup2\n              mstore\n              0x20\n              add\n              0x00\n              keccak256\n              sload\n                /* \"Campaign.sol\":3737:3763  approvers[msg.sender] == 0 */\n              eq\n                /* \"Campaign.sol\":3729:3764  require(approvers[msg.sender] == 0) */\n              tag_178\n              jumpi\n              0x00\n              dup1\n              revert\n            tag_178:\n                /* \"Campaign.sol\":3799:3808  msg.value */\n              callvalue\n                /* \"Campaign.sol\":3774:3783  approvers */\n              0x03\n                /* \"Campaign.sol\":3774:3795  approvers[msg.sender] */\n              0x00\n                /* \"Campaign.sol\":3784:3794  msg.sender */\n              caller\n                /* \"Campaign.sol\":3774:3795  approvers[msg.sender] */\n              0xffffffffffffffffffffffffffffffffffffffff\n              and\n              0xffffffffffffffffffffffffffffffffffffffff\n              and\n              dup2\n              mstore\n              0x20\n              add\n              swap1\n              dup2\n              mstore\n              0x20\n              add\n              0x00\n              keccak256\n                /* \"Campaign.sol\":3774:3809  approvers[msg.sender] = (msg.value) */\n              dup2\n              swap1\n              sstore\n              pop\n                /* \"Campaign.sol\":3819:3834  _approversCount */\n              0x04\n              0x00\n                /* \"Campaign.sol\":3819:3836  _approversCount++ */\n              dup2\n              sload\n              dup1\n              swap3\n              swap2\n              swap1\n              tag_179\n              swap1\n              tag_111\n              jump\t// in\n            tag_179:\n              swap2\n              swap1\n              pop\n              sstore\n              pop\n                /* \"Campaign.sol\":3629:3844  function contribute() public payable {... */\n              jump\t// out\n                /* \"Campaign.sol\":5554:5963  function submitRequest(string memory reqName) restricted external {... */\n            tag_81:\n                /* \"Campaign.sol\":6023:6031  _manager */\n              0x02\n              0x00\n              swap1\n              sload\n              swap1\n              0x0100\n              exp\n              swap1\n              div\n              0xffffffffffffffffffffffffffffffffffffffff\n              and\n                /* \"Campaign.sol\":6009:6031  msg.sender == _manager */\n              0xffffffffffffffffffffffffffffffffffffffff\n              and\n                /* \"Campaign.sol\":6009:6019  msg.sender */\n              caller\n                /* \"Campaign.sol\":6009:6031  msg.sender == _manager */\n              0xffffffffffffffffffffffffffffffffffffffff\n              and\n              eq\n                /* \"Campaign.sol\":6001:6032  require(msg.sender == _manager) */\n              tag_181\n              jumpi\n              0x00\n              dup1\n              revert\n            tag_181:\n                /* \"Campaign.sol\":5630:5649  Request storage req */\n              0x00\n                /* \"Campaign.sol\":5652:5660  requests */\n              0x07\n                /* \"Campaign.sol\":5661:5668  reqName */\n              dup3\n                /* \"Campaign.sol\":5652:5669  requests[reqName] */\n              mload(0x40)\n              tag_183\n              swap2\n              swap1\n              tag_100\n              jump\t// in\n            tag_183:\n              swap1\n              dup2\n              mstore\n              0x20\n              add\n              mload(0x40)\n              dup1\n              swap2\n              sub\n              swap1\n              keccak256\n                /* \"Campaign.sol\":5630:5669  Request storage req = requests[reqName] */\n              swap1\n              pop\n                /* \"Campaign.sol\":5712:5713  0 */\n              0x00\n                /* \"Campaign.sol\":5693:5696  req */\n              dup2\n                /* \"Campaign.sol\":5693:5701  req.name */\n              0x00\n              add\n                /* \"Campaign.sol\":5687:5709  bytes(req.name).length */\n              dup1\n              sload\n              tag_184\n              swap1\n              tag_92\n              jump\t// in\n            tag_184:\n              swap1\n              pop\n                /* \"Campaign.sol\":5687:5713  bytes(req.name).length > 0 */\n              gt\n                /* \"Campaign.sol\":5679:5714  require(bytes(req.name).length > 0) */\n              tag_185\n              jumpi\n              0x00\n              dup1\n              revert\n            tag_185:\n                /* \"Campaign.sol\":5764:5771  reqName */\n              dup2\n                /* \"Campaign.sol\":5758:5779  bytes(reqName).length */\n              mload\n                /* \"Campaign.sol\":5738:5741  req */\n              dup2\n                /* \"Campaign.sol\":5738:5746  req.name */\n              0x00\n              add\n                /* \"Campaign.sol\":5732:5754  bytes(req.name).length */\n              dup1\n              sload\n              tag_186\n              swap1\n              tag_92\n              jump\t// in\n            tag_186:\n              swap1\n              pop\n                /* \"Campaign.sol\":5732:5779  bytes(req.name).length == bytes(reqName).length */\n              eq\n                /* \"Campaign.sol\":5724:5780  require(bytes(req.name).length == bytes(reqName).length) */\n              tag_187\n              jumpi\n              0x00\n              dup1\n              revert\n            tag_187:\n                /* \"Campaign.sol\":5798:5801  req */\n              dup1\n                /* \"Campaign.sol\":5798:5811  req.canSubmit */\n              0x06\n              add\n              0x00\n              swap1\n              sload\n              swap1\n              0x0100\n              exp\n              swap1\n              div\n              0xff\n              and\n                /* \"Campaign.sol\":5798:5828  req.canSubmit && !req.complete */\n              dup1\n              iszero\n              tag_188\n              jumpi\n              pop\n                /* \"Campaign.sol\":5816:5819  req */\n              dup1\n                /* \"Campaign.sol\":5816:5828  req.complete */\n              0x06\n              add\n              0x01\n              swap1\n              sload\n              swap1\n              0x0100\n              exp\n              swap1\n              div\n              0xff\n              and\n                /* \"Campaign.sol\":5815:5828  !req.complete */\n              iszero\n                /* \"Campaign.sol\":5798:5828  req.canSubmit && !req.complete */\n            tag_188:\n                /* \"Campaign.sol\":5790:5829  require(req.canSubmit && !req.complete) */\n              tag_189\n              jumpi\n              0x00\n              dup1\n              revert\n            tag_189:\n                /* \"Campaign.sol\":5872:5875  req */\n              dup1\n                /* \"Campaign.sol\":5872:5882  req.amount */\n              0x02\n              add\n              sload\n                /* \"Campaign.sol\":5847:5868  address(this).balance */\n              selfbalance\n                /* \"Campaign.sol\":5847:5882  address(this).balance >= req.amount */\n              lt\n              iszero\n                /* \"Campaign.sol\":5839:5883  require(address(this).balance >= req.amount) */\n              tag_190\n              jumpi\n              0x00\n              dup1\n              revert\n            tag_190:\n                /* \"Campaign.sol\":5893:5896  req */\n              dup1\n                /* \"Campaign.sol\":5893:5905  req.receiver */\n              0x03\n              add\n              0x00\n              swap1\n              sload\n              swap1\n              0x0100\n              exp\n              swap1\n              div\n              0xffffffffffffffffffffffffffffffffffffffff\n              and\n                /* \"Campaign.sol\":5893:5914  req.receiver.transfer */\n              0xffffffffffffffffffffffffffffffffffffffff\n              and\n                /* \"Campaign.sol\":5893:5926  req.receiver.transfer(req.amount) */\n              0x08fc\n                /* \"Campaign.sol\":5915:5918  req */\n              dup3\n                /* \"Campaign.sol\":5915:5925  req.amount */\n              0x02\n              add\n              sload\n                /* \"Campaign.sol\":5893:5926  req.receiver.transfer(req.amount) */\n              swap1\n              dup2\n              iszero\n              mul\n              swap1\n              mload(0x40)\n              0x00\n              mload(0x40)\n              dup1\n              dup4\n              sub\n              dup2\n              dup6\n              dup9\n              dup9\n              call\n              swap4\n              pop\n              pop\n              pop\n              pop\n              iszero\n              dup1\n              iszero\n              tag_192\n              jumpi\n              returndatasize\n              0x00\n              dup1\n              returndatacopy\n              revert(0x00, returndatasize)\n            tag_192:\n              pop\n                /* \"Campaign.sol\":5952:5956  true */\n              0x01\n                /* \"Campaign.sol\":5937:5940  req */\n              dup2\n                /* \"Campaign.sol\":5937:5949  req.complete */\n              0x06\n              add\n              0x01\n                /* \"Campaign.sol\":5937:5956  req.complete = true */\n              0x0100\n              exp\n              dup2\n              sload\n              dup2\n              0xff\n              mul\n              not\n              and\n              swap1\n              dup4\n              iszero\n              iszero\n              mul\n              or\n              swap1\n              sstore\n              pop\n                /* \"Campaign.sol\":5620:5963  {... */\n              pop\n                /* \"Campaign.sol\":5554:5963  function submitRequest(string memory reqName) restricted external {... */\n              pop\n              jump\t// out\n                /* \"Campaign.sol\":2765:2870  function getMinimumContribution() external view returns(uint){... */\n            tag_84:\n                /* \"Campaign.sol\":2821:2825  uint */\n              0x00\n                /* \"Campaign.sol\":2843:2863  _minimumContribution */\n              sload(0x05)\n                /* \"Campaign.sol\":2836:2863  return _minimumContribution */\n              swap1\n              pop\n                /* \"Campaign.sol\":2765:2870  function getMinimumContribution() external view returns(uint){... */\n              swap1\n              jump\t// out\n                /* \"Campaign.sol\":2662:2760  function getContributorsCount() external view returns(uint){... */\n            tag_88:\n                /* \"Campaign.sol\":2716:2720  uint */\n              0x00\n                /* \"Campaign.sol\":2738:2753  _approversCount */\n              sload(0x04)\n                /* \"Campaign.sol\":2731:2753  return _approversCount */\n              swap1\n              pop\n                /* \"Campaign.sol\":2662:2760  function getContributorsCount() external view returns(uint){... */\n              swap1\n              jump\t// out\n            tag_115:\n              mload(0x40)\n              dup1\n              0xe0\n              add\n              0x40\n              mstore\n              dup1\n              and(0xffffffffffffffffffffffffffffffffffffffff, 0x00)\n              dup2\n              mstore\n              0x20\n              add\n              0x60\n              dup2\n              mstore\n              0x20\n              add\n              0x60\n              dup2\n              mstore\n              0x20\n              add\n              0x00\n              dup2\n              mstore\n              0x20\n              add\n              0x00\n              dup2\n              mstore\n              0x20\n              add\n              0x00\n              dup2\n              mstore\n              0x20\n              add\n              0x00\n              dup2\n              mstore\n              pop\n              swap1\n              jump\t// out\n                /* \"#utility.yul\":7:82   */\n            tag_195:\n                /* \"#utility.yul\":40:46   */\n              0x00\n                /* \"#utility.yul\":73:75   */\n              0x40\n                /* \"#utility.yul\":67:76   */\n              mload\n                /* \"#utility.yul\":57:76   */\n              swap1\n              pop\n                /* \"#utility.yul\":7:82   */\n              swap1\n              jump\t// out\n                /* \"#utility.yul\":88:205   */\n            tag_196:\n                /* \"#utility.yul\":197:198   */\n              0x00\n                /* \"#utility.yul\":194:195   */\n              dup1\n                /* \"#utility.yul\":187:199   */\n              revert\n                /* \"#utility.yul\":211:328   */\n            tag_197:\n                /* \"#utility.yul\":320:321   */\n              0x00\n                /* \"#utility.yul\":317:318   */\n              dup1\n                /* \"#utility.yul\":310:322   */\n              revert\n                /* \"#utility.yul\":334:460   */\n            tag_198:\n                /* \"#utility.yul\":371:378   */\n              0x00\n                /* \"#utility.yul\":411:453   */\n              0xffffffffffffffffffffffffffffffffffffffff\n                /* \"#utility.yul\":404:409   */\n              dup3\n                /* \"#utility.yul\":400:454   */\n              and\n                /* \"#utility.yul\":389:454   */\n              swap1\n              pop\n                /* \"#utility.yul\":334:460   */\n              swap2\n              swap1\n              pop\n              jump\t// out\n                /* \"#utility.yul\":466:562   */\n            tag_199:\n                /* \"#utility.yul\":503:510   */\n              0x00\n                /* \"#utility.yul\":532:556   */\n              tag_266\n                /* \"#utility.yul\":550:555   */\n              dup3\n                /* \"#utility.yul\":532:556   */\n              tag_198\n              jump\t// in\n            tag_266:\n                /* \"#utility.yul\":521:556   */\n              swap1\n              pop\n                /* \"#utility.yul\":466:562   */\n              swap2\n              swap1\n              pop\n              jump\t// out\n                /* \"#utility.yul\":568:690   */\n            tag_200:\n                /* \"#utility.yul\":641:665   */\n              tag_268\n                /* \"#utility.yul\":659:664   */\n              dup2\n                /* \"#utility.yul\":641:665   */\n              tag_199\n              jump\t// in\n            tag_268:\n                /* \"#utility.yul\":634:639   */\n              dup2\n                /* \"#utility.yul\":631:666   */\n              eq\n                /* \"#utility.yul\":621:684   */\n              tag_269\n              jumpi\n                /* \"#utility.yul\":680:681   */\n              0x00\n                /* \"#utility.yul\":677:678   */\n              dup1\n                /* \"#utility.yul\":670:682   */\n              revert\n                /* \"#utility.yul\":621:684   */\n            tag_269:\n                /* \"#utility.yul\":568:690   */\n              pop\n              jump\t// out\n                /* \"#utility.yul\":696:835   */\n            tag_201:\n                /* \"#utility.yul\":742:747   */\n              0x00\n                /* \"#utility.yul\":780:786   */\n              dup2\n                /* \"#utility.yul\":767:787   */\n              calldataload\n                /* \"#utility.yul\":758:787   */\n              swap1\n              pop\n                /* \"#utility.yul\":796:829   */\n              tag_271\n                /* \"#utility.yul\":823:828   */\n              dup2\n                /* \"#utility.yul\":796:829   */\n              tag_200\n              jump\t// in\n            tag_271:\n                /* \"#utility.yul\":696:835   */\n              swap3\n              swap2\n              pop\n              pop\n              jump\t// out\n                /* \"#utility.yul\":841:1170   */\n            tag_23:\n                /* \"#utility.yul\":900:906   */\n              0x00\n                /* \"#utility.yul\":949:951   */\n              0x20\n                /* \"#utility.yul\":937:946   */\n              dup3\n                /* \"#utility.yul\":928:935   */\n              dup5\n                /* \"#utility.yul\":924:947   */\n              sub\n                /* \"#utility.yul\":920:952   */\n              slt\n                /* \"#utility.yul\":917:1036   */\n              iszero\n              tag_273\n              jumpi\n                /* \"#utility.yul\":955:1034   */\n              tag_274\n              tag_196\n              jump\t// in\n            tag_274:\n                /* \"#utility.yul\":917:1036   */\n            tag_273:\n                /* \"#utility.yul\":1075:1076   */\n              0x00\n                /* \"#utility.yul\":1100:1153   */\n              tag_275\n                /* \"#utility.yul\":1145:1152   */\n              dup5\n                /* \"#utility.yul\":1136:1142   */\n              dup3\n                /* \"#utility.yul\":1125:1134   */\n              dup6\n                /* \"#utility.yul\":1121:1143   */\n              add\n                /* \"#utility.yul\":1100:1153   */\n              tag_201\n              jump\t// in\n            tag_275:\n                /* \"#utility.yul\":1090:1153   */\n              swap2\n              pop\n                /* \"#utility.yul\":1046:1163   */\n              pop\n                /* \"#utility.yul\":841:1170   */\n              swap3\n              swap2\n              pop\n              pop\n              jump\t// out\n                /* \"#utility.yul\":1176:1253   */\n            tag_202:\n                /* \"#utility.yul\":1213:1220   */\n              0x00\n                /* \"#utility.yul\":1242:1247   */\n              dup2\n                /* \"#utility.yul\":1231:1247   */\n              swap1\n              pop\n                /* \"#utility.yul\":1176:1253   */\n              swap2\n              swap1\n              pop\n              jump\t// out\n                /* \"#utility.yul\":1259:1377   */\n            tag_203:\n                /* \"#utility.yul\":1346:1370   */\n              tag_278\n                /* \"#utility.yul\":1364:1369   */\n              dup2\n                /* \"#utility.yul\":1346:1370   */\n              tag_202\n              jump\t// in\n            tag_278:\n                /* \"#utility.yul\":1341:1344   */\n              dup3\n                /* \"#utility.yul\":1334:1371   */\n              mstore\n                /* \"#utility.yul\":1259:1377   */\n              pop\n              pop\n              jump\t// out\n                /* \"#utility.yul\":1383:1605   */\n            tag_26:\n                /* \"#utility.yul\":1476:1480   */\n              0x00\n                /* \"#utility.yul\":1514:1516   */\n              0x20\n                /* \"#utility.yul\":1503:1512   */\n              dup3\n                /* \"#utility.yul\":1499:1517   */\n              add\n                /* \"#utility.yul\":1491:1517   */\n              swap1\n              pop\n                /* \"#utility.yul\":1527:1598   */\n              tag_280\n                /* \"#utility.yul\":1595:1596   */\n              0x00\n                /* \"#utility.yul\":1584:1593   */\n              dup4\n                /* \"#utility.yul\":1580:1597   */\n              add\n                /* \"#utility.yul\":1571:1577   */\n              dup5\n                /* \"#utility.yul\":1527:1598   */\n              tag_203\n              jump\t// in\n            tag_280:\n                /* \"#utility.yul\":1383:1605   */\n              swap3\n              swap2\n              pop\n              pop\n              jump\t// out\n                /* \"#utility.yul\":1611:1710   */\n            tag_204:\n                /* \"#utility.yul\":1663:1669   */\n              0x00\n                /* \"#utility.yul\":1697:1702   */\n              dup2\n                /* \"#utility.yul\":1691:1703   */\n              mload\n                /* \"#utility.yul\":1681:1703   */\n              swap1\n              pop\n                /* \"#utility.yul\":1611:1710   */\n              swap2\n              swap1\n              pop\n              jump\t// out\n                /* \"#utility.yul\":1716:1885   */\n            tag_205:\n                /* \"#utility.yul\":1800:1811   */\n              0x00\n                /* \"#utility.yul\":1834:1840   */\n              dup3\n                /* \"#utility.yul\":1829:1832   */\n              dup3\n                /* \"#utility.yul\":1822:1841   */\n              mstore\n                /* \"#utility.yul\":1874:1878   */\n              0x20\n                /* \"#utility.yul\":1869:1872   */\n              dup3\n                /* \"#utility.yul\":1865:1879   */\n              add\n                /* \"#utility.yul\":1850:1879   */\n              swap1\n              pop\n                /* \"#utility.yul\":1716:1885   */\n              swap3\n              swap2\n              pop\n              pop\n              jump\t// out\n                /* \"#utility.yul\":1891:2137   */\n            tag_206:\n                /* \"#utility.yul\":1972:1973   */\n              0x00\n                /* \"#utility.yul\":1982:2095   */\n            tag_284:\n                /* \"#utility.yul\":1996:2002   */\n              dup4\n                /* \"#utility.yul\":1993:1994   */\n              dup2\n                /* \"#utility.yul\":1990:2003   */\n              lt\n                /* \"#utility.yul\":1982:2095   */\n              iszero\n              tag_286\n              jumpi\n                /* \"#utility.yul\":2081:2082   */\n              dup1\n                /* \"#utility.yul\":2076:2079   */\n              dup3\n                /* \"#utility.yul\":2072:2083   */\n              add\n                /* \"#utility.yul\":2066:2084   */\n              mload\n                /* \"#utility.yul\":2062:2063   */\n              dup2\n                /* \"#utility.yul\":2057:2060   */\n              dup5\n                /* \"#utility.yul\":2053:2064   */\n              add\n                /* \"#utility.yul\":2046:2085   */\n              mstore\n                /* \"#utility.yul\":2018:2020   */\n              0x20\n                /* \"#utility.yul\":2015:2016   */\n              dup2\n                /* \"#utility.yul\":2011:2021   */\n              add\n                /* \"#utility.yul\":2006:2021   */\n              swap1\n              pop\n                /* \"#utility.yul\":1982:2095   */\n              jump(tag_284)\n            tag_286:\n                /* \"#utility.yul\":2129:2130   */\n              0x00\n                /* \"#utility.yul\":2120:2126   */\n              dup5\n                /* \"#utility.yul\":2115:2118   */\n              dup5\n                /* \"#utility.yul\":2111:2127   */\n              add\n                /* \"#utility.yul\":2104:2131   */\n              mstore\n                /* \"#utility.yul\":1953:2137   */\n              pop\n                /* \"#utility.yul\":1891:2137   */\n              pop\n              pop\n              pop\n              jump\t// out\n                /* \"#utility.yul\":2143:2245   */\n            tag_207:\n                /* \"#utility.yul\":2184:2190   */\n              0x00\n                /* \"#utility.yul\":2235:2237   */\n              0x1f\n                /* \"#utility.yul\":2231:2238   */\n              not\n                /* \"#utility.yul\":2226:2228   */\n              0x1f\n                /* \"#utility.yul\":2219:2224   */\n              dup4\n                /* \"#utility.yul\":2215:2229   */\n              add\n                /* \"#utility.yul\":2211:2239   */\n              and\n                /* \"#utility.yul\":2201:2239   */\n              swap1\n              pop\n                /* \"#utility.yul\":2143:2245   */\n              swap2\n              swap1\n              pop\n              jump\t// out\n                /* \"#utility.yul\":2251:2628   */\n            tag_208:\n                /* \"#utility.yul\":2339:2342   */\n              0x00\n                /* \"#utility.yul\":2367:2406   */\n              tag_289\n                /* \"#utility.yul\":2400:2405   */\n              dup3\n                /* \"#utility.yul\":2367:2406   */\n              tag_204\n              jump\t// in\n            tag_289:\n                /* \"#utility.yul\":2422:2493   */\n              tag_290\n                /* \"#utility.yul\":2486:2492   */\n              dup2\n                /* \"#utility.yul\":2481:2484   */\n              dup6\n                /* \"#utility.yul\":2422:2493   */\n              tag_205\n              jump\t// in\n            tag_290:\n                /* \"#utility.yul\":2415:2493   */\n              swap4\n              pop\n                /* \"#utility.yul\":2502:2567   */\n              tag_291\n                /* \"#utility.yul\":2560:2566   */\n              dup2\n                /* \"#utility.yul\":2555:2558   */\n              dup6\n                /* \"#utility.yul\":2548:2552   */\n              0x20\n                /* \"#utility.yul\":2541:2546   */\n              dup7\n                /* \"#utility.yul\":2537:2553   */\n              add\n                /* \"#utility.yul\":2502:2567   */\n              tag_206\n              jump\t// in\n            tag_291:\n                /* \"#utility.yul\":2592:2621   */\n              tag_292\n                /* \"#utility.yul\":2614:2620   */\n              dup2\n                /* \"#utility.yul\":2592:2621   */\n              tag_207\n              jump\t// in\n            tag_292:\n                /* \"#utility.yul\":2587:2590   */\n              dup5\n                /* \"#utility.yul\":2583:2622   */\n              add\n                /* \"#utility.yul\":2576:2622   */\n              swap2\n              pop\n                /* \"#utility.yul\":2343:2628   */\n              pop\n                /* \"#utility.yul\":2251:2628   */\n              swap3\n              swap2\n              pop\n              pop\n              jump\t// out\n                /* \"#utility.yul\":2634:2947   */\n            tag_31:\n                /* \"#utility.yul\":2747:2751   */\n              0x00\n                /* \"#utility.yul\":2785:2787   */\n              0x20\n                /* \"#utility.yul\":2774:2783   */\n              dup3\n                /* \"#utility.yul\":2770:2788   */\n              add\n                /* \"#utility.yul\":2762:2788   */\n              swap1\n              pop\n                /* \"#utility.yul\":2834:2843   */\n              dup2\n                /* \"#utility.yul\":2828:2832   */\n              dup2\n                /* \"#utility.yul\":2824:2844   */\n              sub\n                /* \"#utility.yul\":2820:2821   */\n              0x00\n                /* \"#utility.yul\":2809:2818   */\n              dup4\n                /* \"#utility.yul\":2805:2822   */\n              add\n                /* \"#utility.yul\":2798:2845   */\n              mstore\n                /* \"#utility.yul\":2862:2940   */\n              tag_294\n                /* \"#utility.yul\":2935:2939   */\n              dup2\n                /* \"#utility.yul\":2926:2932   */\n              dup5\n                /* \"#utility.yul\":2862:2940   */\n              tag_208\n              jump\t// in\n            tag_294:\n                /* \"#utility.yul\":2854:2940   */\n              swap1\n              pop\n                /* \"#utility.yul\":2634:2947   */\n              swap3\n              swap2\n              pop\n              pop\n              jump\t// out\n                /* \"#utility.yul\":2953:3070   */\n            tag_209:\n                /* \"#utility.yul\":3062:3063   */\n              0x00\n                /* \"#utility.yul\":3059:3060   */\n              dup1\n                /* \"#utility.yul\":3052:3064   */\n              revert\n                /* \"#utility.yul\":3076:3193   */\n            tag_210:\n                /* \"#utility.yul\":3185:3186   */\n              0x00\n                /* \"#utility.yul\":3182:3183   */\n              dup1\n                /* \"#utility.yul\":3175:3187   */\n              revert\n                /* \"#utility.yul\":3199:3379   */\n            tag_211:\n                /* \"#utility.yul\":3247:3324   */\n              0x4e487b7100000000000000000000000000000000000000000000000000000000\n                /* \"#utility.yul\":3244:3245   */\n              0x00\n                /* \"#utility.yul\":3237:3325   */\n              mstore\n                /* \"#utility.yul\":3344:3348   */\n              0x41\n                /* \"#utility.yul\":3341:3342   */\n              0x04\n                /* \"#utility.yul\":3334:3349   */\n              mstore\n                /* \"#utility.yul\":3368:3372   */\n              0x24\n                /* \"#utility.yul\":3365:3366   */\n              0x00\n                /* \"#utility.yul\":3358:3373   */\n              revert\n                /* \"#utility.yul\":3385:3666   */\n            tag_212:\n                /* \"#utility.yul\":3468:3495   */\n              tag_299\n                /* \"#utility.yul\":3490:3494   */\n              dup3\n                /* \"#utility.yul\":3468:3495   */\n              tag_207\n              jump\t// in\n            tag_299:\n                /* \"#utility.yul\":3460:3466   */\n              dup2\n                /* \"#utility.yul\":3456:3496   */\n              add\n                /* \"#utility.yul\":3598:3604   */\n              dup2\n                /* \"#utility.yul\":3586:3596   */\n              dup2\n                /* \"#utility.yul\":3583:3605   */\n              lt\n                /* \"#utility.yul\":3562:3580   */\n              0xffffffffffffffff\n                /* \"#utility.yul\":3550:3560   */\n              dup3\n                /* \"#utility.yul\":3547:3581   */\n              gt\n                /* \"#utility.yul\":3544:3606   */\n              or\n                /* \"#utility.yul\":3541:3629   */\n              iszero\n              tag_300\n              jumpi\n                /* \"#utility.yul\":3609:3627   */\n              tag_301\n              tag_211\n              jump\t// in\n            tag_301:\n                /* \"#utility.yul\":3541:3629   */\n            tag_300:\n                /* \"#utility.yul\":3649:3659   */\n              dup1\n                /* \"#utility.yul\":3645:3647   */\n              0x40\n                /* \"#utility.yul\":3638:3660   */\n              mstore\n                /* \"#utility.yul\":3428:3666   */\n              pop\n                /* \"#utility.yul\":3385:3666   */\n              pop\n              pop\n              jump\t// out\n                /* \"#utility.yul\":3672:3801   */\n            tag_213:\n                /* \"#utility.yul\":3706:3712   */\n              0x00\n                /* \"#utility.yul\":3733:3753   */\n              tag_303\n              tag_195\n              jump\t// in\n            tag_303:\n                /* \"#utility.yul\":3723:3753   */\n              swap1\n              pop\n                /* \"#utility.yul\":3762:3795   */\n              tag_304\n                /* \"#utility.yul\":3790:3794   */\n              dup3\n                /* \"#utility.yul\":3782:3788   */\n              dup3\n                /* \"#utility.yul\":3762:3795   */\n              tag_212\n              jump\t// in\n            tag_304:\n                /* \"#utility.yul\":3672:3801   */\n              swap2\n              swap1\n              pop\n              jump\t// out\n                /* \"#utility.yul\":3807:4115   */\n            tag_214:\n                /* \"#utility.yul\":3869:3873   */\n              0x00\n                /* \"#utility.yul\":3959:3977   */\n              0xffffffffffffffff\n                /* \"#utility.yul\":3951:3957   */\n              dup3\n                /* \"#utility.yul\":3948:3978   */\n              gt\n                /* \"#utility.yul\":3945:4001   */\n              iszero\n              tag_306\n              jumpi\n                /* \"#utility.yul\":3981:3999   */\n              tag_307\n              tag_211\n              jump\t// in\n            tag_307:\n                /* \"#utility.yul\":3945:4001   */\n            tag_306:\n                /* \"#utility.yul\":4019:4048   */\n              tag_308\n                /* \"#utility.yul\":4041:4047   */\n              dup3\n                /* \"#utility.yul\":4019:4048   */\n              tag_207\n              jump\t// in\n            tag_308:\n                /* \"#utility.yul\":4011:4048   */\n              swap1\n              pop\n                /* \"#utility.yul\":4103:4107   */\n              0x20\n                /* \"#utility.yul\":4097:4101   */\n              dup2\n                /* \"#utility.yul\":4093:4108   */\n              add\n                /* \"#utility.yul\":4085:4108   */\n              swap1\n              pop\n                /* \"#utility.yul\":3807:4115   */\n              swap2\n              swap1\n              pop\n              jump\t// out\n                /* \"#utility.yul\":4121:4267   */\n            tag_215:\n                /* \"#utility.yul\":4218:4224   */\n              dup3\n                /* \"#utility.yul\":4213:4216   */\n              dup2\n                /* \"#utility.yul\":4208:4211   */\n              dup4\n                /* \"#utility.yul\":4195:4225   */\n              calldatacopy\n                /* \"#utility.yul\":4259:4260   */\n              0x00\n                /* \"#utility.yul\":4250:4256   */\n              dup4\n                /* \"#utility.yul\":4245:4248   */\n              dup4\n                /* \"#utility.yul\":4241:4257   */\n              add\n                /* \"#utility.yul\":4234:4261   */\n              mstore\n                /* \"#utility.yul\":4121:4267   */\n              pop\n              pop\n              pop\n              jump\t// out\n                /* \"#utility.yul\":4273:4698   */\n            tag_216:\n                /* \"#utility.yul\":4351:4356   */\n              0x00\n                /* \"#utility.yul\":4376:4442   */\n              tag_311\n                /* \"#utility.yul\":4392:4441   */\n              tag_312\n                /* \"#utility.yul\":4434:4440   */\n              dup5\n                /* \"#utility.yul\":4392:4441   */\n              tag_214\n              jump\t// in\n            tag_312:\n                /* \"#utility.yul\":4376:4442   */\n              tag_213\n              jump\t// in\n            tag_311:\n                /* \"#utility.yul\":4367:4442   */\n              swap1\n              pop\n                /* \"#utility.yul\":4465:4471   */\n              dup3\n                /* \"#utility.yul\":4458:4463   */\n              dup2\n                /* \"#utility.yul\":4451:4472   */\n              mstore\n                /* \"#utility.yul\":4503:4507   */\n              0x20\n                /* \"#utility.yul\":4496:4501   */\n              dup2\n                /* \"#utility.yul\":4492:4508   */\n              add\n                /* \"#utility.yul\":4541:4544   */\n              dup5\n                /* \"#utility.yul\":4532:4538   */\n              dup5\n                /* \"#utility.yul\":4527:4530   */\n              dup5\n                /* \"#utility.yul\":4523:4539   */\n              add\n                /* \"#utility.yul\":4520:4545   */\n              gt\n                /* \"#utility.yul\":4517:4629   */\n              iszero\n              tag_313\n              jumpi\n                /* \"#utility.yul\":4548:4627   */\n              tag_314\n              tag_210\n              jump\t// in\n            tag_314:\n                /* \"#utility.yul\":4517:4629   */\n            tag_313:\n                /* \"#utility.yul\":4638:4692   */\n              tag_315\n                /* \"#utility.yul\":4685:4691   */\n              dup5\n                /* \"#utility.yul\":4680:4683   */\n              dup3\n                /* \"#utility.yul\":4675:4678   */\n              dup6\n                /* \"#utility.yul\":4638:4692   */\n              tag_215\n              jump\t// in\n            tag_315:\n                /* \"#utility.yul\":4357:4698   */\n              pop\n                /* \"#utility.yul\":4273:4698   */\n              swap4\n              swap3\n              pop\n              pop\n              pop\n              jump\t// out\n                /* \"#utility.yul\":4718:5058   */\n            tag_217:\n                /* \"#utility.yul\":4774:4779   */\n              0x00\n                /* \"#utility.yul\":4823:4826   */\n              dup3\n                /* \"#utility.yul\":4816:4820   */\n              0x1f\n                /* \"#utility.yul\":4808:4814   */\n              dup4\n                /* \"#utility.yul\":4804:4821   */\n              add\n                /* \"#utility.yul\":4800:4827   */\n              slt\n                /* \"#utility.yul\":4790:4912   */\n              tag_317\n              jumpi\n                /* \"#utility.yul\":4831:4910   */\n              tag_318\n              tag_209\n              jump\t// in\n            tag_318:\n                /* \"#utility.yul\":4790:4912   */\n            tag_317:\n                /* \"#utility.yul\":4948:4954   */\n              dup2\n                /* \"#utility.yul\":4935:4955   */\n              calldataload\n                /* \"#utility.yul\":4973:5052   */\n              tag_319\n                /* \"#utility.yul\":5048:5051   */\n              dup5\n                /* \"#utility.yul\":5040:5046   */\n              dup3\n                /* \"#utility.yul\":5033:5037   */\n              0x20\n                /* \"#utility.yul\":5025:5031   */\n              dup7\n                /* \"#utility.yul\":5021:5038   */\n              add\n                /* \"#utility.yul\":4973:5052   */\n              tag_216\n              jump\t// in\n            tag_319:\n                /* \"#utility.yul\":4964:5052   */\n              swap2\n              pop\n                /* \"#utility.yul\":4780:5058   */\n              pop\n                /* \"#utility.yul\":4718:5058   */\n              swap3\n              swap2\n              pop\n              pop\n              jump\t// out\n                /* \"#utility.yul\":5064:5154   */\n            tag_218:\n                /* \"#utility.yul\":5098:5105   */\n              0x00\n                /* \"#utility.yul\":5141:5146   */\n              dup2\n                /* \"#utility.yul\":5134:5147   */\n              iszero\n                /* \"#utility.yul\":5127:5148   */\n              iszero\n                /* \"#utility.yul\":5116:5148   */\n              swap1\n              pop\n                /* \"#utility.yul\":5064:5154   */\n              swap2\n              swap1\n              pop\n              jump\t// out\n                /* \"#utility.yul\":5160:5276   */\n            tag_219:\n                /* \"#utility.yul\":5230:5251   */\n              tag_322\n                /* \"#utility.yul\":5245:5250   */\n              dup2\n                /* \"#utility.yul\":5230:5251   */\n              tag_218\n              jump\t// in\n            tag_322:\n                /* \"#utility.yul\":5223:5228   */\n              dup2\n                /* \"#utility.yul\":5220:5252   */\n              eq\n                /* \"#utility.yul\":5210:5270   */\n              tag_323\n              jumpi\n                /* \"#utility.yul\":5266:5267   */\n              0x00\n                /* \"#utility.yul\":5263:5264   */\n              dup1\n                /* \"#utility.yul\":5256:5268   */\n              revert\n                /* \"#utility.yul\":5210:5270   */\n            tag_323:\n                /* \"#utility.yul\":5160:5276   */\n              pop\n              jump\t// out\n                /* \"#utility.yul\":5282:5415   */\n            tag_220:\n                /* \"#utility.yul\":5325:5330   */\n              0x00\n                /* \"#utility.yul\":5363:5369   */\n              dup2\n                /* \"#utility.yul\":5350:5370   */\n              calldataload\n                /* \"#utility.yul\":5341:5370   */\n              swap1\n              pop\n                /* \"#utility.yul\":5379:5409   */\n              tag_325\n                /* \"#utility.yul\":5403:5408   */\n              dup2\n                /* \"#utility.yul\":5379:5409   */\n              tag_219\n              jump\t// in\n            tag_325:\n                /* \"#utility.yul\":5282:5415   */\n              swap3\n              swap2\n              pop\n              pop\n              jump\t// out\n                /* \"#utility.yul\":5421:6069   */\n            tag_35:\n                /* \"#utility.yul\":5496:5502   */\n              0x00\n                /* \"#utility.yul\":5504:5510   */\n              dup1\n                /* \"#utility.yul\":5553:5555   */\n              0x40\n                /* \"#utility.yul\":5541:5550   */\n              dup4\n                /* \"#utility.yul\":5532:5539   */\n              dup6\n                /* \"#utility.yul\":5528:5551   */\n              sub\n                /* \"#utility.yul\":5524:5556   */\n              slt\n                /* \"#utility.yul\":5521:5640   */\n              iszero\n              tag_327\n              jumpi\n                /* \"#utility.yul\":5559:5638   */\n              tag_328\n              tag_196\n              jump\t// in\n            tag_328:\n                /* \"#utility.yul\":5521:5640   */\n            tag_327:\n                /* \"#utility.yul\":5707:5708   */\n              0x00\n                /* \"#utility.yul\":5696:5705   */\n              dup4\n                /* \"#utility.yul\":5692:5709   */\n              add\n                /* \"#utility.yul\":5679:5710   */\n              calldataload\n                /* \"#utility.yul\":5737:5755   */\n              0xffffffffffffffff\n                /* \"#utility.yul\":5729:5735   */\n              dup2\n                /* \"#utility.yul\":5726:5756   */\n              gt\n                /* \"#utility.yul\":5723:5840   */\n              iszero\n              tag_329\n              jumpi\n                /* \"#utility.yul\":5759:5838   */\n              tag_330\n              tag_197\n              jump\t// in\n            tag_330:\n                /* \"#utility.yul\":5723:5840   */\n            tag_329:\n                /* \"#utility.yul\":5864:5927   */\n              tag_331\n                /* \"#utility.yul\":5919:5926   */\n              dup6\n                /* \"#utility.yul\":5910:5916   */\n              dup3\n                /* \"#utility.yul\":5899:5908   */\n              dup7\n                /* \"#utility.yul\":5895:5917   */\n              add\n                /* \"#utility.yul\":5864:5927   */\n              tag_217\n              jump\t// in\n            tag_331:\n                /* \"#utility.yul\":5854:5927   */\n              swap3\n              pop\n                /* \"#utility.yul\":5650:5937   */\n              pop\n                /* \"#utility.yul\":5976:5978   */\n              0x20\n                /* \"#utility.yul\":6002:6052   */\n              tag_332\n                /* \"#utility.yul\":6044:6051   */\n              dup6\n                /* \"#utility.yul\":6035:6041   */\n              dup3\n                /* \"#utility.yul\":6024:6033   */\n              dup7\n                /* \"#utility.yul\":6020:6042   */\n              add\n                /* \"#utility.yul\":6002:6052   */\n              tag_220\n              jump\t// in\n            tag_332:\n                /* \"#utility.yul\":5992:6052   */\n              swap2\n              pop\n                /* \"#utility.yul\":5947:6062   */\n              pop\n                /* \"#utility.yul\":5421:6069   */\n              swap3\n              pop\n              swap3\n              swap1\n              pop\n              jump\t// out\n                /* \"#utility.yul\":6075:6183   */\n            tag_221:\n                /* \"#utility.yul\":6152:6176   */\n              tag_334\n                /* \"#utility.yul\":6170:6175   */\n              dup2\n                /* \"#utility.yul\":6152:6176   */\n              tag_199\n              jump\t// in\n            tag_334:\n                /* \"#utility.yul\":6147:6150   */\n              dup3\n                /* \"#utility.yul\":6140:6177   */\n              mstore\n                /* \"#utility.yul\":6075:6183   */\n              pop\n              pop\n              jump\t// out\n                /* \"#utility.yul\":6189:6348   */\n            tag_222:\n                /* \"#utility.yul\":6263:6274   */\n              0x00\n                /* \"#utility.yul\":6297:6303   */\n              dup3\n                /* \"#utility.yul\":6292:6295   */\n              dup3\n                /* \"#utility.yul\":6285:6304   */\n              mstore\n                /* \"#utility.yul\":6337:6341   */\n              0x20\n                /* \"#utility.yul\":6332:6335   */\n              dup3\n                /* \"#utility.yul\":6328:6342   */\n              add\n                /* \"#utility.yul\":6313:6342   */\n              swap1\n              pop\n                /* \"#utility.yul\":6189:6348   */\n              swap3\n              swap2\n              pop\n              pop\n              jump\t// out\n                /* \"#utility.yul\":6354:6711   */\n            tag_223:\n                /* \"#utility.yul\":6432:6435   */\n              0x00\n                /* \"#utility.yul\":6460:6499   */\n              tag_337\n                /* \"#utility.yul\":6493:6498   */\n              dup3\n                /* \"#utility.yul\":6460:6499   */\n              tag_204\n              jump\t// in\n            tag_337:\n                /* \"#utility.yul\":6515:6576   */\n              tag_338\n                /* \"#utility.yul\":6569:6575   */\n              dup2\n                /* \"#utility.yul\":6564:6567   */\n              dup6\n                /* \"#utility.yul\":6515:6576   */\n              tag_222\n              jump\t// in\n            tag_338:\n                /* \"#utility.yul\":6508:6576   */\n              swap4\n              pop\n                /* \"#utility.yul\":6585:6650   */\n              tag_339\n                /* \"#utility.yul\":6643:6649   */\n              dup2\n                /* \"#utility.yul\":6638:6641   */\n              dup6\n                /* \"#utility.yul\":6631:6635   */\n              0x20\n                /* \"#utility.yul\":6624:6629   */\n              dup7\n                /* \"#utility.yul\":6620:6636   */\n              add\n                /* \"#utility.yul\":6585:6650   */\n              tag_206\n              jump\t// in\n            tag_339:\n                /* \"#utility.yul\":6675:6704   */\n              tag_340\n                /* \"#utility.yul\":6697:6703   */\n              dup2\n                /* \"#utility.yul\":6675:6704   */\n              tag_207\n              jump\t// in\n            tag_340:\n                /* \"#utility.yul\":6670:6673   */\n              dup5\n                /* \"#utility.yul\":6666:6705   */\n              add\n                /* \"#utility.yul\":6659:6705   */\n              swap2\n              pop\n                /* \"#utility.yul\":6436:6711   */\n              pop\n                /* \"#utility.yul\":6354:6711   */\n              swap3\n              swap2\n              pop\n              pop\n              jump\t// out\n                /* \"#utility.yul\":6717:6825   */\n            tag_224:\n                /* \"#utility.yul\":6794:6818   */\n              tag_342\n                /* \"#utility.yul\":6812:6817   */\n              dup2\n                /* \"#utility.yul\":6794:6818   */\n              tag_202\n              jump\t// in\n            tag_342:\n                /* \"#utility.yul\":6789:6792   */\n              dup3\n                /* \"#utility.yul\":6782:6819   */\n              mstore\n                /* \"#utility.yul\":6717:6825   */\n              pop\n              pop\n              jump\t// out\n                /* \"#utility.yul\":6889:8475   */\n            tag_225:\n                /* \"#utility.yul\":7006:7009   */\n              0x00\n                /* \"#utility.yul\":7042:7046   */\n              0xe0\n                /* \"#utility.yul\":7037:7040   */\n              dup4\n                /* \"#utility.yul\":7033:7047   */\n              add\n                /* \"#utility.yul\":7132:7136   */\n              0x00\n                /* \"#utility.yul\":7125:7130   */\n              dup4\n                /* \"#utility.yul\":7121:7137   */\n              add\n                /* \"#utility.yul\":7115:7138   */\n              mload\n                /* \"#utility.yul\":7151:7214   */\n              tag_344\n                /* \"#utility.yul\":7208:7212   */\n              0x00\n                /* \"#utility.yul\":7203:7206   */\n              dup7\n                /* \"#utility.yul\":7199:7213   */\n              add\n                /* \"#utility.yul\":7185:7197   */\n              dup3\n                /* \"#utility.yul\":7151:7214   */\n              tag_221\n              jump\t// in\n            tag_344:\n                /* \"#utility.yul\":7057:7224   */\n              pop\n                /* \"#utility.yul\":7306:7310   */\n              0x20\n                /* \"#utility.yul\":7299:7304   */\n              dup4\n                /* \"#utility.yul\":7295:7311   */\n              add\n                /* \"#utility.yul\":7289:7312   */\n              mload\n                /* \"#utility.yul\":7359:7362   */\n              dup5\n                /* \"#utility.yul\":7353:7357   */\n              dup3\n                /* \"#utility.yul\":7349:7363   */\n              sub\n                /* \"#utility.yul\":7342:7346   */\n              0x20\n                /* \"#utility.yul\":7337:7340   */\n              dup7\n                /* \"#utility.yul\":7333:7347   */\n              add\n                /* \"#utility.yul\":7326:7364   */\n              mstore\n                /* \"#utility.yul\":7385:7458   */\n              tag_345\n                /* \"#utility.yul\":7453:7457   */\n              dup3\n                /* \"#utility.yul\":7439:7451   */\n              dup3\n                /* \"#utility.yul\":7385:7458   */\n              tag_223\n              jump\t// in\n            tag_345:\n                /* \"#utility.yul\":7377:7458   */\n              swap2\n              pop\n                /* \"#utility.yul\":7234:7469   */\n              pop\n                /* \"#utility.yul\":7558:7562   */\n              0x40\n                /* \"#utility.yul\":7551:7556   */\n              dup4\n                /* \"#utility.yul\":7547:7563   */\n              add\n                /* \"#utility.yul\":7541:7564   */\n              mload\n                /* \"#utility.yul\":7611:7614   */\n              dup5\n                /* \"#utility.yul\":7605:7609   */\n              dup3\n                /* \"#utility.yul\":7601:7615   */\n              sub\n                /* \"#utility.yul\":7594:7598   */\n              0x40\n                /* \"#utility.yul\":7589:7592   */\n              dup7\n                /* \"#utility.yul\":7585:7599   */\n              add\n                /* \"#utility.yul\":7578:7616   */\n              mstore\n                /* \"#utility.yul\":7637:7710   */\n              tag_346\n                /* \"#utility.yul\":7705:7709   */\n              dup3\n                /* \"#utility.yul\":7691:7703   */\n              dup3\n                /* \"#utility.yul\":7637:7710   */\n              tag_223\n              jump\t// in\n            tag_346:\n                /* \"#utility.yul\":7629:7710   */\n              swap2\n              pop\n                /* \"#utility.yul\":7479:7721   */\n              pop\n                /* \"#utility.yul\":7814:7818   */\n              0x60\n                /* \"#utility.yul\":7807:7812   */\n              dup4\n                /* \"#utility.yul\":7803:7819   */\n              add\n                /* \"#utility.yul\":7797:7820   */\n              mload\n                /* \"#utility.yul\":7833:7896   */\n              tag_347\n                /* \"#utility.yul\":7890:7894   */\n              0x60\n                /* \"#utility.yul\":7885:7888   */\n              dup7\n                /* \"#utility.yul\":7881:7895   */\n              add\n                /* \"#utility.yul\":7867:7879   */\n              dup3\n                /* \"#utility.yul\":7833:7896   */\n              tag_224\n              jump\t// in\n            tag_347:\n                /* \"#utility.yul\":7731:7906   */\n              pop\n                /* \"#utility.yul\":7991:7995   */\n              0x80\n                /* \"#utility.yul\":7984:7989   */\n              dup4\n                /* \"#utility.yul\":7980:7996   */\n              add\n                /* \"#utility.yul\":7974:7997   */\n              mload\n                /* \"#utility.yul\":8010:8073   */\n              tag_348\n                /* \"#utility.yul\":8067:8071   */\n              0x80\n                /* \"#utility.yul\":8062:8065   */\n              dup7\n                /* \"#utility.yul\":8058:8072   */\n              add\n                /* \"#utility.yul\":8044:8056   */\n              dup3\n                /* \"#utility.yul\":8010:8073   */\n              tag_224\n              jump\t// in\n            tag_348:\n                /* \"#utility.yul\":7916:8083   */\n              pop\n                /* \"#utility.yul\":8173:8177   */\n              0xa0\n                /* \"#utility.yul\":8166:8171   */\n              dup4\n                /* \"#utility.yul\":8162:8178   */\n              add\n                /* \"#utility.yul\":8156:8179   */\n              mload\n                /* \"#utility.yul\":8192:8255   */\n              tag_349\n                /* \"#utility.yul\":8249:8253   */\n              0xa0\n                /* \"#utility.yul\":8244:8247   */\n              dup7\n                /* \"#utility.yul\":8240:8254   */\n              add\n                /* \"#utility.yul\":8226:8238   */\n              dup3\n                /* \"#utility.yul\":8192:8255   */\n              tag_224\n              jump\t// in\n            tag_349:\n                /* \"#utility.yul\":8093:8265   */\n              pop\n                /* \"#utility.yul\":8356:8360   */\n              0xc0\n                /* \"#utility.yul\":8349:8354   */\n              dup4\n                /* \"#utility.yul\":8345:8361   */\n              add\n                /* \"#utility.yul\":8339:8362   */\n              mload\n                /* \"#utility.yul\":8375:8438   */\n              tag_350\n                /* \"#utility.yul\":8432:8436   */\n              0xc0\n                /* \"#utility.yul\":8427:8430   */\n              dup7\n                /* \"#utility.yul\":8423:8437   */\n              add\n                /* \"#utility.yul\":8409:8421   */\n              dup3\n                /* \"#utility.yul\":8375:8438   */\n              tag_224\n              jump\t// in\n            tag_350:\n                /* \"#utility.yul\":8275:8448   */\n              pop\n                /* \"#utility.yul\":8465:8469   */\n              dup1\n                /* \"#utility.yul\":8458:8469   */\n              swap2\n              pop\n                /* \"#utility.yul\":7011:8475   */\n              pop\n                /* \"#utility.yul\":6889:8475   */\n              swap3\n              swap2\n              pop\n              pop\n              jump\t// out\n                /* \"#utility.yul\":8481:8850   */\n            tag_45:\n                /* \"#utility.yul\":8622:8626   */\n              0x00\n                /* \"#utility.yul\":8660:8662   */\n              0x20\n                /* \"#utility.yul\":8649:8658   */\n              dup3\n                /* \"#utility.yul\":8645:8663   */\n              add\n                /* \"#utility.yul\":8637:8663   */\n              swap1\n              pop\n                /* \"#utility.yul\":8709:8718   */\n              dup2\n                /* \"#utility.yul\":8703:8707   */\n              dup2\n                /* \"#utility.yul\":8699:8719   */\n              sub\n                /* \"#utility.yul\":8695:8696   */\n              0x00\n                /* \"#utility.yul\":8684:8693   */\n              dup4\n                /* \"#utility.yul\":8680:8697   */\n              add\n                /* \"#utility.yul\":8673:8720   */\n              mstore\n                /* \"#utility.yul\":8737:8843   */\n              tag_352\n                /* \"#utility.yul\":8838:8842   */\n              dup2\n                /* \"#utility.yul\":8829:8835   */\n              dup5\n                /* \"#utility.yul\":8737:8843   */\n              tag_225\n              jump\t// in\n            tag_352:\n                /* \"#utility.yul\":8729:8843   */\n              swap1\n              pop\n                /* \"#utility.yul\":8481:8850   */\n              swap3\n              swap2\n              pop\n              pop\n              jump\t// out\n                /* \"#utility.yul\":8856:9365   */\n            tag_49:\n                /* \"#utility.yul\":8925:8931   */\n              0x00\n                /* \"#utility.yul\":8974:8976   */\n              0x20\n                /* \"#utility.yul\":8962:8971   */\n              dup3\n                /* \"#utility.yul\":8953:8960   */\n              dup5\n                /* \"#utility.yul\":8949:8972   */\n              sub\n                /* \"#utility.yul\":8945:8977   */\n              slt\n                /* \"#utility.yul\":8942:9061   */\n              iszero\n              tag_354\n              jumpi\n                /* \"#utility.yul\":8980:9059   */\n              tag_355\n              tag_196\n              jump\t// in\n            tag_355:\n                /* \"#utility.yul\":8942:9061   */\n            tag_354:\n                /* \"#utility.yul\":9128:9129   */\n              0x00\n                /* \"#utility.yul\":9117:9126   */\n              dup3\n                /* \"#utility.yul\":9113:9130   */\n              add\n                /* \"#utility.yul\":9100:9131   */\n              calldataload\n                /* \"#utility.yul\":9158:9176   */\n              0xffffffffffffffff\n                /* \"#utility.yul\":9150:9156   */\n              dup2\n                /* \"#utility.yul\":9147:9177   */\n              gt\n                /* \"#utility.yul\":9144:9261   */\n              iszero\n              tag_356\n              jumpi\n                /* \"#utility.yul\":9180:9259   */\n              tag_357\n              tag_197\n              jump\t// in\n            tag_357:\n                /* \"#utility.yul\":9144:9261   */\n            tag_356:\n                /* \"#utility.yul\":9285:9348   */\n              tag_358\n                /* \"#utility.yul\":9340:9347   */\n              dup5\n                /* \"#utility.yul\":9331:9337   */\n              dup3\n                /* \"#utility.yul\":9320:9329   */\n              dup6\n                /* \"#utility.yul\":9316:9338   */\n              add\n                /* \"#utility.yul\":9285:9348   */\n              tag_217\n              jump\t// in\n            tag_358:\n                /* \"#utility.yul\":9275:9348   */\n              swap2\n              pop\n                /* \"#utility.yul\":9071:9358   */\n              pop\n                /* \"#utility.yul\":8856:9365   */\n              swap3\n              swap2\n              pop\n              pop\n              jump\t// out\n                /* \"#utility.yul\":9371:9475   */\n            tag_226:\n                /* \"#utility.yul\":9416:9423   */\n              0x00\n                /* \"#utility.yul\":9445:9469   */\n              tag_360\n                /* \"#utility.yul\":9463:9468   */\n              dup3\n                /* \"#utility.yul\":9445:9469   */\n              tag_198\n              jump\t// in\n            tag_360:\n                /* \"#utility.yul\":9434:9469   */\n              swap1\n              pop\n                /* \"#utility.yul\":9371:9475   */\n              swap2\n              swap1\n              pop\n              jump\t// out\n                /* \"#utility.yul\":9481:9623   */\n            tag_227:\n                /* \"#utility.yul\":9584:9616   */\n              tag_362\n                /* \"#utility.yul\":9610:9615   */\n              dup2\n                /* \"#utility.yul\":9584:9616   */\n              tag_226\n              jump\t// in\n            tag_362:\n                /* \"#utility.yul\":9579:9582   */\n              dup3\n                /* \"#utility.yul\":9572:9617   */\n              mstore\n                /* \"#utility.yul\":9481:9623   */\n              pop\n              pop\n              jump\t// out\n                /* \"#utility.yul\":9629:9738   */\n            tag_228:\n                /* \"#utility.yul\":9710:9731   */\n              tag_364\n                /* \"#utility.yul\":9725:9730   */\n              dup2\n                /* \"#utility.yul\":9710:9731   */\n              tag_218\n              jump\t// in\n            tag_364:\n                /* \"#utility.yul\":9705:9708   */\n              dup3\n                /* \"#utility.yul\":9698:9732   */\n              mstore\n                /* \"#utility.yul\":9629:9738   */\n              pop\n              pop\n              jump\t// out\n                /* \"#utility.yul\":9744:10931   */\n            tag_52:\n                /* \"#utility.yul\":10077:10081   */\n              0x00\n                /* \"#utility.yul\":10115:10118   */\n              0x0100\n                /* \"#utility.yul\":10104:10113   */\n              dup3\n                /* \"#utility.yul\":10100:10119   */\n              add\n                /* \"#utility.yul\":10092:10119   */\n              swap1\n              pop\n                /* \"#utility.yul\":10165:10174   */\n              dup2\n                /* \"#utility.yul\":10159:10163   */\n              dup2\n                /* \"#utility.yul\":10155:10175   */\n              sub\n                /* \"#utility.yul\":10151:10152   */\n              0x00\n                /* \"#utility.yul\":10140:10149   */\n              dup4\n                /* \"#utility.yul\":10136:10153   */\n              add\n                /* \"#utility.yul\":10129:10176   */\n              mstore\n                /* \"#utility.yul\":10193:10271   */\n              tag_366\n                /* \"#utility.yul\":10266:10270   */\n              dup2\n                /* \"#utility.yul\":10257:10263   */\n              dup12\n                /* \"#utility.yul\":10193:10271   */\n              tag_208\n              jump\t// in\n            tag_366:\n                /* \"#utility.yul\":10185:10271   */\n              swap1\n              pop\n                /* \"#utility.yul\":10318:10327   */\n              dup2\n                /* \"#utility.yul\":10312:10316   */\n              dup2\n                /* \"#utility.yul\":10308:10328   */\n              sub\n                /* \"#utility.yul\":10303:10305   */\n              0x20\n                /* \"#utility.yul\":10292:10301   */\n              dup4\n                /* \"#utility.yul\":10288:10306   */\n              add\n                /* \"#utility.yul\":10281:10329   */\n              mstore\n                /* \"#utility.yul\":10346:10424   */\n              tag_367\n                /* \"#utility.yul\":10419:10423   */\n              dup2\n                /* \"#utility.yul\":10410:10416   */\n              dup11\n                /* \"#utility.yul\":10346:10424   */\n              tag_208\n              jump\t// in\n            tag_367:\n                /* \"#utility.yul\":10338:10424   */\n              swap1\n              pop\n                /* \"#utility.yul\":10434:10506   */\n              tag_368\n                /* \"#utility.yul\":10502:10504   */\n              0x40\n                /* \"#utility.yul\":10491:10500   */\n              dup4\n                /* \"#utility.yul\":10487:10505   */\n              add\n                /* \"#utility.yul\":10478:10484   */\n              dup10\n                /* \"#utility.yul\":10434:10506   */\n              tag_203\n              jump\t// in\n            tag_368:\n                /* \"#utility.yul\":10516:10604   */\n              tag_369\n                /* \"#utility.yul\":10600:10602   */\n              0x60\n                /* \"#utility.yul\":10589:10598   */\n              dup4\n                /* \"#utility.yul\":10585:10603   */\n              add\n                /* \"#utility.yul\":10576:10582   */\n              dup9\n                /* \"#utility.yul\":10516:10604   */\n              tag_227\n              jump\t// in\n            tag_369:\n                /* \"#utility.yul\":10614:10687   */\n              tag_370\n                /* \"#utility.yul\":10682:10685   */\n              0x80\n                /* \"#utility.yul\":10671:10680   */\n              dup4\n                /* \"#utility.yul\":10667:10686   */\n              add\n                /* \"#utility.yul\":10658:10664   */\n              dup8\n                /* \"#utility.yul\":10614:10687   */\n              tag_203\n              jump\t// in\n            tag_370:\n                /* \"#utility.yul\":10697:10770   */\n              tag_371\n                /* \"#utility.yul\":10765:10768   */\n              0xa0\n                /* \"#utility.yul\":10754:10763   */\n              dup4\n                /* \"#utility.yul\":10750:10769   */\n              add\n                /* \"#utility.yul\":10741:10747   */\n              dup7\n                /* \"#utility.yul\":10697:10770   */\n              tag_203\n              jump\t// in\n            tag_371:\n                /* \"#utility.yul\":10780:10847   */\n              tag_372\n                /* \"#utility.yul\":10842:10845   */\n              0xc0\n                /* \"#utility.yul\":10831:10840   */\n              dup4\n                /* \"#utility.yul\":10827:10846   */\n              add\n                /* \"#utility.yul\":10818:10824   */\n              dup6\n                /* \"#utility.yul\":10780:10847   */\n              tag_228\n              jump\t// in\n            tag_372:\n                /* \"#utility.yul\":10857:10924   */\n              tag_373\n                /* \"#utility.yul\":10919:10922   */\n              0xe0\n                /* \"#utility.yul\":10908:10917   */\n              dup4\n                /* \"#utility.yul\":10904:10923   */\n              add\n                /* \"#utility.yul\":10895:10901   */\n              dup5\n                /* \"#utility.yul\":10857:10924   */\n              tag_228\n              jump\t// in\n            tag_373:\n                /* \"#utility.yul\":9744:10931   */\n              swap10\n              swap9\n              pop\n              pop\n              pop\n              pop\n              pop\n              pop\n              pop\n              pop\n              pop\n              jump\t// out\n                /* \"#utility.yul\":10937:11082   */\n            tag_229:\n                /* \"#utility.yul\":11035:11041   */\n              0x00\n                /* \"#utility.yul\":11069:11074   */\n              dup2\n                /* \"#utility.yul\":11063:11075   */\n              mload\n                /* \"#utility.yul\":11053:11075   */\n              swap1\n              pop\n                /* \"#utility.yul\":10937:11082   */\n              swap2\n              swap1\n              pop\n              jump\t// out\n                /* \"#utility.yul\":11088:11303   */\n            tag_230:\n                /* \"#utility.yul\":11218:11229   */\n              0x00\n                /* \"#utility.yul\":11252:11258   */\n              dup3\n                /* \"#utility.yul\":11247:11250   */\n              dup3\n                /* \"#utility.yul\":11240:11259   */\n              mstore\n                /* \"#utility.yul\":11292:11296   */\n              0x20\n                /* \"#utility.yul\":11287:11290   */\n              dup3\n                /* \"#utility.yul\":11283:11297   */\n              add\n                /* \"#utility.yul\":11268:11297   */\n              swap1\n              pop\n                /* \"#utility.yul\":11088:11303   */\n              swap3\n              swap2\n              pop\n              pop\n              jump\t// out\n                /* \"#utility.yul\":11309:11472   */\n            tag_231:\n                /* \"#utility.yul\":11407:11411   */\n              0x00\n                /* \"#utility.yul\":11430:11433   */\n              dup2\n                /* \"#utility.yul\":11422:11433   */\n              swap1\n              pop\n                /* \"#utility.yul\":11460:11464   */\n              0x20\n                /* \"#utility.yul\":11455:11458   */\n              dup3\n                /* \"#utility.yul\":11451:11465   */\n              add\n                /* \"#utility.yul\":11443:11465   */\n              swap1\n              pop\n                /* \"#utility.yul\":11309:11472   */\n              swap2\n              swap1\n              pop\n              jump\t// out\n                /* \"#utility.yul\":11550:12412   */\n            tag_232:\n                /* \"#utility.yul\":11671:11674   */\n              0x00\n                /* \"#utility.yul\":11707:11711   */\n              0x60\n                /* \"#utility.yul\":11702:11705   */\n              dup4\n                /* \"#utility.yul\":11698:11712   */\n              add\n                /* \"#utility.yul\":11794:11798   */\n              0x00\n                /* \"#utility.yul\":11787:11792   */\n              dup4\n                /* \"#utility.yul\":11783:11799   */\n              add\n                /* \"#utility.yul\":11777:11800   */\n              mload\n                /* \"#utility.yul\":11847:11850   */\n              dup5\n                /* \"#utility.yul\":11841:11845   */\n              dup3\n                /* \"#utility.yul\":11837:11851   */\n              sub\n                /* \"#utility.yul\":11830:11834   */\n              0x00\n                /* \"#utility.yul\":11825:11828   */\n              dup7\n                /* \"#utility.yul\":11821:11835   */\n              add\n                /* \"#utility.yul\":11814:11852   */\n              mstore\n                /* \"#utility.yul\":11873:11946   */\n              tag_378\n                /* \"#utility.yul\":11941:11945   */\n              dup3\n                /* \"#utility.yul\":11927:11939   */\n              dup3\n                /* \"#utility.yul\":11873:11946   */\n              tag_223\n              jump\t// in\n            tag_378:\n                /* \"#utility.yul\":11865:11946   */\n              swap2\n              pop\n                /* \"#utility.yul\":11722:11957   */\n              pop\n                /* \"#utility.yul\":12046:12050   */\n              0x20\n                /* \"#utility.yul\":12039:12044   */\n              dup4\n                /* \"#utility.yul\":12035:12051   */\n              add\n                /* \"#utility.yul\":12029:12052   */\n              mload\n                /* \"#utility.yul\":12099:12102   */\n              dup5\n                /* \"#utility.yul\":12093:12097   */\n              dup3\n                /* \"#utility.yul\":12089:12103   */\n              sub\n                /* \"#utility.yul\":12082:12086   */\n              0x20\n                /* \"#utility.yul\":12077:12080   */\n              dup7\n                /* \"#utility.yul\":12073:12087   */\n              add\n                /* \"#utility.yul\":12066:12104   */\n              mstore\n                /* \"#utility.yul\":12125:12198   */\n              tag_379\n                /* \"#utility.yul\":12193:12197   */\n              dup3\n                /* \"#utility.yul\":12179:12191   */\n              dup3\n                /* \"#utility.yul\":12125:12198   */\n              tag_223\n              jump\t// in\n            tag_379:\n                /* \"#utility.yul\":12117:12198   */\n              swap2\n              pop\n                /* \"#utility.yul\":11967:12209   */\n              pop\n                /* \"#utility.yul\":12293:12297   */\n              0x40\n                /* \"#utility.yul\":12286:12291   */\n              dup4\n                /* \"#utility.yul\":12282:12298   */\n              add\n                /* \"#utility.yul\":12276:12299   */\n              mload\n                /* \"#utility.yul\":12312:12375   */\n              tag_380\n                /* \"#utility.yul\":12369:12373   */\n              0x40\n                /* \"#utility.yul\":12364:12367   */\n              dup7\n                /* \"#utility.yul\":12360:12374   */\n              add\n                /* \"#utility.yul\":12346:12358   */\n              dup3\n                /* \"#utility.yul\":12312:12375   */\n              tag_224\n              jump\t// in\n            tag_380:\n                /* \"#utility.yul\":12219:12385   */\n              pop\n                /* \"#utility.yul\":12402:12406   */\n              dup1\n                /* \"#utility.yul\":12395:12406   */\n              swap2\n              pop\n                /* \"#utility.yul\":11676:12412   */\n              pop\n                /* \"#utility.yul\":11550:12412   */\n              swap3\n              swap2\n              pop\n              pop\n              jump\t// out\n                /* \"#utility.yul\":12418:12698   */\n            tag_233:\n                /* \"#utility.yul\":12549:12559   */\n              0x00\n                /* \"#utility.yul\":12584:12692   */\n              tag_382\n                /* \"#utility.yul\":12688:12691   */\n              dup4\n                /* \"#utility.yul\":12680:12686   */\n              dup4\n                /* \"#utility.yul\":12584:12692   */\n              tag_232\n              jump\t// in\n            tag_382:\n                /* \"#utility.yul\":12570:12692   */\n              swap1\n              pop\n                /* \"#utility.yul\":12418:12698   */\n              swap3\n              swap2\n              pop\n              pop\n              jump\t// out\n                /* \"#utility.yul\":12704:12848   */\n            tag_234:\n                /* \"#utility.yul\":12805:12809   */\n              0x00\n                /* \"#utility.yul\":12837:12841   */\n              0x20\n                /* \"#utility.yul\":12832:12835   */\n              dup3\n                /* \"#utility.yul\":12828:12842   */\n              add\n                /* \"#utility.yul\":12820:12842   */\n              swap1\n              pop\n                /* \"#utility.yul\":12704:12848   */\n              swap2\n              swap1\n              pop\n              jump\t// out\n                /* \"#utility.yul\":12930:14089   */\n            tag_235:\n                /* \"#utility.yul\":13111:13114   */\n              0x00\n                /* \"#utility.yul\":13140:13225   */\n              tag_385\n                /* \"#utility.yul\":13219:13224   */\n              dup3\n                /* \"#utility.yul\":13140:13225   */\n              tag_229\n              jump\t// in\n            tag_385:\n                /* \"#utility.yul\":13241:13358   */\n              tag_386\n                /* \"#utility.yul\":13351:13357   */\n              dup2\n                /* \"#utility.yul\":13346:13349   */\n              dup6\n                /* \"#utility.yul\":13241:13358   */\n              tag_230\n              jump\t// in\n            tag_386:\n                /* \"#utility.yul\":13234:13358   */\n              swap4\n              pop\n                /* \"#utility.yul\":13384:13387   */\n              dup4\n                /* \"#utility.yul\":13429:13433   */\n              0x20\n                /* \"#utility.yul\":13421:13427   */\n              dup3\n                /* \"#utility.yul\":13417:13434   */\n              mul\n                /* \"#utility.yul\":13412:13415   */\n              dup6\n                /* \"#utility.yul\":13408:13435   */\n              add\n                /* \"#utility.yul\":13459:13546   */\n              tag_387\n                /* \"#utility.yul\":13540:13545   */\n              dup6\n                /* \"#utility.yul\":13459:13546   */\n              tag_231\n              jump\t// in\n            tag_387:\n                /* \"#utility.yul\":13569:13576   */\n              dup1\n                /* \"#utility.yul\":13600:13601   */\n              0x00\n                /* \"#utility.yul\":13585:14044   */\n            tag_388:\n                /* \"#utility.yul\":13610:13616   */\n              dup6\n                /* \"#utility.yul\":13607:13608   */\n              dup2\n                /* \"#utility.yul\":13604:13617   */\n              lt\n                /* \"#utility.yul\":13585:14044   */\n              iszero\n              tag_390\n              jumpi\n                /* \"#utility.yul\":13681:13690   */\n              dup5\n                /* \"#utility.yul\":13675:13679   */\n              dup5\n                /* \"#utility.yul\":13671:13691   */\n              sub\n                /* \"#utility.yul\":13666:13669   */\n              dup10\n                /* \"#utility.yul\":13659:13692   */\n              mstore\n                /* \"#utility.yul\":13732:13738   */\n              dup2\n                /* \"#utility.yul\":13726:13739   */\n              mload\n                /* \"#utility.yul\":13760:13886   */\n              tag_391\n                /* \"#utility.yul\":13881:13885   */\n              dup6\n                /* \"#utility.yul\":13866:13879   */\n              dup3\n                /* \"#utility.yul\":13760:13886   */\n              tag_233\n              jump\t// in\n            tag_391:\n                /* \"#utility.yul\":13752:13886   */\n              swap5\n              pop\n                /* \"#utility.yul\":13909:14000   */\n              tag_392\n                /* \"#utility.yul\":13993:13999   */\n              dup4\n                /* \"#utility.yul\":13909:14000   */\n              tag_234\n              jump\t// in\n            tag_392:\n                /* \"#utility.yul\":13899:14000   */\n              swap3\n              pop\n                /* \"#utility.yul\":14029:14033   */\n              0x20\n                /* \"#utility.yul\":14024:14027   */\n              dup11\n                /* \"#utility.yul\":14020:14034   */\n              add\n                /* \"#utility.yul\":14013:14034   */\n              swap10\n              pop\n                /* \"#utility.yul\":13645:14044   */\n              pop\n                /* \"#utility.yul\":13632:13633   */\n              0x01\n                /* \"#utility.yul\":13629:13630   */\n              dup2\n                /* \"#utility.yul\":13625:13634   */\n              add\n                /* \"#utility.yul\":13620:13634   */\n              swap1\n              pop\n                /* \"#utility.yul\":13585:14044   */\n              jump(tag_388)\n            tag_390:\n                /* \"#utility.yul\":13589:13603   */\n              pop\n                /* \"#utility.yul\":14060:14064   */\n              dup3\n                /* \"#utility.yul\":14053:14064   */\n              swap8\n              pop\n                /* \"#utility.yul\":14080:14083   */\n              dup8\n                /* \"#utility.yul\":14073:14083   */\n              swap6\n              pop\n                /* \"#utility.yul\":13116:14089   */\n              pop\n              pop\n              pop\n              pop\n              pop\n                /* \"#utility.yul\":12930:14089   */\n              swap3\n              swap2\n              pop\n              pop\n              jump\t// out\n                /* \"#utility.yul\":14095:14592   */\n            tag_61:\n                /* \"#utility.yul\":14300:14304   */\n              0x00\n                /* \"#utility.yul\":14338:14340   */\n              0x20\n                /* \"#utility.yul\":14327:14336   */\n              dup3\n                /* \"#utility.yul\":14323:14341   */\n              add\n                /* \"#utility.yul\":14315:14341   */\n              swap1\n              pop\n                /* \"#utility.yul\":14387:14396   */\n              dup2\n                /* \"#utility.yul\":14381:14385   */\n              dup2\n                /* \"#utility.yul\":14377:14397   */\n              sub\n                /* \"#utility.yul\":14373:14374   */\n              0x00\n                /* \"#utility.yul\":14362:14371   */\n              dup4\n                /* \"#utility.yul\":14358:14375   */\n              add\n                /* \"#utility.yul\":14351:14398   */\n              mstore\n                /* \"#utility.yul\":14415:14585   */\n              tag_394\n                /* \"#utility.yul\":14580:14584   */\n              dup2\n                /* \"#utility.yul\":14571:14577   */\n              dup5\n                /* \"#utility.yul\":14415:14585   */\n              tag_235\n              jump\t// in\n            tag_394:\n                /* \"#utility.yul\":14407:14585   */\n              swap1\n              pop\n                /* \"#utility.yul\":14095:14592   */\n              swap3\n              swap2\n              pop\n              pop\n              jump\t// out\n                /* \"#utility.yul\":14598:14720   */\n            tag_236:\n                /* \"#utility.yul\":14671:14695   */\n              tag_396\n                /* \"#utility.yul\":14689:14694   */\n              dup2\n                /* \"#utility.yul\":14671:14695   */\n              tag_202\n              jump\t// in\n            tag_396:\n                /* \"#utility.yul\":14664:14669   */\n              dup2\n                /* \"#utility.yul\":14661:14696   */\n              eq\n                /* \"#utility.yul\":14651:14714   */\n              tag_397\n              jumpi\n                /* \"#utility.yul\":14710:14711   */\n              0x00\n                /* \"#utility.yul\":14707:14708   */\n              dup1\n                /* \"#utility.yul\":14700:14712   */\n              revert\n                /* \"#utility.yul\":14651:14714   */\n            tag_397:\n                /* \"#utility.yul\":14598:14720   */\n              pop\n              jump\t// out\n                /* \"#utility.yul\":14726:14865   */\n            tag_237:\n                /* \"#utility.yul\":14772:14777   */\n              0x00\n                /* \"#utility.yul\":14810:14816   */\n              dup2\n                /* \"#utility.yul\":14797:14817   */\n              calldataload\n                /* \"#utility.yul\":14788:14817   */\n              swap1\n              pop\n                /* \"#utility.yul\":14826:14859   */\n              tag_399\n                /* \"#utility.yul\":14853:14858   */\n              dup2\n                /* \"#utility.yul\":14826:14859   */\n              tag_236\n              jump\t// in\n            tag_399:\n                /* \"#utility.yul\":14726:14865   */\n              swap3\n              swap2\n              pop\n              pop\n              jump\t// out\n                /* \"#utility.yul\":14871:15009   */\n            tag_238:\n                /* \"#utility.yul\":14952:14984   */\n              tag_401\n                /* \"#utility.yul\":14978:14983   */\n              dup2\n                /* \"#utility.yul\":14952:14984   */\n              tag_226\n              jump\t// in\n            tag_401:\n                /* \"#utility.yul\":14945:14950   */\n              dup2\n                /* \"#utility.yul\":14942:14985   */\n              eq\n                /* \"#utility.yul\":14932:15003   */\n              tag_402\n              jumpi\n                /* \"#utility.yul\":14999:15000   */\n              0x00\n                /* \"#utility.yul\":14996:14997   */\n              dup1\n                /* \"#utility.yul\":14989:15001   */\n              revert\n                /* \"#utility.yul\":14932:15003   */\n            tag_402:\n                /* \"#utility.yul\":14871:15009   */\n              pop\n              jump\t// out\n                /* \"#utility.yul\":15015:15170   */\n            tag_239:\n                /* \"#utility.yul\":15069:15074   */\n              0x00\n                /* \"#utility.yul\":15107:15113   */\n              dup2\n                /* \"#utility.yul\":15094:15114   */\n              calldataload\n                /* \"#utility.yul\":15085:15114   */\n              swap1\n              pop\n                /* \"#utility.yul\":15123:15164   */\n              tag_404\n                /* \"#utility.yul\":15158:15163   */\n              dup2\n                /* \"#utility.yul\":15123:15164   */\n              tag_238\n              jump\t// in\n            tag_404:\n                /* \"#utility.yul\":15015:15170   */\n              swap3\n              swap2\n              pop\n              pop\n              jump\t// out\n                /* \"#utility.yul\":15176:16463   */\n            tag_69:\n                /* \"#utility.yul\":15299:15305   */\n              0x00\n                /* \"#utility.yul\":15307:15313   */\n              dup1\n                /* \"#utility.yul\":15315:15321   */\n              0x00\n                /* \"#utility.yul\":15323:15329   */\n              dup1\n                /* \"#utility.yul\":15331:15337   */\n              0x00\n                /* \"#utility.yul\":15380:15383   */\n              0xa0\n                /* \"#utility.yul\":15368:15377   */\n              dup7\n                /* \"#utility.yul\":15359:15366   */\n              dup9\n                /* \"#utility.yul\":15355:15378   */\n              sub\n                /* \"#utility.yul\":15351:15384   */\n              slt\n                /* \"#utility.yul\":15348:15468   */\n              iszero\n              tag_406\n              jumpi\n                /* \"#utility.yul\":15387:15466   */\n              tag_407\n              tag_196\n              jump\t// in\n            tag_407:\n                /* \"#utility.yul\":15348:15468   */\n            tag_406:\n                /* \"#utility.yul\":15535:15536   */\n              0x00\n                /* \"#utility.yul\":15524:15533   */\n              dup7\n                /* \"#utility.yul\":15520:15537   */\n              add\n                /* \"#utility.yul\":15507:15538   */\n              calldataload\n                /* \"#utility.yul\":15565:15583   */\n              0xffffffffffffffff\n                /* \"#utility.yul\":15557:15563   */\n              dup2\n                /* \"#utility.yul\":15554:15584   */\n              gt\n                /* \"#utility.yul\":15551:15668   */\n              iszero\n              tag_408\n              jumpi\n                /* \"#utility.yul\":15587:15666   */\n              tag_409\n              tag_197\n              jump\t// in\n            tag_409:\n                /* \"#utility.yul\":15551:15668   */\n            tag_408:\n                /* \"#utility.yul\":15692:15755   */\n              tag_410\n                /* \"#utility.yul\":15747:15754   */\n              dup9\n                /* \"#utility.yul\":15738:15744   */\n              dup3\n                /* \"#utility.yul\":15727:15736   */\n              dup10\n                /* \"#utility.yul\":15723:15745   */\n              add\n                /* \"#utility.yul\":15692:15755   */\n              tag_217\n              jump\t// in\n            tag_410:\n                /* \"#utility.yul\":15682:15755   */\n              swap6\n              pop\n                /* \"#utility.yul\":15478:15765   */\n              pop\n                /* \"#utility.yul\":15832:15834   */\n              0x20\n                /* \"#utility.yul\":15821:15830   */\n              dup7\n                /* \"#utility.yul\":15817:15835   */\n              add\n                /* \"#utility.yul\":15804:15836   */\n              calldataload\n                /* \"#utility.yul\":15863:15881   */\n              0xffffffffffffffff\n                /* \"#utility.yul\":15855:15861   */\n              dup2\n                /* \"#utility.yul\":15852:15882   */\n              gt\n                /* \"#utility.yul\":15849:15966   */\n              iszero\n              tag_411\n              jumpi\n                /* \"#utility.yul\":15885:15964   */\n              tag_412\n              tag_197\n              jump\t// in\n            tag_412:\n                /* \"#utility.yul\":15849:15966   */\n            tag_411:\n                /* \"#utility.yul\":15990:16053   */\n              tag_413\n                /* \"#utility.yul\":16045:16052   */\n              dup9\n                /* \"#utility.yul\":16036:16042   */\n              dup3\n                /* \"#utility.yul\":16025:16034   */\n              dup10\n                /* \"#utility.yul\":16021:16043   */\n              add\n                /* \"#utility.yul\":15990:16053   */\n              tag_217\n              jump\t// in\n            tag_413:\n                /* \"#utility.yul\":15980:16053   */\n              swap5\n              pop\n                /* \"#utility.yul\":15775:16063   */\n              pop\n                /* \"#utility.yul\":16102:16104   */\n              0x40\n                /* \"#utility.yul\":16128:16181   */\n              tag_414\n                /* \"#utility.yul\":16173:16180   */\n              dup9\n                /* \"#utility.yul\":16164:16170   */\n              dup3\n                /* \"#utility.yul\":16153:16162   */\n              dup10\n                /* \"#utility.yul\":16149:16171   */\n              add\n                /* \"#utility.yul\":16128:16181   */\n              tag_237\n              jump\t// in\n            tag_414:\n                /* \"#utility.yul\":16118:16181   */\n              swap4\n              pop\n                /* \"#utility.yul\":16073:16191   */\n              pop\n                /* \"#utility.yul\":16230:16232   */\n              0x60\n                /* \"#utility.yul\":16256:16309   */\n              tag_415\n                /* \"#utility.yul\":16301:16308   */\n              dup9\n                /* \"#utility.yul\":16292:16298   */\n              dup3\n                /* \"#utility.yul\":16281:16290   */\n              dup10\n                /* \"#utility.yul\":16277:16299   */\n              add\n                /* \"#utility.yul\":16256:16309   */\n              tag_237\n              jump\t// in\n            tag_415:\n                /* \"#utility.yul\":16246:16309   */\n              swap3\n              pop\n                /* \"#utility.yul\":16201:16319   */\n              pop\n                /* \"#utility.yul\":16358:16361   */\n              0x80\n                /* \"#utility.yul\":16385:16446   */\n              tag_416\n                /* \"#utility.yul\":16438:16445   */\n              dup9\n                /* \"#utility.yul\":16429:16435   */\n              dup3\n                /* \"#utility.yul\":16418:16427   */\n              dup10\n                /* \"#utility.yul\":16414:16436   */\n              add\n                /* \"#utility.yul\":16385:16446   */\n              tag_239\n              jump\t// in\n            tag_416:\n                /* \"#utility.yul\":16375:16446   */\n              swap2\n              pop\n                /* \"#utility.yul\":16329:16456   */\n              pop\n                /* \"#utility.yul\":15176:16463   */\n              swap3\n              swap6\n              pop\n              swap3\n              swap6\n              swap1\n              swap4\n              pop\n              jump\t// out\n                /* \"#utility.yul\":16469:16587   */\n            tag_240:\n                /* \"#utility.yul\":16556:16580   */\n              tag_418\n                /* \"#utility.yul\":16574:16579   */\n              dup2\n                /* \"#utility.yul\":16556:16580   */\n              tag_199\n              jump\t// in\n            tag_418:\n                /* \"#utility.yul\":16551:16554   */\n              dup3\n                /* \"#utility.yul\":16544:16581   */\n              mstore\n                /* \"#utility.yul\":16469:16587   */\n              pop\n              pop\n              jump\t// out\n                /* \"#utility.yul\":16593:16815   */\n            tag_75:\n                /* \"#utility.yul\":16686:16690   */\n              0x00\n                /* \"#utility.yul\":16724:16726   */\n              0x20\n                /* \"#utility.yul\":16713:16722   */\n              dup3\n                /* \"#utility.yul\":16709:16727   */\n              add\n                /* \"#utility.yul\":16701:16727   */\n              swap1\n              pop\n                /* \"#utility.yul\":16737:16808   */\n              tag_420\n                /* \"#utility.yul\":16805:16806   */\n              0x00\n                /* \"#utility.yul\":16794:16803   */\n              dup4\n                /* \"#utility.yul\":16790:16807   */\n              add\n                /* \"#utility.yul\":16781:16787   */\n              dup5\n                /* \"#utility.yul\":16737:16808   */\n              tag_240\n              jump\t// in\n            tag_420:\n                /* \"#utility.yul\":16593:16815   */\n              swap3\n              swap2\n              pop\n              pop\n              jump\t// out\n                /* \"#utility.yul\":16821:17001   */\n            tag_241:\n                /* \"#utility.yul\":16869:16946   */\n              0x4e487b7100000000000000000000000000000000000000000000000000000000\n                /* \"#utility.yul\":16866:16867   */\n              0x00\n                /* \"#utility.yul\":16859:16947   */\n              mstore\n                /* \"#utility.yul\":16966:16970   */\n              0x22\n                /* \"#utility.yul\":16963:16964   */\n              0x04\n                /* \"#utility.yul\":16956:16971   */\n              mstore\n                /* \"#utility.yul\":16990:16994   */\n              0x24\n                /* \"#utility.yul\":16987:16988   */\n              0x00\n                /* \"#utility.yul\":16980:16995   */\n              revert\n                /* \"#utility.yul\":17007:17327   */\n            tag_92:\n                /* \"#utility.yul\":17051:17057   */\n              0x00\n                /* \"#utility.yul\":17088:17089   */\n              0x02\n                /* \"#utility.yul\":17082:17086   */\n              dup3\n                /* \"#utility.yul\":17078:17090   */\n              div\n                /* \"#utility.yul\":17068:17090   */\n              swap1\n              pop\n                /* \"#utility.yul\":17135:17136   */\n              0x01\n                /* \"#utility.yul\":17129:17133   */\n              dup3\n                /* \"#utility.yul\":17125:17137   */\n              and\n                /* \"#utility.yul\":17156:17174   */\n              dup1\n                /* \"#utility.yul\":17146:17227   */\n              tag_423\n              jumpi\n                /* \"#utility.yul\":17212:17216   */\n              0x7f\n                /* \"#utility.yul\":17204:17210   */\n              dup3\n                /* \"#utility.yul\":17200:17217   */\n              and\n                /* \"#utility.yul\":17190:17217   */\n              swap2\n              pop\n                /* \"#utility.yul\":17146:17227   */\n            tag_423:\n                /* \"#utility.yul\":17274:17276   */\n              0x20\n                /* \"#utility.yul\":17266:17272   */\n              dup3\n                /* \"#utility.yul\":17263:17277   */\n              lt\n                /* \"#utility.yul\":17243:17261   */\n              dup2\n                /* \"#utility.yul\":17240:17278   */\n              sub\n                /* \"#utility.yul\":17237:17321   */\n              tag_424\n              jumpi\n                /* \"#utility.yul\":17293:17311   */\n              tag_425\n              tag_241\n              jump\t// in\n            tag_425:\n                /* \"#utility.yul\":17237:17321   */\n            tag_424:\n                /* \"#utility.yul\":17058:17327   */\n              pop\n                /* \"#utility.yul\":17007:17327   */\n              swap2\n              swap1\n              pop\n              jump\t// out\n                /* \"#utility.yul\":17333:17481   */\n            tag_242:\n                /* \"#utility.yul\":17435:17446   */\n              0x00\n                /* \"#utility.yul\":17472:17475   */\n              dup2\n                /* \"#utility.yul\":17457:17475   */\n              swap1\n              pop\n                /* \"#utility.yul\":17333:17481   */\n              swap3\n              swap2\n              pop\n              pop\n              jump\t// out\n                /* \"#utility.yul\":17487:17877   */\n            tag_243:\n                /* \"#utility.yul\":17593:17596   */\n              0x00\n                /* \"#utility.yul\":17621:17660   */\n              tag_428\n                /* \"#utility.yul\":17654:17659   */\n              dup3\n                /* \"#utility.yul\":17621:17660   */\n              tag_204\n              jump\t// in\n            tag_428:\n                /* \"#utility.yul\":17676:17765   */\n              tag_429\n                /* \"#utility.yul\":17758:17764   */\n              dup2\n                /* \"#utility.yul\":17753:17756   */\n              dup6\n                /* \"#utility.yul\":17676:17765   */\n              tag_242\n              jump\t// in\n            tag_429:\n                /* \"#utility.yul\":17669:17765   */\n              swap4\n              pop\n                /* \"#utility.yul\":17774:17839   */\n              tag_430\n                /* \"#utility.yul\":17832:17838   */\n              dup2\n                /* \"#utility.yul\":17827:17830   */\n              dup6\n                /* \"#utility.yul\":17820:17824   */\n              0x20\n                /* \"#utility.yul\":17813:17818   */\n              dup7\n                /* \"#utility.yul\":17809:17825   */\n              add\n                /* \"#utility.yul\":17774:17839   */\n              tag_206\n              jump\t// in\n            tag_430:\n                /* \"#utility.yul\":17864:17870   */\n              dup1\n                /* \"#utility.yul\":17859:17862   */\n              dup5\n                /* \"#utility.yul\":17855:17871   */\n              add\n                /* \"#utility.yul\":17848:17871   */\n              swap2\n              pop\n                /* \"#utility.yul\":17597:17877   */\n              pop\n                /* \"#utility.yul\":17487:17877   */\n              swap3\n              swap2\n              pop\n              pop\n              jump\t// out\n                /* \"#utility.yul\":17883:18158   */\n            tag_100:\n                /* \"#utility.yul\":18015:18018   */\n              0x00\n                /* \"#utility.yul\":18037:18132   */\n              tag_432\n                /* \"#utility.yul\":18128:18131   */\n              dup3\n                /* \"#utility.yul\":18119:18125   */\n              dup5\n                /* \"#utility.yul\":18037:18132   */\n              tag_243\n              jump\t// in\n            tag_432:\n                /* \"#utility.yul\":18030:18132   */\n              swap2\n              pop\n                /* \"#utility.yul\":18149:18152   */\n              dup2\n                /* \"#utility.yul\":18142:18152   */\n              swap1\n              pop\n                /* \"#utility.yul\":17883:18158   */\n              swap3\n              swap2\n              pop\n              pop\n              jump\t// out\n                /* \"#utility.yul\":18164:18344   */\n            tag_244:\n                /* \"#utility.yul\":18212:18289   */\n              0x4e487b7100000000000000000000000000000000000000000000000000000000\n                /* \"#utility.yul\":18209:18210   */\n              0x00\n                /* \"#utility.yul\":18202:18290   */\n              mstore\n                /* \"#utility.yul\":18309:18313   */\n              0x11\n                /* \"#utility.yul\":18306:18307   */\n              0x04\n                /* \"#utility.yul\":18299:18314   */\n              mstore\n                /* \"#utility.yul\":18333:18337   */\n              0x24\n                /* \"#utility.yul\":18330:18331   */\n              0x00\n                /* \"#utility.yul\":18323:18338   */\n              revert\n                /* \"#utility.yul\":18350:18583   */\n            tag_111:\n                /* \"#utility.yul\":18389:18392   */\n              0x00\n                /* \"#utility.yul\":18412:18436   */\n              tag_435\n                /* \"#utility.yul\":18430:18435   */\n              dup3\n                /* \"#utility.yul\":18412:18436   */\n              tag_202\n              jump\t// in\n            tag_435:\n                /* \"#utility.yul\":18403:18436   */\n              swap2\n              pop\n                /* \"#utility.yul\":18458:18524   */\n              0xffffffffffffffffffffffffffffffffffffffffffffffffffffffffffffffff\n                /* \"#utility.yul\":18451:18456   */\n              dup3\n                /* \"#utility.yul\":18448:18525   */\n              sub\n                /* \"#utility.yul\":18445:18548   */\n              tag_436\n              jumpi\n                /* \"#utility.yul\":18528:18546   */\n              tag_437\n              tag_244\n              jump\t// in\n            tag_437:\n                /* \"#utility.yul\":18445:18548   */\n            tag_436:\n                /* \"#utility.yul\":18575:18576   */\n              0x01\n                /* \"#utility.yul\":18568:18573   */\n              dup3\n                /* \"#utility.yul\":18564:18577   */\n              add\n                /* \"#utility.yul\":18557:18577   */\n              swap1\n              pop\n                /* \"#utility.yul\":18350:18583   */\n              swap2\n              swap1\n              pop\n              jump\t// out\n                /* \"#utility.yul\":18589:18730   */\n            tag_245:\n                /* \"#utility.yul\":18638:18642   */\n              0x00\n                /* \"#utility.yul\":18661:18664   */\n              dup2\n                /* \"#utility.yul\":18653:18664   */\n              swap1\n              pop\n                /* \"#utility.yul\":18684:18687   */\n              dup2\n                /* \"#utility.yul\":18681:18682   */\n              0x00\n                /* \"#utility.yul\":18674:18688   */\n              mstore\n                /* \"#utility.yul\":18718:18722   */\n              0x20\n                /* \"#utility.yul\":18715:18716   */\n              0x00\n                /* \"#utility.yul\":18705:18723   */\n              keccak256\n                /* \"#utility.yul\":18697:18723   */\n              swap1\n              pop\n                /* \"#utility.yul\":18589:18730   */\n              swap2\n              swap1\n              pop\n              jump\t// out\n                /* \"#utility.yul\":18736:18829   */\n            tag_246:\n                /* \"#utility.yul\":18773:18779   */\n              0x00\n                /* \"#utility.yul\":18820:18822   */\n              0x20\n                /* \"#utility.yul\":18815:18817   */\n              0x1f\n                /* \"#utility.yul\":18808:18813   */\n              dup4\n                /* \"#utility.yul\":18804:18818   */\n              add\n                /* \"#utility.yul\":18800:18823   */\n              div\n                /* \"#utility.yul\":18790:18823   */\n              swap1\n              pop\n                /* \"#utility.yul\":18736:18829   */\n              swap2\n              swap1\n              pop\n              jump\t// out\n                /* \"#utility.yul\":18835:18942   */\n            tag_247:\n                /* \"#utility.yul\":18879:18887   */\n              0x00\n                /* \"#utility.yul\":18929:18934   */\n              dup3\n                /* \"#utility.yul\":18923:18927   */\n              dup3\n                /* \"#utility.yul\":18919:18935   */\n              shl\n                /* \"#utility.yul\":18898:18935   */\n              swap1\n              pop\n                /* \"#utility.yul\":18835:18942   */\n              swap3\n              swap2\n              pop\n              pop\n              jump\t// out\n                /* \"#utility.yul\":18948:19341   */\n            tag_248:\n                /* \"#utility.yul\":19017:19023   */\n              0x00\n                /* \"#utility.yul\":19067:19068   */\n              0x08\n                /* \"#utility.yul\":19055:19065   */\n              dup4\n                /* \"#utility.yul\":19051:19069   */\n              mul\n                /* \"#utility.yul\":19090:19187   */\n              tag_442\n                /* \"#utility.yul\":19120:19186   */\n              0xffffffffffffffffffffffffffffffffffffffffffffffffffffffffffffffff\n                /* \"#utility.yul\":19109:19118   */\n              dup3\n                /* \"#utility.yul\":19090:19187   */\n              tag_247\n              jump\t// in\n            tag_442:\n                /* \"#utility.yul\":19208:19247   */\n              tag_443\n                /* \"#utility.yul\":19238:19246   */\n              dup7\n                /* \"#utility.yul\":19227:19236   */\n              dup4\n                /* \"#utility.yul\":19208:19247   */\n              tag_247\n              jump\t// in\n            tag_443:\n                /* \"#utility.yul\":19196:19247   */\n              swap6\n              pop\n                /* \"#utility.yul\":19280:19284   */\n              dup1\n                /* \"#utility.yul\":19276:19285   */\n              not\n                /* \"#utility.yul\":19269:19274   */\n              dup5\n                /* \"#utility.yul\":19265:19286   */\n              and\n                /* \"#utility.yul\":19256:19286   */\n              swap4\n              pop\n                /* \"#utility.yul\":19329:19333   */\n              dup1\n                /* \"#utility.yul\":19319:19327   */\n              dup7\n                /* \"#utility.yul\":19315:19334   */\n              and\n                /* \"#utility.yul\":19308:19313   */\n              dup5\n                /* \"#utility.yul\":19305:19335   */\n              or\n                /* \"#utility.yul\":19295:19335   */\n              swap3\n              pop\n                /* \"#utility.yul\":19024:19341   */\n              pop\n              pop\n                /* \"#utility.yul\":18948:19341   */\n              swap4\n              swap3\n              pop\n              pop\n              pop\n              jump\t// out\n                /* \"#utility.yul\":19347:19407   */\n            tag_249:\n                /* \"#utility.yul\":19375:19378   */\n              0x00\n                /* \"#utility.yul\":19396:19401   */\n              dup2\n                /* \"#utility.yul\":19389:19401   */\n              swap1\n              pop\n                /* \"#utility.yul\":19347:19407   */\n              swap2\n              swap1\n              pop\n              jump\t// out\n                /* \"#utility.yul\":19413:19555   */\n            tag_250:\n                /* \"#utility.yul\":19463:19472   */\n              0x00\n                /* \"#utility.yul\":19496:19549   */\n              tag_446\n                /* \"#utility.yul\":19514:19548   */\n              tag_447\n                /* \"#utility.yul\":19523:19547   */\n              tag_448\n                /* \"#utility.yul\":19541:19546   */\n              dup5\n                /* \"#utility.yul\":19523:19547   */\n              tag_202\n              jump\t// in\n            tag_448:\n                /* \"#utility.yul\":19514:19548   */\n              tag_249\n              jump\t// in\n            tag_447:\n                /* \"#utility.yul\":19496:19549   */\n              tag_202\n              jump\t// in\n            tag_446:\n                /* \"#utility.yul\":19483:19549   */\n              swap1\n              pop\n                /* \"#utility.yul\":19413:19555   */\n              swap2\n              swap1\n              pop\n              jump\t// out\n                /* \"#utility.yul\":19561:19636   */\n            tag_251:\n                /* \"#utility.yul\":19604:19607   */\n              0x00\n                /* \"#utility.yul\":19625:19630   */\n              dup2\n                /* \"#utility.yul\":19618:19630   */\n              swap1\n              pop\n                /* \"#utility.yul\":19561:19636   */\n              swap2\n              swap1\n              pop\n              jump\t// out\n                /* \"#utility.yul\":19642:19911   */\n            tag_252:\n                /* \"#utility.yul\":19752:19791   */\n              tag_451\n                /* \"#utility.yul\":19783:19790   */\n              dup4\n                /* \"#utility.yul\":19752:19791   */\n              tag_250\n              jump\t// in\n            tag_451:\n                /* \"#utility.yul\":19813:19904   */\n              tag_452\n                /* \"#utility.yul\":19862:19903   */\n              tag_453\n                /* \"#utility.yul\":19886:19902   */\n              dup3\n                /* \"#utility.yul\":19862:19903   */\n              tag_251\n              jump\t// in\n            tag_453:\n                /* \"#utility.yul\":19854:19860   */\n              dup5\n                /* \"#utility.yul\":19847:19851   */\n              dup5\n                /* \"#utility.yul\":19841:19852   */\n              sload\n                /* \"#utility.yul\":19813:19904   */\n              tag_248\n              jump\t// in\n            tag_452:\n                /* \"#utility.yul\":19807:19811   */\n              dup3\n                /* \"#utility.yul\":19800:19905   */\n              sstore\n                /* \"#utility.yul\":19718:19911   */\n              pop\n                /* \"#utility.yul\":19642:19911   */\n              pop\n              pop\n              pop\n              jump\t// out\n                /* \"#utility.yul\":19917:19990   */\n            tag_253:\n                /* \"#utility.yul\":19962:19965   */\n              0x00\n                /* \"#utility.yul\":19917:19990   */\n              swap1\n              jump\t// out\n                /* \"#utility.yul\":19996:20185   */\n            tag_254:\n                /* \"#utility.yul\":20073:20105   */\n              tag_456\n              tag_253\n              jump\t// in\n            tag_456:\n                /* \"#utility.yul\":20114:20179   */\n              tag_457\n                /* \"#utility.yul\":20172:20178   */\n              dup2\n                /* \"#utility.yul\":20164:20170   */\n              dup5\n                /* \"#utility.yul\":20158:20162   */\n              dup5\n                /* \"#utility.yul\":20114:20179   */\n              tag_252\n              jump\t// in\n            tag_457:\n                /* \"#utility.yul\":20049:20185   */\n              pop\n                /* \"#utility.yul\":19996:20185   */\n              pop\n              pop\n              jump\t// out\n                /* \"#utility.yul\":20191:20377   */\n            tag_255:\n                /* \"#utility.yul\":20251:20371   */\n            tag_459:\n                /* \"#utility.yul\":20268:20271   */\n              dup2\n                /* \"#utility.yul\":20261:20266   */\n              dup2\n                /* \"#utility.yul\":20258:20272   */\n              lt\n                /* \"#utility.yul\":20251:20371   */\n              iszero\n              tag_461\n              jumpi\n                /* \"#utility.yul\":20322:20361   */\n              tag_462\n                /* \"#utility.yul\":20359:20360   */\n              0x00\n                /* \"#utility.yul\":20352:20357   */\n              dup3\n                /* \"#utility.yul\":20322:20361   */\n              tag_254\n              jump\t// in\n            tag_462:\n                /* \"#utility.yul\":20295:20296   */\n              0x01\n                /* \"#utility.yul\":20288:20293   */\n              dup2\n                /* \"#utility.yul\":20284:20297   */\n              add\n                /* \"#utility.yul\":20275:20297   */\n              swap1\n              pop\n                /* \"#utility.yul\":20251:20371   */\n              jump(tag_459)\n            tag_461:\n                /* \"#utility.yul\":20191:20377   */\n              pop\n              pop\n              jump\t// out\n                /* \"#utility.yul\":20383:20926   */\n            tag_256:\n                /* \"#utility.yul\":20484:20486   */\n              0x1f\n                /* \"#utility.yul\":20479:20482   */\n              dup3\n                /* \"#utility.yul\":20476:20487   */\n              gt\n                /* \"#utility.yul\":20473:20919   */\n              iszero\n              tag_464\n              jumpi\n                /* \"#utility.yul\":20518:20556   */\n              tag_465\n                /* \"#utility.yul\":20550:20555   */\n              dup2\n                /* \"#utility.yul\":20518:20556   */\n              tag_245\n              jump\t// in\n            tag_465:\n                /* \"#utility.yul\":20602:20631   */\n              tag_466\n                /* \"#utility.yul\":20620:20630   */\n              dup5\n                /* \"#utility.yul\":20602:20631   */\n              tag_246\n              jump\t// in\n            tag_466:\n                /* \"#utility.yul\":20592:20600   */\n              dup2\n                /* \"#utility.yul\":20588:20632   */\n              add\n                /* \"#utility.yul\":20785:20787   */\n              0x20\n                /* \"#utility.yul\":20773:20783   */\n              dup6\n                /* \"#utility.yul\":20770:20788   */\n              lt\n                /* \"#utility.yul\":20767:20816   */\n              iszero\n              tag_467\n              jumpi\n                /* \"#utility.yul\":20806:20814   */\n              dup2\n                /* \"#utility.yul\":20791:20814   */\n              swap1\n              pop\n                /* \"#utility.yul\":20767:20816   */\n            tag_467:\n                /* \"#utility.yul\":20829:20909   */\n              tag_468\n                /* \"#utility.yul\":20885:20907   */\n              tag_469\n                /* \"#utility.yul\":20903:20906   */\n              dup6\n                /* \"#utility.yul\":20885:20907   */\n              tag_246\n              jump\t// in\n            tag_469:\n                /* \"#utility.yul\":20875:20883   */\n              dup4\n                /* \"#utility.yul\":20871:20908   */\n              add\n                /* \"#utility.yul\":20858:20869   */\n              dup3\n                /* \"#utility.yul\":20829:20909   */\n              tag_255\n              jump\t// in\n            tag_468:\n                /* \"#utility.yul\":20488:20919   */\n              pop\n              pop\n                /* \"#utility.yul\":20473:20919   */\n            tag_464:\n                /* \"#utility.yul\":20383:20926   */\n              pop\n              pop\n              pop\n              jump\t// out\n                /* \"#utility.yul\":20932:21049   */\n            tag_257:\n                /* \"#utility.yul\":20986:20994   */\n              0x00\n                /* \"#utility.yul\":21036:21041   */\n              dup3\n                /* \"#utility.yul\":21030:21034   */\n              dup3\n                /* \"#utility.yul\":21026:21042   */\n              shr\n                /* \"#utility.yul\":21005:21042   */\n              swap1\n              pop\n                /* \"#utility.yul\":20932:21049   */\n              swap3\n              swap2\n              pop\n              pop\n              jump\t// out\n                /* \"#utility.yul\":21055:21224   */\n            tag_258:\n                /* \"#utility.yul\":21099:21105   */\n              0x00\n                /* \"#utility.yul\":21132:21183   */\n              tag_472\n                /* \"#utility.yul\":21180:21181   */\n              0x00\n                /* \"#utility.yul\":21176:21182   */\n              not\n                /* \"#utility.yul\":21168:21173   */\n              dup5\n                /* \"#utility.yul\":21165:21166   */\n              0x08\n                /* \"#utility.yul\":21161:21174   */\n              mul\n                /* \"#utility.yul\":21132:21183   */\n              tag_257\n              jump\t// in\n            tag_472:\n                /* \"#utility.yul\":21128:21184   */\n              not\n                /* \"#utility.yul\":21213:21217   */\n              dup1\n                /* \"#utility.yul\":21207:21211   */\n              dup4\n                /* \"#utility.yul\":21203:21218   */\n              and\n                /* \"#utility.yul\":21193:21218   */\n              swap2\n              pop\n                /* \"#utility.yul\":21106:21224   */\n              pop\n                /* \"#utility.yul\":21055:21224   */\n              swap3\n              swap2\n              pop\n              pop\n              jump\t// out\n                /* \"#utility.yul\":21229:21524   */\n            tag_259:\n                /* \"#utility.yul\":21305:21309   */\n              0x00\n                /* \"#utility.yul\":21451:21480   */\n              tag_474\n                /* \"#utility.yul\":21476:21479   */\n              dup4\n                /* \"#utility.yul\":21470:21474   */\n              dup4\n                /* \"#utility.yul\":21451:21480   */\n              tag_258\n              jump\t// in\n            tag_474:\n                /* \"#utility.yul\":21443:21480   */\n              swap2\n              pop\n                /* \"#utility.yul\":21513:21516   */\n              dup3\n                /* \"#utility.yul\":21510:21511   */\n              0x02\n                /* \"#utility.yul\":21506:21517   */\n              mul\n                /* \"#utility.yul\":21500:21504   */\n              dup3\n                /* \"#utility.yul\":21497:21518   */\n              or\n                /* \"#utility.yul\":21489:21518   */\n              swap1\n              pop\n                /* \"#utility.yul\":21229:21524   */\n              swap3\n              swap2\n              pop\n              pop\n              jump\t// out\n                /* \"#utility.yul\":21529:22924   */\n            tag_169:\n                /* \"#utility.yul\":21646:21683   */\n              tag_476\n                /* \"#utility.yul\":21679:21682   */\n              dup3\n                /* \"#utility.yul\":21646:21683   */\n              tag_204\n              jump\t// in\n            tag_476:\n                /* \"#utility.yul\":21748:21766   */\n              0xffffffffffffffff\n                /* \"#utility.yul\":21740:21746   */\n              dup2\n                /* \"#utility.yul\":21737:21767   */\n              gt\n                /* \"#utility.yul\":21734:21790   */\n              iszero\n              tag_477\n              jumpi\n                /* \"#utility.yul\":21770:21788   */\n              tag_478\n              tag_211\n              jump\t// in\n            tag_478:\n                /* \"#utility.yul\":21734:21790   */\n            tag_477:\n                /* \"#utility.yul\":21814:21852   */\n              tag_479\n                /* \"#utility.yul\":21846:21850   */\n              dup3\n                /* \"#utility.yul\":21840:21851   */\n              sload\n                /* \"#utility.yul\":21814:21852   */\n              tag_92\n              jump\t// in\n            tag_479:\n                /* \"#utility.yul\":21899:21966   */\n              tag_480\n                /* \"#utility.yul\":21959:21965   */\n              dup3\n                /* \"#utility.yul\":21951:21957   */\n              dup3\n                /* \"#utility.yul\":21945:21949   */\n              dup6\n                /* \"#utility.yul\":21899:21966   */\n              tag_256\n              jump\t// in\n            tag_480:\n                /* \"#utility.yul\":21993:21994   */\n              0x00\n                /* \"#utility.yul\":22017:22021   */\n              0x20\n                /* \"#utility.yul\":22004:22021   */\n              swap1\n              pop\n                /* \"#utility.yul\":22049:22051   */\n              0x1f\n                /* \"#utility.yul\":22041:22047   */\n              dup4\n                /* \"#utility.yul\":22038:22052   */\n              gt\n                /* \"#utility.yul\":22066:22067   */\n              0x01\n                /* \"#utility.yul\":22061:22679   */\n              dup2\n              eq\n              tag_482\n              jumpi\n                /* \"#utility.yul\":22723:22724   */\n              0x00\n                /* \"#utility.yul\":22740:22746   */\n              dup5\n                /* \"#utility.yul\":22737:22814   */\n              iszero\n              tag_483\n              jumpi\n                /* \"#utility.yul\":22789:22798   */\n              dup3\n                /* \"#utility.yul\":22784:22787   */\n              dup8\n                /* \"#utility.yul\":22780:22799   */\n              add\n                /* \"#utility.yul\":22774:22800   */\n              mload\n                /* \"#utility.yul\":22765:22800   */\n              swap1\n              pop\n                /* \"#utility.yul\":22737:22814   */\n            tag_483:\n                /* \"#utility.yul\":22840:22907   */\n              tag_484\n                /* \"#utility.yul\":22900:22906   */\n              dup6\n                /* \"#utility.yul\":22893:22898   */\n              dup3\n                /* \"#utility.yul\":22840:22907   */\n              tag_259\n              jump\t// in\n            tag_484:\n                /* \"#utility.yul\":22834:22838   */\n              dup7\n                /* \"#utility.yul\":22827:22908   */\n              sstore\n                /* \"#utility.yul\":22696:22918   */\n              pop\n                /* \"#utility.yul\":22031:22918   */\n              jump(tag_481)\n                /* \"#utility.yul\":22061:22679   */\n            tag_482:\n                /* \"#utility.yul\":22113:22117   */\n              0x1f\n                /* \"#utility.yul\":22109:22118   */\n              not\n                /* \"#utility.yul\":22101:22107   */\n              dup5\n                /* \"#utility.yul\":22097:22119   */\n              and\n                /* \"#utility.yul\":22147:22184   */\n              tag_485\n                /* \"#utility.yul\":22179:22183   */\n              dup7\n                /* \"#utility.yul\":22147:22184   */\n              tag_245\n              jump\t// in\n            tag_485:\n                /* \"#utility.yul\":22206:22207   */\n              0x00\n                /* \"#utility.yul\":22220:22428   */\n            tag_486:\n                /* \"#utility.yul\":22234:22241   */\n              dup3\n                /* \"#utility.yul\":22231:22232   */\n              dup2\n                /* \"#utility.yul\":22228:22242   */\n              lt\n                /* \"#utility.yul\":22220:22428   */\n              iszero\n              tag_488\n              jumpi\n                /* \"#utility.yul\":22313:22322   */\n              dup5\n                /* \"#utility.yul\":22308:22311   */\n              dup10\n                /* \"#utility.yul\":22304:22323   */\n              add\n                /* \"#utility.yul\":22298:22324   */\n              mload\n                /* \"#utility.yul\":22290:22296   */\n              dup3\n                /* \"#utility.yul\":22283:22325   */\n              sstore\n                /* \"#utility.yul\":22364:22365   */\n              0x01\n                /* \"#utility.yul\":22356:22362   */\n              dup3\n                /* \"#utility.yul\":22352:22366   */\n              add\n                /* \"#utility.yul\":22342:22366   */\n              swap2\n              pop\n                /* \"#utility.yul\":22411:22413   */\n              0x20\n                /* \"#utility.yul\":22400:22409   */\n              dup6\n                /* \"#utility.yul\":22396:22414   */\n              add\n                /* \"#utility.yul\":22383:22414   */\n              swap5\n              pop\n                /* \"#utility.yul\":22257:22261   */\n              0x20\n                /* \"#utility.yul\":22254:22255   */\n              dup2\n                /* \"#utility.yul\":22250:22262   */\n              add\n                /* \"#utility.yul\":22245:22262   */\n              swap1\n              pop\n                /* \"#utility.yul\":22220:22428   */\n              jump(tag_486)\n            tag_488:\n                /* \"#utility.yul\":22456:22462   */\n              dup7\n                /* \"#utility.yul\":22447:22454   */\n              dup4\n                /* \"#utility.yul\":22444:22463   */\n              lt\n                /* \"#utility.yul\":22441:22620   */\n              iszero\n              tag_489\n              jumpi\n                /* \"#utility.yul\":22514:22523   */\n              dup5\n                /* \"#utility.yul\":22509:22512   */\n              dup10\n                /* \"#utility.yul\":22505:22524   */\n              add\n                /* \"#utility.yul\":22499:22525   */\n              mload\n                /* \"#utility.yul\":22557:22605   */\n              tag_490\n                /* \"#utility.yul\":22599:22603   */\n              0x1f\n                /* \"#utility.yul\":22591:22597   */\n              dup10\n                /* \"#utility.yul\":22587:22604   */\n              and\n                /* \"#utility.yul\":22576:22585   */\n              dup3\n                /* \"#utility.yul\":22557:22605   */\n              tag_258\n              jump\t// in\n            tag_490:\n                /* \"#utility.yul\":22549:22555   */\n              dup4\n                /* \"#utility.yul\":22542:22606   */\n              sstore\n                /* \"#utility.yul\":22464:22620   */\n              pop\n                /* \"#utility.yul\":22441:22620   */\n            tag_489:\n                /* \"#utility.yul\":22666:22667   */\n              0x01\n                /* \"#utility.yul\":22662:22663   */\n              0x02\n                /* \"#utility.yul\":22654:22660   */\n              dup9\n                /* \"#utility.yul\":22650:22664   */\n              mul\n                /* \"#utility.yul\":22646:22668   */\n              add\n                /* \"#utility.yul\":22640:22644   */\n              dup9\n                /* \"#utility.yul\":22633:22669   */\n              sstore\n                /* \"#utility.yul\":22068:22679   */\n              pop\n              pop\n              pop\n                /* \"#utility.yul\":22031:22918   */\n            tag_481:\n              pop\n                /* \"#utility.yul\":21621:22924   */\n              pop\n              pop\n              pop\n                /* \"#utility.yul\":21529:22924   */\n              pop\n              pop\n              jump\t// out\n\n            auxdata: 0xa264697066735822122071dc85cfc4f79b0f58773147d12adfac208216c14ab5c7c5b57158a2d28c071264736f6c63430008180033\n        }\n    }\n\n    auxdata: 0xa264697066735822122096599720b9418251081217658a47d664afc73d97d6445cc975a2cd614024832864736f6c63430008180033\n}\n","bytecode":{"linkReferences":{},"object":"608060405234801561000f575f80fd5b503360015f6101000a81548173ffffffffffffffffffffffffffffffffffffffff021916908373ffffffffffffffffffffffffffffffffffffffff1602179055506130798061005d5f395ff3fe608060405234801562000010575f80fd5b506004361062000050575f3560e01c80634acb9d4f146200005457806394d2d7a71462000076578063a6b036331462000098578063ffa56a5714620000ba575b5f80fd5b6200005e620000da565b6040516200006d9190620005f0565b60405180910390f35b6200008062000166565b6040516200008f919062000623565b60405180910390f35b620000a26200018e565b604051620000b19190620007ee565b60405180910390f35b620000d86004803603810190620000d29190620009a1565b6200032d565b005b60605f8054806020026020016040519081016040528092919081815260200182805480156200015c57602002820191905f5260205f20905b815f9054906101000a900473ffffffffffffffffffffffffffffffffffffffff1673ffffffffffffffffffffffffffffffffffffffff168152602001906001019080831162000112575b5050505050905090565b5f60015f9054906101000a900473ffffffffffffffffffffffffffffffffffffffff16905090565b60606002805480602002602001604051908101604052809291908181526020015f905b8282101562000324578382905f5260205f2090600302016040518060600160405290815f82015f9054906101000a900473ffffffffffffffffffffffffffffffffffffffff1673ffffffffffffffffffffffffffffffffffffffff1673ffffffffffffffffffffffffffffffffffffffff168152602001600182018054620002399062000a65565b80601f0160208091040260200160405190810160405280929190818152602001828054620002679062000a65565b8015620002b65780601f106200028c57610100808354040283529160200191620002b6565b820191905f5260205f20905b8154815290600101906020018083116200029857829003601f168201915b50505050508152602001600282015f9054906101000a900473ffffffffffffffffffffffffffffffffffffffff1673ffffffffffffffffffffffffffffffffffffffff1673ffffffffffffffffffffffffffffffffffffffff168152505081526020019060010190620001b1565b50505050905090565b5f838383336040516200034090620004e9565b6200034f949392919062000afa565b604051809103905ff08015801562000369573d5f803e3d5ffd5b5090505f81908060018154018082558091505060019003905f5260205f20015f9091909190916101000a81548173ffffffffffffffffffffffffffffffffffffffff021916908373ffffffffffffffffffffffffffffffffffffffff1602179055505f60405180606001604052803373ffffffffffffffffffffffffffffffffffffffff1681526020018681526020018373ffffffffffffffffffffffffffffffffffffffff168152509050600281908060018154018082558091505060019003905f5260205f2090600302015f909190919091505f820151815f015f6101000a81548173ffffffffffffffffffffffffffffffffffffffff021916908373ffffffffffffffffffffffffffffffffffffffff160217905550602082015181600101908162000499919062000d16565b506040820151816002015f6101000a81548173ffffffffffffffffffffffffffffffffffffffff021916908373ffffffffffffffffffffffffffffffffffffffff16021790555050505050505050565b6122498062000dfb83390190565b5f81519050919050565b5f82825260208201905092915050565b5f819050602082019050919050565b5f73ffffffffffffffffffffffffffffffffffffffff82169050919050565b5f6200054b8262000520565b9050919050565b6200055d816200053f565b82525050565b5f62000570838362000552565b60208301905092915050565b5f602082019050919050565b5f6200059482620004f7565b620005a0818562000501565b9350620005ad8362000511565b805f5b83811015620005e3578151620005c7888262000563565b9750620005d4836200057c565b925050600181019050620005b0565b5085935050505092915050565b5f6020820190508181035f8301526200060a818462000588565b905092915050565b6200061d816200053f565b82525050565b5f602082019050620006385f83018462000612565b92915050565b5f81519050919050565b5f82825260208201905092915050565b5f819050602082019050919050565b5f81519050919050565b5f82825260208201905092915050565b5f5b83811015620006a057808201518184015260208101905062000683565b5f8484015250505050565b5f601f19601f8301169050919050565b5f620006c78262000667565b620006d3818562000671565b9350620006e581856020860162000681565b620006f081620006ab565b840191505092915050565b5f606083015f830151620007125f86018262000552565b50602083015184820360208601526200072c8282620006bb565b915050604083015162000743604086018262000552565b508091505092915050565b5f6200075b8383620006fb565b905092915050565b5f602082019050919050565b5f6200077b826200063e565b62000787818562000648565b9350836020820285016200079b8562000658565b805f5b85811015620007dc5784840389528151620007ba85826200074e565b9450620007c78362000763565b925060208a019950506001810190506200079e565b50829750879550505050505092915050565b5f6020820190508181035f8301526200080881846200076f565b905092915050565b5f604051905090565b5f80fd5b5f80fd5b5f80fd5b5f80fd5b7f4e487b71000000000000000000000000000000000000000000000000000000005f52604160045260245ffd5b6200086182620006ab565b810181811067ffffffffffffffff8211171562000883576200088262000829565b5b80604052505050565b5f6200089762000810565b9050620008a5828262000856565b919050565b5f67ffffffffffffffff821115620008c757620008c662000829565b5b620008d282620006ab565b9050602081019050919050565b828183375f83830152505050565b5f62000903620008fd84620008aa565b6200088c565b90508281526020810184848401111562000922576200092162000825565b5b6200092f848285620008df565b509392505050565b5f82601f8301126200094e576200094d62000821565b5b813562000960848260208601620008ed565b91505092915050565b5f819050919050565b6200097d8162000969565b811462000988575f80fd5b50565b5f813590506200099b8162000972565b92915050565b5f805f60608486031215620009bb57620009ba62000819565b5b5f84013567ffffffffffffffff811115620009db57620009da6200081d565b5b620009e98682870162000937565b935050602084013567ffffffffffffffff81111562000a0d5762000a0c6200081d565b5b62000a1b8682870162000937565b925050604062000a2e868287016200098b565b9150509250925092565b7f4e487b71000000000000000000000000000000000000000000000000000000005f52602260045260245ffd5b5f600282049050600182168062000a7d57607f821691505b60208210810362000a935762000a9262000a38565b5b50919050565b5f82825260208201905092915050565b5f62000ab58262000667565b62000ac1818562000a99565b935062000ad381856020860162000681565b62000ade81620006ab565b840191505092915050565b62000af48162000969565b82525050565b5f6080820190508181035f83015262000b14818762000aa9565b9050818103602083015262000b2a818662000aa9565b905062000b3b604083018562000ae9565b62000b4a606083018462000612565b95945050505050565b5f819050815f5260205f209050919050565b5f6020601f8301049050919050565b5f82821b905092915050565b5f6008830262000bb17fffffffffffffffffffffffffffffffffffffffffffffffffffffffffffffffff8262000b74565b62000bbd868362000b74565b95508019841693508086168417925050509392505050565b5f819050919050565b5f62000bfe62000bf862000bf28462000969565b62000bd5565b62000969565b9050919050565b5f819050919050565b62000c198362000bde565b62000c3162000c288262000c05565b84845462000b80565b825550505050565b5f90565b62000c4762000c39565b62000c5481848462000c0e565b505050565b5b8181101562000c7b5762000c6f5f8262000c3d565b60018101905062000c5a565b5050565b601f82111562000cca5762000c948162000b53565b62000c9f8462000b65565b8101602085101562000caf578190505b62000cc762000cbe8562000b65565b83018262000c59565b50505b505050565b5f82821c905092915050565b5f62000cec5f198460080262000ccf565b1980831691505092915050565b5f62000d06838362000cdb565b9150826002028217905092915050565b62000d218262000667565b67ffffffffffffffff81111562000d3d5762000d3c62000829565b5b62000d49825462000a65565b62000d5682828562000c7f565b5f60209050601f83116001811462000d8c575f841562000d77578287015190505b62000d83858262000cf9565b86555062000df2565b601f19841662000d9c8662000b53565b5f5b8281101562000dc55784890151825560018201915060208501945060208101905062000d9e565b8683101562000de5578489015162000de1601f89168262000cdb565b8355505b6001600288020188555050505b50505050505056fe608060405234801562000010575f80fd5b5060405162002249380380620022498339818101604052810190620000369190620002d4565b5f821162000042575f80fd5b8060025f6101000a81548173ffffffffffffffffffffffffffffffffffffffff021916908373ffffffffffffffffffffffffffffffffffffffff160217905550835f9081620000929190620005af565b508260019081620000a49190620005af565b50816005819055505050505062000693565b5f604051905090565b5f80fd5b5f80fd5b5f80fd5b5f80fd5b5f601f19601f8301169050919050565b7f4e487b71000000000000000000000000000000000000000000000000000000005f52604160045260245ffd5b6200011782620000cf565b810181811067ffffffffffffffff82111715620001395762000138620000df565b5b80604052505050565b5f6200014d620000b6565b90506200015b82826200010c565b919050565b5f67ffffffffffffffff8211156200017d576200017c620000df565b5b6200018882620000cf565b9050602081019050919050565b5f5b83811015620001b457808201518184015260208101905062000197565b5f8484015250505050565b5f620001d5620001cf8462000160565b62000142565b905082815260208101848484011115620001f457620001f3620000cb565b5b6200020184828562000195565b509392505050565b5f82601f83011262000220576200021f620000c7565b5b815162000232848260208601620001bf565b91505092915050565b5f819050919050565b6200024f816200023b565b81146200025a575f80fd5b50565b5f815190506200026d8162000244565b92915050565b5f73ffffffffffffffffffffffffffffffffffffffff82169050919050565b5f6200029e8262000273565b9050919050565b620002b08162000292565b8114620002bb575f80fd5b50565b5f81519050620002ce81620002a5565b92915050565b5f805f8060808587031215620002ef57620002ee620000bf565b5b5f85015167ffffffffffffffff8111156200030f576200030e620000c3565b5b6200031d8782880162000209565b945050602085015167ffffffffffffffff811115620003415762000340620000c3565b5b6200034f8782880162000209565b935050604062000362878288016200025d565b92505060606200037587828801620002be565b91505092959194509250565b5f81519050919050565b7f4e487b71000000000000000000000000000000000000000000000000000000005f52602260045260245ffd5b5f6002820490506001821680620003d057607f821691505b602082108103620003e657620003e56200038b565b5b50919050565b5f819050815f5260205f209050919050565b5f6020601f8301049050919050565b5f82821b905092915050565b5f600883026200044a7fffffffffffffffffffffffffffffffffffffffffffffffffffffffffffffffff826200040d565b6200045686836200040d565b95508019841693508086168417925050509392505050565b5f819050919050565b5f62000497620004916200048b846200023b565b6200046e565b6200023b565b9050919050565b5f819050919050565b620004b28362000477565b620004ca620004c1826200049e565b84845462000419565b825550505050565b5f90565b620004e0620004d2565b620004ed818484620004a7565b505050565b5b818110156200051457620005085f82620004d6565b600181019050620004f3565b5050565b601f82111562000563576200052d81620003ec565b6200053884620003fe565b8101602085101562000548578190505b620005606200055785620003fe565b830182620004f2565b50505b505050565b5f82821c905092915050565b5f620005855f198460080262000568565b1980831691505092915050565b5f6200059f838362000574565b9150826002028217905092915050565b620005ba8262000381565b67ffffffffffffffff811115620005d657620005d5620000df565b5b620005e28254620003b8565b620005ef82828562000518565b5f60209050601f83116001811462000625575f841562000610578287015190505b6200061c858262000592565b8655506200068b565b601f1984166200063586620003ec565b5f5b828110156200065e5784890151825560018201915060208501945060208101905062000637565b868310156200067e57848901516200067a601f89168262000574565b8355505b6001600288020188555050505b505050505050565b611ba880620006a15f395ff3fe6080604052600436106100e7575f3560e01c80638813ce1211610089578063d7bb99ba11610058578063d7bb99ba146102e0578063e2e46b52146102ea578063f84038b114610312578063feed55611461033c576100e7565b80638813ce121461023a578063885e7c6214610264578063a7ac80001461028e578063d5009584146102b6576100e7565b80633410452a116100c55780633410452a146101795780634051ddac146101a3578063692d51d2146101cd5780636f9fb98a14610210576100e7565b80630a144391146100eb5780631a0925411461012757806330e8fc5c14610151575b5f80fd5b3480156100f6575f80fd5b50610111600480360381019061010c91906110a4565b610366565b60405161011e91906110e7565b60405180910390f35b348015610132575f80fd5b5061013b61037b565b604051610148919061118a565b60405180910390f35b34801561015c575f80fd5b506101776004803603810190610172919061130b565b61040b565b005b348015610184575f80fd5b5061018d610633565b60405161019a91906110e7565b60405180910390f35b3480156101ae575f80fd5b506101b761063c565b6040516101c4919061146b565b60405180910390f35b3480156101d8575f80fd5b506101f360048036038101906101ee919061148b565b6107cd565b604051610207989796959493929190611501565b60405180910390f35b34801561021b575f80fd5b5061022461096d565b60405161023191906110e7565b60405180910390f35b348015610245575f80fd5b5061024e610974565b60405161025b919061169a565b60405180910390f35b34801561026f575f80fd5b50610278610af9565b604051610285919061118a565b60405180910390f35b348015610299575f80fd5b506102b460048036038101906102af919061170e565b610b88565b005b3480156102c1575f80fd5b506102ca610d82565b6040516102d791906117cc565b60405180910390f35b6102e8610daa565b005b3480156102f5575f80fd5b50610310600480360381019061030b919061148b565b610e5b565b005b34801561031d575f80fd5b50610326610fd9565b60405161033391906110e7565b60405180910390f35b348015610347575f80fd5b50610350610fe2565b60405161035d91906110e7565b60405180910390f35b6003602052805f5260405f205f915090505481565b60606001805461038a90611812565b80601f01602080910402602001604051908101604052809291908181526020018280546103b690611812565b80156104015780601f106103d857610100808354040283529160200191610401565b820191905f5260205f20905b8154815290600101906020018083116103e457829003601f168201915b5050505050905090565b60025f9054906101000a900473ffffffffffffffffffffffffffffffffffffffff1673ffffffffffffffffffffffffffffffffffffffff163373ffffffffffffffffffffffffffffffffffffffff1603610463575f80fd5b5f600783604051610474919061187c565b908152602001604051809103902090505f815f01805461049390611812565b90501161049e575f80fd5b8251815f0180546104ae90611812565b9050146104b9575f80fd5b5f60035f3373ffffffffffffffffffffffffffffffffffffffff1673ffffffffffffffffffffffffffffffffffffffff1681526020019081526020015f205411610501575f80fd5b806006015f9054906101000a900460ff161561051b575f80fd5b8060060160019054906101000a900460ff1615610536575f80fd5b806007015f3373ffffffffffffffffffffffffffffffffffffffff1673ffffffffffffffffffffffffffffffffffffffff1681526020019081526020015f205f9054906101000a900460ff161561058b575f80fd5b6001816007015f3373ffffffffffffffffffffffffffffffffffffffff1673ffffffffffffffffffffffffffffffffffffffff1681526020019081526020015f205f6101000a81548160ff021916908315150217905550811561060257806004015f8154809291906105fc906118bf565b91905055505b806005015481600401541061062e576001816006015f6101000a81548160ff0219169083151502179055505b505050565b5f600854905090565b610644610feb565b5f6040518060e0016040528060025f9054906101000a900473ffffffffffffffffffffffffffffffffffffffff1673ffffffffffffffffffffffffffffffffffffffff1681526020015f805461069990611812565b80601f01602080910402602001604051908101604052809291908181526020018280546106c590611812565b80156107105780601f106106e757610100808354040283529160200191610710565b820191905f5260205f20905b8154815290600101906020018083116106f357829003601f168201915b505050505081526020016001805461072790611812565b80601f016020809104026020016040519081016040528092919081815260200182805461075390611812565b801561079e5780601f106107755761010080835404028352916020019161079e565b820191905f5260205f20905b81548152906001019060200180831161078157829003601f168201915b505050505081526020016005548152602001478152602001600454815260200160085481525090508091505090565b6007818051602081018201805184825260208301602085012081835280955050505050505f91509050805f01805461080490611812565b80601f016020809104026020016040519081016040528092919081815260200182805461083090611812565b801561087b5780601f106108525761010080835404028352916020019161087b565b820191905f5260205f20905b81548152906001019060200180831161085e57829003601f168201915b50505050509080600101805461089090611812565b80601f01602080910402602001604051908101604052809291908181526020018280546108bc90611812565b80156109075780601f106108de57610100808354040283529160200191610907565b820191905f5260205f20905b8154815290600101906020018083116108ea57829003601f168201915b505050505090806002015490806003015f9054906101000a900473ffffffffffffffffffffffffffffffffffffffff1690806004015490806005015490806006015f9054906101000a900460ff16908060060160019054906101000a900460ff16905088565b5f47905090565b60606006805480602002602001604051908101604052809291908181526020015f905b82821015610af0578382905f5260205f2090600302016040518060600160405290815f820180546109c790611812565b80601f01602080910402602001604051908101604052809291908181526020018280546109f390611812565b8015610a3e5780601f10610a1557610100808354040283529160200191610a3e565b820191905f5260205f20905b815481529060010190602001808311610a2157829003601f168201915b50505050508152602001600182018054610a5790611812565b80601f0160208091040260200160405190810160405280929190818152602001828054610a8390611812565b8015610ace5780601f10610aa557610100808354040283529160200191610ace565b820191905f5260205f20905b815481529060010190602001808311610ab157829003601f168201915b5050505050815260200160028201548152505081526020019060010190610997565b50505050905090565b60605f8054610b0790611812565b80601f0160208091040260200160405190810160405280929190818152602001828054610b3390611812565b8015610b7e5780601f10610b5557610100808354040283529160200191610b7e565b820191905f5260205f20905b815481529060010190602001808311610b6157829003601f168201915b5050505050905090565b60025f9054906101000a900473ffffffffffffffffffffffffffffffffffffffff1673ffffffffffffffffffffffffffffffffffffffff163373ffffffffffffffffffffffffffffffffffffffff1614610be0575f80fd5b5f855111610bec575f80fd5b5f845111610bf8575f80fd5b5f8311610c03575f80fd5b47831115610c0f575f80fd5b5f8211610c1a575f80fd5b600454821115610c28575f80fd5b5f600786604051610c39919061187c565b9081526020016040518091039020905085815f019081610c599190611aa3565b5084816001019081610c6b9190611aa3565b5083816002018190555081816003015f6101000a81548173ffffffffffffffffffffffffffffffffffffffff021916908373ffffffffffffffffffffffffffffffffffffffff1602179055505f81600401819055508281600501819055505f8160060160016101000a81548160ff02191690831515021790555060085f815480929190610cf7906118bf565b91905055505f6040518060600160405280888152602001878152602001868152509050600681908060018154018082558091505060019003905f5260205f2090600302015f909190919091505f820151815f019081610d569190611aa3565b506020820151816001019081610d6c9190611aa3565b5060408201518160020155505050505050505050565b5f60025f9054906101000a900473ffffffffffffffffffffffffffffffffffffffff16905090565b600554341015610db8575f80fd5b5f60035f3373ffffffffffffffffffffffffffffffffffffffff1673ffffffffffffffffffffffffffffffffffffffff1681526020019081526020015f205414610e00575f80fd5b3460035f3373ffffffffffffffffffffffffffffffffffffffff1673ffffffffffffffffffffffffffffffffffffffff1681526020019081526020015f208190555060045f815480929190610e54906118bf565b9190505550565b60025f9054906101000a900473ffffffffffffffffffffffffffffffffffffffff1673ffffffffffffffffffffffffffffffffffffffff163373ffffffffffffffffffffffffffffffffffffffff1614610eb3575f80fd5b5f600782604051610ec4919061187c565b908152602001604051809103902090505f815f018054610ee390611812565b905011610eee575f80fd5b8151815f018054610efe90611812565b905014610f09575f80fd5b806006015f9054906101000a900460ff168015610f3557508060060160019054906101000a900460ff16155b610f3d575f80fd5b8060020154471015610f4d575f80fd5b806003015f9054906101000a900473ffffffffffffffffffffffffffffffffffffffff1673ffffffffffffffffffffffffffffffffffffffff166108fc826002015490811502906040515f60405180830381858888f19350505050158015610fb7573d5f803e3d5ffd5b5060018160060160016101000a81548160ff0219169083151502179055505050565b5f600554905090565b5f600454905090565b6040518060e001604052805f73ffffffffffffffffffffffffffffffffffffffff16815260200160608152602001606081526020015f81526020015f81526020015f81526020015f81525090565b5f604051905090565b5f80fd5b5f80fd5b5f73ffffffffffffffffffffffffffffffffffffffff82169050919050565b5f6110738261104a565b9050919050565b61108381611069565b811461108d575f80fd5b50565b5f8135905061109e8161107a565b92915050565b5f602082840312156110b9576110b8611042565b5b5f6110c684828501611090565b91505092915050565b5f819050919050565b6110e1816110cf565b82525050565b5f6020820190506110fa5f8301846110d8565b92915050565b5f81519050919050565b5f82825260208201905092915050565b5f5b8381101561113757808201518184015260208101905061111c565b5f8484015250505050565b5f601f19601f8301169050919050565b5f61115c82611100565b611166818561110a565b935061117681856020860161111a565b61117f81611142565b840191505092915050565b5f6020820190508181035f8301526111a28184611152565b905092915050565b5f80fd5b5f80fd5b7f4e487b71000000000000000000000000000000000000000000000000000000005f52604160045260245ffd5b6111e882611142565b810181811067ffffffffffffffff82111715611207576112066111b2565b5b80604052505050565b5f611219611039565b905061122582826111df565b919050565b5f67ffffffffffffffff821115611244576112436111b2565b5b61124d82611142565b9050602081019050919050565b828183375f83830152505050565b5f61127a6112758461122a565b611210565b905082815260208101848484011115611296576112956111ae565b5b6112a184828561125a565b509392505050565b5f82601f8301126112bd576112bc6111aa565b5b81356112cd848260208601611268565b91505092915050565b5f8115159050919050565b6112ea816112d6565b81146112f4575f80fd5b50565b5f81359050611305816112e1565b92915050565b5f806040838503121561132157611320611042565b5b5f83013567ffffffffffffffff81111561133e5761133d611046565b5b61134a858286016112a9565b925050602061135b858286016112f7565b9150509250929050565b61136e81611069565b82525050565b5f82825260208201905092915050565b5f61138e82611100565b6113988185611374565b93506113a881856020860161111a565b6113b181611142565b840191505092915050565b6113c5816110cf565b82525050565b5f60e083015f8301516113e05f860182611365565b50602083015184820360208601526113f88282611384565b915050604083015184820360408601526114128282611384565b915050606083015161142760608601826113bc565b50608083015161143a60808601826113bc565b5060a083015161144d60a08601826113bc565b5060c083015161146060c08601826113bc565b508091505092915050565b5f6020820190508181035f83015261148381846113cb565b905092915050565b5f602082840312156114a05761149f611042565b5b5f82013567ffffffffffffffff8111156114bd576114bc611046565b5b6114c9848285016112a9565b91505092915050565b5f6114dc8261104a565b9050919050565b6114ec816114d2565b82525050565b6114fb816112d6565b82525050565b5f610100820190508181035f83015261151a818b611152565b9050818103602083015261152e818a611152565b905061153d60408301896110d8565b61154a60608301886114e3565b61155760808301876110d8565b61156460a08301866110d8565b61157160c08301856114f2565b61157e60e08301846114f2565b9998505050505050505050565b5f81519050919050565b5f82825260208201905092915050565b5f819050602082019050919050565b5f606083015f8301518482035f8601526115ce8282611384565b915050602083015184820360208601526115e88282611384565b91505060408301516115fd60408601826113bc565b508091505092915050565b5f61161383836115b4565b905092915050565b5f602082019050919050565b5f6116318261158b565b61163b8185611595565b93508360208202850161164d856115a5565b805f5b8581101561168857848403895281516116698582611608565b94506116748361161b565b925060208a01995050600181019050611650565b50829750879550505050505092915050565b5f6020820190508181035f8301526116b28184611627565b905092915050565b6116c3816110cf565b81146116cd575f80fd5b50565b5f813590506116de816116ba565b92915050565b6116ed816114d2565b81146116f7575f80fd5b50565b5f81359050611708816116e4565b92915050565b5f805f805f60a0868803121561172757611726611042565b5b5f86013567ffffffffffffffff81111561174457611743611046565b5b611750888289016112a9565b955050602086013567ffffffffffffffff81111561177157611770611046565b5b61177d888289016112a9565b945050604061178e888289016116d0565b935050606061179f888289016116d0565b92505060806117b0888289016116fa565b9150509295509295909350565b6117c681611069565b82525050565b5f6020820190506117df5f8301846117bd565b92915050565b7f4e487b71000000000000000000000000000000000000000000000000000000005f52602260045260245ffd5b5f600282049050600182168061182957607f821691505b60208210810361183c5761183b6117e5565b5b50919050565b5f81905092915050565b5f61185682611100565b6118608185611842565b935061187081856020860161111a565b80840191505092915050565b5f611887828461184c565b915081905092915050565b7f4e487b71000000000000000000000000000000000000000000000000000000005f52601160045260245ffd5b5f6118c9826110cf565b91507fffffffffffffffffffffffffffffffffffffffffffffffffffffffffffffffff82036118fb576118fa611892565b5b600182019050919050565b5f819050815f5260205f209050919050565b5f6020601f8301049050919050565b5f82821b905092915050565b5f600883026119627fffffffffffffffffffffffffffffffffffffffffffffffffffffffffffffffff82611927565b61196c8683611927565b95508019841693508086168417925050509392505050565b5f819050919050565b5f6119a76119a261199d846110cf565b611984565b6110cf565b9050919050565b5f819050919050565b6119c08361198d565b6119d46119cc826119ae565b848454611933565b825550505050565b5f90565b6119e86119dc565b6119f38184846119b7565b505050565b5b81811015611a1657611a0b5f826119e0565b6001810190506119f9565b5050565b601f821115611a5b57611a2c81611906565b611a3584611918565b81016020851015611a44578190505b611a58611a5085611918565b8301826119f8565b50505b505050565b5f82821c905092915050565b5f611a7b5f1984600802611a60565b1980831691505092915050565b5f611a938383611a6c565b9150826002028217905092915050565b611aac82611100565b67ffffffffffffffff811115611ac557611ac46111b2565b5b611acf8254611812565b611ada828285611a1a565b5f60209050601f831160018114611b0b575f8415611af9578287015190505b611b038582611a88565b865550611b6a565b601f198416611b1986611906565b5f5b82811015611b4057848901518255600182019150602085019450602081019050611b1b565b86831015611b5d5784890151611b59601f891682611a6c565b8355505b6001600288020188555050505b50505050505056fea264697066735822122071dc85cfc4f79b0f58773147d12adfac208216c14ab5c7c5b57158a2d28c071264736f6c63430008180033a264697066735822122096599720b9418251081217658a47d664afc73d97d6445cc975a2cd614024832864736f6c63430008180033","opcodes":"PUSH1 0x80 PUSH1 0x40 MSTORE CALLVALUE DUP1 ISZERO PUSH2 0xF JUMPI PUSH0 DUP1 REVERT JUMPDEST POP CALLER PUSH1 0x1 PUSH0 PUSH2 0x100 EXP DUP2 SLOAD DUP2 PUSH20 0xFFFFFFFFFFFFFFFFFFFFFFFFFFFFFFFFFFFFFFFF MUL NOT AND SWAP1 DUP4 PUSH20 0xFFFFFFFFFFFFFFFFFFFFFFFFFFFFFFFFFFFFFFFF AND MUL OR SWAP1 SSTORE POP PUSH2 0x3079 DUP1 PUSH2 0x5D PUSH0 CODECOPY PUSH0 RETURN INVALID PUSH1 0x80 PUSH1 0x40 MSTORE CALLVALUE DUP1 ISZERO PUSH3 0x10 JUMPI PUSH0 DUP1 REVERT JUMPDEST POP PUSH1 0x4 CALLDATASIZE LT PUSH3 0x50 JUMPI PUSH0 CALLDATALOAD PUSH1 0xE0 SHR DUP1 PUSH4 0x4ACB9D4F EQ PUSH3 0x54 JUMPI DUP1 PUSH4 0x94D2D7A7 EQ PUSH3 0x76 JUMPI DUP1 PUSH4 0xA6B03633 EQ PUSH3 0x98 JUMPI DUP1 PUSH4 0xFFA56A57 EQ PUSH3 0xBA JUMPI JUMPDEST PUSH0 DUP1 REVERT JUMPDEST PUSH3 0x5E PUSH3 0xDA JUMP JUMPDEST PUSH1 0x40 MLOAD PUSH3 0x6D SWAP2 SWAP1 PUSH3 0x5F0 JUMP JUMPDEST PUSH1 0x40 MLOAD DUP1 SWAP2 SUB SWAP1 RETURN JUMPDEST PUSH3 0x80 PUSH3 0x166 JUMP JUMPDEST PUSH1 0x40 MLOAD PUSH3 0x8F SWAP2 SWAP1 PUSH3 0x623 JUMP JUMPDEST PUSH1 0x40 MLOAD DUP1 SWAP2 SUB SWAP1 RETURN JUMPDEST PUSH3 0xA2 PUSH3 0x18E JUMP JUMPDEST PUSH1 0x40 MLOAD PUSH3 0xB1 SWAP2 SWAP1 PUSH3 0x7EE JUMP JUMPDEST PUSH1 0x40 MLOAD DUP1 SWAP2 SUB SWAP1 RETURN JUMPDEST PUSH3 0xD8 PUSH1 0x4 DUP1 CALLDATASIZE SUB DUP2 ADD SWAP1 PUSH3 0xD2 SWAP2 SWAP1 PUSH3 0x9A1 JUMP JUMPDEST PUSH3 0x32D JUMP JUMPDEST STOP JUMPDEST PUSH1 0x60 PUSH0 DUP1 SLOAD DUP1 PUSH1 0x20 MUL PUSH1 0x20 ADD PUSH1 0x40 MLOAD SWAP1 DUP2 ADD PUSH1 0x40 MSTORE DUP1 SWAP3 SWAP2 SWAP1 DUP2 DUP2 MSTORE PUSH1 0x20 ADD DUP3 DUP1 SLOAD DUP1 ISZERO PUSH3 0x15C JUMPI PUSH1 0x20 MUL DUP3 ADD SWAP2 SWAP1 PUSH0 MSTORE PUSH1 0x20 PUSH0 KECCAK256 SWAP1 JUMPDEST DUP2 PUSH0 SWAP1 SLOAD SWAP1 PUSH2 0x100 EXP SWAP1 DIV PUSH20 0xFFFFFFFFFFFFFFFFFFFFFFFFFFFFFFFFFFFFFFFF AND PUSH20 0xFFFFFFFFFFFFFFFFFFFFFFFFFFFFFFFFFFFFFFFF AND DUP2 MSTORE PUSH1 0x20 ADD SWAP1 PUSH1 0x1 ADD SWAP1 DUP1 DUP4 GT PUSH3 0x112 JUMPI JUMPDEST POP POP POP POP POP SWAP1 POP SWAP1 JUMP JUMPDEST PUSH0 PUSH1 0x1 PUSH0 SWAP1 SLOAD SWAP1 PUSH2 0x100 EXP SWAP1 DIV PUSH20 0xFFFFFFFFFFFFFFFFFFFFFFFFFFFFFFFFFFFFFFFF AND SWAP1 POP SWAP1 JUMP JUMPDEST PUSH1 0x60 PUSH1 0x2 DUP1 SLOAD DUP1 PUSH1 0x20 MUL PUSH1 0x20 ADD PUSH1 0x40 MLOAD SWAP1 DUP2 ADD PUSH1 0x40 MSTORE DUP1 SWAP3 SWAP2 SWAP1 DUP2 DUP2 MSTORE PUSH1 0x20 ADD PUSH0 SWAP1 JUMPDEST DUP3 DUP3 LT ISZERO PUSH3 0x324 JUMPI DUP4 DUP3 SWAP1 PUSH0 MSTORE PUSH1 0x20 PUSH0 KECCAK256 SWAP1 PUSH1 0x3 MUL ADD PUSH1 0x40 MLOAD DUP1 PUSH1 0x60 ADD PUSH1 0x40 MSTORE SWAP1 DUP2 PUSH0 DUP3 ADD PUSH0 SWAP1 SLOAD SWAP1 PUSH2 0x100 EXP SWAP1 DIV PUSH20 0xFFFFFFFFFFFFFFFFFFFFFFFFFFFFFFFFFFFFFFFF AND PUSH20 0xFFFFFFFFFFFFFFFFFFFFFFFFFFFFFFFFFFFFFFFF AND PUSH20 0xFFFFFFFFFFFFFFFFFFFFFFFFFFFFFFFFFFFFFFFF AND DUP2 MSTORE PUSH1 0x20 ADD PUSH1 0x1 DUP3 ADD DUP1 SLOAD PUSH3 0x239 SWAP1 PUSH3 0xA65 JUMP JUMPDEST DUP1 PUSH1 0x1F ADD PUSH1 0x20 DUP1 SWAP2 DIV MUL PUSH1 0x20 ADD PUSH1 0x40 MLOAD SWAP1 DUP2 ADD PUSH1 0x40 MSTORE DUP1 SWAP3 SWAP2 SWAP1 DUP2 DUP2 MSTORE PUSH1 0x20 ADD DUP3 DUP1 SLOAD PUSH3 0x267 SWAP1 PUSH3 0xA65 JUMP JUMPDEST DUP1 ISZERO PUSH3 0x2B6 JUMPI DUP1 PUSH1 0x1F LT PUSH3 0x28C JUMPI PUSH2 0x100 DUP1 DUP4 SLOAD DIV MUL DUP4 MSTORE SWAP2 PUSH1 0x20 ADD SWAP2 PUSH3 0x2B6 JUMP JUMPDEST DUP3 ADD SWAP2 SWAP1 PUSH0 MSTORE PUSH1 0x20 PUSH0 KECCAK256 SWAP1 JUMPDEST DUP2 SLOAD DUP2 MSTORE SWAP1 PUSH1 0x1 ADD SWAP1 PUSH1 0x20 ADD DUP1 DUP4 GT PUSH3 0x298 JUMPI DUP3 SWAP1 SUB PUSH1 0x1F AND DUP3 ADD SWAP2 JUMPDEST POP POP POP POP POP DUP2 MSTORE PUSH1 0x20 ADD PUSH1 0x2 DUP3 ADD PUSH0 SWAP1 SLOAD SWAP1 PUSH2 0x100 EXP SWAP1 DIV PUSH20 0xFFFFFFFFFFFFFFFFFFFFFFFFFFFFFFFFFFFFFFFF AND PUSH20 0xFFFFFFFFFFFFFFFFFFFFFFFFFFFFFFFFFFFFFFFF AND PUSH20 0xFFFFFFFFFFFFFFFFFFFFFFFFFFFFFFFFFFFFFFFF AND DUP2 MSTORE POP POP DUP2 MSTORE PUSH1 0x20 ADD SWAP1 PUSH1 0x1 ADD SWAP1 PUSH3 0x1B1 JUMP JUMPDEST POP POP POP POP SWAP1 POP SWAP1 JUMP JUMPDEST PUSH0 DUP4 DUP4 DUP4 CALLER PUSH1 0x40 MLOAD PUSH3 0x340 SWAP1 PUSH3 0x4E9 JUMP JUMPDEST PUSH3 0x34F SWAP5 SWAP4 SWAP3 SWAP2 SWAP1 PUSH3 0xAFA JUMP JUMPDEST PUSH1 0x40 MLOAD DUP1 SWAP2 SUB SWAP1 PUSH0 CREATE DUP1 ISZERO DUP1 ISZERO PUSH3 0x369 JUMPI RETURNDATASIZE PUSH0 DUP1 RETURNDATACOPY RETURNDATASIZE PUSH0 REVERT JUMPDEST POP SWAP1 POP PUSH0 DUP2 SWAP1 DUP1 PUSH1 0x1 DUP2 SLOAD ADD DUP1 DUP3 SSTORE DUP1 SWAP2 POP POP PUSH1 0x1 SWAP1 SUB SWAP1 PUSH0 MSTORE PUSH1 0x20 PUSH0 KECCAK256 ADD PUSH0 SWAP1 SWAP2 SWAP1 SWAP2 SWAP1 SWAP2 PUSH2 0x100 EXP DUP2 SLOAD DUP2 PUSH20 0xFFFFFFFFFFFFFFFFFFFFFFFFFFFFFFFFFFFFFFFF MUL NOT AND SWAP1 DUP4 PUSH20 0xFFFFFFFFFFFFFFFFFFFFFFFFFFFFFFFFFFFFFFFF AND MUL OR SWAP1 SSTORE POP PUSH0 PUSH1 0x40 MLOAD DUP1 PUSH1 0x60 ADD PUSH1 0x40 MSTORE DUP1 CALLER PUSH20 0xFFFFFFFFFFFFFFFFFFFFFFFFFFFFFFFFFFFFFFFF AND DUP2 MSTORE PUSH1 0x20 ADD DUP7 DUP2 MSTORE PUSH1 0x20 ADD DUP4 PUSH20 0xFFFFFFFFFFFFFFFFFFFFFFFFFFFFFFFFFFFFFFFF AND DUP2 MSTORE POP SWAP1 POP PUSH1 0x2 DUP2 SWAP1 DUP1 PUSH1 0x1 DUP2 SLOAD ADD DUP1 DUP3 SSTORE DUP1 SWAP2 POP POP PUSH1 0x1 SWAP1 SUB SWAP1 PUSH0 MSTORE PUSH1 0x20 PUSH0 KECCAK256 SWAP1 PUSH1 0x3 MUL ADD PUSH0 SWAP1 SWAP2 SWAP1 SWAP2 SWAP1 SWAP2 POP PUSH0 DUP3 ADD MLOAD DUP2 PUSH0 ADD PUSH0 PUSH2 0x100 EXP DUP2 SLOAD DUP2 PUSH20 0xFFFFFFFFFFFFFFFFFFFFFFFFFFFFFFFFFFFFFFFF MUL NOT AND SWAP1 DUP4 PUSH20 0xFFFFFFFFFFFFFFFFFFFFFFFFFFFFFFFFFFFFFFFF AND MUL OR SWAP1 SSTORE POP PUSH1 0x20 DUP3 ADD MLOAD DUP2 PUSH1 0x1 ADD SWAP1 DUP2 PUSH3 0x499 SWAP2 SWAP1 PUSH3 0xD16 JUMP JUMPDEST POP PUSH1 0x40 DUP3 ADD MLOAD DUP2 PUSH1 0x2 ADD PUSH0 PUSH2 0x100 EXP DUP2 SLOAD DUP2 PUSH20 0xFFFFFFFFFFFFFFFFFFFFFFFFFFFFFFFFFFFFFFFF MUL NOT AND SWAP1 DUP4 PUSH20 0xFFFFFFFFFFFFFFFFFFFFFFFFFFFFFFFFFFFFFFFF AND MUL OR SWAP1 SSTORE POP POP POP POP POP POP POP POP JUMP JUMPDEST PUSH2 0x2249 DUP1 PUSH3 0xDFB DUP4 CODECOPY ADD SWAP1 JUMP JUMPDEST PUSH0 DUP2 MLOAD SWAP1 POP SWAP2 SWAP1 POP JUMP JUMPDEST PUSH0 DUP3 DUP3 MSTORE PUSH1 0x20 DUP3 ADD SWAP1 POP SWAP3 SWAP2 POP POP JUMP JUMPDEST PUSH0 DUP2 SWAP1 POP PUSH1 0x20 DUP3 ADD SWAP1 POP SWAP2 SWAP1 POP JUMP JUMPDEST PUSH0 PUSH20 0xFFFFFFFFFFFFFFFFFFFFFFFFFFFFFFFFFFFFFFFF DUP3 AND SWAP1 POP SWAP2 SWAP1 POP JUMP JUMPDEST PUSH0 PUSH3 0x54B DUP3 PUSH3 0x520 JUMP JUMPDEST SWAP1 POP SWAP2 SWAP1 POP JUMP JUMPDEST PUSH3 0x55D DUP2 PUSH3 0x53F JUMP JUMPDEST DUP3 MSTORE POP POP JUMP JUMPDEST PUSH0 PUSH3 0x570 DUP4 DUP4 PUSH3 0x552 JUMP JUMPDEST PUSH1 0x20 DUP4 ADD SWAP1 POP SWAP3 SWAP2 POP POP JUMP JUMPDEST PUSH0 PUSH1 0x20 DUP3 ADD SWAP1 POP SWAP2 SWAP1 POP JUMP JUMPDEST PUSH0 PUSH3 0x594 DUP3 PUSH3 0x4F7 JUMP JUMPDEST PUSH3 0x5A0 DUP2 DUP6 PUSH3 0x501 JUMP JUMPDEST SWAP4 POP PUSH3 0x5AD DUP4 PUSH3 0x511 JUMP JUMPDEST DUP1 PUSH0 JUMPDEST DUP4 DUP2 LT ISZERO PUSH3 0x5E3 JUMPI DUP2 MLOAD PUSH3 0x5C7 DUP9 DUP3 PUSH3 0x563 JUMP JUMPDEST SWAP8 POP PUSH3 0x5D4 DUP4 PUSH3 0x57C JUMP JUMPDEST SWAP3 POP POP PUSH1 0x1 DUP2 ADD SWAP1 POP PUSH3 0x5B0 JUMP JUMPDEST POP DUP6 SWAP4 POP POP POP POP SWAP3 SWAP2 POP POP JUMP JUMPDEST PUSH0 PUSH1 0x20 DUP3 ADD SWAP1 POP DUP2 DUP2 SUB PUSH0 DUP4 ADD MSTORE PUSH3 0x60A DUP2 DUP5 PUSH3 0x588 JUMP JUMPDEST SWAP1 POP SWAP3 SWAP2 POP POP JUMP JUMPDEST PUSH3 0x61D DUP2 PUSH3 0x53F JUMP JUMPDEST DUP3 MSTORE POP POP JUMP JUMPDEST PUSH0 PUSH1 0x20 DUP3 ADD SWAP1 POP PUSH3 0x638 PUSH0 DUP4 ADD DUP5 PUSH3 0x612 JUMP JUMPDEST SWAP3 SWAP2 POP POP JUMP JUMPDEST PUSH0 DUP2 MLOAD SWAP1 POP SWAP2 SWAP1 POP JUMP JUMPDEST PUSH0 DUP3 DUP3 MSTORE PUSH1 0x20 DUP3 ADD SWAP1 POP SWAP3 SWAP2 POP POP JUMP JUMPDEST PUSH0 DUP2 SWAP1 POP PUSH1 0x20 DUP3 ADD SWAP1 POP SWAP2 SWAP1 POP JUMP JUMPDEST PUSH0 DUP2 MLOAD SWAP1 POP SWAP2 SWAP1 POP JUMP JUMPDEST PUSH0 DUP3 DUP3 MSTORE PUSH1 0x20 DUP3 ADD SWAP1 POP SWAP3 SWAP2 POP POP JUMP JUMPDEST PUSH0 JUMPDEST DUP4 DUP2 LT ISZERO PUSH3 0x6A0 JUMPI DUP1 DUP3 ADD MLOAD DUP2 DUP5 ADD MSTORE PUSH1 0x20 DUP2 ADD SWAP1 POP PUSH3 0x683 JUMP JUMPDEST PUSH0 DUP5 DUP5 ADD MSTORE POP POP POP POP JUMP JUMPDEST PUSH0 PUSH1 0x1F NOT PUSH1 0x1F DUP4 ADD AND SWAP1 POP SWAP2 SWAP1 POP JUMP JUMPDEST PUSH0 PUSH3 0x6C7 DUP3 PUSH3 0x667 JUMP JUMPDEST PUSH3 0x6D3 DUP2 DUP6 PUSH3 0x671 JUMP JUMPDEST SWAP4 POP PUSH3 0x6E5 DUP2 DUP6 PUSH1 0x20 DUP7 ADD PUSH3 0x681 JUMP JUMPDEST PUSH3 0x6F0 DUP2 PUSH3 0x6AB JUMP JUMPDEST DUP5 ADD SWAP2 POP POP SWAP3 SWAP2 POP POP JUMP JUMPDEST PUSH0 PUSH1 0x60 DUP4 ADD PUSH0 DUP4 ADD MLOAD PUSH3 0x712 PUSH0 DUP7 ADD DUP3 PUSH3 0x552 JUMP JUMPDEST POP PUSH1 0x20 DUP4 ADD MLOAD DUP5 DUP3 SUB PUSH1 0x20 DUP7 ADD MSTORE PUSH3 0x72C DUP3 DUP3 PUSH3 0x6BB JUMP JUMPDEST SWAP2 POP POP PUSH1 0x40 DUP4 ADD MLOAD PUSH3 0x743 PUSH1 0x40 DUP7 ADD DUP3 PUSH3 0x552 JUMP JUMPDEST POP DUP1 SWAP2 POP POP SWAP3 SWAP2 POP POP JUMP JUMPDEST PUSH0 PUSH3 0x75B DUP4 DUP4 PUSH3 0x6FB JUMP JUMPDEST SWAP1 POP SWAP3 SWAP2 POP POP JUMP JUMPDEST PUSH0 PUSH1 0x20 DUP3 ADD SWAP1 POP SWAP2 SWAP1 POP JUMP JUMPDEST PUSH0 PUSH3 0x77B DUP3 PUSH3 0x63E JUMP JUMPDEST PUSH3 0x787 DUP2 DUP6 PUSH3 0x648 JUMP JUMPDEST SWAP4 POP DUP4 PUSH1 0x20 DUP3 MUL DUP6 ADD PUSH3 0x79B DUP6 PUSH3 0x658 JUMP JUMPDEST DUP1 PUSH0 JUMPDEST DUP6 DUP2 LT ISZERO PUSH3 0x7DC JUMPI DUP5 DUP5 SUB DUP10 MSTORE DUP2 MLOAD PUSH3 0x7BA DUP6 DUP3 PUSH3 0x74E JUMP JUMPDEST SWAP5 POP PUSH3 0x7C7 DUP4 PUSH3 0x763 JUMP JUMPDEST SWAP3 POP PUSH1 0x20 DUP11 ADD SWAP10 POP POP PUSH1 0x1 DUP2 ADD SWAP1 POP PUSH3 0x79E JUMP JUMPDEST POP DUP3 SWAP8 POP DUP8 SWAP6 POP POP POP POP POP POP SWAP3 SWAP2 POP POP JUMP JUMPDEST PUSH0 PUSH1 0x20 DUP3 ADD SWAP1 POP DUP2 DUP2 SUB PUSH0 DUP4 ADD MSTORE PUSH3 0x808 DUP2 DUP5 PUSH3 0x76F JUMP JUMPDEST SWAP1 POP SWAP3 SWAP2 POP POP JUMP JUMPDEST PUSH0 PUSH1 0x40 MLOAD SWAP1 POP SWAP1 JUMP JUMPDEST PUSH0 DUP1 REVERT JUMPDEST PUSH0 DUP1 REVERT JUMPDEST PUSH0 DUP1 REVERT JUMPDEST PUSH0 DUP1 REVERT JUMPDEST PUSH32 0x4E487B7100000000000000000000000000000000000000000000000000000000 PUSH0 MSTORE PUSH1 0x41 PUSH1 0x4 MSTORE PUSH1 0x24 PUSH0 REVERT JUMPDEST PUSH3 0x861 DUP3 PUSH3 0x6AB JUMP JUMPDEST DUP2 ADD DUP2 DUP2 LT PUSH8 0xFFFFFFFFFFFFFFFF DUP3 GT OR ISZERO PUSH3 0x883 JUMPI PUSH3 0x882 PUSH3 0x829 JUMP JUMPDEST JUMPDEST DUP1 PUSH1 0x40 MSTORE POP POP POP JUMP JUMPDEST PUSH0 PUSH3 0x897 PUSH3 0x810 JUMP JUMPDEST SWAP1 POP PUSH3 0x8A5 DUP3 DUP3 PUSH3 0x856 JUMP JUMPDEST SWAP2 SWAP1 POP JUMP JUMPDEST PUSH0 PUSH8 0xFFFFFFFFFFFFFFFF DUP3 GT ISZERO PUSH3 0x8C7 JUMPI PUSH3 0x8C6 PUSH3 0x829 JUMP JUMPDEST JUMPDEST PUSH3 0x8D2 DUP3 PUSH3 0x6AB JUMP JUMPDEST SWAP1 POP PUSH1 0x20 DUP2 ADD SWAP1 POP SWAP2 SWAP1 POP JUMP JUMPDEST DUP3 DUP2 DUP4 CALLDATACOPY PUSH0 DUP4 DUP4 ADD MSTORE POP POP POP JUMP JUMPDEST PUSH0 PUSH3 0x903 PUSH3 0x8FD DUP5 PUSH3 0x8AA JUMP JUMPDEST PUSH3 0x88C JUMP JUMPDEST SWAP1 POP DUP3 DUP2 MSTORE PUSH1 0x20 DUP2 ADD DUP5 DUP5 DUP5 ADD GT ISZERO PUSH3 0x922 JUMPI PUSH3 0x921 PUSH3 0x825 JUMP JUMPDEST JUMPDEST PUSH3 0x92F DUP5 DUP3 DUP6 PUSH3 0x8DF JUMP JUMPDEST POP SWAP4 SWAP3 POP POP POP JUMP JUMPDEST PUSH0 DUP3 PUSH1 0x1F DUP4 ADD SLT PUSH3 0x94E JUMPI PUSH3 0x94D PUSH3 0x821 JUMP JUMPDEST JUMPDEST DUP2 CALLDATALOAD PUSH3 0x960 DUP5 DUP3 PUSH1 0x20 DUP7 ADD PUSH3 0x8ED JUMP JUMPDEST SWAP2 POP POP SWAP3 SWAP2 POP POP JUMP JUMPDEST PUSH0 DUP2 SWAP1 POP SWAP2 SWAP1 POP JUMP JUMPDEST PUSH3 0x97D DUP2 PUSH3 0x969 JUMP JUMPDEST DUP2 EQ PUSH3 0x988 JUMPI PUSH0 DUP1 REVERT JUMPDEST POP JUMP JUMPDEST PUSH0 DUP2 CALLDATALOAD SWAP1 POP PUSH3 0x99B DUP2 PUSH3 0x972 JUMP JUMPDEST SWAP3 SWAP2 POP POP JUMP JUMPDEST PUSH0 DUP1 PUSH0 PUSH1 0x60 DUP5 DUP7 SUB SLT ISZERO PUSH3 0x9BB JUMPI PUSH3 0x9BA PUSH3 0x819 JUMP JUMPDEST JUMPDEST PUSH0 DUP5 ADD CALLDATALOAD PUSH8 0xFFFFFFFFFFFFFFFF DUP2 GT ISZERO PUSH3 0x9DB JUMPI PUSH3 0x9DA PUSH3 0x81D JUMP JUMPDEST JUMPDEST PUSH3 0x9E9 DUP7 DUP3 DUP8 ADD PUSH3 0x937 JUMP JUMPDEST SWAP4 POP POP PUSH1 0x20 DUP5 ADD CALLDATALOAD PUSH8 0xFFFFFFFFFFFFFFFF DUP2 GT ISZERO PUSH3 0xA0D JUMPI PUSH3 0xA0C PUSH3 0x81D JUMP JUMPDEST JUMPDEST PUSH3 0xA1B DUP7 DUP3 DUP8 ADD PUSH3 0x937 JUMP JUMPDEST SWAP3 POP POP PUSH1 0x40 PUSH3 0xA2E DUP7 DUP3 DUP8 ADD PUSH3 0x98B JUMP JUMPDEST SWAP2 POP POP SWAP3 POP SWAP3 POP SWAP3 JUMP JUMPDEST PUSH32 0x4E487B7100000000000000000000000000000000000000000000000000000000 PUSH0 MSTORE PUSH1 0x22 PUSH1 0x4 MSTORE PUSH1 0x24 PUSH0 REVERT JUMPDEST PUSH0 PUSH1 0x2 DUP3 DIV SWAP1 POP PUSH1 0x1 DUP3 AND DUP1 PUSH3 0xA7D JUMPI PUSH1 0x7F DUP3 AND SWAP2 POP JUMPDEST PUSH1 0x20 DUP3 LT DUP2 SUB PUSH3 0xA93 JUMPI PUSH3 0xA92 PUSH3 0xA38 JUMP JUMPDEST JUMPDEST POP SWAP2 SWAP1 POP JUMP JUMPDEST PUSH0 DUP3 DUP3 MSTORE PUSH1 0x20 DUP3 ADD SWAP1 POP SWAP3 SWAP2 POP POP JUMP JUMPDEST PUSH0 PUSH3 0xAB5 DUP3 PUSH3 0x667 JUMP JUMPDEST PUSH3 0xAC1 DUP2 DUP6 PUSH3 0xA99 JUMP JUMPDEST SWAP4 POP PUSH3 0xAD3 DUP2 DUP6 PUSH1 0x20 DUP7 ADD PUSH3 0x681 JUMP JUMPDEST PUSH3 0xADE DUP2 PUSH3 0x6AB JUMP JUMPDEST DUP5 ADD SWAP2 POP POP SWAP3 SWAP2 POP POP JUMP JUMPDEST PUSH3 0xAF4 DUP2 PUSH3 0x969 JUMP JUMPDEST DUP3 MSTORE POP POP JUMP JUMPDEST PUSH0 PUSH1 0x80 DUP3 ADD SWAP1 POP DUP2 DUP2 SUB PUSH0 DUP4 ADD MSTORE PUSH3 0xB14 DUP2 DUP8 PUSH3 0xAA9 JUMP JUMPDEST SWAP1 POP DUP2 DUP2 SUB PUSH1 0x20 DUP4 ADD MSTORE PUSH3 0xB2A DUP2 DUP7 PUSH3 0xAA9 JUMP JUMPDEST SWAP1 POP PUSH3 0xB3B PUSH1 0x40 DUP4 ADD DUP6 PUSH3 0xAE9 JUMP JUMPDEST PUSH3 0xB4A PUSH1 0x60 DUP4 ADD DUP5 PUSH3 0x612 JUMP JUMPDEST SWAP6 SWAP5 POP POP POP POP POP JUMP JUMPDEST PUSH0 DUP2 SWAP1 POP DUP2 PUSH0 MSTORE PUSH1 0x20 PUSH0 KECCAK256 SWAP1 POP SWAP2 SWAP1 POP JUMP JUMPDEST PUSH0 PUSH1 0x20 PUSH1 0x1F DUP4 ADD DIV SWAP1 POP SWAP2 SWAP1 POP JUMP JUMPDEST PUSH0 DUP3 DUP3 SHL SWAP1 POP SWAP3 SWAP2 POP POP JUMP JUMPDEST PUSH0 PUSH1 0x8 DUP4 MUL PUSH3 0xBB1 PUSH32 0xFFFFFFFFFFFFFFFFFFFFFFFFFFFFFFFFFFFFFFFFFFFFFFFFFFFFFFFFFFFFFFFF DUP3 PUSH3 0xB74 JUMP JUMPDEST PUSH3 0xBBD DUP7 DUP4 PUSH3 0xB74 JUMP JUMPDEST SWAP6 POP DUP1 NOT DUP5 AND SWAP4 POP DUP1 DUP7 AND DUP5 OR SWAP3 POP POP POP SWAP4 SWAP3 POP POP POP JUMP JUMPDEST PUSH0 DUP2 SWAP1 POP SWAP2 SWAP1 POP JUMP JUMPDEST PUSH0 PUSH3 0xBFE PUSH3 0xBF8 PUSH3 0xBF2 DUP5 PUSH3 0x969 JUMP JUMPDEST PUSH3 0xBD5 JUMP JUMPDEST PUSH3 0x969 JUMP JUMPDEST SWAP1 POP SWAP2 SWAP1 POP JUMP JUMPDEST PUSH0 DUP2 SWAP1 POP SWAP2 SWAP1 POP JUMP JUMPDEST PUSH3 0xC19 DUP4 PUSH3 0xBDE JUMP JUMPDEST PUSH3 0xC31 PUSH3 0xC28 DUP3 PUSH3 0xC05 JUMP JUMPDEST DUP5 DUP5 SLOAD PUSH3 0xB80 JUMP JUMPDEST DUP3 SSTORE POP POP POP POP JUMP JUMPDEST PUSH0 SWAP1 JUMP JUMPDEST PUSH3 0xC47 PUSH3 0xC39 JUMP JUMPDEST PUSH3 0xC54 DUP2 DUP5 DUP5 PUSH3 0xC0E JUMP JUMPDEST POP POP POP JUMP JUMPDEST JUMPDEST DUP2 DUP2 LT ISZERO PUSH3 0xC7B JUMPI PUSH3 0xC6F PUSH0 DUP3 PUSH3 0xC3D JUMP JUMPDEST PUSH1 0x1 DUP2 ADD SWAP1 POP PUSH3 0xC5A JUMP JUMPDEST POP POP JUMP JUMPDEST PUSH1 0x1F DUP3 GT ISZERO PUSH3 0xCCA JUMPI PUSH3 0xC94 DUP2 PUSH3 0xB53 JUMP JUMPDEST PUSH3 0xC9F DUP5 PUSH3 0xB65 JUMP JUMPDEST DUP2 ADD PUSH1 0x20 DUP6 LT ISZERO PUSH3 0xCAF JUMPI DUP2 SWAP1 POP JUMPDEST PUSH3 0xCC7 PUSH3 0xCBE DUP6 PUSH3 0xB65 JUMP JUMPDEST DUP4 ADD DUP3 PUSH3 0xC59 JUMP JUMPDEST POP POP JUMPDEST POP POP POP JUMP JUMPDEST PUSH0 DUP3 DUP3 SHR SWAP1 POP SWAP3 SWAP2 POP POP JUMP JUMPDEST PUSH0 PUSH3 0xCEC PUSH0 NOT DUP5 PUSH1 0x8 MUL PUSH3 0xCCF JUMP JUMPDEST NOT DUP1 DUP4 AND SWAP2 POP POP SWAP3 SWAP2 POP POP JUMP JUMPDEST PUSH0 PUSH3 0xD06 DUP4 DUP4 PUSH3 0xCDB JUMP JUMPDEST SWAP2 POP DUP3 PUSH1 0x2 MUL DUP3 OR SWAP1 POP SWAP3 SWAP2 POP POP JUMP JUMPDEST PUSH3 0xD21 DUP3 PUSH3 0x667 JUMP JUMPDEST PUSH8 0xFFFFFFFFFFFFFFFF DUP2 GT ISZERO PUSH3 0xD3D JUMPI PUSH3 0xD3C PUSH3 0x829 JUMP JUMPDEST JUMPDEST PUSH3 0xD49 DUP3 SLOAD PUSH3 0xA65 JUMP JUMPDEST PUSH3 0xD56 DUP3 DUP3 DUP6 PUSH3 0xC7F JUMP JUMPDEST PUSH0 PUSH1 0x20 SWAP1 POP PUSH1 0x1F DUP4 GT PUSH1 0x1 DUP2 EQ PUSH3 0xD8C JUMPI PUSH0 DUP5 ISZERO PUSH3 0xD77 JUMPI DUP3 DUP8 ADD MLOAD SWAP1 POP JUMPDEST PUSH3 0xD83 DUP6 DUP3 PUSH3 0xCF9 JUMP JUMPDEST DUP7 SSTORE POP PUSH3 0xDF2 JUMP JUMPDEST PUSH1 0x1F NOT DUP5 AND PUSH3 0xD9C DUP7 PUSH3 0xB53 JUMP JUMPDEST PUSH0 JUMPDEST DUP3 DUP2 LT ISZERO PUSH3 0xDC5 JUMPI DUP5 DUP10 ADD MLOAD DUP3 SSTORE PUSH1 0x1 DUP3 ADD SWAP2 POP PUSH1 0x20 DUP6 ADD SWAP5 POP PUSH1 0x20 DUP2 ADD SWAP1 POP PUSH3 0xD9E JUMP JUMPDEST DUP7 DUP4 LT ISZERO PUSH3 0xDE5 JUMPI DUP5 DUP10 ADD MLOAD PUSH3 0xDE1 PUSH1 0x1F DUP10 AND DUP3 PUSH3 0xCDB JUMP JUMPDEST DUP4 SSTORE POP JUMPDEST PUSH1 0x1 PUSH1 0x2 DUP9 MUL ADD DUP9 SSTORE POP POP POP JUMPDEST POP POP POP POP POP POP JUMP INVALID PUSH1 0x80 PUSH1 0x40 MSTORE CALLVALUE DUP1 ISZERO PUSH3 0x10 JUMPI PUSH0 DUP1 REVERT JUMPDEST POP PUSH1 0x40 MLOAD PUSH3 0x2249 CODESIZE SUB DUP1 PUSH3 0x2249 DUP4 CODECOPY DUP2 DUP2 ADD PUSH1 0x40 MSTORE DUP2 ADD SWAP1 PUSH3 0x36 SWAP2 SWAP1 PUSH3 0x2D4 JUMP JUMPDEST PUSH0 DUP3 GT PUSH3 0x42 JUMPI PUSH0 DUP1 REVERT JUMPDEST DUP1 PUSH1 0x2 PUSH0 PUSH2 0x100 EXP DUP2 SLOAD DUP2 PUSH20 0xFFFFFFFFFFFFFFFFFFFFFFFFFFFFFFFFFFFFFFFF MUL NOT AND SWAP1 DUP4 PUSH20 0xFFFFFFFFFFFFFFFFFFFFFFFFFFFFFFFFFFFFFFFF AND MUL OR SWAP1 SSTORE POP DUP4 PUSH0 SWAP1 DUP2 PUSH3 0x92 SWAP2 SWAP1 PUSH3 0x5AF JUMP JUMPDEST POP DUP3 PUSH1 0x1 SWAP1 DUP2 PUSH3 0xA4 SWAP2 SWAP1 PUSH3 0x5AF JUMP JUMPDEST POP DUP2 PUSH1 0x5 DUP2 SWAP1 SSTORE POP POP POP POP POP PUSH3 0x693 JUMP JUMPDEST PUSH0 PUSH1 0x40 MLOAD SWAP1 POP SWAP1 JUMP JUMPDEST PUSH0 DUP1 REVERT JUMPDEST PUSH0 DUP1 REVERT JUMPDEST PUSH0 DUP1 REVERT JUMPDEST PUSH0 DUP1 REVERT JUMPDEST PUSH0 PUSH1 0x1F NOT PUSH1 0x1F DUP4 ADD AND SWAP1 POP SWAP2 SWAP1 POP JUMP JUMPDEST PUSH32 0x4E487B7100000000000000000000000000000000000000000000000000000000 PUSH0 MSTORE PUSH1 0x41 PUSH1 0x4 MSTORE PUSH1 0x24 PUSH0 REVERT JUMPDEST PUSH3 0x117 DUP3 PUSH3 0xCF JUMP JUMPDEST DUP2 ADD DUP2 DUP2 LT PUSH8 0xFFFFFFFFFFFFFFFF DUP3 GT OR ISZERO PUSH3 0x139 JUMPI PUSH3 0x138 PUSH3 0xDF JUMP JUMPDEST JUMPDEST DUP1 PUSH1 0x40 MSTORE POP POP POP JUMP JUMPDEST PUSH0 PUSH3 0x14D PUSH3 0xB6 JUMP JUMPDEST SWAP1 POP PUSH3 0x15B DUP3 DUP3 PUSH3 0x10C JUMP JUMPDEST SWAP2 SWAP1 POP JUMP JUMPDEST PUSH0 PUSH8 0xFFFFFFFFFFFFFFFF DUP3 GT ISZERO PUSH3 0x17D JUMPI PUSH3 0x17C PUSH3 0xDF JUMP JUMPDEST JUMPDEST PUSH3 0x188 DUP3 PUSH3 0xCF JUMP JUMPDEST SWAP1 POP PUSH1 0x20 DUP2 ADD SWAP1 POP SWAP2 SWAP1 POP JUMP JUMPDEST PUSH0 JUMPDEST DUP4 DUP2 LT ISZERO PUSH3 0x1B4 JUMPI DUP1 DUP3 ADD MLOAD DUP2 DUP5 ADD MSTORE PUSH1 0x20 DUP2 ADD SWAP1 POP PUSH3 0x197 JUMP JUMPDEST PUSH0 DUP5 DUP5 ADD MSTORE POP POP POP POP JUMP JUMPDEST PUSH0 PUSH3 0x1D5 PUSH3 0x1CF DUP5 PUSH3 0x160 JUMP JUMPDEST PUSH3 0x142 JUMP JUMPDEST SWAP1 POP DUP3 DUP2 MSTORE PUSH1 0x20 DUP2 ADD DUP5 DUP5 DUP5 ADD GT ISZERO PUSH3 0x1F4 JUMPI PUSH3 0x1F3 PUSH3 0xCB JUMP JUMPDEST JUMPDEST PUSH3 0x201 DUP5 DUP3 DUP6 PUSH3 0x195 JUMP JUMPDEST POP SWAP4 SWAP3 POP POP POP JUMP JUMPDEST PUSH0 DUP3 PUSH1 0x1F DUP4 ADD SLT PUSH3 0x220 JUMPI PUSH3 0x21F PUSH3 0xC7 JUMP JUMPDEST JUMPDEST DUP2 MLOAD PUSH3 0x232 DUP5 DUP3 PUSH1 0x20 DUP7 ADD PUSH3 0x1BF JUMP JUMPDEST SWAP2 POP POP SWAP3 SWAP2 POP POP JUMP JUMPDEST PUSH0 DUP2 SWAP1 POP SWAP2 SWAP1 POP JUMP JUMPDEST PUSH3 0x24F DUP2 PUSH3 0x23B JUMP JUMPDEST DUP2 EQ PUSH3 0x25A JUMPI PUSH0 DUP1 REVERT JUMPDEST POP JUMP JUMPDEST PUSH0 DUP2 MLOAD SWAP1 POP PUSH3 0x26D DUP2 PUSH3 0x244 JUMP JUMPDEST SWAP3 SWAP2 POP POP JUMP JUMPDEST PUSH0 PUSH20 0xFFFFFFFFFFFFFFFFFFFFFFFFFFFFFFFFFFFFFFFF DUP3 AND SWAP1 POP SWAP2 SWAP1 POP JUMP JUMPDEST PUSH0 PUSH3 0x29E DUP3 PUSH3 0x273 JUMP JUMPDEST SWAP1 POP SWAP2 SWAP1 POP JUMP JUMPDEST PUSH3 0x2B0 DUP2 PUSH3 0x292 JUMP JUMPDEST DUP2 EQ PUSH3 0x2BB JUMPI PUSH0 DUP1 REVERT JUMPDEST POP JUMP JUMPDEST PUSH0 DUP2 MLOAD SWAP1 POP PUSH3 0x2CE DUP2 PUSH3 0x2A5 JUMP JUMPDEST SWAP3 SWAP2 POP POP JUMP JUMPDEST PUSH0 DUP1 PUSH0 DUP1 PUSH1 0x80 DUP6 DUP8 SUB SLT ISZERO PUSH3 0x2EF JUMPI PUSH3 0x2EE PUSH3 0xBF JUMP JUMPDEST JUMPDEST PUSH0 DUP6 ADD MLOAD PUSH8 0xFFFFFFFFFFFFFFFF DUP2 GT ISZERO PUSH3 0x30F JUMPI PUSH3 0x30E PUSH3 0xC3 JUMP JUMPDEST JUMPDEST PUSH3 0x31D DUP8 DUP3 DUP9 ADD PUSH3 0x209 JUMP JUMPDEST SWAP5 POP POP PUSH1 0x20 DUP6 ADD MLOAD PUSH8 0xFFFFFFFFFFFFFFFF DUP2 GT ISZERO PUSH3 0x341 JUMPI PUSH3 0x340 PUSH3 0xC3 JUMP JUMPDEST JUMPDEST PUSH3 0x34F DUP8 DUP3 DUP9 ADD PUSH3 0x209 JUMP JUMPDEST SWAP4 POP POP PUSH1 0x40 PUSH3 0x362 DUP8 DUP3 DUP9 ADD PUSH3 0x25D JUMP JUMPDEST SWAP3 POP POP PUSH1 0x60 PUSH3 0x375 DUP8 DUP3 DUP9 ADD PUSH3 0x2BE JUMP JUMPDEST SWAP2 POP POP SWAP3 SWAP6 SWAP2 SWAP5 POP SWAP3 POP JUMP JUMPDEST PUSH0 DUP2 MLOAD SWAP1 POP SWAP2 SWAP1 POP JUMP JUMPDEST PUSH32 0x4E487B7100000000000000000000000000000000000000000000000000000000 PUSH0 MSTORE PUSH1 0x22 PUSH1 0x4 MSTORE PUSH1 0x24 PUSH0 REVERT JUMPDEST PUSH0 PUSH1 0x2 DUP3 DIV SWAP1 POP PUSH1 0x1 DUP3 AND DUP1 PUSH3 0x3D0 JUMPI PUSH1 0x7F DUP3 AND SWAP2 POP JUMPDEST PUSH1 0x20 DUP3 LT DUP2 SUB PUSH3 0x3E6 JUMPI PUSH3 0x3E5 PUSH3 0x38B JUMP JUMPDEST JUMPDEST POP SWAP2 SWAP1 POP JUMP JUMPDEST PUSH0 DUP2 SWAP1 POP DUP2 PUSH0 MSTORE PUSH1 0x20 PUSH0 KECCAK256 SWAP1 POP SWAP2 SWAP1 POP JUMP JUMPDEST PUSH0 PUSH1 0x20 PUSH1 0x1F DUP4 ADD DIV SWAP1 POP SWAP2 SWAP1 POP JUMP JUMPDEST PUSH0 DUP3 DUP3 SHL SWAP1 POP SWAP3 SWAP2 POP POP JUMP JUMPDEST PUSH0 PUSH1 0x8 DUP4 MUL PUSH3 0x44A PUSH32 0xFFFFFFFFFFFFFFFFFFFFFFFFFFFFFFFFFFFFFFFFFFFFFFFFFFFFFFFFFFFFFFFF DUP3 PUSH3 0x40D JUMP JUMPDEST PUSH3 0x456 DUP7 DUP4 PUSH3 0x40D JUMP JUMPDEST SWAP6 POP DUP1 NOT DUP5 AND SWAP4 POP DUP1 DUP7 AND DUP5 OR SWAP3 POP POP POP SWAP4 SWAP3 POP POP POP JUMP JUMPDEST PUSH0 DUP2 SWAP1 POP SWAP2 SWAP1 POP JUMP JUMPDEST PUSH0 PUSH3 0x497 PUSH3 0x491 PUSH3 0x48B DUP5 PUSH3 0x23B JUMP JUMPDEST PUSH3 0x46E JUMP JUMPDEST PUSH3 0x23B JUMP JUMPDEST SWAP1 POP SWAP2 SWAP1 POP JUMP JUMPDEST PUSH0 DUP2 SWAP1 POP SWAP2 SWAP1 POP JUMP JUMPDEST PUSH3 0x4B2 DUP4 PUSH3 0x477 JUMP JUMPDEST PUSH3 0x4CA PUSH3 0x4C1 DUP3 PUSH3 0x49E JUMP JUMPDEST DUP5 DUP5 SLOAD PUSH3 0x419 JUMP JUMPDEST DUP3 SSTORE POP POP POP POP JUMP JUMPDEST PUSH0 SWAP1 JUMP JUMPDEST PUSH3 0x4E0 PUSH3 0x4D2 JUMP JUMPDEST PUSH3 0x4ED DUP2 DUP5 DUP5 PUSH3 0x4A7 JUMP JUMPDEST POP POP POP JUMP JUMPDEST JUMPDEST DUP2 DUP2 LT ISZERO PUSH3 0x514 JUMPI PUSH3 0x508 PUSH0 DUP3 PUSH3 0x4D6 JUMP JUMPDEST PUSH1 0x1 DUP2 ADD SWAP1 POP PUSH3 0x4F3 JUMP JUMPDEST POP POP JUMP JUMPDEST PUSH1 0x1F DUP3 GT ISZERO PUSH3 0x563 JUMPI PUSH3 0x52D DUP2 PUSH3 0x3EC JUMP JUMPDEST PUSH3 0x538 DUP5 PUSH3 0x3FE JUMP JUMPDEST DUP2 ADD PUSH1 0x20 DUP6 LT ISZERO PUSH3 0x548 JUMPI DUP2 SWAP1 POP JUMPDEST PUSH3 0x560 PUSH3 0x557 DUP6 PUSH3 0x3FE JUMP JUMPDEST DUP4 ADD DUP3 PUSH3 0x4F2 JUMP JUMPDEST POP POP JUMPDEST POP POP POP JUMP JUMPDEST PUSH0 DUP3 DUP3 SHR SWAP1 POP SWAP3 SWAP2 POP POP JUMP JUMPDEST PUSH0 PUSH3 0x585 PUSH0 NOT DUP5 PUSH1 0x8 MUL PUSH3 0x568 JUMP JUMPDEST NOT DUP1 DUP4 AND SWAP2 POP POP SWAP3 SWAP2 POP POP JUMP JUMPDEST PUSH0 PUSH3 0x59F DUP4 DUP4 PUSH3 0x574 JUMP JUMPDEST SWAP2 POP DUP3 PUSH1 0x2 MUL DUP3 OR SWAP1 POP SWAP3 SWAP2 POP POP JUMP JUMPDEST PUSH3 0x5BA DUP3 PUSH3 0x381 JUMP JUMPDEST PUSH8 0xFFFFFFFFFFFFFFFF DUP2 GT ISZERO PUSH3 0x5D6 JUMPI PUSH3 0x5D5 PUSH3 0xDF JUMP JUMPDEST JUMPDEST PUSH3 0x5E2 DUP3 SLOAD PUSH3 0x3B8 JUMP JUMPDEST PUSH3 0x5EF DUP3 DUP3 DUP6 PUSH3 0x518 JUMP JUMPDEST PUSH0 PUSH1 0x20 SWAP1 POP PUSH1 0x1F DUP4 GT PUSH1 0x1 DUP2 EQ PUSH3 0x625 JUMPI PUSH0 DUP5 ISZERO PUSH3 0x610 JUMPI DUP3 DUP8 ADD MLOAD SWAP1 POP JUMPDEST PUSH3 0x61C DUP6 DUP3 PUSH3 0x592 JUMP JUMPDEST DUP7 SSTORE POP PUSH3 0x68B JUMP JUMPDEST PUSH1 0x1F NOT DUP5 AND PUSH3 0x635 DUP7 PUSH3 0x3EC JUMP JUMPDEST PUSH0 JUMPDEST DUP3 DUP2 LT ISZERO PUSH3 0x65E JUMPI DUP5 DUP10 ADD MLOAD DUP3 SSTORE PUSH1 0x1 DUP3 ADD SWAP2 POP PUSH1 0x20 DUP6 ADD SWAP5 POP PUSH1 0x20 DUP2 ADD SWAP1 POP PUSH3 0x637 JUMP JUMPDEST DUP7 DUP4 LT ISZERO PUSH3 0x67E JUMPI DUP5 DUP10 ADD MLOAD PUSH3 0x67A PUSH1 0x1F DUP10 AND DUP3 PUSH3 0x574 JUMP JUMPDEST DUP4 SSTORE POP JUMPDEST PUSH1 0x1 PUSH1 0x2 DUP9 MUL ADD DUP9 SSTORE POP POP POP JUMPDEST POP POP POP POP POP POP JUMP JUMPDEST PUSH2 0x1BA8 DUP1 PUSH3 0x6A1 PUSH0 CODECOPY PUSH0 RETURN INVALID PUSH1 0x80 PUSH1 0x40 MSTORE PUSH1 0x4 CALLDATASIZE LT PUSH2 0xE7 JUMPI PUSH0 CALLDATALOAD PUSH1 0xE0 SHR DUP1 PUSH4 0x8813CE12 GT PUSH2 0x89 JUMPI DUP1 PUSH4 0xD7BB99BA GT PUSH2 0x58 JUMPI DUP1 PUSH4 0xD7BB99BA EQ PUSH2 0x2E0 JUMPI DUP1 PUSH4 0xE2E46B52 EQ PUSH2 0x2EA JUMPI DUP1 PUSH4 0xF84038B1 EQ PUSH2 0x312 JUMPI DUP1 PUSH4 0xFEED5561 EQ PUSH2 0x33C JUMPI PUSH2 0xE7 JUMP JUMPDEST DUP1 PUSH4 0x8813CE12 EQ PUSH2 0x23A JUMPI DUP1 PUSH4 0x885E7C62 EQ PUSH2 0x264 JUMPI DUP1 PUSH4 0xA7AC8000 EQ PUSH2 0x28E JUMPI DUP1 PUSH4 0xD5009584 EQ PUSH2 0x2B6 JUMPI PUSH2 0xE7 JUMP JUMPDEST DUP1 PUSH4 0x3410452A GT PUSH2 0xC5 JUMPI DUP1 PUSH4 0x3410452A EQ PUSH2 0x179 JUMPI DUP1 PUSH4 0x4051DDAC EQ PUSH2 0x1A3 JUMPI DUP1 PUSH4 0x692D51D2 EQ PUSH2 0x1CD JUMPI DUP1 PUSH4 0x6F9FB98A EQ PUSH2 0x210 JUMPI PUSH2 0xE7 JUMP JUMPDEST DUP1 PUSH4 0xA144391 EQ PUSH2 0xEB JUMPI DUP1 PUSH4 0x1A092541 EQ PUSH2 0x127 JUMPI DUP1 PUSH4 0x30E8FC5C EQ PUSH2 0x151 JUMPI JUMPDEST PUSH0 DUP1 REVERT JUMPDEST CALLVALUE DUP1 ISZERO PUSH2 0xF6 JUMPI PUSH0 DUP1 REVERT JUMPDEST POP PUSH2 0x111 PUSH1 0x4 DUP1 CALLDATASIZE SUB DUP2 ADD SWAP1 PUSH2 0x10C SWAP2 SWAP1 PUSH2 0x10A4 JUMP JUMPDEST PUSH2 0x366 JUMP JUMPDEST PUSH1 0x40 MLOAD PUSH2 0x11E SWAP2 SWAP1 PUSH2 0x10E7 JUMP JUMPDEST PUSH1 0x40 MLOAD DUP1 SWAP2 SUB SWAP1 RETURN JUMPDEST CALLVALUE DUP1 ISZERO PUSH2 0x132 JUMPI PUSH0 DUP1 REVERT JUMPDEST POP PUSH2 0x13B PUSH2 0x37B JUMP JUMPDEST PUSH1 0x40 MLOAD PUSH2 0x148 SWAP2 SWAP1 PUSH2 0x118A JUMP JUMPDEST PUSH1 0x40 MLOAD DUP1 SWAP2 SUB SWAP1 RETURN JUMPDEST CALLVALUE DUP1 ISZERO PUSH2 0x15C JUMPI PUSH0 DUP1 REVERT JUMPDEST POP PUSH2 0x177 PUSH1 0x4 DUP1 CALLDATASIZE SUB DUP2 ADD SWAP1 PUSH2 0x172 SWAP2 SWAP1 PUSH2 0x130B JUMP JUMPDEST PUSH2 0x40B JUMP JUMPDEST STOP JUMPDEST CALLVALUE DUP1 ISZERO PUSH2 0x184 JUMPI PUSH0 DUP1 REVERT JUMPDEST POP PUSH2 0x18D PUSH2 0x633 JUMP JUMPDEST PUSH1 0x40 MLOAD PUSH2 0x19A SWAP2 SWAP1 PUSH2 0x10E7 JUMP JUMPDEST PUSH1 0x40 MLOAD DUP1 SWAP2 SUB SWAP1 RETURN JUMPDEST CALLVALUE DUP1 ISZERO PUSH2 0x1AE JUMPI PUSH0 DUP1 REVERT JUMPDEST POP PUSH2 0x1B7 PUSH2 0x63C JUMP JUMPDEST PUSH1 0x40 MLOAD PUSH2 0x1C4 SWAP2 SWAP1 PUSH2 0x146B JUMP JUMPDEST PUSH1 0x40 MLOAD DUP1 SWAP2 SUB SWAP1 RETURN JUMPDEST CALLVALUE DUP1 ISZERO PUSH2 0x1D8 JUMPI PUSH0 DUP1 REVERT JUMPDEST POP PUSH2 0x1F3 PUSH1 0x4 DUP1 CALLDATASIZE SUB DUP2 ADD SWAP1 PUSH2 0x1EE SWAP2 SWAP1 PUSH2 0x148B JUMP JUMPDEST PUSH2 0x7CD JUMP JUMPDEST PUSH1 0x40 MLOAD PUSH2 0x207 SWAP9 SWAP8 SWAP7 SWAP6 SWAP5 SWAP4 SWAP3 SWAP2 SWAP1 PUSH2 0x1501 JUMP JUMPDEST PUSH1 0x40 MLOAD DUP1 SWAP2 SUB SWAP1 RETURN JUMPDEST CALLVALUE DUP1 ISZERO PUSH2 0x21B JUMPI PUSH0 DUP1 REVERT JUMPDEST POP PUSH2 0x224 PUSH2 0x96D JUMP JUMPDEST PUSH1 0x40 MLOAD PUSH2 0x231 SWAP2 SWAP1 PUSH2 0x10E7 JUMP JUMPDEST PUSH1 0x40 MLOAD DUP1 SWAP2 SUB SWAP1 RETURN JUMPDEST CALLVALUE DUP1 ISZERO PUSH2 0x245 JUMPI PUSH0 DUP1 REVERT JUMPDEST POP PUSH2 0x24E PUSH2 0x974 JUMP JUMPDEST PUSH1 0x40 MLOAD PUSH2 0x25B SWAP2 SWAP1 PUSH2 0x169A JUMP JUMPDEST PUSH1 0x40 MLOAD DUP1 SWAP2 SUB SWAP1 RETURN JUMPDEST CALLVALUE DUP1 ISZERO PUSH2 0x26F JUMPI PUSH0 DUP1 REVERT JUMPDEST POP PUSH2 0x278 PUSH2 0xAF9 JUMP JUMPDEST PUSH1 0x40 MLOAD PUSH2 0x285 SWAP2 SWAP1 PUSH2 0x118A JUMP JUMPDEST PUSH1 0x40 MLOAD DUP1 SWAP2 SUB SWAP1 RETURN JUMPDEST CALLVALUE DUP1 ISZERO PUSH2 0x299 JUMPI PUSH0 DUP1 REVERT JUMPDEST POP PUSH2 0x2B4 PUSH1 0x4 DUP1 CALLDATASIZE SUB DUP2 ADD SWAP1 PUSH2 0x2AF SWAP2 SWAP1 PUSH2 0x170E JUMP JUMPDEST PUSH2 0xB88 JUMP JUMPDEST STOP JUMPDEST CALLVALUE DUP1 ISZERO PUSH2 0x2C1 JUMPI PUSH0 DUP1 REVERT JUMPDEST POP PUSH2 0x2CA PUSH2 0xD82 JUMP JUMPDEST PUSH1 0x40 MLOAD PUSH2 0x2D7 SWAP2 SWAP1 PUSH2 0x17CC JUMP JUMPDEST PUSH1 0x40 MLOAD DUP1 SWAP2 SUB SWAP1 RETURN JUMPDEST PUSH2 0x2E8 PUSH2 0xDAA JUMP JUMPDEST STOP JUMPDEST CALLVALUE DUP1 ISZERO PUSH2 0x2F5 JUMPI PUSH0 DUP1 REVERT JUMPDEST POP PUSH2 0x310 PUSH1 0x4 DUP1 CALLDATASIZE SUB DUP2 ADD SWAP1 PUSH2 0x30B SWAP2 SWAP1 PUSH2 0x148B JUMP JUMPDEST PUSH2 0xE5B JUMP JUMPDEST STOP JUMPDEST CALLVALUE DUP1 ISZERO PUSH2 0x31D JUMPI PUSH0 DUP1 REVERT JUMPDEST POP PUSH2 0x326 PUSH2 0xFD9 JUMP JUMPDEST PUSH1 0x40 MLOAD PUSH2 0x333 SWAP2 SWAP1 PUSH2 0x10E7 JUMP JUMPDEST PUSH1 0x40 MLOAD DUP1 SWAP2 SUB SWAP1 RETURN JUMPDEST CALLVALUE DUP1 ISZERO PUSH2 0x347 JUMPI PUSH0 DUP1 REVERT JUMPDEST POP PUSH2 0x350 PUSH2 0xFE2 JUMP JUMPDEST PUSH1 0x40 MLOAD PUSH2 0x35D SWAP2 SWAP1 PUSH2 0x10E7 JUMP JUMPDEST PUSH1 0x40 MLOAD DUP1 SWAP2 SUB SWAP1 RETURN JUMPDEST PUSH1 0x3 PUSH1 0x20 MSTORE DUP1 PUSH0 MSTORE PUSH1 0x40 PUSH0 KECCAK256 PUSH0 SWAP2 POP SWAP1 POP SLOAD DUP2 JUMP JUMPDEST PUSH1 0x60 PUSH1 0x1 DUP1 SLOAD PUSH2 0x38A SWAP1 PUSH2 0x1812 JUMP JUMPDEST DUP1 PUSH1 0x1F ADD PUSH1 0x20 DUP1 SWAP2 DIV MUL PUSH1 0x20 ADD PUSH1 0x40 MLOAD SWAP1 DUP2 ADD PUSH1 0x40 MSTORE DUP1 SWAP3 SWAP2 SWAP1 DUP2 DUP2 MSTORE PUSH1 0x20 ADD DUP3 DUP1 SLOAD PUSH2 0x3B6 SWAP1 PUSH2 0x1812 JUMP JUMPDEST DUP1 ISZERO PUSH2 0x401 JUMPI DUP1 PUSH1 0x1F LT PUSH2 0x3D8 JUMPI PUSH2 0x100 DUP1 DUP4 SLOAD DIV MUL DUP4 MSTORE SWAP2 PUSH1 0x20 ADD SWAP2 PUSH2 0x401 JUMP JUMPDEST DUP3 ADD SWAP2 SWAP1 PUSH0 MSTORE PUSH1 0x20 PUSH0 KECCAK256 SWAP1 JUMPDEST DUP2 SLOAD DUP2 MSTORE SWAP1 PUSH1 0x1 ADD SWAP1 PUSH1 0x20 ADD DUP1 DUP4 GT PUSH2 0x3E4 JUMPI DUP3 SWAP1 SUB PUSH1 0x1F AND DUP3 ADD SWAP2 JUMPDEST POP POP POP POP POP SWAP1 POP SWAP1 JUMP JUMPDEST PUSH1 0x2 PUSH0 SWAP1 SLOAD SWAP1 PUSH2 0x100 EXP SWAP1 DIV PUSH20 0xFFFFFFFFFFFFFFFFFFFFFFFFFFFFFFFFFFFFFFFF AND PUSH20 0xFFFFFFFFFFFFFFFFFFFFFFFFFFFFFFFFFFFFFFFF AND CALLER PUSH20 0xFFFFFFFFFFFFFFFFFFFFFFFFFFFFFFFFFFFFFFFF AND SUB PUSH2 0x463 JUMPI PUSH0 DUP1 REVERT JUMPDEST PUSH0 PUSH1 0x7 DUP4 PUSH1 0x40 MLOAD PUSH2 0x474 SWAP2 SWAP1 PUSH2 0x187C JUMP JUMPDEST SWAP1 DUP2 MSTORE PUSH1 0x20 ADD PUSH1 0x40 MLOAD DUP1 SWAP2 SUB SWAP1 KECCAK256 SWAP1 POP PUSH0 DUP2 PUSH0 ADD DUP1 SLOAD PUSH2 0x493 SWAP1 PUSH2 0x1812 JUMP JUMPDEST SWAP1 POP GT PUSH2 0x49E JUMPI PUSH0 DUP1 REVERT JUMPDEST DUP3 MLOAD DUP2 PUSH0 ADD DUP1 SLOAD PUSH2 0x4AE SWAP1 PUSH2 0x1812 JUMP JUMPDEST SWAP1 POP EQ PUSH2 0x4B9 JUMPI PUSH0 DUP1 REVERT JUMPDEST PUSH0 PUSH1 0x3 PUSH0 CALLER PUSH20 0xFFFFFFFFFFFFFFFFFFFFFFFFFFFFFFFFFFFFFFFF AND PUSH20 0xFFFFFFFFFFFFFFFFFFFFFFFFFFFFFFFFFFFFFFFF AND DUP2 MSTORE PUSH1 0x20 ADD SWAP1 DUP2 MSTORE PUSH1 0x20 ADD PUSH0 KECCAK256 SLOAD GT PUSH2 0x501 JUMPI PUSH0 DUP1 REVERT JUMPDEST DUP1 PUSH1 0x6 ADD PUSH0 SWAP1 SLOAD SWAP1 PUSH2 0x100 EXP SWAP1 DIV PUSH1 0xFF AND ISZERO PUSH2 0x51B JUMPI PUSH0 DUP1 REVERT JUMPDEST DUP1 PUSH1 0x6 ADD PUSH1 0x1 SWAP1 SLOAD SWAP1 PUSH2 0x100 EXP SWAP1 DIV PUSH1 0xFF AND ISZERO PUSH2 0x536 JUMPI PUSH0 DUP1 REVERT JUMPDEST DUP1 PUSH1 0x7 ADD PUSH0 CALLER PUSH20 0xFFFFFFFFFFFFFFFFFFFFFFFFFFFFFFFFFFFFFFFF AND PUSH20 0xFFFFFFFFFFFFFFFFFFFFFFFFFFFFFFFFFFFFFFFF AND DUP2 MSTORE PUSH1 0x20 ADD SWAP1 DUP2 MSTORE PUSH1 0x20 ADD PUSH0 KECCAK256 PUSH0 SWAP1 SLOAD SWAP1 PUSH2 0x100 EXP SWAP1 DIV PUSH1 0xFF AND ISZERO PUSH2 0x58B JUMPI PUSH0 DUP1 REVERT JUMPDEST PUSH1 0x1 DUP2 PUSH1 0x7 ADD PUSH0 CALLER PUSH20 0xFFFFFFFFFFFFFFFFFFFFFFFFFFFFFFFFFFFFFFFF AND PUSH20 0xFFFFFFFFFFFFFFFFFFFFFFFFFFFFFFFFFFFFFFFF AND DUP2 MSTORE PUSH1 0x20 ADD SWAP1 DUP2 MSTORE PUSH1 0x20 ADD PUSH0 KECCAK256 PUSH0 PUSH2 0x100 EXP DUP2 SLOAD DUP2 PUSH1 0xFF MUL NOT AND SWAP1 DUP4 ISZERO ISZERO MUL OR SWAP1 SSTORE POP DUP2 ISZERO PUSH2 0x602 JUMPI DUP1 PUSH1 0x4 ADD PUSH0 DUP2 SLOAD DUP1 SWAP3 SWAP2 SWAP1 PUSH2 0x5FC SWAP1 PUSH2 0x18BF JUMP JUMPDEST SWAP2 SWAP1 POP SSTORE POP JUMPDEST DUP1 PUSH1 0x5 ADD SLOAD DUP2 PUSH1 0x4 ADD SLOAD LT PUSH2 0x62E JUMPI PUSH1 0x1 DUP2 PUSH1 0x6 ADD PUSH0 PUSH2 0x100 EXP DUP2 SLOAD DUP2 PUSH1 0xFF MUL NOT AND SWAP1 DUP4 ISZERO ISZERO MUL OR SWAP1 SSTORE POP JUMPDEST POP POP POP JUMP JUMPDEST PUSH0 PUSH1 0x8 SLOAD SWAP1 POP SWAP1 JUMP JUMPDEST PUSH2 0x644 PUSH2 0xFEB JUMP JUMPDEST PUSH0 PUSH1 0x40 MLOAD DUP1 PUSH1 0xE0 ADD PUSH1 0x40 MSTORE DUP1 PUSH1 0x2 PUSH0 SWAP1 SLOAD SWAP1 PUSH2 0x100 EXP SWAP1 DIV PUSH20 0xFFFFFFFFFFFFFFFFFFFFFFFFFFFFFFFFFFFFFFFF AND PUSH20 0xFFFFFFFFFFFFFFFFFFFFFFFFFFFFFFFFFFFFFFFF AND DUP2 MSTORE PUSH1 0x20 ADD PUSH0 DUP1 SLOAD PUSH2 0x699 SWAP1 PUSH2 0x1812 JUMP JUMPDEST DUP1 PUSH1 0x1F ADD PUSH1 0x20 DUP1 SWAP2 DIV MUL PUSH1 0x20 ADD PUSH1 0x40 MLOAD SWAP1 DUP2 ADD PUSH1 0x40 MSTORE DUP1 SWAP3 SWAP2 SWAP1 DUP2 DUP2 MSTORE PUSH1 0x20 ADD DUP3 DUP1 SLOAD PUSH2 0x6C5 SWAP1 PUSH2 0x1812 JUMP JUMPDEST DUP1 ISZERO PUSH2 0x710 JUMPI DUP1 PUSH1 0x1F LT PUSH2 0x6E7 JUMPI PUSH2 0x100 DUP1 DUP4 SLOAD DIV MUL DUP4 MSTORE SWAP2 PUSH1 0x20 ADD SWAP2 PUSH2 0x710 JUMP JUMPDEST DUP3 ADD SWAP2 SWAP1 PUSH0 MSTORE PUSH1 0x20 PUSH0 KECCAK256 SWAP1 JUMPDEST DUP2 SLOAD DUP2 MSTORE SWAP1 PUSH1 0x1 ADD SWAP1 PUSH1 0x20 ADD DUP1 DUP4 GT PUSH2 0x6F3 JUMPI DUP3 SWAP1 SUB PUSH1 0x1F AND DUP3 ADD SWAP2 JUMPDEST POP POP POP POP POP DUP2 MSTORE PUSH1 0x20 ADD PUSH1 0x1 DUP1 SLOAD PUSH2 0x727 SWAP1 PUSH2 0x1812 JUMP JUMPDEST DUP1 PUSH1 0x1F ADD PUSH1 0x20 DUP1 SWAP2 DIV MUL PUSH1 0x20 ADD PUSH1 0x40 MLOAD SWAP1 DUP2 ADD PUSH1 0x40 MSTORE DUP1 SWAP3 SWAP2 SWAP1 DUP2 DUP2 MSTORE PUSH1 0x20 ADD DUP3 DUP1 SLOAD PUSH2 0x753 SWAP1 PUSH2 0x1812 JUMP JUMPDEST DUP1 ISZERO PUSH2 0x79E JUMPI DUP1 PUSH1 0x1F LT PUSH2 0x775 JUMPI PUSH2 0x100 DUP1 DUP4 SLOAD DIV MUL DUP4 MSTORE SWAP2 PUSH1 0x20 ADD SWAP2 PUSH2 0x79E JUMP JUMPDEST DUP3 ADD SWAP2 SWAP1 PUSH0 MSTORE PUSH1 0x20 PUSH0 KECCAK256 SWAP1 JUMPDEST DUP2 SLOAD DUP2 MSTORE SWAP1 PUSH1 0x1 ADD SWAP1 PUSH1 0x20 ADD DUP1 DUP4 GT PUSH2 0x781 JUMPI DUP3 SWAP1 SUB PUSH1 0x1F AND DUP3 ADD SWAP2 JUMPDEST POP POP POP POP POP DUP2 MSTORE PUSH1 0x20 ADD PUSH1 0x5 SLOAD DUP2 MSTORE PUSH1 0x20 ADD SELFBALANCE DUP2 MSTORE PUSH1 0x20 ADD PUSH1 0x4 SLOAD DUP2 MSTORE PUSH1 0x20 ADD PUSH1 0x8 SLOAD DUP2 MSTORE POP SWAP1 POP DUP1 SWAP2 POP POP SWAP1 JUMP JUMPDEST PUSH1 0x7 DUP2 DUP1 MLOAD PUSH1 0x20 DUP2 ADD DUP3 ADD DUP1 MLOAD DUP5 DUP3 MSTORE PUSH1 0x20 DUP4 ADD PUSH1 0x20 DUP6 ADD KECCAK256 DUP2 DUP4 MSTORE DUP1 SWAP6 POP POP POP POP POP POP PUSH0 SWAP2 POP SWAP1 POP DUP1 PUSH0 ADD DUP1 SLOAD PUSH2 0x804 SWAP1 PUSH2 0x1812 JUMP JUMPDEST DUP1 PUSH1 0x1F ADD PUSH1 0x20 DUP1 SWAP2 DIV MUL PUSH1 0x20 ADD PUSH1 0x40 MLOAD SWAP1 DUP2 ADD PUSH1 0x40 MSTORE DUP1 SWAP3 SWAP2 SWAP1 DUP2 DUP2 MSTORE PUSH1 0x20 ADD DUP3 DUP1 SLOAD PUSH2 0x830 SWAP1 PUSH2 0x1812 JUMP JUMPDEST DUP1 ISZERO PUSH2 0x87B JUMPI DUP1 PUSH1 0x1F LT PUSH2 0x852 JUMPI PUSH2 0x100 DUP1 DUP4 SLOAD DIV MUL DUP4 MSTORE SWAP2 PUSH1 0x20 ADD SWAP2 PUSH2 0x87B JUMP JUMPDEST DUP3 ADD SWAP2 SWAP1 PUSH0 MSTORE PUSH1 0x20 PUSH0 KECCAK256 SWAP1 JUMPDEST DUP2 SLOAD DUP2 MSTORE SWAP1 PUSH1 0x1 ADD SWAP1 PUSH1 0x20 ADD DUP1 DUP4 GT PUSH2 0x85E JUMPI DUP3 SWAP1 SUB PUSH1 0x1F AND DUP3 ADD SWAP2 JUMPDEST POP POP POP POP POP SWAP1 DUP1 PUSH1 0x1 ADD DUP1 SLOAD PUSH2 0x890 SWAP1 PUSH2 0x1812 JUMP JUMPDEST DUP1 PUSH1 0x1F ADD PUSH1 0x20 DUP1 SWAP2 DIV MUL PUSH1 0x20 ADD PUSH1 0x40 MLOAD SWAP1 DUP2 ADD PUSH1 0x40 MSTORE DUP1 SWAP3 SWAP2 SWAP1 DUP2 DUP2 MSTORE PUSH1 0x20 ADD DUP3 DUP1 SLOAD PUSH2 0x8BC SWAP1 PUSH2 0x1812 JUMP JUMPDEST DUP1 ISZERO PUSH2 0x907 JUMPI DUP1 PUSH1 0x1F LT PUSH2 0x8DE JUMPI PUSH2 0x100 DUP1 DUP4 SLOAD DIV MUL DUP4 MSTORE SWAP2 PUSH1 0x20 ADD SWAP2 PUSH2 0x907 JUMP JUMPDEST DUP3 ADD SWAP2 SWAP1 PUSH0 MSTORE PUSH1 0x20 PUSH0 KECCAK256 SWAP1 JUMPDEST DUP2 SLOAD DUP2 MSTORE SWAP1 PUSH1 0x1 ADD SWAP1 PUSH1 0x20 ADD DUP1 DUP4 GT PUSH2 0x8EA JUMPI DUP3 SWAP1 SUB PUSH1 0x1F AND DUP3 ADD SWAP2 JUMPDEST POP POP POP POP POP SWAP1 DUP1 PUSH1 0x2 ADD SLOAD SWAP1 DUP1 PUSH1 0x3 ADD PUSH0 SWAP1 SLOAD SWAP1 PUSH2 0x100 EXP SWAP1 DIV PUSH20 0xFFFFFFFFFFFFFFFFFFFFFFFFFFFFFFFFFFFFFFFF AND SWAP1 DUP1 PUSH1 0x4 ADD SLOAD SWAP1 DUP1 PUSH1 0x5 ADD SLOAD SWAP1 DUP1 PUSH1 0x6 ADD PUSH0 SWAP1 SLOAD SWAP1 PUSH2 0x100 EXP SWAP1 DIV PUSH1 0xFF AND SWAP1 DUP1 PUSH1 0x6 ADD PUSH1 0x1 SWAP1 SLOAD SWAP1 PUSH2 0x100 EXP SWAP1 DIV PUSH1 0xFF AND SWAP1 POP DUP9 JUMP JUMPDEST PUSH0 SELFBALANCE SWAP1 POP SWAP1 JUMP JUMPDEST PUSH1 0x60 PUSH1 0x6 DUP1 SLOAD DUP1 PUSH1 0x20 MUL PUSH1 0x20 ADD PUSH1 0x40 MLOAD SWAP1 DUP2 ADD PUSH1 0x40 MSTORE DUP1 SWAP3 SWAP2 SWAP1 DUP2 DUP2 MSTORE PUSH1 0x20 ADD PUSH0 SWAP1 JUMPDEST DUP3 DUP3 LT ISZERO PUSH2 0xAF0 JUMPI DUP4 DUP3 SWAP1 PUSH0 MSTORE PUSH1 0x20 PUSH0 KECCAK256 SWAP1 PUSH1 0x3 MUL ADD PUSH1 0x40 MLOAD DUP1 PUSH1 0x60 ADD PUSH1 0x40 MSTORE SWAP1 DUP2 PUSH0 DUP3 ADD DUP1 SLOAD PUSH2 0x9C7 SWAP1 PUSH2 0x1812 JUMP JUMPDEST DUP1 PUSH1 0x1F ADD PUSH1 0x20 DUP1 SWAP2 DIV MUL PUSH1 0x20 ADD PUSH1 0x40 MLOAD SWAP1 DUP2 ADD PUSH1 0x40 MSTORE DUP1 SWAP3 SWAP2 SWAP1 DUP2 DUP2 MSTORE PUSH1 0x20 ADD DUP3 DUP1 SLOAD PUSH2 0x9F3 SWAP1 PUSH2 0x1812 JUMP JUMPDEST DUP1 ISZERO PUSH2 0xA3E JUMPI DUP1 PUSH1 0x1F LT PUSH2 0xA15 JUMPI PUSH2 0x100 DUP1 DUP4 SLOAD DIV MUL DUP4 MSTORE SWAP2 PUSH1 0x20 ADD SWAP2 PUSH2 0xA3E JUMP JUMPDEST DUP3 ADD SWAP2 SWAP1 PUSH0 MSTORE PUSH1 0x20 PUSH0 KECCAK256 SWAP1 JUMPDEST DUP2 SLOAD DUP2 MSTORE SWAP1 PUSH1 0x1 ADD SWAP1 PUSH1 0x20 ADD DUP1 DUP4 GT PUSH2 0xA21 JUMPI DUP3 SWAP1 SUB PUSH1 0x1F AND DUP3 ADD SWAP2 JUMPDEST POP POP POP POP POP DUP2 MSTORE PUSH1 0x20 ADD PUSH1 0x1 DUP3 ADD DUP1 SLOAD PUSH2 0xA57 SWAP1 PUSH2 0x1812 JUMP JUMPDEST DUP1 PUSH1 0x1F ADD PUSH1 0x20 DUP1 SWAP2 DIV MUL PUSH1 0x20 ADD PUSH1 0x40 MLOAD SWAP1 DUP2 ADD PUSH1 0x40 MSTORE DUP1 SWAP3 SWAP2 SWAP1 DUP2 DUP2 MSTORE PUSH1 0x20 ADD DUP3 DUP1 SLOAD PUSH2 0xA83 SWAP1 PUSH2 0x1812 JUMP JUMPDEST DUP1 ISZERO PUSH2 0xACE JUMPI DUP1 PUSH1 0x1F LT PUSH2 0xAA5 JUMPI PUSH2 0x100 DUP1 DUP4 SLOAD DIV MUL DUP4 MSTORE SWAP2 PUSH1 0x20 ADD SWAP2 PUSH2 0xACE JUMP JUMPDEST DUP3 ADD SWAP2 SWAP1 PUSH0 MSTORE PUSH1 0x20 PUSH0 KECCAK256 SWAP1 JUMPDEST DUP2 SLOAD DUP2 MSTORE SWAP1 PUSH1 0x1 ADD SWAP1 PUSH1 0x20 ADD DUP1 DUP4 GT PUSH2 0xAB1 JUMPI DUP3 SWAP1 SUB PUSH1 0x1F AND DUP3 ADD SWAP2 JUMPDEST POP POP POP POP POP DUP2 MSTORE PUSH1 0x20 ADD PUSH1 0x2 DUP3 ADD SLOAD DUP2 MSTORE POP POP DUP2 MSTORE PUSH1 0x20 ADD SWAP1 PUSH1 0x1 ADD SWAP1 PUSH2 0x997 JUMP JUMPDEST POP POP POP POP SWAP1 POP SWAP1 JUMP JUMPDEST PUSH1 0x60 PUSH0 DUP1 SLOAD PUSH2 0xB07 SWAP1 PUSH2 0x1812 JUMP JUMPDEST DUP1 PUSH1 0x1F ADD PUSH1 0x20 DUP1 SWAP2 DIV MUL PUSH1 0x20 ADD PUSH1 0x40 MLOAD SWAP1 DUP2 ADD PUSH1 0x40 MSTORE DUP1 SWAP3 SWAP2 SWAP1 DUP2 DUP2 MSTORE PUSH1 0x20 ADD DUP3 DUP1 SLOAD PUSH2 0xB33 SWAP1 PUSH2 0x1812 JUMP JUMPDEST DUP1 ISZERO PUSH2 0xB7E JUMPI DUP1 PUSH1 0x1F LT PUSH2 0xB55 JUMPI PUSH2 0x100 DUP1 DUP4 SLOAD DIV MUL DUP4 MSTORE SWAP2 PUSH1 0x20 ADD SWAP2 PUSH2 0xB7E JUMP JUMPDEST DUP3 ADD SWAP2 SWAP1 PUSH0 MSTORE PUSH1 0x20 PUSH0 KECCAK256 SWAP1 JUMPDEST DUP2 SLOAD DUP2 MSTORE SWAP1 PUSH1 0x1 ADD SWAP1 PUSH1 0x20 ADD DUP1 DUP4 GT PUSH2 0xB61 JUMPI DUP3 SWAP1 SUB PUSH1 0x1F AND DUP3 ADD SWAP2 JUMPDEST POP POP POP POP POP SWAP1 POP SWAP1 JUMP JUMPDEST PUSH1 0x2 PUSH0 SWAP1 SLOAD SWAP1 PUSH2 0x100 EXP SWAP1 DIV PUSH20 0xFFFFFFFFFFFFFFFFFFFFFFFFFFFFFFFFFFFFFFFF AND PUSH20 0xFFFFFFFFFFFFFFFFFFFFFFFFFFFFFFFFFFFFFFFF AND CALLER PUSH20 0xFFFFFFFFFFFFFFFFFFFFFFFFFFFFFFFFFFFFFFFF AND EQ PUSH2 0xBE0 JUMPI PUSH0 DUP1 REVERT JUMPDEST PUSH0 DUP6 MLOAD GT PUSH2 0xBEC JUMPI PUSH0 DUP1 REVERT JUMPDEST PUSH0 DUP5 MLOAD GT PUSH2 0xBF8 JUMPI PUSH0 DUP1 REVERT JUMPDEST PUSH0 DUP4 GT PUSH2 0xC03 JUMPI PUSH0 DUP1 REVERT JUMPDEST SELFBALANCE DUP4 GT ISZERO PUSH2 0xC0F JUMPI PUSH0 DUP1 REVERT JUMPDEST PUSH0 DUP3 GT PUSH2 0xC1A JUMPI PUSH0 DUP1 REVERT JUMPDEST PUSH1 0x4 SLOAD DUP3 GT ISZERO PUSH2 0xC28 JUMPI PUSH0 DUP1 REVERT JUMPDEST PUSH0 PUSH1 0x7 DUP7 PUSH1 0x40 MLOAD PUSH2 0xC39 SWAP2 SWAP1 PUSH2 0x187C JUMP JUMPDEST SWAP1 DUP2 MSTORE PUSH1 0x20 ADD PUSH1 0x40 MLOAD DUP1 SWAP2 SUB SWAP1 KECCAK256 SWAP1 POP DUP6 DUP2 PUSH0 ADD SWAP1 DUP2 PUSH2 0xC59 SWAP2 SWAP1 PUSH2 0x1AA3 JUMP JUMPDEST POP DUP5 DUP2 PUSH1 0x1 ADD SWAP1 DUP2 PUSH2 0xC6B SWAP2 SWAP1 PUSH2 0x1AA3 JUMP JUMPDEST POP DUP4 DUP2 PUSH1 0x2 ADD DUP2 SWAP1 SSTORE POP DUP2 DUP2 PUSH1 0x3 ADD PUSH0 PUSH2 0x100 EXP DUP2 SLOAD DUP2 PUSH20 0xFFFFFFFFFFFFFFFFFFFFFFFFFFFFFFFFFFFFFFFF MUL NOT AND SWAP1 DUP4 PUSH20 0xFFFFFFFFFFFFFFFFFFFFFFFFFFFFFFFFFFFFFFFF AND MUL OR SWAP1 SSTORE POP PUSH0 DUP2 PUSH1 0x4 ADD DUP2 SWAP1 SSTORE POP DUP3 DUP2 PUSH1 0x5 ADD DUP2 SWAP1 SSTORE POP PUSH0 DUP2 PUSH1 0x6 ADD PUSH1 0x1 PUSH2 0x100 EXP DUP2 SLOAD DUP2 PUSH1 0xFF MUL NOT AND SWAP1 DUP4 ISZERO ISZERO MUL OR SWAP1 SSTORE POP PUSH1 0x8 PUSH0 DUP2 SLOAD DUP1 SWAP3 SWAP2 SWAP1 PUSH2 0xCF7 SWAP1 PUSH2 0x18BF JUMP JUMPDEST SWAP2 SWAP1 POP SSTORE POP PUSH0 PUSH1 0x40 MLOAD DUP1 PUSH1 0x60 ADD PUSH1 0x40 MSTORE DUP1 DUP9 DUP2 MSTORE PUSH1 0x20 ADD DUP8 DUP2 MSTORE PUSH1 0x20 ADD DUP7 DUP2 MSTORE POP SWAP1 POP PUSH1 0x6 DUP2 SWAP1 DUP1 PUSH1 0x1 DUP2 SLOAD ADD DUP1 DUP3 SSTORE DUP1 SWAP2 POP POP PUSH1 0x1 SWAP1 SUB SWAP1 PUSH0 MSTORE PUSH1 0x20 PUSH0 KECCAK256 SWAP1 PUSH1 0x3 MUL ADD PUSH0 SWAP1 SWAP2 SWAP1 SWAP2 SWAP1 SWAP2 POP PUSH0 DUP3 ADD MLOAD DUP2 PUSH0 ADD SWAP1 DUP2 PUSH2 0xD56 SWAP2 SWAP1 PUSH2 0x1AA3 JUMP JUMPDEST POP PUSH1 0x20 DUP3 ADD MLOAD DUP2 PUSH1 0x1 ADD SWAP1 DUP2 PUSH2 0xD6C SWAP2 SWAP1 PUSH2 0x1AA3 JUMP JUMPDEST POP PUSH1 0x40 DUP3 ADD MLOAD DUP2 PUSH1 0x2 ADD SSTORE POP POP POP POP POP POP POP POP POP JUMP JUMPDEST PUSH0 PUSH1 0x2 PUSH0 SWAP1 SLOAD SWAP1 PUSH2 0x100 EXP SWAP1 DIV PUSH20 0xFFFFFFFFFFFFFFFFFFFFFFFFFFFFFFFFFFFFFFFF AND SWAP1 POP SWAP1 JUMP JUMPDEST PUSH1 0x5 SLOAD CALLVALUE LT ISZERO PUSH2 0xDB8 JUMPI PUSH0 DUP1 REVERT JUMPDEST PUSH0 PUSH1 0x3 PUSH0 CALLER PUSH20 0xFFFFFFFFFFFFFFFFFFFFFFFFFFFFFFFFFFFFFFFF AND PUSH20 0xFFFFFFFFFFFFFFFFFFFFFFFFFFFFFFFFFFFFFFFF AND DUP2 MSTORE PUSH1 0x20 ADD SWAP1 DUP2 MSTORE PUSH1 0x20 ADD PUSH0 KECCAK256 SLOAD EQ PUSH2 0xE00 JUMPI PUSH0 DUP1 REVERT JUMPDEST CALLVALUE PUSH1 0x3 PUSH0 CALLER PUSH20 0xFFFFFFFFFFFFFFFFFFFFFFFFFFFFFFFFFFFFFFFF AND PUSH20 0xFFFFFFFFFFFFFFFFFFFFFFFFFFFFFFFFFFFFFFFF AND DUP2 MSTORE PUSH1 0x20 ADD SWAP1 DUP2 MSTORE PUSH1 0x20 ADD PUSH0 KECCAK256 DUP2 SWAP1 SSTORE POP PUSH1 0x4 PUSH0 DUP2 SLOAD DUP1 SWAP3 SWAP2 SWAP1 PUSH2 0xE54 SWAP1 PUSH2 0x18BF JUMP JUMPDEST SWAP2 SWAP1 POP SSTORE POP JUMP JUMPDEST PUSH1 0x2 PUSH0 SWAP1 SLOAD SWAP1 PUSH2 0x100 EXP SWAP1 DIV PUSH20 0xFFFFFFFFFFFFFFFFFFFFFFFFFFFFFFFFFFFFFFFF AND PUSH20 0xFFFFFFFFFFFFFFFFFFFFFFFFFFFFFFFFFFFFFFFF AND CALLER PUSH20 0xFFFFFFFFFFFFFFFFFFFFFFFFFFFFFFFFFFFFFFFF AND EQ PUSH2 0xEB3 JUMPI PUSH0 DUP1 REVERT JUMPDEST PUSH0 PUSH1 0x7 DUP3 PUSH1 0x40 MLOAD PUSH2 0xEC4 SWAP2 SWAP1 PUSH2 0x187C JUMP JUMPDEST SWAP1 DUP2 MSTORE PUSH1 0x20 ADD PUSH1 0x40 MLOAD DUP1 SWAP2 SUB SWAP1 KECCAK256 SWAP1 POP PUSH0 DUP2 PUSH0 ADD DUP1 SLOAD PUSH2 0xEE3 SWAP1 PUSH2 0x1812 JUMP JUMPDEST SWAP1 POP GT PUSH2 0xEEE JUMPI PUSH0 DUP1 REVERT JUMPDEST DUP2 MLOAD DUP2 PUSH0 ADD DUP1 SLOAD PUSH2 0xEFE SWAP1 PUSH2 0x1812 JUMP JUMPDEST SWAP1 POP EQ PUSH2 0xF09 JUMPI PUSH0 DUP1 REVERT JUMPDEST DUP1 PUSH1 0x6 ADD PUSH0 SWAP1 SLOAD SWAP1 PUSH2 0x100 EXP SWAP1 DIV PUSH1 0xFF AND DUP1 ISZERO PUSH2 0xF35 JUMPI POP DUP1 PUSH1 0x6 ADD PUSH1 0x1 SWAP1 SLOAD SWAP1 PUSH2 0x100 EXP SWAP1 DIV PUSH1 0xFF AND ISZERO JUMPDEST PUSH2 0xF3D JUMPI PUSH0 DUP1 REVERT JUMPDEST DUP1 PUSH1 0x2 ADD SLOAD SELFBALANCE LT ISZERO PUSH2 0xF4D JUMPI PUSH0 DUP1 REVERT JUMPDEST DUP1 PUSH1 0x3 ADD PUSH0 SWAP1 SLOAD SWAP1 PUSH2 0x100 EXP SWAP1 DIV PUSH20 0xFFFFFFFFFFFFFFFFFFFFFFFFFFFFFFFFFFFFFFFF AND PUSH20 0xFFFFFFFFFFFFFFFFFFFFFFFFFFFFFFFFFFFFFFFF AND PUSH2 0x8FC DUP3 PUSH1 0x2 ADD SLOAD SWAP1 DUP2 ISZERO MUL SWAP1 PUSH1 0x40 MLOAD PUSH0 PUSH1 0x40 MLOAD DUP1 DUP4 SUB DUP2 DUP6 DUP9 DUP9 CALL SWAP4 POP POP POP POP ISZERO DUP1 ISZERO PUSH2 0xFB7 JUMPI RETURNDATASIZE PUSH0 DUP1 RETURNDATACOPY RETURNDATASIZE PUSH0 REVERT JUMPDEST POP PUSH1 0x1 DUP2 PUSH1 0x6 ADD PUSH1 0x1 PUSH2 0x100 EXP DUP2 SLOAD DUP2 PUSH1 0xFF MUL NOT AND SWAP1 DUP4 ISZERO ISZERO MUL OR SWAP1 SSTORE POP POP POP JUMP JUMPDEST PUSH0 PUSH1 0x5 SLOAD SWAP1 POP SWAP1 JUMP JUMPDEST PUSH0 PUSH1 0x4 SLOAD SWAP1 POP SWAP1 JUMP JUMPDEST PUSH1 0x40 MLOAD DUP1 PUSH1 0xE0 ADD PUSH1 0x40 MSTORE DUP1 PUSH0 PUSH20 0xFFFFFFFFFFFFFFFFFFFFFFFFFFFFFFFFFFFFFFFF AND DUP2 MSTORE PUSH1 0x20 ADD PUSH1 0x60 DUP2 MSTORE PUSH1 0x20 ADD PUSH1 0x60 DUP2 MSTORE PUSH1 0x20 ADD PUSH0 DUP2 MSTORE PUSH1 0x20 ADD PUSH0 DUP2 MSTORE PUSH1 0x20 ADD PUSH0 DUP2 MSTORE PUSH1 0x20 ADD PUSH0 DUP2 MSTORE POP SWAP1 JUMP JUMPDEST PUSH0 PUSH1 0x40 MLOAD SWAP1 POP SWAP1 JUMP JUMPDEST PUSH0 DUP1 REVERT JUMPDEST PUSH0 DUP1 REVERT JUMPDEST PUSH0 PUSH20 0xFFFFFFFFFFFFFFFFFFFFFFFFFFFFFFFFFFFFFFFF DUP3 AND SWAP1 POP SWAP2 SWAP1 POP JUMP JUMPDEST PUSH0 PUSH2 0x1073 DUP3 PUSH2 0x104A JUMP JUMPDEST SWAP1 POP SWAP2 SWAP1 POP JUMP JUMPDEST PUSH2 0x1083 DUP2 PUSH2 0x1069 JUMP JUMPDEST DUP2 EQ PUSH2 0x108D JUMPI PUSH0 DUP1 REVERT JUMPDEST POP JUMP JUMPDEST PUSH0 DUP2 CALLDATALOAD SWAP1 POP PUSH2 0x109E DUP2 PUSH2 0x107A JUMP JUMPDEST SWAP3 SWAP2 POP POP JUMP JUMPDEST PUSH0 PUSH1 0x20 DUP3 DUP5 SUB SLT ISZERO PUSH2 0x10B9 JUMPI PUSH2 0x10B8 PUSH2 0x1042 JUMP JUMPDEST JUMPDEST PUSH0 PUSH2 0x10C6 DUP5 DUP3 DUP6 ADD PUSH2 0x1090 JUMP JUMPDEST SWAP2 POP POP SWAP3 SWAP2 POP POP JUMP JUMPDEST PUSH0 DUP2 SWAP1 POP SWAP2 SWAP1 POP JUMP JUMPDEST PUSH2 0x10E1 DUP2 PUSH2 0x10CF JUMP JUMPDEST DUP3 MSTORE POP POP JUMP JUMPDEST PUSH0 PUSH1 0x20 DUP3 ADD SWAP1 POP PUSH2 0x10FA PUSH0 DUP4 ADD DUP5 PUSH2 0x10D8 JUMP JUMPDEST SWAP3 SWAP2 POP POP JUMP JUMPDEST PUSH0 DUP2 MLOAD SWAP1 POP SWAP2 SWAP1 POP JUMP JUMPDEST PUSH0 DUP3 DUP3 MSTORE PUSH1 0x20 DUP3 ADD SWAP1 POP SWAP3 SWAP2 POP POP JUMP JUMPDEST PUSH0 JUMPDEST DUP4 DUP2 LT ISZERO PUSH2 0x1137 JUMPI DUP1 DUP3 ADD MLOAD DUP2 DUP5 ADD MSTORE PUSH1 0x20 DUP2 ADD SWAP1 POP PUSH2 0x111C JUMP JUMPDEST PUSH0 DUP5 DUP5 ADD MSTORE POP POP POP POP JUMP JUMPDEST PUSH0 PUSH1 0x1F NOT PUSH1 0x1F DUP4 ADD AND SWAP1 POP SWAP2 SWAP1 POP JUMP JUMPDEST PUSH0 PUSH2 0x115C DUP3 PUSH2 0x1100 JUMP JUMPDEST PUSH2 0x1166 DUP2 DUP6 PUSH2 0x110A JUMP JUMPDEST SWAP4 POP PUSH2 0x1176 DUP2 DUP6 PUSH1 0x20 DUP7 ADD PUSH2 0x111A JUMP JUMPDEST PUSH2 0x117F DUP2 PUSH2 0x1142 JUMP JUMPDEST DUP5 ADD SWAP2 POP POP SWAP3 SWAP2 POP POP JUMP JUMPDEST PUSH0 PUSH1 0x20 DUP3 ADD SWAP1 POP DUP2 DUP2 SUB PUSH0 DUP4 ADD MSTORE PUSH2 0x11A2 DUP2 DUP5 PUSH2 0x1152 JUMP JUMPDEST SWAP1 POP SWAP3 SWAP2 POP POP JUMP JUMPDEST PUSH0 DUP1 REVERT JUMPDEST PUSH0 DUP1 REVERT JUMPDEST PUSH32 0x4E487B7100000000000000000000000000000000000000000000000000000000 PUSH0 MSTORE PUSH1 0x41 PUSH1 0x4 MSTORE PUSH1 0x24 PUSH0 REVERT JUMPDEST PUSH2 0x11E8 DUP3 PUSH2 0x1142 JUMP JUMPDEST DUP2 ADD DUP2 DUP2 LT PUSH8 0xFFFFFFFFFFFFFFFF DUP3 GT OR ISZERO PUSH2 0x1207 JUMPI PUSH2 0x1206 PUSH2 0x11B2 JUMP JUMPDEST JUMPDEST DUP1 PUSH1 0x40 MSTORE POP POP POP JUMP JUMPDEST PUSH0 PUSH2 0x1219 PUSH2 0x1039 JUMP JUMPDEST SWAP1 POP PUSH2 0x1225 DUP3 DUP3 PUSH2 0x11DF JUMP JUMPDEST SWAP2 SWAP1 POP JUMP JUMPDEST PUSH0 PUSH8 0xFFFFFFFFFFFFFFFF DUP3 GT ISZERO PUSH2 0x1244 JUMPI PUSH2 0x1243 PUSH2 0x11B2 JUMP JUMPDEST JUMPDEST PUSH2 0x124D DUP3 PUSH2 0x1142 JUMP JUMPDEST SWAP1 POP PUSH1 0x20 DUP2 ADD SWAP1 POP SWAP2 SWAP1 POP JUMP JUMPDEST DUP3 DUP2 DUP4 CALLDATACOPY PUSH0 DUP4 DUP4 ADD MSTORE POP POP POP JUMP JUMPDEST PUSH0 PUSH2 0x127A PUSH2 0x1275 DUP5 PUSH2 0x122A JUMP JUMPDEST PUSH2 0x1210 JUMP JUMPDEST SWAP1 POP DUP3 DUP2 MSTORE PUSH1 0x20 DUP2 ADD DUP5 DUP5 DUP5 ADD GT ISZERO PUSH2 0x1296 JUMPI PUSH2 0x1295 PUSH2 0x11AE JUMP JUMPDEST JUMPDEST PUSH2 0x12A1 DUP5 DUP3 DUP6 PUSH2 0x125A JUMP JUMPDEST POP SWAP4 SWAP3 POP POP POP JUMP JUMPDEST PUSH0 DUP3 PUSH1 0x1F DUP4 ADD SLT PUSH2 0x12BD JUMPI PUSH2 0x12BC PUSH2 0x11AA JUMP JUMPDEST JUMPDEST DUP2 CALLDATALOAD PUSH2 0x12CD DUP5 DUP3 PUSH1 0x20 DUP7 ADD PUSH2 0x1268 JUMP JUMPDEST SWAP2 POP POP SWAP3 SWAP2 POP POP JUMP JUMPDEST PUSH0 DUP2 ISZERO ISZERO SWAP1 POP SWAP2 SWAP1 POP JUMP JUMPDEST PUSH2 0x12EA DUP2 PUSH2 0x12D6 JUMP JUMPDEST DUP2 EQ PUSH2 0x12F4 JUMPI PUSH0 DUP1 REVERT JUMPDEST POP JUMP JUMPDEST PUSH0 DUP2 CALLDATALOAD SWAP1 POP PUSH2 0x1305 DUP2 PUSH2 0x12E1 JUMP JUMPDEST SWAP3 SWAP2 POP POP JUMP JUMPDEST PUSH0 DUP1 PUSH1 0x40 DUP4 DUP6 SUB SLT ISZERO PUSH2 0x1321 JUMPI PUSH2 0x1320 PUSH2 0x1042 JUMP JUMPDEST JUMPDEST PUSH0 DUP4 ADD CALLDATALOAD PUSH8 0xFFFFFFFFFFFFFFFF DUP2 GT ISZERO PUSH2 0x133E JUMPI PUSH2 0x133D PUSH2 0x1046 JUMP JUMPDEST JUMPDEST PUSH2 0x134A DUP6 DUP3 DUP7 ADD PUSH2 0x12A9 JUMP JUMPDEST SWAP3 POP POP PUSH1 0x20 PUSH2 0x135B DUP6 DUP3 DUP7 ADD PUSH2 0x12F7 JUMP JUMPDEST SWAP2 POP POP SWAP3 POP SWAP3 SWAP1 POP JUMP JUMPDEST PUSH2 0x136E DUP2 PUSH2 0x1069 JUMP JUMPDEST DUP3 MSTORE POP POP JUMP JUMPDEST PUSH0 DUP3 DUP3 MSTORE PUSH1 0x20 DUP3 ADD SWAP1 POP SWAP3 SWAP2 POP POP JUMP JUMPDEST PUSH0 PUSH2 0x138E DUP3 PUSH2 0x1100 JUMP JUMPDEST PUSH2 0x1398 DUP2 DUP6 PUSH2 0x1374 JUMP JUMPDEST SWAP4 POP PUSH2 0x13A8 DUP2 DUP6 PUSH1 0x20 DUP7 ADD PUSH2 0x111A JUMP JUMPDEST PUSH2 0x13B1 DUP2 PUSH2 0x1142 JUMP JUMPDEST DUP5 ADD SWAP2 POP POP SWAP3 SWAP2 POP POP JUMP JUMPDEST PUSH2 0x13C5 DUP2 PUSH2 0x10CF JUMP JUMPDEST DUP3 MSTORE POP POP JUMP JUMPDEST PUSH0 PUSH1 0xE0 DUP4 ADD PUSH0 DUP4 ADD MLOAD PUSH2 0x13E0 PUSH0 DUP7 ADD DUP3 PUSH2 0x1365 JUMP JUMPDEST POP PUSH1 0x20 DUP4 ADD MLOAD DUP5 DUP3 SUB PUSH1 0x20 DUP7 ADD MSTORE PUSH2 0x13F8 DUP3 DUP3 PUSH2 0x1384 JUMP JUMPDEST SWAP2 POP POP PUSH1 0x40 DUP4 ADD MLOAD DUP5 DUP3 SUB PUSH1 0x40 DUP7 ADD MSTORE PUSH2 0x1412 DUP3 DUP3 PUSH2 0x1384 JUMP JUMPDEST SWAP2 POP POP PUSH1 0x60 DUP4 ADD MLOAD PUSH2 0x1427 PUSH1 0x60 DUP7 ADD DUP3 PUSH2 0x13BC JUMP JUMPDEST POP PUSH1 0x80 DUP4 ADD MLOAD PUSH2 0x143A PUSH1 0x80 DUP7 ADD DUP3 PUSH2 0x13BC JUMP JUMPDEST POP PUSH1 0xA0 DUP4 ADD MLOAD PUSH2 0x144D PUSH1 0xA0 DUP7 ADD DUP3 PUSH2 0x13BC JUMP JUMPDEST POP PUSH1 0xC0 DUP4 ADD MLOAD PUSH2 0x1460 PUSH1 0xC0 DUP7 ADD DUP3 PUSH2 0x13BC JUMP JUMPDEST POP DUP1 SWAP2 POP POP SWAP3 SWAP2 POP POP JUMP JUMPDEST PUSH0 PUSH1 0x20 DUP3 ADD SWAP1 POP DUP2 DUP2 SUB PUSH0 DUP4 ADD MSTORE PUSH2 0x1483 DUP2 DUP5 PUSH2 0x13CB JUMP JUMPDEST SWAP1 POP SWAP3 SWAP2 POP POP JUMP JUMPDEST PUSH0 PUSH1 0x20 DUP3 DUP5 SUB SLT ISZERO PUSH2 0x14A0 JUMPI PUSH2 0x149F PUSH2 0x1042 JUMP JUMPDEST JUMPDEST PUSH0 DUP3 ADD CALLDATALOAD PUSH8 0xFFFFFFFFFFFFFFFF DUP2 GT ISZERO PUSH2 0x14BD JUMPI PUSH2 0x14BC PUSH2 0x1046 JUMP JUMPDEST JUMPDEST PUSH2 0x14C9 DUP5 DUP3 DUP6 ADD PUSH2 0x12A9 JUMP JUMPDEST SWAP2 POP POP SWAP3 SWAP2 POP POP JUMP JUMPDEST PUSH0 PUSH2 0x14DC DUP3 PUSH2 0x104A JUMP JUMPDEST SWAP1 POP SWAP2 SWAP1 POP JUMP JUMPDEST PUSH2 0x14EC DUP2 PUSH2 0x14D2 JUMP JUMPDEST DUP3 MSTORE POP POP JUMP JUMPDEST PUSH2 0x14FB DUP2 PUSH2 0x12D6 JUMP JUMPDEST DUP3 MSTORE POP POP JUMP JUMPDEST PUSH0 PUSH2 0x100 DUP3 ADD SWAP1 POP DUP2 DUP2 SUB PUSH0 DUP4 ADD MSTORE PUSH2 0x151A DUP2 DUP12 PUSH2 0x1152 JUMP JUMPDEST SWAP1 POP DUP2 DUP2 SUB PUSH1 0x20 DUP4 ADD MSTORE PUSH2 0x152E DUP2 DUP11 PUSH2 0x1152 JUMP JUMPDEST SWAP1 POP PUSH2 0x153D PUSH1 0x40 DUP4 ADD DUP10 PUSH2 0x10D8 JUMP JUMPDEST PUSH2 0x154A PUSH1 0x60 DUP4 ADD DUP9 PUSH2 0x14E3 JUMP JUMPDEST PUSH2 0x1557 PUSH1 0x80 DUP4 ADD DUP8 PUSH2 0x10D8 JUMP JUMPDEST PUSH2 0x1564 PUSH1 0xA0 DUP4 ADD DUP7 PUSH2 0x10D8 JUMP JUMPDEST PUSH2 0x1571 PUSH1 0xC0 DUP4 ADD DUP6 PUSH2 0x14F2 JUMP JUMPDEST PUSH2 0x157E PUSH1 0xE0 DUP4 ADD DUP5 PUSH2 0x14F2 JUMP JUMPDEST SWAP10 SWAP9 POP POP POP POP POP POP POP POP POP JUMP JUMPDEST PUSH0 DUP2 MLOAD SWAP1 POP SWAP2 SWAP1 POP JUMP JUMPDEST PUSH0 DUP3 DUP3 MSTORE PUSH1 0x20 DUP3 ADD SWAP1 POP SWAP3 SWAP2 POP POP JUMP JUMPDEST PUSH0 DUP2 SWAP1 POP PUSH1 0x20 DUP3 ADD SWAP1 POP SWAP2 SWAP1 POP JUMP JUMPDEST PUSH0 PUSH1 0x60 DUP4 ADD PUSH0 DUP4 ADD MLOAD DUP5 DUP3 SUB PUSH0 DUP7 ADD MSTORE PUSH2 0x15CE DUP3 DUP3 PUSH2 0x1384 JUMP JUMPDEST SWAP2 POP POP PUSH1 0x20 DUP4 ADD MLOAD DUP5 DUP3 SUB PUSH1 0x20 DUP7 ADD MSTORE PUSH2 0x15E8 DUP3 DUP3 PUSH2 0x1384 JUMP JUMPDEST SWAP2 POP POP PUSH1 0x40 DUP4 ADD MLOAD PUSH2 0x15FD PUSH1 0x40 DUP7 ADD DUP3 PUSH2 0x13BC JUMP JUMPDEST POP DUP1 SWAP2 POP POP SWAP3 SWAP2 POP POP JUMP JUMPDEST PUSH0 PUSH2 0x1613 DUP4 DUP4 PUSH2 0x15B4 JUMP JUMPDEST SWAP1 POP SWAP3 SWAP2 POP POP JUMP JUMPDEST PUSH0 PUSH1 0x20 DUP3 ADD SWAP1 POP SWAP2 SWAP1 POP JUMP JUMPDEST PUSH0 PUSH2 0x1631 DUP3 PUSH2 0x158B JUMP JUMPDEST PUSH2 0x163B DUP2 DUP6 PUSH2 0x1595 JUMP JUMPDEST SWAP4 POP DUP4 PUSH1 0x20 DUP3 MUL DUP6 ADD PUSH2 0x164D DUP6 PUSH2 0x15A5 JUMP JUMPDEST DUP1 PUSH0 JUMPDEST DUP6 DUP2 LT ISZERO PUSH2 0x1688 JUMPI DUP5 DUP5 SUB DUP10 MSTORE DUP2 MLOAD PUSH2 0x1669 DUP6 DUP3 PUSH2 0x1608 JUMP JUMPDEST SWAP5 POP PUSH2 0x1674 DUP4 PUSH2 0x161B JUMP JUMPDEST SWAP3 POP PUSH1 0x20 DUP11 ADD SWAP10 POP POP PUSH1 0x1 DUP2 ADD SWAP1 POP PUSH2 0x1650 JUMP JUMPDEST POP DUP3 SWAP8 POP DUP8 SWAP6 POP POP POP POP POP POP SWAP3 SWAP2 POP POP JUMP JUMPDEST PUSH0 PUSH1 0x20 DUP3 ADD SWAP1 POP DUP2 DUP2 SUB PUSH0 DUP4 ADD MSTORE PUSH2 0x16B2 DUP2 DUP5 PUSH2 0x1627 JUMP JUMPDEST SWAP1 POP SWAP3 SWAP2 POP POP JUMP JUMPDEST PUSH2 0x16C3 DUP2 PUSH2 0x10CF JUMP JUMPDEST DUP2 EQ PUSH2 0x16CD JUMPI PUSH0 DUP1 REVERT JUMPDEST POP JUMP JUMPDEST PUSH0 DUP2 CALLDATALOAD SWAP1 POP PUSH2 0x16DE DUP2 PUSH2 0x16BA JUMP JUMPDEST SWAP3 SWAP2 POP POP JUMP JUMPDEST PUSH2 0x16ED DUP2 PUSH2 0x14D2 JUMP JUMPDEST DUP2 EQ PUSH2 0x16F7 JUMPI PUSH0 DUP1 REVERT JUMPDEST POP JUMP JUMPDEST PUSH0 DUP2 CALLDATALOAD SWAP1 POP PUSH2 0x1708 DUP2 PUSH2 0x16E4 JUMP JUMPDEST SWAP3 SWAP2 POP POP JUMP JUMPDEST PUSH0 DUP1 PUSH0 DUP1 PUSH0 PUSH1 0xA0 DUP7 DUP9 SUB SLT ISZERO PUSH2 0x1727 JUMPI PUSH2 0x1726 PUSH2 0x1042 JUMP JUMPDEST JUMPDEST PUSH0 DUP7 ADD CALLDATALOAD PUSH8 0xFFFFFFFFFFFFFFFF DUP2 GT ISZERO PUSH2 0x1744 JUMPI PUSH2 0x1743 PUSH2 0x1046 JUMP JUMPDEST JUMPDEST PUSH2 0x1750 DUP9 DUP3 DUP10 ADD PUSH2 0x12A9 JUMP JUMPDEST SWAP6 POP POP PUSH1 0x20 DUP7 ADD CALLDATALOAD PUSH8 0xFFFFFFFFFFFFFFFF DUP2 GT ISZERO PUSH2 0x1771 JUMPI PUSH2 0x1770 PUSH2 0x1046 JUMP JUMPDEST JUMPDEST PUSH2 0x177D DUP9 DUP3 DUP10 ADD PUSH2 0x12A9 JUMP JUMPDEST SWAP5 POP POP PUSH1 0x40 PUSH2 0x178E DUP9 DUP3 DUP10 ADD PUSH2 0x16D0 JUMP JUMPDEST SWAP4 POP POP PUSH1 0x60 PUSH2 0x179F DUP9 DUP3 DUP10 ADD PUSH2 0x16D0 JUMP JUMPDEST SWAP3 POP POP PUSH1 0x80 PUSH2 0x17B0 DUP9 DUP3 DUP10 ADD PUSH2 0x16FA JUMP JUMPDEST SWAP2 POP POP SWAP3 SWAP6 POP SWAP3 SWAP6 SWAP1 SWAP4 POP JUMP JUMPDEST PUSH2 0x17C6 DUP2 PUSH2 0x1069 JUMP JUMPDEST DUP3 MSTORE POP POP JUMP JUMPDEST PUSH0 PUSH1 0x20 DUP3 ADD SWAP1 POP PUSH2 0x17DF PUSH0 DUP4 ADD DUP5 PUSH2 0x17BD JUMP JUMPDEST SWAP3 SWAP2 POP POP JUMP JUMPDEST PUSH32 0x4E487B7100000000000000000000000000000000000000000000000000000000 PUSH0 MSTORE PUSH1 0x22 PUSH1 0x4 MSTORE PUSH1 0x24 PUSH0 REVERT JUMPDEST PUSH0 PUSH1 0x2 DUP3 DIV SWAP1 POP PUSH1 0x1 DUP3 AND DUP1 PUSH2 0x1829 JUMPI PUSH1 0x7F DUP3 AND SWAP2 POP JUMPDEST PUSH1 0x20 DUP3 LT DUP2 SUB PUSH2 0x183C JUMPI PUSH2 0x183B PUSH2 0x17E5 JUMP JUMPDEST JUMPDEST POP SWAP2 SWAP1 POP JUMP JUMPDEST PUSH0 DUP2 SWAP1 POP SWAP3 SWAP2 POP POP JUMP JUMPDEST PUSH0 PUSH2 0x1856 DUP3 PUSH2 0x1100 JUMP JUMPDEST PUSH2 0x1860 DUP2 DUP6 PUSH2 0x1842 JUMP JUMPDEST SWAP4 POP PUSH2 0x1870 DUP2 DUP6 PUSH1 0x20 DUP7 ADD PUSH2 0x111A JUMP JUMPDEST DUP1 DUP5 ADD SWAP2 POP POP SWAP3 SWAP2 POP POP JUMP JUMPDEST PUSH0 PUSH2 0x1887 DUP3 DUP5 PUSH2 0x184C JUMP JUMPDEST SWAP2 POP DUP2 SWAP1 POP SWAP3 SWAP2 POP POP JUMP JUMPDEST PUSH32 0x4E487B7100000000000000000000000000000000000000000000000000000000 PUSH0 MSTORE PUSH1 0x11 PUSH1 0x4 MSTORE PUSH1 0x24 PUSH0 REVERT JUMPDEST PUSH0 PUSH2 0x18C9 DUP3 PUSH2 0x10CF JUMP JUMPDEST SWAP2 POP PUSH32 0xFFFFFFFFFFFFFFFFFFFFFFFFFFFFFFFFFFFFFFFFFFFFFFFFFFFFFFFFFFFFFFFF DUP3 SUB PUSH2 0x18FB JUMPI PUSH2 0x18FA PUSH2 0x1892 JUMP JUMPDEST JUMPDEST PUSH1 0x1 DUP3 ADD SWAP1 POP SWAP2 SWAP1 POP JUMP JUMPDEST PUSH0 DUP2 SWAP1 POP DUP2 PUSH0 MSTORE PUSH1 0x20 PUSH0 KECCAK256 SWAP1 POP SWAP2 SWAP1 POP JUMP JUMPDEST PUSH0 PUSH1 0x20 PUSH1 0x1F DUP4 ADD DIV SWAP1 POP SWAP2 SWAP1 POP JUMP JUMPDEST PUSH0 DUP3 DUP3 SHL SWAP1 POP SWAP3 SWAP2 POP POP JUMP JUMPDEST PUSH0 PUSH1 0x8 DUP4 MUL PUSH2 0x1962 PUSH32 0xFFFFFFFFFFFFFFFFFFFFFFFFFFFFFFFFFFFFFFFFFFFFFFFFFFFFFFFFFFFFFFFF DUP3 PUSH2 0x1927 JUMP JUMPDEST PUSH2 0x196C DUP7 DUP4 PUSH2 0x1927 JUMP JUMPDEST SWAP6 POP DUP1 NOT DUP5 AND SWAP4 POP DUP1 DUP7 AND DUP5 OR SWAP3 POP POP POP SWAP4 SWAP3 POP POP POP JUMP JUMPDEST PUSH0 DUP2 SWAP1 POP SWAP2 SWAP1 POP JUMP JUMPDEST PUSH0 PUSH2 0x19A7 PUSH2 0x19A2 PUSH2 0x199D DUP5 PUSH2 0x10CF JUMP JUMPDEST PUSH2 0x1984 JUMP JUMPDEST PUSH2 0x10CF JUMP JUMPDEST SWAP1 POP SWAP2 SWAP1 POP JUMP JUMPDEST PUSH0 DUP2 SWAP1 POP SWAP2 SWAP1 POP JUMP JUMPDEST PUSH2 0x19C0 DUP4 PUSH2 0x198D JUMP JUMPDEST PUSH2 0x19D4 PUSH2 0x19CC DUP3 PUSH2 0x19AE JUMP JUMPDEST DUP5 DUP5 SLOAD PUSH2 0x1933 JUMP JUMPDEST DUP3 SSTORE POP POP POP POP JUMP JUMPDEST PUSH0 SWAP1 JUMP JUMPDEST PUSH2 0x19E8 PUSH2 0x19DC JUMP JUMPDEST PUSH2 0x19F3 DUP2 DUP5 DUP5 PUSH2 0x19B7 JUMP JUMPDEST POP POP POP JUMP JUMPDEST JUMPDEST DUP2 DUP2 LT ISZERO PUSH2 0x1A16 JUMPI PUSH2 0x1A0B PUSH0 DUP3 PUSH2 0x19E0 JUMP JUMPDEST PUSH1 0x1 DUP2 ADD SWAP1 POP PUSH2 0x19F9 JUMP JUMPDEST POP POP JUMP JUMPDEST PUSH1 0x1F DUP3 GT ISZERO PUSH2 0x1A5B JUMPI PUSH2 0x1A2C DUP2 PUSH2 0x1906 JUMP JUMPDEST PUSH2 0x1A35 DUP5 PUSH2 0x1918 JUMP JUMPDEST DUP2 ADD PUSH1 0x20 DUP6 LT ISZERO PUSH2 0x1A44 JUMPI DUP2 SWAP1 POP JUMPDEST PUSH2 0x1A58 PUSH2 0x1A50 DUP6 PUSH2 0x1918 JUMP JUMPDEST DUP4 ADD DUP3 PUSH2 0x19F8 JUMP JUMPDEST POP POP JUMPDEST POP POP POP JUMP JUMPDEST PUSH0 DUP3 DUP3 SHR SWAP1 POP SWAP3 SWAP2 POP POP JUMP JUMPDEST PUSH0 PUSH2 0x1A7B PUSH0 NOT DUP5 PUSH1 0x8 MUL PUSH2 0x1A60 JUMP JUMPDEST NOT DUP1 DUP4 AND SWAP2 POP POP SWAP3 SWAP2 POP POP JUMP JUMPDEST PUSH0 PUSH2 0x1A93 DUP4 DUP4 PUSH2 0x1A6C JUMP JUMPDEST SWAP2 POP DUP3 PUSH1 0x2 MUL DUP3 OR SWAP1 POP SWAP3 SWAP2 POP POP JUMP JUMPDEST PUSH2 0x1AAC DUP3 PUSH2 0x1100 JUMP JUMPDEST PUSH8 0xFFFFFFFFFFFFFFFF DUP2 GT ISZERO PUSH2 0x1AC5 JUMPI PUSH2 0x1AC4 PUSH2 0x11B2 JUMP JUMPDEST JUMPDEST PUSH2 0x1ACF DUP3 SLOAD PUSH2 0x1812 JUMP JUMPDEST PUSH2 0x1ADA DUP3 DUP3 DUP6 PUSH2 0x1A1A JUMP JUMPDEST PUSH0 PUSH1 0x20 SWAP1 POP PUSH1 0x1F DUP4 GT PUSH1 0x1 DUP2 EQ PUSH2 0x1B0B JUMPI PUSH0 DUP5 ISZERO PUSH2 0x1AF9 JUMPI DUP3 DUP8 ADD MLOAD SWAP1 POP JUMPDEST PUSH2 0x1B03 DUP6 DUP3 PUSH2 0x1A88 JUMP JUMPDEST DUP7 SSTORE POP PUSH2 0x1B6A JUMP JUMPDEST PUSH1 0x1F NOT DUP5 AND PUSH2 0x1B19 DUP7 PUSH2 0x1906 JUMP JUMPDEST PUSH0 JUMPDEST DUP3 DUP2 LT ISZERO PUSH2 0x1B40 JUMPI DUP5 DUP10 ADD MLOAD DUP3 SSTORE PUSH1 0x1 DUP3 ADD SWAP2 POP PUSH1 0x20 DUP6 ADD SWAP5 POP PUSH1 0x20 DUP2 ADD SWAP1 POP PUSH2 0x1B1B JUMP JUMPDEST DUP7 DUP4 LT ISZERO PUSH2 0x1B5D JUMPI DUP5 DUP10 ADD MLOAD PUSH2 0x1B59 PUSH1 0x1F DUP10 AND DUP3 PUSH2 0x1A6C JUMP JUMPDEST DUP4 SSTORE POP JUMPDEST PUSH1 0x1 PUSH1 0x2 DUP9 MUL ADD DUP9 SSTORE POP POP POP JUMPDEST POP POP POP POP POP POP JUMP INVALID LOG2 PUSH5 0x6970667358 0x22 SLT KECCAK256 PUSH18 0xDC85CFC4F79B0F58773147D12ADFAC208216 0xC1 BLOBBASEFEE 0xB5 0xC7 0xC5 0xB5 PUSH18 0x58A2D28C071264736F6C63430008180033A2 PUSH5 0x6970667358 0x22 SLT KECCAK256 SWAP7 MSIZE SWAP8 KECCAK256 0xB9 COINBASE DUP3 MLOAD ADDMOD SLT OR PUSH6 0x8A47D664AFC7 RETURNDATASIZE SWAP8 0xD6 PREVRANDAO TLOAD 0xC9 PUSH22 0xA2CD614024832864736F6C6343000818003300000000 "},"gasEstimates":{"creation":{"codeDepositCost":"2481800","executionCost":"26936","totalCost":"2508736"},"external":{"createCampaign(string,string,uint256)":"infinite","getCampaigns()":"infinite","getCreatorAddress()":"2515","getDeployedCampaigns()":"infinite"}},"methodIdentifiers":{"createCampaign(string,string,uint256)":"ffa56a57","getCampaigns()":"a6b03633","getCreatorAddress()":"94d2d7a7","getDeployedCampaigns()":"4acb9d4f"}},"storageLayout":{"storage":[{"astId":11,"contract":"Campaign.sol:CampaignFactory","label":"_deployedCampaigns","offset":0,"slot":"0","type":"t_array(t_address)dyn_storage"},{"astId":13,"contract":"Campaign.sol:CampaignFactory","label":"_creator","offset":0,"slot":"1","type":"t_address"},{"astId":17,"contract":"Campaign.sol:CampaignFactory","label":"_campaigns","offset":0,"slot":"2","type":"t_array(t_struct(CampaignInfo)8_storage)dyn_storage"}],"types":{"t_address":{"encoding":"inplace","label":"address","numberOfBytes":"20"},"t_array(t_address)dyn_storage":{"base":"t_address","encoding":"dynamic_array","label":"address[]","numberOfBytes":"32"},"t_array(t_struct(CampaignInfo)8_storage)dyn_storage":{"base":"t_struct(CampaignInfo)8_storage","encoding":"dynamic_array","label":"struct CampaignFactory.CampaignInfo[]","numberOfBytes":"32"},"t_string_storage":{"encoding":"bytes","label":"string","numberOfBytes":"32"},"t_struct(CampaignInfo)8_storage":{"encoding":"inplace","label":"struct CampaignFactory.CampaignInfo","members":[{"astId":3,"contract":"Campaign.sol:CampaignFactory","label":"creatorAddress","offset":0,"slot":"0","type":"t_address"},{"astId":5,"contract":"Campaign.sol:CampaignFactory","label":"name","offset":0,"slot":"1","type":"t_string_storage"},{"astId":7,"contract":"Campaign.sol:CampaignFactory","label":"campaignAddress","offset":0,"slot":"2","type":"t_address"}],"numberOfBytes":"96"}}},"userdoc":{"kind":"user","methods":{},"version":1}}