{"abi":[{"inputs":[{"internalType":"string","name":"name","type":"string"},{"internalType":"string","name":"description","type":"string"},{"internalType":"uint256","name":"minimum","type":"uint256"},{"internalType":"address","name":"mngr","type":"address"}],"stateMutability":"nonpayable","type":"constructor"},{"inputs":[],"name":"addFunds","outputs":[],"stateMutability":"payable","type":"function"},{"inputs":[{"internalType":"address","name":"","type":"address"}],"name":"approvers","outputs":[{"internalType":"uint256","name":"","type":"uint256"}],"stateMutability":"view","type":"function"},{"inputs":[],"name":"contribute","outputs":[],"stateMutability":"payable","type":"function"},{"inputs":[],"name":"getCampaignName","outputs":[{"internalType":"string","name":"","type":"string"}],"stateMutability":"view","type":"function"},{"inputs":[],"name":"getContractBalance","outputs":[{"internalType":"uint256","name":"","type":"uint256"}],"stateMutability":"view","type":"function"},{"inputs":[],"name":"getContributorsCount","outputs":[{"internalType":"uint256","name":"","type":"uint256"}],"stateMutability":"view","type":"function"},{"inputs":[],"name":"getDescription","outputs":[{"internalType":"string","name":"","type":"string"}],"stateMutability":"view","type":"function"},{"inputs":[],"name":"getManager","outputs":[{"internalType":"address","name":"","type":"address"}],"stateMutability":"view","type":"function"},{"inputs":[],"name":"getMinimumContribution","outputs":[{"internalType":"uint256","name":"","type":"uint256"}],"stateMutability":"view","type":"function"},{"inputs":[],"name":"getRequests","outputs":[{"components":[{"internalType":"string","name":"name","type":"string"},{"internalType":"string","name":"description","type":"string"},{"internalType":"uint256","name":"amount","type":"uint256"}],"internalType":"struct Campaign.RequestSummary[]","name":"","type":"tuple[]"}],"stateMutability":"view","type":"function"},{"inputs":[],"name":"getRequestsCount","outputs":[{"internalType":"uint256","name":"","type":"uint256"}],"stateMutability":"view","type":"function"},{"inputs":[],"name":"getSummary","outputs":[{"components":[{"internalType":"address","name":"manager","type":"address"},{"internalType":"string","name":"name","type":"string"},{"internalType":"string","name":"description","type":"string"},{"internalType":"uint256","name":"minContribution","type":"uint256"},{"internalType":"uint256","name":"balance","type":"uint256"},{"internalType":"uint256","name":"contributors","type":"uint256"},{"internalType":"uint256","name":"totalRequests","type":"uint256"}],"internalType":"struct Campaign.Summary","name":"","type":"tuple"}],"stateMutability":"view","type":"function"},{"inputs":[{"internalType":"string","name":"","type":"string"}],"name":"requests","outputs":[{"internalType":"string","name":"name","type":"string"},{"internalType":"string","name":"description","type":"string"},{"internalType":"uint256","name":"amount","type":"uint256"},{"internalType":"address payable","name":"receiver","type":"address"},{"internalType":"uint256","name":"approvalsCount","type":"uint256"},{"internalType":"uint256","name":"requiredApprovals","type":"uint256"},{"internalType":"bool","name":"canSubmit","type":"bool"},{"internalType":"bool","name":"complete","type":"bool"}],"stateMutability":"view","type":"function"},{"inputs":[{"internalType":"string","name":"reqName","type":"string"}],"name":"submitRequest","outputs":[],"stateMutability":"nonpayable","type":"function"},{"inputs":[{"internalType":"string","name":"name","type":"string"},{"internalType":"string","name":"description","type":"string"},{"internalType":"uint256","name":"amount","type":"uint256"},{"internalType":"uint256","name":"requiredApprovals","type":"uint256"},{"internalType":"address payable","name":"receiver","type":"address"}],"name":"triggerCampaignRequest","outputs":[],"stateMutability":"nonpayable","type":"function"},{"inputs":[{"internalType":"string","name":"reqName","type":"string"},{"internalType":"bool","name":"isApproval","type":"bool"}],"name":"voteRequest","outputs":[],"stateMutability":"nonpayable","type":"function"}],"devdoc":{"kind":"dev","methods":{},"version":1},"evm":{"assembly":"    /* \"Campaign.sol\":1142:6121  contract Campaign... */\n  mstore(0x40, 0x80)\n    /* \"Campaign.sol\":2095:2348  constructor (string memory name, string memory description, uint minimum, address mngr)... */\n  callvalue\n  dup1\n  iszero\n  tag_1\n  jumpi\n  0x00\n  dup1\n  revert\ntag_1:\n  pop\n  mload(0x40)\n  sub(codesize, bytecodeSize)\n  dup1\n  bytecodeSize\n  dup4\n  codecopy\n  dup2\n  dup2\n  add\n  0x40\n  mstore\n  dup2\n  add\n  swap1\n  tag_2\n  swap2\n  swap1\n  tag_3\n  jump\t// in\ntag_2:\n    /* \"Campaign.sol\":2215:2216  0 */\n  0x00\n    /* \"Campaign.sol\":2205:2212  minimum */\n  dup3\n    /* \"Campaign.sol\":2205:2216  minimum > 0 */\n  gt\n    /* \"Campaign.sol\":2197:2217  require(minimum > 0) */\n  tag_6\n  jumpi\n  0x00\n  dup1\n  revert\ntag_6:\n    /* \"Campaign.sol\":2238:2242  mngr */\n  dup1\n    /* \"Campaign.sol\":2227:2235  _manager */\n  0x02\n  0x00\n    /* \"Campaign.sol\":2227:2242  _manager = mngr */\n  0x0100\n  exp\n  dup2\n  sload\n  dup2\n  0xffffffffffffffffffffffffffffffffffffffff\n  mul\n  not\n  and\n  swap1\n  dup4\n  0xffffffffffffffffffffffffffffffffffffffff\n  and\n  mul\n  or\n  swap1\n  sstore\n  pop\n    /* \"Campaign.sol\":2260:2264  name */\n  dup4\n    /* \"Campaign.sol\":2252:2257  _name */\n  0x00\n    /* \"Campaign.sol\":2252:2264  _name = name */\n  swap1\n  dup2\n  tag_7\n  swap2\n  swap1\n  tag_8\n  jump\t// in\ntag_7:\n  pop\n    /* \"Campaign.sol\":2289:2300  description */\n  dup3\n    /* \"Campaign.sol\":2274:2286  _description */\n  0x01\n    /* \"Campaign.sol\":2274:2300  _description = description */\n  swap1\n  dup2\n  tag_9\n  swap2\n  swap1\n  tag_8\n  jump\t// in\ntag_9:\n  pop\n    /* \"Campaign.sol\":2334:2341  minimum */\n  dup2\n    /* \"Campaign.sol\":2311:2331  _minimumContribution */\n  0x05\n    /* \"Campaign.sol\":2311:2341  _minimumContribution = minimum */\n  dup2\n  swap1\n  sstore\n  pop\n    /* \"Campaign.sol\":2095:2348  constructor (string memory name, string memory description, uint minimum, address mngr)... */\n  pop\n  pop\n  pop\n  pop\n    /* \"Campaign.sol\":1142:6121  contract Campaign... */\n  jump(tag_10)\n    /* \"#utility.yul\":7:82   */\ntag_11:\n    /* \"#utility.yul\":40:46   */\n  0x00\n    /* \"#utility.yul\":73:75   */\n  0x40\n    /* \"#utility.yul\":67:76   */\n  mload\n    /* \"#utility.yul\":57:76   */\n  swap1\n  pop\n    /* \"#utility.yul\":7:82   */\n  swap1\n  jump\t// out\n    /* \"#utility.yul\":88:205   */\ntag_12:\n    /* \"#utility.yul\":197:198   */\n  0x00\n    /* \"#utility.yul\":194:195   */\n  dup1\n    /* \"#utility.yul\":187:199   */\n  revert\n    /* \"#utility.yul\":211:328   */\ntag_13:\n    /* \"#utility.yul\":320:321   */\n  0x00\n    /* \"#utility.yul\":317:318   */\n  dup1\n    /* \"#utility.yul\":310:322   */\n  revert\n    /* \"#utility.yul\":334:451   */\ntag_14:\n    /* \"#utility.yul\":443:444   */\n  0x00\n    /* \"#utility.yul\":440:441   */\n  dup1\n    /* \"#utility.yul\":433:445   */\n  revert\n    /* \"#utility.yul\":457:574   */\ntag_15:\n    /* \"#utility.yul\":566:567   */\n  0x00\n    /* \"#utility.yul\":563:564   */\n  dup1\n    /* \"#utility.yul\":556:568   */\n  revert\n    /* \"#utility.yul\":580:682   */\ntag_16:\n    /* \"#utility.yul\":621:627   */\n  0x00\n    /* \"#utility.yul\":672:674   */\n  0x1f\n    /* \"#utility.yul\":668:675   */\n  not\n    /* \"#utility.yul\":663:665   */\n  0x1f\n    /* \"#utility.yul\":656:661   */\n  dup4\n    /* \"#utility.yul\":652:666   */\n  add\n    /* \"#utility.yul\":648:676   */\n  and\n    /* \"#utility.yul\":638:676   */\n  swap1\n  pop\n    /* \"#utility.yul\":580:682   */\n  swap2\n  swap1\n  pop\n  jump\t// out\n    /* \"#utility.yul\":688:868   */\ntag_17:\n    /* \"#utility.yul\":736:813   */\n  0x4e487b7100000000000000000000000000000000000000000000000000000000\n    /* \"#utility.yul\":733:734   */\n  0x00\n    /* \"#utility.yul\":726:814   */\n  mstore\n    /* \"#utility.yul\":833:837   */\n  0x41\n    /* \"#utility.yul\":830:831   */\n  0x04\n    /* \"#utility.yul\":823:838   */\n  mstore\n    /* \"#utility.yul\":857:861   */\n  0x24\n    /* \"#utility.yul\":854:855   */\n  0x00\n    /* \"#utility.yul\":847:862   */\n  revert\n    /* \"#utility.yul\":874:1155   */\ntag_18:\n    /* \"#utility.yul\":957:984   */\n  tag_58\n    /* \"#utility.yul\":979:983   */\n  dup3\n    /* \"#utility.yul\":957:984   */\n  tag_16\n  jump\t// in\ntag_58:\n    /* \"#utility.yul\":949:955   */\n  dup2\n    /* \"#utility.yul\":945:985   */\n  add\n    /* \"#utility.yul\":1087:1093   */\n  dup2\n    /* \"#utility.yul\":1075:1085   */\n  dup2\n    /* \"#utility.yul\":1072:1094   */\n  lt\n    /* \"#utility.yul\":1051:1069   */\n  0xffffffffffffffff\n    /* \"#utility.yul\":1039:1049   */\n  dup3\n    /* \"#utility.yul\":1036:1070   */\n  gt\n    /* \"#utility.yul\":1033:1095   */\n  or\n    /* \"#utility.yul\":1030:1118   */\n  iszero\n  tag_59\n  jumpi\n    /* \"#utility.yul\":1098:1116   */\n  tag_60\n  tag_17\n  jump\t// in\ntag_60:\n    /* \"#utility.yul\":1030:1118   */\ntag_59:\n    /* \"#utility.yul\":1138:1148   */\n  dup1\n    /* \"#utility.yul\":1134:1136   */\n  0x40\n    /* \"#utility.yul\":1127:1149   */\n  mstore\n    /* \"#utility.yul\":917:1155   */\n  pop\n    /* \"#utility.yul\":874:1155   */\n  pop\n  pop\n  jump\t// out\n    /* \"#utility.yul\":1161:1290   */\ntag_19:\n    /* \"#utility.yul\":1195:1201   */\n  0x00\n    /* \"#utility.yul\":1222:1242   */\n  tag_62\n  tag_11\n  jump\t// in\ntag_62:\n    /* \"#utility.yul\":1212:1242   */\n  swap1\n  pop\n    /* \"#utility.yul\":1251:1284   */\n  tag_63\n    /* \"#utility.yul\":1279:1283   */\n  dup3\n    /* \"#utility.yul\":1271:1277   */\n  dup3\n    /* \"#utility.yul\":1251:1284   */\n  tag_18\n  jump\t// in\ntag_63:\n    /* \"#utility.yul\":1161:1290   */\n  swap2\n  swap1\n  pop\n  jump\t// out\n    /* \"#utility.yul\":1296:1604   */\ntag_20:\n    /* \"#utility.yul\":1358:1362   */\n  0x00\n    /* \"#utility.yul\":1448:1466   */\n  0xffffffffffffffff\n    /* \"#utility.yul\":1440:1446   */\n  dup3\n    /* \"#utility.yul\":1437:1467   */\n  gt\n    /* \"#utility.yul\":1434:1490   */\n  iszero\n  tag_65\n  jumpi\n    /* \"#utility.yul\":1470:1488   */\n  tag_66\n  tag_17\n  jump\t// in\ntag_66:\n    /* \"#utility.yul\":1434:1490   */\ntag_65:\n    /* \"#utility.yul\":1508:1537   */\n  tag_67\n    /* \"#utility.yul\":1530:1536   */\n  dup3\n    /* \"#utility.yul\":1508:1537   */\n  tag_16\n  jump\t// in\ntag_67:\n    /* \"#utility.yul\":1500:1537   */\n  swap1\n  pop\n    /* \"#utility.yul\":1592:1596   */\n  0x20\n    /* \"#utility.yul\":1586:1590   */\n  dup2\n    /* \"#utility.yul\":1582:1597   */\n  add\n    /* \"#utility.yul\":1574:1597   */\n  swap1\n  pop\n    /* \"#utility.yul\":1296:1604   */\n  swap2\n  swap1\n  pop\n  jump\t// out\n    /* \"#utility.yul\":1610:1856   */\ntag_21:\n    /* \"#utility.yul\":1691:1692   */\n  0x00\n    /* \"#utility.yul\":1701:1814   */\ntag_69:\n    /* \"#utility.yul\":1715:1721   */\n  dup4\n    /* \"#utility.yul\":1712:1713   */\n  dup2\n    /* \"#utility.yul\":1709:1722   */\n  lt\n    /* \"#utility.yul\":1701:1814   */\n  iszero\n  tag_71\n  jumpi\n    /* \"#utility.yul\":1800:1801   */\n  dup1\n    /* \"#utility.yul\":1795:1798   */\n  dup3\n    /* \"#utility.yul\":1791:1802   */\n  add\n    /* \"#utility.yul\":1785:1803   */\n  mload\n    /* \"#utility.yul\":1781:1782   */\n  dup2\n    /* \"#utility.yul\":1776:1779   */\n  dup5\n    /* \"#utility.yul\":1772:1783   */\n  add\n    /* \"#utility.yul\":1765:1804   */\n  mstore\n    /* \"#utility.yul\":1737:1739   */\n  0x20\n    /* \"#utility.yul\":1734:1735   */\n  dup2\n    /* \"#utility.yul\":1730:1740   */\n  add\n    /* \"#utility.yul\":1725:1740   */\n  swap1\n  pop\n    /* \"#utility.yul\":1701:1814   */\n  jump(tag_69)\ntag_71:\n    /* \"#utility.yul\":1848:1849   */\n  0x00\n    /* \"#utility.yul\":1839:1845   */\n  dup5\n    /* \"#utility.yul\":1834:1837   */\n  dup5\n    /* \"#utility.yul\":1830:1846   */\n  add\n    /* \"#utility.yul\":1823:1850   */\n  mstore\n    /* \"#utility.yul\":1672:1856   */\n  pop\n    /* \"#utility.yul\":1610:1856   */\n  pop\n  pop\n  pop\n  jump\t// out\n    /* \"#utility.yul\":1862:2296   */\ntag_22:\n    /* \"#utility.yul\":1951:1956   */\n  0x00\n    /* \"#utility.yul\":1976:2042   */\n  tag_73\n    /* \"#utility.yul\":1992:2041   */\n  tag_74\n    /* \"#utility.yul\":2034:2040   */\n  dup5\n    /* \"#utility.yul\":1992:2041   */\n  tag_20\n  jump\t// in\ntag_74:\n    /* \"#utility.yul\":1976:2042   */\n  tag_19\n  jump\t// in\ntag_73:\n    /* \"#utility.yul\":1967:2042   */\n  swap1\n  pop\n    /* \"#utility.yul\":2065:2071   */\n  dup3\n    /* \"#utility.yul\":2058:2063   */\n  dup2\n    /* \"#utility.yul\":2051:2072   */\n  mstore\n    /* \"#utility.yul\":2103:2107   */\n  0x20\n    /* \"#utility.yul\":2096:2101   */\n  dup2\n    /* \"#utility.yul\":2092:2108   */\n  add\n    /* \"#utility.yul\":2141:2144   */\n  dup5\n    /* \"#utility.yul\":2132:2138   */\n  dup5\n    /* \"#utility.yul\":2127:2130   */\n  dup5\n    /* \"#utility.yul\":2123:2139   */\n  add\n    /* \"#utility.yul\":2120:2145   */\n  gt\n    /* \"#utility.yul\":2117:2229   */\n  iszero\n  tag_75\n  jumpi\n    /* \"#utility.yul\":2148:2227   */\n  tag_76\n  tag_15\n  jump\t// in\ntag_76:\n    /* \"#utility.yul\":2117:2229   */\ntag_75:\n    /* \"#utility.yul\":2238:2290   */\n  tag_77\n    /* \"#utility.yul\":2283:2289   */\n  dup5\n    /* \"#utility.yul\":2278:2281   */\n  dup3\n    /* \"#utility.yul\":2273:2276   */\n  dup6\n    /* \"#utility.yul\":2238:2290   */\n  tag_21\n  jump\t// in\ntag_77:\n    /* \"#utility.yul\":1957:2296   */\n  pop\n    /* \"#utility.yul\":1862:2296   */\n  swap4\n  swap3\n  pop\n  pop\n  pop\n  jump\t// out\n    /* \"#utility.yul\":2316:2671   */\ntag_23:\n    /* \"#utility.yul\":2383:2388   */\n  0x00\n    /* \"#utility.yul\":2432:2435   */\n  dup3\n    /* \"#utility.yul\":2425:2429   */\n  0x1f\n    /* \"#utility.yul\":2417:2423   */\n  dup4\n    /* \"#utility.yul\":2413:2430   */\n  add\n    /* \"#utility.yul\":2409:2436   */\n  slt\n    /* \"#utility.yul\":2399:2521   */\n  tag_79\n  jumpi\n    /* \"#utility.yul\":2440:2519   */\n  tag_80\n  tag_14\n  jump\t// in\ntag_80:\n    /* \"#utility.yul\":2399:2521   */\ntag_79:\n    /* \"#utility.yul\":2550:2556   */\n  dup2\n    /* \"#utility.yul\":2544:2557   */\n  mload\n    /* \"#utility.yul\":2575:2665   */\n  tag_81\n    /* \"#utility.yul\":2661:2664   */\n  dup5\n    /* \"#utility.yul\":2653:2659   */\n  dup3\n    /* \"#utility.yul\":2646:2650   */\n  0x20\n    /* \"#utility.yul\":2638:2644   */\n  dup7\n    /* \"#utility.yul\":2634:2651   */\n  add\n    /* \"#utility.yul\":2575:2665   */\n  tag_22\n  jump\t// in\ntag_81:\n    /* \"#utility.yul\":2566:2665   */\n  swap2\n  pop\n    /* \"#utility.yul\":2389:2671   */\n  pop\n    /* \"#utility.yul\":2316:2671   */\n  swap3\n  swap2\n  pop\n  pop\n  jump\t// out\n    /* \"#utility.yul\":2677:2754   */\ntag_24:\n    /* \"#utility.yul\":2714:2721   */\n  0x00\n    /* \"#utility.yul\":2743:2748   */\n  dup2\n    /* \"#utility.yul\":2732:2748   */\n  swap1\n  pop\n    /* \"#utility.yul\":2677:2754   */\n  swap2\n  swap1\n  pop\n  jump\t// out\n    /* \"#utility.yul\":2760:2882   */\ntag_25:\n    /* \"#utility.yul\":2833:2857   */\n  tag_84\n    /* \"#utility.yul\":2851:2856   */\n  dup2\n    /* \"#utility.yul\":2833:2857   */\n  tag_24\n  jump\t// in\ntag_84:\n    /* \"#utility.yul\":2826:2831   */\n  dup2\n    /* \"#utility.yul\":2823:2858   */\n  eq\n    /* \"#utility.yul\":2813:2876   */\n  tag_85\n  jumpi\n    /* \"#utility.yul\":2872:2873   */\n  0x00\n    /* \"#utility.yul\":2869:2870   */\n  dup1\n    /* \"#utility.yul\":2862:2874   */\n  revert\n    /* \"#utility.yul\":2813:2876   */\ntag_85:\n    /* \"#utility.yul\":2760:2882   */\n  pop\n  jump\t// out\n    /* \"#utility.yul\":2888:3031   */\ntag_26:\n    /* \"#utility.yul\":2945:2950   */\n  0x00\n    /* \"#utility.yul\":2976:2982   */\n  dup2\n    /* \"#utility.yul\":2970:2983   */\n  mload\n    /* \"#utility.yul\":2961:2983   */\n  swap1\n  pop\n    /* \"#utility.yul\":2992:3025   */\n  tag_87\n    /* \"#utility.yul\":3019:3024   */\n  dup2\n    /* \"#utility.yul\":2992:3025   */\n  tag_25\n  jump\t// in\ntag_87:\n    /* \"#utility.yul\":2888:3031   */\n  swap3\n  swap2\n  pop\n  pop\n  jump\t// out\n    /* \"#utility.yul\":3037:3163   */\ntag_27:\n    /* \"#utility.yul\":3074:3081   */\n  0x00\n    /* \"#utility.yul\":3114:3156   */\n  0xffffffffffffffffffffffffffffffffffffffff\n    /* \"#utility.yul\":3107:3112   */\n  dup3\n    /* \"#utility.yul\":3103:3157   */\n  and\n    /* \"#utility.yul\":3092:3157   */\n  swap1\n  pop\n    /* \"#utility.yul\":3037:3163   */\n  swap2\n  swap1\n  pop\n  jump\t// out\n    /* \"#utility.yul\":3169:3265   */\ntag_28:\n    /* \"#utility.yul\":3206:3213   */\n  0x00\n    /* \"#utility.yul\":3235:3259   */\n  tag_90\n    /* \"#utility.yul\":3253:3258   */\n  dup3\n    /* \"#utility.yul\":3235:3259   */\n  tag_27\n  jump\t// in\ntag_90:\n    /* \"#utility.yul\":3224:3259   */\n  swap1\n  pop\n    /* \"#utility.yul\":3169:3265   */\n  swap2\n  swap1\n  pop\n  jump\t// out\n    /* \"#utility.yul\":3271:3393   */\ntag_29:\n    /* \"#utility.yul\":3344:3368   */\n  tag_92\n    /* \"#utility.yul\":3362:3367   */\n  dup2\n    /* \"#utility.yul\":3344:3368   */\n  tag_28\n  jump\t// in\ntag_92:\n    /* \"#utility.yul\":3337:3342   */\n  dup2\n    /* \"#utility.yul\":3334:3369   */\n  eq\n    /* \"#utility.yul\":3324:3387   */\n  tag_93\n  jumpi\n    /* \"#utility.yul\":3383:3384   */\n  0x00\n    /* \"#utility.yul\":3380:3381   */\n  dup1\n    /* \"#utility.yul\":3373:3385   */\n  revert\n    /* \"#utility.yul\":3324:3387   */\ntag_93:\n    /* \"#utility.yul\":3271:3393   */\n  pop\n  jump\t// out\n    /* \"#utility.yul\":3399:3542   */\ntag_30:\n    /* \"#utility.yul\":3456:3461   */\n  0x00\n    /* \"#utility.yul\":3487:3493   */\n  dup2\n    /* \"#utility.yul\":3481:3494   */\n  mload\n    /* \"#utility.yul\":3472:3494   */\n  swap1\n  pop\n    /* \"#utility.yul\":3503:3536   */\n  tag_95\n    /* \"#utility.yul\":3530:3535   */\n  dup2\n    /* \"#utility.yul\":3503:3536   */\n  tag_29\n  jump\t// in\ntag_95:\n    /* \"#utility.yul\":3399:3542   */\n  swap3\n  swap2\n  pop\n  pop\n  jump\t// out\n    /* \"#utility.yul\":3548:4714   */\ntag_3:\n    /* \"#utility.yul\":3665:3671   */\n  0x00\n    /* \"#utility.yul\":3673:3679   */\n  dup1\n    /* \"#utility.yul\":3681:3687   */\n  0x00\n    /* \"#utility.yul\":3689:3695   */\n  dup1\n    /* \"#utility.yul\":3738:3741   */\n  0x80\n    /* \"#utility.yul\":3726:3735   */\n  dup6\n    /* \"#utility.yul\":3717:3724   */\n  dup8\n    /* \"#utility.yul\":3713:3736   */\n  sub\n    /* \"#utility.yul\":3709:3742   */\n  slt\n    /* \"#utility.yul\":3706:3826   */\n  iszero\n  tag_97\n  jumpi\n    /* \"#utility.yul\":3745:3824   */\n  tag_98\n  tag_12\n  jump\t// in\ntag_98:\n    /* \"#utility.yul\":3706:3826   */\ntag_97:\n    /* \"#utility.yul\":3886:3887   */\n  0x00\n    /* \"#utility.yul\":3875:3884   */\n  dup6\n    /* \"#utility.yul\":3871:3888   */\n  add\n    /* \"#utility.yul\":3865:3889   */\n  mload\n    /* \"#utility.yul\":3916:3934   */\n  0xffffffffffffffff\n    /* \"#utility.yul\":3908:3914   */\n  dup2\n    /* \"#utility.yul\":3905:3935   */\n  gt\n    /* \"#utility.yul\":3902:4019   */\n  iszero\n  tag_99\n  jumpi\n    /* \"#utility.yul\":3938:4017   */\n  tag_100\n  tag_13\n  jump\t// in\ntag_100:\n    /* \"#utility.yul\":3902:4019   */\ntag_99:\n    /* \"#utility.yul\":4043:4117   */\n  tag_101\n    /* \"#utility.yul\":4109:4116   */\n  dup8\n    /* \"#utility.yul\":4100:4106   */\n  dup3\n    /* \"#utility.yul\":4089:4098   */\n  dup9\n    /* \"#utility.yul\":4085:4107   */\n  add\n    /* \"#utility.yul\":4043:4117   */\n  tag_23\n  jump\t// in\ntag_101:\n    /* \"#utility.yul\":4033:4117   */\n  swap5\n  pop\n    /* \"#utility.yul\":3836:4127   */\n  pop\n    /* \"#utility.yul\":4187:4189   */\n  0x20\n    /* \"#utility.yul\":4176:4185   */\n  dup6\n    /* \"#utility.yul\":4172:4190   */\n  add\n    /* \"#utility.yul\":4166:4191   */\n  mload\n    /* \"#utility.yul\":4218:4236   */\n  0xffffffffffffffff\n    /* \"#utility.yul\":4210:4216   */\n  dup2\n    /* \"#utility.yul\":4207:4237   */\n  gt\n    /* \"#utility.yul\":4204:4321   */\n  iszero\n  tag_102\n  jumpi\n    /* \"#utility.yul\":4240:4319   */\n  tag_103\n  tag_13\n  jump\t// in\ntag_103:\n    /* \"#utility.yul\":4204:4321   */\ntag_102:\n    /* \"#utility.yul\":4345:4419   */\n  tag_104\n    /* \"#utility.yul\":4411:4418   */\n  dup8\n    /* \"#utility.yul\":4402:4408   */\n  dup3\n    /* \"#utility.yul\":4391:4400   */\n  dup9\n    /* \"#utility.yul\":4387:4409   */\n  add\n    /* \"#utility.yul\":4345:4419   */\n  tag_23\n  jump\t// in\ntag_104:\n    /* \"#utility.yul\":4335:4419   */\n  swap4\n  pop\n    /* \"#utility.yul\":4137:4429   */\n  pop\n    /* \"#utility.yul\":4468:4470   */\n  0x40\n    /* \"#utility.yul\":4494:4558   */\n  tag_105\n    /* \"#utility.yul\":4550:4557   */\n  dup8\n    /* \"#utility.yul\":4541:4547   */\n  dup3\n    /* \"#utility.yul\":4530:4539   */\n  dup9\n    /* \"#utility.yul\":4526:4548   */\n  add\n    /* \"#utility.yul\":4494:4558   */\n  tag_26\n  jump\t// in\ntag_105:\n    /* \"#utility.yul\":4484:4558   */\n  swap3\n  pop\n    /* \"#utility.yul\":4439:4568   */\n  pop\n    /* \"#utility.yul\":4607:4609   */\n  0x60\n    /* \"#utility.yul\":4633:4697   */\n  tag_106\n    /* \"#utility.yul\":4689:4696   */\n  dup8\n    /* \"#utility.yul\":4680:4686   */\n  dup3\n    /* \"#utility.yul\":4669:4678   */\n  dup9\n    /* \"#utility.yul\":4665:4687   */\n  add\n    /* \"#utility.yul\":4633:4697   */\n  tag_30\n  jump\t// in\ntag_106:\n    /* \"#utility.yul\":4623:4697   */\n  swap2\n  pop\n    /* \"#utility.yul\":4578:4707   */\n  pop\n    /* \"#utility.yul\":3548:4714   */\n  swap3\n  swap6\n  swap2\n  swap5\n  pop\n  swap3\n  pop\n  jump\t// out\n    /* \"#utility.yul\":4720:4819   */\ntag_31:\n    /* \"#utility.yul\":4772:4778   */\n  0x00\n    /* \"#utility.yul\":4806:4811   */\n  dup2\n    /* \"#utility.yul\":4800:4812   */\n  mload\n    /* \"#utility.yul\":4790:4812   */\n  swap1\n  pop\n    /* \"#utility.yul\":4720:4819   */\n  swap2\n  swap1\n  pop\n  jump\t// out\n    /* \"#utility.yul\":4825:5005   */\ntag_32:\n    /* \"#utility.yul\":4873:4950   */\n  0x4e487b7100000000000000000000000000000000000000000000000000000000\n    /* \"#utility.yul\":4870:4871   */\n  0x00\n    /* \"#utility.yul\":4863:4951   */\n  mstore\n    /* \"#utility.yul\":4970:4974   */\n  0x22\n    /* \"#utility.yul\":4967:4968   */\n  0x04\n    /* \"#utility.yul\":4960:4975   */\n  mstore\n    /* \"#utility.yul\":4994:4998   */\n  0x24\n    /* \"#utility.yul\":4991:4992   */\n  0x00\n    /* \"#utility.yul\":4984:4999   */\n  revert\n    /* \"#utility.yul\":5011:5331   */\ntag_33:\n    /* \"#utility.yul\":5055:5061   */\n  0x00\n    /* \"#utility.yul\":5092:5093   */\n  0x02\n    /* \"#utility.yul\":5086:5090   */\n  dup3\n    /* \"#utility.yul\":5082:5094   */\n  div\n    /* \"#utility.yul\":5072:5094   */\n  swap1\n  pop\n    /* \"#utility.yul\":5139:5140   */\n  0x01\n    /* \"#utility.yul\":5133:5137   */\n  dup3\n    /* \"#utility.yul\":5129:5141   */\n  and\n    /* \"#utility.yul\":5160:5178   */\n  dup1\n    /* \"#utility.yul\":5150:5231   */\n  tag_110\n  jumpi\n    /* \"#utility.yul\":5216:5220   */\n  0x7f\n    /* \"#utility.yul\":5208:5214   */\n  dup3\n    /* \"#utility.yul\":5204:5221   */\n  and\n    /* \"#utility.yul\":5194:5221   */\n  swap2\n  pop\n    /* \"#utility.yul\":5150:5231   */\ntag_110:\n    /* \"#utility.yul\":5278:5280   */\n  0x20\n    /* \"#utility.yul\":5270:5276   */\n  dup3\n    /* \"#utility.yul\":5267:5281   */\n  lt\n    /* \"#utility.yul\":5247:5265   */\n  dup2\n    /* \"#utility.yul\":5244:5282   */\n  sub\n    /* \"#utility.yul\":5241:5325   */\n  tag_111\n  jumpi\n    /* \"#utility.yul\":5297:5315   */\n  tag_112\n  tag_32\n  jump\t// in\ntag_112:\n    /* \"#utility.yul\":5241:5325   */\ntag_111:\n    /* \"#utility.yul\":5062:5331   */\n  pop\n    /* \"#utility.yul\":5011:5331   */\n  swap2\n  swap1\n  pop\n  jump\t// out\n    /* \"#utility.yul\":5337:5478   */\ntag_34:\n    /* \"#utility.yul\":5386:5390   */\n  0x00\n    /* \"#utility.yul\":5409:5412   */\n  dup2\n    /* \"#utility.yul\":5401:5412   */\n  swap1\n  pop\n    /* \"#utility.yul\":5432:5435   */\n  dup2\n    /* \"#utility.yul\":5429:5430   */\n  0x00\n    /* \"#utility.yul\":5422:5436   */\n  mstore\n    /* \"#utility.yul\":5466:5470   */\n  0x20\n    /* \"#utility.yul\":5463:5464   */\n  0x00\n    /* \"#utility.yul\":5453:5471   */\n  keccak256\n    /* \"#utility.yul\":5445:5471   */\n  swap1\n  pop\n    /* \"#utility.yul\":5337:5478   */\n  swap2\n  swap1\n  pop\n  jump\t// out\n    /* \"#utility.yul\":5484:5577   */\ntag_35:\n    /* \"#utility.yul\":5521:5527   */\n  0x00\n    /* \"#utility.yul\":5568:5570   */\n  0x20\n    /* \"#utility.yul\":5563:5565   */\n  0x1f\n    /* \"#utility.yul\":5556:5561   */\n  dup4\n    /* \"#utility.yul\":5552:5566   */\n  add\n    /* \"#utility.yul\":5548:5571   */\n  div\n    /* \"#utility.yul\":5538:5571   */\n  swap1\n  pop\n    /* \"#utility.yul\":5484:5577   */\n  swap2\n  swap1\n  pop\n  jump\t// out\n    /* \"#utility.yul\":5583:5690   */\ntag_36:\n    /* \"#utility.yul\":5627:5635   */\n  0x00\n    /* \"#utility.yul\":5677:5682   */\n  dup3\n    /* \"#utility.yul\":5671:5675   */\n  dup3\n    /* \"#utility.yul\":5667:5683   */\n  shl\n    /* \"#utility.yul\":5646:5683   */\n  swap1\n  pop\n    /* \"#utility.yul\":5583:5690   */\n  swap3\n  swap2\n  pop\n  pop\n  jump\t// out\n    /* \"#utility.yul\":5696:6089   */\ntag_37:\n    /* \"#utility.yul\":5765:5771   */\n  0x00\n    /* \"#utility.yul\":5815:5816   */\n  0x08\n    /* \"#utility.yul\":5803:5813   */\n  dup4\n    /* \"#utility.yul\":5799:5817   */\n  mul\n    /* \"#utility.yul\":5838:5935   */\n  tag_117\n    /* \"#utility.yul\":5868:5934   */\n  0xffffffffffffffffffffffffffffffffffffffffffffffffffffffffffffffff\n    /* \"#utility.yul\":5857:5866   */\n  dup3\n    /* \"#utility.yul\":5838:5935   */\n  tag_36\n  jump\t// in\ntag_117:\n    /* \"#utility.yul\":5956:5995   */\n  tag_118\n    /* \"#utility.yul\":5986:5994   */\n  dup7\n    /* \"#utility.yul\":5975:5984   */\n  dup4\n    /* \"#utility.yul\":5956:5995   */\n  tag_36\n  jump\t// in\ntag_118:\n    /* \"#utility.yul\":5944:5995   */\n  swap6\n  pop\n    /* \"#utility.yul\":6028:6032   */\n  dup1\n    /* \"#utility.yul\":6024:6033   */\n  not\n    /* \"#utility.yul\":6017:6022   */\n  dup5\n    /* \"#utility.yul\":6013:6034   */\n  and\n    /* \"#utility.yul\":6004:6034   */\n  swap4\n  pop\n    /* \"#utility.yul\":6077:6081   */\n  dup1\n    /* \"#utility.yul\":6067:6075   */\n  dup7\n    /* \"#utility.yul\":6063:6082   */\n  and\n    /* \"#utility.yul\":6056:6061   */\n  dup5\n    /* \"#utility.yul\":6053:6083   */\n  or\n    /* \"#utility.yul\":6043:6083   */\n  swap3\n  pop\n    /* \"#utility.yul\":5772:6089   */\n  pop\n  pop\n    /* \"#utility.yul\":5696:6089   */\n  swap4\n  swap3\n  pop\n  pop\n  pop\n  jump\t// out\n    /* \"#utility.yul\":6095:6155   */\ntag_38:\n    /* \"#utility.yul\":6123:6126   */\n  0x00\n    /* \"#utility.yul\":6144:6149   */\n  dup2\n    /* \"#utility.yul\":6137:6149   */\n  swap1\n  pop\n    /* \"#utility.yul\":6095:6155   */\n  swap2\n  swap1\n  pop\n  jump\t// out\n    /* \"#utility.yul\":6161:6303   */\ntag_39:\n    /* \"#utility.yul\":6211:6220   */\n  0x00\n    /* \"#utility.yul\":6244:6297   */\n  tag_121\n    /* \"#utility.yul\":6262:6296   */\n  tag_122\n    /* \"#utility.yul\":6271:6295   */\n  tag_123\n    /* \"#utility.yul\":6289:6294   */\n  dup5\n    /* \"#utility.yul\":6271:6295   */\n  tag_24\n  jump\t// in\ntag_123:\n    /* \"#utility.yul\":6262:6296   */\n  tag_38\n  jump\t// in\ntag_122:\n    /* \"#utility.yul\":6244:6297   */\n  tag_24\n  jump\t// in\ntag_121:\n    /* \"#utility.yul\":6231:6297   */\n  swap1\n  pop\n    /* \"#utility.yul\":6161:6303   */\n  swap2\n  swap1\n  pop\n  jump\t// out\n    /* \"#utility.yul\":6309:6384   */\ntag_40:\n    /* \"#utility.yul\":6352:6355   */\n  0x00\n    /* \"#utility.yul\":6373:6378   */\n  dup2\n    /* \"#utility.yul\":6366:6378   */\n  swap1\n  pop\n    /* \"#utility.yul\":6309:6384   */\n  swap2\n  swap1\n  pop\n  jump\t// out\n    /* \"#utility.yul\":6390:6659   */\ntag_41:\n    /* \"#utility.yul\":6500:6539   */\n  tag_126\n    /* \"#utility.yul\":6531:6538   */\n  dup4\n    /* \"#utility.yul\":6500:6539   */\n  tag_39\n  jump\t// in\ntag_126:\n    /* \"#utility.yul\":6561:6652   */\n  tag_127\n    /* \"#utility.yul\":6610:6651   */\n  tag_128\n    /* \"#utility.yul\":6634:6650   */\n  dup3\n    /* \"#utility.yul\":6610:6651   */\n  tag_40\n  jump\t// in\ntag_128:\n    /* \"#utility.yul\":6602:6608   */\n  dup5\n    /* \"#utility.yul\":6595:6599   */\n  dup5\n    /* \"#utility.yul\":6589:6600   */\n  sload\n    /* \"#utility.yul\":6561:6652   */\n  tag_37\n  jump\t// in\ntag_127:\n    /* \"#utility.yul\":6555:6559   */\n  dup3\n    /* \"#utility.yul\":6548:6653   */\n  sstore\n    /* \"#utility.yul\":6466:6659   */\n  pop\n    /* \"#utility.yul\":6390:6659   */\n  pop\n  pop\n  pop\n  jump\t// out\n    /* \"#utility.yul\":6665:6738   */\ntag_42:\n    /* \"#utility.yul\":6710:6713   */\n  0x00\n    /* \"#utility.yul\":6665:6738   */\n  swap1\n  jump\t// out\n    /* \"#utility.yul\":6744:6933   */\ntag_43:\n    /* \"#utility.yul\":6821:6853   */\n  tag_131\n  tag_42\n  jump\t// in\ntag_131:\n    /* \"#utility.yul\":6862:6927   */\n  tag_132\n    /* \"#utility.yul\":6920:6926   */\n  dup2\n    /* \"#utility.yul\":6912:6918   */\n  dup5\n    /* \"#utility.yul\":6906:6910   */\n  dup5\n    /* \"#utility.yul\":6862:6927   */\n  tag_41\n  jump\t// in\ntag_132:\n    /* \"#utility.yul\":6797:6933   */\n  pop\n    /* \"#utility.yul\":6744:6933   */\n  pop\n  pop\n  jump\t// out\n    /* \"#utility.yul\":6939:7125   */\ntag_44:\n    /* \"#utility.yul\":6999:7119   */\ntag_134:\n    /* \"#utility.yul\":7016:7019   */\n  dup2\n    /* \"#utility.yul\":7009:7014   */\n  dup2\n    /* \"#utility.yul\":7006:7020   */\n  lt\n    /* \"#utility.yul\":6999:7119   */\n  iszero\n  tag_136\n  jumpi\n    /* \"#utility.yul\":7070:7109   */\n  tag_137\n    /* \"#utility.yul\":7107:7108   */\n  0x00\n    /* \"#utility.yul\":7100:7105   */\n  dup3\n    /* \"#utility.yul\":7070:7109   */\n  tag_43\n  jump\t// in\ntag_137:\n    /* \"#utility.yul\":7043:7044   */\n  0x01\n    /* \"#utility.yul\":7036:7041   */\n  dup2\n    /* \"#utility.yul\":7032:7045   */\n  add\n    /* \"#utility.yul\":7023:7045   */\n  swap1\n  pop\n    /* \"#utility.yul\":6999:7119   */\n  jump(tag_134)\ntag_136:\n    /* \"#utility.yul\":6939:7125   */\n  pop\n  pop\n  jump\t// out\n    /* \"#utility.yul\":7131:7674   */\ntag_45:\n    /* \"#utility.yul\":7232:7234   */\n  0x1f\n    /* \"#utility.yul\":7227:7230   */\n  dup3\n    /* \"#utility.yul\":7224:7235   */\n  gt\n    /* \"#utility.yul\":7221:7667   */\n  iszero\n  tag_139\n  jumpi\n    /* \"#utility.yul\":7266:7304   */\n  tag_140\n    /* \"#utility.yul\":7298:7303   */\n  dup2\n    /* \"#utility.yul\":7266:7304   */\n  tag_34\n  jump\t// in\ntag_140:\n    /* \"#utility.yul\":7350:7379   */\n  tag_141\n    /* \"#utility.yul\":7368:7378   */\n  dup5\n    /* \"#utility.yul\":7350:7379   */\n  tag_35\n  jump\t// in\ntag_141:\n    /* \"#utility.yul\":7340:7348   */\n  dup2\n    /* \"#utility.yul\":7336:7380   */\n  add\n    /* \"#utility.yul\":7533:7535   */\n  0x20\n    /* \"#utility.yul\":7521:7531   */\n  dup6\n    /* \"#utility.yul\":7518:7536   */\n  lt\n    /* \"#utility.yul\":7515:7564   */\n  iszero\n  tag_142\n  jumpi\n    /* \"#utility.yul\":7554:7562   */\n  dup2\n    /* \"#utility.yul\":7539:7562   */\n  swap1\n  pop\n    /* \"#utility.yul\":7515:7564   */\ntag_142:\n    /* \"#utility.yul\":7577:7657   */\n  tag_143\n    /* \"#utility.yul\":7633:7655   */\n  tag_144\n    /* \"#utility.yul\":7651:7654   */\n  dup6\n    /* \"#utility.yul\":7633:7655   */\n  tag_35\n  jump\t// in\ntag_144:\n    /* \"#utility.yul\":7623:7631   */\n  dup4\n    /* \"#utility.yul\":7619:7656   */\n  add\n    /* \"#utility.yul\":7606:7617   */\n  dup3\n    /* \"#utility.yul\":7577:7657   */\n  tag_44\n  jump\t// in\ntag_143:\n    /* \"#utility.yul\":7236:7667   */\n  pop\n  pop\n    /* \"#utility.yul\":7221:7667   */\ntag_139:\n    /* \"#utility.yul\":7131:7674   */\n  pop\n  pop\n  pop\n  jump\t// out\n    /* \"#utility.yul\":7680:7797   */\ntag_46:\n    /* \"#utility.yul\":7734:7742   */\n  0x00\n    /* \"#utility.yul\":7784:7789   */\n  dup3\n    /* \"#utility.yul\":7778:7782   */\n  dup3\n    /* \"#utility.yul\":7774:7790   */\n  shr\n    /* \"#utility.yul\":7753:7790   */\n  swap1\n  pop\n    /* \"#utility.yul\":7680:7797   */\n  swap3\n  swap2\n  pop\n  pop\n  jump\t// out\n    /* \"#utility.yul\":7803:7972   */\ntag_47:\n    /* \"#utility.yul\":7847:7853   */\n  0x00\n    /* \"#utility.yul\":7880:7931   */\n  tag_147\n    /* \"#utility.yul\":7928:7929   */\n  0x00\n    /* \"#utility.yul\":7924:7930   */\n  not\n    /* \"#utility.yul\":7916:7921   */\n  dup5\n    /* \"#utility.yul\":7913:7914   */\n  0x08\n    /* \"#utility.yul\":7909:7922   */\n  mul\n    /* \"#utility.yul\":7880:7931   */\n  tag_46\n  jump\t// in\ntag_147:\n    /* \"#utility.yul\":7876:7932   */\n  not\n    /* \"#utility.yul\":7961:7965   */\n  dup1\n    /* \"#utility.yul\":7955:7959   */\n  dup4\n    /* \"#utility.yul\":7951:7966   */\n  and\n    /* \"#utility.yul\":7941:7966   */\n  swap2\n  pop\n    /* \"#utility.yul\":7854:7972   */\n  pop\n    /* \"#utility.yul\":7803:7972   */\n  swap3\n  swap2\n  pop\n  pop\n  jump\t// out\n    /* \"#utility.yul\":7977:8272   */\ntag_48:\n    /* \"#utility.yul\":8053:8057   */\n  0x00\n    /* \"#utility.yul\":8199:8228   */\n  tag_149\n    /* \"#utility.yul\":8224:8227   */\n  dup4\n    /* \"#utility.yul\":8218:8222   */\n  dup4\n    /* \"#utility.yul\":8199:8228   */\n  tag_47\n  jump\t// in\ntag_149:\n    /* \"#utility.yul\":8191:8228   */\n  swap2\n  pop\n    /* \"#utility.yul\":8261:8264   */\n  dup3\n    /* \"#utility.yul\":8258:8259   */\n  0x02\n    /* \"#utility.yul\":8254:8265   */\n  mul\n    /* \"#utility.yul\":8248:8252   */\n  dup3\n    /* \"#utility.yul\":8245:8266   */\n  or\n    /* \"#utility.yul\":8237:8266   */\n  swap1\n  pop\n    /* \"#utility.yul\":7977:8272   */\n  swap3\n  swap2\n  pop\n  pop\n  jump\t// out\n    /* \"#utility.yul\":8277:9672   */\ntag_8:\n    /* \"#utility.yul\":8394:8431   */\n  tag_151\n    /* \"#utility.yul\":8427:8430   */\n  dup3\n    /* \"#utility.yul\":8394:8431   */\n  tag_31\n  jump\t// in\ntag_151:\n    /* \"#utility.yul\":8496:8514   */\n  0xffffffffffffffff\n    /* \"#utility.yul\":8488:8494   */\n  dup2\n    /* \"#utility.yul\":8485:8515   */\n  gt\n    /* \"#utility.yul\":8482:8538   */\n  iszero\n  tag_152\n  jumpi\n    /* \"#utility.yul\":8518:8536   */\n  tag_153\n  tag_17\n  jump\t// in\ntag_153:\n    /* \"#utility.yul\":8482:8538   */\ntag_152:\n    /* \"#utility.yul\":8562:8600   */\n  tag_154\n    /* \"#utility.yul\":8594:8598   */\n  dup3\n    /* \"#utility.yul\":8588:8599   */\n  sload\n    /* \"#utility.yul\":8562:8600   */\n  tag_33\n  jump\t// in\ntag_154:\n    /* \"#utility.yul\":8647:8714   */\n  tag_155\n    /* \"#utility.yul\":8707:8713   */\n  dup3\n    /* \"#utility.yul\":8699:8705   */\n  dup3\n    /* \"#utility.yul\":8693:8697   */\n  dup6\n    /* \"#utility.yul\":8647:8714   */\n  tag_45\n  jump\t// in\ntag_155:\n    /* \"#utility.yul\":8741:8742   */\n  0x00\n    /* \"#utility.yul\":8765:8769   */\n  0x20\n    /* \"#utility.yul\":8752:8769   */\n  swap1\n  pop\n    /* \"#utility.yul\":8797:8799   */\n  0x1f\n    /* \"#utility.yul\":8789:8795   */\n  dup4\n    /* \"#utility.yul\":8786:8800   */\n  gt\n    /* \"#utility.yul\":8814:8815   */\n  0x01\n    /* \"#utility.yul\":8809:9427   */\n  dup2\n  eq\n  tag_157\n  jumpi\n    /* \"#utility.yul\":9471:9472   */\n  0x00\n    /* \"#utility.yul\":9488:9494   */\n  dup5\n    /* \"#utility.yul\":9485:9562   */\n  iszero\n  tag_158\n  jumpi\n    /* \"#utility.yul\":9537:9546   */\n  dup3\n    /* \"#utility.yul\":9532:9535   */\n  dup8\n    /* \"#utility.yul\":9528:9547   */\n  add\n    /* \"#utility.yul\":9522:9548   */\n  mload\n    /* \"#utility.yul\":9513:9548   */\n  swap1\n  pop\n    /* \"#utility.yul\":9485:9562   */\ntag_158:\n    /* \"#utility.yul\":9588:9655   */\n  tag_159\n    /* \"#utility.yul\":9648:9654   */\n  dup6\n    /* \"#utility.yul\":9641:9646   */\n  dup3\n    /* \"#utility.yul\":9588:9655   */\n  tag_48\n  jump\t// in\ntag_159:\n    /* \"#utility.yul\":9582:9586   */\n  dup7\n    /* \"#utility.yul\":9575:9656   */\n  sstore\n    /* \"#utility.yul\":9444:9666   */\n  pop\n    /* \"#utility.yul\":8779:9666   */\n  jump(tag_156)\n    /* \"#utility.yul\":8809:9427   */\ntag_157:\n    /* \"#utility.yul\":8861:8865   */\n  0x1f\n    /* \"#utility.yul\":8857:8866   */\n  not\n    /* \"#utility.yul\":8849:8855   */\n  dup5\n    /* \"#utility.yul\":8845:8867   */\n  and\n    /* \"#utility.yul\":8895:8932   */\n  tag_160\n    /* \"#utility.yul\":8927:8931   */\n  dup7\n    /* \"#utility.yul\":8895:8932   */\n  tag_34\n  jump\t// in\ntag_160:\n    /* \"#utility.yul\":8954:8955   */\n  0x00\n    /* \"#utility.yul\":8968:9176   */\ntag_161:\n    /* \"#utility.yul\":8982:8989   */\n  dup3\n    /* \"#utility.yul\":8979:8980   */\n  dup2\n    /* \"#utility.yul\":8976:8990   */\n  lt\n    /* \"#utility.yul\":8968:9176   */\n  iszero\n  tag_163\n  jumpi\n    /* \"#utility.yul\":9061:9070   */\n  dup5\n    /* \"#utility.yul\":9056:9059   */\n  dup10\n    /* \"#utility.yul\":9052:9071   */\n  add\n    /* \"#utility.yul\":9046:9072   */\n  mload\n    /* \"#utility.yul\":9038:9044   */\n  dup3\n    /* \"#utility.yul\":9031:9073   */\n  sstore\n    /* \"#utility.yul\":9112:9113   */\n  0x01\n    /* \"#utility.yul\":9104:9110   */\n  dup3\n    /* \"#utility.yul\":9100:9114   */\n  add\n    /* \"#utility.yul\":9090:9114   */\n  swap2\n  pop\n    /* \"#utility.yul\":9159:9161   */\n  0x20\n    /* \"#utility.yul\":9148:9157   */\n  dup6\n    /* \"#utility.yul\":9144:9162   */\n  add\n    /* \"#utility.yul\":9131:9162   */\n  swap5\n  pop\n    /* \"#utility.yul\":9005:9009   */\n  0x20\n    /* \"#utility.yul\":9002:9003   */\n  dup2\n    /* \"#utility.yul\":8998:9010   */\n  add\n    /* \"#utility.yul\":8993:9010   */\n  swap1\n  pop\n    /* \"#utility.yul\":8968:9176   */\n  jump(tag_161)\ntag_163:\n    /* \"#utility.yul\":9204:9210   */\n  dup7\n    /* \"#utility.yul\":9195:9202   */\n  dup4\n    /* \"#utility.yul\":9192:9211   */\n  lt\n    /* \"#utility.yul\":9189:9368   */\n  iszero\n  tag_164\n  jumpi\n    /* \"#utility.yul\":9262:9271   */\n  dup5\n    /* \"#utility.yul\":9257:9260   */\n  dup10\n    /* \"#utility.yul\":9253:9272   */\n  add\n    /* \"#utility.yul\":9247:9273   */\n  mload\n    /* \"#utility.yul\":9305:9353   */\n  tag_165\n    /* \"#utility.yul\":9347:9351   */\n  0x1f\n    /* \"#utility.yul\":9339:9345   */\n  dup10\n    /* \"#utility.yul\":9335:9352   */\n  and\n    /* \"#utility.yul\":9324:9333   */\n  dup3\n    /* \"#utility.yul\":9305:9353   */\n  tag_47\n  jump\t// in\ntag_165:\n    /* \"#utility.yul\":9297:9303   */\n  dup4\n    /* \"#utility.yul\":9290:9354   */\n  sstore\n    /* \"#utility.yul\":9212:9368   */\n  pop\n    /* \"#utility.yul\":9189:9368   */\ntag_164:\n    /* \"#utility.yul\":9414:9415   */\n  0x01\n    /* \"#utility.yul\":9410:9411   */\n  0x02\n    /* \"#utility.yul\":9402:9408   */\n  dup9\n    /* \"#utility.yul\":9398:9412   */\n  mul\n    /* \"#utility.yul\":9394:9416   */\n  add\n    /* \"#utility.yul\":9388:9392   */\n  dup9\n    /* \"#utility.yul\":9381:9417   */\n  sstore\n    /* \"#utility.yul\":8816:9427   */\n  pop\n  pop\n  pop\n    /* \"#utility.yul\":8779:9666   */\ntag_156:\n  pop\n    /* \"#utility.yul\":8369:9672   */\n  pop\n  pop\n  pop\n    /* \"#utility.yul\":8277:9672   */\n  pop\n  pop\n  jump\t// out\n    /* \"Campaign.sol\":1142:6121  contract Campaign... */\ntag_10:\n  dataSize(sub_0)\n  dup1\n  dataOffset(sub_0)\n  0x00\n  codecopy\n  0x00\n  return\nstop\n\nsub_0: assembly {\n        /* \"Campaign.sol\":1142:6121  contract Campaign... */\n      mstore(0x40, 0x80)\n      jumpi(tag_1, lt(calldatasize, 0x04))\n      shr(0xe0, calldataload(0x00))\n      dup1\n      0x885e7c62\n      gt\n      tag_18\n      jumpi\n      dup1\n      0xd7bb99ba\n      gt\n      tag_19\n      jumpi\n      dup1\n      0xd7bb99ba\n      eq\n      tag_14\n      jumpi\n      dup1\n      0xe2e46b52\n      eq\n      tag_15\n      jumpi\n      dup1\n      0xf84038b1\n      eq\n      tag_16\n      jumpi\n      dup1\n      0xfeed5561\n      eq\n      tag_17\n      jumpi\n      jump(tag_1)\n    tag_19:\n      dup1\n      0x885e7c62\n      eq\n      tag_10\n      jumpi\n      dup1\n      0xa26759cb\n      eq\n      tag_11\n      jumpi\n      dup1\n      0xa7ac8000\n      eq\n      tag_12\n      jumpi\n      dup1\n      0xd5009584\n      eq\n      tag_13\n      jumpi\n      jump(tag_1)\n    tag_18:\n      dup1\n      0x4051ddac\n      gt\n      tag_20\n      jumpi\n      dup1\n      0x4051ddac\n      eq\n      tag_6\n      jumpi\n      dup1\n      0x692d51d2\n      eq\n      tag_7\n      jumpi\n      dup1\n      0x6f9fb98a\n      eq\n      tag_8\n      jumpi\n      dup1\n      0x8813ce12\n      eq\n      tag_9\n      jumpi\n      jump(tag_1)\n    tag_20:\n      dup1\n      0x0a144391\n      eq\n      tag_2\n      jumpi\n      dup1\n      0x1a092541\n      eq\n      tag_3\n      jumpi\n      dup1\n      0x30e8fc5c\n      eq\n      tag_4\n      jumpi\n      dup1\n      0x3410452a\n      eq\n      tag_5\n      jumpi\n    tag_1:\n      0x00\n      dup1\n      revert\n        /* \"Campaign.sol\":1853:1894  mapping(address => uint) public approvers */\n    tag_2:\n      callvalue\n      dup1\n      iszero\n      tag_21\n      jumpi\n      0x00\n      dup1\n      revert\n    tag_21:\n      pop\n      tag_22\n      0x04\n      dup1\n      calldatasize\n      sub\n      dup2\n      add\n      swap1\n      tag_23\n      swap2\n      swap1\n      tag_24\n      jump\t// in\n    tag_23:\n      tag_25\n      jump\t// in\n    tag_22:\n      mload(0x40)\n      tag_26\n      swap2\n      swap1\n      tag_27\n      jump\t// in\n    tag_26:\n      mload(0x40)\n      dup1\n      swap2\n      sub\n      swap1\n      return\n        /* \"Campaign.sol\":2553:2657  function getDescription() external view returns (string memory)... */\n    tag_3:\n      callvalue\n      dup1\n      iszero\n      tag_28\n      jumpi\n      0x00\n      dup1\n      revert\n    tag_28:\n      pop\n      tag_29\n      tag_30\n      jump\t// in\n    tag_29:\n      mload(0x40)\n      tag_31\n      swap2\n      swap1\n      tag_32\n      jump\t// in\n    tag_31:\n      mload(0x40)\n      dup1\n      swap2\n      sub\n      swap1\n      return\n        /* \"Campaign.sol\":4877:5617  function voteRequest(string memory reqName, bool isApproval ) external... */\n    tag_4:\n      callvalue\n      dup1\n      iszero\n      tag_33\n      jumpi\n      0x00\n      dup1\n      revert\n    tag_33:\n      pop\n      tag_34\n      0x04\n      dup1\n      calldatasize\n      sub\n      dup2\n      add\n      swap1\n      tag_35\n      swap2\n      swap1\n      tag_36\n      jump\t// in\n    tag_35:\n      tag_37\n      jump\t// in\n    tag_34:\n      stop\n        /* \"Campaign.sol\":2983:3076  function getRequestsCount() external view returns(uint){... */\n    tag_5:\n      callvalue\n      dup1\n      iszero\n      tag_38\n      jumpi\n      0x00\n      dup1\n      revert\n    tag_38:\n      pop\n      tag_39\n      tag_40\n      jump\t// in\n    tag_39:\n      mload(0x40)\n      tag_41\n      swap2\n      swap1\n      tag_27\n      jump\t// in\n    tag_41:\n      mload(0x40)\n      dup1\n      swap2\n      sub\n      swap1\n      return\n        /* \"Campaign.sol\":3193:3623  function getSummary() external view returns(Summary memory)... */\n    tag_6:\n      callvalue\n      dup1\n      iszero\n      tag_42\n      jumpi\n      0x00\n      dup1\n      revert\n    tag_42:\n      pop\n      tag_43\n      tag_44\n      jump\t// in\n    tag_43:\n      mload(0x40)\n      tag_45\n      swap2\n      swap1\n      tag_46\n      jump\t// in\n    tag_45:\n      mload(0x40)\n      dup1\n      swap2\n      sub\n      swap1\n      return\n        /* \"Campaign.sol\":2013:2055  mapping(string => Request) public requests */\n    tag_7:\n      callvalue\n      dup1\n      iszero\n      tag_47\n      jumpi\n      0x00\n      dup1\n      revert\n    tag_47:\n      pop\n      tag_48\n      0x04\n      dup1\n      calldatasize\n      sub\n      dup2\n      add\n      swap1\n      tag_49\n      swap2\n      swap1\n      tag_50\n      jump\t// in\n    tag_49:\n      tag_51\n      jump\t// in\n    tag_48:\n      mload(0x40)\n      tag_52\n      swap9\n      swap8\n      swap7\n      swap6\n      swap5\n      swap4\n      swap3\n      swap2\n      swap1\n      tag_53\n      jump\t// in\n    tag_52:\n      mload(0x40)\n      dup1\n      swap2\n      sub\n      swap1\n      return\n        /* \"Campaign.sol\":2876:2978  function getContractBalance() external view returns(uint){... */\n    tag_8:\n      callvalue\n      dup1\n      iszero\n      tag_54\n      jumpi\n      0x00\n      dup1\n      revert\n    tag_54:\n      pop\n      tag_55\n      tag_56\n      jump\t// in\n    tag_55:\n      mload(0x40)\n      tag_57\n      swap2\n      swap1\n      tag_27\n      jump\t// in\n    tag_57:\n      mload(0x40)\n      dup1\n      swap2\n      sub\n      swap1\n      return\n        /* \"Campaign.sol\":3081:3188  function getRequests() external view returns(RequestSummary[] memory)... */\n    tag_9:\n      callvalue\n      dup1\n      iszero\n      tag_58\n      jumpi\n      0x00\n      dup1\n      revert\n    tag_58:\n      pop\n      tag_59\n      tag_60\n      jump\t// in\n    tag_59:\n      mload(0x40)\n      tag_61\n      swap2\n      swap1\n      tag_62\n      jump\t// in\n    tag_61:\n      mload(0x40)\n      dup1\n      swap2\n      sub\n      swap1\n      return\n        /* \"Campaign.sol\":2450:2548  function getCampaignName() external view returns (string memory)... */\n    tag_10:\n      callvalue\n      dup1\n      iszero\n      tag_63\n      jumpi\n      0x00\n      dup1\n      revert\n    tag_63:\n      pop\n      tag_64\n      tag_65\n      jump\t// in\n    tag_64:\n      mload(0x40)\n      tag_66\n      swap2\n      swap1\n      tag_32\n      jump\t// in\n    tag_66:\n      mload(0x40)\n      dup1\n      swap2\n      sub\n      swap1\n      return\n        /* \"Campaign.sol\":3850:3913  function addFunds() restricted external payable{... */\n    tag_11:\n      tag_67\n      tag_68\n      jump\t// in\n    tag_67:\n      stop\n        /* \"Campaign.sol\":3919:4871  function triggerCampaignRequest(string memory name, string memory description, uint amount, uint requiredApprovals, address payable receiver) restricted external {... */\n    tag_12:\n      callvalue\n      dup1\n      iszero\n      tag_69\n      jumpi\n      0x00\n      dup1\n      revert\n    tag_69:\n      pop\n      tag_70\n      0x04\n      dup1\n      calldatasize\n      sub\n      dup2\n      add\n      swap1\n      tag_71\n      swap2\n      swap1\n      tag_72\n      jump\t// in\n    tag_71:\n      tag_73\n      jump\t// in\n    tag_70:\n      stop\n        /* \"Campaign.sol\":2354:2444  function getManager() external view returns (address)... */\n    tag_13:\n      callvalue\n      dup1\n      iszero\n      tag_74\n      jumpi\n      0x00\n      dup1\n      revert\n    tag_74:\n      pop\n      tag_75\n      tag_76\n      jump\t// in\n    tag_75:\n      mload(0x40)\n      tag_77\n      swap2\n      swap1\n      tag_78\n      jump\t// in\n    tag_77:\n      mload(0x40)\n      dup1\n      swap2\n      sub\n      swap1\n      return\n        /* \"Campaign.sol\":3629:3844  function contribute() public payable {... */\n    tag_14:\n      tag_79\n      tag_80\n      jump\t// in\n    tag_79:\n      stop\n        /* \"Campaign.sol\":5623:6032  function submitRequest(string memory reqName) restricted external {... */\n    tag_15:\n      callvalue\n      dup1\n      iszero\n      tag_81\n      jumpi\n      0x00\n      dup1\n      revert\n    tag_81:\n      pop\n      tag_82\n      0x04\n      dup1\n      calldatasize\n      sub\n      dup2\n      add\n      swap1\n      tag_83\n      swap2\n      swap1\n      tag_50\n      jump\t// in\n    tag_83:\n      tag_84\n      jump\t// in\n    tag_82:\n      stop\n        /* \"Campaign.sol\":2765:2870  function getMinimumContribution() external view returns(uint){... */\n    tag_16:\n      callvalue\n      dup1\n      iszero\n      tag_85\n      jumpi\n      0x00\n      dup1\n      revert\n    tag_85:\n      pop\n      tag_86\n      tag_87\n      jump\t// in\n    tag_86:\n      mload(0x40)\n      tag_88\n      swap2\n      swap1\n      tag_27\n      jump\t// in\n    tag_88:\n      mload(0x40)\n      dup1\n      swap2\n      sub\n      swap1\n      return\n        /* \"Campaign.sol\":2662:2760  function getContributorsCount() external view returns(uint){... */\n    tag_17:\n      callvalue\n      dup1\n      iszero\n      tag_89\n      jumpi\n      0x00\n      dup1\n      revert\n    tag_89:\n      pop\n      tag_90\n      tag_91\n      jump\t// in\n    tag_90:\n      mload(0x40)\n      tag_92\n      swap2\n      swap1\n      tag_27\n      jump\t// in\n    tag_92:\n      mload(0x40)\n      dup1\n      swap2\n      sub\n      swap1\n      return\n        /* \"Campaign.sol\":1853:1894  mapping(address => uint) public approvers */\n    tag_25:\n      mstore(0x20, 0x03)\n      dup1\n      0x00\n      mstore\n      keccak256(0x00, 0x40)\n      0x00\n      swap2\n      pop\n      swap1\n      pop\n      sload\n      dup2\n      jump\t// out\n        /* \"Campaign.sol\":2553:2657  function getDescription() external view returns (string memory)... */\n    tag_30:\n        /* \"Campaign.sol\":2602:2615  string memory */\n      0x60\n        /* \"Campaign.sol\":2638:2650  _description */\n      0x01\n        /* \"Campaign.sol\":2631:2650  return _description */\n      dup1\n      sload\n      tag_94\n      swap1\n      tag_95\n      jump\t// in\n    tag_94:\n      dup1\n      0x1f\n      add\n      0x20\n      dup1\n      swap2\n      div\n      mul\n      0x20\n      add\n      mload(0x40)\n      swap1\n      dup2\n      add\n      0x40\n      mstore\n      dup1\n      swap3\n      swap2\n      swap1\n      dup2\n      dup2\n      mstore\n      0x20\n      add\n      dup3\n      dup1\n      sload\n      tag_96\n      swap1\n      tag_95\n      jump\t// in\n    tag_96:\n      dup1\n      iszero\n      tag_97\n      jumpi\n      dup1\n      0x1f\n      lt\n      tag_98\n      jumpi\n      0x0100\n      dup1\n      dup4\n      sload\n      div\n      mul\n      dup4\n      mstore\n      swap2\n      0x20\n      add\n      swap2\n      jump(tag_97)\n    tag_98:\n      dup3\n      add\n      swap2\n      swap1\n      0x00\n      mstore\n      keccak256(0x00, 0x20)\n      swap1\n    tag_99:\n      dup2\n      sload\n      dup2\n      mstore\n      swap1\n      0x01\n      add\n      swap1\n      0x20\n      add\n      dup1\n      dup4\n      gt\n      tag_99\n      jumpi\n      dup3\n      swap1\n      sub\n      0x1f\n      and\n      dup3\n      add\n      swap2\n    tag_97:\n      pop\n      pop\n      pop\n      pop\n      pop\n      swap1\n      pop\n        /* \"Campaign.sol\":2553:2657  function getDescription() external view returns (string memory)... */\n      swap1\n      jump\t// out\n        /* \"Campaign.sol\":4877:5617  function voteRequest(string memory reqName, bool isApproval ) external... */\n    tag_37:\n        /* \"Campaign.sol\":4984:4992  _manager */\n      0x02\n      0x00\n      swap1\n      sload\n      swap1\n      0x0100\n      exp\n      swap1\n      div\n      0xffffffffffffffffffffffffffffffffffffffff\n      and\n        /* \"Campaign.sol\":4970:4992  msg.sender != _manager */\n      0xffffffffffffffffffffffffffffffffffffffff\n      and\n        /* \"Campaign.sol\":4970:4980  msg.sender */\n      caller\n        /* \"Campaign.sol\":4970:4992  msg.sender != _manager */\n      0xffffffffffffffffffffffffffffffffffffffff\n      and\n      sub\n        /* \"Campaign.sol\":4962:4993  require(msg.sender != _manager) */\n      tag_101\n      jumpi\n      0x00\n      dup1\n      revert\n    tag_101:\n        /* \"Campaign.sol\":5004:5023  Request storage req */\n      0x00\n        /* \"Campaign.sol\":5026:5034  requests */\n      0x07\n        /* \"Campaign.sol\":5035:5042  reqName */\n      dup4\n        /* \"Campaign.sol\":5026:5043  requests[reqName] */\n      mload(0x40)\n      tag_102\n      swap2\n      swap1\n      tag_103\n      jump\t// in\n    tag_102:\n      swap1\n      dup2\n      mstore\n      0x20\n      add\n      mload(0x40)\n      dup1\n      swap2\n      sub\n      swap1\n      keccak256\n        /* \"Campaign.sol\":5004:5043  Request storage req = requests[reqName] */\n      swap1\n      pop\n        /* \"Campaign.sol\":5087:5088  0 */\n      0x00\n        /* \"Campaign.sol\":5068:5071  req */\n      dup2\n        /* \"Campaign.sol\":5068:5076  req.name */\n      0x00\n      add\n        /* \"Campaign.sol\":5062:5084  bytes(req.name).length */\n      dup1\n      sload\n      tag_104\n      swap1\n      tag_95\n      jump\t// in\n    tag_104:\n      swap1\n      pop\n        /* \"Campaign.sol\":5062:5088  bytes(req.name).length > 0 */\n      gt\n        /* \"Campaign.sol\":5054:5089  require(bytes(req.name).length > 0) */\n      tag_105\n      jumpi\n      0x00\n      dup1\n      revert\n    tag_105:\n        /* \"Campaign.sol\":5139:5146  reqName */\n      dup3\n        /* \"Campaign.sol\":5133:5154  bytes(reqName).length */\n      mload\n        /* \"Campaign.sol\":5113:5116  req */\n      dup2\n        /* \"Campaign.sol\":5113:5121  req.name */\n      0x00\n      add\n        /* \"Campaign.sol\":5107:5129  bytes(req.name).length */\n      dup1\n      sload\n      tag_106\n      swap1\n      tag_95\n      jump\t// in\n    tag_106:\n      swap1\n      pop\n        /* \"Campaign.sol\":5107:5154  bytes(req.name).length == bytes(reqName).length */\n      eq\n        /* \"Campaign.sol\":5099:5155  require(bytes(req.name).length == bytes(reqName).length) */\n      tag_107\n      jumpi\n      0x00\n      dup1\n      revert\n    tag_107:\n        /* \"Campaign.sol\":5224:5225  0 */\n      0x00\n        /* \"Campaign.sol\":5200:5209  approvers */\n      0x03\n        /* \"Campaign.sol\":5200:5221  approvers[msg.sender] */\n      0x00\n        /* \"Campaign.sol\":5210:5220  msg.sender */\n      caller\n        /* \"Campaign.sol\":5200:5221  approvers[msg.sender] */\n      0xffffffffffffffffffffffffffffffffffffffff\n      and\n      0xffffffffffffffffffffffffffffffffffffffff\n      and\n      dup2\n      mstore\n      0x20\n      add\n      swap1\n      dup2\n      mstore\n      0x20\n      add\n      0x00\n      keccak256\n      sload\n        /* \"Campaign.sol\":5200:5225  approvers[msg.sender] > 0 */\n      gt\n        /* \"Campaign.sol\":5192:5226  require(approvers[msg.sender] > 0) */\n      tag_108\n      jumpi\n      0x00\n      dup1\n      revert\n    tag_108:\n        /* \"Campaign.sol\":5270:5273  req */\n      dup1\n        /* \"Campaign.sol\":5270:5283  req.canSubmit */\n      0x06\n      add\n      0x00\n      swap1\n      sload\n      swap1\n      0x0100\n      exp\n      swap1\n      div\n      0xff\n      and\n        /* \"Campaign.sol\":5269:5283  !req.canSubmit */\n      iszero\n        /* \"Campaign.sol\":5261:5284  require(!req.canSubmit) */\n      tag_109\n      jumpi\n      0x00\n      dup1\n      revert\n    tag_109:\n        /* \"Campaign.sol\":5303:5306  req */\n      dup1\n        /* \"Campaign.sol\":5303:5315  req.complete */\n      0x06\n      add\n      0x01\n      swap1\n      sload\n      swap1\n      0x0100\n      exp\n      swap1\n      div\n      0xff\n      and\n        /* \"Campaign.sol\":5302:5315  !req.complete */\n      iszero\n        /* \"Campaign.sol\":5294:5316  require(!req.complete) */\n      tag_110\n      jumpi\n      0x00\n      dup1\n      revert\n    tag_110:\n        /* \"Campaign.sol\":5361:5364  req */\n      dup1\n        /* \"Campaign.sol\":5361:5374  req.approvers */\n      0x07\n      add\n        /* \"Campaign.sol\":5361:5386  req.approvers[msg.sender] */\n      0x00\n        /* \"Campaign.sol\":5375:5385  msg.sender */\n      caller\n        /* \"Campaign.sol\":5361:5386  req.approvers[msg.sender] */\n      0xffffffffffffffffffffffffffffffffffffffff\n      and\n      0xffffffffffffffffffffffffffffffffffffffff\n      and\n      dup2\n      mstore\n      0x20\n      add\n      swap1\n      dup2\n      mstore\n      0x20\n      add\n      0x00\n      keccak256\n      0x00\n      swap1\n      sload\n      swap1\n      0x0100\n      exp\n      swap1\n      div\n      0xff\n      and\n        /* \"Campaign.sol\":5360:5386  !req.approvers[msg.sender] */\n      iszero\n        /* \"Campaign.sol\":5352:5387  require(!req.approvers[msg.sender]) */\n      tag_111\n      jumpi\n      0x00\n      dup1\n      revert\n    tag_111:\n        /* \"Campaign.sol\":5426:5430  true */\n      0x01\n        /* \"Campaign.sol\":5398:5401  req */\n      dup2\n        /* \"Campaign.sol\":5398:5411  req.approvers */\n      0x07\n      add\n        /* \"Campaign.sol\":5398:5423  req.approvers[msg.sender] */\n      0x00\n        /* \"Campaign.sol\":5412:5422  msg.sender */\n      caller\n        /* \"Campaign.sol\":5398:5423  req.approvers[msg.sender] */\n      0xffffffffffffffffffffffffffffffffffffffff\n      and\n      0xffffffffffffffffffffffffffffffffffffffff\n      and\n      dup2\n      mstore\n      0x20\n      add\n      swap1\n      dup2\n      mstore\n      0x20\n      add\n      0x00\n      keccak256\n      0x00\n        /* \"Campaign.sol\":5398:5430  req.approvers[msg.sender] = true */\n      0x0100\n      exp\n      dup2\n      sload\n      dup2\n      0xff\n      mul\n      not\n      and\n      swap1\n      dup4\n      iszero\n      iszero\n      mul\n      or\n      swap1\n      sstore\n      pop\n        /* \"Campaign.sol\":5452:5462  isApproval */\n      dup2\n        /* \"Campaign.sol\":5449:5508  if(isApproval){... */\n      iszero\n      tag_112\n      jumpi\n        /* \"Campaign.sol\":5477:5480  req */\n      dup1\n        /* \"Campaign.sol\":5477:5495  req.approvalsCount */\n      0x04\n      add\n      0x00\n        /* \"Campaign.sol\":5477:5497  req.approvalsCount++ */\n      dup2\n      sload\n      dup1\n      swap3\n      swap2\n      swap1\n      tag_113\n      swap1\n      tag_114\n      jump\t// in\n    tag_113:\n      swap2\n      swap1\n      pop\n      sstore\n      pop\n        /* \"Campaign.sol\":5449:5508  if(isApproval){... */\n    tag_112:\n        /* \"Campaign.sol\":5543:5546  req */\n      dup1\n        /* \"Campaign.sol\":5543:5564  req.requiredApprovals */\n      0x05\n      add\n      sload\n        /* \"Campaign.sol\":5521:5524  req */\n      dup2\n        /* \"Campaign.sol\":5521:5539  req.approvalsCount */\n      0x04\n      add\n      sload\n        /* \"Campaign.sol\":5521:5564  req.approvalsCount >= req.requiredApprovals */\n      lt\n        /* \"Campaign.sol\":5518:5611  if(req.approvalsCount >= req.requiredApprovals) {... */\n      tag_115\n      jumpi\n        /* \"Campaign.sol\":5596:5600  true */\n      0x01\n        /* \"Campaign.sol\":5580:5583  req */\n      dup2\n        /* \"Campaign.sol\":5580:5593  req.canSubmit */\n      0x06\n      add\n      0x00\n        /* \"Campaign.sol\":5580:5600  req.canSubmit = true */\n      0x0100\n      exp\n      dup2\n      sload\n      dup2\n      0xff\n      mul\n      not\n      and\n      swap1\n      dup4\n      iszero\n      iszero\n      mul\n      or\n      swap1\n      sstore\n      pop\n        /* \"Campaign.sol\":5518:5611  if(req.approvalsCount >= req.requiredApprovals) {... */\n    tag_115:\n        /* \"Campaign.sol\":4952:5617  {... */\n      pop\n        /* \"Campaign.sol\":4877:5617  function voteRequest(string memory reqName, bool isApproval ) external... */\n      pop\n      pop\n      jump\t// out\n        /* \"Campaign.sol\":2983:3076  function getRequestsCount() external view returns(uint){... */\n    tag_40:\n        /* \"Campaign.sol\":3033:3037  uint */\n      0x00\n        /* \"Campaign.sol\":3055:3069  _requestsCount */\n      sload(0x08)\n        /* \"Campaign.sol\":3048:3069  return _requestsCount */\n      swap1\n      pop\n        /* \"Campaign.sol\":2983:3076  function getRequestsCount() external view returns(uint){... */\n      swap1\n      jump\t// out\n        /* \"Campaign.sol\":3193:3623  function getSummary() external view returns(Summary memory)... */\n    tag_44:\n        /* \"Campaign.sol\":3237:3251  Summary memory */\n      tag_117\n      tag_118\n      jump\t// in\n    tag_117:\n        /* \"Campaign.sol\":3267:3286  Summary memory data */\n      0x00\n        /* \"Campaign.sol\":3290:3594  Summary({... */\n      mload(0x40)\n      dup1\n      0xe0\n      add\n      0x40\n      mstore\n      dup1\n        /* \"Campaign.sol\":3321:3329  _manager */\n      0x02\n      0x00\n      swap1\n      sload\n      swap1\n      0x0100\n      exp\n      swap1\n      div\n      0xffffffffffffffffffffffffffffffffffffffff\n      and\n        /* \"Campaign.sol\":3290:3594  Summary({... */\n      0xffffffffffffffffffffffffffffffffffffffff\n      and\n      dup2\n      mstore\n      0x20\n      add\n        /* \"Campaign.sol\":3349:3354  _name */\n      0x00\n        /* \"Campaign.sol\":3290:3594  Summary({... */\n      dup1\n      sload\n      tag_120\n      swap1\n      tag_95\n      jump\t// in\n    tag_120:\n      dup1\n      0x1f\n      add\n      0x20\n      dup1\n      swap2\n      div\n      mul\n      0x20\n      add\n      mload(0x40)\n      swap1\n      dup2\n      add\n      0x40\n      mstore\n      dup1\n      swap3\n      swap2\n      swap1\n      dup2\n      dup2\n      mstore\n      0x20\n      add\n      dup3\n      dup1\n      sload\n      tag_121\n      swap1\n      tag_95\n      jump\t// in\n    tag_121:\n      dup1\n      iszero\n      tag_122\n      jumpi\n      dup1\n      0x1f\n      lt\n      tag_123\n      jumpi\n      0x0100\n      dup1\n      dup4\n      sload\n      div\n      mul\n      dup4\n      mstore\n      swap2\n      0x20\n      add\n      swap2\n      jump(tag_122)\n    tag_123:\n      dup3\n      add\n      swap2\n      swap1\n      0x00\n      mstore\n      keccak256(0x00, 0x20)\n      swap1\n    tag_124:\n      dup2\n      sload\n      dup2\n      mstore\n      swap1\n      0x01\n      add\n      swap1\n      0x20\n      add\n      dup1\n      dup4\n      gt\n      tag_124\n      jumpi\n      dup3\n      swap1\n      sub\n      0x1f\n      and\n      dup3\n      add\n      swap2\n    tag_122:\n      pop\n      pop\n      pop\n      pop\n      pop\n      dup2\n      mstore\n      0x20\n      add\n        /* \"Campaign.sol\":3381:3393  _description */\n      0x01\n        /* \"Campaign.sol\":3290:3594  Summary({... */\n      dup1\n      sload\n      tag_125\n      swap1\n      tag_95\n      jump\t// in\n    tag_125:\n      dup1\n      0x1f\n      add\n      0x20\n      dup1\n      swap2\n      div\n      mul\n      0x20\n      add\n      mload(0x40)\n      swap1\n      dup2\n      add\n      0x40\n      mstore\n      dup1\n      swap3\n      swap2\n      swap1\n      dup2\n      dup2\n      mstore\n      0x20\n      add\n      dup3\n      dup1\n      sload\n      tag_126\n      swap1\n      tag_95\n      jump\t// in\n    tag_126:\n      dup1\n      iszero\n      tag_127\n      jumpi\n      dup1\n      0x1f\n      lt\n      tag_128\n      jumpi\n      0x0100\n      dup1\n      dup4\n      sload\n      div\n      mul\n      dup4\n      mstore\n      swap2\n      0x20\n      add\n      swap2\n      jump(tag_127)\n    tag_128:\n      dup3\n      add\n      swap2\n      swap1\n      0x00\n      mstore\n      keccak256(0x00, 0x20)\n      swap1\n    tag_129:\n      dup2\n      sload\n      dup2\n      mstore\n      swap1\n      0x01\n      add\n      swap1\n      0x20\n      add\n      dup1\n      dup4\n      gt\n      tag_129\n      jumpi\n      dup3\n      swap1\n      sub\n      0x1f\n      and\n      dup3\n      add\n      swap2\n    tag_127:\n      pop\n      pop\n      pop\n      pop\n      pop\n      dup2\n      mstore\n      0x20\n      add\n        /* \"Campaign.sol\":3424:3444  _minimumContribution */\n      sload(0x05)\n        /* \"Campaign.sol\":3290:3594  Summary({... */\n      dup2\n      mstore\n      0x20\n      add\n        /* \"Campaign.sol\":3467:3488  address(this).balance */\n      selfbalance\n        /* \"Campaign.sol\":3290:3594  Summary({... */\n      dup2\n      mstore\n      0x20\n      add\n        /* \"Campaign.sol\":3525:3540  _approversCount */\n      sload(0x04)\n        /* \"Campaign.sol\":3290:3594  Summary({... */\n      dup2\n      mstore\n      0x20\n      add\n        /* \"Campaign.sol\":3569:3583  _requestsCount */\n      sload(0x08)\n        /* \"Campaign.sol\":3290:3594  Summary({... */\n      dup2\n      mstore\n      pop\n        /* \"Campaign.sol\":3267:3594  Summary memory data  = Summary({... */\n      swap1\n      pop\n        /* \"Campaign.sol\":3612:3616  data */\n      dup1\n        /* \"Campaign.sol\":3605:3616  return data */\n      swap2\n      pop\n      pop\n        /* \"Campaign.sol\":3193:3623  function getSummary() external view returns(Summary memory)... */\n      swap1\n      jump\t// out\n        /* \"Campaign.sol\":2013:2055  mapping(string => Request) public requests */\n    tag_51:\n      0x07\n      dup2\n      dup1\n      mload\n      0x20\n      dup2\n      add\n      dup3\n      add\n      dup1\n      mload\n      dup5\n      dup3\n      mstore\n      0x20\n      dup4\n      add\n      0x20\n      dup6\n      add\n      keccak256\n      dup2\n      dup4\n      mstore\n      dup1\n      swap6\n      pop\n      pop\n      pop\n      pop\n      pop\n      pop\n      0x00\n      swap2\n      pop\n      swap1\n      pop\n      dup1\n      0x00\n      add\n      dup1\n      sload\n      tag_130\n      swap1\n      tag_95\n      jump\t// in\n    tag_130:\n      dup1\n      0x1f\n      add\n      0x20\n      dup1\n      swap2\n      div\n      mul\n      0x20\n      add\n      mload(0x40)\n      swap1\n      dup2\n      add\n      0x40\n      mstore\n      dup1\n      swap3\n      swap2\n      swap1\n      dup2\n      dup2\n      mstore\n      0x20\n      add\n      dup3\n      dup1\n      sload\n      tag_131\n      swap1\n      tag_95\n      jump\t// in\n    tag_131:\n      dup1\n      iszero\n      tag_132\n      jumpi\n      dup1\n      0x1f\n      lt\n      tag_133\n      jumpi\n      0x0100\n      dup1\n      dup4\n      sload\n      div\n      mul\n      dup4\n      mstore\n      swap2\n      0x20\n      add\n      swap2\n      jump(tag_132)\n    tag_133:\n      dup3\n      add\n      swap2\n      swap1\n      0x00\n      mstore\n      keccak256(0x00, 0x20)\n      swap1\n    tag_134:\n      dup2\n      sload\n      dup2\n      mstore\n      swap1\n      0x01\n      add\n      swap1\n      0x20\n      add\n      dup1\n      dup4\n      gt\n      tag_134\n      jumpi\n      dup3\n      swap1\n      sub\n      0x1f\n      and\n      dup3\n      add\n      swap2\n    tag_132:\n      pop\n      pop\n      pop\n      pop\n      pop\n      swap1\n      dup1\n      0x01\n      add\n      dup1\n      sload\n      tag_135\n      swap1\n      tag_95\n      jump\t// in\n    tag_135:\n      dup1\n      0x1f\n      add\n      0x20\n      dup1\n      swap2\n      div\n      mul\n      0x20\n      add\n      mload(0x40)\n      swap1\n      dup2\n      add\n      0x40\n      mstore\n      dup1\n      swap3\n      swap2\n      swap1\n      dup2\n      dup2\n      mstore\n      0x20\n      add\n      dup3\n      dup1\n      sload\n      tag_136\n      swap1\n      tag_95\n      jump\t// in\n    tag_136:\n      dup1\n      iszero\n      tag_137\n      jumpi\n      dup1\n      0x1f\n      lt\n      tag_138\n      jumpi\n      0x0100\n      dup1\n      dup4\n      sload\n      div\n      mul\n      dup4\n      mstore\n      swap2\n      0x20\n      add\n      swap2\n      jump(tag_137)\n    tag_138:\n      dup3\n      add\n      swap2\n      swap1\n      0x00\n      mstore\n      keccak256(0x00, 0x20)\n      swap1\n    tag_139:\n      dup2\n      sload\n      dup2\n      mstore\n      swap1\n      0x01\n      add\n      swap1\n      0x20\n      add\n      dup1\n      dup4\n      gt\n      tag_139\n      jumpi\n      dup3\n      swap1\n      sub\n      0x1f\n      and\n      dup3\n      add\n      swap2\n    tag_137:\n      pop\n      pop\n      pop\n      pop\n      pop\n      swap1\n      dup1\n      0x02\n      add\n      sload\n      swap1\n      dup1\n      0x03\n      add\n      0x00\n      swap1\n      sload\n      swap1\n      0x0100\n      exp\n      swap1\n      div\n      0xffffffffffffffffffffffffffffffffffffffff\n      and\n      swap1\n      dup1\n      0x04\n      add\n      sload\n      swap1\n      dup1\n      0x05\n      add\n      sload\n      swap1\n      dup1\n      0x06\n      add\n      0x00\n      swap1\n      sload\n      swap1\n      0x0100\n      exp\n      swap1\n      div\n      0xff\n      and\n      swap1\n      dup1\n      0x06\n      add\n      0x01\n      swap1\n      sload\n      swap1\n      0x0100\n      exp\n      swap1\n      div\n      0xff\n      and\n      swap1\n      pop\n      dup9\n      jump\t// out\n        /* \"Campaign.sol\":2876:2978  function getContractBalance() external view returns(uint){... */\n    tag_56:\n        /* \"Campaign.sol\":2928:2932  uint */\n      0x00\n        /* \"Campaign.sol\":2950:2971  address(this).balance */\n      selfbalance\n        /* \"Campaign.sol\":2943:2971  return address(this).balance */\n      swap1\n      pop\n        /* \"Campaign.sol\":2876:2978  function getContractBalance() external view returns(uint){... */\n      swap1\n      jump\t// out\n        /* \"Campaign.sol\":3081:3188  function getRequests() external view returns(RequestSummary[] memory)... */\n    tag_60:\n        /* \"Campaign.sol\":3126:3149  RequestSummary[] memory */\n      0x60\n        /* \"Campaign.sol\":3172:3181  _requests */\n      0x06\n        /* \"Campaign.sol\":3165:3181  return _requests */\n      dup1\n      sload\n      dup1\n      0x20\n      mul\n      0x20\n      add\n      mload(0x40)\n      swap1\n      dup2\n      add\n      0x40\n      mstore\n      dup1\n      swap3\n      swap2\n      swap1\n      dup2\n      dup2\n      mstore\n      0x20\n      add\n      0x00\n      swap1\n    tag_142:\n      dup3\n      dup3\n      lt\n      iszero\n      tag_143\n      jumpi\n      dup4\n      dup3\n      swap1\n      0x00\n      mstore\n      keccak256(0x00, 0x20)\n      swap1\n      0x03\n      mul\n      add\n      mload(0x40)\n      dup1\n      0x60\n      add\n      0x40\n      mstore\n      swap1\n      dup2\n      0x00\n      dup3\n      add\n      dup1\n      sload\n      tag_145\n      swap1\n      tag_95\n      jump\t// in\n    tag_145:\n      dup1\n      0x1f\n      add\n      0x20\n      dup1\n      swap2\n      div\n      mul\n      0x20\n      add\n      mload(0x40)\n      swap1\n      dup2\n      add\n      0x40\n      mstore\n      dup1\n      swap3\n      swap2\n      swap1\n      dup2\n      dup2\n      mstore\n      0x20\n      add\n      dup3\n      dup1\n      sload\n      tag_146\n      swap1\n      tag_95\n      jump\t// in\n    tag_146:\n      dup1\n      iszero\n      tag_147\n      jumpi\n      dup1\n      0x1f\n      lt\n      tag_148\n      jumpi\n      0x0100\n      dup1\n      dup4\n      sload\n      div\n      mul\n      dup4\n      mstore\n      swap2\n      0x20\n      add\n      swap2\n      jump(tag_147)\n    tag_148:\n      dup3\n      add\n      swap2\n      swap1\n      0x00\n      mstore\n      keccak256(0x00, 0x20)\n      swap1\n    tag_149:\n      dup2\n      sload\n      dup2\n      mstore\n      swap1\n      0x01\n      add\n      swap1\n      0x20\n      add\n      dup1\n      dup4\n      gt\n      tag_149\n      jumpi\n      dup3\n      swap1\n      sub\n      0x1f\n      and\n      dup3\n      add\n      swap2\n    tag_147:\n      pop\n      pop\n      pop\n      pop\n      pop\n      dup2\n      mstore\n      0x20\n      add\n      0x01\n      dup3\n      add\n      dup1\n      sload\n      tag_150\n      swap1\n      tag_95\n      jump\t// in\n    tag_150:\n      dup1\n      0x1f\n      add\n      0x20\n      dup1\n      swap2\n      div\n      mul\n      0x20\n      add\n      mload(0x40)\n      swap1\n      dup2\n      add\n      0x40\n      mstore\n      dup1\n      swap3\n      swap2\n      swap1\n      dup2\n      dup2\n      mstore\n      0x20\n      add\n      dup3\n      dup1\n      sload\n      tag_151\n      swap1\n      tag_95\n      jump\t// in\n    tag_151:\n      dup1\n      iszero\n      tag_152\n      jumpi\n      dup1\n      0x1f\n      lt\n      tag_153\n      jumpi\n      0x0100\n      dup1\n      dup4\n      sload\n      div\n      mul\n      dup4\n      mstore\n      swap2\n      0x20\n      add\n      swap2\n      jump(tag_152)\n    tag_153:\n      dup3\n      add\n      swap2\n      swap1\n      0x00\n      mstore\n      keccak256(0x00, 0x20)\n      swap1\n    tag_154:\n      dup2\n      sload\n      dup2\n      mstore\n      swap1\n      0x01\n      add\n      swap1\n      0x20\n      add\n      dup1\n      dup4\n      gt\n      tag_154\n      jumpi\n      dup3\n      swap1\n      sub\n      0x1f\n      and\n      dup3\n      add\n      swap2\n    tag_152:\n      pop\n      pop\n      pop\n      pop\n      pop\n      dup2\n      mstore\n      0x20\n      add\n      0x02\n      dup3\n      add\n      sload\n      dup2\n      mstore\n      pop\n      pop\n      dup2\n      mstore\n      0x20\n      add\n      swap1\n      0x01\n      add\n      swap1\n      jump(tag_142)\n    tag_143:\n      pop\n      pop\n      pop\n      pop\n      swap1\n      pop\n        /* \"Campaign.sol\":3081:3188  function getRequests() external view returns(RequestSummary[] memory)... */\n      swap1\n      jump\t// out\n        /* \"Campaign.sol\":2450:2548  function getCampaignName() external view returns (string memory)... */\n    tag_65:\n        /* \"Campaign.sol\":2500:2513  string memory */\n      0x60\n        /* \"Campaign.sol\":2536:2541  _name */\n      0x00\n        /* \"Campaign.sol\":2529:2541  return _name */\n      dup1\n      sload\n      tag_156\n      swap1\n      tag_95\n      jump\t// in\n    tag_156:\n      dup1\n      0x1f\n      add\n      0x20\n      dup1\n      swap2\n      div\n      mul\n      0x20\n      add\n      mload(0x40)\n      swap1\n      dup2\n      add\n      0x40\n      mstore\n      dup1\n      swap3\n      swap2\n      swap1\n      dup2\n      dup2\n      mstore\n      0x20\n      add\n      dup3\n      dup1\n      sload\n      tag_157\n      swap1\n      tag_95\n      jump\t// in\n    tag_157:\n      dup1\n      iszero\n      tag_158\n      jumpi\n      dup1\n      0x1f\n      lt\n      tag_159\n      jumpi\n      0x0100\n      dup1\n      dup4\n      sload\n      div\n      mul\n      dup4\n      mstore\n      swap2\n      0x20\n      add\n      swap2\n      jump(tag_158)\n    tag_159:\n      dup3\n      add\n      swap2\n      swap1\n      0x00\n      mstore\n      keccak256(0x00, 0x20)\n      swap1\n    tag_160:\n      dup2\n      sload\n      dup2\n      mstore\n      swap1\n      0x01\n      add\n      swap1\n      0x20\n      add\n      dup1\n      dup4\n      gt\n      tag_160\n      jumpi\n      dup3\n      swap1\n      sub\n      0x1f\n      and\n      dup3\n      add\n      swap2\n    tag_158:\n      pop\n      pop\n      pop\n      pop\n      pop\n      swap1\n      pop\n        /* \"Campaign.sol\":2450:2548  function getCampaignName() external view returns (string memory)... */\n      swap1\n      jump\t// out\n        /* \"Campaign.sol\":3850:3913  function addFunds() restricted external payable{... */\n    tag_68:\n        /* \"Campaign.sol\":6092:6100  _manager */\n      0x02\n      0x00\n      swap1\n      sload\n      swap1\n      0x0100\n      exp\n      swap1\n      div\n      0xffffffffffffffffffffffffffffffffffffffff\n      and\n        /* \"Campaign.sol\":6078:6100  msg.sender == _manager */\n      0xffffffffffffffffffffffffffffffffffffffff\n      and\n        /* \"Campaign.sol\":6078:6088  msg.sender */\n      caller\n        /* \"Campaign.sol\":6078:6100  msg.sender == _manager */\n      0xffffffffffffffffffffffffffffffffffffffff\n      and\n      eq\n        /* \"Campaign.sol\":6070:6101  require(msg.sender == _manager) */\n      tag_162\n      jumpi\n      0x00\n      dup1\n      revert\n    tag_162:\n        /* \"Campaign.sol\":3850:3913  function addFunds() restricted external payable{... */\n      jump\t// out\n        /* \"Campaign.sol\":3919:4871  function triggerCampaignRequest(string memory name, string memory description, uint amount, uint requiredApprovals, address payable receiver) restricted external {... */\n    tag_73:\n        /* \"Campaign.sol\":6092:6100  _manager */\n      0x02\n      0x00\n      swap1\n      sload\n      swap1\n      0x0100\n      exp\n      swap1\n      div\n      0xffffffffffffffffffffffffffffffffffffffff\n      and\n        /* \"Campaign.sol\":6078:6100  msg.sender == _manager */\n      0xffffffffffffffffffffffffffffffffffffffff\n      and\n        /* \"Campaign.sol\":6078:6088  msg.sender */\n      caller\n        /* \"Campaign.sol\":6078:6100  msg.sender == _manager */\n      0xffffffffffffffffffffffffffffffffffffffff\n      and\n      eq\n        /* \"Campaign.sol\":6070:6101  require(msg.sender == _manager) */\n      tag_165\n      jumpi\n      0x00\n      dup1\n      revert\n    tag_165:\n        /* \"Campaign.sol\":4129:4130  0 */\n      0x00\n        /* \"Campaign.sol\":4114:4118  name */\n      dup6\n        /* \"Campaign.sol\":4108:4126  bytes(name).length */\n      mload\n        /* \"Campaign.sol\":4108:4130  bytes(name).length > 0 */\n      gt\n        /* \"Campaign.sol\":4100:4131  require(bytes(name).length > 0) */\n      tag_167\n      jumpi\n      0x00\n      dup1\n      revert\n    tag_167:\n        /* \"Campaign.sol\":4177:4178  0 */\n      0x00\n        /* \"Campaign.sol\":4155:4166  description */\n      dup5\n        /* \"Campaign.sol\":4149:4174  bytes(description).length */\n      mload\n        /* \"Campaign.sol\":4149:4178  bytes(description).length > 0 */\n      gt\n        /* \"Campaign.sol\":4141:4179  require(bytes(description).length > 0) */\n      tag_168\n      jumpi\n      0x00\n      dup1\n      revert\n    tag_168:\n        /* \"Campaign.sol\":4206:4207  0 */\n      0x00\n        /* \"Campaign.sol\":4197:4203  amount */\n      dup4\n        /* \"Campaign.sol\":4197:4207  amount > 0 */\n      gt\n        /* \"Campaign.sol\":4189:4208  require(amount > 0) */\n      tag_169\n      jumpi\n      0x00\n      dup1\n      revert\n    tag_169:\n        /* \"Campaign.sol\":4236:4257  address(this).balance */\n      selfbalance\n        /* \"Campaign.sol\":4226:4232  amount */\n      dup4\n        /* \"Campaign.sol\":4226:4257  amount <= address(this).balance */\n      gt\n      iszero\n        /* \"Campaign.sol\":4218:4258  require(amount <= address(this).balance) */\n      tag_170\n      jumpi\n      0x00\n      dup1\n      revert\n    tag_170:\n        /* \"Campaign.sol\":4296:4297  0 */\n      0x00\n        /* \"Campaign.sol\":4276:4293  requiredApprovals */\n      dup3\n        /* \"Campaign.sol\":4276:4297  requiredApprovals > 0 */\n      gt\n        /* \"Campaign.sol\":4268:4298  require(requiredApprovals > 0) */\n      tag_171\n      jumpi\n      0x00\n      dup1\n      revert\n    tag_171:\n        /* \"Campaign.sol\":4337:4352  _approversCount */\n      sload(0x04)\n        /* \"Campaign.sol\":4316:4333  requiredApprovals */\n      dup3\n        /* \"Campaign.sol\":4316:4352  requiredApprovals <= _approversCount */\n      gt\n      iszero\n        /* \"Campaign.sol\":4308:4353  require(requiredApprovals <= _approversCount) */\n      tag_172\n      jumpi\n      0x00\n      dup1\n      revert\n    tag_172:\n        /* \"Campaign.sol\":4363:4382  Request storage req */\n      0x00\n        /* \"Campaign.sol\":4385:4393  requests */\n      0x07\n        /* \"Campaign.sol\":4394:4398  name */\n      dup7\n        /* \"Campaign.sol\":4385:4399  requests[name] */\n      mload(0x40)\n      tag_173\n      swap2\n      swap1\n      tag_103\n      jump\t// in\n    tag_173:\n      swap1\n      dup2\n      mstore\n      0x20\n      add\n      mload(0x40)\n      dup1\n      swap2\n      sub\n      swap1\n      keccak256\n        /* \"Campaign.sol\":4363:4399  Request storage req = requests[name] */\n      swap1\n      pop\n        /* \"Campaign.sol\":4428:4432  name */\n      dup6\n        /* \"Campaign.sol\":4418:4421  req */\n      dup2\n        /* \"Campaign.sol\":4418:4426  req.name */\n      0x00\n      add\n        /* \"Campaign.sol\":4418:4432  req.name= name */\n      swap1\n      dup2\n      tag_174\n      swap2\n      swap1\n      tag_175\n      jump\t// in\n    tag_174:\n      pop\n        /* \"Campaign.sol\":4460:4471  description */\n      dup5\n        /* \"Campaign.sol\":4442:4445  req */\n      dup2\n        /* \"Campaign.sol\":4442:4457  req.description */\n      0x01\n      add\n        /* \"Campaign.sol\":4442:4471  req.description = description */\n      swap1\n      dup2\n      tag_176\n      swap2\n      swap1\n      tag_175\n      jump\t// in\n    tag_176:\n      pop\n        /* \"Campaign.sol\":4494:4500  amount */\n      dup4\n        /* \"Campaign.sol\":4481:4484  req */\n      dup2\n        /* \"Campaign.sol\":4481:4491  req.amount */\n      0x02\n      add\n        /* \"Campaign.sol\":4481:4500  req.amount = amount */\n      dup2\n      swap1\n      sstore\n      pop\n        /* \"Campaign.sol\":4525:4533  receiver */\n      dup2\n        /* \"Campaign.sol\":4510:4513  req */\n      dup2\n        /* \"Campaign.sol\":4510:4522  req.receiver */\n      0x03\n      add\n      0x00\n        /* \"Campaign.sol\":4510:4533  req.receiver = receiver */\n      0x0100\n      exp\n      dup2\n      sload\n      dup2\n      0xffffffffffffffffffffffffffffffffffffffff\n      mul\n      not\n      and\n      swap1\n      dup4\n      0xffffffffffffffffffffffffffffffffffffffff\n      and\n      mul\n      or\n      swap1\n      sstore\n      pop\n        /* \"Campaign.sol\":4564:4565  0 */\n      0x00\n        /* \"Campaign.sol\":4543:4546  req */\n      dup2\n        /* \"Campaign.sol\":4543:4561  req.approvalsCount */\n      0x04\n      add\n        /* \"Campaign.sol\":4543:4565  req.approvalsCount=  0 */\n      dup2\n      swap1\n      sstore\n      pop\n        /* \"Campaign.sol\":4599:4616  requiredApprovals */\n      dup3\n        /* \"Campaign.sol\":4575:4578  req */\n      dup2\n        /* \"Campaign.sol\":4575:4596  req.requiredApprovals */\n      0x05\n      add\n        /* \"Campaign.sol\":4575:4616  req.requiredApprovals = requiredApprovals */\n      dup2\n      swap1\n      sstore\n      pop\n        /* \"Campaign.sol\":4640:4645  false */\n      0x00\n        /* \"Campaign.sol\":4626:4629  req */\n      dup2\n        /* \"Campaign.sol\":4626:4638  req.complete */\n      0x06\n      add\n      0x01\n        /* \"Campaign.sol\":4626:4645  req.complete= false */\n      0x0100\n      exp\n      dup2\n      sload\n      dup2\n      0xff\n      mul\n      not\n      and\n      swap1\n      dup4\n      iszero\n      iszero\n      mul\n      or\n      swap1\n      sstore\n      pop\n        /* \"Campaign.sol\":4656:4670  _requestsCount */\n      0x08\n      0x00\n        /* \"Campaign.sol\":4656:4672  _requestsCount++ */\n      dup2\n      sload\n      dup1\n      swap3\n      swap2\n      swap1\n      tag_177\n      swap1\n      tag_114\n      jump\t// in\n    tag_177:\n      swap2\n      swap1\n      pop\n      sstore\n      pop\n        /* \"Campaign.sol\":4682:4711  RequestSummary memory summary */\n      0x00\n        /* \"Campaign.sol\":4714:4830  RequestSummary({... */\n      mload(0x40)\n      dup1\n      0x60\n      add\n      0x40\n      mstore\n      dup1\n        /* \"Campaign.sol\":4749:4753  name */\n      dup9\n        /* \"Campaign.sol\":4714:4830  RequestSummary({... */\n      dup2\n      mstore\n      0x20\n      add\n        /* \"Campaign.sol\":4780:4791  description */\n      dup8\n        /* \"Campaign.sol\":4714:4830  RequestSummary({... */\n      dup2\n      mstore\n      0x20\n      add\n        /* \"Campaign.sol\":4813:4819  amount */\n      dup7\n        /* \"Campaign.sol\":4714:4830  RequestSummary({... */\n      dup2\n      mstore\n      pop\n        /* \"Campaign.sol\":4682:4830  RequestSummary memory summary = RequestSummary({... */\n      swap1\n      pop\n        /* \"Campaign.sol\":4841:4850  _requests */\n      0x06\n        /* \"Campaign.sol\":4856:4863  summary */\n      dup2\n        /* \"Campaign.sol\":4841:4864  _requests.push(summary) */\n      swap1\n      dup1\n      0x01\n      dup2\n      sload\n      add\n      dup1\n      dup3\n      sstore\n      dup1\n      swap2\n      pop\n      pop\n      0x01\n      swap1\n      sub\n      swap1\n      0x00\n      mstore\n      keccak256(0x00, 0x20)\n      swap1\n      0x03\n      mul\n      add\n      0x00\n      swap1\n      swap2\n      swap1\n      swap2\n      swap1\n      swap2\n      pop\n      0x00\n      dup3\n      add\n      mload\n      dup2\n      0x00\n      add\n      swap1\n      dup2\n      tag_179\n      swap2\n      swap1\n      tag_175\n      jump\t// in\n    tag_179:\n      pop\n      0x20\n      dup3\n      add\n      mload\n      dup2\n      0x01\n      add\n      swap1\n      dup2\n      tag_180\n      swap2\n      swap1\n      tag_175\n      jump\t// in\n    tag_180:\n      pop\n      0x40\n      dup3\n      add\n      mload\n      dup2\n      0x02\n      add\n      sstore\n      pop\n      pop\n        /* \"Campaign.sol\":4081:4871  {... */\n      pop\n      pop\n        /* \"Campaign.sol\":3919:4871  function triggerCampaignRequest(string memory name, string memory description, uint amount, uint requiredApprovals, address payable receiver) restricted external {... */\n      pop\n      pop\n      pop\n      pop\n      pop\n      jump\t// out\n        /* \"Campaign.sol\":2354:2444  function getManager() external view returns (address)... */\n    tag_76:\n        /* \"Campaign.sol\":2399:2406  address */\n      0x00\n        /* \"Campaign.sol\":2429:2437  _manager */\n      0x02\n      0x00\n      swap1\n      sload\n      swap1\n      0x0100\n      exp\n      swap1\n      div\n      0xffffffffffffffffffffffffffffffffffffffff\n      and\n        /* \"Campaign.sol\":2422:2437  return _manager */\n      swap1\n      pop\n        /* \"Campaign.sol\":2354:2444  function getManager() external view returns (address)... */\n      swap1\n      jump\t// out\n        /* \"Campaign.sol\":3629:3844  function contribute() public payable {... */\n    tag_80:\n        /* \"Campaign.sol\":3697:3717  _minimumContribution */\n      sload(0x05)\n        /* \"Campaign.sol\":3684:3693  msg.value */\n      callvalue\n        /* \"Campaign.sol\":3684:3717  msg.value >= _minimumContribution */\n      lt\n      iszero\n        /* \"Campaign.sol\":3676:3718  require(msg.value >= _minimumContribution) */\n      tag_183\n      jumpi\n      0x00\n      dup1\n      revert\n    tag_183:\n        /* \"Campaign.sol\":3762:3763  0 */\n      0x00\n        /* \"Campaign.sol\":3737:3746  approvers */\n      0x03\n        /* \"Campaign.sol\":3737:3758  approvers[msg.sender] */\n      0x00\n        /* \"Campaign.sol\":3747:3757  msg.sender */\n      caller\n        /* \"Campaign.sol\":3737:3758  approvers[msg.sender] */\n      0xffffffffffffffffffffffffffffffffffffffff\n      and\n      0xffffffffffffffffffffffffffffffffffffffff\n      and\n      dup2\n      mstore\n      0x20\n      add\n      swap1\n      dup2\n      mstore\n      0x20\n      add\n      0x00\n      keccak256\n      sload\n        /* \"Campaign.sol\":3737:3763  approvers[msg.sender] == 0 */\n      eq\n        /* \"Campaign.sol\":3729:3764  require(approvers[msg.sender] == 0) */\n      tag_184\n      jumpi\n      0x00\n      dup1\n      revert\n    tag_184:\n        /* \"Campaign.sol\":3799:3808  msg.value */\n      callvalue\n        /* \"Campaign.sol\":3774:3783  approvers */\n      0x03\n        /* \"Campaign.sol\":3774:3795  approvers[msg.sender] */\n      0x00\n        /* \"Campaign.sol\":3784:3794  msg.sender */\n      caller\n        /* \"Campaign.sol\":3774:3795  approvers[msg.sender] */\n      0xffffffffffffffffffffffffffffffffffffffff\n      and\n      0xffffffffffffffffffffffffffffffffffffffff\n      and\n      dup2\n      mstore\n      0x20\n      add\n      swap1\n      dup2\n      mstore\n      0x20\n      add\n      0x00\n      keccak256\n        /* \"Campaign.sol\":3774:3809  approvers[msg.sender] = (msg.value) */\n      dup2\n      swap1\n      sstore\n      pop\n        /* \"Campaign.sol\":3819:3834  _approversCount */\n      0x04\n      0x00\n        /* \"Campaign.sol\":3819:3836  _approversCount++ */\n      dup2\n      sload\n      dup1\n      swap3\n      swap2\n      swap1\n      tag_185\n      swap1\n      tag_114\n      jump\t// in\n    tag_185:\n      swap2\n      swap1\n      pop\n      sstore\n      pop\n        /* \"Campaign.sol\":3629:3844  function contribute() public payable {... */\n      jump\t// out\n        /* \"Campaign.sol\":5623:6032  function submitRequest(string memory reqName) restricted external {... */\n    tag_84:\n        /* \"Campaign.sol\":6092:6100  _manager */\n      0x02\n      0x00\n      swap1\n      sload\n      swap1\n      0x0100\n      exp\n      swap1\n      div\n      0xffffffffffffffffffffffffffffffffffffffff\n      and\n        /* \"Campaign.sol\":6078:6100  msg.sender == _manager */\n      0xffffffffffffffffffffffffffffffffffffffff\n      and\n        /* \"Campaign.sol\":6078:6088  msg.sender */\n      caller\n        /* \"Campaign.sol\":6078:6100  msg.sender == _manager */\n      0xffffffffffffffffffffffffffffffffffffffff\n      and\n      eq\n        /* \"Campaign.sol\":6070:6101  require(msg.sender == _manager) */\n      tag_187\n      jumpi\n      0x00\n      dup1\n      revert\n    tag_187:\n        /* \"Campaign.sol\":5699:5718  Request storage req */\n      0x00\n        /* \"Campaign.sol\":5721:5729  requests */\n      0x07\n        /* \"Campaign.sol\":5730:5737  reqName */\n      dup3\n        /* \"Campaign.sol\":5721:5738  requests[reqName] */\n      mload(0x40)\n      tag_189\n      swap2\n      swap1\n      tag_103\n      jump\t// in\n    tag_189:\n      swap1\n      dup2\n      mstore\n      0x20\n      add\n      mload(0x40)\n      dup1\n      swap2\n      sub\n      swap1\n      keccak256\n        /* \"Campaign.sol\":5699:5738  Request storage req = requests[reqName] */\n      swap1\n      pop\n        /* \"Campaign.sol\":5781:5782  0 */\n      0x00\n        /* \"Campaign.sol\":5762:5765  req */\n      dup2\n        /* \"Campaign.sol\":5762:5770  req.name */\n      0x00\n      add\n        /* \"Campaign.sol\":5756:5778  bytes(req.name).length */\n      dup1\n      sload\n      tag_190\n      swap1\n      tag_95\n      jump\t// in\n    tag_190:\n      swap1\n      pop\n        /* \"Campaign.sol\":5756:5782  bytes(req.name).length > 0 */\n      gt\n        /* \"Campaign.sol\":5748:5783  require(bytes(req.name).length > 0) */\n      tag_191\n      jumpi\n      0x00\n      dup1\n      revert\n    tag_191:\n        /* \"Campaign.sol\":5833:5840  reqName */\n      dup2\n        /* \"Campaign.sol\":5827:5848  bytes(reqName).length */\n      mload\n        /* \"Campaign.sol\":5807:5810  req */\n      dup2\n        /* \"Campaign.sol\":5807:5815  req.name */\n      0x00\n      add\n        /* \"Campaign.sol\":5801:5823  bytes(req.name).length */\n      dup1\n      sload\n      tag_192\n      swap1\n      tag_95\n      jump\t// in\n    tag_192:\n      swap1\n      pop\n        /* \"Campaign.sol\":5801:5848  bytes(req.name).length == bytes(reqName).length */\n      eq\n        /* \"Campaign.sol\":5793:5849  require(bytes(req.name).length == bytes(reqName).length) */\n      tag_193\n      jumpi\n      0x00\n      dup1\n      revert\n    tag_193:\n        /* \"Campaign.sol\":5867:5870  req */\n      dup1\n        /* \"Campaign.sol\":5867:5880  req.canSubmit */\n      0x06\n      add\n      0x00\n      swap1\n      sload\n      swap1\n      0x0100\n      exp\n      swap1\n      div\n      0xff\n      and\n        /* \"Campaign.sol\":5867:5897  req.canSubmit && !req.complete */\n      dup1\n      iszero\n      tag_194\n      jumpi\n      pop\n        /* \"Campaign.sol\":5885:5888  req */\n      dup1\n        /* \"Campaign.sol\":5885:5897  req.complete */\n      0x06\n      add\n      0x01\n      swap1\n      sload\n      swap1\n      0x0100\n      exp\n      swap1\n      div\n      0xff\n      and\n        /* \"Campaign.sol\":5884:5897  !req.complete */\n      iszero\n        /* \"Campaign.sol\":5867:5897  req.canSubmit && !req.complete */\n    tag_194:\n        /* \"Campaign.sol\":5859:5898  require(req.canSubmit && !req.complete) */\n      tag_195\n      jumpi\n      0x00\n      dup1\n      revert\n    tag_195:\n        /* \"Campaign.sol\":5941:5944  req */\n      dup1\n        /* \"Campaign.sol\":5941:5951  req.amount */\n      0x02\n      add\n      sload\n        /* \"Campaign.sol\":5916:5937  address(this).balance */\n      selfbalance\n        /* \"Campaign.sol\":5916:5951  address(this).balance >= req.amount */\n      lt\n      iszero\n        /* \"Campaign.sol\":5908:5952  require(address(this).balance >= req.amount) */\n      tag_196\n      jumpi\n      0x00\n      dup1\n      revert\n    tag_196:\n        /* \"Campaign.sol\":5962:5965  req */\n      dup1\n        /* \"Campaign.sol\":5962:5974  req.receiver */\n      0x03\n      add\n      0x00\n      swap1\n      sload\n      swap1\n      0x0100\n      exp\n      swap1\n      div\n      0xffffffffffffffffffffffffffffffffffffffff\n      and\n        /* \"Campaign.sol\":5962:5983  req.receiver.transfer */\n      0xffffffffffffffffffffffffffffffffffffffff\n      and\n        /* \"Campaign.sol\":5962:5995  req.receiver.transfer(req.amount) */\n      0x08fc\n        /* \"Campaign.sol\":5984:5987  req */\n      dup3\n        /* \"Campaign.sol\":5984:5994  req.amount */\n      0x02\n      add\n      sload\n        /* \"Campaign.sol\":5962:5995  req.receiver.transfer(req.amount) */\n      swap1\n      dup2\n      iszero\n      mul\n      swap1\n      mload(0x40)\n      0x00\n      mload(0x40)\n      dup1\n      dup4\n      sub\n      dup2\n      dup6\n      dup9\n      dup9\n      call\n      swap4\n      pop\n      pop\n      pop\n      pop\n      iszero\n      dup1\n      iszero\n      tag_198\n      jumpi\n      returndatasize\n      0x00\n      dup1\n      returndatacopy\n      revert(0x00, returndatasize)\n    tag_198:\n      pop\n        /* \"Campaign.sol\":6021:6025  true */\n      0x01\n        /* \"Campaign.sol\":6006:6009  req */\n      dup2\n        /* \"Campaign.sol\":6006:6018  req.complete */\n      0x06\n      add\n      0x01\n        /* \"Campaign.sol\":6006:6025  req.complete = true */\n      0x0100\n      exp\n      dup2\n      sload\n      dup2\n      0xff\n      mul\n      not\n      and\n      swap1\n      dup4\n      iszero\n      iszero\n      mul\n      or\n      swap1\n      sstore\n      pop\n        /* \"Campaign.sol\":5689:6032  {... */\n      pop\n        /* \"Campaign.sol\":5623:6032  function submitRequest(string memory reqName) restricted external {... */\n      pop\n      jump\t// out\n        /* \"Campaign.sol\":2765:2870  function getMinimumContribution() external view returns(uint){... */\n    tag_87:\n        /* \"Campaign.sol\":2821:2825  uint */\n      0x00\n        /* \"Campaign.sol\":2843:2863  _minimumContribution */\n      sload(0x05)\n        /* \"Campaign.sol\":2836:2863  return _minimumContribution */\n      swap1\n      pop\n        /* \"Campaign.sol\":2765:2870  function getMinimumContribution() external view returns(uint){... */\n      swap1\n      jump\t// out\n        /* \"Campaign.sol\":2662:2760  function getContributorsCount() external view returns(uint){... */\n    tag_91:\n        /* \"Campaign.sol\":2716:2720  uint */\n      0x00\n        /* \"Campaign.sol\":2738:2753  _approversCount */\n      sload(0x04)\n        /* \"Campaign.sol\":2731:2753  return _approversCount */\n      swap1\n      pop\n        /* \"Campaign.sol\":2662:2760  function getContributorsCount() external view returns(uint){... */\n      swap1\n      jump\t// out\n    tag_118:\n      mload(0x40)\n      dup1\n      0xe0\n      add\n      0x40\n      mstore\n      dup1\n      and(0xffffffffffffffffffffffffffffffffffffffff, 0x00)\n      dup2\n      mstore\n      0x20\n      add\n      0x60\n      dup2\n      mstore\n      0x20\n      add\n      0x60\n      dup2\n      mstore\n      0x20\n      add\n      0x00\n      dup2\n      mstore\n      0x20\n      add\n      0x00\n      dup2\n      mstore\n      0x20\n      add\n      0x00\n      dup2\n      mstore\n      0x20\n      add\n      0x00\n      dup2\n      mstore\n      pop\n      swap1\n      jump\t// out\n        /* \"#utility.yul\":7:82   */\n    tag_201:\n        /* \"#utility.yul\":40:46   */\n      0x00\n        /* \"#utility.yul\":73:75   */\n      0x40\n        /* \"#utility.yul\":67:76   */\n      mload\n        /* \"#utility.yul\":57:76   */\n      swap1\n      pop\n        /* \"#utility.yul\":7:82   */\n      swap1\n      jump\t// out\n        /* \"#utility.yul\":88:205   */\n    tag_202:\n        /* \"#utility.yul\":197:198   */\n      0x00\n        /* \"#utility.yul\":194:195   */\n      dup1\n        /* \"#utility.yul\":187:199   */\n      revert\n        /* \"#utility.yul\":211:328   */\n    tag_203:\n        /* \"#utility.yul\":320:321   */\n      0x00\n        /* \"#utility.yul\":317:318   */\n      dup1\n        /* \"#utility.yul\":310:322   */\n      revert\n        /* \"#utility.yul\":334:460   */\n    tag_204:\n        /* \"#utility.yul\":371:378   */\n      0x00\n        /* \"#utility.yul\":411:453   */\n      0xffffffffffffffffffffffffffffffffffffffff\n        /* \"#utility.yul\":404:409   */\n      dup3\n        /* \"#utility.yul\":400:454   */\n      and\n        /* \"#utility.yul\":389:454   */\n      swap1\n      pop\n        /* \"#utility.yul\":334:460   */\n      swap2\n      swap1\n      pop\n      jump\t// out\n        /* \"#utility.yul\":466:562   */\n    tag_205:\n        /* \"#utility.yul\":503:510   */\n      0x00\n        /* \"#utility.yul\":532:556   */\n      tag_272\n        /* \"#utility.yul\":550:555   */\n      dup3\n        /* \"#utility.yul\":532:556   */\n      tag_204\n      jump\t// in\n    tag_272:\n        /* \"#utility.yul\":521:556   */\n      swap1\n      pop\n        /* \"#utility.yul\":466:562   */\n      swap2\n      swap1\n      pop\n      jump\t// out\n        /* \"#utility.yul\":568:690   */\n    tag_206:\n        /* \"#utility.yul\":641:665   */\n      tag_274\n        /* \"#utility.yul\":659:664   */\n      dup2\n        /* \"#utility.yul\":641:665   */\n      tag_205\n      jump\t// in\n    tag_274:\n        /* \"#utility.yul\":634:639   */\n      dup2\n        /* \"#utility.yul\":631:666   */\n      eq\n        /* \"#utility.yul\":621:684   */\n      tag_275\n      jumpi\n        /* \"#utility.yul\":680:681   */\n      0x00\n        /* \"#utility.yul\":677:678   */\n      dup1\n        /* \"#utility.yul\":670:682   */\n      revert\n        /* \"#utility.yul\":621:684   */\n    tag_275:\n        /* \"#utility.yul\":568:690   */\n      pop\n      jump\t// out\n        /* \"#utility.yul\":696:835   */\n    tag_207:\n        /* \"#utility.yul\":742:747   */\n      0x00\n        /* \"#utility.yul\":780:786   */\n      dup2\n        /* \"#utility.yul\":767:787   */\n      calldataload\n        /* \"#utility.yul\":758:787   */\n      swap1\n      pop\n        /* \"#utility.yul\":796:829   */\n      tag_277\n        /* \"#utility.yul\":823:828   */\n      dup2\n        /* \"#utility.yul\":796:829   */\n      tag_206\n      jump\t// in\n    tag_277:\n        /* \"#utility.yul\":696:835   */\n      swap3\n      swap2\n      pop\n      pop\n      jump\t// out\n        /* \"#utility.yul\":841:1170   */\n    tag_24:\n        /* \"#utility.yul\":900:906   */\n      0x00\n        /* \"#utility.yul\":949:951   */\n      0x20\n        /* \"#utility.yul\":937:946   */\n      dup3\n        /* \"#utility.yul\":928:935   */\n      dup5\n        /* \"#utility.yul\":924:947   */\n      sub\n        /* \"#utility.yul\":920:952   */\n      slt\n        /* \"#utility.yul\":917:1036   */\n      iszero\n      tag_279\n      jumpi\n        /* \"#utility.yul\":955:1034   */\n      tag_280\n      tag_202\n      jump\t// in\n    tag_280:\n        /* \"#utility.yul\":917:1036   */\n    tag_279:\n        /* \"#utility.yul\":1075:1076   */\n      0x00\n        /* \"#utility.yul\":1100:1153   */\n      tag_281\n        /* \"#utility.yul\":1145:1152   */\n      dup5\n        /* \"#utility.yul\":1136:1142   */\n      dup3\n        /* \"#utility.yul\":1125:1134   */\n      dup6\n        /* \"#utility.yul\":1121:1143   */\n      add\n        /* \"#utility.yul\":1100:1153   */\n      tag_207\n      jump\t// in\n    tag_281:\n        /* \"#utility.yul\":1090:1153   */\n      swap2\n      pop\n        /* \"#utility.yul\":1046:1163   */\n      pop\n        /* \"#utility.yul\":841:1170   */\n      swap3\n      swap2\n      pop\n      pop\n      jump\t// out\n        /* \"#utility.yul\":1176:1253   */\n    tag_208:\n        /* \"#utility.yul\":1213:1220   */\n      0x00\n        /* \"#utility.yul\":1242:1247   */\n      dup2\n        /* \"#utility.yul\":1231:1247   */\n      swap1\n      pop\n        /* \"#utility.yul\":1176:1253   */\n      swap2\n      swap1\n      pop\n      jump\t// out\n        /* \"#utility.yul\":1259:1377   */\n    tag_209:\n        /* \"#utility.yul\":1346:1370   */\n      tag_284\n        /* \"#utility.yul\":1364:1369   */\n      dup2\n        /* \"#utility.yul\":1346:1370   */\n      tag_208\n      jump\t// in\n    tag_284:\n        /* \"#utility.yul\":1341:1344   */\n      dup3\n        /* \"#utility.yul\":1334:1371   */\n      mstore\n        /* \"#utility.yul\":1259:1377   */\n      pop\n      pop\n      jump\t// out\n        /* \"#utility.yul\":1383:1605   */\n    tag_27:\n        /* \"#utility.yul\":1476:1480   */\n      0x00\n        /* \"#utility.yul\":1514:1516   */\n      0x20\n        /* \"#utility.yul\":1503:1512   */\n      dup3\n        /* \"#utility.yul\":1499:1517   */\n      add\n        /* \"#utility.yul\":1491:1517   */\n      swap1\n      pop\n        /* \"#utility.yul\":1527:1598   */\n      tag_286\n        /* \"#utility.yul\":1595:1596   */\n      0x00\n        /* \"#utility.yul\":1584:1593   */\n      dup4\n        /* \"#utility.yul\":1580:1597   */\n      add\n        /* \"#utility.yul\":1571:1577   */\n      dup5\n        /* \"#utility.yul\":1527:1598   */\n      tag_209\n      jump\t// in\n    tag_286:\n        /* \"#utility.yul\":1383:1605   */\n      swap3\n      swap2\n      pop\n      pop\n      jump\t// out\n        /* \"#utility.yul\":1611:1710   */\n    tag_210:\n        /* \"#utility.yul\":1663:1669   */\n      0x00\n        /* \"#utility.yul\":1697:1702   */\n      dup2\n        /* \"#utility.yul\":1691:1703   */\n      mload\n        /* \"#utility.yul\":1681:1703   */\n      swap1\n      pop\n        /* \"#utility.yul\":1611:1710   */\n      swap2\n      swap1\n      pop\n      jump\t// out\n        /* \"#utility.yul\":1716:1885   */\n    tag_211:\n        /* \"#utility.yul\":1800:1811   */\n      0x00\n        /* \"#utility.yul\":1834:1840   */\n      dup3\n        /* \"#utility.yul\":1829:1832   */\n      dup3\n        /* \"#utility.yul\":1822:1841   */\n      mstore\n        /* \"#utility.yul\":1874:1878   */\n      0x20\n        /* \"#utility.yul\":1869:1872   */\n      dup3\n        /* \"#utility.yul\":1865:1879   */\n      add\n        /* \"#utility.yul\":1850:1879   */\n      swap1\n      pop\n        /* \"#utility.yul\":1716:1885   */\n      swap3\n      swap2\n      pop\n      pop\n      jump\t// out\n        /* \"#utility.yul\":1891:2137   */\n    tag_212:\n        /* \"#utility.yul\":1972:1973   */\n      0x00\n        /* \"#utility.yul\":1982:2095   */\n    tag_290:\n        /* \"#utility.yul\":1996:2002   */\n      dup4\n        /* \"#utility.yul\":1993:1994   */\n      dup2\n        /* \"#utility.yul\":1990:2003   */\n      lt\n        /* \"#utility.yul\":1982:2095   */\n      iszero\n      tag_292\n      jumpi\n        /* \"#utility.yul\":2081:2082   */\n      dup1\n        /* \"#utility.yul\":2076:2079   */\n      dup3\n        /* \"#utility.yul\":2072:2083   */\n      add\n        /* \"#utility.yul\":2066:2084   */\n      mload\n        /* \"#utility.yul\":2062:2063   */\n      dup2\n        /* \"#utility.yul\":2057:2060   */\n      dup5\n        /* \"#utility.yul\":2053:2064   */\n      add\n        /* \"#utility.yul\":2046:2085   */\n      mstore\n        /* \"#utility.yul\":2018:2020   */\n      0x20\n        /* \"#utility.yul\":2015:2016   */\n      dup2\n        /* \"#utility.yul\":2011:2021   */\n      add\n        /* \"#utility.yul\":2006:2021   */\n      swap1\n      pop\n        /* \"#utility.yul\":1982:2095   */\n      jump(tag_290)\n    tag_292:\n        /* \"#utility.yul\":2129:2130   */\n      0x00\n        /* \"#utility.yul\":2120:2126   */\n      dup5\n        /* \"#utility.yul\":2115:2118   */\n      dup5\n        /* \"#utility.yul\":2111:2127   */\n      add\n        /* \"#utility.yul\":2104:2131   */\n      mstore\n        /* \"#utility.yul\":1953:2137   */\n      pop\n        /* \"#utility.yul\":1891:2137   */\n      pop\n      pop\n      pop\n      jump\t// out\n        /* \"#utility.yul\":2143:2245   */\n    tag_213:\n        /* \"#utility.yul\":2184:2190   */\n      0x00\n        /* \"#utility.yul\":2235:2237   */\n      0x1f\n        /* \"#utility.yul\":2231:2238   */\n      not\n        /* \"#utility.yul\":2226:2228   */\n      0x1f\n        /* \"#utility.yul\":2219:2224   */\n      dup4\n        /* \"#utility.yul\":2215:2229   */\n      add\n        /* \"#utility.yul\":2211:2239   */\n      and\n        /* \"#utility.yul\":2201:2239   */\n      swap1\n      pop\n        /* \"#utility.yul\":2143:2245   */\n      swap2\n      swap1\n      pop\n      jump\t// out\n        /* \"#utility.yul\":2251:2628   */\n    tag_214:\n        /* \"#utility.yul\":2339:2342   */\n      0x00\n        /* \"#utility.yul\":2367:2406   */\n      tag_295\n        /* \"#utility.yul\":2400:2405   */\n      dup3\n        /* \"#utility.yul\":2367:2406   */\n      tag_210\n      jump\t// in\n    tag_295:\n        /* \"#utility.yul\":2422:2493   */\n      tag_296\n        /* \"#utility.yul\":2486:2492   */\n      dup2\n        /* \"#utility.yul\":2481:2484   */\n      dup6\n        /* \"#utility.yul\":2422:2493   */\n      tag_211\n      jump\t// in\n    tag_296:\n        /* \"#utility.yul\":2415:2493   */\n      swap4\n      pop\n        /* \"#utility.yul\":2502:2567   */\n      tag_297\n        /* \"#utility.yul\":2560:2566   */\n      dup2\n        /* \"#utility.yul\":2555:2558   */\n      dup6\n        /* \"#utility.yul\":2548:2552   */\n      0x20\n        /* \"#utility.yul\":2541:2546   */\n      dup7\n        /* \"#utility.yul\":2537:2553   */\n      add\n        /* \"#utility.yul\":2502:2567   */\n      tag_212\n      jump\t// in\n    tag_297:\n        /* \"#utility.yul\":2592:2621   */\n      tag_298\n        /* \"#utility.yul\":2614:2620   */\n      dup2\n        /* \"#utility.yul\":2592:2621   */\n      tag_213\n      jump\t// in\n    tag_298:\n        /* \"#utility.yul\":2587:2590   */\n      dup5\n        /* \"#utility.yul\":2583:2622   */\n      add\n        /* \"#utility.yul\":2576:2622   */\n      swap2\n      pop\n        /* \"#utility.yul\":2343:2628   */\n      pop\n        /* \"#utility.yul\":2251:2628   */\n      swap3\n      swap2\n      pop\n      pop\n      jump\t// out\n        /* \"#utility.yul\":2634:2947   */\n    tag_32:\n        /* \"#utility.yul\":2747:2751   */\n      0x00\n        /* \"#utility.yul\":2785:2787   */\n      0x20\n        /* \"#utility.yul\":2774:2783   */\n      dup3\n        /* \"#utility.yul\":2770:2788   */\n      add\n        /* \"#utility.yul\":2762:2788   */\n      swap1\n      pop\n        /* \"#utility.yul\":2834:2843   */\n      dup2\n        /* \"#utility.yul\":2828:2832   */\n      dup2\n        /* \"#utility.yul\":2824:2844   */\n      sub\n        /* \"#utility.yul\":2820:2821   */\n      0x00\n        /* \"#utility.yul\":2809:2818   */\n      dup4\n        /* \"#utility.yul\":2805:2822   */\n      add\n        /* \"#utility.yul\":2798:2845   */\n      mstore\n        /* \"#utility.yul\":2862:2940   */\n      tag_300\n        /* \"#utility.yul\":2935:2939   */\n      dup2\n        /* \"#utility.yul\":2926:2932   */\n      dup5\n        /* \"#utility.yul\":2862:2940   */\n      tag_214\n      jump\t// in\n    tag_300:\n        /* \"#utility.yul\":2854:2940   */\n      swap1\n      pop\n        /* \"#utility.yul\":2634:2947   */\n      swap3\n      swap2\n      pop\n      pop\n      jump\t// out\n        /* \"#utility.yul\":2953:3070   */\n    tag_215:\n        /* \"#utility.yul\":3062:3063   */\n      0x00\n        /* \"#utility.yul\":3059:3060   */\n      dup1\n        /* \"#utility.yul\":3052:3064   */\n      revert\n        /* \"#utility.yul\":3076:3193   */\n    tag_216:\n        /* \"#utility.yul\":3185:3186   */\n      0x00\n        /* \"#utility.yul\":3182:3183   */\n      dup1\n        /* \"#utility.yul\":3175:3187   */\n      revert\n        /* \"#utility.yul\":3199:3379   */\n    tag_217:\n        /* \"#utility.yul\":3247:3324   */\n      0x4e487b7100000000000000000000000000000000000000000000000000000000\n        /* \"#utility.yul\":3244:3245   */\n      0x00\n        /* \"#utility.yul\":3237:3325   */\n      mstore\n        /* \"#utility.yul\":3344:3348   */\n      0x41\n        /* \"#utility.yul\":3341:3342   */\n      0x04\n        /* \"#utility.yul\":3334:3349   */\n      mstore\n        /* \"#utility.yul\":3368:3372   */\n      0x24\n        /* \"#utility.yul\":3365:3366   */\n      0x00\n        /* \"#utility.yul\":3358:3373   */\n      revert\n        /* \"#utility.yul\":3385:3666   */\n    tag_218:\n        /* \"#utility.yul\":3468:3495   */\n      tag_305\n        /* \"#utility.yul\":3490:3494   */\n      dup3\n        /* \"#utility.yul\":3468:3495   */\n      tag_213\n      jump\t// in\n    tag_305:\n        /* \"#utility.yul\":3460:3466   */\n      dup2\n        /* \"#utility.yul\":3456:3496   */\n      add\n        /* \"#utility.yul\":3598:3604   */\n      dup2\n        /* \"#utility.yul\":3586:3596   */\n      dup2\n        /* \"#utility.yul\":3583:3605   */\n      lt\n        /* \"#utility.yul\":3562:3580   */\n      0xffffffffffffffff\n        /* \"#utility.yul\":3550:3560   */\n      dup3\n        /* \"#utility.yul\":3547:3581   */\n      gt\n        /* \"#utility.yul\":3544:3606   */\n      or\n        /* \"#utility.yul\":3541:3629   */\n      iszero\n      tag_306\n      jumpi\n        /* \"#utility.yul\":3609:3627   */\n      tag_307\n      tag_217\n      jump\t// in\n    tag_307:\n        /* \"#utility.yul\":3541:3629   */\n    tag_306:\n        /* \"#utility.yul\":3649:3659   */\n      dup1\n        /* \"#utility.yul\":3645:3647   */\n      0x40\n        /* \"#utility.yul\":3638:3660   */\n      mstore\n        /* \"#utility.yul\":3428:3666   */\n      pop\n        /* \"#utility.yul\":3385:3666   */\n      pop\n      pop\n      jump\t// out\n        /* \"#utility.yul\":3672:3801   */\n    tag_219:\n        /* \"#utility.yul\":3706:3712   */\n      0x00\n        /* \"#utility.yul\":3733:3753   */\n      tag_309\n      tag_201\n      jump\t// in\n    tag_309:\n        /* \"#utility.yul\":3723:3753   */\n      swap1\n      pop\n        /* \"#utility.yul\":3762:3795   */\n      tag_310\n        /* \"#utility.yul\":3790:3794   */\n      dup3\n        /* \"#utility.yul\":3782:3788   */\n      dup3\n        /* \"#utility.yul\":3762:3795   */\n      tag_218\n      jump\t// in\n    tag_310:\n        /* \"#utility.yul\":3672:3801   */\n      swap2\n      swap1\n      pop\n      jump\t// out\n        /* \"#utility.yul\":3807:4115   */\n    tag_220:\n        /* \"#utility.yul\":3869:3873   */\n      0x00\n        /* \"#utility.yul\":3959:3977   */\n      0xffffffffffffffff\n        /* \"#utility.yul\":3951:3957   */\n      dup3\n        /* \"#utility.yul\":3948:3978   */\n      gt\n        /* \"#utility.yul\":3945:4001   */\n      iszero\n      tag_312\n      jumpi\n        /* \"#utility.yul\":3981:3999   */\n      tag_313\n      tag_217\n      jump\t// in\n    tag_313:\n        /* \"#utility.yul\":3945:4001   */\n    tag_312:\n        /* \"#utility.yul\":4019:4048   */\n      tag_314\n        /* \"#utility.yul\":4041:4047   */\n      dup3\n        /* \"#utility.yul\":4019:4048   */\n      tag_213\n      jump\t// in\n    tag_314:\n        /* \"#utility.yul\":4011:4048   */\n      swap1\n      pop\n        /* \"#utility.yul\":4103:4107   */\n      0x20\n        /* \"#utility.yul\":4097:4101   */\n      dup2\n        /* \"#utility.yul\":4093:4108   */\n      add\n        /* \"#utility.yul\":4085:4108   */\n      swap1\n      pop\n        /* \"#utility.yul\":3807:4115   */\n      swap2\n      swap1\n      pop\n      jump\t// out\n        /* \"#utility.yul\":4121:4267   */\n    tag_221:\n        /* \"#utility.yul\":4218:4224   */\n      dup3\n        /* \"#utility.yul\":4213:4216   */\n      dup2\n        /* \"#utility.yul\":4208:4211   */\n      dup4\n        /* \"#utility.yul\":4195:4225   */\n      calldatacopy\n        /* \"#utility.yul\":4259:4260   */\n      0x00\n        /* \"#utility.yul\":4250:4256   */\n      dup4\n        /* \"#utility.yul\":4245:4248   */\n      dup4\n        /* \"#utility.yul\":4241:4257   */\n      add\n        /* \"#utility.yul\":4234:4261   */\n      mstore\n        /* \"#utility.yul\":4121:4267   */\n      pop\n      pop\n      pop\n      jump\t// out\n        /* \"#utility.yul\":4273:4698   */\n    tag_222:\n        /* \"#utility.yul\":4351:4356   */\n      0x00\n        /* \"#utility.yul\":4376:4442   */\n      tag_317\n        /* \"#utility.yul\":4392:4441   */\n      tag_318\n        /* \"#utility.yul\":4434:4440   */\n      dup5\n        /* \"#utility.yul\":4392:4441   */\n      tag_220\n      jump\t// in\n    tag_318:\n        /* \"#utility.yul\":4376:4442   */\n      tag_219\n      jump\t// in\n    tag_317:\n        /* \"#utility.yul\":4367:4442   */\n      swap1\n      pop\n        /* \"#utility.yul\":4465:4471   */\n      dup3\n        /* \"#utility.yul\":4458:4463   */\n      dup2\n        /* \"#utility.yul\":4451:4472   */\n      mstore\n        /* \"#utility.yul\":4503:4507   */\n      0x20\n        /* \"#utility.yul\":4496:4501   */\n      dup2\n        /* \"#utility.yul\":4492:4508   */\n      add\n        /* \"#utility.yul\":4541:4544   */\n      dup5\n        /* \"#utility.yul\":4532:4538   */\n      dup5\n        /* \"#utility.yul\":4527:4530   */\n      dup5\n        /* \"#utility.yul\":4523:4539   */\n      add\n        /* \"#utility.yul\":4520:4545   */\n      gt\n        /* \"#utility.yul\":4517:4629   */\n      iszero\n      tag_319\n      jumpi\n        /* \"#utility.yul\":4548:4627   */\n      tag_320\n      tag_216\n      jump\t// in\n    tag_320:\n        /* \"#utility.yul\":4517:4629   */\n    tag_319:\n        /* \"#utility.yul\":4638:4692   */\n      tag_321\n        /* \"#utility.yul\":4685:4691   */\n      dup5\n        /* \"#utility.yul\":4680:4683   */\n      dup3\n        /* \"#utility.yul\":4675:4678   */\n      dup6\n        /* \"#utility.yul\":4638:4692   */\n      tag_221\n      jump\t// in\n    tag_321:\n        /* \"#utility.yul\":4357:4698   */\n      pop\n        /* \"#utility.yul\":4273:4698   */\n      swap4\n      swap3\n      pop\n      pop\n      pop\n      jump\t// out\n        /* \"#utility.yul\":4718:5058   */\n    tag_223:\n        /* \"#utility.yul\":4774:4779   */\n      0x00\n        /* \"#utility.yul\":4823:4826   */\n      dup3\n        /* \"#utility.yul\":4816:4820   */\n      0x1f\n        /* \"#utility.yul\":4808:4814   */\n      dup4\n        /* \"#utility.yul\":4804:4821   */\n      add\n        /* \"#utility.yul\":4800:4827   */\n      slt\n        /* \"#utility.yul\":4790:4912   */\n      tag_323\n      jumpi\n        /* \"#utility.yul\":4831:4910   */\n      tag_324\n      tag_215\n      jump\t// in\n    tag_324:\n        /* \"#utility.yul\":4790:4912   */\n    tag_323:\n        /* \"#utility.yul\":4948:4954   */\n      dup2\n        /* \"#utility.yul\":4935:4955   */\n      calldataload\n        /* \"#utility.yul\":4973:5052   */\n      tag_325\n        /* \"#utility.yul\":5048:5051   */\n      dup5\n        /* \"#utility.yul\":5040:5046   */\n      dup3\n        /* \"#utility.yul\":5033:5037   */\n      0x20\n        /* \"#utility.yul\":5025:5031   */\n      dup7\n        /* \"#utility.yul\":5021:5038   */\n      add\n        /* \"#utility.yul\":4973:5052   */\n      tag_222\n      jump\t// in\n    tag_325:\n        /* \"#utility.yul\":4964:5052   */\n      swap2\n      pop\n        /* \"#utility.yul\":4780:5058   */\n      pop\n        /* \"#utility.yul\":4718:5058   */\n      swap3\n      swap2\n      pop\n      pop\n      jump\t// out\n        /* \"#utility.yul\":5064:5154   */\n    tag_224:\n        /* \"#utility.yul\":5098:5105   */\n      0x00\n        /* \"#utility.yul\":5141:5146   */\n      dup2\n        /* \"#utility.yul\":5134:5147   */\n      iszero\n        /* \"#utility.yul\":5127:5148   */\n      iszero\n        /* \"#utility.yul\":5116:5148   */\n      swap1\n      pop\n        /* \"#utility.yul\":5064:5154   */\n      swap2\n      swap1\n      pop\n      jump\t// out\n        /* \"#utility.yul\":5160:5276   */\n    tag_225:\n        /* \"#utility.yul\":5230:5251   */\n      tag_328\n        /* \"#utility.yul\":5245:5250   */\n      dup2\n        /* \"#utility.yul\":5230:5251   */\n      tag_224\n      jump\t// in\n    tag_328:\n        /* \"#utility.yul\":5223:5228   */\n      dup2\n        /* \"#utility.yul\":5220:5252   */\n      eq\n        /* \"#utility.yul\":5210:5270   */\n      tag_329\n      jumpi\n        /* \"#utility.yul\":5266:5267   */\n      0x00\n        /* \"#utility.yul\":5263:5264   */\n      dup1\n        /* \"#utility.yul\":5256:5268   */\n      revert\n        /* \"#utility.yul\":5210:5270   */\n    tag_329:\n        /* \"#utility.yul\":5160:5276   */\n      pop\n      jump\t// out\n        /* \"#utility.yul\":5282:5415   */\n    tag_226:\n        /* \"#utility.yul\":5325:5330   */\n      0x00\n        /* \"#utility.yul\":5363:5369   */\n      dup2\n        /* \"#utility.yul\":5350:5370   */\n      calldataload\n        /* \"#utility.yul\":5341:5370   */\n      swap1\n      pop\n        /* \"#utility.yul\":5379:5409   */\n      tag_331\n        /* \"#utility.yul\":5403:5408   */\n      dup2\n        /* \"#utility.yul\":5379:5409   */\n      tag_225\n      jump\t// in\n    tag_331:\n        /* \"#utility.yul\":5282:5415   */\n      swap3\n      swap2\n      pop\n      pop\n      jump\t// out\n        /* \"#utility.yul\":5421:6069   */\n    tag_36:\n        /* \"#utility.yul\":5496:5502   */\n      0x00\n        /* \"#utility.yul\":5504:5510   */\n      dup1\n        /* \"#utility.yul\":5553:5555   */\n      0x40\n        /* \"#utility.yul\":5541:5550   */\n      dup4\n        /* \"#utility.yul\":5532:5539   */\n      dup6\n        /* \"#utility.yul\":5528:5551   */\n      sub\n        /* \"#utility.yul\":5524:5556   */\n      slt\n        /* \"#utility.yul\":5521:5640   */\n      iszero\n      tag_333\n      jumpi\n        /* \"#utility.yul\":5559:5638   */\n      tag_334\n      tag_202\n      jump\t// in\n    tag_334:\n        /* \"#utility.yul\":5521:5640   */\n    tag_333:\n        /* \"#utility.yul\":5707:5708   */\n      0x00\n        /* \"#utility.yul\":5696:5705   */\n      dup4\n        /* \"#utility.yul\":5692:5709   */\n      add\n        /* \"#utility.yul\":5679:5710   */\n      calldataload\n        /* \"#utility.yul\":5737:5755   */\n      0xffffffffffffffff\n        /* \"#utility.yul\":5729:5735   */\n      dup2\n        /* \"#utility.yul\":5726:5756   */\n      gt\n        /* \"#utility.yul\":5723:5840   */\n      iszero\n      tag_335\n      jumpi\n        /* \"#utility.yul\":5759:5838   */\n      tag_336\n      tag_203\n      jump\t// in\n    tag_336:\n        /* \"#utility.yul\":5723:5840   */\n    tag_335:\n        /* \"#utility.yul\":5864:5927   */\n      tag_337\n        /* \"#utility.yul\":5919:5926   */\n      dup6\n        /* \"#utility.yul\":5910:5916   */\n      dup3\n        /* \"#utility.yul\":5899:5908   */\n      dup7\n        /* \"#utility.yul\":5895:5917   */\n      add\n        /* \"#utility.yul\":5864:5927   */\n      tag_223\n      jump\t// in\n    tag_337:\n        /* \"#utility.yul\":5854:5927   */\n      swap3\n      pop\n        /* \"#utility.yul\":5650:5937   */\n      pop\n        /* \"#utility.yul\":5976:5978   */\n      0x20\n        /* \"#utility.yul\":6002:6052   */\n      tag_338\n        /* \"#utility.yul\":6044:6051   */\n      dup6\n        /* \"#utility.yul\":6035:6041   */\n      dup3\n        /* \"#utility.yul\":6024:6033   */\n      dup7\n        /* \"#utility.yul\":6020:6042   */\n      add\n        /* \"#utility.yul\":6002:6052   */\n      tag_226\n      jump\t// in\n    tag_338:\n        /* \"#utility.yul\":5992:6052   */\n      swap2\n      pop\n        /* \"#utility.yul\":5947:6062   */\n      pop\n        /* \"#utility.yul\":5421:6069   */\n      swap3\n      pop\n      swap3\n      swap1\n      pop\n      jump\t// out\n        /* \"#utility.yul\":6075:6183   */\n    tag_227:\n        /* \"#utility.yul\":6152:6176   */\n      tag_340\n        /* \"#utility.yul\":6170:6175   */\n      dup2\n        /* \"#utility.yul\":6152:6176   */\n      tag_205\n      jump\t// in\n    tag_340:\n        /* \"#utility.yul\":6147:6150   */\n      dup3\n        /* \"#utility.yul\":6140:6177   */\n      mstore\n        /* \"#utility.yul\":6075:6183   */\n      pop\n      pop\n      jump\t// out\n        /* \"#utility.yul\":6189:6348   */\n    tag_228:\n        /* \"#utility.yul\":6263:6274   */\n      0x00\n        /* \"#utility.yul\":6297:6303   */\n      dup3\n        /* \"#utility.yul\":6292:6295   */\n      dup3\n        /* \"#utility.yul\":6285:6304   */\n      mstore\n        /* \"#utility.yul\":6337:6341   */\n      0x20\n        /* \"#utility.yul\":6332:6335   */\n      dup3\n        /* \"#utility.yul\":6328:6342   */\n      add\n        /* \"#utility.yul\":6313:6342   */\n      swap1\n      pop\n        /* \"#utility.yul\":6189:6348   */\n      swap3\n      swap2\n      pop\n      pop\n      jump\t// out\n        /* \"#utility.yul\":6354:6711   */\n    tag_229:\n        /* \"#utility.yul\":6432:6435   */\n      0x00\n        /* \"#utility.yul\":6460:6499   */\n      tag_343\n        /* \"#utility.yul\":6493:6498   */\n      dup3\n        /* \"#utility.yul\":6460:6499   */\n      tag_210\n      jump\t// in\n    tag_343:\n        /* \"#utility.yul\":6515:6576   */\n      tag_344\n        /* \"#utility.yul\":6569:6575   */\n      dup2\n        /* \"#utility.yul\":6564:6567   */\n      dup6\n        /* \"#utility.yul\":6515:6576   */\n      tag_228\n      jump\t// in\n    tag_344:\n        /* \"#utility.yul\":6508:6576   */\n      swap4\n      pop\n        /* \"#utility.yul\":6585:6650   */\n      tag_345\n        /* \"#utility.yul\":6643:6649   */\n      dup2\n        /* \"#utility.yul\":6638:6641   */\n      dup6\n        /* \"#utility.yul\":6631:6635   */\n      0x20\n        /* \"#utility.yul\":6624:6629   */\n      dup7\n        /* \"#utility.yul\":6620:6636   */\n      add\n        /* \"#utility.yul\":6585:6650   */\n      tag_212\n      jump\t// in\n    tag_345:\n        /* \"#utility.yul\":6675:6704   */\n      tag_346\n        /* \"#utility.yul\":6697:6703   */\n      dup2\n        /* \"#utility.yul\":6675:6704   */\n      tag_213\n      jump\t// in\n    tag_346:\n        /* \"#utility.yul\":6670:6673   */\n      dup5\n        /* \"#utility.yul\":6666:6705   */\n      add\n        /* \"#utility.yul\":6659:6705   */\n      swap2\n      pop\n        /* \"#utility.yul\":6436:6711   */\n      pop\n        /* \"#utility.yul\":6354:6711   */\n      swap3\n      swap2\n      pop\n      pop\n      jump\t// out\n        /* \"#utility.yul\":6717:6825   */\n    tag_230:\n        /* \"#utility.yul\":6794:6818   */\n      tag_348\n        /* \"#utility.yul\":6812:6817   */\n      dup2\n        /* \"#utility.yul\":6794:6818   */\n      tag_208\n      jump\t// in\n    tag_348:\n        /* \"#utility.yul\":6789:6792   */\n      dup3\n        /* \"#utility.yul\":6782:6819   */\n      mstore\n        /* \"#utility.yul\":6717:6825   */\n      pop\n      pop\n      jump\t// out\n        /* \"#utility.yul\":6889:8475   */\n    tag_231:\n        /* \"#utility.yul\":7006:7009   */\n      0x00\n        /* \"#utility.yul\":7042:7046   */\n      0xe0\n        /* \"#utility.yul\":7037:7040   */\n      dup4\n        /* \"#utility.yul\":7033:7047   */\n      add\n        /* \"#utility.yul\":7132:7136   */\n      0x00\n        /* \"#utility.yul\":7125:7130   */\n      dup4\n        /* \"#utility.yul\":7121:7137   */\n      add\n        /* \"#utility.yul\":7115:7138   */\n      mload\n        /* \"#utility.yul\":7151:7214   */\n      tag_350\n        /* \"#utility.yul\":7208:7212   */\n      0x00\n        /* \"#utility.yul\":7203:7206   */\n      dup7\n        /* \"#utility.yul\":7199:7213   */\n      add\n        /* \"#utility.yul\":7185:7197   */\n      dup3\n        /* \"#utility.yul\":7151:7214   */\n      tag_227\n      jump\t// in\n    tag_350:\n        /* \"#utility.yul\":7057:7224   */\n      pop\n        /* \"#utility.yul\":7306:7310   */\n      0x20\n        /* \"#utility.yul\":7299:7304   */\n      dup4\n        /* \"#utility.yul\":7295:7311   */\n      add\n        /* \"#utility.yul\":7289:7312   */\n      mload\n        /* \"#utility.yul\":7359:7362   */\n      dup5\n        /* \"#utility.yul\":7353:7357   */\n      dup3\n        /* \"#utility.yul\":7349:7363   */\n      sub\n        /* \"#utility.yul\":7342:7346   */\n      0x20\n        /* \"#utility.yul\":7337:7340   */\n      dup7\n        /* \"#utility.yul\":7333:7347   */\n      add\n        /* \"#utility.yul\":7326:7364   */\n      mstore\n        /* \"#utility.yul\":7385:7458   */\n      tag_351\n        /* \"#utility.yul\":7453:7457   */\n      dup3\n        /* \"#utility.yul\":7439:7451   */\n      dup3\n        /* \"#utility.yul\":7385:7458   */\n      tag_229\n      jump\t// in\n    tag_351:\n        /* \"#utility.yul\":7377:7458   */\n      swap2\n      pop\n        /* \"#utility.yul\":7234:7469   */\n      pop\n        /* \"#utility.yul\":7558:7562   */\n      0x40\n        /* \"#utility.yul\":7551:7556   */\n      dup4\n        /* \"#utility.yul\":7547:7563   */\n      add\n        /* \"#utility.yul\":7541:7564   */\n      mload\n        /* \"#utility.yul\":7611:7614   */\n      dup5\n        /* \"#utility.yul\":7605:7609   */\n      dup3\n        /* \"#utility.yul\":7601:7615   */\n      sub\n        /* \"#utility.yul\":7594:7598   */\n      0x40\n        /* \"#utility.yul\":7589:7592   */\n      dup7\n        /* \"#utility.yul\":7585:7599   */\n      add\n        /* \"#utility.yul\":7578:7616   */\n      mstore\n        /* \"#utility.yul\":7637:7710   */\n      tag_352\n        /* \"#utility.yul\":7705:7709   */\n      dup3\n        /* \"#utility.yul\":7691:7703   */\n      dup3\n        /* \"#utility.yul\":7637:7710   */\n      tag_229\n      jump\t// in\n    tag_352:\n        /* \"#utility.yul\":7629:7710   */\n      swap2\n      pop\n        /* \"#utility.yul\":7479:7721   */\n      pop\n        /* \"#utility.yul\":7814:7818   */\n      0x60\n        /* \"#utility.yul\":7807:7812   */\n      dup4\n        /* \"#utility.yul\":7803:7819   */\n      add\n        /* \"#utility.yul\":7797:7820   */\n      mload\n        /* \"#utility.yul\":7833:7896   */\n      tag_353\n        /* \"#utility.yul\":7890:7894   */\n      0x60\n        /* \"#utility.yul\":7885:7888   */\n      dup7\n        /* \"#utility.yul\":7881:7895   */\n      add\n        /* \"#utility.yul\":7867:7879   */\n      dup3\n        /* \"#utility.yul\":7833:7896   */\n      tag_230\n      jump\t// in\n    tag_353:\n        /* \"#utility.yul\":7731:7906   */\n      pop\n        /* \"#utility.yul\":7991:7995   */\n      0x80\n        /* \"#utility.yul\":7984:7989   */\n      dup4\n        /* \"#utility.yul\":7980:7996   */\n      add\n        /* \"#utility.yul\":7974:7997   */\n      mload\n        /* \"#utility.yul\":8010:8073   */\n      tag_354\n        /* \"#utility.yul\":8067:8071   */\n      0x80\n        /* \"#utility.yul\":8062:8065   */\n      dup7\n        /* \"#utility.yul\":8058:8072   */\n      add\n        /* \"#utility.yul\":8044:8056   */\n      dup3\n        /* \"#utility.yul\":8010:8073   */\n      tag_230\n      jump\t// in\n    tag_354:\n        /* \"#utility.yul\":7916:8083   */\n      pop\n        /* \"#utility.yul\":8173:8177   */\n      0xa0\n        /* \"#utility.yul\":8166:8171   */\n      dup4\n        /* \"#utility.yul\":8162:8178   */\n      add\n        /* \"#utility.yul\":8156:8179   */\n      mload\n        /* \"#utility.yul\":8192:8255   */\n      tag_355\n        /* \"#utility.yul\":8249:8253   */\n      0xa0\n        /* \"#utility.yul\":8244:8247   */\n      dup7\n        /* \"#utility.yul\":8240:8254   */\n      add\n        /* \"#utility.yul\":8226:8238   */\n      dup3\n        /* \"#utility.yul\":8192:8255   */\n      tag_230\n      jump\t// in\n    tag_355:\n        /* \"#utility.yul\":8093:8265   */\n      pop\n        /* \"#utility.yul\":8356:8360   */\n      0xc0\n        /* \"#utility.yul\":8349:8354   */\n      dup4\n        /* \"#utility.yul\":8345:8361   */\n      add\n        /* \"#utility.yul\":8339:8362   */\n      mload\n        /* \"#utility.yul\":8375:8438   */\n      tag_356\n        /* \"#utility.yul\":8432:8436   */\n      0xc0\n        /* \"#utility.yul\":8427:8430   */\n      dup7\n        /* \"#utility.yul\":8423:8437   */\n      add\n        /* \"#utility.yul\":8409:8421   */\n      dup3\n        /* \"#utility.yul\":8375:8438   */\n      tag_230\n      jump\t// in\n    tag_356:\n        /* \"#utility.yul\":8275:8448   */\n      pop\n        /* \"#utility.yul\":8465:8469   */\n      dup1\n        /* \"#utility.yul\":8458:8469   */\n      swap2\n      pop\n        /* \"#utility.yul\":7011:8475   */\n      pop\n        /* \"#utility.yul\":6889:8475   */\n      swap3\n      swap2\n      pop\n      pop\n      jump\t// out\n        /* \"#utility.yul\":8481:8850   */\n    tag_46:\n        /* \"#utility.yul\":8622:8626   */\n      0x00\n        /* \"#utility.yul\":8660:8662   */\n      0x20\n        /* \"#utility.yul\":8649:8658   */\n      dup3\n        /* \"#utility.yul\":8645:8663   */\n      add\n        /* \"#utility.yul\":8637:8663   */\n      swap1\n      pop\n        /* \"#utility.yul\":8709:8718   */\n      dup2\n        /* \"#utility.yul\":8703:8707   */\n      dup2\n        /* \"#utility.yul\":8699:8719   */\n      sub\n        /* \"#utility.yul\":8695:8696   */\n      0x00\n        /* \"#utility.yul\":8684:8693   */\n      dup4\n        /* \"#utility.yul\":8680:8697   */\n      add\n        /* \"#utility.yul\":8673:8720   */\n      mstore\n        /* \"#utility.yul\":8737:8843   */\n      tag_358\n        /* \"#utility.yul\":8838:8842   */\n      dup2\n        /* \"#utility.yul\":8829:8835   */\n      dup5\n        /* \"#utility.yul\":8737:8843   */\n      tag_231\n      jump\t// in\n    tag_358:\n        /* \"#utility.yul\":8729:8843   */\n      swap1\n      pop\n        /* \"#utility.yul\":8481:8850   */\n      swap3\n      swap2\n      pop\n      pop\n      jump\t// out\n        /* \"#utility.yul\":8856:9365   */\n    tag_50:\n        /* \"#utility.yul\":8925:8931   */\n      0x00\n        /* \"#utility.yul\":8974:8976   */\n      0x20\n        /* \"#utility.yul\":8962:8971   */\n      dup3\n        /* \"#utility.yul\":8953:8960   */\n      dup5\n        /* \"#utility.yul\":8949:8972   */\n      sub\n        /* \"#utility.yul\":8945:8977   */\n      slt\n        /* \"#utility.yul\":8942:9061   */\n      iszero\n      tag_360\n      jumpi\n        /* \"#utility.yul\":8980:9059   */\n      tag_361\n      tag_202\n      jump\t// in\n    tag_361:\n        /* \"#utility.yul\":8942:9061   */\n    tag_360:\n        /* \"#utility.yul\":9128:9129   */\n      0x00\n        /* \"#utility.yul\":9117:9126   */\n      dup3\n        /* \"#utility.yul\":9113:9130   */\n      add\n        /* \"#utility.yul\":9100:9131   */\n      calldataload\n        /* \"#utility.yul\":9158:9176   */\n      0xffffffffffffffff\n        /* \"#utility.yul\":9150:9156   */\n      dup2\n        /* \"#utility.yul\":9147:9177   */\n      gt\n        /* \"#utility.yul\":9144:9261   */\n      iszero\n      tag_362\n      jumpi\n        /* \"#utility.yul\":9180:9259   */\n      tag_363\n      tag_203\n      jump\t// in\n    tag_363:\n        /* \"#utility.yul\":9144:9261   */\n    tag_362:\n        /* \"#utility.yul\":9285:9348   */\n      tag_364\n        /* \"#utility.yul\":9340:9347   */\n      dup5\n        /* \"#utility.yul\":9331:9337   */\n      dup3\n        /* \"#utility.yul\":9320:9329   */\n      dup6\n        /* \"#utility.yul\":9316:9338   */\n      add\n        /* \"#utility.yul\":9285:9348   */\n      tag_223\n      jump\t// in\n    tag_364:\n        /* \"#utility.yul\":9275:9348   */\n      swap2\n      pop\n        /* \"#utility.yul\":9071:9358   */\n      pop\n        /* \"#utility.yul\":8856:9365   */\n      swap3\n      swap2\n      pop\n      pop\n      jump\t// out\n        /* \"#utility.yul\":9371:9475   */\n    tag_232:\n        /* \"#utility.yul\":9416:9423   */\n      0x00\n        /* \"#utility.yul\":9445:9469   */\n      tag_366\n        /* \"#utility.yul\":9463:9468   */\n      dup3\n        /* \"#utility.yul\":9445:9469   */\n      tag_204\n      jump\t// in\n    tag_366:\n        /* \"#utility.yul\":9434:9469   */\n      swap1\n      pop\n        /* \"#utility.yul\":9371:9475   */\n      swap2\n      swap1\n      pop\n      jump\t// out\n        /* \"#utility.yul\":9481:9623   */\n    tag_233:\n        /* \"#utility.yul\":9584:9616   */\n      tag_368\n        /* \"#utility.yul\":9610:9615   */\n      dup2\n        /* \"#utility.yul\":9584:9616   */\n      tag_232\n      jump\t// in\n    tag_368:\n        /* \"#utility.yul\":9579:9582   */\n      dup3\n        /* \"#utility.yul\":9572:9617   */\n      mstore\n        /* \"#utility.yul\":9481:9623   */\n      pop\n      pop\n      jump\t// out\n        /* \"#utility.yul\":9629:9738   */\n    tag_234:\n        /* \"#utility.yul\":9710:9731   */\n      tag_370\n        /* \"#utility.yul\":9725:9730   */\n      dup2\n        /* \"#utility.yul\":9710:9731   */\n      tag_224\n      jump\t// in\n    tag_370:\n        /* \"#utility.yul\":9705:9708   */\n      dup3\n        /* \"#utility.yul\":9698:9732   */\n      mstore\n        /* \"#utility.yul\":9629:9738   */\n      pop\n      pop\n      jump\t// out\n        /* \"#utility.yul\":9744:10931   */\n    tag_53:\n        /* \"#utility.yul\":10077:10081   */\n      0x00\n        /* \"#utility.yul\":10115:10118   */\n      0x0100\n        /* \"#utility.yul\":10104:10113   */\n      dup3\n        /* \"#utility.yul\":10100:10119   */\n      add\n        /* \"#utility.yul\":10092:10119   */\n      swap1\n      pop\n        /* \"#utility.yul\":10165:10174   */\n      dup2\n        /* \"#utility.yul\":10159:10163   */\n      dup2\n        /* \"#utility.yul\":10155:10175   */\n      sub\n        /* \"#utility.yul\":10151:10152   */\n      0x00\n        /* \"#utility.yul\":10140:10149   */\n      dup4\n        /* \"#utility.yul\":10136:10153   */\n      add\n        /* \"#utility.yul\":10129:10176   */\n      mstore\n        /* \"#utility.yul\":10193:10271   */\n      tag_372\n        /* \"#utility.yul\":10266:10270   */\n      dup2\n        /* \"#utility.yul\":10257:10263   */\n      dup12\n        /* \"#utility.yul\":10193:10271   */\n      tag_214\n      jump\t// in\n    tag_372:\n        /* \"#utility.yul\":10185:10271   */\n      swap1\n      pop\n        /* \"#utility.yul\":10318:10327   */\n      dup2\n        /* \"#utility.yul\":10312:10316   */\n      dup2\n        /* \"#utility.yul\":10308:10328   */\n      sub\n        /* \"#utility.yul\":10303:10305   */\n      0x20\n        /* \"#utility.yul\":10292:10301   */\n      dup4\n        /* \"#utility.yul\":10288:10306   */\n      add\n        /* \"#utility.yul\":10281:10329   */\n      mstore\n        /* \"#utility.yul\":10346:10424   */\n      tag_373\n        /* \"#utility.yul\":10419:10423   */\n      dup2\n        /* \"#utility.yul\":10410:10416   */\n      dup11\n        /* \"#utility.yul\":10346:10424   */\n      tag_214\n      jump\t// in\n    tag_373:\n        /* \"#utility.yul\":10338:10424   */\n      swap1\n      pop\n        /* \"#utility.yul\":10434:10506   */\n      tag_374\n        /* \"#utility.yul\":10502:10504   */\n      0x40\n        /* \"#utility.yul\":10491:10500   */\n      dup4\n        /* \"#utility.yul\":10487:10505   */\n      add\n        /* \"#utility.yul\":10478:10484   */\n      dup10\n        /* \"#utility.yul\":10434:10506   */\n      tag_209\n      jump\t// in\n    tag_374:\n        /* \"#utility.yul\":10516:10604   */\n      tag_375\n        /* \"#utility.yul\":10600:10602   */\n      0x60\n        /* \"#utility.yul\":10589:10598   */\n      dup4\n        /* \"#utility.yul\":10585:10603   */\n      add\n        /* \"#utility.yul\":10576:10582   */\n      dup9\n        /* \"#utility.yul\":10516:10604   */\n      tag_233\n      jump\t// in\n    tag_375:\n        /* \"#utility.yul\":10614:10687   */\n      tag_376\n        /* \"#utility.yul\":10682:10685   */\n      0x80\n        /* \"#utility.yul\":10671:10680   */\n      dup4\n        /* \"#utility.yul\":10667:10686   */\n      add\n        /* \"#utility.yul\":10658:10664   */\n      dup8\n        /* \"#utility.yul\":10614:10687   */\n      tag_209\n      jump\t// in\n    tag_376:\n        /* \"#utility.yul\":10697:10770   */\n      tag_377\n        /* \"#utility.yul\":10765:10768   */\n      0xa0\n        /* \"#utility.yul\":10754:10763   */\n      dup4\n        /* \"#utility.yul\":10750:10769   */\n      add\n        /* \"#utility.yul\":10741:10747   */\n      dup7\n        /* \"#utility.yul\":10697:10770   */\n      tag_209\n      jump\t// in\n    tag_377:\n        /* \"#utility.yul\":10780:10847   */\n      tag_378\n        /* \"#utility.yul\":10842:10845   */\n      0xc0\n        /* \"#utility.yul\":10831:10840   */\n      dup4\n        /* \"#utility.yul\":10827:10846   */\n      add\n        /* \"#utility.yul\":10818:10824   */\n      dup6\n        /* \"#utility.yul\":10780:10847   */\n      tag_234\n      jump\t// in\n    tag_378:\n        /* \"#utility.yul\":10857:10924   */\n      tag_379\n        /* \"#utility.yul\":10919:10922   */\n      0xe0\n        /* \"#utility.yul\":10908:10917   */\n      dup4\n        /* \"#utility.yul\":10904:10923   */\n      add\n        /* \"#utility.yul\":10895:10901   */\n      dup5\n        /* \"#utility.yul\":10857:10924   */\n      tag_234\n      jump\t// in\n    tag_379:\n        /* \"#utility.yul\":9744:10931   */\n      swap10\n      swap9\n      pop\n      pop\n      pop\n      pop\n      pop\n      pop\n      pop\n      pop\n      pop\n      jump\t// out\n        /* \"#utility.yul\":10937:11082   */\n    tag_235:\n        /* \"#utility.yul\":11035:11041   */\n      0x00\n        /* \"#utility.yul\":11069:11074   */\n      dup2\n        /* \"#utility.yul\":11063:11075   */\n      mload\n        /* \"#utility.yul\":11053:11075   */\n      swap1\n      pop\n        /* \"#utility.yul\":10937:11082   */\n      swap2\n      swap1\n      pop\n      jump\t// out\n        /* \"#utility.yul\":11088:11303   */\n    tag_236:\n        /* \"#utility.yul\":11218:11229   */\n      0x00\n        /* \"#utility.yul\":11252:11258   */\n      dup3\n        /* \"#utility.yul\":11247:11250   */\n      dup3\n        /* \"#utility.yul\":11240:11259   */\n      mstore\n        /* \"#utility.yul\":11292:11296   */\n      0x20\n        /* \"#utility.yul\":11287:11290   */\n      dup3\n        /* \"#utility.yul\":11283:11297   */\n      add\n        /* \"#utility.yul\":11268:11297   */\n      swap1\n      pop\n        /* \"#utility.yul\":11088:11303   */\n      swap3\n      swap2\n      pop\n      pop\n      jump\t// out\n        /* \"#utility.yul\":11309:11472   */\n    tag_237:\n        /* \"#utility.yul\":11407:11411   */\n      0x00\n        /* \"#utility.yul\":11430:11433   */\n      dup2\n        /* \"#utility.yul\":11422:11433   */\n      swap1\n      pop\n        /* \"#utility.yul\":11460:11464   */\n      0x20\n        /* \"#utility.yul\":11455:11458   */\n      dup3\n        /* \"#utility.yul\":11451:11465   */\n      add\n        /* \"#utility.yul\":11443:11465   */\n      swap1\n      pop\n        /* \"#utility.yul\":11309:11472   */\n      swap2\n      swap1\n      pop\n      jump\t// out\n        /* \"#utility.yul\":11550:12412   */\n    tag_238:\n        /* \"#utility.yul\":11671:11674   */\n      0x00\n        /* \"#utility.yul\":11707:11711   */\n      0x60\n        /* \"#utility.yul\":11702:11705   */\n      dup4\n        /* \"#utility.yul\":11698:11712   */\n      add\n        /* \"#utility.yul\":11794:11798   */\n      0x00\n        /* \"#utility.yul\":11787:11792   */\n      dup4\n        /* \"#utility.yul\":11783:11799   */\n      add\n        /* \"#utility.yul\":11777:11800   */\n      mload\n        /* \"#utility.yul\":11847:11850   */\n      dup5\n        /* \"#utility.yul\":11841:11845   */\n      dup3\n        /* \"#utility.yul\":11837:11851   */\n      sub\n        /* \"#utility.yul\":11830:11834   */\n      0x00\n        /* \"#utility.yul\":11825:11828   */\n      dup7\n        /* \"#utility.yul\":11821:11835   */\n      add\n        /* \"#utility.yul\":11814:11852   */\n      mstore\n        /* \"#utility.yul\":11873:11946   */\n      tag_384\n        /* \"#utility.yul\":11941:11945   */\n      dup3\n        /* \"#utility.yul\":11927:11939   */\n      dup3\n        /* \"#utility.yul\":11873:11946   */\n      tag_229\n      jump\t// in\n    tag_384:\n        /* \"#utility.yul\":11865:11946   */\n      swap2\n      pop\n        /* \"#utility.yul\":11722:11957   */\n      pop\n        /* \"#utility.yul\":12046:12050   */\n      0x20\n        /* \"#utility.yul\":12039:12044   */\n      dup4\n        /* \"#utility.yul\":12035:12051   */\n      add\n        /* \"#utility.yul\":12029:12052   */\n      mload\n        /* \"#utility.yul\":12099:12102   */\n      dup5\n        /* \"#utility.yul\":12093:12097   */\n      dup3\n        /* \"#utility.yul\":12089:12103   */\n      sub\n        /* \"#utility.yul\":12082:12086   */\n      0x20\n        /* \"#utility.yul\":12077:12080   */\n      dup7\n        /* \"#utility.yul\":12073:12087   */\n      add\n        /* \"#utility.yul\":12066:12104   */\n      mstore\n        /* \"#utility.yul\":12125:12198   */\n      tag_385\n        /* \"#utility.yul\":12193:12197   */\n      dup3\n        /* \"#utility.yul\":12179:12191   */\n      dup3\n        /* \"#utility.yul\":12125:12198   */\n      tag_229\n      jump\t// in\n    tag_385:\n        /* \"#utility.yul\":12117:12198   */\n      swap2\n      pop\n        /* \"#utility.yul\":11967:12209   */\n      pop\n        /* \"#utility.yul\":12293:12297   */\n      0x40\n        /* \"#utility.yul\":12286:12291   */\n      dup4\n        /* \"#utility.yul\":12282:12298   */\n      add\n        /* \"#utility.yul\":12276:12299   */\n      mload\n        /* \"#utility.yul\":12312:12375   */\n      tag_386\n        /* \"#utility.yul\":12369:12373   */\n      0x40\n        /* \"#utility.yul\":12364:12367   */\n      dup7\n        /* \"#utility.yul\":12360:12374   */\n      add\n        /* \"#utility.yul\":12346:12358   */\n      dup3\n        /* \"#utility.yul\":12312:12375   */\n      tag_230\n      jump\t// in\n    tag_386:\n        /* \"#utility.yul\":12219:12385   */\n      pop\n        /* \"#utility.yul\":12402:12406   */\n      dup1\n        /* \"#utility.yul\":12395:12406   */\n      swap2\n      pop\n        /* \"#utility.yul\":11676:12412   */\n      pop\n        /* \"#utility.yul\":11550:12412   */\n      swap3\n      swap2\n      pop\n      pop\n      jump\t// out\n        /* \"#utility.yul\":12418:12698   */\n    tag_239:\n        /* \"#utility.yul\":12549:12559   */\n      0x00\n        /* \"#utility.yul\":12584:12692   */\n      tag_388\n        /* \"#utility.yul\":12688:12691   */\n      dup4\n        /* \"#utility.yul\":12680:12686   */\n      dup4\n        /* \"#utility.yul\":12584:12692   */\n      tag_238\n      jump\t// in\n    tag_388:\n        /* \"#utility.yul\":12570:12692   */\n      swap1\n      pop\n        /* \"#utility.yul\":12418:12698   */\n      swap3\n      swap2\n      pop\n      pop\n      jump\t// out\n        /* \"#utility.yul\":12704:12848   */\n    tag_240:\n        /* \"#utility.yul\":12805:12809   */\n      0x00\n        /* \"#utility.yul\":12837:12841   */\n      0x20\n        /* \"#utility.yul\":12832:12835   */\n      dup3\n        /* \"#utility.yul\":12828:12842   */\n      add\n        /* \"#utility.yul\":12820:12842   */\n      swap1\n      pop\n        /* \"#utility.yul\":12704:12848   */\n      swap2\n      swap1\n      pop\n      jump\t// out\n        /* \"#utility.yul\":12930:14089   */\n    tag_241:\n        /* \"#utility.yul\":13111:13114   */\n      0x00\n        /* \"#utility.yul\":13140:13225   */\n      tag_391\n        /* \"#utility.yul\":13219:13224   */\n      dup3\n        /* \"#utility.yul\":13140:13225   */\n      tag_235\n      jump\t// in\n    tag_391:\n        /* \"#utility.yul\":13241:13358   */\n      tag_392\n        /* \"#utility.yul\":13351:13357   */\n      dup2\n        /* \"#utility.yul\":13346:13349   */\n      dup6\n        /* \"#utility.yul\":13241:13358   */\n      tag_236\n      jump\t// in\n    tag_392:\n        /* \"#utility.yul\":13234:13358   */\n      swap4\n      pop\n        /* \"#utility.yul\":13384:13387   */\n      dup4\n        /* \"#utility.yul\":13429:13433   */\n      0x20\n        /* \"#utility.yul\":13421:13427   */\n      dup3\n        /* \"#utility.yul\":13417:13434   */\n      mul\n        /* \"#utility.yul\":13412:13415   */\n      dup6\n        /* \"#utility.yul\":13408:13435   */\n      add\n        /* \"#utility.yul\":13459:13546   */\n      tag_393\n        /* \"#utility.yul\":13540:13545   */\n      dup6\n        /* \"#utility.yul\":13459:13546   */\n      tag_237\n      jump\t// in\n    tag_393:\n        /* \"#utility.yul\":13569:13576   */\n      dup1\n        /* \"#utility.yul\":13600:13601   */\n      0x00\n        /* \"#utility.yul\":13585:14044   */\n    tag_394:\n        /* \"#utility.yul\":13610:13616   */\n      dup6\n        /* \"#utility.yul\":13607:13608   */\n      dup2\n        /* \"#utility.yul\":13604:13617   */\n      lt\n        /* \"#utility.yul\":13585:14044   */\n      iszero\n      tag_396\n      jumpi\n        /* \"#utility.yul\":13681:13690   */\n      dup5\n        /* \"#utility.yul\":13675:13679   */\n      dup5\n        /* \"#utility.yul\":13671:13691   */\n      sub\n        /* \"#utility.yul\":13666:13669   */\n      dup10\n        /* \"#utility.yul\":13659:13692   */\n      mstore\n        /* \"#utility.yul\":13732:13738   */\n      dup2\n        /* \"#utility.yul\":13726:13739   */\n      mload\n        /* \"#utility.yul\":13760:13886   */\n      tag_397\n        /* \"#utility.yul\":13881:13885   */\n      dup6\n        /* \"#utility.yul\":13866:13879   */\n      dup3\n        /* \"#utility.yul\":13760:13886   */\n      tag_239\n      jump\t// in\n    tag_397:\n        /* \"#utility.yul\":13752:13886   */\n      swap5\n      pop\n        /* \"#utility.yul\":13909:14000   */\n      tag_398\n        /* \"#utility.yul\":13993:13999   */\n      dup4\n        /* \"#utility.yul\":13909:14000   */\n      tag_240\n      jump\t// in\n    tag_398:\n        /* \"#utility.yul\":13899:14000   */\n      swap3\n      pop\n        /* \"#utility.yul\":14029:14033   */\n      0x20\n        /* \"#utility.yul\":14024:14027   */\n      dup11\n        /* \"#utility.yul\":14020:14034   */\n      add\n        /* \"#utility.yul\":14013:14034   */\n      swap10\n      pop\n        /* \"#utility.yul\":13645:14044   */\n      pop\n        /* \"#utility.yul\":13632:13633   */\n      0x01\n        /* \"#utility.yul\":13629:13630   */\n      dup2\n        /* \"#utility.yul\":13625:13634   */\n      add\n        /* \"#utility.yul\":13620:13634   */\n      swap1\n      pop\n        /* \"#utility.yul\":13585:14044   */\n      jump(tag_394)\n    tag_396:\n        /* \"#utility.yul\":13589:13603   */\n      pop\n        /* \"#utility.yul\":14060:14064   */\n      dup3\n        /* \"#utility.yul\":14053:14064   */\n      swap8\n      pop\n        /* \"#utility.yul\":14080:14083   */\n      dup8\n        /* \"#utility.yul\":14073:14083   */\n      swap6\n      pop\n        /* \"#utility.yul\":13116:14089   */\n      pop\n      pop\n      pop\n      pop\n      pop\n        /* \"#utility.yul\":12930:14089   */\n      swap3\n      swap2\n      pop\n      pop\n      jump\t// out\n        /* \"#utility.yul\":14095:14592   */\n    tag_62:\n        /* \"#utility.yul\":14300:14304   */\n      0x00\n        /* \"#utility.yul\":14338:14340   */\n      0x20\n        /* \"#utility.yul\":14327:14336   */\n      dup3\n        /* \"#utility.yul\":14323:14341   */\n      add\n        /* \"#utility.yul\":14315:14341   */\n      swap1\n      pop\n        /* \"#utility.yul\":14387:14396   */\n      dup2\n        /* \"#utility.yul\":14381:14385   */\n      dup2\n        /* \"#utility.yul\":14377:14397   */\n      sub\n        /* \"#utility.yul\":14373:14374   */\n      0x00\n        /* \"#utility.yul\":14362:14371   */\n      dup4\n        /* \"#utility.yul\":14358:14375   */\n      add\n        /* \"#utility.yul\":14351:14398   */\n      mstore\n        /* \"#utility.yul\":14415:14585   */\n      tag_400\n        /* \"#utility.yul\":14580:14584   */\n      dup2\n        /* \"#utility.yul\":14571:14577   */\n      dup5\n        /* \"#utility.yul\":14415:14585   */\n      tag_241\n      jump\t// in\n    tag_400:\n        /* \"#utility.yul\":14407:14585   */\n      swap1\n      pop\n        /* \"#utility.yul\":14095:14592   */\n      swap3\n      swap2\n      pop\n      pop\n      jump\t// out\n        /* \"#utility.yul\":14598:14720   */\n    tag_242:\n        /* \"#utility.yul\":14671:14695   */\n      tag_402\n        /* \"#utility.yul\":14689:14694   */\n      dup2\n        /* \"#utility.yul\":14671:14695   */\n      tag_208\n      jump\t// in\n    tag_402:\n        /* \"#utility.yul\":14664:14669   */\n      dup2\n        /* \"#utility.yul\":14661:14696   */\n      eq\n        /* \"#utility.yul\":14651:14714   */\n      tag_403\n      jumpi\n        /* \"#utility.yul\":14710:14711   */\n      0x00\n        /* \"#utility.yul\":14707:14708   */\n      dup1\n        /* \"#utility.yul\":14700:14712   */\n      revert\n        /* \"#utility.yul\":14651:14714   */\n    tag_403:\n        /* \"#utility.yul\":14598:14720   */\n      pop\n      jump\t// out\n        /* \"#utility.yul\":14726:14865   */\n    tag_243:\n        /* \"#utility.yul\":14772:14777   */\n      0x00\n        /* \"#utility.yul\":14810:14816   */\n      dup2\n        /* \"#utility.yul\":14797:14817   */\n      calldataload\n        /* \"#utility.yul\":14788:14817   */\n      swap1\n      pop\n        /* \"#utility.yul\":14826:14859   */\n      tag_405\n        /* \"#utility.yul\":14853:14858   */\n      dup2\n        /* \"#utility.yul\":14826:14859   */\n      tag_242\n      jump\t// in\n    tag_405:\n        /* \"#utility.yul\":14726:14865   */\n      swap3\n      swap2\n      pop\n      pop\n      jump\t// out\n        /* \"#utility.yul\":14871:15009   */\n    tag_244:\n        /* \"#utility.yul\":14952:14984   */\n      tag_407\n        /* \"#utility.yul\":14978:14983   */\n      dup2\n        /* \"#utility.yul\":14952:14984   */\n      tag_232\n      jump\t// in\n    tag_407:\n        /* \"#utility.yul\":14945:14950   */\n      dup2\n        /* \"#utility.yul\":14942:14985   */\n      eq\n        /* \"#utility.yul\":14932:15003   */\n      tag_408\n      jumpi\n        /* \"#utility.yul\":14999:15000   */\n      0x00\n        /* \"#utility.yul\":14996:14997   */\n      dup1\n        /* \"#utility.yul\":14989:15001   */\n      revert\n        /* \"#utility.yul\":14932:15003   */\n    tag_408:\n        /* \"#utility.yul\":14871:15009   */\n      pop\n      jump\t// out\n        /* \"#utility.yul\":15015:15170   */\n    tag_245:\n        /* \"#utility.yul\":15069:15074   */\n      0x00\n        /* \"#utility.yul\":15107:15113   */\n      dup2\n        /* \"#utility.yul\":15094:15114   */\n      calldataload\n        /* \"#utility.yul\":15085:15114   */\n      swap1\n      pop\n        /* \"#utility.yul\":15123:15164   */\n      tag_410\n        /* \"#utility.yul\":15158:15163   */\n      dup2\n        /* \"#utility.yul\":15123:15164   */\n      tag_244\n      jump\t// in\n    tag_410:\n        /* \"#utility.yul\":15015:15170   */\n      swap3\n      swap2\n      pop\n      pop\n      jump\t// out\n        /* \"#utility.yul\":15176:16463   */\n    tag_72:\n        /* \"#utility.yul\":15299:15305   */\n      0x00\n        /* \"#utility.yul\":15307:15313   */\n      dup1\n        /* \"#utility.yul\":15315:15321   */\n      0x00\n        /* \"#utility.yul\":15323:15329   */\n      dup1\n        /* \"#utility.yul\":15331:15337   */\n      0x00\n        /* \"#utility.yul\":15380:15383   */\n      0xa0\n        /* \"#utility.yul\":15368:15377   */\n      dup7\n        /* \"#utility.yul\":15359:15366   */\n      dup9\n        /* \"#utility.yul\":15355:15378   */\n      sub\n        /* \"#utility.yul\":15351:15384   */\n      slt\n        /* \"#utility.yul\":15348:15468   */\n      iszero\n      tag_412\n      jumpi\n        /* \"#utility.yul\":15387:15466   */\n      tag_413\n      tag_202\n      jump\t// in\n    tag_413:\n        /* \"#utility.yul\":15348:15468   */\n    tag_412:\n        /* \"#utility.yul\":15535:15536   */\n      0x00\n        /* \"#utility.yul\":15524:15533   */\n      dup7\n        /* \"#utility.yul\":15520:15537   */\n      add\n        /* \"#utility.yul\":15507:15538   */\n      calldataload\n        /* \"#utility.yul\":15565:15583   */\n      0xffffffffffffffff\n        /* \"#utility.yul\":15557:15563   */\n      dup2\n        /* \"#utility.yul\":15554:15584   */\n      gt\n        /* \"#utility.yul\":15551:15668   */\n      iszero\n      tag_414\n      jumpi\n        /* \"#utility.yul\":15587:15666   */\n      tag_415\n      tag_203\n      jump\t// in\n    tag_415:\n        /* \"#utility.yul\":15551:15668   */\n    tag_414:\n        /* \"#utility.yul\":15692:15755   */\n      tag_416\n        /* \"#utility.yul\":15747:15754   */\n      dup9\n        /* \"#utility.yul\":15738:15744   */\n      dup3\n        /* \"#utility.yul\":15727:15736   */\n      dup10\n        /* \"#utility.yul\":15723:15745   */\n      add\n        /* \"#utility.yul\":15692:15755   */\n      tag_223\n      jump\t// in\n    tag_416:\n        /* \"#utility.yul\":15682:15755   */\n      swap6\n      pop\n        /* \"#utility.yul\":15478:15765   */\n      pop\n        /* \"#utility.yul\":15832:15834   */\n      0x20\n        /* \"#utility.yul\":15821:15830   */\n      dup7\n        /* \"#utility.yul\":15817:15835   */\n      add\n        /* \"#utility.yul\":15804:15836   */\n      calldataload\n        /* \"#utility.yul\":15863:15881   */\n      0xffffffffffffffff\n        /* \"#utility.yul\":15855:15861   */\n      dup2\n        /* \"#utility.yul\":15852:15882   */\n      gt\n        /* \"#utility.yul\":15849:15966   */\n      iszero\n      tag_417\n      jumpi\n        /* \"#utility.yul\":15885:15964   */\n      tag_418\n      tag_203\n      jump\t// in\n    tag_418:\n        /* \"#utility.yul\":15849:15966   */\n    tag_417:\n        /* \"#utility.yul\":15990:16053   */\n      tag_419\n        /* \"#utility.yul\":16045:16052   */\n      dup9\n        /* \"#utility.yul\":16036:16042   */\n      dup3\n        /* \"#utility.yul\":16025:16034   */\n      dup10\n        /* \"#utility.yul\":16021:16043   */\n      add\n        /* \"#utility.yul\":15990:16053   */\n      tag_223\n      jump\t// in\n    tag_419:\n        /* \"#utility.yul\":15980:16053   */\n      swap5\n      pop\n        /* \"#utility.yul\":15775:16063   */\n      pop\n        /* \"#utility.yul\":16102:16104   */\n      0x40\n        /* \"#utility.yul\":16128:16181   */\n      tag_420\n        /* \"#utility.yul\":16173:16180   */\n      dup9\n        /* \"#utility.yul\":16164:16170   */\n      dup3\n        /* \"#utility.yul\":16153:16162   */\n      dup10\n        /* \"#utility.yul\":16149:16171   */\n      add\n        /* \"#utility.yul\":16128:16181   */\n      tag_243\n      jump\t// in\n    tag_420:\n        /* \"#utility.yul\":16118:16181   */\n      swap4\n      pop\n        /* \"#utility.yul\":16073:16191   */\n      pop\n        /* \"#utility.yul\":16230:16232   */\n      0x60\n        /* \"#utility.yul\":16256:16309   */\n      tag_421\n        /* \"#utility.yul\":16301:16308   */\n      dup9\n        /* \"#utility.yul\":16292:16298   */\n      dup3\n        /* \"#utility.yul\":16281:16290   */\n      dup10\n        /* \"#utility.yul\":16277:16299   */\n      add\n        /* \"#utility.yul\":16256:16309   */\n      tag_243\n      jump\t// in\n    tag_421:\n        /* \"#utility.yul\":16246:16309   */\n      swap3\n      pop\n        /* \"#utility.yul\":16201:16319   */\n      pop\n        /* \"#utility.yul\":16358:16361   */\n      0x80\n        /* \"#utility.yul\":16385:16446   */\n      tag_422\n        /* \"#utility.yul\":16438:16445   */\n      dup9\n        /* \"#utility.yul\":16429:16435   */\n      dup3\n        /* \"#utility.yul\":16418:16427   */\n      dup10\n        /* \"#utility.yul\":16414:16436   */\n      add\n        /* \"#utility.yul\":16385:16446   */\n      tag_245\n      jump\t// in\n    tag_422:\n        /* \"#utility.yul\":16375:16446   */\n      swap2\n      pop\n        /* \"#utility.yul\":16329:16456   */\n      pop\n        /* \"#utility.yul\":15176:16463   */\n      swap3\n      swap6\n      pop\n      swap3\n      swap6\n      swap1\n      swap4\n      pop\n      jump\t// out\n        /* \"#utility.yul\":16469:16587   */\n    tag_246:\n        /* \"#utility.yul\":16556:16580   */\n      tag_424\n        /* \"#utility.yul\":16574:16579   */\n      dup2\n        /* \"#utility.yul\":16556:16580   */\n      tag_205\n      jump\t// in\n    tag_424:\n        /* \"#utility.yul\":16551:16554   */\n      dup3\n        /* \"#utility.yul\":16544:16581   */\n      mstore\n        /* \"#utility.yul\":16469:16587   */\n      pop\n      pop\n      jump\t// out\n        /* \"#utility.yul\":16593:16815   */\n    tag_78:\n        /* \"#utility.yul\":16686:16690   */\n      0x00\n        /* \"#utility.yul\":16724:16726   */\n      0x20\n        /* \"#utility.yul\":16713:16722   */\n      dup3\n        /* \"#utility.yul\":16709:16727   */\n      add\n        /* \"#utility.yul\":16701:16727   */\n      swap1\n      pop\n        /* \"#utility.yul\":16737:16808   */\n      tag_426\n        /* \"#utility.yul\":16805:16806   */\n      0x00\n        /* \"#utility.yul\":16794:16803   */\n      dup4\n        /* \"#utility.yul\":16790:16807   */\n      add\n        /* \"#utility.yul\":16781:16787   */\n      dup5\n        /* \"#utility.yul\":16737:16808   */\n      tag_246\n      jump\t// in\n    tag_426:\n        /* \"#utility.yul\":16593:16815   */\n      swap3\n      swap2\n      pop\n      pop\n      jump\t// out\n        /* \"#utility.yul\":16821:17001   */\n    tag_247:\n        /* \"#utility.yul\":16869:16946   */\n      0x4e487b7100000000000000000000000000000000000000000000000000000000\n        /* \"#utility.yul\":16866:16867   */\n      0x00\n        /* \"#utility.yul\":16859:16947   */\n      mstore\n        /* \"#utility.yul\":16966:16970   */\n      0x22\n        /* \"#utility.yul\":16963:16964   */\n      0x04\n        /* \"#utility.yul\":16956:16971   */\n      mstore\n        /* \"#utility.yul\":16990:16994   */\n      0x24\n        /* \"#utility.yul\":16987:16988   */\n      0x00\n        /* \"#utility.yul\":16980:16995   */\n      revert\n        /* \"#utility.yul\":17007:17327   */\n    tag_95:\n        /* \"#utility.yul\":17051:17057   */\n      0x00\n        /* \"#utility.yul\":17088:17089   */\n      0x02\n        /* \"#utility.yul\":17082:17086   */\n      dup3\n        /* \"#utility.yul\":17078:17090   */\n      div\n        /* \"#utility.yul\":17068:17090   */\n      swap1\n      pop\n        /* \"#utility.yul\":17135:17136   */\n      0x01\n        /* \"#utility.yul\":17129:17133   */\n      dup3\n        /* \"#utility.yul\":17125:17137   */\n      and\n        /* \"#utility.yul\":17156:17174   */\n      dup1\n        /* \"#utility.yul\":17146:17227   */\n      tag_429\n      jumpi\n        /* \"#utility.yul\":17212:17216   */\n      0x7f\n        /* \"#utility.yul\":17204:17210   */\n      dup3\n        /* \"#utility.yul\":17200:17217   */\n      and\n        /* \"#utility.yul\":17190:17217   */\n      swap2\n      pop\n        /* \"#utility.yul\":17146:17227   */\n    tag_429:\n        /* \"#utility.yul\":17274:17276   */\n      0x20\n        /* \"#utility.yul\":17266:17272   */\n      dup3\n        /* \"#utility.yul\":17263:17277   */\n      lt\n        /* \"#utility.yul\":17243:17261   */\n      dup2\n        /* \"#utility.yul\":17240:17278   */\n      sub\n        /* \"#utility.yul\":17237:17321   */\n      tag_430\n      jumpi\n        /* \"#utility.yul\":17293:17311   */\n      tag_431\n      tag_247\n      jump\t// in\n    tag_431:\n        /* \"#utility.yul\":17237:17321   */\n    tag_430:\n        /* \"#utility.yul\":17058:17327   */\n      pop\n        /* \"#utility.yul\":17007:17327   */\n      swap2\n      swap1\n      pop\n      jump\t// out\n        /* \"#utility.yul\":17333:17481   */\n    tag_248:\n        /* \"#utility.yul\":17435:17446   */\n      0x00\n        /* \"#utility.yul\":17472:17475   */\n      dup2\n        /* \"#utility.yul\":17457:17475   */\n      swap1\n      pop\n        /* \"#utility.yul\":17333:17481   */\n      swap3\n      swap2\n      pop\n      pop\n      jump\t// out\n        /* \"#utility.yul\":17487:17877   */\n    tag_249:\n        /* \"#utility.yul\":17593:17596   */\n      0x00\n        /* \"#utility.yul\":17621:17660   */\n      tag_434\n        /* \"#utility.yul\":17654:17659   */\n      dup3\n        /* \"#utility.yul\":17621:17660   */\n      tag_210\n      jump\t// in\n    tag_434:\n        /* \"#utility.yul\":17676:17765   */\n      tag_435\n        /* \"#utility.yul\":17758:17764   */\n      dup2\n        /* \"#utility.yul\":17753:17756   */\n      dup6\n        /* \"#utility.yul\":17676:17765   */\n      tag_248\n      jump\t// in\n    tag_435:\n        /* \"#utility.yul\":17669:17765   */\n      swap4\n      pop\n        /* \"#utility.yul\":17774:17839   */\n      tag_436\n        /* \"#utility.yul\":17832:17838   */\n      dup2\n        /* \"#utility.yul\":17827:17830   */\n      dup6\n        /* \"#utility.yul\":17820:17824   */\n      0x20\n        /* \"#utility.yul\":17813:17818   */\n      dup7\n        /* \"#utility.yul\":17809:17825   */\n      add\n        /* \"#utility.yul\":17774:17839   */\n      tag_212\n      jump\t// in\n    tag_436:\n        /* \"#utility.yul\":17864:17870   */\n      dup1\n        /* \"#utility.yul\":17859:17862   */\n      dup5\n        /* \"#utility.yul\":17855:17871   */\n      add\n        /* \"#utility.yul\":17848:17871   */\n      swap2\n      pop\n        /* \"#utility.yul\":17597:17877   */\n      pop\n        /* \"#utility.yul\":17487:17877   */\n      swap3\n      swap2\n      pop\n      pop\n      jump\t// out\n        /* \"#utility.yul\":17883:18158   */\n    tag_103:\n        /* \"#utility.yul\":18015:18018   */\n      0x00\n        /* \"#utility.yul\":18037:18132   */\n      tag_438\n        /* \"#utility.yul\":18128:18131   */\n      dup3\n        /* \"#utility.yul\":18119:18125   */\n      dup5\n        /* \"#utility.yul\":18037:18132   */\n      tag_249\n      jump\t// in\n    tag_438:\n        /* \"#utility.yul\":18030:18132   */\n      swap2\n      pop\n        /* \"#utility.yul\":18149:18152   */\n      dup2\n        /* \"#utility.yul\":18142:18152   */\n      swap1\n      pop\n        /* \"#utility.yul\":17883:18158   */\n      swap3\n      swap2\n      pop\n      pop\n      jump\t// out\n        /* \"#utility.yul\":18164:18344   */\n    tag_250:\n        /* \"#utility.yul\":18212:18289   */\n      0x4e487b7100000000000000000000000000000000000000000000000000000000\n        /* \"#utility.yul\":18209:18210   */\n      0x00\n        /* \"#utility.yul\":18202:18290   */\n      mstore\n        /* \"#utility.yul\":18309:18313   */\n      0x11\n        /* \"#utility.yul\":18306:18307   */\n      0x04\n        /* \"#utility.yul\":18299:18314   */\n      mstore\n        /* \"#utility.yul\":18333:18337   */\n      0x24\n        /* \"#utility.yul\":18330:18331   */\n      0x00\n        /* \"#utility.yul\":18323:18338   */\n      revert\n        /* \"#utility.yul\":18350:18583   */\n    tag_114:\n        /* \"#utility.yul\":18389:18392   */\n      0x00\n        /* \"#utility.yul\":18412:18436   */\n      tag_441\n        /* \"#utility.yul\":18430:18435   */\n      dup3\n        /* \"#utility.yul\":18412:18436   */\n      tag_208\n      jump\t// in\n    tag_441:\n        /* \"#utility.yul\":18403:18436   */\n      swap2\n      pop\n        /* \"#utility.yul\":18458:18524   */\n      0xffffffffffffffffffffffffffffffffffffffffffffffffffffffffffffffff\n        /* \"#utility.yul\":18451:18456   */\n      dup3\n        /* \"#utility.yul\":18448:18525   */\n      sub\n        /* \"#utility.yul\":18445:18548   */\n      tag_442\n      jumpi\n        /* \"#utility.yul\":18528:18546   */\n      tag_443\n      tag_250\n      jump\t// in\n    tag_443:\n        /* \"#utility.yul\":18445:18548   */\n    tag_442:\n        /* \"#utility.yul\":18575:18576   */\n      0x01\n        /* \"#utility.yul\":18568:18573   */\n      dup3\n        /* \"#utility.yul\":18564:18577   */\n      add\n        /* \"#utility.yul\":18557:18577   */\n      swap1\n      pop\n        /* \"#utility.yul\":18350:18583   */\n      swap2\n      swap1\n      pop\n      jump\t// out\n        /* \"#utility.yul\":18589:18730   */\n    tag_251:\n        /* \"#utility.yul\":18638:18642   */\n      0x00\n        /* \"#utility.yul\":18661:18664   */\n      dup2\n        /* \"#utility.yul\":18653:18664   */\n      swap1\n      pop\n        /* \"#utility.yul\":18684:18687   */\n      dup2\n        /* \"#utility.yul\":18681:18682   */\n      0x00\n        /* \"#utility.yul\":18674:18688   */\n      mstore\n        /* \"#utility.yul\":18718:18722   */\n      0x20\n        /* \"#utility.yul\":18715:18716   */\n      0x00\n        /* \"#utility.yul\":18705:18723   */\n      keccak256\n        /* \"#utility.yul\":18697:18723   */\n      swap1\n      pop\n        /* \"#utility.yul\":18589:18730   */\n      swap2\n      swap1\n      pop\n      jump\t// out\n        /* \"#utility.yul\":18736:18829   */\n    tag_252:\n        /* \"#utility.yul\":18773:18779   */\n      0x00\n        /* \"#utility.yul\":18820:18822   */\n      0x20\n        /* \"#utility.yul\":18815:18817   */\n      0x1f\n        /* \"#utility.yul\":18808:18813   */\n      dup4\n        /* \"#utility.yul\":18804:18818   */\n      add\n        /* \"#utility.yul\":18800:18823   */\n      div\n        /* \"#utility.yul\":18790:18823   */\n      swap1\n      pop\n        /* \"#utility.yul\":18736:18829   */\n      swap2\n      swap1\n      pop\n      jump\t// out\n        /* \"#utility.yul\":18835:18942   */\n    tag_253:\n        /* \"#utility.yul\":18879:18887   */\n      0x00\n        /* \"#utility.yul\":18929:18934   */\n      dup3\n        /* \"#utility.yul\":18923:18927   */\n      dup3\n        /* \"#utility.yul\":18919:18935   */\n      shl\n        /* \"#utility.yul\":18898:18935   */\n      swap1\n      pop\n        /* \"#utility.yul\":18835:18942   */\n      swap3\n      swap2\n      pop\n      pop\n      jump\t// out\n        /* \"#utility.yul\":18948:19341   */\n    tag_254:\n        /* \"#utility.yul\":19017:19023   */\n      0x00\n        /* \"#utility.yul\":19067:19068   */\n      0x08\n        /* \"#utility.yul\":19055:19065   */\n      dup4\n        /* \"#utility.yul\":19051:19069   */\n      mul\n        /* \"#utility.yul\":19090:19187   */\n      tag_448\n        /* \"#utility.yul\":19120:19186   */\n      0xffffffffffffffffffffffffffffffffffffffffffffffffffffffffffffffff\n        /* \"#utility.yul\":19109:19118   */\n      dup3\n        /* \"#utility.yul\":19090:19187   */\n      tag_253\n      jump\t// in\n    tag_448:\n        /* \"#utility.yul\":19208:19247   */\n      tag_449\n        /* \"#utility.yul\":19238:19246   */\n      dup7\n        /* \"#utility.yul\":19227:19236   */\n      dup4\n        /* \"#utility.yul\":19208:19247   */\n      tag_253\n      jump\t// in\n    tag_449:\n        /* \"#utility.yul\":19196:19247   */\n      swap6\n      pop\n        /* \"#utility.yul\":19280:19284   */\n      dup1\n        /* \"#utility.yul\":19276:19285   */\n      not\n        /* \"#utility.yul\":19269:19274   */\n      dup5\n        /* \"#utility.yul\":19265:19286   */\n      and\n        /* \"#utility.yul\":19256:19286   */\n      swap4\n      pop\n        /* \"#utility.yul\":19329:19333   */\n      dup1\n        /* \"#utility.yul\":19319:19327   */\n      dup7\n        /* \"#utility.yul\":19315:19334   */\n      and\n        /* \"#utility.yul\":19308:19313   */\n      dup5\n        /* \"#utility.yul\":19305:19335   */\n      or\n        /* \"#utility.yul\":19295:19335   */\n      swap3\n      pop\n        /* \"#utility.yul\":19024:19341   */\n      pop\n      pop\n        /* \"#utility.yul\":18948:19341   */\n      swap4\n      swap3\n      pop\n      pop\n      pop\n      jump\t// out\n        /* \"#utility.yul\":19347:19407   */\n    tag_255:\n        /* \"#utility.yul\":19375:19378   */\n      0x00\n        /* \"#utility.yul\":19396:19401   */\n      dup2\n        /* \"#utility.yul\":19389:19401   */\n      swap1\n      pop\n        /* \"#utility.yul\":19347:19407   */\n      swap2\n      swap1\n      pop\n      jump\t// out\n        /* \"#utility.yul\":19413:19555   */\n    tag_256:\n        /* \"#utility.yul\":19463:19472   */\n      0x00\n        /* \"#utility.yul\":19496:19549   */\n      tag_452\n        /* \"#utility.yul\":19514:19548   */\n      tag_453\n        /* \"#utility.yul\":19523:19547   */\n      tag_454\n        /* \"#utility.yul\":19541:19546   */\n      dup5\n        /* \"#utility.yul\":19523:19547   */\n      tag_208\n      jump\t// in\n    tag_454:\n        /* \"#utility.yul\":19514:19548   */\n      tag_255\n      jump\t// in\n    tag_453:\n        /* \"#utility.yul\":19496:19549   */\n      tag_208\n      jump\t// in\n    tag_452:\n        /* \"#utility.yul\":19483:19549   */\n      swap1\n      pop\n        /* \"#utility.yul\":19413:19555   */\n      swap2\n      swap1\n      pop\n      jump\t// out\n        /* \"#utility.yul\":19561:19636   */\n    tag_257:\n        /* \"#utility.yul\":19604:19607   */\n      0x00\n        /* \"#utility.yul\":19625:19630   */\n      dup2\n        /* \"#utility.yul\":19618:19630   */\n      swap1\n      pop\n        /* \"#utility.yul\":19561:19636   */\n      swap2\n      swap1\n      pop\n      jump\t// out\n        /* \"#utility.yul\":19642:19911   */\n    tag_258:\n        /* \"#utility.yul\":19752:19791   */\n      tag_457\n        /* \"#utility.yul\":19783:19790   */\n      dup4\n        /* \"#utility.yul\":19752:19791   */\n      tag_256\n      jump\t// in\n    tag_457:\n        /* \"#utility.yul\":19813:19904   */\n      tag_458\n        /* \"#utility.yul\":19862:19903   */\n      tag_459\n        /* \"#utility.yul\":19886:19902   */\n      dup3\n        /* \"#utility.yul\":19862:19903   */\n      tag_257\n      jump\t// in\n    tag_459:\n        /* \"#utility.yul\":19854:19860   */\n      dup5\n        /* \"#utility.yul\":19847:19851   */\n      dup5\n        /* \"#utility.yul\":19841:19852   */\n      sload\n        /* \"#utility.yul\":19813:19904   */\n      tag_254\n      jump\t// in\n    tag_458:\n        /* \"#utility.yul\":19807:19811   */\n      dup3\n        /* \"#utility.yul\":19800:19905   */\n      sstore\n        /* \"#utility.yul\":19718:19911   */\n      pop\n        /* \"#utility.yul\":19642:19911   */\n      pop\n      pop\n      pop\n      jump\t// out\n        /* \"#utility.yul\":19917:19990   */\n    tag_259:\n        /* \"#utility.yul\":19962:19965   */\n      0x00\n        /* \"#utility.yul\":19917:19990   */\n      swap1\n      jump\t// out\n        /* \"#utility.yul\":19996:20185   */\n    tag_260:\n        /* \"#utility.yul\":20073:20105   */\n      tag_462\n      tag_259\n      jump\t// in\n    tag_462:\n        /* \"#utility.yul\":20114:20179   */\n      tag_463\n        /* \"#utility.yul\":20172:20178   */\n      dup2\n        /* \"#utility.yul\":20164:20170   */\n      dup5\n        /* \"#utility.yul\":20158:20162   */\n      dup5\n        /* \"#utility.yul\":20114:20179   */\n      tag_258\n      jump\t// in\n    tag_463:\n        /* \"#utility.yul\":20049:20185   */\n      pop\n        /* \"#utility.yul\":19996:20185   */\n      pop\n      pop\n      jump\t// out\n        /* \"#utility.yul\":20191:20377   */\n    tag_261:\n        /* \"#utility.yul\":20251:20371   */\n    tag_465:\n        /* \"#utility.yul\":20268:20271   */\n      dup2\n        /* \"#utility.yul\":20261:20266   */\n      dup2\n        /* \"#utility.yul\":20258:20272   */\n      lt\n        /* \"#utility.yul\":20251:20371   */\n      iszero\n      tag_467\n      jumpi\n        /* \"#utility.yul\":20322:20361   */\n      tag_468\n        /* \"#utility.yul\":20359:20360   */\n      0x00\n        /* \"#utility.yul\":20352:20357   */\n      dup3\n        /* \"#utility.yul\":20322:20361   */\n      tag_260\n      jump\t// in\n    tag_468:\n        /* \"#utility.yul\":20295:20296   */\n      0x01\n        /* \"#utility.yul\":20288:20293   */\n      dup2\n        /* \"#utility.yul\":20284:20297   */\n      add\n        /* \"#utility.yul\":20275:20297   */\n      swap1\n      pop\n        /* \"#utility.yul\":20251:20371   */\n      jump(tag_465)\n    tag_467:\n        /* \"#utility.yul\":20191:20377   */\n      pop\n      pop\n      jump\t// out\n        /* \"#utility.yul\":20383:20926   */\n    tag_262:\n        /* \"#utility.yul\":20484:20486   */\n      0x1f\n        /* \"#utility.yul\":20479:20482   */\n      dup3\n        /* \"#utility.yul\":20476:20487   */\n      gt\n        /* \"#utility.yul\":20473:20919   */\n      iszero\n      tag_470\n      jumpi\n        /* \"#utility.yul\":20518:20556   */\n      tag_471\n        /* \"#utility.yul\":20550:20555   */\n      dup2\n        /* \"#utility.yul\":20518:20556   */\n      tag_251\n      jump\t// in\n    tag_471:\n        /* \"#utility.yul\":20602:20631   */\n      tag_472\n        /* \"#utility.yul\":20620:20630   */\n      dup5\n        /* \"#utility.yul\":20602:20631   */\n      tag_252\n      jump\t// in\n    tag_472:\n        /* \"#utility.yul\":20592:20600   */\n      dup2\n        /* \"#utility.yul\":20588:20632   */\n      add\n        /* \"#utility.yul\":20785:20787   */\n      0x20\n        /* \"#utility.yul\":20773:20783   */\n      dup6\n        /* \"#utility.yul\":20770:20788   */\n      lt\n        /* \"#utility.yul\":20767:20816   */\n      iszero\n      tag_473\n      jumpi\n        /* \"#utility.yul\":20806:20814   */\n      dup2\n        /* \"#utility.yul\":20791:20814   */\n      swap1\n      pop\n        /* \"#utility.yul\":20767:20816   */\n    tag_473:\n        /* \"#utility.yul\":20829:20909   */\n      tag_474\n        /* \"#utility.yul\":20885:20907   */\n      tag_475\n        /* \"#utility.yul\":20903:20906   */\n      dup6\n        /* \"#utility.yul\":20885:20907   */\n      tag_252\n      jump\t// in\n    tag_475:\n        /* \"#utility.yul\":20875:20883   */\n      dup4\n        /* \"#utility.yul\":20871:20908   */\n      add\n        /* \"#utility.yul\":20858:20869   */\n      dup3\n        /* \"#utility.yul\":20829:20909   */\n      tag_261\n      jump\t// in\n    tag_474:\n        /* \"#utility.yul\":20488:20919   */\n      pop\n      pop\n        /* \"#utility.yul\":20473:20919   */\n    tag_470:\n        /* \"#utility.yul\":20383:20926   */\n      pop\n      pop\n      pop\n      jump\t// out\n        /* \"#utility.yul\":20932:21049   */\n    tag_263:\n        /* \"#utility.yul\":20986:20994   */\n      0x00\n        /* \"#utility.yul\":21036:21041   */\n      dup3\n        /* \"#utility.yul\":21030:21034   */\n      dup3\n        /* \"#utility.yul\":21026:21042   */\n      shr\n        /* \"#utility.yul\":21005:21042   */\n      swap1\n      pop\n        /* \"#utility.yul\":20932:21049   */\n      swap3\n      swap2\n      pop\n      pop\n      jump\t// out\n        /* \"#utility.yul\":21055:21224   */\n    tag_264:\n        /* \"#utility.yul\":21099:21105   */\n      0x00\n        /* \"#utility.yul\":21132:21183   */\n      tag_478\n        /* \"#utility.yul\":21180:21181   */\n      0x00\n        /* \"#utility.yul\":21176:21182   */\n      not\n        /* \"#utility.yul\":21168:21173   */\n      dup5\n        /* \"#utility.yul\":21165:21166   */\n      0x08\n        /* \"#utility.yul\":21161:21174   */\n      mul\n        /* \"#utility.yul\":21132:21183   */\n      tag_263\n      jump\t// in\n    tag_478:\n        /* \"#utility.yul\":21128:21184   */\n      not\n        /* \"#utility.yul\":21213:21217   */\n      dup1\n        /* \"#utility.yul\":21207:21211   */\n      dup4\n        /* \"#utility.yul\":21203:21218   */\n      and\n        /* \"#utility.yul\":21193:21218   */\n      swap2\n      pop\n        /* \"#utility.yul\":21106:21224   */\n      pop\n        /* \"#utility.yul\":21055:21224   */\n      swap3\n      swap2\n      pop\n      pop\n      jump\t// out\n        /* \"#utility.yul\":21229:21524   */\n    tag_265:\n        /* \"#utility.yul\":21305:21309   */\n      0x00\n        /* \"#utility.yul\":21451:21480   */\n      tag_480\n        /* \"#utility.yul\":21476:21479   */\n      dup4\n        /* \"#utility.yul\":21470:21474   */\n      dup4\n        /* \"#utility.yul\":21451:21480   */\n      tag_264\n      jump\t// in\n    tag_480:\n        /* \"#utility.yul\":21443:21480   */\n      swap2\n      pop\n        /* \"#utility.yul\":21513:21516   */\n      dup3\n        /* \"#utility.yul\":21510:21511   */\n      0x02\n        /* \"#utility.yul\":21506:21517   */\n      mul\n        /* \"#utility.yul\":21500:21504   */\n      dup3\n        /* \"#utility.yul\":21497:21518   */\n      or\n        /* \"#utility.yul\":21489:21518   */\n      swap1\n      pop\n        /* \"#utility.yul\":21229:21524   */\n      swap3\n      swap2\n      pop\n      pop\n      jump\t// out\n        /* \"#utility.yul\":21529:22924   */\n    tag_175:\n        /* \"#utility.yul\":21646:21683   */\n      tag_482\n        /* \"#utility.yul\":21679:21682   */\n      dup3\n        /* \"#utility.yul\":21646:21683   */\n      tag_210\n      jump\t// in\n    tag_482:\n        /* \"#utility.yul\":21748:21766   */\n      0xffffffffffffffff\n        /* \"#utility.yul\":21740:21746   */\n      dup2\n        /* \"#utility.yul\":21737:21767   */\n      gt\n        /* \"#utility.yul\":21734:21790   */\n      iszero\n      tag_483\n      jumpi\n        /* \"#utility.yul\":21770:21788   */\n      tag_484\n      tag_217\n      jump\t// in\n    tag_484:\n        /* \"#utility.yul\":21734:21790   */\n    tag_483:\n        /* \"#utility.yul\":21814:21852   */\n      tag_485\n        /* \"#utility.yul\":21846:21850   */\n      dup3\n        /* \"#utility.yul\":21840:21851   */\n      sload\n        /* \"#utility.yul\":21814:21852   */\n      tag_95\n      jump\t// in\n    tag_485:\n        /* \"#utility.yul\":21899:21966   */\n      tag_486\n        /* \"#utility.yul\":21959:21965   */\n      dup3\n        /* \"#utility.yul\":21951:21957   */\n      dup3\n        /* \"#utility.yul\":21945:21949   */\n      dup6\n        /* \"#utility.yul\":21899:21966   */\n      tag_262\n      jump\t// in\n    tag_486:\n        /* \"#utility.yul\":21993:21994   */\n      0x00\n        /* \"#utility.yul\":22017:22021   */\n      0x20\n        /* \"#utility.yul\":22004:22021   */\n      swap1\n      pop\n        /* \"#utility.yul\":22049:22051   */\n      0x1f\n        /* \"#utility.yul\":22041:22047   */\n      dup4\n        /* \"#utility.yul\":22038:22052   */\n      gt\n        /* \"#utility.yul\":22066:22067   */\n      0x01\n        /* \"#utility.yul\":22061:22679   */\n      dup2\n      eq\n      tag_488\n      jumpi\n        /* \"#utility.yul\":22723:22724   */\n      0x00\n        /* \"#utility.yul\":22740:22746   */\n      dup5\n        /* \"#utility.yul\":22737:22814   */\n      iszero\n      tag_489\n      jumpi\n        /* \"#utility.yul\":22789:22798   */\n      dup3\n        /* \"#utility.yul\":22784:22787   */\n      dup8\n        /* \"#utility.yul\":22780:22799   */\n      add\n        /* \"#utility.yul\":22774:22800   */\n      mload\n        /* \"#utility.yul\":22765:22800   */\n      swap1\n      pop\n        /* \"#utility.yul\":22737:22814   */\n    tag_489:\n        /* \"#utility.yul\":22840:22907   */\n      tag_490\n        /* \"#utility.yul\":22900:22906   */\n      dup6\n        /* \"#utility.yul\":22893:22898   */\n      dup3\n        /* \"#utility.yul\":22840:22907   */\n      tag_265\n      jump\t// in\n    tag_490:\n        /* \"#utility.yul\":22834:22838   */\n      dup7\n        /* \"#utility.yul\":22827:22908   */\n      sstore\n        /* \"#utility.yul\":22696:22918   */\n      pop\n        /* \"#utility.yul\":22031:22918   */\n      jump(tag_487)\n        /* \"#utility.yul\":22061:22679   */\n    tag_488:\n        /* \"#utility.yul\":22113:22117   */\n      0x1f\n        /* \"#utility.yul\":22109:22118   */\n      not\n        /* \"#utility.yul\":22101:22107   */\n      dup5\n        /* \"#utility.yul\":22097:22119   */\n      and\n        /* \"#utility.yul\":22147:22184   */\n      tag_491\n        /* \"#utility.yul\":22179:22183   */\n      dup7\n        /* \"#utility.yul\":22147:22184   */\n      tag_251\n      jump\t// in\n    tag_491:\n        /* \"#utility.yul\":22206:22207   */\n      0x00\n        /* \"#utility.yul\":22220:22428   */\n    tag_492:\n        /* \"#utility.yul\":22234:22241   */\n      dup3\n        /* \"#utility.yul\":22231:22232   */\n      dup2\n        /* \"#utility.yul\":22228:22242   */\n      lt\n        /* \"#utility.yul\":22220:22428   */\n      iszero\n      tag_494\n      jumpi\n        /* \"#utility.yul\":22313:22322   */\n      dup5\n        /* \"#utility.yul\":22308:22311   */\n      dup10\n        /* \"#utility.yul\":22304:22323   */\n      add\n        /* \"#utility.yul\":22298:22324   */\n      mload\n        /* \"#utility.yul\":22290:22296   */\n      dup3\n        /* \"#utility.yul\":22283:22325   */\n      sstore\n        /* \"#utility.yul\":22364:22365   */\n      0x01\n        /* \"#utility.yul\":22356:22362   */\n      dup3\n        /* \"#utility.yul\":22352:22366   */\n      add\n        /* \"#utility.yul\":22342:22366   */\n      swap2\n      pop\n        /* \"#utility.yul\":22411:22413   */\n      0x20\n        /* \"#utility.yul\":22400:22409   */\n      dup6\n        /* \"#utility.yul\":22396:22414   */\n      add\n        /* \"#utility.yul\":22383:22414   */\n      swap5\n      pop\n        /* \"#utility.yul\":22257:22261   */\n      0x20\n        /* \"#utility.yul\":22254:22255   */\n      dup2\n        /* \"#utility.yul\":22250:22262   */\n      add\n        /* \"#utility.yul\":22245:22262   */\n      swap1\n      pop\n        /* \"#utility.yul\":22220:22428   */\n      jump(tag_492)\n    tag_494:\n        /* \"#utility.yul\":22456:22462   */\n      dup7\n        /* \"#utility.yul\":22447:22454   */\n      dup4\n        /* \"#utility.yul\":22444:22463   */\n      lt\n        /* \"#utility.yul\":22441:22620   */\n      iszero\n      tag_495\n      jumpi\n        /* \"#utility.yul\":22514:22523   */\n      dup5\n        /* \"#utility.yul\":22509:22512   */\n      dup10\n        /* \"#utility.yul\":22505:22524   */\n      add\n        /* \"#utility.yul\":22499:22525   */\n      mload\n        /* \"#utility.yul\":22557:22605   */\n      tag_496\n        /* \"#utility.yul\":22599:22603   */\n      0x1f\n        /* \"#utility.yul\":22591:22597   */\n      dup10\n        /* \"#utility.yul\":22587:22604   */\n      and\n        /* \"#utility.yul\":22576:22585   */\n      dup3\n        /* \"#utility.yul\":22557:22605   */\n      tag_264\n      jump\t// in\n    tag_496:\n        /* \"#utility.yul\":22549:22555   */\n      dup4\n        /* \"#utility.yul\":22542:22606   */\n      sstore\n        /* \"#utility.yul\":22464:22620   */\n      pop\n        /* \"#utility.yul\":22441:22620   */\n    tag_495:\n        /* \"#utility.yul\":22666:22667   */\n      0x01\n        /* \"#utility.yul\":22662:22663   */\n      0x02\n        /* \"#utility.yul\":22654:22660   */\n      dup9\n        /* \"#utility.yul\":22650:22664   */\n      mul\n        /* \"#utility.yul\":22646:22668   */\n      add\n        /* \"#utility.yul\":22640:22644   */\n      dup9\n        /* \"#utility.yul\":22633:22669   */\n      sstore\n        /* \"#utility.yul\":22068:22679   */\n      pop\n      pop\n      pop\n        /* \"#utility.yul\":22031:22918   */\n    tag_487:\n      pop\n        /* \"#utility.yul\":21621:22924   */\n      pop\n      pop\n      pop\n        /* \"#utility.yul\":21529:22924   */\n      pop\n      pop\n      jump\t// out\n\n    auxdata: 0xa26469706673582212201ebeedcd5f53a36408d8cd72b46c746409aecfe595000bd090b6da9153591c9464736f6c63430008180033\n}\n","bytecode":{"linkReferences":{},"object":"608060405234801562000010575f80fd5b50604051620022b8380380620022b88339818101604052810190620000369190620002d4565b5f821162000042575f80fd5b8060025f6101000a81548173ffffffffffffffffffffffffffffffffffffffff021916908373ffffffffffffffffffffffffffffffffffffffff160217905550835f9081620000929190620005af565b508260019081620000a49190620005af565b50816005819055505050505062000693565b5f604051905090565b5f80fd5b5f80fd5b5f80fd5b5f80fd5b5f601f19601f8301169050919050565b7f4e487b71000000000000000000000000000000000000000000000000000000005f52604160045260245ffd5b6200011782620000cf565b810181811067ffffffffffffffff82111715620001395762000138620000df565b5b80604052505050565b5f6200014d620000b6565b90506200015b82826200010c565b919050565b5f67ffffffffffffffff8211156200017d576200017c620000df565b5b6200018882620000cf565b9050602081019050919050565b5f5b83811015620001b457808201518184015260208101905062000197565b5f8484015250505050565b5f620001d5620001cf8462000160565b62000142565b905082815260208101848484011115620001f457620001f3620000cb565b5b6200020184828562000195565b509392505050565b5f82601f83011262000220576200021f620000c7565b5b815162000232848260208601620001bf565b91505092915050565b5f819050919050565b6200024f816200023b565b81146200025a575f80fd5b50565b5f815190506200026d8162000244565b92915050565b5f73ffffffffffffffffffffffffffffffffffffffff82169050919050565b5f6200029e8262000273565b9050919050565b620002b08162000292565b8114620002bb575f80fd5b50565b5f81519050620002ce81620002a5565b92915050565b5f805f8060808587031215620002ef57620002ee620000bf565b5b5f85015167ffffffffffffffff8111156200030f576200030e620000c3565b5b6200031d8782880162000209565b945050602085015167ffffffffffffffff811115620003415762000340620000c3565b5b6200034f8782880162000209565b935050604062000362878288016200025d565b92505060606200037587828801620002be565b91505092959194509250565b5f81519050919050565b7f4e487b71000000000000000000000000000000000000000000000000000000005f52602260045260245ffd5b5f6002820490506001821680620003d057607f821691505b602082108103620003e657620003e56200038b565b5b50919050565b5f819050815f5260205f209050919050565b5f6020601f8301049050919050565b5f82821b905092915050565b5f600883026200044a7fffffffffffffffffffffffffffffffffffffffffffffffffffffffffffffffff826200040d565b6200045686836200040d565b95508019841693508086168417925050509392505050565b5f819050919050565b5f62000497620004916200048b846200023b565b6200046e565b6200023b565b9050919050565b5f819050919050565b620004b28362000477565b620004ca620004c1826200049e565b84845462000419565b825550505050565b5f90565b620004e0620004d2565b620004ed818484620004a7565b505050565b5b818110156200051457620005085f82620004d6565b600181019050620004f3565b5050565b601f82111562000563576200052d81620003ec565b6200053884620003fe565b8101602085101562000548578190505b620005606200055785620003fe565b830182620004f2565b50505b505050565b5f82821c905092915050565b5f620005855f198460080262000568565b1980831691505092915050565b5f6200059f838362000574565b9150826002028217905092915050565b620005ba8262000381565b67ffffffffffffffff811115620005d657620005d5620000df565b5b620005e28254620003b8565b620005ef82828562000518565b5f60209050601f83116001811462000625575f841562000610578287015190505b6200061c858262000592565b8655506200068b565b601f1984166200063586620003ec565b5f5b828110156200065e5784890151825560018201915060208501945060208101905062000637565b868310156200067e57848901516200067a601f89168262000574565b8355505b6001600288020188555050505b505050505050565b611c1780620006a15f395ff3fe6080604052600436106100f2575f3560e01c8063885e7c6211610089578063d7bb99ba11610058578063d7bb99ba146102f5578063e2e46b52146102ff578063f84038b114610327578063feed556114610351576100f2565b8063885e7c621461026f578063a26759cb14610299578063a7ac8000146102a3578063d5009584146102cb576100f2565b80634051ddac116100c55780634051ddac146101ae578063692d51d2146101d85780636f9fb98a1461021b5780638813ce1214610245576100f2565b80630a144391146100f65780631a0925411461013257806330e8fc5c1461015c5780633410452a14610184575b5f80fd5b348015610101575f80fd5b5061011c60048036038101906101179190611113565b61037b565b6040516101299190611156565b60405180910390f35b34801561013d575f80fd5b50610146610390565b60405161015391906111f9565b60405180910390f35b348015610167575f80fd5b50610182600480360381019061017d919061137a565b610420565b005b34801561018f575f80fd5b50610198610648565b6040516101a59190611156565b60405180910390f35b3480156101b9575f80fd5b506101c2610651565b6040516101cf91906114da565b60405180910390f35b3480156101e3575f80fd5b506101fe60048036038101906101f991906114fa565b6107e2565b604051610212989796959493929190611570565b60405180910390f35b348015610226575f80fd5b5061022f610982565b60405161023c9190611156565b60405180910390f35b348015610250575f80fd5b50610259610989565b6040516102669190611709565b60405180910390f35b34801561027a575f80fd5b50610283610b0e565b60405161029091906111f9565b60405180910390f35b6102a1610b9d565b005b3480156102ae575f80fd5b506102c960048036038101906102c4919061177d565b610bf7565b005b3480156102d6575f80fd5b506102df610df1565b6040516102ec919061183b565b60405180910390f35b6102fd610e19565b005b34801561030a575f80fd5b50610325600480360381019061032091906114fa565b610eca565b005b348015610332575f80fd5b5061033b611048565b6040516103489190611156565b60405180910390f35b34801561035c575f80fd5b50610365611051565b6040516103729190611156565b60405180910390f35b6003602052805f5260405f205f915090505481565b60606001805461039f90611881565b80601f01602080910402602001604051908101604052809291908181526020018280546103cb90611881565b80156104165780601f106103ed57610100808354040283529160200191610416565b820191905f5260205f20905b8154815290600101906020018083116103f957829003601f168201915b5050505050905090565b60025f9054906101000a900473ffffffffffffffffffffffffffffffffffffffff1673ffffffffffffffffffffffffffffffffffffffff163373ffffffffffffffffffffffffffffffffffffffff1603610478575f80fd5b5f60078360405161048991906118eb565b908152602001604051809103902090505f815f0180546104a890611881565b9050116104b3575f80fd5b8251815f0180546104c390611881565b9050146104ce575f80fd5b5f60035f3373ffffffffffffffffffffffffffffffffffffffff1673ffffffffffffffffffffffffffffffffffffffff1681526020019081526020015f205411610516575f80fd5b806006015f9054906101000a900460ff1615610530575f80fd5b8060060160019054906101000a900460ff161561054b575f80fd5b806007015f3373ffffffffffffffffffffffffffffffffffffffff1673ffffffffffffffffffffffffffffffffffffffff1681526020019081526020015f205f9054906101000a900460ff16156105a0575f80fd5b6001816007015f3373ffffffffffffffffffffffffffffffffffffffff1673ffffffffffffffffffffffffffffffffffffffff1681526020019081526020015f205f6101000a81548160ff021916908315150217905550811561061757806004015f8154809291906106119061192e565b91905055505b8060050154816004015410610643576001816006015f6101000a81548160ff0219169083151502179055505b505050565b5f600854905090565b61065961105a565b5f6040518060e0016040528060025f9054906101000a900473ffffffffffffffffffffffffffffffffffffffff1673ffffffffffffffffffffffffffffffffffffffff1681526020015f80546106ae90611881565b80601f01602080910402602001604051908101604052809291908181526020018280546106da90611881565b80156107255780601f106106fc57610100808354040283529160200191610725565b820191905f5260205f20905b81548152906001019060200180831161070857829003601f168201915b505050505081526020016001805461073c90611881565b80601f016020809104026020016040519081016040528092919081815260200182805461076890611881565b80156107b35780601f1061078a576101008083540402835291602001916107b3565b820191905f5260205f20905b81548152906001019060200180831161079657829003601f168201915b505050505081526020016005548152602001478152602001600454815260200160085481525090508091505090565b6007818051602081018201805184825260208301602085012081835280955050505050505f91509050805f01805461081990611881565b80601f016020809104026020016040519081016040528092919081815260200182805461084590611881565b80156108905780601f1061086757610100808354040283529160200191610890565b820191905f5260205f20905b81548152906001019060200180831161087357829003601f168201915b5050505050908060010180546108a590611881565b80601f01602080910402602001604051908101604052809291908181526020018280546108d190611881565b801561091c5780601f106108f35761010080835404028352916020019161091c565b820191905f5260205f20905b8154815290600101906020018083116108ff57829003601f168201915b505050505090806002015490806003015f9054906101000a900473ffffffffffffffffffffffffffffffffffffffff1690806004015490806005015490806006015f9054906101000a900460ff16908060060160019054906101000a900460ff16905088565b5f47905090565b60606006805480602002602001604051908101604052809291908181526020015f905b82821015610b05578382905f5260205f2090600302016040518060600160405290815f820180546109dc90611881565b80601f0160208091040260200160405190810160405280929190818152602001828054610a0890611881565b8015610a535780601f10610a2a57610100808354040283529160200191610a53565b820191905f5260205f20905b815481529060010190602001808311610a3657829003601f168201915b50505050508152602001600182018054610a6c90611881565b80601f0160208091040260200160405190810160405280929190818152602001828054610a9890611881565b8015610ae35780601f10610aba57610100808354040283529160200191610ae3565b820191905f5260205f20905b815481529060010190602001808311610ac657829003601f168201915b50505050508152602001600282015481525050815260200190600101906109ac565b50505050905090565b60605f8054610b1c90611881565b80601f0160208091040260200160405190810160405280929190818152602001828054610b4890611881565b8015610b935780601f10610b6a57610100808354040283529160200191610b93565b820191905f5260205f20905b815481529060010190602001808311610b7657829003601f168201915b5050505050905090565b60025f9054906101000a900473ffffffffffffffffffffffffffffffffffffffff1673ffffffffffffffffffffffffffffffffffffffff163373ffffffffffffffffffffffffffffffffffffffff1614610bf5575f80fd5b565b60025f9054906101000a900473ffffffffffffffffffffffffffffffffffffffff1673ffffffffffffffffffffffffffffffffffffffff163373ffffffffffffffffffffffffffffffffffffffff1614610c4f575f80fd5b5f855111610c5b575f80fd5b5f845111610c67575f80fd5b5f8311610c72575f80fd5b47831115610c7e575f80fd5b5f8211610c89575f80fd5b600454821115610c97575f80fd5b5f600786604051610ca891906118eb565b9081526020016040518091039020905085815f019081610cc89190611b12565b5084816001019081610cda9190611b12565b5083816002018190555081816003015f6101000a81548173ffffffffffffffffffffffffffffffffffffffff021916908373ffffffffffffffffffffffffffffffffffffffff1602179055505f81600401819055508281600501819055505f8160060160016101000a81548160ff02191690831515021790555060085f815480929190610d669061192e565b91905055505f6040518060600160405280888152602001878152602001868152509050600681908060018154018082558091505060019003905f5260205f2090600302015f909190919091505f820151815f019081610dc59190611b12565b506020820151816001019081610ddb9190611b12565b5060408201518160020155505050505050505050565b5f60025f9054906101000a900473ffffffffffffffffffffffffffffffffffffffff16905090565b600554341015610e27575f80fd5b5f60035f3373ffffffffffffffffffffffffffffffffffffffff1673ffffffffffffffffffffffffffffffffffffffff1681526020019081526020015f205414610e6f575f80fd5b3460035f3373ffffffffffffffffffffffffffffffffffffffff1673ffffffffffffffffffffffffffffffffffffffff1681526020019081526020015f208190555060045f815480929190610ec39061192e565b9190505550565b60025f9054906101000a900473ffffffffffffffffffffffffffffffffffffffff1673ffffffffffffffffffffffffffffffffffffffff163373ffffffffffffffffffffffffffffffffffffffff1614610f22575f80fd5b5f600782604051610f3391906118eb565b908152602001604051809103902090505f815f018054610f5290611881565b905011610f5d575f80fd5b8151815f018054610f6d90611881565b905014610f78575f80fd5b806006015f9054906101000a900460ff168015610fa457508060060160019054906101000a900460ff16155b610fac575f80fd5b8060020154471015610fbc575f80fd5b806003015f9054906101000a900473ffffffffffffffffffffffffffffffffffffffff1673ffffffffffffffffffffffffffffffffffffffff166108fc826002015490811502906040515f60405180830381858888f19350505050158015611026573d5f803e3d5ffd5b5060018160060160016101000a81548160ff0219169083151502179055505050565b5f600554905090565b5f600454905090565b6040518060e001604052805f73ffffffffffffffffffffffffffffffffffffffff16815260200160608152602001606081526020015f81526020015f81526020015f81526020015f81525090565b5f604051905090565b5f80fd5b5f80fd5b5f73ffffffffffffffffffffffffffffffffffffffff82169050919050565b5f6110e2826110b9565b9050919050565b6110f2816110d8565b81146110fc575f80fd5b50565b5f8135905061110d816110e9565b92915050565b5f60208284031215611128576111276110b1565b5b5f611135848285016110ff565b91505092915050565b5f819050919050565b6111508161113e565b82525050565b5f6020820190506111695f830184611147565b92915050565b5f81519050919050565b5f82825260208201905092915050565b5f5b838110156111a657808201518184015260208101905061118b565b5f8484015250505050565b5f601f19601f8301169050919050565b5f6111cb8261116f565b6111d58185611179565b93506111e5818560208601611189565b6111ee816111b1565b840191505092915050565b5f6020820190508181035f83015261121181846111c1565b905092915050565b5f80fd5b5f80fd5b7f4e487b71000000000000000000000000000000000000000000000000000000005f52604160045260245ffd5b611257826111b1565b810181811067ffffffffffffffff8211171561127657611275611221565b5b80604052505050565b5f6112886110a8565b9050611294828261124e565b919050565b5f67ffffffffffffffff8211156112b3576112b2611221565b5b6112bc826111b1565b9050602081019050919050565b828183375f83830152505050565b5f6112e96112e484611299565b61127f565b9050828152602081018484840111156113055761130461121d565b5b6113108482856112c9565b509392505050565b5f82601f83011261132c5761132b611219565b5b813561133c8482602086016112d7565b91505092915050565b5f8115159050919050565b61135981611345565b8114611363575f80fd5b50565b5f8135905061137481611350565b92915050565b5f80604083850312156113905761138f6110b1565b5b5f83013567ffffffffffffffff8111156113ad576113ac6110b5565b5b6113b985828601611318565b92505060206113ca85828601611366565b9150509250929050565b6113dd816110d8565b82525050565b5f82825260208201905092915050565b5f6113fd8261116f565b61140781856113e3565b9350611417818560208601611189565b611420816111b1565b840191505092915050565b6114348161113e565b82525050565b5f60e083015f83015161144f5f8601826113d4565b506020830151848203602086015261146782826113f3565b9150506040830151848203604086015261148182826113f3565b9150506060830151611496606086018261142b565b5060808301516114a9608086018261142b565b5060a08301516114bc60a086018261142b565b5060c08301516114cf60c086018261142b565b508091505092915050565b5f6020820190508181035f8301526114f2818461143a565b905092915050565b5f6020828403121561150f5761150e6110b1565b5b5f82013567ffffffffffffffff81111561152c5761152b6110b5565b5b61153884828501611318565b91505092915050565b5f61154b826110b9565b9050919050565b61155b81611541565b82525050565b61156a81611345565b82525050565b5f610100820190508181035f830152611589818b6111c1565b9050818103602083015261159d818a6111c1565b90506115ac6040830189611147565b6115b96060830188611552565b6115c66080830187611147565b6115d360a0830186611147565b6115e060c0830185611561565b6115ed60e0830184611561565b9998505050505050505050565b5f81519050919050565b5f82825260208201905092915050565b5f819050602082019050919050565b5f606083015f8301518482035f86015261163d82826113f3565b9150506020830151848203602086015261165782826113f3565b915050604083015161166c604086018261142b565b508091505092915050565b5f6116828383611623565b905092915050565b5f602082019050919050565b5f6116a0826115fa565b6116aa8185611604565b9350836020820285016116bc85611614565b805f5b858110156116f757848403895281516116d88582611677565b94506116e38361168a565b925060208a019950506001810190506116bf565b50829750879550505050505092915050565b5f6020820190508181035f8301526117218184611696565b905092915050565b6117328161113e565b811461173c575f80fd5b50565b5f8135905061174d81611729565b92915050565b61175c81611541565b8114611766575f80fd5b50565b5f8135905061177781611753565b92915050565b5f805f805f60a08688031215611796576117956110b1565b5b5f86013567ffffffffffffffff8111156117b3576117b26110b5565b5b6117bf88828901611318565b955050602086013567ffffffffffffffff8111156117e0576117df6110b5565b5b6117ec88828901611318565b94505060406117fd8882890161173f565b935050606061180e8882890161173f565b925050608061181f88828901611769565b9150509295509295909350565b611835816110d8565b82525050565b5f60208201905061184e5f83018461182c565b92915050565b7f4e487b71000000000000000000000000000000000000000000000000000000005f52602260045260245ffd5b5f600282049050600182168061189857607f821691505b6020821081036118ab576118aa611854565b5b50919050565b5f81905092915050565b5f6118c58261116f565b6118cf81856118b1565b93506118df818560208601611189565b80840191505092915050565b5f6118f682846118bb565b915081905092915050565b7f4e487b71000000000000000000000000000000000000000000000000000000005f52601160045260245ffd5b5f6119388261113e565b91507fffffffffffffffffffffffffffffffffffffffffffffffffffffffffffffffff820361196a57611969611901565b5b600182019050919050565b5f819050815f5260205f209050919050565b5f6020601f8301049050919050565b5f82821b905092915050565b5f600883026119d17fffffffffffffffffffffffffffffffffffffffffffffffffffffffffffffffff82611996565b6119db8683611996565b95508019841693508086168417925050509392505050565b5f819050919050565b5f611a16611a11611a0c8461113e565b6119f3565b61113e565b9050919050565b5f819050919050565b611a2f836119fc565b611a43611a3b82611a1d565b8484546119a2565b825550505050565b5f90565b611a57611a4b565b611a62818484611a26565b505050565b5b81811015611a8557611a7a5f82611a4f565b600181019050611a68565b5050565b601f821115611aca57611a9b81611975565b611aa484611987565b81016020851015611ab3578190505b611ac7611abf85611987565b830182611a67565b50505b505050565b5f82821c905092915050565b5f611aea5f1984600802611acf565b1980831691505092915050565b5f611b028383611adb565b9150826002028217905092915050565b611b1b8261116f565b67ffffffffffffffff811115611b3457611b33611221565b5b611b3e8254611881565b611b49828285611a89565b5f60209050601f831160018114611b7a575f8415611b68578287015190505b611b728582611af7565b865550611bd9565b601f198416611b8886611975565b5f5b82811015611baf57848901518255600182019150602085019450602081019050611b8a565b86831015611bcc5784890151611bc8601f891682611adb565b8355505b6001600288020188555050505b50505050505056fea26469706673582212201ebeedcd5f53a36408d8cd72b46c746409aecfe595000bd090b6da9153591c9464736f6c63430008180033","opcodes":"PUSH1 0x80 PUSH1 0x40 MSTORE CALLVALUE DUP1 ISZERO PUSH3 0x10 JUMPI PUSH0 DUP1 REVERT JUMPDEST POP PUSH1 0x40 MLOAD PUSH3 0x22B8 CODESIZE SUB DUP1 PUSH3 0x22B8 DUP4 CODECOPY DUP2 DUP2 ADD PUSH1 0x40 MSTORE DUP2 ADD SWAP1 PUSH3 0x36 SWAP2 SWAP1 PUSH3 0x2D4 JUMP JUMPDEST PUSH0 DUP3 GT PUSH3 0x42 JUMPI PUSH0 DUP1 REVERT JUMPDEST DUP1 PUSH1 0x2 PUSH0 PUSH2 0x100 EXP DUP2 SLOAD DUP2 PUSH20 0xFFFFFFFFFFFFFFFFFFFFFFFFFFFFFFFFFFFFFFFF MUL NOT AND SWAP1 DUP4 PUSH20 0xFFFFFFFFFFFFFFFFFFFFFFFFFFFFFFFFFFFFFFFF AND MUL OR SWAP1 SSTORE POP DUP4 PUSH0 SWAP1 DUP2 PUSH3 0x92 SWAP2 SWAP1 PUSH3 0x5AF JUMP JUMPDEST POP DUP3 PUSH1 0x1 SWAP1 DUP2 PUSH3 0xA4 SWAP2 SWAP1 PUSH3 0x5AF JUMP JUMPDEST POP DUP2 PUSH1 0x5 DUP2 SWAP1 SSTORE POP POP POP POP POP PUSH3 0x693 JUMP JUMPDEST PUSH0 PUSH1 0x40 MLOAD SWAP1 POP SWAP1 JUMP JUMPDEST PUSH0 DUP1 REVERT JUMPDEST PUSH0 DUP1 REVERT JUMPDEST PUSH0 DUP1 REVERT JUMPDEST PUSH0 DUP1 REVERT JUMPDEST PUSH0 PUSH1 0x1F NOT PUSH1 0x1F DUP4 ADD AND SWAP1 POP SWAP2 SWAP1 POP JUMP JUMPDEST PUSH32 0x4E487B7100000000000000000000000000000000000000000000000000000000 PUSH0 MSTORE PUSH1 0x41 PUSH1 0x4 MSTORE PUSH1 0x24 PUSH0 REVERT JUMPDEST PUSH3 0x117 DUP3 PUSH3 0xCF JUMP JUMPDEST DUP2 ADD DUP2 DUP2 LT PUSH8 0xFFFFFFFFFFFFFFFF DUP3 GT OR ISZERO PUSH3 0x139 JUMPI PUSH3 0x138 PUSH3 0xDF JUMP JUMPDEST JUMPDEST DUP1 PUSH1 0x40 MSTORE POP POP POP JUMP JUMPDEST PUSH0 PUSH3 0x14D PUSH3 0xB6 JUMP JUMPDEST SWAP1 POP PUSH3 0x15B DUP3 DUP3 PUSH3 0x10C JUMP JUMPDEST SWAP2 SWAP1 POP JUMP JUMPDEST PUSH0 PUSH8 0xFFFFFFFFFFFFFFFF DUP3 GT ISZERO PUSH3 0x17D JUMPI PUSH3 0x17C PUSH3 0xDF JUMP JUMPDEST JUMPDEST PUSH3 0x188 DUP3 PUSH3 0xCF JUMP JUMPDEST SWAP1 POP PUSH1 0x20 DUP2 ADD SWAP1 POP SWAP2 SWAP1 POP JUMP JUMPDEST PUSH0 JUMPDEST DUP4 DUP2 LT ISZERO PUSH3 0x1B4 JUMPI DUP1 DUP3 ADD MLOAD DUP2 DUP5 ADD MSTORE PUSH1 0x20 DUP2 ADD SWAP1 POP PUSH3 0x197 JUMP JUMPDEST PUSH0 DUP5 DUP5 ADD MSTORE POP POP POP POP JUMP JUMPDEST PUSH0 PUSH3 0x1D5 PUSH3 0x1CF DUP5 PUSH3 0x160 JUMP JUMPDEST PUSH3 0x142 JUMP JUMPDEST SWAP1 POP DUP3 DUP2 MSTORE PUSH1 0x20 DUP2 ADD DUP5 DUP5 DUP5 ADD GT ISZERO PUSH3 0x1F4 JUMPI PUSH3 0x1F3 PUSH3 0xCB JUMP JUMPDEST JUMPDEST PUSH3 0x201 DUP5 DUP3 DUP6 PUSH3 0x195 JUMP JUMPDEST POP SWAP4 SWAP3 POP POP POP JUMP JUMPDEST PUSH0 DUP3 PUSH1 0x1F DUP4 ADD SLT PUSH3 0x220 JUMPI PUSH3 0x21F PUSH3 0xC7 JUMP JUMPDEST JUMPDEST DUP2 MLOAD PUSH3 0x232 DUP5 DUP3 PUSH1 0x20 DUP7 ADD PUSH3 0x1BF JUMP JUMPDEST SWAP2 POP POP SWAP3 SWAP2 POP POP JUMP JUMPDEST PUSH0 DUP2 SWAP1 POP SWAP2 SWAP1 POP JUMP JUMPDEST PUSH3 0x24F DUP2 PUSH3 0x23B JUMP JUMPDEST DUP2 EQ PUSH3 0x25A JUMPI PUSH0 DUP1 REVERT JUMPDEST POP JUMP JUMPDEST PUSH0 DUP2 MLOAD SWAP1 POP PUSH3 0x26D DUP2 PUSH3 0x244 JUMP JUMPDEST SWAP3 SWAP2 POP POP JUMP JUMPDEST PUSH0 PUSH20 0xFFFFFFFFFFFFFFFFFFFFFFFFFFFFFFFFFFFFFFFF DUP3 AND SWAP1 POP SWAP2 SWAP1 POP JUMP JUMPDEST PUSH0 PUSH3 0x29E DUP3 PUSH3 0x273 JUMP JUMPDEST SWAP1 POP SWAP2 SWAP1 POP JUMP JUMPDEST PUSH3 0x2B0 DUP2 PUSH3 0x292 JUMP JUMPDEST DUP2 EQ PUSH3 0x2BB JUMPI PUSH0 DUP1 REVERT JUMPDEST POP JUMP JUMPDEST PUSH0 DUP2 MLOAD SWAP1 POP PUSH3 0x2CE DUP2 PUSH3 0x2A5 JUMP JUMPDEST SWAP3 SWAP2 POP POP JUMP JUMPDEST PUSH0 DUP1 PUSH0 DUP1 PUSH1 0x80 DUP6 DUP8 SUB SLT ISZERO PUSH3 0x2EF JUMPI PUSH3 0x2EE PUSH3 0xBF JUMP JUMPDEST JUMPDEST PUSH0 DUP6 ADD MLOAD PUSH8 0xFFFFFFFFFFFFFFFF DUP2 GT ISZERO PUSH3 0x30F JUMPI PUSH3 0x30E PUSH3 0xC3 JUMP JUMPDEST JUMPDEST PUSH3 0x31D DUP8 DUP3 DUP9 ADD PUSH3 0x209 JUMP JUMPDEST SWAP5 POP POP PUSH1 0x20 DUP6 ADD MLOAD PUSH8 0xFFFFFFFFFFFFFFFF DUP2 GT ISZERO PUSH3 0x341 JUMPI PUSH3 0x340 PUSH3 0xC3 JUMP JUMPDEST JUMPDEST PUSH3 0x34F DUP8 DUP3 DUP9 ADD PUSH3 0x209 JUMP JUMPDEST SWAP4 POP POP PUSH1 0x40 PUSH3 0x362 DUP8 DUP3 DUP9 ADD PUSH3 0x25D JUMP JUMPDEST SWAP3 POP POP PUSH1 0x60 PUSH3 0x375 DUP8 DUP3 DUP9 ADD PUSH3 0x2BE JUMP JUMPDEST SWAP2 POP POP SWAP3 SWAP6 SWAP2 SWAP5 POP SWAP3 POP JUMP JUMPDEST PUSH0 DUP2 MLOAD SWAP1 POP SWAP2 SWAP1 POP JUMP JUMPDEST PUSH32 0x4E487B7100000000000000000000000000000000000000000000000000000000 PUSH0 MSTORE PUSH1 0x22 PUSH1 0x4 MSTORE PUSH1 0x24 PUSH0 REVERT JUMPDEST PUSH0 PUSH1 0x2 DUP3 DIV SWAP1 POP PUSH1 0x1 DUP3 AND DUP1 PUSH3 0x3D0 JUMPI PUSH1 0x7F DUP3 AND SWAP2 POP JUMPDEST PUSH1 0x20 DUP3 LT DUP2 SUB PUSH3 0x3E6 JUMPI PUSH3 0x3E5 PUSH3 0x38B JUMP JUMPDEST JUMPDEST POP SWAP2 SWAP1 POP JUMP JUMPDEST PUSH0 DUP2 SWAP1 POP DUP2 PUSH0 MSTORE PUSH1 0x20 PUSH0 KECCAK256 SWAP1 POP SWAP2 SWAP1 POP JUMP JUMPDEST PUSH0 PUSH1 0x20 PUSH1 0x1F DUP4 ADD DIV SWAP1 POP SWAP2 SWAP1 POP JUMP JUMPDEST PUSH0 DUP3 DUP3 SHL SWAP1 POP SWAP3 SWAP2 POP POP JUMP JUMPDEST PUSH0 PUSH1 0x8 DUP4 MUL PUSH3 0x44A PUSH32 0xFFFFFFFFFFFFFFFFFFFFFFFFFFFFFFFFFFFFFFFFFFFFFFFFFFFFFFFFFFFFFFFF DUP3 PUSH3 0x40D JUMP JUMPDEST PUSH3 0x456 DUP7 DUP4 PUSH3 0x40D JUMP JUMPDEST SWAP6 POP DUP1 NOT DUP5 AND SWAP4 POP DUP1 DUP7 AND DUP5 OR SWAP3 POP POP POP SWAP4 SWAP3 POP POP POP JUMP JUMPDEST PUSH0 DUP2 SWAP1 POP SWAP2 SWAP1 POP JUMP JUMPDEST PUSH0 PUSH3 0x497 PUSH3 0x491 PUSH3 0x48B DUP5 PUSH3 0x23B JUMP JUMPDEST PUSH3 0x46E JUMP JUMPDEST PUSH3 0x23B JUMP JUMPDEST SWAP1 POP SWAP2 SWAP1 POP JUMP JUMPDEST PUSH0 DUP2 SWAP1 POP SWAP2 SWAP1 POP JUMP JUMPDEST PUSH3 0x4B2 DUP4 PUSH3 0x477 JUMP JUMPDEST PUSH3 0x4CA PUSH3 0x4C1 DUP3 PUSH3 0x49E JUMP JUMPDEST DUP5 DUP5 SLOAD PUSH3 0x419 JUMP JUMPDEST DUP3 SSTORE POP POP POP POP JUMP JUMPDEST PUSH0 SWAP1 JUMP JUMPDEST PUSH3 0x4E0 PUSH3 0x4D2 JUMP JUMPDEST PUSH3 0x4ED DUP2 DUP5 DUP5 PUSH3 0x4A7 JUMP JUMPDEST POP POP POP JUMP JUMPDEST JUMPDEST DUP2 DUP2 LT ISZERO PUSH3 0x514 JUMPI PUSH3 0x508 PUSH0 DUP3 PUSH3 0x4D6 JUMP JUMPDEST PUSH1 0x1 DUP2 ADD SWAP1 POP PUSH3 0x4F3 JUMP JUMPDEST POP POP JUMP JUMPDEST PUSH1 0x1F DUP3 GT ISZERO PUSH3 0x563 JUMPI PUSH3 0x52D DUP2 PUSH3 0x3EC JUMP JUMPDEST PUSH3 0x538 DUP5 PUSH3 0x3FE JUMP JUMPDEST DUP2 ADD PUSH1 0x20 DUP6 LT ISZERO PUSH3 0x548 JUMPI DUP2 SWAP1 POP JUMPDEST PUSH3 0x560 PUSH3 0x557 DUP6 PUSH3 0x3FE JUMP JUMPDEST DUP4 ADD DUP3 PUSH3 0x4F2 JUMP JUMPDEST POP POP JUMPDEST POP POP POP JUMP JUMPDEST PUSH0 DUP3 DUP3 SHR SWAP1 POP SWAP3 SWAP2 POP POP JUMP JUMPDEST PUSH0 PUSH3 0x585 PUSH0 NOT DUP5 PUSH1 0x8 MUL PUSH3 0x568 JUMP JUMPDEST NOT DUP1 DUP4 AND SWAP2 POP POP SWAP3 SWAP2 POP POP JUMP JUMPDEST PUSH0 PUSH3 0x59F DUP4 DUP4 PUSH3 0x574 JUMP JUMPDEST SWAP2 POP DUP3 PUSH1 0x2 MUL DUP3 OR SWAP1 POP SWAP3 SWAP2 POP POP JUMP JUMPDEST PUSH3 0x5BA DUP3 PUSH3 0x381 JUMP JUMPDEST PUSH8 0xFFFFFFFFFFFFFFFF DUP2 GT ISZERO PUSH3 0x5D6 JUMPI PUSH3 0x5D5 PUSH3 0xDF JUMP JUMPDEST JUMPDEST PUSH3 0x5E2 DUP3 SLOAD PUSH3 0x3B8 JUMP JUMPDEST PUSH3 0x5EF DUP3 DUP3 DUP6 PUSH3 0x518 JUMP JUMPDEST PUSH0 PUSH1 0x20 SWAP1 POP PUSH1 0x1F DUP4 GT PUSH1 0x1 DUP2 EQ PUSH3 0x625 JUMPI PUSH0 DUP5 ISZERO PUSH3 0x610 JUMPI DUP3 DUP8 ADD MLOAD SWAP1 POP JUMPDEST PUSH3 0x61C DUP6 DUP3 PUSH3 0x592 JUMP JUMPDEST DUP7 SSTORE POP PUSH3 0x68B JUMP JUMPDEST PUSH1 0x1F NOT DUP5 AND PUSH3 0x635 DUP7 PUSH3 0x3EC JUMP JUMPDEST PUSH0 JUMPDEST DUP3 DUP2 LT ISZERO PUSH3 0x65E JUMPI DUP5 DUP10 ADD MLOAD DUP3 SSTORE PUSH1 0x1 DUP3 ADD SWAP2 POP PUSH1 0x20 DUP6 ADD SWAP5 POP PUSH1 0x20 DUP2 ADD SWAP1 POP PUSH3 0x637 JUMP JUMPDEST DUP7 DUP4 LT ISZERO PUSH3 0x67E JUMPI DUP5 DUP10 ADD MLOAD PUSH3 0x67A PUSH1 0x1F DUP10 AND DUP3 PUSH3 0x574 JUMP JUMPDEST DUP4 SSTORE POP JUMPDEST PUSH1 0x1 PUSH1 0x2 DUP9 MUL ADD DUP9 SSTORE POP POP POP JUMPDEST POP POP POP POP POP POP JUMP JUMPDEST PUSH2 0x1C17 DUP1 PUSH3 0x6A1 PUSH0 CODECOPY PUSH0 RETURN INVALID PUSH1 0x80 PUSH1 0x40 MSTORE PUSH1 0x4 CALLDATASIZE LT PUSH2 0xF2 JUMPI PUSH0 CALLDATALOAD PUSH1 0xE0 SHR DUP1 PUSH4 0x885E7C62 GT PUSH2 0x89 JUMPI DUP1 PUSH4 0xD7BB99BA GT PUSH2 0x58 JUMPI DUP1 PUSH4 0xD7BB99BA EQ PUSH2 0x2F5 JUMPI DUP1 PUSH4 0xE2E46B52 EQ PUSH2 0x2FF JUMPI DUP1 PUSH4 0xF84038B1 EQ PUSH2 0x327 JUMPI DUP1 PUSH4 0xFEED5561 EQ PUSH2 0x351 JUMPI PUSH2 0xF2 JUMP JUMPDEST DUP1 PUSH4 0x885E7C62 EQ PUSH2 0x26F JUMPI DUP1 PUSH4 0xA26759CB EQ PUSH2 0x299 JUMPI DUP1 PUSH4 0xA7AC8000 EQ PUSH2 0x2A3 JUMPI DUP1 PUSH4 0xD5009584 EQ PUSH2 0x2CB JUMPI PUSH2 0xF2 JUMP JUMPDEST DUP1 PUSH4 0x4051DDAC GT PUSH2 0xC5 JUMPI DUP1 PUSH4 0x4051DDAC EQ PUSH2 0x1AE JUMPI DUP1 PUSH4 0x692D51D2 EQ PUSH2 0x1D8 JUMPI DUP1 PUSH4 0x6F9FB98A EQ PUSH2 0x21B JUMPI DUP1 PUSH4 0x8813CE12 EQ PUSH2 0x245 JUMPI PUSH2 0xF2 JUMP JUMPDEST DUP1 PUSH4 0xA144391 EQ PUSH2 0xF6 JUMPI DUP1 PUSH4 0x1A092541 EQ PUSH2 0x132 JUMPI DUP1 PUSH4 0x30E8FC5C EQ PUSH2 0x15C JUMPI DUP1 PUSH4 0x3410452A EQ PUSH2 0x184 JUMPI JUMPDEST PUSH0 DUP1 REVERT JUMPDEST CALLVALUE DUP1 ISZERO PUSH2 0x101 JUMPI PUSH0 DUP1 REVERT JUMPDEST POP PUSH2 0x11C PUSH1 0x4 DUP1 CALLDATASIZE SUB DUP2 ADD SWAP1 PUSH2 0x117 SWAP2 SWAP1 PUSH2 0x1113 JUMP JUMPDEST PUSH2 0x37B JUMP JUMPDEST PUSH1 0x40 MLOAD PUSH2 0x129 SWAP2 SWAP1 PUSH2 0x1156 JUMP JUMPDEST PUSH1 0x40 MLOAD DUP1 SWAP2 SUB SWAP1 RETURN JUMPDEST CALLVALUE DUP1 ISZERO PUSH2 0x13D JUMPI PUSH0 DUP1 REVERT JUMPDEST POP PUSH2 0x146 PUSH2 0x390 JUMP JUMPDEST PUSH1 0x40 MLOAD PUSH2 0x153 SWAP2 SWAP1 PUSH2 0x11F9 JUMP JUMPDEST PUSH1 0x40 MLOAD DUP1 SWAP2 SUB SWAP1 RETURN JUMPDEST CALLVALUE DUP1 ISZERO PUSH2 0x167 JUMPI PUSH0 DUP1 REVERT JUMPDEST POP PUSH2 0x182 PUSH1 0x4 DUP1 CALLDATASIZE SUB DUP2 ADD SWAP1 PUSH2 0x17D SWAP2 SWAP1 PUSH2 0x137A JUMP JUMPDEST PUSH2 0x420 JUMP JUMPDEST STOP JUMPDEST CALLVALUE DUP1 ISZERO PUSH2 0x18F JUMPI PUSH0 DUP1 REVERT JUMPDEST POP PUSH2 0x198 PUSH2 0x648 JUMP JUMPDEST PUSH1 0x40 MLOAD PUSH2 0x1A5 SWAP2 SWAP1 PUSH2 0x1156 JUMP JUMPDEST PUSH1 0x40 MLOAD DUP1 SWAP2 SUB SWAP1 RETURN JUMPDEST CALLVALUE DUP1 ISZERO PUSH2 0x1B9 JUMPI PUSH0 DUP1 REVERT JUMPDEST POP PUSH2 0x1C2 PUSH2 0x651 JUMP JUMPDEST PUSH1 0x40 MLOAD PUSH2 0x1CF SWAP2 SWAP1 PUSH2 0x14DA JUMP JUMPDEST PUSH1 0x40 MLOAD DUP1 SWAP2 SUB SWAP1 RETURN JUMPDEST CALLVALUE DUP1 ISZERO PUSH2 0x1E3 JUMPI PUSH0 DUP1 REVERT JUMPDEST POP PUSH2 0x1FE PUSH1 0x4 DUP1 CALLDATASIZE SUB DUP2 ADD SWAP1 PUSH2 0x1F9 SWAP2 SWAP1 PUSH2 0x14FA JUMP JUMPDEST PUSH2 0x7E2 JUMP JUMPDEST PUSH1 0x40 MLOAD PUSH2 0x212 SWAP9 SWAP8 SWAP7 SWAP6 SWAP5 SWAP4 SWAP3 SWAP2 SWAP1 PUSH2 0x1570 JUMP JUMPDEST PUSH1 0x40 MLOAD DUP1 SWAP2 SUB SWAP1 RETURN JUMPDEST CALLVALUE DUP1 ISZERO PUSH2 0x226 JUMPI PUSH0 DUP1 REVERT JUMPDEST POP PUSH2 0x22F PUSH2 0x982 JUMP JUMPDEST PUSH1 0x40 MLOAD PUSH2 0x23C SWAP2 SWAP1 PUSH2 0x1156 JUMP JUMPDEST PUSH1 0x40 MLOAD DUP1 SWAP2 SUB SWAP1 RETURN JUMPDEST CALLVALUE DUP1 ISZERO PUSH2 0x250 JUMPI PUSH0 DUP1 REVERT JUMPDEST POP PUSH2 0x259 PUSH2 0x989 JUMP JUMPDEST PUSH1 0x40 MLOAD PUSH2 0x266 SWAP2 SWAP1 PUSH2 0x1709 JUMP JUMPDEST PUSH1 0x40 MLOAD DUP1 SWAP2 SUB SWAP1 RETURN JUMPDEST CALLVALUE DUP1 ISZERO PUSH2 0x27A JUMPI PUSH0 DUP1 REVERT JUMPDEST POP PUSH2 0x283 PUSH2 0xB0E JUMP JUMPDEST PUSH1 0x40 MLOAD PUSH2 0x290 SWAP2 SWAP1 PUSH2 0x11F9 JUMP JUMPDEST PUSH1 0x40 MLOAD DUP1 SWAP2 SUB SWAP1 RETURN JUMPDEST PUSH2 0x2A1 PUSH2 0xB9D JUMP JUMPDEST STOP JUMPDEST CALLVALUE DUP1 ISZERO PUSH2 0x2AE JUMPI PUSH0 DUP1 REVERT JUMPDEST POP PUSH2 0x2C9 PUSH1 0x4 DUP1 CALLDATASIZE SUB DUP2 ADD SWAP1 PUSH2 0x2C4 SWAP2 SWAP1 PUSH2 0x177D JUMP JUMPDEST PUSH2 0xBF7 JUMP JUMPDEST STOP JUMPDEST CALLVALUE DUP1 ISZERO PUSH2 0x2D6 JUMPI PUSH0 DUP1 REVERT JUMPDEST POP PUSH2 0x2DF PUSH2 0xDF1 JUMP JUMPDEST PUSH1 0x40 MLOAD PUSH2 0x2EC SWAP2 SWAP1 PUSH2 0x183B JUMP JUMPDEST PUSH1 0x40 MLOAD DUP1 SWAP2 SUB SWAP1 RETURN JUMPDEST PUSH2 0x2FD PUSH2 0xE19 JUMP JUMPDEST STOP JUMPDEST CALLVALUE DUP1 ISZERO PUSH2 0x30A JUMPI PUSH0 DUP1 REVERT JUMPDEST POP PUSH2 0x325 PUSH1 0x4 DUP1 CALLDATASIZE SUB DUP2 ADD SWAP1 PUSH2 0x320 SWAP2 SWAP1 PUSH2 0x14FA JUMP JUMPDEST PUSH2 0xECA JUMP JUMPDEST STOP JUMPDEST CALLVALUE DUP1 ISZERO PUSH2 0x332 JUMPI PUSH0 DUP1 REVERT JUMPDEST POP PUSH2 0x33B PUSH2 0x1048 JUMP JUMPDEST PUSH1 0x40 MLOAD PUSH2 0x348 SWAP2 SWAP1 PUSH2 0x1156 JUMP JUMPDEST PUSH1 0x40 MLOAD DUP1 SWAP2 SUB SWAP1 RETURN JUMPDEST CALLVALUE DUP1 ISZERO PUSH2 0x35C JUMPI PUSH0 DUP1 REVERT JUMPDEST POP PUSH2 0x365 PUSH2 0x1051 JUMP JUMPDEST PUSH1 0x40 MLOAD PUSH2 0x372 SWAP2 SWAP1 PUSH2 0x1156 JUMP JUMPDEST PUSH1 0x40 MLOAD DUP1 SWAP2 SUB SWAP1 RETURN JUMPDEST PUSH1 0x3 PUSH1 0x20 MSTORE DUP1 PUSH0 MSTORE PUSH1 0x40 PUSH0 KECCAK256 PUSH0 SWAP2 POP SWAP1 POP SLOAD DUP2 JUMP JUMPDEST PUSH1 0x60 PUSH1 0x1 DUP1 SLOAD PUSH2 0x39F SWAP1 PUSH2 0x1881 JUMP JUMPDEST DUP1 PUSH1 0x1F ADD PUSH1 0x20 DUP1 SWAP2 DIV MUL PUSH1 0x20 ADD PUSH1 0x40 MLOAD SWAP1 DUP2 ADD PUSH1 0x40 MSTORE DUP1 SWAP3 SWAP2 SWAP1 DUP2 DUP2 MSTORE PUSH1 0x20 ADD DUP3 DUP1 SLOAD PUSH2 0x3CB SWAP1 PUSH2 0x1881 JUMP JUMPDEST DUP1 ISZERO PUSH2 0x416 JUMPI DUP1 PUSH1 0x1F LT PUSH2 0x3ED JUMPI PUSH2 0x100 DUP1 DUP4 SLOAD DIV MUL DUP4 MSTORE SWAP2 PUSH1 0x20 ADD SWAP2 PUSH2 0x416 JUMP JUMPDEST DUP3 ADD SWAP2 SWAP1 PUSH0 MSTORE PUSH1 0x20 PUSH0 KECCAK256 SWAP1 JUMPDEST DUP2 SLOAD DUP2 MSTORE SWAP1 PUSH1 0x1 ADD SWAP1 PUSH1 0x20 ADD DUP1 DUP4 GT PUSH2 0x3F9 JUMPI DUP3 SWAP1 SUB PUSH1 0x1F AND DUP3 ADD SWAP2 JUMPDEST POP POP POP POP POP SWAP1 POP SWAP1 JUMP JUMPDEST PUSH1 0x2 PUSH0 SWAP1 SLOAD SWAP1 PUSH2 0x100 EXP SWAP1 DIV PUSH20 0xFFFFFFFFFFFFFFFFFFFFFFFFFFFFFFFFFFFFFFFF AND PUSH20 0xFFFFFFFFFFFFFFFFFFFFFFFFFFFFFFFFFFFFFFFF AND CALLER PUSH20 0xFFFFFFFFFFFFFFFFFFFFFFFFFFFFFFFFFFFFFFFF AND SUB PUSH2 0x478 JUMPI PUSH0 DUP1 REVERT JUMPDEST PUSH0 PUSH1 0x7 DUP4 PUSH1 0x40 MLOAD PUSH2 0x489 SWAP2 SWAP1 PUSH2 0x18EB JUMP JUMPDEST SWAP1 DUP2 MSTORE PUSH1 0x20 ADD PUSH1 0x40 MLOAD DUP1 SWAP2 SUB SWAP1 KECCAK256 SWAP1 POP PUSH0 DUP2 PUSH0 ADD DUP1 SLOAD PUSH2 0x4A8 SWAP1 PUSH2 0x1881 JUMP JUMPDEST SWAP1 POP GT PUSH2 0x4B3 JUMPI PUSH0 DUP1 REVERT JUMPDEST DUP3 MLOAD DUP2 PUSH0 ADD DUP1 SLOAD PUSH2 0x4C3 SWAP1 PUSH2 0x1881 JUMP JUMPDEST SWAP1 POP EQ PUSH2 0x4CE JUMPI PUSH0 DUP1 REVERT JUMPDEST PUSH0 PUSH1 0x3 PUSH0 CALLER PUSH20 0xFFFFFFFFFFFFFFFFFFFFFFFFFFFFFFFFFFFFFFFF AND PUSH20 0xFFFFFFFFFFFFFFFFFFFFFFFFFFFFFFFFFFFFFFFF AND DUP2 MSTORE PUSH1 0x20 ADD SWAP1 DUP2 MSTORE PUSH1 0x20 ADD PUSH0 KECCAK256 SLOAD GT PUSH2 0x516 JUMPI PUSH0 DUP1 REVERT JUMPDEST DUP1 PUSH1 0x6 ADD PUSH0 SWAP1 SLOAD SWAP1 PUSH2 0x100 EXP SWAP1 DIV PUSH1 0xFF AND ISZERO PUSH2 0x530 JUMPI PUSH0 DUP1 REVERT JUMPDEST DUP1 PUSH1 0x6 ADD PUSH1 0x1 SWAP1 SLOAD SWAP1 PUSH2 0x100 EXP SWAP1 DIV PUSH1 0xFF AND ISZERO PUSH2 0x54B JUMPI PUSH0 DUP1 REVERT JUMPDEST DUP1 PUSH1 0x7 ADD PUSH0 CALLER PUSH20 0xFFFFFFFFFFFFFFFFFFFFFFFFFFFFFFFFFFFFFFFF AND PUSH20 0xFFFFFFFFFFFFFFFFFFFFFFFFFFFFFFFFFFFFFFFF AND DUP2 MSTORE PUSH1 0x20 ADD SWAP1 DUP2 MSTORE PUSH1 0x20 ADD PUSH0 KECCAK256 PUSH0 SWAP1 SLOAD SWAP1 PUSH2 0x100 EXP SWAP1 DIV PUSH1 0xFF AND ISZERO PUSH2 0x5A0 JUMPI PUSH0 DUP1 REVERT JUMPDEST PUSH1 0x1 DUP2 PUSH1 0x7 ADD PUSH0 CALLER PUSH20 0xFFFFFFFFFFFFFFFFFFFFFFFFFFFFFFFFFFFFFFFF AND PUSH20 0xFFFFFFFFFFFFFFFFFFFFFFFFFFFFFFFFFFFFFFFF AND DUP2 MSTORE PUSH1 0x20 ADD SWAP1 DUP2 MSTORE PUSH1 0x20 ADD PUSH0 KECCAK256 PUSH0 PUSH2 0x100 EXP DUP2 SLOAD DUP2 PUSH1 0xFF MUL NOT AND SWAP1 DUP4 ISZERO ISZERO MUL OR SWAP1 SSTORE POP DUP2 ISZERO PUSH2 0x617 JUMPI DUP1 PUSH1 0x4 ADD PUSH0 DUP2 SLOAD DUP1 SWAP3 SWAP2 SWAP1 PUSH2 0x611 SWAP1 PUSH2 0x192E JUMP JUMPDEST SWAP2 SWAP1 POP SSTORE POP JUMPDEST DUP1 PUSH1 0x5 ADD SLOAD DUP2 PUSH1 0x4 ADD SLOAD LT PUSH2 0x643 JUMPI PUSH1 0x1 DUP2 PUSH1 0x6 ADD PUSH0 PUSH2 0x100 EXP DUP2 SLOAD DUP2 PUSH1 0xFF MUL NOT AND SWAP1 DUP4 ISZERO ISZERO MUL OR SWAP1 SSTORE POP JUMPDEST POP POP POP JUMP JUMPDEST PUSH0 PUSH1 0x8 SLOAD SWAP1 POP SWAP1 JUMP JUMPDEST PUSH2 0x659 PUSH2 0x105A JUMP JUMPDEST PUSH0 PUSH1 0x40 MLOAD DUP1 PUSH1 0xE0 ADD PUSH1 0x40 MSTORE DUP1 PUSH1 0x2 PUSH0 SWAP1 SLOAD SWAP1 PUSH2 0x100 EXP SWAP1 DIV PUSH20 0xFFFFFFFFFFFFFFFFFFFFFFFFFFFFFFFFFFFFFFFF AND PUSH20 0xFFFFFFFFFFFFFFFFFFFFFFFFFFFFFFFFFFFFFFFF AND DUP2 MSTORE PUSH1 0x20 ADD PUSH0 DUP1 SLOAD PUSH2 0x6AE SWAP1 PUSH2 0x1881 JUMP JUMPDEST DUP1 PUSH1 0x1F ADD PUSH1 0x20 DUP1 SWAP2 DIV MUL PUSH1 0x20 ADD PUSH1 0x40 MLOAD SWAP1 DUP2 ADD PUSH1 0x40 MSTORE DUP1 SWAP3 SWAP2 SWAP1 DUP2 DUP2 MSTORE PUSH1 0x20 ADD DUP3 DUP1 SLOAD PUSH2 0x6DA SWAP1 PUSH2 0x1881 JUMP JUMPDEST DUP1 ISZERO PUSH2 0x725 JUMPI DUP1 PUSH1 0x1F LT PUSH2 0x6FC JUMPI PUSH2 0x100 DUP1 DUP4 SLOAD DIV MUL DUP4 MSTORE SWAP2 PUSH1 0x20 ADD SWAP2 PUSH2 0x725 JUMP JUMPDEST DUP3 ADD SWAP2 SWAP1 PUSH0 MSTORE PUSH1 0x20 PUSH0 KECCAK256 SWAP1 JUMPDEST DUP2 SLOAD DUP2 MSTORE SWAP1 PUSH1 0x1 ADD SWAP1 PUSH1 0x20 ADD DUP1 DUP4 GT PUSH2 0x708 JUMPI DUP3 SWAP1 SUB PUSH1 0x1F AND DUP3 ADD SWAP2 JUMPDEST POP POP POP POP POP DUP2 MSTORE PUSH1 0x20 ADD PUSH1 0x1 DUP1 SLOAD PUSH2 0x73C SWAP1 PUSH2 0x1881 JUMP JUMPDEST DUP1 PUSH1 0x1F ADD PUSH1 0x20 DUP1 SWAP2 DIV MUL PUSH1 0x20 ADD PUSH1 0x40 MLOAD SWAP1 DUP2 ADD PUSH1 0x40 MSTORE DUP1 SWAP3 SWAP2 SWAP1 DUP2 DUP2 MSTORE PUSH1 0x20 ADD DUP3 DUP1 SLOAD PUSH2 0x768 SWAP1 PUSH2 0x1881 JUMP JUMPDEST DUP1 ISZERO PUSH2 0x7B3 JUMPI DUP1 PUSH1 0x1F LT PUSH2 0x78A JUMPI PUSH2 0x100 DUP1 DUP4 SLOAD DIV MUL DUP4 MSTORE SWAP2 PUSH1 0x20 ADD SWAP2 PUSH2 0x7B3 JUMP JUMPDEST DUP3 ADD SWAP2 SWAP1 PUSH0 MSTORE PUSH1 0x20 PUSH0 KECCAK256 SWAP1 JUMPDEST DUP2 SLOAD DUP2 MSTORE SWAP1 PUSH1 0x1 ADD SWAP1 PUSH1 0x20 ADD DUP1 DUP4 GT PUSH2 0x796 JUMPI DUP3 SWAP1 SUB PUSH1 0x1F AND DUP3 ADD SWAP2 JUMPDEST POP POP POP POP POP DUP2 MSTORE PUSH1 0x20 ADD PUSH1 0x5 SLOAD DUP2 MSTORE PUSH1 0x20 ADD SELFBALANCE DUP2 MSTORE PUSH1 0x20 ADD PUSH1 0x4 SLOAD DUP2 MSTORE PUSH1 0x20 ADD PUSH1 0x8 SLOAD DUP2 MSTORE POP SWAP1 POP DUP1 SWAP2 POP POP SWAP1 JUMP JUMPDEST PUSH1 0x7 DUP2 DUP1 MLOAD PUSH1 0x20 DUP2 ADD DUP3 ADD DUP1 MLOAD DUP5 DUP3 MSTORE PUSH1 0x20 DUP4 ADD PUSH1 0x20 DUP6 ADD KECCAK256 DUP2 DUP4 MSTORE DUP1 SWAP6 POP POP POP POP POP POP PUSH0 SWAP2 POP SWAP1 POP DUP1 PUSH0 ADD DUP1 SLOAD PUSH2 0x819 SWAP1 PUSH2 0x1881 JUMP JUMPDEST DUP1 PUSH1 0x1F ADD PUSH1 0x20 DUP1 SWAP2 DIV MUL PUSH1 0x20 ADD PUSH1 0x40 MLOAD SWAP1 DUP2 ADD PUSH1 0x40 MSTORE DUP1 SWAP3 SWAP2 SWAP1 DUP2 DUP2 MSTORE PUSH1 0x20 ADD DUP3 DUP1 SLOAD PUSH2 0x845 SWAP1 PUSH2 0x1881 JUMP JUMPDEST DUP1 ISZERO PUSH2 0x890 JUMPI DUP1 PUSH1 0x1F LT PUSH2 0x867 JUMPI PUSH2 0x100 DUP1 DUP4 SLOAD DIV MUL DUP4 MSTORE SWAP2 PUSH1 0x20 ADD SWAP2 PUSH2 0x890 JUMP JUMPDEST DUP3 ADD SWAP2 SWAP1 PUSH0 MSTORE PUSH1 0x20 PUSH0 KECCAK256 SWAP1 JUMPDEST DUP2 SLOAD DUP2 MSTORE SWAP1 PUSH1 0x1 ADD SWAP1 PUSH1 0x20 ADD DUP1 DUP4 GT PUSH2 0x873 JUMPI DUP3 SWAP1 SUB PUSH1 0x1F AND DUP3 ADD SWAP2 JUMPDEST POP POP POP POP POP SWAP1 DUP1 PUSH1 0x1 ADD DUP1 SLOAD PUSH2 0x8A5 SWAP1 PUSH2 0x1881 JUMP JUMPDEST DUP1 PUSH1 0x1F ADD PUSH1 0x20 DUP1 SWAP2 DIV MUL PUSH1 0x20 ADD PUSH1 0x40 MLOAD SWAP1 DUP2 ADD PUSH1 0x40 MSTORE DUP1 SWAP3 SWAP2 SWAP1 DUP2 DUP2 MSTORE PUSH1 0x20 ADD DUP3 DUP1 SLOAD PUSH2 0x8D1 SWAP1 PUSH2 0x1881 JUMP JUMPDEST DUP1 ISZERO PUSH2 0x91C JUMPI DUP1 PUSH1 0x1F LT PUSH2 0x8F3 JUMPI PUSH2 0x100 DUP1 DUP4 SLOAD DIV MUL DUP4 MSTORE SWAP2 PUSH1 0x20 ADD SWAP2 PUSH2 0x91C JUMP JUMPDEST DUP3 ADD SWAP2 SWAP1 PUSH0 MSTORE PUSH1 0x20 PUSH0 KECCAK256 SWAP1 JUMPDEST DUP2 SLOAD DUP2 MSTORE SWAP1 PUSH1 0x1 ADD SWAP1 PUSH1 0x20 ADD DUP1 DUP4 GT PUSH2 0x8FF JUMPI DUP3 SWAP1 SUB PUSH1 0x1F AND DUP3 ADD SWAP2 JUMPDEST POP POP POP POP POP SWAP1 DUP1 PUSH1 0x2 ADD SLOAD SWAP1 DUP1 PUSH1 0x3 ADD PUSH0 SWAP1 SLOAD SWAP1 PUSH2 0x100 EXP SWAP1 DIV PUSH20 0xFFFFFFFFFFFFFFFFFFFFFFFFFFFFFFFFFFFFFFFF AND SWAP1 DUP1 PUSH1 0x4 ADD SLOAD SWAP1 DUP1 PUSH1 0x5 ADD SLOAD SWAP1 DUP1 PUSH1 0x6 ADD PUSH0 SWAP1 SLOAD SWAP1 PUSH2 0x100 EXP SWAP1 DIV PUSH1 0xFF AND SWAP1 DUP1 PUSH1 0x6 ADD PUSH1 0x1 SWAP1 SLOAD SWAP1 PUSH2 0x100 EXP SWAP1 DIV PUSH1 0xFF AND SWAP1 POP DUP9 JUMP JUMPDEST PUSH0 SELFBALANCE SWAP1 POP SWAP1 JUMP JUMPDEST PUSH1 0x60 PUSH1 0x6 DUP1 SLOAD DUP1 PUSH1 0x20 MUL PUSH1 0x20 ADD PUSH1 0x40 MLOAD SWAP1 DUP2 ADD PUSH1 0x40 MSTORE DUP1 SWAP3 SWAP2 SWAP1 DUP2 DUP2 MSTORE PUSH1 0x20 ADD PUSH0 SWAP1 JUMPDEST DUP3 DUP3 LT ISZERO PUSH2 0xB05 JUMPI DUP4 DUP3 SWAP1 PUSH0 MSTORE PUSH1 0x20 PUSH0 KECCAK256 SWAP1 PUSH1 0x3 MUL ADD PUSH1 0x40 MLOAD DUP1 PUSH1 0x60 ADD PUSH1 0x40 MSTORE SWAP1 DUP2 PUSH0 DUP3 ADD DUP1 SLOAD PUSH2 0x9DC SWAP1 PUSH2 0x1881 JUMP JUMPDEST DUP1 PUSH1 0x1F ADD PUSH1 0x20 DUP1 SWAP2 DIV MUL PUSH1 0x20 ADD PUSH1 0x40 MLOAD SWAP1 DUP2 ADD PUSH1 0x40 MSTORE DUP1 SWAP3 SWAP2 SWAP1 DUP2 DUP2 MSTORE PUSH1 0x20 ADD DUP3 DUP1 SLOAD PUSH2 0xA08 SWAP1 PUSH2 0x1881 JUMP JUMPDEST DUP1 ISZERO PUSH2 0xA53 JUMPI DUP1 PUSH1 0x1F LT PUSH2 0xA2A JUMPI PUSH2 0x100 DUP1 DUP4 SLOAD DIV MUL DUP4 MSTORE SWAP2 PUSH1 0x20 ADD SWAP2 PUSH2 0xA53 JUMP JUMPDEST DUP3 ADD SWAP2 SWAP1 PUSH0 MSTORE PUSH1 0x20 PUSH0 KECCAK256 SWAP1 JUMPDEST DUP2 SLOAD DUP2 MSTORE SWAP1 PUSH1 0x1 ADD SWAP1 PUSH1 0x20 ADD DUP1 DUP4 GT PUSH2 0xA36 JUMPI DUP3 SWAP1 SUB PUSH1 0x1F AND DUP3 ADD SWAP2 JUMPDEST POP POP POP POP POP DUP2 MSTORE PUSH1 0x20 ADD PUSH1 0x1 DUP3 ADD DUP1 SLOAD PUSH2 0xA6C SWAP1 PUSH2 0x1881 JUMP JUMPDEST DUP1 PUSH1 0x1F ADD PUSH1 0x20 DUP1 SWAP2 DIV MUL PUSH1 0x20 ADD PUSH1 0x40 MLOAD SWAP1 DUP2 ADD PUSH1 0x40 MSTORE DUP1 SWAP3 SWAP2 SWAP1 DUP2 DUP2 MSTORE PUSH1 0x20 ADD DUP3 DUP1 SLOAD PUSH2 0xA98 SWAP1 PUSH2 0x1881 JUMP JUMPDEST DUP1 ISZERO PUSH2 0xAE3 JUMPI DUP1 PUSH1 0x1F LT PUSH2 0xABA JUMPI PUSH2 0x100 DUP1 DUP4 SLOAD DIV MUL DUP4 MSTORE SWAP2 PUSH1 0x20 ADD SWAP2 PUSH2 0xAE3 JUMP JUMPDEST DUP3 ADD SWAP2 SWAP1 PUSH0 MSTORE PUSH1 0x20 PUSH0 KECCAK256 SWAP1 JUMPDEST DUP2 SLOAD DUP2 MSTORE SWAP1 PUSH1 0x1 ADD SWAP1 PUSH1 0x20 ADD DUP1 DUP4 GT PUSH2 0xAC6 JUMPI DUP3 SWAP1 SUB PUSH1 0x1F AND DUP3 ADD SWAP2 JUMPDEST POP POP POP POP POP DUP2 MSTORE PUSH1 0x20 ADD PUSH1 0x2 DUP3 ADD SLOAD DUP2 MSTORE POP POP DUP2 MSTORE PUSH1 0x20 ADD SWAP1 PUSH1 0x1 ADD SWAP1 PUSH2 0x9AC JUMP JUMPDEST POP POP POP POP SWAP1 POP SWAP1 JUMP JUMPDEST PUSH1 0x60 PUSH0 DUP1 SLOAD PUSH2 0xB1C SWAP1 PUSH2 0x1881 JUMP JUMPDEST DUP1 PUSH1 0x1F ADD PUSH1 0x20 DUP1 SWAP2 DIV MUL PUSH1 0x20 ADD PUSH1 0x40 MLOAD SWAP1 DUP2 ADD PUSH1 0x40 MSTORE DUP1 SWAP3 SWAP2 SWAP1 DUP2 DUP2 MSTORE PUSH1 0x20 ADD DUP3 DUP1 SLOAD PUSH2 0xB48 SWAP1 PUSH2 0x1881 JUMP JUMPDEST DUP1 ISZERO PUSH2 0xB93 JUMPI DUP1 PUSH1 0x1F LT PUSH2 0xB6A JUMPI PUSH2 0x100 DUP1 DUP4 SLOAD DIV MUL DUP4 MSTORE SWAP2 PUSH1 0x20 ADD SWAP2 PUSH2 0xB93 JUMP JUMPDEST DUP3 ADD SWAP2 SWAP1 PUSH0 MSTORE PUSH1 0x20 PUSH0 KECCAK256 SWAP1 JUMPDEST DUP2 SLOAD DUP2 MSTORE SWAP1 PUSH1 0x1 ADD SWAP1 PUSH1 0x20 ADD DUP1 DUP4 GT PUSH2 0xB76 JUMPI DUP3 SWAP1 SUB PUSH1 0x1F AND DUP3 ADD SWAP2 JUMPDEST POP POP POP POP POP SWAP1 POP SWAP1 JUMP JUMPDEST PUSH1 0x2 PUSH0 SWAP1 SLOAD SWAP1 PUSH2 0x100 EXP SWAP1 DIV PUSH20 0xFFFFFFFFFFFFFFFFFFFFFFFFFFFFFFFFFFFFFFFF AND PUSH20 0xFFFFFFFFFFFFFFFFFFFFFFFFFFFFFFFFFFFFFFFF AND CALLER PUSH20 0xFFFFFFFFFFFFFFFFFFFFFFFFFFFFFFFFFFFFFFFF AND EQ PUSH2 0xBF5 JUMPI PUSH0 DUP1 REVERT JUMPDEST JUMP JUMPDEST PUSH1 0x2 PUSH0 SWAP1 SLOAD SWAP1 PUSH2 0x100 EXP SWAP1 DIV PUSH20 0xFFFFFFFFFFFFFFFFFFFFFFFFFFFFFFFFFFFFFFFF AND PUSH20 0xFFFFFFFFFFFFFFFFFFFFFFFFFFFFFFFFFFFFFFFF AND CALLER PUSH20 0xFFFFFFFFFFFFFFFFFFFFFFFFFFFFFFFFFFFFFFFF AND EQ PUSH2 0xC4F JUMPI PUSH0 DUP1 REVERT JUMPDEST PUSH0 DUP6 MLOAD GT PUSH2 0xC5B JUMPI PUSH0 DUP1 REVERT JUMPDEST PUSH0 DUP5 MLOAD GT PUSH2 0xC67 JUMPI PUSH0 DUP1 REVERT JUMPDEST PUSH0 DUP4 GT PUSH2 0xC72 JUMPI PUSH0 DUP1 REVERT JUMPDEST SELFBALANCE DUP4 GT ISZERO PUSH2 0xC7E JUMPI PUSH0 DUP1 REVERT JUMPDEST PUSH0 DUP3 GT PUSH2 0xC89 JUMPI PUSH0 DUP1 REVERT JUMPDEST PUSH1 0x4 SLOAD DUP3 GT ISZERO PUSH2 0xC97 JUMPI PUSH0 DUP1 REVERT JUMPDEST PUSH0 PUSH1 0x7 DUP7 PUSH1 0x40 MLOAD PUSH2 0xCA8 SWAP2 SWAP1 PUSH2 0x18EB JUMP JUMPDEST SWAP1 DUP2 MSTORE PUSH1 0x20 ADD PUSH1 0x40 MLOAD DUP1 SWAP2 SUB SWAP1 KECCAK256 SWAP1 POP DUP6 DUP2 PUSH0 ADD SWAP1 DUP2 PUSH2 0xCC8 SWAP2 SWAP1 PUSH2 0x1B12 JUMP JUMPDEST POP DUP5 DUP2 PUSH1 0x1 ADD SWAP1 DUP2 PUSH2 0xCDA SWAP2 SWAP1 PUSH2 0x1B12 JUMP JUMPDEST POP DUP4 DUP2 PUSH1 0x2 ADD DUP2 SWAP1 SSTORE POP DUP2 DUP2 PUSH1 0x3 ADD PUSH0 PUSH2 0x100 EXP DUP2 SLOAD DUP2 PUSH20 0xFFFFFFFFFFFFFFFFFFFFFFFFFFFFFFFFFFFFFFFF MUL NOT AND SWAP1 DUP4 PUSH20 0xFFFFFFFFFFFFFFFFFFFFFFFFFFFFFFFFFFFFFFFF AND MUL OR SWAP1 SSTORE POP PUSH0 DUP2 PUSH1 0x4 ADD DUP2 SWAP1 SSTORE POP DUP3 DUP2 PUSH1 0x5 ADD DUP2 SWAP1 SSTORE POP PUSH0 DUP2 PUSH1 0x6 ADD PUSH1 0x1 PUSH2 0x100 EXP DUP2 SLOAD DUP2 PUSH1 0xFF MUL NOT AND SWAP1 DUP4 ISZERO ISZERO MUL OR SWAP1 SSTORE POP PUSH1 0x8 PUSH0 DUP2 SLOAD DUP1 SWAP3 SWAP2 SWAP1 PUSH2 0xD66 SWAP1 PUSH2 0x192E JUMP JUMPDEST SWAP2 SWAP1 POP SSTORE POP PUSH0 PUSH1 0x40 MLOAD DUP1 PUSH1 0x60 ADD PUSH1 0x40 MSTORE DUP1 DUP9 DUP2 MSTORE PUSH1 0x20 ADD DUP8 DUP2 MSTORE PUSH1 0x20 ADD DUP7 DUP2 MSTORE POP SWAP1 POP PUSH1 0x6 DUP2 SWAP1 DUP1 PUSH1 0x1 DUP2 SLOAD ADD DUP1 DUP3 SSTORE DUP1 SWAP2 POP POP PUSH1 0x1 SWAP1 SUB SWAP1 PUSH0 MSTORE PUSH1 0x20 PUSH0 KECCAK256 SWAP1 PUSH1 0x3 MUL ADD PUSH0 SWAP1 SWAP2 SWAP1 SWAP2 SWAP1 SWAP2 POP PUSH0 DUP3 ADD MLOAD DUP2 PUSH0 ADD SWAP1 DUP2 PUSH2 0xDC5 SWAP2 SWAP1 PUSH2 0x1B12 JUMP JUMPDEST POP PUSH1 0x20 DUP3 ADD MLOAD DUP2 PUSH1 0x1 ADD SWAP1 DUP2 PUSH2 0xDDB SWAP2 SWAP1 PUSH2 0x1B12 JUMP JUMPDEST POP PUSH1 0x40 DUP3 ADD MLOAD DUP2 PUSH1 0x2 ADD SSTORE POP POP POP POP POP POP POP POP POP JUMP JUMPDEST PUSH0 PUSH1 0x2 PUSH0 SWAP1 SLOAD SWAP1 PUSH2 0x100 EXP SWAP1 DIV PUSH20 0xFFFFFFFFFFFFFFFFFFFFFFFFFFFFFFFFFFFFFFFF AND SWAP1 POP SWAP1 JUMP JUMPDEST PUSH1 0x5 SLOAD CALLVALUE LT ISZERO PUSH2 0xE27 JUMPI PUSH0 DUP1 REVERT JUMPDEST PUSH0 PUSH1 0x3 PUSH0 CALLER PUSH20 0xFFFFFFFFFFFFFFFFFFFFFFFFFFFFFFFFFFFFFFFF AND PUSH20 0xFFFFFFFFFFFFFFFFFFFFFFFFFFFFFFFFFFFFFFFF AND DUP2 MSTORE PUSH1 0x20 ADD SWAP1 DUP2 MSTORE PUSH1 0x20 ADD PUSH0 KECCAK256 SLOAD EQ PUSH2 0xE6F JUMPI PUSH0 DUP1 REVERT JUMPDEST CALLVALUE PUSH1 0x3 PUSH0 CALLER PUSH20 0xFFFFFFFFFFFFFFFFFFFFFFFFFFFFFFFFFFFFFFFF AND PUSH20 0xFFFFFFFFFFFFFFFFFFFFFFFFFFFFFFFFFFFFFFFF AND DUP2 MSTORE PUSH1 0x20 ADD SWAP1 DUP2 MSTORE PUSH1 0x20 ADD PUSH0 KECCAK256 DUP2 SWAP1 SSTORE POP PUSH1 0x4 PUSH0 DUP2 SLOAD DUP1 SWAP3 SWAP2 SWAP1 PUSH2 0xEC3 SWAP1 PUSH2 0x192E JUMP JUMPDEST SWAP2 SWAP1 POP SSTORE POP JUMP JUMPDEST PUSH1 0x2 PUSH0 SWAP1 SLOAD SWAP1 PUSH2 0x100 EXP SWAP1 DIV PUSH20 0xFFFFFFFFFFFFFFFFFFFFFFFFFFFFFFFFFFFFFFFF AND PUSH20 0xFFFFFFFFFFFFFFFFFFFFFFFFFFFFFFFFFFFFFFFF AND CALLER PUSH20 0xFFFFFFFFFFFFFFFFFFFFFFFFFFFFFFFFFFFFFFFF AND EQ PUSH2 0xF22 JUMPI PUSH0 DUP1 REVERT JUMPDEST PUSH0 PUSH1 0x7 DUP3 PUSH1 0x40 MLOAD PUSH2 0xF33 SWAP2 SWAP1 PUSH2 0x18EB JUMP JUMPDEST SWAP1 DUP2 MSTORE PUSH1 0x20 ADD PUSH1 0x40 MLOAD DUP1 SWAP2 SUB SWAP1 KECCAK256 SWAP1 POP PUSH0 DUP2 PUSH0 ADD DUP1 SLOAD PUSH2 0xF52 SWAP1 PUSH2 0x1881 JUMP JUMPDEST SWAP1 POP GT PUSH2 0xF5D JUMPI PUSH0 DUP1 REVERT JUMPDEST DUP2 MLOAD DUP2 PUSH0 ADD DUP1 SLOAD PUSH2 0xF6D SWAP1 PUSH2 0x1881 JUMP JUMPDEST SWAP1 POP EQ PUSH2 0xF78 JUMPI PUSH0 DUP1 REVERT JUMPDEST DUP1 PUSH1 0x6 ADD PUSH0 SWAP1 SLOAD SWAP1 PUSH2 0x100 EXP SWAP1 DIV PUSH1 0xFF AND DUP1 ISZERO PUSH2 0xFA4 JUMPI POP DUP1 PUSH1 0x6 ADD PUSH1 0x1 SWAP1 SLOAD SWAP1 PUSH2 0x100 EXP SWAP1 DIV PUSH1 0xFF AND ISZERO JUMPDEST PUSH2 0xFAC JUMPI PUSH0 DUP1 REVERT JUMPDEST DUP1 PUSH1 0x2 ADD SLOAD SELFBALANCE LT ISZERO PUSH2 0xFBC JUMPI PUSH0 DUP1 REVERT JUMPDEST DUP1 PUSH1 0x3 ADD PUSH0 SWAP1 SLOAD SWAP1 PUSH2 0x100 EXP SWAP1 DIV PUSH20 0xFFFFFFFFFFFFFFFFFFFFFFFFFFFFFFFFFFFFFFFF AND PUSH20 0xFFFFFFFFFFFFFFFFFFFFFFFFFFFFFFFFFFFFFFFF AND PUSH2 0x8FC DUP3 PUSH1 0x2 ADD SLOAD SWAP1 DUP2 ISZERO MUL SWAP1 PUSH1 0x40 MLOAD PUSH0 PUSH1 0x40 MLOAD DUP1 DUP4 SUB DUP2 DUP6 DUP9 DUP9 CALL SWAP4 POP POP POP POP ISZERO DUP1 ISZERO PUSH2 0x1026 JUMPI RETURNDATASIZE PUSH0 DUP1 RETURNDATACOPY RETURNDATASIZE PUSH0 REVERT JUMPDEST POP PUSH1 0x1 DUP2 PUSH1 0x6 ADD PUSH1 0x1 PUSH2 0x100 EXP DUP2 SLOAD DUP2 PUSH1 0xFF MUL NOT AND SWAP1 DUP4 ISZERO ISZERO MUL OR SWAP1 SSTORE POP POP POP JUMP JUMPDEST PUSH0 PUSH1 0x5 SLOAD SWAP1 POP SWAP1 JUMP JUMPDEST PUSH0 PUSH1 0x4 SLOAD SWAP1 POP SWAP1 JUMP JUMPDEST PUSH1 0x40 MLOAD DUP1 PUSH1 0xE0 ADD PUSH1 0x40 MSTORE DUP1 PUSH0 PUSH20 0xFFFFFFFFFFFFFFFFFFFFFFFFFFFFFFFFFFFFFFFF AND DUP2 MSTORE PUSH1 0x20 ADD PUSH1 0x60 DUP2 MSTORE PUSH1 0x20 ADD PUSH1 0x60 DUP2 MSTORE PUSH1 0x20 ADD PUSH0 DUP2 MSTORE PUSH1 0x20 ADD PUSH0 DUP2 MSTORE PUSH1 0x20 ADD PUSH0 DUP2 MSTORE PUSH1 0x20 ADD PUSH0 DUP2 MSTORE POP SWAP1 JUMP JUMPDEST PUSH0 PUSH1 0x40 MLOAD SWAP1 POP SWAP1 JUMP JUMPDEST PUSH0 DUP1 REVERT JUMPDEST PUSH0 DUP1 REVERT JUMPDEST PUSH0 PUSH20 0xFFFFFFFFFFFFFFFFFFFFFFFFFFFFFFFFFFFFFFFF DUP3 AND SWAP1 POP SWAP2 SWAP1 POP JUMP JUMPDEST PUSH0 PUSH2 0x10E2 DUP3 PUSH2 0x10B9 JUMP JUMPDEST SWAP1 POP SWAP2 SWAP1 POP JUMP JUMPDEST PUSH2 0x10F2 DUP2 PUSH2 0x10D8 JUMP JUMPDEST DUP2 EQ PUSH2 0x10FC JUMPI PUSH0 DUP1 REVERT JUMPDEST POP JUMP JUMPDEST PUSH0 DUP2 CALLDATALOAD SWAP1 POP PUSH2 0x110D DUP2 PUSH2 0x10E9 JUMP JUMPDEST SWAP3 SWAP2 POP POP JUMP JUMPDEST PUSH0 PUSH1 0x20 DUP3 DUP5 SUB SLT ISZERO PUSH2 0x1128 JUMPI PUSH2 0x1127 PUSH2 0x10B1 JUMP JUMPDEST JUMPDEST PUSH0 PUSH2 0x1135 DUP5 DUP3 DUP6 ADD PUSH2 0x10FF JUMP JUMPDEST SWAP2 POP POP SWAP3 SWAP2 POP POP JUMP JUMPDEST PUSH0 DUP2 SWAP1 POP SWAP2 SWAP1 POP JUMP JUMPDEST PUSH2 0x1150 DUP2 PUSH2 0x113E JUMP JUMPDEST DUP3 MSTORE POP POP JUMP JUMPDEST PUSH0 PUSH1 0x20 DUP3 ADD SWAP1 POP PUSH2 0x1169 PUSH0 DUP4 ADD DUP5 PUSH2 0x1147 JUMP JUMPDEST SWAP3 SWAP2 POP POP JUMP JUMPDEST PUSH0 DUP2 MLOAD SWAP1 POP SWAP2 SWAP1 POP JUMP JUMPDEST PUSH0 DUP3 DUP3 MSTORE PUSH1 0x20 DUP3 ADD SWAP1 POP SWAP3 SWAP2 POP POP JUMP JUMPDEST PUSH0 JUMPDEST DUP4 DUP2 LT ISZERO PUSH2 0x11A6 JUMPI DUP1 DUP3 ADD MLOAD DUP2 DUP5 ADD MSTORE PUSH1 0x20 DUP2 ADD SWAP1 POP PUSH2 0x118B JUMP JUMPDEST PUSH0 DUP5 DUP5 ADD MSTORE POP POP POP POP JUMP JUMPDEST PUSH0 PUSH1 0x1F NOT PUSH1 0x1F DUP4 ADD AND SWAP1 POP SWAP2 SWAP1 POP JUMP JUMPDEST PUSH0 PUSH2 0x11CB DUP3 PUSH2 0x116F JUMP JUMPDEST PUSH2 0x11D5 DUP2 DUP6 PUSH2 0x1179 JUMP JUMPDEST SWAP4 POP PUSH2 0x11E5 DUP2 DUP6 PUSH1 0x20 DUP7 ADD PUSH2 0x1189 JUMP JUMPDEST PUSH2 0x11EE DUP2 PUSH2 0x11B1 JUMP JUMPDEST DUP5 ADD SWAP2 POP POP SWAP3 SWAP2 POP POP JUMP JUMPDEST PUSH0 PUSH1 0x20 DUP3 ADD SWAP1 POP DUP2 DUP2 SUB PUSH0 DUP4 ADD MSTORE PUSH2 0x1211 DUP2 DUP5 PUSH2 0x11C1 JUMP JUMPDEST SWAP1 POP SWAP3 SWAP2 POP POP JUMP JUMPDEST PUSH0 DUP1 REVERT JUMPDEST PUSH0 DUP1 REVERT JUMPDEST PUSH32 0x4E487B7100000000000000000000000000000000000000000000000000000000 PUSH0 MSTORE PUSH1 0x41 PUSH1 0x4 MSTORE PUSH1 0x24 PUSH0 REVERT JUMPDEST PUSH2 0x1257 DUP3 PUSH2 0x11B1 JUMP JUMPDEST DUP2 ADD DUP2 DUP2 LT PUSH8 0xFFFFFFFFFFFFFFFF DUP3 GT OR ISZERO PUSH2 0x1276 JUMPI PUSH2 0x1275 PUSH2 0x1221 JUMP JUMPDEST JUMPDEST DUP1 PUSH1 0x40 MSTORE POP POP POP JUMP JUMPDEST PUSH0 PUSH2 0x1288 PUSH2 0x10A8 JUMP JUMPDEST SWAP1 POP PUSH2 0x1294 DUP3 DUP3 PUSH2 0x124E JUMP JUMPDEST SWAP2 SWAP1 POP JUMP JUMPDEST PUSH0 PUSH8 0xFFFFFFFFFFFFFFFF DUP3 GT ISZERO PUSH2 0x12B3 JUMPI PUSH2 0x12B2 PUSH2 0x1221 JUMP JUMPDEST JUMPDEST PUSH2 0x12BC DUP3 PUSH2 0x11B1 JUMP JUMPDEST SWAP1 POP PUSH1 0x20 DUP2 ADD SWAP1 POP SWAP2 SWAP1 POP JUMP JUMPDEST DUP3 DUP2 DUP4 CALLDATACOPY PUSH0 DUP4 DUP4 ADD MSTORE POP POP POP JUMP JUMPDEST PUSH0 PUSH2 0x12E9 PUSH2 0x12E4 DUP5 PUSH2 0x1299 JUMP JUMPDEST PUSH2 0x127F JUMP JUMPDEST SWAP1 POP DUP3 DUP2 MSTORE PUSH1 0x20 DUP2 ADD DUP5 DUP5 DUP5 ADD GT ISZERO PUSH2 0x1305 JUMPI PUSH2 0x1304 PUSH2 0x121D JUMP JUMPDEST JUMPDEST PUSH2 0x1310 DUP5 DUP3 DUP6 PUSH2 0x12C9 JUMP JUMPDEST POP SWAP4 SWAP3 POP POP POP JUMP JUMPDEST PUSH0 DUP3 PUSH1 0x1F DUP4 ADD SLT PUSH2 0x132C JUMPI PUSH2 0x132B PUSH2 0x1219 JUMP JUMPDEST JUMPDEST DUP2 CALLDATALOAD PUSH2 0x133C DUP5 DUP3 PUSH1 0x20 DUP7 ADD PUSH2 0x12D7 JUMP JUMPDEST SWAP2 POP POP SWAP3 SWAP2 POP POP JUMP JUMPDEST PUSH0 DUP2 ISZERO ISZERO SWAP1 POP SWAP2 SWAP1 POP JUMP JUMPDEST PUSH2 0x1359 DUP2 PUSH2 0x1345 JUMP JUMPDEST DUP2 EQ PUSH2 0x1363 JUMPI PUSH0 DUP1 REVERT JUMPDEST POP JUMP JUMPDEST PUSH0 DUP2 CALLDATALOAD SWAP1 POP PUSH2 0x1374 DUP2 PUSH2 0x1350 JUMP JUMPDEST SWAP3 SWAP2 POP POP JUMP JUMPDEST PUSH0 DUP1 PUSH1 0x40 DUP4 DUP6 SUB SLT ISZERO PUSH2 0x1390 JUMPI PUSH2 0x138F PUSH2 0x10B1 JUMP JUMPDEST JUMPDEST PUSH0 DUP4 ADD CALLDATALOAD PUSH8 0xFFFFFFFFFFFFFFFF DUP2 GT ISZERO PUSH2 0x13AD JUMPI PUSH2 0x13AC PUSH2 0x10B5 JUMP JUMPDEST JUMPDEST PUSH2 0x13B9 DUP6 DUP3 DUP7 ADD PUSH2 0x1318 JUMP JUMPDEST SWAP3 POP POP PUSH1 0x20 PUSH2 0x13CA DUP6 DUP3 DUP7 ADD PUSH2 0x1366 JUMP JUMPDEST SWAP2 POP POP SWAP3 POP SWAP3 SWAP1 POP JUMP JUMPDEST PUSH2 0x13DD DUP2 PUSH2 0x10D8 JUMP JUMPDEST DUP3 MSTORE POP POP JUMP JUMPDEST PUSH0 DUP3 DUP3 MSTORE PUSH1 0x20 DUP3 ADD SWAP1 POP SWAP3 SWAP2 POP POP JUMP JUMPDEST PUSH0 PUSH2 0x13FD DUP3 PUSH2 0x116F JUMP JUMPDEST PUSH2 0x1407 DUP2 DUP6 PUSH2 0x13E3 JUMP JUMPDEST SWAP4 POP PUSH2 0x1417 DUP2 DUP6 PUSH1 0x20 DUP7 ADD PUSH2 0x1189 JUMP JUMPDEST PUSH2 0x1420 DUP2 PUSH2 0x11B1 JUMP JUMPDEST DUP5 ADD SWAP2 POP POP SWAP3 SWAP2 POP POP JUMP JUMPDEST PUSH2 0x1434 DUP2 PUSH2 0x113E JUMP JUMPDEST DUP3 MSTORE POP POP JUMP JUMPDEST PUSH0 PUSH1 0xE0 DUP4 ADD PUSH0 DUP4 ADD MLOAD PUSH2 0x144F PUSH0 DUP7 ADD DUP3 PUSH2 0x13D4 JUMP JUMPDEST POP PUSH1 0x20 DUP4 ADD MLOAD DUP5 DUP3 SUB PUSH1 0x20 DUP7 ADD MSTORE PUSH2 0x1467 DUP3 DUP3 PUSH2 0x13F3 JUMP JUMPDEST SWAP2 POP POP PUSH1 0x40 DUP4 ADD MLOAD DUP5 DUP3 SUB PUSH1 0x40 DUP7 ADD MSTORE PUSH2 0x1481 DUP3 DUP3 PUSH2 0x13F3 JUMP JUMPDEST SWAP2 POP POP PUSH1 0x60 DUP4 ADD MLOAD PUSH2 0x1496 PUSH1 0x60 DUP7 ADD DUP3 PUSH2 0x142B JUMP JUMPDEST POP PUSH1 0x80 DUP4 ADD MLOAD PUSH2 0x14A9 PUSH1 0x80 DUP7 ADD DUP3 PUSH2 0x142B JUMP JUMPDEST POP PUSH1 0xA0 DUP4 ADD MLOAD PUSH2 0x14BC PUSH1 0xA0 DUP7 ADD DUP3 PUSH2 0x142B JUMP JUMPDEST POP PUSH1 0xC0 DUP4 ADD MLOAD PUSH2 0x14CF PUSH1 0xC0 DUP7 ADD DUP3 PUSH2 0x142B JUMP JUMPDEST POP DUP1 SWAP2 POP POP SWAP3 SWAP2 POP POP JUMP JUMPDEST PUSH0 PUSH1 0x20 DUP3 ADD SWAP1 POP DUP2 DUP2 SUB PUSH0 DUP4 ADD MSTORE PUSH2 0x14F2 DUP2 DUP5 PUSH2 0x143A JUMP JUMPDEST SWAP1 POP SWAP3 SWAP2 POP POP JUMP JUMPDEST PUSH0 PUSH1 0x20 DUP3 DUP5 SUB SLT ISZERO PUSH2 0x150F JUMPI PUSH2 0x150E PUSH2 0x10B1 JUMP JUMPDEST JUMPDEST PUSH0 DUP3 ADD CALLDATALOAD PUSH8 0xFFFFFFFFFFFFFFFF DUP2 GT ISZERO PUSH2 0x152C JUMPI PUSH2 0x152B PUSH2 0x10B5 JUMP JUMPDEST JUMPDEST PUSH2 0x1538 DUP5 DUP3 DUP6 ADD PUSH2 0x1318 JUMP JUMPDEST SWAP2 POP POP SWAP3 SWAP2 POP POP JUMP JUMPDEST PUSH0 PUSH2 0x154B DUP3 PUSH2 0x10B9 JUMP JUMPDEST SWAP1 POP SWAP2 SWAP1 POP JUMP JUMPDEST PUSH2 0x155B DUP2 PUSH2 0x1541 JUMP JUMPDEST DUP3 MSTORE POP POP JUMP JUMPDEST PUSH2 0x156A DUP2 PUSH2 0x1345 JUMP JUMPDEST DUP3 MSTORE POP POP JUMP JUMPDEST PUSH0 PUSH2 0x100 DUP3 ADD SWAP1 POP DUP2 DUP2 SUB PUSH0 DUP4 ADD MSTORE PUSH2 0x1589 DUP2 DUP12 PUSH2 0x11C1 JUMP JUMPDEST SWAP1 POP DUP2 DUP2 SUB PUSH1 0x20 DUP4 ADD MSTORE PUSH2 0x159D DUP2 DUP11 PUSH2 0x11C1 JUMP JUMPDEST SWAP1 POP PUSH2 0x15AC PUSH1 0x40 DUP4 ADD DUP10 PUSH2 0x1147 JUMP JUMPDEST PUSH2 0x15B9 PUSH1 0x60 DUP4 ADD DUP9 PUSH2 0x1552 JUMP JUMPDEST PUSH2 0x15C6 PUSH1 0x80 DUP4 ADD DUP8 PUSH2 0x1147 JUMP JUMPDEST PUSH2 0x15D3 PUSH1 0xA0 DUP4 ADD DUP7 PUSH2 0x1147 JUMP JUMPDEST PUSH2 0x15E0 PUSH1 0xC0 DUP4 ADD DUP6 PUSH2 0x1561 JUMP JUMPDEST PUSH2 0x15ED PUSH1 0xE0 DUP4 ADD DUP5 PUSH2 0x1561 JUMP JUMPDEST SWAP10 SWAP9 POP POP POP POP POP POP POP POP POP JUMP JUMPDEST PUSH0 DUP2 MLOAD SWAP1 POP SWAP2 SWAP1 POP JUMP JUMPDEST PUSH0 DUP3 DUP3 MSTORE PUSH1 0x20 DUP3 ADD SWAP1 POP SWAP3 SWAP2 POP POP JUMP JUMPDEST PUSH0 DUP2 SWAP1 POP PUSH1 0x20 DUP3 ADD SWAP1 POP SWAP2 SWAP1 POP JUMP JUMPDEST PUSH0 PUSH1 0x60 DUP4 ADD PUSH0 DUP4 ADD MLOAD DUP5 DUP3 SUB PUSH0 DUP7 ADD MSTORE PUSH2 0x163D DUP3 DUP3 PUSH2 0x13F3 JUMP JUMPDEST SWAP2 POP POP PUSH1 0x20 DUP4 ADD MLOAD DUP5 DUP3 SUB PUSH1 0x20 DUP7 ADD MSTORE PUSH2 0x1657 DUP3 DUP3 PUSH2 0x13F3 JUMP JUMPDEST SWAP2 POP POP PUSH1 0x40 DUP4 ADD MLOAD PUSH2 0x166C PUSH1 0x40 DUP7 ADD DUP3 PUSH2 0x142B JUMP JUMPDEST POP DUP1 SWAP2 POP POP SWAP3 SWAP2 POP POP JUMP JUMPDEST PUSH0 PUSH2 0x1682 DUP4 DUP4 PUSH2 0x1623 JUMP JUMPDEST SWAP1 POP SWAP3 SWAP2 POP POP JUMP JUMPDEST PUSH0 PUSH1 0x20 DUP3 ADD SWAP1 POP SWAP2 SWAP1 POP JUMP JUMPDEST PUSH0 PUSH2 0x16A0 DUP3 PUSH2 0x15FA JUMP JUMPDEST PUSH2 0x16AA DUP2 DUP6 PUSH2 0x1604 JUMP JUMPDEST SWAP4 POP DUP4 PUSH1 0x20 DUP3 MUL DUP6 ADD PUSH2 0x16BC DUP6 PUSH2 0x1614 JUMP JUMPDEST DUP1 PUSH0 JUMPDEST DUP6 DUP2 LT ISZERO PUSH2 0x16F7 JUMPI DUP5 DUP5 SUB DUP10 MSTORE DUP2 MLOAD PUSH2 0x16D8 DUP6 DUP3 PUSH2 0x1677 JUMP JUMPDEST SWAP5 POP PUSH2 0x16E3 DUP4 PUSH2 0x168A JUMP JUMPDEST SWAP3 POP PUSH1 0x20 DUP11 ADD SWAP10 POP POP PUSH1 0x1 DUP2 ADD SWAP1 POP PUSH2 0x16BF JUMP JUMPDEST POP DUP3 SWAP8 POP DUP8 SWAP6 POP POP POP POP POP POP SWAP3 SWAP2 POP POP JUMP JUMPDEST PUSH0 PUSH1 0x20 DUP3 ADD SWAP1 POP DUP2 DUP2 SUB PUSH0 DUP4 ADD MSTORE PUSH2 0x1721 DUP2 DUP5 PUSH2 0x1696 JUMP JUMPDEST SWAP1 POP SWAP3 SWAP2 POP POP JUMP JUMPDEST PUSH2 0x1732 DUP2 PUSH2 0x113E JUMP JUMPDEST DUP2 EQ PUSH2 0x173C JUMPI PUSH0 DUP1 REVERT JUMPDEST POP JUMP JUMPDEST PUSH0 DUP2 CALLDATALOAD SWAP1 POP PUSH2 0x174D DUP2 PUSH2 0x1729 JUMP JUMPDEST SWAP3 SWAP2 POP POP JUMP JUMPDEST PUSH2 0x175C DUP2 PUSH2 0x1541 JUMP JUMPDEST DUP2 EQ PUSH2 0x1766 JUMPI PUSH0 DUP1 REVERT JUMPDEST POP JUMP JUMPDEST PUSH0 DUP2 CALLDATALOAD SWAP1 POP PUSH2 0x1777 DUP2 PUSH2 0x1753 JUMP JUMPDEST SWAP3 SWAP2 POP POP JUMP JUMPDEST PUSH0 DUP1 PUSH0 DUP1 PUSH0 PUSH1 0xA0 DUP7 DUP9 SUB SLT ISZERO PUSH2 0x1796 JUMPI PUSH2 0x1795 PUSH2 0x10B1 JUMP JUMPDEST JUMPDEST PUSH0 DUP7 ADD CALLDATALOAD PUSH8 0xFFFFFFFFFFFFFFFF DUP2 GT ISZERO PUSH2 0x17B3 JUMPI PUSH2 0x17B2 PUSH2 0x10B5 JUMP JUMPDEST JUMPDEST PUSH2 0x17BF DUP9 DUP3 DUP10 ADD PUSH2 0x1318 JUMP JUMPDEST SWAP6 POP POP PUSH1 0x20 DUP7 ADD CALLDATALOAD PUSH8 0xFFFFFFFFFFFFFFFF DUP2 GT ISZERO PUSH2 0x17E0 JUMPI PUSH2 0x17DF PUSH2 0x10B5 JUMP JUMPDEST JUMPDEST PUSH2 0x17EC DUP9 DUP3 DUP10 ADD PUSH2 0x1318 JUMP JUMPDEST SWAP5 POP POP PUSH1 0x40 PUSH2 0x17FD DUP9 DUP3 DUP10 ADD PUSH2 0x173F JUMP JUMPDEST SWAP4 POP POP PUSH1 0x60 PUSH2 0x180E DUP9 DUP3 DUP10 ADD PUSH2 0x173F JUMP JUMPDEST SWAP3 POP POP PUSH1 0x80 PUSH2 0x181F DUP9 DUP3 DUP10 ADD PUSH2 0x1769 JUMP JUMPDEST SWAP2 POP POP SWAP3 SWAP6 POP SWAP3 SWAP6 SWAP1 SWAP4 POP JUMP JUMPDEST PUSH2 0x1835 DUP2 PUSH2 0x10D8 JUMP JUMPDEST DUP3 MSTORE POP POP JUMP JUMPDEST PUSH0 PUSH1 0x20 DUP3 ADD SWAP1 POP PUSH2 0x184E PUSH0 DUP4 ADD DUP5 PUSH2 0x182C JUMP JUMPDEST SWAP3 SWAP2 POP POP JUMP JUMPDEST PUSH32 0x4E487B7100000000000000000000000000000000000000000000000000000000 PUSH0 MSTORE PUSH1 0x22 PUSH1 0x4 MSTORE PUSH1 0x24 PUSH0 REVERT JUMPDEST PUSH0 PUSH1 0x2 DUP3 DIV SWAP1 POP PUSH1 0x1 DUP3 AND DUP1 PUSH2 0x1898 JUMPI PUSH1 0x7F DUP3 AND SWAP2 POP JUMPDEST PUSH1 0x20 DUP3 LT DUP2 SUB PUSH2 0x18AB JUMPI PUSH2 0x18AA PUSH2 0x1854 JUMP JUMPDEST JUMPDEST POP SWAP2 SWAP1 POP JUMP JUMPDEST PUSH0 DUP2 SWAP1 POP SWAP3 SWAP2 POP POP JUMP JUMPDEST PUSH0 PUSH2 0x18C5 DUP3 PUSH2 0x116F JUMP JUMPDEST PUSH2 0x18CF DUP2 DUP6 PUSH2 0x18B1 JUMP JUMPDEST SWAP4 POP PUSH2 0x18DF DUP2 DUP6 PUSH1 0x20 DUP7 ADD PUSH2 0x1189 JUMP JUMPDEST DUP1 DUP5 ADD SWAP2 POP POP SWAP3 SWAP2 POP POP JUMP JUMPDEST PUSH0 PUSH2 0x18F6 DUP3 DUP5 PUSH2 0x18BB JUMP JUMPDEST SWAP2 POP DUP2 SWAP1 POP SWAP3 SWAP2 POP POP JUMP JUMPDEST PUSH32 0x4E487B7100000000000000000000000000000000000000000000000000000000 PUSH0 MSTORE PUSH1 0x11 PUSH1 0x4 MSTORE PUSH1 0x24 PUSH0 REVERT JUMPDEST PUSH0 PUSH2 0x1938 DUP3 PUSH2 0x113E JUMP JUMPDEST SWAP2 POP PUSH32 0xFFFFFFFFFFFFFFFFFFFFFFFFFFFFFFFFFFFFFFFFFFFFFFFFFFFFFFFFFFFFFFFF DUP3 SUB PUSH2 0x196A JUMPI PUSH2 0x1969 PUSH2 0x1901 JUMP JUMPDEST JUMPDEST PUSH1 0x1 DUP3 ADD SWAP1 POP SWAP2 SWAP1 POP JUMP JUMPDEST PUSH0 DUP2 SWAP1 POP DUP2 PUSH0 MSTORE PUSH1 0x20 PUSH0 KECCAK256 SWAP1 POP SWAP2 SWAP1 POP JUMP JUMPDEST PUSH0 PUSH1 0x20 PUSH1 0x1F DUP4 ADD DIV SWAP1 POP SWAP2 SWAP1 POP JUMP JUMPDEST PUSH0 DUP3 DUP3 SHL SWAP1 POP SWAP3 SWAP2 POP POP JUMP JUMPDEST PUSH0 PUSH1 0x8 DUP4 MUL PUSH2 0x19D1 PUSH32 0xFFFFFFFFFFFFFFFFFFFFFFFFFFFFFFFFFFFFFFFFFFFFFFFFFFFFFFFFFFFFFFFF DUP3 PUSH2 0x1996 JUMP JUMPDEST PUSH2 0x19DB DUP7 DUP4 PUSH2 0x1996 JUMP JUMPDEST SWAP6 POP DUP1 NOT DUP5 AND SWAP4 POP DUP1 DUP7 AND DUP5 OR SWAP3 POP POP POP SWAP4 SWAP3 POP POP POP JUMP JUMPDEST PUSH0 DUP2 SWAP1 POP SWAP2 SWAP1 POP JUMP JUMPDEST PUSH0 PUSH2 0x1A16 PUSH2 0x1A11 PUSH2 0x1A0C DUP5 PUSH2 0x113E JUMP JUMPDEST PUSH2 0x19F3 JUMP JUMPDEST PUSH2 0x113E JUMP JUMPDEST SWAP1 POP SWAP2 SWAP1 POP JUMP JUMPDEST PUSH0 DUP2 SWAP1 POP SWAP2 SWAP1 POP JUMP JUMPDEST PUSH2 0x1A2F DUP4 PUSH2 0x19FC JUMP JUMPDEST PUSH2 0x1A43 PUSH2 0x1A3B DUP3 PUSH2 0x1A1D JUMP JUMPDEST DUP5 DUP5 SLOAD PUSH2 0x19A2 JUMP JUMPDEST DUP3 SSTORE POP POP POP POP JUMP JUMPDEST PUSH0 SWAP1 JUMP JUMPDEST PUSH2 0x1A57 PUSH2 0x1A4B JUMP JUMPDEST PUSH2 0x1A62 DUP2 DUP5 DUP5 PUSH2 0x1A26 JUMP JUMPDEST POP POP POP JUMP JUMPDEST JUMPDEST DUP2 DUP2 LT ISZERO PUSH2 0x1A85 JUMPI PUSH2 0x1A7A PUSH0 DUP3 PUSH2 0x1A4F JUMP JUMPDEST PUSH1 0x1 DUP2 ADD SWAP1 POP PUSH2 0x1A68 JUMP JUMPDEST POP POP JUMP JUMPDEST PUSH1 0x1F DUP3 GT ISZERO PUSH2 0x1ACA JUMPI PUSH2 0x1A9B DUP2 PUSH2 0x1975 JUMP JUMPDEST PUSH2 0x1AA4 DUP5 PUSH2 0x1987 JUMP JUMPDEST DUP2 ADD PUSH1 0x20 DUP6 LT ISZERO PUSH2 0x1AB3 JUMPI DUP2 SWAP1 POP JUMPDEST PUSH2 0x1AC7 PUSH2 0x1ABF DUP6 PUSH2 0x1987 JUMP JUMPDEST DUP4 ADD DUP3 PUSH2 0x1A67 JUMP JUMPDEST POP POP JUMPDEST POP POP POP JUMP JUMPDEST PUSH0 DUP3 DUP3 SHR SWAP1 POP SWAP3 SWAP2 POP POP JUMP JUMPDEST PUSH0 PUSH2 0x1AEA PUSH0 NOT DUP5 PUSH1 0x8 MUL PUSH2 0x1ACF JUMP JUMPDEST NOT DUP1 DUP4 AND SWAP2 POP POP SWAP3 SWAP2 POP POP JUMP JUMPDEST PUSH0 PUSH2 0x1B02 DUP4 DUP4 PUSH2 0x1ADB JUMP JUMPDEST SWAP2 POP DUP3 PUSH1 0x2 MUL DUP3 OR SWAP1 POP SWAP3 SWAP2 POP POP JUMP JUMPDEST PUSH2 0x1B1B DUP3 PUSH2 0x116F JUMP JUMPDEST PUSH8 0xFFFFFFFFFFFFFFFF DUP2 GT ISZERO PUSH2 0x1B34 JUMPI PUSH2 0x1B33 PUSH2 0x1221 JUMP JUMPDEST JUMPDEST PUSH2 0x1B3E DUP3 SLOAD PUSH2 0x1881 JUMP JUMPDEST PUSH2 0x1B49 DUP3 DUP3 DUP6 PUSH2 0x1A89 JUMP JUMPDEST PUSH0 PUSH1 0x20 SWAP1 POP PUSH1 0x1F DUP4 GT PUSH1 0x1 DUP2 EQ PUSH2 0x1B7A JUMPI PUSH0 DUP5 ISZERO PUSH2 0x1B68 JUMPI DUP3 DUP8 ADD MLOAD SWAP1 POP JUMPDEST PUSH2 0x1B72 DUP6 DUP3 PUSH2 0x1AF7 JUMP JUMPDEST DUP7 SSTORE POP PUSH2 0x1BD9 JUMP JUMPDEST PUSH1 0x1F NOT DUP5 AND PUSH2 0x1B88 DUP7 PUSH2 0x1975 JUMP JUMPDEST PUSH0 JUMPDEST DUP3 DUP2 LT ISZERO PUSH2 0x1BAF JUMPI DUP5 DUP10 ADD MLOAD DUP3 SSTORE PUSH1 0x1 DUP3 ADD SWAP2 POP PUSH1 0x20 DUP6 ADD SWAP5 POP PUSH1 0x20 DUP2 ADD SWAP1 POP PUSH2 0x1B8A JUMP JUMPDEST DUP7 DUP4 LT ISZERO PUSH2 0x1BCC JUMPI DUP5 DUP10 ADD MLOAD PUSH2 0x1BC8 PUSH1 0x1F DUP10 AND DUP3 PUSH2 0x1ADB JUMP JUMPDEST DUP4 SSTORE POP JUMPDEST PUSH1 0x1 PUSH1 0x2 DUP9 MUL ADD DUP9 SSTORE POP POP POP JUMPDEST POP POP POP POP POP POP JUMP INVALID LOG2 PUSH5 0x6970667358 0x22 SLT KECCAK256 0x1E 0xBE 0xED 0xCD PUSH0 MSTORE8 LOG3 PUSH5 0x8D8CD72B4 PUSH13 0x746409AECFE595000BD090B6DA SWAP2 MSTORE8 MSIZE SHR SWAP5 PUSH5 0x736F6C6343 STOP ADDMOD XOR STOP CALLER "},"gasEstimates":{"creation":{"codeDepositCost":"1438200","executionCost":"infinite","totalCost":"infinite"},"external":{"addFunds()":"2333","approvers(address)":"2826","contribute()":"51029","getCampaignName()":"infinite","getContractBalance()":"401","getContributorsCount()":"2520","getDescription()":"infinite","getManager()":"2604","getMinimumContribution()":"2498","getRequests()":"infinite","getRequestsCount()":"2522","getSummary()":"infinite","requests(string)":"infinite","submitRequest(string)":"infinite","triggerCampaignRequest(string,string,uint256,uint256,address)":"infinite","voteRequest(string,bool)":"infinite"}},"methodIdentifiers":{"addFunds()":"a26759cb","approvers(address)":"0a144391","contribute()":"d7bb99ba","getCampaignName()":"885e7c62","getContractBalance()":"6f9fb98a","getContributorsCount()":"feed5561","getDescription()":"1a092541","getManager()":"d5009584","getMinimumContribution()":"f84038b1","getRequests()":"8813ce12","getRequestsCount()":"3410452a","getSummary()":"4051ddac","requests(string)":"692d51d2","submitRequest(string)":"e2e46b52","triggerCampaignRequest(string,string,uint256,uint256,address)":"a7ac8000","voteRequest(string,bool)":"30e8fc5c"}},"storageLayout":{"storage":[{"astId":146,"contract":"Campaign.sol:Campaign","label":"_name","offset":0,"slot":"0","type":"t_string_storage"},{"astId":148,"contract":"Campaign.sol:Campaign","label":"_description","offset":0,"slot":"1","type":"t_string_storage"},{"astId":150,"contract":"Campaign.sol:Campaign","label":"_manager","offset":0,"slot":"2","type":"t_address"},{"astId":154,"contract":"Campaign.sol:Campaign","label":"approvers","offset":0,"slot":"3","type":"t_mapping(t_address,t_uint256)"},{"astId":156,"contract":"Campaign.sol:Campaign","label":"_approversCount","offset":0,"slot":"4","type":"t_uint256"},{"astId":158,"contract":"Campaign.sol:Campaign","label":"_minimumContribution","offset":0,"slot":"5","type":"t_uint256"},{"astId":162,"contract":"Campaign.sol:Campaign","label":"_requests","offset":0,"slot":"6","type":"t_array(t_struct(RequestSummary)144_storage)dyn_storage"},{"astId":167,"contract":"Campaign.sol:Campaign","label":"requests","offset":0,"slot":"7","type":"t_mapping(t_string_memory_ptr,t_struct(Request)122_storage)"},{"astId":169,"contract":"Campaign.sol:Campaign","label":"_requestsCount","offset":0,"slot":"8","type":"t_uint256"}],"types":{"t_address":{"encoding":"inplace","label":"address","numberOfBytes":"20"},"t_address_payable":{"encoding":"inplace","label":"address payable","numberOfBytes":"20"},"t_array(t_struct(RequestSummary)144_storage)dyn_storage":{"base":"t_struct(RequestSummary)144_storage","encoding":"dynamic_array","label":"struct Campaign.RequestSummary[]","numberOfBytes":"32"},"t_bool":{"encoding":"inplace","label":"bool","numberOfBytes":"1"},"t_mapping(t_address,t_bool)":{"encoding":"mapping","key":"t_address","label":"mapping(address => bool)","numberOfBytes":"32","value":"t_bool"},"t_mapping(t_address,t_uint256)":{"encoding":"mapping","key":"t_address","label":"mapping(address => uint256)","numberOfBytes":"32","value":"t_uint256"},"t_mapping(t_string_memory_ptr,t_struct(Request)122_storage)":{"encoding":"mapping","key":"t_string_memory_ptr","label":"mapping(string => struct Campaign.Request)","numberOfBytes":"32","value":"t_struct(Request)122_storage"},"t_string_memory_ptr":{"encoding":"bytes","label":"string","numberOfBytes":"32"},"t_string_storage":{"encoding":"bytes","label":"string","numberOfBytes":"32"},"t_struct(Request)122_storage":{"encoding":"inplace","label":"struct Campaign.Request","members":[{"astId":103,"contract":"Campaign.sol:Campaign","label":"name","offset":0,"slot":"0","type":"t_string_storage"},{"astId":105,"contract":"Campaign.sol:Campaign","label":"description","offset":0,"slot":"1","type":"t_string_storage"},{"astId":107,"contract":"Campaign.sol:Campaign","label":"amount","offset":0,"slot":"2","type":"t_uint256"},{"astId":109,"contract":"Campaign.sol:Campaign","label":"receiver","offset":0,"slot":"3","type":"t_address_payable"},{"astId":111,"contract":"Campaign.sol:Campaign","label":"approvalsCount","offset":0,"slot":"4","type":"t_uint256"},{"astId":113,"contract":"Campaign.sol:Campaign","label":"requiredApprovals","offset":0,"slot":"5","type":"t_uint256"},{"astId":115,"contract":"Campaign.sol:Campaign","label":"canSubmit","offset":0,"slot":"6","type":"t_bool"},{"astId":117,"contract":"Campaign.sol:Campaign","label":"complete","offset":1,"slot":"6","type":"t_bool"},{"astId":121,"contract":"Campaign.sol:Campaign","label":"approvers","offset":0,"slot":"7","type":"t_mapping(t_address,t_bool)"}],"numberOfBytes":"256"},"t_struct(RequestSummary)144_storage":{"encoding":"inplace","label":"struct Campaign.RequestSummary","members":[{"astId":139,"contract":"Campaign.sol:Campaign","label":"name","offset":0,"slot":"0","type":"t_string_storage"},{"astId":141,"contract":"Campaign.sol:Campaign","label":"description","offset":0,"slot":"1","type":"t_string_storage"},{"astId":143,"contract":"Campaign.sol:Campaign","label":"amount","offset":0,"slot":"2","type":"t_uint256"}],"numberOfBytes":"96"},"t_uint256":{"encoding":"inplace","label":"uint256","numberOfBytes":"32"}}},"userdoc":{"kind":"user","methods":{},"version":1}}