{"abi":[{"inputs":[{"internalType":"string","name":"name","type":"string"},{"internalType":"string","name":"description","type":"string"},{"internalType":"uint256","name":"minimum","type":"uint256"},{"internalType":"address","name":"mngr","type":"address"}],"stateMutability":"nonpayable","type":"constructor"},{"inputs":[{"internalType":"address","name":"","type":"address"}],"name":"approvers","outputs":[{"internalType":"uint256","name":"","type":"uint256"}],"stateMutability":"view","type":"function"},{"inputs":[],"name":"contribute","outputs":[],"stateMutability":"payable","type":"function"},{"inputs":[],"name":"getCampaignName","outputs":[{"internalType":"string","name":"","type":"string"}],"stateMutability":"view","type":"function"},{"inputs":[],"name":"getContractBalance","outputs":[{"internalType":"uint256","name":"","type":"uint256"}],"stateMutability":"view","type":"function"},{"inputs":[],"name":"getContributorsCount","outputs":[{"internalType":"uint256","name":"","type":"uint256"}],"stateMutability":"view","type":"function"},{"inputs":[],"name":"getDescription","outputs":[{"internalType":"string","name":"","type":"string"}],"stateMutability":"view","type":"function"},{"inputs":[],"name":"getManager","outputs":[{"internalType":"address","name":"","type":"address"}],"stateMutability":"view","type":"function"},{"inputs":[],"name":"getMinimumContribution","outputs":[{"internalType":"uint256","name":"","type":"uint256"}],"stateMutability":"view","type":"function"},{"inputs":[],"name":"getSummary","outputs":[{"components":[{"internalType":"address","name":"manager","type":"address"},{"internalType":"string","name":"name","type":"string"},{"internalType":"string","name":"description","type":"string"},{"internalType":"uint256","name":"minContribution","type":"uint256"},{"internalType":"uint256","name":"balance","type":"uint256"},{"internalType":"uint256","name":"contributors","type":"uint256"}],"internalType":"struct Campaign.Summary","name":"","type":"tuple"}],"stateMutability":"view","type":"function"},{"inputs":[{"internalType":"string","name":"","type":"string"}],"name":"requests","outputs":[{"internalType":"string","name":"name","type":"string"},{"internalType":"string","name":"description","type":"string"},{"internalType":"uint256","name":"amount","type":"uint256"},{"internalType":"address payable","name":"receiver","type":"address"},{"internalType":"uint256","name":"approvalsCount","type":"uint256"},{"internalType":"uint256","name":"requiredApprovals","type":"uint256"},{"internalType":"bool","name":"canSubmit","type":"bool"},{"internalType":"bool","name":"complete","type":"bool"}],"stateMutability":"view","type":"function"},{"inputs":[{"internalType":"string","name":"reqName","type":"string"}],"name":"submitRequest","outputs":[],"stateMutability":"nonpayable","type":"function"},{"inputs":[{"internalType":"string","name":"name","type":"string"},{"internalType":"string","name":"description","type":"string"},{"internalType":"uint256","name":"amount","type":"uint256"},{"internalType":"uint256","name":"requiredApprovals","type":"uint256"},{"internalType":"address payable","name":"receiver","type":"address"}],"name":"triggerCampaignRequest","outputs":[],"stateMutability":"nonpayable","type":"function"},{"inputs":[{"internalType":"string","name":"reqName","type":"string"},{"internalType":"bool","name":"isApproval","type":"bool"}],"name":"voteRequest","outputs":[],"stateMutability":"nonpayable","type":"function"}],"devdoc":{"kind":"dev","methods":{},"version":1},"evm":{"assembly":"    /* \"Campaign.sol\":1142:5447  contract Campaign... */\n  mstore(0x40, 0x80)\n    /* \"Campaign.sol\":1889:2142  constructor (string memory name, string memory description, uint minimum, address mngr)... */\n  callvalue\n  dup1\n  iszero\n  tag_1\n  jumpi\n  0x00\n  dup1\n  revert\ntag_1:\n  pop\n  mload(0x40)\n  sub(codesize, bytecodeSize)\n  dup1\n  bytecodeSize\n  dup4\n  codecopy\n  dup2\n  dup2\n  add\n  0x40\n  mstore\n  dup2\n  add\n  swap1\n  tag_2\n  swap2\n  swap1\n  tag_3\n  jump\t// in\ntag_2:\n    /* \"Campaign.sol\":2009:2010  0 */\n  0x00\n    /* \"Campaign.sol\":1999:2006  minimum */\n  dup3\n    /* \"Campaign.sol\":1999:2010  minimum > 0 */\n  gt\n    /* \"Campaign.sol\":1991:2011  require(minimum > 0) */\n  tag_6\n  jumpi\n  0x00\n  dup1\n  revert\ntag_6:\n    /* \"Campaign.sol\":2032:2036  mngr */\n  dup1\n    /* \"Campaign.sol\":2021:2029  _manager */\n  0x02\n  0x00\n    /* \"Campaign.sol\":2021:2036  _manager = mngr */\n  0x0100\n  exp\n  dup2\n  sload\n  dup2\n  0xffffffffffffffffffffffffffffffffffffffff\n  mul\n  not\n  and\n  swap1\n  dup4\n  0xffffffffffffffffffffffffffffffffffffffff\n  and\n  mul\n  or\n  swap1\n  sstore\n  pop\n    /* \"Campaign.sol\":2054:2058  name */\n  dup4\n    /* \"Campaign.sol\":2046:2051  _name */\n  0x00\n    /* \"Campaign.sol\":2046:2058  _name = name */\n  swap1\n  dup2\n  tag_7\n  swap2\n  swap1\n  tag_8\n  jump\t// in\ntag_7:\n  pop\n    /* \"Campaign.sol\":2083:2094  description */\n  dup3\n    /* \"Campaign.sol\":2068:2080  _description */\n  0x01\n    /* \"Campaign.sol\":2068:2094  _description = description */\n  swap1\n  dup2\n  tag_9\n  swap2\n  swap1\n  tag_8\n  jump\t// in\ntag_9:\n  pop\n    /* \"Campaign.sol\":2128:2135  minimum */\n  dup2\n    /* \"Campaign.sol\":2105:2125  _minimumContribution */\n  0x05\n    /* \"Campaign.sol\":2105:2135  _minimumContribution = minimum */\n  dup2\n  swap1\n  sstore\n  pop\n    /* \"Campaign.sol\":1889:2142  constructor (string memory name, string memory description, uint minimum, address mngr)... */\n  pop\n  pop\n  pop\n  pop\n    /* \"Campaign.sol\":1142:5447  contract Campaign... */\n  jump(tag_10)\n    /* \"#utility.yul\":7:82   */\ntag_11:\n    /* \"#utility.yul\":40:46   */\n  0x00\n    /* \"#utility.yul\":73:75   */\n  0x40\n    /* \"#utility.yul\":67:76   */\n  mload\n    /* \"#utility.yul\":57:76   */\n  swap1\n  pop\n    /* \"#utility.yul\":7:82   */\n  swap1\n  jump\t// out\n    /* \"#utility.yul\":88:205   */\ntag_12:\n    /* \"#utility.yul\":197:198   */\n  0x00\n    /* \"#utility.yul\":194:195   */\n  dup1\n    /* \"#utility.yul\":187:199   */\n  revert\n    /* \"#utility.yul\":211:328   */\ntag_13:\n    /* \"#utility.yul\":320:321   */\n  0x00\n    /* \"#utility.yul\":317:318   */\n  dup1\n    /* \"#utility.yul\":310:322   */\n  revert\n    /* \"#utility.yul\":334:451   */\ntag_14:\n    /* \"#utility.yul\":443:444   */\n  0x00\n    /* \"#utility.yul\":440:441   */\n  dup1\n    /* \"#utility.yul\":433:445   */\n  revert\n    /* \"#utility.yul\":457:574   */\ntag_15:\n    /* \"#utility.yul\":566:567   */\n  0x00\n    /* \"#utility.yul\":563:564   */\n  dup1\n    /* \"#utility.yul\":556:568   */\n  revert\n    /* \"#utility.yul\":580:682   */\ntag_16:\n    /* \"#utility.yul\":621:627   */\n  0x00\n    /* \"#utility.yul\":672:674   */\n  0x1f\n    /* \"#utility.yul\":668:675   */\n  not\n    /* \"#utility.yul\":663:665   */\n  0x1f\n    /* \"#utility.yul\":656:661   */\n  dup4\n    /* \"#utility.yul\":652:666   */\n  add\n    /* \"#utility.yul\":648:676   */\n  and\n    /* \"#utility.yul\":638:676   */\n  swap1\n  pop\n    /* \"#utility.yul\":580:682   */\n  swap2\n  swap1\n  pop\n  jump\t// out\n    /* \"#utility.yul\":688:868   */\ntag_17:\n    /* \"#utility.yul\":736:813   */\n  0x4e487b7100000000000000000000000000000000000000000000000000000000\n    /* \"#utility.yul\":733:734   */\n  0x00\n    /* \"#utility.yul\":726:814   */\n  mstore\n    /* \"#utility.yul\":833:837   */\n  0x41\n    /* \"#utility.yul\":830:831   */\n  0x04\n    /* \"#utility.yul\":823:838   */\n  mstore\n    /* \"#utility.yul\":857:861   */\n  0x24\n    /* \"#utility.yul\":854:855   */\n  0x00\n    /* \"#utility.yul\":847:862   */\n  revert\n    /* \"#utility.yul\":874:1155   */\ntag_18:\n    /* \"#utility.yul\":957:984   */\n  tag_58\n    /* \"#utility.yul\":979:983   */\n  dup3\n    /* \"#utility.yul\":957:984   */\n  tag_16\n  jump\t// in\ntag_58:\n    /* \"#utility.yul\":949:955   */\n  dup2\n    /* \"#utility.yul\":945:985   */\n  add\n    /* \"#utility.yul\":1087:1093   */\n  dup2\n    /* \"#utility.yul\":1075:1085   */\n  dup2\n    /* \"#utility.yul\":1072:1094   */\n  lt\n    /* \"#utility.yul\":1051:1069   */\n  0xffffffffffffffff\n    /* \"#utility.yul\":1039:1049   */\n  dup3\n    /* \"#utility.yul\":1036:1070   */\n  gt\n    /* \"#utility.yul\":1033:1095   */\n  or\n    /* \"#utility.yul\":1030:1118   */\n  iszero\n  tag_59\n  jumpi\n    /* \"#utility.yul\":1098:1116   */\n  tag_60\n  tag_17\n  jump\t// in\ntag_60:\n    /* \"#utility.yul\":1030:1118   */\ntag_59:\n    /* \"#utility.yul\":1138:1148   */\n  dup1\n    /* \"#utility.yul\":1134:1136   */\n  0x40\n    /* \"#utility.yul\":1127:1149   */\n  mstore\n    /* \"#utility.yul\":917:1155   */\n  pop\n    /* \"#utility.yul\":874:1155   */\n  pop\n  pop\n  jump\t// out\n    /* \"#utility.yul\":1161:1290   */\ntag_19:\n    /* \"#utility.yul\":1195:1201   */\n  0x00\n    /* \"#utility.yul\":1222:1242   */\n  tag_62\n  tag_11\n  jump\t// in\ntag_62:\n    /* \"#utility.yul\":1212:1242   */\n  swap1\n  pop\n    /* \"#utility.yul\":1251:1284   */\n  tag_63\n    /* \"#utility.yul\":1279:1283   */\n  dup3\n    /* \"#utility.yul\":1271:1277   */\n  dup3\n    /* \"#utility.yul\":1251:1284   */\n  tag_18\n  jump\t// in\ntag_63:\n    /* \"#utility.yul\":1161:1290   */\n  swap2\n  swap1\n  pop\n  jump\t// out\n    /* \"#utility.yul\":1296:1604   */\ntag_20:\n    /* \"#utility.yul\":1358:1362   */\n  0x00\n    /* \"#utility.yul\":1448:1466   */\n  0xffffffffffffffff\n    /* \"#utility.yul\":1440:1446   */\n  dup3\n    /* \"#utility.yul\":1437:1467   */\n  gt\n    /* \"#utility.yul\":1434:1490   */\n  iszero\n  tag_65\n  jumpi\n    /* \"#utility.yul\":1470:1488   */\n  tag_66\n  tag_17\n  jump\t// in\ntag_66:\n    /* \"#utility.yul\":1434:1490   */\ntag_65:\n    /* \"#utility.yul\":1508:1537   */\n  tag_67\n    /* \"#utility.yul\":1530:1536   */\n  dup3\n    /* \"#utility.yul\":1508:1537   */\n  tag_16\n  jump\t// in\ntag_67:\n    /* \"#utility.yul\":1500:1537   */\n  swap1\n  pop\n    /* \"#utility.yul\":1592:1596   */\n  0x20\n    /* \"#utility.yul\":1586:1590   */\n  dup2\n    /* \"#utility.yul\":1582:1597   */\n  add\n    /* \"#utility.yul\":1574:1597   */\n  swap1\n  pop\n    /* \"#utility.yul\":1296:1604   */\n  swap2\n  swap1\n  pop\n  jump\t// out\n    /* \"#utility.yul\":1610:1856   */\ntag_21:\n    /* \"#utility.yul\":1691:1692   */\n  0x00\n    /* \"#utility.yul\":1701:1814   */\ntag_69:\n    /* \"#utility.yul\":1715:1721   */\n  dup4\n    /* \"#utility.yul\":1712:1713   */\n  dup2\n    /* \"#utility.yul\":1709:1722   */\n  lt\n    /* \"#utility.yul\":1701:1814   */\n  iszero\n  tag_71\n  jumpi\n    /* \"#utility.yul\":1800:1801   */\n  dup1\n    /* \"#utility.yul\":1795:1798   */\n  dup3\n    /* \"#utility.yul\":1791:1802   */\n  add\n    /* \"#utility.yul\":1785:1803   */\n  mload\n    /* \"#utility.yul\":1781:1782   */\n  dup2\n    /* \"#utility.yul\":1776:1779   */\n  dup5\n    /* \"#utility.yul\":1772:1783   */\n  add\n    /* \"#utility.yul\":1765:1804   */\n  mstore\n    /* \"#utility.yul\":1737:1739   */\n  0x20\n    /* \"#utility.yul\":1734:1735   */\n  dup2\n    /* \"#utility.yul\":1730:1740   */\n  add\n    /* \"#utility.yul\":1725:1740   */\n  swap1\n  pop\n    /* \"#utility.yul\":1701:1814   */\n  jump(tag_69)\ntag_71:\n    /* \"#utility.yul\":1848:1849   */\n  0x00\n    /* \"#utility.yul\":1839:1845   */\n  dup5\n    /* \"#utility.yul\":1834:1837   */\n  dup5\n    /* \"#utility.yul\":1830:1846   */\n  add\n    /* \"#utility.yul\":1823:1850   */\n  mstore\n    /* \"#utility.yul\":1672:1856   */\n  pop\n    /* \"#utility.yul\":1610:1856   */\n  pop\n  pop\n  pop\n  jump\t// out\n    /* \"#utility.yul\":1862:2296   */\ntag_22:\n    /* \"#utility.yul\":1951:1956   */\n  0x00\n    /* \"#utility.yul\":1976:2042   */\n  tag_73\n    /* \"#utility.yul\":1992:2041   */\n  tag_74\n    /* \"#utility.yul\":2034:2040   */\n  dup5\n    /* \"#utility.yul\":1992:2041   */\n  tag_20\n  jump\t// in\ntag_74:\n    /* \"#utility.yul\":1976:2042   */\n  tag_19\n  jump\t// in\ntag_73:\n    /* \"#utility.yul\":1967:2042   */\n  swap1\n  pop\n    /* \"#utility.yul\":2065:2071   */\n  dup3\n    /* \"#utility.yul\":2058:2063   */\n  dup2\n    /* \"#utility.yul\":2051:2072   */\n  mstore\n    /* \"#utility.yul\":2103:2107   */\n  0x20\n    /* \"#utility.yul\":2096:2101   */\n  dup2\n    /* \"#utility.yul\":2092:2108   */\n  add\n    /* \"#utility.yul\":2141:2144   */\n  dup5\n    /* \"#utility.yul\":2132:2138   */\n  dup5\n    /* \"#utility.yul\":2127:2130   */\n  dup5\n    /* \"#utility.yul\":2123:2139   */\n  add\n    /* \"#utility.yul\":2120:2145   */\n  gt\n    /* \"#utility.yul\":2117:2229   */\n  iszero\n  tag_75\n  jumpi\n    /* \"#utility.yul\":2148:2227   */\n  tag_76\n  tag_15\n  jump\t// in\ntag_76:\n    /* \"#utility.yul\":2117:2229   */\ntag_75:\n    /* \"#utility.yul\":2238:2290   */\n  tag_77\n    /* \"#utility.yul\":2283:2289   */\n  dup5\n    /* \"#utility.yul\":2278:2281   */\n  dup3\n    /* \"#utility.yul\":2273:2276   */\n  dup6\n    /* \"#utility.yul\":2238:2290   */\n  tag_21\n  jump\t// in\ntag_77:\n    /* \"#utility.yul\":1957:2296   */\n  pop\n    /* \"#utility.yul\":1862:2296   */\n  swap4\n  swap3\n  pop\n  pop\n  pop\n  jump\t// out\n    /* \"#utility.yul\":2316:2671   */\ntag_23:\n    /* \"#utility.yul\":2383:2388   */\n  0x00\n    /* \"#utility.yul\":2432:2435   */\n  dup3\n    /* \"#utility.yul\":2425:2429   */\n  0x1f\n    /* \"#utility.yul\":2417:2423   */\n  dup4\n    /* \"#utility.yul\":2413:2430   */\n  add\n    /* \"#utility.yul\":2409:2436   */\n  slt\n    /* \"#utility.yul\":2399:2521   */\n  tag_79\n  jumpi\n    /* \"#utility.yul\":2440:2519   */\n  tag_80\n  tag_14\n  jump\t// in\ntag_80:\n    /* \"#utility.yul\":2399:2521   */\ntag_79:\n    /* \"#utility.yul\":2550:2556   */\n  dup2\n    /* \"#utility.yul\":2544:2557   */\n  mload\n    /* \"#utility.yul\":2575:2665   */\n  tag_81\n    /* \"#utility.yul\":2661:2664   */\n  dup5\n    /* \"#utility.yul\":2653:2659   */\n  dup3\n    /* \"#utility.yul\":2646:2650   */\n  0x20\n    /* \"#utility.yul\":2638:2644   */\n  dup7\n    /* \"#utility.yul\":2634:2651   */\n  add\n    /* \"#utility.yul\":2575:2665   */\n  tag_22\n  jump\t// in\ntag_81:\n    /* \"#utility.yul\":2566:2665   */\n  swap2\n  pop\n    /* \"#utility.yul\":2389:2671   */\n  pop\n    /* \"#utility.yul\":2316:2671   */\n  swap3\n  swap2\n  pop\n  pop\n  jump\t// out\n    /* \"#utility.yul\":2677:2754   */\ntag_24:\n    /* \"#utility.yul\":2714:2721   */\n  0x00\n    /* \"#utility.yul\":2743:2748   */\n  dup2\n    /* \"#utility.yul\":2732:2748   */\n  swap1\n  pop\n    /* \"#utility.yul\":2677:2754   */\n  swap2\n  swap1\n  pop\n  jump\t// out\n    /* \"#utility.yul\":2760:2882   */\ntag_25:\n    /* \"#utility.yul\":2833:2857   */\n  tag_84\n    /* \"#utility.yul\":2851:2856   */\n  dup2\n    /* \"#utility.yul\":2833:2857   */\n  tag_24\n  jump\t// in\ntag_84:\n    /* \"#utility.yul\":2826:2831   */\n  dup2\n    /* \"#utility.yul\":2823:2858   */\n  eq\n    /* \"#utility.yul\":2813:2876   */\n  tag_85\n  jumpi\n    /* \"#utility.yul\":2872:2873   */\n  0x00\n    /* \"#utility.yul\":2869:2870   */\n  dup1\n    /* \"#utility.yul\":2862:2874   */\n  revert\n    /* \"#utility.yul\":2813:2876   */\ntag_85:\n    /* \"#utility.yul\":2760:2882   */\n  pop\n  jump\t// out\n    /* \"#utility.yul\":2888:3031   */\ntag_26:\n    /* \"#utility.yul\":2945:2950   */\n  0x00\n    /* \"#utility.yul\":2976:2982   */\n  dup2\n    /* \"#utility.yul\":2970:2983   */\n  mload\n    /* \"#utility.yul\":2961:2983   */\n  swap1\n  pop\n    /* \"#utility.yul\":2992:3025   */\n  tag_87\n    /* \"#utility.yul\":3019:3024   */\n  dup2\n    /* \"#utility.yul\":2992:3025   */\n  tag_25\n  jump\t// in\ntag_87:\n    /* \"#utility.yul\":2888:3031   */\n  swap3\n  swap2\n  pop\n  pop\n  jump\t// out\n    /* \"#utility.yul\":3037:3163   */\ntag_27:\n    /* \"#utility.yul\":3074:3081   */\n  0x00\n    /* \"#utility.yul\":3114:3156   */\n  0xffffffffffffffffffffffffffffffffffffffff\n    /* \"#utility.yul\":3107:3112   */\n  dup3\n    /* \"#utility.yul\":3103:3157   */\n  and\n    /* \"#utility.yul\":3092:3157   */\n  swap1\n  pop\n    /* \"#utility.yul\":3037:3163   */\n  swap2\n  swap1\n  pop\n  jump\t// out\n    /* \"#utility.yul\":3169:3265   */\ntag_28:\n    /* \"#utility.yul\":3206:3213   */\n  0x00\n    /* \"#utility.yul\":3235:3259   */\n  tag_90\n    /* \"#utility.yul\":3253:3258   */\n  dup3\n    /* \"#utility.yul\":3235:3259   */\n  tag_27\n  jump\t// in\ntag_90:\n    /* \"#utility.yul\":3224:3259   */\n  swap1\n  pop\n    /* \"#utility.yul\":3169:3265   */\n  swap2\n  swap1\n  pop\n  jump\t// out\n    /* \"#utility.yul\":3271:3393   */\ntag_29:\n    /* \"#utility.yul\":3344:3368   */\n  tag_92\n    /* \"#utility.yul\":3362:3367   */\n  dup2\n    /* \"#utility.yul\":3344:3368   */\n  tag_28\n  jump\t// in\ntag_92:\n    /* \"#utility.yul\":3337:3342   */\n  dup2\n    /* \"#utility.yul\":3334:3369   */\n  eq\n    /* \"#utility.yul\":3324:3387   */\n  tag_93\n  jumpi\n    /* \"#utility.yul\":3383:3384   */\n  0x00\n    /* \"#utility.yul\":3380:3381   */\n  dup1\n    /* \"#utility.yul\":3373:3385   */\n  revert\n    /* \"#utility.yul\":3324:3387   */\ntag_93:\n    /* \"#utility.yul\":3271:3393   */\n  pop\n  jump\t// out\n    /* \"#utility.yul\":3399:3542   */\ntag_30:\n    /* \"#utility.yul\":3456:3461   */\n  0x00\n    /* \"#utility.yul\":3487:3493   */\n  dup2\n    /* \"#utility.yul\":3481:3494   */\n  mload\n    /* \"#utility.yul\":3472:3494   */\n  swap1\n  pop\n    /* \"#utility.yul\":3503:3536   */\n  tag_95\n    /* \"#utility.yul\":3530:3535   */\n  dup2\n    /* \"#utility.yul\":3503:3536   */\n  tag_29\n  jump\t// in\ntag_95:\n    /* \"#utility.yul\":3399:3542   */\n  swap3\n  swap2\n  pop\n  pop\n  jump\t// out\n    /* \"#utility.yul\":3548:4714   */\ntag_3:\n    /* \"#utility.yul\":3665:3671   */\n  0x00\n    /* \"#utility.yul\":3673:3679   */\n  dup1\n    /* \"#utility.yul\":3681:3687   */\n  0x00\n    /* \"#utility.yul\":3689:3695   */\n  dup1\n    /* \"#utility.yul\":3738:3741   */\n  0x80\n    /* \"#utility.yul\":3726:3735   */\n  dup6\n    /* \"#utility.yul\":3717:3724   */\n  dup8\n    /* \"#utility.yul\":3713:3736   */\n  sub\n    /* \"#utility.yul\":3709:3742   */\n  slt\n    /* \"#utility.yul\":3706:3826   */\n  iszero\n  tag_97\n  jumpi\n    /* \"#utility.yul\":3745:3824   */\n  tag_98\n  tag_12\n  jump\t// in\ntag_98:\n    /* \"#utility.yul\":3706:3826   */\ntag_97:\n    /* \"#utility.yul\":3886:3887   */\n  0x00\n    /* \"#utility.yul\":3875:3884   */\n  dup6\n    /* \"#utility.yul\":3871:3888   */\n  add\n    /* \"#utility.yul\":3865:3889   */\n  mload\n    /* \"#utility.yul\":3916:3934   */\n  0xffffffffffffffff\n    /* \"#utility.yul\":3908:3914   */\n  dup2\n    /* \"#utility.yul\":3905:3935   */\n  gt\n    /* \"#utility.yul\":3902:4019   */\n  iszero\n  tag_99\n  jumpi\n    /* \"#utility.yul\":3938:4017   */\n  tag_100\n  tag_13\n  jump\t// in\ntag_100:\n    /* \"#utility.yul\":3902:4019   */\ntag_99:\n    /* \"#utility.yul\":4043:4117   */\n  tag_101\n    /* \"#utility.yul\":4109:4116   */\n  dup8\n    /* \"#utility.yul\":4100:4106   */\n  dup3\n    /* \"#utility.yul\":4089:4098   */\n  dup9\n    /* \"#utility.yul\":4085:4107   */\n  add\n    /* \"#utility.yul\":4043:4117   */\n  tag_23\n  jump\t// in\ntag_101:\n    /* \"#utility.yul\":4033:4117   */\n  swap5\n  pop\n    /* \"#utility.yul\":3836:4127   */\n  pop\n    /* \"#utility.yul\":4187:4189   */\n  0x20\n    /* \"#utility.yul\":4176:4185   */\n  dup6\n    /* \"#utility.yul\":4172:4190   */\n  add\n    /* \"#utility.yul\":4166:4191   */\n  mload\n    /* \"#utility.yul\":4218:4236   */\n  0xffffffffffffffff\n    /* \"#utility.yul\":4210:4216   */\n  dup2\n    /* \"#utility.yul\":4207:4237   */\n  gt\n    /* \"#utility.yul\":4204:4321   */\n  iszero\n  tag_102\n  jumpi\n    /* \"#utility.yul\":4240:4319   */\n  tag_103\n  tag_13\n  jump\t// in\ntag_103:\n    /* \"#utility.yul\":4204:4321   */\ntag_102:\n    /* \"#utility.yul\":4345:4419   */\n  tag_104\n    /* \"#utility.yul\":4411:4418   */\n  dup8\n    /* \"#utility.yul\":4402:4408   */\n  dup3\n    /* \"#utility.yul\":4391:4400   */\n  dup9\n    /* \"#utility.yul\":4387:4409   */\n  add\n    /* \"#utility.yul\":4345:4419   */\n  tag_23\n  jump\t// in\ntag_104:\n    /* \"#utility.yul\":4335:4419   */\n  swap4\n  pop\n    /* \"#utility.yul\":4137:4429   */\n  pop\n    /* \"#utility.yul\":4468:4470   */\n  0x40\n    /* \"#utility.yul\":4494:4558   */\n  tag_105\n    /* \"#utility.yul\":4550:4557   */\n  dup8\n    /* \"#utility.yul\":4541:4547   */\n  dup3\n    /* \"#utility.yul\":4530:4539   */\n  dup9\n    /* \"#utility.yul\":4526:4548   */\n  add\n    /* \"#utility.yul\":4494:4558   */\n  tag_26\n  jump\t// in\ntag_105:\n    /* \"#utility.yul\":4484:4558   */\n  swap3\n  pop\n    /* \"#utility.yul\":4439:4568   */\n  pop\n    /* \"#utility.yul\":4607:4609   */\n  0x60\n    /* \"#utility.yul\":4633:4697   */\n  tag_106\n    /* \"#utility.yul\":4689:4696   */\n  dup8\n    /* \"#utility.yul\":4680:4686   */\n  dup3\n    /* \"#utility.yul\":4669:4678   */\n  dup9\n    /* \"#utility.yul\":4665:4687   */\n  add\n    /* \"#utility.yul\":4633:4697   */\n  tag_30\n  jump\t// in\ntag_106:\n    /* \"#utility.yul\":4623:4697   */\n  swap2\n  pop\n    /* \"#utility.yul\":4578:4707   */\n  pop\n    /* \"#utility.yul\":3548:4714   */\n  swap3\n  swap6\n  swap2\n  swap5\n  pop\n  swap3\n  pop\n  jump\t// out\n    /* \"#utility.yul\":4720:4819   */\ntag_31:\n    /* \"#utility.yul\":4772:4778   */\n  0x00\n    /* \"#utility.yul\":4806:4811   */\n  dup2\n    /* \"#utility.yul\":4800:4812   */\n  mload\n    /* \"#utility.yul\":4790:4812   */\n  swap1\n  pop\n    /* \"#utility.yul\":4720:4819   */\n  swap2\n  swap1\n  pop\n  jump\t// out\n    /* \"#utility.yul\":4825:5005   */\ntag_32:\n    /* \"#utility.yul\":4873:4950   */\n  0x4e487b7100000000000000000000000000000000000000000000000000000000\n    /* \"#utility.yul\":4870:4871   */\n  0x00\n    /* \"#utility.yul\":4863:4951   */\n  mstore\n    /* \"#utility.yul\":4970:4974   */\n  0x22\n    /* \"#utility.yul\":4967:4968   */\n  0x04\n    /* \"#utility.yul\":4960:4975   */\n  mstore\n    /* \"#utility.yul\":4994:4998   */\n  0x24\n    /* \"#utility.yul\":4991:4992   */\n  0x00\n    /* \"#utility.yul\":4984:4999   */\n  revert\n    /* \"#utility.yul\":5011:5331   */\ntag_33:\n    /* \"#utility.yul\":5055:5061   */\n  0x00\n    /* \"#utility.yul\":5092:5093   */\n  0x02\n    /* \"#utility.yul\":5086:5090   */\n  dup3\n    /* \"#utility.yul\":5082:5094   */\n  div\n    /* \"#utility.yul\":5072:5094   */\n  swap1\n  pop\n    /* \"#utility.yul\":5139:5140   */\n  0x01\n    /* \"#utility.yul\":5133:5137   */\n  dup3\n    /* \"#utility.yul\":5129:5141   */\n  and\n    /* \"#utility.yul\":5160:5178   */\n  dup1\n    /* \"#utility.yul\":5150:5231   */\n  tag_110\n  jumpi\n    /* \"#utility.yul\":5216:5220   */\n  0x7f\n    /* \"#utility.yul\":5208:5214   */\n  dup3\n    /* \"#utility.yul\":5204:5221   */\n  and\n    /* \"#utility.yul\":5194:5221   */\n  swap2\n  pop\n    /* \"#utility.yul\":5150:5231   */\ntag_110:\n    /* \"#utility.yul\":5278:5280   */\n  0x20\n    /* \"#utility.yul\":5270:5276   */\n  dup3\n    /* \"#utility.yul\":5267:5281   */\n  lt\n    /* \"#utility.yul\":5247:5265   */\n  dup2\n    /* \"#utility.yul\":5244:5282   */\n  sub\n    /* \"#utility.yul\":5241:5325   */\n  tag_111\n  jumpi\n    /* \"#utility.yul\":5297:5315   */\n  tag_112\n  tag_32\n  jump\t// in\ntag_112:\n    /* \"#utility.yul\":5241:5325   */\ntag_111:\n    /* \"#utility.yul\":5062:5331   */\n  pop\n    /* \"#utility.yul\":5011:5331   */\n  swap2\n  swap1\n  pop\n  jump\t// out\n    /* \"#utility.yul\":5337:5478   */\ntag_34:\n    /* \"#utility.yul\":5386:5390   */\n  0x00\n    /* \"#utility.yul\":5409:5412   */\n  dup2\n    /* \"#utility.yul\":5401:5412   */\n  swap1\n  pop\n    /* \"#utility.yul\":5432:5435   */\n  dup2\n    /* \"#utility.yul\":5429:5430   */\n  0x00\n    /* \"#utility.yul\":5422:5436   */\n  mstore\n    /* \"#utility.yul\":5466:5470   */\n  0x20\n    /* \"#utility.yul\":5463:5464   */\n  0x00\n    /* \"#utility.yul\":5453:5471   */\n  keccak256\n    /* \"#utility.yul\":5445:5471   */\n  swap1\n  pop\n    /* \"#utility.yul\":5337:5478   */\n  swap2\n  swap1\n  pop\n  jump\t// out\n    /* \"#utility.yul\":5484:5577   */\ntag_35:\n    /* \"#utility.yul\":5521:5527   */\n  0x00\n    /* \"#utility.yul\":5568:5570   */\n  0x20\n    /* \"#utility.yul\":5563:5565   */\n  0x1f\n    /* \"#utility.yul\":5556:5561   */\n  dup4\n    /* \"#utility.yul\":5552:5566   */\n  add\n    /* \"#utility.yul\":5548:5571   */\n  div\n    /* \"#utility.yul\":5538:5571   */\n  swap1\n  pop\n    /* \"#utility.yul\":5484:5577   */\n  swap2\n  swap1\n  pop\n  jump\t// out\n    /* \"#utility.yul\":5583:5690   */\ntag_36:\n    /* \"#utility.yul\":5627:5635   */\n  0x00\n    /* \"#utility.yul\":5677:5682   */\n  dup3\n    /* \"#utility.yul\":5671:5675   */\n  dup3\n    /* \"#utility.yul\":5667:5683   */\n  shl\n    /* \"#utility.yul\":5646:5683   */\n  swap1\n  pop\n    /* \"#utility.yul\":5583:5690   */\n  swap3\n  swap2\n  pop\n  pop\n  jump\t// out\n    /* \"#utility.yul\":5696:6089   */\ntag_37:\n    /* \"#utility.yul\":5765:5771   */\n  0x00\n    /* \"#utility.yul\":5815:5816   */\n  0x08\n    /* \"#utility.yul\":5803:5813   */\n  dup4\n    /* \"#utility.yul\":5799:5817   */\n  mul\n    /* \"#utility.yul\":5838:5935   */\n  tag_117\n    /* \"#utility.yul\":5868:5934   */\n  0xffffffffffffffffffffffffffffffffffffffffffffffffffffffffffffffff\n    /* \"#utility.yul\":5857:5866   */\n  dup3\n    /* \"#utility.yul\":5838:5935   */\n  tag_36\n  jump\t// in\ntag_117:\n    /* \"#utility.yul\":5956:5995   */\n  tag_118\n    /* \"#utility.yul\":5986:5994   */\n  dup7\n    /* \"#utility.yul\":5975:5984   */\n  dup4\n    /* \"#utility.yul\":5956:5995   */\n  tag_36\n  jump\t// in\ntag_118:\n    /* \"#utility.yul\":5944:5995   */\n  swap6\n  pop\n    /* \"#utility.yul\":6028:6032   */\n  dup1\n    /* \"#utility.yul\":6024:6033   */\n  not\n    /* \"#utility.yul\":6017:6022   */\n  dup5\n    /* \"#utility.yul\":6013:6034   */\n  and\n    /* \"#utility.yul\":6004:6034   */\n  swap4\n  pop\n    /* \"#utility.yul\":6077:6081   */\n  dup1\n    /* \"#utility.yul\":6067:6075   */\n  dup7\n    /* \"#utility.yul\":6063:6082   */\n  and\n    /* \"#utility.yul\":6056:6061   */\n  dup5\n    /* \"#utility.yul\":6053:6083   */\n  or\n    /* \"#utility.yul\":6043:6083   */\n  swap3\n  pop\n    /* \"#utility.yul\":5772:6089   */\n  pop\n  pop\n    /* \"#utility.yul\":5696:6089   */\n  swap4\n  swap3\n  pop\n  pop\n  pop\n  jump\t// out\n    /* \"#utility.yul\":6095:6155   */\ntag_38:\n    /* \"#utility.yul\":6123:6126   */\n  0x00\n    /* \"#utility.yul\":6144:6149   */\n  dup2\n    /* \"#utility.yul\":6137:6149   */\n  swap1\n  pop\n    /* \"#utility.yul\":6095:6155   */\n  swap2\n  swap1\n  pop\n  jump\t// out\n    /* \"#utility.yul\":6161:6303   */\ntag_39:\n    /* \"#utility.yul\":6211:6220   */\n  0x00\n    /* \"#utility.yul\":6244:6297   */\n  tag_121\n    /* \"#utility.yul\":6262:6296   */\n  tag_122\n    /* \"#utility.yul\":6271:6295   */\n  tag_123\n    /* \"#utility.yul\":6289:6294   */\n  dup5\n    /* \"#utility.yul\":6271:6295   */\n  tag_24\n  jump\t// in\ntag_123:\n    /* \"#utility.yul\":6262:6296   */\n  tag_38\n  jump\t// in\ntag_122:\n    /* \"#utility.yul\":6244:6297   */\n  tag_24\n  jump\t// in\ntag_121:\n    /* \"#utility.yul\":6231:6297   */\n  swap1\n  pop\n    /* \"#utility.yul\":6161:6303   */\n  swap2\n  swap1\n  pop\n  jump\t// out\n    /* \"#utility.yul\":6309:6384   */\ntag_40:\n    /* \"#utility.yul\":6352:6355   */\n  0x00\n    /* \"#utility.yul\":6373:6378   */\n  dup2\n    /* \"#utility.yul\":6366:6378   */\n  swap1\n  pop\n    /* \"#utility.yul\":6309:6384   */\n  swap2\n  swap1\n  pop\n  jump\t// out\n    /* \"#utility.yul\":6390:6659   */\ntag_41:\n    /* \"#utility.yul\":6500:6539   */\n  tag_126\n    /* \"#utility.yul\":6531:6538   */\n  dup4\n    /* \"#utility.yul\":6500:6539   */\n  tag_39\n  jump\t// in\ntag_126:\n    /* \"#utility.yul\":6561:6652   */\n  tag_127\n    /* \"#utility.yul\":6610:6651   */\n  tag_128\n    /* \"#utility.yul\":6634:6650   */\n  dup3\n    /* \"#utility.yul\":6610:6651   */\n  tag_40\n  jump\t// in\ntag_128:\n    /* \"#utility.yul\":6602:6608   */\n  dup5\n    /* \"#utility.yul\":6595:6599   */\n  dup5\n    /* \"#utility.yul\":6589:6600   */\n  sload\n    /* \"#utility.yul\":6561:6652   */\n  tag_37\n  jump\t// in\ntag_127:\n    /* \"#utility.yul\":6555:6559   */\n  dup3\n    /* \"#utility.yul\":6548:6653   */\n  sstore\n    /* \"#utility.yul\":6466:6659   */\n  pop\n    /* \"#utility.yul\":6390:6659   */\n  pop\n  pop\n  pop\n  jump\t// out\n    /* \"#utility.yul\":6665:6738   */\ntag_42:\n    /* \"#utility.yul\":6710:6713   */\n  0x00\n    /* \"#utility.yul\":6665:6738   */\n  swap1\n  jump\t// out\n    /* \"#utility.yul\":6744:6933   */\ntag_43:\n    /* \"#utility.yul\":6821:6853   */\n  tag_131\n  tag_42\n  jump\t// in\ntag_131:\n    /* \"#utility.yul\":6862:6927   */\n  tag_132\n    /* \"#utility.yul\":6920:6926   */\n  dup2\n    /* \"#utility.yul\":6912:6918   */\n  dup5\n    /* \"#utility.yul\":6906:6910   */\n  dup5\n    /* \"#utility.yul\":6862:6927   */\n  tag_41\n  jump\t// in\ntag_132:\n    /* \"#utility.yul\":6797:6933   */\n  pop\n    /* \"#utility.yul\":6744:6933   */\n  pop\n  pop\n  jump\t// out\n    /* \"#utility.yul\":6939:7125   */\ntag_44:\n    /* \"#utility.yul\":6999:7119   */\ntag_134:\n    /* \"#utility.yul\":7016:7019   */\n  dup2\n    /* \"#utility.yul\":7009:7014   */\n  dup2\n    /* \"#utility.yul\":7006:7020   */\n  lt\n    /* \"#utility.yul\":6999:7119   */\n  iszero\n  tag_136\n  jumpi\n    /* \"#utility.yul\":7070:7109   */\n  tag_137\n    /* \"#utility.yul\":7107:7108   */\n  0x00\n    /* \"#utility.yul\":7100:7105   */\n  dup3\n    /* \"#utility.yul\":7070:7109   */\n  tag_43\n  jump\t// in\ntag_137:\n    /* \"#utility.yul\":7043:7044   */\n  0x01\n    /* \"#utility.yul\":7036:7041   */\n  dup2\n    /* \"#utility.yul\":7032:7045   */\n  add\n    /* \"#utility.yul\":7023:7045   */\n  swap1\n  pop\n    /* \"#utility.yul\":6999:7119   */\n  jump(tag_134)\ntag_136:\n    /* \"#utility.yul\":6939:7125   */\n  pop\n  pop\n  jump\t// out\n    /* \"#utility.yul\":7131:7674   */\ntag_45:\n    /* \"#utility.yul\":7232:7234   */\n  0x1f\n    /* \"#utility.yul\":7227:7230   */\n  dup3\n    /* \"#utility.yul\":7224:7235   */\n  gt\n    /* \"#utility.yul\":7221:7667   */\n  iszero\n  tag_139\n  jumpi\n    /* \"#utility.yul\":7266:7304   */\n  tag_140\n    /* \"#utility.yul\":7298:7303   */\n  dup2\n    /* \"#utility.yul\":7266:7304   */\n  tag_34\n  jump\t// in\ntag_140:\n    /* \"#utility.yul\":7350:7379   */\n  tag_141\n    /* \"#utility.yul\":7368:7378   */\n  dup5\n    /* \"#utility.yul\":7350:7379   */\n  tag_35\n  jump\t// in\ntag_141:\n    /* \"#utility.yul\":7340:7348   */\n  dup2\n    /* \"#utility.yul\":7336:7380   */\n  add\n    /* \"#utility.yul\":7533:7535   */\n  0x20\n    /* \"#utility.yul\":7521:7531   */\n  dup6\n    /* \"#utility.yul\":7518:7536   */\n  lt\n    /* \"#utility.yul\":7515:7564   */\n  iszero\n  tag_142\n  jumpi\n    /* \"#utility.yul\":7554:7562   */\n  dup2\n    /* \"#utility.yul\":7539:7562   */\n  swap1\n  pop\n    /* \"#utility.yul\":7515:7564   */\ntag_142:\n    /* \"#utility.yul\":7577:7657   */\n  tag_143\n    /* \"#utility.yul\":7633:7655   */\n  tag_144\n    /* \"#utility.yul\":7651:7654   */\n  dup6\n    /* \"#utility.yul\":7633:7655   */\n  tag_35\n  jump\t// in\ntag_144:\n    /* \"#utility.yul\":7623:7631   */\n  dup4\n    /* \"#utility.yul\":7619:7656   */\n  add\n    /* \"#utility.yul\":7606:7617   */\n  dup3\n    /* \"#utility.yul\":7577:7657   */\n  tag_44\n  jump\t// in\ntag_143:\n    /* \"#utility.yul\":7236:7667   */\n  pop\n  pop\n    /* \"#utility.yul\":7221:7667   */\ntag_139:\n    /* \"#utility.yul\":7131:7674   */\n  pop\n  pop\n  pop\n  jump\t// out\n    /* \"#utility.yul\":7680:7797   */\ntag_46:\n    /* \"#utility.yul\":7734:7742   */\n  0x00\n    /* \"#utility.yul\":7784:7789   */\n  dup3\n    /* \"#utility.yul\":7778:7782   */\n  dup3\n    /* \"#utility.yul\":7774:7790   */\n  shr\n    /* \"#utility.yul\":7753:7790   */\n  swap1\n  pop\n    /* \"#utility.yul\":7680:7797   */\n  swap3\n  swap2\n  pop\n  pop\n  jump\t// out\n    /* \"#utility.yul\":7803:7972   */\ntag_47:\n    /* \"#utility.yul\":7847:7853   */\n  0x00\n    /* \"#utility.yul\":7880:7931   */\n  tag_147\n    /* \"#utility.yul\":7928:7929   */\n  0x00\n    /* \"#utility.yul\":7924:7930   */\n  not\n    /* \"#utility.yul\":7916:7921   */\n  dup5\n    /* \"#utility.yul\":7913:7914   */\n  0x08\n    /* \"#utility.yul\":7909:7922   */\n  mul\n    /* \"#utility.yul\":7880:7931   */\n  tag_46\n  jump\t// in\ntag_147:\n    /* \"#utility.yul\":7876:7932   */\n  not\n    /* \"#utility.yul\":7961:7965   */\n  dup1\n    /* \"#utility.yul\":7955:7959   */\n  dup4\n    /* \"#utility.yul\":7951:7966   */\n  and\n    /* \"#utility.yul\":7941:7966   */\n  swap2\n  pop\n    /* \"#utility.yul\":7854:7972   */\n  pop\n    /* \"#utility.yul\":7803:7972   */\n  swap3\n  swap2\n  pop\n  pop\n  jump\t// out\n    /* \"#utility.yul\":7977:8272   */\ntag_48:\n    /* \"#utility.yul\":8053:8057   */\n  0x00\n    /* \"#utility.yul\":8199:8228   */\n  tag_149\n    /* \"#utility.yul\":8224:8227   */\n  dup4\n    /* \"#utility.yul\":8218:8222   */\n  dup4\n    /* \"#utility.yul\":8199:8228   */\n  tag_47\n  jump\t// in\ntag_149:\n    /* \"#utility.yul\":8191:8228   */\n  swap2\n  pop\n    /* \"#utility.yul\":8261:8264   */\n  dup3\n    /* \"#utility.yul\":8258:8259   */\n  0x02\n    /* \"#utility.yul\":8254:8265   */\n  mul\n    /* \"#utility.yul\":8248:8252   */\n  dup3\n    /* \"#utility.yul\":8245:8266   */\n  or\n    /* \"#utility.yul\":8237:8266   */\n  swap1\n  pop\n    /* \"#utility.yul\":7977:8272   */\n  swap3\n  swap2\n  pop\n  pop\n  jump\t// out\n    /* \"#utility.yul\":8277:9672   */\ntag_8:\n    /* \"#utility.yul\":8394:8431   */\n  tag_151\n    /* \"#utility.yul\":8427:8430   */\n  dup3\n    /* \"#utility.yul\":8394:8431   */\n  tag_31\n  jump\t// in\ntag_151:\n    /* \"#utility.yul\":8496:8514   */\n  0xffffffffffffffff\n    /* \"#utility.yul\":8488:8494   */\n  dup2\n    /* \"#utility.yul\":8485:8515   */\n  gt\n    /* \"#utility.yul\":8482:8538   */\n  iszero\n  tag_152\n  jumpi\n    /* \"#utility.yul\":8518:8536   */\n  tag_153\n  tag_17\n  jump\t// in\ntag_153:\n    /* \"#utility.yul\":8482:8538   */\ntag_152:\n    /* \"#utility.yul\":8562:8600   */\n  tag_154\n    /* \"#utility.yul\":8594:8598   */\n  dup3\n    /* \"#utility.yul\":8588:8599   */\n  sload\n    /* \"#utility.yul\":8562:8600   */\n  tag_33\n  jump\t// in\ntag_154:\n    /* \"#utility.yul\":8647:8714   */\n  tag_155\n    /* \"#utility.yul\":8707:8713   */\n  dup3\n    /* \"#utility.yul\":8699:8705   */\n  dup3\n    /* \"#utility.yul\":8693:8697   */\n  dup6\n    /* \"#utility.yul\":8647:8714   */\n  tag_45\n  jump\t// in\ntag_155:\n    /* \"#utility.yul\":8741:8742   */\n  0x00\n    /* \"#utility.yul\":8765:8769   */\n  0x20\n    /* \"#utility.yul\":8752:8769   */\n  swap1\n  pop\n    /* \"#utility.yul\":8797:8799   */\n  0x1f\n    /* \"#utility.yul\":8789:8795   */\n  dup4\n    /* \"#utility.yul\":8786:8800   */\n  gt\n    /* \"#utility.yul\":8814:8815   */\n  0x01\n    /* \"#utility.yul\":8809:9427   */\n  dup2\n  eq\n  tag_157\n  jumpi\n    /* \"#utility.yul\":9471:9472   */\n  0x00\n    /* \"#utility.yul\":9488:9494   */\n  dup5\n    /* \"#utility.yul\":9485:9562   */\n  iszero\n  tag_158\n  jumpi\n    /* \"#utility.yul\":9537:9546   */\n  dup3\n    /* \"#utility.yul\":9532:9535   */\n  dup8\n    /* \"#utility.yul\":9528:9547   */\n  add\n    /* \"#utility.yul\":9522:9548   */\n  mload\n    /* \"#utility.yul\":9513:9548   */\n  swap1\n  pop\n    /* \"#utility.yul\":9485:9562   */\ntag_158:\n    /* \"#utility.yul\":9588:9655   */\n  tag_159\n    /* \"#utility.yul\":9648:9654   */\n  dup6\n    /* \"#utility.yul\":9641:9646   */\n  dup3\n    /* \"#utility.yul\":9588:9655   */\n  tag_48\n  jump\t// in\ntag_159:\n    /* \"#utility.yul\":9582:9586   */\n  dup7\n    /* \"#utility.yul\":9575:9656   */\n  sstore\n    /* \"#utility.yul\":9444:9666   */\n  pop\n    /* \"#utility.yul\":8779:9666   */\n  jump(tag_156)\n    /* \"#utility.yul\":8809:9427   */\ntag_157:\n    /* \"#utility.yul\":8861:8865   */\n  0x1f\n    /* \"#utility.yul\":8857:8866   */\n  not\n    /* \"#utility.yul\":8849:8855   */\n  dup5\n    /* \"#utility.yul\":8845:8867   */\n  and\n    /* \"#utility.yul\":8895:8932   */\n  tag_160\n    /* \"#utility.yul\":8927:8931   */\n  dup7\n    /* \"#utility.yul\":8895:8932   */\n  tag_34\n  jump\t// in\ntag_160:\n    /* \"#utility.yul\":8954:8955   */\n  0x00\n    /* \"#utility.yul\":8968:9176   */\ntag_161:\n    /* \"#utility.yul\":8982:8989   */\n  dup3\n    /* \"#utility.yul\":8979:8980   */\n  dup2\n    /* \"#utility.yul\":8976:8990   */\n  lt\n    /* \"#utility.yul\":8968:9176   */\n  iszero\n  tag_163\n  jumpi\n    /* \"#utility.yul\":9061:9070   */\n  dup5\n    /* \"#utility.yul\":9056:9059   */\n  dup10\n    /* \"#utility.yul\":9052:9071   */\n  add\n    /* \"#utility.yul\":9046:9072   */\n  mload\n    /* \"#utility.yul\":9038:9044   */\n  dup3\n    /* \"#utility.yul\":9031:9073   */\n  sstore\n    /* \"#utility.yul\":9112:9113   */\n  0x01\n    /* \"#utility.yul\":9104:9110   */\n  dup3\n    /* \"#utility.yul\":9100:9114   */\n  add\n    /* \"#utility.yul\":9090:9114   */\n  swap2\n  pop\n    /* \"#utility.yul\":9159:9161   */\n  0x20\n    /* \"#utility.yul\":9148:9157   */\n  dup6\n    /* \"#utility.yul\":9144:9162   */\n  add\n    /* \"#utility.yul\":9131:9162   */\n  swap5\n  pop\n    /* \"#utility.yul\":9005:9009   */\n  0x20\n    /* \"#utility.yul\":9002:9003   */\n  dup2\n    /* \"#utility.yul\":8998:9010   */\n  add\n    /* \"#utility.yul\":8993:9010   */\n  swap1\n  pop\n    /* \"#utility.yul\":8968:9176   */\n  jump(tag_161)\ntag_163:\n    /* \"#utility.yul\":9204:9210   */\n  dup7\n    /* \"#utility.yul\":9195:9202   */\n  dup4\n    /* \"#utility.yul\":9192:9211   */\n  lt\n    /* \"#utility.yul\":9189:9368   */\n  iszero\n  tag_164\n  jumpi\n    /* \"#utility.yul\":9262:9271   */\n  dup5\n    /* \"#utility.yul\":9257:9260   */\n  dup10\n    /* \"#utility.yul\":9253:9272   */\n  add\n    /* \"#utility.yul\":9247:9273   */\n  mload\n    /* \"#utility.yul\":9305:9353   */\n  tag_165\n    /* \"#utility.yul\":9347:9351   */\n  0x1f\n    /* \"#utility.yul\":9339:9345   */\n  dup10\n    /* \"#utility.yul\":9335:9352   */\n  and\n    /* \"#utility.yul\":9324:9333   */\n  dup3\n    /* \"#utility.yul\":9305:9353   */\n  tag_47\n  jump\t// in\ntag_165:\n    /* \"#utility.yul\":9297:9303   */\n  dup4\n    /* \"#utility.yul\":9290:9354   */\n  sstore\n    /* \"#utility.yul\":9212:9368   */\n  pop\n    /* \"#utility.yul\":9189:9368   */\ntag_164:\n    /* \"#utility.yul\":9414:9415   */\n  0x01\n    /* \"#utility.yul\":9410:9411   */\n  0x02\n    /* \"#utility.yul\":9402:9408   */\n  dup9\n    /* \"#utility.yul\":9398:9412   */\n  mul\n    /* \"#utility.yul\":9394:9416   */\n  add\n    /* \"#utility.yul\":9388:9392   */\n  dup9\n    /* \"#utility.yul\":9381:9417   */\n  sstore\n    /* \"#utility.yul\":8816:9427   */\n  pop\n  pop\n  pop\n    /* \"#utility.yul\":8779:9666   */\ntag_156:\n  pop\n    /* \"#utility.yul\":8369:9672   */\n  pop\n  pop\n  pop\n    /* \"#utility.yul\":8277:9672   */\n  pop\n  pop\n  jump\t// out\n    /* \"Campaign.sol\":1142:5447  contract Campaign... */\ntag_10:\n  dataSize(sub_0)\n  dup1\n  dataOffset(sub_0)\n  0x00\n  codecopy\n  0x00\n  return\nstop\n\nsub_0: assembly {\n        /* \"Campaign.sol\":1142:5447  contract Campaign... */\n      mstore(0x40, 0x80)\n      jumpi(tag_1, lt(calldatasize, 0x04))\n      shr(0xe0, calldataload(0x00))\n      dup1\n      0x885e7c62\n      gt\n      tag_15\n      jumpi\n      dup1\n      0xd7bb99ba\n      gt\n      tag_16\n      jumpi\n      dup1\n      0xd7bb99ba\n      eq\n      tag_11\n      jumpi\n      dup1\n      0xe2e46b52\n      eq\n      tag_12\n      jumpi\n      dup1\n      0xf84038b1\n      eq\n      tag_13\n      jumpi\n      dup1\n      0xfeed5561\n      eq\n      tag_14\n      jumpi\n      jump(tag_1)\n    tag_16:\n      dup1\n      0x885e7c62\n      eq\n      tag_8\n      jumpi\n      dup1\n      0xa7ac8000\n      eq\n      tag_9\n      jumpi\n      dup1\n      0xd5009584\n      eq\n      tag_10\n      jumpi\n      jump(tag_1)\n    tag_15:\n      dup1\n      0x0a144391\n      eq\n      tag_2\n      jumpi\n      dup1\n      0x1a092541\n      eq\n      tag_3\n      jumpi\n      dup1\n      0x30e8fc5c\n      eq\n      tag_4\n      jumpi\n      dup1\n      0x4051ddac\n      eq\n      tag_5\n      jumpi\n      dup1\n      0x692d51d2\n      eq\n      tag_6\n      jumpi\n      dup1\n      0x6f9fb98a\n      eq\n      tag_7\n      jumpi\n    tag_1:\n      0x00\n      dup1\n      revert\n        /* \"Campaign.sol\":1720:1761  mapping(address => uint) public approvers */\n    tag_2:\n      callvalue\n      dup1\n      iszero\n      tag_17\n      jumpi\n      0x00\n      dup1\n      revert\n    tag_17:\n      pop\n      tag_18\n      0x04\n      dup1\n      calldatasize\n      sub\n      dup2\n      add\n      swap1\n      tag_19\n      swap2\n      swap1\n      tag_20\n      jump\t// in\n    tag_19:\n      tag_21\n      jump\t// in\n    tag_18:\n      mload(0x40)\n      tag_22\n      swap2\n      swap1\n      tag_23\n      jump\t// in\n    tag_22:\n      mload(0x40)\n      dup1\n      swap2\n      sub\n      swap1\n      return\n        /* \"Campaign.sol\":2347:2451  function getDescription() external view returns (string memory)... */\n    tag_3:\n      callvalue\n      dup1\n      iszero\n      tag_24\n      jumpi\n      0x00\n      dup1\n      revert\n    tag_24:\n      pop\n      tag_25\n      tag_26\n      jump\t// in\n    tag_25:\n      mload(0x40)\n      tag_27\n      swap2\n      swap1\n      tag_28\n      jump\t// in\n    tag_27:\n      mload(0x40)\n      dup1\n      swap2\n      sub\n      swap1\n      return\n        /* \"Campaign.sol\":4152:4923  function voteRequest(string memory reqName, bool isApproval ) external... */\n    tag_4:\n      callvalue\n      dup1\n      iszero\n      tag_29\n      jumpi\n      0x00\n      dup1\n      revert\n    tag_29:\n      pop\n      tag_30\n      0x04\n      dup1\n      calldatasize\n      sub\n      dup2\n      add\n      swap1\n      tag_31\n      swap2\n      swap1\n      tag_32\n      jump\t// in\n    tag_31:\n      tag_33\n      jump\t// in\n    tag_30:\n      stop\n        /* \"Campaign.sol\":2779:3166  function getSummary() external view returns(Summary memory)... */\n    tag_5:\n      callvalue\n      dup1\n      iszero\n      tag_34\n      jumpi\n      0x00\n      dup1\n      revert\n    tag_34:\n      pop\n      tag_35\n      tag_36\n      jump\t// in\n    tag_35:\n      mload(0x40)\n      tag_37\n      swap2\n      swap1\n      tag_38\n      jump\t// in\n    tag_37:\n      mload(0x40)\n      dup1\n      swap2\n      sub\n      swap1\n      return\n        /* \"Campaign.sol\":1840:1882  mapping(string => Request) public requests */\n    tag_6:\n      callvalue\n      dup1\n      iszero\n      tag_39\n      jumpi\n      0x00\n      dup1\n      revert\n    tag_39:\n      pop\n      tag_40\n      0x04\n      dup1\n      calldatasize\n      sub\n      dup2\n      add\n      swap1\n      tag_41\n      swap2\n      swap1\n      tag_42\n      jump\t// in\n    tag_41:\n      tag_43\n      jump\t// in\n    tag_40:\n      mload(0x40)\n      tag_44\n      swap9\n      swap8\n      swap7\n      swap6\n      swap5\n      swap4\n      swap3\n      swap2\n      swap1\n      tag_45\n      jump\t// in\n    tag_44:\n      mload(0x40)\n      dup1\n      swap2\n      sub\n      swap1\n      return\n        /* \"Campaign.sol\":2670:2772  function getContractBalance() external view returns(uint){... */\n    tag_7:\n      callvalue\n      dup1\n      iszero\n      tag_46\n      jumpi\n      0x00\n      dup1\n      revert\n    tag_46:\n      pop\n      tag_47\n      tag_48\n      jump\t// in\n    tag_47:\n      mload(0x40)\n      tag_49\n      swap2\n      swap1\n      tag_23\n      jump\t// in\n    tag_49:\n      mload(0x40)\n      dup1\n      swap2\n      sub\n      swap1\n      return\n        /* \"Campaign.sol\":2244:2342  function getCampaignName() external view returns (string memory)... */\n    tag_8:\n      callvalue\n      dup1\n      iszero\n      tag_50\n      jumpi\n      0x00\n      dup1\n      revert\n    tag_50:\n      pop\n      tag_51\n      tag_52\n      jump\t// in\n    tag_51:\n      mload(0x40)\n      tag_53\n      swap2\n      swap1\n      tag_28\n      jump\t// in\n    tag_53:\n      mload(0x40)\n      dup1\n      swap2\n      sub\n      swap1\n      return\n        /* \"Campaign.sol\":3403:4146  function triggerCampaignRequest(string memory name, string memory description, uint amount, uint requiredApprovals, address payable receiver) restricted external {... */\n    tag_9:\n      callvalue\n      dup1\n      iszero\n      tag_54\n      jumpi\n      0x00\n      dup1\n      revert\n    tag_54:\n      pop\n      tag_55\n      0x04\n      dup1\n      calldatasize\n      sub\n      dup2\n      add\n      swap1\n      tag_56\n      swap2\n      swap1\n      tag_57\n      jump\t// in\n    tag_56:\n      tag_58\n      jump\t// in\n    tag_55:\n      stop\n        /* \"Campaign.sol\":2148:2238  function getManager() external view returns (address)... */\n    tag_10:\n      callvalue\n      dup1\n      iszero\n      tag_59\n      jumpi\n      0x00\n      dup1\n      revert\n    tag_59:\n      pop\n      tag_60\n      tag_61\n      jump\t// in\n    tag_60:\n      mload(0x40)\n      tag_62\n      swap2\n      swap1\n      tag_63\n      jump\t// in\n    tag_62:\n      mload(0x40)\n      dup1\n      swap2\n      sub\n      swap1\n      return\n        /* \"Campaign.sol\":3172:3397  function contribute() public payable {... */\n    tag_11:\n      tag_64\n      tag_65\n      jump\t// in\n    tag_64:\n      stop\n        /* \"Campaign.sol\":4929:5358  function submitRequest(string memory reqName) restricted external {... */\n    tag_12:\n      callvalue\n      dup1\n      iszero\n      tag_66\n      jumpi\n      0x00\n      dup1\n      revert\n    tag_66:\n      pop\n      tag_67\n      0x04\n      dup1\n      calldatasize\n      sub\n      dup2\n      add\n      swap1\n      tag_68\n      swap2\n      swap1\n      tag_42\n      jump\t// in\n    tag_68:\n      tag_69\n      jump\t// in\n    tag_67:\n      stop\n        /* \"Campaign.sol\":2559:2664  function getMinimumContribution() external view returns(uint){... */\n    tag_13:\n      callvalue\n      dup1\n      iszero\n      tag_70\n      jumpi\n      0x00\n      dup1\n      revert\n    tag_70:\n      pop\n      tag_71\n      tag_72\n      jump\t// in\n    tag_71:\n      mload(0x40)\n      tag_73\n      swap2\n      swap1\n      tag_23\n      jump\t// in\n    tag_73:\n      mload(0x40)\n      dup1\n      swap2\n      sub\n      swap1\n      return\n        /* \"Campaign.sol\":2456:2554  function getContributorsCount() external view returns(uint){... */\n    tag_14:\n      callvalue\n      dup1\n      iszero\n      tag_74\n      jumpi\n      0x00\n      dup1\n      revert\n    tag_74:\n      pop\n      tag_75\n      tag_76\n      jump\t// in\n    tag_75:\n      mload(0x40)\n      tag_77\n      swap2\n      swap1\n      tag_23\n      jump\t// in\n    tag_77:\n      mload(0x40)\n      dup1\n      swap2\n      sub\n      swap1\n      return\n        /* \"Campaign.sol\":1720:1761  mapping(address => uint) public approvers */\n    tag_21:\n      mstore(0x20, 0x03)\n      dup1\n      0x00\n      mstore\n      keccak256(0x00, 0x40)\n      0x00\n      swap2\n      pop\n      swap1\n      pop\n      sload\n      dup2\n      jump\t// out\n        /* \"Campaign.sol\":2347:2451  function getDescription() external view returns (string memory)... */\n    tag_26:\n        /* \"Campaign.sol\":2396:2409  string memory */\n      0x60\n        /* \"Campaign.sol\":2432:2444  _description */\n      0x01\n        /* \"Campaign.sol\":2425:2444  return _description */\n      dup1\n      sload\n      tag_79\n      swap1\n      tag_80\n      jump\t// in\n    tag_79:\n      dup1\n      0x1f\n      add\n      0x20\n      dup1\n      swap2\n      div\n      mul\n      0x20\n      add\n      mload(0x40)\n      swap1\n      dup2\n      add\n      0x40\n      mstore\n      dup1\n      swap3\n      swap2\n      swap1\n      dup2\n      dup2\n      mstore\n      0x20\n      add\n      dup3\n      dup1\n      sload\n      tag_81\n      swap1\n      tag_80\n      jump\t// in\n    tag_81:\n      dup1\n      iszero\n      tag_82\n      jumpi\n      dup1\n      0x1f\n      lt\n      tag_83\n      jumpi\n      0x0100\n      dup1\n      dup4\n      sload\n      div\n      mul\n      dup4\n      mstore\n      swap2\n      0x20\n      add\n      swap2\n      jump(tag_82)\n    tag_83:\n      dup3\n      add\n      swap2\n      swap1\n      0x00\n      mstore\n      keccak256(0x00, 0x20)\n      swap1\n    tag_84:\n      dup2\n      sload\n      dup2\n      mstore\n      swap1\n      0x01\n      add\n      swap1\n      0x20\n      add\n      dup1\n      dup4\n      gt\n      tag_84\n      jumpi\n      dup3\n      swap1\n      sub\n      0x1f\n      and\n      dup3\n      add\n      swap2\n    tag_82:\n      pop\n      pop\n      pop\n      pop\n      pop\n      swap1\n      pop\n        /* \"Campaign.sol\":2347:2451  function getDescription() external view returns (string memory)... */\n      swap1\n      jump\t// out\n        /* \"Campaign.sol\":4152:4923  function voteRequest(string memory reqName, bool isApproval ) external... */\n    tag_33:\n        /* \"Campaign.sol\":4259:4267  _manager */\n      0x02\n      0x00\n      swap1\n      sload\n      swap1\n      0x0100\n      exp\n      swap1\n      div\n      0xffffffffffffffffffffffffffffffffffffffff\n      and\n        /* \"Campaign.sol\":4245:4267  msg.sender != _manager */\n      0xffffffffffffffffffffffffffffffffffffffff\n      and\n        /* \"Campaign.sol\":4245:4255  msg.sender */\n      caller\n        /* \"Campaign.sol\":4245:4267  msg.sender != _manager */\n      0xffffffffffffffffffffffffffffffffffffffff\n      and\n      sub\n        /* \"Campaign.sol\":4237:4268  require(msg.sender != _manager) */\n      tag_86\n      jumpi\n      0x00\n      dup1\n      revert\n    tag_86:\n        /* \"Campaign.sol\":4279:4298  Request storage req */\n      0x00\n        /* \"Campaign.sol\":4301:4309  requests */\n      0x06\n        /* \"Campaign.sol\":4310:4317  reqName */\n      dup4\n        /* \"Campaign.sol\":4301:4318  requests[reqName] */\n      mload(0x40)\n      tag_87\n      swap2\n      swap1\n      tag_88\n      jump\t// in\n    tag_87:\n      swap1\n      dup2\n      mstore\n      0x20\n      add\n      mload(0x40)\n      dup1\n      swap2\n      sub\n      swap1\n      keccak256\n        /* \"Campaign.sol\":4279:4318  Request storage req = requests[reqName] */\n      swap1\n      pop\n        /* \"Campaign.sol\":4362:4363  0 */\n      0x00\n        /* \"Campaign.sol\":4343:4346  req */\n      dup2\n        /* \"Campaign.sol\":4343:4351  req.name */\n      0x00\n      add\n        /* \"Campaign.sol\":4337:4359  bytes(req.name).length */\n      dup1\n      sload\n      tag_89\n      swap1\n      tag_80\n      jump\t// in\n    tag_89:\n      swap1\n      pop\n        /* \"Campaign.sol\":4337:4363  bytes(req.name).length > 0 */\n      gt\n        /* \"Campaign.sol\":4329:4364  require(bytes(req.name).length > 0) */\n      tag_90\n      jumpi\n      0x00\n      dup1\n      revert\n    tag_90:\n        /* \"Campaign.sol\":4414:4421  reqName */\n      dup3\n        /* \"Campaign.sol\":4408:4429  bytes(reqName).length */\n      mload\n        /* \"Campaign.sol\":4388:4391  req */\n      dup2\n        /* \"Campaign.sol\":4388:4396  req.name */\n      0x00\n      add\n        /* \"Campaign.sol\":4382:4404  bytes(req.name).length */\n      dup1\n      sload\n      tag_91\n      swap1\n      tag_80\n      jump\t// in\n    tag_91:\n      swap1\n      pop\n        /* \"Campaign.sol\":4382:4429  bytes(req.name).length == bytes(reqName).length */\n      eq\n        /* \"Campaign.sol\":4374:4430  require(bytes(req.name).length == bytes(reqName).length) */\n      tag_92\n      jumpi\n      0x00\n      dup1\n      revert\n    tag_92:\n        /* \"Campaign.sol\":4499:4500  0 */\n      0x00\n        /* \"Campaign.sol\":4475:4484  approvers */\n      0x03\n        /* \"Campaign.sol\":4475:4496  approvers[msg.sender] */\n      0x00\n        /* \"Campaign.sol\":4485:4495  msg.sender */\n      caller\n        /* \"Campaign.sol\":4475:4496  approvers[msg.sender] */\n      0xffffffffffffffffffffffffffffffffffffffff\n      and\n      0xffffffffffffffffffffffffffffffffffffffff\n      and\n      dup2\n      mstore\n      0x20\n      add\n      swap1\n      dup2\n      mstore\n      0x20\n      add\n      0x00\n      keccak256\n      sload\n        /* \"Campaign.sol\":4475:4500  approvers[msg.sender] > 0 */\n      gt\n        /* \"Campaign.sol\":4467:4501  require(approvers[msg.sender] > 0) */\n      tag_93\n      jumpi\n      0x00\n      dup1\n      revert\n    tag_93:\n        /* \"Campaign.sol\":4545:4548  req */\n      dup1\n        /* \"Campaign.sol\":4545:4558  req.canSubmit */\n      0x06\n      add\n      0x00\n      swap1\n      sload\n      swap1\n      0x0100\n      exp\n      swap1\n      div\n      0xff\n      and\n        /* \"Campaign.sol\":4544:4558  !req.canSubmit */\n      iszero\n        /* \"Campaign.sol\":4536:4559  require(!req.canSubmit) */\n      tag_94\n      jumpi\n      0x00\n      dup1\n      revert\n    tag_94:\n        /* \"Campaign.sol\":4578:4581  req */\n      dup1\n        /* \"Campaign.sol\":4578:4590  req.complete */\n      0x06\n      add\n      0x01\n      swap1\n      sload\n      swap1\n      0x0100\n      exp\n      swap1\n      div\n      0xff\n      and\n        /* \"Campaign.sol\":4577:4590  !req.complete */\n      iszero\n        /* \"Campaign.sol\":4569:4591  require(!req.complete) */\n      tag_95\n      jumpi\n      0x00\n      dup1\n      revert\n    tag_95:\n        /* \"Campaign.sol\":4636:4639  req */\n      dup1\n        /* \"Campaign.sol\":4636:4649  req.approvers */\n      0x07\n      add\n        /* \"Campaign.sol\":4636:4661  req.approvers[msg.sender] */\n      0x00\n        /* \"Campaign.sol\":4650:4660  msg.sender */\n      caller\n        /* \"Campaign.sol\":4636:4661  req.approvers[msg.sender] */\n      0xffffffffffffffffffffffffffffffffffffffff\n      and\n      0xffffffffffffffffffffffffffffffffffffffff\n      and\n      dup2\n      mstore\n      0x20\n      add\n      swap1\n      dup2\n      mstore\n      0x20\n      add\n      0x00\n      keccak256\n      0x00\n      swap1\n      sload\n      swap1\n      0x0100\n      exp\n      swap1\n      div\n      0xff\n      and\n        /* \"Campaign.sol\":4635:4661  !req.approvers[msg.sender] */\n      iszero\n        /* \"Campaign.sol\":4627:4662  require(!req.approvers[msg.sender]) */\n      tag_96\n      jumpi\n      0x00\n      dup1\n      revert\n    tag_96:\n        /* \"Campaign.sol\":4701:4705  true */\n      0x01\n        /* \"Campaign.sol\":4673:4676  req */\n      dup2\n        /* \"Campaign.sol\":4673:4686  req.approvers */\n      0x07\n      add\n        /* \"Campaign.sol\":4673:4698  req.approvers[msg.sender] */\n      0x00\n        /* \"Campaign.sol\":4687:4697  msg.sender */\n      caller\n        /* \"Campaign.sol\":4673:4698  req.approvers[msg.sender] */\n      0xffffffffffffffffffffffffffffffffffffffff\n      and\n      0xffffffffffffffffffffffffffffffffffffffff\n      and\n      dup2\n      mstore\n      0x20\n      add\n      swap1\n      dup2\n      mstore\n      0x20\n      add\n      0x00\n      keccak256\n      0x00\n        /* \"Campaign.sol\":4673:4705  req.approvers[msg.sender] = true */\n      0x0100\n      exp\n      dup2\n      sload\n      dup2\n      0xff\n      mul\n      not\n      and\n      swap1\n      dup4\n      iszero\n      iszero\n      mul\n      or\n      swap1\n      sstore\n      pop\n        /* \"Campaign.sol\":4727:4737  isApproval */\n      dup2\n        /* \"Campaign.sol\":4724:4783  if(isApproval){... */\n      iszero\n      tag_97\n      jumpi\n        /* \"Campaign.sol\":4752:4755  req */\n      dup1\n        /* \"Campaign.sol\":4752:4770  req.approvalsCount */\n      0x04\n      add\n      0x00\n        /* \"Campaign.sol\":4752:4772  req.approvalsCount++ */\n      dup2\n      sload\n      dup1\n      swap3\n      swap2\n      swap1\n      tag_98\n      swap1\n      tag_99\n      jump\t// in\n    tag_98:\n      swap2\n      swap1\n      pop\n      sstore\n      pop\n        /* \"Campaign.sol\":4724:4783  if(isApproval){... */\n    tag_97:\n        /* \"Campaign.sol\":4818:4821  req */\n      dup1\n        /* \"Campaign.sol\":4818:4839  req.requiredApprovals */\n      0x05\n      add\n      sload\n        /* \"Campaign.sol\":4796:4799  req */\n      dup2\n        /* \"Campaign.sol\":4796:4814  req.approvalsCount */\n      0x04\n      add\n      sload\n        /* \"Campaign.sol\":4796:4839  req.approvalsCount >= req.requiredApprovals */\n      lt\n        /* \"Campaign.sol\":4793:4886  if(req.approvalsCount >= req.requiredApprovals) {... */\n      tag_100\n      jumpi\n        /* \"Campaign.sol\":4871:4875  true */\n      0x01\n        /* \"Campaign.sol\":4855:4858  req */\n      dup2\n        /* \"Campaign.sol\":4855:4868  req.canSubmit */\n      0x06\n      add\n      0x00\n        /* \"Campaign.sol\":4855:4875  req.canSubmit = true */\n      0x0100\n      exp\n      dup2\n      sload\n      dup2\n      0xff\n      mul\n      not\n      and\n      swap1\n      dup4\n      iszero\n      iszero\n      mul\n      or\n      swap1\n      sstore\n      pop\n        /* \"Campaign.sol\":4793:4886  if(req.approvalsCount >= req.requiredApprovals) {... */\n    tag_100:\n        /* \"Campaign.sol\":4227:4923  {... */\n      pop\n        /* \"Campaign.sol\":4152:4923  function voteRequest(string memory reqName, bool isApproval ) external... */\n      pop\n      pop\n      jump\t// out\n        /* \"Campaign.sol\":2779:3166  function getSummary() external view returns(Summary memory)... */\n    tag_36:\n        /* \"Campaign.sol\":2823:2837  Summary memory */\n      tag_101\n      tag_102\n      jump\t// in\n    tag_101:\n        /* \"Campaign.sol\":2853:2872  Summary memory data */\n      0x00\n        /* \"Campaign.sol\":2876:3137  Summary({... */\n      mload(0x40)\n      dup1\n      0xc0\n      add\n      0x40\n      mstore\n      dup1\n        /* \"Campaign.sol\":2907:2915  _manager */\n      0x02\n      0x00\n      swap1\n      sload\n      swap1\n      0x0100\n      exp\n      swap1\n      div\n      0xffffffffffffffffffffffffffffffffffffffff\n      and\n        /* \"Campaign.sol\":2876:3137  Summary({... */\n      0xffffffffffffffffffffffffffffffffffffffff\n      and\n      dup2\n      mstore\n      0x20\n      add\n        /* \"Campaign.sol\":2935:2940  _name */\n      0x00\n        /* \"Campaign.sol\":2876:3137  Summary({... */\n      dup1\n      sload\n      tag_104\n      swap1\n      tag_80\n      jump\t// in\n    tag_104:\n      dup1\n      0x1f\n      add\n      0x20\n      dup1\n      swap2\n      div\n      mul\n      0x20\n      add\n      mload(0x40)\n      swap1\n      dup2\n      add\n      0x40\n      mstore\n      dup1\n      swap3\n      swap2\n      swap1\n      dup2\n      dup2\n      mstore\n      0x20\n      add\n      dup3\n      dup1\n      sload\n      tag_105\n      swap1\n      tag_80\n      jump\t// in\n    tag_105:\n      dup1\n      iszero\n      tag_106\n      jumpi\n      dup1\n      0x1f\n      lt\n      tag_107\n      jumpi\n      0x0100\n      dup1\n      dup4\n      sload\n      div\n      mul\n      dup4\n      mstore\n      swap2\n      0x20\n      add\n      swap2\n      jump(tag_106)\n    tag_107:\n      dup3\n      add\n      swap2\n      swap1\n      0x00\n      mstore\n      keccak256(0x00, 0x20)\n      swap1\n    tag_108:\n      dup2\n      sload\n      dup2\n      mstore\n      swap1\n      0x01\n      add\n      swap1\n      0x20\n      add\n      dup1\n      dup4\n      gt\n      tag_108\n      jumpi\n      dup3\n      swap1\n      sub\n      0x1f\n      and\n      dup3\n      add\n      swap2\n    tag_106:\n      pop\n      pop\n      pop\n      pop\n      pop\n      dup2\n      mstore\n      0x20\n      add\n        /* \"Campaign.sol\":2967:2979  _description */\n      0x01\n        /* \"Campaign.sol\":2876:3137  Summary({... */\n      dup1\n      sload\n      tag_109\n      swap1\n      tag_80\n      jump\t// in\n    tag_109:\n      dup1\n      0x1f\n      add\n      0x20\n      dup1\n      swap2\n      div\n      mul\n      0x20\n      add\n      mload(0x40)\n      swap1\n      dup2\n      add\n      0x40\n      mstore\n      dup1\n      swap3\n      swap2\n      swap1\n      dup2\n      dup2\n      mstore\n      0x20\n      add\n      dup3\n      dup1\n      sload\n      tag_110\n      swap1\n      tag_80\n      jump\t// in\n    tag_110:\n      dup1\n      iszero\n      tag_111\n      jumpi\n      dup1\n      0x1f\n      lt\n      tag_112\n      jumpi\n      0x0100\n      dup1\n      dup4\n      sload\n      div\n      mul\n      dup4\n      mstore\n      swap2\n      0x20\n      add\n      swap2\n      jump(tag_111)\n    tag_112:\n      dup3\n      add\n      swap2\n      swap1\n      0x00\n      mstore\n      keccak256(0x00, 0x20)\n      swap1\n    tag_113:\n      dup2\n      sload\n      dup2\n      mstore\n      swap1\n      0x01\n      add\n      swap1\n      0x20\n      add\n      dup1\n      dup4\n      gt\n      tag_113\n      jumpi\n      dup3\n      swap1\n      sub\n      0x1f\n      and\n      dup3\n      add\n      swap2\n    tag_111:\n      pop\n      pop\n      pop\n      pop\n      pop\n      dup2\n      mstore\n      0x20\n      add\n        /* \"Campaign.sol\":3010:3030  _minimumContribution */\n      sload(0x05)\n        /* \"Campaign.sol\":2876:3137  Summary({... */\n      dup2\n      mstore\n      0x20\n      add\n        /* \"Campaign.sol\":3053:3074  address(this).balance */\n      selfbalance\n        /* \"Campaign.sol\":2876:3137  Summary({... */\n      dup2\n      mstore\n      0x20\n      add\n        /* \"Campaign.sol\":3111:3126  _approversCount */\n      sload(0x04)\n        /* \"Campaign.sol\":2876:3137  Summary({... */\n      dup2\n      mstore\n      pop\n        /* \"Campaign.sol\":2853:3137  Summary memory data  = Summary({... */\n      swap1\n      pop\n        /* \"Campaign.sol\":3155:3159  data */\n      dup1\n        /* \"Campaign.sol\":3148:3159  return data */\n      swap2\n      pop\n      pop\n        /* \"Campaign.sol\":2779:3166  function getSummary() external view returns(Summary memory)... */\n      swap1\n      jump\t// out\n        /* \"Campaign.sol\":1840:1882  mapping(string => Request) public requests */\n    tag_43:\n      0x06\n      dup2\n      dup1\n      mload\n      0x20\n      dup2\n      add\n      dup3\n      add\n      dup1\n      mload\n      dup5\n      dup3\n      mstore\n      0x20\n      dup4\n      add\n      0x20\n      dup6\n      add\n      keccak256\n      dup2\n      dup4\n      mstore\n      dup1\n      swap6\n      pop\n      pop\n      pop\n      pop\n      pop\n      pop\n      0x00\n      swap2\n      pop\n      swap1\n      pop\n      dup1\n      0x00\n      add\n      dup1\n      sload\n      tag_114\n      swap1\n      tag_80\n      jump\t// in\n    tag_114:\n      dup1\n      0x1f\n      add\n      0x20\n      dup1\n      swap2\n      div\n      mul\n      0x20\n      add\n      mload(0x40)\n      swap1\n      dup2\n      add\n      0x40\n      mstore\n      dup1\n      swap3\n      swap2\n      swap1\n      dup2\n      dup2\n      mstore\n      0x20\n      add\n      dup3\n      dup1\n      sload\n      tag_115\n      swap1\n      tag_80\n      jump\t// in\n    tag_115:\n      dup1\n      iszero\n      tag_116\n      jumpi\n      dup1\n      0x1f\n      lt\n      tag_117\n      jumpi\n      0x0100\n      dup1\n      dup4\n      sload\n      div\n      mul\n      dup4\n      mstore\n      swap2\n      0x20\n      add\n      swap2\n      jump(tag_116)\n    tag_117:\n      dup3\n      add\n      swap2\n      swap1\n      0x00\n      mstore\n      keccak256(0x00, 0x20)\n      swap1\n    tag_118:\n      dup2\n      sload\n      dup2\n      mstore\n      swap1\n      0x01\n      add\n      swap1\n      0x20\n      add\n      dup1\n      dup4\n      gt\n      tag_118\n      jumpi\n      dup3\n      swap1\n      sub\n      0x1f\n      and\n      dup3\n      add\n      swap2\n    tag_116:\n      pop\n      pop\n      pop\n      pop\n      pop\n      swap1\n      dup1\n      0x01\n      add\n      dup1\n      sload\n      tag_119\n      swap1\n      tag_80\n      jump\t// in\n    tag_119:\n      dup1\n      0x1f\n      add\n      0x20\n      dup1\n      swap2\n      div\n      mul\n      0x20\n      add\n      mload(0x40)\n      swap1\n      dup2\n      add\n      0x40\n      mstore\n      dup1\n      swap3\n      swap2\n      swap1\n      dup2\n      dup2\n      mstore\n      0x20\n      add\n      dup3\n      dup1\n      sload\n      tag_120\n      swap1\n      tag_80\n      jump\t// in\n    tag_120:\n      dup1\n      iszero\n      tag_121\n      jumpi\n      dup1\n      0x1f\n      lt\n      tag_122\n      jumpi\n      0x0100\n      dup1\n      dup4\n      sload\n      div\n      mul\n      dup4\n      mstore\n      swap2\n      0x20\n      add\n      swap2\n      jump(tag_121)\n    tag_122:\n      dup3\n      add\n      swap2\n      swap1\n      0x00\n      mstore\n      keccak256(0x00, 0x20)\n      swap1\n    tag_123:\n      dup2\n      sload\n      dup2\n      mstore\n      swap1\n      0x01\n      add\n      swap1\n      0x20\n      add\n      dup1\n      dup4\n      gt\n      tag_123\n      jumpi\n      dup3\n      swap1\n      sub\n      0x1f\n      and\n      dup3\n      add\n      swap2\n    tag_121:\n      pop\n      pop\n      pop\n      pop\n      pop\n      swap1\n      dup1\n      0x02\n      add\n      sload\n      swap1\n      dup1\n      0x03\n      add\n      0x00\n      swap1\n      sload\n      swap1\n      0x0100\n      exp\n      swap1\n      div\n      0xffffffffffffffffffffffffffffffffffffffff\n      and\n      swap1\n      dup1\n      0x04\n      add\n      sload\n      swap1\n      dup1\n      0x05\n      add\n      sload\n      swap1\n      dup1\n      0x06\n      add\n      0x00\n      swap1\n      sload\n      swap1\n      0x0100\n      exp\n      swap1\n      div\n      0xff\n      and\n      swap1\n      dup1\n      0x06\n      add\n      0x01\n      swap1\n      sload\n      swap1\n      0x0100\n      exp\n      swap1\n      div\n      0xff\n      and\n      swap1\n      pop\n      dup9\n      jump\t// out\n        /* \"Campaign.sol\":2670:2772  function getContractBalance() external view returns(uint){... */\n    tag_48:\n        /* \"Campaign.sol\":2722:2726  uint */\n      0x00\n        /* \"Campaign.sol\":2744:2765  address(this).balance */\n      selfbalance\n        /* \"Campaign.sol\":2737:2765  return address(this).balance */\n      swap1\n      pop\n        /* \"Campaign.sol\":2670:2772  function getContractBalance() external view returns(uint){... */\n      swap1\n      jump\t// out\n        /* \"Campaign.sol\":2244:2342  function getCampaignName() external view returns (string memory)... */\n    tag_52:\n        /* \"Campaign.sol\":2294:2307  string memory */\n      0x60\n        /* \"Campaign.sol\":2330:2335  _name */\n      0x00\n        /* \"Campaign.sol\":2323:2335  return _name */\n      dup1\n      sload\n      tag_126\n      swap1\n      tag_80\n      jump\t// in\n    tag_126:\n      dup1\n      0x1f\n      add\n      0x20\n      dup1\n      swap2\n      div\n      mul\n      0x20\n      add\n      mload(0x40)\n      swap1\n      dup2\n      add\n      0x40\n      mstore\n      dup1\n      swap3\n      swap2\n      swap1\n      dup2\n      dup2\n      mstore\n      0x20\n      add\n      dup3\n      dup1\n      sload\n      tag_127\n      swap1\n      tag_80\n      jump\t// in\n    tag_127:\n      dup1\n      iszero\n      tag_128\n      jumpi\n      dup1\n      0x1f\n      lt\n      tag_129\n      jumpi\n      0x0100\n      dup1\n      dup4\n      sload\n      div\n      mul\n      dup4\n      mstore\n      swap2\n      0x20\n      add\n      swap2\n      jump(tag_128)\n    tag_129:\n      dup3\n      add\n      swap2\n      swap1\n      0x00\n      mstore\n      keccak256(0x00, 0x20)\n      swap1\n    tag_130:\n      dup2\n      sload\n      dup2\n      mstore\n      swap1\n      0x01\n      add\n      swap1\n      0x20\n      add\n      dup1\n      dup4\n      gt\n      tag_130\n      jumpi\n      dup3\n      swap1\n      sub\n      0x1f\n      and\n      dup3\n      add\n      swap2\n    tag_128:\n      pop\n      pop\n      pop\n      pop\n      pop\n      swap1\n      pop\n        /* \"Campaign.sol\":2244:2342  function getCampaignName() external view returns (string memory)... */\n      swap1\n      jump\t// out\n        /* \"Campaign.sol\":3403:4146  function triggerCampaignRequest(string memory name, string memory description, uint amount, uint requiredApprovals, address payable receiver) restricted external {... */\n    tag_58:\n        /* \"Campaign.sol\":5418:5426  _manager */\n      0x02\n      0x00\n      swap1\n      sload\n      swap1\n      0x0100\n      exp\n      swap1\n      div\n      0xffffffffffffffffffffffffffffffffffffffff\n      and\n        /* \"Campaign.sol\":5404:5426  msg.sender == _manager */\n      0xffffffffffffffffffffffffffffffffffffffff\n      and\n        /* \"Campaign.sol\":5404:5414  msg.sender */\n      caller\n        /* \"Campaign.sol\":5404:5426  msg.sender == _manager */\n      0xffffffffffffffffffffffffffffffffffffffff\n      and\n      eq\n        /* \"Campaign.sol\":5396:5427  require(msg.sender == _manager) */\n      tag_132\n      jumpi\n      0x00\n      dup1\n      revert\n    tag_132:\n        /* \"Campaign.sol\":3613:3614  0 */\n      0x00\n        /* \"Campaign.sol\":3598:3602  name */\n      dup6\n        /* \"Campaign.sol\":3592:3610  bytes(name).length */\n      mload\n        /* \"Campaign.sol\":3592:3614  bytes(name).length > 0 */\n      gt\n        /* \"Campaign.sol\":3584:3615  require(bytes(name).length > 0) */\n      tag_134\n      jumpi\n      0x00\n      dup1\n      revert\n    tag_134:\n        /* \"Campaign.sol\":3661:3662  0 */\n      0x00\n        /* \"Campaign.sol\":3639:3650  description */\n      dup5\n        /* \"Campaign.sol\":3633:3658  bytes(description).length */\n      mload\n        /* \"Campaign.sol\":3633:3662  bytes(description).length > 0 */\n      gt\n        /* \"Campaign.sol\":3625:3663  require(bytes(description).length > 0) */\n      tag_135\n      jumpi\n      0x00\n      dup1\n      revert\n    tag_135:\n        /* \"Campaign.sol\":3690:3691  0 */\n      0x00\n        /* \"Campaign.sol\":3681:3687  amount */\n      dup4\n        /* \"Campaign.sol\":3681:3691  amount > 0 */\n      gt\n        /* \"Campaign.sol\":3673:3692  require(amount > 0) */\n      tag_136\n      jumpi\n      0x00\n      dup1\n      revert\n    tag_136:\n        /* \"Campaign.sol\":3744:3751  1 ether */\n      0x0de0b6b3a7640000\n        /* \"Campaign.sol\":3720:3741  address(this).balance */\n      selfbalance\n        /* \"Campaign.sol\":3720:3751  address(this).balance / 1 ether */\n      tag_137\n      swap2\n      swap1\n      tag_138\n      jump\t// in\n    tag_137:\n        /* \"Campaign.sol\":3710:3716  amount */\n      dup4\n        /* \"Campaign.sol\":3710:3751  amount <= address(this).balance / 1 ether */\n      gt\n      iszero\n        /* \"Campaign.sol\":3702:3752  require(amount <= address(this).balance / 1 ether) */\n      tag_139\n      jumpi\n      0x00\n      dup1\n      revert\n    tag_139:\n        /* \"Campaign.sol\":3790:3791  0 */\n      0x00\n        /* \"Campaign.sol\":3770:3787  requiredApprovals */\n      dup3\n        /* \"Campaign.sol\":3770:3791  requiredApprovals > 0 */\n      gt\n        /* \"Campaign.sol\":3762:3792  require(requiredApprovals > 0) */\n      tag_140\n      jumpi\n      0x00\n      dup1\n      revert\n    tag_140:\n        /* \"Campaign.sol\":3831:3846  _approversCount */\n      sload(0x04)\n        /* \"Campaign.sol\":3810:3827  requiredApprovals */\n      dup3\n        /* \"Campaign.sol\":3810:3846  requiredApprovals <= _approversCount */\n      gt\n      iszero\n        /* \"Campaign.sol\":3802:3847  require(requiredApprovals <= _approversCount) */\n      tag_141\n      jumpi\n      0x00\n      dup1\n      revert\n    tag_141:\n        /* \"Campaign.sol\":3857:3876  Request storage req */\n      0x00\n        /* \"Campaign.sol\":3879:3887  requests */\n      0x06\n        /* \"Campaign.sol\":3888:3892  name */\n      dup7\n        /* \"Campaign.sol\":3879:3893  requests[name] */\n      mload(0x40)\n      tag_142\n      swap2\n      swap1\n      tag_88\n      jump\t// in\n    tag_142:\n      swap1\n      dup2\n      mstore\n      0x20\n      add\n      mload(0x40)\n      dup1\n      swap2\n      sub\n      swap1\n      keccak256\n        /* \"Campaign.sol\":3857:3893  Request storage req = requests[name] */\n      swap1\n      pop\n        /* \"Campaign.sol\":3922:3926  name */\n      dup6\n        /* \"Campaign.sol\":3912:3915  req */\n      dup2\n        /* \"Campaign.sol\":3912:3920  req.name */\n      0x00\n      add\n        /* \"Campaign.sol\":3912:3926  req.name= name */\n      swap1\n      dup2\n      tag_143\n      swap2\n      swap1\n      tag_144\n      jump\t// in\n    tag_143:\n      pop\n        /* \"Campaign.sol\":3954:3965  description */\n      dup5\n        /* \"Campaign.sol\":3936:3939  req */\n      dup2\n        /* \"Campaign.sol\":3936:3951  req.description */\n      0x01\n      add\n        /* \"Campaign.sol\":3936:3965  req.description = description */\n      swap1\n      dup2\n      tag_145\n      swap2\n      swap1\n      tag_144\n      jump\t// in\n    tag_145:\n      pop\n        /* \"Campaign.sol\":3988:3994  amount */\n      dup4\n        /* \"Campaign.sol\":3975:3978  req */\n      dup2\n        /* \"Campaign.sol\":3975:3985  req.amount */\n      0x02\n      add\n        /* \"Campaign.sol\":3975:3994  req.amount = amount */\n      dup2\n      swap1\n      sstore\n      pop\n        /* \"Campaign.sol\":4019:4027  receiver */\n      dup2\n        /* \"Campaign.sol\":4004:4007  req */\n      dup2\n        /* \"Campaign.sol\":4004:4016  req.receiver */\n      0x03\n      add\n      0x00\n        /* \"Campaign.sol\":4004:4027  req.receiver = receiver */\n      0x0100\n      exp\n      dup2\n      sload\n      dup2\n      0xffffffffffffffffffffffffffffffffffffffff\n      mul\n      not\n      and\n      swap1\n      dup4\n      0xffffffffffffffffffffffffffffffffffffffff\n      and\n      mul\n      or\n      swap1\n      sstore\n      pop\n        /* \"Campaign.sol\":4058:4059  0 */\n      0x00\n        /* \"Campaign.sol\":4037:4040  req */\n      dup2\n        /* \"Campaign.sol\":4037:4055  req.approvalsCount */\n      0x04\n      add\n        /* \"Campaign.sol\":4037:4059  req.approvalsCount=  0 */\n      dup2\n      swap1\n      sstore\n      pop\n        /* \"Campaign.sol\":4093:4110  requiredApprovals */\n      dup3\n        /* \"Campaign.sol\":4069:4072  req */\n      dup2\n        /* \"Campaign.sol\":4069:4090  req.requiredApprovals */\n      0x05\n      add\n        /* \"Campaign.sol\":4069:4110  req.requiredApprovals = requiredApprovals */\n      dup2\n      swap1\n      sstore\n      pop\n        /* \"Campaign.sol\":4134:4139  false */\n      0x00\n        /* \"Campaign.sol\":4120:4123  req */\n      dup2\n        /* \"Campaign.sol\":4120:4132  req.complete */\n      0x06\n      add\n      0x01\n        /* \"Campaign.sol\":4120:4139  req.complete= false */\n      0x0100\n      exp\n      dup2\n      sload\n      dup2\n      0xff\n      mul\n      not\n      and\n      swap1\n      dup4\n      iszero\n      iszero\n      mul\n      or\n      swap1\n      sstore\n      pop\n        /* \"Campaign.sol\":3565:4146  {... */\n      pop\n        /* \"Campaign.sol\":3403:4146  function triggerCampaignRequest(string memory name, string memory description, uint amount, uint requiredApprovals, address payable receiver) restricted external {... */\n      pop\n      pop\n      pop\n      pop\n      pop\n      jump\t// out\n        /* \"Campaign.sol\":2148:2238  function getManager() external view returns (address)... */\n    tag_61:\n        /* \"Campaign.sol\":2193:2200  address */\n      0x00\n        /* \"Campaign.sol\":2223:2231  _manager */\n      0x02\n      0x00\n      swap1\n      sload\n      swap1\n      0x0100\n      exp\n      swap1\n      div\n      0xffffffffffffffffffffffffffffffffffffffff\n      and\n        /* \"Campaign.sol\":2216:2231  return _manager */\n      swap1\n      pop\n        /* \"Campaign.sol\":2148:2238  function getManager() external view returns (address)... */\n      swap1\n      jump\t// out\n        /* \"Campaign.sol\":3172:3397  function contribute() public payable {... */\n    tag_65:\n        /* \"Campaign.sol\":3240:3260  _minimumContribution */\n      sload(0x05)\n        /* \"Campaign.sol\":3227:3236  msg.value */\n      callvalue\n        /* \"Campaign.sol\":3227:3260  msg.value >= _minimumContribution */\n      lt\n      iszero\n        /* \"Campaign.sol\":3219:3261  require(msg.value >= _minimumContribution) */\n      tag_148\n      jumpi\n      0x00\n      dup1\n      revert\n    tag_148:\n        /* \"Campaign.sol\":3305:3306  0 */\n      0x00\n        /* \"Campaign.sol\":3280:3289  approvers */\n      0x03\n        /* \"Campaign.sol\":3280:3301  approvers[msg.sender] */\n      0x00\n        /* \"Campaign.sol\":3290:3300  msg.sender */\n      caller\n        /* \"Campaign.sol\":3280:3301  approvers[msg.sender] */\n      0xffffffffffffffffffffffffffffffffffffffff\n      and\n      0xffffffffffffffffffffffffffffffffffffffff\n      and\n      dup2\n      mstore\n      0x20\n      add\n      swap1\n      dup2\n      mstore\n      0x20\n      add\n      0x00\n      keccak256\n      sload\n        /* \"Campaign.sol\":3280:3306  approvers[msg.sender] == 0 */\n      eq\n        /* \"Campaign.sol\":3272:3307  require(approvers[msg.sender] == 0) */\n      tag_149\n      jumpi\n      0x00\n      dup1\n      revert\n    tag_149:\n        /* \"Campaign.sol\":3354:3361  1 ether */\n      0x0de0b6b3a7640000\n        /* \"Campaign.sol\":3342:3351  msg.value */\n      callvalue\n        /* \"Campaign.sol\":3342:3361  msg.value / 1 ether */\n      tag_150\n      swap2\n      swap1\n      tag_138\n      jump\t// in\n    tag_150:\n        /* \"Campaign.sol\":3317:3326  approvers */\n      0x03\n        /* \"Campaign.sol\":3317:3338  approvers[msg.sender] */\n      0x00\n        /* \"Campaign.sol\":3327:3337  msg.sender */\n      caller\n        /* \"Campaign.sol\":3317:3338  approvers[msg.sender] */\n      0xffffffffffffffffffffffffffffffffffffffff\n      and\n      0xffffffffffffffffffffffffffffffffffffffff\n      and\n      dup2\n      mstore\n      0x20\n      add\n      swap1\n      dup2\n      mstore\n      0x20\n      add\n      0x00\n      keccak256\n        /* \"Campaign.sol\":3317:3362  approvers[msg.sender] = (msg.value / 1 ether) */\n      dup2\n      swap1\n      sstore\n      pop\n        /* \"Campaign.sol\":3372:3387  _approversCount */\n      0x04\n      0x00\n        /* \"Campaign.sol\":3372:3389  _approversCount++ */\n      dup2\n      sload\n      dup1\n      swap3\n      swap2\n      swap1\n      tag_151\n      swap1\n      tag_99\n      jump\t// in\n    tag_151:\n      swap2\n      swap1\n      pop\n      sstore\n      pop\n        /* \"Campaign.sol\":3172:3397  function contribute() public payable {... */\n      jump\t// out\n        /* \"Campaign.sol\":4929:5358  function submitRequest(string memory reqName) restricted external {... */\n    tag_69:\n        /* \"Campaign.sol\":5418:5426  _manager */\n      0x02\n      0x00\n      swap1\n      sload\n      swap1\n      0x0100\n      exp\n      swap1\n      div\n      0xffffffffffffffffffffffffffffffffffffffff\n      and\n        /* \"Campaign.sol\":5404:5426  msg.sender == _manager */\n      0xffffffffffffffffffffffffffffffffffffffff\n      and\n        /* \"Campaign.sol\":5404:5414  msg.sender */\n      caller\n        /* \"Campaign.sol\":5404:5426  msg.sender == _manager */\n      0xffffffffffffffffffffffffffffffffffffffff\n      and\n      eq\n        /* \"Campaign.sol\":5396:5427  require(msg.sender == _manager) */\n      tag_153\n      jumpi\n      0x00\n      dup1\n      revert\n    tag_153:\n        /* \"Campaign.sol\":5005:5024  Request storage req */\n      0x00\n        /* \"Campaign.sol\":5027:5035  requests */\n      0x06\n        /* \"Campaign.sol\":5036:5043  reqName */\n      dup3\n        /* \"Campaign.sol\":5027:5044  requests[reqName] */\n      mload(0x40)\n      tag_155\n      swap2\n      swap1\n      tag_88\n      jump\t// in\n    tag_155:\n      swap1\n      dup2\n      mstore\n      0x20\n      add\n      mload(0x40)\n      dup1\n      swap2\n      sub\n      swap1\n      keccak256\n        /* \"Campaign.sol\":5005:5044  Request storage req = requests[reqName] */\n      swap1\n      pop\n        /* \"Campaign.sol\":5087:5088  0 */\n      0x00\n        /* \"Campaign.sol\":5068:5071  req */\n      dup2\n        /* \"Campaign.sol\":5068:5076  req.name */\n      0x00\n      add\n        /* \"Campaign.sol\":5062:5084  bytes(req.name).length */\n      dup1\n      sload\n      tag_156\n      swap1\n      tag_80\n      jump\t// in\n    tag_156:\n      swap1\n      pop\n        /* \"Campaign.sol\":5062:5088  bytes(req.name).length > 0 */\n      gt\n        /* \"Campaign.sol\":5054:5089  require(bytes(req.name).length > 0) */\n      tag_157\n      jumpi\n      0x00\n      dup1\n      revert\n    tag_157:\n        /* \"Campaign.sol\":5139:5146  reqName */\n      dup2\n        /* \"Campaign.sol\":5133:5154  bytes(reqName).length */\n      mload\n        /* \"Campaign.sol\":5113:5116  req */\n      dup2\n        /* \"Campaign.sol\":5113:5121  req.name */\n      0x00\n      add\n        /* \"Campaign.sol\":5107:5129  bytes(req.name).length */\n      dup1\n      sload\n      tag_158\n      swap1\n      tag_80\n      jump\t// in\n    tag_158:\n      swap1\n      pop\n        /* \"Campaign.sol\":5107:5154  bytes(req.name).length == bytes(reqName).length */\n      eq\n        /* \"Campaign.sol\":5099:5155  require(bytes(req.name).length == bytes(reqName).length) */\n      tag_159\n      jumpi\n      0x00\n      dup1\n      revert\n    tag_159:\n        /* \"Campaign.sol\":5173:5176  req */\n      dup1\n        /* \"Campaign.sol\":5173:5186  req.canSubmit */\n      0x06\n      add\n      0x00\n      swap1\n      sload\n      swap1\n      0x0100\n      exp\n      swap1\n      div\n      0xff\n      and\n        /* \"Campaign.sol\":5173:5203  req.canSubmit && !req.complete */\n      dup1\n      iszero\n      tag_160\n      jumpi\n      pop\n        /* \"Campaign.sol\":5191:5194  req */\n      dup1\n        /* \"Campaign.sol\":5191:5203  req.complete */\n      0x06\n      add\n      0x01\n      swap1\n      sload\n      swap1\n      0x0100\n      exp\n      swap1\n      div\n      0xff\n      and\n        /* \"Campaign.sol\":5190:5203  !req.complete */\n      iszero\n        /* \"Campaign.sol\":5173:5203  req.canSubmit && !req.complete */\n    tag_160:\n        /* \"Campaign.sol\":5165:5204  require(req.canSubmit && !req.complete) */\n      tag_161\n      jumpi\n      0x00\n      dup1\n      revert\n    tag_161:\n        /* \"Campaign.sol\":5257:5260  req */\n      dup1\n        /* \"Campaign.sol\":5257:5267  req.amount */\n      0x02\n      add\n      sload\n        /* \"Campaign.sol\":5246:5253  1 ether */\n      0x0de0b6b3a7640000\n        /* \"Campaign.sol\":5222:5243  address(this).balance */\n      selfbalance\n        /* \"Campaign.sol\":5222:5253  address(this).balance / 1 ether */\n      tag_162\n      swap2\n      swap1\n      tag_138\n      jump\t// in\n    tag_162:\n        /* \"Campaign.sol\":5222:5267  address(this).balance / 1 ether >= req.amount */\n      lt\n      iszero\n        /* \"Campaign.sol\":5214:5268  require(address(this).balance / 1 ether >= req.amount) */\n      tag_163\n      jumpi\n      0x00\n      dup1\n      revert\n    tag_163:\n        /* \"Campaign.sol\":5278:5281  req */\n      dup1\n        /* \"Campaign.sol\":5278:5290  req.receiver */\n      0x03\n      add\n      0x00\n      swap1\n      sload\n      swap1\n      0x0100\n      exp\n      swap1\n      div\n      0xffffffffffffffffffffffffffffffffffffffff\n      and\n        /* \"Campaign.sol\":5278:5299  req.receiver.transfer */\n      0xffffffffffffffffffffffffffffffffffffffff\n      and\n        /* \"Campaign.sol\":5278:5321  req.receiver.transfer(req.amount * 1 ether) */\n      0x08fc\n        /* \"Campaign.sol\":5313:5320  1 ether */\n      0x0de0b6b3a7640000\n        /* \"Campaign.sol\":5300:5303  req */\n      dup4\n        /* \"Campaign.sol\":5300:5310  req.amount */\n      0x02\n      add\n      sload\n        /* \"Campaign.sol\":5300:5320  req.amount * 1 ether */\n      tag_164\n      swap2\n      swap1\n      tag_165\n      jump\t// in\n    tag_164:\n        /* \"Campaign.sol\":5278:5321  req.receiver.transfer(req.amount * 1 ether) */\n      swap1\n      dup2\n      iszero\n      mul\n      swap1\n      mload(0x40)\n      0x00\n      mload(0x40)\n      dup1\n      dup4\n      sub\n      dup2\n      dup6\n      dup9\n      dup9\n      call\n      swap4\n      pop\n      pop\n      pop\n      pop\n      iszero\n      dup1\n      iszero\n      tag_167\n      jumpi\n      returndatasize\n      0x00\n      dup1\n      returndatacopy\n      revert(0x00, returndatasize)\n    tag_167:\n      pop\n        /* \"Campaign.sol\":5347:5351  true */\n      0x01\n        /* \"Campaign.sol\":5332:5335  req */\n      dup2\n        /* \"Campaign.sol\":5332:5344  req.complete */\n      0x06\n      add\n      0x01\n        /* \"Campaign.sol\":5332:5351  req.complete = true */\n      0x0100\n      exp\n      dup2\n      sload\n      dup2\n      0xff\n      mul\n      not\n      and\n      swap1\n      dup4\n      iszero\n      iszero\n      mul\n      or\n      swap1\n      sstore\n      pop\n        /* \"Campaign.sol\":4995:5358  {... */\n      pop\n        /* \"Campaign.sol\":4929:5358  function submitRequest(string memory reqName) restricted external {... */\n      pop\n      jump\t// out\n        /* \"Campaign.sol\":2559:2664  function getMinimumContribution() external view returns(uint){... */\n    tag_72:\n        /* \"Campaign.sol\":2615:2619  uint */\n      0x00\n        /* \"Campaign.sol\":2637:2657  _minimumContribution */\n      sload(0x05)\n        /* \"Campaign.sol\":2630:2657  return _minimumContribution */\n      swap1\n      pop\n        /* \"Campaign.sol\":2559:2664  function getMinimumContribution() external view returns(uint){... */\n      swap1\n      jump\t// out\n        /* \"Campaign.sol\":2456:2554  function getContributorsCount() external view returns(uint){... */\n    tag_76:\n        /* \"Campaign.sol\":2510:2514  uint */\n      0x00\n        /* \"Campaign.sol\":2532:2547  _approversCount */\n      sload(0x04)\n        /* \"Campaign.sol\":2525:2547  return _approversCount */\n      swap1\n      pop\n        /* \"Campaign.sol\":2456:2554  function getContributorsCount() external view returns(uint){... */\n      swap1\n      jump\t// out\n    tag_102:\n      mload(0x40)\n      dup1\n      0xc0\n      add\n      0x40\n      mstore\n      dup1\n      and(0xffffffffffffffffffffffffffffffffffffffff, 0x00)\n      dup2\n      mstore\n      0x20\n      add\n      0x60\n      dup2\n      mstore\n      0x20\n      add\n      0x60\n      dup2\n      mstore\n      0x20\n      add\n      0x00\n      dup2\n      mstore\n      0x20\n      add\n      0x00\n      dup2\n      mstore\n      0x20\n      add\n      0x00\n      dup2\n      mstore\n      pop\n      swap1\n      jump\t// out\n        /* \"#utility.yul\":7:82   */\n    tag_170:\n        /* \"#utility.yul\":40:46   */\n      0x00\n        /* \"#utility.yul\":73:75   */\n      0x40\n        /* \"#utility.yul\":67:76   */\n      mload\n        /* \"#utility.yul\":57:76   */\n      swap1\n      pop\n        /* \"#utility.yul\":7:82   */\n      swap1\n      jump\t// out\n        /* \"#utility.yul\":88:205   */\n    tag_171:\n        /* \"#utility.yul\":197:198   */\n      0x00\n        /* \"#utility.yul\":194:195   */\n      dup1\n        /* \"#utility.yul\":187:199   */\n      revert\n        /* \"#utility.yul\":211:328   */\n    tag_172:\n        /* \"#utility.yul\":320:321   */\n      0x00\n        /* \"#utility.yul\":317:318   */\n      dup1\n        /* \"#utility.yul\":310:322   */\n      revert\n        /* \"#utility.yul\":334:460   */\n    tag_173:\n        /* \"#utility.yul\":371:378   */\n      0x00\n        /* \"#utility.yul\":411:453   */\n      0xffffffffffffffffffffffffffffffffffffffff\n        /* \"#utility.yul\":404:409   */\n      dup3\n        /* \"#utility.yul\":400:454   */\n      and\n        /* \"#utility.yul\":389:454   */\n      swap1\n      pop\n        /* \"#utility.yul\":334:460   */\n      swap2\n      swap1\n      pop\n      jump\t// out\n        /* \"#utility.yul\":466:562   */\n    tag_174:\n        /* \"#utility.yul\":503:510   */\n      0x00\n        /* \"#utility.yul\":532:556   */\n      tag_235\n        /* \"#utility.yul\":550:555   */\n      dup3\n        /* \"#utility.yul\":532:556   */\n      tag_173\n      jump\t// in\n    tag_235:\n        /* \"#utility.yul\":521:556   */\n      swap1\n      pop\n        /* \"#utility.yul\":466:562   */\n      swap2\n      swap1\n      pop\n      jump\t// out\n        /* \"#utility.yul\":568:690   */\n    tag_175:\n        /* \"#utility.yul\":641:665   */\n      tag_237\n        /* \"#utility.yul\":659:664   */\n      dup2\n        /* \"#utility.yul\":641:665   */\n      tag_174\n      jump\t// in\n    tag_237:\n        /* \"#utility.yul\":634:639   */\n      dup2\n        /* \"#utility.yul\":631:666   */\n      eq\n        /* \"#utility.yul\":621:684   */\n      tag_238\n      jumpi\n        /* \"#utility.yul\":680:681   */\n      0x00\n        /* \"#utility.yul\":677:678   */\n      dup1\n        /* \"#utility.yul\":670:682   */\n      revert\n        /* \"#utility.yul\":621:684   */\n    tag_238:\n        /* \"#utility.yul\":568:690   */\n      pop\n      jump\t// out\n        /* \"#utility.yul\":696:835   */\n    tag_176:\n        /* \"#utility.yul\":742:747   */\n      0x00\n        /* \"#utility.yul\":780:786   */\n      dup2\n        /* \"#utility.yul\":767:787   */\n      calldataload\n        /* \"#utility.yul\":758:787   */\n      swap1\n      pop\n        /* \"#utility.yul\":796:829   */\n      tag_240\n        /* \"#utility.yul\":823:828   */\n      dup2\n        /* \"#utility.yul\":796:829   */\n      tag_175\n      jump\t// in\n    tag_240:\n        /* \"#utility.yul\":696:835   */\n      swap3\n      swap2\n      pop\n      pop\n      jump\t// out\n        /* \"#utility.yul\":841:1170   */\n    tag_20:\n        /* \"#utility.yul\":900:906   */\n      0x00\n        /* \"#utility.yul\":949:951   */\n      0x20\n        /* \"#utility.yul\":937:946   */\n      dup3\n        /* \"#utility.yul\":928:935   */\n      dup5\n        /* \"#utility.yul\":924:947   */\n      sub\n        /* \"#utility.yul\":920:952   */\n      slt\n        /* \"#utility.yul\":917:1036   */\n      iszero\n      tag_242\n      jumpi\n        /* \"#utility.yul\":955:1034   */\n      tag_243\n      tag_171\n      jump\t// in\n    tag_243:\n        /* \"#utility.yul\":917:1036   */\n    tag_242:\n        /* \"#utility.yul\":1075:1076   */\n      0x00\n        /* \"#utility.yul\":1100:1153   */\n      tag_244\n        /* \"#utility.yul\":1145:1152   */\n      dup5\n        /* \"#utility.yul\":1136:1142   */\n      dup3\n        /* \"#utility.yul\":1125:1134   */\n      dup6\n        /* \"#utility.yul\":1121:1143   */\n      add\n        /* \"#utility.yul\":1100:1153   */\n      tag_176\n      jump\t// in\n    tag_244:\n        /* \"#utility.yul\":1090:1153   */\n      swap2\n      pop\n        /* \"#utility.yul\":1046:1163   */\n      pop\n        /* \"#utility.yul\":841:1170   */\n      swap3\n      swap2\n      pop\n      pop\n      jump\t// out\n        /* \"#utility.yul\":1176:1253   */\n    tag_177:\n        /* \"#utility.yul\":1213:1220   */\n      0x00\n        /* \"#utility.yul\":1242:1247   */\n      dup2\n        /* \"#utility.yul\":1231:1247   */\n      swap1\n      pop\n        /* \"#utility.yul\":1176:1253   */\n      swap2\n      swap1\n      pop\n      jump\t// out\n        /* \"#utility.yul\":1259:1377   */\n    tag_178:\n        /* \"#utility.yul\":1346:1370   */\n      tag_247\n        /* \"#utility.yul\":1364:1369   */\n      dup2\n        /* \"#utility.yul\":1346:1370   */\n      tag_177\n      jump\t// in\n    tag_247:\n        /* \"#utility.yul\":1341:1344   */\n      dup3\n        /* \"#utility.yul\":1334:1371   */\n      mstore\n        /* \"#utility.yul\":1259:1377   */\n      pop\n      pop\n      jump\t// out\n        /* \"#utility.yul\":1383:1605   */\n    tag_23:\n        /* \"#utility.yul\":1476:1480   */\n      0x00\n        /* \"#utility.yul\":1514:1516   */\n      0x20\n        /* \"#utility.yul\":1503:1512   */\n      dup3\n        /* \"#utility.yul\":1499:1517   */\n      add\n        /* \"#utility.yul\":1491:1517   */\n      swap1\n      pop\n        /* \"#utility.yul\":1527:1598   */\n      tag_249\n        /* \"#utility.yul\":1595:1596   */\n      0x00\n        /* \"#utility.yul\":1584:1593   */\n      dup4\n        /* \"#utility.yul\":1580:1597   */\n      add\n        /* \"#utility.yul\":1571:1577   */\n      dup5\n        /* \"#utility.yul\":1527:1598   */\n      tag_178\n      jump\t// in\n    tag_249:\n        /* \"#utility.yul\":1383:1605   */\n      swap3\n      swap2\n      pop\n      pop\n      jump\t// out\n        /* \"#utility.yul\":1611:1710   */\n    tag_179:\n        /* \"#utility.yul\":1663:1669   */\n      0x00\n        /* \"#utility.yul\":1697:1702   */\n      dup2\n        /* \"#utility.yul\":1691:1703   */\n      mload\n        /* \"#utility.yul\":1681:1703   */\n      swap1\n      pop\n        /* \"#utility.yul\":1611:1710   */\n      swap2\n      swap1\n      pop\n      jump\t// out\n        /* \"#utility.yul\":1716:1885   */\n    tag_180:\n        /* \"#utility.yul\":1800:1811   */\n      0x00\n        /* \"#utility.yul\":1834:1840   */\n      dup3\n        /* \"#utility.yul\":1829:1832   */\n      dup3\n        /* \"#utility.yul\":1822:1841   */\n      mstore\n        /* \"#utility.yul\":1874:1878   */\n      0x20\n        /* \"#utility.yul\":1869:1872   */\n      dup3\n        /* \"#utility.yul\":1865:1879   */\n      add\n        /* \"#utility.yul\":1850:1879   */\n      swap1\n      pop\n        /* \"#utility.yul\":1716:1885   */\n      swap3\n      swap2\n      pop\n      pop\n      jump\t// out\n        /* \"#utility.yul\":1891:2137   */\n    tag_181:\n        /* \"#utility.yul\":1972:1973   */\n      0x00\n        /* \"#utility.yul\":1982:2095   */\n    tag_253:\n        /* \"#utility.yul\":1996:2002   */\n      dup4\n        /* \"#utility.yul\":1993:1994   */\n      dup2\n        /* \"#utility.yul\":1990:2003   */\n      lt\n        /* \"#utility.yul\":1982:2095   */\n      iszero\n      tag_255\n      jumpi\n        /* \"#utility.yul\":2081:2082   */\n      dup1\n        /* \"#utility.yul\":2076:2079   */\n      dup3\n        /* \"#utility.yul\":2072:2083   */\n      add\n        /* \"#utility.yul\":2066:2084   */\n      mload\n        /* \"#utility.yul\":2062:2063   */\n      dup2\n        /* \"#utility.yul\":2057:2060   */\n      dup5\n        /* \"#utility.yul\":2053:2064   */\n      add\n        /* \"#utility.yul\":2046:2085   */\n      mstore\n        /* \"#utility.yul\":2018:2020   */\n      0x20\n        /* \"#utility.yul\":2015:2016   */\n      dup2\n        /* \"#utility.yul\":2011:2021   */\n      add\n        /* \"#utility.yul\":2006:2021   */\n      swap1\n      pop\n        /* \"#utility.yul\":1982:2095   */\n      jump(tag_253)\n    tag_255:\n        /* \"#utility.yul\":2129:2130   */\n      0x00\n        /* \"#utility.yul\":2120:2126   */\n      dup5\n        /* \"#utility.yul\":2115:2118   */\n      dup5\n        /* \"#utility.yul\":2111:2127   */\n      add\n        /* \"#utility.yul\":2104:2131   */\n      mstore\n        /* \"#utility.yul\":1953:2137   */\n      pop\n        /* \"#utility.yul\":1891:2137   */\n      pop\n      pop\n      pop\n      jump\t// out\n        /* \"#utility.yul\":2143:2245   */\n    tag_182:\n        /* \"#utility.yul\":2184:2190   */\n      0x00\n        /* \"#utility.yul\":2235:2237   */\n      0x1f\n        /* \"#utility.yul\":2231:2238   */\n      not\n        /* \"#utility.yul\":2226:2228   */\n      0x1f\n        /* \"#utility.yul\":2219:2224   */\n      dup4\n        /* \"#utility.yul\":2215:2229   */\n      add\n        /* \"#utility.yul\":2211:2239   */\n      and\n        /* \"#utility.yul\":2201:2239   */\n      swap1\n      pop\n        /* \"#utility.yul\":2143:2245   */\n      swap2\n      swap1\n      pop\n      jump\t// out\n        /* \"#utility.yul\":2251:2628   */\n    tag_183:\n        /* \"#utility.yul\":2339:2342   */\n      0x00\n        /* \"#utility.yul\":2367:2406   */\n      tag_258\n        /* \"#utility.yul\":2400:2405   */\n      dup3\n        /* \"#utility.yul\":2367:2406   */\n      tag_179\n      jump\t// in\n    tag_258:\n        /* \"#utility.yul\":2422:2493   */\n      tag_259\n        /* \"#utility.yul\":2486:2492   */\n      dup2\n        /* \"#utility.yul\":2481:2484   */\n      dup6\n        /* \"#utility.yul\":2422:2493   */\n      tag_180\n      jump\t// in\n    tag_259:\n        /* \"#utility.yul\":2415:2493   */\n      swap4\n      pop\n        /* \"#utility.yul\":2502:2567   */\n      tag_260\n        /* \"#utility.yul\":2560:2566   */\n      dup2\n        /* \"#utility.yul\":2555:2558   */\n      dup6\n        /* \"#utility.yul\":2548:2552   */\n      0x20\n        /* \"#utility.yul\":2541:2546   */\n      dup7\n        /* \"#utility.yul\":2537:2553   */\n      add\n        /* \"#utility.yul\":2502:2567   */\n      tag_181\n      jump\t// in\n    tag_260:\n        /* \"#utility.yul\":2592:2621   */\n      tag_261\n        /* \"#utility.yul\":2614:2620   */\n      dup2\n        /* \"#utility.yul\":2592:2621   */\n      tag_182\n      jump\t// in\n    tag_261:\n        /* \"#utility.yul\":2587:2590   */\n      dup5\n        /* \"#utility.yul\":2583:2622   */\n      add\n        /* \"#utility.yul\":2576:2622   */\n      swap2\n      pop\n        /* \"#utility.yul\":2343:2628   */\n      pop\n        /* \"#utility.yul\":2251:2628   */\n      swap3\n      swap2\n      pop\n      pop\n      jump\t// out\n        /* \"#utility.yul\":2634:2947   */\n    tag_28:\n        /* \"#utility.yul\":2747:2751   */\n      0x00\n        /* \"#utility.yul\":2785:2787   */\n      0x20\n        /* \"#utility.yul\":2774:2783   */\n      dup3\n        /* \"#utility.yul\":2770:2788   */\n      add\n        /* \"#utility.yul\":2762:2788   */\n      swap1\n      pop\n        /* \"#utility.yul\":2834:2843   */\n      dup2\n        /* \"#utility.yul\":2828:2832   */\n      dup2\n        /* \"#utility.yul\":2824:2844   */\n      sub\n        /* \"#utility.yul\":2820:2821   */\n      0x00\n        /* \"#utility.yul\":2809:2818   */\n      dup4\n        /* \"#utility.yul\":2805:2822   */\n      add\n        /* \"#utility.yul\":2798:2845   */\n      mstore\n        /* \"#utility.yul\":2862:2940   */\n      tag_263\n        /* \"#utility.yul\":2935:2939   */\n      dup2\n        /* \"#utility.yul\":2926:2932   */\n      dup5\n        /* \"#utility.yul\":2862:2940   */\n      tag_183\n      jump\t// in\n    tag_263:\n        /* \"#utility.yul\":2854:2940   */\n      swap1\n      pop\n        /* \"#utility.yul\":2634:2947   */\n      swap3\n      swap2\n      pop\n      pop\n      jump\t// out\n        /* \"#utility.yul\":2953:3070   */\n    tag_184:\n        /* \"#utility.yul\":3062:3063   */\n      0x00\n        /* \"#utility.yul\":3059:3060   */\n      dup1\n        /* \"#utility.yul\":3052:3064   */\n      revert\n        /* \"#utility.yul\":3076:3193   */\n    tag_185:\n        /* \"#utility.yul\":3185:3186   */\n      0x00\n        /* \"#utility.yul\":3182:3183   */\n      dup1\n        /* \"#utility.yul\":3175:3187   */\n      revert\n        /* \"#utility.yul\":3199:3379   */\n    tag_186:\n        /* \"#utility.yul\":3247:3324   */\n      0x4e487b7100000000000000000000000000000000000000000000000000000000\n        /* \"#utility.yul\":3244:3245   */\n      0x00\n        /* \"#utility.yul\":3237:3325   */\n      mstore\n        /* \"#utility.yul\":3344:3348   */\n      0x41\n        /* \"#utility.yul\":3341:3342   */\n      0x04\n        /* \"#utility.yul\":3334:3349   */\n      mstore\n        /* \"#utility.yul\":3368:3372   */\n      0x24\n        /* \"#utility.yul\":3365:3366   */\n      0x00\n        /* \"#utility.yul\":3358:3373   */\n      revert\n        /* \"#utility.yul\":3385:3666   */\n    tag_187:\n        /* \"#utility.yul\":3468:3495   */\n      tag_268\n        /* \"#utility.yul\":3490:3494   */\n      dup3\n        /* \"#utility.yul\":3468:3495   */\n      tag_182\n      jump\t// in\n    tag_268:\n        /* \"#utility.yul\":3460:3466   */\n      dup2\n        /* \"#utility.yul\":3456:3496   */\n      add\n        /* \"#utility.yul\":3598:3604   */\n      dup2\n        /* \"#utility.yul\":3586:3596   */\n      dup2\n        /* \"#utility.yul\":3583:3605   */\n      lt\n        /* \"#utility.yul\":3562:3580   */\n      0xffffffffffffffff\n        /* \"#utility.yul\":3550:3560   */\n      dup3\n        /* \"#utility.yul\":3547:3581   */\n      gt\n        /* \"#utility.yul\":3544:3606   */\n      or\n        /* \"#utility.yul\":3541:3629   */\n      iszero\n      tag_269\n      jumpi\n        /* \"#utility.yul\":3609:3627   */\n      tag_270\n      tag_186\n      jump\t// in\n    tag_270:\n        /* \"#utility.yul\":3541:3629   */\n    tag_269:\n        /* \"#utility.yul\":3649:3659   */\n      dup1\n        /* \"#utility.yul\":3645:3647   */\n      0x40\n        /* \"#utility.yul\":3638:3660   */\n      mstore\n        /* \"#utility.yul\":3428:3666   */\n      pop\n        /* \"#utility.yul\":3385:3666   */\n      pop\n      pop\n      jump\t// out\n        /* \"#utility.yul\":3672:3801   */\n    tag_188:\n        /* \"#utility.yul\":3706:3712   */\n      0x00\n        /* \"#utility.yul\":3733:3753   */\n      tag_272\n      tag_170\n      jump\t// in\n    tag_272:\n        /* \"#utility.yul\":3723:3753   */\n      swap1\n      pop\n        /* \"#utility.yul\":3762:3795   */\n      tag_273\n        /* \"#utility.yul\":3790:3794   */\n      dup3\n        /* \"#utility.yul\":3782:3788   */\n      dup3\n        /* \"#utility.yul\":3762:3795   */\n      tag_187\n      jump\t// in\n    tag_273:\n        /* \"#utility.yul\":3672:3801   */\n      swap2\n      swap1\n      pop\n      jump\t// out\n        /* \"#utility.yul\":3807:4115   */\n    tag_189:\n        /* \"#utility.yul\":3869:3873   */\n      0x00\n        /* \"#utility.yul\":3959:3977   */\n      0xffffffffffffffff\n        /* \"#utility.yul\":3951:3957   */\n      dup3\n        /* \"#utility.yul\":3948:3978   */\n      gt\n        /* \"#utility.yul\":3945:4001   */\n      iszero\n      tag_275\n      jumpi\n        /* \"#utility.yul\":3981:3999   */\n      tag_276\n      tag_186\n      jump\t// in\n    tag_276:\n        /* \"#utility.yul\":3945:4001   */\n    tag_275:\n        /* \"#utility.yul\":4019:4048   */\n      tag_277\n        /* \"#utility.yul\":4041:4047   */\n      dup3\n        /* \"#utility.yul\":4019:4048   */\n      tag_182\n      jump\t// in\n    tag_277:\n        /* \"#utility.yul\":4011:4048   */\n      swap1\n      pop\n        /* \"#utility.yul\":4103:4107   */\n      0x20\n        /* \"#utility.yul\":4097:4101   */\n      dup2\n        /* \"#utility.yul\":4093:4108   */\n      add\n        /* \"#utility.yul\":4085:4108   */\n      swap1\n      pop\n        /* \"#utility.yul\":3807:4115   */\n      swap2\n      swap1\n      pop\n      jump\t// out\n        /* \"#utility.yul\":4121:4267   */\n    tag_190:\n        /* \"#utility.yul\":4218:4224   */\n      dup3\n        /* \"#utility.yul\":4213:4216   */\n      dup2\n        /* \"#utility.yul\":4208:4211   */\n      dup4\n        /* \"#utility.yul\":4195:4225   */\n      calldatacopy\n        /* \"#utility.yul\":4259:4260   */\n      0x00\n        /* \"#utility.yul\":4250:4256   */\n      dup4\n        /* \"#utility.yul\":4245:4248   */\n      dup4\n        /* \"#utility.yul\":4241:4257   */\n      add\n        /* \"#utility.yul\":4234:4261   */\n      mstore\n        /* \"#utility.yul\":4121:4267   */\n      pop\n      pop\n      pop\n      jump\t// out\n        /* \"#utility.yul\":4273:4698   */\n    tag_191:\n        /* \"#utility.yul\":4351:4356   */\n      0x00\n        /* \"#utility.yul\":4376:4442   */\n      tag_280\n        /* \"#utility.yul\":4392:4441   */\n      tag_281\n        /* \"#utility.yul\":4434:4440   */\n      dup5\n        /* \"#utility.yul\":4392:4441   */\n      tag_189\n      jump\t// in\n    tag_281:\n        /* \"#utility.yul\":4376:4442   */\n      tag_188\n      jump\t// in\n    tag_280:\n        /* \"#utility.yul\":4367:4442   */\n      swap1\n      pop\n        /* \"#utility.yul\":4465:4471   */\n      dup3\n        /* \"#utility.yul\":4458:4463   */\n      dup2\n        /* \"#utility.yul\":4451:4472   */\n      mstore\n        /* \"#utility.yul\":4503:4507   */\n      0x20\n        /* \"#utility.yul\":4496:4501   */\n      dup2\n        /* \"#utility.yul\":4492:4508   */\n      add\n        /* \"#utility.yul\":4541:4544   */\n      dup5\n        /* \"#utility.yul\":4532:4538   */\n      dup5\n        /* \"#utility.yul\":4527:4530   */\n      dup5\n        /* \"#utility.yul\":4523:4539   */\n      add\n        /* \"#utility.yul\":4520:4545   */\n      gt\n        /* \"#utility.yul\":4517:4629   */\n      iszero\n      tag_282\n      jumpi\n        /* \"#utility.yul\":4548:4627   */\n      tag_283\n      tag_185\n      jump\t// in\n    tag_283:\n        /* \"#utility.yul\":4517:4629   */\n    tag_282:\n        /* \"#utility.yul\":4638:4692   */\n      tag_284\n        /* \"#utility.yul\":4685:4691   */\n      dup5\n        /* \"#utility.yul\":4680:4683   */\n      dup3\n        /* \"#utility.yul\":4675:4678   */\n      dup6\n        /* \"#utility.yul\":4638:4692   */\n      tag_190\n      jump\t// in\n    tag_284:\n        /* \"#utility.yul\":4357:4698   */\n      pop\n        /* \"#utility.yul\":4273:4698   */\n      swap4\n      swap3\n      pop\n      pop\n      pop\n      jump\t// out\n        /* \"#utility.yul\":4718:5058   */\n    tag_192:\n        /* \"#utility.yul\":4774:4779   */\n      0x00\n        /* \"#utility.yul\":4823:4826   */\n      dup3\n        /* \"#utility.yul\":4816:4820   */\n      0x1f\n        /* \"#utility.yul\":4808:4814   */\n      dup4\n        /* \"#utility.yul\":4804:4821   */\n      add\n        /* \"#utility.yul\":4800:4827   */\n      slt\n        /* \"#utility.yul\":4790:4912   */\n      tag_286\n      jumpi\n        /* \"#utility.yul\":4831:4910   */\n      tag_287\n      tag_184\n      jump\t// in\n    tag_287:\n        /* \"#utility.yul\":4790:4912   */\n    tag_286:\n        /* \"#utility.yul\":4948:4954   */\n      dup2\n        /* \"#utility.yul\":4935:4955   */\n      calldataload\n        /* \"#utility.yul\":4973:5052   */\n      tag_288\n        /* \"#utility.yul\":5048:5051   */\n      dup5\n        /* \"#utility.yul\":5040:5046   */\n      dup3\n        /* \"#utility.yul\":5033:5037   */\n      0x20\n        /* \"#utility.yul\":5025:5031   */\n      dup7\n        /* \"#utility.yul\":5021:5038   */\n      add\n        /* \"#utility.yul\":4973:5052   */\n      tag_191\n      jump\t// in\n    tag_288:\n        /* \"#utility.yul\":4964:5052   */\n      swap2\n      pop\n        /* \"#utility.yul\":4780:5058   */\n      pop\n        /* \"#utility.yul\":4718:5058   */\n      swap3\n      swap2\n      pop\n      pop\n      jump\t// out\n        /* \"#utility.yul\":5064:5154   */\n    tag_193:\n        /* \"#utility.yul\":5098:5105   */\n      0x00\n        /* \"#utility.yul\":5141:5146   */\n      dup2\n        /* \"#utility.yul\":5134:5147   */\n      iszero\n        /* \"#utility.yul\":5127:5148   */\n      iszero\n        /* \"#utility.yul\":5116:5148   */\n      swap1\n      pop\n        /* \"#utility.yul\":5064:5154   */\n      swap2\n      swap1\n      pop\n      jump\t// out\n        /* \"#utility.yul\":5160:5276   */\n    tag_194:\n        /* \"#utility.yul\":5230:5251   */\n      tag_291\n        /* \"#utility.yul\":5245:5250   */\n      dup2\n        /* \"#utility.yul\":5230:5251   */\n      tag_193\n      jump\t// in\n    tag_291:\n        /* \"#utility.yul\":5223:5228   */\n      dup2\n        /* \"#utility.yul\":5220:5252   */\n      eq\n        /* \"#utility.yul\":5210:5270   */\n      tag_292\n      jumpi\n        /* \"#utility.yul\":5266:5267   */\n      0x00\n        /* \"#utility.yul\":5263:5264   */\n      dup1\n        /* \"#utility.yul\":5256:5268   */\n      revert\n        /* \"#utility.yul\":5210:5270   */\n    tag_292:\n        /* \"#utility.yul\":5160:5276   */\n      pop\n      jump\t// out\n        /* \"#utility.yul\":5282:5415   */\n    tag_195:\n        /* \"#utility.yul\":5325:5330   */\n      0x00\n        /* \"#utility.yul\":5363:5369   */\n      dup2\n        /* \"#utility.yul\":5350:5370   */\n      calldataload\n        /* \"#utility.yul\":5341:5370   */\n      swap1\n      pop\n        /* \"#utility.yul\":5379:5409   */\n      tag_294\n        /* \"#utility.yul\":5403:5408   */\n      dup2\n        /* \"#utility.yul\":5379:5409   */\n      tag_194\n      jump\t// in\n    tag_294:\n        /* \"#utility.yul\":5282:5415   */\n      swap3\n      swap2\n      pop\n      pop\n      jump\t// out\n        /* \"#utility.yul\":5421:6069   */\n    tag_32:\n        /* \"#utility.yul\":5496:5502   */\n      0x00\n        /* \"#utility.yul\":5504:5510   */\n      dup1\n        /* \"#utility.yul\":5553:5555   */\n      0x40\n        /* \"#utility.yul\":5541:5550   */\n      dup4\n        /* \"#utility.yul\":5532:5539   */\n      dup6\n        /* \"#utility.yul\":5528:5551   */\n      sub\n        /* \"#utility.yul\":5524:5556   */\n      slt\n        /* \"#utility.yul\":5521:5640   */\n      iszero\n      tag_296\n      jumpi\n        /* \"#utility.yul\":5559:5638   */\n      tag_297\n      tag_171\n      jump\t// in\n    tag_297:\n        /* \"#utility.yul\":5521:5640   */\n    tag_296:\n        /* \"#utility.yul\":5707:5708   */\n      0x00\n        /* \"#utility.yul\":5696:5705   */\n      dup4\n        /* \"#utility.yul\":5692:5709   */\n      add\n        /* \"#utility.yul\":5679:5710   */\n      calldataload\n        /* \"#utility.yul\":5737:5755   */\n      0xffffffffffffffff\n        /* \"#utility.yul\":5729:5735   */\n      dup2\n        /* \"#utility.yul\":5726:5756   */\n      gt\n        /* \"#utility.yul\":5723:5840   */\n      iszero\n      tag_298\n      jumpi\n        /* \"#utility.yul\":5759:5838   */\n      tag_299\n      tag_172\n      jump\t// in\n    tag_299:\n        /* \"#utility.yul\":5723:5840   */\n    tag_298:\n        /* \"#utility.yul\":5864:5927   */\n      tag_300\n        /* \"#utility.yul\":5919:5926   */\n      dup6\n        /* \"#utility.yul\":5910:5916   */\n      dup3\n        /* \"#utility.yul\":5899:5908   */\n      dup7\n        /* \"#utility.yul\":5895:5917   */\n      add\n        /* \"#utility.yul\":5864:5927   */\n      tag_192\n      jump\t// in\n    tag_300:\n        /* \"#utility.yul\":5854:5927   */\n      swap3\n      pop\n        /* \"#utility.yul\":5650:5937   */\n      pop\n        /* \"#utility.yul\":5976:5978   */\n      0x20\n        /* \"#utility.yul\":6002:6052   */\n      tag_301\n        /* \"#utility.yul\":6044:6051   */\n      dup6\n        /* \"#utility.yul\":6035:6041   */\n      dup3\n        /* \"#utility.yul\":6024:6033   */\n      dup7\n        /* \"#utility.yul\":6020:6042   */\n      add\n        /* \"#utility.yul\":6002:6052   */\n      tag_195\n      jump\t// in\n    tag_301:\n        /* \"#utility.yul\":5992:6052   */\n      swap2\n      pop\n        /* \"#utility.yul\":5947:6062   */\n      pop\n        /* \"#utility.yul\":5421:6069   */\n      swap3\n      pop\n      swap3\n      swap1\n      pop\n      jump\t// out\n        /* \"#utility.yul\":6075:6183   */\n    tag_196:\n        /* \"#utility.yul\":6152:6176   */\n      tag_303\n        /* \"#utility.yul\":6170:6175   */\n      dup2\n        /* \"#utility.yul\":6152:6176   */\n      tag_174\n      jump\t// in\n    tag_303:\n        /* \"#utility.yul\":6147:6150   */\n      dup3\n        /* \"#utility.yul\":6140:6177   */\n      mstore\n        /* \"#utility.yul\":6075:6183   */\n      pop\n      pop\n      jump\t// out\n        /* \"#utility.yul\":6189:6348   */\n    tag_197:\n        /* \"#utility.yul\":6263:6274   */\n      0x00\n        /* \"#utility.yul\":6297:6303   */\n      dup3\n        /* \"#utility.yul\":6292:6295   */\n      dup3\n        /* \"#utility.yul\":6285:6304   */\n      mstore\n        /* \"#utility.yul\":6337:6341   */\n      0x20\n        /* \"#utility.yul\":6332:6335   */\n      dup3\n        /* \"#utility.yul\":6328:6342   */\n      add\n        /* \"#utility.yul\":6313:6342   */\n      swap1\n      pop\n        /* \"#utility.yul\":6189:6348   */\n      swap3\n      swap2\n      pop\n      pop\n      jump\t// out\n        /* \"#utility.yul\":6354:6711   */\n    tag_198:\n        /* \"#utility.yul\":6432:6435   */\n      0x00\n        /* \"#utility.yul\":6460:6499   */\n      tag_306\n        /* \"#utility.yul\":6493:6498   */\n      dup3\n        /* \"#utility.yul\":6460:6499   */\n      tag_179\n      jump\t// in\n    tag_306:\n        /* \"#utility.yul\":6515:6576   */\n      tag_307\n        /* \"#utility.yul\":6569:6575   */\n      dup2\n        /* \"#utility.yul\":6564:6567   */\n      dup6\n        /* \"#utility.yul\":6515:6576   */\n      tag_197\n      jump\t// in\n    tag_307:\n        /* \"#utility.yul\":6508:6576   */\n      swap4\n      pop\n        /* \"#utility.yul\":6585:6650   */\n      tag_308\n        /* \"#utility.yul\":6643:6649   */\n      dup2\n        /* \"#utility.yul\":6638:6641   */\n      dup6\n        /* \"#utility.yul\":6631:6635   */\n      0x20\n        /* \"#utility.yul\":6624:6629   */\n      dup7\n        /* \"#utility.yul\":6620:6636   */\n      add\n        /* \"#utility.yul\":6585:6650   */\n      tag_181\n      jump\t// in\n    tag_308:\n        /* \"#utility.yul\":6675:6704   */\n      tag_309\n        /* \"#utility.yul\":6697:6703   */\n      dup2\n        /* \"#utility.yul\":6675:6704   */\n      tag_182\n      jump\t// in\n    tag_309:\n        /* \"#utility.yul\":6670:6673   */\n      dup5\n        /* \"#utility.yul\":6666:6705   */\n      add\n        /* \"#utility.yul\":6659:6705   */\n      swap2\n      pop\n        /* \"#utility.yul\":6436:6711   */\n      pop\n        /* \"#utility.yul\":6354:6711   */\n      swap3\n      swap2\n      pop\n      pop\n      jump\t// out\n        /* \"#utility.yul\":6717:6825   */\n    tag_199:\n        /* \"#utility.yul\":6794:6818   */\n      tag_311\n        /* \"#utility.yul\":6812:6817   */\n      dup2\n        /* \"#utility.yul\":6794:6818   */\n      tag_177\n      jump\t// in\n    tag_311:\n        /* \"#utility.yul\":6789:6792   */\n      dup3\n        /* \"#utility.yul\":6782:6819   */\n      mstore\n        /* \"#utility.yul\":6717:6825   */\n      pop\n      pop\n      jump\t// out\n        /* \"#utility.yul\":6889:8292   */\n    tag_200:\n        /* \"#utility.yul\":7006:7009   */\n      0x00\n        /* \"#utility.yul\":7042:7046   */\n      0xc0\n        /* \"#utility.yul\":7037:7040   */\n      dup4\n        /* \"#utility.yul\":7033:7047   */\n      add\n        /* \"#utility.yul\":7132:7136   */\n      0x00\n        /* \"#utility.yul\":7125:7130   */\n      dup4\n        /* \"#utility.yul\":7121:7137   */\n      add\n        /* \"#utility.yul\":7115:7138   */\n      mload\n        /* \"#utility.yul\":7151:7214   */\n      tag_313\n        /* \"#utility.yul\":7208:7212   */\n      0x00\n        /* \"#utility.yul\":7203:7206   */\n      dup7\n        /* \"#utility.yul\":7199:7213   */\n      add\n        /* \"#utility.yul\":7185:7197   */\n      dup3\n        /* \"#utility.yul\":7151:7214   */\n      tag_196\n      jump\t// in\n    tag_313:\n        /* \"#utility.yul\":7057:7224   */\n      pop\n        /* \"#utility.yul\":7306:7310   */\n      0x20\n        /* \"#utility.yul\":7299:7304   */\n      dup4\n        /* \"#utility.yul\":7295:7311   */\n      add\n        /* \"#utility.yul\":7289:7312   */\n      mload\n        /* \"#utility.yul\":7359:7362   */\n      dup5\n        /* \"#utility.yul\":7353:7357   */\n      dup3\n        /* \"#utility.yul\":7349:7363   */\n      sub\n        /* \"#utility.yul\":7342:7346   */\n      0x20\n        /* \"#utility.yul\":7337:7340   */\n      dup7\n        /* \"#utility.yul\":7333:7347   */\n      add\n        /* \"#utility.yul\":7326:7364   */\n      mstore\n        /* \"#utility.yul\":7385:7458   */\n      tag_314\n        /* \"#utility.yul\":7453:7457   */\n      dup3\n        /* \"#utility.yul\":7439:7451   */\n      dup3\n        /* \"#utility.yul\":7385:7458   */\n      tag_198\n      jump\t// in\n    tag_314:\n        /* \"#utility.yul\":7377:7458   */\n      swap2\n      pop\n        /* \"#utility.yul\":7234:7469   */\n      pop\n        /* \"#utility.yul\":7558:7562   */\n      0x40\n        /* \"#utility.yul\":7551:7556   */\n      dup4\n        /* \"#utility.yul\":7547:7563   */\n      add\n        /* \"#utility.yul\":7541:7564   */\n      mload\n        /* \"#utility.yul\":7611:7614   */\n      dup5\n        /* \"#utility.yul\":7605:7609   */\n      dup3\n        /* \"#utility.yul\":7601:7615   */\n      sub\n        /* \"#utility.yul\":7594:7598   */\n      0x40\n        /* \"#utility.yul\":7589:7592   */\n      dup7\n        /* \"#utility.yul\":7585:7599   */\n      add\n        /* \"#utility.yul\":7578:7616   */\n      mstore\n        /* \"#utility.yul\":7637:7710   */\n      tag_315\n        /* \"#utility.yul\":7705:7709   */\n      dup3\n        /* \"#utility.yul\":7691:7703   */\n      dup3\n        /* \"#utility.yul\":7637:7710   */\n      tag_198\n      jump\t// in\n    tag_315:\n        /* \"#utility.yul\":7629:7710   */\n      swap2\n      pop\n        /* \"#utility.yul\":7479:7721   */\n      pop\n        /* \"#utility.yul\":7814:7818   */\n      0x60\n        /* \"#utility.yul\":7807:7812   */\n      dup4\n        /* \"#utility.yul\":7803:7819   */\n      add\n        /* \"#utility.yul\":7797:7820   */\n      mload\n        /* \"#utility.yul\":7833:7896   */\n      tag_316\n        /* \"#utility.yul\":7890:7894   */\n      0x60\n        /* \"#utility.yul\":7885:7888   */\n      dup7\n        /* \"#utility.yul\":7881:7895   */\n      add\n        /* \"#utility.yul\":7867:7879   */\n      dup3\n        /* \"#utility.yul\":7833:7896   */\n      tag_199\n      jump\t// in\n    tag_316:\n        /* \"#utility.yul\":7731:7906   */\n      pop\n        /* \"#utility.yul\":7991:7995   */\n      0x80\n        /* \"#utility.yul\":7984:7989   */\n      dup4\n        /* \"#utility.yul\":7980:7996   */\n      add\n        /* \"#utility.yul\":7974:7997   */\n      mload\n        /* \"#utility.yul\":8010:8073   */\n      tag_317\n        /* \"#utility.yul\":8067:8071   */\n      0x80\n        /* \"#utility.yul\":8062:8065   */\n      dup7\n        /* \"#utility.yul\":8058:8072   */\n      add\n        /* \"#utility.yul\":8044:8056   */\n      dup3\n        /* \"#utility.yul\":8010:8073   */\n      tag_199\n      jump\t// in\n    tag_317:\n        /* \"#utility.yul\":7916:8083   */\n      pop\n        /* \"#utility.yul\":8173:8177   */\n      0xa0\n        /* \"#utility.yul\":8166:8171   */\n      dup4\n        /* \"#utility.yul\":8162:8178   */\n      add\n        /* \"#utility.yul\":8156:8179   */\n      mload\n        /* \"#utility.yul\":8192:8255   */\n      tag_318\n        /* \"#utility.yul\":8249:8253   */\n      0xa0\n        /* \"#utility.yul\":8244:8247   */\n      dup7\n        /* \"#utility.yul\":8240:8254   */\n      add\n        /* \"#utility.yul\":8226:8238   */\n      dup3\n        /* \"#utility.yul\":8192:8255   */\n      tag_199\n      jump\t// in\n    tag_318:\n        /* \"#utility.yul\":8093:8265   */\n      pop\n        /* \"#utility.yul\":8282:8286   */\n      dup1\n        /* \"#utility.yul\":8275:8286   */\n      swap2\n      pop\n        /* \"#utility.yul\":7011:8292   */\n      pop\n        /* \"#utility.yul\":6889:8292   */\n      swap3\n      swap2\n      pop\n      pop\n      jump\t// out\n        /* \"#utility.yul\":8298:8667   */\n    tag_38:\n        /* \"#utility.yul\":8439:8443   */\n      0x00\n        /* \"#utility.yul\":8477:8479   */\n      0x20\n        /* \"#utility.yul\":8466:8475   */\n      dup3\n        /* \"#utility.yul\":8462:8480   */\n      add\n        /* \"#utility.yul\":8454:8480   */\n      swap1\n      pop\n        /* \"#utility.yul\":8526:8535   */\n      dup2\n        /* \"#utility.yul\":8520:8524   */\n      dup2\n        /* \"#utility.yul\":8516:8536   */\n      sub\n        /* \"#utility.yul\":8512:8513   */\n      0x00\n        /* \"#utility.yul\":8501:8510   */\n      dup4\n        /* \"#utility.yul\":8497:8514   */\n      add\n        /* \"#utility.yul\":8490:8537   */\n      mstore\n        /* \"#utility.yul\":8554:8660   */\n      tag_320\n        /* \"#utility.yul\":8655:8659   */\n      dup2\n        /* \"#utility.yul\":8646:8652   */\n      dup5\n        /* \"#utility.yul\":8554:8660   */\n      tag_200\n      jump\t// in\n    tag_320:\n        /* \"#utility.yul\":8546:8660   */\n      swap1\n      pop\n        /* \"#utility.yul\":8298:8667   */\n      swap3\n      swap2\n      pop\n      pop\n      jump\t// out\n        /* \"#utility.yul\":8673:9182   */\n    tag_42:\n        /* \"#utility.yul\":8742:8748   */\n      0x00\n        /* \"#utility.yul\":8791:8793   */\n      0x20\n        /* \"#utility.yul\":8779:8788   */\n      dup3\n        /* \"#utility.yul\":8770:8777   */\n      dup5\n        /* \"#utility.yul\":8766:8789   */\n      sub\n        /* \"#utility.yul\":8762:8794   */\n      slt\n        /* \"#utility.yul\":8759:8878   */\n      iszero\n      tag_322\n      jumpi\n        /* \"#utility.yul\":8797:8876   */\n      tag_323\n      tag_171\n      jump\t// in\n    tag_323:\n        /* \"#utility.yul\":8759:8878   */\n    tag_322:\n        /* \"#utility.yul\":8945:8946   */\n      0x00\n        /* \"#utility.yul\":8934:8943   */\n      dup3\n        /* \"#utility.yul\":8930:8947   */\n      add\n        /* \"#utility.yul\":8917:8948   */\n      calldataload\n        /* \"#utility.yul\":8975:8993   */\n      0xffffffffffffffff\n        /* \"#utility.yul\":8967:8973   */\n      dup2\n        /* \"#utility.yul\":8964:8994   */\n      gt\n        /* \"#utility.yul\":8961:9078   */\n      iszero\n      tag_324\n      jumpi\n        /* \"#utility.yul\":8997:9076   */\n      tag_325\n      tag_172\n      jump\t// in\n    tag_325:\n        /* \"#utility.yul\":8961:9078   */\n    tag_324:\n        /* \"#utility.yul\":9102:9165   */\n      tag_326\n        /* \"#utility.yul\":9157:9164   */\n      dup5\n        /* \"#utility.yul\":9148:9154   */\n      dup3\n        /* \"#utility.yul\":9137:9146   */\n      dup6\n        /* \"#utility.yul\":9133:9155   */\n      add\n        /* \"#utility.yul\":9102:9165   */\n      tag_192\n      jump\t// in\n    tag_326:\n        /* \"#utility.yul\":9092:9165   */\n      swap2\n      pop\n        /* \"#utility.yul\":8888:9175   */\n      pop\n        /* \"#utility.yul\":8673:9182   */\n      swap3\n      swap2\n      pop\n      pop\n      jump\t// out\n        /* \"#utility.yul\":9188:9292   */\n    tag_201:\n        /* \"#utility.yul\":9233:9240   */\n      0x00\n        /* \"#utility.yul\":9262:9286   */\n      tag_328\n        /* \"#utility.yul\":9280:9285   */\n      dup3\n        /* \"#utility.yul\":9262:9286   */\n      tag_173\n      jump\t// in\n    tag_328:\n        /* \"#utility.yul\":9251:9286   */\n      swap1\n      pop\n        /* \"#utility.yul\":9188:9292   */\n      swap2\n      swap1\n      pop\n      jump\t// out\n        /* \"#utility.yul\":9298:9440   */\n    tag_202:\n        /* \"#utility.yul\":9401:9433   */\n      tag_330\n        /* \"#utility.yul\":9427:9432   */\n      dup2\n        /* \"#utility.yul\":9401:9433   */\n      tag_201\n      jump\t// in\n    tag_330:\n        /* \"#utility.yul\":9396:9399   */\n      dup3\n        /* \"#utility.yul\":9389:9434   */\n      mstore\n        /* \"#utility.yul\":9298:9440   */\n      pop\n      pop\n      jump\t// out\n        /* \"#utility.yul\":9446:9555   */\n    tag_203:\n        /* \"#utility.yul\":9527:9548   */\n      tag_332\n        /* \"#utility.yul\":9542:9547   */\n      dup2\n        /* \"#utility.yul\":9527:9548   */\n      tag_193\n      jump\t// in\n    tag_332:\n        /* \"#utility.yul\":9522:9525   */\n      dup3\n        /* \"#utility.yul\":9515:9549   */\n      mstore\n        /* \"#utility.yul\":9446:9555   */\n      pop\n      pop\n      jump\t// out\n        /* \"#utility.yul\":9561:10748   */\n    tag_45:\n        /* \"#utility.yul\":9894:9898   */\n      0x00\n        /* \"#utility.yul\":9932:9935   */\n      0x0100\n        /* \"#utility.yul\":9921:9930   */\n      dup3\n        /* \"#utility.yul\":9917:9936   */\n      add\n        /* \"#utility.yul\":9909:9936   */\n      swap1\n      pop\n        /* \"#utility.yul\":9982:9991   */\n      dup2\n        /* \"#utility.yul\":9976:9980   */\n      dup2\n        /* \"#utility.yul\":9972:9992   */\n      sub\n        /* \"#utility.yul\":9968:9969   */\n      0x00\n        /* \"#utility.yul\":9957:9966   */\n      dup4\n        /* \"#utility.yul\":9953:9970   */\n      add\n        /* \"#utility.yul\":9946:9993   */\n      mstore\n        /* \"#utility.yul\":10010:10088   */\n      tag_334\n        /* \"#utility.yul\":10083:10087   */\n      dup2\n        /* \"#utility.yul\":10074:10080   */\n      dup12\n        /* \"#utility.yul\":10010:10088   */\n      tag_183\n      jump\t// in\n    tag_334:\n        /* \"#utility.yul\":10002:10088   */\n      swap1\n      pop\n        /* \"#utility.yul\":10135:10144   */\n      dup2\n        /* \"#utility.yul\":10129:10133   */\n      dup2\n        /* \"#utility.yul\":10125:10145   */\n      sub\n        /* \"#utility.yul\":10120:10122   */\n      0x20\n        /* \"#utility.yul\":10109:10118   */\n      dup4\n        /* \"#utility.yul\":10105:10123   */\n      add\n        /* \"#utility.yul\":10098:10146   */\n      mstore\n        /* \"#utility.yul\":10163:10241   */\n      tag_335\n        /* \"#utility.yul\":10236:10240   */\n      dup2\n        /* \"#utility.yul\":10227:10233   */\n      dup11\n        /* \"#utility.yul\":10163:10241   */\n      tag_183\n      jump\t// in\n    tag_335:\n        /* \"#utility.yul\":10155:10241   */\n      swap1\n      pop\n        /* \"#utility.yul\":10251:10323   */\n      tag_336\n        /* \"#utility.yul\":10319:10321   */\n      0x40\n        /* \"#utility.yul\":10308:10317   */\n      dup4\n        /* \"#utility.yul\":10304:10322   */\n      add\n        /* \"#utility.yul\":10295:10301   */\n      dup10\n        /* \"#utility.yul\":10251:10323   */\n      tag_178\n      jump\t// in\n    tag_336:\n        /* \"#utility.yul\":10333:10421   */\n      tag_337\n        /* \"#utility.yul\":10417:10419   */\n      0x60\n        /* \"#utility.yul\":10406:10415   */\n      dup4\n        /* \"#utility.yul\":10402:10420   */\n      add\n        /* \"#utility.yul\":10393:10399   */\n      dup9\n        /* \"#utility.yul\":10333:10421   */\n      tag_202\n      jump\t// in\n    tag_337:\n        /* \"#utility.yul\":10431:10504   */\n      tag_338\n        /* \"#utility.yul\":10499:10502   */\n      0x80\n        /* \"#utility.yul\":10488:10497   */\n      dup4\n        /* \"#utility.yul\":10484:10503   */\n      add\n        /* \"#utility.yul\":10475:10481   */\n      dup8\n        /* \"#utility.yul\":10431:10504   */\n      tag_178\n      jump\t// in\n    tag_338:\n        /* \"#utility.yul\":10514:10587   */\n      tag_339\n        /* \"#utility.yul\":10582:10585   */\n      0xa0\n        /* \"#utility.yul\":10571:10580   */\n      dup4\n        /* \"#utility.yul\":10567:10586   */\n      add\n        /* \"#utility.yul\":10558:10564   */\n      dup7\n        /* \"#utility.yul\":10514:10587   */\n      tag_178\n      jump\t// in\n    tag_339:\n        /* \"#utility.yul\":10597:10664   */\n      tag_340\n        /* \"#utility.yul\":10659:10662   */\n      0xc0\n        /* \"#utility.yul\":10648:10657   */\n      dup4\n        /* \"#utility.yul\":10644:10663   */\n      add\n        /* \"#utility.yul\":10635:10641   */\n      dup6\n        /* \"#utility.yul\":10597:10664   */\n      tag_203\n      jump\t// in\n    tag_340:\n        /* \"#utility.yul\":10674:10741   */\n      tag_341\n        /* \"#utility.yul\":10736:10739   */\n      0xe0\n        /* \"#utility.yul\":10725:10734   */\n      dup4\n        /* \"#utility.yul\":10721:10740   */\n      add\n        /* \"#utility.yul\":10712:10718   */\n      dup5\n        /* \"#utility.yul\":10674:10741   */\n      tag_203\n      jump\t// in\n    tag_341:\n        /* \"#utility.yul\":9561:10748   */\n      swap10\n      swap9\n      pop\n      pop\n      pop\n      pop\n      pop\n      pop\n      pop\n      pop\n      pop\n      jump\t// out\n        /* \"#utility.yul\":10754:10876   */\n    tag_204:\n        /* \"#utility.yul\":10827:10851   */\n      tag_343\n        /* \"#utility.yul\":10845:10850   */\n      dup2\n        /* \"#utility.yul\":10827:10851   */\n      tag_177\n      jump\t// in\n    tag_343:\n        /* \"#utility.yul\":10820:10825   */\n      dup2\n        /* \"#utility.yul\":10817:10852   */\n      eq\n        /* \"#utility.yul\":10807:10870   */\n      tag_344\n      jumpi\n        /* \"#utility.yul\":10866:10867   */\n      0x00\n        /* \"#utility.yul\":10863:10864   */\n      dup1\n        /* \"#utility.yul\":10856:10868   */\n      revert\n        /* \"#utility.yul\":10807:10870   */\n    tag_344:\n        /* \"#utility.yul\":10754:10876   */\n      pop\n      jump\t// out\n        /* \"#utility.yul\":10882:11021   */\n    tag_205:\n        /* \"#utility.yul\":10928:10933   */\n      0x00\n        /* \"#utility.yul\":10966:10972   */\n      dup2\n        /* \"#utility.yul\":10953:10973   */\n      calldataload\n        /* \"#utility.yul\":10944:10973   */\n      swap1\n      pop\n        /* \"#utility.yul\":10982:11015   */\n      tag_346\n        /* \"#utility.yul\":11009:11014   */\n      dup2\n        /* \"#utility.yul\":10982:11015   */\n      tag_204\n      jump\t// in\n    tag_346:\n        /* \"#utility.yul\":10882:11021   */\n      swap3\n      swap2\n      pop\n      pop\n      jump\t// out\n        /* \"#utility.yul\":11027:11165   */\n    tag_206:\n        /* \"#utility.yul\":11108:11140   */\n      tag_348\n        /* \"#utility.yul\":11134:11139   */\n      dup2\n        /* \"#utility.yul\":11108:11140   */\n      tag_201\n      jump\t// in\n    tag_348:\n        /* \"#utility.yul\":11101:11106   */\n      dup2\n        /* \"#utility.yul\":11098:11141   */\n      eq\n        /* \"#utility.yul\":11088:11159   */\n      tag_349\n      jumpi\n        /* \"#utility.yul\":11155:11156   */\n      0x00\n        /* \"#utility.yul\":11152:11153   */\n      dup1\n        /* \"#utility.yul\":11145:11157   */\n      revert\n        /* \"#utility.yul\":11088:11159   */\n    tag_349:\n        /* \"#utility.yul\":11027:11165   */\n      pop\n      jump\t// out\n        /* \"#utility.yul\":11171:11326   */\n    tag_207:\n        /* \"#utility.yul\":11225:11230   */\n      0x00\n        /* \"#utility.yul\":11263:11269   */\n      dup2\n        /* \"#utility.yul\":11250:11270   */\n      calldataload\n        /* \"#utility.yul\":11241:11270   */\n      swap1\n      pop\n        /* \"#utility.yul\":11279:11320   */\n      tag_351\n        /* \"#utility.yul\":11314:11319   */\n      dup2\n        /* \"#utility.yul\":11279:11320   */\n      tag_206\n      jump\t// in\n    tag_351:\n        /* \"#utility.yul\":11171:11326   */\n      swap3\n      swap2\n      pop\n      pop\n      jump\t// out\n        /* \"#utility.yul\":11332:12619   */\n    tag_57:\n        /* \"#utility.yul\":11455:11461   */\n      0x00\n        /* \"#utility.yul\":11463:11469   */\n      dup1\n        /* \"#utility.yul\":11471:11477   */\n      0x00\n        /* \"#utility.yul\":11479:11485   */\n      dup1\n        /* \"#utility.yul\":11487:11493   */\n      0x00\n        /* \"#utility.yul\":11536:11539   */\n      0xa0\n        /* \"#utility.yul\":11524:11533   */\n      dup7\n        /* \"#utility.yul\":11515:11522   */\n      dup9\n        /* \"#utility.yul\":11511:11534   */\n      sub\n        /* \"#utility.yul\":11507:11540   */\n      slt\n        /* \"#utility.yul\":11504:11624   */\n      iszero\n      tag_353\n      jumpi\n        /* \"#utility.yul\":11543:11622   */\n      tag_354\n      tag_171\n      jump\t// in\n    tag_354:\n        /* \"#utility.yul\":11504:11624   */\n    tag_353:\n        /* \"#utility.yul\":11691:11692   */\n      0x00\n        /* \"#utility.yul\":11680:11689   */\n      dup7\n        /* \"#utility.yul\":11676:11693   */\n      add\n        /* \"#utility.yul\":11663:11694   */\n      calldataload\n        /* \"#utility.yul\":11721:11739   */\n      0xffffffffffffffff\n        /* \"#utility.yul\":11713:11719   */\n      dup2\n        /* \"#utility.yul\":11710:11740   */\n      gt\n        /* \"#utility.yul\":11707:11824   */\n      iszero\n      tag_355\n      jumpi\n        /* \"#utility.yul\":11743:11822   */\n      tag_356\n      tag_172\n      jump\t// in\n    tag_356:\n        /* \"#utility.yul\":11707:11824   */\n    tag_355:\n        /* \"#utility.yul\":11848:11911   */\n      tag_357\n        /* \"#utility.yul\":11903:11910   */\n      dup9\n        /* \"#utility.yul\":11894:11900   */\n      dup3\n        /* \"#utility.yul\":11883:11892   */\n      dup10\n        /* \"#utility.yul\":11879:11901   */\n      add\n        /* \"#utility.yul\":11848:11911   */\n      tag_192\n      jump\t// in\n    tag_357:\n        /* \"#utility.yul\":11838:11911   */\n      swap6\n      pop\n        /* \"#utility.yul\":11634:11921   */\n      pop\n        /* \"#utility.yul\":11988:11990   */\n      0x20\n        /* \"#utility.yul\":11977:11986   */\n      dup7\n        /* \"#utility.yul\":11973:11991   */\n      add\n        /* \"#utility.yul\":11960:11992   */\n      calldataload\n        /* \"#utility.yul\":12019:12037   */\n      0xffffffffffffffff\n        /* \"#utility.yul\":12011:12017   */\n      dup2\n        /* \"#utility.yul\":12008:12038   */\n      gt\n        /* \"#utility.yul\":12005:12122   */\n      iszero\n      tag_358\n      jumpi\n        /* \"#utility.yul\":12041:12120   */\n      tag_359\n      tag_172\n      jump\t// in\n    tag_359:\n        /* \"#utility.yul\":12005:12122   */\n    tag_358:\n        /* \"#utility.yul\":12146:12209   */\n      tag_360\n        /* \"#utility.yul\":12201:12208   */\n      dup9\n        /* \"#utility.yul\":12192:12198   */\n      dup3\n        /* \"#utility.yul\":12181:12190   */\n      dup10\n        /* \"#utility.yul\":12177:12199   */\n      add\n        /* \"#utility.yul\":12146:12209   */\n      tag_192\n      jump\t// in\n    tag_360:\n        /* \"#utility.yul\":12136:12209   */\n      swap5\n      pop\n        /* \"#utility.yul\":11931:12219   */\n      pop\n        /* \"#utility.yul\":12258:12260   */\n      0x40\n        /* \"#utility.yul\":12284:12337   */\n      tag_361\n        /* \"#utility.yul\":12329:12336   */\n      dup9\n        /* \"#utility.yul\":12320:12326   */\n      dup3\n        /* \"#utility.yul\":12309:12318   */\n      dup10\n        /* \"#utility.yul\":12305:12327   */\n      add\n        /* \"#utility.yul\":12284:12337   */\n      tag_205\n      jump\t// in\n    tag_361:\n        /* \"#utility.yul\":12274:12337   */\n      swap4\n      pop\n        /* \"#utility.yul\":12229:12347   */\n      pop\n        /* \"#utility.yul\":12386:12388   */\n      0x60\n        /* \"#utility.yul\":12412:12465   */\n      tag_362\n        /* \"#utility.yul\":12457:12464   */\n      dup9\n        /* \"#utility.yul\":12448:12454   */\n      dup3\n        /* \"#utility.yul\":12437:12446   */\n      dup10\n        /* \"#utility.yul\":12433:12455   */\n      add\n        /* \"#utility.yul\":12412:12465   */\n      tag_205\n      jump\t// in\n    tag_362:\n        /* \"#utility.yul\":12402:12465   */\n      swap3\n      pop\n        /* \"#utility.yul\":12357:12475   */\n      pop\n        /* \"#utility.yul\":12514:12517   */\n      0x80\n        /* \"#utility.yul\":12541:12602   */\n      tag_363\n        /* \"#utility.yul\":12594:12601   */\n      dup9\n        /* \"#utility.yul\":12585:12591   */\n      dup3\n        /* \"#utility.yul\":12574:12583   */\n      dup10\n        /* \"#utility.yul\":12570:12592   */\n      add\n        /* \"#utility.yul\":12541:12602   */\n      tag_207\n      jump\t// in\n    tag_363:\n        /* \"#utility.yul\":12531:12602   */\n      swap2\n      pop\n        /* \"#utility.yul\":12485:12612   */\n      pop\n        /* \"#utility.yul\":11332:12619   */\n      swap3\n      swap6\n      pop\n      swap3\n      swap6\n      swap1\n      swap4\n      pop\n      jump\t// out\n        /* \"#utility.yul\":12625:12743   */\n    tag_208:\n        /* \"#utility.yul\":12712:12736   */\n      tag_365\n        /* \"#utility.yul\":12730:12735   */\n      dup2\n        /* \"#utility.yul\":12712:12736   */\n      tag_174\n      jump\t// in\n    tag_365:\n        /* \"#utility.yul\":12707:12710   */\n      dup3\n        /* \"#utility.yul\":12700:12737   */\n      mstore\n        /* \"#utility.yul\":12625:12743   */\n      pop\n      pop\n      jump\t// out\n        /* \"#utility.yul\":12749:12971   */\n    tag_63:\n        /* \"#utility.yul\":12842:12846   */\n      0x00\n        /* \"#utility.yul\":12880:12882   */\n      0x20\n        /* \"#utility.yul\":12869:12878   */\n      dup3\n        /* \"#utility.yul\":12865:12883   */\n      add\n        /* \"#utility.yul\":12857:12883   */\n      swap1\n      pop\n        /* \"#utility.yul\":12893:12964   */\n      tag_367\n        /* \"#utility.yul\":12961:12962   */\n      0x00\n        /* \"#utility.yul\":12950:12959   */\n      dup4\n        /* \"#utility.yul\":12946:12963   */\n      add\n        /* \"#utility.yul\":12937:12943   */\n      dup5\n        /* \"#utility.yul\":12893:12964   */\n      tag_208\n      jump\t// in\n    tag_367:\n        /* \"#utility.yul\":12749:12971   */\n      swap3\n      swap2\n      pop\n      pop\n      jump\t// out\n        /* \"#utility.yul\":12977:13157   */\n    tag_209:\n        /* \"#utility.yul\":13025:13102   */\n      0x4e487b7100000000000000000000000000000000000000000000000000000000\n        /* \"#utility.yul\":13022:13023   */\n      0x00\n        /* \"#utility.yul\":13015:13103   */\n      mstore\n        /* \"#utility.yul\":13122:13126   */\n      0x22\n        /* \"#utility.yul\":13119:13120   */\n      0x04\n        /* \"#utility.yul\":13112:13127   */\n      mstore\n        /* \"#utility.yul\":13146:13150   */\n      0x24\n        /* \"#utility.yul\":13143:13144   */\n      0x00\n        /* \"#utility.yul\":13136:13151   */\n      revert\n        /* \"#utility.yul\":13163:13483   */\n    tag_80:\n        /* \"#utility.yul\":13207:13213   */\n      0x00\n        /* \"#utility.yul\":13244:13245   */\n      0x02\n        /* \"#utility.yul\":13238:13242   */\n      dup3\n        /* \"#utility.yul\":13234:13246   */\n      div\n        /* \"#utility.yul\":13224:13246   */\n      swap1\n      pop\n        /* \"#utility.yul\":13291:13292   */\n      0x01\n        /* \"#utility.yul\":13285:13289   */\n      dup3\n        /* \"#utility.yul\":13281:13293   */\n      and\n        /* \"#utility.yul\":13312:13330   */\n      dup1\n        /* \"#utility.yul\":13302:13383   */\n      tag_370\n      jumpi\n        /* \"#utility.yul\":13368:13372   */\n      0x7f\n        /* \"#utility.yul\":13360:13366   */\n      dup3\n        /* \"#utility.yul\":13356:13373   */\n      and\n        /* \"#utility.yul\":13346:13373   */\n      swap2\n      pop\n        /* \"#utility.yul\":13302:13383   */\n    tag_370:\n        /* \"#utility.yul\":13430:13432   */\n      0x20\n        /* \"#utility.yul\":13422:13428   */\n      dup3\n        /* \"#utility.yul\":13419:13433   */\n      lt\n        /* \"#utility.yul\":13399:13417   */\n      dup2\n        /* \"#utility.yul\":13396:13434   */\n      sub\n        /* \"#utility.yul\":13393:13477   */\n      tag_371\n      jumpi\n        /* \"#utility.yul\":13449:13467   */\n      tag_372\n      tag_209\n      jump\t// in\n    tag_372:\n        /* \"#utility.yul\":13393:13477   */\n    tag_371:\n        /* \"#utility.yul\":13214:13483   */\n      pop\n        /* \"#utility.yul\":13163:13483   */\n      swap2\n      swap1\n      pop\n      jump\t// out\n        /* \"#utility.yul\":13489:13637   */\n    tag_210:\n        /* \"#utility.yul\":13591:13602   */\n      0x00\n        /* \"#utility.yul\":13628:13631   */\n      dup2\n        /* \"#utility.yul\":13613:13631   */\n      swap1\n      pop\n        /* \"#utility.yul\":13489:13637   */\n      swap3\n      swap2\n      pop\n      pop\n      jump\t// out\n        /* \"#utility.yul\":13643:14033   */\n    tag_211:\n        /* \"#utility.yul\":13749:13752   */\n      0x00\n        /* \"#utility.yul\":13777:13816   */\n      tag_375\n        /* \"#utility.yul\":13810:13815   */\n      dup3\n        /* \"#utility.yul\":13777:13816   */\n      tag_179\n      jump\t// in\n    tag_375:\n        /* \"#utility.yul\":13832:13921   */\n      tag_376\n        /* \"#utility.yul\":13914:13920   */\n      dup2\n        /* \"#utility.yul\":13909:13912   */\n      dup6\n        /* \"#utility.yul\":13832:13921   */\n      tag_210\n      jump\t// in\n    tag_376:\n        /* \"#utility.yul\":13825:13921   */\n      swap4\n      pop\n        /* \"#utility.yul\":13930:13995   */\n      tag_377\n        /* \"#utility.yul\":13988:13994   */\n      dup2\n        /* \"#utility.yul\":13983:13986   */\n      dup6\n        /* \"#utility.yul\":13976:13980   */\n      0x20\n        /* \"#utility.yul\":13969:13974   */\n      dup7\n        /* \"#utility.yul\":13965:13981   */\n      add\n        /* \"#utility.yul\":13930:13995   */\n      tag_181\n      jump\t// in\n    tag_377:\n        /* \"#utility.yul\":14020:14026   */\n      dup1\n        /* \"#utility.yul\":14015:14018   */\n      dup5\n        /* \"#utility.yul\":14011:14027   */\n      add\n        /* \"#utility.yul\":14004:14027   */\n      swap2\n      pop\n        /* \"#utility.yul\":13753:14033   */\n      pop\n        /* \"#utility.yul\":13643:14033   */\n      swap3\n      swap2\n      pop\n      pop\n      jump\t// out\n        /* \"#utility.yul\":14039:14314   */\n    tag_88:\n        /* \"#utility.yul\":14171:14174   */\n      0x00\n        /* \"#utility.yul\":14193:14288   */\n      tag_379\n        /* \"#utility.yul\":14284:14287   */\n      dup3\n        /* \"#utility.yul\":14275:14281   */\n      dup5\n        /* \"#utility.yul\":14193:14288   */\n      tag_211\n      jump\t// in\n    tag_379:\n        /* \"#utility.yul\":14186:14288   */\n      swap2\n      pop\n        /* \"#utility.yul\":14305:14308   */\n      dup2\n        /* \"#utility.yul\":14298:14308   */\n      swap1\n      pop\n        /* \"#utility.yul\":14039:14314   */\n      swap3\n      swap2\n      pop\n      pop\n      jump\t// out\n        /* \"#utility.yul\":14320:14500   */\n    tag_212:\n        /* \"#utility.yul\":14368:14445   */\n      0x4e487b7100000000000000000000000000000000000000000000000000000000\n        /* \"#utility.yul\":14365:14366   */\n      0x00\n        /* \"#utility.yul\":14358:14446   */\n      mstore\n        /* \"#utility.yul\":14465:14469   */\n      0x11\n        /* \"#utility.yul\":14462:14463   */\n      0x04\n        /* \"#utility.yul\":14455:14470   */\n      mstore\n        /* \"#utility.yul\":14489:14493   */\n      0x24\n        /* \"#utility.yul\":14486:14487   */\n      0x00\n        /* \"#utility.yul\":14479:14494   */\n      revert\n        /* \"#utility.yul\":14506:14739   */\n    tag_99:\n        /* \"#utility.yul\":14545:14548   */\n      0x00\n        /* \"#utility.yul\":14568:14592   */\n      tag_382\n        /* \"#utility.yul\":14586:14591   */\n      dup3\n        /* \"#utility.yul\":14568:14592   */\n      tag_177\n      jump\t// in\n    tag_382:\n        /* \"#utility.yul\":14559:14592   */\n      swap2\n      pop\n        /* \"#utility.yul\":14614:14680   */\n      0xffffffffffffffffffffffffffffffffffffffffffffffffffffffffffffffff\n        /* \"#utility.yul\":14607:14612   */\n      dup3\n        /* \"#utility.yul\":14604:14681   */\n      sub\n        /* \"#utility.yul\":14601:14704   */\n      tag_383\n      jumpi\n        /* \"#utility.yul\":14684:14702   */\n      tag_384\n      tag_212\n      jump\t// in\n    tag_384:\n        /* \"#utility.yul\":14601:14704   */\n    tag_383:\n        /* \"#utility.yul\":14731:14732   */\n      0x01\n        /* \"#utility.yul\":14724:14729   */\n      dup3\n        /* \"#utility.yul\":14720:14733   */\n      add\n        /* \"#utility.yul\":14713:14733   */\n      swap1\n      pop\n        /* \"#utility.yul\":14506:14739   */\n      swap2\n      swap1\n      pop\n      jump\t// out\n        /* \"#utility.yul\":14745:14925   */\n    tag_213:\n        /* \"#utility.yul\":14793:14870   */\n      0x4e487b7100000000000000000000000000000000000000000000000000000000\n        /* \"#utility.yul\":14790:14791   */\n      0x00\n        /* \"#utility.yul\":14783:14871   */\n      mstore\n        /* \"#utility.yul\":14890:14894   */\n      0x12\n        /* \"#utility.yul\":14887:14888   */\n      0x04\n        /* \"#utility.yul\":14880:14895   */\n      mstore\n        /* \"#utility.yul\":14914:14918   */\n      0x24\n        /* \"#utility.yul\":14911:14912   */\n      0x00\n        /* \"#utility.yul\":14904:14919   */\n      revert\n        /* \"#utility.yul\":14931:15116   */\n    tag_138:\n        /* \"#utility.yul\":14971:14972   */\n      0x00\n        /* \"#utility.yul\":14988:15008   */\n      tag_387\n        /* \"#utility.yul\":15006:15007   */\n      dup3\n        /* \"#utility.yul\":14988:15008   */\n      tag_177\n      jump\t// in\n    tag_387:\n        /* \"#utility.yul\":14983:15008   */\n      swap2\n      pop\n        /* \"#utility.yul\":15022:15042   */\n      tag_388\n        /* \"#utility.yul\":15040:15041   */\n      dup4\n        /* \"#utility.yul\":15022:15042   */\n      tag_177\n      jump\t// in\n    tag_388:\n        /* \"#utility.yul\":15017:15042   */\n      swap3\n      pop\n        /* \"#utility.yul\":15061:15062   */\n      dup3\n        /* \"#utility.yul\":15051:15086   */\n      tag_389\n      jumpi\n        /* \"#utility.yul\":15066:15084   */\n      tag_390\n      tag_213\n      jump\t// in\n    tag_390:\n        /* \"#utility.yul\":15051:15086   */\n    tag_389:\n        /* \"#utility.yul\":15108:15109   */\n      dup3\n        /* \"#utility.yul\":15105:15106   */\n      dup3\n        /* \"#utility.yul\":15101:15110   */\n      div\n        /* \"#utility.yul\":15096:15110   */\n      swap1\n      pop\n        /* \"#utility.yul\":14931:15116   */\n      swap3\n      swap2\n      pop\n      pop\n      jump\t// out\n        /* \"#utility.yul\":15122:15263   */\n    tag_214:\n        /* \"#utility.yul\":15171:15175   */\n      0x00\n        /* \"#utility.yul\":15194:15197   */\n      dup2\n        /* \"#utility.yul\":15186:15197   */\n      swap1\n      pop\n        /* \"#utility.yul\":15217:15220   */\n      dup2\n        /* \"#utility.yul\":15214:15215   */\n      0x00\n        /* \"#utility.yul\":15207:15221   */\n      mstore\n        /* \"#utility.yul\":15251:15255   */\n      0x20\n        /* \"#utility.yul\":15248:15249   */\n      0x00\n        /* \"#utility.yul\":15238:15256   */\n      keccak256\n        /* \"#utility.yul\":15230:15256   */\n      swap1\n      pop\n        /* \"#utility.yul\":15122:15263   */\n      swap2\n      swap1\n      pop\n      jump\t// out\n        /* \"#utility.yul\":15269:15362   */\n    tag_215:\n        /* \"#utility.yul\":15306:15312   */\n      0x00\n        /* \"#utility.yul\":15353:15355   */\n      0x20\n        /* \"#utility.yul\":15348:15350   */\n      0x1f\n        /* \"#utility.yul\":15341:15346   */\n      dup4\n        /* \"#utility.yul\":15337:15351   */\n      add\n        /* \"#utility.yul\":15333:15356   */\n      div\n        /* \"#utility.yul\":15323:15356   */\n      swap1\n      pop\n        /* \"#utility.yul\":15269:15362   */\n      swap2\n      swap1\n      pop\n      jump\t// out\n        /* \"#utility.yul\":15368:15475   */\n    tag_216:\n        /* \"#utility.yul\":15412:15420   */\n      0x00\n        /* \"#utility.yul\":15462:15467   */\n      dup3\n        /* \"#utility.yul\":15456:15460   */\n      dup3\n        /* \"#utility.yul\":15452:15468   */\n      shl\n        /* \"#utility.yul\":15431:15468   */\n      swap1\n      pop\n        /* \"#utility.yul\":15368:15475   */\n      swap3\n      swap2\n      pop\n      pop\n      jump\t// out\n        /* \"#utility.yul\":15481:15874   */\n    tag_217:\n        /* \"#utility.yul\":15550:15556   */\n      0x00\n        /* \"#utility.yul\":15600:15601   */\n      0x08\n        /* \"#utility.yul\":15588:15598   */\n      dup4\n        /* \"#utility.yul\":15584:15602   */\n      mul\n        /* \"#utility.yul\":15623:15720   */\n      tag_395\n        /* \"#utility.yul\":15653:15719   */\n      0xffffffffffffffffffffffffffffffffffffffffffffffffffffffffffffffff\n        /* \"#utility.yul\":15642:15651   */\n      dup3\n        /* \"#utility.yul\":15623:15720   */\n      tag_216\n      jump\t// in\n    tag_395:\n        /* \"#utility.yul\":15741:15780   */\n      tag_396\n        /* \"#utility.yul\":15771:15779   */\n      dup7\n        /* \"#utility.yul\":15760:15769   */\n      dup4\n        /* \"#utility.yul\":15741:15780   */\n      tag_216\n      jump\t// in\n    tag_396:\n        /* \"#utility.yul\":15729:15780   */\n      swap6\n      pop\n        /* \"#utility.yul\":15813:15817   */\n      dup1\n        /* \"#utility.yul\":15809:15818   */\n      not\n        /* \"#utility.yul\":15802:15807   */\n      dup5\n        /* \"#utility.yul\":15798:15819   */\n      and\n        /* \"#utility.yul\":15789:15819   */\n      swap4\n      pop\n        /* \"#utility.yul\":15862:15866   */\n      dup1\n        /* \"#utility.yul\":15852:15860   */\n      dup7\n        /* \"#utility.yul\":15848:15867   */\n      and\n        /* \"#utility.yul\":15841:15846   */\n      dup5\n        /* \"#utility.yul\":15838:15868   */\n      or\n        /* \"#utility.yul\":15828:15868   */\n      swap3\n      pop\n        /* \"#utility.yul\":15557:15874   */\n      pop\n      pop\n        /* \"#utility.yul\":15481:15874   */\n      swap4\n      swap3\n      pop\n      pop\n      pop\n      jump\t// out\n        /* \"#utility.yul\":15880:15940   */\n    tag_218:\n        /* \"#utility.yul\":15908:15911   */\n      0x00\n        /* \"#utility.yul\":15929:15934   */\n      dup2\n        /* \"#utility.yul\":15922:15934   */\n      swap1\n      pop\n        /* \"#utility.yul\":15880:15940   */\n      swap2\n      swap1\n      pop\n      jump\t// out\n        /* \"#utility.yul\":15946:16088   */\n    tag_219:\n        /* \"#utility.yul\":15996:16005   */\n      0x00\n        /* \"#utility.yul\":16029:16082   */\n      tag_399\n        /* \"#utility.yul\":16047:16081   */\n      tag_400\n        /* \"#utility.yul\":16056:16080   */\n      tag_401\n        /* \"#utility.yul\":16074:16079   */\n      dup5\n        /* \"#utility.yul\":16056:16080   */\n      tag_177\n      jump\t// in\n    tag_401:\n        /* \"#utility.yul\":16047:16081   */\n      tag_218\n      jump\t// in\n    tag_400:\n        /* \"#utility.yul\":16029:16082   */\n      tag_177\n      jump\t// in\n    tag_399:\n        /* \"#utility.yul\":16016:16082   */\n      swap1\n      pop\n        /* \"#utility.yul\":15946:16088   */\n      swap2\n      swap1\n      pop\n      jump\t// out\n        /* \"#utility.yul\":16094:16169   */\n    tag_220:\n        /* \"#utility.yul\":16137:16140   */\n      0x00\n        /* \"#utility.yul\":16158:16163   */\n      dup2\n        /* \"#utility.yul\":16151:16163   */\n      swap1\n      pop\n        /* \"#utility.yul\":16094:16169   */\n      swap2\n      swap1\n      pop\n      jump\t// out\n        /* \"#utility.yul\":16175:16444   */\n    tag_221:\n        /* \"#utility.yul\":16285:16324   */\n      tag_404\n        /* \"#utility.yul\":16316:16323   */\n      dup4\n        /* \"#utility.yul\":16285:16324   */\n      tag_219\n      jump\t// in\n    tag_404:\n        /* \"#utility.yul\":16346:16437   */\n      tag_405\n        /* \"#utility.yul\":16395:16436   */\n      tag_406\n        /* \"#utility.yul\":16419:16435   */\n      dup3\n        /* \"#utility.yul\":16395:16436   */\n      tag_220\n      jump\t// in\n    tag_406:\n        /* \"#utility.yul\":16387:16393   */\n      dup5\n        /* \"#utility.yul\":16380:16384   */\n      dup5\n        /* \"#utility.yul\":16374:16385   */\n      sload\n        /* \"#utility.yul\":16346:16437   */\n      tag_217\n      jump\t// in\n    tag_405:\n        /* \"#utility.yul\":16340:16344   */\n      dup3\n        /* \"#utility.yul\":16333:16438   */\n      sstore\n        /* \"#utility.yul\":16251:16444   */\n      pop\n        /* \"#utility.yul\":16175:16444   */\n      pop\n      pop\n      pop\n      jump\t// out\n        /* \"#utility.yul\":16450:16523   */\n    tag_222:\n        /* \"#utility.yul\":16495:16498   */\n      0x00\n        /* \"#utility.yul\":16450:16523   */\n      swap1\n      jump\t// out\n        /* \"#utility.yul\":16529:16718   */\n    tag_223:\n        /* \"#utility.yul\":16606:16638   */\n      tag_409\n      tag_222\n      jump\t// in\n    tag_409:\n        /* \"#utility.yul\":16647:16712   */\n      tag_410\n        /* \"#utility.yul\":16705:16711   */\n      dup2\n        /* \"#utility.yul\":16697:16703   */\n      dup5\n        /* \"#utility.yul\":16691:16695   */\n      dup5\n        /* \"#utility.yul\":16647:16712   */\n      tag_221\n      jump\t// in\n    tag_410:\n        /* \"#utility.yul\":16582:16718   */\n      pop\n        /* \"#utility.yul\":16529:16718   */\n      pop\n      pop\n      jump\t// out\n        /* \"#utility.yul\":16724:16910   */\n    tag_224:\n        /* \"#utility.yul\":16784:16904   */\n    tag_412:\n        /* \"#utility.yul\":16801:16804   */\n      dup2\n        /* \"#utility.yul\":16794:16799   */\n      dup2\n        /* \"#utility.yul\":16791:16805   */\n      lt\n        /* \"#utility.yul\":16784:16904   */\n      iszero\n      tag_414\n      jumpi\n        /* \"#utility.yul\":16855:16894   */\n      tag_415\n        /* \"#utility.yul\":16892:16893   */\n      0x00\n        /* \"#utility.yul\":16885:16890   */\n      dup3\n        /* \"#utility.yul\":16855:16894   */\n      tag_223\n      jump\t// in\n    tag_415:\n        /* \"#utility.yul\":16828:16829   */\n      0x01\n        /* \"#utility.yul\":16821:16826   */\n      dup2\n        /* \"#utility.yul\":16817:16830   */\n      add\n        /* \"#utility.yul\":16808:16830   */\n      swap1\n      pop\n        /* \"#utility.yul\":16784:16904   */\n      jump(tag_412)\n    tag_414:\n        /* \"#utility.yul\":16724:16910   */\n      pop\n      pop\n      jump\t// out\n        /* \"#utility.yul\":16916:17459   */\n    tag_225:\n        /* \"#utility.yul\":17017:17019   */\n      0x1f\n        /* \"#utility.yul\":17012:17015   */\n      dup3\n        /* \"#utility.yul\":17009:17020   */\n      gt\n        /* \"#utility.yul\":17006:17452   */\n      iszero\n      tag_417\n      jumpi\n        /* \"#utility.yul\":17051:17089   */\n      tag_418\n        /* \"#utility.yul\":17083:17088   */\n      dup2\n        /* \"#utility.yul\":17051:17089   */\n      tag_214\n      jump\t// in\n    tag_418:\n        /* \"#utility.yul\":17135:17164   */\n      tag_419\n        /* \"#utility.yul\":17153:17163   */\n      dup5\n        /* \"#utility.yul\":17135:17164   */\n      tag_215\n      jump\t// in\n    tag_419:\n        /* \"#utility.yul\":17125:17133   */\n      dup2\n        /* \"#utility.yul\":17121:17165   */\n      add\n        /* \"#utility.yul\":17318:17320   */\n      0x20\n        /* \"#utility.yul\":17306:17316   */\n      dup6\n        /* \"#utility.yul\":17303:17321   */\n      lt\n        /* \"#utility.yul\":17300:17349   */\n      iszero\n      tag_420\n      jumpi\n        /* \"#utility.yul\":17339:17347   */\n      dup2\n        /* \"#utility.yul\":17324:17347   */\n      swap1\n      pop\n        /* \"#utility.yul\":17300:17349   */\n    tag_420:\n        /* \"#utility.yul\":17362:17442   */\n      tag_421\n        /* \"#utility.yul\":17418:17440   */\n      tag_422\n        /* \"#utility.yul\":17436:17439   */\n      dup6\n        /* \"#utility.yul\":17418:17440   */\n      tag_215\n      jump\t// in\n    tag_422:\n        /* \"#utility.yul\":17408:17416   */\n      dup4\n        /* \"#utility.yul\":17404:17441   */\n      add\n        /* \"#utility.yul\":17391:17402   */\n      dup3\n        /* \"#utility.yul\":17362:17442   */\n      tag_224\n      jump\t// in\n    tag_421:\n        /* \"#utility.yul\":17021:17452   */\n      pop\n      pop\n        /* \"#utility.yul\":17006:17452   */\n    tag_417:\n        /* \"#utility.yul\":16916:17459   */\n      pop\n      pop\n      pop\n      jump\t// out\n        /* \"#utility.yul\":17465:17582   */\n    tag_226:\n        /* \"#utility.yul\":17519:17527   */\n      0x00\n        /* \"#utility.yul\":17569:17574   */\n      dup3\n        /* \"#utility.yul\":17563:17567   */\n      dup3\n        /* \"#utility.yul\":17559:17575   */\n      shr\n        /* \"#utility.yul\":17538:17575   */\n      swap1\n      pop\n        /* \"#utility.yul\":17465:17582   */\n      swap3\n      swap2\n      pop\n      pop\n      jump\t// out\n        /* \"#utility.yul\":17588:17757   */\n    tag_227:\n        /* \"#utility.yul\":17632:17638   */\n      0x00\n        /* \"#utility.yul\":17665:17716   */\n      tag_425\n        /* \"#utility.yul\":17713:17714   */\n      0x00\n        /* \"#utility.yul\":17709:17715   */\n      not\n        /* \"#utility.yul\":17701:17706   */\n      dup5\n        /* \"#utility.yul\":17698:17699   */\n      0x08\n        /* \"#utility.yul\":17694:17707   */\n      mul\n        /* \"#utility.yul\":17665:17716   */\n      tag_226\n      jump\t// in\n    tag_425:\n        /* \"#utility.yul\":17661:17717   */\n      not\n        /* \"#utility.yul\":17746:17750   */\n      dup1\n        /* \"#utility.yul\":17740:17744   */\n      dup4\n        /* \"#utility.yul\":17736:17751   */\n      and\n        /* \"#utility.yul\":17726:17751   */\n      swap2\n      pop\n        /* \"#utility.yul\":17639:17757   */\n      pop\n        /* \"#utility.yul\":17588:17757   */\n      swap3\n      swap2\n      pop\n      pop\n      jump\t// out\n        /* \"#utility.yul\":17762:18057   */\n    tag_228:\n        /* \"#utility.yul\":17838:17842   */\n      0x00\n        /* \"#utility.yul\":17984:18013   */\n      tag_427\n        /* \"#utility.yul\":18009:18012   */\n      dup4\n        /* \"#utility.yul\":18003:18007   */\n      dup4\n        /* \"#utility.yul\":17984:18013   */\n      tag_227\n      jump\t// in\n    tag_427:\n        /* \"#utility.yul\":17976:18013   */\n      swap2\n      pop\n        /* \"#utility.yul\":18046:18049   */\n      dup3\n        /* \"#utility.yul\":18043:18044   */\n      0x02\n        /* \"#utility.yul\":18039:18050   */\n      mul\n        /* \"#utility.yul\":18033:18037   */\n      dup3\n        /* \"#utility.yul\":18030:18051   */\n      or\n        /* \"#utility.yul\":18022:18051   */\n      swap1\n      pop\n        /* \"#utility.yul\":17762:18057   */\n      swap3\n      swap2\n      pop\n      pop\n      jump\t// out\n        /* \"#utility.yul\":18062:19457   */\n    tag_144:\n        /* \"#utility.yul\":18179:18216   */\n      tag_429\n        /* \"#utility.yul\":18212:18215   */\n      dup3\n        /* \"#utility.yul\":18179:18216   */\n      tag_179\n      jump\t// in\n    tag_429:\n        /* \"#utility.yul\":18281:18299   */\n      0xffffffffffffffff\n        /* \"#utility.yul\":18273:18279   */\n      dup2\n        /* \"#utility.yul\":18270:18300   */\n      gt\n        /* \"#utility.yul\":18267:18323   */\n      iszero\n      tag_430\n      jumpi\n        /* \"#utility.yul\":18303:18321   */\n      tag_431\n      tag_186\n      jump\t// in\n    tag_431:\n        /* \"#utility.yul\":18267:18323   */\n    tag_430:\n        /* \"#utility.yul\":18347:18385   */\n      tag_432\n        /* \"#utility.yul\":18379:18383   */\n      dup3\n        /* \"#utility.yul\":18373:18384   */\n      sload\n        /* \"#utility.yul\":18347:18385   */\n      tag_80\n      jump\t// in\n    tag_432:\n        /* \"#utility.yul\":18432:18499   */\n      tag_433\n        /* \"#utility.yul\":18492:18498   */\n      dup3\n        /* \"#utility.yul\":18484:18490   */\n      dup3\n        /* \"#utility.yul\":18478:18482   */\n      dup6\n        /* \"#utility.yul\":18432:18499   */\n      tag_225\n      jump\t// in\n    tag_433:\n        /* \"#utility.yul\":18526:18527   */\n      0x00\n        /* \"#utility.yul\":18550:18554   */\n      0x20\n        /* \"#utility.yul\":18537:18554   */\n      swap1\n      pop\n        /* \"#utility.yul\":18582:18584   */\n      0x1f\n        /* \"#utility.yul\":18574:18580   */\n      dup4\n        /* \"#utility.yul\":18571:18585   */\n      gt\n        /* \"#utility.yul\":18599:18600   */\n      0x01\n        /* \"#utility.yul\":18594:19212   */\n      dup2\n      eq\n      tag_435\n      jumpi\n        /* \"#utility.yul\":19256:19257   */\n      0x00\n        /* \"#utility.yul\":19273:19279   */\n      dup5\n        /* \"#utility.yul\":19270:19347   */\n      iszero\n      tag_436\n      jumpi\n        /* \"#utility.yul\":19322:19331   */\n      dup3\n        /* \"#utility.yul\":19317:19320   */\n      dup8\n        /* \"#utility.yul\":19313:19332   */\n      add\n        /* \"#utility.yul\":19307:19333   */\n      mload\n        /* \"#utility.yul\":19298:19333   */\n      swap1\n      pop\n        /* \"#utility.yul\":19270:19347   */\n    tag_436:\n        /* \"#utility.yul\":19373:19440   */\n      tag_437\n        /* \"#utility.yul\":19433:19439   */\n      dup6\n        /* \"#utility.yul\":19426:19431   */\n      dup3\n        /* \"#utility.yul\":19373:19440   */\n      tag_228\n      jump\t// in\n    tag_437:\n        /* \"#utility.yul\":19367:19371   */\n      dup7\n        /* \"#utility.yul\":19360:19441   */\n      sstore\n        /* \"#utility.yul\":19229:19451   */\n      pop\n        /* \"#utility.yul\":18564:19451   */\n      jump(tag_434)\n        /* \"#utility.yul\":18594:19212   */\n    tag_435:\n        /* \"#utility.yul\":18646:18650   */\n      0x1f\n        /* \"#utility.yul\":18642:18651   */\n      not\n        /* \"#utility.yul\":18634:18640   */\n      dup5\n        /* \"#utility.yul\":18630:18652   */\n      and\n        /* \"#utility.yul\":18680:18717   */\n      tag_438\n        /* \"#utility.yul\":18712:18716   */\n      dup7\n        /* \"#utility.yul\":18680:18717   */\n      tag_214\n      jump\t// in\n    tag_438:\n        /* \"#utility.yul\":18739:18740   */\n      0x00\n        /* \"#utility.yul\":18753:18961   */\n    tag_439:\n        /* \"#utility.yul\":18767:18774   */\n      dup3\n        /* \"#utility.yul\":18764:18765   */\n      dup2\n        /* \"#utility.yul\":18761:18775   */\n      lt\n        /* \"#utility.yul\":18753:18961   */\n      iszero\n      tag_441\n      jumpi\n        /* \"#utility.yul\":18846:18855   */\n      dup5\n        /* \"#utility.yul\":18841:18844   */\n      dup10\n        /* \"#utility.yul\":18837:18856   */\n      add\n        /* \"#utility.yul\":18831:18857   */\n      mload\n        /* \"#utility.yul\":18823:18829   */\n      dup3\n        /* \"#utility.yul\":18816:18858   */\n      sstore\n        /* \"#utility.yul\":18897:18898   */\n      0x01\n        /* \"#utility.yul\":18889:18895   */\n      dup3\n        /* \"#utility.yul\":18885:18899   */\n      add\n        /* \"#utility.yul\":18875:18899   */\n      swap2\n      pop\n        /* \"#utility.yul\":18944:18946   */\n      0x20\n        /* \"#utility.yul\":18933:18942   */\n      dup6\n        /* \"#utility.yul\":18929:18947   */\n      add\n        /* \"#utility.yul\":18916:18947   */\n      swap5\n      pop\n        /* \"#utility.yul\":18790:18794   */\n      0x20\n        /* \"#utility.yul\":18787:18788   */\n      dup2\n        /* \"#utility.yul\":18783:18795   */\n      add\n        /* \"#utility.yul\":18778:18795   */\n      swap1\n      pop\n        /* \"#utility.yul\":18753:18961   */\n      jump(tag_439)\n    tag_441:\n        /* \"#utility.yul\":18989:18995   */\n      dup7\n        /* \"#utility.yul\":18980:18987   */\n      dup4\n        /* \"#utility.yul\":18977:18996   */\n      lt\n        /* \"#utility.yul\":18974:19153   */\n      iszero\n      tag_442\n      jumpi\n        /* \"#utility.yul\":19047:19056   */\n      dup5\n        /* \"#utility.yul\":19042:19045   */\n      dup10\n        /* \"#utility.yul\":19038:19057   */\n      add\n        /* \"#utility.yul\":19032:19058   */\n      mload\n        /* \"#utility.yul\":19090:19138   */\n      tag_443\n        /* \"#utility.yul\":19132:19136   */\n      0x1f\n        /* \"#utility.yul\":19124:19130   */\n      dup10\n        /* \"#utility.yul\":19120:19137   */\n      and\n        /* \"#utility.yul\":19109:19118   */\n      dup3\n        /* \"#utility.yul\":19090:19138   */\n      tag_227\n      jump\t// in\n    tag_443:\n        /* \"#utility.yul\":19082:19088   */\n      dup4\n        /* \"#utility.yul\":19075:19139   */\n      sstore\n        /* \"#utility.yul\":18997:19153   */\n      pop\n        /* \"#utility.yul\":18974:19153   */\n    tag_442:\n        /* \"#utility.yul\":19199:19200   */\n      0x01\n        /* \"#utility.yul\":19195:19196   */\n      0x02\n        /* \"#utility.yul\":19187:19193   */\n      dup9\n        /* \"#utility.yul\":19183:19197   */\n      mul\n        /* \"#utility.yul\":19179:19201   */\n      add\n        /* \"#utility.yul\":19173:19177   */\n      dup9\n        /* \"#utility.yul\":19166:19202   */\n      sstore\n        /* \"#utility.yul\":18601:19212   */\n      pop\n      pop\n      pop\n        /* \"#utility.yul\":18564:19451   */\n    tag_434:\n      pop\n        /* \"#utility.yul\":18154:19457   */\n      pop\n      pop\n      pop\n        /* \"#utility.yul\":18062:19457   */\n      pop\n      pop\n      jump\t// out\n        /* \"#utility.yul\":19463:19873   */\n    tag_165:\n        /* \"#utility.yul\":19503:19510   */\n      0x00\n        /* \"#utility.yul\":19526:19546   */\n      tag_445\n        /* \"#utility.yul\":19544:19545   */\n      dup3\n        /* \"#utility.yul\":19526:19546   */\n      tag_177\n      jump\t// in\n    tag_445:\n        /* \"#utility.yul\":19521:19546   */\n      swap2\n      pop\n        /* \"#utility.yul\":19560:19580   */\n      tag_446\n        /* \"#utility.yul\":19578:19579   */\n      dup4\n        /* \"#utility.yul\":19560:19580   */\n      tag_177\n      jump\t// in\n    tag_446:\n        /* \"#utility.yul\":19555:19580   */\n      swap3\n      pop\n        /* \"#utility.yul\":19615:19616   */\n      dup3\n        /* \"#utility.yul\":19612:19613   */\n      dup3\n        /* \"#utility.yul\":19608:19617   */\n      mul\n        /* \"#utility.yul\":19637:19667   */\n      tag_447\n        /* \"#utility.yul\":19655:19666   */\n      dup2\n        /* \"#utility.yul\":19637:19667   */\n      tag_177\n      jump\t// in\n    tag_447:\n        /* \"#utility.yul\":19626:19667   */\n      swap2\n      pop\n        /* \"#utility.yul\":19816:19817   */\n      dup3\n        /* \"#utility.yul\":19807:19814   */\n      dup3\n        /* \"#utility.yul\":19803:19818   */\n      div\n        /* \"#utility.yul\":19800:19801   */\n      dup5\n        /* \"#utility.yul\":19797:19819   */\n      eq\n        /* \"#utility.yul\":19777:19778   */\n      dup4\n        /* \"#utility.yul\":19770:19779   */\n      iszero\n        /* \"#utility.yul\":19750:19833   */\n      or\n        /* \"#utility.yul\":19727:19866   */\n      tag_448\n      jumpi\n        /* \"#utility.yul\":19846:19864   */\n      tag_449\n      tag_212\n      jump\t// in\n    tag_449:\n        /* \"#utility.yul\":19727:19866   */\n    tag_448:\n        /* \"#utility.yul\":19511:19873   */\n      pop\n        /* \"#utility.yul\":19463:19873   */\n      swap3\n      swap2\n      pop\n      pop\n      jump\t// out\n\n    auxdata: 0xa26469706673582212209190437cecef244ed2a07a12f6c1d1c107168a36433d4c74e2804db7f753c69d64736f6c63430008180033\n}\n","bytecode":{"linkReferences":{},"object":"608060405234801562000010575f80fd5b5060405162001f4638038062001f468339818101604052810190620000369190620002d4565b5f821162000042575f80fd5b8060025f6101000a81548173ffffffffffffffffffffffffffffffffffffffff021916908373ffffffffffffffffffffffffffffffffffffffff160217905550835f9081620000929190620005af565b508260019081620000a49190620005af565b50816005819055505050505062000693565b5f604051905090565b5f80fd5b5f80fd5b5f80fd5b5f80fd5b5f601f19601f8301169050919050565b7f4e487b71000000000000000000000000000000000000000000000000000000005f52604160045260245ffd5b6200011782620000cf565b810181811067ffffffffffffffff82111715620001395762000138620000df565b5b80604052505050565b5f6200014d620000b6565b90506200015b82826200010c565b919050565b5f67ffffffffffffffff8211156200017d576200017c620000df565b5b6200018882620000cf565b9050602081019050919050565b5f5b83811015620001b457808201518184015260208101905062000197565b5f8484015250505050565b5f620001d5620001cf8462000160565b62000142565b905082815260208101848484011115620001f457620001f3620000cb565b5b6200020184828562000195565b509392505050565b5f82601f83011262000220576200021f620000c7565b5b815162000232848260208601620001bf565b91505092915050565b5f819050919050565b6200024f816200023b565b81146200025a575f80fd5b50565b5f815190506200026d8162000244565b92915050565b5f73ffffffffffffffffffffffffffffffffffffffff82169050919050565b5f6200029e8262000273565b9050919050565b620002b08162000292565b8114620002bb575f80fd5b50565b5f81519050620002ce81620002a5565b92915050565b5f805f8060808587031215620002ef57620002ee620000bf565b5b5f85015167ffffffffffffffff8111156200030f576200030e620000c3565b5b6200031d8782880162000209565b945050602085015167ffffffffffffffff811115620003415762000340620000c3565b5b6200034f8782880162000209565b935050604062000362878288016200025d565b92505060606200037587828801620002be565b91505092959194509250565b5f81519050919050565b7f4e487b71000000000000000000000000000000000000000000000000000000005f52602260045260245ffd5b5f6002820490506001821680620003d057607f821691505b602082108103620003e657620003e56200038b565b5b50919050565b5f819050815f5260205f209050919050565b5f6020601f8301049050919050565b5f82821b905092915050565b5f600883026200044a7fffffffffffffffffffffffffffffffffffffffffffffffffffffffffffffffff826200040d565b6200045686836200040d565b95508019841693508086168417925050509392505050565b5f819050919050565b5f62000497620004916200048b846200023b565b6200046e565b6200023b565b9050919050565b5f819050919050565b620004b28362000477565b620004ca620004c1826200049e565b84845462000419565b825550505050565b5f90565b620004e0620004d2565b620004ed818484620004a7565b505050565b5b818110156200051457620005085f82620004d6565b600181019050620004f3565b5050565b601f82111562000563576200052d81620003ec565b6200053884620003fe565b8101602085101562000548578190505b620005606200055785620003fe565b830182620004f2565b50505b505050565b5f82821c905092915050565b5f620005855f198460080262000568565b1980831691505092915050565b5f6200059f838362000574565b9150826002028217905092915050565b620005ba8262000381565b67ffffffffffffffff811115620005d657620005d5620000df565b5b620005e28254620003b8565b620005ef82828562000518565b5f60209050601f83116001811462000625575f841562000610578287015190505b6200061c858262000592565b8655506200068b565b601f1984166200063586620003ec565b5f5b828110156200065e5784890151825560018201915060208501945060208101905062000637565b868310156200067e57848901516200067a601f89168262000574565b8355505b6001600288020188555050505b505050505050565b6118a580620006a15f395ff3fe6080604052600436106100c1575f3560e01c8063885e7c621161007e578063d7bb99ba11610058578063d7bb99ba14610266578063e2e46b5214610270578063f84038b114610298578063feed5561146102c2576100c1565b8063885e7c62146101ea578063a7ac800014610214578063d50095841461023c576100c1565b80630a144391146100c55780631a0925411461010157806330e8fc5c1461012b5780634051ddac14610153578063692d51d21461017d5780636f9fb98a146101c0575b5f80fd5b3480156100d0575f80fd5b506100eb60048036038101906100e69190610e45565b6102ec565b6040516100f89190610e88565b60405180910390f35b34801561010c575f80fd5b50610115610301565b6040516101229190610f2b565b60405180910390f35b348015610136575f80fd5b50610151600480360381019061014c91906110ac565b610391565b005b34801561015e575f80fd5b506101676105b9565b60405161017491906111f9565b60405180910390f35b348015610188575f80fd5b506101a3600480360381019061019e9190611219565b610742565b6040516101b798979695949392919061128f565b60405180910390f35b3480156101cb575f80fd5b506101d46108e2565b6040516101e19190610e88565b60405180910390f35b3480156101f5575f80fd5b506101fe6108e9565b60405161020b9190610f2b565b60405180910390f35b34801561021f575f80fd5b5061023a6004803603810190610235919061136d565b610978565b005b348015610247575f80fd5b50610250610af0565b60405161025d919061142b565b60405180910390f35b61026e610b18565b005b34801561027b575f80fd5b5061029660048036038101906102919190611219565b610bdc565b005b3480156102a3575f80fd5b506102ac610d80565b6040516102b99190610e88565b60405180910390f35b3480156102cd575f80fd5b506102d6610d89565b6040516102e39190610e88565b60405180910390f35b6003602052805f5260405f205f915090505481565b60606001805461031090611471565b80601f016020809104026020016040519081016040528092919081815260200182805461033c90611471565b80156103875780601f1061035e57610100808354040283529160200191610387565b820191905f5260205f20905b81548152906001019060200180831161036a57829003601f168201915b5050505050905090565b60025f9054906101000a900473ffffffffffffffffffffffffffffffffffffffff1673ffffffffffffffffffffffffffffffffffffffff163373ffffffffffffffffffffffffffffffffffffffff16036103e9575f80fd5b5f6006836040516103fa91906114db565b908152602001604051809103902090505f815f01805461041990611471565b905011610424575f80fd5b8251815f01805461043490611471565b90501461043f575f80fd5b5f60035f3373ffffffffffffffffffffffffffffffffffffffff1673ffffffffffffffffffffffffffffffffffffffff1681526020019081526020015f205411610487575f80fd5b806006015f9054906101000a900460ff16156104a1575f80fd5b8060060160019054906101000a900460ff16156104bc575f80fd5b806007015f3373ffffffffffffffffffffffffffffffffffffffff1673ffffffffffffffffffffffffffffffffffffffff1681526020019081526020015f205f9054906101000a900460ff1615610511575f80fd5b6001816007015f3373ffffffffffffffffffffffffffffffffffffffff1673ffffffffffffffffffffffffffffffffffffffff1681526020019081526020015f205f6101000a81548160ff021916908315150217905550811561058857806004015f8154809291906105829061151e565b91905055505b80600501548160040154106105b4576001816006015f6101000a81548160ff0219169083151502179055505b505050565b6105c1610d92565b5f6040518060c0016040528060025f9054906101000a900473ffffffffffffffffffffffffffffffffffffffff1673ffffffffffffffffffffffffffffffffffffffff1681526020015f805461061690611471565b80601f016020809104026020016040519081016040528092919081815260200182805461064290611471565b801561068d5780601f106106645761010080835404028352916020019161068d565b820191905f5260205f20905b81548152906001019060200180831161067057829003601f168201915b50505050508152602001600180546106a490611471565b80601f01602080910402602001604051908101604052809291908181526020018280546106d090611471565b801561071b5780601f106106f25761010080835404028352916020019161071b565b820191905f5260205f20905b8154815290600101906020018083116106fe57829003601f168201915b50505050508152602001600554815260200147815260200160045481525090508091505090565b6006818051602081018201805184825260208301602085012081835280955050505050505f91509050805f01805461077990611471565b80601f01602080910402602001604051908101604052809291908181526020018280546107a590611471565b80156107f05780601f106107c7576101008083540402835291602001916107f0565b820191905f5260205f20905b8154815290600101906020018083116107d357829003601f168201915b50505050509080600101805461080590611471565b80601f016020809104026020016040519081016040528092919081815260200182805461083190611471565b801561087c5780601f106108535761010080835404028352916020019161087c565b820191905f5260205f20905b81548152906001019060200180831161085f57829003601f168201915b505050505090806002015490806003015f9054906101000a900473ffffffffffffffffffffffffffffffffffffffff1690806004015490806005015490806006015f9054906101000a900460ff16908060060160019054906101000a900460ff16905088565b5f47905090565b60605f80546108f790611471565b80601f016020809104026020016040519081016040528092919081815260200182805461092390611471565b801561096e5780601f106109455761010080835404028352916020019161096e565b820191905f5260205f20905b81548152906001019060200180831161095157829003601f168201915b5050505050905090565b60025f9054906101000a900473ffffffffffffffffffffffffffffffffffffffff1673ffffffffffffffffffffffffffffffffffffffff163373ffffffffffffffffffffffffffffffffffffffff16146109d0575f80fd5b5f8551116109dc575f80fd5b5f8451116109e8575f80fd5b5f83116109f3575f80fd5b670de0b6b3a764000047610a079190611592565b831115610a12575f80fd5b5f8211610a1d575f80fd5b600454821115610a2b575f80fd5b5f600686604051610a3c91906114db565b9081526020016040518091039020905085815f019081610a5c919061175f565b5084816001019081610a6e919061175f565b5083816002018190555081816003015f6101000a81548173ffffffffffffffffffffffffffffffffffffffff021916908373ffffffffffffffffffffffffffffffffffffffff1602179055505f81600401819055508281600501819055505f8160060160016101000a81548160ff021916908315150217905550505050505050565b5f60025f9054906101000a900473ffffffffffffffffffffffffffffffffffffffff16905090565b600554341015610b26575f80fd5b5f60035f3373ffffffffffffffffffffffffffffffffffffffff1673ffffffffffffffffffffffffffffffffffffffff1681526020019081526020015f205414610b6e575f80fd5b670de0b6b3a764000034610b829190611592565b60035f3373ffffffffffffffffffffffffffffffffffffffff1673ffffffffffffffffffffffffffffffffffffffff1681526020019081526020015f208190555060045f815480929190610bd59061151e565b9190505550565b60025f9054906101000a900473ffffffffffffffffffffffffffffffffffffffff1673ffffffffffffffffffffffffffffffffffffffff163373ffffffffffffffffffffffffffffffffffffffff1614610c34575f80fd5b5f600682604051610c4591906114db565b908152602001604051809103902090505f815f018054610c6490611471565b905011610c6f575f80fd5b8151815f018054610c7f90611471565b905014610c8a575f80fd5b806006015f9054906101000a900460ff168015610cb657508060060160019054906101000a900460ff16155b610cbe575f80fd5b8060020154670de0b6b3a764000047610cd79190611592565b1015610ce1575f80fd5b806003015f9054906101000a900473ffffffffffffffffffffffffffffffffffffffff1673ffffffffffffffffffffffffffffffffffffffff166108fc670de0b6b3a76400008360020154610d36919061182e565b90811502906040515f60405180830381858888f19350505050158015610d5e573d5f803e3d5ffd5b5060018160060160016101000a81548160ff0219169083151502179055505050565b5f600554905090565b5f600454905090565b6040518060c001604052805f73ffffffffffffffffffffffffffffffffffffffff16815260200160608152602001606081526020015f81526020015f81526020015f81525090565b5f604051905090565b5f80fd5b5f80fd5b5f73ffffffffffffffffffffffffffffffffffffffff82169050919050565b5f610e1482610deb565b9050919050565b610e2481610e0a565b8114610e2e575f80fd5b50565b5f81359050610e3f81610e1b565b92915050565b5f60208284031215610e5a57610e59610de3565b5b5f610e6784828501610e31565b91505092915050565b5f819050919050565b610e8281610e70565b82525050565b5f602082019050610e9b5f830184610e79565b92915050565b5f81519050919050565b5f82825260208201905092915050565b5f5b83811015610ed8578082015181840152602081019050610ebd565b5f8484015250505050565b5f601f19601f8301169050919050565b5f610efd82610ea1565b610f078185610eab565b9350610f17818560208601610ebb565b610f2081610ee3565b840191505092915050565b5f6020820190508181035f830152610f438184610ef3565b905092915050565b5f80fd5b5f80fd5b7f4e487b71000000000000000000000000000000000000000000000000000000005f52604160045260245ffd5b610f8982610ee3565b810181811067ffffffffffffffff82111715610fa857610fa7610f53565b5b80604052505050565b5f610fba610dda565b9050610fc68282610f80565b919050565b5f67ffffffffffffffff821115610fe557610fe4610f53565b5b610fee82610ee3565b9050602081019050919050565b828183375f83830152505050565b5f61101b61101684610fcb565b610fb1565b90508281526020810184848401111561103757611036610f4f565b5b611042848285610ffb565b509392505050565b5f82601f83011261105e5761105d610f4b565b5b813561106e848260208601611009565b91505092915050565b5f8115159050919050565b61108b81611077565b8114611095575f80fd5b50565b5f813590506110a681611082565b92915050565b5f80604083850312156110c2576110c1610de3565b5b5f83013567ffffffffffffffff8111156110df576110de610de7565b5b6110eb8582860161104a565b92505060206110fc85828601611098565b9150509250929050565b61110f81610e0a565b82525050565b5f82825260208201905092915050565b5f61112f82610ea1565b6111398185611115565b9350611149818560208601610ebb565b61115281610ee3565b840191505092915050565b61116681610e70565b82525050565b5f60c083015f8301516111815f860182611106565b50602083015184820360208601526111998282611125565b915050604083015184820360408601526111b38282611125565b91505060608301516111c8606086018261115d565b5060808301516111db608086018261115d565b5060a08301516111ee60a086018261115d565b508091505092915050565b5f6020820190508181035f830152611211818461116c565b905092915050565b5f6020828403121561122e5761122d610de3565b5b5f82013567ffffffffffffffff81111561124b5761124a610de7565b5b6112578482850161104a565b91505092915050565b5f61126a82610deb565b9050919050565b61127a81611260565b82525050565b61128981611077565b82525050565b5f610100820190508181035f8301526112a8818b610ef3565b905081810360208301526112bc818a610ef3565b90506112cb6040830189610e79565b6112d86060830188611271565b6112e56080830187610e79565b6112f260a0830186610e79565b6112ff60c0830185611280565b61130c60e0830184611280565b9998505050505050505050565b61132281610e70565b811461132c575f80fd5b50565b5f8135905061133d81611319565b92915050565b61134c81611260565b8114611356575f80fd5b50565b5f8135905061136781611343565b92915050565b5f805f805f60a0868803121561138657611385610de3565b5b5f86013567ffffffffffffffff8111156113a3576113a2610de7565b5b6113af8882890161104a565b955050602086013567ffffffffffffffff8111156113d0576113cf610de7565b5b6113dc8882890161104a565b94505060406113ed8882890161132f565b93505060606113fe8882890161132f565b925050608061140f88828901611359565b9150509295509295909350565b61142581610e0a565b82525050565b5f60208201905061143e5f83018461141c565b92915050565b7f4e487b71000000000000000000000000000000000000000000000000000000005f52602260045260245ffd5b5f600282049050600182168061148857607f821691505b60208210810361149b5761149a611444565b5b50919050565b5f81905092915050565b5f6114b582610ea1565b6114bf81856114a1565b93506114cf818560208601610ebb565b80840191505092915050565b5f6114e682846114ab565b915081905092915050565b7f4e487b71000000000000000000000000000000000000000000000000000000005f52601160045260245ffd5b5f61152882610e70565b91507fffffffffffffffffffffffffffffffffffffffffffffffffffffffffffffffff820361155a576115596114f1565b5b600182019050919050565b7f4e487b71000000000000000000000000000000000000000000000000000000005f52601260045260245ffd5b5f61159c82610e70565b91506115a783610e70565b9250826115b7576115b6611565565b5b828204905092915050565b5f819050815f5260205f209050919050565b5f6020601f8301049050919050565b5f82821b905092915050565b5f6008830261161e7fffffffffffffffffffffffffffffffffffffffffffffffffffffffffffffffff826115e3565b61162886836115e3565b95508019841693508086168417925050509392505050565b5f819050919050565b5f61166361165e61165984610e70565b611640565b610e70565b9050919050565b5f819050919050565b61167c83611649565b6116906116888261166a565b8484546115ef565b825550505050565b5f90565b6116a4611698565b6116af818484611673565b505050565b5b818110156116d2576116c75f8261169c565b6001810190506116b5565b5050565b601f821115611717576116e8816115c2565b6116f1846115d4565b81016020851015611700578190505b61171461170c856115d4565b8301826116b4565b50505b505050565b5f82821c905092915050565b5f6117375f198460080261171c565b1980831691505092915050565b5f61174f8383611728565b9150826002028217905092915050565b61176882610ea1565b67ffffffffffffffff81111561178157611780610f53565b5b61178b8254611471565b6117968282856116d6565b5f60209050601f8311600181146117c7575f84156117b5578287015190505b6117bf8582611744565b865550611826565b601f1984166117d5866115c2565b5f5b828110156117fc578489015182556001820191506020850194506020810190506117d7565b868310156118195784890151611815601f891682611728565b8355505b6001600288020188555050505b505050505050565b5f61183882610e70565b915061184383610e70565b925082820261185181610e70565b91508282048414831517611868576118676114f1565b5b509291505056fea26469706673582212209190437cecef244ed2a07a12f6c1d1c107168a36433d4c74e2804db7f753c69d64736f6c63430008180033","opcodes":"PUSH1 0x80 PUSH1 0x40 MSTORE CALLVALUE DUP1 ISZERO PUSH3 0x10 JUMPI PUSH0 DUP1 REVERT JUMPDEST POP PUSH1 0x40 MLOAD PUSH3 0x1F46 CODESIZE SUB DUP1 PUSH3 0x1F46 DUP4 CODECOPY DUP2 DUP2 ADD PUSH1 0x40 MSTORE DUP2 ADD SWAP1 PUSH3 0x36 SWAP2 SWAP1 PUSH3 0x2D4 JUMP JUMPDEST PUSH0 DUP3 GT PUSH3 0x42 JUMPI PUSH0 DUP1 REVERT JUMPDEST DUP1 PUSH1 0x2 PUSH0 PUSH2 0x100 EXP DUP2 SLOAD DUP2 PUSH20 0xFFFFFFFFFFFFFFFFFFFFFFFFFFFFFFFFFFFFFFFF MUL NOT AND SWAP1 DUP4 PUSH20 0xFFFFFFFFFFFFFFFFFFFFFFFFFFFFFFFFFFFFFFFF AND MUL OR SWAP1 SSTORE POP DUP4 PUSH0 SWAP1 DUP2 PUSH3 0x92 SWAP2 SWAP1 PUSH3 0x5AF JUMP JUMPDEST POP DUP3 PUSH1 0x1 SWAP1 DUP2 PUSH3 0xA4 SWAP2 SWAP1 PUSH3 0x5AF JUMP JUMPDEST POP DUP2 PUSH1 0x5 DUP2 SWAP1 SSTORE POP POP POP POP POP PUSH3 0x693 JUMP JUMPDEST PUSH0 PUSH1 0x40 MLOAD SWAP1 POP SWAP1 JUMP JUMPDEST PUSH0 DUP1 REVERT JUMPDEST PUSH0 DUP1 REVERT JUMPDEST PUSH0 DUP1 REVERT JUMPDEST PUSH0 DUP1 REVERT JUMPDEST PUSH0 PUSH1 0x1F NOT PUSH1 0x1F DUP4 ADD AND SWAP1 POP SWAP2 SWAP1 POP JUMP JUMPDEST PUSH32 0x4E487B7100000000000000000000000000000000000000000000000000000000 PUSH0 MSTORE PUSH1 0x41 PUSH1 0x4 MSTORE PUSH1 0x24 PUSH0 REVERT JUMPDEST PUSH3 0x117 DUP3 PUSH3 0xCF JUMP JUMPDEST DUP2 ADD DUP2 DUP2 LT PUSH8 0xFFFFFFFFFFFFFFFF DUP3 GT OR ISZERO PUSH3 0x139 JUMPI PUSH3 0x138 PUSH3 0xDF JUMP JUMPDEST JUMPDEST DUP1 PUSH1 0x40 MSTORE POP POP POP JUMP JUMPDEST PUSH0 PUSH3 0x14D PUSH3 0xB6 JUMP JUMPDEST SWAP1 POP PUSH3 0x15B DUP3 DUP3 PUSH3 0x10C JUMP JUMPDEST SWAP2 SWAP1 POP JUMP JUMPDEST PUSH0 PUSH8 0xFFFFFFFFFFFFFFFF DUP3 GT ISZERO PUSH3 0x17D JUMPI PUSH3 0x17C PUSH3 0xDF JUMP JUMPDEST JUMPDEST PUSH3 0x188 DUP3 PUSH3 0xCF JUMP JUMPDEST SWAP1 POP PUSH1 0x20 DUP2 ADD SWAP1 POP SWAP2 SWAP1 POP JUMP JUMPDEST PUSH0 JUMPDEST DUP4 DUP2 LT ISZERO PUSH3 0x1B4 JUMPI DUP1 DUP3 ADD MLOAD DUP2 DUP5 ADD MSTORE PUSH1 0x20 DUP2 ADD SWAP1 POP PUSH3 0x197 JUMP JUMPDEST PUSH0 DUP5 DUP5 ADD MSTORE POP POP POP POP JUMP JUMPDEST PUSH0 PUSH3 0x1D5 PUSH3 0x1CF DUP5 PUSH3 0x160 JUMP JUMPDEST PUSH3 0x142 JUMP JUMPDEST SWAP1 POP DUP3 DUP2 MSTORE PUSH1 0x20 DUP2 ADD DUP5 DUP5 DUP5 ADD GT ISZERO PUSH3 0x1F4 JUMPI PUSH3 0x1F3 PUSH3 0xCB JUMP JUMPDEST JUMPDEST PUSH3 0x201 DUP5 DUP3 DUP6 PUSH3 0x195 JUMP JUMPDEST POP SWAP4 SWAP3 POP POP POP JUMP JUMPDEST PUSH0 DUP3 PUSH1 0x1F DUP4 ADD SLT PUSH3 0x220 JUMPI PUSH3 0x21F PUSH3 0xC7 JUMP JUMPDEST JUMPDEST DUP2 MLOAD PUSH3 0x232 DUP5 DUP3 PUSH1 0x20 DUP7 ADD PUSH3 0x1BF JUMP JUMPDEST SWAP2 POP POP SWAP3 SWAP2 POP POP JUMP JUMPDEST PUSH0 DUP2 SWAP1 POP SWAP2 SWAP1 POP JUMP JUMPDEST PUSH3 0x24F DUP2 PUSH3 0x23B JUMP JUMPDEST DUP2 EQ PUSH3 0x25A JUMPI PUSH0 DUP1 REVERT JUMPDEST POP JUMP JUMPDEST PUSH0 DUP2 MLOAD SWAP1 POP PUSH3 0x26D DUP2 PUSH3 0x244 JUMP JUMPDEST SWAP3 SWAP2 POP POP JUMP JUMPDEST PUSH0 PUSH20 0xFFFFFFFFFFFFFFFFFFFFFFFFFFFFFFFFFFFFFFFF DUP3 AND SWAP1 POP SWAP2 SWAP1 POP JUMP JUMPDEST PUSH0 PUSH3 0x29E DUP3 PUSH3 0x273 JUMP JUMPDEST SWAP1 POP SWAP2 SWAP1 POP JUMP JUMPDEST PUSH3 0x2B0 DUP2 PUSH3 0x292 JUMP JUMPDEST DUP2 EQ PUSH3 0x2BB JUMPI PUSH0 DUP1 REVERT JUMPDEST POP JUMP JUMPDEST PUSH0 DUP2 MLOAD SWAP1 POP PUSH3 0x2CE DUP2 PUSH3 0x2A5 JUMP JUMPDEST SWAP3 SWAP2 POP POP JUMP JUMPDEST PUSH0 DUP1 PUSH0 DUP1 PUSH1 0x80 DUP6 DUP8 SUB SLT ISZERO PUSH3 0x2EF JUMPI PUSH3 0x2EE PUSH3 0xBF JUMP JUMPDEST JUMPDEST PUSH0 DUP6 ADD MLOAD PUSH8 0xFFFFFFFFFFFFFFFF DUP2 GT ISZERO PUSH3 0x30F JUMPI PUSH3 0x30E PUSH3 0xC3 JUMP JUMPDEST JUMPDEST PUSH3 0x31D DUP8 DUP3 DUP9 ADD PUSH3 0x209 JUMP JUMPDEST SWAP5 POP POP PUSH1 0x20 DUP6 ADD MLOAD PUSH8 0xFFFFFFFFFFFFFFFF DUP2 GT ISZERO PUSH3 0x341 JUMPI PUSH3 0x340 PUSH3 0xC3 JUMP JUMPDEST JUMPDEST PUSH3 0x34F DUP8 DUP3 DUP9 ADD PUSH3 0x209 JUMP JUMPDEST SWAP4 POP POP PUSH1 0x40 PUSH3 0x362 DUP8 DUP3 DUP9 ADD PUSH3 0x25D JUMP JUMPDEST SWAP3 POP POP PUSH1 0x60 PUSH3 0x375 DUP8 DUP3 DUP9 ADD PUSH3 0x2BE JUMP JUMPDEST SWAP2 POP POP SWAP3 SWAP6 SWAP2 SWAP5 POP SWAP3 POP JUMP JUMPDEST PUSH0 DUP2 MLOAD SWAP1 POP SWAP2 SWAP1 POP JUMP JUMPDEST PUSH32 0x4E487B7100000000000000000000000000000000000000000000000000000000 PUSH0 MSTORE PUSH1 0x22 PUSH1 0x4 MSTORE PUSH1 0x24 PUSH0 REVERT JUMPDEST PUSH0 PUSH1 0x2 DUP3 DIV SWAP1 POP PUSH1 0x1 DUP3 AND DUP1 PUSH3 0x3D0 JUMPI PUSH1 0x7F DUP3 AND SWAP2 POP JUMPDEST PUSH1 0x20 DUP3 LT DUP2 SUB PUSH3 0x3E6 JUMPI PUSH3 0x3E5 PUSH3 0x38B JUMP JUMPDEST JUMPDEST POP SWAP2 SWAP1 POP JUMP JUMPDEST PUSH0 DUP2 SWAP1 POP DUP2 PUSH0 MSTORE PUSH1 0x20 PUSH0 KECCAK256 SWAP1 POP SWAP2 SWAP1 POP JUMP JUMPDEST PUSH0 PUSH1 0x20 PUSH1 0x1F DUP4 ADD DIV SWAP1 POP SWAP2 SWAP1 POP JUMP JUMPDEST PUSH0 DUP3 DUP3 SHL SWAP1 POP SWAP3 SWAP2 POP POP JUMP JUMPDEST PUSH0 PUSH1 0x8 DUP4 MUL PUSH3 0x44A PUSH32 0xFFFFFFFFFFFFFFFFFFFFFFFFFFFFFFFFFFFFFFFFFFFFFFFFFFFFFFFFFFFFFFFF DUP3 PUSH3 0x40D JUMP JUMPDEST PUSH3 0x456 DUP7 DUP4 PUSH3 0x40D JUMP JUMPDEST SWAP6 POP DUP1 NOT DUP5 AND SWAP4 POP DUP1 DUP7 AND DUP5 OR SWAP3 POP POP POP SWAP4 SWAP3 POP POP POP JUMP JUMPDEST PUSH0 DUP2 SWAP1 POP SWAP2 SWAP1 POP JUMP JUMPDEST PUSH0 PUSH3 0x497 PUSH3 0x491 PUSH3 0x48B DUP5 PUSH3 0x23B JUMP JUMPDEST PUSH3 0x46E JUMP JUMPDEST PUSH3 0x23B JUMP JUMPDEST SWAP1 POP SWAP2 SWAP1 POP JUMP JUMPDEST PUSH0 DUP2 SWAP1 POP SWAP2 SWAP1 POP JUMP JUMPDEST PUSH3 0x4B2 DUP4 PUSH3 0x477 JUMP JUMPDEST PUSH3 0x4CA PUSH3 0x4C1 DUP3 PUSH3 0x49E JUMP JUMPDEST DUP5 DUP5 SLOAD PUSH3 0x419 JUMP JUMPDEST DUP3 SSTORE POP POP POP POP JUMP JUMPDEST PUSH0 SWAP1 JUMP JUMPDEST PUSH3 0x4E0 PUSH3 0x4D2 JUMP JUMPDEST PUSH3 0x4ED DUP2 DUP5 DUP5 PUSH3 0x4A7 JUMP JUMPDEST POP POP POP JUMP JUMPDEST JUMPDEST DUP2 DUP2 LT ISZERO PUSH3 0x514 JUMPI PUSH3 0x508 PUSH0 DUP3 PUSH3 0x4D6 JUMP JUMPDEST PUSH1 0x1 DUP2 ADD SWAP1 POP PUSH3 0x4F3 JUMP JUMPDEST POP POP JUMP JUMPDEST PUSH1 0x1F DUP3 GT ISZERO PUSH3 0x563 JUMPI PUSH3 0x52D DUP2 PUSH3 0x3EC JUMP JUMPDEST PUSH3 0x538 DUP5 PUSH3 0x3FE JUMP JUMPDEST DUP2 ADD PUSH1 0x20 DUP6 LT ISZERO PUSH3 0x548 JUMPI DUP2 SWAP1 POP JUMPDEST PUSH3 0x560 PUSH3 0x557 DUP6 PUSH3 0x3FE JUMP JUMPDEST DUP4 ADD DUP3 PUSH3 0x4F2 JUMP JUMPDEST POP POP JUMPDEST POP POP POP JUMP JUMPDEST PUSH0 DUP3 DUP3 SHR SWAP1 POP SWAP3 SWAP2 POP POP JUMP JUMPDEST PUSH0 PUSH3 0x585 PUSH0 NOT DUP5 PUSH1 0x8 MUL PUSH3 0x568 JUMP JUMPDEST NOT DUP1 DUP4 AND SWAP2 POP POP SWAP3 SWAP2 POP POP JUMP JUMPDEST PUSH0 PUSH3 0x59F DUP4 DUP4 PUSH3 0x574 JUMP JUMPDEST SWAP2 POP DUP3 PUSH1 0x2 MUL DUP3 OR SWAP1 POP SWAP3 SWAP2 POP POP JUMP JUMPDEST PUSH3 0x5BA DUP3 PUSH3 0x381 JUMP JUMPDEST PUSH8 0xFFFFFFFFFFFFFFFF DUP2 GT ISZERO PUSH3 0x5D6 JUMPI PUSH3 0x5D5 PUSH3 0xDF JUMP JUMPDEST JUMPDEST PUSH3 0x5E2 DUP3 SLOAD PUSH3 0x3B8 JUMP JUMPDEST PUSH3 0x5EF DUP3 DUP3 DUP6 PUSH3 0x518 JUMP JUMPDEST PUSH0 PUSH1 0x20 SWAP1 POP PUSH1 0x1F DUP4 GT PUSH1 0x1 DUP2 EQ PUSH3 0x625 JUMPI PUSH0 DUP5 ISZERO PUSH3 0x610 JUMPI DUP3 DUP8 ADD MLOAD SWAP1 POP JUMPDEST PUSH3 0x61C DUP6 DUP3 PUSH3 0x592 JUMP JUMPDEST DUP7 SSTORE POP PUSH3 0x68B JUMP JUMPDEST PUSH1 0x1F NOT DUP5 AND PUSH3 0x635 DUP7 PUSH3 0x3EC JUMP JUMPDEST PUSH0 JUMPDEST DUP3 DUP2 LT ISZERO PUSH3 0x65E JUMPI DUP5 DUP10 ADD MLOAD DUP3 SSTORE PUSH1 0x1 DUP3 ADD SWAP2 POP PUSH1 0x20 DUP6 ADD SWAP5 POP PUSH1 0x20 DUP2 ADD SWAP1 POP PUSH3 0x637 JUMP JUMPDEST DUP7 DUP4 LT ISZERO PUSH3 0x67E JUMPI DUP5 DUP10 ADD MLOAD PUSH3 0x67A PUSH1 0x1F DUP10 AND DUP3 PUSH3 0x574 JUMP JUMPDEST DUP4 SSTORE POP JUMPDEST PUSH1 0x1 PUSH1 0x2 DUP9 MUL ADD DUP9 SSTORE POP POP POP JUMPDEST POP POP POP POP POP POP JUMP JUMPDEST PUSH2 0x18A5 DUP1 PUSH3 0x6A1 PUSH0 CODECOPY PUSH0 RETURN INVALID PUSH1 0x80 PUSH1 0x40 MSTORE PUSH1 0x4 CALLDATASIZE LT PUSH2 0xC1 JUMPI PUSH0 CALLDATALOAD PUSH1 0xE0 SHR DUP1 PUSH4 0x885E7C62 GT PUSH2 0x7E JUMPI DUP1 PUSH4 0xD7BB99BA GT PUSH2 0x58 JUMPI DUP1 PUSH4 0xD7BB99BA EQ PUSH2 0x266 JUMPI DUP1 PUSH4 0xE2E46B52 EQ PUSH2 0x270 JUMPI DUP1 PUSH4 0xF84038B1 EQ PUSH2 0x298 JUMPI DUP1 PUSH4 0xFEED5561 EQ PUSH2 0x2C2 JUMPI PUSH2 0xC1 JUMP JUMPDEST DUP1 PUSH4 0x885E7C62 EQ PUSH2 0x1EA JUMPI DUP1 PUSH4 0xA7AC8000 EQ PUSH2 0x214 JUMPI DUP1 PUSH4 0xD5009584 EQ PUSH2 0x23C JUMPI PUSH2 0xC1 JUMP JUMPDEST DUP1 PUSH4 0xA144391 EQ PUSH2 0xC5 JUMPI DUP1 PUSH4 0x1A092541 EQ PUSH2 0x101 JUMPI DUP1 PUSH4 0x30E8FC5C EQ PUSH2 0x12B JUMPI DUP1 PUSH4 0x4051DDAC EQ PUSH2 0x153 JUMPI DUP1 PUSH4 0x692D51D2 EQ PUSH2 0x17D JUMPI DUP1 PUSH4 0x6F9FB98A EQ PUSH2 0x1C0 JUMPI JUMPDEST PUSH0 DUP1 REVERT JUMPDEST CALLVALUE DUP1 ISZERO PUSH2 0xD0 JUMPI PUSH0 DUP1 REVERT JUMPDEST POP PUSH2 0xEB PUSH1 0x4 DUP1 CALLDATASIZE SUB DUP2 ADD SWAP1 PUSH2 0xE6 SWAP2 SWAP1 PUSH2 0xE45 JUMP JUMPDEST PUSH2 0x2EC JUMP JUMPDEST PUSH1 0x40 MLOAD PUSH2 0xF8 SWAP2 SWAP1 PUSH2 0xE88 JUMP JUMPDEST PUSH1 0x40 MLOAD DUP1 SWAP2 SUB SWAP1 RETURN JUMPDEST CALLVALUE DUP1 ISZERO PUSH2 0x10C JUMPI PUSH0 DUP1 REVERT JUMPDEST POP PUSH2 0x115 PUSH2 0x301 JUMP JUMPDEST PUSH1 0x40 MLOAD PUSH2 0x122 SWAP2 SWAP1 PUSH2 0xF2B JUMP JUMPDEST PUSH1 0x40 MLOAD DUP1 SWAP2 SUB SWAP1 RETURN JUMPDEST CALLVALUE DUP1 ISZERO PUSH2 0x136 JUMPI PUSH0 DUP1 REVERT JUMPDEST POP PUSH2 0x151 PUSH1 0x4 DUP1 CALLDATASIZE SUB DUP2 ADD SWAP1 PUSH2 0x14C SWAP2 SWAP1 PUSH2 0x10AC JUMP JUMPDEST PUSH2 0x391 JUMP JUMPDEST STOP JUMPDEST CALLVALUE DUP1 ISZERO PUSH2 0x15E JUMPI PUSH0 DUP1 REVERT JUMPDEST POP PUSH2 0x167 PUSH2 0x5B9 JUMP JUMPDEST PUSH1 0x40 MLOAD PUSH2 0x174 SWAP2 SWAP1 PUSH2 0x11F9 JUMP JUMPDEST PUSH1 0x40 MLOAD DUP1 SWAP2 SUB SWAP1 RETURN JUMPDEST CALLVALUE DUP1 ISZERO PUSH2 0x188 JUMPI PUSH0 DUP1 REVERT JUMPDEST POP PUSH2 0x1A3 PUSH1 0x4 DUP1 CALLDATASIZE SUB DUP2 ADD SWAP1 PUSH2 0x19E SWAP2 SWAP1 PUSH2 0x1219 JUMP JUMPDEST PUSH2 0x742 JUMP JUMPDEST PUSH1 0x40 MLOAD PUSH2 0x1B7 SWAP9 SWAP8 SWAP7 SWAP6 SWAP5 SWAP4 SWAP3 SWAP2 SWAP1 PUSH2 0x128F JUMP JUMPDEST PUSH1 0x40 MLOAD DUP1 SWAP2 SUB SWAP1 RETURN JUMPDEST CALLVALUE DUP1 ISZERO PUSH2 0x1CB JUMPI PUSH0 DUP1 REVERT JUMPDEST POP PUSH2 0x1D4 PUSH2 0x8E2 JUMP JUMPDEST PUSH1 0x40 MLOAD PUSH2 0x1E1 SWAP2 SWAP1 PUSH2 0xE88 JUMP JUMPDEST PUSH1 0x40 MLOAD DUP1 SWAP2 SUB SWAP1 RETURN JUMPDEST CALLVALUE DUP1 ISZERO PUSH2 0x1F5 JUMPI PUSH0 DUP1 REVERT JUMPDEST POP PUSH2 0x1FE PUSH2 0x8E9 JUMP JUMPDEST PUSH1 0x40 MLOAD PUSH2 0x20B SWAP2 SWAP1 PUSH2 0xF2B JUMP JUMPDEST PUSH1 0x40 MLOAD DUP1 SWAP2 SUB SWAP1 RETURN JUMPDEST CALLVALUE DUP1 ISZERO PUSH2 0x21F JUMPI PUSH0 DUP1 REVERT JUMPDEST POP PUSH2 0x23A PUSH1 0x4 DUP1 CALLDATASIZE SUB DUP2 ADD SWAP1 PUSH2 0x235 SWAP2 SWAP1 PUSH2 0x136D JUMP JUMPDEST PUSH2 0x978 JUMP JUMPDEST STOP JUMPDEST CALLVALUE DUP1 ISZERO PUSH2 0x247 JUMPI PUSH0 DUP1 REVERT JUMPDEST POP PUSH2 0x250 PUSH2 0xAF0 JUMP JUMPDEST PUSH1 0x40 MLOAD PUSH2 0x25D SWAP2 SWAP1 PUSH2 0x142B JUMP JUMPDEST PUSH1 0x40 MLOAD DUP1 SWAP2 SUB SWAP1 RETURN JUMPDEST PUSH2 0x26E PUSH2 0xB18 JUMP JUMPDEST STOP JUMPDEST CALLVALUE DUP1 ISZERO PUSH2 0x27B JUMPI PUSH0 DUP1 REVERT JUMPDEST POP PUSH2 0x296 PUSH1 0x4 DUP1 CALLDATASIZE SUB DUP2 ADD SWAP1 PUSH2 0x291 SWAP2 SWAP1 PUSH2 0x1219 JUMP JUMPDEST PUSH2 0xBDC JUMP JUMPDEST STOP JUMPDEST CALLVALUE DUP1 ISZERO PUSH2 0x2A3 JUMPI PUSH0 DUP1 REVERT JUMPDEST POP PUSH2 0x2AC PUSH2 0xD80 JUMP JUMPDEST PUSH1 0x40 MLOAD PUSH2 0x2B9 SWAP2 SWAP1 PUSH2 0xE88 JUMP JUMPDEST PUSH1 0x40 MLOAD DUP1 SWAP2 SUB SWAP1 RETURN JUMPDEST CALLVALUE DUP1 ISZERO PUSH2 0x2CD JUMPI PUSH0 DUP1 REVERT JUMPDEST POP PUSH2 0x2D6 PUSH2 0xD89 JUMP JUMPDEST PUSH1 0x40 MLOAD PUSH2 0x2E3 SWAP2 SWAP1 PUSH2 0xE88 JUMP JUMPDEST PUSH1 0x40 MLOAD DUP1 SWAP2 SUB SWAP1 RETURN JUMPDEST PUSH1 0x3 PUSH1 0x20 MSTORE DUP1 PUSH0 MSTORE PUSH1 0x40 PUSH0 KECCAK256 PUSH0 SWAP2 POP SWAP1 POP SLOAD DUP2 JUMP JUMPDEST PUSH1 0x60 PUSH1 0x1 DUP1 SLOAD PUSH2 0x310 SWAP1 PUSH2 0x1471 JUMP JUMPDEST DUP1 PUSH1 0x1F ADD PUSH1 0x20 DUP1 SWAP2 DIV MUL PUSH1 0x20 ADD PUSH1 0x40 MLOAD SWAP1 DUP2 ADD PUSH1 0x40 MSTORE DUP1 SWAP3 SWAP2 SWAP1 DUP2 DUP2 MSTORE PUSH1 0x20 ADD DUP3 DUP1 SLOAD PUSH2 0x33C SWAP1 PUSH2 0x1471 JUMP JUMPDEST DUP1 ISZERO PUSH2 0x387 JUMPI DUP1 PUSH1 0x1F LT PUSH2 0x35E JUMPI PUSH2 0x100 DUP1 DUP4 SLOAD DIV MUL DUP4 MSTORE SWAP2 PUSH1 0x20 ADD SWAP2 PUSH2 0x387 JUMP JUMPDEST DUP3 ADD SWAP2 SWAP1 PUSH0 MSTORE PUSH1 0x20 PUSH0 KECCAK256 SWAP1 JUMPDEST DUP2 SLOAD DUP2 MSTORE SWAP1 PUSH1 0x1 ADD SWAP1 PUSH1 0x20 ADD DUP1 DUP4 GT PUSH2 0x36A JUMPI DUP3 SWAP1 SUB PUSH1 0x1F AND DUP3 ADD SWAP2 JUMPDEST POP POP POP POP POP SWAP1 POP SWAP1 JUMP JUMPDEST PUSH1 0x2 PUSH0 SWAP1 SLOAD SWAP1 PUSH2 0x100 EXP SWAP1 DIV PUSH20 0xFFFFFFFFFFFFFFFFFFFFFFFFFFFFFFFFFFFFFFFF AND PUSH20 0xFFFFFFFFFFFFFFFFFFFFFFFFFFFFFFFFFFFFFFFF AND CALLER PUSH20 0xFFFFFFFFFFFFFFFFFFFFFFFFFFFFFFFFFFFFFFFF AND SUB PUSH2 0x3E9 JUMPI PUSH0 DUP1 REVERT JUMPDEST PUSH0 PUSH1 0x6 DUP4 PUSH1 0x40 MLOAD PUSH2 0x3FA SWAP2 SWAP1 PUSH2 0x14DB JUMP JUMPDEST SWAP1 DUP2 MSTORE PUSH1 0x20 ADD PUSH1 0x40 MLOAD DUP1 SWAP2 SUB SWAP1 KECCAK256 SWAP1 POP PUSH0 DUP2 PUSH0 ADD DUP1 SLOAD PUSH2 0x419 SWAP1 PUSH2 0x1471 JUMP JUMPDEST SWAP1 POP GT PUSH2 0x424 JUMPI PUSH0 DUP1 REVERT JUMPDEST DUP3 MLOAD DUP2 PUSH0 ADD DUP1 SLOAD PUSH2 0x434 SWAP1 PUSH2 0x1471 JUMP JUMPDEST SWAP1 POP EQ PUSH2 0x43F JUMPI PUSH0 DUP1 REVERT JUMPDEST PUSH0 PUSH1 0x3 PUSH0 CALLER PUSH20 0xFFFFFFFFFFFFFFFFFFFFFFFFFFFFFFFFFFFFFFFF AND PUSH20 0xFFFFFFFFFFFFFFFFFFFFFFFFFFFFFFFFFFFFFFFF AND DUP2 MSTORE PUSH1 0x20 ADD SWAP1 DUP2 MSTORE PUSH1 0x20 ADD PUSH0 KECCAK256 SLOAD GT PUSH2 0x487 JUMPI PUSH0 DUP1 REVERT JUMPDEST DUP1 PUSH1 0x6 ADD PUSH0 SWAP1 SLOAD SWAP1 PUSH2 0x100 EXP SWAP1 DIV PUSH1 0xFF AND ISZERO PUSH2 0x4A1 JUMPI PUSH0 DUP1 REVERT JUMPDEST DUP1 PUSH1 0x6 ADD PUSH1 0x1 SWAP1 SLOAD SWAP1 PUSH2 0x100 EXP SWAP1 DIV PUSH1 0xFF AND ISZERO PUSH2 0x4BC JUMPI PUSH0 DUP1 REVERT JUMPDEST DUP1 PUSH1 0x7 ADD PUSH0 CALLER PUSH20 0xFFFFFFFFFFFFFFFFFFFFFFFFFFFFFFFFFFFFFFFF AND PUSH20 0xFFFFFFFFFFFFFFFFFFFFFFFFFFFFFFFFFFFFFFFF AND DUP2 MSTORE PUSH1 0x20 ADD SWAP1 DUP2 MSTORE PUSH1 0x20 ADD PUSH0 KECCAK256 PUSH0 SWAP1 SLOAD SWAP1 PUSH2 0x100 EXP SWAP1 DIV PUSH1 0xFF AND ISZERO PUSH2 0x511 JUMPI PUSH0 DUP1 REVERT JUMPDEST PUSH1 0x1 DUP2 PUSH1 0x7 ADD PUSH0 CALLER PUSH20 0xFFFFFFFFFFFFFFFFFFFFFFFFFFFFFFFFFFFFFFFF AND PUSH20 0xFFFFFFFFFFFFFFFFFFFFFFFFFFFFFFFFFFFFFFFF AND DUP2 MSTORE PUSH1 0x20 ADD SWAP1 DUP2 MSTORE PUSH1 0x20 ADD PUSH0 KECCAK256 PUSH0 PUSH2 0x100 EXP DUP2 SLOAD DUP2 PUSH1 0xFF MUL NOT AND SWAP1 DUP4 ISZERO ISZERO MUL OR SWAP1 SSTORE POP DUP2 ISZERO PUSH2 0x588 JUMPI DUP1 PUSH1 0x4 ADD PUSH0 DUP2 SLOAD DUP1 SWAP3 SWAP2 SWAP1 PUSH2 0x582 SWAP1 PUSH2 0x151E JUMP JUMPDEST SWAP2 SWAP1 POP SSTORE POP JUMPDEST DUP1 PUSH1 0x5 ADD SLOAD DUP2 PUSH1 0x4 ADD SLOAD LT PUSH2 0x5B4 JUMPI PUSH1 0x1 DUP2 PUSH1 0x6 ADD PUSH0 PUSH2 0x100 EXP DUP2 SLOAD DUP2 PUSH1 0xFF MUL NOT AND SWAP1 DUP4 ISZERO ISZERO MUL OR SWAP1 SSTORE POP JUMPDEST POP POP POP JUMP JUMPDEST PUSH2 0x5C1 PUSH2 0xD92 JUMP JUMPDEST PUSH0 PUSH1 0x40 MLOAD DUP1 PUSH1 0xC0 ADD PUSH1 0x40 MSTORE DUP1 PUSH1 0x2 PUSH0 SWAP1 SLOAD SWAP1 PUSH2 0x100 EXP SWAP1 DIV PUSH20 0xFFFFFFFFFFFFFFFFFFFFFFFFFFFFFFFFFFFFFFFF AND PUSH20 0xFFFFFFFFFFFFFFFFFFFFFFFFFFFFFFFFFFFFFFFF AND DUP2 MSTORE PUSH1 0x20 ADD PUSH0 DUP1 SLOAD PUSH2 0x616 SWAP1 PUSH2 0x1471 JUMP JUMPDEST DUP1 PUSH1 0x1F ADD PUSH1 0x20 DUP1 SWAP2 DIV MUL PUSH1 0x20 ADD PUSH1 0x40 MLOAD SWAP1 DUP2 ADD PUSH1 0x40 MSTORE DUP1 SWAP3 SWAP2 SWAP1 DUP2 DUP2 MSTORE PUSH1 0x20 ADD DUP3 DUP1 SLOAD PUSH2 0x642 SWAP1 PUSH2 0x1471 JUMP JUMPDEST DUP1 ISZERO PUSH2 0x68D JUMPI DUP1 PUSH1 0x1F LT PUSH2 0x664 JUMPI PUSH2 0x100 DUP1 DUP4 SLOAD DIV MUL DUP4 MSTORE SWAP2 PUSH1 0x20 ADD SWAP2 PUSH2 0x68D JUMP JUMPDEST DUP3 ADD SWAP2 SWAP1 PUSH0 MSTORE PUSH1 0x20 PUSH0 KECCAK256 SWAP1 JUMPDEST DUP2 SLOAD DUP2 MSTORE SWAP1 PUSH1 0x1 ADD SWAP1 PUSH1 0x20 ADD DUP1 DUP4 GT PUSH2 0x670 JUMPI DUP3 SWAP1 SUB PUSH1 0x1F AND DUP3 ADD SWAP2 JUMPDEST POP POP POP POP POP DUP2 MSTORE PUSH1 0x20 ADD PUSH1 0x1 DUP1 SLOAD PUSH2 0x6A4 SWAP1 PUSH2 0x1471 JUMP JUMPDEST DUP1 PUSH1 0x1F ADD PUSH1 0x20 DUP1 SWAP2 DIV MUL PUSH1 0x20 ADD PUSH1 0x40 MLOAD SWAP1 DUP2 ADD PUSH1 0x40 MSTORE DUP1 SWAP3 SWAP2 SWAP1 DUP2 DUP2 MSTORE PUSH1 0x20 ADD DUP3 DUP1 SLOAD PUSH2 0x6D0 SWAP1 PUSH2 0x1471 JUMP JUMPDEST DUP1 ISZERO PUSH2 0x71B JUMPI DUP1 PUSH1 0x1F LT PUSH2 0x6F2 JUMPI PUSH2 0x100 DUP1 DUP4 SLOAD DIV MUL DUP4 MSTORE SWAP2 PUSH1 0x20 ADD SWAP2 PUSH2 0x71B JUMP JUMPDEST DUP3 ADD SWAP2 SWAP1 PUSH0 MSTORE PUSH1 0x20 PUSH0 KECCAK256 SWAP1 JUMPDEST DUP2 SLOAD DUP2 MSTORE SWAP1 PUSH1 0x1 ADD SWAP1 PUSH1 0x20 ADD DUP1 DUP4 GT PUSH2 0x6FE JUMPI DUP3 SWAP1 SUB PUSH1 0x1F AND DUP3 ADD SWAP2 JUMPDEST POP POP POP POP POP DUP2 MSTORE PUSH1 0x20 ADD PUSH1 0x5 SLOAD DUP2 MSTORE PUSH1 0x20 ADD SELFBALANCE DUP2 MSTORE PUSH1 0x20 ADD PUSH1 0x4 SLOAD DUP2 MSTORE POP SWAP1 POP DUP1 SWAP2 POP POP SWAP1 JUMP JUMPDEST PUSH1 0x6 DUP2 DUP1 MLOAD PUSH1 0x20 DUP2 ADD DUP3 ADD DUP1 MLOAD DUP5 DUP3 MSTORE PUSH1 0x20 DUP4 ADD PUSH1 0x20 DUP6 ADD KECCAK256 DUP2 DUP4 MSTORE DUP1 SWAP6 POP POP POP POP POP POP PUSH0 SWAP2 POP SWAP1 POP DUP1 PUSH0 ADD DUP1 SLOAD PUSH2 0x779 SWAP1 PUSH2 0x1471 JUMP JUMPDEST DUP1 PUSH1 0x1F ADD PUSH1 0x20 DUP1 SWAP2 DIV MUL PUSH1 0x20 ADD PUSH1 0x40 MLOAD SWAP1 DUP2 ADD PUSH1 0x40 MSTORE DUP1 SWAP3 SWAP2 SWAP1 DUP2 DUP2 MSTORE PUSH1 0x20 ADD DUP3 DUP1 SLOAD PUSH2 0x7A5 SWAP1 PUSH2 0x1471 JUMP JUMPDEST DUP1 ISZERO PUSH2 0x7F0 JUMPI DUP1 PUSH1 0x1F LT PUSH2 0x7C7 JUMPI PUSH2 0x100 DUP1 DUP4 SLOAD DIV MUL DUP4 MSTORE SWAP2 PUSH1 0x20 ADD SWAP2 PUSH2 0x7F0 JUMP JUMPDEST DUP3 ADD SWAP2 SWAP1 PUSH0 MSTORE PUSH1 0x20 PUSH0 KECCAK256 SWAP1 JUMPDEST DUP2 SLOAD DUP2 MSTORE SWAP1 PUSH1 0x1 ADD SWAP1 PUSH1 0x20 ADD DUP1 DUP4 GT PUSH2 0x7D3 JUMPI DUP3 SWAP1 SUB PUSH1 0x1F AND DUP3 ADD SWAP2 JUMPDEST POP POP POP POP POP SWAP1 DUP1 PUSH1 0x1 ADD DUP1 SLOAD PUSH2 0x805 SWAP1 PUSH2 0x1471 JUMP JUMPDEST DUP1 PUSH1 0x1F ADD PUSH1 0x20 DUP1 SWAP2 DIV MUL PUSH1 0x20 ADD PUSH1 0x40 MLOAD SWAP1 DUP2 ADD PUSH1 0x40 MSTORE DUP1 SWAP3 SWAP2 SWAP1 DUP2 DUP2 MSTORE PUSH1 0x20 ADD DUP3 DUP1 SLOAD PUSH2 0x831 SWAP1 PUSH2 0x1471 JUMP JUMPDEST DUP1 ISZERO PUSH2 0x87C JUMPI DUP1 PUSH1 0x1F LT PUSH2 0x853 JUMPI PUSH2 0x100 DUP1 DUP4 SLOAD DIV MUL DUP4 MSTORE SWAP2 PUSH1 0x20 ADD SWAP2 PUSH2 0x87C JUMP JUMPDEST DUP3 ADD SWAP2 SWAP1 PUSH0 MSTORE PUSH1 0x20 PUSH0 KECCAK256 SWAP1 JUMPDEST DUP2 SLOAD DUP2 MSTORE SWAP1 PUSH1 0x1 ADD SWAP1 PUSH1 0x20 ADD DUP1 DUP4 GT PUSH2 0x85F JUMPI DUP3 SWAP1 SUB PUSH1 0x1F AND DUP3 ADD SWAP2 JUMPDEST POP POP POP POP POP SWAP1 DUP1 PUSH1 0x2 ADD SLOAD SWAP1 DUP1 PUSH1 0x3 ADD PUSH0 SWAP1 SLOAD SWAP1 PUSH2 0x100 EXP SWAP1 DIV PUSH20 0xFFFFFFFFFFFFFFFFFFFFFFFFFFFFFFFFFFFFFFFF AND SWAP1 DUP1 PUSH1 0x4 ADD SLOAD SWAP1 DUP1 PUSH1 0x5 ADD SLOAD SWAP1 DUP1 PUSH1 0x6 ADD PUSH0 SWAP1 SLOAD SWAP1 PUSH2 0x100 EXP SWAP1 DIV PUSH1 0xFF AND SWAP1 DUP1 PUSH1 0x6 ADD PUSH1 0x1 SWAP1 SLOAD SWAP1 PUSH2 0x100 EXP SWAP1 DIV PUSH1 0xFF AND SWAP1 POP DUP9 JUMP JUMPDEST PUSH0 SELFBALANCE SWAP1 POP SWAP1 JUMP JUMPDEST PUSH1 0x60 PUSH0 DUP1 SLOAD PUSH2 0x8F7 SWAP1 PUSH2 0x1471 JUMP JUMPDEST DUP1 PUSH1 0x1F ADD PUSH1 0x20 DUP1 SWAP2 DIV MUL PUSH1 0x20 ADD PUSH1 0x40 MLOAD SWAP1 DUP2 ADD PUSH1 0x40 MSTORE DUP1 SWAP3 SWAP2 SWAP1 DUP2 DUP2 MSTORE PUSH1 0x20 ADD DUP3 DUP1 SLOAD PUSH2 0x923 SWAP1 PUSH2 0x1471 JUMP JUMPDEST DUP1 ISZERO PUSH2 0x96E JUMPI DUP1 PUSH1 0x1F LT PUSH2 0x945 JUMPI PUSH2 0x100 DUP1 DUP4 SLOAD DIV MUL DUP4 MSTORE SWAP2 PUSH1 0x20 ADD SWAP2 PUSH2 0x96E JUMP JUMPDEST DUP3 ADD SWAP2 SWAP1 PUSH0 MSTORE PUSH1 0x20 PUSH0 KECCAK256 SWAP1 JUMPDEST DUP2 SLOAD DUP2 MSTORE SWAP1 PUSH1 0x1 ADD SWAP1 PUSH1 0x20 ADD DUP1 DUP4 GT PUSH2 0x951 JUMPI DUP3 SWAP1 SUB PUSH1 0x1F AND DUP3 ADD SWAP2 JUMPDEST POP POP POP POP POP SWAP1 POP SWAP1 JUMP JUMPDEST PUSH1 0x2 PUSH0 SWAP1 SLOAD SWAP1 PUSH2 0x100 EXP SWAP1 DIV PUSH20 0xFFFFFFFFFFFFFFFFFFFFFFFFFFFFFFFFFFFFFFFF AND PUSH20 0xFFFFFFFFFFFFFFFFFFFFFFFFFFFFFFFFFFFFFFFF AND CALLER PUSH20 0xFFFFFFFFFFFFFFFFFFFFFFFFFFFFFFFFFFFFFFFF AND EQ PUSH2 0x9D0 JUMPI PUSH0 DUP1 REVERT JUMPDEST PUSH0 DUP6 MLOAD GT PUSH2 0x9DC JUMPI PUSH0 DUP1 REVERT JUMPDEST PUSH0 DUP5 MLOAD GT PUSH2 0x9E8 JUMPI PUSH0 DUP1 REVERT JUMPDEST PUSH0 DUP4 GT PUSH2 0x9F3 JUMPI PUSH0 DUP1 REVERT JUMPDEST PUSH8 0xDE0B6B3A7640000 SELFBALANCE PUSH2 0xA07 SWAP2 SWAP1 PUSH2 0x1592 JUMP JUMPDEST DUP4 GT ISZERO PUSH2 0xA12 JUMPI PUSH0 DUP1 REVERT JUMPDEST PUSH0 DUP3 GT PUSH2 0xA1D JUMPI PUSH0 DUP1 REVERT JUMPDEST PUSH1 0x4 SLOAD DUP3 GT ISZERO PUSH2 0xA2B JUMPI PUSH0 DUP1 REVERT JUMPDEST PUSH0 PUSH1 0x6 DUP7 PUSH1 0x40 MLOAD PUSH2 0xA3C SWAP2 SWAP1 PUSH2 0x14DB JUMP JUMPDEST SWAP1 DUP2 MSTORE PUSH1 0x20 ADD PUSH1 0x40 MLOAD DUP1 SWAP2 SUB SWAP1 KECCAK256 SWAP1 POP DUP6 DUP2 PUSH0 ADD SWAP1 DUP2 PUSH2 0xA5C SWAP2 SWAP1 PUSH2 0x175F JUMP JUMPDEST POP DUP5 DUP2 PUSH1 0x1 ADD SWAP1 DUP2 PUSH2 0xA6E SWAP2 SWAP1 PUSH2 0x175F JUMP JUMPDEST POP DUP4 DUP2 PUSH1 0x2 ADD DUP2 SWAP1 SSTORE POP DUP2 DUP2 PUSH1 0x3 ADD PUSH0 PUSH2 0x100 EXP DUP2 SLOAD DUP2 PUSH20 0xFFFFFFFFFFFFFFFFFFFFFFFFFFFFFFFFFFFFFFFF MUL NOT AND SWAP1 DUP4 PUSH20 0xFFFFFFFFFFFFFFFFFFFFFFFFFFFFFFFFFFFFFFFF AND MUL OR SWAP1 SSTORE POP PUSH0 DUP2 PUSH1 0x4 ADD DUP2 SWAP1 SSTORE POP DUP3 DUP2 PUSH1 0x5 ADD DUP2 SWAP1 SSTORE POP PUSH0 DUP2 PUSH1 0x6 ADD PUSH1 0x1 PUSH2 0x100 EXP DUP2 SLOAD DUP2 PUSH1 0xFF MUL NOT AND SWAP1 DUP4 ISZERO ISZERO MUL OR SWAP1 SSTORE POP POP POP POP POP POP POP JUMP JUMPDEST PUSH0 PUSH1 0x2 PUSH0 SWAP1 SLOAD SWAP1 PUSH2 0x100 EXP SWAP1 DIV PUSH20 0xFFFFFFFFFFFFFFFFFFFFFFFFFFFFFFFFFFFFFFFF AND SWAP1 POP SWAP1 JUMP JUMPDEST PUSH1 0x5 SLOAD CALLVALUE LT ISZERO PUSH2 0xB26 JUMPI PUSH0 DUP1 REVERT JUMPDEST PUSH0 PUSH1 0x3 PUSH0 CALLER PUSH20 0xFFFFFFFFFFFFFFFFFFFFFFFFFFFFFFFFFFFFFFFF AND PUSH20 0xFFFFFFFFFFFFFFFFFFFFFFFFFFFFFFFFFFFFFFFF AND DUP2 MSTORE PUSH1 0x20 ADD SWAP1 DUP2 MSTORE PUSH1 0x20 ADD PUSH0 KECCAK256 SLOAD EQ PUSH2 0xB6E JUMPI PUSH0 DUP1 REVERT JUMPDEST PUSH8 0xDE0B6B3A7640000 CALLVALUE PUSH2 0xB82 SWAP2 SWAP1 PUSH2 0x1592 JUMP JUMPDEST PUSH1 0x3 PUSH0 CALLER PUSH20 0xFFFFFFFFFFFFFFFFFFFFFFFFFFFFFFFFFFFFFFFF AND PUSH20 0xFFFFFFFFFFFFFFFFFFFFFFFFFFFFFFFFFFFFFFFF AND DUP2 MSTORE PUSH1 0x20 ADD SWAP1 DUP2 MSTORE PUSH1 0x20 ADD PUSH0 KECCAK256 DUP2 SWAP1 SSTORE POP PUSH1 0x4 PUSH0 DUP2 SLOAD DUP1 SWAP3 SWAP2 SWAP1 PUSH2 0xBD5 SWAP1 PUSH2 0x151E JUMP JUMPDEST SWAP2 SWAP1 POP SSTORE POP JUMP JUMPDEST PUSH1 0x2 PUSH0 SWAP1 SLOAD SWAP1 PUSH2 0x100 EXP SWAP1 DIV PUSH20 0xFFFFFFFFFFFFFFFFFFFFFFFFFFFFFFFFFFFFFFFF AND PUSH20 0xFFFFFFFFFFFFFFFFFFFFFFFFFFFFFFFFFFFFFFFF AND CALLER PUSH20 0xFFFFFFFFFFFFFFFFFFFFFFFFFFFFFFFFFFFFFFFF AND EQ PUSH2 0xC34 JUMPI PUSH0 DUP1 REVERT JUMPDEST PUSH0 PUSH1 0x6 DUP3 PUSH1 0x40 MLOAD PUSH2 0xC45 SWAP2 SWAP1 PUSH2 0x14DB JUMP JUMPDEST SWAP1 DUP2 MSTORE PUSH1 0x20 ADD PUSH1 0x40 MLOAD DUP1 SWAP2 SUB SWAP1 KECCAK256 SWAP1 POP PUSH0 DUP2 PUSH0 ADD DUP1 SLOAD PUSH2 0xC64 SWAP1 PUSH2 0x1471 JUMP JUMPDEST SWAP1 POP GT PUSH2 0xC6F JUMPI PUSH0 DUP1 REVERT JUMPDEST DUP2 MLOAD DUP2 PUSH0 ADD DUP1 SLOAD PUSH2 0xC7F SWAP1 PUSH2 0x1471 JUMP JUMPDEST SWAP1 POP EQ PUSH2 0xC8A JUMPI PUSH0 DUP1 REVERT JUMPDEST DUP1 PUSH1 0x6 ADD PUSH0 SWAP1 SLOAD SWAP1 PUSH2 0x100 EXP SWAP1 DIV PUSH1 0xFF AND DUP1 ISZERO PUSH2 0xCB6 JUMPI POP DUP1 PUSH1 0x6 ADD PUSH1 0x1 SWAP1 SLOAD SWAP1 PUSH2 0x100 EXP SWAP1 DIV PUSH1 0xFF AND ISZERO JUMPDEST PUSH2 0xCBE JUMPI PUSH0 DUP1 REVERT JUMPDEST DUP1 PUSH1 0x2 ADD SLOAD PUSH8 0xDE0B6B3A7640000 SELFBALANCE PUSH2 0xCD7 SWAP2 SWAP1 PUSH2 0x1592 JUMP JUMPDEST LT ISZERO PUSH2 0xCE1 JUMPI PUSH0 DUP1 REVERT JUMPDEST DUP1 PUSH1 0x3 ADD PUSH0 SWAP1 SLOAD SWAP1 PUSH2 0x100 EXP SWAP1 DIV PUSH20 0xFFFFFFFFFFFFFFFFFFFFFFFFFFFFFFFFFFFFFFFF AND PUSH20 0xFFFFFFFFFFFFFFFFFFFFFFFFFFFFFFFFFFFFFFFF AND PUSH2 0x8FC PUSH8 0xDE0B6B3A7640000 DUP4 PUSH1 0x2 ADD SLOAD PUSH2 0xD36 SWAP2 SWAP1 PUSH2 0x182E JUMP JUMPDEST SWAP1 DUP2 ISZERO MUL SWAP1 PUSH1 0x40 MLOAD PUSH0 PUSH1 0x40 MLOAD DUP1 DUP4 SUB DUP2 DUP6 DUP9 DUP9 CALL SWAP4 POP POP POP POP ISZERO DUP1 ISZERO PUSH2 0xD5E JUMPI RETURNDATASIZE PUSH0 DUP1 RETURNDATACOPY RETURNDATASIZE PUSH0 REVERT JUMPDEST POP PUSH1 0x1 DUP2 PUSH1 0x6 ADD PUSH1 0x1 PUSH2 0x100 EXP DUP2 SLOAD DUP2 PUSH1 0xFF MUL NOT AND SWAP1 DUP4 ISZERO ISZERO MUL OR SWAP1 SSTORE POP POP POP JUMP JUMPDEST PUSH0 PUSH1 0x5 SLOAD SWAP1 POP SWAP1 JUMP JUMPDEST PUSH0 PUSH1 0x4 SLOAD SWAP1 POP SWAP1 JUMP JUMPDEST PUSH1 0x40 MLOAD DUP1 PUSH1 0xC0 ADD PUSH1 0x40 MSTORE DUP1 PUSH0 PUSH20 0xFFFFFFFFFFFFFFFFFFFFFFFFFFFFFFFFFFFFFFFF AND DUP2 MSTORE PUSH1 0x20 ADD PUSH1 0x60 DUP2 MSTORE PUSH1 0x20 ADD PUSH1 0x60 DUP2 MSTORE PUSH1 0x20 ADD PUSH0 DUP2 MSTORE PUSH1 0x20 ADD PUSH0 DUP2 MSTORE PUSH1 0x20 ADD PUSH0 DUP2 MSTORE POP SWAP1 JUMP JUMPDEST PUSH0 PUSH1 0x40 MLOAD SWAP1 POP SWAP1 JUMP JUMPDEST PUSH0 DUP1 REVERT JUMPDEST PUSH0 DUP1 REVERT JUMPDEST PUSH0 PUSH20 0xFFFFFFFFFFFFFFFFFFFFFFFFFFFFFFFFFFFFFFFF DUP3 AND SWAP1 POP SWAP2 SWAP1 POP JUMP JUMPDEST PUSH0 PUSH2 0xE14 DUP3 PUSH2 0xDEB JUMP JUMPDEST SWAP1 POP SWAP2 SWAP1 POP JUMP JUMPDEST PUSH2 0xE24 DUP2 PUSH2 0xE0A JUMP JUMPDEST DUP2 EQ PUSH2 0xE2E JUMPI PUSH0 DUP1 REVERT JUMPDEST POP JUMP JUMPDEST PUSH0 DUP2 CALLDATALOAD SWAP1 POP PUSH2 0xE3F DUP2 PUSH2 0xE1B JUMP JUMPDEST SWAP3 SWAP2 POP POP JUMP JUMPDEST PUSH0 PUSH1 0x20 DUP3 DUP5 SUB SLT ISZERO PUSH2 0xE5A JUMPI PUSH2 0xE59 PUSH2 0xDE3 JUMP JUMPDEST JUMPDEST PUSH0 PUSH2 0xE67 DUP5 DUP3 DUP6 ADD PUSH2 0xE31 JUMP JUMPDEST SWAP2 POP POP SWAP3 SWAP2 POP POP JUMP JUMPDEST PUSH0 DUP2 SWAP1 POP SWAP2 SWAP1 POP JUMP JUMPDEST PUSH2 0xE82 DUP2 PUSH2 0xE70 JUMP JUMPDEST DUP3 MSTORE POP POP JUMP JUMPDEST PUSH0 PUSH1 0x20 DUP3 ADD SWAP1 POP PUSH2 0xE9B PUSH0 DUP4 ADD DUP5 PUSH2 0xE79 JUMP JUMPDEST SWAP3 SWAP2 POP POP JUMP JUMPDEST PUSH0 DUP2 MLOAD SWAP1 POP SWAP2 SWAP1 POP JUMP JUMPDEST PUSH0 DUP3 DUP3 MSTORE PUSH1 0x20 DUP3 ADD SWAP1 POP SWAP3 SWAP2 POP POP JUMP JUMPDEST PUSH0 JUMPDEST DUP4 DUP2 LT ISZERO PUSH2 0xED8 JUMPI DUP1 DUP3 ADD MLOAD DUP2 DUP5 ADD MSTORE PUSH1 0x20 DUP2 ADD SWAP1 POP PUSH2 0xEBD JUMP JUMPDEST PUSH0 DUP5 DUP5 ADD MSTORE POP POP POP POP JUMP JUMPDEST PUSH0 PUSH1 0x1F NOT PUSH1 0x1F DUP4 ADD AND SWAP1 POP SWAP2 SWAP1 POP JUMP JUMPDEST PUSH0 PUSH2 0xEFD DUP3 PUSH2 0xEA1 JUMP JUMPDEST PUSH2 0xF07 DUP2 DUP6 PUSH2 0xEAB JUMP JUMPDEST SWAP4 POP PUSH2 0xF17 DUP2 DUP6 PUSH1 0x20 DUP7 ADD PUSH2 0xEBB JUMP JUMPDEST PUSH2 0xF20 DUP2 PUSH2 0xEE3 JUMP JUMPDEST DUP5 ADD SWAP2 POP POP SWAP3 SWAP2 POP POP JUMP JUMPDEST PUSH0 PUSH1 0x20 DUP3 ADD SWAP1 POP DUP2 DUP2 SUB PUSH0 DUP4 ADD MSTORE PUSH2 0xF43 DUP2 DUP5 PUSH2 0xEF3 JUMP JUMPDEST SWAP1 POP SWAP3 SWAP2 POP POP JUMP JUMPDEST PUSH0 DUP1 REVERT JUMPDEST PUSH0 DUP1 REVERT JUMPDEST PUSH32 0x4E487B7100000000000000000000000000000000000000000000000000000000 PUSH0 MSTORE PUSH1 0x41 PUSH1 0x4 MSTORE PUSH1 0x24 PUSH0 REVERT JUMPDEST PUSH2 0xF89 DUP3 PUSH2 0xEE3 JUMP JUMPDEST DUP2 ADD DUP2 DUP2 LT PUSH8 0xFFFFFFFFFFFFFFFF DUP3 GT OR ISZERO PUSH2 0xFA8 JUMPI PUSH2 0xFA7 PUSH2 0xF53 JUMP JUMPDEST JUMPDEST DUP1 PUSH1 0x40 MSTORE POP POP POP JUMP JUMPDEST PUSH0 PUSH2 0xFBA PUSH2 0xDDA JUMP JUMPDEST SWAP1 POP PUSH2 0xFC6 DUP3 DUP3 PUSH2 0xF80 JUMP JUMPDEST SWAP2 SWAP1 POP JUMP JUMPDEST PUSH0 PUSH8 0xFFFFFFFFFFFFFFFF DUP3 GT ISZERO PUSH2 0xFE5 JUMPI PUSH2 0xFE4 PUSH2 0xF53 JUMP JUMPDEST JUMPDEST PUSH2 0xFEE DUP3 PUSH2 0xEE3 JUMP JUMPDEST SWAP1 POP PUSH1 0x20 DUP2 ADD SWAP1 POP SWAP2 SWAP1 POP JUMP JUMPDEST DUP3 DUP2 DUP4 CALLDATACOPY PUSH0 DUP4 DUP4 ADD MSTORE POP POP POP JUMP JUMPDEST PUSH0 PUSH2 0x101B PUSH2 0x1016 DUP5 PUSH2 0xFCB JUMP JUMPDEST PUSH2 0xFB1 JUMP JUMPDEST SWAP1 POP DUP3 DUP2 MSTORE PUSH1 0x20 DUP2 ADD DUP5 DUP5 DUP5 ADD GT ISZERO PUSH2 0x1037 JUMPI PUSH2 0x1036 PUSH2 0xF4F JUMP JUMPDEST JUMPDEST PUSH2 0x1042 DUP5 DUP3 DUP6 PUSH2 0xFFB JUMP JUMPDEST POP SWAP4 SWAP3 POP POP POP JUMP JUMPDEST PUSH0 DUP3 PUSH1 0x1F DUP4 ADD SLT PUSH2 0x105E JUMPI PUSH2 0x105D PUSH2 0xF4B JUMP JUMPDEST JUMPDEST DUP2 CALLDATALOAD PUSH2 0x106E DUP5 DUP3 PUSH1 0x20 DUP7 ADD PUSH2 0x1009 JUMP JUMPDEST SWAP2 POP POP SWAP3 SWAP2 POP POP JUMP JUMPDEST PUSH0 DUP2 ISZERO ISZERO SWAP1 POP SWAP2 SWAP1 POP JUMP JUMPDEST PUSH2 0x108B DUP2 PUSH2 0x1077 JUMP JUMPDEST DUP2 EQ PUSH2 0x1095 JUMPI PUSH0 DUP1 REVERT JUMPDEST POP JUMP JUMPDEST PUSH0 DUP2 CALLDATALOAD SWAP1 POP PUSH2 0x10A6 DUP2 PUSH2 0x1082 JUMP JUMPDEST SWAP3 SWAP2 POP POP JUMP JUMPDEST PUSH0 DUP1 PUSH1 0x40 DUP4 DUP6 SUB SLT ISZERO PUSH2 0x10C2 JUMPI PUSH2 0x10C1 PUSH2 0xDE3 JUMP JUMPDEST JUMPDEST PUSH0 DUP4 ADD CALLDATALOAD PUSH8 0xFFFFFFFFFFFFFFFF DUP2 GT ISZERO PUSH2 0x10DF JUMPI PUSH2 0x10DE PUSH2 0xDE7 JUMP JUMPDEST JUMPDEST PUSH2 0x10EB DUP6 DUP3 DUP7 ADD PUSH2 0x104A JUMP JUMPDEST SWAP3 POP POP PUSH1 0x20 PUSH2 0x10FC DUP6 DUP3 DUP7 ADD PUSH2 0x1098 JUMP JUMPDEST SWAP2 POP POP SWAP3 POP SWAP3 SWAP1 POP JUMP JUMPDEST PUSH2 0x110F DUP2 PUSH2 0xE0A JUMP JUMPDEST DUP3 MSTORE POP POP JUMP JUMPDEST PUSH0 DUP3 DUP3 MSTORE PUSH1 0x20 DUP3 ADD SWAP1 POP SWAP3 SWAP2 POP POP JUMP JUMPDEST PUSH0 PUSH2 0x112F DUP3 PUSH2 0xEA1 JUMP JUMPDEST PUSH2 0x1139 DUP2 DUP6 PUSH2 0x1115 JUMP JUMPDEST SWAP4 POP PUSH2 0x1149 DUP2 DUP6 PUSH1 0x20 DUP7 ADD PUSH2 0xEBB JUMP JUMPDEST PUSH2 0x1152 DUP2 PUSH2 0xEE3 JUMP JUMPDEST DUP5 ADD SWAP2 POP POP SWAP3 SWAP2 POP POP JUMP JUMPDEST PUSH2 0x1166 DUP2 PUSH2 0xE70 JUMP JUMPDEST DUP3 MSTORE POP POP JUMP JUMPDEST PUSH0 PUSH1 0xC0 DUP4 ADD PUSH0 DUP4 ADD MLOAD PUSH2 0x1181 PUSH0 DUP7 ADD DUP3 PUSH2 0x1106 JUMP JUMPDEST POP PUSH1 0x20 DUP4 ADD MLOAD DUP5 DUP3 SUB PUSH1 0x20 DUP7 ADD MSTORE PUSH2 0x1199 DUP3 DUP3 PUSH2 0x1125 JUMP JUMPDEST SWAP2 POP POP PUSH1 0x40 DUP4 ADD MLOAD DUP5 DUP3 SUB PUSH1 0x40 DUP7 ADD MSTORE PUSH2 0x11B3 DUP3 DUP3 PUSH2 0x1125 JUMP JUMPDEST SWAP2 POP POP PUSH1 0x60 DUP4 ADD MLOAD PUSH2 0x11C8 PUSH1 0x60 DUP7 ADD DUP3 PUSH2 0x115D JUMP JUMPDEST POP PUSH1 0x80 DUP4 ADD MLOAD PUSH2 0x11DB PUSH1 0x80 DUP7 ADD DUP3 PUSH2 0x115D JUMP JUMPDEST POP PUSH1 0xA0 DUP4 ADD MLOAD PUSH2 0x11EE PUSH1 0xA0 DUP7 ADD DUP3 PUSH2 0x115D JUMP JUMPDEST POP DUP1 SWAP2 POP POP SWAP3 SWAP2 POP POP JUMP JUMPDEST PUSH0 PUSH1 0x20 DUP3 ADD SWAP1 POP DUP2 DUP2 SUB PUSH0 DUP4 ADD MSTORE PUSH2 0x1211 DUP2 DUP5 PUSH2 0x116C JUMP JUMPDEST SWAP1 POP SWAP3 SWAP2 POP POP JUMP JUMPDEST PUSH0 PUSH1 0x20 DUP3 DUP5 SUB SLT ISZERO PUSH2 0x122E JUMPI PUSH2 0x122D PUSH2 0xDE3 JUMP JUMPDEST JUMPDEST PUSH0 DUP3 ADD CALLDATALOAD PUSH8 0xFFFFFFFFFFFFFFFF DUP2 GT ISZERO PUSH2 0x124B JUMPI PUSH2 0x124A PUSH2 0xDE7 JUMP JUMPDEST JUMPDEST PUSH2 0x1257 DUP5 DUP3 DUP6 ADD PUSH2 0x104A JUMP JUMPDEST SWAP2 POP POP SWAP3 SWAP2 POP POP JUMP JUMPDEST PUSH0 PUSH2 0x126A DUP3 PUSH2 0xDEB JUMP JUMPDEST SWAP1 POP SWAP2 SWAP1 POP JUMP JUMPDEST PUSH2 0x127A DUP2 PUSH2 0x1260 JUMP JUMPDEST DUP3 MSTORE POP POP JUMP JUMPDEST PUSH2 0x1289 DUP2 PUSH2 0x1077 JUMP JUMPDEST DUP3 MSTORE POP POP JUMP JUMPDEST PUSH0 PUSH2 0x100 DUP3 ADD SWAP1 POP DUP2 DUP2 SUB PUSH0 DUP4 ADD MSTORE PUSH2 0x12A8 DUP2 DUP12 PUSH2 0xEF3 JUMP JUMPDEST SWAP1 POP DUP2 DUP2 SUB PUSH1 0x20 DUP4 ADD MSTORE PUSH2 0x12BC DUP2 DUP11 PUSH2 0xEF3 JUMP JUMPDEST SWAP1 POP PUSH2 0x12CB PUSH1 0x40 DUP4 ADD DUP10 PUSH2 0xE79 JUMP JUMPDEST PUSH2 0x12D8 PUSH1 0x60 DUP4 ADD DUP9 PUSH2 0x1271 JUMP JUMPDEST PUSH2 0x12E5 PUSH1 0x80 DUP4 ADD DUP8 PUSH2 0xE79 JUMP JUMPDEST PUSH2 0x12F2 PUSH1 0xA0 DUP4 ADD DUP7 PUSH2 0xE79 JUMP JUMPDEST PUSH2 0x12FF PUSH1 0xC0 DUP4 ADD DUP6 PUSH2 0x1280 JUMP JUMPDEST PUSH2 0x130C PUSH1 0xE0 DUP4 ADD DUP5 PUSH2 0x1280 JUMP JUMPDEST SWAP10 SWAP9 POP POP POP POP POP POP POP POP POP JUMP JUMPDEST PUSH2 0x1322 DUP2 PUSH2 0xE70 JUMP JUMPDEST DUP2 EQ PUSH2 0x132C JUMPI PUSH0 DUP1 REVERT JUMPDEST POP JUMP JUMPDEST PUSH0 DUP2 CALLDATALOAD SWAP1 POP PUSH2 0x133D DUP2 PUSH2 0x1319 JUMP JUMPDEST SWAP3 SWAP2 POP POP JUMP JUMPDEST PUSH2 0x134C DUP2 PUSH2 0x1260 JUMP JUMPDEST DUP2 EQ PUSH2 0x1356 JUMPI PUSH0 DUP1 REVERT JUMPDEST POP JUMP JUMPDEST PUSH0 DUP2 CALLDATALOAD SWAP1 POP PUSH2 0x1367 DUP2 PUSH2 0x1343 JUMP JUMPDEST SWAP3 SWAP2 POP POP JUMP JUMPDEST PUSH0 DUP1 PUSH0 DUP1 PUSH0 PUSH1 0xA0 DUP7 DUP9 SUB SLT ISZERO PUSH2 0x1386 JUMPI PUSH2 0x1385 PUSH2 0xDE3 JUMP JUMPDEST JUMPDEST PUSH0 DUP7 ADD CALLDATALOAD PUSH8 0xFFFFFFFFFFFFFFFF DUP2 GT ISZERO PUSH2 0x13A3 JUMPI PUSH2 0x13A2 PUSH2 0xDE7 JUMP JUMPDEST JUMPDEST PUSH2 0x13AF DUP9 DUP3 DUP10 ADD PUSH2 0x104A JUMP JUMPDEST SWAP6 POP POP PUSH1 0x20 DUP7 ADD CALLDATALOAD PUSH8 0xFFFFFFFFFFFFFFFF DUP2 GT ISZERO PUSH2 0x13D0 JUMPI PUSH2 0x13CF PUSH2 0xDE7 JUMP JUMPDEST JUMPDEST PUSH2 0x13DC DUP9 DUP3 DUP10 ADD PUSH2 0x104A JUMP JUMPDEST SWAP5 POP POP PUSH1 0x40 PUSH2 0x13ED DUP9 DUP3 DUP10 ADD PUSH2 0x132F JUMP JUMPDEST SWAP4 POP POP PUSH1 0x60 PUSH2 0x13FE DUP9 DUP3 DUP10 ADD PUSH2 0x132F JUMP JUMPDEST SWAP3 POP POP PUSH1 0x80 PUSH2 0x140F DUP9 DUP3 DUP10 ADD PUSH2 0x1359 JUMP JUMPDEST SWAP2 POP POP SWAP3 SWAP6 POP SWAP3 SWAP6 SWAP1 SWAP4 POP JUMP JUMPDEST PUSH2 0x1425 DUP2 PUSH2 0xE0A JUMP JUMPDEST DUP3 MSTORE POP POP JUMP JUMPDEST PUSH0 PUSH1 0x20 DUP3 ADD SWAP1 POP PUSH2 0x143E PUSH0 DUP4 ADD DUP5 PUSH2 0x141C JUMP JUMPDEST SWAP3 SWAP2 POP POP JUMP JUMPDEST PUSH32 0x4E487B7100000000000000000000000000000000000000000000000000000000 PUSH0 MSTORE PUSH1 0x22 PUSH1 0x4 MSTORE PUSH1 0x24 PUSH0 REVERT JUMPDEST PUSH0 PUSH1 0x2 DUP3 DIV SWAP1 POP PUSH1 0x1 DUP3 AND DUP1 PUSH2 0x1488 JUMPI PUSH1 0x7F DUP3 AND SWAP2 POP JUMPDEST PUSH1 0x20 DUP3 LT DUP2 SUB PUSH2 0x149B JUMPI PUSH2 0x149A PUSH2 0x1444 JUMP JUMPDEST JUMPDEST POP SWAP2 SWAP1 POP JUMP JUMPDEST PUSH0 DUP2 SWAP1 POP SWAP3 SWAP2 POP POP JUMP JUMPDEST PUSH0 PUSH2 0x14B5 DUP3 PUSH2 0xEA1 JUMP JUMPDEST PUSH2 0x14BF DUP2 DUP6 PUSH2 0x14A1 JUMP JUMPDEST SWAP4 POP PUSH2 0x14CF DUP2 DUP6 PUSH1 0x20 DUP7 ADD PUSH2 0xEBB JUMP JUMPDEST DUP1 DUP5 ADD SWAP2 POP POP SWAP3 SWAP2 POP POP JUMP JUMPDEST PUSH0 PUSH2 0x14E6 DUP3 DUP5 PUSH2 0x14AB JUMP JUMPDEST SWAP2 POP DUP2 SWAP1 POP SWAP3 SWAP2 POP POP JUMP JUMPDEST PUSH32 0x4E487B7100000000000000000000000000000000000000000000000000000000 PUSH0 MSTORE PUSH1 0x11 PUSH1 0x4 MSTORE PUSH1 0x24 PUSH0 REVERT JUMPDEST PUSH0 PUSH2 0x1528 DUP3 PUSH2 0xE70 JUMP JUMPDEST SWAP2 POP PUSH32 0xFFFFFFFFFFFFFFFFFFFFFFFFFFFFFFFFFFFFFFFFFFFFFFFFFFFFFFFFFFFFFFFF DUP3 SUB PUSH2 0x155A JUMPI PUSH2 0x1559 PUSH2 0x14F1 JUMP JUMPDEST JUMPDEST PUSH1 0x1 DUP3 ADD SWAP1 POP SWAP2 SWAP1 POP JUMP JUMPDEST PUSH32 0x4E487B7100000000000000000000000000000000000000000000000000000000 PUSH0 MSTORE PUSH1 0x12 PUSH1 0x4 MSTORE PUSH1 0x24 PUSH0 REVERT JUMPDEST PUSH0 PUSH2 0x159C DUP3 PUSH2 0xE70 JUMP JUMPDEST SWAP2 POP PUSH2 0x15A7 DUP4 PUSH2 0xE70 JUMP JUMPDEST SWAP3 POP DUP3 PUSH2 0x15B7 JUMPI PUSH2 0x15B6 PUSH2 0x1565 JUMP JUMPDEST JUMPDEST DUP3 DUP3 DIV SWAP1 POP SWAP3 SWAP2 POP POP JUMP JUMPDEST PUSH0 DUP2 SWAP1 POP DUP2 PUSH0 MSTORE PUSH1 0x20 PUSH0 KECCAK256 SWAP1 POP SWAP2 SWAP1 POP JUMP JUMPDEST PUSH0 PUSH1 0x20 PUSH1 0x1F DUP4 ADD DIV SWAP1 POP SWAP2 SWAP1 POP JUMP JUMPDEST PUSH0 DUP3 DUP3 SHL SWAP1 POP SWAP3 SWAP2 POP POP JUMP JUMPDEST PUSH0 PUSH1 0x8 DUP4 MUL PUSH2 0x161E PUSH32 0xFFFFFFFFFFFFFFFFFFFFFFFFFFFFFFFFFFFFFFFFFFFFFFFFFFFFFFFFFFFFFFFF DUP3 PUSH2 0x15E3 JUMP JUMPDEST PUSH2 0x1628 DUP7 DUP4 PUSH2 0x15E3 JUMP JUMPDEST SWAP6 POP DUP1 NOT DUP5 AND SWAP4 POP DUP1 DUP7 AND DUP5 OR SWAP3 POP POP POP SWAP4 SWAP3 POP POP POP JUMP JUMPDEST PUSH0 DUP2 SWAP1 POP SWAP2 SWAP1 POP JUMP JUMPDEST PUSH0 PUSH2 0x1663 PUSH2 0x165E PUSH2 0x1659 DUP5 PUSH2 0xE70 JUMP JUMPDEST PUSH2 0x1640 JUMP JUMPDEST PUSH2 0xE70 JUMP JUMPDEST SWAP1 POP SWAP2 SWAP1 POP JUMP JUMPDEST PUSH0 DUP2 SWAP1 POP SWAP2 SWAP1 POP JUMP JUMPDEST PUSH2 0x167C DUP4 PUSH2 0x1649 JUMP JUMPDEST PUSH2 0x1690 PUSH2 0x1688 DUP3 PUSH2 0x166A JUMP JUMPDEST DUP5 DUP5 SLOAD PUSH2 0x15EF JUMP JUMPDEST DUP3 SSTORE POP POP POP POP JUMP JUMPDEST PUSH0 SWAP1 JUMP JUMPDEST PUSH2 0x16A4 PUSH2 0x1698 JUMP JUMPDEST PUSH2 0x16AF DUP2 DUP5 DUP5 PUSH2 0x1673 JUMP JUMPDEST POP POP POP JUMP JUMPDEST JUMPDEST DUP2 DUP2 LT ISZERO PUSH2 0x16D2 JUMPI PUSH2 0x16C7 PUSH0 DUP3 PUSH2 0x169C JUMP JUMPDEST PUSH1 0x1 DUP2 ADD SWAP1 POP PUSH2 0x16B5 JUMP JUMPDEST POP POP JUMP JUMPDEST PUSH1 0x1F DUP3 GT ISZERO PUSH2 0x1717 JUMPI PUSH2 0x16E8 DUP2 PUSH2 0x15C2 JUMP JUMPDEST PUSH2 0x16F1 DUP5 PUSH2 0x15D4 JUMP JUMPDEST DUP2 ADD PUSH1 0x20 DUP6 LT ISZERO PUSH2 0x1700 JUMPI DUP2 SWAP1 POP JUMPDEST PUSH2 0x1714 PUSH2 0x170C DUP6 PUSH2 0x15D4 JUMP JUMPDEST DUP4 ADD DUP3 PUSH2 0x16B4 JUMP JUMPDEST POP POP JUMPDEST POP POP POP JUMP JUMPDEST PUSH0 DUP3 DUP3 SHR SWAP1 POP SWAP3 SWAP2 POP POP JUMP JUMPDEST PUSH0 PUSH2 0x1737 PUSH0 NOT DUP5 PUSH1 0x8 MUL PUSH2 0x171C JUMP JUMPDEST NOT DUP1 DUP4 AND SWAP2 POP POP SWAP3 SWAP2 POP POP JUMP JUMPDEST PUSH0 PUSH2 0x174F DUP4 DUP4 PUSH2 0x1728 JUMP JUMPDEST SWAP2 POP DUP3 PUSH1 0x2 MUL DUP3 OR SWAP1 POP SWAP3 SWAP2 POP POP JUMP JUMPDEST PUSH2 0x1768 DUP3 PUSH2 0xEA1 JUMP JUMPDEST PUSH8 0xFFFFFFFFFFFFFFFF DUP2 GT ISZERO PUSH2 0x1781 JUMPI PUSH2 0x1780 PUSH2 0xF53 JUMP JUMPDEST JUMPDEST PUSH2 0x178B DUP3 SLOAD PUSH2 0x1471 JUMP JUMPDEST PUSH2 0x1796 DUP3 DUP3 DUP6 PUSH2 0x16D6 JUMP JUMPDEST PUSH0 PUSH1 0x20 SWAP1 POP PUSH1 0x1F DUP4 GT PUSH1 0x1 DUP2 EQ PUSH2 0x17C7 JUMPI PUSH0 DUP5 ISZERO PUSH2 0x17B5 JUMPI DUP3 DUP8 ADD MLOAD SWAP1 POP JUMPDEST PUSH2 0x17BF DUP6 DUP3 PUSH2 0x1744 JUMP JUMPDEST DUP7 SSTORE POP PUSH2 0x1826 JUMP JUMPDEST PUSH1 0x1F NOT DUP5 AND PUSH2 0x17D5 DUP7 PUSH2 0x15C2 JUMP JUMPDEST PUSH0 JUMPDEST DUP3 DUP2 LT ISZERO PUSH2 0x17FC JUMPI DUP5 DUP10 ADD MLOAD DUP3 SSTORE PUSH1 0x1 DUP3 ADD SWAP2 POP PUSH1 0x20 DUP6 ADD SWAP5 POP PUSH1 0x20 DUP2 ADD SWAP1 POP PUSH2 0x17D7 JUMP JUMPDEST DUP7 DUP4 LT ISZERO PUSH2 0x1819 JUMPI DUP5 DUP10 ADD MLOAD PUSH2 0x1815 PUSH1 0x1F DUP10 AND DUP3 PUSH2 0x1728 JUMP JUMPDEST DUP4 SSTORE POP JUMPDEST PUSH1 0x1 PUSH1 0x2 DUP9 MUL ADD DUP9 SSTORE POP POP POP JUMPDEST POP POP POP POP POP POP JUMP JUMPDEST PUSH0 PUSH2 0x1838 DUP3 PUSH2 0xE70 JUMP JUMPDEST SWAP2 POP PUSH2 0x1843 DUP4 PUSH2 0xE70 JUMP JUMPDEST SWAP3 POP DUP3 DUP3 MUL PUSH2 0x1851 DUP2 PUSH2 0xE70 JUMP JUMPDEST SWAP2 POP DUP3 DUP3 DIV DUP5 EQ DUP4 ISZERO OR PUSH2 0x1868 JUMPI PUSH2 0x1867 PUSH2 0x14F1 JUMP JUMPDEST JUMPDEST POP SWAP3 SWAP2 POP POP JUMP INVALID LOG2 PUSH5 0x6970667358 0x22 SLT KECCAK256 SWAP2 SWAP1 NUMBER PUSH29 0xECEF244ED2A07A12F6C1D1C107168A36433D4C74E2804DB7F753C69D64 PUSH20 0x6F6C634300081800330000000000000000000000 "},"gasEstimates":{"creation":{"codeDepositCost":"1261800","executionCost":"infinite","totalCost":"infinite"},"external":{"approvers(address)":"2803","contribute()":"infinite","getCampaignName()":"infinite","getContractBalance()":"445","getContributorsCount()":"2520","getDescription()":"infinite","getManager()":"2582","getMinimumContribution()":"2498","getSummary()":"infinite","requests(string)":"infinite","submitRequest(string)":"infinite","triggerCampaignRequest(string,string,uint256,uint256,address)":"infinite","voteRequest(string,bool)":"infinite"}},"methodIdentifiers":{"approvers(address)":"0a144391","contribute()":"d7bb99ba","getCampaignName()":"885e7c62","getContractBalance()":"6f9fb98a","getContributorsCount()":"feed5561","getDescription()":"1a092541","getManager()":"d5009584","getMinimumContribution()":"f84038b1","getSummary()":"4051ddac","requests(string)":"692d51d2","submitRequest(string)":"e2e46b52","triggerCampaignRequest(string,string,uint256,uint256,address)":"a7ac8000","voteRequest(string,bool)":"30e8fc5c"}},"storageLayout":{"storage":[{"astId":137,"contract":"Campaign.sol:Campaign","label":"_name","offset":0,"slot":"0","type":"t_string_storage"},{"astId":139,"contract":"Campaign.sol:Campaign","label":"_description","offset":0,"slot":"1","type":"t_string_storage"},{"astId":141,"contract":"Campaign.sol:Campaign","label":"_manager","offset":0,"slot":"2","type":"t_address"},{"astId":145,"contract":"Campaign.sol:Campaign","label":"approvers","offset":0,"slot":"3","type":"t_mapping(t_address,t_uint256)"},{"astId":147,"contract":"Campaign.sol:Campaign","label":"_approversCount","offset":0,"slot":"4","type":"t_uint256"},{"astId":149,"contract":"Campaign.sol:Campaign","label":"_minimumContribution","offset":0,"slot":"5","type":"t_uint256"},{"astId":154,"contract":"Campaign.sol:Campaign","label":"requests","offset":0,"slot":"6","type":"t_mapping(t_string_memory_ptr,t_struct(Request)122_storage)"}],"types":{"t_address":{"encoding":"inplace","label":"address","numberOfBytes":"20"},"t_address_payable":{"encoding":"inplace","label":"address payable","numberOfBytes":"20"},"t_bool":{"encoding":"inplace","label":"bool","numberOfBytes":"1"},"t_mapping(t_address,t_bool)":{"encoding":"mapping","key":"t_address","label":"mapping(address => bool)","numberOfBytes":"32","value":"t_bool"},"t_mapping(t_address,t_uint256)":{"encoding":"mapping","key":"t_address","label":"mapping(address => uint256)","numberOfBytes":"32","value":"t_uint256"},"t_mapping(t_string_memory_ptr,t_struct(Request)122_storage)":{"encoding":"mapping","key":"t_string_memory_ptr","label":"mapping(string => struct Campaign.Request)","numberOfBytes":"32","value":"t_struct(Request)122_storage"},"t_string_memory_ptr":{"encoding":"bytes","label":"string","numberOfBytes":"32"},"t_string_storage":{"encoding":"bytes","label":"string","numberOfBytes":"32"},"t_struct(Request)122_storage":{"encoding":"inplace","label":"struct Campaign.Request","members":[{"astId":103,"contract":"Campaign.sol:Campaign","label":"name","offset":0,"slot":"0","type":"t_string_storage"},{"astId":105,"contract":"Campaign.sol:Campaign","label":"description","offset":0,"slot":"1","type":"t_string_storage"},{"astId":107,"contract":"Campaign.sol:Campaign","label":"amount","offset":0,"slot":"2","type":"t_uint256"},{"astId":109,"contract":"Campaign.sol:Campaign","label":"receiver","offset":0,"slot":"3","type":"t_address_payable"},{"astId":111,"contract":"Campaign.sol:Campaign","label":"approvalsCount","offset":0,"slot":"4","type":"t_uint256"},{"astId":113,"contract":"Campaign.sol:Campaign","label":"requiredApprovals","offset":0,"slot":"5","type":"t_uint256"},{"astId":115,"contract":"Campaign.sol:Campaign","label":"canSubmit","offset":0,"slot":"6","type":"t_bool"},{"astId":117,"contract":"Campaign.sol:Campaign","label":"complete","offset":1,"slot":"6","type":"t_bool"},{"astId":121,"contract":"Campaign.sol:Campaign","label":"approvers","offset":0,"slot":"7","type":"t_mapping(t_address,t_bool)"}],"numberOfBytes":"256"},"t_uint256":{"encoding":"inplace","label":"uint256","numberOfBytes":"32"}}},"userdoc":{"kind":"user","methods":{},"version":1}}