{"abi":[{"inputs":[{"internalType":"string","name":"description","type":"string"},{"internalType":"uint256","name":"minimum","type":"uint256"},{"internalType":"address","name":"mngr","type":"address"}],"stateMutability":"nonpayable","type":"constructor"},{"inputs":[{"internalType":"address","name":"","type":"address"}],"name":"approvers","outputs":[{"internalType":"uint256","name":"","type":"uint256"}],"stateMutability":"view","type":"function"},{"inputs":[],"name":"contribute","outputs":[],"stateMutability":"payable","type":"function"},{"inputs":[],"name":"getApproversCount","outputs":[{"internalType":"uint256","name":"","type":"uint256"}],"stateMutability":"view","type":"function"},{"inputs":[],"name":"getContractBalance","outputs":[{"internalType":"uint256","name":"","type":"uint256"}],"stateMutability":"view","type":"function"},{"inputs":[],"name":"getContributors","outputs":[{"internalType":"uint256","name":"","type":"uint256"}],"stateMutability":"view","type":"function"},{"inputs":[],"name":"getDescription","outputs":[{"internalType":"string","name":"","type":"string"}],"stateMutability":"view","type":"function"},{"inputs":[],"name":"getManager","outputs":[{"internalType":"address","name":"","type":"address"}],"stateMutability":"view","type":"function"},{"inputs":[],"name":"getMinimumContribution","outputs":[{"internalType":"uint256","name":"","type":"uint256"}],"stateMutability":"view","type":"function"},{"inputs":[],"name":"getSummary","outputs":[{"components":[{"internalType":"address","name":"manager","type":"address"},{"internalType":"string","name":"description","type":"string"},{"internalType":"uint256","name":"minContribution","type":"uint256"},{"internalType":"uint256","name":"balance","type":"uint256"},{"internalType":"uint256","name":"contributors","type":"uint256"}],"internalType":"struct Campaign.Summary","name":"","type":"tuple"}],"stateMutability":"view","type":"function"},{"inputs":[{"internalType":"string","name":"","type":"string"}],"name":"requests","outputs":[{"internalType":"string","name":"name","type":"string"},{"internalType":"string","name":"description","type":"string"},{"internalType":"uint256","name":"amount","type":"uint256"},{"internalType":"address payable","name":"receiver","type":"address"},{"internalType":"uint256","name":"approvalsCount","type":"uint256"},{"internalType":"uint256","name":"requiredApprovals","type":"uint256"},{"internalType":"bool","name":"canSubmit","type":"bool"},{"internalType":"bool","name":"complete","type":"bool"}],"stateMutability":"view","type":"function"},{"inputs":[{"internalType":"string","name":"reqName","type":"string"}],"name":"submitRequest","outputs":[],"stateMutability":"nonpayable","type":"function"},{"inputs":[{"internalType":"string","name":"name","type":"string"},{"internalType":"string","name":"description","type":"string"},{"internalType":"uint256","name":"amount","type":"uint256"},{"internalType":"uint256","name":"requiredApprovals","type":"uint256"},{"internalType":"address payable","name":"receiver","type":"address"}],"name":"triggerCampaignRequest","outputs":[],"stateMutability":"nonpayable","type":"function"},{"inputs":[{"internalType":"string","name":"reqName","type":"string"},{"internalType":"bool","name":"isApproval","type":"bool"}],"name":"voteRequest","outputs":[],"stateMutability":"nonpayable","type":"function"}],"devdoc":{"kind":"dev","methods":{},"version":1},"evm":{"assembly":"    /* \"Campaign.sol\":1116:5410  contract Campaign... */\n  mstore(0x40, 0x80)\n    /* \"Campaign.sol\":1800:2011  constructor (string memory description, uint minimum, address mngr)... */\n  callvalue\n  dup1\n  iszero\n  tag_1\n  jumpi\n  0x00\n  dup1\n  revert\ntag_1:\n  pop\n  mload(0x40)\n  sub(codesize, bytecodeSize)\n  dup1\n  bytecodeSize\n  dup4\n  codecopy\n  dup2\n  dup2\n  add\n  0x40\n  mstore\n  dup2\n  add\n  swap1\n  tag_2\n  swap2\n  swap1\n  tag_3\n  jump\t// in\ntag_2:\n    /* \"Campaign.sol\":1900:1901  0 */\n  0x00\n    /* \"Campaign.sol\":1890:1897  minimum */\n  dup3\n    /* \"Campaign.sol\":1890:1901  minimum > 0 */\n  gt\n    /* \"Campaign.sol\":1882:1902  require(minimum > 0) */\n  tag_6\n  jumpi\n  0x00\n  dup1\n  revert\ntag_6:\n    /* \"Campaign.sol\":1923:1927  mngr */\n  dup1\n    /* \"Campaign.sol\":1912:1920  _manager */\n  0x01\n  0x00\n    /* \"Campaign.sol\":1912:1927  _manager = mngr */\n  0x0100\n  exp\n  dup2\n  sload\n  dup2\n  0xffffffffffffffffffffffffffffffffffffffff\n  mul\n  not\n  and\n  swap1\n  dup4\n  0xffffffffffffffffffffffffffffffffffffffff\n  and\n  mul\n  or\n  swap1\n  sstore\n  pop\n    /* \"Campaign.sol\":1952:1963  description */\n  dup3\n    /* \"Campaign.sol\":1937:1949  _description */\n  0x00\n    /* \"Campaign.sol\":1937:1963  _description = description */\n  swap1\n  dup2\n  tag_7\n  swap2\n  swap1\n  tag_8\n  jump\t// in\ntag_7:\n  pop\n    /* \"Campaign.sol\":1997:2004  minimum */\n  dup2\n    /* \"Campaign.sol\":1974:1994  _minimumContribution */\n  0x04\n    /* \"Campaign.sol\":1974:2004  _minimumContribution = minimum */\n  dup2\n  swap1\n  sstore\n  pop\n    /* \"Campaign.sol\":1800:2011  constructor (string memory description, uint minimum, address mngr)... */\n  pop\n  pop\n  pop\n    /* \"Campaign.sol\":1116:5410  contract Campaign... */\n  jump(tag_9)\n    /* \"#utility.yul\":7:82   */\ntag_10:\n    /* \"#utility.yul\":40:46   */\n  0x00\n    /* \"#utility.yul\":73:75   */\n  0x40\n    /* \"#utility.yul\":67:76   */\n  mload\n    /* \"#utility.yul\":57:76   */\n  swap1\n  pop\n    /* \"#utility.yul\":7:82   */\n  swap1\n  jump\t// out\n    /* \"#utility.yul\":88:205   */\ntag_11:\n    /* \"#utility.yul\":197:198   */\n  0x00\n    /* \"#utility.yul\":194:195   */\n  dup1\n    /* \"#utility.yul\":187:199   */\n  revert\n    /* \"#utility.yul\":211:328   */\ntag_12:\n    /* \"#utility.yul\":320:321   */\n  0x00\n    /* \"#utility.yul\":317:318   */\n  dup1\n    /* \"#utility.yul\":310:322   */\n  revert\n    /* \"#utility.yul\":334:451   */\ntag_13:\n    /* \"#utility.yul\":443:444   */\n  0x00\n    /* \"#utility.yul\":440:441   */\n  dup1\n    /* \"#utility.yul\":433:445   */\n  revert\n    /* \"#utility.yul\":457:574   */\ntag_14:\n    /* \"#utility.yul\":566:567   */\n  0x00\n    /* \"#utility.yul\":563:564   */\n  dup1\n    /* \"#utility.yul\":556:568   */\n  revert\n    /* \"#utility.yul\":580:682   */\ntag_15:\n    /* \"#utility.yul\":621:627   */\n  0x00\n    /* \"#utility.yul\":672:674   */\n  0x1f\n    /* \"#utility.yul\":668:675   */\n  not\n    /* \"#utility.yul\":663:665   */\n  0x1f\n    /* \"#utility.yul\":656:661   */\n  dup4\n    /* \"#utility.yul\":652:666   */\n  add\n    /* \"#utility.yul\":648:676   */\n  and\n    /* \"#utility.yul\":638:676   */\n  swap1\n  pop\n    /* \"#utility.yul\":580:682   */\n  swap2\n  swap1\n  pop\n  jump\t// out\n    /* \"#utility.yul\":688:868   */\ntag_16:\n    /* \"#utility.yul\":736:813   */\n  0x4e487b7100000000000000000000000000000000000000000000000000000000\n    /* \"#utility.yul\":733:734   */\n  0x00\n    /* \"#utility.yul\":726:814   */\n  mstore\n    /* \"#utility.yul\":833:837   */\n  0x41\n    /* \"#utility.yul\":830:831   */\n  0x04\n    /* \"#utility.yul\":823:838   */\n  mstore\n    /* \"#utility.yul\":857:861   */\n  0x24\n    /* \"#utility.yul\":854:855   */\n  0x00\n    /* \"#utility.yul\":847:862   */\n  revert\n    /* \"#utility.yul\":874:1155   */\ntag_17:\n    /* \"#utility.yul\":957:984   */\n  tag_57\n    /* \"#utility.yul\":979:983   */\n  dup3\n    /* \"#utility.yul\":957:984   */\n  tag_15\n  jump\t// in\ntag_57:\n    /* \"#utility.yul\":949:955   */\n  dup2\n    /* \"#utility.yul\":945:985   */\n  add\n    /* \"#utility.yul\":1087:1093   */\n  dup2\n    /* \"#utility.yul\":1075:1085   */\n  dup2\n    /* \"#utility.yul\":1072:1094   */\n  lt\n    /* \"#utility.yul\":1051:1069   */\n  0xffffffffffffffff\n    /* \"#utility.yul\":1039:1049   */\n  dup3\n    /* \"#utility.yul\":1036:1070   */\n  gt\n    /* \"#utility.yul\":1033:1095   */\n  or\n    /* \"#utility.yul\":1030:1118   */\n  iszero\n  tag_58\n  jumpi\n    /* \"#utility.yul\":1098:1116   */\n  tag_59\n  tag_16\n  jump\t// in\ntag_59:\n    /* \"#utility.yul\":1030:1118   */\ntag_58:\n    /* \"#utility.yul\":1138:1148   */\n  dup1\n    /* \"#utility.yul\":1134:1136   */\n  0x40\n    /* \"#utility.yul\":1127:1149   */\n  mstore\n    /* \"#utility.yul\":917:1155   */\n  pop\n    /* \"#utility.yul\":874:1155   */\n  pop\n  pop\n  jump\t// out\n    /* \"#utility.yul\":1161:1290   */\ntag_18:\n    /* \"#utility.yul\":1195:1201   */\n  0x00\n    /* \"#utility.yul\":1222:1242   */\n  tag_61\n  tag_10\n  jump\t// in\ntag_61:\n    /* \"#utility.yul\":1212:1242   */\n  swap1\n  pop\n    /* \"#utility.yul\":1251:1284   */\n  tag_62\n    /* \"#utility.yul\":1279:1283   */\n  dup3\n    /* \"#utility.yul\":1271:1277   */\n  dup3\n    /* \"#utility.yul\":1251:1284   */\n  tag_17\n  jump\t// in\ntag_62:\n    /* \"#utility.yul\":1161:1290   */\n  swap2\n  swap1\n  pop\n  jump\t// out\n    /* \"#utility.yul\":1296:1604   */\ntag_19:\n    /* \"#utility.yul\":1358:1362   */\n  0x00\n    /* \"#utility.yul\":1448:1466   */\n  0xffffffffffffffff\n    /* \"#utility.yul\":1440:1446   */\n  dup3\n    /* \"#utility.yul\":1437:1467   */\n  gt\n    /* \"#utility.yul\":1434:1490   */\n  iszero\n  tag_64\n  jumpi\n    /* \"#utility.yul\":1470:1488   */\n  tag_65\n  tag_16\n  jump\t// in\ntag_65:\n    /* \"#utility.yul\":1434:1490   */\ntag_64:\n    /* \"#utility.yul\":1508:1537   */\n  tag_66\n    /* \"#utility.yul\":1530:1536   */\n  dup3\n    /* \"#utility.yul\":1508:1537   */\n  tag_15\n  jump\t// in\ntag_66:\n    /* \"#utility.yul\":1500:1537   */\n  swap1\n  pop\n    /* \"#utility.yul\":1592:1596   */\n  0x20\n    /* \"#utility.yul\":1586:1590   */\n  dup2\n    /* \"#utility.yul\":1582:1597   */\n  add\n    /* \"#utility.yul\":1574:1597   */\n  swap1\n  pop\n    /* \"#utility.yul\":1296:1604   */\n  swap2\n  swap1\n  pop\n  jump\t// out\n    /* \"#utility.yul\":1610:1856   */\ntag_20:\n    /* \"#utility.yul\":1691:1692   */\n  0x00\n    /* \"#utility.yul\":1701:1814   */\ntag_68:\n    /* \"#utility.yul\":1715:1721   */\n  dup4\n    /* \"#utility.yul\":1712:1713   */\n  dup2\n    /* \"#utility.yul\":1709:1722   */\n  lt\n    /* \"#utility.yul\":1701:1814   */\n  iszero\n  tag_70\n  jumpi\n    /* \"#utility.yul\":1800:1801   */\n  dup1\n    /* \"#utility.yul\":1795:1798   */\n  dup3\n    /* \"#utility.yul\":1791:1802   */\n  add\n    /* \"#utility.yul\":1785:1803   */\n  mload\n    /* \"#utility.yul\":1781:1782   */\n  dup2\n    /* \"#utility.yul\":1776:1779   */\n  dup5\n    /* \"#utility.yul\":1772:1783   */\n  add\n    /* \"#utility.yul\":1765:1804   */\n  mstore\n    /* \"#utility.yul\":1737:1739   */\n  0x20\n    /* \"#utility.yul\":1734:1735   */\n  dup2\n    /* \"#utility.yul\":1730:1740   */\n  add\n    /* \"#utility.yul\":1725:1740   */\n  swap1\n  pop\n    /* \"#utility.yul\":1701:1814   */\n  jump(tag_68)\ntag_70:\n    /* \"#utility.yul\":1848:1849   */\n  0x00\n    /* \"#utility.yul\":1839:1845   */\n  dup5\n    /* \"#utility.yul\":1834:1837   */\n  dup5\n    /* \"#utility.yul\":1830:1846   */\n  add\n    /* \"#utility.yul\":1823:1850   */\n  mstore\n    /* \"#utility.yul\":1672:1856   */\n  pop\n    /* \"#utility.yul\":1610:1856   */\n  pop\n  pop\n  pop\n  jump\t// out\n    /* \"#utility.yul\":1862:2296   */\ntag_21:\n    /* \"#utility.yul\":1951:1956   */\n  0x00\n    /* \"#utility.yul\":1976:2042   */\n  tag_72\n    /* \"#utility.yul\":1992:2041   */\n  tag_73\n    /* \"#utility.yul\":2034:2040   */\n  dup5\n    /* \"#utility.yul\":1992:2041   */\n  tag_19\n  jump\t// in\ntag_73:\n    /* \"#utility.yul\":1976:2042   */\n  tag_18\n  jump\t// in\ntag_72:\n    /* \"#utility.yul\":1967:2042   */\n  swap1\n  pop\n    /* \"#utility.yul\":2065:2071   */\n  dup3\n    /* \"#utility.yul\":2058:2063   */\n  dup2\n    /* \"#utility.yul\":2051:2072   */\n  mstore\n    /* \"#utility.yul\":2103:2107   */\n  0x20\n    /* \"#utility.yul\":2096:2101   */\n  dup2\n    /* \"#utility.yul\":2092:2108   */\n  add\n    /* \"#utility.yul\":2141:2144   */\n  dup5\n    /* \"#utility.yul\":2132:2138   */\n  dup5\n    /* \"#utility.yul\":2127:2130   */\n  dup5\n    /* \"#utility.yul\":2123:2139   */\n  add\n    /* \"#utility.yul\":2120:2145   */\n  gt\n    /* \"#utility.yul\":2117:2229   */\n  iszero\n  tag_74\n  jumpi\n    /* \"#utility.yul\":2148:2227   */\n  tag_75\n  tag_14\n  jump\t// in\ntag_75:\n    /* \"#utility.yul\":2117:2229   */\ntag_74:\n    /* \"#utility.yul\":2238:2290   */\n  tag_76\n    /* \"#utility.yul\":2283:2289   */\n  dup5\n    /* \"#utility.yul\":2278:2281   */\n  dup3\n    /* \"#utility.yul\":2273:2276   */\n  dup6\n    /* \"#utility.yul\":2238:2290   */\n  tag_20\n  jump\t// in\ntag_76:\n    /* \"#utility.yul\":1957:2296   */\n  pop\n    /* \"#utility.yul\":1862:2296   */\n  swap4\n  swap3\n  pop\n  pop\n  pop\n  jump\t// out\n    /* \"#utility.yul\":2316:2671   */\ntag_22:\n    /* \"#utility.yul\":2383:2388   */\n  0x00\n    /* \"#utility.yul\":2432:2435   */\n  dup3\n    /* \"#utility.yul\":2425:2429   */\n  0x1f\n    /* \"#utility.yul\":2417:2423   */\n  dup4\n    /* \"#utility.yul\":2413:2430   */\n  add\n    /* \"#utility.yul\":2409:2436   */\n  slt\n    /* \"#utility.yul\":2399:2521   */\n  tag_78\n  jumpi\n    /* \"#utility.yul\":2440:2519   */\n  tag_79\n  tag_13\n  jump\t// in\ntag_79:\n    /* \"#utility.yul\":2399:2521   */\ntag_78:\n    /* \"#utility.yul\":2550:2556   */\n  dup2\n    /* \"#utility.yul\":2544:2557   */\n  mload\n    /* \"#utility.yul\":2575:2665   */\n  tag_80\n    /* \"#utility.yul\":2661:2664   */\n  dup5\n    /* \"#utility.yul\":2653:2659   */\n  dup3\n    /* \"#utility.yul\":2646:2650   */\n  0x20\n    /* \"#utility.yul\":2638:2644   */\n  dup7\n    /* \"#utility.yul\":2634:2651   */\n  add\n    /* \"#utility.yul\":2575:2665   */\n  tag_21\n  jump\t// in\ntag_80:\n    /* \"#utility.yul\":2566:2665   */\n  swap2\n  pop\n    /* \"#utility.yul\":2389:2671   */\n  pop\n    /* \"#utility.yul\":2316:2671   */\n  swap3\n  swap2\n  pop\n  pop\n  jump\t// out\n    /* \"#utility.yul\":2677:2754   */\ntag_23:\n    /* \"#utility.yul\":2714:2721   */\n  0x00\n    /* \"#utility.yul\":2743:2748   */\n  dup2\n    /* \"#utility.yul\":2732:2748   */\n  swap1\n  pop\n    /* \"#utility.yul\":2677:2754   */\n  swap2\n  swap1\n  pop\n  jump\t// out\n    /* \"#utility.yul\":2760:2882   */\ntag_24:\n    /* \"#utility.yul\":2833:2857   */\n  tag_83\n    /* \"#utility.yul\":2851:2856   */\n  dup2\n    /* \"#utility.yul\":2833:2857   */\n  tag_23\n  jump\t// in\ntag_83:\n    /* \"#utility.yul\":2826:2831   */\n  dup2\n    /* \"#utility.yul\":2823:2858   */\n  eq\n    /* \"#utility.yul\":2813:2876   */\n  tag_84\n  jumpi\n    /* \"#utility.yul\":2872:2873   */\n  0x00\n    /* \"#utility.yul\":2869:2870   */\n  dup1\n    /* \"#utility.yul\":2862:2874   */\n  revert\n    /* \"#utility.yul\":2813:2876   */\ntag_84:\n    /* \"#utility.yul\":2760:2882   */\n  pop\n  jump\t// out\n    /* \"#utility.yul\":2888:3031   */\ntag_25:\n    /* \"#utility.yul\":2945:2950   */\n  0x00\n    /* \"#utility.yul\":2976:2982   */\n  dup2\n    /* \"#utility.yul\":2970:2983   */\n  mload\n    /* \"#utility.yul\":2961:2983   */\n  swap1\n  pop\n    /* \"#utility.yul\":2992:3025   */\n  tag_86\n    /* \"#utility.yul\":3019:3024   */\n  dup2\n    /* \"#utility.yul\":2992:3025   */\n  tag_24\n  jump\t// in\ntag_86:\n    /* \"#utility.yul\":2888:3031   */\n  swap3\n  swap2\n  pop\n  pop\n  jump\t// out\n    /* \"#utility.yul\":3037:3163   */\ntag_26:\n    /* \"#utility.yul\":3074:3081   */\n  0x00\n    /* \"#utility.yul\":3114:3156   */\n  0xffffffffffffffffffffffffffffffffffffffff\n    /* \"#utility.yul\":3107:3112   */\n  dup3\n    /* \"#utility.yul\":3103:3157   */\n  and\n    /* \"#utility.yul\":3092:3157   */\n  swap1\n  pop\n    /* \"#utility.yul\":3037:3163   */\n  swap2\n  swap1\n  pop\n  jump\t// out\n    /* \"#utility.yul\":3169:3265   */\ntag_27:\n    /* \"#utility.yul\":3206:3213   */\n  0x00\n    /* \"#utility.yul\":3235:3259   */\n  tag_89\n    /* \"#utility.yul\":3253:3258   */\n  dup3\n    /* \"#utility.yul\":3235:3259   */\n  tag_26\n  jump\t// in\ntag_89:\n    /* \"#utility.yul\":3224:3259   */\n  swap1\n  pop\n    /* \"#utility.yul\":3169:3265   */\n  swap2\n  swap1\n  pop\n  jump\t// out\n    /* \"#utility.yul\":3271:3393   */\ntag_28:\n    /* \"#utility.yul\":3344:3368   */\n  tag_91\n    /* \"#utility.yul\":3362:3367   */\n  dup2\n    /* \"#utility.yul\":3344:3368   */\n  tag_27\n  jump\t// in\ntag_91:\n    /* \"#utility.yul\":3337:3342   */\n  dup2\n    /* \"#utility.yul\":3334:3369   */\n  eq\n    /* \"#utility.yul\":3324:3387   */\n  tag_92\n  jumpi\n    /* \"#utility.yul\":3383:3384   */\n  0x00\n    /* \"#utility.yul\":3380:3381   */\n  dup1\n    /* \"#utility.yul\":3373:3385   */\n  revert\n    /* \"#utility.yul\":3324:3387   */\ntag_92:\n    /* \"#utility.yul\":3271:3393   */\n  pop\n  jump\t// out\n    /* \"#utility.yul\":3399:3542   */\ntag_29:\n    /* \"#utility.yul\":3456:3461   */\n  0x00\n    /* \"#utility.yul\":3487:3493   */\n  dup2\n    /* \"#utility.yul\":3481:3494   */\n  mload\n    /* \"#utility.yul\":3472:3494   */\n  swap1\n  pop\n    /* \"#utility.yul\":3503:3536   */\n  tag_94\n    /* \"#utility.yul\":3530:3535   */\n  dup2\n    /* \"#utility.yul\":3503:3536   */\n  tag_28\n  jump\t// in\ntag_94:\n    /* \"#utility.yul\":3399:3542   */\n  swap3\n  swap2\n  pop\n  pop\n  jump\t// out\n    /* \"#utility.yul\":3548:4384   */\ntag_3:\n    /* \"#utility.yul\":3646:3652   */\n  0x00\n    /* \"#utility.yul\":3654:3660   */\n  dup1\n    /* \"#utility.yul\":3662:3668   */\n  0x00\n    /* \"#utility.yul\":3711:3713   */\n  0x60\n    /* \"#utility.yul\":3699:3708   */\n  dup5\n    /* \"#utility.yul\":3690:3697   */\n  dup7\n    /* \"#utility.yul\":3686:3709   */\n  sub\n    /* \"#utility.yul\":3682:3714   */\n  slt\n    /* \"#utility.yul\":3679:3798   */\n  iszero\n  tag_96\n  jumpi\n    /* \"#utility.yul\":3717:3796   */\n  tag_97\n  tag_11\n  jump\t// in\ntag_97:\n    /* \"#utility.yul\":3679:3798   */\ntag_96:\n    /* \"#utility.yul\":3858:3859   */\n  0x00\n    /* \"#utility.yul\":3847:3856   */\n  dup5\n    /* \"#utility.yul\":3843:3860   */\n  add\n    /* \"#utility.yul\":3837:3861   */\n  mload\n    /* \"#utility.yul\":3888:3906   */\n  0xffffffffffffffff\n    /* \"#utility.yul\":3880:3886   */\n  dup2\n    /* \"#utility.yul\":3877:3907   */\n  gt\n    /* \"#utility.yul\":3874:3991   */\n  iszero\n  tag_98\n  jumpi\n    /* \"#utility.yul\":3910:3989   */\n  tag_99\n  tag_12\n  jump\t// in\ntag_99:\n    /* \"#utility.yul\":3874:3991   */\ntag_98:\n    /* \"#utility.yul\":4015:4089   */\n  tag_100\n    /* \"#utility.yul\":4081:4088   */\n  dup7\n    /* \"#utility.yul\":4072:4078   */\n  dup3\n    /* \"#utility.yul\":4061:4070   */\n  dup8\n    /* \"#utility.yul\":4057:4079   */\n  add\n    /* \"#utility.yul\":4015:4089   */\n  tag_22\n  jump\t// in\ntag_100:\n    /* \"#utility.yul\":4005:4089   */\n  swap4\n  pop\n    /* \"#utility.yul\":3808:4099   */\n  pop\n    /* \"#utility.yul\":4138:4140   */\n  0x20\n    /* \"#utility.yul\":4164:4228   */\n  tag_101\n    /* \"#utility.yul\":4220:4227   */\n  dup7\n    /* \"#utility.yul\":4211:4217   */\n  dup3\n    /* \"#utility.yul\":4200:4209   */\n  dup8\n    /* \"#utility.yul\":4196:4218   */\n  add\n    /* \"#utility.yul\":4164:4228   */\n  tag_25\n  jump\t// in\ntag_101:\n    /* \"#utility.yul\":4154:4228   */\n  swap3\n  pop\n    /* \"#utility.yul\":4109:4238   */\n  pop\n    /* \"#utility.yul\":4277:4279   */\n  0x40\n    /* \"#utility.yul\":4303:4367   */\n  tag_102\n    /* \"#utility.yul\":4359:4366   */\n  dup7\n    /* \"#utility.yul\":4350:4356   */\n  dup3\n    /* \"#utility.yul\":4339:4348   */\n  dup8\n    /* \"#utility.yul\":4335:4357   */\n  add\n    /* \"#utility.yul\":4303:4367   */\n  tag_29\n  jump\t// in\ntag_102:\n    /* \"#utility.yul\":4293:4367   */\n  swap2\n  pop\n    /* \"#utility.yul\":4248:4377   */\n  pop\n    /* \"#utility.yul\":3548:4384   */\n  swap3\n  pop\n  swap3\n  pop\n  swap3\n  jump\t// out\n    /* \"#utility.yul\":4390:4489   */\ntag_30:\n    /* \"#utility.yul\":4442:4448   */\n  0x00\n    /* \"#utility.yul\":4476:4481   */\n  dup2\n    /* \"#utility.yul\":4470:4482   */\n  mload\n    /* \"#utility.yul\":4460:4482   */\n  swap1\n  pop\n    /* \"#utility.yul\":4390:4489   */\n  swap2\n  swap1\n  pop\n  jump\t// out\n    /* \"#utility.yul\":4495:4675   */\ntag_31:\n    /* \"#utility.yul\":4543:4620   */\n  0x4e487b7100000000000000000000000000000000000000000000000000000000\n    /* \"#utility.yul\":4540:4541   */\n  0x00\n    /* \"#utility.yul\":4533:4621   */\n  mstore\n    /* \"#utility.yul\":4640:4644   */\n  0x22\n    /* \"#utility.yul\":4637:4638   */\n  0x04\n    /* \"#utility.yul\":4630:4645   */\n  mstore\n    /* \"#utility.yul\":4664:4668   */\n  0x24\n    /* \"#utility.yul\":4661:4662   */\n  0x00\n    /* \"#utility.yul\":4654:4669   */\n  revert\n    /* \"#utility.yul\":4681:5001   */\ntag_32:\n    /* \"#utility.yul\":4725:4731   */\n  0x00\n    /* \"#utility.yul\":4762:4763   */\n  0x02\n    /* \"#utility.yul\":4756:4760   */\n  dup3\n    /* \"#utility.yul\":4752:4764   */\n  div\n    /* \"#utility.yul\":4742:4764   */\n  swap1\n  pop\n    /* \"#utility.yul\":4809:4810   */\n  0x01\n    /* \"#utility.yul\":4803:4807   */\n  dup3\n    /* \"#utility.yul\":4799:4811   */\n  and\n    /* \"#utility.yul\":4830:4848   */\n  dup1\n    /* \"#utility.yul\":4820:4901   */\n  tag_106\n  jumpi\n    /* \"#utility.yul\":4886:4890   */\n  0x7f\n    /* \"#utility.yul\":4878:4884   */\n  dup3\n    /* \"#utility.yul\":4874:4891   */\n  and\n    /* \"#utility.yul\":4864:4891   */\n  swap2\n  pop\n    /* \"#utility.yul\":4820:4901   */\ntag_106:\n    /* \"#utility.yul\":4948:4950   */\n  0x20\n    /* \"#utility.yul\":4940:4946   */\n  dup3\n    /* \"#utility.yul\":4937:4951   */\n  lt\n    /* \"#utility.yul\":4917:4935   */\n  dup2\n    /* \"#utility.yul\":4914:4952   */\n  sub\n    /* \"#utility.yul\":4911:4995   */\n  tag_107\n  jumpi\n    /* \"#utility.yul\":4967:4985   */\n  tag_108\n  tag_31\n  jump\t// in\ntag_108:\n    /* \"#utility.yul\":4911:4995   */\ntag_107:\n    /* \"#utility.yul\":4732:5001   */\n  pop\n    /* \"#utility.yul\":4681:5001   */\n  swap2\n  swap1\n  pop\n  jump\t// out\n    /* \"#utility.yul\":5007:5148   */\ntag_33:\n    /* \"#utility.yul\":5056:5060   */\n  0x00\n    /* \"#utility.yul\":5079:5082   */\n  dup2\n    /* \"#utility.yul\":5071:5082   */\n  swap1\n  pop\n    /* \"#utility.yul\":5102:5105   */\n  dup2\n    /* \"#utility.yul\":5099:5100   */\n  0x00\n    /* \"#utility.yul\":5092:5106   */\n  mstore\n    /* \"#utility.yul\":5136:5140   */\n  0x20\n    /* \"#utility.yul\":5133:5134   */\n  0x00\n    /* \"#utility.yul\":5123:5141   */\n  keccak256\n    /* \"#utility.yul\":5115:5141   */\n  swap1\n  pop\n    /* \"#utility.yul\":5007:5148   */\n  swap2\n  swap1\n  pop\n  jump\t// out\n    /* \"#utility.yul\":5154:5247   */\ntag_34:\n    /* \"#utility.yul\":5191:5197   */\n  0x00\n    /* \"#utility.yul\":5238:5240   */\n  0x20\n    /* \"#utility.yul\":5233:5235   */\n  0x1f\n    /* \"#utility.yul\":5226:5231   */\n  dup4\n    /* \"#utility.yul\":5222:5236   */\n  add\n    /* \"#utility.yul\":5218:5241   */\n  div\n    /* \"#utility.yul\":5208:5241   */\n  swap1\n  pop\n    /* \"#utility.yul\":5154:5247   */\n  swap2\n  swap1\n  pop\n  jump\t// out\n    /* \"#utility.yul\":5253:5360   */\ntag_35:\n    /* \"#utility.yul\":5297:5305   */\n  0x00\n    /* \"#utility.yul\":5347:5352   */\n  dup3\n    /* \"#utility.yul\":5341:5345   */\n  dup3\n    /* \"#utility.yul\":5337:5353   */\n  shl\n    /* \"#utility.yul\":5316:5353   */\n  swap1\n  pop\n    /* \"#utility.yul\":5253:5360   */\n  swap3\n  swap2\n  pop\n  pop\n  jump\t// out\n    /* \"#utility.yul\":5366:5759   */\ntag_36:\n    /* \"#utility.yul\":5435:5441   */\n  0x00\n    /* \"#utility.yul\":5485:5486   */\n  0x08\n    /* \"#utility.yul\":5473:5483   */\n  dup4\n    /* \"#utility.yul\":5469:5487   */\n  mul\n    /* \"#utility.yul\":5508:5605   */\n  tag_113\n    /* \"#utility.yul\":5538:5604   */\n  0xffffffffffffffffffffffffffffffffffffffffffffffffffffffffffffffff\n    /* \"#utility.yul\":5527:5536   */\n  dup3\n    /* \"#utility.yul\":5508:5605   */\n  tag_35\n  jump\t// in\ntag_113:\n    /* \"#utility.yul\":5626:5665   */\n  tag_114\n    /* \"#utility.yul\":5656:5664   */\n  dup7\n    /* \"#utility.yul\":5645:5654   */\n  dup4\n    /* \"#utility.yul\":5626:5665   */\n  tag_35\n  jump\t// in\ntag_114:\n    /* \"#utility.yul\":5614:5665   */\n  swap6\n  pop\n    /* \"#utility.yul\":5698:5702   */\n  dup1\n    /* \"#utility.yul\":5694:5703   */\n  not\n    /* \"#utility.yul\":5687:5692   */\n  dup5\n    /* \"#utility.yul\":5683:5704   */\n  and\n    /* \"#utility.yul\":5674:5704   */\n  swap4\n  pop\n    /* \"#utility.yul\":5747:5751   */\n  dup1\n    /* \"#utility.yul\":5737:5745   */\n  dup7\n    /* \"#utility.yul\":5733:5752   */\n  and\n    /* \"#utility.yul\":5726:5731   */\n  dup5\n    /* \"#utility.yul\":5723:5753   */\n  or\n    /* \"#utility.yul\":5713:5753   */\n  swap3\n  pop\n    /* \"#utility.yul\":5442:5759   */\n  pop\n  pop\n    /* \"#utility.yul\":5366:5759   */\n  swap4\n  swap3\n  pop\n  pop\n  pop\n  jump\t// out\n    /* \"#utility.yul\":5765:5825   */\ntag_37:\n    /* \"#utility.yul\":5793:5796   */\n  0x00\n    /* \"#utility.yul\":5814:5819   */\n  dup2\n    /* \"#utility.yul\":5807:5819   */\n  swap1\n  pop\n    /* \"#utility.yul\":5765:5825   */\n  swap2\n  swap1\n  pop\n  jump\t// out\n    /* \"#utility.yul\":5831:5973   */\ntag_38:\n    /* \"#utility.yul\":5881:5890   */\n  0x00\n    /* \"#utility.yul\":5914:5967   */\n  tag_117\n    /* \"#utility.yul\":5932:5966   */\n  tag_118\n    /* \"#utility.yul\":5941:5965   */\n  tag_119\n    /* \"#utility.yul\":5959:5964   */\n  dup5\n    /* \"#utility.yul\":5941:5965   */\n  tag_23\n  jump\t// in\ntag_119:\n    /* \"#utility.yul\":5932:5966   */\n  tag_37\n  jump\t// in\ntag_118:\n    /* \"#utility.yul\":5914:5967   */\n  tag_23\n  jump\t// in\ntag_117:\n    /* \"#utility.yul\":5901:5967   */\n  swap1\n  pop\n    /* \"#utility.yul\":5831:5973   */\n  swap2\n  swap1\n  pop\n  jump\t// out\n    /* \"#utility.yul\":5979:6054   */\ntag_39:\n    /* \"#utility.yul\":6022:6025   */\n  0x00\n    /* \"#utility.yul\":6043:6048   */\n  dup2\n    /* \"#utility.yul\":6036:6048   */\n  swap1\n  pop\n    /* \"#utility.yul\":5979:6054   */\n  swap2\n  swap1\n  pop\n  jump\t// out\n    /* \"#utility.yul\":6060:6329   */\ntag_40:\n    /* \"#utility.yul\":6170:6209   */\n  tag_122\n    /* \"#utility.yul\":6201:6208   */\n  dup4\n    /* \"#utility.yul\":6170:6209   */\n  tag_38\n  jump\t// in\ntag_122:\n    /* \"#utility.yul\":6231:6322   */\n  tag_123\n    /* \"#utility.yul\":6280:6321   */\n  tag_124\n    /* \"#utility.yul\":6304:6320   */\n  dup3\n    /* \"#utility.yul\":6280:6321   */\n  tag_39\n  jump\t// in\ntag_124:\n    /* \"#utility.yul\":6272:6278   */\n  dup5\n    /* \"#utility.yul\":6265:6269   */\n  dup5\n    /* \"#utility.yul\":6259:6270   */\n  sload\n    /* \"#utility.yul\":6231:6322   */\n  tag_36\n  jump\t// in\ntag_123:\n    /* \"#utility.yul\":6225:6229   */\n  dup3\n    /* \"#utility.yul\":6218:6323   */\n  sstore\n    /* \"#utility.yul\":6136:6329   */\n  pop\n    /* \"#utility.yul\":6060:6329   */\n  pop\n  pop\n  pop\n  jump\t// out\n    /* \"#utility.yul\":6335:6408   */\ntag_41:\n    /* \"#utility.yul\":6380:6383   */\n  0x00\n    /* \"#utility.yul\":6335:6408   */\n  swap1\n  jump\t// out\n    /* \"#utility.yul\":6414:6603   */\ntag_42:\n    /* \"#utility.yul\":6491:6523   */\n  tag_127\n  tag_41\n  jump\t// in\ntag_127:\n    /* \"#utility.yul\":6532:6597   */\n  tag_128\n    /* \"#utility.yul\":6590:6596   */\n  dup2\n    /* \"#utility.yul\":6582:6588   */\n  dup5\n    /* \"#utility.yul\":6576:6580   */\n  dup5\n    /* \"#utility.yul\":6532:6597   */\n  tag_40\n  jump\t// in\ntag_128:\n    /* \"#utility.yul\":6467:6603   */\n  pop\n    /* \"#utility.yul\":6414:6603   */\n  pop\n  pop\n  jump\t// out\n    /* \"#utility.yul\":6609:6795   */\ntag_43:\n    /* \"#utility.yul\":6669:6789   */\ntag_130:\n    /* \"#utility.yul\":6686:6689   */\n  dup2\n    /* \"#utility.yul\":6679:6684   */\n  dup2\n    /* \"#utility.yul\":6676:6690   */\n  lt\n    /* \"#utility.yul\":6669:6789   */\n  iszero\n  tag_132\n  jumpi\n    /* \"#utility.yul\":6740:6779   */\n  tag_133\n    /* \"#utility.yul\":6777:6778   */\n  0x00\n    /* \"#utility.yul\":6770:6775   */\n  dup3\n    /* \"#utility.yul\":6740:6779   */\n  tag_42\n  jump\t// in\ntag_133:\n    /* \"#utility.yul\":6713:6714   */\n  0x01\n    /* \"#utility.yul\":6706:6711   */\n  dup2\n    /* \"#utility.yul\":6702:6715   */\n  add\n    /* \"#utility.yul\":6693:6715   */\n  swap1\n  pop\n    /* \"#utility.yul\":6669:6789   */\n  jump(tag_130)\ntag_132:\n    /* \"#utility.yul\":6609:6795   */\n  pop\n  pop\n  jump\t// out\n    /* \"#utility.yul\":6801:7344   */\ntag_44:\n    /* \"#utility.yul\":6902:6904   */\n  0x1f\n    /* \"#utility.yul\":6897:6900   */\n  dup3\n    /* \"#utility.yul\":6894:6905   */\n  gt\n    /* \"#utility.yul\":6891:7337   */\n  iszero\n  tag_135\n  jumpi\n    /* \"#utility.yul\":6936:6974   */\n  tag_136\n    /* \"#utility.yul\":6968:6973   */\n  dup2\n    /* \"#utility.yul\":6936:6974   */\n  tag_33\n  jump\t// in\ntag_136:\n    /* \"#utility.yul\":7020:7049   */\n  tag_137\n    /* \"#utility.yul\":7038:7048   */\n  dup5\n    /* \"#utility.yul\":7020:7049   */\n  tag_34\n  jump\t// in\ntag_137:\n    /* \"#utility.yul\":7010:7018   */\n  dup2\n    /* \"#utility.yul\":7006:7050   */\n  add\n    /* \"#utility.yul\":7203:7205   */\n  0x20\n    /* \"#utility.yul\":7191:7201   */\n  dup6\n    /* \"#utility.yul\":7188:7206   */\n  lt\n    /* \"#utility.yul\":7185:7234   */\n  iszero\n  tag_138\n  jumpi\n    /* \"#utility.yul\":7224:7232   */\n  dup2\n    /* \"#utility.yul\":7209:7232   */\n  swap1\n  pop\n    /* \"#utility.yul\":7185:7234   */\ntag_138:\n    /* \"#utility.yul\":7247:7327   */\n  tag_139\n    /* \"#utility.yul\":7303:7325   */\n  tag_140\n    /* \"#utility.yul\":7321:7324   */\n  dup6\n    /* \"#utility.yul\":7303:7325   */\n  tag_34\n  jump\t// in\ntag_140:\n    /* \"#utility.yul\":7293:7301   */\n  dup4\n    /* \"#utility.yul\":7289:7326   */\n  add\n    /* \"#utility.yul\":7276:7287   */\n  dup3\n    /* \"#utility.yul\":7247:7327   */\n  tag_43\n  jump\t// in\ntag_139:\n    /* \"#utility.yul\":6906:7337   */\n  pop\n  pop\n    /* \"#utility.yul\":6891:7337   */\ntag_135:\n    /* \"#utility.yul\":6801:7344   */\n  pop\n  pop\n  pop\n  jump\t// out\n    /* \"#utility.yul\":7350:7467   */\ntag_45:\n    /* \"#utility.yul\":7404:7412   */\n  0x00\n    /* \"#utility.yul\":7454:7459   */\n  dup3\n    /* \"#utility.yul\":7448:7452   */\n  dup3\n    /* \"#utility.yul\":7444:7460   */\n  shr\n    /* \"#utility.yul\":7423:7460   */\n  swap1\n  pop\n    /* \"#utility.yul\":7350:7467   */\n  swap3\n  swap2\n  pop\n  pop\n  jump\t// out\n    /* \"#utility.yul\":7473:7642   */\ntag_46:\n    /* \"#utility.yul\":7517:7523   */\n  0x00\n    /* \"#utility.yul\":7550:7601   */\n  tag_143\n    /* \"#utility.yul\":7598:7599   */\n  0x00\n    /* \"#utility.yul\":7594:7600   */\n  not\n    /* \"#utility.yul\":7586:7591   */\n  dup5\n    /* \"#utility.yul\":7583:7584   */\n  0x08\n    /* \"#utility.yul\":7579:7592   */\n  mul\n    /* \"#utility.yul\":7550:7601   */\n  tag_45\n  jump\t// in\ntag_143:\n    /* \"#utility.yul\":7546:7602   */\n  not\n    /* \"#utility.yul\":7631:7635   */\n  dup1\n    /* \"#utility.yul\":7625:7629   */\n  dup4\n    /* \"#utility.yul\":7621:7636   */\n  and\n    /* \"#utility.yul\":7611:7636   */\n  swap2\n  pop\n    /* \"#utility.yul\":7524:7642   */\n  pop\n    /* \"#utility.yul\":7473:7642   */\n  swap3\n  swap2\n  pop\n  pop\n  jump\t// out\n    /* \"#utility.yul\":7647:7942   */\ntag_47:\n    /* \"#utility.yul\":7723:7727   */\n  0x00\n    /* \"#utility.yul\":7869:7898   */\n  tag_145\n    /* \"#utility.yul\":7894:7897   */\n  dup4\n    /* \"#utility.yul\":7888:7892   */\n  dup4\n    /* \"#utility.yul\":7869:7898   */\n  tag_46\n  jump\t// in\ntag_145:\n    /* \"#utility.yul\":7861:7898   */\n  swap2\n  pop\n    /* \"#utility.yul\":7931:7934   */\n  dup3\n    /* \"#utility.yul\":7928:7929   */\n  0x02\n    /* \"#utility.yul\":7924:7935   */\n  mul\n    /* \"#utility.yul\":7918:7922   */\n  dup3\n    /* \"#utility.yul\":7915:7936   */\n  or\n    /* \"#utility.yul\":7907:7936   */\n  swap1\n  pop\n    /* \"#utility.yul\":7647:7942   */\n  swap3\n  swap2\n  pop\n  pop\n  jump\t// out\n    /* \"#utility.yul\":7947:9342   */\ntag_8:\n    /* \"#utility.yul\":8064:8101   */\n  tag_147\n    /* \"#utility.yul\":8097:8100   */\n  dup3\n    /* \"#utility.yul\":8064:8101   */\n  tag_30\n  jump\t// in\ntag_147:\n    /* \"#utility.yul\":8166:8184   */\n  0xffffffffffffffff\n    /* \"#utility.yul\":8158:8164   */\n  dup2\n    /* \"#utility.yul\":8155:8185   */\n  gt\n    /* \"#utility.yul\":8152:8208   */\n  iszero\n  tag_148\n  jumpi\n    /* \"#utility.yul\":8188:8206   */\n  tag_149\n  tag_16\n  jump\t// in\ntag_149:\n    /* \"#utility.yul\":8152:8208   */\ntag_148:\n    /* \"#utility.yul\":8232:8270   */\n  tag_150\n    /* \"#utility.yul\":8264:8268   */\n  dup3\n    /* \"#utility.yul\":8258:8269   */\n  sload\n    /* \"#utility.yul\":8232:8270   */\n  tag_32\n  jump\t// in\ntag_150:\n    /* \"#utility.yul\":8317:8384   */\n  tag_151\n    /* \"#utility.yul\":8377:8383   */\n  dup3\n    /* \"#utility.yul\":8369:8375   */\n  dup3\n    /* \"#utility.yul\":8363:8367   */\n  dup6\n    /* \"#utility.yul\":8317:8384   */\n  tag_44\n  jump\t// in\ntag_151:\n    /* \"#utility.yul\":8411:8412   */\n  0x00\n    /* \"#utility.yul\":8435:8439   */\n  0x20\n    /* \"#utility.yul\":8422:8439   */\n  swap1\n  pop\n    /* \"#utility.yul\":8467:8469   */\n  0x1f\n    /* \"#utility.yul\":8459:8465   */\n  dup4\n    /* \"#utility.yul\":8456:8470   */\n  gt\n    /* \"#utility.yul\":8484:8485   */\n  0x01\n    /* \"#utility.yul\":8479:9097   */\n  dup2\n  eq\n  tag_153\n  jumpi\n    /* \"#utility.yul\":9141:9142   */\n  0x00\n    /* \"#utility.yul\":9158:9164   */\n  dup5\n    /* \"#utility.yul\":9155:9232   */\n  iszero\n  tag_154\n  jumpi\n    /* \"#utility.yul\":9207:9216   */\n  dup3\n    /* \"#utility.yul\":9202:9205   */\n  dup8\n    /* \"#utility.yul\":9198:9217   */\n  add\n    /* \"#utility.yul\":9192:9218   */\n  mload\n    /* \"#utility.yul\":9183:9218   */\n  swap1\n  pop\n    /* \"#utility.yul\":9155:9232   */\ntag_154:\n    /* \"#utility.yul\":9258:9325   */\n  tag_155\n    /* \"#utility.yul\":9318:9324   */\n  dup6\n    /* \"#utility.yul\":9311:9316   */\n  dup3\n    /* \"#utility.yul\":9258:9325   */\n  tag_47\n  jump\t// in\ntag_155:\n    /* \"#utility.yul\":9252:9256   */\n  dup7\n    /* \"#utility.yul\":9245:9326   */\n  sstore\n    /* \"#utility.yul\":9114:9336   */\n  pop\n    /* \"#utility.yul\":8449:9336   */\n  jump(tag_152)\n    /* \"#utility.yul\":8479:9097   */\ntag_153:\n    /* \"#utility.yul\":8531:8535   */\n  0x1f\n    /* \"#utility.yul\":8527:8536   */\n  not\n    /* \"#utility.yul\":8519:8525   */\n  dup5\n    /* \"#utility.yul\":8515:8537   */\n  and\n    /* \"#utility.yul\":8565:8602   */\n  tag_156\n    /* \"#utility.yul\":8597:8601   */\n  dup7\n    /* \"#utility.yul\":8565:8602   */\n  tag_33\n  jump\t// in\ntag_156:\n    /* \"#utility.yul\":8624:8625   */\n  0x00\n    /* \"#utility.yul\":8638:8846   */\ntag_157:\n    /* \"#utility.yul\":8652:8659   */\n  dup3\n    /* \"#utility.yul\":8649:8650   */\n  dup2\n    /* \"#utility.yul\":8646:8660   */\n  lt\n    /* \"#utility.yul\":8638:8846   */\n  iszero\n  tag_159\n  jumpi\n    /* \"#utility.yul\":8731:8740   */\n  dup5\n    /* \"#utility.yul\":8726:8729   */\n  dup10\n    /* \"#utility.yul\":8722:8741   */\n  add\n    /* \"#utility.yul\":8716:8742   */\n  mload\n    /* \"#utility.yul\":8708:8714   */\n  dup3\n    /* \"#utility.yul\":8701:8743   */\n  sstore\n    /* \"#utility.yul\":8782:8783   */\n  0x01\n    /* \"#utility.yul\":8774:8780   */\n  dup3\n    /* \"#utility.yul\":8770:8784   */\n  add\n    /* \"#utility.yul\":8760:8784   */\n  swap2\n  pop\n    /* \"#utility.yul\":8829:8831   */\n  0x20\n    /* \"#utility.yul\":8818:8827   */\n  dup6\n    /* \"#utility.yul\":8814:8832   */\n  add\n    /* \"#utility.yul\":8801:8832   */\n  swap5\n  pop\n    /* \"#utility.yul\":8675:8679   */\n  0x20\n    /* \"#utility.yul\":8672:8673   */\n  dup2\n    /* \"#utility.yul\":8668:8680   */\n  add\n    /* \"#utility.yul\":8663:8680   */\n  swap1\n  pop\n    /* \"#utility.yul\":8638:8846   */\n  jump(tag_157)\ntag_159:\n    /* \"#utility.yul\":8874:8880   */\n  dup7\n    /* \"#utility.yul\":8865:8872   */\n  dup4\n    /* \"#utility.yul\":8862:8881   */\n  lt\n    /* \"#utility.yul\":8859:9038   */\n  iszero\n  tag_160\n  jumpi\n    /* \"#utility.yul\":8932:8941   */\n  dup5\n    /* \"#utility.yul\":8927:8930   */\n  dup10\n    /* \"#utility.yul\":8923:8942   */\n  add\n    /* \"#utility.yul\":8917:8943   */\n  mload\n    /* \"#utility.yul\":8975:9023   */\n  tag_161\n    /* \"#utility.yul\":9017:9021   */\n  0x1f\n    /* \"#utility.yul\":9009:9015   */\n  dup10\n    /* \"#utility.yul\":9005:9022   */\n  and\n    /* \"#utility.yul\":8994:9003   */\n  dup3\n    /* \"#utility.yul\":8975:9023   */\n  tag_46\n  jump\t// in\ntag_161:\n    /* \"#utility.yul\":8967:8973   */\n  dup4\n    /* \"#utility.yul\":8960:9024   */\n  sstore\n    /* \"#utility.yul\":8882:9038   */\n  pop\n    /* \"#utility.yul\":8859:9038   */\ntag_160:\n    /* \"#utility.yul\":9084:9085   */\n  0x01\n    /* \"#utility.yul\":9080:9081   */\n  0x02\n    /* \"#utility.yul\":9072:9078   */\n  dup9\n    /* \"#utility.yul\":9068:9082   */\n  mul\n    /* \"#utility.yul\":9064:9086   */\n  add\n    /* \"#utility.yul\":9058:9062   */\n  dup9\n    /* \"#utility.yul\":9051:9087   */\n  sstore\n    /* \"#utility.yul\":8486:9097   */\n  pop\n  pop\n  pop\n    /* \"#utility.yul\":8449:9336   */\ntag_152:\n  pop\n    /* \"#utility.yul\":8039:9342   */\n  pop\n  pop\n  pop\n    /* \"#utility.yul\":7947:9342   */\n  pop\n  pop\n  jump\t// out\n    /* \"Campaign.sol\":1116:5410  contract Campaign... */\ntag_9:\n  dataSize(sub_0)\n  dup1\n  dataOffset(sub_0)\n  0x00\n  codecopy\n  0x00\n  return\nstop\n\nsub_0: assembly {\n        /* \"Campaign.sol\":1116:5410  contract Campaign... */\n      mstore(0x40, 0x80)\n      jumpi(tag_1, lt(calldatasize, 0x04))\n      shr(0xe0, calldataload(0x00))\n      dup1\n      0xa7ac8000\n      gt\n      tag_15\n      jumpi\n      dup1\n      0xd5009584\n      gt\n      tag_16\n      jumpi\n      dup1\n      0xd5009584\n      eq\n      tag_11\n      jumpi\n      dup1\n      0xd7bb99ba\n      eq\n      tag_12\n      jumpi\n      dup1\n      0xe2e46b52\n      eq\n      tag_13\n      jumpi\n      dup1\n      0xf84038b1\n      eq\n      tag_14\n      jumpi\n      jump(tag_1)\n    tag_16:\n      dup1\n      0xa7ac8000\n      eq\n      tag_8\n      jumpi\n      dup1\n      0xaa8a7eeb\n      eq\n      tag_9\n      jumpi\n      dup1\n      0xaf157c19\n      eq\n      tag_10\n      jumpi\n      jump(tag_1)\n    tag_15:\n      dup1\n      0x0a144391\n      eq\n      tag_2\n      jumpi\n      dup1\n      0x1a092541\n      eq\n      tag_3\n      jumpi\n      dup1\n      0x30e8fc5c\n      eq\n      tag_4\n      jumpi\n      dup1\n      0x4051ddac\n      eq\n      tag_5\n      jumpi\n      dup1\n      0x692d51d2\n      eq\n      tag_6\n      jumpi\n      dup1\n      0x6f9fb98a\n      eq\n      tag_7\n      jumpi\n    tag_1:\n      0x00\n      dup1\n      revert\n        /* \"Campaign.sol\":1639:1680  mapping(address => uint) public approvers */\n    tag_2:\n      callvalue\n      dup1\n      iszero\n      tag_17\n      jumpi\n      0x00\n      dup1\n      revert\n    tag_17:\n      pop\n      tag_18\n      0x04\n      dup1\n      calldatasize\n      sub\n      dup2\n      add\n      swap1\n      tag_19\n      swap2\n      swap1\n      tag_20\n      jump\t// in\n    tag_19:\n      tag_21\n      jump\t// in\n    tag_18:\n      mload(0x40)\n      tag_22\n      swap2\n      swap1\n      tag_23\n      jump\t// in\n    tag_22:\n      mload(0x40)\n      dup1\n      swap2\n      sub\n      swap1\n      return\n        /* \"Campaign.sol\":2113:2217  function getDescription() external view returns (string memory)... */\n    tag_3:\n      callvalue\n      dup1\n      iszero\n      tag_24\n      jumpi\n      0x00\n      dup1\n      revert\n    tag_24:\n      pop\n      tag_25\n      tag_26\n      jump\t// in\n    tag_25:\n      mload(0x40)\n      tag_27\n      swap2\n      swap1\n      tag_28\n      jump\t// in\n    tag_27:\n      mload(0x40)\n      dup1\n      swap2\n      sub\n      swap1\n      return\n        /* \"Campaign.sol\":4115:4886  function voteRequest(string memory reqName, bool isApproval ) external... */\n    tag_4:\n      callvalue\n      dup1\n      iszero\n      tag_29\n      jumpi\n      0x00\n      dup1\n      revert\n    tag_29:\n      pop\n      tag_30\n      0x04\n      dup1\n      calldatasize\n      sub\n      dup2\n      add\n      swap1\n      tag_31\n      swap2\n      swap1\n      tag_32\n      jump\t// in\n    tag_31:\n      tag_33\n      jump\t// in\n    tag_30:\n      stop\n        /* \"Campaign.sol\":2550:3021  function getSummary() external view returns(Summary memory)... */\n    tag_5:\n      callvalue\n      dup1\n      iszero\n      tag_34\n      jumpi\n      0x00\n      dup1\n      revert\n    tag_34:\n      pop\n      tag_35\n      tag_36\n      jump\t// in\n    tag_35:\n      mload(0x40)\n      tag_37\n      swap2\n      swap1\n      tag_38\n      jump\t// in\n    tag_37:\n      mload(0x40)\n      dup1\n      swap2\n      sub\n      swap1\n      return\n        /* \"Campaign.sol\":1751:1793  mapping(string => Request) public requests */\n    tag_6:\n      callvalue\n      dup1\n      iszero\n      tag_39\n      jumpi\n      0x00\n      dup1\n      revert\n    tag_39:\n      pop\n      tag_40\n      0x04\n      dup1\n      calldatasize\n      sub\n      dup2\n      add\n      swap1\n      tag_41\n      swap2\n      swap1\n      tag_42\n      jump\t// in\n    tag_41:\n      tag_43\n      jump\t// in\n    tag_40:\n      mload(0x40)\n      tag_44\n      swap9\n      swap8\n      swap7\n      swap6\n      swap5\n      swap4\n      swap3\n      swap2\n      swap1\n      tag_45\n      jump\t// in\n    tag_44:\n      mload(0x40)\n      dup1\n      swap2\n      sub\n      swap1\n      return\n        /* \"Campaign.sol\":2431:2543  function getContractBalance() external view returns(uint){... */\n    tag_7:\n      callvalue\n      dup1\n      iszero\n      tag_46\n      jumpi\n      0x00\n      dup1\n      revert\n    tag_46:\n      pop\n      tag_47\n      tag_48\n      jump\t// in\n    tag_47:\n      mload(0x40)\n      tag_49\n      swap2\n      swap1\n      tag_23\n      jump\t// in\n    tag_49:\n      mload(0x40)\n      dup1\n      swap2\n      sub\n      swap1\n      return\n        /* \"Campaign.sol\":3366:4109  function triggerCampaignRequest(string memory name, string memory description, uint amount, uint requiredApprovals, address payable receiver) restricted external {... */\n    tag_8:\n      callvalue\n      dup1\n      iszero\n      tag_50\n      jumpi\n      0x00\n      dup1\n      revert\n    tag_50:\n      pop\n      tag_51\n      0x04\n      dup1\n      calldatasize\n      sub\n      dup2\n      add\n      swap1\n      tag_52\n      swap2\n      swap1\n      tag_53\n      jump\t// in\n    tag_52:\n      tag_54\n      jump\t// in\n    tag_51:\n      stop\n        /* \"Campaign.sol\":3027:3122  function getApproversCount() external view returns(uint){... */\n    tag_9:\n      callvalue\n      dup1\n      iszero\n      tag_55\n      jumpi\n      0x00\n      dup1\n      revert\n    tag_55:\n      pop\n      tag_56\n      tag_57\n      jump\t// in\n    tag_56:\n      mload(0x40)\n      tag_58\n      swap2\n      swap1\n      tag_23\n      jump\t// in\n    tag_58:\n      mload(0x40)\n      dup1\n      swap2\n      sub\n      swap1\n      return\n        /* \"Campaign.sol\":2222:2315  function getContributors() external view returns(uint){... */\n    tag_10:\n      callvalue\n      dup1\n      iszero\n      tag_59\n      jumpi\n      0x00\n      dup1\n      revert\n    tag_59:\n      pop\n      tag_60\n      tag_61\n      jump\t// in\n    tag_60:\n      mload(0x40)\n      tag_62\n      swap2\n      swap1\n      tag_23\n      jump\t// in\n    tag_62:\n      mload(0x40)\n      dup1\n      swap2\n      sub\n      swap1\n      return\n        /* \"Campaign.sol\":2017:2107  function getManager() external view returns (address)... */\n    tag_11:\n      callvalue\n      dup1\n      iszero\n      tag_63\n      jumpi\n      0x00\n      dup1\n      revert\n    tag_63:\n      pop\n      tag_64\n      tag_65\n      jump\t// in\n    tag_64:\n      mload(0x40)\n      tag_66\n      swap2\n      swap1\n      tag_67\n      jump\t// in\n    tag_66:\n      mload(0x40)\n      dup1\n      swap2\n      sub\n      swap1\n      return\n        /* \"Campaign.sol\":3127:3360  function contribute() public payable{... */\n    tag_12:\n      tag_68\n      tag_69\n      jump\t// in\n    tag_68:\n      stop\n        /* \"Campaign.sol\":4892:5321  function submitRequest(string memory reqName) restricted external {... */\n    tag_13:\n      callvalue\n      dup1\n      iszero\n      tag_70\n      jumpi\n      0x00\n      dup1\n      revert\n    tag_70:\n      pop\n      tag_71\n      0x04\n      dup1\n      calldatasize\n      sub\n      dup2\n      add\n      swap1\n      tag_72\n      swap2\n      swap1\n      tag_42\n      jump\t// in\n    tag_72:\n      tag_73\n      jump\t// in\n    tag_71:\n      stop\n        /* \"Campaign.sol\":2320:2425  function getMinimumContribution() external view returns(uint){... */\n    tag_14:\n      callvalue\n      dup1\n      iszero\n      tag_74\n      jumpi\n      0x00\n      dup1\n      revert\n    tag_74:\n      pop\n      tag_75\n      tag_76\n      jump\t// in\n    tag_75:\n      mload(0x40)\n      tag_77\n      swap2\n      swap1\n      tag_23\n      jump\t// in\n    tag_77:\n      mload(0x40)\n      dup1\n      swap2\n      sub\n      swap1\n      return\n        /* \"Campaign.sol\":1639:1680  mapping(address => uint) public approvers */\n    tag_21:\n      mstore(0x20, 0x02)\n      dup1\n      0x00\n      mstore\n      keccak256(0x00, 0x40)\n      0x00\n      swap2\n      pop\n      swap1\n      pop\n      sload\n      dup2\n      jump\t// out\n        /* \"Campaign.sol\":2113:2217  function getDescription() external view returns (string memory)... */\n    tag_26:\n        /* \"Campaign.sol\":2162:2175  string memory */\n      0x60\n        /* \"Campaign.sol\":2198:2210  _description */\n      0x00\n        /* \"Campaign.sol\":2191:2210  return _description */\n      dup1\n      sload\n      tag_79\n      swap1\n      tag_80\n      jump\t// in\n    tag_79:\n      dup1\n      0x1f\n      add\n      0x20\n      dup1\n      swap2\n      div\n      mul\n      0x20\n      add\n      mload(0x40)\n      swap1\n      dup2\n      add\n      0x40\n      mstore\n      dup1\n      swap3\n      swap2\n      swap1\n      dup2\n      dup2\n      mstore\n      0x20\n      add\n      dup3\n      dup1\n      sload\n      tag_81\n      swap1\n      tag_80\n      jump\t// in\n    tag_81:\n      dup1\n      iszero\n      tag_82\n      jumpi\n      dup1\n      0x1f\n      lt\n      tag_83\n      jumpi\n      0x0100\n      dup1\n      dup4\n      sload\n      div\n      mul\n      dup4\n      mstore\n      swap2\n      0x20\n      add\n      swap2\n      jump(tag_82)\n    tag_83:\n      dup3\n      add\n      swap2\n      swap1\n      0x00\n      mstore\n      keccak256(0x00, 0x20)\n      swap1\n    tag_84:\n      dup2\n      sload\n      dup2\n      mstore\n      swap1\n      0x01\n      add\n      swap1\n      0x20\n      add\n      dup1\n      dup4\n      gt\n      tag_84\n      jumpi\n      dup3\n      swap1\n      sub\n      0x1f\n      and\n      dup3\n      add\n      swap2\n    tag_82:\n      pop\n      pop\n      pop\n      pop\n      pop\n      swap1\n      pop\n        /* \"Campaign.sol\":2113:2217  function getDescription() external view returns (string memory)... */\n      swap1\n      jump\t// out\n        /* \"Campaign.sol\":4115:4886  function voteRequest(string memory reqName, bool isApproval ) external... */\n    tag_33:\n        /* \"Campaign.sol\":4222:4230  _manager */\n      0x01\n      0x00\n      swap1\n      sload\n      swap1\n      0x0100\n      exp\n      swap1\n      div\n      0xffffffffffffffffffffffffffffffffffffffff\n      and\n        /* \"Campaign.sol\":4208:4230  msg.sender != _manager */\n      0xffffffffffffffffffffffffffffffffffffffff\n      and\n        /* \"Campaign.sol\":4208:4218  msg.sender */\n      caller\n        /* \"Campaign.sol\":4208:4230  msg.sender != _manager */\n      0xffffffffffffffffffffffffffffffffffffffff\n      and\n      sub\n        /* \"Campaign.sol\":4200:4231  require(msg.sender != _manager) */\n      tag_86\n      jumpi\n      0x00\n      dup1\n      revert\n    tag_86:\n        /* \"Campaign.sol\":4242:4261  Request storage req */\n      0x00\n        /* \"Campaign.sol\":4264:4272  requests */\n      0x05\n        /* \"Campaign.sol\":4273:4280  reqName */\n      dup4\n        /* \"Campaign.sol\":4264:4281  requests[reqName] */\n      mload(0x40)\n      tag_87\n      swap2\n      swap1\n      tag_88\n      jump\t// in\n    tag_87:\n      swap1\n      dup2\n      mstore\n      0x20\n      add\n      mload(0x40)\n      dup1\n      swap2\n      sub\n      swap1\n      keccak256\n        /* \"Campaign.sol\":4242:4281  Request storage req = requests[reqName] */\n      swap1\n      pop\n        /* \"Campaign.sol\":4325:4326  0 */\n      0x00\n        /* \"Campaign.sol\":4306:4309  req */\n      dup2\n        /* \"Campaign.sol\":4306:4314  req.name */\n      0x00\n      add\n        /* \"Campaign.sol\":4300:4322  bytes(req.name).length */\n      dup1\n      sload\n      tag_89\n      swap1\n      tag_80\n      jump\t// in\n    tag_89:\n      swap1\n      pop\n        /* \"Campaign.sol\":4300:4326  bytes(req.name).length > 0 */\n      gt\n        /* \"Campaign.sol\":4292:4327  require(bytes(req.name).length > 0) */\n      tag_90\n      jumpi\n      0x00\n      dup1\n      revert\n    tag_90:\n        /* \"Campaign.sol\":4377:4384  reqName */\n      dup3\n        /* \"Campaign.sol\":4371:4392  bytes(reqName).length */\n      mload\n        /* \"Campaign.sol\":4351:4354  req */\n      dup2\n        /* \"Campaign.sol\":4351:4359  req.name */\n      0x00\n      add\n        /* \"Campaign.sol\":4345:4367  bytes(req.name).length */\n      dup1\n      sload\n      tag_91\n      swap1\n      tag_80\n      jump\t// in\n    tag_91:\n      swap1\n      pop\n        /* \"Campaign.sol\":4345:4392  bytes(req.name).length == bytes(reqName).length */\n      eq\n        /* \"Campaign.sol\":4337:4393  require(bytes(req.name).length == bytes(reqName).length) */\n      tag_92\n      jumpi\n      0x00\n      dup1\n      revert\n    tag_92:\n        /* \"Campaign.sol\":4462:4463  0 */\n      0x00\n        /* \"Campaign.sol\":4438:4447  approvers */\n      0x02\n        /* \"Campaign.sol\":4438:4459  approvers[msg.sender] */\n      0x00\n        /* \"Campaign.sol\":4448:4458  msg.sender */\n      caller\n        /* \"Campaign.sol\":4438:4459  approvers[msg.sender] */\n      0xffffffffffffffffffffffffffffffffffffffff\n      and\n      0xffffffffffffffffffffffffffffffffffffffff\n      and\n      dup2\n      mstore\n      0x20\n      add\n      swap1\n      dup2\n      mstore\n      0x20\n      add\n      0x00\n      keccak256\n      sload\n        /* \"Campaign.sol\":4438:4463  approvers[msg.sender] > 0 */\n      gt\n        /* \"Campaign.sol\":4430:4464  require(approvers[msg.sender] > 0) */\n      tag_93\n      jumpi\n      0x00\n      dup1\n      revert\n    tag_93:\n        /* \"Campaign.sol\":4508:4511  req */\n      dup1\n        /* \"Campaign.sol\":4508:4521  req.canSubmit */\n      0x06\n      add\n      0x00\n      swap1\n      sload\n      swap1\n      0x0100\n      exp\n      swap1\n      div\n      0xff\n      and\n        /* \"Campaign.sol\":4507:4521  !req.canSubmit */\n      iszero\n        /* \"Campaign.sol\":4499:4522  require(!req.canSubmit) */\n      tag_94\n      jumpi\n      0x00\n      dup1\n      revert\n    tag_94:\n        /* \"Campaign.sol\":4541:4544  req */\n      dup1\n        /* \"Campaign.sol\":4541:4553  req.complete */\n      0x06\n      add\n      0x01\n      swap1\n      sload\n      swap1\n      0x0100\n      exp\n      swap1\n      div\n      0xff\n      and\n        /* \"Campaign.sol\":4540:4553  !req.complete */\n      iszero\n        /* \"Campaign.sol\":4532:4554  require(!req.complete) */\n      tag_95\n      jumpi\n      0x00\n      dup1\n      revert\n    tag_95:\n        /* \"Campaign.sol\":4599:4602  req */\n      dup1\n        /* \"Campaign.sol\":4599:4612  req.approvers */\n      0x07\n      add\n        /* \"Campaign.sol\":4599:4624  req.approvers[msg.sender] */\n      0x00\n        /* \"Campaign.sol\":4613:4623  msg.sender */\n      caller\n        /* \"Campaign.sol\":4599:4624  req.approvers[msg.sender] */\n      0xffffffffffffffffffffffffffffffffffffffff\n      and\n      0xffffffffffffffffffffffffffffffffffffffff\n      and\n      dup2\n      mstore\n      0x20\n      add\n      swap1\n      dup2\n      mstore\n      0x20\n      add\n      0x00\n      keccak256\n      0x00\n      swap1\n      sload\n      swap1\n      0x0100\n      exp\n      swap1\n      div\n      0xff\n      and\n        /* \"Campaign.sol\":4598:4624  !req.approvers[msg.sender] */\n      iszero\n        /* \"Campaign.sol\":4590:4625  require(!req.approvers[msg.sender]) */\n      tag_96\n      jumpi\n      0x00\n      dup1\n      revert\n    tag_96:\n        /* \"Campaign.sol\":4664:4668  true */\n      0x01\n        /* \"Campaign.sol\":4636:4639  req */\n      dup2\n        /* \"Campaign.sol\":4636:4649  req.approvers */\n      0x07\n      add\n        /* \"Campaign.sol\":4636:4661  req.approvers[msg.sender] */\n      0x00\n        /* \"Campaign.sol\":4650:4660  msg.sender */\n      caller\n        /* \"Campaign.sol\":4636:4661  req.approvers[msg.sender] */\n      0xffffffffffffffffffffffffffffffffffffffff\n      and\n      0xffffffffffffffffffffffffffffffffffffffff\n      and\n      dup2\n      mstore\n      0x20\n      add\n      swap1\n      dup2\n      mstore\n      0x20\n      add\n      0x00\n      keccak256\n      0x00\n        /* \"Campaign.sol\":4636:4668  req.approvers[msg.sender] = true */\n      0x0100\n      exp\n      dup2\n      sload\n      dup2\n      0xff\n      mul\n      not\n      and\n      swap1\n      dup4\n      iszero\n      iszero\n      mul\n      or\n      swap1\n      sstore\n      pop\n        /* \"Campaign.sol\":4690:4700  isApproval */\n      dup2\n        /* \"Campaign.sol\":4687:4746  if(isApproval){... */\n      iszero\n      tag_97\n      jumpi\n        /* \"Campaign.sol\":4715:4718  req */\n      dup1\n        /* \"Campaign.sol\":4715:4733  req.approvalsCount */\n      0x04\n      add\n      0x00\n        /* \"Campaign.sol\":4715:4735  req.approvalsCount++ */\n      dup2\n      sload\n      dup1\n      swap3\n      swap2\n      swap1\n      tag_98\n      swap1\n      tag_99\n      jump\t// in\n    tag_98:\n      swap2\n      swap1\n      pop\n      sstore\n      pop\n        /* \"Campaign.sol\":4687:4746  if(isApproval){... */\n    tag_97:\n        /* \"Campaign.sol\":4781:4784  req */\n      dup1\n        /* \"Campaign.sol\":4781:4802  req.requiredApprovals */\n      0x05\n      add\n      sload\n        /* \"Campaign.sol\":4759:4762  req */\n      dup2\n        /* \"Campaign.sol\":4759:4777  req.approvalsCount */\n      0x04\n      add\n      sload\n        /* \"Campaign.sol\":4759:4802  req.approvalsCount >= req.requiredApprovals */\n      lt\n        /* \"Campaign.sol\":4756:4849  if(req.approvalsCount >= req.requiredApprovals) {... */\n      tag_100\n      jumpi\n        /* \"Campaign.sol\":4834:4838  true */\n      0x01\n        /* \"Campaign.sol\":4818:4821  req */\n      dup2\n        /* \"Campaign.sol\":4818:4831  req.canSubmit */\n      0x06\n      add\n      0x00\n        /* \"Campaign.sol\":4818:4838  req.canSubmit = true */\n      0x0100\n      exp\n      dup2\n      sload\n      dup2\n      0xff\n      mul\n      not\n      and\n      swap1\n      dup4\n      iszero\n      iszero\n      mul\n      or\n      swap1\n      sstore\n      pop\n        /* \"Campaign.sol\":4756:4849  if(req.approvalsCount >= req.requiredApprovals) {... */\n    tag_100:\n        /* \"Campaign.sol\":4190:4886  {... */\n      pop\n        /* \"Campaign.sol\":4115:4886  function voteRequest(string memory reqName, bool isApproval ) external... */\n      pop\n      pop\n      jump\t// out\n        /* \"Campaign.sol\":2550:3021  function getSummary() external view returns(Summary memory)... */\n    tag_36:\n        /* \"Campaign.sol\":2594:2608  Summary memory */\n      tag_101\n      tag_102\n      jump\t// in\n    tag_101:\n        /* \"Campaign.sol\":2624:2643  Summary memory data */\n      0x00\n        /* \"Campaign.sol\":2647:2992  Summary({... */\n      mload(0x40)\n      dup1\n      0xa0\n      add\n      0x40\n      mstore\n      dup1\n        /* \"Campaign.sol\":2678:2686  _manager */\n      0x01\n      0x00\n      swap1\n      sload\n      swap1\n      0x0100\n      exp\n      swap1\n      div\n      0xffffffffffffffffffffffffffffffffffffffff\n      and\n        /* \"Campaign.sol\":2647:2992  Summary({... */\n      0xffffffffffffffffffffffffffffffffffffffff\n      and\n      dup2\n      mstore\n      0x20\n      add\n        /* \"Campaign.sol\":2713:2725  _description */\n      0x00\n        /* \"Campaign.sol\":2647:2992  Summary({... */\n      dup1\n      sload\n      tag_104\n      swap1\n      tag_80\n      jump\t// in\n    tag_104:\n      dup1\n      0x1f\n      add\n      0x20\n      dup1\n      swap2\n      div\n      mul\n      0x20\n      add\n      mload(0x40)\n      swap1\n      dup2\n      add\n      0x40\n      mstore\n      dup1\n      swap3\n      swap2\n      swap1\n      dup2\n      dup2\n      mstore\n      0x20\n      add\n      dup3\n      dup1\n      sload\n      tag_105\n      swap1\n      tag_80\n      jump\t// in\n    tag_105:\n      dup1\n      iszero\n      tag_106\n      jumpi\n      dup1\n      0x1f\n      lt\n      tag_107\n      jumpi\n      0x0100\n      dup1\n      dup4\n      sload\n      div\n      mul\n      dup4\n      mstore\n      swap2\n      0x20\n      add\n      swap2\n      jump(tag_106)\n    tag_107:\n      dup3\n      add\n      swap2\n      swap1\n      0x00\n      mstore\n      keccak256(0x00, 0x20)\n      swap1\n    tag_108:\n      dup2\n      sload\n      dup2\n      mstore\n      swap1\n      0x01\n      add\n      swap1\n      0x20\n      add\n      dup1\n      dup4\n      gt\n      tag_108\n      jumpi\n      dup3\n      swap1\n      sub\n      0x1f\n      and\n      dup3\n      add\n      swap2\n    tag_106:\n      pop\n      pop\n      pop\n      pop\n      pop\n      dup2\n      mstore\n      0x20\n      add\n        /* \"Campaign.sol\":2756:2776  _minimumContribution */\n      sload(0x04)\n        /* \"Campaign.sol\":2647:2992  Summary({... */\n      dup2\n      mstore\n      0x20\n      add\n        /* \"Campaign.sol\":2799:2820  address(this).balance */\n      selfbalance\n        /* \"Campaign.sol\":2647:2992  Summary({... */\n      dup2\n      mstore\n      0x20\n      add\n        /* \"Campaign.sol\":2966:2981  _approversCount */\n      sload(0x03)\n        /* \"Campaign.sol\":2647:2992  Summary({... */\n      dup2\n      mstore\n      pop\n        /* \"Campaign.sol\":2624:2992  Summary memory data  = Summary({... */\n      swap1\n      pop\n        /* \"Campaign.sol\":3010:3014  data */\n      dup1\n        /* \"Campaign.sol\":3003:3014  return data */\n      swap2\n      pop\n      pop\n        /* \"Campaign.sol\":2550:3021  function getSummary() external view returns(Summary memory)... */\n      swap1\n      jump\t// out\n        /* \"Campaign.sol\":1751:1793  mapping(string => Request) public requests */\n    tag_43:\n      0x05\n      dup2\n      dup1\n      mload\n      0x20\n      dup2\n      add\n      dup3\n      add\n      dup1\n      mload\n      dup5\n      dup3\n      mstore\n      0x20\n      dup4\n      add\n      0x20\n      dup6\n      add\n      keccak256\n      dup2\n      dup4\n      mstore\n      dup1\n      swap6\n      pop\n      pop\n      pop\n      pop\n      pop\n      pop\n      0x00\n      swap2\n      pop\n      swap1\n      pop\n      dup1\n      0x00\n      add\n      dup1\n      sload\n      tag_109\n      swap1\n      tag_80\n      jump\t// in\n    tag_109:\n      dup1\n      0x1f\n      add\n      0x20\n      dup1\n      swap2\n      div\n      mul\n      0x20\n      add\n      mload(0x40)\n      swap1\n      dup2\n      add\n      0x40\n      mstore\n      dup1\n      swap3\n      swap2\n      swap1\n      dup2\n      dup2\n      mstore\n      0x20\n      add\n      dup3\n      dup1\n      sload\n      tag_110\n      swap1\n      tag_80\n      jump\t// in\n    tag_110:\n      dup1\n      iszero\n      tag_111\n      jumpi\n      dup1\n      0x1f\n      lt\n      tag_112\n      jumpi\n      0x0100\n      dup1\n      dup4\n      sload\n      div\n      mul\n      dup4\n      mstore\n      swap2\n      0x20\n      add\n      swap2\n      jump(tag_111)\n    tag_112:\n      dup3\n      add\n      swap2\n      swap1\n      0x00\n      mstore\n      keccak256(0x00, 0x20)\n      swap1\n    tag_113:\n      dup2\n      sload\n      dup2\n      mstore\n      swap1\n      0x01\n      add\n      swap1\n      0x20\n      add\n      dup1\n      dup4\n      gt\n      tag_113\n      jumpi\n      dup3\n      swap1\n      sub\n      0x1f\n      and\n      dup3\n      add\n      swap2\n    tag_111:\n      pop\n      pop\n      pop\n      pop\n      pop\n      swap1\n      dup1\n      0x01\n      add\n      dup1\n      sload\n      tag_114\n      swap1\n      tag_80\n      jump\t// in\n    tag_114:\n      dup1\n      0x1f\n      add\n      0x20\n      dup1\n      swap2\n      div\n      mul\n      0x20\n      add\n      mload(0x40)\n      swap1\n      dup2\n      add\n      0x40\n      mstore\n      dup1\n      swap3\n      swap2\n      swap1\n      dup2\n      dup2\n      mstore\n      0x20\n      add\n      dup3\n      dup1\n      sload\n      tag_115\n      swap1\n      tag_80\n      jump\t// in\n    tag_115:\n      dup1\n      iszero\n      tag_116\n      jumpi\n      dup1\n      0x1f\n      lt\n      tag_117\n      jumpi\n      0x0100\n      dup1\n      dup4\n      sload\n      div\n      mul\n      dup4\n      mstore\n      swap2\n      0x20\n      add\n      swap2\n      jump(tag_116)\n    tag_117:\n      dup3\n      add\n      swap2\n      swap1\n      0x00\n      mstore\n      keccak256(0x00, 0x20)\n      swap1\n    tag_118:\n      dup2\n      sload\n      dup2\n      mstore\n      swap1\n      0x01\n      add\n      swap1\n      0x20\n      add\n      dup1\n      dup4\n      gt\n      tag_118\n      jumpi\n      dup3\n      swap1\n      sub\n      0x1f\n      and\n      dup3\n      add\n      swap2\n    tag_116:\n      pop\n      pop\n      pop\n      pop\n      pop\n      swap1\n      dup1\n      0x02\n      add\n      sload\n      swap1\n      dup1\n      0x03\n      add\n      0x00\n      swap1\n      sload\n      swap1\n      0x0100\n      exp\n      swap1\n      div\n      0xffffffffffffffffffffffffffffffffffffffff\n      and\n      swap1\n      dup1\n      0x04\n      add\n      sload\n      swap1\n      dup1\n      0x05\n      add\n      sload\n      swap1\n      dup1\n      0x06\n      add\n      0x00\n      swap1\n      sload\n      swap1\n      0x0100\n      exp\n      swap1\n      div\n      0xff\n      and\n      swap1\n      dup1\n      0x06\n      add\n      0x01\n      swap1\n      sload\n      swap1\n      0x0100\n      exp\n      swap1\n      div\n      0xff\n      and\n      swap1\n      pop\n      dup9\n      jump\t// out\n        /* \"Campaign.sol\":2431:2543  function getContractBalance() external view returns(uint){... */\n    tag_48:\n        /* \"Campaign.sol\":2483:2487  uint */\n      0x00\n        /* \"Campaign.sol\":2529:2536  1 ether */\n      0x0de0b6b3a7640000\n        /* \"Campaign.sol\":2505:2526  address(this).balance */\n      selfbalance\n        /* \"Campaign.sol\":2505:2536  address(this).balance / 1 ether */\n      tag_120\n      swap2\n      swap1\n      tag_121\n      jump\t// in\n    tag_120:\n        /* \"Campaign.sol\":2498:2536  return address(this).balance / 1 ether */\n      swap1\n      pop\n        /* \"Campaign.sol\":2431:2543  function getContractBalance() external view returns(uint){... */\n      swap1\n      jump\t// out\n        /* \"Campaign.sol\":3366:4109  function triggerCampaignRequest(string memory name, string memory description, uint amount, uint requiredApprovals, address payable receiver) restricted external {... */\n    tag_54:\n        /* \"Campaign.sol\":5381:5389  _manager */\n      0x01\n      0x00\n      swap1\n      sload\n      swap1\n      0x0100\n      exp\n      swap1\n      div\n      0xffffffffffffffffffffffffffffffffffffffff\n      and\n        /* \"Campaign.sol\":5367:5389  msg.sender == _manager */\n      0xffffffffffffffffffffffffffffffffffffffff\n      and\n        /* \"Campaign.sol\":5367:5377  msg.sender */\n      caller\n        /* \"Campaign.sol\":5367:5389  msg.sender == _manager */\n      0xffffffffffffffffffffffffffffffffffffffff\n      and\n      eq\n        /* \"Campaign.sol\":5359:5390  require(msg.sender == _manager) */\n      tag_123\n      jumpi\n      0x00\n      dup1\n      revert\n    tag_123:\n        /* \"Campaign.sol\":3576:3577  0 */\n      0x00\n        /* \"Campaign.sol\":3561:3565  name */\n      dup6\n        /* \"Campaign.sol\":3555:3573  bytes(name).length */\n      mload\n        /* \"Campaign.sol\":3555:3577  bytes(name).length > 0 */\n      gt\n        /* \"Campaign.sol\":3547:3578  require(bytes(name).length > 0) */\n      tag_125\n      jumpi\n      0x00\n      dup1\n      revert\n    tag_125:\n        /* \"Campaign.sol\":3624:3625  0 */\n      0x00\n        /* \"Campaign.sol\":3602:3613  description */\n      dup5\n        /* \"Campaign.sol\":3596:3621  bytes(description).length */\n      mload\n        /* \"Campaign.sol\":3596:3625  bytes(description).length > 0 */\n      gt\n        /* \"Campaign.sol\":3588:3626  require(bytes(description).length > 0) */\n      tag_126\n      jumpi\n      0x00\n      dup1\n      revert\n    tag_126:\n        /* \"Campaign.sol\":3653:3654  0 */\n      0x00\n        /* \"Campaign.sol\":3644:3650  amount */\n      dup4\n        /* \"Campaign.sol\":3644:3654  amount > 0 */\n      gt\n        /* \"Campaign.sol\":3636:3655  require(amount > 0) */\n      tag_127\n      jumpi\n      0x00\n      dup1\n      revert\n    tag_127:\n        /* \"Campaign.sol\":3707:3714  1 ether */\n      0x0de0b6b3a7640000\n        /* \"Campaign.sol\":3683:3704  address(this).balance */\n      selfbalance\n        /* \"Campaign.sol\":3683:3714  address(this).balance / 1 ether */\n      tag_128\n      swap2\n      swap1\n      tag_121\n      jump\t// in\n    tag_128:\n        /* \"Campaign.sol\":3673:3679  amount */\n      dup4\n        /* \"Campaign.sol\":3673:3714  amount <= address(this).balance / 1 ether */\n      gt\n      iszero\n        /* \"Campaign.sol\":3665:3715  require(amount <= address(this).balance / 1 ether) */\n      tag_129\n      jumpi\n      0x00\n      dup1\n      revert\n    tag_129:\n        /* \"Campaign.sol\":3753:3754  0 */\n      0x00\n        /* \"Campaign.sol\":3733:3750  requiredApprovals */\n      dup3\n        /* \"Campaign.sol\":3733:3754  requiredApprovals > 0 */\n      gt\n        /* \"Campaign.sol\":3725:3755  require(requiredApprovals > 0) */\n      tag_130\n      jumpi\n      0x00\n      dup1\n      revert\n    tag_130:\n        /* \"Campaign.sol\":3794:3809  _approversCount */\n      sload(0x03)\n        /* \"Campaign.sol\":3773:3790  requiredApprovals */\n      dup3\n        /* \"Campaign.sol\":3773:3809  requiredApprovals <= _approversCount */\n      gt\n      iszero\n        /* \"Campaign.sol\":3765:3810  require(requiredApprovals <= _approversCount) */\n      tag_131\n      jumpi\n      0x00\n      dup1\n      revert\n    tag_131:\n        /* \"Campaign.sol\":3820:3839  Request storage req */\n      0x00\n        /* \"Campaign.sol\":3842:3850  requests */\n      0x05\n        /* \"Campaign.sol\":3851:3855  name */\n      dup7\n        /* \"Campaign.sol\":3842:3856  requests[name] */\n      mload(0x40)\n      tag_132\n      swap2\n      swap1\n      tag_88\n      jump\t// in\n    tag_132:\n      swap1\n      dup2\n      mstore\n      0x20\n      add\n      mload(0x40)\n      dup1\n      swap2\n      sub\n      swap1\n      keccak256\n        /* \"Campaign.sol\":3820:3856  Request storage req = requests[name] */\n      swap1\n      pop\n        /* \"Campaign.sol\":3885:3889  name */\n      dup6\n        /* \"Campaign.sol\":3875:3878  req */\n      dup2\n        /* \"Campaign.sol\":3875:3883  req.name */\n      0x00\n      add\n        /* \"Campaign.sol\":3875:3889  req.name= name */\n      swap1\n      dup2\n      tag_133\n      swap2\n      swap1\n      tag_134\n      jump\t// in\n    tag_133:\n      pop\n        /* \"Campaign.sol\":3917:3928  description */\n      dup5\n        /* \"Campaign.sol\":3899:3902  req */\n      dup2\n        /* \"Campaign.sol\":3899:3914  req.description */\n      0x01\n      add\n        /* \"Campaign.sol\":3899:3928  req.description = description */\n      swap1\n      dup2\n      tag_135\n      swap2\n      swap1\n      tag_134\n      jump\t// in\n    tag_135:\n      pop\n        /* \"Campaign.sol\":3951:3957  amount */\n      dup4\n        /* \"Campaign.sol\":3938:3941  req */\n      dup2\n        /* \"Campaign.sol\":3938:3948  req.amount */\n      0x02\n      add\n        /* \"Campaign.sol\":3938:3957  req.amount = amount */\n      dup2\n      swap1\n      sstore\n      pop\n        /* \"Campaign.sol\":3982:3990  receiver */\n      dup2\n        /* \"Campaign.sol\":3967:3970  req */\n      dup2\n        /* \"Campaign.sol\":3967:3979  req.receiver */\n      0x03\n      add\n      0x00\n        /* \"Campaign.sol\":3967:3990  req.receiver = receiver */\n      0x0100\n      exp\n      dup2\n      sload\n      dup2\n      0xffffffffffffffffffffffffffffffffffffffff\n      mul\n      not\n      and\n      swap1\n      dup4\n      0xffffffffffffffffffffffffffffffffffffffff\n      and\n      mul\n      or\n      swap1\n      sstore\n      pop\n        /* \"Campaign.sol\":4021:4022  0 */\n      0x00\n        /* \"Campaign.sol\":4000:4003  req */\n      dup2\n        /* \"Campaign.sol\":4000:4018  req.approvalsCount */\n      0x04\n      add\n        /* \"Campaign.sol\":4000:4022  req.approvalsCount=  0 */\n      dup2\n      swap1\n      sstore\n      pop\n        /* \"Campaign.sol\":4056:4073  requiredApprovals */\n      dup3\n        /* \"Campaign.sol\":4032:4035  req */\n      dup2\n        /* \"Campaign.sol\":4032:4053  req.requiredApprovals */\n      0x05\n      add\n        /* \"Campaign.sol\":4032:4073  req.requiredApprovals = requiredApprovals */\n      dup2\n      swap1\n      sstore\n      pop\n        /* \"Campaign.sol\":4097:4102  false */\n      0x00\n        /* \"Campaign.sol\":4083:4086  req */\n      dup2\n        /* \"Campaign.sol\":4083:4095  req.complete */\n      0x06\n      add\n      0x01\n        /* \"Campaign.sol\":4083:4102  req.complete= false */\n      0x0100\n      exp\n      dup2\n      sload\n      dup2\n      0xff\n      mul\n      not\n      and\n      swap1\n      dup4\n      iszero\n      iszero\n      mul\n      or\n      swap1\n      sstore\n      pop\n        /* \"Campaign.sol\":3528:4109  {... */\n      pop\n        /* \"Campaign.sol\":3366:4109  function triggerCampaignRequest(string memory name, string memory description, uint amount, uint requiredApprovals, address payable receiver) restricted external {... */\n      pop\n      pop\n      pop\n      pop\n      pop\n      jump\t// out\n        /* \"Campaign.sol\":3027:3122  function getApproversCount() external view returns(uint){... */\n    tag_57:\n        /* \"Campaign.sol\":3078:3082  uint */\n      0x00\n        /* \"Campaign.sol\":3100:3115  _approversCount */\n      sload(0x03)\n        /* \"Campaign.sol\":3093:3115  return _approversCount */\n      swap1\n      pop\n        /* \"Campaign.sol\":3027:3122  function getApproversCount() external view returns(uint){... */\n      swap1\n      jump\t// out\n        /* \"Campaign.sol\":2222:2315  function getContributors() external view returns(uint){... */\n    tag_61:\n        /* \"Campaign.sol\":2271:2275  uint */\n      0x00\n        /* \"Campaign.sol\":2293:2308  _approversCount */\n      sload(0x03)\n        /* \"Campaign.sol\":2286:2308  return _approversCount */\n      swap1\n      pop\n        /* \"Campaign.sol\":2222:2315  function getContributors() external view returns(uint){... */\n      swap1\n      jump\t// out\n        /* \"Campaign.sol\":2017:2107  function getManager() external view returns (address)... */\n    tag_65:\n        /* \"Campaign.sol\":2062:2069  address */\n      0x00\n        /* \"Campaign.sol\":2092:2100  _manager */\n      0x01\n      0x00\n      swap1\n      sload\n      swap1\n      0x0100\n      exp\n      swap1\n      div\n      0xffffffffffffffffffffffffffffffffffffffff\n      and\n        /* \"Campaign.sol\":2085:2100  return _manager */\n      swap1\n      pop\n        /* \"Campaign.sol\":2017:2107  function getManager() external view returns (address)... */\n      swap1\n      jump\t// out\n        /* \"Campaign.sol\":3127:3360  function contribute() public payable{... */\n    tag_69:\n        /* \"Campaign.sol\":3204:3224  _minimumContribution */\n      sload(0x04)\n        /* \"Campaign.sol\":3193:3200  1 ether */\n      0x0de0b6b3a7640000\n        /* \"Campaign.sol\":3181:3190  msg.value */\n      callvalue\n        /* \"Campaign.sol\":3181:3200  msg.value / 1 ether */\n      tag_140\n      swap2\n      swap1\n      tag_121\n      jump\t// in\n    tag_140:\n        /* \"Campaign.sol\":3181:3224  msg.value / 1 ether >= _minimumContribution */\n      lt\n      iszero\n        /* \"Campaign.sol\":3173:3225  require(msg.value / 1 ether >= _minimumContribution) */\n      tag_141\n      jumpi\n      0x00\n      dup1\n      revert\n    tag_141:\n        /* \"Campaign.sol\":3268:3269  0 */\n      0x00\n        /* \"Campaign.sol\":3243:3252  approvers */\n      0x02\n        /* \"Campaign.sol\":3243:3264  approvers[msg.sender] */\n      0x00\n        /* \"Campaign.sol\":3253:3263  msg.sender */\n      caller\n        /* \"Campaign.sol\":3243:3264  approvers[msg.sender] */\n      0xffffffffffffffffffffffffffffffffffffffff\n      and\n      0xffffffffffffffffffffffffffffffffffffffff\n      and\n      dup2\n      mstore\n      0x20\n      add\n      swap1\n      dup2\n      mstore\n      0x20\n      add\n      0x00\n      keccak256\n      sload\n        /* \"Campaign.sol\":3243:3269  approvers[msg.sender] == 0 */\n      eq\n        /* \"Campaign.sol\":3235:3270  require(approvers[msg.sender] == 0) */\n      tag_142\n      jumpi\n      0x00\n      dup1\n      revert\n    tag_142:\n        /* \"Campaign.sol\":3317:3324  1 ether */\n      0x0de0b6b3a7640000\n        /* \"Campaign.sol\":3305:3314  msg.value */\n      callvalue\n        /* \"Campaign.sol\":3305:3324  msg.value / 1 ether */\n      tag_143\n      swap2\n      swap1\n      tag_121\n      jump\t// in\n    tag_143:\n        /* \"Campaign.sol\":3280:3289  approvers */\n      0x02\n        /* \"Campaign.sol\":3280:3301  approvers[msg.sender] */\n      0x00\n        /* \"Campaign.sol\":3290:3300  msg.sender */\n      caller\n        /* \"Campaign.sol\":3280:3301  approvers[msg.sender] */\n      0xffffffffffffffffffffffffffffffffffffffff\n      and\n      0xffffffffffffffffffffffffffffffffffffffff\n      and\n      dup2\n      mstore\n      0x20\n      add\n      swap1\n      dup2\n      mstore\n      0x20\n      add\n      0x00\n      keccak256\n        /* \"Campaign.sol\":3280:3325  approvers[msg.sender] = (msg.value / 1 ether) */\n      dup2\n      swap1\n      sstore\n      pop\n        /* \"Campaign.sol\":3335:3350  _approversCount */\n      0x03\n      0x00\n        /* \"Campaign.sol\":3335:3352  _approversCount++ */\n      dup2\n      sload\n      dup1\n      swap3\n      swap2\n      swap1\n      tag_144\n      swap1\n      tag_99\n      jump\t// in\n    tag_144:\n      swap2\n      swap1\n      pop\n      sstore\n      pop\n        /* \"Campaign.sol\":3127:3360  function contribute() public payable{... */\n      jump\t// out\n        /* \"Campaign.sol\":4892:5321  function submitRequest(string memory reqName) restricted external {... */\n    tag_73:\n        /* \"Campaign.sol\":5381:5389  _manager */\n      0x01\n      0x00\n      swap1\n      sload\n      swap1\n      0x0100\n      exp\n      swap1\n      div\n      0xffffffffffffffffffffffffffffffffffffffff\n      and\n        /* \"Campaign.sol\":5367:5389  msg.sender == _manager */\n      0xffffffffffffffffffffffffffffffffffffffff\n      and\n        /* \"Campaign.sol\":5367:5377  msg.sender */\n      caller\n        /* \"Campaign.sol\":5367:5389  msg.sender == _manager */\n      0xffffffffffffffffffffffffffffffffffffffff\n      and\n      eq\n        /* \"Campaign.sol\":5359:5390  require(msg.sender == _manager) */\n      tag_146\n      jumpi\n      0x00\n      dup1\n      revert\n    tag_146:\n        /* \"Campaign.sol\":4968:4987  Request storage req */\n      0x00\n        /* \"Campaign.sol\":4990:4998  requests */\n      0x05\n        /* \"Campaign.sol\":4999:5006  reqName */\n      dup3\n        /* \"Campaign.sol\":4990:5007  requests[reqName] */\n      mload(0x40)\n      tag_148\n      swap2\n      swap1\n      tag_88\n      jump\t// in\n    tag_148:\n      swap1\n      dup2\n      mstore\n      0x20\n      add\n      mload(0x40)\n      dup1\n      swap2\n      sub\n      swap1\n      keccak256\n        /* \"Campaign.sol\":4968:5007  Request storage req = requests[reqName] */\n      swap1\n      pop\n        /* \"Campaign.sol\":5050:5051  0 */\n      0x00\n        /* \"Campaign.sol\":5031:5034  req */\n      dup2\n        /* \"Campaign.sol\":5031:5039  req.name */\n      0x00\n      add\n        /* \"Campaign.sol\":5025:5047  bytes(req.name).length */\n      dup1\n      sload\n      tag_149\n      swap1\n      tag_80\n      jump\t// in\n    tag_149:\n      swap1\n      pop\n        /* \"Campaign.sol\":5025:5051  bytes(req.name).length > 0 */\n      gt\n        /* \"Campaign.sol\":5017:5052  require(bytes(req.name).length > 0) */\n      tag_150\n      jumpi\n      0x00\n      dup1\n      revert\n    tag_150:\n        /* \"Campaign.sol\":5102:5109  reqName */\n      dup2\n        /* \"Campaign.sol\":5096:5117  bytes(reqName).length */\n      mload\n        /* \"Campaign.sol\":5076:5079  req */\n      dup2\n        /* \"Campaign.sol\":5076:5084  req.name */\n      0x00\n      add\n        /* \"Campaign.sol\":5070:5092  bytes(req.name).length */\n      dup1\n      sload\n      tag_151\n      swap1\n      tag_80\n      jump\t// in\n    tag_151:\n      swap1\n      pop\n        /* \"Campaign.sol\":5070:5117  bytes(req.name).length == bytes(reqName).length */\n      eq\n        /* \"Campaign.sol\":5062:5118  require(bytes(req.name).length == bytes(reqName).length) */\n      tag_152\n      jumpi\n      0x00\n      dup1\n      revert\n    tag_152:\n        /* \"Campaign.sol\":5136:5139  req */\n      dup1\n        /* \"Campaign.sol\":5136:5149  req.canSubmit */\n      0x06\n      add\n      0x00\n      swap1\n      sload\n      swap1\n      0x0100\n      exp\n      swap1\n      div\n      0xff\n      and\n        /* \"Campaign.sol\":5136:5166  req.canSubmit && !req.complete */\n      dup1\n      iszero\n      tag_153\n      jumpi\n      pop\n        /* \"Campaign.sol\":5154:5157  req */\n      dup1\n        /* \"Campaign.sol\":5154:5166  req.complete */\n      0x06\n      add\n      0x01\n      swap1\n      sload\n      swap1\n      0x0100\n      exp\n      swap1\n      div\n      0xff\n      and\n        /* \"Campaign.sol\":5153:5166  !req.complete */\n      iszero\n        /* \"Campaign.sol\":5136:5166  req.canSubmit && !req.complete */\n    tag_153:\n        /* \"Campaign.sol\":5128:5167  require(req.canSubmit && !req.complete) */\n      tag_154\n      jumpi\n      0x00\n      dup1\n      revert\n    tag_154:\n        /* \"Campaign.sol\":5220:5223  req */\n      dup1\n        /* \"Campaign.sol\":5220:5230  req.amount */\n      0x02\n      add\n      sload\n        /* \"Campaign.sol\":5209:5216  1 ether */\n      0x0de0b6b3a7640000\n        /* \"Campaign.sol\":5185:5206  address(this).balance */\n      selfbalance\n        /* \"Campaign.sol\":5185:5216  address(this).balance / 1 ether */\n      tag_155\n      swap2\n      swap1\n      tag_121\n      jump\t// in\n    tag_155:\n        /* \"Campaign.sol\":5185:5230  address(this).balance / 1 ether >= req.amount */\n      lt\n      iszero\n        /* \"Campaign.sol\":5177:5231  require(address(this).balance / 1 ether >= req.amount) */\n      tag_156\n      jumpi\n      0x00\n      dup1\n      revert\n    tag_156:\n        /* \"Campaign.sol\":5241:5244  req */\n      dup1\n        /* \"Campaign.sol\":5241:5253  req.receiver */\n      0x03\n      add\n      0x00\n      swap1\n      sload\n      swap1\n      0x0100\n      exp\n      swap1\n      div\n      0xffffffffffffffffffffffffffffffffffffffff\n      and\n        /* \"Campaign.sol\":5241:5262  req.receiver.transfer */\n      0xffffffffffffffffffffffffffffffffffffffff\n      and\n        /* \"Campaign.sol\":5241:5284  req.receiver.transfer(req.amount * 1 ether) */\n      0x08fc\n        /* \"Campaign.sol\":5276:5283  1 ether */\n      0x0de0b6b3a7640000\n        /* \"Campaign.sol\":5263:5266  req */\n      dup4\n        /* \"Campaign.sol\":5263:5273  req.amount */\n      0x02\n      add\n      sload\n        /* \"Campaign.sol\":5263:5283  req.amount * 1 ether */\n      tag_157\n      swap2\n      swap1\n      tag_158\n      jump\t// in\n    tag_157:\n        /* \"Campaign.sol\":5241:5284  req.receiver.transfer(req.amount * 1 ether) */\n      swap1\n      dup2\n      iszero\n      mul\n      swap1\n      mload(0x40)\n      0x00\n      mload(0x40)\n      dup1\n      dup4\n      sub\n      dup2\n      dup6\n      dup9\n      dup9\n      call\n      swap4\n      pop\n      pop\n      pop\n      pop\n      iszero\n      dup1\n      iszero\n      tag_160\n      jumpi\n      returndatasize\n      0x00\n      dup1\n      returndatacopy\n      revert(0x00, returndatasize)\n    tag_160:\n      pop\n        /* \"Campaign.sol\":5310:5314  true */\n      0x01\n        /* \"Campaign.sol\":5295:5298  req */\n      dup2\n        /* \"Campaign.sol\":5295:5307  req.complete */\n      0x06\n      add\n      0x01\n        /* \"Campaign.sol\":5295:5314  req.complete = true */\n      0x0100\n      exp\n      dup2\n      sload\n      dup2\n      0xff\n      mul\n      not\n      and\n      swap1\n      dup4\n      iszero\n      iszero\n      mul\n      or\n      swap1\n      sstore\n      pop\n        /* \"Campaign.sol\":4958:5321  {... */\n      pop\n        /* \"Campaign.sol\":4892:5321  function submitRequest(string memory reqName) restricted external {... */\n      pop\n      jump\t// out\n        /* \"Campaign.sol\":2320:2425  function getMinimumContribution() external view returns(uint){... */\n    tag_76:\n        /* \"Campaign.sol\":2376:2380  uint */\n      0x00\n        /* \"Campaign.sol\":2398:2418  _minimumContribution */\n      sload(0x04)\n        /* \"Campaign.sol\":2391:2418  return _minimumContribution */\n      swap1\n      pop\n        /* \"Campaign.sol\":2320:2425  function getMinimumContribution() external view returns(uint){... */\n      swap1\n      jump\t// out\n    tag_102:\n      mload(0x40)\n      dup1\n      0xa0\n      add\n      0x40\n      mstore\n      dup1\n      and(0xffffffffffffffffffffffffffffffffffffffff, 0x00)\n      dup2\n      mstore\n      0x20\n      add\n      0x60\n      dup2\n      mstore\n      0x20\n      add\n      0x00\n      dup2\n      mstore\n      0x20\n      add\n      0x00\n      dup2\n      mstore\n      0x20\n      add\n      0x00\n      dup2\n      mstore\n      pop\n      swap1\n      jump\t// out\n        /* \"#utility.yul\":7:82   */\n    tag_162:\n        /* \"#utility.yul\":40:46   */\n      0x00\n        /* \"#utility.yul\":73:75   */\n      0x40\n        /* \"#utility.yul\":67:76   */\n      mload\n        /* \"#utility.yul\":57:76   */\n      swap1\n      pop\n        /* \"#utility.yul\":7:82   */\n      swap1\n      jump\t// out\n        /* \"#utility.yul\":88:205   */\n    tag_163:\n        /* \"#utility.yul\":197:198   */\n      0x00\n        /* \"#utility.yul\":194:195   */\n      dup1\n        /* \"#utility.yul\":187:199   */\n      revert\n        /* \"#utility.yul\":211:328   */\n    tag_164:\n        /* \"#utility.yul\":320:321   */\n      0x00\n        /* \"#utility.yul\":317:318   */\n      dup1\n        /* \"#utility.yul\":310:322   */\n      revert\n        /* \"#utility.yul\":334:460   */\n    tag_165:\n        /* \"#utility.yul\":371:378   */\n      0x00\n        /* \"#utility.yul\":411:453   */\n      0xffffffffffffffffffffffffffffffffffffffff\n        /* \"#utility.yul\":404:409   */\n      dup3\n        /* \"#utility.yul\":400:454   */\n      and\n        /* \"#utility.yul\":389:454   */\n      swap1\n      pop\n        /* \"#utility.yul\":334:460   */\n      swap2\n      swap1\n      pop\n      jump\t// out\n        /* \"#utility.yul\":466:562   */\n    tag_166:\n        /* \"#utility.yul\":503:510   */\n      0x00\n        /* \"#utility.yul\":532:556   */\n      tag_227\n        /* \"#utility.yul\":550:555   */\n      dup3\n        /* \"#utility.yul\":532:556   */\n      tag_165\n      jump\t// in\n    tag_227:\n        /* \"#utility.yul\":521:556   */\n      swap1\n      pop\n        /* \"#utility.yul\":466:562   */\n      swap2\n      swap1\n      pop\n      jump\t// out\n        /* \"#utility.yul\":568:690   */\n    tag_167:\n        /* \"#utility.yul\":641:665   */\n      tag_229\n        /* \"#utility.yul\":659:664   */\n      dup2\n        /* \"#utility.yul\":641:665   */\n      tag_166\n      jump\t// in\n    tag_229:\n        /* \"#utility.yul\":634:639   */\n      dup2\n        /* \"#utility.yul\":631:666   */\n      eq\n        /* \"#utility.yul\":621:684   */\n      tag_230\n      jumpi\n        /* \"#utility.yul\":680:681   */\n      0x00\n        /* \"#utility.yul\":677:678   */\n      dup1\n        /* \"#utility.yul\":670:682   */\n      revert\n        /* \"#utility.yul\":621:684   */\n    tag_230:\n        /* \"#utility.yul\":568:690   */\n      pop\n      jump\t// out\n        /* \"#utility.yul\":696:835   */\n    tag_168:\n        /* \"#utility.yul\":742:747   */\n      0x00\n        /* \"#utility.yul\":780:786   */\n      dup2\n        /* \"#utility.yul\":767:787   */\n      calldataload\n        /* \"#utility.yul\":758:787   */\n      swap1\n      pop\n        /* \"#utility.yul\":796:829   */\n      tag_232\n        /* \"#utility.yul\":823:828   */\n      dup2\n        /* \"#utility.yul\":796:829   */\n      tag_167\n      jump\t// in\n    tag_232:\n        /* \"#utility.yul\":696:835   */\n      swap3\n      swap2\n      pop\n      pop\n      jump\t// out\n        /* \"#utility.yul\":841:1170   */\n    tag_20:\n        /* \"#utility.yul\":900:906   */\n      0x00\n        /* \"#utility.yul\":949:951   */\n      0x20\n        /* \"#utility.yul\":937:946   */\n      dup3\n        /* \"#utility.yul\":928:935   */\n      dup5\n        /* \"#utility.yul\":924:947   */\n      sub\n        /* \"#utility.yul\":920:952   */\n      slt\n        /* \"#utility.yul\":917:1036   */\n      iszero\n      tag_234\n      jumpi\n        /* \"#utility.yul\":955:1034   */\n      tag_235\n      tag_163\n      jump\t// in\n    tag_235:\n        /* \"#utility.yul\":917:1036   */\n    tag_234:\n        /* \"#utility.yul\":1075:1076   */\n      0x00\n        /* \"#utility.yul\":1100:1153   */\n      tag_236\n        /* \"#utility.yul\":1145:1152   */\n      dup5\n        /* \"#utility.yul\":1136:1142   */\n      dup3\n        /* \"#utility.yul\":1125:1134   */\n      dup6\n        /* \"#utility.yul\":1121:1143   */\n      add\n        /* \"#utility.yul\":1100:1153   */\n      tag_168\n      jump\t// in\n    tag_236:\n        /* \"#utility.yul\":1090:1153   */\n      swap2\n      pop\n        /* \"#utility.yul\":1046:1163   */\n      pop\n        /* \"#utility.yul\":841:1170   */\n      swap3\n      swap2\n      pop\n      pop\n      jump\t// out\n        /* \"#utility.yul\":1176:1253   */\n    tag_169:\n        /* \"#utility.yul\":1213:1220   */\n      0x00\n        /* \"#utility.yul\":1242:1247   */\n      dup2\n        /* \"#utility.yul\":1231:1247   */\n      swap1\n      pop\n        /* \"#utility.yul\":1176:1253   */\n      swap2\n      swap1\n      pop\n      jump\t// out\n        /* \"#utility.yul\":1259:1377   */\n    tag_170:\n        /* \"#utility.yul\":1346:1370   */\n      tag_239\n        /* \"#utility.yul\":1364:1369   */\n      dup2\n        /* \"#utility.yul\":1346:1370   */\n      tag_169\n      jump\t// in\n    tag_239:\n        /* \"#utility.yul\":1341:1344   */\n      dup3\n        /* \"#utility.yul\":1334:1371   */\n      mstore\n        /* \"#utility.yul\":1259:1377   */\n      pop\n      pop\n      jump\t// out\n        /* \"#utility.yul\":1383:1605   */\n    tag_23:\n        /* \"#utility.yul\":1476:1480   */\n      0x00\n        /* \"#utility.yul\":1514:1516   */\n      0x20\n        /* \"#utility.yul\":1503:1512   */\n      dup3\n        /* \"#utility.yul\":1499:1517   */\n      add\n        /* \"#utility.yul\":1491:1517   */\n      swap1\n      pop\n        /* \"#utility.yul\":1527:1598   */\n      tag_241\n        /* \"#utility.yul\":1595:1596   */\n      0x00\n        /* \"#utility.yul\":1584:1593   */\n      dup4\n        /* \"#utility.yul\":1580:1597   */\n      add\n        /* \"#utility.yul\":1571:1577   */\n      dup5\n        /* \"#utility.yul\":1527:1598   */\n      tag_170\n      jump\t// in\n    tag_241:\n        /* \"#utility.yul\":1383:1605   */\n      swap3\n      swap2\n      pop\n      pop\n      jump\t// out\n        /* \"#utility.yul\":1611:1710   */\n    tag_171:\n        /* \"#utility.yul\":1663:1669   */\n      0x00\n        /* \"#utility.yul\":1697:1702   */\n      dup2\n        /* \"#utility.yul\":1691:1703   */\n      mload\n        /* \"#utility.yul\":1681:1703   */\n      swap1\n      pop\n        /* \"#utility.yul\":1611:1710   */\n      swap2\n      swap1\n      pop\n      jump\t// out\n        /* \"#utility.yul\":1716:1885   */\n    tag_172:\n        /* \"#utility.yul\":1800:1811   */\n      0x00\n        /* \"#utility.yul\":1834:1840   */\n      dup3\n        /* \"#utility.yul\":1829:1832   */\n      dup3\n        /* \"#utility.yul\":1822:1841   */\n      mstore\n        /* \"#utility.yul\":1874:1878   */\n      0x20\n        /* \"#utility.yul\":1869:1872   */\n      dup3\n        /* \"#utility.yul\":1865:1879   */\n      add\n        /* \"#utility.yul\":1850:1879   */\n      swap1\n      pop\n        /* \"#utility.yul\":1716:1885   */\n      swap3\n      swap2\n      pop\n      pop\n      jump\t// out\n        /* \"#utility.yul\":1891:2137   */\n    tag_173:\n        /* \"#utility.yul\":1972:1973   */\n      0x00\n        /* \"#utility.yul\":1982:2095   */\n    tag_245:\n        /* \"#utility.yul\":1996:2002   */\n      dup4\n        /* \"#utility.yul\":1993:1994   */\n      dup2\n        /* \"#utility.yul\":1990:2003   */\n      lt\n        /* \"#utility.yul\":1982:2095   */\n      iszero\n      tag_247\n      jumpi\n        /* \"#utility.yul\":2081:2082   */\n      dup1\n        /* \"#utility.yul\":2076:2079   */\n      dup3\n        /* \"#utility.yul\":2072:2083   */\n      add\n        /* \"#utility.yul\":2066:2084   */\n      mload\n        /* \"#utility.yul\":2062:2063   */\n      dup2\n        /* \"#utility.yul\":2057:2060   */\n      dup5\n        /* \"#utility.yul\":2053:2064   */\n      add\n        /* \"#utility.yul\":2046:2085   */\n      mstore\n        /* \"#utility.yul\":2018:2020   */\n      0x20\n        /* \"#utility.yul\":2015:2016   */\n      dup2\n        /* \"#utility.yul\":2011:2021   */\n      add\n        /* \"#utility.yul\":2006:2021   */\n      swap1\n      pop\n        /* \"#utility.yul\":1982:2095   */\n      jump(tag_245)\n    tag_247:\n        /* \"#utility.yul\":2129:2130   */\n      0x00\n        /* \"#utility.yul\":2120:2126   */\n      dup5\n        /* \"#utility.yul\":2115:2118   */\n      dup5\n        /* \"#utility.yul\":2111:2127   */\n      add\n        /* \"#utility.yul\":2104:2131   */\n      mstore\n        /* \"#utility.yul\":1953:2137   */\n      pop\n        /* \"#utility.yul\":1891:2137   */\n      pop\n      pop\n      pop\n      jump\t// out\n        /* \"#utility.yul\":2143:2245   */\n    tag_174:\n        /* \"#utility.yul\":2184:2190   */\n      0x00\n        /* \"#utility.yul\":2235:2237   */\n      0x1f\n        /* \"#utility.yul\":2231:2238   */\n      not\n        /* \"#utility.yul\":2226:2228   */\n      0x1f\n        /* \"#utility.yul\":2219:2224   */\n      dup4\n        /* \"#utility.yul\":2215:2229   */\n      add\n        /* \"#utility.yul\":2211:2239   */\n      and\n        /* \"#utility.yul\":2201:2239   */\n      swap1\n      pop\n        /* \"#utility.yul\":2143:2245   */\n      swap2\n      swap1\n      pop\n      jump\t// out\n        /* \"#utility.yul\":2251:2628   */\n    tag_175:\n        /* \"#utility.yul\":2339:2342   */\n      0x00\n        /* \"#utility.yul\":2367:2406   */\n      tag_250\n        /* \"#utility.yul\":2400:2405   */\n      dup3\n        /* \"#utility.yul\":2367:2406   */\n      tag_171\n      jump\t// in\n    tag_250:\n        /* \"#utility.yul\":2422:2493   */\n      tag_251\n        /* \"#utility.yul\":2486:2492   */\n      dup2\n        /* \"#utility.yul\":2481:2484   */\n      dup6\n        /* \"#utility.yul\":2422:2493   */\n      tag_172\n      jump\t// in\n    tag_251:\n        /* \"#utility.yul\":2415:2493   */\n      swap4\n      pop\n        /* \"#utility.yul\":2502:2567   */\n      tag_252\n        /* \"#utility.yul\":2560:2566   */\n      dup2\n        /* \"#utility.yul\":2555:2558   */\n      dup6\n        /* \"#utility.yul\":2548:2552   */\n      0x20\n        /* \"#utility.yul\":2541:2546   */\n      dup7\n        /* \"#utility.yul\":2537:2553   */\n      add\n        /* \"#utility.yul\":2502:2567   */\n      tag_173\n      jump\t// in\n    tag_252:\n        /* \"#utility.yul\":2592:2621   */\n      tag_253\n        /* \"#utility.yul\":2614:2620   */\n      dup2\n        /* \"#utility.yul\":2592:2621   */\n      tag_174\n      jump\t// in\n    tag_253:\n        /* \"#utility.yul\":2587:2590   */\n      dup5\n        /* \"#utility.yul\":2583:2622   */\n      add\n        /* \"#utility.yul\":2576:2622   */\n      swap2\n      pop\n        /* \"#utility.yul\":2343:2628   */\n      pop\n        /* \"#utility.yul\":2251:2628   */\n      swap3\n      swap2\n      pop\n      pop\n      jump\t// out\n        /* \"#utility.yul\":2634:2947   */\n    tag_28:\n        /* \"#utility.yul\":2747:2751   */\n      0x00\n        /* \"#utility.yul\":2785:2787   */\n      0x20\n        /* \"#utility.yul\":2774:2783   */\n      dup3\n        /* \"#utility.yul\":2770:2788   */\n      add\n        /* \"#utility.yul\":2762:2788   */\n      swap1\n      pop\n        /* \"#utility.yul\":2834:2843   */\n      dup2\n        /* \"#utility.yul\":2828:2832   */\n      dup2\n        /* \"#utility.yul\":2824:2844   */\n      sub\n        /* \"#utility.yul\":2820:2821   */\n      0x00\n        /* \"#utility.yul\":2809:2818   */\n      dup4\n        /* \"#utility.yul\":2805:2822   */\n      add\n        /* \"#utility.yul\":2798:2845   */\n      mstore\n        /* \"#utility.yul\":2862:2940   */\n      tag_255\n        /* \"#utility.yul\":2935:2939   */\n      dup2\n        /* \"#utility.yul\":2926:2932   */\n      dup5\n        /* \"#utility.yul\":2862:2940   */\n      tag_175\n      jump\t// in\n    tag_255:\n        /* \"#utility.yul\":2854:2940   */\n      swap1\n      pop\n        /* \"#utility.yul\":2634:2947   */\n      swap3\n      swap2\n      pop\n      pop\n      jump\t// out\n        /* \"#utility.yul\":2953:3070   */\n    tag_176:\n        /* \"#utility.yul\":3062:3063   */\n      0x00\n        /* \"#utility.yul\":3059:3060   */\n      dup1\n        /* \"#utility.yul\":3052:3064   */\n      revert\n        /* \"#utility.yul\":3076:3193   */\n    tag_177:\n        /* \"#utility.yul\":3185:3186   */\n      0x00\n        /* \"#utility.yul\":3182:3183   */\n      dup1\n        /* \"#utility.yul\":3175:3187   */\n      revert\n        /* \"#utility.yul\":3199:3379   */\n    tag_178:\n        /* \"#utility.yul\":3247:3324   */\n      0x4e487b7100000000000000000000000000000000000000000000000000000000\n        /* \"#utility.yul\":3244:3245   */\n      0x00\n        /* \"#utility.yul\":3237:3325   */\n      mstore\n        /* \"#utility.yul\":3344:3348   */\n      0x41\n        /* \"#utility.yul\":3341:3342   */\n      0x04\n        /* \"#utility.yul\":3334:3349   */\n      mstore\n        /* \"#utility.yul\":3368:3372   */\n      0x24\n        /* \"#utility.yul\":3365:3366   */\n      0x00\n        /* \"#utility.yul\":3358:3373   */\n      revert\n        /* \"#utility.yul\":3385:3666   */\n    tag_179:\n        /* \"#utility.yul\":3468:3495   */\n      tag_260\n        /* \"#utility.yul\":3490:3494   */\n      dup3\n        /* \"#utility.yul\":3468:3495   */\n      tag_174\n      jump\t// in\n    tag_260:\n        /* \"#utility.yul\":3460:3466   */\n      dup2\n        /* \"#utility.yul\":3456:3496   */\n      add\n        /* \"#utility.yul\":3598:3604   */\n      dup2\n        /* \"#utility.yul\":3586:3596   */\n      dup2\n        /* \"#utility.yul\":3583:3605   */\n      lt\n        /* \"#utility.yul\":3562:3580   */\n      0xffffffffffffffff\n        /* \"#utility.yul\":3550:3560   */\n      dup3\n        /* \"#utility.yul\":3547:3581   */\n      gt\n        /* \"#utility.yul\":3544:3606   */\n      or\n        /* \"#utility.yul\":3541:3629   */\n      iszero\n      tag_261\n      jumpi\n        /* \"#utility.yul\":3609:3627   */\n      tag_262\n      tag_178\n      jump\t// in\n    tag_262:\n        /* \"#utility.yul\":3541:3629   */\n    tag_261:\n        /* \"#utility.yul\":3649:3659   */\n      dup1\n        /* \"#utility.yul\":3645:3647   */\n      0x40\n        /* \"#utility.yul\":3638:3660   */\n      mstore\n        /* \"#utility.yul\":3428:3666   */\n      pop\n        /* \"#utility.yul\":3385:3666   */\n      pop\n      pop\n      jump\t// out\n        /* \"#utility.yul\":3672:3801   */\n    tag_180:\n        /* \"#utility.yul\":3706:3712   */\n      0x00\n        /* \"#utility.yul\":3733:3753   */\n      tag_264\n      tag_162\n      jump\t// in\n    tag_264:\n        /* \"#utility.yul\":3723:3753   */\n      swap1\n      pop\n        /* \"#utility.yul\":3762:3795   */\n      tag_265\n        /* \"#utility.yul\":3790:3794   */\n      dup3\n        /* \"#utility.yul\":3782:3788   */\n      dup3\n        /* \"#utility.yul\":3762:3795   */\n      tag_179\n      jump\t// in\n    tag_265:\n        /* \"#utility.yul\":3672:3801   */\n      swap2\n      swap1\n      pop\n      jump\t// out\n        /* \"#utility.yul\":3807:4115   */\n    tag_181:\n        /* \"#utility.yul\":3869:3873   */\n      0x00\n        /* \"#utility.yul\":3959:3977   */\n      0xffffffffffffffff\n        /* \"#utility.yul\":3951:3957   */\n      dup3\n        /* \"#utility.yul\":3948:3978   */\n      gt\n        /* \"#utility.yul\":3945:4001   */\n      iszero\n      tag_267\n      jumpi\n        /* \"#utility.yul\":3981:3999   */\n      tag_268\n      tag_178\n      jump\t// in\n    tag_268:\n        /* \"#utility.yul\":3945:4001   */\n    tag_267:\n        /* \"#utility.yul\":4019:4048   */\n      tag_269\n        /* \"#utility.yul\":4041:4047   */\n      dup3\n        /* \"#utility.yul\":4019:4048   */\n      tag_174\n      jump\t// in\n    tag_269:\n        /* \"#utility.yul\":4011:4048   */\n      swap1\n      pop\n        /* \"#utility.yul\":4103:4107   */\n      0x20\n        /* \"#utility.yul\":4097:4101   */\n      dup2\n        /* \"#utility.yul\":4093:4108   */\n      add\n        /* \"#utility.yul\":4085:4108   */\n      swap1\n      pop\n        /* \"#utility.yul\":3807:4115   */\n      swap2\n      swap1\n      pop\n      jump\t// out\n        /* \"#utility.yul\":4121:4267   */\n    tag_182:\n        /* \"#utility.yul\":4218:4224   */\n      dup3\n        /* \"#utility.yul\":4213:4216   */\n      dup2\n        /* \"#utility.yul\":4208:4211   */\n      dup4\n        /* \"#utility.yul\":4195:4225   */\n      calldatacopy\n        /* \"#utility.yul\":4259:4260   */\n      0x00\n        /* \"#utility.yul\":4250:4256   */\n      dup4\n        /* \"#utility.yul\":4245:4248   */\n      dup4\n        /* \"#utility.yul\":4241:4257   */\n      add\n        /* \"#utility.yul\":4234:4261   */\n      mstore\n        /* \"#utility.yul\":4121:4267   */\n      pop\n      pop\n      pop\n      jump\t// out\n        /* \"#utility.yul\":4273:4698   */\n    tag_183:\n        /* \"#utility.yul\":4351:4356   */\n      0x00\n        /* \"#utility.yul\":4376:4442   */\n      tag_272\n        /* \"#utility.yul\":4392:4441   */\n      tag_273\n        /* \"#utility.yul\":4434:4440   */\n      dup5\n        /* \"#utility.yul\":4392:4441   */\n      tag_181\n      jump\t// in\n    tag_273:\n        /* \"#utility.yul\":4376:4442   */\n      tag_180\n      jump\t// in\n    tag_272:\n        /* \"#utility.yul\":4367:4442   */\n      swap1\n      pop\n        /* \"#utility.yul\":4465:4471   */\n      dup3\n        /* \"#utility.yul\":4458:4463   */\n      dup2\n        /* \"#utility.yul\":4451:4472   */\n      mstore\n        /* \"#utility.yul\":4503:4507   */\n      0x20\n        /* \"#utility.yul\":4496:4501   */\n      dup2\n        /* \"#utility.yul\":4492:4508   */\n      add\n        /* \"#utility.yul\":4541:4544   */\n      dup5\n        /* \"#utility.yul\":4532:4538   */\n      dup5\n        /* \"#utility.yul\":4527:4530   */\n      dup5\n        /* \"#utility.yul\":4523:4539   */\n      add\n        /* \"#utility.yul\":4520:4545   */\n      gt\n        /* \"#utility.yul\":4517:4629   */\n      iszero\n      tag_274\n      jumpi\n        /* \"#utility.yul\":4548:4627   */\n      tag_275\n      tag_177\n      jump\t// in\n    tag_275:\n        /* \"#utility.yul\":4517:4629   */\n    tag_274:\n        /* \"#utility.yul\":4638:4692   */\n      tag_276\n        /* \"#utility.yul\":4685:4691   */\n      dup5\n        /* \"#utility.yul\":4680:4683   */\n      dup3\n        /* \"#utility.yul\":4675:4678   */\n      dup6\n        /* \"#utility.yul\":4638:4692   */\n      tag_182\n      jump\t// in\n    tag_276:\n        /* \"#utility.yul\":4357:4698   */\n      pop\n        /* \"#utility.yul\":4273:4698   */\n      swap4\n      swap3\n      pop\n      pop\n      pop\n      jump\t// out\n        /* \"#utility.yul\":4718:5058   */\n    tag_184:\n        /* \"#utility.yul\":4774:4779   */\n      0x00\n        /* \"#utility.yul\":4823:4826   */\n      dup3\n        /* \"#utility.yul\":4816:4820   */\n      0x1f\n        /* \"#utility.yul\":4808:4814   */\n      dup4\n        /* \"#utility.yul\":4804:4821   */\n      add\n        /* \"#utility.yul\":4800:4827   */\n      slt\n        /* \"#utility.yul\":4790:4912   */\n      tag_278\n      jumpi\n        /* \"#utility.yul\":4831:4910   */\n      tag_279\n      tag_176\n      jump\t// in\n    tag_279:\n        /* \"#utility.yul\":4790:4912   */\n    tag_278:\n        /* \"#utility.yul\":4948:4954   */\n      dup2\n        /* \"#utility.yul\":4935:4955   */\n      calldataload\n        /* \"#utility.yul\":4973:5052   */\n      tag_280\n        /* \"#utility.yul\":5048:5051   */\n      dup5\n        /* \"#utility.yul\":5040:5046   */\n      dup3\n        /* \"#utility.yul\":5033:5037   */\n      0x20\n        /* \"#utility.yul\":5025:5031   */\n      dup7\n        /* \"#utility.yul\":5021:5038   */\n      add\n        /* \"#utility.yul\":4973:5052   */\n      tag_183\n      jump\t// in\n    tag_280:\n        /* \"#utility.yul\":4964:5052   */\n      swap2\n      pop\n        /* \"#utility.yul\":4780:5058   */\n      pop\n        /* \"#utility.yul\":4718:5058   */\n      swap3\n      swap2\n      pop\n      pop\n      jump\t// out\n        /* \"#utility.yul\":5064:5154   */\n    tag_185:\n        /* \"#utility.yul\":5098:5105   */\n      0x00\n        /* \"#utility.yul\":5141:5146   */\n      dup2\n        /* \"#utility.yul\":5134:5147   */\n      iszero\n        /* \"#utility.yul\":5127:5148   */\n      iszero\n        /* \"#utility.yul\":5116:5148   */\n      swap1\n      pop\n        /* \"#utility.yul\":5064:5154   */\n      swap2\n      swap1\n      pop\n      jump\t// out\n        /* \"#utility.yul\":5160:5276   */\n    tag_186:\n        /* \"#utility.yul\":5230:5251   */\n      tag_283\n        /* \"#utility.yul\":5245:5250   */\n      dup2\n        /* \"#utility.yul\":5230:5251   */\n      tag_185\n      jump\t// in\n    tag_283:\n        /* \"#utility.yul\":5223:5228   */\n      dup2\n        /* \"#utility.yul\":5220:5252   */\n      eq\n        /* \"#utility.yul\":5210:5270   */\n      tag_284\n      jumpi\n        /* \"#utility.yul\":5266:5267   */\n      0x00\n        /* \"#utility.yul\":5263:5264   */\n      dup1\n        /* \"#utility.yul\":5256:5268   */\n      revert\n        /* \"#utility.yul\":5210:5270   */\n    tag_284:\n        /* \"#utility.yul\":5160:5276   */\n      pop\n      jump\t// out\n        /* \"#utility.yul\":5282:5415   */\n    tag_187:\n        /* \"#utility.yul\":5325:5330   */\n      0x00\n        /* \"#utility.yul\":5363:5369   */\n      dup2\n        /* \"#utility.yul\":5350:5370   */\n      calldataload\n        /* \"#utility.yul\":5341:5370   */\n      swap1\n      pop\n        /* \"#utility.yul\":5379:5409   */\n      tag_286\n        /* \"#utility.yul\":5403:5408   */\n      dup2\n        /* \"#utility.yul\":5379:5409   */\n      tag_186\n      jump\t// in\n    tag_286:\n        /* \"#utility.yul\":5282:5415   */\n      swap3\n      swap2\n      pop\n      pop\n      jump\t// out\n        /* \"#utility.yul\":5421:6069   */\n    tag_32:\n        /* \"#utility.yul\":5496:5502   */\n      0x00\n        /* \"#utility.yul\":5504:5510   */\n      dup1\n        /* \"#utility.yul\":5553:5555   */\n      0x40\n        /* \"#utility.yul\":5541:5550   */\n      dup4\n        /* \"#utility.yul\":5532:5539   */\n      dup6\n        /* \"#utility.yul\":5528:5551   */\n      sub\n        /* \"#utility.yul\":5524:5556   */\n      slt\n        /* \"#utility.yul\":5521:5640   */\n      iszero\n      tag_288\n      jumpi\n        /* \"#utility.yul\":5559:5638   */\n      tag_289\n      tag_163\n      jump\t// in\n    tag_289:\n        /* \"#utility.yul\":5521:5640   */\n    tag_288:\n        /* \"#utility.yul\":5707:5708   */\n      0x00\n        /* \"#utility.yul\":5696:5705   */\n      dup4\n        /* \"#utility.yul\":5692:5709   */\n      add\n        /* \"#utility.yul\":5679:5710   */\n      calldataload\n        /* \"#utility.yul\":5737:5755   */\n      0xffffffffffffffff\n        /* \"#utility.yul\":5729:5735   */\n      dup2\n        /* \"#utility.yul\":5726:5756   */\n      gt\n        /* \"#utility.yul\":5723:5840   */\n      iszero\n      tag_290\n      jumpi\n        /* \"#utility.yul\":5759:5838   */\n      tag_291\n      tag_164\n      jump\t// in\n    tag_291:\n        /* \"#utility.yul\":5723:5840   */\n    tag_290:\n        /* \"#utility.yul\":5864:5927   */\n      tag_292\n        /* \"#utility.yul\":5919:5926   */\n      dup6\n        /* \"#utility.yul\":5910:5916   */\n      dup3\n        /* \"#utility.yul\":5899:5908   */\n      dup7\n        /* \"#utility.yul\":5895:5917   */\n      add\n        /* \"#utility.yul\":5864:5927   */\n      tag_184\n      jump\t// in\n    tag_292:\n        /* \"#utility.yul\":5854:5927   */\n      swap3\n      pop\n        /* \"#utility.yul\":5650:5937   */\n      pop\n        /* \"#utility.yul\":5976:5978   */\n      0x20\n        /* \"#utility.yul\":6002:6052   */\n      tag_293\n        /* \"#utility.yul\":6044:6051   */\n      dup6\n        /* \"#utility.yul\":6035:6041   */\n      dup3\n        /* \"#utility.yul\":6024:6033   */\n      dup7\n        /* \"#utility.yul\":6020:6042   */\n      add\n        /* \"#utility.yul\":6002:6052   */\n      tag_187\n      jump\t// in\n    tag_293:\n        /* \"#utility.yul\":5992:6052   */\n      swap2\n      pop\n        /* \"#utility.yul\":5947:6062   */\n      pop\n        /* \"#utility.yul\":5421:6069   */\n      swap3\n      pop\n      swap3\n      swap1\n      pop\n      jump\t// out\n        /* \"#utility.yul\":6075:6183   */\n    tag_188:\n        /* \"#utility.yul\":6152:6176   */\n      tag_295\n        /* \"#utility.yul\":6170:6175   */\n      dup2\n        /* \"#utility.yul\":6152:6176   */\n      tag_166\n      jump\t// in\n    tag_295:\n        /* \"#utility.yul\":6147:6150   */\n      dup3\n        /* \"#utility.yul\":6140:6177   */\n      mstore\n        /* \"#utility.yul\":6075:6183   */\n      pop\n      pop\n      jump\t// out\n        /* \"#utility.yul\":6189:6348   */\n    tag_189:\n        /* \"#utility.yul\":6263:6274   */\n      0x00\n        /* \"#utility.yul\":6297:6303   */\n      dup3\n        /* \"#utility.yul\":6292:6295   */\n      dup3\n        /* \"#utility.yul\":6285:6304   */\n      mstore\n        /* \"#utility.yul\":6337:6341   */\n      0x20\n        /* \"#utility.yul\":6332:6335   */\n      dup3\n        /* \"#utility.yul\":6328:6342   */\n      add\n        /* \"#utility.yul\":6313:6342   */\n      swap1\n      pop\n        /* \"#utility.yul\":6189:6348   */\n      swap3\n      swap2\n      pop\n      pop\n      jump\t// out\n        /* \"#utility.yul\":6354:6711   */\n    tag_190:\n        /* \"#utility.yul\":6432:6435   */\n      0x00\n        /* \"#utility.yul\":6460:6499   */\n      tag_298\n        /* \"#utility.yul\":6493:6498   */\n      dup3\n        /* \"#utility.yul\":6460:6499   */\n      tag_171\n      jump\t// in\n    tag_298:\n        /* \"#utility.yul\":6515:6576   */\n      tag_299\n        /* \"#utility.yul\":6569:6575   */\n      dup2\n        /* \"#utility.yul\":6564:6567   */\n      dup6\n        /* \"#utility.yul\":6515:6576   */\n      tag_189\n      jump\t// in\n    tag_299:\n        /* \"#utility.yul\":6508:6576   */\n      swap4\n      pop\n        /* \"#utility.yul\":6585:6650   */\n      tag_300\n        /* \"#utility.yul\":6643:6649   */\n      dup2\n        /* \"#utility.yul\":6638:6641   */\n      dup6\n        /* \"#utility.yul\":6631:6635   */\n      0x20\n        /* \"#utility.yul\":6624:6629   */\n      dup7\n        /* \"#utility.yul\":6620:6636   */\n      add\n        /* \"#utility.yul\":6585:6650   */\n      tag_173\n      jump\t// in\n    tag_300:\n        /* \"#utility.yul\":6675:6704   */\n      tag_301\n        /* \"#utility.yul\":6697:6703   */\n      dup2\n        /* \"#utility.yul\":6675:6704   */\n      tag_174\n      jump\t// in\n    tag_301:\n        /* \"#utility.yul\":6670:6673   */\n      dup5\n        /* \"#utility.yul\":6666:6705   */\n      add\n        /* \"#utility.yul\":6659:6705   */\n      swap2\n      pop\n        /* \"#utility.yul\":6436:6711   */\n      pop\n        /* \"#utility.yul\":6354:6711   */\n      swap3\n      swap2\n      pop\n      pop\n      jump\t// out\n        /* \"#utility.yul\":6717:6825   */\n    tag_191:\n        /* \"#utility.yul\":6794:6818   */\n      tag_303\n        /* \"#utility.yul\":6812:6817   */\n      dup2\n        /* \"#utility.yul\":6794:6818   */\n      tag_169\n      jump\t// in\n    tag_303:\n        /* \"#utility.yul\":6789:6792   */\n      dup3\n        /* \"#utility.yul\":6782:6819   */\n      mstore\n        /* \"#utility.yul\":6717:6825   */\n      pop\n      pop\n      jump\t// out\n        /* \"#utility.yul\":6889:8047   */\n    tag_192:\n        /* \"#utility.yul\":7006:7009   */\n      0x00\n        /* \"#utility.yul\":7042:7046   */\n      0xa0\n        /* \"#utility.yul\":7037:7040   */\n      dup4\n        /* \"#utility.yul\":7033:7047   */\n      add\n        /* \"#utility.yul\":7132:7136   */\n      0x00\n        /* \"#utility.yul\":7125:7130   */\n      dup4\n        /* \"#utility.yul\":7121:7137   */\n      add\n        /* \"#utility.yul\":7115:7138   */\n      mload\n        /* \"#utility.yul\":7151:7214   */\n      tag_305\n        /* \"#utility.yul\":7208:7212   */\n      0x00\n        /* \"#utility.yul\":7203:7206   */\n      dup7\n        /* \"#utility.yul\":7199:7213   */\n      add\n        /* \"#utility.yul\":7185:7197   */\n      dup3\n        /* \"#utility.yul\":7151:7214   */\n      tag_188\n      jump\t// in\n    tag_305:\n        /* \"#utility.yul\":7057:7224   */\n      pop\n        /* \"#utility.yul\":7313:7317   */\n      0x20\n        /* \"#utility.yul\":7306:7311   */\n      dup4\n        /* \"#utility.yul\":7302:7318   */\n      add\n        /* \"#utility.yul\":7296:7319   */\n      mload\n        /* \"#utility.yul\":7366:7369   */\n      dup5\n        /* \"#utility.yul\":7360:7364   */\n      dup3\n        /* \"#utility.yul\":7356:7370   */\n      sub\n        /* \"#utility.yul\":7349:7353   */\n      0x20\n        /* \"#utility.yul\":7344:7347   */\n      dup7\n        /* \"#utility.yul\":7340:7354   */\n      add\n        /* \"#utility.yul\":7333:7371   */\n      mstore\n        /* \"#utility.yul\":7392:7465   */\n      tag_306\n        /* \"#utility.yul\":7460:7464   */\n      dup3\n        /* \"#utility.yul\":7446:7458   */\n      dup3\n        /* \"#utility.yul\":7392:7465   */\n      tag_190\n      jump\t// in\n    tag_306:\n        /* \"#utility.yul\":7384:7465   */\n      swap2\n      pop\n        /* \"#utility.yul\":7234:7476   */\n      pop\n        /* \"#utility.yul\":7569:7573   */\n      0x40\n        /* \"#utility.yul\":7562:7567   */\n      dup4\n        /* \"#utility.yul\":7558:7574   */\n      add\n        /* \"#utility.yul\":7552:7575   */\n      mload\n        /* \"#utility.yul\":7588:7651   */\n      tag_307\n        /* \"#utility.yul\":7645:7649   */\n      0x40\n        /* \"#utility.yul\":7640:7643   */\n      dup7\n        /* \"#utility.yul\":7636:7650   */\n      add\n        /* \"#utility.yul\":7622:7634   */\n      dup3\n        /* \"#utility.yul\":7588:7651   */\n      tag_191\n      jump\t// in\n    tag_307:\n        /* \"#utility.yul\":7486:7661   */\n      pop\n        /* \"#utility.yul\":7746:7750   */\n      0x60\n        /* \"#utility.yul\":7739:7744   */\n      dup4\n        /* \"#utility.yul\":7735:7751   */\n      add\n        /* \"#utility.yul\":7729:7752   */\n      mload\n        /* \"#utility.yul\":7765:7828   */\n      tag_308\n        /* \"#utility.yul\":7822:7826   */\n      0x60\n        /* \"#utility.yul\":7817:7820   */\n      dup7\n        /* \"#utility.yul\":7813:7827   */\n      add\n        /* \"#utility.yul\":7799:7811   */\n      dup3\n        /* \"#utility.yul\":7765:7828   */\n      tag_191\n      jump\t// in\n    tag_308:\n        /* \"#utility.yul\":7671:7838   */\n      pop\n        /* \"#utility.yul\":7928:7932   */\n      0x80\n        /* \"#utility.yul\":7921:7926   */\n      dup4\n        /* \"#utility.yul\":7917:7933   */\n      add\n        /* \"#utility.yul\":7911:7934   */\n      mload\n        /* \"#utility.yul\":7947:8010   */\n      tag_309\n        /* \"#utility.yul\":8004:8008   */\n      0x80\n        /* \"#utility.yul\":7999:8002   */\n      dup7\n        /* \"#utility.yul\":7995:8009   */\n      add\n        /* \"#utility.yul\":7981:7993   */\n      dup3\n        /* \"#utility.yul\":7947:8010   */\n      tag_191\n      jump\t// in\n    tag_309:\n        /* \"#utility.yul\":7848:8020   */\n      pop\n        /* \"#utility.yul\":8037:8041   */\n      dup1\n        /* \"#utility.yul\":8030:8041   */\n      swap2\n      pop\n        /* \"#utility.yul\":7011:8047   */\n      pop\n        /* \"#utility.yul\":6889:8047   */\n      swap3\n      swap2\n      pop\n      pop\n      jump\t// out\n        /* \"#utility.yul\":8053:8422   */\n    tag_38:\n        /* \"#utility.yul\":8194:8198   */\n      0x00\n        /* \"#utility.yul\":8232:8234   */\n      0x20\n        /* \"#utility.yul\":8221:8230   */\n      dup3\n        /* \"#utility.yul\":8217:8235   */\n      add\n        /* \"#utility.yul\":8209:8235   */\n      swap1\n      pop\n        /* \"#utility.yul\":8281:8290   */\n      dup2\n        /* \"#utility.yul\":8275:8279   */\n      dup2\n        /* \"#utility.yul\":8271:8291   */\n      sub\n        /* \"#utility.yul\":8267:8268   */\n      0x00\n        /* \"#utility.yul\":8256:8265   */\n      dup4\n        /* \"#utility.yul\":8252:8269   */\n      add\n        /* \"#utility.yul\":8245:8292   */\n      mstore\n        /* \"#utility.yul\":8309:8415   */\n      tag_311\n        /* \"#utility.yul\":8410:8414   */\n      dup2\n        /* \"#utility.yul\":8401:8407   */\n      dup5\n        /* \"#utility.yul\":8309:8415   */\n      tag_192\n      jump\t// in\n    tag_311:\n        /* \"#utility.yul\":8301:8415   */\n      swap1\n      pop\n        /* \"#utility.yul\":8053:8422   */\n      swap3\n      swap2\n      pop\n      pop\n      jump\t// out\n        /* \"#utility.yul\":8428:8937   */\n    tag_42:\n        /* \"#utility.yul\":8497:8503   */\n      0x00\n        /* \"#utility.yul\":8546:8548   */\n      0x20\n        /* \"#utility.yul\":8534:8543   */\n      dup3\n        /* \"#utility.yul\":8525:8532   */\n      dup5\n        /* \"#utility.yul\":8521:8544   */\n      sub\n        /* \"#utility.yul\":8517:8549   */\n      slt\n        /* \"#utility.yul\":8514:8633   */\n      iszero\n      tag_313\n      jumpi\n        /* \"#utility.yul\":8552:8631   */\n      tag_314\n      tag_163\n      jump\t// in\n    tag_314:\n        /* \"#utility.yul\":8514:8633   */\n    tag_313:\n        /* \"#utility.yul\":8700:8701   */\n      0x00\n        /* \"#utility.yul\":8689:8698   */\n      dup3\n        /* \"#utility.yul\":8685:8702   */\n      add\n        /* \"#utility.yul\":8672:8703   */\n      calldataload\n        /* \"#utility.yul\":8730:8748   */\n      0xffffffffffffffff\n        /* \"#utility.yul\":8722:8728   */\n      dup2\n        /* \"#utility.yul\":8719:8749   */\n      gt\n        /* \"#utility.yul\":8716:8833   */\n      iszero\n      tag_315\n      jumpi\n        /* \"#utility.yul\":8752:8831   */\n      tag_316\n      tag_164\n      jump\t// in\n    tag_316:\n        /* \"#utility.yul\":8716:8833   */\n    tag_315:\n        /* \"#utility.yul\":8857:8920   */\n      tag_317\n        /* \"#utility.yul\":8912:8919   */\n      dup5\n        /* \"#utility.yul\":8903:8909   */\n      dup3\n        /* \"#utility.yul\":8892:8901   */\n      dup6\n        /* \"#utility.yul\":8888:8910   */\n      add\n        /* \"#utility.yul\":8857:8920   */\n      tag_184\n      jump\t// in\n    tag_317:\n        /* \"#utility.yul\":8847:8920   */\n      swap2\n      pop\n        /* \"#utility.yul\":8643:8930   */\n      pop\n        /* \"#utility.yul\":8428:8937   */\n      swap3\n      swap2\n      pop\n      pop\n      jump\t// out\n        /* \"#utility.yul\":8943:9047   */\n    tag_193:\n        /* \"#utility.yul\":8988:8995   */\n      0x00\n        /* \"#utility.yul\":9017:9041   */\n      tag_319\n        /* \"#utility.yul\":9035:9040   */\n      dup3\n        /* \"#utility.yul\":9017:9041   */\n      tag_165\n      jump\t// in\n    tag_319:\n        /* \"#utility.yul\":9006:9041   */\n      swap1\n      pop\n        /* \"#utility.yul\":8943:9047   */\n      swap2\n      swap1\n      pop\n      jump\t// out\n        /* \"#utility.yul\":9053:9195   */\n    tag_194:\n        /* \"#utility.yul\":9156:9188   */\n      tag_321\n        /* \"#utility.yul\":9182:9187   */\n      dup2\n        /* \"#utility.yul\":9156:9188   */\n      tag_193\n      jump\t// in\n    tag_321:\n        /* \"#utility.yul\":9151:9154   */\n      dup3\n        /* \"#utility.yul\":9144:9189   */\n      mstore\n        /* \"#utility.yul\":9053:9195   */\n      pop\n      pop\n      jump\t// out\n        /* \"#utility.yul\":9201:9310   */\n    tag_195:\n        /* \"#utility.yul\":9282:9303   */\n      tag_323\n        /* \"#utility.yul\":9297:9302   */\n      dup2\n        /* \"#utility.yul\":9282:9303   */\n      tag_185\n      jump\t// in\n    tag_323:\n        /* \"#utility.yul\":9277:9280   */\n      dup3\n        /* \"#utility.yul\":9270:9304   */\n      mstore\n        /* \"#utility.yul\":9201:9310   */\n      pop\n      pop\n      jump\t// out\n        /* \"#utility.yul\":9316:10503   */\n    tag_45:\n        /* \"#utility.yul\":9649:9653   */\n      0x00\n        /* \"#utility.yul\":9687:9690   */\n      0x0100\n        /* \"#utility.yul\":9676:9685   */\n      dup3\n        /* \"#utility.yul\":9672:9691   */\n      add\n        /* \"#utility.yul\":9664:9691   */\n      swap1\n      pop\n        /* \"#utility.yul\":9737:9746   */\n      dup2\n        /* \"#utility.yul\":9731:9735   */\n      dup2\n        /* \"#utility.yul\":9727:9747   */\n      sub\n        /* \"#utility.yul\":9723:9724   */\n      0x00\n        /* \"#utility.yul\":9712:9721   */\n      dup4\n        /* \"#utility.yul\":9708:9725   */\n      add\n        /* \"#utility.yul\":9701:9748   */\n      mstore\n        /* \"#utility.yul\":9765:9843   */\n      tag_325\n        /* \"#utility.yul\":9838:9842   */\n      dup2\n        /* \"#utility.yul\":9829:9835   */\n      dup12\n        /* \"#utility.yul\":9765:9843   */\n      tag_175\n      jump\t// in\n    tag_325:\n        /* \"#utility.yul\":9757:9843   */\n      swap1\n      pop\n        /* \"#utility.yul\":9890:9899   */\n      dup2\n        /* \"#utility.yul\":9884:9888   */\n      dup2\n        /* \"#utility.yul\":9880:9900   */\n      sub\n        /* \"#utility.yul\":9875:9877   */\n      0x20\n        /* \"#utility.yul\":9864:9873   */\n      dup4\n        /* \"#utility.yul\":9860:9878   */\n      add\n        /* \"#utility.yul\":9853:9901   */\n      mstore\n        /* \"#utility.yul\":9918:9996   */\n      tag_326\n        /* \"#utility.yul\":9991:9995   */\n      dup2\n        /* \"#utility.yul\":9982:9988   */\n      dup11\n        /* \"#utility.yul\":9918:9996   */\n      tag_175\n      jump\t// in\n    tag_326:\n        /* \"#utility.yul\":9910:9996   */\n      swap1\n      pop\n        /* \"#utility.yul\":10006:10078   */\n      tag_327\n        /* \"#utility.yul\":10074:10076   */\n      0x40\n        /* \"#utility.yul\":10063:10072   */\n      dup4\n        /* \"#utility.yul\":10059:10077   */\n      add\n        /* \"#utility.yul\":10050:10056   */\n      dup10\n        /* \"#utility.yul\":10006:10078   */\n      tag_170\n      jump\t// in\n    tag_327:\n        /* \"#utility.yul\":10088:10176   */\n      tag_328\n        /* \"#utility.yul\":10172:10174   */\n      0x60\n        /* \"#utility.yul\":10161:10170   */\n      dup4\n        /* \"#utility.yul\":10157:10175   */\n      add\n        /* \"#utility.yul\":10148:10154   */\n      dup9\n        /* \"#utility.yul\":10088:10176   */\n      tag_194\n      jump\t// in\n    tag_328:\n        /* \"#utility.yul\":10186:10259   */\n      tag_329\n        /* \"#utility.yul\":10254:10257   */\n      0x80\n        /* \"#utility.yul\":10243:10252   */\n      dup4\n        /* \"#utility.yul\":10239:10258   */\n      add\n        /* \"#utility.yul\":10230:10236   */\n      dup8\n        /* \"#utility.yul\":10186:10259   */\n      tag_170\n      jump\t// in\n    tag_329:\n        /* \"#utility.yul\":10269:10342   */\n      tag_330\n        /* \"#utility.yul\":10337:10340   */\n      0xa0\n        /* \"#utility.yul\":10326:10335   */\n      dup4\n        /* \"#utility.yul\":10322:10341   */\n      add\n        /* \"#utility.yul\":10313:10319   */\n      dup7\n        /* \"#utility.yul\":10269:10342   */\n      tag_170\n      jump\t// in\n    tag_330:\n        /* \"#utility.yul\":10352:10419   */\n      tag_331\n        /* \"#utility.yul\":10414:10417   */\n      0xc0\n        /* \"#utility.yul\":10403:10412   */\n      dup4\n        /* \"#utility.yul\":10399:10418   */\n      add\n        /* \"#utility.yul\":10390:10396   */\n      dup6\n        /* \"#utility.yul\":10352:10419   */\n      tag_195\n      jump\t// in\n    tag_331:\n        /* \"#utility.yul\":10429:10496   */\n      tag_332\n        /* \"#utility.yul\":10491:10494   */\n      0xe0\n        /* \"#utility.yul\":10480:10489   */\n      dup4\n        /* \"#utility.yul\":10476:10495   */\n      add\n        /* \"#utility.yul\":10467:10473   */\n      dup5\n        /* \"#utility.yul\":10429:10496   */\n      tag_195\n      jump\t// in\n    tag_332:\n        /* \"#utility.yul\":9316:10503   */\n      swap10\n      swap9\n      pop\n      pop\n      pop\n      pop\n      pop\n      pop\n      pop\n      pop\n      pop\n      jump\t// out\n        /* \"#utility.yul\":10509:10631   */\n    tag_196:\n        /* \"#utility.yul\":10582:10606   */\n      tag_334\n        /* \"#utility.yul\":10600:10605   */\n      dup2\n        /* \"#utility.yul\":10582:10606   */\n      tag_169\n      jump\t// in\n    tag_334:\n        /* \"#utility.yul\":10575:10580   */\n      dup2\n        /* \"#utility.yul\":10572:10607   */\n      eq\n        /* \"#utility.yul\":10562:10625   */\n      tag_335\n      jumpi\n        /* \"#utility.yul\":10621:10622   */\n      0x00\n        /* \"#utility.yul\":10618:10619   */\n      dup1\n        /* \"#utility.yul\":10611:10623   */\n      revert\n        /* \"#utility.yul\":10562:10625   */\n    tag_335:\n        /* \"#utility.yul\":10509:10631   */\n      pop\n      jump\t// out\n        /* \"#utility.yul\":10637:10776   */\n    tag_197:\n        /* \"#utility.yul\":10683:10688   */\n      0x00\n        /* \"#utility.yul\":10721:10727   */\n      dup2\n        /* \"#utility.yul\":10708:10728   */\n      calldataload\n        /* \"#utility.yul\":10699:10728   */\n      swap1\n      pop\n        /* \"#utility.yul\":10737:10770   */\n      tag_337\n        /* \"#utility.yul\":10764:10769   */\n      dup2\n        /* \"#utility.yul\":10737:10770   */\n      tag_196\n      jump\t// in\n    tag_337:\n        /* \"#utility.yul\":10637:10776   */\n      swap3\n      swap2\n      pop\n      pop\n      jump\t// out\n        /* \"#utility.yul\":10782:10920   */\n    tag_198:\n        /* \"#utility.yul\":10863:10895   */\n      tag_339\n        /* \"#utility.yul\":10889:10894   */\n      dup2\n        /* \"#utility.yul\":10863:10895   */\n      tag_193\n      jump\t// in\n    tag_339:\n        /* \"#utility.yul\":10856:10861   */\n      dup2\n        /* \"#utility.yul\":10853:10896   */\n      eq\n        /* \"#utility.yul\":10843:10914   */\n      tag_340\n      jumpi\n        /* \"#utility.yul\":10910:10911   */\n      0x00\n        /* \"#utility.yul\":10907:10908   */\n      dup1\n        /* \"#utility.yul\":10900:10912   */\n      revert\n        /* \"#utility.yul\":10843:10914   */\n    tag_340:\n        /* \"#utility.yul\":10782:10920   */\n      pop\n      jump\t// out\n        /* \"#utility.yul\":10926:11081   */\n    tag_199:\n        /* \"#utility.yul\":10980:10985   */\n      0x00\n        /* \"#utility.yul\":11018:11024   */\n      dup2\n        /* \"#utility.yul\":11005:11025   */\n      calldataload\n        /* \"#utility.yul\":10996:11025   */\n      swap1\n      pop\n        /* \"#utility.yul\":11034:11075   */\n      tag_342\n        /* \"#utility.yul\":11069:11074   */\n      dup2\n        /* \"#utility.yul\":11034:11075   */\n      tag_198\n      jump\t// in\n    tag_342:\n        /* \"#utility.yul\":10926:11081   */\n      swap3\n      swap2\n      pop\n      pop\n      jump\t// out\n        /* \"#utility.yul\":11087:12374   */\n    tag_53:\n        /* \"#utility.yul\":11210:11216   */\n      0x00\n        /* \"#utility.yul\":11218:11224   */\n      dup1\n        /* \"#utility.yul\":11226:11232   */\n      0x00\n        /* \"#utility.yul\":11234:11240   */\n      dup1\n        /* \"#utility.yul\":11242:11248   */\n      0x00\n        /* \"#utility.yul\":11291:11294   */\n      0xa0\n        /* \"#utility.yul\":11279:11288   */\n      dup7\n        /* \"#utility.yul\":11270:11277   */\n      dup9\n        /* \"#utility.yul\":11266:11289   */\n      sub\n        /* \"#utility.yul\":11262:11295   */\n      slt\n        /* \"#utility.yul\":11259:11379   */\n      iszero\n      tag_344\n      jumpi\n        /* \"#utility.yul\":11298:11377   */\n      tag_345\n      tag_163\n      jump\t// in\n    tag_345:\n        /* \"#utility.yul\":11259:11379   */\n    tag_344:\n        /* \"#utility.yul\":11446:11447   */\n      0x00\n        /* \"#utility.yul\":11435:11444   */\n      dup7\n        /* \"#utility.yul\":11431:11448   */\n      add\n        /* \"#utility.yul\":11418:11449   */\n      calldataload\n        /* \"#utility.yul\":11476:11494   */\n      0xffffffffffffffff\n        /* \"#utility.yul\":11468:11474   */\n      dup2\n        /* \"#utility.yul\":11465:11495   */\n      gt\n        /* \"#utility.yul\":11462:11579   */\n      iszero\n      tag_346\n      jumpi\n        /* \"#utility.yul\":11498:11577   */\n      tag_347\n      tag_164\n      jump\t// in\n    tag_347:\n        /* \"#utility.yul\":11462:11579   */\n    tag_346:\n        /* \"#utility.yul\":11603:11666   */\n      tag_348\n        /* \"#utility.yul\":11658:11665   */\n      dup9\n        /* \"#utility.yul\":11649:11655   */\n      dup3\n        /* \"#utility.yul\":11638:11647   */\n      dup10\n        /* \"#utility.yul\":11634:11656   */\n      add\n        /* \"#utility.yul\":11603:11666   */\n      tag_184\n      jump\t// in\n    tag_348:\n        /* \"#utility.yul\":11593:11666   */\n      swap6\n      pop\n        /* \"#utility.yul\":11389:11676   */\n      pop\n        /* \"#utility.yul\":11743:11745   */\n      0x20\n        /* \"#utility.yul\":11732:11741   */\n      dup7\n        /* \"#utility.yul\":11728:11746   */\n      add\n        /* \"#utility.yul\":11715:11747   */\n      calldataload\n        /* \"#utility.yul\":11774:11792   */\n      0xffffffffffffffff\n        /* \"#utility.yul\":11766:11772   */\n      dup2\n        /* \"#utility.yul\":11763:11793   */\n      gt\n        /* \"#utility.yul\":11760:11877   */\n      iszero\n      tag_349\n      jumpi\n        /* \"#utility.yul\":11796:11875   */\n      tag_350\n      tag_164\n      jump\t// in\n    tag_350:\n        /* \"#utility.yul\":11760:11877   */\n    tag_349:\n        /* \"#utility.yul\":11901:11964   */\n      tag_351\n        /* \"#utility.yul\":11956:11963   */\n      dup9\n        /* \"#utility.yul\":11947:11953   */\n      dup3\n        /* \"#utility.yul\":11936:11945   */\n      dup10\n        /* \"#utility.yul\":11932:11954   */\n      add\n        /* \"#utility.yul\":11901:11964   */\n      tag_184\n      jump\t// in\n    tag_351:\n        /* \"#utility.yul\":11891:11964   */\n      swap5\n      pop\n        /* \"#utility.yul\":11686:11974   */\n      pop\n        /* \"#utility.yul\":12013:12015   */\n      0x40\n        /* \"#utility.yul\":12039:12092   */\n      tag_352\n        /* \"#utility.yul\":12084:12091   */\n      dup9\n        /* \"#utility.yul\":12075:12081   */\n      dup3\n        /* \"#utility.yul\":12064:12073   */\n      dup10\n        /* \"#utility.yul\":12060:12082   */\n      add\n        /* \"#utility.yul\":12039:12092   */\n      tag_197\n      jump\t// in\n    tag_352:\n        /* \"#utility.yul\":12029:12092   */\n      swap4\n      pop\n        /* \"#utility.yul\":11984:12102   */\n      pop\n        /* \"#utility.yul\":12141:12143   */\n      0x60\n        /* \"#utility.yul\":12167:12220   */\n      tag_353\n        /* \"#utility.yul\":12212:12219   */\n      dup9\n        /* \"#utility.yul\":12203:12209   */\n      dup3\n        /* \"#utility.yul\":12192:12201   */\n      dup10\n        /* \"#utility.yul\":12188:12210   */\n      add\n        /* \"#utility.yul\":12167:12220   */\n      tag_197\n      jump\t// in\n    tag_353:\n        /* \"#utility.yul\":12157:12220   */\n      swap3\n      pop\n        /* \"#utility.yul\":12112:12230   */\n      pop\n        /* \"#utility.yul\":12269:12272   */\n      0x80\n        /* \"#utility.yul\":12296:12357   */\n      tag_354\n        /* \"#utility.yul\":12349:12356   */\n      dup9\n        /* \"#utility.yul\":12340:12346   */\n      dup3\n        /* \"#utility.yul\":12329:12338   */\n      dup10\n        /* \"#utility.yul\":12325:12347   */\n      add\n        /* \"#utility.yul\":12296:12357   */\n      tag_199\n      jump\t// in\n    tag_354:\n        /* \"#utility.yul\":12286:12357   */\n      swap2\n      pop\n        /* \"#utility.yul\":12240:12367   */\n      pop\n        /* \"#utility.yul\":11087:12374   */\n      swap3\n      swap6\n      pop\n      swap3\n      swap6\n      swap1\n      swap4\n      pop\n      jump\t// out\n        /* \"#utility.yul\":12380:12498   */\n    tag_200:\n        /* \"#utility.yul\":12467:12491   */\n      tag_356\n        /* \"#utility.yul\":12485:12490   */\n      dup2\n        /* \"#utility.yul\":12467:12491   */\n      tag_166\n      jump\t// in\n    tag_356:\n        /* \"#utility.yul\":12462:12465   */\n      dup3\n        /* \"#utility.yul\":12455:12492   */\n      mstore\n        /* \"#utility.yul\":12380:12498   */\n      pop\n      pop\n      jump\t// out\n        /* \"#utility.yul\":12504:12726   */\n    tag_67:\n        /* \"#utility.yul\":12597:12601   */\n      0x00\n        /* \"#utility.yul\":12635:12637   */\n      0x20\n        /* \"#utility.yul\":12624:12633   */\n      dup3\n        /* \"#utility.yul\":12620:12638   */\n      add\n        /* \"#utility.yul\":12612:12638   */\n      swap1\n      pop\n        /* \"#utility.yul\":12648:12719   */\n      tag_358\n        /* \"#utility.yul\":12716:12717   */\n      0x00\n        /* \"#utility.yul\":12705:12714   */\n      dup4\n        /* \"#utility.yul\":12701:12718   */\n      add\n        /* \"#utility.yul\":12692:12698   */\n      dup5\n        /* \"#utility.yul\":12648:12719   */\n      tag_200\n      jump\t// in\n    tag_358:\n        /* \"#utility.yul\":12504:12726   */\n      swap3\n      swap2\n      pop\n      pop\n      jump\t// out\n        /* \"#utility.yul\":12732:12912   */\n    tag_201:\n        /* \"#utility.yul\":12780:12857   */\n      0x4e487b7100000000000000000000000000000000000000000000000000000000\n        /* \"#utility.yul\":12777:12778   */\n      0x00\n        /* \"#utility.yul\":12770:12858   */\n      mstore\n        /* \"#utility.yul\":12877:12881   */\n      0x22\n        /* \"#utility.yul\":12874:12875   */\n      0x04\n        /* \"#utility.yul\":12867:12882   */\n      mstore\n        /* \"#utility.yul\":12901:12905   */\n      0x24\n        /* \"#utility.yul\":12898:12899   */\n      0x00\n        /* \"#utility.yul\":12891:12906   */\n      revert\n        /* \"#utility.yul\":12918:13238   */\n    tag_80:\n        /* \"#utility.yul\":12962:12968   */\n      0x00\n        /* \"#utility.yul\":12999:13000   */\n      0x02\n        /* \"#utility.yul\":12993:12997   */\n      dup3\n        /* \"#utility.yul\":12989:13001   */\n      div\n        /* \"#utility.yul\":12979:13001   */\n      swap1\n      pop\n        /* \"#utility.yul\":13046:13047   */\n      0x01\n        /* \"#utility.yul\":13040:13044   */\n      dup3\n        /* \"#utility.yul\":13036:13048   */\n      and\n        /* \"#utility.yul\":13067:13085   */\n      dup1\n        /* \"#utility.yul\":13057:13138   */\n      tag_361\n      jumpi\n        /* \"#utility.yul\":13123:13127   */\n      0x7f\n        /* \"#utility.yul\":13115:13121   */\n      dup3\n        /* \"#utility.yul\":13111:13128   */\n      and\n        /* \"#utility.yul\":13101:13128   */\n      swap2\n      pop\n        /* \"#utility.yul\":13057:13138   */\n    tag_361:\n        /* \"#utility.yul\":13185:13187   */\n      0x20\n        /* \"#utility.yul\":13177:13183   */\n      dup3\n        /* \"#utility.yul\":13174:13188   */\n      lt\n        /* \"#utility.yul\":13154:13172   */\n      dup2\n        /* \"#utility.yul\":13151:13189   */\n      sub\n        /* \"#utility.yul\":13148:13232   */\n      tag_362\n      jumpi\n        /* \"#utility.yul\":13204:13222   */\n      tag_363\n      tag_201\n      jump\t// in\n    tag_363:\n        /* \"#utility.yul\":13148:13232   */\n    tag_362:\n        /* \"#utility.yul\":12969:13238   */\n      pop\n        /* \"#utility.yul\":12918:13238   */\n      swap2\n      swap1\n      pop\n      jump\t// out\n        /* \"#utility.yul\":13244:13392   */\n    tag_202:\n        /* \"#utility.yul\":13346:13357   */\n      0x00\n        /* \"#utility.yul\":13383:13386   */\n      dup2\n        /* \"#utility.yul\":13368:13386   */\n      swap1\n      pop\n        /* \"#utility.yul\":13244:13392   */\n      swap3\n      swap2\n      pop\n      pop\n      jump\t// out\n        /* \"#utility.yul\":13398:13788   */\n    tag_203:\n        /* \"#utility.yul\":13504:13507   */\n      0x00\n        /* \"#utility.yul\":13532:13571   */\n      tag_366\n        /* \"#utility.yul\":13565:13570   */\n      dup3\n        /* \"#utility.yul\":13532:13571   */\n      tag_171\n      jump\t// in\n    tag_366:\n        /* \"#utility.yul\":13587:13676   */\n      tag_367\n        /* \"#utility.yul\":13669:13675   */\n      dup2\n        /* \"#utility.yul\":13664:13667   */\n      dup6\n        /* \"#utility.yul\":13587:13676   */\n      tag_202\n      jump\t// in\n    tag_367:\n        /* \"#utility.yul\":13580:13676   */\n      swap4\n      pop\n        /* \"#utility.yul\":13685:13750   */\n      tag_368\n        /* \"#utility.yul\":13743:13749   */\n      dup2\n        /* \"#utility.yul\":13738:13741   */\n      dup6\n        /* \"#utility.yul\":13731:13735   */\n      0x20\n        /* \"#utility.yul\":13724:13729   */\n      dup7\n        /* \"#utility.yul\":13720:13736   */\n      add\n        /* \"#utility.yul\":13685:13750   */\n      tag_173\n      jump\t// in\n    tag_368:\n        /* \"#utility.yul\":13775:13781   */\n      dup1\n        /* \"#utility.yul\":13770:13773   */\n      dup5\n        /* \"#utility.yul\":13766:13782   */\n      add\n        /* \"#utility.yul\":13759:13782   */\n      swap2\n      pop\n        /* \"#utility.yul\":13508:13788   */\n      pop\n        /* \"#utility.yul\":13398:13788   */\n      swap3\n      swap2\n      pop\n      pop\n      jump\t// out\n        /* \"#utility.yul\":13794:14069   */\n    tag_88:\n        /* \"#utility.yul\":13926:13929   */\n      0x00\n        /* \"#utility.yul\":13948:14043   */\n      tag_370\n        /* \"#utility.yul\":14039:14042   */\n      dup3\n        /* \"#utility.yul\":14030:14036   */\n      dup5\n        /* \"#utility.yul\":13948:14043   */\n      tag_203\n      jump\t// in\n    tag_370:\n        /* \"#utility.yul\":13941:14043   */\n      swap2\n      pop\n        /* \"#utility.yul\":14060:14063   */\n      dup2\n        /* \"#utility.yul\":14053:14063   */\n      swap1\n      pop\n        /* \"#utility.yul\":13794:14069   */\n      swap3\n      swap2\n      pop\n      pop\n      jump\t// out\n        /* \"#utility.yul\":14075:14255   */\n    tag_204:\n        /* \"#utility.yul\":14123:14200   */\n      0x4e487b7100000000000000000000000000000000000000000000000000000000\n        /* \"#utility.yul\":14120:14121   */\n      0x00\n        /* \"#utility.yul\":14113:14201   */\n      mstore\n        /* \"#utility.yul\":14220:14224   */\n      0x11\n        /* \"#utility.yul\":14217:14218   */\n      0x04\n        /* \"#utility.yul\":14210:14225   */\n      mstore\n        /* \"#utility.yul\":14244:14248   */\n      0x24\n        /* \"#utility.yul\":14241:14242   */\n      0x00\n        /* \"#utility.yul\":14234:14249   */\n      revert\n        /* \"#utility.yul\":14261:14494   */\n    tag_99:\n        /* \"#utility.yul\":14300:14303   */\n      0x00\n        /* \"#utility.yul\":14323:14347   */\n      tag_373\n        /* \"#utility.yul\":14341:14346   */\n      dup3\n        /* \"#utility.yul\":14323:14347   */\n      tag_169\n      jump\t// in\n    tag_373:\n        /* \"#utility.yul\":14314:14347   */\n      swap2\n      pop\n        /* \"#utility.yul\":14369:14435   */\n      0xffffffffffffffffffffffffffffffffffffffffffffffffffffffffffffffff\n        /* \"#utility.yul\":14362:14367   */\n      dup3\n        /* \"#utility.yul\":14359:14436   */\n      sub\n        /* \"#utility.yul\":14356:14459   */\n      tag_374\n      jumpi\n        /* \"#utility.yul\":14439:14457   */\n      tag_375\n      tag_204\n      jump\t// in\n    tag_375:\n        /* \"#utility.yul\":14356:14459   */\n    tag_374:\n        /* \"#utility.yul\":14486:14487   */\n      0x01\n        /* \"#utility.yul\":14479:14484   */\n      dup3\n        /* \"#utility.yul\":14475:14488   */\n      add\n        /* \"#utility.yul\":14468:14488   */\n      swap1\n      pop\n        /* \"#utility.yul\":14261:14494   */\n      swap2\n      swap1\n      pop\n      jump\t// out\n        /* \"#utility.yul\":14500:14680   */\n    tag_205:\n        /* \"#utility.yul\":14548:14625   */\n      0x4e487b7100000000000000000000000000000000000000000000000000000000\n        /* \"#utility.yul\":14545:14546   */\n      0x00\n        /* \"#utility.yul\":14538:14626   */\n      mstore\n        /* \"#utility.yul\":14645:14649   */\n      0x12\n        /* \"#utility.yul\":14642:14643   */\n      0x04\n        /* \"#utility.yul\":14635:14650   */\n      mstore\n        /* \"#utility.yul\":14669:14673   */\n      0x24\n        /* \"#utility.yul\":14666:14667   */\n      0x00\n        /* \"#utility.yul\":14659:14674   */\n      revert\n        /* \"#utility.yul\":14686:14871   */\n    tag_121:\n        /* \"#utility.yul\":14726:14727   */\n      0x00\n        /* \"#utility.yul\":14743:14763   */\n      tag_378\n        /* \"#utility.yul\":14761:14762   */\n      dup3\n        /* \"#utility.yul\":14743:14763   */\n      tag_169\n      jump\t// in\n    tag_378:\n        /* \"#utility.yul\":14738:14763   */\n      swap2\n      pop\n        /* \"#utility.yul\":14777:14797   */\n      tag_379\n        /* \"#utility.yul\":14795:14796   */\n      dup4\n        /* \"#utility.yul\":14777:14797   */\n      tag_169\n      jump\t// in\n    tag_379:\n        /* \"#utility.yul\":14772:14797   */\n      swap3\n      pop\n        /* \"#utility.yul\":14816:14817   */\n      dup3\n        /* \"#utility.yul\":14806:14841   */\n      tag_380\n      jumpi\n        /* \"#utility.yul\":14821:14839   */\n      tag_381\n      tag_205\n      jump\t// in\n    tag_381:\n        /* \"#utility.yul\":14806:14841   */\n    tag_380:\n        /* \"#utility.yul\":14863:14864   */\n      dup3\n        /* \"#utility.yul\":14860:14861   */\n      dup3\n        /* \"#utility.yul\":14856:14865   */\n      div\n        /* \"#utility.yul\":14851:14865   */\n      swap1\n      pop\n        /* \"#utility.yul\":14686:14871   */\n      swap3\n      swap2\n      pop\n      pop\n      jump\t// out\n        /* \"#utility.yul\":14877:15018   */\n    tag_206:\n        /* \"#utility.yul\":14926:14930   */\n      0x00\n        /* \"#utility.yul\":14949:14952   */\n      dup2\n        /* \"#utility.yul\":14941:14952   */\n      swap1\n      pop\n        /* \"#utility.yul\":14972:14975   */\n      dup2\n        /* \"#utility.yul\":14969:14970   */\n      0x00\n        /* \"#utility.yul\":14962:14976   */\n      mstore\n        /* \"#utility.yul\":15006:15010   */\n      0x20\n        /* \"#utility.yul\":15003:15004   */\n      0x00\n        /* \"#utility.yul\":14993:15011   */\n      keccak256\n        /* \"#utility.yul\":14985:15011   */\n      swap1\n      pop\n        /* \"#utility.yul\":14877:15018   */\n      swap2\n      swap1\n      pop\n      jump\t// out\n        /* \"#utility.yul\":15024:15117   */\n    tag_207:\n        /* \"#utility.yul\":15061:15067   */\n      0x00\n        /* \"#utility.yul\":15108:15110   */\n      0x20\n        /* \"#utility.yul\":15103:15105   */\n      0x1f\n        /* \"#utility.yul\":15096:15101   */\n      dup4\n        /* \"#utility.yul\":15092:15106   */\n      add\n        /* \"#utility.yul\":15088:15111   */\n      div\n        /* \"#utility.yul\":15078:15111   */\n      swap1\n      pop\n        /* \"#utility.yul\":15024:15117   */\n      swap2\n      swap1\n      pop\n      jump\t// out\n        /* \"#utility.yul\":15123:15230   */\n    tag_208:\n        /* \"#utility.yul\":15167:15175   */\n      0x00\n        /* \"#utility.yul\":15217:15222   */\n      dup3\n        /* \"#utility.yul\":15211:15215   */\n      dup3\n        /* \"#utility.yul\":15207:15223   */\n      shl\n        /* \"#utility.yul\":15186:15223   */\n      swap1\n      pop\n        /* \"#utility.yul\":15123:15230   */\n      swap3\n      swap2\n      pop\n      pop\n      jump\t// out\n        /* \"#utility.yul\":15236:15629   */\n    tag_209:\n        /* \"#utility.yul\":15305:15311   */\n      0x00\n        /* \"#utility.yul\":15355:15356   */\n      0x08\n        /* \"#utility.yul\":15343:15353   */\n      dup4\n        /* \"#utility.yul\":15339:15357   */\n      mul\n        /* \"#utility.yul\":15378:15475   */\n      tag_386\n        /* \"#utility.yul\":15408:15474   */\n      0xffffffffffffffffffffffffffffffffffffffffffffffffffffffffffffffff\n        /* \"#utility.yul\":15397:15406   */\n      dup3\n        /* \"#utility.yul\":15378:15475   */\n      tag_208\n      jump\t// in\n    tag_386:\n        /* \"#utility.yul\":15496:15535   */\n      tag_387\n        /* \"#utility.yul\":15526:15534   */\n      dup7\n        /* \"#utility.yul\":15515:15524   */\n      dup4\n        /* \"#utility.yul\":15496:15535   */\n      tag_208\n      jump\t// in\n    tag_387:\n        /* \"#utility.yul\":15484:15535   */\n      swap6\n      pop\n        /* \"#utility.yul\":15568:15572   */\n      dup1\n        /* \"#utility.yul\":15564:15573   */\n      not\n        /* \"#utility.yul\":15557:15562   */\n      dup5\n        /* \"#utility.yul\":15553:15574   */\n      and\n        /* \"#utility.yul\":15544:15574   */\n      swap4\n      pop\n        /* \"#utility.yul\":15617:15621   */\n      dup1\n        /* \"#utility.yul\":15607:15615   */\n      dup7\n        /* \"#utility.yul\":15603:15622   */\n      and\n        /* \"#utility.yul\":15596:15601   */\n      dup5\n        /* \"#utility.yul\":15593:15623   */\n      or\n        /* \"#utility.yul\":15583:15623   */\n      swap3\n      pop\n        /* \"#utility.yul\":15312:15629   */\n      pop\n      pop\n        /* \"#utility.yul\":15236:15629   */\n      swap4\n      swap3\n      pop\n      pop\n      pop\n      jump\t// out\n        /* \"#utility.yul\":15635:15695   */\n    tag_210:\n        /* \"#utility.yul\":15663:15666   */\n      0x00\n        /* \"#utility.yul\":15684:15689   */\n      dup2\n        /* \"#utility.yul\":15677:15689   */\n      swap1\n      pop\n        /* \"#utility.yul\":15635:15695   */\n      swap2\n      swap1\n      pop\n      jump\t// out\n        /* \"#utility.yul\":15701:15843   */\n    tag_211:\n        /* \"#utility.yul\":15751:15760   */\n      0x00\n        /* \"#utility.yul\":15784:15837   */\n      tag_390\n        /* \"#utility.yul\":15802:15836   */\n      tag_391\n        /* \"#utility.yul\":15811:15835   */\n      tag_392\n        /* \"#utility.yul\":15829:15834   */\n      dup5\n        /* \"#utility.yul\":15811:15835   */\n      tag_169\n      jump\t// in\n    tag_392:\n        /* \"#utility.yul\":15802:15836   */\n      tag_210\n      jump\t// in\n    tag_391:\n        /* \"#utility.yul\":15784:15837   */\n      tag_169\n      jump\t// in\n    tag_390:\n        /* \"#utility.yul\":15771:15837   */\n      swap1\n      pop\n        /* \"#utility.yul\":15701:15843   */\n      swap2\n      swap1\n      pop\n      jump\t// out\n        /* \"#utility.yul\":15849:15924   */\n    tag_212:\n        /* \"#utility.yul\":15892:15895   */\n      0x00\n        /* \"#utility.yul\":15913:15918   */\n      dup2\n        /* \"#utility.yul\":15906:15918   */\n      swap1\n      pop\n        /* \"#utility.yul\":15849:15924   */\n      swap2\n      swap1\n      pop\n      jump\t// out\n        /* \"#utility.yul\":15930:16199   */\n    tag_213:\n        /* \"#utility.yul\":16040:16079   */\n      tag_395\n        /* \"#utility.yul\":16071:16078   */\n      dup4\n        /* \"#utility.yul\":16040:16079   */\n      tag_211\n      jump\t// in\n    tag_395:\n        /* \"#utility.yul\":16101:16192   */\n      tag_396\n        /* \"#utility.yul\":16150:16191   */\n      tag_397\n        /* \"#utility.yul\":16174:16190   */\n      dup3\n        /* \"#utility.yul\":16150:16191   */\n      tag_212\n      jump\t// in\n    tag_397:\n        /* \"#utility.yul\":16142:16148   */\n      dup5\n        /* \"#utility.yul\":16135:16139   */\n      dup5\n        /* \"#utility.yul\":16129:16140   */\n      sload\n        /* \"#utility.yul\":16101:16192   */\n      tag_209\n      jump\t// in\n    tag_396:\n        /* \"#utility.yul\":16095:16099   */\n      dup3\n        /* \"#utility.yul\":16088:16193   */\n      sstore\n        /* \"#utility.yul\":16006:16199   */\n      pop\n        /* \"#utility.yul\":15930:16199   */\n      pop\n      pop\n      pop\n      jump\t// out\n        /* \"#utility.yul\":16205:16278   */\n    tag_214:\n        /* \"#utility.yul\":16250:16253   */\n      0x00\n        /* \"#utility.yul\":16205:16278   */\n      swap1\n      jump\t// out\n        /* \"#utility.yul\":16284:16473   */\n    tag_215:\n        /* \"#utility.yul\":16361:16393   */\n      tag_400\n      tag_214\n      jump\t// in\n    tag_400:\n        /* \"#utility.yul\":16402:16467   */\n      tag_401\n        /* \"#utility.yul\":16460:16466   */\n      dup2\n        /* \"#utility.yul\":16452:16458   */\n      dup5\n        /* \"#utility.yul\":16446:16450   */\n      dup5\n        /* \"#utility.yul\":16402:16467   */\n      tag_213\n      jump\t// in\n    tag_401:\n        /* \"#utility.yul\":16337:16473   */\n      pop\n        /* \"#utility.yul\":16284:16473   */\n      pop\n      pop\n      jump\t// out\n        /* \"#utility.yul\":16479:16665   */\n    tag_216:\n        /* \"#utility.yul\":16539:16659   */\n    tag_403:\n        /* \"#utility.yul\":16556:16559   */\n      dup2\n        /* \"#utility.yul\":16549:16554   */\n      dup2\n        /* \"#utility.yul\":16546:16560   */\n      lt\n        /* \"#utility.yul\":16539:16659   */\n      iszero\n      tag_405\n      jumpi\n        /* \"#utility.yul\":16610:16649   */\n      tag_406\n        /* \"#utility.yul\":16647:16648   */\n      0x00\n        /* \"#utility.yul\":16640:16645   */\n      dup3\n        /* \"#utility.yul\":16610:16649   */\n      tag_215\n      jump\t// in\n    tag_406:\n        /* \"#utility.yul\":16583:16584   */\n      0x01\n        /* \"#utility.yul\":16576:16581   */\n      dup2\n        /* \"#utility.yul\":16572:16585   */\n      add\n        /* \"#utility.yul\":16563:16585   */\n      swap1\n      pop\n        /* \"#utility.yul\":16539:16659   */\n      jump(tag_403)\n    tag_405:\n        /* \"#utility.yul\":16479:16665   */\n      pop\n      pop\n      jump\t// out\n        /* \"#utility.yul\":16671:17214   */\n    tag_217:\n        /* \"#utility.yul\":16772:16774   */\n      0x1f\n        /* \"#utility.yul\":16767:16770   */\n      dup3\n        /* \"#utility.yul\":16764:16775   */\n      gt\n        /* \"#utility.yul\":16761:17207   */\n      iszero\n      tag_408\n      jumpi\n        /* \"#utility.yul\":16806:16844   */\n      tag_409\n        /* \"#utility.yul\":16838:16843   */\n      dup2\n        /* \"#utility.yul\":16806:16844   */\n      tag_206\n      jump\t// in\n    tag_409:\n        /* \"#utility.yul\":16890:16919   */\n      tag_410\n        /* \"#utility.yul\":16908:16918   */\n      dup5\n        /* \"#utility.yul\":16890:16919   */\n      tag_207\n      jump\t// in\n    tag_410:\n        /* \"#utility.yul\":16880:16888   */\n      dup2\n        /* \"#utility.yul\":16876:16920   */\n      add\n        /* \"#utility.yul\":17073:17075   */\n      0x20\n        /* \"#utility.yul\":17061:17071   */\n      dup6\n        /* \"#utility.yul\":17058:17076   */\n      lt\n        /* \"#utility.yul\":17055:17104   */\n      iszero\n      tag_411\n      jumpi\n        /* \"#utility.yul\":17094:17102   */\n      dup2\n        /* \"#utility.yul\":17079:17102   */\n      swap1\n      pop\n        /* \"#utility.yul\":17055:17104   */\n    tag_411:\n        /* \"#utility.yul\":17117:17197   */\n      tag_412\n        /* \"#utility.yul\":17173:17195   */\n      tag_413\n        /* \"#utility.yul\":17191:17194   */\n      dup6\n        /* \"#utility.yul\":17173:17195   */\n      tag_207\n      jump\t// in\n    tag_413:\n        /* \"#utility.yul\":17163:17171   */\n      dup4\n        /* \"#utility.yul\":17159:17196   */\n      add\n        /* \"#utility.yul\":17146:17157   */\n      dup3\n        /* \"#utility.yul\":17117:17197   */\n      tag_216\n      jump\t// in\n    tag_412:\n        /* \"#utility.yul\":16776:17207   */\n      pop\n      pop\n        /* \"#utility.yul\":16761:17207   */\n    tag_408:\n        /* \"#utility.yul\":16671:17214   */\n      pop\n      pop\n      pop\n      jump\t// out\n        /* \"#utility.yul\":17220:17337   */\n    tag_218:\n        /* \"#utility.yul\":17274:17282   */\n      0x00\n        /* \"#utility.yul\":17324:17329   */\n      dup3\n        /* \"#utility.yul\":17318:17322   */\n      dup3\n        /* \"#utility.yul\":17314:17330   */\n      shr\n        /* \"#utility.yul\":17293:17330   */\n      swap1\n      pop\n        /* \"#utility.yul\":17220:17337   */\n      swap3\n      swap2\n      pop\n      pop\n      jump\t// out\n        /* \"#utility.yul\":17343:17512   */\n    tag_219:\n        /* \"#utility.yul\":17387:17393   */\n      0x00\n        /* \"#utility.yul\":17420:17471   */\n      tag_416\n        /* \"#utility.yul\":17468:17469   */\n      0x00\n        /* \"#utility.yul\":17464:17470   */\n      not\n        /* \"#utility.yul\":17456:17461   */\n      dup5\n        /* \"#utility.yul\":17453:17454   */\n      0x08\n        /* \"#utility.yul\":17449:17462   */\n      mul\n        /* \"#utility.yul\":17420:17471   */\n      tag_218\n      jump\t// in\n    tag_416:\n        /* \"#utility.yul\":17416:17472   */\n      not\n        /* \"#utility.yul\":17501:17505   */\n      dup1\n        /* \"#utility.yul\":17495:17499   */\n      dup4\n        /* \"#utility.yul\":17491:17506   */\n      and\n        /* \"#utility.yul\":17481:17506   */\n      swap2\n      pop\n        /* \"#utility.yul\":17394:17512   */\n      pop\n        /* \"#utility.yul\":17343:17512   */\n      swap3\n      swap2\n      pop\n      pop\n      jump\t// out\n        /* \"#utility.yul\":17517:17812   */\n    tag_220:\n        /* \"#utility.yul\":17593:17597   */\n      0x00\n        /* \"#utility.yul\":17739:17768   */\n      tag_418\n        /* \"#utility.yul\":17764:17767   */\n      dup4\n        /* \"#utility.yul\":17758:17762   */\n      dup4\n        /* \"#utility.yul\":17739:17768   */\n      tag_219\n      jump\t// in\n    tag_418:\n        /* \"#utility.yul\":17731:17768   */\n      swap2\n      pop\n        /* \"#utility.yul\":17801:17804   */\n      dup3\n        /* \"#utility.yul\":17798:17799   */\n      0x02\n        /* \"#utility.yul\":17794:17805   */\n      mul\n        /* \"#utility.yul\":17788:17792   */\n      dup3\n        /* \"#utility.yul\":17785:17806   */\n      or\n        /* \"#utility.yul\":17777:17806   */\n      swap1\n      pop\n        /* \"#utility.yul\":17517:17812   */\n      swap3\n      swap2\n      pop\n      pop\n      jump\t// out\n        /* \"#utility.yul\":17817:19212   */\n    tag_134:\n        /* \"#utility.yul\":17934:17971   */\n      tag_420\n        /* \"#utility.yul\":17967:17970   */\n      dup3\n        /* \"#utility.yul\":17934:17971   */\n      tag_171\n      jump\t// in\n    tag_420:\n        /* \"#utility.yul\":18036:18054   */\n      0xffffffffffffffff\n        /* \"#utility.yul\":18028:18034   */\n      dup2\n        /* \"#utility.yul\":18025:18055   */\n      gt\n        /* \"#utility.yul\":18022:18078   */\n      iszero\n      tag_421\n      jumpi\n        /* \"#utility.yul\":18058:18076   */\n      tag_422\n      tag_178\n      jump\t// in\n    tag_422:\n        /* \"#utility.yul\":18022:18078   */\n    tag_421:\n        /* \"#utility.yul\":18102:18140   */\n      tag_423\n        /* \"#utility.yul\":18134:18138   */\n      dup3\n        /* \"#utility.yul\":18128:18139   */\n      sload\n        /* \"#utility.yul\":18102:18140   */\n      tag_80\n      jump\t// in\n    tag_423:\n        /* \"#utility.yul\":18187:18254   */\n      tag_424\n        /* \"#utility.yul\":18247:18253   */\n      dup3\n        /* \"#utility.yul\":18239:18245   */\n      dup3\n        /* \"#utility.yul\":18233:18237   */\n      dup6\n        /* \"#utility.yul\":18187:18254   */\n      tag_217\n      jump\t// in\n    tag_424:\n        /* \"#utility.yul\":18281:18282   */\n      0x00\n        /* \"#utility.yul\":18305:18309   */\n      0x20\n        /* \"#utility.yul\":18292:18309   */\n      swap1\n      pop\n        /* \"#utility.yul\":18337:18339   */\n      0x1f\n        /* \"#utility.yul\":18329:18335   */\n      dup4\n        /* \"#utility.yul\":18326:18340   */\n      gt\n        /* \"#utility.yul\":18354:18355   */\n      0x01\n        /* \"#utility.yul\":18349:18967   */\n      dup2\n      eq\n      tag_426\n      jumpi\n        /* \"#utility.yul\":19011:19012   */\n      0x00\n        /* \"#utility.yul\":19028:19034   */\n      dup5\n        /* \"#utility.yul\":19025:19102   */\n      iszero\n      tag_427\n      jumpi\n        /* \"#utility.yul\":19077:19086   */\n      dup3\n        /* \"#utility.yul\":19072:19075   */\n      dup8\n        /* \"#utility.yul\":19068:19087   */\n      add\n        /* \"#utility.yul\":19062:19088   */\n      mload\n        /* \"#utility.yul\":19053:19088   */\n      swap1\n      pop\n        /* \"#utility.yul\":19025:19102   */\n    tag_427:\n        /* \"#utility.yul\":19128:19195   */\n      tag_428\n        /* \"#utility.yul\":19188:19194   */\n      dup6\n        /* \"#utility.yul\":19181:19186   */\n      dup3\n        /* \"#utility.yul\":19128:19195   */\n      tag_220\n      jump\t// in\n    tag_428:\n        /* \"#utility.yul\":19122:19126   */\n      dup7\n        /* \"#utility.yul\":19115:19196   */\n      sstore\n        /* \"#utility.yul\":18984:19206   */\n      pop\n        /* \"#utility.yul\":18319:19206   */\n      jump(tag_425)\n        /* \"#utility.yul\":18349:18967   */\n    tag_426:\n        /* \"#utility.yul\":18401:18405   */\n      0x1f\n        /* \"#utility.yul\":18397:18406   */\n      not\n        /* \"#utility.yul\":18389:18395   */\n      dup5\n        /* \"#utility.yul\":18385:18407   */\n      and\n        /* \"#utility.yul\":18435:18472   */\n      tag_429\n        /* \"#utility.yul\":18467:18471   */\n      dup7\n        /* \"#utility.yul\":18435:18472   */\n      tag_206\n      jump\t// in\n    tag_429:\n        /* \"#utility.yul\":18494:18495   */\n      0x00\n        /* \"#utility.yul\":18508:18716   */\n    tag_430:\n        /* \"#utility.yul\":18522:18529   */\n      dup3\n        /* \"#utility.yul\":18519:18520   */\n      dup2\n        /* \"#utility.yul\":18516:18530   */\n      lt\n        /* \"#utility.yul\":18508:18716   */\n      iszero\n      tag_432\n      jumpi\n        /* \"#utility.yul\":18601:18610   */\n      dup5\n        /* \"#utility.yul\":18596:18599   */\n      dup10\n        /* \"#utility.yul\":18592:18611   */\n      add\n        /* \"#utility.yul\":18586:18612   */\n      mload\n        /* \"#utility.yul\":18578:18584   */\n      dup3\n        /* \"#utility.yul\":18571:18613   */\n      sstore\n        /* \"#utility.yul\":18652:18653   */\n      0x01\n        /* \"#utility.yul\":18644:18650   */\n      dup3\n        /* \"#utility.yul\":18640:18654   */\n      add\n        /* \"#utility.yul\":18630:18654   */\n      swap2\n      pop\n        /* \"#utility.yul\":18699:18701   */\n      0x20\n        /* \"#utility.yul\":18688:18697   */\n      dup6\n        /* \"#utility.yul\":18684:18702   */\n      add\n        /* \"#utility.yul\":18671:18702   */\n      swap5\n      pop\n        /* \"#utility.yul\":18545:18549   */\n      0x20\n        /* \"#utility.yul\":18542:18543   */\n      dup2\n        /* \"#utility.yul\":18538:18550   */\n      add\n        /* \"#utility.yul\":18533:18550   */\n      swap1\n      pop\n        /* \"#utility.yul\":18508:18716   */\n      jump(tag_430)\n    tag_432:\n        /* \"#utility.yul\":18744:18750   */\n      dup7\n        /* \"#utility.yul\":18735:18742   */\n      dup4\n        /* \"#utility.yul\":18732:18751   */\n      lt\n        /* \"#utility.yul\":18729:18908   */\n      iszero\n      tag_433\n      jumpi\n        /* \"#utility.yul\":18802:18811   */\n      dup5\n        /* \"#utility.yul\":18797:18800   */\n      dup10\n        /* \"#utility.yul\":18793:18812   */\n      add\n        /* \"#utility.yul\":18787:18813   */\n      mload\n        /* \"#utility.yul\":18845:18893   */\n      tag_434\n        /* \"#utility.yul\":18887:18891   */\n      0x1f\n        /* \"#utility.yul\":18879:18885   */\n      dup10\n        /* \"#utility.yul\":18875:18892   */\n      and\n        /* \"#utility.yul\":18864:18873   */\n      dup3\n        /* \"#utility.yul\":18845:18893   */\n      tag_219\n      jump\t// in\n    tag_434:\n        /* \"#utility.yul\":18837:18843   */\n      dup4\n        /* \"#utility.yul\":18830:18894   */\n      sstore\n        /* \"#utility.yul\":18752:18908   */\n      pop\n        /* \"#utility.yul\":18729:18908   */\n    tag_433:\n        /* \"#utility.yul\":18954:18955   */\n      0x01\n        /* \"#utility.yul\":18950:18951   */\n      0x02\n        /* \"#utility.yul\":18942:18948   */\n      dup9\n        /* \"#utility.yul\":18938:18952   */\n      mul\n        /* \"#utility.yul\":18934:18956   */\n      add\n        /* \"#utility.yul\":18928:18932   */\n      dup9\n        /* \"#utility.yul\":18921:18957   */\n      sstore\n        /* \"#utility.yul\":18356:18967   */\n      pop\n      pop\n      pop\n        /* \"#utility.yul\":18319:19206   */\n    tag_425:\n      pop\n        /* \"#utility.yul\":17909:19212   */\n      pop\n      pop\n      pop\n        /* \"#utility.yul\":17817:19212   */\n      pop\n      pop\n      jump\t// out\n        /* \"#utility.yul\":19218:19628   */\n    tag_158:\n        /* \"#utility.yul\":19258:19265   */\n      0x00\n        /* \"#utility.yul\":19281:19301   */\n      tag_436\n        /* \"#utility.yul\":19299:19300   */\n      dup3\n        /* \"#utility.yul\":19281:19301   */\n      tag_169\n      jump\t// in\n    tag_436:\n        /* \"#utility.yul\":19276:19301   */\n      swap2\n      pop\n        /* \"#utility.yul\":19315:19335   */\n      tag_437\n        /* \"#utility.yul\":19333:19334   */\n      dup4\n        /* \"#utility.yul\":19315:19335   */\n      tag_169\n      jump\t// in\n    tag_437:\n        /* \"#utility.yul\":19310:19335   */\n      swap3\n      pop\n        /* \"#utility.yul\":19370:19371   */\n      dup3\n        /* \"#utility.yul\":19367:19368   */\n      dup3\n        /* \"#utility.yul\":19363:19372   */\n      mul\n        /* \"#utility.yul\":19392:19422   */\n      tag_438\n        /* \"#utility.yul\":19410:19421   */\n      dup2\n        /* \"#utility.yul\":19392:19422   */\n      tag_169\n      jump\t// in\n    tag_438:\n        /* \"#utility.yul\":19381:19422   */\n      swap2\n      pop\n        /* \"#utility.yul\":19571:19572   */\n      dup3\n        /* \"#utility.yul\":19562:19569   */\n      dup3\n        /* \"#utility.yul\":19558:19573   */\n      div\n        /* \"#utility.yul\":19555:19556   */\n      dup5\n        /* \"#utility.yul\":19552:19574   */\n      eq\n        /* \"#utility.yul\":19532:19533   */\n      dup4\n        /* \"#utility.yul\":19525:19534   */\n      iszero\n        /* \"#utility.yul\":19505:19588   */\n      or\n        /* \"#utility.yul\":19482:19621   */\n      tag_439\n      jumpi\n        /* \"#utility.yul\":19601:19619   */\n      tag_440\n      tag_204\n      jump\t// in\n    tag_440:\n        /* \"#utility.yul\":19482:19621   */\n    tag_439:\n        /* \"#utility.yul\":19266:19628   */\n      pop\n        /* \"#utility.yul\":19218:19628   */\n      swap3\n      swap2\n      pop\n      pop\n      jump\t// out\n\n    auxdata: 0xa264697066735822122012a667ecaff942bcb30a37d0e76ae0b466f54a9654b17ee2af4aad44a4dac6d964736f6c63430008180033\n}\n","bytecode":{"linkReferences":{},"object":"608060405234801562000010575f80fd5b5060405162001dee38038062001dee8339818101604052810190620000369190620002c1565b5f821162000042575f80fd5b8060015f6101000a81548173ffffffffffffffffffffffffffffffffffffffff021916908373ffffffffffffffffffffffffffffffffffffffff160217905550825f908162000092919062000567565b50816004819055505050506200064b565b5f604051905090565b5f80fd5b5f80fd5b5f80fd5b5f80fd5b5f601f19601f8301169050919050565b7f4e487b71000000000000000000000000000000000000000000000000000000005f52604160045260245ffd5b6200010482620000bc565b810181811067ffffffffffffffff82111715620001265762000125620000cc565b5b80604052505050565b5f6200013a620000a3565b9050620001488282620000f9565b919050565b5f67ffffffffffffffff8211156200016a5762000169620000cc565b5b6200017582620000bc565b9050602081019050919050565b5f5b83811015620001a157808201518184015260208101905062000184565b5f8484015250505050565b5f620001c2620001bc846200014d565b6200012f565b905082815260208101848484011115620001e157620001e0620000b8565b5b620001ee84828562000182565b509392505050565b5f82601f8301126200020d576200020c620000b4565b5b81516200021f848260208601620001ac565b91505092915050565b5f819050919050565b6200023c8162000228565b811462000247575f80fd5b50565b5f815190506200025a8162000231565b92915050565b5f73ffffffffffffffffffffffffffffffffffffffff82169050919050565b5f6200028b8262000260565b9050919050565b6200029d816200027f565b8114620002a8575f80fd5b50565b5f81519050620002bb8162000292565b92915050565b5f805f60608486031215620002db57620002da620000ac565b5b5f84015167ffffffffffffffff811115620002fb57620002fa620000b0565b5b6200030986828701620001f6565b93505060206200031c868287016200024a565b92505060406200032f86828701620002ab565b9150509250925092565b5f81519050919050565b7f4e487b71000000000000000000000000000000000000000000000000000000005f52602260045260245ffd5b5f60028204905060018216806200038857607f821691505b6020821081036200039e576200039d62000343565b5b50919050565b5f819050815f5260205f209050919050565b5f6020601f8301049050919050565b5f82821b905092915050565b5f60088302620004027fffffffffffffffffffffffffffffffffffffffffffffffffffffffffffffffff82620003c5565b6200040e8683620003c5565b95508019841693508086168417925050509392505050565b5f819050919050565b5f6200044f62000449620004438462000228565b62000426565b62000228565b9050919050565b5f819050919050565b6200046a836200042f565b62000482620004798262000456565b848454620003d1565b825550505050565b5f90565b620004986200048a565b620004a58184846200045f565b505050565b5b81811015620004cc57620004c05f826200048e565b600181019050620004ab565b5050565b601f8211156200051b57620004e581620003a4565b620004f084620003b6565b8101602085101562000500578190505b620005186200050f85620003b6565b830182620004aa565b50505b505050565b5f82821c905092915050565b5f6200053d5f198460080262000520565b1980831691505092915050565b5f6200055783836200052c565b9150826002028217905092915050565b620005728262000339565b67ffffffffffffffff8111156200058e576200058d620000cc565b5b6200059a825462000370565b620005a7828285620004d0565b5f60209050601f831160018114620005dd575f8415620005c8578287015190505b620005d485826200054a565b86555062000643565b601f198416620005ed86620003a4565b5f5b828110156200061657848901518255600182019150602085019450602081019050620005ef565b8683101562000636578489015162000632601f8916826200052c565b8355505b6001600288020188555050505b505050505050565b61179580620006595f395ff3fe6080604052600436106100c1575f3560e01c8063a7ac80001161007e578063d500958411610058578063d500958414610266578063d7bb99ba14610290578063e2e46b521461029a578063f84038b1146102c2576100c1565b8063a7ac8000146101ea578063aa8a7eeb14610212578063af157c191461023c576100c1565b80630a144391146100c55780631a0925411461010157806330e8fc5c1461012b5780634051ddac14610153578063692d51d21461017d5780636f9fb98a146101c0575b5f80fd5b3480156100d0575f80fd5b506100eb60048036038101906100e69190610d4f565b6102ec565b6040516100f89190610d92565b60405180910390f35b34801561010c575f80fd5b50610115610301565b6040516101229190610e35565b60405180910390f35b348015610136575f80fd5b50610151600480360381019061014c9190610fb6565b610390565b005b34801561015e575f80fd5b506101676105b8565b60405161017491906110e9565b60405180910390f35b348015610188575f80fd5b506101a3600480360381019061019e9190611109565b6106b3565b6040516101b798979695949392919061117f565b60405180910390f35b3480156101cb575f80fd5b506101d4610853565b6040516101e19190610d92565b60405180910390f35b3480156101f5575f80fd5b50610210600480360381019061020b919061125d565b61086d565b005b34801561021d575f80fd5b506102266109e5565b6040516102339190610d92565b60405180910390f35b348015610247575f80fd5b506102506109ee565b60405161025d9190610d92565b60405180910390f35b348015610271575f80fd5b5061027a6109f7565b604051610287919061131b565b60405180910390f35b610298610a1f565b005b3480156102a5575f80fd5b506102c060048036038101906102bb9190611109565b610af6565b005b3480156102cd575f80fd5b506102d6610c9a565b6040516102e39190610d92565b60405180910390f35b6002602052805f5260405f205f915090505481565b60605f805461030f90611361565b80601f016020809104026020016040519081016040528092919081815260200182805461033b90611361565b80156103865780601f1061035d57610100808354040283529160200191610386565b820191905f5260205f20905b81548152906001019060200180831161036957829003601f168201915b5050505050905090565b60015f9054906101000a900473ffffffffffffffffffffffffffffffffffffffff1673ffffffffffffffffffffffffffffffffffffffff163373ffffffffffffffffffffffffffffffffffffffff16036103e8575f80fd5b5f6005836040516103f991906113cb565b908152602001604051809103902090505f815f01805461041890611361565b905011610423575f80fd5b8251815f01805461043390611361565b90501461043e575f80fd5b5f60025f3373ffffffffffffffffffffffffffffffffffffffff1673ffffffffffffffffffffffffffffffffffffffff1681526020019081526020015f205411610486575f80fd5b806006015f9054906101000a900460ff16156104a0575f80fd5b8060060160019054906101000a900460ff16156104bb575f80fd5b806007015f3373ffffffffffffffffffffffffffffffffffffffff1673ffffffffffffffffffffffffffffffffffffffff1681526020019081526020015f205f9054906101000a900460ff1615610510575f80fd5b6001816007015f3373ffffffffffffffffffffffffffffffffffffffff1673ffffffffffffffffffffffffffffffffffffffff1681526020019081526020015f205f6101000a81548160ff021916908315150217905550811561058757806004015f8154809291906105819061140e565b91905055505b80600501548160040154106105b3576001816006015f6101000a81548160ff0219169083151502179055505b505050565b6105c0610ca3565b5f6040518060a0016040528060015f9054906101000a900473ffffffffffffffffffffffffffffffffffffffff1673ffffffffffffffffffffffffffffffffffffffff1681526020015f805461061590611361565b80601f016020809104026020016040519081016040528092919081815260200182805461064190611361565b801561068c5780601f106106635761010080835404028352916020019161068c565b820191905f5260205f20905b81548152906001019060200180831161066f57829003601f168201915b50505050508152602001600454815260200147815260200160035481525090508091505090565b6005818051602081018201805184825260208301602085012081835280955050505050505f91509050805f0180546106ea90611361565b80601f016020809104026020016040519081016040528092919081815260200182805461071690611361565b80156107615780601f1061073857610100808354040283529160200191610761565b820191905f5260205f20905b81548152906001019060200180831161074457829003601f168201915b50505050509080600101805461077690611361565b80601f01602080910402602001604051908101604052809291908181526020018280546107a290611361565b80156107ed5780601f106107c4576101008083540402835291602001916107ed565b820191905f5260205f20905b8154815290600101906020018083116107d057829003601f168201915b505050505090806002015490806003015f9054906101000a900473ffffffffffffffffffffffffffffffffffffffff1690806004015490806005015490806006015f9054906101000a900460ff16908060060160019054906101000a900460ff16905088565b5f670de0b6b3a7640000476108689190611482565b905090565b60015f9054906101000a900473ffffffffffffffffffffffffffffffffffffffff1673ffffffffffffffffffffffffffffffffffffffff163373ffffffffffffffffffffffffffffffffffffffff16146108c5575f80fd5b5f8551116108d1575f80fd5b5f8451116108dd575f80fd5b5f83116108e8575f80fd5b670de0b6b3a7640000476108fc9190611482565b831115610907575f80fd5b5f8211610912575f80fd5b600354821115610920575f80fd5b5f60058660405161093191906113cb565b9081526020016040518091039020905085815f019081610951919061164f565b5084816001019081610963919061164f565b5083816002018190555081816003015f6101000a81548173ffffffffffffffffffffffffffffffffffffffff021916908373ffffffffffffffffffffffffffffffffffffffff1602179055505f81600401819055508281600501819055505f8160060160016101000a81548160ff021916908315150217905550505050505050565b5f600354905090565b5f600354905090565b5f60015f9054906101000a900473ffffffffffffffffffffffffffffffffffffffff16905090565b600454670de0b6b3a764000034610a369190611482565b1015610a40575f80fd5b5f60025f3373ffffffffffffffffffffffffffffffffffffffff1673ffffffffffffffffffffffffffffffffffffffff1681526020019081526020015f205414610a88575f80fd5b670de0b6b3a764000034610a9c9190611482565b60025f3373ffffffffffffffffffffffffffffffffffffffff1673ffffffffffffffffffffffffffffffffffffffff1681526020019081526020015f208190555060035f815480929190610aef9061140e565b9190505550565b60015f9054906101000a900473ffffffffffffffffffffffffffffffffffffffff1673ffffffffffffffffffffffffffffffffffffffff163373ffffffffffffffffffffffffffffffffffffffff1614610b4e575f80fd5b5f600582604051610b5f91906113cb565b908152602001604051809103902090505f815f018054610b7e90611361565b905011610b89575f80fd5b8151815f018054610b9990611361565b905014610ba4575f80fd5b806006015f9054906101000a900460ff168015610bd057508060060160019054906101000a900460ff16155b610bd8575f80fd5b8060020154670de0b6b3a764000047610bf19190611482565b1015610bfb575f80fd5b806003015f9054906101000a900473ffffffffffffffffffffffffffffffffffffffff1673ffffffffffffffffffffffffffffffffffffffff166108fc670de0b6b3a76400008360020154610c50919061171e565b90811502906040515f60405180830381858888f19350505050158015610c78573d5f803e3d5ffd5b5060018160060160016101000a81548160ff0219169083151502179055505050565b5f600454905090565b6040518060a001604052805f73ffffffffffffffffffffffffffffffffffffffff168152602001606081526020015f81526020015f81526020015f81525090565b5f604051905090565b5f80fd5b5f80fd5b5f73ffffffffffffffffffffffffffffffffffffffff82169050919050565b5f610d1e82610cf5565b9050919050565b610d2e81610d14565b8114610d38575f80fd5b50565b5f81359050610d4981610d25565b92915050565b5f60208284031215610d6457610d63610ced565b5b5f610d7184828501610d3b565b91505092915050565b5f819050919050565b610d8c81610d7a565b82525050565b5f602082019050610da55f830184610d83565b92915050565b5f81519050919050565b5f82825260208201905092915050565b5f5b83811015610de2578082015181840152602081019050610dc7565b5f8484015250505050565b5f601f19601f8301169050919050565b5f610e0782610dab565b610e118185610db5565b9350610e21818560208601610dc5565b610e2a81610ded565b840191505092915050565b5f6020820190508181035f830152610e4d8184610dfd565b905092915050565b5f80fd5b5f80fd5b7f4e487b71000000000000000000000000000000000000000000000000000000005f52604160045260245ffd5b610e9382610ded565b810181811067ffffffffffffffff82111715610eb257610eb1610e5d565b5b80604052505050565b5f610ec4610ce4565b9050610ed08282610e8a565b919050565b5f67ffffffffffffffff821115610eef57610eee610e5d565b5b610ef882610ded565b9050602081019050919050565b828183375f83830152505050565b5f610f25610f2084610ed5565b610ebb565b905082815260208101848484011115610f4157610f40610e59565b5b610f4c848285610f05565b509392505050565b5f82601f830112610f6857610f67610e55565b5b8135610f78848260208601610f13565b91505092915050565b5f8115159050919050565b610f9581610f81565b8114610f9f575f80fd5b50565b5f81359050610fb081610f8c565b92915050565b5f8060408385031215610fcc57610fcb610ced565b5b5f83013567ffffffffffffffff811115610fe957610fe8610cf1565b5b610ff585828601610f54565b925050602061100685828601610fa2565b9150509250929050565b61101981610d14565b82525050565b5f82825260208201905092915050565b5f61103982610dab565b611043818561101f565b9350611053818560208601610dc5565b61105c81610ded565b840191505092915050565b61107081610d7a565b82525050565b5f60a083015f83015161108b5f860182611010565b50602083015184820360208601526110a3828261102f565b91505060408301516110b86040860182611067565b5060608301516110cb6060860182611067565b5060808301516110de6080860182611067565b508091505092915050565b5f6020820190508181035f8301526111018184611076565b905092915050565b5f6020828403121561111e5761111d610ced565b5b5f82013567ffffffffffffffff81111561113b5761113a610cf1565b5b61114784828501610f54565b91505092915050565b5f61115a82610cf5565b9050919050565b61116a81611150565b82525050565b61117981610f81565b82525050565b5f610100820190508181035f830152611198818b610dfd565b905081810360208301526111ac818a610dfd565b90506111bb6040830189610d83565b6111c86060830188611161565b6111d56080830187610d83565b6111e260a0830186610d83565b6111ef60c0830185611170565b6111fc60e0830184611170565b9998505050505050505050565b61121281610d7a565b811461121c575f80fd5b50565b5f8135905061122d81611209565b92915050565b61123c81611150565b8114611246575f80fd5b50565b5f8135905061125781611233565b92915050565b5f805f805f60a0868803121561127657611275610ced565b5b5f86013567ffffffffffffffff81111561129357611292610cf1565b5b61129f88828901610f54565b955050602086013567ffffffffffffffff8111156112c0576112bf610cf1565b5b6112cc88828901610f54565b94505060406112dd8882890161121f565b93505060606112ee8882890161121f565b92505060806112ff88828901611249565b9150509295509295909350565b61131581610d14565b82525050565b5f60208201905061132e5f83018461130c565b92915050565b7f4e487b71000000000000000000000000000000000000000000000000000000005f52602260045260245ffd5b5f600282049050600182168061137857607f821691505b60208210810361138b5761138a611334565b5b50919050565b5f81905092915050565b5f6113a582610dab565b6113af8185611391565b93506113bf818560208601610dc5565b80840191505092915050565b5f6113d6828461139b565b915081905092915050565b7f4e487b71000000000000000000000000000000000000000000000000000000005f52601160045260245ffd5b5f61141882610d7a565b91507fffffffffffffffffffffffffffffffffffffffffffffffffffffffffffffffff820361144a576114496113e1565b5b600182019050919050565b7f4e487b71000000000000000000000000000000000000000000000000000000005f52601260045260245ffd5b5f61148c82610d7a565b915061149783610d7a565b9250826114a7576114a6611455565b5b828204905092915050565b5f819050815f5260205f209050919050565b5f6020601f8301049050919050565b5f82821b905092915050565b5f6008830261150e7fffffffffffffffffffffffffffffffffffffffffffffffffffffffffffffffff826114d3565b61151886836114d3565b95508019841693508086168417925050509392505050565b5f819050919050565b5f61155361154e61154984610d7a565b611530565b610d7a565b9050919050565b5f819050919050565b61156c83611539565b6115806115788261155a565b8484546114df565b825550505050565b5f90565b611594611588565b61159f818484611563565b505050565b5b818110156115c2576115b75f8261158c565b6001810190506115a5565b5050565b601f821115611607576115d8816114b2565b6115e1846114c4565b810160208510156115f0578190505b6116046115fc856114c4565b8301826115a4565b50505b505050565b5f82821c905092915050565b5f6116275f198460080261160c565b1980831691505092915050565b5f61163f8383611618565b9150826002028217905092915050565b61165882610dab565b67ffffffffffffffff81111561167157611670610e5d565b5b61167b8254611361565b6116868282856115c6565b5f60209050601f8311600181146116b7575f84156116a5578287015190505b6116af8582611634565b865550611716565b601f1984166116c5866114b2565b5f5b828110156116ec578489015182556001820191506020850194506020810190506116c7565b868310156117095784890151611705601f891682611618565b8355505b6001600288020188555050505b505050505050565b5f61172882610d7a565b915061173383610d7a565b925082820261174181610d7a565b91508282048414831517611758576117576113e1565b5b509291505056fea264697066735822122012a667ecaff942bcb30a37d0e76ae0b466f54a9654b17ee2af4aad44a4dac6d964736f6c63430008180033","opcodes":"PUSH1 0x80 PUSH1 0x40 MSTORE CALLVALUE DUP1 ISZERO PUSH3 0x10 JUMPI PUSH0 DUP1 REVERT JUMPDEST POP PUSH1 0x40 MLOAD PUSH3 0x1DEE CODESIZE SUB DUP1 PUSH3 0x1DEE DUP4 CODECOPY DUP2 DUP2 ADD PUSH1 0x40 MSTORE DUP2 ADD SWAP1 PUSH3 0x36 SWAP2 SWAP1 PUSH3 0x2C1 JUMP JUMPDEST PUSH0 DUP3 GT PUSH3 0x42 JUMPI PUSH0 DUP1 REVERT JUMPDEST DUP1 PUSH1 0x1 PUSH0 PUSH2 0x100 EXP DUP2 SLOAD DUP2 PUSH20 0xFFFFFFFFFFFFFFFFFFFFFFFFFFFFFFFFFFFFFFFF MUL NOT AND SWAP1 DUP4 PUSH20 0xFFFFFFFFFFFFFFFFFFFFFFFFFFFFFFFFFFFFFFFF AND MUL OR SWAP1 SSTORE POP DUP3 PUSH0 SWAP1 DUP2 PUSH3 0x92 SWAP2 SWAP1 PUSH3 0x567 JUMP JUMPDEST POP DUP2 PUSH1 0x4 DUP2 SWAP1 SSTORE POP POP POP POP PUSH3 0x64B JUMP JUMPDEST PUSH0 PUSH1 0x40 MLOAD SWAP1 POP SWAP1 JUMP JUMPDEST PUSH0 DUP1 REVERT JUMPDEST PUSH0 DUP1 REVERT JUMPDEST PUSH0 DUP1 REVERT JUMPDEST PUSH0 DUP1 REVERT JUMPDEST PUSH0 PUSH1 0x1F NOT PUSH1 0x1F DUP4 ADD AND SWAP1 POP SWAP2 SWAP1 POP JUMP JUMPDEST PUSH32 0x4E487B7100000000000000000000000000000000000000000000000000000000 PUSH0 MSTORE PUSH1 0x41 PUSH1 0x4 MSTORE PUSH1 0x24 PUSH0 REVERT JUMPDEST PUSH3 0x104 DUP3 PUSH3 0xBC JUMP JUMPDEST DUP2 ADD DUP2 DUP2 LT PUSH8 0xFFFFFFFFFFFFFFFF DUP3 GT OR ISZERO PUSH3 0x126 JUMPI PUSH3 0x125 PUSH3 0xCC JUMP JUMPDEST JUMPDEST DUP1 PUSH1 0x40 MSTORE POP POP POP JUMP JUMPDEST PUSH0 PUSH3 0x13A PUSH3 0xA3 JUMP JUMPDEST SWAP1 POP PUSH3 0x148 DUP3 DUP3 PUSH3 0xF9 JUMP JUMPDEST SWAP2 SWAP1 POP JUMP JUMPDEST PUSH0 PUSH8 0xFFFFFFFFFFFFFFFF DUP3 GT ISZERO PUSH3 0x16A JUMPI PUSH3 0x169 PUSH3 0xCC JUMP JUMPDEST JUMPDEST PUSH3 0x175 DUP3 PUSH3 0xBC JUMP JUMPDEST SWAP1 POP PUSH1 0x20 DUP2 ADD SWAP1 POP SWAP2 SWAP1 POP JUMP JUMPDEST PUSH0 JUMPDEST DUP4 DUP2 LT ISZERO PUSH3 0x1A1 JUMPI DUP1 DUP3 ADD MLOAD DUP2 DUP5 ADD MSTORE PUSH1 0x20 DUP2 ADD SWAP1 POP PUSH3 0x184 JUMP JUMPDEST PUSH0 DUP5 DUP5 ADD MSTORE POP POP POP POP JUMP JUMPDEST PUSH0 PUSH3 0x1C2 PUSH3 0x1BC DUP5 PUSH3 0x14D JUMP JUMPDEST PUSH3 0x12F JUMP JUMPDEST SWAP1 POP DUP3 DUP2 MSTORE PUSH1 0x20 DUP2 ADD DUP5 DUP5 DUP5 ADD GT ISZERO PUSH3 0x1E1 JUMPI PUSH3 0x1E0 PUSH3 0xB8 JUMP JUMPDEST JUMPDEST PUSH3 0x1EE DUP5 DUP3 DUP6 PUSH3 0x182 JUMP JUMPDEST POP SWAP4 SWAP3 POP POP POP JUMP JUMPDEST PUSH0 DUP3 PUSH1 0x1F DUP4 ADD SLT PUSH3 0x20D JUMPI PUSH3 0x20C PUSH3 0xB4 JUMP JUMPDEST JUMPDEST DUP2 MLOAD PUSH3 0x21F DUP5 DUP3 PUSH1 0x20 DUP7 ADD PUSH3 0x1AC JUMP JUMPDEST SWAP2 POP POP SWAP3 SWAP2 POP POP JUMP JUMPDEST PUSH0 DUP2 SWAP1 POP SWAP2 SWAP1 POP JUMP JUMPDEST PUSH3 0x23C DUP2 PUSH3 0x228 JUMP JUMPDEST DUP2 EQ PUSH3 0x247 JUMPI PUSH0 DUP1 REVERT JUMPDEST POP JUMP JUMPDEST PUSH0 DUP2 MLOAD SWAP1 POP PUSH3 0x25A DUP2 PUSH3 0x231 JUMP JUMPDEST SWAP3 SWAP2 POP POP JUMP JUMPDEST PUSH0 PUSH20 0xFFFFFFFFFFFFFFFFFFFFFFFFFFFFFFFFFFFFFFFF DUP3 AND SWAP1 POP SWAP2 SWAP1 POP JUMP JUMPDEST PUSH0 PUSH3 0x28B DUP3 PUSH3 0x260 JUMP JUMPDEST SWAP1 POP SWAP2 SWAP1 POP JUMP JUMPDEST PUSH3 0x29D DUP2 PUSH3 0x27F JUMP JUMPDEST DUP2 EQ PUSH3 0x2A8 JUMPI PUSH0 DUP1 REVERT JUMPDEST POP JUMP JUMPDEST PUSH0 DUP2 MLOAD SWAP1 POP PUSH3 0x2BB DUP2 PUSH3 0x292 JUMP JUMPDEST SWAP3 SWAP2 POP POP JUMP JUMPDEST PUSH0 DUP1 PUSH0 PUSH1 0x60 DUP5 DUP7 SUB SLT ISZERO PUSH3 0x2DB JUMPI PUSH3 0x2DA PUSH3 0xAC JUMP JUMPDEST JUMPDEST PUSH0 DUP5 ADD MLOAD PUSH8 0xFFFFFFFFFFFFFFFF DUP2 GT ISZERO PUSH3 0x2FB JUMPI PUSH3 0x2FA PUSH3 0xB0 JUMP JUMPDEST JUMPDEST PUSH3 0x309 DUP7 DUP3 DUP8 ADD PUSH3 0x1F6 JUMP JUMPDEST SWAP4 POP POP PUSH1 0x20 PUSH3 0x31C DUP7 DUP3 DUP8 ADD PUSH3 0x24A JUMP JUMPDEST SWAP3 POP POP PUSH1 0x40 PUSH3 0x32F DUP7 DUP3 DUP8 ADD PUSH3 0x2AB JUMP JUMPDEST SWAP2 POP POP SWAP3 POP SWAP3 POP SWAP3 JUMP JUMPDEST PUSH0 DUP2 MLOAD SWAP1 POP SWAP2 SWAP1 POP JUMP JUMPDEST PUSH32 0x4E487B7100000000000000000000000000000000000000000000000000000000 PUSH0 MSTORE PUSH1 0x22 PUSH1 0x4 MSTORE PUSH1 0x24 PUSH0 REVERT JUMPDEST PUSH0 PUSH1 0x2 DUP3 DIV SWAP1 POP PUSH1 0x1 DUP3 AND DUP1 PUSH3 0x388 JUMPI PUSH1 0x7F DUP3 AND SWAP2 POP JUMPDEST PUSH1 0x20 DUP3 LT DUP2 SUB PUSH3 0x39E JUMPI PUSH3 0x39D PUSH3 0x343 JUMP JUMPDEST JUMPDEST POP SWAP2 SWAP1 POP JUMP JUMPDEST PUSH0 DUP2 SWAP1 POP DUP2 PUSH0 MSTORE PUSH1 0x20 PUSH0 KECCAK256 SWAP1 POP SWAP2 SWAP1 POP JUMP JUMPDEST PUSH0 PUSH1 0x20 PUSH1 0x1F DUP4 ADD DIV SWAP1 POP SWAP2 SWAP1 POP JUMP JUMPDEST PUSH0 DUP3 DUP3 SHL SWAP1 POP SWAP3 SWAP2 POP POP JUMP JUMPDEST PUSH0 PUSH1 0x8 DUP4 MUL PUSH3 0x402 PUSH32 0xFFFFFFFFFFFFFFFFFFFFFFFFFFFFFFFFFFFFFFFFFFFFFFFFFFFFFFFFFFFFFFFF DUP3 PUSH3 0x3C5 JUMP JUMPDEST PUSH3 0x40E DUP7 DUP4 PUSH3 0x3C5 JUMP JUMPDEST SWAP6 POP DUP1 NOT DUP5 AND SWAP4 POP DUP1 DUP7 AND DUP5 OR SWAP3 POP POP POP SWAP4 SWAP3 POP POP POP JUMP JUMPDEST PUSH0 DUP2 SWAP1 POP SWAP2 SWAP1 POP JUMP JUMPDEST PUSH0 PUSH3 0x44F PUSH3 0x449 PUSH3 0x443 DUP5 PUSH3 0x228 JUMP JUMPDEST PUSH3 0x426 JUMP JUMPDEST PUSH3 0x228 JUMP JUMPDEST SWAP1 POP SWAP2 SWAP1 POP JUMP JUMPDEST PUSH0 DUP2 SWAP1 POP SWAP2 SWAP1 POP JUMP JUMPDEST PUSH3 0x46A DUP4 PUSH3 0x42F JUMP JUMPDEST PUSH3 0x482 PUSH3 0x479 DUP3 PUSH3 0x456 JUMP JUMPDEST DUP5 DUP5 SLOAD PUSH3 0x3D1 JUMP JUMPDEST DUP3 SSTORE POP POP POP POP JUMP JUMPDEST PUSH0 SWAP1 JUMP JUMPDEST PUSH3 0x498 PUSH3 0x48A JUMP JUMPDEST PUSH3 0x4A5 DUP2 DUP5 DUP5 PUSH3 0x45F JUMP JUMPDEST POP POP POP JUMP JUMPDEST JUMPDEST DUP2 DUP2 LT ISZERO PUSH3 0x4CC JUMPI PUSH3 0x4C0 PUSH0 DUP3 PUSH3 0x48E JUMP JUMPDEST PUSH1 0x1 DUP2 ADD SWAP1 POP PUSH3 0x4AB JUMP JUMPDEST POP POP JUMP JUMPDEST PUSH1 0x1F DUP3 GT ISZERO PUSH3 0x51B JUMPI PUSH3 0x4E5 DUP2 PUSH3 0x3A4 JUMP JUMPDEST PUSH3 0x4F0 DUP5 PUSH3 0x3B6 JUMP JUMPDEST DUP2 ADD PUSH1 0x20 DUP6 LT ISZERO PUSH3 0x500 JUMPI DUP2 SWAP1 POP JUMPDEST PUSH3 0x518 PUSH3 0x50F DUP6 PUSH3 0x3B6 JUMP JUMPDEST DUP4 ADD DUP3 PUSH3 0x4AA JUMP JUMPDEST POP POP JUMPDEST POP POP POP JUMP JUMPDEST PUSH0 DUP3 DUP3 SHR SWAP1 POP SWAP3 SWAP2 POP POP JUMP JUMPDEST PUSH0 PUSH3 0x53D PUSH0 NOT DUP5 PUSH1 0x8 MUL PUSH3 0x520 JUMP JUMPDEST NOT DUP1 DUP4 AND SWAP2 POP POP SWAP3 SWAP2 POP POP JUMP JUMPDEST PUSH0 PUSH3 0x557 DUP4 DUP4 PUSH3 0x52C JUMP JUMPDEST SWAP2 POP DUP3 PUSH1 0x2 MUL DUP3 OR SWAP1 POP SWAP3 SWAP2 POP POP JUMP JUMPDEST PUSH3 0x572 DUP3 PUSH3 0x339 JUMP JUMPDEST PUSH8 0xFFFFFFFFFFFFFFFF DUP2 GT ISZERO PUSH3 0x58E JUMPI PUSH3 0x58D PUSH3 0xCC JUMP JUMPDEST JUMPDEST PUSH3 0x59A DUP3 SLOAD PUSH3 0x370 JUMP JUMPDEST PUSH3 0x5A7 DUP3 DUP3 DUP6 PUSH3 0x4D0 JUMP JUMPDEST PUSH0 PUSH1 0x20 SWAP1 POP PUSH1 0x1F DUP4 GT PUSH1 0x1 DUP2 EQ PUSH3 0x5DD JUMPI PUSH0 DUP5 ISZERO PUSH3 0x5C8 JUMPI DUP3 DUP8 ADD MLOAD SWAP1 POP JUMPDEST PUSH3 0x5D4 DUP6 DUP3 PUSH3 0x54A JUMP JUMPDEST DUP7 SSTORE POP PUSH3 0x643 JUMP JUMPDEST PUSH1 0x1F NOT DUP5 AND PUSH3 0x5ED DUP7 PUSH3 0x3A4 JUMP JUMPDEST PUSH0 JUMPDEST DUP3 DUP2 LT ISZERO PUSH3 0x616 JUMPI DUP5 DUP10 ADD MLOAD DUP3 SSTORE PUSH1 0x1 DUP3 ADD SWAP2 POP PUSH1 0x20 DUP6 ADD SWAP5 POP PUSH1 0x20 DUP2 ADD SWAP1 POP PUSH3 0x5EF JUMP JUMPDEST DUP7 DUP4 LT ISZERO PUSH3 0x636 JUMPI DUP5 DUP10 ADD MLOAD PUSH3 0x632 PUSH1 0x1F DUP10 AND DUP3 PUSH3 0x52C JUMP JUMPDEST DUP4 SSTORE POP JUMPDEST PUSH1 0x1 PUSH1 0x2 DUP9 MUL ADD DUP9 SSTORE POP POP POP JUMPDEST POP POP POP POP POP POP JUMP JUMPDEST PUSH2 0x1795 DUP1 PUSH3 0x659 PUSH0 CODECOPY PUSH0 RETURN INVALID PUSH1 0x80 PUSH1 0x40 MSTORE PUSH1 0x4 CALLDATASIZE LT PUSH2 0xC1 JUMPI PUSH0 CALLDATALOAD PUSH1 0xE0 SHR DUP1 PUSH4 0xA7AC8000 GT PUSH2 0x7E JUMPI DUP1 PUSH4 0xD5009584 GT PUSH2 0x58 JUMPI DUP1 PUSH4 0xD5009584 EQ PUSH2 0x266 JUMPI DUP1 PUSH4 0xD7BB99BA EQ PUSH2 0x290 JUMPI DUP1 PUSH4 0xE2E46B52 EQ PUSH2 0x29A JUMPI DUP1 PUSH4 0xF84038B1 EQ PUSH2 0x2C2 JUMPI PUSH2 0xC1 JUMP JUMPDEST DUP1 PUSH4 0xA7AC8000 EQ PUSH2 0x1EA JUMPI DUP1 PUSH4 0xAA8A7EEB EQ PUSH2 0x212 JUMPI DUP1 PUSH4 0xAF157C19 EQ PUSH2 0x23C JUMPI PUSH2 0xC1 JUMP JUMPDEST DUP1 PUSH4 0xA144391 EQ PUSH2 0xC5 JUMPI DUP1 PUSH4 0x1A092541 EQ PUSH2 0x101 JUMPI DUP1 PUSH4 0x30E8FC5C EQ PUSH2 0x12B JUMPI DUP1 PUSH4 0x4051DDAC EQ PUSH2 0x153 JUMPI DUP1 PUSH4 0x692D51D2 EQ PUSH2 0x17D JUMPI DUP1 PUSH4 0x6F9FB98A EQ PUSH2 0x1C0 JUMPI JUMPDEST PUSH0 DUP1 REVERT JUMPDEST CALLVALUE DUP1 ISZERO PUSH2 0xD0 JUMPI PUSH0 DUP1 REVERT JUMPDEST POP PUSH2 0xEB PUSH1 0x4 DUP1 CALLDATASIZE SUB DUP2 ADD SWAP1 PUSH2 0xE6 SWAP2 SWAP1 PUSH2 0xD4F JUMP JUMPDEST PUSH2 0x2EC JUMP JUMPDEST PUSH1 0x40 MLOAD PUSH2 0xF8 SWAP2 SWAP1 PUSH2 0xD92 JUMP JUMPDEST PUSH1 0x40 MLOAD DUP1 SWAP2 SUB SWAP1 RETURN JUMPDEST CALLVALUE DUP1 ISZERO PUSH2 0x10C JUMPI PUSH0 DUP1 REVERT JUMPDEST POP PUSH2 0x115 PUSH2 0x301 JUMP JUMPDEST PUSH1 0x40 MLOAD PUSH2 0x122 SWAP2 SWAP1 PUSH2 0xE35 JUMP JUMPDEST PUSH1 0x40 MLOAD DUP1 SWAP2 SUB SWAP1 RETURN JUMPDEST CALLVALUE DUP1 ISZERO PUSH2 0x136 JUMPI PUSH0 DUP1 REVERT JUMPDEST POP PUSH2 0x151 PUSH1 0x4 DUP1 CALLDATASIZE SUB DUP2 ADD SWAP1 PUSH2 0x14C SWAP2 SWAP1 PUSH2 0xFB6 JUMP JUMPDEST PUSH2 0x390 JUMP JUMPDEST STOP JUMPDEST CALLVALUE DUP1 ISZERO PUSH2 0x15E JUMPI PUSH0 DUP1 REVERT JUMPDEST POP PUSH2 0x167 PUSH2 0x5B8 JUMP JUMPDEST PUSH1 0x40 MLOAD PUSH2 0x174 SWAP2 SWAP1 PUSH2 0x10E9 JUMP JUMPDEST PUSH1 0x40 MLOAD DUP1 SWAP2 SUB SWAP1 RETURN JUMPDEST CALLVALUE DUP1 ISZERO PUSH2 0x188 JUMPI PUSH0 DUP1 REVERT JUMPDEST POP PUSH2 0x1A3 PUSH1 0x4 DUP1 CALLDATASIZE SUB DUP2 ADD SWAP1 PUSH2 0x19E SWAP2 SWAP1 PUSH2 0x1109 JUMP JUMPDEST PUSH2 0x6B3 JUMP JUMPDEST PUSH1 0x40 MLOAD PUSH2 0x1B7 SWAP9 SWAP8 SWAP7 SWAP6 SWAP5 SWAP4 SWAP3 SWAP2 SWAP1 PUSH2 0x117F JUMP JUMPDEST PUSH1 0x40 MLOAD DUP1 SWAP2 SUB SWAP1 RETURN JUMPDEST CALLVALUE DUP1 ISZERO PUSH2 0x1CB JUMPI PUSH0 DUP1 REVERT JUMPDEST POP PUSH2 0x1D4 PUSH2 0x853 JUMP JUMPDEST PUSH1 0x40 MLOAD PUSH2 0x1E1 SWAP2 SWAP1 PUSH2 0xD92 JUMP JUMPDEST PUSH1 0x40 MLOAD DUP1 SWAP2 SUB SWAP1 RETURN JUMPDEST CALLVALUE DUP1 ISZERO PUSH2 0x1F5 JUMPI PUSH0 DUP1 REVERT JUMPDEST POP PUSH2 0x210 PUSH1 0x4 DUP1 CALLDATASIZE SUB DUP2 ADD SWAP1 PUSH2 0x20B SWAP2 SWAP1 PUSH2 0x125D JUMP JUMPDEST PUSH2 0x86D JUMP JUMPDEST STOP JUMPDEST CALLVALUE DUP1 ISZERO PUSH2 0x21D JUMPI PUSH0 DUP1 REVERT JUMPDEST POP PUSH2 0x226 PUSH2 0x9E5 JUMP JUMPDEST PUSH1 0x40 MLOAD PUSH2 0x233 SWAP2 SWAP1 PUSH2 0xD92 JUMP JUMPDEST PUSH1 0x40 MLOAD DUP1 SWAP2 SUB SWAP1 RETURN JUMPDEST CALLVALUE DUP1 ISZERO PUSH2 0x247 JUMPI PUSH0 DUP1 REVERT JUMPDEST POP PUSH2 0x250 PUSH2 0x9EE JUMP JUMPDEST PUSH1 0x40 MLOAD PUSH2 0x25D SWAP2 SWAP1 PUSH2 0xD92 JUMP JUMPDEST PUSH1 0x40 MLOAD DUP1 SWAP2 SUB SWAP1 RETURN JUMPDEST CALLVALUE DUP1 ISZERO PUSH2 0x271 JUMPI PUSH0 DUP1 REVERT JUMPDEST POP PUSH2 0x27A PUSH2 0x9F7 JUMP JUMPDEST PUSH1 0x40 MLOAD PUSH2 0x287 SWAP2 SWAP1 PUSH2 0x131B JUMP JUMPDEST PUSH1 0x40 MLOAD DUP1 SWAP2 SUB SWAP1 RETURN JUMPDEST PUSH2 0x298 PUSH2 0xA1F JUMP JUMPDEST STOP JUMPDEST CALLVALUE DUP1 ISZERO PUSH2 0x2A5 JUMPI PUSH0 DUP1 REVERT JUMPDEST POP PUSH2 0x2C0 PUSH1 0x4 DUP1 CALLDATASIZE SUB DUP2 ADD SWAP1 PUSH2 0x2BB SWAP2 SWAP1 PUSH2 0x1109 JUMP JUMPDEST PUSH2 0xAF6 JUMP JUMPDEST STOP JUMPDEST CALLVALUE DUP1 ISZERO PUSH2 0x2CD JUMPI PUSH0 DUP1 REVERT JUMPDEST POP PUSH2 0x2D6 PUSH2 0xC9A JUMP JUMPDEST PUSH1 0x40 MLOAD PUSH2 0x2E3 SWAP2 SWAP1 PUSH2 0xD92 JUMP JUMPDEST PUSH1 0x40 MLOAD DUP1 SWAP2 SUB SWAP1 RETURN JUMPDEST PUSH1 0x2 PUSH1 0x20 MSTORE DUP1 PUSH0 MSTORE PUSH1 0x40 PUSH0 KECCAK256 PUSH0 SWAP2 POP SWAP1 POP SLOAD DUP2 JUMP JUMPDEST PUSH1 0x60 PUSH0 DUP1 SLOAD PUSH2 0x30F SWAP1 PUSH2 0x1361 JUMP JUMPDEST DUP1 PUSH1 0x1F ADD PUSH1 0x20 DUP1 SWAP2 DIV MUL PUSH1 0x20 ADD PUSH1 0x40 MLOAD SWAP1 DUP2 ADD PUSH1 0x40 MSTORE DUP1 SWAP3 SWAP2 SWAP1 DUP2 DUP2 MSTORE PUSH1 0x20 ADD DUP3 DUP1 SLOAD PUSH2 0x33B SWAP1 PUSH2 0x1361 JUMP JUMPDEST DUP1 ISZERO PUSH2 0x386 JUMPI DUP1 PUSH1 0x1F LT PUSH2 0x35D JUMPI PUSH2 0x100 DUP1 DUP4 SLOAD DIV MUL DUP4 MSTORE SWAP2 PUSH1 0x20 ADD SWAP2 PUSH2 0x386 JUMP JUMPDEST DUP3 ADD SWAP2 SWAP1 PUSH0 MSTORE PUSH1 0x20 PUSH0 KECCAK256 SWAP1 JUMPDEST DUP2 SLOAD DUP2 MSTORE SWAP1 PUSH1 0x1 ADD SWAP1 PUSH1 0x20 ADD DUP1 DUP4 GT PUSH2 0x369 JUMPI DUP3 SWAP1 SUB PUSH1 0x1F AND DUP3 ADD SWAP2 JUMPDEST POP POP POP POP POP SWAP1 POP SWAP1 JUMP JUMPDEST PUSH1 0x1 PUSH0 SWAP1 SLOAD SWAP1 PUSH2 0x100 EXP SWAP1 DIV PUSH20 0xFFFFFFFFFFFFFFFFFFFFFFFFFFFFFFFFFFFFFFFF AND PUSH20 0xFFFFFFFFFFFFFFFFFFFFFFFFFFFFFFFFFFFFFFFF AND CALLER PUSH20 0xFFFFFFFFFFFFFFFFFFFFFFFFFFFFFFFFFFFFFFFF AND SUB PUSH2 0x3E8 JUMPI PUSH0 DUP1 REVERT JUMPDEST PUSH0 PUSH1 0x5 DUP4 PUSH1 0x40 MLOAD PUSH2 0x3F9 SWAP2 SWAP1 PUSH2 0x13CB JUMP JUMPDEST SWAP1 DUP2 MSTORE PUSH1 0x20 ADD PUSH1 0x40 MLOAD DUP1 SWAP2 SUB SWAP1 KECCAK256 SWAP1 POP PUSH0 DUP2 PUSH0 ADD DUP1 SLOAD PUSH2 0x418 SWAP1 PUSH2 0x1361 JUMP JUMPDEST SWAP1 POP GT PUSH2 0x423 JUMPI PUSH0 DUP1 REVERT JUMPDEST DUP3 MLOAD DUP2 PUSH0 ADD DUP1 SLOAD PUSH2 0x433 SWAP1 PUSH2 0x1361 JUMP JUMPDEST SWAP1 POP EQ PUSH2 0x43E JUMPI PUSH0 DUP1 REVERT JUMPDEST PUSH0 PUSH1 0x2 PUSH0 CALLER PUSH20 0xFFFFFFFFFFFFFFFFFFFFFFFFFFFFFFFFFFFFFFFF AND PUSH20 0xFFFFFFFFFFFFFFFFFFFFFFFFFFFFFFFFFFFFFFFF AND DUP2 MSTORE PUSH1 0x20 ADD SWAP1 DUP2 MSTORE PUSH1 0x20 ADD PUSH0 KECCAK256 SLOAD GT PUSH2 0x486 JUMPI PUSH0 DUP1 REVERT JUMPDEST DUP1 PUSH1 0x6 ADD PUSH0 SWAP1 SLOAD SWAP1 PUSH2 0x100 EXP SWAP1 DIV PUSH1 0xFF AND ISZERO PUSH2 0x4A0 JUMPI PUSH0 DUP1 REVERT JUMPDEST DUP1 PUSH1 0x6 ADD PUSH1 0x1 SWAP1 SLOAD SWAP1 PUSH2 0x100 EXP SWAP1 DIV PUSH1 0xFF AND ISZERO PUSH2 0x4BB JUMPI PUSH0 DUP1 REVERT JUMPDEST DUP1 PUSH1 0x7 ADD PUSH0 CALLER PUSH20 0xFFFFFFFFFFFFFFFFFFFFFFFFFFFFFFFFFFFFFFFF AND PUSH20 0xFFFFFFFFFFFFFFFFFFFFFFFFFFFFFFFFFFFFFFFF AND DUP2 MSTORE PUSH1 0x20 ADD SWAP1 DUP2 MSTORE PUSH1 0x20 ADD PUSH0 KECCAK256 PUSH0 SWAP1 SLOAD SWAP1 PUSH2 0x100 EXP SWAP1 DIV PUSH1 0xFF AND ISZERO PUSH2 0x510 JUMPI PUSH0 DUP1 REVERT JUMPDEST PUSH1 0x1 DUP2 PUSH1 0x7 ADD PUSH0 CALLER PUSH20 0xFFFFFFFFFFFFFFFFFFFFFFFFFFFFFFFFFFFFFFFF AND PUSH20 0xFFFFFFFFFFFFFFFFFFFFFFFFFFFFFFFFFFFFFFFF AND DUP2 MSTORE PUSH1 0x20 ADD SWAP1 DUP2 MSTORE PUSH1 0x20 ADD PUSH0 KECCAK256 PUSH0 PUSH2 0x100 EXP DUP2 SLOAD DUP2 PUSH1 0xFF MUL NOT AND SWAP1 DUP4 ISZERO ISZERO MUL OR SWAP1 SSTORE POP DUP2 ISZERO PUSH2 0x587 JUMPI DUP1 PUSH1 0x4 ADD PUSH0 DUP2 SLOAD DUP1 SWAP3 SWAP2 SWAP1 PUSH2 0x581 SWAP1 PUSH2 0x140E JUMP JUMPDEST SWAP2 SWAP1 POP SSTORE POP JUMPDEST DUP1 PUSH1 0x5 ADD SLOAD DUP2 PUSH1 0x4 ADD SLOAD LT PUSH2 0x5B3 JUMPI PUSH1 0x1 DUP2 PUSH1 0x6 ADD PUSH0 PUSH2 0x100 EXP DUP2 SLOAD DUP2 PUSH1 0xFF MUL NOT AND SWAP1 DUP4 ISZERO ISZERO MUL OR SWAP1 SSTORE POP JUMPDEST POP POP POP JUMP JUMPDEST PUSH2 0x5C0 PUSH2 0xCA3 JUMP JUMPDEST PUSH0 PUSH1 0x40 MLOAD DUP1 PUSH1 0xA0 ADD PUSH1 0x40 MSTORE DUP1 PUSH1 0x1 PUSH0 SWAP1 SLOAD SWAP1 PUSH2 0x100 EXP SWAP1 DIV PUSH20 0xFFFFFFFFFFFFFFFFFFFFFFFFFFFFFFFFFFFFFFFF AND PUSH20 0xFFFFFFFFFFFFFFFFFFFFFFFFFFFFFFFFFFFFFFFF AND DUP2 MSTORE PUSH1 0x20 ADD PUSH0 DUP1 SLOAD PUSH2 0x615 SWAP1 PUSH2 0x1361 JUMP JUMPDEST DUP1 PUSH1 0x1F ADD PUSH1 0x20 DUP1 SWAP2 DIV MUL PUSH1 0x20 ADD PUSH1 0x40 MLOAD SWAP1 DUP2 ADD PUSH1 0x40 MSTORE DUP1 SWAP3 SWAP2 SWAP1 DUP2 DUP2 MSTORE PUSH1 0x20 ADD DUP3 DUP1 SLOAD PUSH2 0x641 SWAP1 PUSH2 0x1361 JUMP JUMPDEST DUP1 ISZERO PUSH2 0x68C JUMPI DUP1 PUSH1 0x1F LT PUSH2 0x663 JUMPI PUSH2 0x100 DUP1 DUP4 SLOAD DIV MUL DUP4 MSTORE SWAP2 PUSH1 0x20 ADD SWAP2 PUSH2 0x68C JUMP JUMPDEST DUP3 ADD SWAP2 SWAP1 PUSH0 MSTORE PUSH1 0x20 PUSH0 KECCAK256 SWAP1 JUMPDEST DUP2 SLOAD DUP2 MSTORE SWAP1 PUSH1 0x1 ADD SWAP1 PUSH1 0x20 ADD DUP1 DUP4 GT PUSH2 0x66F JUMPI DUP3 SWAP1 SUB PUSH1 0x1F AND DUP3 ADD SWAP2 JUMPDEST POP POP POP POP POP DUP2 MSTORE PUSH1 0x20 ADD PUSH1 0x4 SLOAD DUP2 MSTORE PUSH1 0x20 ADD SELFBALANCE DUP2 MSTORE PUSH1 0x20 ADD PUSH1 0x3 SLOAD DUP2 MSTORE POP SWAP1 POP DUP1 SWAP2 POP POP SWAP1 JUMP JUMPDEST PUSH1 0x5 DUP2 DUP1 MLOAD PUSH1 0x20 DUP2 ADD DUP3 ADD DUP1 MLOAD DUP5 DUP3 MSTORE PUSH1 0x20 DUP4 ADD PUSH1 0x20 DUP6 ADD KECCAK256 DUP2 DUP4 MSTORE DUP1 SWAP6 POP POP POP POP POP POP PUSH0 SWAP2 POP SWAP1 POP DUP1 PUSH0 ADD DUP1 SLOAD PUSH2 0x6EA SWAP1 PUSH2 0x1361 JUMP JUMPDEST DUP1 PUSH1 0x1F ADD PUSH1 0x20 DUP1 SWAP2 DIV MUL PUSH1 0x20 ADD PUSH1 0x40 MLOAD SWAP1 DUP2 ADD PUSH1 0x40 MSTORE DUP1 SWAP3 SWAP2 SWAP1 DUP2 DUP2 MSTORE PUSH1 0x20 ADD DUP3 DUP1 SLOAD PUSH2 0x716 SWAP1 PUSH2 0x1361 JUMP JUMPDEST DUP1 ISZERO PUSH2 0x761 JUMPI DUP1 PUSH1 0x1F LT PUSH2 0x738 JUMPI PUSH2 0x100 DUP1 DUP4 SLOAD DIV MUL DUP4 MSTORE SWAP2 PUSH1 0x20 ADD SWAP2 PUSH2 0x761 JUMP JUMPDEST DUP3 ADD SWAP2 SWAP1 PUSH0 MSTORE PUSH1 0x20 PUSH0 KECCAK256 SWAP1 JUMPDEST DUP2 SLOAD DUP2 MSTORE SWAP1 PUSH1 0x1 ADD SWAP1 PUSH1 0x20 ADD DUP1 DUP4 GT PUSH2 0x744 JUMPI DUP3 SWAP1 SUB PUSH1 0x1F AND DUP3 ADD SWAP2 JUMPDEST POP POP POP POP POP SWAP1 DUP1 PUSH1 0x1 ADD DUP1 SLOAD PUSH2 0x776 SWAP1 PUSH2 0x1361 JUMP JUMPDEST DUP1 PUSH1 0x1F ADD PUSH1 0x20 DUP1 SWAP2 DIV MUL PUSH1 0x20 ADD PUSH1 0x40 MLOAD SWAP1 DUP2 ADD PUSH1 0x40 MSTORE DUP1 SWAP3 SWAP2 SWAP1 DUP2 DUP2 MSTORE PUSH1 0x20 ADD DUP3 DUP1 SLOAD PUSH2 0x7A2 SWAP1 PUSH2 0x1361 JUMP JUMPDEST DUP1 ISZERO PUSH2 0x7ED JUMPI DUP1 PUSH1 0x1F LT PUSH2 0x7C4 JUMPI PUSH2 0x100 DUP1 DUP4 SLOAD DIV MUL DUP4 MSTORE SWAP2 PUSH1 0x20 ADD SWAP2 PUSH2 0x7ED JUMP JUMPDEST DUP3 ADD SWAP2 SWAP1 PUSH0 MSTORE PUSH1 0x20 PUSH0 KECCAK256 SWAP1 JUMPDEST DUP2 SLOAD DUP2 MSTORE SWAP1 PUSH1 0x1 ADD SWAP1 PUSH1 0x20 ADD DUP1 DUP4 GT PUSH2 0x7D0 JUMPI DUP3 SWAP1 SUB PUSH1 0x1F AND DUP3 ADD SWAP2 JUMPDEST POP POP POP POP POP SWAP1 DUP1 PUSH1 0x2 ADD SLOAD SWAP1 DUP1 PUSH1 0x3 ADD PUSH0 SWAP1 SLOAD SWAP1 PUSH2 0x100 EXP SWAP1 DIV PUSH20 0xFFFFFFFFFFFFFFFFFFFFFFFFFFFFFFFFFFFFFFFF AND SWAP1 DUP1 PUSH1 0x4 ADD SLOAD SWAP1 DUP1 PUSH1 0x5 ADD SLOAD SWAP1 DUP1 PUSH1 0x6 ADD PUSH0 SWAP1 SLOAD SWAP1 PUSH2 0x100 EXP SWAP1 DIV PUSH1 0xFF AND SWAP1 DUP1 PUSH1 0x6 ADD PUSH1 0x1 SWAP1 SLOAD SWAP1 PUSH2 0x100 EXP SWAP1 DIV PUSH1 0xFF AND SWAP1 POP DUP9 JUMP JUMPDEST PUSH0 PUSH8 0xDE0B6B3A7640000 SELFBALANCE PUSH2 0x868 SWAP2 SWAP1 PUSH2 0x1482 JUMP JUMPDEST SWAP1 POP SWAP1 JUMP JUMPDEST PUSH1 0x1 PUSH0 SWAP1 SLOAD SWAP1 PUSH2 0x100 EXP SWAP1 DIV PUSH20 0xFFFFFFFFFFFFFFFFFFFFFFFFFFFFFFFFFFFFFFFF AND PUSH20 0xFFFFFFFFFFFFFFFFFFFFFFFFFFFFFFFFFFFFFFFF AND CALLER PUSH20 0xFFFFFFFFFFFFFFFFFFFFFFFFFFFFFFFFFFFFFFFF AND EQ PUSH2 0x8C5 JUMPI PUSH0 DUP1 REVERT JUMPDEST PUSH0 DUP6 MLOAD GT PUSH2 0x8D1 JUMPI PUSH0 DUP1 REVERT JUMPDEST PUSH0 DUP5 MLOAD GT PUSH2 0x8DD JUMPI PUSH0 DUP1 REVERT JUMPDEST PUSH0 DUP4 GT PUSH2 0x8E8 JUMPI PUSH0 DUP1 REVERT JUMPDEST PUSH8 0xDE0B6B3A7640000 SELFBALANCE PUSH2 0x8FC SWAP2 SWAP1 PUSH2 0x1482 JUMP JUMPDEST DUP4 GT ISZERO PUSH2 0x907 JUMPI PUSH0 DUP1 REVERT JUMPDEST PUSH0 DUP3 GT PUSH2 0x912 JUMPI PUSH0 DUP1 REVERT JUMPDEST PUSH1 0x3 SLOAD DUP3 GT ISZERO PUSH2 0x920 JUMPI PUSH0 DUP1 REVERT JUMPDEST PUSH0 PUSH1 0x5 DUP7 PUSH1 0x40 MLOAD PUSH2 0x931 SWAP2 SWAP1 PUSH2 0x13CB JUMP JUMPDEST SWAP1 DUP2 MSTORE PUSH1 0x20 ADD PUSH1 0x40 MLOAD DUP1 SWAP2 SUB SWAP1 KECCAK256 SWAP1 POP DUP6 DUP2 PUSH0 ADD SWAP1 DUP2 PUSH2 0x951 SWAP2 SWAP1 PUSH2 0x164F JUMP JUMPDEST POP DUP5 DUP2 PUSH1 0x1 ADD SWAP1 DUP2 PUSH2 0x963 SWAP2 SWAP1 PUSH2 0x164F JUMP JUMPDEST POP DUP4 DUP2 PUSH1 0x2 ADD DUP2 SWAP1 SSTORE POP DUP2 DUP2 PUSH1 0x3 ADD PUSH0 PUSH2 0x100 EXP DUP2 SLOAD DUP2 PUSH20 0xFFFFFFFFFFFFFFFFFFFFFFFFFFFFFFFFFFFFFFFF MUL NOT AND SWAP1 DUP4 PUSH20 0xFFFFFFFFFFFFFFFFFFFFFFFFFFFFFFFFFFFFFFFF AND MUL OR SWAP1 SSTORE POP PUSH0 DUP2 PUSH1 0x4 ADD DUP2 SWAP1 SSTORE POP DUP3 DUP2 PUSH1 0x5 ADD DUP2 SWAP1 SSTORE POP PUSH0 DUP2 PUSH1 0x6 ADD PUSH1 0x1 PUSH2 0x100 EXP DUP2 SLOAD DUP2 PUSH1 0xFF MUL NOT AND SWAP1 DUP4 ISZERO ISZERO MUL OR SWAP1 SSTORE POP POP POP POP POP POP POP JUMP JUMPDEST PUSH0 PUSH1 0x3 SLOAD SWAP1 POP SWAP1 JUMP JUMPDEST PUSH0 PUSH1 0x3 SLOAD SWAP1 POP SWAP1 JUMP JUMPDEST PUSH0 PUSH1 0x1 PUSH0 SWAP1 SLOAD SWAP1 PUSH2 0x100 EXP SWAP1 DIV PUSH20 0xFFFFFFFFFFFFFFFFFFFFFFFFFFFFFFFFFFFFFFFF AND SWAP1 POP SWAP1 JUMP JUMPDEST PUSH1 0x4 SLOAD PUSH8 0xDE0B6B3A7640000 CALLVALUE PUSH2 0xA36 SWAP2 SWAP1 PUSH2 0x1482 JUMP JUMPDEST LT ISZERO PUSH2 0xA40 JUMPI PUSH0 DUP1 REVERT JUMPDEST PUSH0 PUSH1 0x2 PUSH0 CALLER PUSH20 0xFFFFFFFFFFFFFFFFFFFFFFFFFFFFFFFFFFFFFFFF AND PUSH20 0xFFFFFFFFFFFFFFFFFFFFFFFFFFFFFFFFFFFFFFFF AND DUP2 MSTORE PUSH1 0x20 ADD SWAP1 DUP2 MSTORE PUSH1 0x20 ADD PUSH0 KECCAK256 SLOAD EQ PUSH2 0xA88 JUMPI PUSH0 DUP1 REVERT JUMPDEST PUSH8 0xDE0B6B3A7640000 CALLVALUE PUSH2 0xA9C SWAP2 SWAP1 PUSH2 0x1482 JUMP JUMPDEST PUSH1 0x2 PUSH0 CALLER PUSH20 0xFFFFFFFFFFFFFFFFFFFFFFFFFFFFFFFFFFFFFFFF AND PUSH20 0xFFFFFFFFFFFFFFFFFFFFFFFFFFFFFFFFFFFFFFFF AND DUP2 MSTORE PUSH1 0x20 ADD SWAP1 DUP2 MSTORE PUSH1 0x20 ADD PUSH0 KECCAK256 DUP2 SWAP1 SSTORE POP PUSH1 0x3 PUSH0 DUP2 SLOAD DUP1 SWAP3 SWAP2 SWAP1 PUSH2 0xAEF SWAP1 PUSH2 0x140E JUMP JUMPDEST SWAP2 SWAP1 POP SSTORE POP JUMP JUMPDEST PUSH1 0x1 PUSH0 SWAP1 SLOAD SWAP1 PUSH2 0x100 EXP SWAP1 DIV PUSH20 0xFFFFFFFFFFFFFFFFFFFFFFFFFFFFFFFFFFFFFFFF AND PUSH20 0xFFFFFFFFFFFFFFFFFFFFFFFFFFFFFFFFFFFFFFFF AND CALLER PUSH20 0xFFFFFFFFFFFFFFFFFFFFFFFFFFFFFFFFFFFFFFFF AND EQ PUSH2 0xB4E JUMPI PUSH0 DUP1 REVERT JUMPDEST PUSH0 PUSH1 0x5 DUP3 PUSH1 0x40 MLOAD PUSH2 0xB5F SWAP2 SWAP1 PUSH2 0x13CB JUMP JUMPDEST SWAP1 DUP2 MSTORE PUSH1 0x20 ADD PUSH1 0x40 MLOAD DUP1 SWAP2 SUB SWAP1 KECCAK256 SWAP1 POP PUSH0 DUP2 PUSH0 ADD DUP1 SLOAD PUSH2 0xB7E SWAP1 PUSH2 0x1361 JUMP JUMPDEST SWAP1 POP GT PUSH2 0xB89 JUMPI PUSH0 DUP1 REVERT JUMPDEST DUP2 MLOAD DUP2 PUSH0 ADD DUP1 SLOAD PUSH2 0xB99 SWAP1 PUSH2 0x1361 JUMP JUMPDEST SWAP1 POP EQ PUSH2 0xBA4 JUMPI PUSH0 DUP1 REVERT JUMPDEST DUP1 PUSH1 0x6 ADD PUSH0 SWAP1 SLOAD SWAP1 PUSH2 0x100 EXP SWAP1 DIV PUSH1 0xFF AND DUP1 ISZERO PUSH2 0xBD0 JUMPI POP DUP1 PUSH1 0x6 ADD PUSH1 0x1 SWAP1 SLOAD SWAP1 PUSH2 0x100 EXP SWAP1 DIV PUSH1 0xFF AND ISZERO JUMPDEST PUSH2 0xBD8 JUMPI PUSH0 DUP1 REVERT JUMPDEST DUP1 PUSH1 0x2 ADD SLOAD PUSH8 0xDE0B6B3A7640000 SELFBALANCE PUSH2 0xBF1 SWAP2 SWAP1 PUSH2 0x1482 JUMP JUMPDEST LT ISZERO PUSH2 0xBFB JUMPI PUSH0 DUP1 REVERT JUMPDEST DUP1 PUSH1 0x3 ADD PUSH0 SWAP1 SLOAD SWAP1 PUSH2 0x100 EXP SWAP1 DIV PUSH20 0xFFFFFFFFFFFFFFFFFFFFFFFFFFFFFFFFFFFFFFFF AND PUSH20 0xFFFFFFFFFFFFFFFFFFFFFFFFFFFFFFFFFFFFFFFF AND PUSH2 0x8FC PUSH8 0xDE0B6B3A7640000 DUP4 PUSH1 0x2 ADD SLOAD PUSH2 0xC50 SWAP2 SWAP1 PUSH2 0x171E JUMP JUMPDEST SWAP1 DUP2 ISZERO MUL SWAP1 PUSH1 0x40 MLOAD PUSH0 PUSH1 0x40 MLOAD DUP1 DUP4 SUB DUP2 DUP6 DUP9 DUP9 CALL SWAP4 POP POP POP POP ISZERO DUP1 ISZERO PUSH2 0xC78 JUMPI RETURNDATASIZE PUSH0 DUP1 RETURNDATACOPY RETURNDATASIZE PUSH0 REVERT JUMPDEST POP PUSH1 0x1 DUP2 PUSH1 0x6 ADD PUSH1 0x1 PUSH2 0x100 EXP DUP2 SLOAD DUP2 PUSH1 0xFF MUL NOT AND SWAP1 DUP4 ISZERO ISZERO MUL OR SWAP1 SSTORE POP POP POP JUMP JUMPDEST PUSH0 PUSH1 0x4 SLOAD SWAP1 POP SWAP1 JUMP JUMPDEST PUSH1 0x40 MLOAD DUP1 PUSH1 0xA0 ADD PUSH1 0x40 MSTORE DUP1 PUSH0 PUSH20 0xFFFFFFFFFFFFFFFFFFFFFFFFFFFFFFFFFFFFFFFF AND DUP2 MSTORE PUSH1 0x20 ADD PUSH1 0x60 DUP2 MSTORE PUSH1 0x20 ADD PUSH0 DUP2 MSTORE PUSH1 0x20 ADD PUSH0 DUP2 MSTORE PUSH1 0x20 ADD PUSH0 DUP2 MSTORE POP SWAP1 JUMP JUMPDEST PUSH0 PUSH1 0x40 MLOAD SWAP1 POP SWAP1 JUMP JUMPDEST PUSH0 DUP1 REVERT JUMPDEST PUSH0 DUP1 REVERT JUMPDEST PUSH0 PUSH20 0xFFFFFFFFFFFFFFFFFFFFFFFFFFFFFFFFFFFFFFFF DUP3 AND SWAP1 POP SWAP2 SWAP1 POP JUMP JUMPDEST PUSH0 PUSH2 0xD1E DUP3 PUSH2 0xCF5 JUMP JUMPDEST SWAP1 POP SWAP2 SWAP1 POP JUMP JUMPDEST PUSH2 0xD2E DUP2 PUSH2 0xD14 JUMP JUMPDEST DUP2 EQ PUSH2 0xD38 JUMPI PUSH0 DUP1 REVERT JUMPDEST POP JUMP JUMPDEST PUSH0 DUP2 CALLDATALOAD SWAP1 POP PUSH2 0xD49 DUP2 PUSH2 0xD25 JUMP JUMPDEST SWAP3 SWAP2 POP POP JUMP JUMPDEST PUSH0 PUSH1 0x20 DUP3 DUP5 SUB SLT ISZERO PUSH2 0xD64 JUMPI PUSH2 0xD63 PUSH2 0xCED JUMP JUMPDEST JUMPDEST PUSH0 PUSH2 0xD71 DUP5 DUP3 DUP6 ADD PUSH2 0xD3B JUMP JUMPDEST SWAP2 POP POP SWAP3 SWAP2 POP POP JUMP JUMPDEST PUSH0 DUP2 SWAP1 POP SWAP2 SWAP1 POP JUMP JUMPDEST PUSH2 0xD8C DUP2 PUSH2 0xD7A JUMP JUMPDEST DUP3 MSTORE POP POP JUMP JUMPDEST PUSH0 PUSH1 0x20 DUP3 ADD SWAP1 POP PUSH2 0xDA5 PUSH0 DUP4 ADD DUP5 PUSH2 0xD83 JUMP JUMPDEST SWAP3 SWAP2 POP POP JUMP JUMPDEST PUSH0 DUP2 MLOAD SWAP1 POP SWAP2 SWAP1 POP JUMP JUMPDEST PUSH0 DUP3 DUP3 MSTORE PUSH1 0x20 DUP3 ADD SWAP1 POP SWAP3 SWAP2 POP POP JUMP JUMPDEST PUSH0 JUMPDEST DUP4 DUP2 LT ISZERO PUSH2 0xDE2 JUMPI DUP1 DUP3 ADD MLOAD DUP2 DUP5 ADD MSTORE PUSH1 0x20 DUP2 ADD SWAP1 POP PUSH2 0xDC7 JUMP JUMPDEST PUSH0 DUP5 DUP5 ADD MSTORE POP POP POP POP JUMP JUMPDEST PUSH0 PUSH1 0x1F NOT PUSH1 0x1F DUP4 ADD AND SWAP1 POP SWAP2 SWAP1 POP JUMP JUMPDEST PUSH0 PUSH2 0xE07 DUP3 PUSH2 0xDAB JUMP JUMPDEST PUSH2 0xE11 DUP2 DUP6 PUSH2 0xDB5 JUMP JUMPDEST SWAP4 POP PUSH2 0xE21 DUP2 DUP6 PUSH1 0x20 DUP7 ADD PUSH2 0xDC5 JUMP JUMPDEST PUSH2 0xE2A DUP2 PUSH2 0xDED JUMP JUMPDEST DUP5 ADD SWAP2 POP POP SWAP3 SWAP2 POP POP JUMP JUMPDEST PUSH0 PUSH1 0x20 DUP3 ADD SWAP1 POP DUP2 DUP2 SUB PUSH0 DUP4 ADD MSTORE PUSH2 0xE4D DUP2 DUP5 PUSH2 0xDFD JUMP JUMPDEST SWAP1 POP SWAP3 SWAP2 POP POP JUMP JUMPDEST PUSH0 DUP1 REVERT JUMPDEST PUSH0 DUP1 REVERT JUMPDEST PUSH32 0x4E487B7100000000000000000000000000000000000000000000000000000000 PUSH0 MSTORE PUSH1 0x41 PUSH1 0x4 MSTORE PUSH1 0x24 PUSH0 REVERT JUMPDEST PUSH2 0xE93 DUP3 PUSH2 0xDED JUMP JUMPDEST DUP2 ADD DUP2 DUP2 LT PUSH8 0xFFFFFFFFFFFFFFFF DUP3 GT OR ISZERO PUSH2 0xEB2 JUMPI PUSH2 0xEB1 PUSH2 0xE5D JUMP JUMPDEST JUMPDEST DUP1 PUSH1 0x40 MSTORE POP POP POP JUMP JUMPDEST PUSH0 PUSH2 0xEC4 PUSH2 0xCE4 JUMP JUMPDEST SWAP1 POP PUSH2 0xED0 DUP3 DUP3 PUSH2 0xE8A JUMP JUMPDEST SWAP2 SWAP1 POP JUMP JUMPDEST PUSH0 PUSH8 0xFFFFFFFFFFFFFFFF DUP3 GT ISZERO PUSH2 0xEEF JUMPI PUSH2 0xEEE PUSH2 0xE5D JUMP JUMPDEST JUMPDEST PUSH2 0xEF8 DUP3 PUSH2 0xDED JUMP JUMPDEST SWAP1 POP PUSH1 0x20 DUP2 ADD SWAP1 POP SWAP2 SWAP1 POP JUMP JUMPDEST DUP3 DUP2 DUP4 CALLDATACOPY PUSH0 DUP4 DUP4 ADD MSTORE POP POP POP JUMP JUMPDEST PUSH0 PUSH2 0xF25 PUSH2 0xF20 DUP5 PUSH2 0xED5 JUMP JUMPDEST PUSH2 0xEBB JUMP JUMPDEST SWAP1 POP DUP3 DUP2 MSTORE PUSH1 0x20 DUP2 ADD DUP5 DUP5 DUP5 ADD GT ISZERO PUSH2 0xF41 JUMPI PUSH2 0xF40 PUSH2 0xE59 JUMP JUMPDEST JUMPDEST PUSH2 0xF4C DUP5 DUP3 DUP6 PUSH2 0xF05 JUMP JUMPDEST POP SWAP4 SWAP3 POP POP POP JUMP JUMPDEST PUSH0 DUP3 PUSH1 0x1F DUP4 ADD SLT PUSH2 0xF68 JUMPI PUSH2 0xF67 PUSH2 0xE55 JUMP JUMPDEST JUMPDEST DUP2 CALLDATALOAD PUSH2 0xF78 DUP5 DUP3 PUSH1 0x20 DUP7 ADD PUSH2 0xF13 JUMP JUMPDEST SWAP2 POP POP SWAP3 SWAP2 POP POP JUMP JUMPDEST PUSH0 DUP2 ISZERO ISZERO SWAP1 POP SWAP2 SWAP1 POP JUMP JUMPDEST PUSH2 0xF95 DUP2 PUSH2 0xF81 JUMP JUMPDEST DUP2 EQ PUSH2 0xF9F JUMPI PUSH0 DUP1 REVERT JUMPDEST POP JUMP JUMPDEST PUSH0 DUP2 CALLDATALOAD SWAP1 POP PUSH2 0xFB0 DUP2 PUSH2 0xF8C JUMP JUMPDEST SWAP3 SWAP2 POP POP JUMP JUMPDEST PUSH0 DUP1 PUSH1 0x40 DUP4 DUP6 SUB SLT ISZERO PUSH2 0xFCC JUMPI PUSH2 0xFCB PUSH2 0xCED JUMP JUMPDEST JUMPDEST PUSH0 DUP4 ADD CALLDATALOAD PUSH8 0xFFFFFFFFFFFFFFFF DUP2 GT ISZERO PUSH2 0xFE9 JUMPI PUSH2 0xFE8 PUSH2 0xCF1 JUMP JUMPDEST JUMPDEST PUSH2 0xFF5 DUP6 DUP3 DUP7 ADD PUSH2 0xF54 JUMP JUMPDEST SWAP3 POP POP PUSH1 0x20 PUSH2 0x1006 DUP6 DUP3 DUP7 ADD PUSH2 0xFA2 JUMP JUMPDEST SWAP2 POP POP SWAP3 POP SWAP3 SWAP1 POP JUMP JUMPDEST PUSH2 0x1019 DUP2 PUSH2 0xD14 JUMP JUMPDEST DUP3 MSTORE POP POP JUMP JUMPDEST PUSH0 DUP3 DUP3 MSTORE PUSH1 0x20 DUP3 ADD SWAP1 POP SWAP3 SWAP2 POP POP JUMP JUMPDEST PUSH0 PUSH2 0x1039 DUP3 PUSH2 0xDAB JUMP JUMPDEST PUSH2 0x1043 DUP2 DUP6 PUSH2 0x101F JUMP JUMPDEST SWAP4 POP PUSH2 0x1053 DUP2 DUP6 PUSH1 0x20 DUP7 ADD PUSH2 0xDC5 JUMP JUMPDEST PUSH2 0x105C DUP2 PUSH2 0xDED JUMP JUMPDEST DUP5 ADD SWAP2 POP POP SWAP3 SWAP2 POP POP JUMP JUMPDEST PUSH2 0x1070 DUP2 PUSH2 0xD7A JUMP JUMPDEST DUP3 MSTORE POP POP JUMP JUMPDEST PUSH0 PUSH1 0xA0 DUP4 ADD PUSH0 DUP4 ADD MLOAD PUSH2 0x108B PUSH0 DUP7 ADD DUP3 PUSH2 0x1010 JUMP JUMPDEST POP PUSH1 0x20 DUP4 ADD MLOAD DUP5 DUP3 SUB PUSH1 0x20 DUP7 ADD MSTORE PUSH2 0x10A3 DUP3 DUP3 PUSH2 0x102F JUMP JUMPDEST SWAP2 POP POP PUSH1 0x40 DUP4 ADD MLOAD PUSH2 0x10B8 PUSH1 0x40 DUP7 ADD DUP3 PUSH2 0x1067 JUMP JUMPDEST POP PUSH1 0x60 DUP4 ADD MLOAD PUSH2 0x10CB PUSH1 0x60 DUP7 ADD DUP3 PUSH2 0x1067 JUMP JUMPDEST POP PUSH1 0x80 DUP4 ADD MLOAD PUSH2 0x10DE PUSH1 0x80 DUP7 ADD DUP3 PUSH2 0x1067 JUMP JUMPDEST POP DUP1 SWAP2 POP POP SWAP3 SWAP2 POP POP JUMP JUMPDEST PUSH0 PUSH1 0x20 DUP3 ADD SWAP1 POP DUP2 DUP2 SUB PUSH0 DUP4 ADD MSTORE PUSH2 0x1101 DUP2 DUP5 PUSH2 0x1076 JUMP JUMPDEST SWAP1 POP SWAP3 SWAP2 POP POP JUMP JUMPDEST PUSH0 PUSH1 0x20 DUP3 DUP5 SUB SLT ISZERO PUSH2 0x111E JUMPI PUSH2 0x111D PUSH2 0xCED JUMP JUMPDEST JUMPDEST PUSH0 DUP3 ADD CALLDATALOAD PUSH8 0xFFFFFFFFFFFFFFFF DUP2 GT ISZERO PUSH2 0x113B JUMPI PUSH2 0x113A PUSH2 0xCF1 JUMP JUMPDEST JUMPDEST PUSH2 0x1147 DUP5 DUP3 DUP6 ADD PUSH2 0xF54 JUMP JUMPDEST SWAP2 POP POP SWAP3 SWAP2 POP POP JUMP JUMPDEST PUSH0 PUSH2 0x115A DUP3 PUSH2 0xCF5 JUMP JUMPDEST SWAP1 POP SWAP2 SWAP1 POP JUMP JUMPDEST PUSH2 0x116A DUP2 PUSH2 0x1150 JUMP JUMPDEST DUP3 MSTORE POP POP JUMP JUMPDEST PUSH2 0x1179 DUP2 PUSH2 0xF81 JUMP JUMPDEST DUP3 MSTORE POP POP JUMP JUMPDEST PUSH0 PUSH2 0x100 DUP3 ADD SWAP1 POP DUP2 DUP2 SUB PUSH0 DUP4 ADD MSTORE PUSH2 0x1198 DUP2 DUP12 PUSH2 0xDFD JUMP JUMPDEST SWAP1 POP DUP2 DUP2 SUB PUSH1 0x20 DUP4 ADD MSTORE PUSH2 0x11AC DUP2 DUP11 PUSH2 0xDFD JUMP JUMPDEST SWAP1 POP PUSH2 0x11BB PUSH1 0x40 DUP4 ADD DUP10 PUSH2 0xD83 JUMP JUMPDEST PUSH2 0x11C8 PUSH1 0x60 DUP4 ADD DUP9 PUSH2 0x1161 JUMP JUMPDEST PUSH2 0x11D5 PUSH1 0x80 DUP4 ADD DUP8 PUSH2 0xD83 JUMP JUMPDEST PUSH2 0x11E2 PUSH1 0xA0 DUP4 ADD DUP7 PUSH2 0xD83 JUMP JUMPDEST PUSH2 0x11EF PUSH1 0xC0 DUP4 ADD DUP6 PUSH2 0x1170 JUMP JUMPDEST PUSH2 0x11FC PUSH1 0xE0 DUP4 ADD DUP5 PUSH2 0x1170 JUMP JUMPDEST SWAP10 SWAP9 POP POP POP POP POP POP POP POP POP JUMP JUMPDEST PUSH2 0x1212 DUP2 PUSH2 0xD7A JUMP JUMPDEST DUP2 EQ PUSH2 0x121C JUMPI PUSH0 DUP1 REVERT JUMPDEST POP JUMP JUMPDEST PUSH0 DUP2 CALLDATALOAD SWAP1 POP PUSH2 0x122D DUP2 PUSH2 0x1209 JUMP JUMPDEST SWAP3 SWAP2 POP POP JUMP JUMPDEST PUSH2 0x123C DUP2 PUSH2 0x1150 JUMP JUMPDEST DUP2 EQ PUSH2 0x1246 JUMPI PUSH0 DUP1 REVERT JUMPDEST POP JUMP JUMPDEST PUSH0 DUP2 CALLDATALOAD SWAP1 POP PUSH2 0x1257 DUP2 PUSH2 0x1233 JUMP JUMPDEST SWAP3 SWAP2 POP POP JUMP JUMPDEST PUSH0 DUP1 PUSH0 DUP1 PUSH0 PUSH1 0xA0 DUP7 DUP9 SUB SLT ISZERO PUSH2 0x1276 JUMPI PUSH2 0x1275 PUSH2 0xCED JUMP JUMPDEST JUMPDEST PUSH0 DUP7 ADD CALLDATALOAD PUSH8 0xFFFFFFFFFFFFFFFF DUP2 GT ISZERO PUSH2 0x1293 JUMPI PUSH2 0x1292 PUSH2 0xCF1 JUMP JUMPDEST JUMPDEST PUSH2 0x129F DUP9 DUP3 DUP10 ADD PUSH2 0xF54 JUMP JUMPDEST SWAP6 POP POP PUSH1 0x20 DUP7 ADD CALLDATALOAD PUSH8 0xFFFFFFFFFFFFFFFF DUP2 GT ISZERO PUSH2 0x12C0 JUMPI PUSH2 0x12BF PUSH2 0xCF1 JUMP JUMPDEST JUMPDEST PUSH2 0x12CC DUP9 DUP3 DUP10 ADD PUSH2 0xF54 JUMP JUMPDEST SWAP5 POP POP PUSH1 0x40 PUSH2 0x12DD DUP9 DUP3 DUP10 ADD PUSH2 0x121F JUMP JUMPDEST SWAP4 POP POP PUSH1 0x60 PUSH2 0x12EE DUP9 DUP3 DUP10 ADD PUSH2 0x121F JUMP JUMPDEST SWAP3 POP POP PUSH1 0x80 PUSH2 0x12FF DUP9 DUP3 DUP10 ADD PUSH2 0x1249 JUMP JUMPDEST SWAP2 POP POP SWAP3 SWAP6 POP SWAP3 SWAP6 SWAP1 SWAP4 POP JUMP JUMPDEST PUSH2 0x1315 DUP2 PUSH2 0xD14 JUMP JUMPDEST DUP3 MSTORE POP POP JUMP JUMPDEST PUSH0 PUSH1 0x20 DUP3 ADD SWAP1 POP PUSH2 0x132E PUSH0 DUP4 ADD DUP5 PUSH2 0x130C JUMP JUMPDEST SWAP3 SWAP2 POP POP JUMP JUMPDEST PUSH32 0x4E487B7100000000000000000000000000000000000000000000000000000000 PUSH0 MSTORE PUSH1 0x22 PUSH1 0x4 MSTORE PUSH1 0x24 PUSH0 REVERT JUMPDEST PUSH0 PUSH1 0x2 DUP3 DIV SWAP1 POP PUSH1 0x1 DUP3 AND DUP1 PUSH2 0x1378 JUMPI PUSH1 0x7F DUP3 AND SWAP2 POP JUMPDEST PUSH1 0x20 DUP3 LT DUP2 SUB PUSH2 0x138B JUMPI PUSH2 0x138A PUSH2 0x1334 JUMP JUMPDEST JUMPDEST POP SWAP2 SWAP1 POP JUMP JUMPDEST PUSH0 DUP2 SWAP1 POP SWAP3 SWAP2 POP POP JUMP JUMPDEST PUSH0 PUSH2 0x13A5 DUP3 PUSH2 0xDAB JUMP JUMPDEST PUSH2 0x13AF DUP2 DUP6 PUSH2 0x1391 JUMP JUMPDEST SWAP4 POP PUSH2 0x13BF DUP2 DUP6 PUSH1 0x20 DUP7 ADD PUSH2 0xDC5 JUMP JUMPDEST DUP1 DUP5 ADD SWAP2 POP POP SWAP3 SWAP2 POP POP JUMP JUMPDEST PUSH0 PUSH2 0x13D6 DUP3 DUP5 PUSH2 0x139B JUMP JUMPDEST SWAP2 POP DUP2 SWAP1 POP SWAP3 SWAP2 POP POP JUMP JUMPDEST PUSH32 0x4E487B7100000000000000000000000000000000000000000000000000000000 PUSH0 MSTORE PUSH1 0x11 PUSH1 0x4 MSTORE PUSH1 0x24 PUSH0 REVERT JUMPDEST PUSH0 PUSH2 0x1418 DUP3 PUSH2 0xD7A JUMP JUMPDEST SWAP2 POP PUSH32 0xFFFFFFFFFFFFFFFFFFFFFFFFFFFFFFFFFFFFFFFFFFFFFFFFFFFFFFFFFFFFFFFF DUP3 SUB PUSH2 0x144A JUMPI PUSH2 0x1449 PUSH2 0x13E1 JUMP JUMPDEST JUMPDEST PUSH1 0x1 DUP3 ADD SWAP1 POP SWAP2 SWAP1 POP JUMP JUMPDEST PUSH32 0x4E487B7100000000000000000000000000000000000000000000000000000000 PUSH0 MSTORE PUSH1 0x12 PUSH1 0x4 MSTORE PUSH1 0x24 PUSH0 REVERT JUMPDEST PUSH0 PUSH2 0x148C DUP3 PUSH2 0xD7A JUMP JUMPDEST SWAP2 POP PUSH2 0x1497 DUP4 PUSH2 0xD7A JUMP JUMPDEST SWAP3 POP DUP3 PUSH2 0x14A7 JUMPI PUSH2 0x14A6 PUSH2 0x1455 JUMP JUMPDEST JUMPDEST DUP3 DUP3 DIV SWAP1 POP SWAP3 SWAP2 POP POP JUMP JUMPDEST PUSH0 DUP2 SWAP1 POP DUP2 PUSH0 MSTORE PUSH1 0x20 PUSH0 KECCAK256 SWAP1 POP SWAP2 SWAP1 POP JUMP JUMPDEST PUSH0 PUSH1 0x20 PUSH1 0x1F DUP4 ADD DIV SWAP1 POP SWAP2 SWAP1 POP JUMP JUMPDEST PUSH0 DUP3 DUP3 SHL SWAP1 POP SWAP3 SWAP2 POP POP JUMP JUMPDEST PUSH0 PUSH1 0x8 DUP4 MUL PUSH2 0x150E PUSH32 0xFFFFFFFFFFFFFFFFFFFFFFFFFFFFFFFFFFFFFFFFFFFFFFFFFFFFFFFFFFFFFFFF DUP3 PUSH2 0x14D3 JUMP JUMPDEST PUSH2 0x1518 DUP7 DUP4 PUSH2 0x14D3 JUMP JUMPDEST SWAP6 POP DUP1 NOT DUP5 AND SWAP4 POP DUP1 DUP7 AND DUP5 OR SWAP3 POP POP POP SWAP4 SWAP3 POP POP POP JUMP JUMPDEST PUSH0 DUP2 SWAP1 POP SWAP2 SWAP1 POP JUMP JUMPDEST PUSH0 PUSH2 0x1553 PUSH2 0x154E PUSH2 0x1549 DUP5 PUSH2 0xD7A JUMP JUMPDEST PUSH2 0x1530 JUMP JUMPDEST PUSH2 0xD7A JUMP JUMPDEST SWAP1 POP SWAP2 SWAP1 POP JUMP JUMPDEST PUSH0 DUP2 SWAP1 POP SWAP2 SWAP1 POP JUMP JUMPDEST PUSH2 0x156C DUP4 PUSH2 0x1539 JUMP JUMPDEST PUSH2 0x1580 PUSH2 0x1578 DUP3 PUSH2 0x155A JUMP JUMPDEST DUP5 DUP5 SLOAD PUSH2 0x14DF JUMP JUMPDEST DUP3 SSTORE POP POP POP POP JUMP JUMPDEST PUSH0 SWAP1 JUMP JUMPDEST PUSH2 0x1594 PUSH2 0x1588 JUMP JUMPDEST PUSH2 0x159F DUP2 DUP5 DUP5 PUSH2 0x1563 JUMP JUMPDEST POP POP POP JUMP JUMPDEST JUMPDEST DUP2 DUP2 LT ISZERO PUSH2 0x15C2 JUMPI PUSH2 0x15B7 PUSH0 DUP3 PUSH2 0x158C JUMP JUMPDEST PUSH1 0x1 DUP2 ADD SWAP1 POP PUSH2 0x15A5 JUMP JUMPDEST POP POP JUMP JUMPDEST PUSH1 0x1F DUP3 GT ISZERO PUSH2 0x1607 JUMPI PUSH2 0x15D8 DUP2 PUSH2 0x14B2 JUMP JUMPDEST PUSH2 0x15E1 DUP5 PUSH2 0x14C4 JUMP JUMPDEST DUP2 ADD PUSH1 0x20 DUP6 LT ISZERO PUSH2 0x15F0 JUMPI DUP2 SWAP1 POP JUMPDEST PUSH2 0x1604 PUSH2 0x15FC DUP6 PUSH2 0x14C4 JUMP JUMPDEST DUP4 ADD DUP3 PUSH2 0x15A4 JUMP JUMPDEST POP POP JUMPDEST POP POP POP JUMP JUMPDEST PUSH0 DUP3 DUP3 SHR SWAP1 POP SWAP3 SWAP2 POP POP JUMP JUMPDEST PUSH0 PUSH2 0x1627 PUSH0 NOT DUP5 PUSH1 0x8 MUL PUSH2 0x160C JUMP JUMPDEST NOT DUP1 DUP4 AND SWAP2 POP POP SWAP3 SWAP2 POP POP JUMP JUMPDEST PUSH0 PUSH2 0x163F DUP4 DUP4 PUSH2 0x1618 JUMP JUMPDEST SWAP2 POP DUP3 PUSH1 0x2 MUL DUP3 OR SWAP1 POP SWAP3 SWAP2 POP POP JUMP JUMPDEST PUSH2 0x1658 DUP3 PUSH2 0xDAB JUMP JUMPDEST PUSH8 0xFFFFFFFFFFFFFFFF DUP2 GT ISZERO PUSH2 0x1671 JUMPI PUSH2 0x1670 PUSH2 0xE5D JUMP JUMPDEST JUMPDEST PUSH2 0x167B DUP3 SLOAD PUSH2 0x1361 JUMP JUMPDEST PUSH2 0x1686 DUP3 DUP3 DUP6 PUSH2 0x15C6 JUMP JUMPDEST PUSH0 PUSH1 0x20 SWAP1 POP PUSH1 0x1F DUP4 GT PUSH1 0x1 DUP2 EQ PUSH2 0x16B7 JUMPI PUSH0 DUP5 ISZERO PUSH2 0x16A5 JUMPI DUP3 DUP8 ADD MLOAD SWAP1 POP JUMPDEST PUSH2 0x16AF DUP6 DUP3 PUSH2 0x1634 JUMP JUMPDEST DUP7 SSTORE POP PUSH2 0x1716 JUMP JUMPDEST PUSH1 0x1F NOT DUP5 AND PUSH2 0x16C5 DUP7 PUSH2 0x14B2 JUMP JUMPDEST PUSH0 JUMPDEST DUP3 DUP2 LT ISZERO PUSH2 0x16EC JUMPI DUP5 DUP10 ADD MLOAD DUP3 SSTORE PUSH1 0x1 DUP3 ADD SWAP2 POP PUSH1 0x20 DUP6 ADD SWAP5 POP PUSH1 0x20 DUP2 ADD SWAP1 POP PUSH2 0x16C7 JUMP JUMPDEST DUP7 DUP4 LT ISZERO PUSH2 0x1709 JUMPI DUP5 DUP10 ADD MLOAD PUSH2 0x1705 PUSH1 0x1F DUP10 AND DUP3 PUSH2 0x1618 JUMP JUMPDEST DUP4 SSTORE POP JUMPDEST PUSH1 0x1 PUSH1 0x2 DUP9 MUL ADD DUP9 SSTORE POP POP POP JUMPDEST POP POP POP POP POP POP JUMP JUMPDEST PUSH0 PUSH2 0x1728 DUP3 PUSH2 0xD7A JUMP JUMPDEST SWAP2 POP PUSH2 0x1733 DUP4 PUSH2 0xD7A JUMP JUMPDEST SWAP3 POP DUP3 DUP3 MUL PUSH2 0x1741 DUP2 PUSH2 0xD7A JUMP JUMPDEST SWAP2 POP DUP3 DUP3 DIV DUP5 EQ DUP4 ISZERO OR PUSH2 0x1758 JUMPI PUSH2 0x1757 PUSH2 0x13E1 JUMP JUMPDEST JUMPDEST POP SWAP3 SWAP2 POP POP JUMP INVALID LOG2 PUSH5 0x6970667358 0x22 SLT KECCAK256 SLT 0xA6 PUSH8 0xECAFF942BCB30A37 0xD0 0xE7 PUSH11 0xE0B466F54A9654B17EE2AF BLOBBASEFEE 0xAD PREVRANDAO LOG4 0xDA 0xC6 0xD9 PUSH5 0x736F6C6343 STOP ADDMOD XOR STOP CALLER "},"gasEstimates":{"creation":{"codeDepositCost":"1207400","executionCost":"infinite","totalCost":"infinite"},"external":{"approvers(address)":"2803","contribute()":"infinite","getApproversCount()":"2477","getContractBalance()":"infinite","getContributors()":"2499","getDescription()":"infinite","getManager()":"2537","getMinimumContribution()":"2520","getSummary()":"infinite","requests(string)":"infinite","submitRequest(string)":"infinite","triggerCampaignRequest(string,string,uint256,uint256,address)":"infinite","voteRequest(string,bool)":"infinite"}},"methodIdentifiers":{"approvers(address)":"0a144391","contribute()":"d7bb99ba","getApproversCount()":"aa8a7eeb","getContractBalance()":"6f9fb98a","getContributors()":"af157c19","getDescription()":"1a092541","getManager()":"d5009584","getMinimumContribution()":"f84038b1","getSummary()":"4051ddac","requests(string)":"692d51d2","submitRequest(string)":"e2e46b52","triggerCampaignRequest(string,string,uint256,uint256,address)":"a7ac8000","voteRequest(string,bool)":"30e8fc5c"}},"storageLayout":{"storage":[{"astId":132,"contract":"Campaign.sol:Campaign","label":"_description","offset":0,"slot":"0","type":"t_string_storage"},{"astId":134,"contract":"Campaign.sol:Campaign","label":"_manager","offset":0,"slot":"1","type":"t_address"},{"astId":138,"contract":"Campaign.sol:Campaign","label":"approvers","offset":0,"slot":"2","type":"t_mapping(t_address,t_uint256)"},{"astId":140,"contract":"Campaign.sol:Campaign","label":"_approversCount","offset":0,"slot":"3","type":"t_uint256"},{"astId":142,"contract":"Campaign.sol:Campaign","label":"_minimumContribution","offset":0,"slot":"4","type":"t_uint256"},{"astId":147,"contract":"Campaign.sol:Campaign","label":"requests","offset":0,"slot":"5","type":"t_mapping(t_string_memory_ptr,t_struct(Request)119_storage)"}],"types":{"t_address":{"encoding":"inplace","label":"address","numberOfBytes":"20"},"t_address_payable":{"encoding":"inplace","label":"address payable","numberOfBytes":"20"},"t_bool":{"encoding":"inplace","label":"bool","numberOfBytes":"1"},"t_mapping(t_address,t_bool)":{"encoding":"mapping","key":"t_address","label":"mapping(address => bool)","numberOfBytes":"32","value":"t_bool"},"t_mapping(t_address,t_uint256)":{"encoding":"mapping","key":"t_address","label":"mapping(address => uint256)","numberOfBytes":"32","value":"t_uint256"},"t_mapping(t_string_memory_ptr,t_struct(Request)119_storage)":{"encoding":"mapping","key":"t_string_memory_ptr","label":"mapping(string => struct Campaign.Request)","numberOfBytes":"32","value":"t_struct(Request)119_storage"},"t_string_memory_ptr":{"encoding":"bytes","label":"string","numberOfBytes":"32"},"t_string_storage":{"encoding":"bytes","label":"string","numberOfBytes":"32"},"t_struct(Request)119_storage":{"encoding":"inplace","label":"struct Campaign.Request","members":[{"astId":100,"contract":"Campaign.sol:Campaign","label":"name","offset":0,"slot":"0","type":"t_string_storage"},{"astId":102,"contract":"Campaign.sol:Campaign","label":"description","offset":0,"slot":"1","type":"t_string_storage"},{"astId":104,"contract":"Campaign.sol:Campaign","label":"amount","offset":0,"slot":"2","type":"t_uint256"},{"astId":106,"contract":"Campaign.sol:Campaign","label":"receiver","offset":0,"slot":"3","type":"t_address_payable"},{"astId":108,"contract":"Campaign.sol:Campaign","label":"approvalsCount","offset":0,"slot":"4","type":"t_uint256"},{"astId":110,"contract":"Campaign.sol:Campaign","label":"requiredApprovals","offset":0,"slot":"5","type":"t_uint256"},{"astId":112,"contract":"Campaign.sol:Campaign","label":"canSubmit","offset":0,"slot":"6","type":"t_bool"},{"astId":114,"contract":"Campaign.sol:Campaign","label":"complete","offset":1,"slot":"6","type":"t_bool"},{"astId":118,"contract":"Campaign.sol:Campaign","label":"approvers","offset":0,"slot":"7","type":"t_mapping(t_address,t_bool)"}],"numberOfBytes":"256"},"t_uint256":{"encoding":"inplace","label":"uint256","numberOfBytes":"32"}}},"userdoc":{"kind":"user","methods":{},"version":1}}